{
  "_format": "hh-sol-artifact-1",
  "contractName": "EmbraceApps",
  "sourceName": "contracts/EmbraceApps.sol",
  "abi": [
    {
      "inputs": [],
      "stateMutability": "nonpayable",
      "type": "constructor"
    },
    {
      "inputs": [
        {
          "internalType": "uint256",
          "name": "",
          "type": "uint256"
        }
      ],
      "name": "apps",
      "outputs": [
        {
          "internalType": "uint256",
          "name": "id",
          "type": "uint256"
        },
        {
          "internalType": "string",
          "name": "name",
          "type": "string"
        },
        {
          "internalType": "address",
          "name": "contractAddress",
          "type": "address"
        },
        {
          "internalType": "bool",
          "name": "enabled",
          "type": "bool"
        }
      ],
      "stateMutability": "view",
      "type": "function"
    },
    {
      "inputs": [
        {
          "internalType": "string",
          "name": "_name",
          "type": "string"
        },
        {
          "internalType": "address",
          "name": "_contractAddress",
          "type": "address"
        },
        {
          "internalType": "bool",
          "name": "_enabled",
          "type": "bool"
        }
      ],
      "name": "createApp",
      "outputs": [],
      "stateMutability": "nonpayable",
      "type": "function"
    },
    {
      "inputs": [
        {
          "internalType": "uint128",
          "name": "_appId",
          "type": "uint128"
        }
      ],
      "name": "getAppById",
      "outputs": [
        {
          "components": [
            {
              "internalType": "uint256",
              "name": "id",
              "type": "uint256"
            },
            {
              "internalType": "string",
              "name": "name",
              "type": "string"
            },
            {
              "internalType": "address",
              "name": "contractAddress",
              "type": "address"
            },
            {
              "internalType": "bool",
              "name": "enabled",
              "type": "bool"
            }
          ],
          "internalType": "struct EmbraceApps.App",
          "name": "",
          "type": "tuple"
        }
      ],
      "stateMutability": "view",
      "type": "function"
    },
    {
      "inputs": [
        {
          "internalType": "string",
          "name": "_name",
          "type": "string"
        }
      ],
      "name": "getAppByName",
      "outputs": [
        {
          "components": [
            {
              "internalType": "uint256",
              "name": "id",
              "type": "uint256"
            },
            {
              "internalType": "string",
              "name": "name",
              "type": "string"
            },
            {
              "internalType": "address",
              "name": "contractAddress",
              "type": "address"
            },
            {
              "internalType": "bool",
              "name": "enabled",
              "type": "bool"
            }
          ],
          "internalType": "struct EmbraceApps.App",
          "name": "",
          "type": "tuple"
        }
      ],
      "stateMutability": "view",
      "type": "function"
    },
    {
      "inputs": [],
      "name": "getApps",
      "outputs": [
        {
          "components": [
            {
              "internalType": "uint256",
              "name": "id",
              "type": "uint256"
            },
            {
              "internalType": "string",
              "name": "name",
              "type": "string"
            },
            {
              "internalType": "address",
              "name": "contractAddress",
              "type": "address"
            },
            {
              "internalType": "bool",
              "name": "enabled",
              "type": "bool"
            }
          ],
          "internalType": "struct EmbraceApps.App[]",
          "name": "",
          "type": "tuple[]"
        }
      ],
      "stateMutability": "view",
      "type": "function"
    },
    {
      "inputs": [
        {
          "internalType": "bytes32",
          "name": "",
          "type": "bytes32"
        }
      ],
      "name": "nameToId",
      "outputs": [
        {
          "internalType": "uint256",
          "name": "",
          "type": "uint256"
        }
      ],
      "stateMutability": "view",
      "type": "function"
    },
    {
      "inputs": [],
      "name": "owner",
      "outputs": [
        {
          "internalType": "address",
          "name": "",
          "type": "address"
        }
      ],
      "stateMutability": "view",
      "type": "function"
    },
    {
      "inputs": [
        {
          "internalType": "uint128",
          "name": "_appId",
          "type": "uint128"
        },
        {
          "internalType": "address",
          "name": "_contractAddress",
          "type": "address"
        }
      ],
      "name": "setAppContractAddress",
      "outputs": [],
      "stateMutability": "nonpayable",
      "type": "function"
    },
    {
      "inputs": [
        {
          "internalType": "uint256",
          "name": "",
          "type": "uint256"
        },
        {
          "internalType": "uint256",
          "name": "",
          "type": "uint256"
        }
      ],
      "name": "spaceToAppIdToSpaceApp",
      "outputs": [
        {
          "internalType": "uint256",
          "name": "appId",
          "type": "uint256"
        },
        {
          "internalType": "string",
          "name": "name",
          "type": "string"
        },
        {
          "internalType": "address",
          "name": "contractAddress",
          "type": "address"
        },
        {
          "internalType": "string",
          "name": "metadata",
          "type": "string"
        }
      ],
      "stateMutability": "view",
      "type": "function"
    },
    {
      "inputs": [
        {
          "internalType": "uint256",
          "name": "",
          "type": "uint256"
        },
        {
          "internalType": "uint256",
          "name": "",
          "type": "uint256"
        }
      ],
      "name": "spaceToAppIds",
      "outputs": [
        {
          "internalType": "uint256",
          "name": "",
          "type": "uint256"
        }
      ],
      "stateMutability": "view",
      "type": "function"
    }
  ],
  "bytecode": "0x6080806040523461003157600580546001600160a01b03191633179055600080546001019055610b2a90816100378239f35b600080fdfe608060405260048036101561001357600080fd5b60003560e01c9081634154b88414610662578163573c2232146103b45781636187fd3e1461030657816361acc37e146102895781636c86a4301461025f5781637fee31a6146102255781638bf62e71146101eb5781638da5cb5b146101c2578163d66d756d146100ce575063f3d1ce1b1461008d57600080fd5b346100c95760203660031901126100c9576100c56100b16100ac6108d9565b610a7d565b604051918291602083526020830190610924565b0390f35b600080fd5b346100c95760003660031901126100c9576001805490916001600160401b0382116101ad57509060405190602061010a818560051b0184610764565b838352808301938483600052826000206000915b8383106101865750505050604051928184019082855251809152604084019160408260051b86010195926000905b8382106101595786880387f35b90919293948380610175839a603f198b82030186528951610924565b99970195949391909101910161014c565b94600385829997610199859a989a6109e9565b81520192019201919096949695939561011e565b604190634e487b7160e01b6000525260246000fd5b346100c95760003660031901126100c9576005546040516001600160a01b039091168152602090f35b346100c9576101f9366106e3565b90600052600360205260406000209081548110156100c957602091600052816000200154604051908152f35b346100c95760203660031901126100c9578035906001600160401b0382116100c95761025a6100b1916100c59336910161086d565b610ac9565b346100c95760203660031901126100c9573560005260026020526020604060002054604051908152f35b346100c95760203660031901126100c957356001548110156100c957600160005260036020600020910201805460026102c460018401610787565b92015460ff6102e5604051948594855260806020860152608085019061082d565b6001600160a01b038316604085015260a09290921c16151560608301520390f35b346100c95760403660031901126100c95761031f6108d9565b906103286108c3565b9160018060a01b039161034083600554163314610963565b6001600160801b0382161561037a575061036361035e6002926109ba565b6108ef565b500180546001600160a01b03191691909216179055005b60649060206040519162461bcd60e51b8352820152601360248201527220b838103237b2b9903737ba1032bc34b9ba1760691b6044820152fd5b346100c95760603660031901126100c9576001600160401b039080358281116100c9576103e4903690830161086d565b906103ed6108c3565b90604435908115158092036100c95761041160018060a01b03600554163314610963565b83516020850120600052600260205260406000205461062357600054946040519161043b83610733565b868352602083018681526001600160a01b039095166040840190815260608401948552600154909590600160401b81101561060e5780600161048092016001556108ef565b9490946105fa57518455519081519283116101ad57506104a360018401546106f9565b601f81116105af575b50602090601f831160011461053e57600293929160009183610533575b50508160011b916000199060031b1c19161760018201555b92519201805491516001600160a81b03199092166001600160a01b03939093169290921790151560a01b60ff60a01b161790556000805460010181558151602092830120815260029091526040902055005b0151905088806104c9565b90601f198316916001850160005260206000209260005b818110610597575091600193918560029796941061057e575b505050811b0160018201556104e1565b015160001960f88460031b161c1916905588808061056e565b92936020600181928786015181550195019301610555565b600184016000526020600020601f840160051c810191602085106105f0575b601f0160051c01905b8181106105e457506104ac565b600081556001016105d7565b90915081906105ce565b600083634e487b7160e01b82525260246000fd5b604183634e487b7160e01b6000525260246000fd5b60649060206040519162461bcd60e51b8352820152601860248201527720b838103730b6b29030b63932b0b23c9032bc34b9ba399760411b6044820152fd5b346100c957610670366106e3565b9190600052602052604060002090600052602052604060002080546100c561069a60018401610787565b926106b4600360018060a01b036002840154169201610787565b6106d0604051958695865260806020870152608086019061082d565b916040850152838203606085015261082d565b60409060031901126100c9576004359060243590565b90600182811c92168015610729575b602083101461071357565b634e487b7160e01b600052602260045260246000fd5b91607f1691610708565b608081019081106001600160401b0382111761074e57604052565b634e487b7160e01b600052604160045260246000fd5b601f909101601f19168101906001600160401b0382119082101761074e57604052565b906040519182600082549261079b846106f9565b90818452600194858116908160001461080a57506001146107c7575b50506107c592500383610764565b565b9093915060005260209081600020936000915b8183106107f25750506107c5935082010138806107b7565b855488840185015294850194879450918301916107da565b9150506107c594506020925060ff191682840152151560051b82010138806107b7565b919082519283825260005b848110610859575050826000602080949584010152601f8019910116010190565b602081830181015184830182015201610838565b81601f820112156100c9578035906001600160401b03821161074e57604051926108a1601f8401601f191660200185610764565b828452602083830101116100c957816000926020809301838601378301015290565b602435906001600160a01b03821682036100c957565b600435906001600160801b03821682036100c957565b60015481101561090e5760016000526003602060002091020190600090565b634e487b7160e01b600052603260045260246000fd5b9081518152606080610945602085015160806020860152608085019061082d565b6040808601516001600160a01b031690850152930151151591015290565b1561096a57565b60405162461bcd60e51b815260206004820152602260248201527f4f6e6c79206f776e65722063616e2063616c6c20746869732066756e6374696f604482015261371760f11b6064820152608490fd5b6001600160801b0390811660001901919082116109d357565b634e487b7160e01b600052601160045260246000fd5b906040516109f681610733565b606060ff6002839580548552610a0e60018201610787565b602086015201546001600160a01b038116604085015260a01c161515910152565b60405190610a3c82610733565b60006060838281528160208201528260408201520152565b60609060208152600e60208201526d20b838103737ba103337bab7321760911b60408201520190565b610a85610a2f565b506001600160801b038116610ab15760405162461bcd60e51b815280610aad60048201610a54565b0390fd5b610ac061035e610ac6926109ba565b506109e9565b90565b610ad1610a2f565b5060208151910120600052600260205260406000205480610b055760405162461bcd60e51b815280610aad60048201610a54565b60001981019081116109d357610ac0610ac6916108ef56fea164736f6c6343000811000a",
  "linkReferences": {},
  "deployedLinkReferences": {}
}