{
  "_format": "hh-sol-artifact-1",
  "contractName": "CommunityTableMethods",
  "sourceName": "contracts/CommunityTableMethods.sol",
  "abi": [
    {
      "inputs": [
        {
          "internalType": "address",
          "name": "_tablelandRegistryAddress",
          "type": "address"
        }
      ],
      "stateMutability": "nonpayable",
      "type": "constructor"
    },
    {
      "inputs": [
        {
          "internalType": "string",
          "name": "tableName",
          "type": "string"
        }
      ],
      "name": "ErrorTableExists",
      "type": "error"
    },
    {
      "inputs": [],
      "name": "createKeyValueTable",
      "outputs": [],
      "stateMutability": "nonpayable",
      "type": "function"
    },
    {
      "inputs": [],
      "name": "createMemberTable",
      "outputs": [],
      "stateMutability": "nonpayable",
      "type": "function"
    },
    {
      "inputs": [
        {
          "internalType": "uint256",
          "name": "_memberId",
          "type": "uint256"
        }
      ],
      "name": "insertMember",
      "outputs": [],
      "stateMutability": "nonpayable",
      "type": "function"
    },
    {
      "inputs": [],
      "name": "keyValueTable",
      "outputs": [
        {
          "internalType": "uint256",
          "name": "id",
          "type": "uint256"
        },
        {
          "internalType": "string",
          "name": "name",
          "type": "string"
        }
      ],
      "stateMutability": "view",
      "type": "function"
    },
    {
      "inputs": [],
      "name": "memberTable",
      "outputs": [
        {
          "internalType": "uint256",
          "name": "id",
          "type": "uint256"
        },
        {
          "internalType": "string",
          "name": "name",
          "type": "string"
        }
      ],
      "stateMutability": "view",
      "type": "function"
    },
    {
      "inputs": [
        {
          "internalType": "string",
          "name": "_tablePrefix",
          "type": "string"
        }
      ],
      "name": "setPrefix",
      "outputs": [],
      "stateMutability": "nonpayable",
      "type": "function"
    }
  ],
  "bytecode": "0x608060405234801561001057600080fd5b50604051610c95380380610c9583398101604081905261002f91610054565b600180546001600160a01b0319166001600160a01b0392909216919091179055610084565b60006020828403121561006657600080fd5b81516001600160a01b038116811461007d57600080fd5b9392505050565b610c02806100936000396000f3fe608060405234801561001057600080fd5b50600436106100625760003560e01c8063351e233914610067578063668bf4281461007157806385cb593b14610090578063b43bdada146100a3578063b75b238c146100ab578063f6228cad146100b3575b600080fd5b61006f6100c6565b005b6100796101cc565b60405161008792919061065a565b60405180910390f35b61006f61009e366004610691565b610263565b61006f61026f565b61007961037e565b61006f6100c1366004610741565b610392565b600254156100f357604051633e0f514960e01b81526100ea90600390600401610794565b60405180910390fd5b6000806040516020016101069190610892565b60408051601f1981840301815260015460608401909252602b8084529093506001600160a01b0390911691633a9151b091309161014b91610bcb602083013985610444565b6040518363ffffffff1660e01b81526004016101689291906108b5565b6020604051808303816000875af1158015610187573d6000803e3d6000fd5b505050506040513d601f19601f820116820180604052508101906101ab91906108d9565b60028190556101bb90829061047a565b6003906101c89082610941565b5050565b60028054600380549192916101e09061075a565b80601f016020809104026020016040519081016040528092919081815260200182805461020c9061075a565b80156102595780601f1061022e57610100808354040283529160200191610259565b820191906000526020600020905b81548152906001019060200180831161023c57829003601f168201915b5050505050905082565b60006101c88282610941565b6004541561029357604051633e0f514960e01b81526100ea90600590600401610794565b6000806040516020016102a69190610a00565b60408051601f19818403018152600154838301909252601a8352791ac81511561508141492535054964812d1564b081d881511561560321b602084015292506001600160a01b031690633a9151b09030906103019085610444565b6040518363ffffffff1660e01b815260040161031e9291906108b5565b6020604051808303816000875af115801561033d573d6000803e3d6000fd5b505050506040513d601f19601f8201168201806040525081019061036191906108d9565b600481905561037190829061047a565b6005906101c89082610941565b60048054600580549192916101e09061075a565b600061039d826104a1565b905060006103aa426104a1565b90506000600260010183836040516020016103c793929190610a26565b60408051601f198184030181529082905260015460025463757ae82760e11b84529193506001600160a01b03169163eaf5d04e9161040c913091908690600401610aba565b600060405180830381600087803b15801561042657600080fd5b505af115801561043a573d6000803e3d6000fd5b5050505050505050565b606081610450466104a1565b8460405160200161046393929190610aea565b604051602081830303815290604052905092915050565b606082610486466104a1565b61048f846104a1565b60405160200161046393929190610b70565b606060006104ae83610533565b60010190506000816001600160401b038111156104cd576104cd61067b565b6040519080825280601f01601f1916602001820160405280156104f7576020820181803683370190505b5090508181016020015b600019016f181899199a1a9b1b9c1cb0b131b232b360811b600a86061a8153600a850494508461050157509392505050565b60008072184f03e93ff9f4daa797ed6e38ed64bf6a1f0160401b83106105725772184f03e93ff9f4daa797ed6e38ed64bf6a1f0160401b830492506040015b6904ee2d6d415b85acef8160201b831061059c576904ee2d6d415b85acef8160201b830492506020015b662386f26fc1000083106105ba57662386f26fc10000830492506010015b6305f5e10083106105d2576305f5e100830492506008015b61271083106105e657612710830492506004015b606483106105f8576064830492506002015b600a8310610604576001015b92915050565b60005b8381101561062557818101518382015260200161060d565b50506000910152565b6000815180845261064681602086016020860161060a565b601f01601f19169290920160200192915050565b828152604060208201526000610673604083018461062e565b949350505050565b634e487b7160e01b600052604160045260246000fd5b6000602082840312156106a357600080fd5b81356001600160401b03808211156106ba57600080fd5b818401915084601f8301126106ce57600080fd5b8135818111156106e0576106e061067b565b604051601f8201601f19908116603f011681019083821181831017156107085761070861067b565b8160405282815287602084870101111561072157600080fd5b826020860160208301376000928101602001929092525095945050505050565b60006020828403121561075357600080fd5b5035919050565b600181811c9082168061076e57607f821691505b60208210810361078e57634e487b7160e01b600052602260045260246000fd5b50919050565b60006020808352600084546107a88161075a565b808487015260406001808416600081146107c957600181146107e357610811565b60ff1985168984015283151560051b890183019550610811565b896000528660002060005b858110156108095781548b82018601529083019088016107ee565b8a0184019650505b509398975050505050505050565b6000815461082c8161075a565b60018281168015610844576001811461085957610888565b60ff1984168752821515830287019450610888565b8560005260208060002060005b8581101561087f5781548a820152908401908201610866565b50505082870194505b5050505092915050565b600061089e828461081f565b662fb6b2b6b132b960c91b81526007019392505050565b6001600160a01b03831681526040602082018190526000906106739083018461062e565b6000602082840312156108eb57600080fd5b5051919050565b601f82111561093c57600081815260208120601f850160051c810160208610156109195750805b601f850160051c820191505b8181101561093857828155600101610925565b5050505b505050565b81516001600160401b0381111561095a5761095a61067b565b61096e81610968845461075a565b846108f2565b602080601f8311600181146109a3576000841561098b5750858301515b600019600386901b1c1916600185901b178555610938565b600085815260208120601f198616915b828110156109d2578886015182559484019460019091019084016109b3565b50858210156109f05787850151600019600388901b60f8161c191681555b5050505050600190811b01905550565b6000610a0c828461081f565b695f6b65795f76616c756560b01b8152600a019392505050565b6b024a729a2a92a1024a72a27960a51b81526000610a47600c83018661081f565b7a04050d2c85840c6e4cac2e8cac888c2e8ca5240ac8298aa8aa6405602b1b81528451610a7b81601b84016020890161060a565b6109cb60f21b601b92909101918201528351610a9e81601d84016020880161060a565b61293b60f01b601d9290910191820152601f0195945050505050565b60018060a01b0384168152826020820152606060408201526000610ae1606083018461062e565b95945050505050565b6c021a922a0aa22902a20a126229609d1b815260008451610b1281600d85016020890161060a565b605f60f81b600d918401918201528451610b3381600e84016020890161060a565b600560fb1b600e92909101918201528351610b5581600f84016020880161060a565b602960f81b600f929091019182015260100195945050505050565b60008451610b8281846020890161060a565b8083019050605f60f81b8082528551610ba2816001850160208a0161060a565b60019201918201528351610bbd81600284016020880161060a565b016002019594505050505056fe696420494e5445474552205052494d415259204b45592c20637265617465644461746520494e5445474552a164736f6c6343000811000a",
  "linkReferences": {},
  "deployedLinkReferences": {}
}