{
  "_format": "hh-sol-artifact-1",
  "contractName": "TablelandCommunity",
  "sourceName": "contracts/TablelandCommunity.sol",
  "abi": [
    {
      "inputs": [
        {
          "internalType": "string",
          "name": "tableName",
          "type": "string"
        }
      ],
      "name": "ErrorTableDoesNotExist",
      "type": "error"
    },
    {
      "inputs": [
        {
          "internalType": "string",
          "name": "tableName",
          "type": "string"
        }
      ],
      "name": "ErrorTableExists",
      "type": "error"
    },
    {
      "anonymous": false,
      "inputs": [
        {
          "indexed": false,
          "internalType": "uint8",
          "name": "version",
          "type": "uint8"
        }
      ],
      "name": "Initialized",
      "type": "event"
    },
    {
      "inputs": [
        {
          "internalType": "bytes8",
          "name": "",
          "type": "bytes8"
        }
      ],
      "name": "tables",
      "outputs": [
        {
          "internalType": "enum TablelandCommunity.TableType",
          "name": "tableType",
          "type": "uint8"
        },
        {
          "internalType": "uint256",
          "name": "id",
          "type": "uint256"
        },
        {
          "internalType": "string",
          "name": "name",
          "type": "string"
        },
        {
          "internalType": "string",
          "name": "prefix",
          "type": "string"
        }
      ],
      "stateMutability": "view",
      "type": "function"
    }
  ],
  "bytecode": "0x608060405234801561001057600080fd5b506102b4806100206000396000f3fe608060405234801561001057600080fd5b506004361061002b5760003560e01c80639e645d3214610030575b600080fd5b61004361003e36600461019c565b61005c565b6040516100539493929190610213565b60405180910390f35b600160208190526000918252604090912080549181015460028201805460ff9094169391929161008b9061026d565b80601f01602080910402602001604051908101604052809291908181526020018280546100b79061026d565b80156101045780601f106100d957610100808354040283529160200191610104565b820191906000526020600020905b8154815290600101906020018083116100e757829003601f168201915b5050505050908060030180546101199061026d565b80601f01602080910402602001604051908101604052809291908181526020018280546101459061026d565b80156101925780601f1061016757610100808354040283529160200191610192565b820191906000526020600020905b81548152906001019060200180831161017557829003601f168201915b5050505050905084565b6000602082840312156101ae57600080fd5b81356001600160c01b0319811681146101c657600080fd5b9392505050565b6000815180845260005b818110156101f3576020818501810151868301820152016101d7565b506000602082860101526020601f19601f83011685010191505092915050565b60006002861061023357634e487b7160e01b600052602160045260246000fd5b8582528460208301526080604083015261025060808301856101cd565b828103606084015261026281856101cd565b979650505050505050565b600181811c9082168061028157607f821691505b6020821081036102a157634e487b7160e01b600052602260045260246000fd5b5091905056fea164736f6c6343000811000a",
  "linkReferences": {},
  "deployedLinkReferences": {}
}