{
  "_format": "hh-sol-artifact-1",
  "contractName": "EmbraceCommunity",
  "sourceName": "contracts/EmbraceCommunity.sol",
  "abi": [
    {
      "inputs": [
        {
          "internalType": "string",
          "name": "_name",
          "type": "string"
        },
        {
          "internalType": "string",
          "name": "_symbol",
          "type": "string"
        },
        {
          "internalType": "address",
          "name": "_embraceCommunitiesContract",
          "type": "address"
        },
        {
          "internalType": "uint256",
          "name": "_communityId",
          "type": "uint256"
        }
      ],
      "stateMutability": "nonpayable",
      "type": "constructor"
    },
    {
      "anonymous": false,
      "inputs": [
        {
          "indexed": true,
          "internalType": "address",
          "name": "owner",
          "type": "address"
        },
        {
          "indexed": true,
          "internalType": "address",
          "name": "approved",
          "type": "address"
        },
        {
          "indexed": true,
          "internalType": "uint256",
          "name": "tokenId",
          "type": "uint256"
        }
      ],
      "name": "Approval",
      "type": "event"
    },
    {
      "anonymous": false,
      "inputs": [
        {
          "indexed": true,
          "internalType": "address",
          "name": "owner",
          "type": "address"
        },
        {
          "indexed": true,
          "internalType": "address",
          "name": "operator",
          "type": "address"
        },
        {
          "indexed": false,
          "internalType": "bool",
          "name": "approved",
          "type": "bool"
        }
      ],
      "name": "ApprovalForAll",
      "type": "event"
    },
    {
      "anonymous": false,
      "inputs": [
        {
          "indexed": true,
          "internalType": "bytes32",
          "name": "role",
          "type": "bytes32"
        },
        {
          "indexed": true,
          "internalType": "bytes32",
          "name": "previousAdminRole",
          "type": "bytes32"
        },
        {
          "indexed": true,
          "internalType": "bytes32",
          "name": "newAdminRole",
          "type": "bytes32"
        }
      ],
      "name": "RoleAdminChanged",
      "type": "event"
    },
    {
      "anonymous": false,
      "inputs": [
        {
          "indexed": true,
          "internalType": "bytes32",
          "name": "role",
          "type": "bytes32"
        },
        {
          "indexed": true,
          "internalType": "address",
          "name": "account",
          "type": "address"
        },
        {
          "indexed": true,
          "internalType": "address",
          "name": "sender",
          "type": "address"
        }
      ],
      "name": "RoleGranted",
      "type": "event"
    },
    {
      "anonymous": false,
      "inputs": [
        {
          "indexed": true,
          "internalType": "bytes32",
          "name": "role",
          "type": "bytes32"
        },
        {
          "indexed": true,
          "internalType": "address",
          "name": "account",
          "type": "address"
        },
        {
          "indexed": true,
          "internalType": "address",
          "name": "sender",
          "type": "address"
        }
      ],
      "name": "RoleRevoked",
      "type": "event"
    },
    {
      "anonymous": false,
      "inputs": [
        {
          "indexed": true,
          "internalType": "address",
          "name": "from",
          "type": "address"
        },
        {
          "indexed": true,
          "internalType": "address",
          "name": "to",
          "type": "address"
        },
        {
          "indexed": true,
          "internalType": "uint256",
          "name": "tokenId",
          "type": "uint256"
        }
      ],
      "name": "Transfer",
      "type": "event"
    },
    {
      "inputs": [],
      "name": "DEFAULT_ADMIN_ROLE",
      "outputs": [
        {
          "internalType": "bytes32",
          "name": "",
          "type": "bytes32"
        }
      ],
      "stateMutability": "view",
      "type": "function"
    },
    {
      "inputs": [
        {
          "internalType": "address",
          "name": "to",
          "type": "address"
        },
        {
          "internalType": "uint256",
          "name": "tokenId",
          "type": "uint256"
        }
      ],
      "name": "approve",
      "outputs": [],
      "stateMutability": "nonpayable",
      "type": "function"
    },
    {
      "inputs": [
        {
          "internalType": "uint256",
          "name": "",
          "type": "uint256"
        }
      ],
      "name": "apps",
      "outputs": [
        {
          "internalType": "uint128",
          "name": "",
          "type": "uint128"
        }
      ],
      "stateMutability": "view",
      "type": "function"
    },
    {
      "inputs": [
        {
          "internalType": "address",
          "name": "owner",
          "type": "address"
        }
      ],
      "name": "balanceOf",
      "outputs": [
        {
          "internalType": "uint256",
          "name": "",
          "type": "uint256"
        }
      ],
      "stateMutability": "view",
      "type": "function"
    },
    {
      "inputs": [],
      "name": "communityId",
      "outputs": [
        {
          "internalType": "uint256",
          "name": "",
          "type": "uint256"
        }
      ],
      "stateMutability": "view",
      "type": "function"
    },
    {
      "inputs": [
        {
          "internalType": "uint256",
          "name": "tokenId",
          "type": "uint256"
        }
      ],
      "name": "getApproved",
      "outputs": [
        {
          "internalType": "address",
          "name": "",
          "type": "address"
        }
      ],
      "stateMutability": "view",
      "type": "function"
    },
    {
      "inputs": [],
      "name": "getCommunityData",
      "outputs": [
        {
          "components": [
            {
              "internalType": "string",
              "name": "handle",
              "type": "string"
            },
            {
              "internalType": "enum Visibility",
              "name": "visibility",
              "type": "uint8"
            },
            {
              "internalType": "enum Membership",
              "name": "membership",
              "type": "uint8"
            },
            {
              "internalType": "uint128[]",
              "name": "apps",
              "type": "uint128[]"
            }
          ],
          "internalType": "struct CommunityContractData",
          "name": "",
          "type": "tuple"
        }
      ],
      "stateMutability": "view",
      "type": "function"
    },
    {
      "inputs": [
        {
          "internalType": "bytes32",
          "name": "role",
          "type": "bytes32"
        }
      ],
      "name": "getRoleAdmin",
      "outputs": [
        {
          "internalType": "bytes32",
          "name": "",
          "type": "bytes32"
        }
      ],
      "stateMutability": "view",
      "type": "function"
    },
    {
      "inputs": [
        {
          "internalType": "bytes32",
          "name": "role",
          "type": "bytes32"
        },
        {
          "internalType": "address",
          "name": "account",
          "type": "address"
        }
      ],
      "name": "grantRole",
      "outputs": [],
      "stateMutability": "nonpayable",
      "type": "function"
    },
    {
      "inputs": [],
      "name": "handle",
      "outputs": [
        {
          "internalType": "string",
          "name": "",
          "type": "string"
        }
      ],
      "stateMutability": "view",
      "type": "function"
    },
    {
      "inputs": [
        {
          "internalType": "bytes32",
          "name": "role",
          "type": "bytes32"
        },
        {
          "internalType": "address",
          "name": "account",
          "type": "address"
        }
      ],
      "name": "hasRole",
      "outputs": [
        {
          "internalType": "bool",
          "name": "",
          "type": "bool"
        }
      ],
      "stateMutability": "view",
      "type": "function"
    },
    {
      "inputs": [
        {
          "internalType": "address",
          "name": "owner",
          "type": "address"
        },
        {
          "internalType": "address",
          "name": "operator",
          "type": "address"
        }
      ],
      "name": "isApprovedForAll",
      "outputs": [
        {
          "internalType": "bool",
          "name": "",
          "type": "bool"
        }
      ],
      "stateMutability": "view",
      "type": "function"
    },
    {
      "inputs": [],
      "name": "membership",
      "outputs": [
        {
          "internalType": "enum Membership",
          "name": "",
          "type": "uint8"
        }
      ],
      "stateMutability": "view",
      "type": "function"
    },
    {
      "inputs": [],
      "name": "mint",
      "outputs": [],
      "stateMutability": "nonpayable",
      "type": "function"
    },
    {
      "inputs": [],
      "name": "name",
      "outputs": [
        {
          "internalType": "string",
          "name": "",
          "type": "string"
        }
      ],
      "stateMutability": "view",
      "type": "function"
    },
    {
      "inputs": [
        {
          "internalType": "uint256",
          "name": "tokenId",
          "type": "uint256"
        }
      ],
      "name": "ownerOf",
      "outputs": [
        {
          "internalType": "address",
          "name": "",
          "type": "address"
        }
      ],
      "stateMutability": "view",
      "type": "function"
    },
    {
      "inputs": [
        {
          "internalType": "bytes32",
          "name": "role",
          "type": "bytes32"
        },
        {
          "internalType": "address",
          "name": "account",
          "type": "address"
        }
      ],
      "name": "renounceRole",
      "outputs": [],
      "stateMutability": "nonpayable",
      "type": "function"
    },
    {
      "inputs": [
        {
          "internalType": "bytes32",
          "name": "role",
          "type": "bytes32"
        },
        {
          "internalType": "address",
          "name": "account",
          "type": "address"
        }
      ],
      "name": "revokeRole",
      "outputs": [],
      "stateMutability": "nonpayable",
      "type": "function"
    },
    {
      "inputs": [
        {
          "internalType": "address",
          "name": "from",
          "type": "address"
        },
        {
          "internalType": "address",
          "name": "to",
          "type": "address"
        },
        {
          "internalType": "uint256",
          "name": "tokenId",
          "type": "uint256"
        }
      ],
      "name": "safeTransferFrom",
      "outputs": [],
      "stateMutability": "nonpayable",
      "type": "function"
    },
    {
      "inputs": [
        {
          "internalType": "address",
          "name": "from",
          "type": "address"
        },
        {
          "internalType": "address",
          "name": "to",
          "type": "address"
        },
        {
          "internalType": "uint256",
          "name": "tokenId",
          "type": "uint256"
        },
        {
          "internalType": "bytes",
          "name": "data",
          "type": "bytes"
        }
      ],
      "name": "safeTransferFrom",
      "outputs": [],
      "stateMutability": "nonpayable",
      "type": "function"
    },
    {
      "inputs": [
        {
          "internalType": "address",
          "name": "operator",
          "type": "address"
        },
        {
          "internalType": "bool",
          "name": "approved",
          "type": "bool"
        }
      ],
      "name": "setApprovalForAll",
      "outputs": [],
      "stateMutability": "nonpayable",
      "type": "function"
    },
    {
      "inputs": [
        {
          "components": [
            {
              "internalType": "string",
              "name": "handle",
              "type": "string"
            },
            {
              "internalType": "enum Visibility",
              "name": "visibility",
              "type": "uint8"
            },
            {
              "internalType": "enum Membership",
              "name": "membership",
              "type": "uint8"
            },
            {
              "internalType": "uint128[]",
              "name": "apps",
              "type": "uint128[]"
            }
          ],
          "internalType": "struct CommunityContractData",
          "name": "_communityData",
          "type": "tuple"
        }
      ],
      "name": "setCommunityData",
      "outputs": [],
      "stateMutability": "nonpayable",
      "type": "function"
    },
    {
      "inputs": [
        {
          "internalType": "bytes4",
          "name": "interfaceId",
          "type": "bytes4"
        }
      ],
      "name": "supportsInterface",
      "outputs": [
        {
          "internalType": "bool",
          "name": "",
          "type": "bool"
        }
      ],
      "stateMutability": "view",
      "type": "function"
    },
    {
      "inputs": [],
      "name": "symbol",
      "outputs": [
        {
          "internalType": "string",
          "name": "",
          "type": "string"
        }
      ],
      "stateMutability": "view",
      "type": "function"
    },
    {
      "inputs": [
        {
          "internalType": "uint256",
          "name": "tokenId",
          "type": "uint256"
        }
      ],
      "name": "tokenURI",
      "outputs": [
        {
          "internalType": "string",
          "name": "",
          "type": "string"
        }
      ],
      "stateMutability": "view",
      "type": "function"
    },
    {
      "inputs": [
        {
          "internalType": "address",
          "name": "from",
          "type": "address"
        },
        {
          "internalType": "address",
          "name": "to",
          "type": "address"
        },
        {
          "internalType": "uint256",
          "name": "tokenId",
          "type": "uint256"
        }
      ],
      "name": "transferFrom",
      "outputs": [],
      "stateMutability": "nonpayable",
      "type": "function"
    },
    {
      "inputs": [],
      "name": "visibility",
      "outputs": [
        {
          "internalType": "enum Visibility",
          "name": "",
          "type": "uint8"
        }
      ],
      "stateMutability": "view",
      "type": "function"
    }
  ],
  "bytecode": "0x60406080815234620004115762002514803803806200001e8162000416565b9283398101608082820312620004115781516001600160401b039290838111620004115782620000509183016200043c565b92602092838301519082821162000411576200006e9184016200043c565b8286015190936001600160a01b03821693909184900362000411576060015193855192808411620003fb576000918254946001988987811c97168015620003f0575b86881014620002fa578190601f978881116200039d575b508690888311600114620003395786926200032d575b5050600019600383901b1c191690891b1783555b805190828211620003195788548981811c911680156200030e575b86821014620002fa57908187849311620002a7575b5085908783116001146200024357859262000237575b5050600019600383901b1c191690881b1787555b875190818901908111828210176200022357908391895260078152019266697066733a2f2f60c81b8452600954928784811c9416801562000218575b818510146200020457818411620001de575b505091516001600160c81b031916600e176009555050600a80546001600160a01b031916919091179055600b5560088054919091019055516120659081620004af8239f35b600983528220920160051c82019186905b838110156200019957828155018690620001ef565b634e487b7160e01b83526022600452602483fd5b93607f169362000187565b634e487b7160e01b83526041600452602483fd5b01519050388062000137565b8a86528686208b94509190601f198416875b8982821062000290575050841162000276575b505050811b0187556200014b565b015160001960f88460031b161c1916905538808062000268565b8385015186558e9790950194938401930162000255565b9091508985528585208780850160051c820192888610620002f0575b918c91869594930160051c01915b828110620002e157505062000121565b8781558594508c9101620002d1565b92508192620002c3565b634e487b7160e01b85526022600452602485fd5b90607f16906200010c565b634e487b7160e01b84526041600452602484fd5b015190503880620000dd565b8680528787208c94509190601f198416885b8a8282106200038657505084116200036c575b505050811b018355620000f1565b015160001960f88460031b161c191690553880806200035e565b8385015186558f979095019493840193016200034b565b9091508580528686208880850160051c820192898610620003e6575b918d91869594930160051c01915b828110620003d7575050620000c7565b8881558594508d9101620003c7565b92508192620003b9565b96607f1696620000b0565b634e487b7160e01b600052604160045260246000fd5b600080fd5b6040519190601f01601f191682016001600160401b03811183821017620003fb57604052565b919080601f84011215620004115782516001600160401b038111620003fb5760209062000472601f8201601f1916830162000416565b92818452828287010111620004115760005b8181106200049a57508260009394955001015290565b85810183015184820184015282016200048456fe608060408181526004918236101561001657600080fd5b600092833560e01c91826301ffc9a7146111655750816306fdde03146110de578163081812fc146110be578163095ea7b314610f505781631249c58b14610e8d57816323b872dd14610e63578163248a9ca314610e3857816329adec1414610e125781632f2ff15d14610d6557816336568abe14610cd357816342842e0e14610caa57816361acc37e14610c435781636352211e14610c1257816370a0823114610b7c5781637f50861a14610b5d57816391d1485414610b1657816395d89b4114610a8f578163a217fddf14610a74578163a22cb465146109ac578163a2bf68b91461097f578163adaf1cab14610587578163b88d4fde14610523578163c87b56dd146104ec578163d547741f146104a957508063daee9ac914610282578063e985e9c5146102355763fd0da0991461014e57600080fd5b3461023157816003193601126102315780519082600c5461016e81611379565b8085529060019081811690811561020957506001146101b0575b50505061019a826101ac940383611304565b5191829160208352602083019061120d565b0390f35b600c8352602095507fdf6966c971051c3d54ec59162606531493a51404a002842f56009d7e5cf4a8c75b8284106101f657505050826101ac9461019a9282010194610188565b80548685018801529286019281016101da565b6101ac975061019a9450602092508693915060ff191682840152151560051b82010194610188565b5080fd5b503461023157806003193601126102315760ff81602093610254611232565b61025c61124d565b6001600160a01b0391821683526005875283832091168252855220549151911615158152f35b503461023157816003193601126102315780519161029f836112b8565b60608352606080602094838682015283858201520152600d5460ff8082169160081c16938351936102cf856112b8565b8051600c54969085816102e18a611379565b9182825260019a878c8216918260001461048c57505060011461044e575b61030b92500382611304565b86528286019361031a81611298565b84528186019061032981611298565b815281519182838580600e549384815201600e8a528b828b20948b5b87828483011061041f575061037696549285838310610407575b5050106103f9575b50905099979695990384611304565b606087019283526103978151978989525160808a8a015260a089019061120d565b9351906103a382611298565b870152516103b081611298565b606086015251848203601f19016080860152805180835291860195908101925b8281106103dd5785870386f35b83516001600160801b03168752958101959281019284016103d0565b60801c815201869038610367565b6001600160801b038516865290940193018e8561035f565b87546001600160801b038116865260801c8c86015292909601958995508a945091909201918d91600201610345565b5050600c875281858089208b8a915b85831061047357505061030b93508201016102ff565b80919294505483858801015201910186908b859361045d565b60ff19168482015261030b94151560051b84010191506102ff9050565b919050346104e857806003193601126104e8576104e591356104e060016104ce61124d565b93838752600760205286200154611470565b61175c565b80f35b8280fd5b828434610520576020366003190112610520575061050d6101ac9235611cd4565b905191829160208352602083019061120d565b80fd5b8390346102315760803660031901126102315761053e611232565b61054661124d565b906064356001600160401b0381116105835736602382011215610583576104e59381602461057993369301359101611342565b91604435916118cd565b8480fd5b919050346104e85760206003198181360112610583576001600160401b039084359082821161097b576080908236030112610977578351936080850185811084821117610964578152818601358381116109605782019136602384011215610960576105fd6024933690858a8201359101611342565b8652828101356002968782101561095c578681019182526044830135928884101561095457848201938452606481013590878211610958570136602382011215610954578981013594878611610942578560051b9051956106608a830188611304565b865286898701918301019136831161093e578701905b82821061091b5750505060608101938452518051908682116109095781908b6106a0600c54611379565b8a601f82116108cf575b5050508890601f831160011461086a578c9261085f575b50508160011b916000199060031b1c191617600c555b51906106e282611298565b6106eb82611298565b60ff61ff00600d5492516106fe81611298565b61070781611298565b60081b1692169061ffff19161717600d555190815192831161084e57600160401b831161084e57508290600e5483600e55808410610801575b500190600e86528286209260019282841c95885b8781106107bd5750506001198316909203918261076f578780f35b929190879688905b838210610791575050505050500155388080808080808780f35b90919293836107b082979a60018060801b038c51169086861b90611cbb565b9901959493920190610777565b85908a8b5b868c8683106107d8575050508189015501610754565b82979495936107f4929360018060801b03875116921b90611cbb565b92019401908792916107c2565b61082e90600e89528389206001808701811c8201926010888c1b1680610834575b500160011c0190611ca4565b38610740565b60001990818601918254918a0360031b1c16905538610822565b634e487b7160e01b87526041865286fd5b0151905038806106c1565b600c8d52898d209250601f1984168d5b8b8282106108b95750509084600195949392106108a0575b505050811b01600c556106d7565b015160001960f88460031b161c19169055388080610892565b600185968293968601518155019501930161087a565b82600c6108f7945220601f850160051c8101918c86106108ff575b601f0160051c0190611ca4565b8b388a6106aa565b90915081906108ea565b634e487b7160e01b8b5260418a52858bfd5b81356001600160801b038116810361093a578152908901908901610676565b8d80fd5b8c80fd5b634e487b7160e01b8c5260418b52868cfd5b8a80fd5b8b80fd5b8980fd5b8780fd5b634e487b7160e01b885260418752602488fd5b8580fd5b8680fd5b505034610231578160031936011261023157600d54905160209160081c60ff166109a881611298565b8152f35b919050346104e857806003193601126104e8576109c7611232565b9060243591821515809303610583576001600160a01b031692338414610a365750338452600560205280842083855260205280842060ff1981541660ff8416179055519081527f17307eab39ab6107e8899845ad3d59bd9653f200f220920489ca2b5937696c3160203392a380f35b6020606492519162461bcd60e51b8352820152601960248201527822a9219b99189d1030b8383937bb32903a379031b0b63632b960391b6044820152fd5b50503461023157816003193601126102315751908152602090f35b505034610231578160031936011261023157805190826001805490610ab382611379565b808652918181169081156102095750600114610adb5750505061019a826101ac940383611304565b80955082526020948583205b828410610b0357505050826101ac9461019a9282010194610188565b8054868501880152928601928101610ae7565b9050346104e857816003193601126104e8578160209360ff92610b3761124d565b90358252600786528282206001600160a01b039091168252855220549151911615158152f35b505034610231578160031936011261023157602090600b549051908152f35b83915034610231576020366003190112610231576001600160a01b03610ba0611232565b16908115610bbd5760208480858581526003845220549051908152f35b608490602085519162461bcd60e51b8352820152602960248201527f4552433732313a2061646472657373207a65726f206973206e6f7420612076616044820152683634b21037bbb732b960b91b6064820152fd5b8284346105205760203660031901126105205750610c3260209235611819565b90516001600160a01b039091168152f35b9050346104e85760203660031901126104e85735600e548110156104e857600e909252600182901c7fbb7b4a454dc3493923482f07822329ed19e8244eff582cc204f8554c3620c3fd0154905160079290921b6080161c6001600160801b03168152602090f35b505034610231576104e590610cbe36611263565b91925192610ccb846112e9565b8584526118cd565b83915034610231578260031936011261023157610cee61124d565b90336001600160a01b03831603610d0a57906104e5913561175c565b608490602085519162461bcd60e51b8352820152602f60248201527f416363657373436f6e74726f6c3a2063616e206f6e6c792072656e6f756e636560448201526e103937b632b9903337b91039b2b63360891b6064820152fd5b9050346104e857816003193601126104e8573590610d8161124d565b908284526007602052610d9960018286200154611470565b828452600760209081528185206001600160a01b039093168086529290528084205460ff1615610dc7578380f35b82845260076020528084208285526020528320600160ff1982541617905533917f2f8788117e7eff1d82e926ec794901d17c78024a50270940304540a733656f0d8480a43880808380f35b505034610231578160031936011261023157600d54905160209160ff166109a881611298565b9050346104e85760203660031901126104e85781602093600192358152600785522001549051908152f35b8334610520576104e5610e7536611263565b91610e88610e838433611946565b61186b565b611a0e565b919050346104e857826003193601126104e857600854913315610f0e5750610ebd610eb783611b0a565b15611fad565b610ec9610eb783611b0a565b3380845260036020908152828520805460010190558385526002905290832080546001600160a01b03191682179055826000805160206120398339815191528180a480f35b6020606492519162461bcd60e51b8352820152602060248201527f4552433732313a206d696e7420746f20746865207a65726f20616464726573736044820152fd5b9050346104e857816003193601126104e857610f6a611232565b6024359290916001600160a01b0391908280610f8587611819565b1694169380851461107157803314908115611052575b5015610fea57848652602052842080546001600160a01b03191683179055610fc283611819565b167f8c5be1e5ebec7d5bd14f71427d1e84f3dd0314c0f7b2291e5b200ac8c7c3b9258480a480f35b6020608492519162461bcd60e51b8352820152603d60248201527f4552433732313a20617070726f76652063616c6c6572206973206e6f7420746f60448201527f6b656e206f776e6572206f7220617070726f76656420666f7220616c6c0000006064820152fd5b90508652600560205281862033875260205260ff828720541638610f9b565b506020608492519162461bcd60e51b8352820152602160248201527f4552433732313a20617070726f76616c20746f2063757272656e74206f776e656044820152603960f91b6064820152fd5b8284346105205760203660031901126105205750610c326020923561183f565b5050346102315781600319360112610231578051908280546110ff81611379565b80855290600190818116908115610209575060011461112a5750505061019a826101ac940383611304565b94508180526020948583205b82841061115257505050826101ac9461019a9282010194610188565b8054868501880152928601928101611136565b8491346104e85760203660031901126104e8573563ffffffff60e01b81168091036104e85760209250637965db0b60e01b81149081156111a7575b5015158152f35b6380ac58cd60e01b8114915081156111d9575b81156111c8575b50836111a0565b6301ffc9a760e01b149050836111c1565b635b5e139f60e01b811491506111ba565b60005b8381106111fd5750506000910152565b81810151838201526020016111ed565b90602091611226815180928185528580860191016111ea565b601f01601f1916010190565b600435906001600160a01b038216820361124857565b600080fd5b602435906001600160a01b038216820361124857565b6060906003190112611248576001600160a01b0390600435828116810361124857916024359081168103611248579060443590565b600211156112a257565b634e487b7160e01b600052602160045260246000fd5b608081019081106001600160401b038211176112d357604052565b634e487b7160e01b600052604160045260246000fd5b602081019081106001600160401b038211176112d357604052565b601f909101601f19168101906001600160401b038211908210176112d357604052565b6001600160401b0381116112d357601f01601f191660200190565b92919261134e82611327565b9161135c6040519384611304565b829481845281830111611248578281602093846000960137010152565b90600182811c921680156113a9575b602083101461139357565b634e487b7160e01b600052602260045260246000fd5b91607f1691611388565b60405190600082600954916113c783611379565b80835260019380851690811561144f57506001146113ef575b506113ed92500383611304565b565b600960009081527f6e1540171b6c0c960b71a7020d9f60077f6af931a8bbf590da0223dacf75c7af94602093509091905b8183106114375750506113ed9350820101386113e0565b85548884018501529485019487945091830191611420565b90506113ed94506020925060ff191682840152151560051b820101386113e0565b60009080825260209060078252604092838120338252835260ff84822054161561149a5750505050565b8351913390606084016001600160401b03811185821017611748578652602a845284840190863683378451156117345760308253845192600193841015611720576078602187015360295b8481116116b65750611686578651926114fd846112b8565b60428452868401946060368737845115611672576030865384518210156116725790607860218601536041915b818311611604575050506115d4576115d09386936115b4936115a560489461157c9a519a8b9576020b1b1b2b9b9a1b7b73a3937b61d1030b1b1b7bab73a1604d1b8c88015251809260378801906111ea565b8401917001034b99036b4b9b9b4b733903937b6329607d1b6037840152518093868401906111ea565b01036028810187520185611304565b5192839262461bcd60e51b84526004840152602483019061120d565b0390fd5b60648587519062461bcd60e51b82528060048301526024820152600080516020611ff98339815191526044820152fd5b909192600f8116601081101561165e576f181899199a1a9b1b9c1cb0b131b232b360811b901a6116348588611c7d565b5360041c92801561164a5760001901919061152a565b634e487b7160e01b82526011600452602482fd5b634e487b7160e01b83526032600452602483fd5b634e487b7160e01b81526032600452602490fd5b60648688519062461bcd60e51b82528060048301526024820152600080516020611ff98339815191526044820152fd5b90600f8116601081101561170c576f181899199a1a9b1b9c1cb0b131b232b360811b901a6116e48389611c7d565b5360041c9080156116f857600019016114e5565b634e487b7160e01b86526011600452602486fd5b634e487b7160e01b87526032600452602487fd5b634e487b7160e01b85526032600452602485fd5b634e487b7160e01b84526032600452602484fd5b634e487b7160e01b84526041600452602484fd5b906000918083526007602052604083209160018060a01b03169182845260205260ff60408420541661178d57505050565b8083526007602052604083208284526020526040832060ff1981541690557ff6391f5c32d9c69d2a47ea670b442974b53935d1edc7fd64eb21e047a839171b339380a4565b156117d957565b60405162461bcd60e51b8152602060048201526018602482015277115490cdcc8c4e881a5b9d985b1a59081d1bdad95b88125160421b6044820152606490fd5b6000908152600260205260409020546001600160a01b031661183c8115156117d2565b90565b61185061184b82611b0a565b6117d2565b6000908152600460205260409020546001600160a01b031690565b1561187257565b60405162461bcd60e51b815260206004820152602d60248201527f4552433732313a2063616c6c6572206973206e6f7420746f6b656e206f776e6560448201526c1c881bdc88185c1c1c9bdd9959609a1b6064820152608490fd5b906118f19392916118e1610e838433611946565b6118ec838383611a0e565b611b27565b156118f857565b60405162461bcd60e51b8152602060048201526032602482015260008051602061201983398151915260448201527131b2b4bb32b91034b6b83632b6b2b73a32b960711b6064820152608490fd5b906001600160a01b03808061195a84611819565b1693169183831493841561198d575b508315611977575b50505090565b6119839192935061183f565b1614388080611971565b909350600052600560205260406000208260005260205260ff604060002054169238611969565b156119bb57565b60405162461bcd60e51b815260206004820152602560248201527f4552433732313a207472616e736665722066726f6d20696e636f72726563742060448201526437bbb732b960d91b6064820152608490fd5b90611a3691611a1c84611819565b6001600160a01b03939184169284929091831684146119b4565b16918215611ab95781611a5391611a4c86611819565b16146119b4565b600080516020612039833981519152600084815260046020526040812060018060a01b03199081815416905583825260036020526040822060001981540190558482526040822060018154019055858252600260205284604083209182541617905580a4565b60405162461bcd60e51b8152602060048201526024808201527f4552433732313a207472616e7366657220746f20746865207a65726f206164646044820152637265737360e01b6064820152608490fd5b6000908152600260205260409020546001600160a01b0316151590565b9293600093909291803b15611c7257948491611b819660405180948193630a85bd0160e11b9788845233600485015260018060a01b0380921660248501526044840152608060648401528260209b8c97608483019061120d565b0393165af1849181611c32575b50611c21575050503d600014611c19573d611ba881611327565b90611bb66040519283611304565b81528091833d92013e5b80519182611c165760405162461bcd60e51b8152602060048201526032602482015260008051602061201983398151915260448201527131b2b4bb32b91034b6b83632b6b2b73a32b960711b6064820152608490fd5b01fd5b506060611bc0565b6001600160e01b0319161492509050565b9091508581813d8311611c6b575b611c4a8183611304565b8101031261058357516001600160e01b031981168103610583579038611b8e565b503d611c40565b505050915050600190565b908151811015611c8e570160200190565b634e487b7160e01b600052603260045260246000fd5b818110611caf575050565b60008155600101611ca4565b9060031b60018060801b03811b9283911b169119161790565b611ce061184b82611b0a565b600081815260209060068252604090818120918051829380549482611d0487611379565b91828252888201936001988a8a82169182600014611f8f575050600114611f51575b50611d3392500383611304565b611d3b6113b3565b908151928315611f45578051611f215750505050611d5b61184b86611b0a565b611d636113b3565b805190939015611f0b5791948592819072184f03e93ff9f4daa797ed6e38ed64bf6a1f0160401b8281811015611efc575b506904ee2d6d415b85acef8160201b905080841015611eee575b50662386f26fc1000080841015611edf575b506305f5e10080841015611ed0575b5061271080841015611ec1575b506064831015611eb1575b600a80931015611ea8575b90816021818a0199611e1b611e068c611327565b9b611e1389519d8e611304565b808d52611327565b8b8b019890601f1901368a37508a0101905b611e72575b5050505090611e669461183c949392519583611e5788955180928880890191016111ea565b840191518093868401906111ea565b01038084520182611304565b600019019083906f181899199a1a9b1b9c1cb0b131b232b360811b8282061a835304918215611ea357919082611e2d565b611e32565b80970196611df2565b9691606460029104920196611de7565b60049198930492019638611ddc565b60089198930492019638611dcf565b60109198930492019638611dc0565b879198930492019638611dae565b94985088940492503880611d94565b5092509250505190611f1c826112e9565b815290565b9297509261183c969550611e66919450611e578891519889968880890191016111ea565b97505050505050505090565b915050855282878087208888915b858310611f76575050611d33935082010138611d26565b8091929450548385890101520191018890888693611f5f565b60ff19168752611d3395151560051b8501019250389150611d269050565b15611fb457565b60405162461bcd60e51b815260206004820152601c60248201527b115490cdcc8c4e881d1bdad95b88185b1c9958591e481b5a5b9d195960221b6044820152606490fdfe537472696e67733a20686578206c656e67746820696e73756666696369656e744552433732313a207472616e7366657220746f206e6f6e204552433732315265ddf252ad1be2c89b69c2b068fc378daa952ba7f163c4a11628f55a4df523b3efa164736f6c6343000811000a",
  "linkReferences": {},
  "deployedLinkReferences": {}
}