{
  "_format": "hh-sol-artifact-1",
  "contractName": "EmbraceCommunity",
  "sourceName": "contracts/EmbraceCommunity.sol",
  "abi": [
    {
      "inputs": [
        {
          "internalType": "address",
          "name": "account",
          "type": "address"
        }
      ],
      "name": "ErrorCannotRemoveFounderAdmin",
      "type": "error"
    },
    {
      "inputs": [
        {
          "internalType": "address",
          "name": "account",
          "type": "address"
        }
      ],
      "name": "ErrorFounderCannotLeave",
      "type": "error"
    },
    {
      "inputs": [
        {
          "internalType": "address",
          "name": "account",
          "type": "address"
        }
      ],
      "name": "ErrorGatedRequirementsNotMet",
      "type": "error"
    },
    {
      "inputs": [
        {
          "internalType": "address",
          "name": "member",
          "type": "address"
        }
      ],
      "name": "ErrorMemberDoesNotExist",
      "type": "error"
    },
    {
      "inputs": [
        {
          "internalType": "address",
          "name": "member",
          "type": "address"
        }
      ],
      "name": "ErrorMemberExists",
      "type": "error"
    },
    {
      "inputs": [
        {
          "internalType": "address",
          "name": "member",
          "type": "address"
        }
      ],
      "name": "ErrorNotAdmin",
      "type": "error"
    },
    {
      "inputs": [
        {
          "internalType": "address",
          "name": "member",
          "type": "address"
        }
      ],
      "name": "ErrorNotFounder",
      "type": "error"
    },
    {
      "inputs": [
        {
          "internalType": "address",
          "name": "account",
          "type": "address"
        }
      ],
      "name": "ErrorNotGatedAccess",
      "type": "error"
    },
    {
      "inputs": [
        {
          "internalType": "address",
          "name": "account",
          "type": "address"
        }
      ],
      "name": "ErrorNotMember",
      "type": "error"
    },
    {
      "inputs": [
        {
          "internalType": "address",
          "name": "account",
          "type": "address"
        }
      ],
      "name": "ErrorNotOpenAccess",
      "type": "error"
    },
    {
      "anonymous": false,
      "inputs": [
        {
          "indexed": false,
          "internalType": "uint256",
          "name": "communityId",
          "type": "uint256"
        },
        {
          "indexed": false,
          "internalType": "address",
          "name": "member",
          "type": "address"
        }
      ],
      "name": "AdminAdded",
      "type": "event"
    },
    {
      "anonymous": false,
      "inputs": [
        {
          "indexed": false,
          "internalType": "uint256",
          "name": "communityId",
          "type": "uint256"
        },
        {
          "indexed": false,
          "internalType": "address",
          "name": "member",
          "type": "address"
        }
      ],
      "name": "AdminRemoved",
      "type": "event"
    },
    {
      "anonymous": false,
      "inputs": [
        {
          "indexed": true,
          "internalType": "address",
          "name": "owner",
          "type": "address"
        },
        {
          "indexed": true,
          "internalType": "address",
          "name": "approved",
          "type": "address"
        },
        {
          "indexed": true,
          "internalType": "uint256",
          "name": "tokenId",
          "type": "uint256"
        }
      ],
      "name": "Approval",
      "type": "event"
    },
    {
      "anonymous": false,
      "inputs": [
        {
          "indexed": true,
          "internalType": "address",
          "name": "owner",
          "type": "address"
        },
        {
          "indexed": true,
          "internalType": "address",
          "name": "operator",
          "type": "address"
        },
        {
          "indexed": false,
          "internalType": "bool",
          "name": "approved",
          "type": "bool"
        }
      ],
      "name": "ApprovalForAll",
      "type": "event"
    },
    {
      "anonymous": false,
      "inputs": [
        {
          "indexed": false,
          "internalType": "uint8",
          "name": "version",
          "type": "uint8"
        }
      ],
      "name": "Initialized",
      "type": "event"
    },
    {
      "anonymous": false,
      "inputs": [
        {
          "indexed": false,
          "internalType": "uint256",
          "name": "communityId",
          "type": "uint256"
        },
        {
          "indexed": false,
          "internalType": "uint256",
          "name": "tokenId",
          "type": "uint256"
        },
        {
          "indexed": false,
          "internalType": "address",
          "name": "member",
          "type": "address"
        }
      ],
      "name": "MemberAdded",
      "type": "event"
    },
    {
      "anonymous": false,
      "inputs": [
        {
          "indexed": false,
          "internalType": "uint256",
          "name": "communityId",
          "type": "uint256"
        },
        {
          "indexed": false,
          "internalType": "uint256",
          "name": "tokenId",
          "type": "uint256"
        },
        {
          "indexed": false,
          "internalType": "address",
          "name": "member",
          "type": "address"
        }
      ],
      "name": "MemberRemoved",
      "type": "event"
    },
    {
      "anonymous": false,
      "inputs": [
        {
          "indexed": true,
          "internalType": "address",
          "name": "from",
          "type": "address"
        },
        {
          "indexed": true,
          "internalType": "address",
          "name": "to",
          "type": "address"
        },
        {
          "indexed": true,
          "internalType": "uint256",
          "name": "tokenId",
          "type": "uint256"
        }
      ],
      "name": "Transfer",
      "type": "event"
    },
    {
      "inputs": [
        {
          "internalType": "address",
          "name": "_account",
          "type": "address"
        }
      ],
      "name": "adminAdd",
      "outputs": [],
      "stateMutability": "nonpayable",
      "type": "function"
    },
    {
      "inputs": [
        {
          "internalType": "address",
          "name": "_account",
          "type": "address"
        }
      ],
      "name": "adminRemove",
      "outputs": [],
      "stateMutability": "nonpayable",
      "type": "function"
    },
    {
      "inputs": [
        {
          "internalType": "address",
          "name": "to",
          "type": "address"
        },
        {
          "internalType": "uint256",
          "name": "tokenId",
          "type": "uint256"
        }
      ],
      "name": "approve",
      "outputs": [],
      "stateMutability": "nonpayable",
      "type": "function"
    },
    {
      "inputs": [
        {
          "internalType": "address",
          "name": "owner",
          "type": "address"
        }
      ],
      "name": "balanceOf",
      "outputs": [
        {
          "internalType": "uint256",
          "name": "",
          "type": "uint256"
        }
      ],
      "stateMutability": "view",
      "type": "function"
    },
    {
      "inputs": [
        {
          "internalType": "uint256",
          "name": "tokenId",
          "type": "uint256"
        }
      ],
      "name": "getApproved",
      "outputs": [
        {
          "internalType": "address",
          "name": "",
          "type": "address"
        }
      ],
      "stateMutability": "view",
      "type": "function"
    },
    {
      "inputs": [],
      "name": "getCommunityData",
      "outputs": [
        {
          "components": [
            {
              "internalType": "string",
              "name": "handle",
              "type": "string"
            },
            {
              "internalType": "enum Visibility",
              "name": "visibility",
              "type": "uint8"
            },
            {
              "internalType": "enum Access",
              "name": "access",
              "type": "uint8"
            },
            {
              "components": [
                {
                  "internalType": "enum MembershipGateToken",
                  "name": "tokenType",
                  "type": "uint8"
                },
                {
                  "internalType": "address",
                  "name": "tokenAddress",
                  "type": "address"
                },
                {
                  "internalType": "uint256",
                  "name": "tokenId",
                  "type": "uint256"
                }
              ],
              "internalType": "struct MembershipGate",
              "name": "membershipGate",
              "type": "tuple"
            },
            {
              "internalType": "uint128[]",
              "name": "apps",
              "type": "uint128[]"
            },
            {
              "internalType": "string",
              "name": "metadata",
              "type": "string"
            }
          ],
          "internalType": "struct CommunityData",
          "name": "",
          "type": "tuple"
        }
      ],
      "stateMutability": "view",
      "type": "function"
    },
    {
      "inputs": [],
      "name": "getFounder",
      "outputs": [
        {
          "internalType": "address",
          "name": "",
          "type": "address"
        }
      ],
      "stateMutability": "view",
      "type": "function"
    },
    {
      "inputs": [
        {
          "internalType": "address",
          "name": "_address",
          "type": "address"
        }
      ],
      "name": "getMemberStatus",
      "outputs": [
        {
          "components": [
            {
              "internalType": "bool",
              "name": "isFounder",
              "type": "bool"
            },
            {
              "internalType": "bool",
              "name": "isAdmin",
              "type": "bool"
            },
            {
              "internalType": "bool",
              "name": "isMember",
              "type": "bool"
            }
          ],
          "internalType": "struct EmbraceCommunity.MemberStatus",
          "name": "",
          "type": "tuple"
        }
      ],
      "stateMutability": "view",
      "type": "function"
    },
    {
      "inputs": [
        {
          "internalType": "address",
          "name": "_account",
          "type": "address"
        }
      ],
      "name": "getMemberTokenId",
      "outputs": [
        {
          "internalType": "uint256",
          "name": "",
          "type": "uint256"
        }
      ],
      "stateMutability": "view",
      "type": "function"
    },
    {
      "inputs": [
        {
          "internalType": "string",
          "name": "_name",
          "type": "string"
        },
        {
          "internalType": "string",
          "name": "_symbol",
          "type": "string"
        },
        {
          "internalType": "address",
          "name": "_founderAddress",
          "type": "address"
        },
        {
          "internalType": "address",
          "name": "_communitiesContractAddress",
          "type": "address"
        },
        {
          "internalType": "uint256",
          "name": "_communityId",
          "type": "uint256"
        },
        {
          "components": [
            {
              "internalType": "string",
              "name": "handle",
              "type": "string"
            },
            {
              "internalType": "enum Visibility",
              "name": "visibility",
              "type": "uint8"
            },
            {
              "internalType": "enum Access",
              "name": "access",
              "type": "uint8"
            },
            {
              "components": [
                {
                  "internalType": "enum MembershipGateToken",
                  "name": "tokenType",
                  "type": "uint8"
                },
                {
                  "internalType": "address",
                  "name": "tokenAddress",
                  "type": "address"
                },
                {
                  "internalType": "uint256",
                  "name": "tokenId",
                  "type": "uint256"
                }
              ],
              "internalType": "struct MembershipGate",
              "name": "membershipGate",
              "type": "tuple"
            },
            {
              "internalType": "uint128[]",
              "name": "apps",
              "type": "uint128[]"
            },
            {
              "internalType": "string",
              "name": "metadata",
              "type": "string"
            }
          ],
          "internalType": "struct CommunityData",
          "name": "_communityData",
          "type": "tuple"
        }
      ],
      "name": "initialize",
      "outputs": [],
      "stateMutability": "nonpayable",
      "type": "function"
    },
    {
      "inputs": [
        {
          "internalType": "string",
          "name": "_key",
          "type": "string"
        },
        {
          "internalType": "string",
          "name": "_value",
          "type": "string"
        }
      ],
      "name": "insertKeyValue",
      "outputs": [],
      "stateMutability": "nonpayable",
      "type": "function"
    },
    {
      "inputs": [],
      "name": "isAdmin",
      "outputs": [
        {
          "internalType": "bool",
          "name": "",
          "type": "bool"
        }
      ],
      "stateMutability": "view",
      "type": "function"
    },
    {
      "inputs": [
        {
          "internalType": "address",
          "name": "owner",
          "type": "address"
        },
        {
          "internalType": "address",
          "name": "operator",
          "type": "address"
        }
      ],
      "name": "isApprovedForAll",
      "outputs": [
        {
          "internalType": "bool",
          "name": "",
          "type": "bool"
        }
      ],
      "stateMutability": "view",
      "type": "function"
    },
    {
      "inputs": [],
      "name": "isFounder",
      "outputs": [
        {
          "internalType": "bool",
          "name": "",
          "type": "bool"
        }
      ],
      "stateMutability": "view",
      "type": "function"
    },
    {
      "inputs": [],
      "name": "join",
      "outputs": [],
      "stateMutability": "nonpayable",
      "type": "function"
    },
    {
      "inputs": [],
      "name": "joinGated",
      "outputs": [],
      "stateMutability": "nonpayable",
      "type": "function"
    },
    {
      "inputs": [],
      "name": "leave",
      "outputs": [],
      "stateMutability": "nonpayable",
      "type": "function"
    },
    {
      "inputs": [
        {
          "internalType": "address",
          "name": "_memberAddress",
          "type": "address"
        },
        {
          "internalType": "bool",
          "name": "_isAdmin",
          "type": "bool"
        }
      ],
      "name": "memberAdd",
      "outputs": [],
      "stateMutability": "nonpayable",
      "type": "function"
    },
    {
      "inputs": [
        {
          "internalType": "address",
          "name": "",
          "type": "address"
        }
      ],
      "name": "memberToTokenId",
      "outputs": [
        {
          "internalType": "uint256",
          "name": "",
          "type": "uint256"
        }
      ],
      "stateMutability": "view",
      "type": "function"
    },
    {
      "inputs": [],
      "name": "name",
      "outputs": [
        {
          "internalType": "string",
          "name": "",
          "type": "string"
        }
      ],
      "stateMutability": "view",
      "type": "function"
    },
    {
      "inputs": [
        {
          "internalType": "address",
          "name": "",
          "type": "address"
        },
        {
          "internalType": "address",
          "name": "",
          "type": "address"
        },
        {
          "internalType": "uint256",
          "name": "",
          "type": "uint256"
        },
        {
          "internalType": "bytes",
          "name": "",
          "type": "bytes"
        }
      ],
      "name": "onERC721Received",
      "outputs": [
        {
          "internalType": "bytes4",
          "name": "",
          "type": "bytes4"
        }
      ],
      "stateMutability": "nonpayable",
      "type": "function"
    },
    {
      "inputs": [
        {
          "internalType": "uint256",
          "name": "tokenId",
          "type": "uint256"
        }
      ],
      "name": "ownerOf",
      "outputs": [
        {
          "internalType": "address",
          "name": "",
          "type": "address"
        }
      ],
      "stateMutability": "view",
      "type": "function"
    },
    {
      "inputs": [
        {
          "internalType": "address",
          "name": "_memberAddress",
          "type": "address"
        }
      ],
      "name": "removeMember",
      "outputs": [],
      "stateMutability": "nonpayable",
      "type": "function"
    },
    {
      "inputs": [
        {
          "internalType": "address",
          "name": "from",
          "type": "address"
        },
        {
          "internalType": "address",
          "name": "to",
          "type": "address"
        },
        {
          "internalType": "uint256",
          "name": "tokenId",
          "type": "uint256"
        }
      ],
      "name": "safeTransferFrom",
      "outputs": [],
      "stateMutability": "nonpayable",
      "type": "function"
    },
    {
      "inputs": [
        {
          "internalType": "address",
          "name": "from",
          "type": "address"
        },
        {
          "internalType": "address",
          "name": "to",
          "type": "address"
        },
        {
          "internalType": "uint256",
          "name": "tokenId",
          "type": "uint256"
        },
        {
          "internalType": "bytes",
          "name": "data",
          "type": "bytes"
        }
      ],
      "name": "safeTransferFrom",
      "outputs": [],
      "stateMutability": "nonpayable",
      "type": "function"
    },
    {
      "inputs": [
        {
          "internalType": "address",
          "name": "operator",
          "type": "address"
        },
        {
          "internalType": "bool",
          "name": "approved",
          "type": "bool"
        }
      ],
      "name": "setApprovalForAll",
      "outputs": [],
      "stateMutability": "nonpayable",
      "type": "function"
    },
    {
      "inputs": [
        {
          "internalType": "string",
          "name": "_uri",
          "type": "string"
        }
      ],
      "name": "setBaseURI",
      "outputs": [],
      "stateMutability": "nonpayable",
      "type": "function"
    },
    {
      "inputs": [
        {
          "components": [
            {
              "internalType": "string",
              "name": "handle",
              "type": "string"
            },
            {
              "internalType": "enum Visibility",
              "name": "visibility",
              "type": "uint8"
            },
            {
              "internalType": "enum Access",
              "name": "access",
              "type": "uint8"
            },
            {
              "components": [
                {
                  "internalType": "enum MembershipGateToken",
                  "name": "tokenType",
                  "type": "uint8"
                },
                {
                  "internalType": "address",
                  "name": "tokenAddress",
                  "type": "address"
                },
                {
                  "internalType": "uint256",
                  "name": "tokenId",
                  "type": "uint256"
                }
              ],
              "internalType": "struct MembershipGate",
              "name": "membershipGate",
              "type": "tuple"
            },
            {
              "internalType": "uint128[]",
              "name": "apps",
              "type": "uint128[]"
            },
            {
              "internalType": "string",
              "name": "metadata",
              "type": "string"
            }
          ],
          "internalType": "struct CommunityData",
          "name": "_communityData",
          "type": "tuple"
        }
      ],
      "name": "setCommunityData",
      "outputs": [],
      "stateMutability": "nonpayable",
      "type": "function"
    },
    {
      "inputs": [
        {
          "internalType": "bytes4",
          "name": "interfaceId",
          "type": "bytes4"
        }
      ],
      "name": "supportsInterface",
      "outputs": [
        {
          "internalType": "bool",
          "name": "",
          "type": "bool"
        }
      ],
      "stateMutability": "view",
      "type": "function"
    },
    {
      "inputs": [],
      "name": "symbol",
      "outputs": [
        {
          "internalType": "string",
          "name": "",
          "type": "string"
        }
      ],
      "stateMutability": "view",
      "type": "function"
    },
    {
      "inputs": [
        {
          "internalType": "uint256",
          "name": "tokenId",
          "type": "uint256"
        }
      ],
      "name": "tokenURI",
      "outputs": [
        {
          "internalType": "string",
          "name": "",
          "type": "string"
        }
      ],
      "stateMutability": "view",
      "type": "function"
    },
    {
      "inputs": [],
      "name": "totalMembers",
      "outputs": [
        {
          "internalType": "uint256",
          "name": "",
          "type": "uint256"
        }
      ],
      "stateMutability": "view",
      "type": "function"
    },
    {
      "inputs": [],
      "name": "totalSupply",
      "outputs": [
        {
          "internalType": "uint256",
          "name": "",
          "type": "uint256"
        }
      ],
      "stateMutability": "view",
      "type": "function"
    },
    {
      "inputs": [
        {
          "internalType": "address",
          "name": "from",
          "type": "address"
        },
        {
          "internalType": "address",
          "name": "to",
          "type": "address"
        },
        {
          "internalType": "uint256",
          "name": "tokenId",
          "type": "uint256"
        }
      ],
      "name": "transferFrom",
      "outputs": [],
      "stateMutability": "nonpayable",
      "type": "function"
    }
  ],
  "bytecode": "0x6080806040523461001657612ef0908161001c8239f35b600080fdfe60806040526004361015610013575b600080fd5b60003560e01c806301ffc9a7146102b257806306fdde03146102a9578063081812fc146102a0578063095ea7b3146102975780630b1ca49a1461028e578063150b7a021461028557806318160ddd1461027c578063239ac416146101bf57806323b872dd1461027357806330547e5b1461026a57806339478568146102615780633d60154c1461025857806342842e0e1461024f578063522c66bd1461024657806355f804b31461023d5780636352211e1461023457806370a082311461022b57806376e9255914610222578063936bc98314610219578063946bcc301461021057806395d89b4114610207578063a22cb465146101fe578063ad357f70146101f5578063b688a363146101ec578063b6db75a0146101e3578063b88d4fde146101da578063ba2d52ac146101d1578063c87b56dd146101c8578063d18fd367146101bf578063d66d9e19146101b6578063daee9ac9146101ad578063dde8535f146101a4578063e985e9c51461019b5763f269c5951461019357600080fd5b61000e611623565b5061000e6115ca565b5061000e6114ee565b5061000e611439565b5061000e6112ea565b5061000e610818565b5061000e6111f8565b5061000e61116f565b5061000e611154565b5061000e61112e565b5061000e6110e4565b5061000e61107a565b5061000e610fb4565b5061000e610ef9565b5061000e610edd565b5061000e610d8d565b5061000e610d4b565b5061000e610ca5565b5061000e610c86565b5061000e610c1b565b5061000e610bd4565b5061000e6109e4565b5061000e610987565b5061000e61092a565b5061000e6108ac565b5061000e610882565b5061000e6107ae565b5061000e61078a565b5061000e610595565b5061000e6104b4565b5061000e610472565b5061000e610390565b5061000e6102cd565b6001600160e01b031981160361000e57565b503461000e57602036600319011261000e5760206004356102ed816102bb565b63ffffffff60e01b166380ac58cd60e01b811490811561032b575b811561031a575b506040519015158152f35b6301ffc9a760e01b1490503861030f565b635b5e139f60e01b81149150610308565b919082519283825260005b848110610368575050826000602080949584010152601f8019910116010190565b602081830181015184830182015201610347565b90602061038d92818152019061033c565b90565b503461000e5760008060031936011261045c57604051816065546103b3816116f7565b8084529060019081811690811561043457506001146103ed575b6103e9846103dd81880382610671565b6040519182918261037c565b0390f35b6065835260209450600080516020612e648339815191525b82841061042157505050816103e9936103dd92820101936103cd565b8054858501870152928501928101610405565b6103e996506103dd9450602092508593915060ff191682840152151560051b820101936103cd565b80fd5b6001600160a01b03909116815260200190565b503461000e57602036600319011261000e5760206104916004356118dd565b6040516001600160a01b039091168152f35b6001600160a01b0381160361000e57565b503461000e57604036600319011261000e576004356104d2816104a3565b6024356104de816116d4565b916001600160a01b038084169082168114610546576105109361050b913314908115610512575b5061185b565b611bc8565b005b6001600160a01b03166000908152606a602052604090206105409150610539903390610801565b5460ff1690565b38610505565b60405162461bcd60e51b815260206004820152602160248201527f4552433732313a20617070726f76616c20746f2063757272656e74206f776e656044820152603960f91b6064820152608490fd5b503461000e57602036600319011261000e576004356105b3816104a3565b6105bb612541565b156105c95761051090612bf0565b604051631de7241f60e31b8152336004820152602490fd5b50634e487b7160e01b600052604160045260246000fd5b60c081019081106001600160401b0382111761061357604052565b61061b6105e1565b604052565b606081019081106001600160401b0382111761061357604052565b602081019081106001600160401b0382111761061357604052565b604081019081106001600160401b0382111761061357604052565b601f909101601f19168101906001600160401b0382119082101761061357604052565b6040519060c082016001600160401b0381118382101761061357604052565b604051906106c0826105f8565b565b604051906106c082610620565b6020906001600160401b0381116106ec575b601f01601f19160190565b6106f46105e1565b6106e1565b929192610705826106cf565b916107136040519384610671565b82948184528183011161000e578281602093846000960137010152565b90608060031983011261000e57600435610749816104a3565b91602435610756816104a3565b9160443591606435906001600160401b03821161000e578060238301121561000e5781602461038d936004013591016106f9565b503461000e5761079936610730565b505050506020604051630a85bd0160e11b8152f35b503461000e57600036600319011261000e57602060fb54604051908152f35b6001600160a01b0316600090815260fe6020526040902090565b6001600160a01b0316600090815260686020526040902090565b9060018060a01b0316600052602052604060002090565b503461000e57602036600319011261000e57600435610836816104a3565b60018060a01b031660005260fe6020526020604060002054604051908152f35b606090600319011261000e5760043561086e816104a3565b9060243561087b816104a3565b9060443590565b503461000e5761051061089436610856565b916108a76108a284336119df565b611904565b611ac6565b503461000e57600036600319011261000e576101045460019060081c60ff166108d48161132e565b0361090f576108e2336107cd565b546108f05761051033612717565b604051630548cc1b60e01b81528061090b336004830161045f565b0390fd5b604051632ea5767760e21b81528061090b336004830161045f565b503461000e57600036600319011261000e576020610946612699565b6040516001600160a01b0390911633148152f35b9181601f8401121561000e578235916001600160401b03831161000e576020838186019501011161000e57565b503461000e57604036600319011261000e576001600160401b0360043581811161000e576109b990369060040161095a565b505060243590811161000e576109d390369060040161095a565b50506109dd612541565b156105c957005b503461000e576105106109f636610856565b9060405192610a048461063b565b60008452611966565b9080601f8301121561000e5781602061038d933591016106f9565b3590600282101561000e57565b6004111561000e57565b35906106c082610a35565b919082606091031261000e57604051606081016001600160401b03811182821017610a9f575b60405260408082948035610a8381610a35565b84526020810135610a93816104a3565b60208501520135910152565b610aa76105e1565b610a70565b9080601f8301121561000e578135906001600160401b038211610b23575b8160051b60405193602093610ae185840187610671565b8552838086019282010192831161000e578301905b828210610b04575050505090565b81356001600160801b038116810361000e578152908301908301610af6565b610b2b6105e1565b610aca565b9190916101008184031261000e57610b46610694565b926001600160401b03823581811161000e5782610b64918501610a0d565b8552610b7260208401610a28565b6020860152610b8360408401610a3f565b6040860152610b958260608501610a4a565b606086015260c083013581811161000e5782610bb2918501610aac565b608086015260e083013590811161000e57610bcd9201610a0d565b60a0830152565b503461000e57602036600319011261000e576004356001600160401b03811161000e57610c05903690600401610b30565b610c0d612541565b156105c95761051090612a9a565b503461000e57602036600319011261000e576004356001600160401b03811161000e57610c4c903690600401610a0d565b610c54612699565b336001600160a01b0390911603610c6e576105109061244c565b60405163412c7d7560e01b8152336004820152602490fd5b503461000e57602036600319011261000e5760206104916004356116d4565b503461000e57602036600319011261000e57600435610cc3816104a3565b6001600160a01b03168015610cf45760005260686020526103e9604060002054604051918291829190602083019252565b60405162461bcd60e51b815260206004820152602960248201527f4552433732313a2061646472657373207a65726f206973206e6f7420612076616044820152683634b21037bbb732b960b91b6064820152608490fd5b503461000e57600036600319011261000e5760fb5460fc548103908111610d7757602090604051908152f35b634e487b7160e01b600052601160045260246000fd5b503461000e57602036600319011261000e57600435610dab816104a3565b6001600160a01b038116600081815260fe602052604080822054909391929015610ec657610dd7612541565b15610eaf5780835260ff602052610df9610df585852060ff90541690565b1590565b610e9557610e14610e08612699565b6001600160a01b031690565b14610e7b576001600160a01b038116600090815260ff6020526040902091927f8b41a2498e3f784d58ed746da2a7a2f699504cdd0ee2f9982dc7256e006e7ee592610e6390805460ff19169055565b610e7561010054915192839283612433565b0390a180f35b82516317dfe6bb60e21b81528061090b336004830161045f565b8351631de7241f60e31b81528061090b846004830161045f565b8351631de7241f60e31b8152336004820152602490fd5b835163129822cd60e31b8152336004820152602490fd5b503461000e57600036600319011261000e576020610491612699565b503461000e5760008060031936011261045c5760405181606654610f1c816116f7565b808452906001908181169081156104345750600114610f45576103e9846103dd81880382610671565b6066835260209450600080516020612e448339815191525b828410610f7957505050816103e9936103dd92820101936103cd565b8054858501870152928501928101610f5d565b604090600319011261000e57600435610fa4816104a3565b90602435801515810361000e5790565b503461000e57610fc336610f8c565b6001600160a01b0382169133831461103957610fec9033600052606a6020526040600020610801565b60ff1981541660ff831515161790557f17307eab39ab6107e8899845ad3d59bd9653f200f220920489ca2b5937696c3160405180611034339482919091602081019215159052565b0390a3005b60405162461bcd60e51b815260206004820152601960248201527822a9219b99189d1030b8383937bb32903a379031b0b63632b960391b6044820152606490fd5b503461000e5761108936610f8c565b611091612541565b156105c9576001600160a01b038216600081815260fe60205260409020546110cc57506110bd82612717565b6110c357005b61051090612d8a565b60249060405190630548cc1b60e01b82526004820152fd5b503461000e57600036600319011261000e5760ff6101045460081c166111098161132e565b611116576108e2336107cd565b604051631dca17b960e21b8152336004820152602490fd5b503461000e57600036600319011261000e57602061114a612541565b6040519015158152f35b503461000e5761051061116636610730565b92919091611966565b503461000e5760c036600319011261000e576001600160401b0360043581811161000e576111a1903690600401610a0d565b60243582811161000e576111b9903690600401610a0d565b906044356111c6816104a3565b606435906111d3826104a3565b60a43594851161000e576111ee610510953690600401610b30565b9360843593611da7565b503461000e5760208060031936011261000e576004359061122061121b83611c1c565b61168d565b6000918252609781526040822091604051928382825461123f816116f7565b938484526001918783821691826000146112c857505060011461128c575b505061126b92500384610671565b6040516112778161063b565b526103e960405192828493845283019061033c565b86925085528185209085915b8583106112b057505061126b9350820101388061125d565b8054838a018501528894508793909201918101611298565b925093505061126b94915060ff191682840152151560051b820101388061125d565b503461000e57600036600319011261000e5761051033612bf0565b50634e487b7160e01b600052602160045260246000fd5b6002111561132657565b6106c0611305565b6004111561132657565b6040809180516113478161132e565b84526020818101516001600160a01b0316908501520151910152565b90815180825260208080930193019160005b828110611383575050505090565b83516001600160801b031685529381019392810192600101611375565b9061038d91602081528151906113c46101009283602084015261012083019061033c565b916020840151600281101561142c575b604083015260408401516113e78161132e565b60608301526113fe60608501516080840190611338565b60a061141c608086015194601f1995868683030160e0870152611363565b940151928285030191015261033c565b611434611305565b6113d4565b503461000e57600036600319011261000e57606060a060405161145b816105f8565b8281526000602082015260006040820152611474612573565b8382015282608082015201526103e9610104546114bb60ff6114946106b3565b9261149d611731565b84526114ae82821660208601612592565b60081c16604083016125a9565b6114c36125b2565b60608201526114d06125f0565b60808201526114dd6117d8565b60a0820152604051918291826113a0565b503461000e57602036600319011261000e576103e960043561150f816104a3565b611517612573565b5061156d611523612699565b6001600160a01b03928316921682149182908115806115b1575b8490611597575b611564915061155b6115546106c2565b9515158652565b15156020850152565b15156040830152565b60408051825115158152602080840151151590820152918101511515908201529081906060820190565b5060005260ff60205261156460ff60406000205416611544565b91508060005260fe60205260406000205415159161153d565b503461000e57604036600319011261000e57602060ff6116176004356115ef816104a3565b602435906115fc826104a3565b6001600160a01b03166000908152606a855260409020610801565b54166040519015158152f35b503461000e57602036600319011261000e57600435611641816104a3565b6001600160a01b038116600090815260fe60205260409020541561167557611667612541565b156105c95761051090612d8a565b60405163129822cd60e31b8152336004820152602490fd5b1561169457565b60405162461bcd60e51b8152602060048201526018602482015277115490cdcc8c4e881a5b9d985b1a59081d1bdad95b88125160421b6044820152606490fd5b6000908152606760205260409020546001600160a01b031661038d81151561168d565b90600182811c92168015611727575b602083101461171157565b634e487b7160e01b600052602260045260246000fd5b91607f1691611706565b6040519060008261010191825492611748846116f7565b9081845260019485811690816000146117b55750600114611772575b50506106c092500383610671565b9093915060005260209081600020936000915b81831061179d5750506106c093508201013880611764565b85548884018501529485019487945091830191611785565b9150506106c094506020925060ff191682840152151560051b8201013880611764565b60405190600082610103918254926117ef846116f7565b9081845260019485811690816000146117b557506001146118185750506106c092500383610671565b9093915060005260209081600020936000915b8183106118435750506106c093508201013880611764565b8554888401850152948501948794509183019161182b565b1561186257565b60405162461bcd60e51b815260206004820152603d60248201527f4552433732313a20617070726f76652063616c6c6572206973206e6f7420746f60448201527f6b656e206f776e6572206f7220617070726f76656420666f7220616c6c0000006064820152608490fd5b6000526067602052604060002090565b6118e961121b82611c1c565b6000908152606960205260409020546001600160a01b031690565b1561190b57565b60405162461bcd60e51b815260206004820152602d60248201527f4552433732313a2063616c6c6572206973206e6f7420746f6b656e206f776e6560448201526c1c881bdc88185c1c1c9bdd9959609a1b6064820152608490fd5b9061198a93929161197a6108a284336119df565b611985838383611ac6565b611caf565b1561199157565b60405162461bcd60e51b81526020600482015260326024820152600080516020612e8483398151915260448201527131b2b4bb32b91034b6b83632b6b2b73a32b960711b6064820152608490fd5b6001600160a01b03806119f1846116d4565b169281831692848414948515611a27575b50508315611a11575b50505090565b611a1d919293506118dd565b1614388080611a0b565b60ff92955090611a4391600052606a6020526040600020610801565b5416923880611a02565b15611a5457565b60405162461bcd60e51b815260206004820152602560248201527f4552433732313a207472616e736665722066726f6d20696e636f72726563742060448201526437bbb732b960d91b6064820152608490fd5b80546001600160a01b0319166001600160a01b03909216919091179055565b611aea90611ad3846116d4565b6001600160a01b0382811693909182168414611a4d565b8316928315611b7757611b3c611b6292611b1085611b0a610e088a6116d4565b14611a4d565b611b37611b27886000526069602052604060002090565b80546001600160a01b0319169055565b6107e7565b8054600019019055611b4d816107e7565b60018154019055611b5d856118cd565b611aa7565b600080516020612ea4833981519152600080a4565b60405162461bcd60e51b8152602060048201526024808201527f4552433732313a207472616e7366657220746f20746865207a65726f206164646044820152637265737360e01b6064820152608490fd5b816000526069602052611bdf816040600020611aa7565b6001600160a01b0380611bf1846116d4565b169116907f8c5be1e5ebec7d5bd14f71427d1e84f3dd0314c0f7b2291e5b200ac8c7c3b925600080a4565b6000908152606760205260409020546001600160a01b0316151590565b9081602091031261000e575161038d816102bb565b6001600160a01b03918216815291166020820152604081019190915260806060820181905261038d9291019061033c565b3d15611caa573d90611c90826106cf565b91611c9e6040519384610671565b82523d6000602084013e565b606090565b92909190823b15611d9e57611ce2926020926000604051809681958294630a85bd0160e11b9a8b85523360048601611c4e565b03926001600160a01b03165af160009181611d6e575b50611d6057611d05611c7f565b80519081611d5b5760405162461bcd60e51b81526020600482015260326024820152600080516020612e8483398151915260448201527131b2b4bb32b91034b6b83632b6b2b73a32b960711b6064820152608490fd5b602001fd5b6001600160e01b0319161490565b611d9091925060203d8111611d97575b611d888183610671565b810190611c39565b9038611cf8565b503d611d7e565b50505050600190565b9391949290946000549560ff8760081c161580978198611ece575b8115611eae575b5015611e5257611def9587611de6600160ff196000541617600055565b611e3957611f2f565b611df557565b611e0561ff001960005416600055565b604051600181527f7f26b83ff96e1f2b6a682f133852f6798a09c465da95921460cefb38474024989080602081015b0390a1565b611e4d61010061ff00196000541617600055565b611f2f565b60405162461bcd60e51b815260206004820152602e60248201527f496e697469616c697a61626c653a20636f6e747261637420697320616c72656160448201526d191e481a5b9a5d1a585b1a5e995960921b6064820152608490fd5b303b15915081611ec0575b5038611dc9565b6001915060ff161438611eb9565b600160ff8216109150611dc2565b60405190611ee982610656565b6014825273436f6d6d756e69747920636f6e7472616374203160601b6020830152565b60405190611f1982610656565b6007825266697066733a2f2f60c81b6020830152565b94939194611f4d60ff60005460081c16611f48816120b1565b6120b1565b8051906001600160401b0382116120a4575b611f7382611f6e6065546116f7565b612128565b60209081601f841160011461201a575093611fbd611fec94846120019895611fdf956106c09c9b9960009261200f575b50508160011b916000199060031b1c191617606555612257565b61010780546001600160a01b0319166001600160a01b03851617905561010055565b611fe7611edc565b612de0565b611ffc611ff7611f0c565b61244c565b612a9a565b61200a81612717565b612d8a565b015190503880611fa3565b60656000529190601f198416600080516020612e64833981519152936000905b82821061208c57505094600185611fdf956106c09c9b9995611fbd956120019c99611fec9b10612073575b505050811b01606555612257565b015160001960f88460031b161c19169055388080612065565b8060018697829497870151815501960194019061203a565b6120ac6105e1565b611f5f565b156120b857565b60405162461bcd60e51b815260206004820152602b60248201527f496e697469616c697a61626c653a20636f6e7472616374206973206e6f74206960448201526a6e697469616c697a696e6760a81b6064820152608490fd5b81811061211c575050565b60008155600101612111565b90601f8211612135575050565b6106c09160656000526020600020906020601f840160051c83019310612163575b601f0160051c0190612111565b9091508190612156565b90601f821161217a575050565b6106c09160fd6000526020600020906020601f840160051c8301931061216357601f0160051c0190612111565b90601f82116121b4575050565b6106c0916101016000526020600020906020601f840160051c8301931061216357601f0160051c0190612111565b90601f82116121ef575050565b6106c09160666000526020600020906020601f840160051c8301931061216357601f0160051c0190612111565b90601f8211612229575050565b6106c0916101036000526020600020906020601f840160051c8301931061216357601f0160051c0190612111565b80519091906001600160401b03811161232d575b61227f8161227a6066546116f7565b6121e2565b602080601f83116001146122bb57508192936000926122b0575b50508160011b916000199060031b1c191617606655565b015190503880612299565b6066600052601f19831694909190600080516020612e44833981519152926000905b8782106123155750508360019596106122fc575b505050811b01606655565b015160001960f88460031b161c191690553880806122f1565b806001859682949686015181550195019301906122dd565b6123356105e1565b61226b565b80519091906001600160401b038111612426575b610103906123658161236084546116f7565b61221c565b602080601f83116001146123a1575081929394600092612396575b50508160011b916000199060031b1c1916179055565b015190503880612380565b610103600052601f198316959091907f02c297ab74aad0aede3a1895c857b1f2c71e6a203feb727bec95ac752998cb78926000905b88821061240e575050836001959697106123f5575b505050811b019055565b015160001960f88460031b161c191690553880806123eb565b806001859682949686015181550195019301906123d6565b61242e6105e1565b61234e565b9081526001600160a01b03909116602082015260400190565b80519091906001600160401b038111612534575b6124748161246f60fd546116f7565b61216d565b602080601f83116001146124b057508192936000926124a5575b50508160011b916000199060031b1c19161760fd55565b01519050388061248e565b60fd600052601f198316949091907f9346ac6dd7de6b96975fec380d4d994c4c12e6a8897544f22915316cc6cca280926000905b87821061251c575050836001959610612503575b505050811b0160fd55565b015160001960f88460031b161c191690553880806124f8565b806001859682949686015181550195019301906124e4565b61253c6105e1565b612460565b3360005260ff60205260ff60406000205416801561255c5790565b50336001600160a01b0361256e612699565b161490565b6040519061258082610620565b60006040838281528260208201520152565b600282101561259e5752565b6125a6611305565b52565b6125a68261132e565b604051906125bf82610620565b816101055460ff81166125d18161132e565b825260081c6001600160a01b0316602082015261010654604090910152565b6040805161010280548083526000918252919392600080516020612ec4833981519152602086015b6001908786838701101561264e575082546001600160801b038116825260801c6020820152600291908401920193019290612618565b94929093506106c0959150549181811061267f575b10612671575b500383610671565b60801c815260200138612669565b6001600160801b0383168452926001906020019301612663565b60018060a01b0361010754166020610100546024604051809481936331a9108f60e11b835260048301525afa90811561270b576000916126d7575090565b906020823d8211612703575b816126f060209383610671565b8101031261045c57505161038d816104a3565b3d91506126e3565b6040513d6000823e3d90fd5b60fb8054600101908190556001600160a01b0382169182156127e557817f48f5b44a07dc2b27f2e8ba95392d18124dc8553bc338c2ad73d3181984aa588c9361276a612765610df584611c1c565b612829565b612779612765610df584611c1c565b612782836107e7565b6001815401905561279683611b5d846118cd565b6000600080516020612ea48339815191528180a4816127b4826107cd565b55611e3461010054916040519384938490815260208101919091526001600160a01b03909116604082015260600190565b606460405162461bcd60e51b815260206004820152602060248201527f4552433732313a206d696e7420746f20746865207a65726f20616464726573736044820152fd5b1561283057565b60405162461bcd60e51b815260206004820152601c60248201527b115490cdcc8c4e881d1bdad95b88185b1c9958591e481b5a5b9d195960221b6044820152606490fd5b600160401b81116128df575b61010290815481835580821061289557505050565b6106c09260005260016020600020916010828501831c84019460041b16806128c4575b500160011c0190612111565b600019908186019182549160200360031b1c169055386128b8565b6128e76105e1565b612880565b9060031b60018060801b03811b9283911b169119161790565b8051906001600160401b0382116129f9575b61292082612874565b610102600052602090810191600080516020612ec48339815191529060019080821c9360005b8581106129b7575060011982169091039081612965575b505050505050565b949190600095865b828110612986575050505050015538808080808061295d565b909192826129ab86996129a084985160018060801b031690565b908560041b906128ec565b9801949392910161296d565b6000805b600281106129cf5750858201558301612946565b8851909891869185916129f0916001600160801b0316908c60041b906128ec565b920198016129bb565b612a016105e1565b612917565b612a0f8161132e565b6101049061ff0082549160081b169061ff001916179055565b6002811015612a44575b6101049060ff80198354169116179055565b612a4c611305565b612a32565b6040908051612a5f8161132e565b612a688161132e565b61010590815460ff610100600160a81b03602086015160081b1692169060018060a81b03191617179055015161010655565b805180516001600160401b038111612be3575b61010190612ac481612abf84546116f7565b6121a7565b6020928390601f8311600114612b53579282612b4193606096936106c09896600092612b48575b50508160011b916000199060031b1c19161790555b612b0d6080840151612905565b612b1a60a084015161233a565b612b306040840151612b2b8161132e565b612a06565b820151612b3c8161131c565b612a28565b0151612a51565b015190503880612aeb565b610101600052601f19831691907f109ea3cebb188b9c1b9fc5bb3920be60dfdc8699098dff92f3d80daaca7476899260005b818110612bcc575093606096936106c098969360019383612b419810612bb3575b505050811b019055612b00565b015160001960f88460031b161c19169055388080612ba6565b929387600181928786015181550195019301612b85565b612beb6105e1565b612aad565b6001600160a01b03808216600081815260fe6020526040812054929493918315612d725785612c1d612699565b168114612d5a575082817f835dc82a4966810d6dcc725f483edc17fed6c0888faa3724f138dfc008a8c34b9596612c53836116d4565b50612c5d836116d4565b612c71846000526069602052604060002090565b80546001600160a01b0319908116909155612c8b826107e7565b8054600019019055612c9c856118cd565b90815416905516600080516020612ea48339815191528280a4612cd2612ccc846000526097602052604060002090565b546116f7565b612cee575b612ce5600160fc540160fc55565b6127b4826107cd565b80612d03846000526097602052604060002090565b612d0d81546116f7565b80612d1b575b505050612cd7565b601f8111600114612d315750555b803880612d13565b81835260208320612d4d91601f0160051c810190600101612111565b8160208120915555612d29565b60249060405190634175d2f360e11b82526004820152fd5b60249060405190633d2aa18360e01b82526004820152fd5b7f5b9611f54db67f0ad14ca6d531a6b00d0c68defcd0843350fb378ee2aac1a5cd9060018060a01b03811660005260ff6020526040600020600160ff1982541617905561010054611e3460405192839283612433565b600091908291612e306040518092612e11602083019563319af33360e01b875260406024850152606484019061033c565b6001600160a01b0391909116604483015203601f198101835282610671565b51906a636f6e736f6c652e6c6f675afa5056fe46501879b8ca8525e8c2fd519e2fbfcfa2ebea26501294aa02cbfcfb12e943548ff97419363ffd7000167f130ef7168fbea05faf9251824ca5043f113cc6a7c74552433732313a207472616e7366657220746f206e6f6e204552433732315265ddf252ad1be2c89b69c2b068fc378daa952ba7f163c4a11628f55a4df523b3ef93bdaa6a4190909b7c3fbe8d42169ffe1cab19f51dfc8db24c71abf849eced4aa164736f6c6343000811000a",
  "linkReferences": {},
  "deployedLinkReferences": {}
}