{
  "_format": "hh-sol-artifact-1",
  "contractName": "EmbraceCommunity",
  "sourceName": "contracts/EmbraceCommunity.sol",
  "abi": [
    {
      "inputs": [
        {
          "internalType": "string",
          "name": "_name",
          "type": "string"
        },
        {
          "internalType": "string",
          "name": "_symbol",
          "type": "string"
        },
        {
          "internalType": "address",
          "name": "_embraceCommunitiesContract",
          "type": "address"
        },
        {
          "internalType": "address",
          "name": "_tablelandRegistryAddress",
          "type": "address"
        },
        {
          "internalType": "uint256",
          "name": "_communityId",
          "type": "uint256"
        }
      ],
      "stateMutability": "nonpayable",
      "type": "constructor"
    },
    {
      "inputs": [
        {
          "internalType": "string",
          "name": "tableName",
          "type": "string"
        }
      ],
      "name": "ErrorTableExists",
      "type": "error"
    },
    {
      "anonymous": false,
      "inputs": [
        {
          "indexed": true,
          "internalType": "address",
          "name": "owner",
          "type": "address"
        },
        {
          "indexed": true,
          "internalType": "address",
          "name": "approved",
          "type": "address"
        },
        {
          "indexed": true,
          "internalType": "uint256",
          "name": "tokenId",
          "type": "uint256"
        }
      ],
      "name": "Approval",
      "type": "event"
    },
    {
      "anonymous": false,
      "inputs": [
        {
          "indexed": true,
          "internalType": "address",
          "name": "owner",
          "type": "address"
        },
        {
          "indexed": true,
          "internalType": "address",
          "name": "operator",
          "type": "address"
        },
        {
          "indexed": false,
          "internalType": "bool",
          "name": "approved",
          "type": "bool"
        }
      ],
      "name": "ApprovalForAll",
      "type": "event"
    },
    {
      "anonymous": false,
      "inputs": [
        {
          "indexed": true,
          "internalType": "address",
          "name": "from",
          "type": "address"
        },
        {
          "indexed": true,
          "internalType": "address",
          "name": "to",
          "type": "address"
        },
        {
          "indexed": true,
          "internalType": "uint256",
          "name": "tokenId",
          "type": "uint256"
        }
      ],
      "name": "Transfer",
      "type": "event"
    },
    {
      "inputs": [
        {
          "internalType": "address",
          "name": "to",
          "type": "address"
        },
        {
          "internalType": "uint256",
          "name": "tokenId",
          "type": "uint256"
        }
      ],
      "name": "approve",
      "outputs": [],
      "stateMutability": "nonpayable",
      "type": "function"
    },
    {
      "inputs": [
        {
          "internalType": "address",
          "name": "owner",
          "type": "address"
        }
      ],
      "name": "balanceOf",
      "outputs": [
        {
          "internalType": "uint256",
          "name": "",
          "type": "uint256"
        }
      ],
      "stateMutability": "view",
      "type": "function"
    },
    {
      "inputs": [],
      "name": "createKeyValueTable",
      "outputs": [],
      "stateMutability": "nonpayable",
      "type": "function"
    },
    {
      "inputs": [],
      "name": "createMemberTable",
      "outputs": [],
      "stateMutability": "nonpayable",
      "type": "function"
    },
    {
      "inputs": [
        {
          "internalType": "uint256",
          "name": "tokenId",
          "type": "uint256"
        }
      ],
      "name": "getApproved",
      "outputs": [
        {
          "internalType": "address",
          "name": "",
          "type": "address"
        }
      ],
      "stateMutability": "view",
      "type": "function"
    },
    {
      "inputs": [],
      "name": "getCommunityData",
      "outputs": [
        {
          "components": [
            {
              "internalType": "string",
              "name": "handle",
              "type": "string"
            },
            {
              "internalType": "enum Visibility",
              "name": "visibility",
              "type": "uint8"
            },
            {
              "internalType": "enum Membership",
              "name": "membership",
              "type": "uint8"
            },
            {
              "internalType": "uint128[]",
              "name": "apps",
              "type": "uint128[]"
            }
          ],
          "internalType": "struct CommunityContractData",
          "name": "",
          "type": "tuple"
        }
      ],
      "stateMutability": "view",
      "type": "function"
    },
    {
      "inputs": [],
      "name": "getTables",
      "outputs": [
        {
          "components": [
            {
              "internalType": "uint256",
              "name": "id",
              "type": "uint256"
            },
            {
              "internalType": "string",
              "name": "name",
              "type": "string"
            }
          ],
          "internalType": "struct CommunityTableMethods.Table[]",
          "name": "",
          "type": "tuple[]"
        }
      ],
      "stateMutability": "view",
      "type": "function"
    },
    {
      "inputs": [
        {
          "internalType": "uint256",
          "name": "_memberId",
          "type": "uint256"
        }
      ],
      "name": "insertMember",
      "outputs": [],
      "stateMutability": "nonpayable",
      "type": "function"
    },
    {
      "inputs": [
        {
          "internalType": "address",
          "name": "owner",
          "type": "address"
        },
        {
          "internalType": "address",
          "name": "operator",
          "type": "address"
        }
      ],
      "name": "isApprovedForAll",
      "outputs": [
        {
          "internalType": "bool",
          "name": "",
          "type": "bool"
        }
      ],
      "stateMutability": "view",
      "type": "function"
    },
    {
      "inputs": [],
      "name": "join",
      "outputs": [],
      "stateMutability": "nonpayable",
      "type": "function"
    },
    {
      "inputs": [],
      "name": "keyValueTable",
      "outputs": [
        {
          "internalType": "uint256",
          "name": "id",
          "type": "uint256"
        },
        {
          "internalType": "string",
          "name": "name",
          "type": "string"
        }
      ],
      "stateMutability": "view",
      "type": "function"
    },
    {
      "inputs": [],
      "name": "memberTable",
      "outputs": [
        {
          "internalType": "uint256",
          "name": "id",
          "type": "uint256"
        },
        {
          "internalType": "string",
          "name": "name",
          "type": "string"
        }
      ],
      "stateMutability": "view",
      "type": "function"
    },
    {
      "inputs": [],
      "name": "name",
      "outputs": [
        {
          "internalType": "string",
          "name": "",
          "type": "string"
        }
      ],
      "stateMutability": "view",
      "type": "function"
    },
    {
      "inputs": [
        {
          "internalType": "uint256",
          "name": "tokenId",
          "type": "uint256"
        }
      ],
      "name": "ownerOf",
      "outputs": [
        {
          "internalType": "address",
          "name": "",
          "type": "address"
        }
      ],
      "stateMutability": "view",
      "type": "function"
    },
    {
      "inputs": [
        {
          "internalType": "address",
          "name": "from",
          "type": "address"
        },
        {
          "internalType": "address",
          "name": "to",
          "type": "address"
        },
        {
          "internalType": "uint256",
          "name": "tokenId",
          "type": "uint256"
        }
      ],
      "name": "safeTransferFrom",
      "outputs": [],
      "stateMutability": "nonpayable",
      "type": "function"
    },
    {
      "inputs": [
        {
          "internalType": "address",
          "name": "from",
          "type": "address"
        },
        {
          "internalType": "address",
          "name": "to",
          "type": "address"
        },
        {
          "internalType": "uint256",
          "name": "tokenId",
          "type": "uint256"
        },
        {
          "internalType": "bytes",
          "name": "data",
          "type": "bytes"
        }
      ],
      "name": "safeTransferFrom",
      "outputs": [],
      "stateMutability": "nonpayable",
      "type": "function"
    },
    {
      "inputs": [
        {
          "internalType": "address",
          "name": "operator",
          "type": "address"
        },
        {
          "internalType": "bool",
          "name": "approved",
          "type": "bool"
        }
      ],
      "name": "setApprovalForAll",
      "outputs": [],
      "stateMutability": "nonpayable",
      "type": "function"
    },
    {
      "inputs": [
        {
          "components": [
            {
              "internalType": "string",
              "name": "handle",
              "type": "string"
            },
            {
              "internalType": "enum Visibility",
              "name": "visibility",
              "type": "uint8"
            },
            {
              "internalType": "enum Membership",
              "name": "membership",
              "type": "uint8"
            },
            {
              "internalType": "uint128[]",
              "name": "apps",
              "type": "uint128[]"
            }
          ],
          "internalType": "struct CommunityContractData",
          "name": "_communityData",
          "type": "tuple"
        }
      ],
      "name": "setCommunityData",
      "outputs": [],
      "stateMutability": "nonpayable",
      "type": "function"
    },
    {
      "inputs": [
        {
          "internalType": "string",
          "name": "_tablePrefix",
          "type": "string"
        }
      ],
      "name": "setPrefix",
      "outputs": [],
      "stateMutability": "nonpayable",
      "type": "function"
    },
    {
      "inputs": [
        {
          "internalType": "bytes4",
          "name": "interfaceId",
          "type": "bytes4"
        }
      ],
      "name": "supportsInterface",
      "outputs": [
        {
          "internalType": "bool",
          "name": "",
          "type": "bool"
        }
      ],
      "stateMutability": "view",
      "type": "function"
    },
    {
      "inputs": [],
      "name": "symbol",
      "outputs": [
        {
          "internalType": "string",
          "name": "",
          "type": "string"
        }
      ],
      "stateMutability": "view",
      "type": "function"
    },
    {
      "inputs": [
        {
          "internalType": "uint256",
          "name": "tokenId",
          "type": "uint256"
        }
      ],
      "name": "tokenURI",
      "outputs": [
        {
          "internalType": "string",
          "name": "",
          "type": "string"
        }
      ],
      "stateMutability": "view",
      "type": "function"
    },
    {
      "inputs": [
        {
          "internalType": "address",
          "name": "from",
          "type": "address"
        },
        {
          "internalType": "address",
          "name": "to",
          "type": "address"
        },
        {
          "internalType": "uint256",
          "name": "tokenId",
          "type": "uint256"
        }
      ],
      "name": "transferFrom",
      "outputs": [],
      "stateMutability": "nonpayable",
      "type": "function"
    }
  ],
  "bytecode": "0x60806040523480156200001157600080fd5b50604051620031f6380380620031f68339810160408190526200003491620006fd565b818585600062000045838262000825565b50600162000054828262000825565b5050600880546001600160a01b03199081166001600160a01b0394851617909155600f805490911692861692909217909155506010819055620000cf620000a7826200015b602090811b62000e2917901c565b604051602001620000b99190620008f1565b60408051601f19818403018152919052620001ff565b620000e6600d6200021160201b62000ebb1760201c565b620000f06200021a565b6040516000906200010790600a90602001620009a8565b604051602081830303815290604052905062000145816040516020016200012f9190620009fa565b60408051601f198184030181529190526200034c565b6200014f6200035a565b50505050505062000c91565b606060006200017583620004a160201b62000ec41760201c565b60010190506000816001600160401b0381111562000197576200019762000613565b6040519080825280601f01601f191660200182016040528015620001c2576020820181803683370190505b5090508181016020015b600019016f181899199a1a9b1b9c1cb0b131b232b360811b600a86061a8153600a8504945084620001cc57509392505050565b60076200020d828262000825565b5050565b80546001019055565b600954156200024a57604051633e0f514960e01b81526200024190600a9060040162000a67565b60405180910390fd5b6000600760405160200162000260919062000afa565b60408051601f1981840301815260085460608401909252602b8084529093506001600160a01b0390911691633a9151b0913091620002b391620031cb6020830139856200058b60201b62000f9a1760201c565b6040518363ffffffff1660e01b8152600401620002d292919062000b1f565b6020604051808303816000875af1158015620002f2573d6000803e3d6000fd5b505050506040513d601f19601f8201168201806040525081019062000318919062000b63565b6009600001819055506200033d81600960000154620005d060201b62000fd01760201c565b600a906200020d908262000825565b600e6200020d828262000825565b600b54156200038157604051633e0f514960e01b81526200024190600c9060040162000a67565b6000600760405160200162000397919062000b7d565b60408051601f19818403018152600854838301909252601a83527f6b2054455854205052494d415259204b45592c207620544558540000000000006020848101919091529093506001600160a01b0390911691633a9151b09130916200040891869062000f9a6200058b821b17901c565b6040518363ffffffff1660e01b81526004016200042792919062000b1f565b6020604051808303816000875af115801562000447573d6000803e3d6000fd5b505050506040513d601f19601f820116820180604052508101906200046d919062000b63565b600b600001819055506200049281600b60000154620005d060201b62000fd01760201c565b600c906200020d908262000825565b6000807a184f03e93ff9f4daa797ed6e38ed64bf6a1f0100000000000000008310620004eb577a184f03e93ff9f4daa797ed6e38ed64bf6a1f010000000000000000830492506040015b6d04ee2d6d415b85acef8100000000831062000518576d04ee2d6d415b85acef8100000000830492506020015b662386f26fc1000083106200053757662386f26fc10000830492506010015b6305f5e100831062000550576305f5e100830492506008015b61271083106200056557612710830492506004015b6064831062000578576064830492506002015b600a831062000585576001015b92915050565b606081620005a4466200015b60201b62000e291760201c565b84604051602001620005b99392919062000ba5565b604051602081830303815290604052905092915050565b606082620005e9466200015b60201b62000e291760201c565b620005ff846200015b60201b62000e291760201c565b604051602001620005b99392919062000c31565b634e487b7160e01b600052604160045260246000fd5b60005b83811015620006465781810151838201526020016200062c565b50506000910152565b600082601f8301126200066157600080fd5b81516001600160401b03808211156200067e576200067e62000613565b604051601f8301601f19908116603f01168101908282118183101715620006a957620006a962000613565b81604052838152866020858801011115620006c357600080fd5b620006d684602083016020890162000629565b9695505050505050565b80516001600160a01b0381168114620006f857600080fd5b919050565b600080600080600060a086880312156200071657600080fd5b85516001600160401b03808211156200072e57600080fd5b6200073c89838a016200064f565b965060208801519150808211156200075357600080fd5b5062000762888289016200064f565b9450506200077360408701620006e0565b92506200078360608701620006e0565b9150608086015190509295509295909350565b600181811c90821680620007ab57607f821691505b602082108103620007cc57634e487b7160e01b600052602260045260246000fd5b50919050565b601f8211156200082057600081815260208120601f850160051c81016020861015620007fb5750805b601f850160051c820191505b818110156200081c5782815560010162000807565b5050505b505050565b81516001600160401b0381111562000841576200084162000613565b620008598162000852845462000796565b84620007d2565b602080601f831160018114620008915760008415620008785750858301515b600019600386901b1c1916600185901b1785556200081c565b600085815260208120601f198616915b82811015620008c257888601518255948401946001909101908401620008a1565b5085821015620008e15787850151600019600388901b60f8161c191681555b5050505050600190811b01905550565b71656d62726163655f636f6d6d756e6974795f60701b8152600082516200092081601285016020870162000629565b9190910160120192915050565b600081546200093c8162000796565b600182811680156200095757600181146200096d576200099e565b60ff19841687528215158302870194506200099e565b8560005260208060002060005b85811015620009955781548a8201529084019082016200097a565b50505082870194505b5050505092915050565b7f53454c4543542b69642532432b63726561746564446174652b46524f4d2b000081526000620009dc601e8301846200092d565b6d2b57484552452b69642b2533442b60901b8152600e019392505050565b7f68747470733a2f2f746573746e6574732e7461626c656c616e642e6e6574776f81527f726b2f71756572793f756e777261703d7472756526733d00000000000000000060208201526000825162000a5a81603785016020870162000629565b9190910160370192915050565b600060208083526000845462000a7d8162000796565b8084870152604060018084166000811462000aa1576001811462000abc5762000aec565b60ff1985168984015283151560051b89018301955062000aec565b896000528660002060005b8581101562000ae45781548b820186015290830190880162000ac7565b8a0184019650505b509398975050505050505050565b600062000b0882846200092d565b662fb6b2b6b132b960c91b81526007019392505050565b60018060a01b0383168152604060208201526000825180604084015262000b4e81606085016020870162000629565b601f01601f1916919091016060019392505050565b60006020828403121562000b7657600080fd5b5051919050565b600062000b8b82846200092d565b695f6b65795f76616c756560b01b8152600a019392505050565b6c021a922a0aa22902a20a126229609d1b81526000845162000bcf81600d85016020890162000629565b605f60f81b600d91840191820152845162000bf281600e84016020890162000629565b600560fb1b600e9290910191820152835162000c1681600f84016020880162000629565b602960f81b600f929091019182015260100195945050505050565b6000845162000c4581846020890162000629565b8083019050605f60f81b808252855162000c67816001850160208a0162000629565b6001920191820152835162000c8481600284016020880162000629565b0160020195945050505050565b61252a8062000ca16000396000f3fe608060405234801561001057600080fd5b506004361061011d5760003560e01c806301ffc9a71461012257806306fdde031461014a578063081812fc1461015f578063095ea7b31461018a57806323b872dd1461019f57806328343c34146101b2578063351e2339146101c757806342842e0e146101cf5780636352211e146101e2578063668bf428146101f557806370a082311461020b57806385cb593b1461022c57806395d89b411461023f578063a22cb46514610247578063adaf1cab1461025a578063b43bdada1461026d578063b688a36314610275578063b75b238c1461027d578063b88d4fde14610285578063c87b56dd14610298578063daee9ac9146102ab578063e985e9c5146102c0578063f6228cad146102d3575b600080fd5b610135610130366004611863565b6102e6565b60405190151581526020015b60405180910390f35b610152610338565b60405161014191906118d0565b61017261016d3660046118e3565b6103ca565b6040516001600160a01b039091168152602001610141565b61019d610198366004611918565b6103f1565b005b61019d6101ad366004611942565b61050b565b6101ba61053c565b604051610141919061197e565b61019d610713565b61019d6101dd366004611942565b610811565b6101726101f03660046118e3565b61082c565b6101fd610860565b6040516101419291906119f2565b61021e610219366004611a0b565b6108f7565b604051908152602001610141565b61019d61023a366004611b0b565b61097d565b610152610989565b61019d610255366004611b3f565b610998565b61019d610268366004611b88565b6109a3565b61019d610a19565b61019d610b29565b6101fd610b5a565b61019d610293366004611cbd565b610b6e565b6101526102a63660046118e3565b610ba6565b6102b3610bb1565b6040516101419190611d6c565b6101356102ce366004611e09565b610d49565b61019d6102e13660046118e3565b610d77565b60006001600160e01b031982166380ac58cd60e01b148061031757506001600160e01b03198216635b5e139f60e01b145b8061033257506301ffc9a760e01b6001600160e01b03198316145b92915050565b60606000805461034790611e3c565b80601f016020809104026020016040519081016040528092919081815260200182805461037390611e3c565b80156103c05780601f10610395576101008083540402835291602001916103c0565b820191906000526020600020905b8154815290600101906020018083116103a357829003601f168201915b5050505050905090565b60006103d582610ff7565b506000908152600460205260409020546001600160a01b031690565b60006103fc8261082c565b9050806001600160a01b0316836001600160a01b03160361046e5760405162461bcd60e51b815260206004820152602160248201527f4552433732313a20617070726f76616c20746f2063757272656e74206f776e656044820152603960f91b60648201526084015b60405180910390fd5b336001600160a01b038216148061048a575061048a8133610d49565b6104fc5760405162461bcd60e51b815260206004820152603d60248201527f4552433732313a20617070726f76652063616c6c6572206973206e6f7420746f60448201527f6b656e206f776e6572206f7220617070726f76656420666f7220616c6c0000006064820152608401610465565b610506838361101c565b505050565b610515338261108a565b6105315760405162461bcd60e51b815260040161046590611e76565b6105068383836110e9565b604080516002808252606082810190935260009190816020015b6040805180820190915260008152606060208201528152602001906001900390816105565790505090506009604051806040016040529081600082015481526020016001820180546105a790611e3c565b80601f01602080910402602001604051908101604052809291908181526020018280546105d390611e3c565b80156106205780601f106105f557610100808354040283529160200191610620565b820191906000526020600020905b81548152906001019060200180831161060357829003601f168201915b5050505050815250508160008151811061063c5761063c611ec3565b6020026020010181905250600b6040518060400160405290816000820154815260200160018201805461066e90611e3c565b80601f016020809104026020016040519081016040528092919081815260200182805461069a90611e3c565b80156106e75780601f106106bc576101008083540402835291602001916106e7565b820191906000526020600020905b8154815290600101906020018083116106ca57829003601f168201915b5050505050815250508160018151811061070357610703611ec3565b6020908102919091010152919050565b6009541561073757604051633e0f514960e01b815261046590600a90600401611ed9565b6000600760405160200161074b9190611fd7565b60408051601f1981840301815260085460608401909252602b8084529093506001600160a01b0390911691633a9151b0913091610790916124f3602083013985610f9a565b6040518363ffffffff1660e01b81526004016107ad929190611ffa565b6020604051808303816000875af11580156107cc573d6000803e3d6000fd5b505050506040513d601f19601f820116820180604052508101906107f0919061201e565b6009819055610800908290610fd0565b600a9061080d9082612085565b5050565b61050683838360405180602001604052806000815250610b6e565b60008061083883611248565b90506001600160a01b0381166103325760405162461bcd60e51b815260040161046590612144565b60098054600a805491929161087490611e3c565b80601f01602080910402602001604051908101604052809291908181526020018280546108a090611e3c565b80156108ed5780601f106108c2576101008083540402835291602001916108ed565b820191906000526020600020905b8154815290600101906020018083116108d057829003601f168201915b5050505050905082565b60006001600160a01b0382166109615760405162461bcd60e51b815260206004820152602960248201527f4552433732313a2061646472657373207a65726f206973206e6f7420612076616044820152683634b21037bbb732b960b91b6064820152608401610465565b506001600160a01b031660009081526003602052604090205490565b600761080d8282612085565b60606001805461034790611e3c565b61080d338383611263565b80516011906109b29082612085565b5060208101516012805460ff1916600183818111156109d3576109d3611d38565b021790555060408101516012805461ff0019166101008360018111156109fb576109fb611d38565b02179055506060810151805161080d91601391602090910190611780565b600b5415610a3d57604051633e0f514960e01b815261046590600c90600401611ed9565b60006007604051602001610a519190612176565b60408051601f19818403018152600854838301909252601a8352791ac81511561508141492535054964812d1564b081d881511561560321b602084015292506001600160a01b031690633a9151b0903090610aac9085610f9a565b6040518363ffffffff1660e01b8152600401610ac9929190611ffa565b6020604051808303816000875af1158015610ae8573d6000803e3d6000fd5b505050506040513d601f19601f82011682018060405250810190610b0c919061201e565b600b819055610b1c908290610fd0565b600c9061080d9082612085565b6000610b34600d5490565b9050610b40338261132d565b610b4981610d77565b610b57600d80546001019055565b50565b600b8054600c805491929161087490611e3c565b610b78338361108a565b610b945760405162461bcd60e51b815260040161046590611e76565b610ba084848484611436565b50505050565b606061033282611469565b610bdd604080516080810190915260608152602081016000815260200160008152602001606081525090565b604051806080016040528060118054610bf590611e3c565b80601f0160208091040260200160405190810160405280929190818152602001828054610c2190611e3c565b8015610c6e5780601f10610c4357610100808354040283529160200191610c6e565b820191906000526020600020905b815481529060010190602001808311610c5157829003601f168201915b505050918352505060125460209091019060ff166001811115610c9357610c93611d38565b8152602001601260019054906101000a900460ff166001811115610cb957610cb9611d38565b81526020016013805480602002602001604051908101604052809291908181526020018280548015610d3c57602002820191906000526020600020906000905b82829054906101000a90046001600160801b03166001600160801b031681526020019060100190602082600f01049283019260010382029150808411610cf95790505b5050505050815250905090565b6001600160a01b03918216600090815260056020908152604080832093909416825291909152205460ff1690565b6000610d8282610e29565b90506000610d8f42610e29565b9050600060096001018383604051602001610dac9392919061219c565b60408051601f198184030181529082905260085460095463757ae82760e11b84529193506001600160a01b03169163eaf5d04e91610df1913091908690600401612230565b600060405180830381600087803b158015610e0b57600080fd5b505af1158015610e1f573d6000803e3d6000fd5b5050505050505050565b60606000610e3683610ec4565b60010190506000816001600160401b03811115610e5557610e55611a26565b6040519080825280601f01601f191660200182016040528015610e7f576020820181803683370190505b5090508181016020015b600019016f181899199a1a9b1b9c1cb0b131b232b360811b600a86061a8153600a8504945084610e8957509392505050565b80546001019055565b60008072184f03e93ff9f4daa797ed6e38ed64bf6a1f0160401b8310610f035772184f03e93ff9f4daa797ed6e38ed64bf6a1f0160401b830492506040015b6904ee2d6d415b85acef8160201b8310610f2d576904ee2d6d415b85acef8160201b830492506020015b662386f26fc100008310610f4b57662386f26fc10000830492506010015b6305f5e1008310610f63576305f5e100830492506008015b6127108310610f7757612710830492506004015b60648310610f89576064830492506002015b600a83106103325760010192915050565b606081610fa646610e29565b84604051602001610fb993929190612260565b604051602081830303815290604052905092915050565b606082610fdc46610e29565b610fe584610e29565b604051602001610fb9939291906122e6565b61100081611564565b610b575760405162461bcd60e51b815260040161046590612144565b600081815260046020526040902080546001600160a01b0319166001600160a01b03841690811790915581906110518261082c565b6001600160a01b03167f8c5be1e5ebec7d5bd14f71427d1e84f3dd0314c0f7b2291e5b200ac8c7c3b92560405160405180910390a45050565b6000806110968361082c565b9050806001600160a01b0316846001600160a01b031614806110bd57506110bd8185610d49565b806110e15750836001600160a01b03166110d6846103ca565b6001600160a01b0316145b949350505050565b826001600160a01b03166110fc8261082c565b6001600160a01b0316146111225760405162461bcd60e51b815260040161046590612340565b6001600160a01b0382166111845760405162461bcd60e51b8152602060048201526024808201527f4552433732313a207472616e7366657220746f20746865207a65726f206164646044820152637265737360e01b6064820152608401610465565b6111918383836001611581565b826001600160a01b03166111a48261082c565b6001600160a01b0316146111ca5760405162461bcd60e51b815260040161046590612340565b600081815260046020908152604080832080546001600160a01b03199081169091556001600160a01b0387811680865260038552838620805460001901905590871680865283862080546001019055868652600290945282852080549092168417909155905184936000805160206124d383398151915291a4505050565b6000908152600260205260409020546001600160a01b031690565b816001600160a01b0316836001600160a01b0316036112c05760405162461bcd60e51b815260206004820152601960248201527822a9219b99189d1030b8383937bb32903a379031b0b63632b960391b6044820152606401610465565b6001600160a01b03838116600081815260056020908152604080832094871680845294825291829020805460ff191686151590811790915591519182527f17307eab39ab6107e8899845ad3d59bd9653f200f220920489ca2b5937696c31910160405180910390a3505050565b6001600160a01b0382166113835760405162461bcd60e51b815260206004820181905260248201527f4552433732313a206d696e7420746f20746865207a65726f20616464726573736044820152606401610465565b61138c81611564565b156113a95760405162461bcd60e51b815260040161046590612385565b6113b7600083836001611581565b6113c081611564565b156113dd5760405162461bcd60e51b815260040161046590612385565b6001600160a01b038216600081815260036020908152604080832080546001019055848352600290915280822080546001600160a01b0319168417905551839291906000805160206124d3833981519152908290a45050565b6114418484846110e9565b61144d84848484611609565b610ba05760405162461bcd60e51b8152600401610465906123bb565b606061147482610ff7565b6000828152600660205260408120805461148d90611e3c565b80601f01602080910402602001604051908101604052809291908181526020018280546114b990611e3c565b80156115065780601f106114db57610100808354040283529160200191611506565b820191906000526020600020905b8154815290600101906020018083116114e957829003601f168201915b50505050509050600061151761170a565b90508051600003611529575092915050565b81511561155b57808260405160200161154392919061240d565b60405160208183030381529060405292505050919050565b6110e184611719565b60008061157083611248565b6001600160a01b0316141592915050565b6001811115610ba0576001600160a01b038416156115c7576001600160a01b038416600090815260036020526040812080548392906115c1908490612452565b90915550505b6001600160a01b03831615610ba0576001600160a01b038316600090815260036020526040812080548392906115fe908490612465565b909155505050505050565b60006001600160a01b0384163b156116ff57604051630a85bd0160e11b81526001600160a01b0385169063150b7a029061164d903390899088908890600401612478565b6020604051808303816000875af1925050508015611688575060408051601f3d908101601f19168201909252611685918101906124b5565b60015b6116e5573d8080156116b6576040519150601f19603f3d011682016040523d82523d6000602084013e6116bb565b606091505b5080516000036116dd5760405162461bcd60e51b8152600401610465906123bb565b805181602001fd5b6001600160e01b031916630a85bd0160e11b1490506110e1565b506001949350505050565b6060600e805461034790611e3c565b606061172482610ff7565b600061172e61170a565b9050600081511161174e5760405180602001604052806000815250611779565b8061175884610e29565b60405160200161176992919061240d565b6040516020818303038152906040525b9392505050565b828054828255906000526020600020906001016002900481019282156118285791602002820160005b838211156117f357835183826101000a8154816001600160801b0302191690836001600160801b031602179055509260200192601001602081600f010492830192600103026117a9565b80156118265782816101000a8154906001600160801b030219169055601001602081600f010492830192600103026117f3565b505b50611834929150611838565b5090565b5b808211156118345760008155600101611839565b6001600160e01b031981168114610b5757600080fd5b60006020828403121561187557600080fd5b81356117798161184d565b60005b8381101561189b578181015183820152602001611883565b50506000910152565b600081518084526118bc816020860160208601611880565b601f01601f19169290920160200192915050565b60208152600061177960208301846118a4565b6000602082840312156118f557600080fd5b5035919050565b80356001600160a01b038116811461191357600080fd5b919050565b6000806040838503121561192b57600080fd5b611934836118fc565b946020939093013593505050565b60008060006060848603121561195757600080fd5b611960846118fc565b925061196e602085016118fc565b9150604084013590509250925092565b60006020808301818452808551808352604092508286019150828160051b87010184880160005b838110156119e457888303603f190185528151805184528701518784018790526119d1878501826118a4565b95880195935050908601906001016119a5565b509098975050505050505050565b8281526040602082015260006110e160408301846118a4565b600060208284031215611a1d57600080fd5b611779826118fc565b634e487b7160e01b600052604160045260246000fd5b604051608081016001600160401b0381118282101715611a5e57611a5e611a26565b60405290565b604051601f8201601f191681016001600160401b0381118282101715611a8c57611a8c611a26565b604052919050565b60006001600160401b03831115611aad57611aad611a26565b611ac0601f8401601f1916602001611a64565b9050828152838383011115611ad457600080fd5b828260208301376000602084830101529392505050565b600082601f830112611afc57600080fd5b61177983833560208501611a94565b600060208284031215611b1d57600080fd5b81356001600160401b03811115611b3357600080fd5b6110e184828501611aeb565b60008060408385031215611b5257600080fd5b611b5b836118fc565b915060208301358015158114611b7057600080fd5b809150509250929050565b60028110610b5757600080fd5b60006020808385031215611b9b57600080fd5b82356001600160401b0380821115611bb257600080fd5b9084019060808287031215611bc657600080fd5b611bce611a3c565b823582811115611bdd57600080fd5b611be988828601611aeb565b82525083830135611bf981611b7b565b818501526040830135611c0b81611b7b565b6040820152606083013582811115611c2257600080fd5b80840193505086601f840112611c3757600080fd5b823582811115611c4957611c49611a26565b8060051b9250611c5a858401611a64565b8181529284018501928581019089851115611c7457600080fd5b948601945b84861015611cab57853592506001600160801b0383168314611c9b5760008081fd5b8282529486019490860190611c79565b60608401525090979650505050505050565b60008060008060808587031215611cd357600080fd5b611cdc856118fc565b9350611cea602086016118fc565b92506040850135915060608501356001600160401b03811115611d0c57600080fd5b8501601f81018713611d1d57600080fd5b611d2c87823560208401611a94565b91505092959194509250565b634e487b7160e01b600052602160045260246000fd5b60028110610b5757634e487b7160e01b600052602160045260246000fd5b600060208083528351608082850152611d8860a08501826118a4565b905081850151611d9781611d4e565b806040860152506040850151611dac81611d4e565b606085810191909152850151848203601f19016080860152805180835290830191600091908401905b80831015611dfe5783516001600160801b03168252928401926001929092019190840190611dd5565b509695505050505050565b60008060408385031215611e1c57600080fd5b611e25836118fc565b9150611e33602084016118fc565b90509250929050565b600181811c90821680611e5057607f821691505b602082108103611e7057634e487b7160e01b600052602260045260246000fd5b50919050565b6020808252602d908201527f4552433732313a2063616c6c6572206973206e6f7420746f6b656e206f776e6560408201526c1c881bdc88185c1c1c9bdd9959609a1b606082015260800190565b634e487b7160e01b600052603260045260246000fd5b6000602080835260008454611eed81611e3c565b80848701526040600180841660008114611f0e5760018114611f2857611f56565b60ff1985168984015283151560051b890183019550611f56565b896000528660002060005b85811015611f4e5781548b8201860152908301908801611f33565b8a0184019650505b509398975050505050505050565b60008154611f7181611e3c565b60018281168015611f895760018114611f9e57611fcd565b60ff1984168752821515830287019450611fcd565b8560005260208060002060005b85811015611fc45781548a820152908401908201611fab565b50505082870194505b5050505092915050565b6000611fe38284611f64565b662fb6b2b6b132b960c91b81526007019392505050565b6001600160a01b03831681526040602082018190526000906110e1908301846118a4565b60006020828403121561203057600080fd5b5051919050565b601f82111561050657600081815260208120601f850160051c8101602086101561205e5750805b601f850160051c820191505b8181101561207d5782815560010161206a565b505050505050565b81516001600160401b0381111561209e5761209e611a26565b6120b2816120ac8454611e3c565b84612037565b602080601f8311600181146120e757600084156120cf5750858301515b600019600386901b1c1916600185901b17855561207d565b600085815260208120601f198616915b82811015612116578886015182559484019460019091019084016120f7565b50858210156121345787850151600019600388901b60f8161c191681555b5050505050600190811b01905550565b602080825260189082015277115490cdcc8c4e881a5b9d985b1a59081d1bdad95b88125160421b604082015260600190565b60006121828284611f64565b695f6b65795f76616c756560b01b8152600a019392505050565b6b024a729a2a92a1024a72a27960a51b815260006121bd600c830186611f64565b7a04050d2c85840c6e4cac2e8cac888c2e8ca5240ac8298aa8aa6405602b1b815284516121f181601b840160208901611880565b6109cb60f21b601b9290910191820152835161221481601d840160208801611880565b61293b60f01b601d9290910191820152601f0195945050505050565b60018060a01b038416815282602082015260606040820152600061225760608301846118a4565b95945050505050565b6c021a922a0aa22902a20a126229609d1b81526000845161228881600d850160208901611880565b605f60f81b600d9184019182015284516122a981600e840160208901611880565b600560fb1b600e929091019182015283516122cb81600f840160208801611880565b602960f81b600f929091019182015260100195945050505050565b600084516122f8818460208901611880565b8083019050605f60f81b8082528551612318816001850160208a01611880565b60019201918201528351612333816002840160208801611880565b0160020195945050505050565b60208082526025908201527f4552433732313a207472616e736665722066726f6d20696e636f72726563742060408201526437bbb732b960d91b606082015260800190565b6020808252601c908201527b115490cdcc8c4e881d1bdad95b88185b1c9958591e481b5a5b9d195960221b604082015260600190565b60208082526032908201527f4552433732313a207472616e7366657220746f206e6f6e20455243373231526560408201527131b2b4bb32b91034b6b83632b6b2b73a32b960711b606082015260800190565b6000835161241f818460208801611880565b835190830190612433818360208801611880565b01949350505050565b634e487b7160e01b600052601160045260246000fd5b818103818111156103325761033261243c565b808201808211156103325761033261243c565b6001600160a01b03858116825284166020820152604081018390526080606082018190526000906124ab908301846118a4565b9695505050505050565b6000602082840312156124c757600080fd5b81516117798161184d56feddf252ad1be2c89b69c2b068fc378daa952ba7f163c4a11628f55a4df523b3ef696420494e5445474552205052494d415259204b45592c20637265617465644461746520494e5445474552a164736f6c6343000811000a696420494e5445474552205052494d415259204b45592c20637265617465644461746520494e5445474552",
  "linkReferences": {},
  "deployedLinkReferences": {}
}