{
  "_format": "hh-sol-artifact-1",
  "contractName": "EmbraceCommunity",
  "sourceName": "contracts/EmbraceCommunity.sol",
  "abi": [
    {
      "inputs": [
        {
          "internalType": "address",
          "name": "member",
          "type": "address"
        }
      ],
      "name": "ErrorAlreadyAdmin",
      "type": "error"
    },
    {
      "inputs": [
        {
          "internalType": "address",
          "name": "member",
          "type": "address"
        }
      ],
      "name": "ErrorMemberDoesNotExist",
      "type": "error"
    },
    {
      "inputs": [
        {
          "internalType": "address",
          "name": "member",
          "type": "address"
        }
      ],
      "name": "ErrorMemberExists",
      "type": "error"
    },
    {
      "inputs": [
        {
          "internalType": "address",
          "name": "member",
          "type": "address"
        }
      ],
      "name": "ErrorNotAdmin",
      "type": "error"
    },
    {
      "inputs": [
        {
          "internalType": "address",
          "name": "member",
          "type": "address"
        }
      ],
      "name": "ErrorNotFounder",
      "type": "error"
    },
    {
      "inputs": [
        {
          "internalType": "string",
          "name": "tableName",
          "type": "string"
        }
      ],
      "name": "ErrorTableExists",
      "type": "error"
    },
    {
      "anonymous": false,
      "inputs": [
        {
          "indexed": true,
          "internalType": "address",
          "name": "owner",
          "type": "address"
        },
        {
          "indexed": true,
          "internalType": "address",
          "name": "approved",
          "type": "address"
        },
        {
          "indexed": true,
          "internalType": "uint256",
          "name": "tokenId",
          "type": "uint256"
        }
      ],
      "name": "Approval",
      "type": "event"
    },
    {
      "anonymous": false,
      "inputs": [
        {
          "indexed": true,
          "internalType": "address",
          "name": "owner",
          "type": "address"
        },
        {
          "indexed": true,
          "internalType": "address",
          "name": "operator",
          "type": "address"
        },
        {
          "indexed": false,
          "internalType": "bool",
          "name": "approved",
          "type": "bool"
        }
      ],
      "name": "ApprovalForAll",
      "type": "event"
    },
    {
      "anonymous": false,
      "inputs": [
        {
          "indexed": false,
          "internalType": "uint8",
          "name": "version",
          "type": "uint8"
        }
      ],
      "name": "Initialized",
      "type": "event"
    },
    {
      "anonymous": false,
      "inputs": [
        {
          "indexed": true,
          "internalType": "bytes32",
          "name": "role",
          "type": "bytes32"
        },
        {
          "indexed": true,
          "internalType": "bytes32",
          "name": "previousAdminRole",
          "type": "bytes32"
        },
        {
          "indexed": true,
          "internalType": "bytes32",
          "name": "newAdminRole",
          "type": "bytes32"
        }
      ],
      "name": "RoleAdminChanged",
      "type": "event"
    },
    {
      "anonymous": false,
      "inputs": [
        {
          "indexed": true,
          "internalType": "bytes32",
          "name": "role",
          "type": "bytes32"
        },
        {
          "indexed": true,
          "internalType": "address",
          "name": "account",
          "type": "address"
        },
        {
          "indexed": true,
          "internalType": "address",
          "name": "sender",
          "type": "address"
        }
      ],
      "name": "RoleGranted",
      "type": "event"
    },
    {
      "anonymous": false,
      "inputs": [
        {
          "indexed": true,
          "internalType": "bytes32",
          "name": "role",
          "type": "bytes32"
        },
        {
          "indexed": true,
          "internalType": "address",
          "name": "account",
          "type": "address"
        },
        {
          "indexed": true,
          "internalType": "address",
          "name": "sender",
          "type": "address"
        }
      ],
      "name": "RoleRevoked",
      "type": "event"
    },
    {
      "anonymous": false,
      "inputs": [
        {
          "indexed": true,
          "internalType": "address",
          "name": "from",
          "type": "address"
        },
        {
          "indexed": true,
          "internalType": "address",
          "name": "to",
          "type": "address"
        },
        {
          "indexed": true,
          "internalType": "uint256",
          "name": "tokenId",
          "type": "uint256"
        }
      ],
      "name": "Transfer",
      "type": "event"
    },
    {
      "inputs": [],
      "name": "ADMIN_ROLE",
      "outputs": [
        {
          "internalType": "bytes32",
          "name": "",
          "type": "bytes32"
        }
      ],
      "stateMutability": "view",
      "type": "function"
    },
    {
      "inputs": [],
      "name": "DEFAULT_ADMIN_ROLE",
      "outputs": [
        {
          "internalType": "bytes32",
          "name": "",
          "type": "bytes32"
        }
      ],
      "stateMutability": "view",
      "type": "function"
    },
    {
      "inputs": [
        {
          "internalType": "address",
          "name": "to",
          "type": "address"
        },
        {
          "internalType": "uint256",
          "name": "tokenId",
          "type": "uint256"
        }
      ],
      "name": "approve",
      "outputs": [],
      "stateMutability": "nonpayable",
      "type": "function"
    },
    {
      "inputs": [
        {
          "internalType": "address",
          "name": "owner",
          "type": "address"
        }
      ],
      "name": "balanceOf",
      "outputs": [
        {
          "internalType": "uint256",
          "name": "",
          "type": "uint256"
        }
      ],
      "stateMutability": "view",
      "type": "function"
    },
    {
      "inputs": [],
      "name": "createKeyValueTable",
      "outputs": [],
      "stateMutability": "nonpayable",
      "type": "function"
    },
    {
      "inputs": [],
      "name": "createMemberTable",
      "outputs": [],
      "stateMutability": "nonpayable",
      "type": "function"
    },
    {
      "inputs": [
        {
          "internalType": "uint256",
          "name": "tokenId",
          "type": "uint256"
        }
      ],
      "name": "getApproved",
      "outputs": [
        {
          "internalType": "address",
          "name": "",
          "type": "address"
        }
      ],
      "stateMutability": "view",
      "type": "function"
    },
    {
      "inputs": [],
      "name": "getCommunityData",
      "outputs": [
        {
          "components": [
            {
              "internalType": "string",
              "name": "handle",
              "type": "string"
            },
            {
              "internalType": "enum Visibility",
              "name": "visibility",
              "type": "uint8"
            },
            {
              "internalType": "enum Membership",
              "name": "membership",
              "type": "uint8"
            },
            {
              "internalType": "uint128[]",
              "name": "apps",
              "type": "uint128[]"
            }
          ],
          "internalType": "struct CommunityContractData",
          "name": "",
          "type": "tuple"
        }
      ],
      "stateMutability": "view",
      "type": "function"
    },
    {
      "inputs": [],
      "name": "getFounder",
      "outputs": [
        {
          "internalType": "address",
          "name": "",
          "type": "address"
        }
      ],
      "stateMutability": "view",
      "type": "function"
    },
    {
      "inputs": [
        {
          "internalType": "bytes32",
          "name": "role",
          "type": "bytes32"
        }
      ],
      "name": "getRoleAdmin",
      "outputs": [
        {
          "internalType": "bytes32",
          "name": "",
          "type": "bytes32"
        }
      ],
      "stateMutability": "view",
      "type": "function"
    },
    {
      "inputs": [],
      "name": "getTables",
      "outputs": [
        {
          "components": [
            {
              "internalType": "uint256",
              "name": "id",
              "type": "uint256"
            },
            {
              "internalType": "string",
              "name": "name",
              "type": "string"
            }
          ],
          "internalType": "struct EmbraceCommunity.Table[]",
          "name": "",
          "type": "tuple[]"
        }
      ],
      "stateMutability": "view",
      "type": "function"
    },
    {
      "inputs": [
        {
          "internalType": "address",
          "name": "_account",
          "type": "address"
        }
      ],
      "name": "grantAdminRole",
      "outputs": [],
      "stateMutability": "nonpayable",
      "type": "function"
    },
    {
      "inputs": [
        {
          "internalType": "bytes32",
          "name": "role",
          "type": "bytes32"
        },
        {
          "internalType": "address",
          "name": "account",
          "type": "address"
        }
      ],
      "name": "grantRole",
      "outputs": [],
      "stateMutability": "nonpayable",
      "type": "function"
    },
    {
      "inputs": [
        {
          "internalType": "bytes32",
          "name": "role",
          "type": "bytes32"
        },
        {
          "internalType": "address",
          "name": "account",
          "type": "address"
        }
      ],
      "name": "hasRole",
      "outputs": [
        {
          "internalType": "bool",
          "name": "",
          "type": "bool"
        }
      ],
      "stateMutability": "view",
      "type": "function"
    },
    {
      "inputs": [
        {
          "internalType": "string",
          "name": "_name",
          "type": "string"
        },
        {
          "internalType": "string",
          "name": "_symbol",
          "type": "string"
        },
        {
          "internalType": "address",
          "name": "_tablelandRegistryAddress",
          "type": "address"
        },
        {
          "internalType": "uint256",
          "name": "_communityId",
          "type": "uint256"
        }
      ],
      "name": "initialize",
      "outputs": [],
      "stateMutability": "nonpayable",
      "type": "function"
    },
    {
      "inputs": [
        {
          "internalType": "uint256",
          "name": "_memberId",
          "type": "uint256"
        }
      ],
      "name": "insertMember",
      "outputs": [],
      "stateMutability": "nonpayable",
      "type": "function"
    },
    {
      "inputs": [
        {
          "internalType": "address",
          "name": "owner",
          "type": "address"
        },
        {
          "internalType": "address",
          "name": "operator",
          "type": "address"
        }
      ],
      "name": "isApprovedForAll",
      "outputs": [
        {
          "internalType": "bool",
          "name": "",
          "type": "bool"
        }
      ],
      "stateMutability": "view",
      "type": "function"
    },
    {
      "inputs": [],
      "name": "join",
      "outputs": [],
      "stateMutability": "nonpayable",
      "type": "function"
    },
    {
      "inputs": [],
      "name": "keyValueTable",
      "outputs": [
        {
          "internalType": "uint256",
          "name": "id",
          "type": "uint256"
        },
        {
          "internalType": "string",
          "name": "name",
          "type": "string"
        }
      ],
      "stateMutability": "view",
      "type": "function"
    },
    {
      "inputs": [],
      "name": "memberTable",
      "outputs": [
        {
          "internalType": "uint256",
          "name": "id",
          "type": "uint256"
        },
        {
          "internalType": "string",
          "name": "name",
          "type": "string"
        }
      ],
      "stateMutability": "view",
      "type": "function"
    },
    {
      "inputs": [
        {
          "internalType": "address",
          "name": "",
          "type": "address"
        }
      ],
      "name": "memberToTokenId",
      "outputs": [
        {
          "internalType": "uint256",
          "name": "",
          "type": "uint256"
        }
      ],
      "stateMutability": "view",
      "type": "function"
    },
    {
      "inputs": [],
      "name": "name",
      "outputs": [
        {
          "internalType": "string",
          "name": "",
          "type": "string"
        }
      ],
      "stateMutability": "view",
      "type": "function"
    },
    {
      "inputs": [
        {
          "internalType": "address",
          "name": "",
          "type": "address"
        },
        {
          "internalType": "address",
          "name": "",
          "type": "address"
        },
        {
          "internalType": "uint256",
          "name": "",
          "type": "uint256"
        },
        {
          "internalType": "bytes",
          "name": "",
          "type": "bytes"
        }
      ],
      "name": "onERC721Received",
      "outputs": [
        {
          "internalType": "bytes4",
          "name": "",
          "type": "bytes4"
        }
      ],
      "stateMutability": "nonpayable",
      "type": "function"
    },
    {
      "inputs": [
        {
          "internalType": "uint256",
          "name": "tokenId",
          "type": "uint256"
        }
      ],
      "name": "ownerOf",
      "outputs": [
        {
          "internalType": "address",
          "name": "",
          "type": "address"
        }
      ],
      "stateMutability": "view",
      "type": "function"
    },
    {
      "inputs": [
        {
          "internalType": "bytes32",
          "name": "role",
          "type": "bytes32"
        },
        {
          "internalType": "address",
          "name": "account",
          "type": "address"
        }
      ],
      "name": "renounceRole",
      "outputs": [],
      "stateMutability": "nonpayable",
      "type": "function"
    },
    {
      "inputs": [
        {
          "internalType": "address",
          "name": "_account",
          "type": "address"
        }
      ],
      "name": "revokeAdminRole",
      "outputs": [],
      "stateMutability": "nonpayable",
      "type": "function"
    },
    {
      "inputs": [
        {
          "internalType": "bytes32",
          "name": "role",
          "type": "bytes32"
        },
        {
          "internalType": "address",
          "name": "account",
          "type": "address"
        }
      ],
      "name": "revokeRole",
      "outputs": [],
      "stateMutability": "nonpayable",
      "type": "function"
    },
    {
      "inputs": [
        {
          "internalType": "address",
          "name": "from",
          "type": "address"
        },
        {
          "internalType": "address",
          "name": "to",
          "type": "address"
        },
        {
          "internalType": "uint256",
          "name": "tokenId",
          "type": "uint256"
        }
      ],
      "name": "safeTransferFrom",
      "outputs": [],
      "stateMutability": "nonpayable",
      "type": "function"
    },
    {
      "inputs": [
        {
          "internalType": "address",
          "name": "from",
          "type": "address"
        },
        {
          "internalType": "address",
          "name": "to",
          "type": "address"
        },
        {
          "internalType": "uint256",
          "name": "tokenId",
          "type": "uint256"
        },
        {
          "internalType": "bytes",
          "name": "data",
          "type": "bytes"
        }
      ],
      "name": "safeTransferFrom",
      "outputs": [],
      "stateMutability": "nonpayable",
      "type": "function"
    },
    {
      "inputs": [
        {
          "internalType": "string",
          "name": "_key",
          "type": "string"
        },
        {
          "internalType": "string",
          "name": "_value",
          "type": "string"
        },
        {
          "internalType": "enum EmbraceCommunity.KeyValueEncryption",
          "name": "_encryption",
          "type": "uint8"
        }
      ],
      "name": "saveKeyValue",
      "outputs": [],
      "stateMutability": "nonpayable",
      "type": "function"
    },
    {
      "inputs": [
        {
          "internalType": "address",
          "name": "operator",
          "type": "address"
        },
        {
          "internalType": "bool",
          "name": "approved",
          "type": "bool"
        }
      ],
      "name": "setApprovalForAll",
      "outputs": [],
      "stateMutability": "nonpayable",
      "type": "function"
    },
    {
      "inputs": [
        {
          "internalType": "address",
          "name": "_address",
          "type": "address"
        }
      ],
      "name": "setCommunitiesContractAddress",
      "outputs": [],
      "stateMutability": "nonpayable",
      "type": "function"
    },
    {
      "inputs": [
        {
          "components": [
            {
              "internalType": "string",
              "name": "handle",
              "type": "string"
            },
            {
              "internalType": "enum Visibility",
              "name": "visibility",
              "type": "uint8"
            },
            {
              "internalType": "enum Membership",
              "name": "membership",
              "type": "uint8"
            },
            {
              "internalType": "uint128[]",
              "name": "apps",
              "type": "uint128[]"
            }
          ],
          "internalType": "struct CommunityContractData",
          "name": "_communityData",
          "type": "tuple"
        }
      ],
      "name": "setCommunityData",
      "outputs": [],
      "stateMutability": "nonpayable",
      "type": "function"
    },
    {
      "inputs": [
        {
          "internalType": "bytes4",
          "name": "interfaceId",
          "type": "bytes4"
        }
      ],
      "name": "supportsInterface",
      "outputs": [
        {
          "internalType": "bool",
          "name": "",
          "type": "bool"
        }
      ],
      "stateMutability": "view",
      "type": "function"
    },
    {
      "inputs": [],
      "name": "symbol",
      "outputs": [
        {
          "internalType": "string",
          "name": "",
          "type": "string"
        }
      ],
      "stateMutability": "view",
      "type": "function"
    },
    {
      "inputs": [
        {
          "internalType": "uint256",
          "name": "tokenId",
          "type": "uint256"
        }
      ],
      "name": "tokenURI",
      "outputs": [
        {
          "internalType": "string",
          "name": "",
          "type": "string"
        }
      ],
      "stateMutability": "view",
      "type": "function"
    },
    {
      "inputs": [],
      "name": "totalSupply",
      "outputs": [
        {
          "internalType": "uint256",
          "name": "",
          "type": "uint256"
        }
      ],
      "stateMutability": "view",
      "type": "function"
    },
    {
      "inputs": [
        {
          "internalType": "address",
          "name": "from",
          "type": "address"
        },
        {
          "internalType": "address",
          "name": "to",
          "type": "address"
        },
        {
          "internalType": "uint256",
          "name": "tokenId",
          "type": "uint256"
        }
      ],
      "name": "transferFrom",
      "outputs": [],
      "stateMutability": "nonpayable",
      "type": "function"
    }
  ],
  "bytecode": "0x608060405234801561001057600080fd5b50613965806100206000396000f3fe608060405234801561001057600080fd5b50600436106101c25760003560e01c806301ffc9a7146101c757806306fdde03146101ef578063081812fc14610204578063095ea7b314610224578063150b7a021461023957806318160ddd14610265578063239ac4161461027b57806323b872dd1461029c578063248a9ca3146102af57806328343c34146102c25780632f2ff15d146102d7578063351e2339146102ea57806336568abe146102f257806342842e0e146103055780636352211e14610318578063668bf4281461032b57806370a082311461034157806375b238fc1461035457806379e6681c1461036957806391d148541461039a578063946bcc30146103ad57806395d89b41146103b5578063967ffca9146103bd5780639a19c7b0146103d0578063a217fddf146103e3578063a22cb465146103eb578063adaf1cab146103fe578063b43bdada14610411578063b688a36314610419578063b75b238c14610421578063b88d4fde14610429578063c634b78e1461043c578063c87b56dd1461044f578063d547741f14610462578063daee9ac914610475578063e985e9c51461048a578063f542033f1461049d578063f6228cad146104b0575b600080fd5b6101da6101d5366004612780565b6104c3565b60405190151581526020015b60405180910390f35b6101f76104d4565b6040516101e691906127ed565b610217610212366004612800565b610566565b6040516101e69190612819565b610237610232366004612842565b61058d565b005b61024c610247366004612933565b6106a7565b6040516001600160e01b031990911681526020016101e6565b61026d6106b8565b6040519081526020016101e6565b61026d6102893660046129b2565b6101396020526000908152604090205481565b6102376102aa3660046129cf565b6106c9565b61026d6102bd366004612800565b6106fa565b6102ca61070f565b6040516101e69190612a10565b6102376102e5366004612a84565b6108e8565b610237610904565b610237610300366004612a84565b610a3a565b6102376103133660046129cf565b610ab4565b610217610326366004612800565b610acf565b610333610b03565b6040516101e6929190612ab4565b61026d61034f3660046129b2565b610b9c565b61026d60008051602061393983398151915281565b6102376103773660046129b2565b61013a80546001600160a01b0319166001600160a01b0392909216919091179055565b6101da6103a8366004612a84565b610c22565b610217610c4d565b6101f7610cc1565b6102376103cb366004612b15565b610cd0565b6102376103de3660046129b2565b610e16565b61026d600081565b6102376103f9366004612b9c565b610ecc565b61023761040c366004612bfc565b610ed7565b610237610f51565b610237611083565b610333611113565b610237610437366004612933565b611129565b61023761044a3660046129b2565b611161565b6101f761045d366004612800565b6111fb565b610237610470366004612a84565b611206565b61047d611222565b6040516101e69190612d65565b6101da610498366004612e02565b6113be565b6102376104ab366004612e30565b6113ec565b6102376104be366004612800565b6115e7565b60006104ce826116ed565b92915050565b6060606580546104e390612ead565b80601f016020809104026020016040519081016040528092919081815260200182805461050f90612ead565b801561055c5780601f106105315761010080835404028352916020019161055c565b820191906000526020600020905b81548152906001019060200180831161053f57829003601f168201915b5050505050905090565b600061057182611712565b506000908152606960205260409020546001600160a01b031690565b600061059882610acf565b9050806001600160a01b0316836001600160a01b03160361060a5760405162461bcd60e51b815260206004820152602160248201527f4552433732313a20617070726f76616c20746f2063757272656e74206f776e656044820152603960f91b60648201526084015b60405180910390fd5b336001600160a01b0382161480610626575061062681336113be565b6106985760405162461bcd60e51b815260206004820152603d60248201527f4552433732313a20617070726f76652063616c6c6572206973206e6f7420746f60448201527f6b656e206f776e6572206f7220617070726f76656420666f7220616c6c0000006064820152608401610601565b6106a28383611737565b505050565b630a85bd0160e11b5b949350505050565b60006106c461012d5490565b905090565b6106d333826117a5565b6106ef5760405162461bcd60e51b815260040161060190612ee7565b6106a2838383611803565b600090815260fb602052604090206001015490565b604080516002808252606082810190935260009190816020015b6040805180820190915260008152606060208201528152602001906001900390816107295790505090506101306040518060400160405290816000820154815260200160018201805461077b90612ead565b80601f01602080910402602001604051908101604052809291908181526020018280546107a790612ead565b80156107f45780601f106107c9576101008083540402835291602001916107f4565b820191906000526020600020905b8154815290600101906020018083116107d757829003601f168201915b5050505050815250508160008151811061081057610810612f34565b60200260200101819052506101326040518060400160405290816000820154815260200160018201805461084390612ead565b80601f016020809104026020016040519081016040528092919081815260200182805461086f90612ead565b80156108bc5780601f10610891576101008083540402835291602001916108bc565b820191906000526020600020905b81548152906001019060200180831161089f57829003601f168201915b505050505081525050816001815181106108d8576108d8612f34565b6020908102919091010152919050565b6108f1826106fa565b6108fa81611962565b6106a2838361196c565b3361090d610c4d565b6001600160a01b031614610936573360405163412c7d7560e01b81526004016106019190612819565b610130541561095c57604051633e0f514960e01b81526106019061013190600401612f4a565b600061012e6040516020016109719190613048565b60408051601f1981840301815261012f546060840190925260368084529093506001600160a01b0390911691633a9151b09130916109b7916138e36020830139856119f2565b6040518363ffffffff1660e01b81526004016109d492919061306b565b6020604051808303816000875af11580156109f3573d6000803e3d6000fd5b505050506040513d601f19601f82011682018060405250810190610a17919061308f565b610130819055610a28908290611a28565b61013190610a3690826130ee565b5050565b6001600160a01b0381163314610aaa5760405162461bcd60e51b815260206004820152602f60248201527f416363657373436f6e74726f6c3a2063616e206f6e6c792072656e6f756e636560448201526e103937b632b9903337b91039b2b63360891b6064820152608401610601565b610a368282611a4f565b6106a283838360405180602001604052806000815250611129565b600080610adb83611ab6565b90506001600160a01b0381166104ce5760405162461bcd60e51b8152600401610601906131ad565b61013080546101318054919291610b1990612ead565b80601f0160208091040260200160405190810160405280929190818152602001828054610b4590612ead565b8015610b925780601f10610b6757610100808354040283529160200191610b92565b820191906000526020600020905b815481529060010190602001808311610b7557829003601f168201915b5050505050905082565b60006001600160a01b038216610c065760405162461bcd60e51b815260206004820152602960248201527f4552433732313a2061646472657373207a65726f206973206e6f7420612076616044820152683634b21037bbb732b960b91b6064820152608401610601565b506001600160a01b031660009081526068602052604090205490565b600091825260fb602090815260408084206001600160a01b0393909316845291905290205460ff1690565b61013a54610135546040516331a9108f60e11b815260048101919091526000916001600160a01b031690636352211e90602401602060405180830381865afa158015610c9d573d6000803e3d6000fd5b505050506040513d601f19601f820116820180604052508101906106c491906131df565b6060606680546104e390612ead565b600080516020613939833981519152610ce881611962565b6000610cf333611ad1565b90506000610d0042611ae7565b90506000610d1e856004811115610d1957610d19612d31565b611ae7565b905060006101326001018a8a8a8a888789604051602001610d46989796959493929190613218565b604051602081830303815290604052905046617a6903610d9f57610d9660405180604001604052806014815260200173496e73657274696e67206d656d6265723a20257360601b81525082611b7a565b50505050610e0e565b61012f546101305460405163757ae82760e11b81526001600160a01b039092169163eaf5d04e91610dd7913091908690600401613314565b600060405180830381600087803b158015610df157600080fd5b505af1158015610e05573d6000803e3d6000fd5b50505050505050505b505050505050565b33610e1f610c4d565b6001600160a01b031614610e48573360405163412c7d7560e01b81526004016106019190612819565b33600090815261013960205260408120549003610e7a573360405163129822cd60e31b81526004016106019190612819565b610e9260008051602061393983398151915233610c22565b610eb15733604051631de7241f60e31b81526004016106019190612819565b610ec960008051602061393983398151915282611206565b50565b610a36338383611bbf565b805161013690610ee790826130ee565b506020810151610137805460ff191660018381811115610f0957610f09612d31565b02179055506040810151610137805461ff001916610100836001811115610f3257610f32612d31565b021790555060608101518051610a36916101389160209091019061269d565b33610f5a610c4d565b6001600160a01b031614610f83573360405163412c7d7560e01b81526004016106019190612819565b6101325415610fa957604051633e0f514960e01b81526106019061013390600401612f4a565b600061012e604051602001610fbe9190613344565b60408051601f1981840301815261012f5460808401909252604e8084529093506001600160a01b0390911691633a9151b0913091611004916138956020830139856119f2565b6040518363ffffffff1660e01b815260040161102192919061306b565b6020604051808303816000875af1158015611040573d6000803e3d6000fd5b505050506040513d601f19601f82011682018060405250810190611064919061308f565b610132819055611075908290611a28565b61013390610a3690826130ee565b33600090815261013960205260409020541515806110b05750336110a5610c4d565b6001600160a01b0316145b156110d05733604051630548cc1b60e01b81526004016106019190612819565b6110df61012d80546001019055565b60006110eb61012d5490565b90506110f73382611c89565b611100816115e7565b3360009081526101396020526040902055565b61013280546101338054919291610b1990612ead565b61113333836117a5565b61114f5760405162461bcd60e51b815260040161060190612ee7565b61115b84848484611d92565b50505050565b60008051602061393983398151915261117981611962565b336000908152610139602052604081205490036111ab573360405163129822cd60e31b81526004016106019190612819565b6111c360008051602061393983398151915233610c22565b156111e35733604051633444055760e01b81526004016106019190612819565b610a36600080516020613939833981519152836108e8565b60606104ce82611dc5565b61120f826106fa565b61121881611962565b6106a28383611a4f565b61124e604080516080810190915260608152602081016000815260200160008152602001606081525090565b6040518060800160405280610136805461126790612ead565b80601f016020809104026020016040519081016040528092919081815260200182805461129390612ead565b80156112e05780601f106112b5576101008083540402835291602001916112e0565b820191906000526020600020905b8154815290600101906020018083116112c357829003601f168201915b50505091835250506101375460209091019060ff16600181111561130657611306612d31565b815260200161013760019054906101000a900460ff16600181111561132d5761132d612d31565b81526020016101388054806020026020016040519081016040528092919081815260200182805480156113b157602002820191906000526020600020906000905b82829054906101000a90046001600160801b03166001600160801b031681526020019060100190602082600f0104928301926001038202915080841161136e5790505b5050505050815250905090565b6001600160a01b039182166000908152606a6020908152604080832093909416825291909152205460ff1690565b600054610100900460ff161580801561140c5750600054600160ff909116105b8061142d575061141b30611ec0565b15801561142d575060005460ff166001145b6114905760405162461bcd60e51b815260206004820152602e60248201527f496e697469616c697a61626c653a20636f6e747261637420697320616c72656160448201526d191e481a5b9a5d1a585b1a5e995960921b6064820152608401610601565b6000805460ff1916600117905580156114b3576000805461ff0019166101001790555b6114be60003061196c565b6114d66000805160206139398339815191523361196c565b6114e08585611ecf565b61013582905561012f80546001600160a01b0319166001600160a01b03851617905561150b82611ae7565b60405160200161151b919061336a565b60405160208183030381529060405261012e908161153991906130ee565b50611542610904565b60405160009061155890610131906020016133a4565b60405160208183030381529060405290506115918160405160200161157d91906133e5565b604051602081830303815290604052611f00565b611599610f51565b5080156115e0576000805461ff0019169055604051600181527f7f26b83ff96e1f2b6a682f133852f6798a09c465da95921460cefb38474024989060200160405180910390a15b5050505050565b60006115f282611ae7565b905060006115ff33611ad1565b9050600061160c42611ae7565b9050600061013060010184848460405160200161162c949392919061344a565b604051602081830303815290604052905046617a690361167c576115e060405180604001604052806014815260200173496e73657274696e67206d656d6265723a20257360601b81525082611b7a565b61012f546101305460405163757ae82760e11b81526001600160a01b039092169163eaf5d04e916116b4913091908690600401613314565b600060405180830381600087803b1580156116ce57600080fd5b505af11580156116e2573d6000803e3d6000fd5b505050505050505050565b60006001600160e01b03198216637965db0b60e01b14806104ce57506104ce82611f0d565b61171b81611f5d565b610ec95760405162461bcd60e51b8152600401610601906131ad565b600081815260696020526040902080546001600160a01b0319166001600160a01b038416908117909155819061176c82610acf565b6001600160a01b03167f8c5be1e5ebec7d5bd14f71427d1e84f3dd0314c0f7b2291e5b200ac8c7c3b92560405160405180910390a45050565b6000806117b183610acf565b9050806001600160a01b0316846001600160a01b031614806117d857506117d881856113be565b806106b05750836001600160a01b03166117f184610566565b6001600160a01b031614949350505050565b826001600160a01b031661181682610acf565b6001600160a01b03161461183c5760405162461bcd60e51b815260040161060190613515565b6001600160a01b03821661189e5760405162461bcd60e51b8152602060048201526024808201527f4552433732313a207472616e7366657220746f20746865207a65726f206164646044820152637265737360e01b6064820152608401610601565b6118ab8383836001611f7a565b826001600160a01b03166118be82610acf565b6001600160a01b0316146118e45760405162461bcd60e51b815260040161060190613515565b600081815260696020908152604080832080546001600160a01b03199081169091556001600160a01b03878116808652606885528386208054600019019055908716808652838620805460010190558686526067909452828520805490921684179091559051849360008051602061391983398151915291a4505050565b610ec98133612002565b6119768282610c22565b610a3657600082815260fb602090815260408083206001600160a01b03851684529091529020805460ff191660011790556119ae3390565b6001600160a01b0316816001600160a01b0316837f2f8788117e7eff1d82e926ec794901d17c78024a50270940304540a733656f0d60405160405180910390a45050565b6060816119fe46611ae7565b84604051602001611a119392919061355a565b604051602081830303815290604052905092915050565b606082611a3446611ae7565b611a3d84611ae7565b604051602001611a11939291906135e0565b611a598282610c22565b15610a3657600082815260fb602090815260408083206001600160a01b0385168085529252808320805460ff1916905551339285917ff6391f5c32d9c69d2a47ea670b442974b53935d1edc7fd64eb21e047a839171b9190a45050565b6000908152606760205260409020546001600160a01b031690565b60606104ce6001600160a01b038316601461205b565b60606000611af4836121fd565b60010190506000816001600160401b03811115611b1357611b1361286e565b6040519080825280601f01601f191660200182016040528015611b3d576020820181803683370190505b5090508181016020015b600019016f181899199a1a9b1b9c1cb0b131b232b360811b600a86061a8153600a8504945084611b47575b509392505050565b610a368282604051602401611b9092919061363a565b60408051601f198184030181529190526020810180516001600160e01b0316634b5c427760e01b1790526122d3565b816001600160a01b0316836001600160a01b031603611c1c5760405162461bcd60e51b815260206004820152601960248201527822a9219b99189d1030b8383937bb32903a379031b0b63632b960391b6044820152606401610601565b6001600160a01b038381166000818152606a6020908152604080832094871680845294825291829020805460ff191686151590811790915591519182527f17307eab39ab6107e8899845ad3d59bd9653f200f220920489ca2b5937696c31910160405180910390a3505050565b6001600160a01b038216611cdf5760405162461bcd60e51b815260206004820181905260248201527f4552433732313a206d696e7420746f20746865207a65726f20616464726573736044820152606401610601565b611ce881611f5d565b15611d055760405162461bcd60e51b81526004016106019061365f565b611d13600083836001611f7a565b611d1c81611f5d565b15611d395760405162461bcd60e51b81526004016106019061365f565b6001600160a01b038216600081815260686020908152604080832080546001019055848352606790915280822080546001600160a01b031916841790555183929190600080516020613919833981519152908290a45050565b611d9d848484611803565b611da9848484846122f4565b61115b5760405162461bcd60e51b815260040161060190613695565b6060611dd082611712565b60008281526097602052604081208054611de990612ead565b80601f0160208091040260200160405190810160405280929190818152602001828054611e1590612ead565b8015611e625780601f10611e3757610100808354040283529160200191611e62565b820191906000526020600020905b815481529060010190602001808311611e4557829003601f168201915b505050505090506000611e736123f9565b90508051600003611e85575092915050565b815115611eb7578082604051602001611e9f9291906136e7565b60405160208183030381529060405292505050919050565b6106b084612409565b6001600160a01b03163b151590565b600054610100900460ff16611ef65760405162461bcd60e51b815260040161060190613716565b610a36828261246f565b610134610a3682826130ee565b60006001600160e01b031982166380ac58cd60e01b1480611f3e57506001600160e01b03198216635b5e139f60e01b145b806104ce57506301ffc9a760e01b6001600160e01b03198316146104ce565b600080611f6983611ab6565b6001600160a01b0316141592915050565b600181111561115b576001600160a01b03841615611fc0576001600160a01b03841660009081526068602052604081208054839290611fba908490613777565b90915550505b6001600160a01b0383161561115b576001600160a01b03831660009081526068602052604081208054839290611ff790849061378a565b909155505050505050565b61200c8282610c22565b610a3657612019816124af565b6120248360206124c1565b60405160200161203592919061379d565b60408051601f198184030181529082905262461bcd60e51b8252610601916004016127ed565b6060600061206a83600261380c565b61207590600261378a565b6001600160401b0381111561208c5761208c61286e565b6040519080825280601f01601f1916602001820160405280156120b6576020820181803683370190505b509050600360fc1b816000815181106120d1576120d1612f34565b60200101906001600160f81b031916908160001a905350600f60fb1b8160018151811061210057612100612f34565b60200101906001600160f81b031916908160001a905350600061212484600261380c565b61212f90600161378a565b90505b60018111156121a7576f181899199a1a9b1b9c1cb0b131b232b360811b85600f166010811061216357612163612f34565b1a60f81b82828151811061217957612179612f34565b60200101906001600160f81b031916908160001a90535060049490941c936121a081613823565b9050612132565b5083156121f65760405162461bcd60e51b815260206004820181905260248201527f537472696e67733a20686578206c656e67746820696e73756666696369656e746044820152606401610601565b9392505050565b60008072184f03e93ff9f4daa797ed6e38ed64bf6a1f0160401b831061223c5772184f03e93ff9f4daa797ed6e38ed64bf6a1f0160401b830492506040015b6904ee2d6d415b85acef8160201b8310612266576904ee2d6d415b85acef8160201b830492506020015b662386f26fc10000831061228457662386f26fc10000830492506010015b6305f5e100831061229c576305f5e100830492506008015b61271083106122b057612710830492506004015b606483106122c2576064830492506002015b600a83106104ce5760010192915050565b80516a636f6e736f6c652e6c6f67602083016000808483855afa5050505050565b6000612308846001600160a01b0316611ec0565b156123f157604051630a85bd0160e11b81526001600160a01b0385169063150b7a029061233f90339089908890889060040161383a565b6020604051808303816000875af192505050801561237a575060408051601f3d908101601f1916820190925261237791810190613877565b60015b6123d7573d8080156123a8576040519150601f19603f3d011682016040523d82523d6000602084013e6123ad565b606091505b5080516000036123cf5760405162461bcd60e51b815260040161060190613695565b805181602001fd5b6001600160e01b031916630a85bd0160e11b1490506106b0565b5060016106b0565b606061013480546104e390612ead565b606061241482611712565b600061241e6123f9565b9050600081511161243e57604051806020016040528060008152506121f6565b806124488461260d565b6040516020016124599291906136e7565b6040516020818303038152906040529392505050565b600054610100900460ff166124965760405162461bcd60e51b815260040161060190613716565b60656124a283826130ee565b5060666106a282826130ee565b60606104ce6001600160a01b03831660145b606060006124d083600261380c565b6124db90600261378a565b6001600160401b038111156124f2576124f261286e565b6040519080825280601f01601f19166020018201604052801561251c576020820181803683370190505b509050600360fc1b8160008151811061253757612537612f34565b60200101906001600160f81b031916908160001a905350600f60fb1b8160018151811061256657612566612f34565b60200101906001600160f81b031916908160001a905350600061258a84600261380c565b61259590600161378a565b90505b60018111156121a7576f181899199a1a9b1b9c1cb0b131b232b360811b85600f16601081106125c9576125c9612f34565b1a60f81b8282815181106125df576125df612f34565b60200101906001600160f81b031916908160001a90535060049490941c9361260681613823565b9050612598565b6060600061261a836121fd565b60010190506000816001600160401b038111156126395761263961286e565b6040519080825280601f01601f191660200182016040528015612663576020820181803683370190505b5090508181016020015b600019016f181899199a1a9b1b9c1cb0b131b232b360811b600a86061a8153600a850494508415611b725761266d565b828054828255906000526020600020906001016002900481019282156127455791602002820160005b8382111561271057835183826101000a8154816001600160801b0302191690836001600160801b031602179055509260200192601001602081600f010492830192600103026126c6565b80156127435782816101000a8154906001600160801b030219169055601001602081600f01049283019260010302612710565b505b50612751929150612755565b5090565b5b808211156127515760008155600101612756565b6001600160e01b031981168114610ec957600080fd5b60006020828403121561279257600080fd5b81356121f68161276a565b60005b838110156127b85781810151838201526020016127a0565b50506000910152565b600081518084526127d981602086016020860161279d565b601f01601f19169290920160200192915050565b6020815260006121f660208301846127c1565b60006020828403121561281257600080fd5b5035919050565b6001600160a01b0391909116815260200190565b6001600160a01b0381168114610ec957600080fd5b6000806040838503121561285557600080fd5b82356128608161282d565b946020939093013593505050565b634e487b7160e01b600052604160045260246000fd5b604051608081016001600160401b03811182821017156128a6576128a661286e565b60405290565b604051601f8201601f191681016001600160401b03811182821017156128d4576128d461286e565b604052919050565b60006001600160401b038311156128f5576128f561286e565b612908601f8401601f19166020016128ac565b905082815283838301111561291c57600080fd5b828260208301376000602084830101529392505050565b6000806000806080858703121561294957600080fd5b84356129548161282d565b935060208501356129648161282d565b92506040850135915060608501356001600160401b0381111561298657600080fd5b8501601f8101871361299757600080fd5b6129a6878235602084016128dc565b91505092959194509250565b6000602082840312156129c457600080fd5b81356121f68161282d565b6000806000606084860312156129e457600080fd5b83356129ef8161282d565b925060208401356129ff8161282d565b929592945050506040919091013590565b60006020808301818452808551808352604092508286019150828160051b87010184880160005b83811015612a7657888303603f19018552815180518452870151878401879052612a63878501826127c1565b9588019593505090860190600101612a37565b509098975050505050505050565b60008060408385031215612a9757600080fd5b823591506020830135612aa98161282d565b809150509250929050565b8281526040602082015260006106b060408301846127c1565b60008083601f840112612adf57600080fd5b5081356001600160401b03811115612af657600080fd5b602083019150836020828501011115612b0e57600080fd5b9250929050565b600080600080600060608688031215612b2d57600080fd5b85356001600160401b0380821115612b4457600080fd5b612b5089838a01612acd565b90975095506020880135915080821115612b6957600080fd5b50612b7688828901612acd565b909450925050604086013560058110612b8e57600080fd5b809150509295509295909350565b60008060408385031215612baf57600080fd5b8235612bba8161282d565b915060208301358015158114612aa957600080fd5b600082601f830112612be057600080fd5b6121f6838335602085016128dc565b60028110610ec957600080fd5b60006020808385031215612c0f57600080fd5b82356001600160401b0380821115612c2657600080fd5b9084019060808287031215612c3a57600080fd5b612c42612884565b823582811115612c5157600080fd5b612c5d88828601612bcf565b82525083830135612c6d81612bef565b818501526040830135612c7f81612bef565b6040820152606083013582811115612c9657600080fd5b80840193505086601f840112612cab57600080fd5b823582811115612cbd57612cbd61286e565b8060051b9250612cce8584016128ac565b8181529284018501928581019089851115612ce857600080fd5b948601945b84861015612d1f57853592506001600160801b0383168314612d0f5760008081fd5b8282529486019490860190612ced565b60608401525090979650505050505050565b634e487b7160e01b600052602160045260246000fd5b60028110610ec957634e487b7160e01b600052602160045260246000fd5b600060208083528351608082850152612d8160a08501826127c1565b905081850151612d9081612d47565b806040860152506040850151612da581612d47565b606085810191909152850151848203601f19016080860152805180835290830191600091908401905b80831015612df75783516001600160801b03168252928401926001929092019190840190612dce565b509695505050505050565b60008060408385031215612e1557600080fd5b8235612e208161282d565b91506020830135612aa98161282d565b60008060008060808587031215612e4657600080fd5b84356001600160401b0380821115612e5d57600080fd5b612e6988838901612bcf565b95506020870135915080821115612e7f57600080fd5b50612e8c87828801612bcf565b9350506040850135612e9d8161282d565b9396929550929360600135925050565b600181811c90821680612ec157607f821691505b602082108103612ee157634e487b7160e01b600052602260045260246000fd5b50919050565b6020808252602d908201527f4552433732313a2063616c6c6572206973206e6f7420746f6b656e206f776e6560408201526c1c881bdc88185c1c1c9bdd9959609a1b606082015260800190565b634e487b7160e01b600052603260045260246000fd5b6000602080835260008454612f5e81612ead565b80848701526040600180841660008114612f7f5760018114612f9957612fc7565b60ff1985168984015283151560051b890183019550612fc7565b896000528660002060005b85811015612fbf5781548b8201860152908301908801612fa4565b8a0184019650505b509398975050505050505050565b60008154612fe281612ead565b60018281168015612ffa576001811461300f5761303e565b60ff198416875282151583028701945061303e565b8560005260208060002060005b858110156130355781548a82015290840190820161301c565b50505082870194505b5050505092915050565b60006130548284612fd5565b662fb6b2b6b132b960c91b81526007019392505050565b6001600160a01b03831681526040602082018190526000906106b0908301846127c1565b6000602082840312156130a157600080fd5b5051919050565b601f8211156106a257600081815260208120601f850160051c810160208610156130cf5750805b601f850160051c820191505b81811015610e0e578281556001016130db565b81516001600160401b038111156131075761310761286e565b61311b816131158454612ead565b846130a8565b602080601f83116001811461315057600084156131385750858301515b600019600386901b1c1916600185901b178555610e0e565b600085815260208120601f198616915b8281101561317f57888601518255948401946001909101908401613160565b508582101561319d5787850151600019600388901b60f8161c191681555b5050505050600190811b01905550565b602080825260189082015277115490cdcc8c4e881a5b9d985b1a59081d1bdad95b88125160421b604082015260600190565b6000602082840312156131f157600080fd5b81516121f68161282d565b6000815161320e81856020860161279d565b9290920192915050565b6b024a729a2a92a1024a72a27960a51b81526000613239600c83018b612fd5565b7f20286b2c20762c206163636f756e742c2064617465437265617465642c20656e8152726372797074696f6e292056414c55455320282760681b6020820152888a6033830137888101905063272c202760e01b8060338301528789603784013760379188019182015285516132b581603b840160208a0161279d565b6201396160ed1b603b929091019182015284516132d981603e84016020890161279d565b016132ec603e8201622c202760e81b9052565b6132f960418201856131fc565b6227293b60e81b81526003019b9a5050505050505050505050565b60018060a01b038416815282602082015260606040820152600061333b60608301846127c1565b95945050505050565b60006133508284612fd5565b695f6b65795f76616c756560b01b8152600a019392505050565b71656d62726163655f636f6d6d756e6974795f60701b81526000825161339781601285016020870161279d565b9190910160120192915050565b6d53454c4543542b2a2b46524f4d2b60901b815260006133c7600e830184612fd5565b6d2b57484552452b69642b2533442b60901b8152600e019392505050565b7f68747470733a2f2f746573746e6574732e7461626c656c616e642e6e6574776f815276726b2f71756572793f756e777261703d7472756526733d60481b60208201526000825161343d81603785016020870161279d565b9190910160370192915050565b6b024a729a2a92a1024a72a27960a51b8152600061346b600c830187612fd5565b7f202869642c206163636f756e742c206461746543726561746564292056414c5581526308aa640560e31b602082015285516134ae816024840160208a0161279d565b622c202760e81b6024929091019182015284516134d281602784016020890161279d565b63272c202760e01b6027929091019182015283516134f781602b84016020880161279d565b6227293b60e81b602b9290910191820152602e019695505050505050565b60208082526025908201527f4552433732313a207472616e736665722066726f6d20696e636f72726563742060408201526437bbb732b960d91b606082015260800190565b6c021a922a0aa22902a20a126229609d1b81526000845161358281600d85016020890161279d565b605f60f81b600d9184019182015284516135a381600e84016020890161279d565b600560fb1b600e929091019182015283516135c581600f84016020880161279d565b602960f81b600f929091019182015260100195945050505050565b600084516135f281846020890161279d565b8083019050605f60f81b8082528551613612816001850160208a0161279d565b6001920191820152835161362d81600284016020880161279d565b0160020195945050505050565b60408152600061364d60408301856127c1565b828103602084015261333b81856127c1565b6020808252601c908201527b115490cdcc8c4e881d1bdad95b88185b1c9958591e481b5a5b9d195960221b604082015260600190565b60208082526032908201527f4552433732313a207472616e7366657220746f206e6f6e20455243373231526560408201527131b2b4bb32b91034b6b83632b6b2b73a32b960711b606082015260800190565b600083516136f981846020880161279d565b83519083019061370d81836020880161279d565b01949350505050565b6020808252602b908201527f496e697469616c697a61626c653a20636f6e7472616374206973206e6f74206960408201526a6e697469616c697a696e6760a81b606082015260800190565b634e487b7160e01b600052601160045260246000fd5b818103818111156104ce576104ce613761565b808201808211156104ce576104ce613761565b76020b1b1b2b9b9a1b7b73a3937b61d1030b1b1b7bab73a1604d1b8152600083516137cf81601785016020880161279d565b7001034b99036b4b9b9b4b733903937b6329607d1b601791840191820152835161380081602884016020880161279d565b01602801949350505050565b80820281158282048414176104ce576104ce613761565b60008161383257613832613761565b506000190190565b6001600160a01b038581168252841660208201526040810183905260806060820181905260009061386d908301846127c1565b9695505050505050565b60006020828403121561388957600080fd5b81516121f68161276a56fe6b2054455854205052494d415259204b45592c207620544558542c206163636f756e7420544558542c20656e6372797074696f6e20494e54454745522c2064617465437265617465642054455854696420494e5445474552205052494d415259204b45592c206163636f756e7420544558542c2064617465437265617465642054455854ddf252ad1be2c89b69c2b068fc378daa952ba7f163c4a11628f55a4df523b3efa49807205ce4d355092ef5a8a18f56e8913cf4a201fbe287825b095693c21775a164736f6c6343000811000a",
  "linkReferences": {},
  "deployedLinkReferences": {}
}