{
  "_format": "hh-sol-artifact-1",
  "contractName": "EmbraceCommunity",
  "sourceName": "contracts/EmbraceCommunity.sol",
  "abi": [
    {
      "inputs": [
        {
          "internalType": "string",
          "name": "_name",
          "type": "string"
        },
        {
          "internalType": "string",
          "name": "_symbol",
          "type": "string"
        },
        {
          "internalType": "address",
          "name": "_embraceCommunitiesContract",
          "type": "address"
        },
        {
          "internalType": "uint256",
          "name": "_communityId",
          "type": "uint256"
        }
      ],
      "stateMutability": "nonpayable",
      "type": "constructor"
    },
    {
      "anonymous": false,
      "inputs": [
        {
          "indexed": true,
          "internalType": "address",
          "name": "owner",
          "type": "address"
        },
        {
          "indexed": true,
          "internalType": "address",
          "name": "approved",
          "type": "address"
        },
        {
          "indexed": true,
          "internalType": "uint256",
          "name": "tokenId",
          "type": "uint256"
        }
      ],
      "name": "Approval",
      "type": "event"
    },
    {
      "anonymous": false,
      "inputs": [
        {
          "indexed": true,
          "internalType": "address",
          "name": "owner",
          "type": "address"
        },
        {
          "indexed": true,
          "internalType": "address",
          "name": "operator",
          "type": "address"
        },
        {
          "indexed": false,
          "internalType": "bool",
          "name": "approved",
          "type": "bool"
        }
      ],
      "name": "ApprovalForAll",
      "type": "event"
    },
    {
      "anonymous": false,
      "inputs": [
        {
          "indexed": true,
          "internalType": "bytes32",
          "name": "role",
          "type": "bytes32"
        },
        {
          "indexed": true,
          "internalType": "bytes32",
          "name": "previousAdminRole",
          "type": "bytes32"
        },
        {
          "indexed": true,
          "internalType": "bytes32",
          "name": "newAdminRole",
          "type": "bytes32"
        }
      ],
      "name": "RoleAdminChanged",
      "type": "event"
    },
    {
      "anonymous": false,
      "inputs": [
        {
          "indexed": true,
          "internalType": "bytes32",
          "name": "role",
          "type": "bytes32"
        },
        {
          "indexed": true,
          "internalType": "address",
          "name": "account",
          "type": "address"
        },
        {
          "indexed": true,
          "internalType": "address",
          "name": "sender",
          "type": "address"
        }
      ],
      "name": "RoleGranted",
      "type": "event"
    },
    {
      "anonymous": false,
      "inputs": [
        {
          "indexed": true,
          "internalType": "bytes32",
          "name": "role",
          "type": "bytes32"
        },
        {
          "indexed": true,
          "internalType": "address",
          "name": "account",
          "type": "address"
        },
        {
          "indexed": true,
          "internalType": "address",
          "name": "sender",
          "type": "address"
        }
      ],
      "name": "RoleRevoked",
      "type": "event"
    },
    {
      "anonymous": false,
      "inputs": [
        {
          "indexed": true,
          "internalType": "address",
          "name": "from",
          "type": "address"
        },
        {
          "indexed": true,
          "internalType": "address",
          "name": "to",
          "type": "address"
        },
        {
          "indexed": true,
          "internalType": "uint256",
          "name": "tokenId",
          "type": "uint256"
        }
      ],
      "name": "Transfer",
      "type": "event"
    },
    {
      "inputs": [],
      "name": "DEFAULT_ADMIN_ROLE",
      "outputs": [
        {
          "internalType": "bytes32",
          "name": "",
          "type": "bytes32"
        }
      ],
      "stateMutability": "view",
      "type": "function"
    },
    {
      "inputs": [
        {
          "internalType": "address",
          "name": "to",
          "type": "address"
        },
        {
          "internalType": "uint256",
          "name": "tokenId",
          "type": "uint256"
        }
      ],
      "name": "approve",
      "outputs": [],
      "stateMutability": "nonpayable",
      "type": "function"
    },
    {
      "inputs": [
        {
          "internalType": "uint256",
          "name": "",
          "type": "uint256"
        }
      ],
      "name": "apps",
      "outputs": [
        {
          "internalType": "uint128",
          "name": "",
          "type": "uint128"
        }
      ],
      "stateMutability": "view",
      "type": "function"
    },
    {
      "inputs": [
        {
          "internalType": "address",
          "name": "owner",
          "type": "address"
        }
      ],
      "name": "balanceOf",
      "outputs": [
        {
          "internalType": "uint256",
          "name": "",
          "type": "uint256"
        }
      ],
      "stateMutability": "view",
      "type": "function"
    },
    {
      "inputs": [],
      "name": "communityId",
      "outputs": [
        {
          "internalType": "uint256",
          "name": "",
          "type": "uint256"
        }
      ],
      "stateMutability": "view",
      "type": "function"
    },
    {
      "inputs": [],
      "name": "getAllMembers",
      "outputs": [
        {
          "internalType": "uint256[]",
          "name": "",
          "type": "uint256[]"
        }
      ],
      "stateMutability": "view",
      "type": "function"
    },
    {
      "inputs": [],
      "name": "getAllMembersData",
      "outputs": [
        {
          "components": [
            {
              "internalType": "uint256",
              "name": "tokenId",
              "type": "uint256"
            },
            {
              "internalType": "string",
              "name": "tokenURI",
              "type": "string"
            },
            {
              "internalType": "address",
              "name": "member",
              "type": "address"
            }
          ],
          "internalType": "struct EmbraceCommunity.TokenData[]",
          "name": "",
          "type": "tuple[]"
        }
      ],
      "stateMutability": "view",
      "type": "function"
    },
    {
      "inputs": [
        {
          "internalType": "uint256",
          "name": "tokenId",
          "type": "uint256"
        }
      ],
      "name": "getApproved",
      "outputs": [
        {
          "internalType": "address",
          "name": "",
          "type": "address"
        }
      ],
      "stateMutability": "view",
      "type": "function"
    },
    {
      "inputs": [],
      "name": "getCommunityData",
      "outputs": [
        {
          "components": [
            {
              "internalType": "string",
              "name": "handle",
              "type": "string"
            },
            {
              "internalType": "enum Visibility",
              "name": "visibility",
              "type": "uint8"
            },
            {
              "internalType": "enum Membership",
              "name": "membership",
              "type": "uint8"
            },
            {
              "internalType": "uint128[]",
              "name": "apps",
              "type": "uint128[]"
            }
          ],
          "internalType": "struct CommunityContractData",
          "name": "",
          "type": "tuple"
        }
      ],
      "stateMutability": "view",
      "type": "function"
    },
    {
      "inputs": [
        {
          "internalType": "bytes32",
          "name": "role",
          "type": "bytes32"
        }
      ],
      "name": "getRoleAdmin",
      "outputs": [
        {
          "internalType": "bytes32",
          "name": "",
          "type": "bytes32"
        }
      ],
      "stateMutability": "view",
      "type": "function"
    },
    {
      "inputs": [
        {
          "internalType": "bytes32",
          "name": "role",
          "type": "bytes32"
        },
        {
          "internalType": "address",
          "name": "account",
          "type": "address"
        }
      ],
      "name": "grantRole",
      "outputs": [],
      "stateMutability": "nonpayable",
      "type": "function"
    },
    {
      "inputs": [],
      "name": "handle",
      "outputs": [
        {
          "internalType": "string",
          "name": "",
          "type": "string"
        }
      ],
      "stateMutability": "view",
      "type": "function"
    },
    {
      "inputs": [
        {
          "internalType": "bytes32",
          "name": "role",
          "type": "bytes32"
        },
        {
          "internalType": "address",
          "name": "account",
          "type": "address"
        }
      ],
      "name": "hasRole",
      "outputs": [
        {
          "internalType": "bool",
          "name": "",
          "type": "bool"
        }
      ],
      "stateMutability": "view",
      "type": "function"
    },
    {
      "inputs": [
        {
          "internalType": "address",
          "name": "owner",
          "type": "address"
        },
        {
          "internalType": "address",
          "name": "operator",
          "type": "address"
        }
      ],
      "name": "isApprovedForAll",
      "outputs": [
        {
          "internalType": "bool",
          "name": "",
          "type": "bool"
        }
      ],
      "stateMutability": "view",
      "type": "function"
    },
    {
      "inputs": [],
      "name": "membership",
      "outputs": [
        {
          "internalType": "enum Membership",
          "name": "",
          "type": "uint8"
        }
      ],
      "stateMutability": "view",
      "type": "function"
    },
    {
      "inputs": [],
      "name": "mint",
      "outputs": [],
      "stateMutability": "nonpayable",
      "type": "function"
    },
    {
      "inputs": [],
      "name": "name",
      "outputs": [
        {
          "internalType": "string",
          "name": "",
          "type": "string"
        }
      ],
      "stateMutability": "view",
      "type": "function"
    },
    {
      "inputs": [
        {
          "internalType": "uint256",
          "name": "tokenId",
          "type": "uint256"
        }
      ],
      "name": "ownerOf",
      "outputs": [
        {
          "internalType": "address",
          "name": "",
          "type": "address"
        }
      ],
      "stateMutability": "view",
      "type": "function"
    },
    {
      "inputs": [
        {
          "internalType": "bytes32",
          "name": "role",
          "type": "bytes32"
        },
        {
          "internalType": "address",
          "name": "account",
          "type": "address"
        }
      ],
      "name": "renounceRole",
      "outputs": [],
      "stateMutability": "nonpayable",
      "type": "function"
    },
    {
      "inputs": [
        {
          "internalType": "bytes32",
          "name": "role",
          "type": "bytes32"
        },
        {
          "internalType": "address",
          "name": "account",
          "type": "address"
        }
      ],
      "name": "revokeRole",
      "outputs": [],
      "stateMutability": "nonpayable",
      "type": "function"
    },
    {
      "inputs": [
        {
          "internalType": "address",
          "name": "from",
          "type": "address"
        },
        {
          "internalType": "address",
          "name": "to",
          "type": "address"
        },
        {
          "internalType": "uint256",
          "name": "tokenId",
          "type": "uint256"
        }
      ],
      "name": "safeTransferFrom",
      "outputs": [],
      "stateMutability": "nonpayable",
      "type": "function"
    },
    {
      "inputs": [
        {
          "internalType": "address",
          "name": "from",
          "type": "address"
        },
        {
          "internalType": "address",
          "name": "to",
          "type": "address"
        },
        {
          "internalType": "uint256",
          "name": "tokenId",
          "type": "uint256"
        },
        {
          "internalType": "bytes",
          "name": "data",
          "type": "bytes"
        }
      ],
      "name": "safeTransferFrom",
      "outputs": [],
      "stateMutability": "nonpayable",
      "type": "function"
    },
    {
      "inputs": [
        {
          "internalType": "address",
          "name": "operator",
          "type": "address"
        },
        {
          "internalType": "bool",
          "name": "approved",
          "type": "bool"
        }
      ],
      "name": "setApprovalForAll",
      "outputs": [],
      "stateMutability": "nonpayable",
      "type": "function"
    },
    {
      "inputs": [
        {
          "components": [
            {
              "internalType": "string",
              "name": "handle",
              "type": "string"
            },
            {
              "internalType": "enum Visibility",
              "name": "visibility",
              "type": "uint8"
            },
            {
              "internalType": "enum Membership",
              "name": "membership",
              "type": "uint8"
            },
            {
              "internalType": "uint128[]",
              "name": "apps",
              "type": "uint128[]"
            }
          ],
          "internalType": "struct CommunityContractData",
          "name": "_communityData",
          "type": "tuple"
        }
      ],
      "name": "setCommunityData",
      "outputs": [],
      "stateMutability": "nonpayable",
      "type": "function"
    },
    {
      "inputs": [
        {
          "internalType": "bytes4",
          "name": "interfaceId",
          "type": "bytes4"
        }
      ],
      "name": "supportsInterface",
      "outputs": [
        {
          "internalType": "bool",
          "name": "",
          "type": "bool"
        }
      ],
      "stateMutability": "view",
      "type": "function"
    },
    {
      "inputs": [],
      "name": "symbol",
      "outputs": [
        {
          "internalType": "string",
          "name": "",
          "type": "string"
        }
      ],
      "stateMutability": "view",
      "type": "function"
    },
    {
      "inputs": [
        {
          "internalType": "uint256",
          "name": "index",
          "type": "uint256"
        }
      ],
      "name": "tokenByIndex",
      "outputs": [
        {
          "internalType": "uint256",
          "name": "",
          "type": "uint256"
        }
      ],
      "stateMutability": "view",
      "type": "function"
    },
    {
      "inputs": [
        {
          "internalType": "address",
          "name": "owner",
          "type": "address"
        },
        {
          "internalType": "uint256",
          "name": "index",
          "type": "uint256"
        }
      ],
      "name": "tokenOfOwnerByIndex",
      "outputs": [
        {
          "internalType": "uint256",
          "name": "",
          "type": "uint256"
        }
      ],
      "stateMutability": "view",
      "type": "function"
    },
    {
      "inputs": [
        {
          "internalType": "uint256",
          "name": "tokenId",
          "type": "uint256"
        }
      ],
      "name": "tokenURI",
      "outputs": [
        {
          "internalType": "string",
          "name": "",
          "type": "string"
        }
      ],
      "stateMutability": "view",
      "type": "function"
    },
    {
      "inputs": [],
      "name": "totalSupply",
      "outputs": [
        {
          "internalType": "uint256",
          "name": "",
          "type": "uint256"
        }
      ],
      "stateMutability": "view",
      "type": "function"
    },
    {
      "inputs": [
        {
          "internalType": "address",
          "name": "from",
          "type": "address"
        },
        {
          "internalType": "address",
          "name": "to",
          "type": "address"
        },
        {
          "internalType": "uint256",
          "name": "tokenId",
          "type": "uint256"
        }
      ],
      "name": "transferFrom",
      "outputs": [],
      "stateMutability": "nonpayable",
      "type": "function"
    },
    {
      "inputs": [],
      "name": "visibility",
      "outputs": [
        {
          "internalType": "enum Visibility",
          "name": "",
          "type": "uint8"
        }
      ],
      "stateMutability": "view",
      "type": "function"
    }
  ],
  "bytecode": "0x60406080815234620004125762002ae5803803806200001e8162000417565b9283398101608082820312620004125781516001600160401b039290838111620004125782620000509183016200043d565b92602092838301519082821162000412576200006e9184016200043d565b8286015190936001600160a01b03821693909184900362000412576060015193855192808411620003fc576000918254946001988987811c97168015620003f1575b86881014620002fb578190601f978881116200039e575b5086908883116001146200033a5786926200032e575b5050600019600383901b1c191690891b1783555b8051908282116200031a5788548981811c911680156200030f575b86821014620002fb57908187849311620002a8575b5085908783116001146200024457859262000238575b5050600019600383901b1c191690881b1787555b875190818901908111828210176200022457908391895260078152019266697066733a2f2f60c81b8452600d54928784811c9416801562000219575b818510146200020557818411620001df575b505091516001600160c81b031916600e908117600d5580546001600160a01b031916939093179092555050600f55600c8054919091019055516126359081620004b08239f35b600d83528220920160051c82019186905b838110156200019957828155018690620001f0565b634e487b7160e01b83526022600452602483fd5b93607f169362000187565b634e487b7160e01b83526041600452602483fd5b01519050388062000137565b8a86528686208b94509190601f198416875b8982821062000291575050841162000277575b505050811b0187556200014b565b015160001960f88460031b161c1916905538808062000269565b8385015186558e9790950194938401930162000256565b9091508985528585208780850160051c820192888610620002f1575b918c91869594930160051c01915b828110620002e257505062000121565b8781558594508c9101620002d2565b92508192620002c4565b634e487b7160e01b85526022600452602485fd5b90607f16906200010c565b634e487b7160e01b84526041600452602484fd5b015190503880620000dd565b8680528787208c94509190601f198416885b8a8282106200038757505084116200036d575b505050811b018355620000f1565b015160001960f88460031b161c191690553880806200035f565b8385015186558f979095019493840193016200034c565b9091508580528686208880850160051c820192898610620003e7575b918d91869594930160051c01915b828110620003d8575050620000c7565b8881558594508d9101620003c8565b92508192620003ba565b96607f1696620000b0565b634e487b7160e01b600052604160045260246000fd5b600080fd5b6040519190601f01601f191682016001600160401b03811183821017620003fc57604052565b919080601f84011215620004125782516001600160401b038111620003fc5760209062000473601f8201601f1916830162000417565b92818452828287010111620004125760005b8181106200049b57508260009394955001015290565b85810183015184820184015282016200048556fe608060408181526004918236101561001657600080fd5b600092833560e01c91826301ffc9a7146114b75750816306fdde0314611430578163081812fc14611410578163095ea7b3146112a25781631249c58b1461115857816318160ddd1461113957816323b872dd1461110f578163248a9ca3146110e457816329adec14146110be5781632f2ff15d146110115781632f745c5914610f6557816336568abe14610ed357816342842e0e14610eaa5781634f6ccce714610e8a57816350ff4ee314610d2157816361acc37e14610cba5781636352211e14610c8957816370a0823114610c5c5781637c0f6b3514610ba05781637f50861a14610b8157816391d1485414610b3a57816395d89b4114610ab3578163a217fddf14610a98578163a22cb465146109d0578163a2bf68b9146109a3578163adaf1cab146105be578163b88d4fde1461055a578163c87b56dd14610523578163d547741f146104e057508063daee9ac9146102b9578063e985e9c51461026c5763fd0da0991461018557600080fd5b34610268578160031936011261026857805190826010546101a581611717565b8085529060019081811690811561024057506001146101e7575b5050506101d1826101e394038361168b565b51918291602083526020830190611579565b0390f35b60108352602095507f1b6847dc741a1b0cd08d278845f9d819d87b734759afb55fe2de5cb82a9ae6725b82841061022d57505050826101e3946101d192820101946101bf565b8054868501880152928601928101610211565b6101e397506101d19450602092508693915060ff191682840152151560051b820101946101bf565b5080fd5b503461026857806003193601126102685760ff8160209361028b61159e565b6102936115b9565b6001600160a01b0391821683526005875283832091168252855220549151911615158152f35b50346102685781600319360112610268578051916102d683611655565b6060835260608060209483868201528385820152015260115460ff8082169160081c169383519361030685611655565b8051601054969085816103188a611717565b9182825260019a878c821691826000146104c3575050600114610485575b6103429250038261168b565b86528286019361035181611604565b84528186019061036081611604565b815281519182838580601254938481520160128a528b828b20948b5b87828483011061045657506103ad9654928583831061043e575b505010610430575b5090509997969599038461168b565b606087019283526103ce8151978989525160808a8a015260a0890190611579565b9351906103da82611604565b870152516103e781611604565b606086015251848203601f19016080860152805180835291860195908101925b8281106104145785870386f35b83516001600160801b0316875295810195928101928401610407565b60801c81520186903861039e565b6001600160801b038516865290940193018e85610396565b87546001600160801b038116865260801c8c86015292909601958995508a945091909201918d9160020161037c565b50506010875281858089208b8a915b8583106104aa5750506103429350820101610336565b80919294505483858801015201910186908b8593610494565b60ff19168482015261034294151560051b84010191506103369050565b9190503461051f578060031936011261051f5761051c913561051760016105056115b9565b93838752600b6020528620015461180e565b611ad6565b80f35b8280fd5b82843461055757602036600319011261055757506105446101e39235612288565b9051918291602083526020830190611579565b80fd5b8390346102685760803660031901126102685761057561159e565b61057d6115b9565b906064356001600160401b0381116105ba57366023820112156105ba5761051c938160246105b0933693013591016116c9565b9160443591611cbe565b8480fd5b9190503461051f57602060031981813601126105ba578335926001600160401b039182851161099f57608090853603011261099b578051936080850185811084821117610988578252808601358381116109845781019136602384011215610984576106346024933690858a82013591016116c9565b865282820135916002968784101561098057868101938452604482013591888310156109785783820192835260648101359087821161097c570136602382011215610978578981013561069261068982611700565b9551958661168b565b808552868986019160051b83010191368311610974578701905b82821061095157505050606081019283525192835186811161093f57806010958c6106d78854611717565b8b601f8211610906575b50505089908d601f84116001146108a35792610898575b50508160011b916000199060031b1c19161784555b519061071882611604565b61072182611604565b60ff61ff00601154925161073481611604565b61073d81611604565b60081b1692169061ffff191617176011555191825193841161088757600160401b84116108875750908391601254908460125581851061083a575b50500190601286528286209260019282841c95885b8781106107f6575050600119831690920391826107a8578780f35b929190879688905b8382106107ca575050505050500155388080808080808780f35b90919293836107e982979a60018060801b038c51169086861b9061226f565b99019594939201906107b0565b85908a8b5b868c86831061081157505050818901550161078d565b829794959361082d929360018060801b03875116921b9061226f565b92019401908792916107fb565b6108669160128a526001858b2091818801821c830193888c1b168061086d575b500160011c0190612258565b3880610778565b60001990818601918254918a0360031b1c1690553861085a565b634e487b7160e01b88526041875287fd5b0151905038806106f8565b8881528b81209350601f198516905b8c8282106108f05750509084600195949392106108d7575b505050811b01845561070d565b015160001960f88460031b161c191690553880806108ca565b60018596829396860151815501950193016108b2565b828a61092d945220601f850160051c8101918d8610610935575b601f0160051c0190612258565b8c388b6106e1565b9091508190610920565b634e487b7160e01b8b5260418a52858bfd5b81356001600160801b03811681036109705781529089019089016106ac565b8d80fd5b8c80fd5b8a80fd5b8b80fd5b8980fd5b8780fd5b634e487b7160e01b885260418752602488fd5b8580fd5b8680fd5b505034610268578160031936011261026857601154905160209160081c60ff166109cc81611604565b8152f35b9190503461051f578060031936011261051f576109eb61159e565b90602435918215158093036105ba576001600160a01b031692338414610a5a5750338452600560205280842083855260205280842060ff1981541660ff8416179055519081527f17307eab39ab6107e8899845ad3d59bd9653f200f220920489ca2b5937696c3160203392a380f35b6020606492519162461bcd60e51b8352820152601960248201527822a9219b99189d1030b8383937bb32903a379031b0b63632b960391b6044820152fd5b50503461026857816003193601126102685751908152602090f35b505034610268578160031936011261026857805190826001805490610ad782611717565b808652918181169081156102405750600114610aff575050506101d1826101e394038361168b565b80955082526020948583205b828410610b2757505050826101e3946101d192820101946101bf565b8054868501880152928601928101610b0b565b90503461051f578160031936011261051f578160209360ff92610b5b6115b9565b90358252600b86528282206001600160a01b039091168252855220549151911615158152f35b505034610268578160031936011261026857602090600f549051908152f35b8284346105575780600319360112610557579060085491610bc083611700565b90610bcd8351928361168b565b838252610bd984611700565b6020948584019391601f1901368537825b818110610c2e57505083519485948186019282875251809352850193925b828110610c1757505050500390f35b835185528695509381019392810192600101610c08565b80610c41610c51929895949697986121d0565b610c4b8288612569565b5261255a565b959493919295610bea565b50503461026857602036600319011261026857602090610c82610c7d61159e565b611b4c565b9051908152f35b8284346105575760203660031901126105575750610ca960209235611c0a565b90516001600160a01b039091168152f35b90503461051f57602036600319011261051f573560125481101561051f576012909252600182901c7fbb8a6a4669ba250d26cd7a459eca9d215f8307e33aebe50379bc5a3617ec34440154905160079290921b6080161c6001600160801b03168152602090f35b828434610557578060031936011261055757600854610d3f81611700565b90610d4c8451928361168b565b808252601f19610d5b82611700565b01835b818110610e62575050825b818110610df2575050825191602080840190808552835180925285850181878460051b880101950193965b838810610da15786860387f35b90919293948380600192603f198a82030186528851908151815285610dd28484015160608087860152840190611579565b9281878060a01b0391015116910152970193019701969093929193610d94565b80610dff610e5d926121d0565b610e10610e0b836121d0565b612288565b610e21610e1c846121d0565b611c0a565b90885192610e2e84611624565b835260208301526001600160a01b031687820152610e4c8286612569565b52610e578185612569565b5061255a565b610d69565b6020908651610e7081611624565b868152826060818301528789830152828701015201610d5e565b8284346105575760203660031901126105575750610c82602092356121d0565b5050346102685761051c90610ebe366115cf565b91925192610ecb84611670565b858452611cbe565b83915034610268578260031936011261026857610eee6115b9565b90336001600160a01b03831603610f0a579061051c9135611ad6565b608490602085519162461bcd60e51b8352820152602f60248201527f416363657373436f6e74726f6c3a2063616e206f6e6c792072656e6f756e636560448201526e103937b632b9903337b91039b2b63360891b6064820152fd5b828434610557578160031936011261055757610f7f61159e565b60243590610f8c81611b4c565b821015610fba576001600160a01b031682526006602090815283832091835290815290829020548251908152f35b835162461bcd60e51b8152602081870152602b60248201527f455243373231456e756d657261626c653a206f776e657220696e646578206f7560448201526a74206f6620626f756e647360a81b6064820152608490fd5b90503461051f578160031936011261051f57359061102d6115b9565b90828452600b6020526110456001828620015461180e565b828452600b60209081528185206001600160a01b039093168086529290528084205460ff1615611073578380f35b828452600b6020528084208285526020528320600160ff1982541617905533917f2f8788117e7eff1d82e926ec794901d17c78024a50270940304540a733656f0d8480a43880808380f35b505034610268578160031936011261026857601154905160209160ff166109cc81611604565b90503461051f57602036600319011261051f5781602093600192358152600b85522001549051908152f35b83346105575761051c611121366115cf565b9161113461112f8433611d37565b611c5c565b611dff565b5050346102685781600319360112610268576020906008549051908152f35b9190503461051f578260031936011261051f57600c54913315611260576111876111818461202c565b1561257d565b600854838552602091600983528184872055600160401b82101561124d5750906111d8846111bd8460016002960160085561219f565b90919082549060031b600019811b9283911b16911916179055565b6111e133611b4c565b3386526006825283862081875282528484872055848652600782528386205561120c6111818561202c565b33808652600382528386208054600101905584865291905290832080546001600160a01b03191682179055826000805160206126098339815191528180a480f35b634e487b7160e01b865260419052602485fd5b6020606492519162461bcd60e51b8352820152602060248201527f4552433732313a206d696e7420746f20746865207a65726f20616464726573736044820152fd5b90503461051f578160031936011261051f576112bc61159e565b6024359290916001600160a01b03919082806112d787611c0a565b169416938085146113c3578033149081156113a4575b501561133c57848652602052842080546001600160a01b0319168317905561131483611c0a565b167f8c5be1e5ebec7d5bd14f71427d1e84f3dd0314c0f7b2291e5b200ac8c7c3b9258480a480f35b6020608492519162461bcd60e51b8352820152603d60248201527f4552433732313a20617070726f76652063616c6c6572206973206e6f7420746f60448201527f6b656e206f776e6572206f7220617070726f76656420666f7220616c6c0000006064820152fd5b90508652600560205281862033875260205260ff8287205416386112ed565b506020608492519162461bcd60e51b8352820152602160248201527f4552433732313a20617070726f76616c20746f2063757272656e74206f776e656044820152603960f91b6064820152fd5b8284346105575760203660031901126105575750610ca960209235611c30565b50503461026857816003193601126102685780519082805461145181611717565b80855290600190818116908115610240575060011461147c575050506101d1826101e394038361168b565b94508180526020948583205b8284106114a457505050826101e3946101d192820101946101bf565b8054868501880152928601928101611488565b84913461051f57602036600319011261051f573563ffffffff60e01b811680910361051f5760209250637965db0b60e01b81149081156114f9575b5015158152f35b63780e9d6360e01b811491508115611513575b50836114f2565b6380ac58cd60e01b811491508115611545575b8115611534575b508361150c565b6301ffc9a760e01b1490508361152d565b635b5e139f60e01b81149150611526565b60005b8381106115695750506000910152565b8181015183820152602001611559565b9060209161159281518092818552858086019101611556565b601f01601f1916010190565b600435906001600160a01b03821682036115b457565b600080fd5b602435906001600160a01b03821682036115b457565b60609060031901126115b4576001600160a01b039060043582811681036115b4579160243590811681036115b4579060443590565b6002111561160e57565b634e487b7160e01b600052602160045260246000fd5b606081019081106001600160401b0382111761163f57604052565b634e487b7160e01b600052604160045260246000fd5b608081019081106001600160401b0382111761163f57604052565b602081019081106001600160401b0382111761163f57604052565b601f909101601f19168101906001600160401b0382119082101761163f57604052565b6001600160401b03811161163f57601f01601f191660200190565b9291926116d5826116ae565b916116e3604051938461168b565b8294818452818301116115b4578281602093846000960137010152565b6001600160401b03811161163f5760051b60200190565b90600182811c92168015611747575b602083101461173157565b634e487b7160e01b600052602260045260246000fd5b91607f1691611726565b60405190600082600d549161176583611717565b8083526001938085169081156117ed575060011461178d575b5061178b9250038361168b565b565b600d60009081527fd7b6990105719101dabeb77144f2a3385c8033acd3af97e9423a695e81ad1eb594602093509091905b8183106117d557505061178b93508201013861177e565b855488840185015294850194879450918301916117be565b905061178b94506020925060ff191682840152151560051b8201013861177e565b600090808252602090600b8252604092838120338252835260ff8482205416156118385750505050565b3384519261184584611624565b602a84528484019086368337845115611ac25760308253845192600193841015611aae576078602187015360295b848111611a445750611a145786519261188b84611655565b60428452868401946060368737845115611a0057603086538451821015611a005790607860218601536041915b818311611992575050506119625761195e9386936119429361193360489461190a9a519a8b9576020b1b1b2b9b9a1b7b73a3937b61d1030b1b1b7bab73a1604d1b8c8801525180926037880190611556565b8401917001034b99036b4b9b9b4b733903937b6329607d1b603784015251809386840190611556565b0103602881018752018561168b565b5192839262461bcd60e51b845260048401526024830190611579565b0390fd5b60648587519062461bcd60e51b825280600483015260248201526000805160206125c98339815191526044820152fd5b909192600f811660108110156119ec576f181899199a1a9b1b9c1cb0b131b232b360811b901a6119c28588612247565b5360041c9280156119d8576000190191906118b8565b634e487b7160e01b82526011600452602482fd5b634e487b7160e01b83526032600452602483fd5b634e487b7160e01b81526032600452602490fd5b60648688519062461bcd60e51b825280600483015260248201526000805160206125c98339815191526044820152fd5b90600f81166010811015611a9a576f181899199a1a9b1b9c1cb0b131b232b360811b901a611a728389612247565b5360041c908015611a865760001901611873565b634e487b7160e01b86526011600452602486fd5b634e487b7160e01b87526032600452602487fd5b634e487b7160e01b85526032600452602485fd5b634e487b7160e01b84526032600452602484fd5b90600091808352600b602052604083209160018060a01b03169182845260205260ff604084205416611b0757505050565b808352600b602052604083208284526020526040832060ff1981541690557ff6391f5c32d9c69d2a47ea670b442974b53935d1edc7fd64eb21e047a839171b339380a4565b6001600160a01b03168015611b6c57600052600360205260406000205490565b60405162461bcd60e51b815260206004820152602960248201527f4552433732313a2061646472657373207a65726f206973206e6f7420612076616044820152683634b21037bbb732b960b91b6064820152608490fd5b15611bca57565b60405162461bcd60e51b8152602060048201526018602482015277115490cdcc8c4e881a5b9d985b1a59081d1bdad95b88125160421b6044820152606490fd5b6000908152600260205260409020546001600160a01b0316611c2d811515611bc3565b90565b611c41611c3c8261202c565b611bc3565b6000908152600460205260409020546001600160a01b031690565b15611c6357565b60405162461bcd60e51b815260206004820152602d60248201527f4552433732313a2063616c6c6572206973206e6f7420746f6b656e206f776e6560448201526c1c881bdc88185c1c1c9bdd9959609a1b6064820152608490fd5b90611ce2939291611cd261112f8433611d37565b611cdd838383611dff565b612049565b15611ce957565b60405162461bcd60e51b815260206004820152603260248201526000805160206125e983398151915260448201527131b2b4bb32b91034b6b83632b6b2b73a32b960711b6064820152608490fd5b906001600160a01b038080611d4b84611c0a565b16931691838314938415611d7e575b508315611d68575b50505090565b611d7491929350611c30565b1614388080611d62565b909350600052600560205260406000208260005260205260ff604060002054169238611d5a565b15611dac57565b60405162461bcd60e51b815260206004820152602560248201527f4552433732313a207472616e736665722066726f6d20696e636f72726563742060448201526437bbb732b960d91b6064820152608490fd5b611e2391611e0c84611c0a565b6001600160a01b0393848416939185168414611da5565b838216938415611fdb57839182611f22575060085460008781526009602052604090208190559150600160401b82101561163f57611e8992611e70876111bd85600189970160085561219f565b828603611eef575b50611e8286611c0a565b1614611da5565b600080516020612609833981519152600084815260046020526040812060018060a01b03199081815416905583825260036020526040822060001981540190558482526040822060018154019055858252600260205284604083209182541617905580a4565b611ef890611b4c565b60406000878152600660205281812083825260205288828220558881526007602052205538611e78565b858303611f34575b50611e8992611e70565b611f3f919250611b4c565b600019810191908211611fc557611e899284926000908882526020906007825260409182842054828103611f8e575b508a84528383812055868452600681528284209184525281205592611f2a565b8785526006825283852083865282528385205488865260068352848620828752835280858720558552600782528385205538611f6e565b634e487b7160e01b600052601160045260246000fd5b60405162461bcd60e51b8152602060048201526024808201527f4552433732313a207472616e7366657220746f20746865207a65726f206164646044820152637265737360e01b6064820152608490fd5b6000908152600260205260409020546001600160a01b0316151590565b9293600093909291803b15612194579484916120a39660405180948193630a85bd0160e11b9788845233600485015260018060a01b0380921660248501526044840152608060648401528260209b8c976084830190611579565b0393165af1849181612154575b50612143575050503d60001461213b573d6120ca816116ae565b906120d8604051928361168b565b81528091833d92013e5b805191826121385760405162461bcd60e51b815260206004820152603260248201526000805160206125e983398151915260448201527131b2b4bb32b91034b6b83632b6b2b73a32b960711b6064820152608490fd5b01fd5b5060606120e2565b6001600160e01b0319161492509050565b9091508581813d831161218d575b61216c818361168b565b810103126105ba57516001600160e01b0319811681036105ba5790386120b0565b503d612162565b505050915050600190565b6008548110156121ba57600860005260206000200190600090565b634e487b7160e01b600052603260045260246000fd5b6008548110156121ed576121e39061219f565b90549060031b1c90565b60405162461bcd60e51b815260206004820152602c60248201527f455243373231456e756d657261626c653a20676c6f62616c20696e646578206f60448201526b7574206f6620626f756e647360a01b6064820152608490fd5b9081518110156121ba570160200190565b818110612263575050565b60008155600101612258565b9060031b60018060801b03811b9283911b169119161790565b612294611c3c8261202c565b6000818152600a60209181835260408082209281518394805495826122b888611717565b91828252898201936001998b8b8216918260001461253c5750506001146124fe575b506122e79250038361168b565b6122ef611751565b9081519283156124f15780516124cb575050505061230f611c3c8761202c565b612317611751565b8051909490156124b457929586938172184f03e93ff9f4daa797ed6e38ed64bf6a1f0160401b81818110156124a5575b5084919050886904ee2d6d415b85acef8160201b80831015612499575b5050662386f26fc100008082101561248c575b506305f5e1008082101561247f575b5061271080821015612472575b506064811015612464575b101561245b575b90816021818a01996123ce6123b98c6116ae565b9b6123c689519d8e61168b565b808d526116ae565b8b8b019890601f1901368a37508a0101905b612425575b505050509061241994611c2d94939251958361240a8895518092888089019101611556565b84019151809386840190611556565b0103808452018261168b565b600019019083906f181899199a1a9b1b9c1cb0b131b232b360811b8282061a835304918215612456579190826123e0565b6123e5565b809701966123a5565b60646002910499019861239e565b6004910499019838612393565b6008910499019838612386565b6010910499019838612377565b9a019990048838612364565b95995089950490508338612347565b5050925092505051906124c682611670565b815290565b935093829850611c2d9796506124199291955061240a9051988996888089019101611556565b9850505050505050505090565b915050865282888088208989915b8583106125235750506122e79350820101386122da565b809192945054838589010152019101899089869361250c565b60ff191687526122e795151560051b85010192503891506122da9050565b6000198114611fc55760010190565b80518210156121ba5760209160051b010190565b1561258457565b60405162461bcd60e51b815260206004820152601c60248201527b115490cdcc8c4e881d1bdad95b88185b1c9958591e481b5a5b9d195960221b6044820152606490fdfe537472696e67733a20686578206c656e67746820696e73756666696369656e744552433732313a207472616e7366657220746f206e6f6e204552433732315265ddf252ad1be2c89b69c2b068fc378daa952ba7f163c4a11628f55a4df523b3efa164736f6c6343000811000a",
  "linkReferences": {},
  "deployedLinkReferences": {}
}