{
  "_format": "hh-sol-artifact-1",
  "contractName": "EmbraceCommunity",
  "sourceName": "contracts/EmbraceCommunity.sol",
  "abi": [
    {
      "inputs": [
        {
          "internalType": "address",
          "name": "member",
          "type": "address"
        }
      ],
      "name": "ErrorAlreadyAdmin",
      "type": "error"
    },
    {
      "inputs": [
        {
          "internalType": "address",
          "name": "account",
          "type": "address"
        }
      ],
      "name": "ErrorCannotRemoveFounderAdmin",
      "type": "error"
    },
    {
      "inputs": [
        {
          "internalType": "address",
          "name": "account",
          "type": "address"
        }
      ],
      "name": "ErrorGatedRequirementsNotMet",
      "type": "error"
    },
    {
      "inputs": [
        {
          "internalType": "address",
          "name": "member",
          "type": "address"
        }
      ],
      "name": "ErrorMemberDoesNotExist",
      "type": "error"
    },
    {
      "inputs": [
        {
          "internalType": "address",
          "name": "member",
          "type": "address"
        }
      ],
      "name": "ErrorMemberExists",
      "type": "error"
    },
    {
      "inputs": [
        {
          "internalType": "address",
          "name": "member",
          "type": "address"
        }
      ],
      "name": "ErrorNotAdmin",
      "type": "error"
    },
    {
      "inputs": [
        {
          "internalType": "address",
          "name": "member",
          "type": "address"
        }
      ],
      "name": "ErrorNotFounder",
      "type": "error"
    },
    {
      "inputs": [
        {
          "internalType": "address",
          "name": "account",
          "type": "address"
        }
      ],
      "name": "ErrorNotGatedAccess",
      "type": "error"
    },
    {
      "inputs": [
        {
          "internalType": "address",
          "name": "account",
          "type": "address"
        }
      ],
      "name": "ErrorNotOpenAccess",
      "type": "error"
    },
    {
      "inputs": [
        {
          "internalType": "string",
          "name": "tableName",
          "type": "string"
        }
      ],
      "name": "ErrorTableDoesNotExist",
      "type": "error"
    },
    {
      "inputs": [
        {
          "internalType": "string",
          "name": "tableName",
          "type": "string"
        }
      ],
      "name": "ErrorTableExists",
      "type": "error"
    },
    {
      "anonymous": false,
      "inputs": [
        {
          "indexed": true,
          "internalType": "address",
          "name": "owner",
          "type": "address"
        },
        {
          "indexed": true,
          "internalType": "address",
          "name": "approved",
          "type": "address"
        },
        {
          "indexed": true,
          "internalType": "uint256",
          "name": "tokenId",
          "type": "uint256"
        }
      ],
      "name": "Approval",
      "type": "event"
    },
    {
      "anonymous": false,
      "inputs": [
        {
          "indexed": true,
          "internalType": "address",
          "name": "owner",
          "type": "address"
        },
        {
          "indexed": true,
          "internalType": "address",
          "name": "operator",
          "type": "address"
        },
        {
          "indexed": false,
          "internalType": "bool",
          "name": "approved",
          "type": "bool"
        }
      ],
      "name": "ApprovalForAll",
      "type": "event"
    },
    {
      "anonymous": false,
      "inputs": [
        {
          "indexed": false,
          "internalType": "uint8",
          "name": "version",
          "type": "uint8"
        }
      ],
      "name": "Initialized",
      "type": "event"
    },
    {
      "anonymous": false,
      "inputs": [
        {
          "indexed": true,
          "internalType": "address",
          "name": "from",
          "type": "address"
        },
        {
          "indexed": true,
          "internalType": "address",
          "name": "to",
          "type": "address"
        },
        {
          "indexed": true,
          "internalType": "uint256",
          "name": "tokenId",
          "type": "uint256"
        }
      ],
      "name": "Transfer",
      "type": "event"
    },
    {
      "inputs": [
        {
          "internalType": "address",
          "name": "_memberAddress",
          "type": "address"
        },
        {
          "internalType": "bool",
          "name": "_isAdmin",
          "type": "bool"
        }
      ],
      "name": "addMember",
      "outputs": [],
      "stateMutability": "nonpayable",
      "type": "function"
    },
    {
      "inputs": [
        {
          "internalType": "address",
          "name": "to",
          "type": "address"
        },
        {
          "internalType": "uint256",
          "name": "tokenId",
          "type": "uint256"
        }
      ],
      "name": "approve",
      "outputs": [],
      "stateMutability": "nonpayable",
      "type": "function"
    },
    {
      "inputs": [
        {
          "internalType": "address",
          "name": "owner",
          "type": "address"
        }
      ],
      "name": "balanceOf",
      "outputs": [
        {
          "internalType": "uint256",
          "name": "",
          "type": "uint256"
        }
      ],
      "stateMutability": "view",
      "type": "function"
    },
    {
      "inputs": [
        {
          "internalType": "uint256",
          "name": "tokenId",
          "type": "uint256"
        }
      ],
      "name": "getApproved",
      "outputs": [
        {
          "internalType": "address",
          "name": "",
          "type": "address"
        }
      ],
      "stateMutability": "view",
      "type": "function"
    },
    {
      "inputs": [],
      "name": "getCommunityData",
      "outputs": [
        {
          "components": [
            {
              "internalType": "string",
              "name": "handle",
              "type": "string"
            },
            {
              "internalType": "enum Visibility",
              "name": "visibility",
              "type": "uint8"
            },
            {
              "components": [
                {
                  "internalType": "enum Access",
                  "name": "access",
                  "type": "uint8"
                },
                {
                  "components": [
                    {
                      "internalType": "enum MembershipGateToken",
                      "name": "tokenType",
                      "type": "uint8"
                    },
                    {
                      "internalType": "address",
                      "name": "tokenAddress",
                      "type": "address"
                    },
                    {
                      "internalType": "uint256",
                      "name": "tokenId",
                      "type": "uint256"
                    }
                  ],
                  "internalType": "struct MembershipGate",
                  "name": "gate",
                  "type": "tuple"
                }
              ],
              "internalType": "struct Membership",
              "name": "membership",
              "type": "tuple"
            },
            {
              "internalType": "uint128[]",
              "name": "apps",
              "type": "uint128[]"
            }
          ],
          "internalType": "struct CommunityContractData",
          "name": "",
          "type": "tuple"
        }
      ],
      "stateMutability": "view",
      "type": "function"
    },
    {
      "inputs": [],
      "name": "getFounder",
      "outputs": [
        {
          "internalType": "address",
          "name": "",
          "type": "address"
        }
      ],
      "stateMutability": "view",
      "type": "function"
    },
    {
      "inputs": [
        {
          "internalType": "address",
          "name": "_address",
          "type": "address"
        }
      ],
      "name": "getMemberStatus",
      "outputs": [
        {
          "components": [
            {
              "internalType": "bool",
              "name": "isFounder",
              "type": "bool"
            },
            {
              "internalType": "bool",
              "name": "isAdmin",
              "type": "bool"
            },
            {
              "internalType": "bool",
              "name": "isMember",
              "type": "bool"
            }
          ],
          "internalType": "struct EmbraceCommunity.MemberStatus",
          "name": "",
          "type": "tuple"
        }
      ],
      "stateMutability": "view",
      "type": "function"
    },
    {
      "inputs": [
        {
          "internalType": "address",
          "name": "_account",
          "type": "address"
        }
      ],
      "name": "getMemberTokenId",
      "outputs": [
        {
          "internalType": "uint256",
          "name": "",
          "type": "uint256"
        }
      ],
      "stateMutability": "view",
      "type": "function"
    },
    {
      "inputs": [],
      "name": "getTables",
      "outputs": [
        {
          "components": [
            {
              "internalType": "enum TablelandCommunity.TableType",
              "name": "tableType",
              "type": "uint8"
            },
            {
              "internalType": "uint256",
              "name": "id",
              "type": "uint256"
            },
            {
              "internalType": "string",
              "name": "name",
              "type": "string"
            },
            {
              "internalType": "string",
              "name": "prefix",
              "type": "string"
            }
          ],
          "internalType": "struct TablelandCommunity.Table[]",
          "name": "",
          "type": "tuple[]"
        }
      ],
      "stateMutability": "view",
      "type": "function"
    },
    {
      "inputs": [
        {
          "internalType": "address",
          "name": "_account",
          "type": "address"
        }
      ],
      "name": "grantAdminRole",
      "outputs": [],
      "stateMutability": "nonpayable",
      "type": "function"
    },
    {
      "inputs": [
        {
          "internalType": "string",
          "name": "_name",
          "type": "string"
        },
        {
          "internalType": "string",
          "name": "_symbol",
          "type": "string"
        },
        {
          "internalType": "address",
          "name": "_founderAddress",
          "type": "address"
        },
        {
          "internalType": "address",
          "name": "_communitiesContractAddress",
          "type": "address"
        },
        {
          "internalType": "address",
          "name": "_tablelandRegistryAddress",
          "type": "address"
        },
        {
          "internalType": "uint256",
          "name": "_communityId",
          "type": "uint256"
        },
        {
          "components": [
            {
              "internalType": "string",
              "name": "handle",
              "type": "string"
            },
            {
              "internalType": "enum Visibility",
              "name": "visibility",
              "type": "uint8"
            },
            {
              "components": [
                {
                  "internalType": "enum Access",
                  "name": "access",
                  "type": "uint8"
                },
                {
                  "components": [
                    {
                      "internalType": "enum MembershipGateToken",
                      "name": "tokenType",
                      "type": "uint8"
                    },
                    {
                      "internalType": "address",
                      "name": "tokenAddress",
                      "type": "address"
                    },
                    {
                      "internalType": "uint256",
                      "name": "tokenId",
                      "type": "uint256"
                    }
                  ],
                  "internalType": "struct MembershipGate",
                  "name": "gate",
                  "type": "tuple"
                }
              ],
              "internalType": "struct Membership",
              "name": "membership",
              "type": "tuple"
            },
            {
              "internalType": "uint128[]",
              "name": "apps",
              "type": "uint128[]"
            }
          ],
          "internalType": "struct CommunityContractData",
          "name": "_communityContractData",
          "type": "tuple"
        }
      ],
      "name": "initialize",
      "outputs": [],
      "stateMutability": "nonpayable",
      "type": "function"
    },
    {
      "inputs": [
        {
          "internalType": "string",
          "name": "_key",
          "type": "string"
        },
        {
          "internalType": "string",
          "name": "_value",
          "type": "string"
        },
        {
          "internalType": "enum TablelandCommunity.KeyValueEncryption",
          "name": "_encryptionType",
          "type": "uint8"
        }
      ],
      "name": "insertKeyValue",
      "outputs": [],
      "stateMutability": "nonpayable",
      "type": "function"
    },
    {
      "inputs": [],
      "name": "isAdmin",
      "outputs": [
        {
          "internalType": "bool",
          "name": "",
          "type": "bool"
        }
      ],
      "stateMutability": "view",
      "type": "function"
    },
    {
      "inputs": [
        {
          "internalType": "address",
          "name": "owner",
          "type": "address"
        },
        {
          "internalType": "address",
          "name": "operator",
          "type": "address"
        }
      ],
      "name": "isApprovedForAll",
      "outputs": [
        {
          "internalType": "bool",
          "name": "",
          "type": "bool"
        }
      ],
      "stateMutability": "view",
      "type": "function"
    },
    {
      "inputs": [],
      "name": "isFounder",
      "outputs": [
        {
          "internalType": "bool",
          "name": "",
          "type": "bool"
        }
      ],
      "stateMutability": "view",
      "type": "function"
    },
    {
      "inputs": [],
      "name": "join",
      "outputs": [],
      "stateMutability": "nonpayable",
      "type": "function"
    },
    {
      "inputs": [],
      "name": "joinGated",
      "outputs": [],
      "stateMutability": "nonpayable",
      "type": "function"
    },
    {
      "inputs": [
        {
          "internalType": "address",
          "name": "",
          "type": "address"
        }
      ],
      "name": "memberToTokenId",
      "outputs": [
        {
          "internalType": "uint256",
          "name": "",
          "type": "uint256"
        }
      ],
      "stateMutability": "view",
      "type": "function"
    },
    {
      "inputs": [],
      "name": "name",
      "outputs": [
        {
          "internalType": "string",
          "name": "",
          "type": "string"
        }
      ],
      "stateMutability": "view",
      "type": "function"
    },
    {
      "inputs": [
        {
          "internalType": "address",
          "name": "",
          "type": "address"
        },
        {
          "internalType": "address",
          "name": "",
          "type": "address"
        },
        {
          "internalType": "uint256",
          "name": "",
          "type": "uint256"
        },
        {
          "internalType": "bytes",
          "name": "",
          "type": "bytes"
        }
      ],
      "name": "onERC721Received",
      "outputs": [
        {
          "internalType": "bytes4",
          "name": "",
          "type": "bytes4"
        }
      ],
      "stateMutability": "nonpayable",
      "type": "function"
    },
    {
      "inputs": [
        {
          "internalType": "uint256",
          "name": "tokenId",
          "type": "uint256"
        }
      ],
      "name": "ownerOf",
      "outputs": [
        {
          "internalType": "address",
          "name": "",
          "type": "address"
        }
      ],
      "stateMutability": "view",
      "type": "function"
    },
    {
      "inputs": [
        {
          "internalType": "address",
          "name": "_account",
          "type": "address"
        }
      ],
      "name": "revokeAdminRole",
      "outputs": [],
      "stateMutability": "nonpayable",
      "type": "function"
    },
    {
      "inputs": [
        {
          "internalType": "address",
          "name": "from",
          "type": "address"
        },
        {
          "internalType": "address",
          "name": "to",
          "type": "address"
        },
        {
          "internalType": "uint256",
          "name": "tokenId",
          "type": "uint256"
        }
      ],
      "name": "safeTransferFrom",
      "outputs": [],
      "stateMutability": "nonpayable",
      "type": "function"
    },
    {
      "inputs": [
        {
          "internalType": "address",
          "name": "from",
          "type": "address"
        },
        {
          "internalType": "address",
          "name": "to",
          "type": "address"
        },
        {
          "internalType": "uint256",
          "name": "tokenId",
          "type": "uint256"
        },
        {
          "internalType": "bytes",
          "name": "data",
          "type": "bytes"
        }
      ],
      "name": "safeTransferFrom",
      "outputs": [],
      "stateMutability": "nonpayable",
      "type": "function"
    },
    {
      "inputs": [
        {
          "internalType": "address",
          "name": "operator",
          "type": "address"
        },
        {
          "internalType": "bool",
          "name": "approved",
          "type": "bool"
        }
      ],
      "name": "setApprovalForAll",
      "outputs": [],
      "stateMutability": "nonpayable",
      "type": "function"
    },
    {
      "inputs": [
        {
          "internalType": "string",
          "name": "_uri",
          "type": "string"
        }
      ],
      "name": "setBaseURI",
      "outputs": [],
      "stateMutability": "nonpayable",
      "type": "function"
    },
    {
      "inputs": [
        {
          "components": [
            {
              "internalType": "string",
              "name": "handle",
              "type": "string"
            },
            {
              "internalType": "enum Visibility",
              "name": "visibility",
              "type": "uint8"
            },
            {
              "components": [
                {
                  "internalType": "enum Access",
                  "name": "access",
                  "type": "uint8"
                },
                {
                  "components": [
                    {
                      "internalType": "enum MembershipGateToken",
                      "name": "tokenType",
                      "type": "uint8"
                    },
                    {
                      "internalType": "address",
                      "name": "tokenAddress",
                      "type": "address"
                    },
                    {
                      "internalType": "uint256",
                      "name": "tokenId",
                      "type": "uint256"
                    }
                  ],
                  "internalType": "struct MembershipGate",
                  "name": "gate",
                  "type": "tuple"
                }
              ],
              "internalType": "struct Membership",
              "name": "membership",
              "type": "tuple"
            },
            {
              "internalType": "uint128[]",
              "name": "apps",
              "type": "uint128[]"
            }
          ],
          "internalType": "struct CommunityContractData",
          "name": "_communityData",
          "type": "tuple"
        }
      ],
      "name": "setCommunityContractData",
      "outputs": [],
      "stateMutability": "nonpayable",
      "type": "function"
    },
    {
      "inputs": [
        {
          "components": [
            {
              "internalType": "string",
              "name": "handle",
              "type": "string"
            },
            {
              "internalType": "string",
              "name": "name",
              "type": "string"
            },
            {
              "internalType": "string",
              "name": "description",
              "type": "string"
            },
            {
              "internalType": "string",
              "name": "image",
              "type": "string"
            }
          ],
          "internalType": "struct CommunityMetaData",
          "name": "_communityMetaData",
          "type": "tuple"
        }
      ],
      "name": "setCommunityMetaData",
      "outputs": [],
      "stateMutability": "nonpayable",
      "type": "function"
    },
    {
      "inputs": [
        {
          "internalType": "bytes4",
          "name": "interfaceId",
          "type": "bytes4"
        }
      ],
      "name": "supportsInterface",
      "outputs": [
        {
          "internalType": "bool",
          "name": "",
          "type": "bool"
        }
      ],
      "stateMutability": "view",
      "type": "function"
    },
    {
      "inputs": [],
      "name": "symbol",
      "outputs": [
        {
          "internalType": "string",
          "name": "",
          "type": "string"
        }
      ],
      "stateMutability": "view",
      "type": "function"
    },
    {
      "inputs": [
        {
          "internalType": "bytes8",
          "name": "",
          "type": "bytes8"
        }
      ],
      "name": "tables",
      "outputs": [
        {
          "internalType": "enum TablelandCommunity.TableType",
          "name": "tableType",
          "type": "uint8"
        },
        {
          "internalType": "uint256",
          "name": "id",
          "type": "uint256"
        },
        {
          "internalType": "string",
          "name": "name",
          "type": "string"
        },
        {
          "internalType": "string",
          "name": "prefix",
          "type": "string"
        }
      ],
      "stateMutability": "view",
      "type": "function"
    },
    {
      "inputs": [
        {
          "internalType": "uint256",
          "name": "tokenId",
          "type": "uint256"
        }
      ],
      "name": "tokenURI",
      "outputs": [
        {
          "internalType": "string",
          "name": "",
          "type": "string"
        }
      ],
      "stateMutability": "view",
      "type": "function"
    },
    {
      "inputs": [],
      "name": "totalMembers",
      "outputs": [
        {
          "internalType": "uint256",
          "name": "",
          "type": "uint256"
        }
      ],
      "stateMutability": "view",
      "type": "function"
    },
    {
      "inputs": [],
      "name": "totalSupply",
      "outputs": [
        {
          "internalType": "uint256",
          "name": "",
          "type": "uint256"
        }
      ],
      "stateMutability": "view",
      "type": "function"
    },
    {
      "inputs": [
        {
          "internalType": "address",
          "name": "from",
          "type": "address"
        },
        {
          "internalType": "address",
          "name": "to",
          "type": "address"
        },
        {
          "internalType": "uint256",
          "name": "tokenId",
          "type": "uint256"
        }
      ],
      "name": "transferFrom",
      "outputs": [],
      "stateMutability": "nonpayable",
      "type": "function"
    }
  ],
  "bytecode": "0x608060405234801561001057600080fd5b506145b6806100206000396000f3fe608060405234801561001057600080fd5b50600436106101a15760003560e01c806301ffc9a7146101a657806306fdde03146101ce578063081812fc146101e3578063095ea7b314610203578063150b7a021461021857806318160ddd14610244578063239ac4161461025a57806323b872dd1461027b57806328343c341461028e57806330547e5b146102a357806337897c2b146102ab57806339478568146102be57806342842e0e146102c65780634cfbd7ce146102d957806355f804b3146102ec5780636352211e146102ff5780636c11cefc1461031257806370a082311461032557806376e925591461024457806381cd123a14610338578063946bcc301461034b57806395d89b41146103535780639a19c7b01461035b5780639e645d321461036e578063a22cb46514610391578063b688a363146103a4578063b6db75a0146103ac578063b88d4fde146103b4578063c634b78e146103c7578063c87b56dd146103da578063c9030ea0146103ed578063d18fd36714610400578063daee9ac91461042a578063dde8535f1461043f578063e985e9c51461047a575b600080fd5b6101b96101b4366004613161565b61048d565b60405190151581526020015b60405180910390f35b6101d66104df565b6040516101c591906131ce565b6101f66101f13660046131e1565b610571565b6040516101c591906131fa565b610216610211366004613233565b610598565b005b61022b610226366004613346565b6106b2565b6040516001600160e01b031990911681526020016101c5565b61024c6106c3565b6040519081526020016101c5565b61024c6102683660046133c5565b6101006020526000908152604090205481565b6102166102893660046133e2565b6106d3565b610296610704565b6040516101c59190613449565b610216610abc565b6102166102b9366004613537565b610b32565b6101b9610b6d565b6102166102d43660046133e2565b610b87565b6102166102e73660046135de565b610ba2565b6102166102fa3660046136b6565b610bcc565b6101f661030d3660046131e1565b610c0e565b6102166103203660046138a7565b610c42565b61024c6103333660046133c5565b610eb9565b610216610346366004613973565b610f3f565b6101f6610f6f565b6101d6610fe3565b6102166103693660046133c5565b610ff2565b61038161037c3660046139a7565b6110ef565b6040516101c594939291906139d1565b61021661039f366004613a0b565b61122c565b610216611237565b6101b9611271565b6102166103c2366004613346565b611293565b6102166103d53660046133c5565b6112cb565b6101d66103e83660046131e1565b611391565b6102166103fb366004613a0b565b61139c565b61024c61040e3660046133c5565b6001600160a01b03166000908152610100602052604090205490565b610432611434565b6040516101c59190613a8d565b61045261044d3660046133c5565b61162a565b60408051825115158152602080840151151590820152918101511515908201526060016101c5565b6101b9610488366004613b38565b6116d3565b60006001600160e01b031982166380ac58cd60e01b14806104be57506001600160e01b03198216635b5e139f60e01b145b806104d957506301ffc9a760e01b6001600160e01b03198316145b92915050565b6060606580546104ee90613b66565b80601f016020809104026020016040519081016040528092919081815260200182805461051a90613b66565b80156105675780601f1061053c57610100808354040283529160200191610567565b820191906000526020600020905b81548152906001019060200180831161054a57829003601f168201915b5050505050905090565b600061057c82611701565b506000908152606960205260409020546001600160a01b031690565b60006105a382610c0e565b9050806001600160a01b0316836001600160a01b0316036106155760405162461bcd60e51b815260206004820152602160248201527f4552433732313a20617070726f76616c20746f2063757272656e74206f776e656044820152603960f91b60648201526084015b60405180910390fd5b336001600160a01b0382161480610631575061063181336116d3565b6106a35760405162461bcd60e51b815260206004820152603d60248201527f4552433732313a20617070726f76652063616c6c6572206973206e6f7420746f60448201527f6b656e206f776e6572206f7220617070726f76656420666f7220616c6c000000606482015260840161060c565b6106ad8383611726565b505050565b630a85bd0160e11b5b949350505050565b60006106ce60fe5490565b905090565b6106dd3382611794565b6106f95760405162461bcd60e51b815260040161060c90613ba0565b6106ad8383836117f2565b604080516002808252606082810190935260009190816020015b61074a604080516080810190915280600081526020016000815260200160608152602001606081525090565b81526020019060019003908161071e575050664d454d4245525360c81b60005260fb60205260408051608081019091526000805160206144e683398151915280549293509091829060ff1660018111156107a6576107a6613423565b60018111156107b7576107b7613423565b8152602001600182015481526020016002820180546107d590613b66565b80601f016020809104026020016040519081016040528092919081815260200182805461080190613b66565b801561084e5780601f106108235761010080835404028352916020019161084e565b820191906000526020600020905b81548152906001019060200180831161083157829003601f168201915b5050505050815260200160038201805461086790613b66565b80601f016020809104026020016040519081016040528092919081815260200182805461089390613b66565b80156108e05780601f106108b5576101008083540402835291602001916108e0565b820191906000526020600020905b8154815290600101906020018083116108c357829003601f168201915b505050919092525083915060009050815181106108ff576108ff613bed565b602090810291909101810191909152674b455956414c554560c01b60005260fb905260408051608081019091526000805160206144a08339815191528054829060ff16600181111561095357610953613423565b600181111561096457610964613423565b81526020016001820154815260200160028201805461098290613b66565b80601f01602080910402602001604051908101604052809291908181526020018280546109ae90613b66565b80156109fb5780601f106109d0576101008083540402835291602001916109fb565b820191906000526020600020905b8154815290600101906020018083116109de57829003601f168201915b50505050508152602001600382018054610a1490613b66565b80601f0160208091040260200160405190810160405280929190818152602001828054610a4090613b66565b8015610a8d5780601f10610a6257610100808354040283529160200191610a8d565b820191906000526020600020905b815481529060010190602001808311610a7057829003601f168201915b50505091909252508391506001905081518110610aac57610aac613bed565b6020908102919091010152919050565b60016101055460ff166002811115610ad657610ad6613423565b14610af65733604051632ea5767760e21b815260040161060c91906131fa565b336000908152610100602052604090205415610b275733604051630548cc1b60e01b815260040161060c91906131fa565b610b3033611951565b565b610b3a611271565b610b595733604051631de7241f60e31b815260040161060c91906131fa565b610b66858585858561199c565b5050505050565b600033610b78610f6f565b6001600160a01b031614905090565b6106ad83838360405180602001604052806000815250611293565b610baa611271565b610bc95733604051631de7241f60e31b815260040161060c91906131fa565b50565b33610bd5610f6f565b6001600160a01b031614610bfe573360405163412c7d7560e01b815260040161060c91906131fa565b60ff610c0a8282613c49565b5050565b600080610c1a83611d52565b90506001600160a01b0381166104d95760405162461bcd60e51b815260040161060c90613d08565b600054610100900460ff1615808015610c625750600054600160ff909116105b80610c835750610c7130611d6d565b158015610c83575060005460ff166001145b610ce65760405162461bcd60e51b815260206004820152602e60248201527f496e697469616c697a61626c653a20636f6e747261637420697320616c72656160448201526d191e481a5b9a5d1a585b1a5e995960921b606482015260840161060c565b6000805460ff191660011790558015610d09576000805461ff0019166101001790555b610d138888611d7c565b610d1d8484611dad565b610d5260405180604001604052806013815260200172466f756e64657220616464726573733a20257360681b81525087611e36565b610d916040518060400160405280602081526020017f436f6d6d756e697469657320436f6e747261637420416464726573733a20257381525086611e36565b664d454d4245525360c81b600090815260fb6020908152604051610dd7917f86e268c87961fb38e40a85030f9d3acccd58b51955b56fa22c56bd7aa1236ec49101613dad565b6040516020818303038152906040529050610e1081604051602001610dfc9190613dee565b604051602081830303815290604052610bfe565b61010284905561010980546001600160a01b0319166001600160a01b038816179055610e3b83611e7b565b610e4487611951565b506001600160a01b038616600090815261010160205260409020805460ff191660011790558015610eaf576000805461ff0019169055604051600181527f7f26b83ff96e1f2b6a682f133852f6798a09c465da95921460cefb38474024989060200160405180910390a15b5050505050505050565b60006001600160a01b038216610f235760405162461bcd60e51b815260206004820152602960248201527f4552433732313a2061646472657373207a65726f206973206e6f7420612076616044820152683634b21037bbb732b960b91b606482015260840161060c565b506001600160a01b031660009081526068602052604090205490565b610f47611271565b610f665733604051631de7241f60e31b815260040161060c91906131fa565b610bc981611e7b565b61010954610102546040516331a9108f60e11b815260048101919091526000916001600160a01b031690636352211e90602401602060405180830381865afa158015610fbf573d6000803e3d6000fd5b505050506040513d601f19601f820116820180604052508101906106ce9190613e53565b6060606680546104ee90613b66565b6001600160a01b0381166000908152610100602052604081205482910361102e573360405163129822cd60e31b815260040161060c91906131fa565b611036611271565b6110555733604051631de7241f60e31b815260040161060c91906131fa565b6001600160a01b0382166000908152610101602052604090205460ff166110915781604051631de7241f60e31b815260040161060c91906131fa565b611099610f6f565b6001600160a01b0316826001600160a01b0316036110cc57336040516317dfe6bb60e21b815260040161060c91906131fa565b506001600160a01b0316600090815261010160205260409020805460ff19169055565b60fb6020526000908152604090208054600182015460028301805460ff90931693919261111b90613b66565b80601f016020809104026020016040519081016040528092919081815260200182805461114790613b66565b80156111945780601f1061116957610100808354040283529160200191611194565b820191906000526020600020905b81548152906001019060200180831161117757829003601f168201915b5050505050908060030180546111a990613b66565b80601f01602080910402602001604051908101604052809291908181526020018280546111d590613b66565b80156112225780601f106111f757610100808354040283529160200191611222565b820191906000526020600020905b81548152906001019060200180831161120557829003601f168201915b5050505050905084565b610c0a338383611f5b565b60006101055460ff16600281111561125157611251613423565b14610af65733604051631dca17b960e21b815260040161060c91906131fa565b336000908152610101602052604081205460ff16806106ce57506106ce610b6d565b61129d3383611794565b6112b95760405162461bcd60e51b815260040161060c90613ba0565b6112c584848484612025565b50505050565b6001600160a01b03811660009081526101006020526040812054829103611307573360405163129822cd60e31b815260040161060c91906131fa565b61130f611271565b61132e5733604051631de7241f60e31b815260040161060c91906131fa565b6001600160a01b0382166000908152610101602052604090205460ff161561136b5781604051633444055760e01b815260040161060c91906131fa565b506001600160a01b0316600090815261010160205260409020805460ff19166001179055565b60606104d982612058565b6113a4611271565b6113c35733604051631de7241f60e31b815260040161060c91906131fa565b6001600160a01b03821660009081526101006020526040902054156113fd5781604051630548cc1b60e01b815260040161060c91906131fa565b61140682611951565b8015610c0a576001600160a01b038216600090815261010160205260409020805460ff191660011790555050565b61143c613015565b6040518060800160405280610103805461145590613b66565b80601f016020809104026020016040519081016040528092919081815260200182805461148190613b66565b80156114ce5780601f106114a3576101008083540402835291602001916114ce565b820191906000526020600020905b8154815290600101906020018083116114b157829003601f168201915b50505091835250506101045460209091019060ff1660018111156114f4576114f4613423565b8152604080518082019091526101058054602090930192829060ff16600281111561152157611521613423565b600281111561153257611532613423565b81526040805160608101909152600183018054602090930192829060ff16600381111561156157611561613423565b600381111561157257611572613423565b8152815461010090046001600160a01b0316602080830191909152600190920154604091820152919092529284526101088054845181840281018401909552808552948201949092509083018282801561161d57602002820191906000526020600020906000905b82829054906101000a90046001600160801b03166001600160801b031681526020019060100190602082600f010492830192600103820291508084116115da5790505b5050505050815250905090565b60408051606081018252600080825260208201819052918101829052906001600160a01b038316611659610f6f565b6001600160a01b031614905060405180606001604052808215158152602001828061169d57506001600160a01b0385166000908152610101602052604090205460ff165b1515815260200182806116c857506001600160a01b0385166000908152610100602052604090205415155b151590529392505050565b6001600160a01b039182166000908152606a6020908152604080832093909416825291909152205460ff1690565b61170a81612160565b610bc95760405162461bcd60e51b815260040161060c90613d08565b600081815260696020526040902080546001600160a01b0319166001600160a01b038416908117909155819061175b82610c0e565b6001600160a01b03167f8c5be1e5ebec7d5bd14f71427d1e84f3dd0314c0f7b2291e5b200ac8c7c3b92560405160405180910390a45050565b6000806117a083610c0e565b9050806001600160a01b0316846001600160a01b031614806117c757506117c781856116d3565b806106bb5750836001600160a01b03166117e084610571565b6001600160a01b031614949350505050565b826001600160a01b031661180582610c0e565b6001600160a01b03161461182b5760405162461bcd60e51b815260040161060c90613e70565b6001600160a01b03821661188d5760405162461bcd60e51b8152602060048201526024808201527f4552433732313a207472616e7366657220746f20746865207a65726f206164646044820152637265737360e01b606482015260840161060c565b61189a838383600161217d565b826001600160a01b03166118ad82610c0e565b6001600160a01b0316146118d35760405162461bcd60e51b815260040161060c90613e70565b600081815260696020908152604080832080546001600160a01b03199081169091556001600160a01b03878116808652606885528386208054600019019055908716808652838620805460010190558686526067909452828520805490921684179091559051849360008051602061458a83398151915291a4505050565b61195f60fe80546001019055565b600061196a60fe5490565b90506119768282612205565b61197f8161230e565b6001600160a01b0390911660009081526101006020526040902055565b674b455956414c554560c01b600090815260fb60205260408051608081019091526000805160206144a08339815191528054829060ff1660018111156119e4576119e4613423565b60018111156119f5576119f5613423565b815260200160018201548152602001600282018054611a1390613b66565b80601f0160208091040260200160405190810160405280929190818152602001828054611a3f90613b66565b8015611a8c5780601f10611a6157610100808354040283529160200191611a8c565b820191906000526020600020905b815481529060010190602001808311611a6f57829003601f168201915b50505050508152602001600382018054611aa590613b66565b80601f0160208091040260200160405190810160405280929190818152602001828054611ad190613b66565b8015611b1e5780601f10611af357610100808354040283529160200191611b1e565b820191906000526020600020905b815481529060010190602001808311611b0157829003601f168201915b50505050508152505090508060200151600003611b70576040516351f71f4760e11b815260206004820152600f60248201526e4b65792056616c7565205461626c6560881b604482015260640161060c565b6000611b7b33612626565b90506000611b884261263c565b90506000611ba6856004811115611ba157611ba1613423565b61263c565b90506000611c91856060015186602001516040518060600160405280602681526020016144c060269139611c0f8e8e8080601f0160208091040260200160405190810160405280939291908181526020018383808284376000920191909152506126cf92505050565b611c4e8d8d8080601f0160208091040260200160405190810160405280939291908181526020018383808284376000920191909152506126cf92505050565b611c578a6126cf565b611c60896126cf565b611c698b6126cf565b604051602001611c7d959493929190613eb5565b6040516020818303038152906040526126f8565b905046617a6903611cdc57611cd260405180604001604052806014815260200173496e73657274696e67206d656d6265723a20257360601b81525082612737565b5050505050610b66565b60fd54602086015160405163757ae82760e11b81526001600160a01b039092169163eaf5d04e91611d14913091908690600401613f4b565b600060405180830381600087803b158015611d2e57600080fd5b505af1158015611d42573d6000803e3d6000fd5b5050505050505050505050505050565b6000908152606760205260409020546001600160a01b031690565b6001600160a01b03163b151590565b600054610100900460ff16611da35760405162461bcd60e51b815260040161060c90613f72565b610c0a828261277c565b600054610100900460ff16611dd45760405162461bcd60e51b815260040161060c90613f72565b60fd80546001600160a01b0319166001600160a01b038416179055611df88161263c565b604051602001611e089190613fbd565b60405160208183030381529060405260fc9081611e259190613c49565b50611e2e6127bc565b610c0a612a34565b610c0a8282604051602401611e4c929190613ff7565b60408051601f198184030181529190526020810180516001600160e01b031663319af33360e01b179052612b1d565b805161010390611e8b9082613c49565b506020810151610104805460ff191660018381811115611ead57611ead613423565b0217905550604081015180516101058054909190829060ff19166001836002811115611edb57611edb613423565b02179055506020820151805160018084018054909291839160ff191690836003811115611f0a57611f0a613423565b021790555060208281015182546001600160a01b0390911661010002610100600160a81b031990911617825560409092015160019091015560608401518051610c0a94506101089350910190613042565b816001600160a01b0316836001600160a01b031603611fb85760405162461bcd60e51b815260206004820152601960248201527822a9219b99189d1030b8383937bb32903a379031b0b63632b960391b604482015260640161060c565b6001600160a01b038381166000818152606a6020908152604080832094871680845294825291829020805460ff191686151590811790915591519182527f17307eab39ab6107e8899845ad3d59bd9653f200f220920489ca2b5937696c31910160405180910390a3505050565b6120308484846117f2565b61203c84848484612b3e565b6112c55760405162461bcd60e51b815260040161060c90614021565b606061206382611701565b6000828152609760205260408120805461207c90613b66565b80601f01602080910402602001604051908101604052809291908181526020018280546120a890613b66565b80156120f55780601f106120ca576101008083540402835291602001916120f5565b820191906000526020600020905b8154815290600101906020018083116120d857829003601f168201915b50505050509050600061211360408051602081019091526000815290565b90508051600003612125575092915050565b81511561215757808260405160200161213f929190614073565b60405160208183030381529060405292505050919050565b6106bb84612c43565b60008061216c83611d52565b6001600160a01b0316141592915050565b60018111156112c5576001600160a01b038416156121c3576001600160a01b038416600090815260686020526040812080548392906121bd9084906140b8565b90915550505b6001600160a01b038316156112c5576001600160a01b038316600090815260686020526040812080548392906121fa9084906140cb565b909155505050505050565b6001600160a01b03821661225b5760405162461bcd60e51b815260206004820181905260248201527f4552433732313a206d696e7420746f20746865207a65726f2061646472657373604482015260640161060c565b61226481612160565b156122815760405162461bcd60e51b815260040161060c906140de565b61228f60008383600161217d565b61229881612160565b156122b55760405162461bcd60e51b815260040161060c906140de565b6001600160a01b038216600081815260686020908152604080832080546001019055848352606790915280822080546001600160a01b03191684179055518392919060008051602061458a833981519152908290a45050565b664d454d4245525360c81b600090815260fb60205260408051608081019091526000805160206144e68339815191528054829060ff16600181111561235557612355613423565b600181111561236657612366613423565b81526020016001820154815260200160028201805461238490613b66565b80601f01602080910402602001604051908101604052809291908181526020018280546123b090613b66565b80156123fd5780601f106123d2576101008083540402835291602001916123fd565b820191906000526020600020905b8154815290600101906020018083116123e057829003601f168201915b5050505050815260200160038201805461241690613b66565b80601f016020809104026020016040519081016040528092919081815260200182805461244290613b66565b801561248f5780601f106124645761010080835404028352916020019161248f565b820191906000526020600020905b81548152906001019060200180831161247257829003601f168201915b505050505081525050905080602001516000036124df576040516351f71f4760e11b815260206004820152600d60248201526c4d656d62657273205461626c6560981b604482015260640161060c565b60006124ea8361263c565b905060006124f733612626565b905060006125044261263c565b9050600061256b85606001518660200151604051806040016040528060188152602001771a590b081858d8dbdd5b9d0b0819185d1950dc99585d195960421b81525087612550886126cf565b612559886126cf565b604051602001611c7d93929190614114565b905046617a69036125b4576125ac60405180604001604052806014815260200173496e73657274696e67206d656d6265723a20257360601b81525082612737565b505050505050565b60fd54602086015160405163757ae82760e11b81526001600160a01b039092169163eaf5d04e916125ec913091908690600401613f4b565b600060405180830381600087803b15801561260657600080fd5b505af115801561261a573d6000803e3d6000fd5b50505050505050505050565b60606104d96001600160a01b0383166014612cb7565b6060600061264983612e52565b60010190506000816001600160401b038111156126685761266861325f565b6040519080825280601f01601f191660200182016040528015612692576020820181803683370190505b5090508181016020015b600019016f181899199a1a9b1b9c1cb0b131b232b360811b600a86061a8153600a850494508461269c575b509392505050565b6060816040516020016126e2919061416e565b6040516020818303038152906040529050919050565b606060006127068686612f28565b905080848460405160200161271d9392919061419c565b604051602081830303815290604052915050949350505050565b610c0a828260405160240161274d929190614228565b60408051601f198184030181529190526020810180516001600160e01b0316634b5c427760e01b179052612b1d565b600054610100900460ff166127a35760405162461bcd60e51b815260040161060c90613f72565b60656127af8382613c49565b5060666106ad8282613c49565b664d454d4245525360c81b60005260fb6020527f86e268c87961fb38e40a85030f9d3acccd58b51955b56fa22c56bd7aa1236ec3546000805160206144e683398151915290156128245780600201604051633e0f514960e01b815260040161060c919061424d565b805460ff1916815560405161283e9060fc906020016142d8565b60405160208183030381529060405281600301908161285d9190613c49565b5060fd54604080516060810190915260368082526001600160a01b0390921691633a9151b0913091612924919061455460208301398560030180546128a190613b66565b80601f01602080910402602001604051908101604052809291908181526020018280546128cd90613b66565b801561291a5780601f106128ef5761010080835404028352916020019161291a565b820191906000526020600020905b8154815290600101906020018083116128fd57829003601f168201915b5050505050612f66565b6040518363ffffffff1660e01b81526004016129419291906142fc565b6020604051808303816000875af1158015612960573d6000803e3d6000fd5b505050506040513d601f19601f820116820180604052508101906129849190614320565b6001820155600381018054612a25919061299d90613b66565b80601f01602080910402602001604051908101604052809291908181526020018280546129c990613b66565b8015612a165780601f106129eb57610100808354040283529160200191612a16565b820191906000526020600020905b8154815290600101906020018083116129f957829003601f168201915b50505050508260010154612f28565b6002820190610c0a9082613c49565b674b455956414c554560c01b60005260fb6020527f4a6f509d2fb27c497f2a5da3b090969267e49a91a64c342de0818ca8785bfc10546000805160206144a08339815191529015612a9d5780600201604051633e0f514960e01b815260040161060c919061424d565b805460ff19166001178155604051612aba9060fc90602001614339565b604051602081830303815290604052816003019081612ad99190613c49565b5060fd546040805160808101909152604e8082526001600160a01b0390921691633a9151b0913091612924919061450660208301398560030180546128a190613b66565b80516a636f6e736f6c652e6c6f67602083016000808483855afa5050505050565b6000612b52846001600160a01b0316611d6d565b15612c3b57604051630a85bd0160e11b81526001600160a01b0385169063150b7a0290612b8990339089908890889060040161435f565b6020604051808303816000875af1925050508015612bc4575060408051601f3d908101601f19168201909252612bc19181019061439c565b60015b612c21573d808015612bf2576040519150601f19603f3d011682016040523d82523d6000602084013e612bf7565b606091505b508051600003612c195760405162461bcd60e51b815260040161060c90614021565b805181602001fd5b6001600160e01b031916630a85bd0160e11b1490506106bb565b5060016106bb565b6060612c4e82611701565b6000612c6560408051602081019091526000815290565b90506000815111612c855760405180602001604052806000815250612cb0565b80612c8f84612f85565b604051602001612ca0929190614073565b6040516020818303038152906040525b9392505050565b60606000612cc68360026143b9565b612cd19060026140cb565b6001600160401b03811115612ce857612ce861325f565b6040519080825280601f01601f191660200182016040528015612d12576020820181803683370190505b509050600360fc1b81600081518110612d2d57612d2d613bed565b60200101906001600160f81b031916908160001a905350600f60fb1b81600181518110612d5c57612d5c613bed565b60200101906001600160f81b031916908160001a9053506000612d808460026143b9565b612d8b9060016140cb565b90505b6001811115612e03576f181899199a1a9b1b9c1cb0b131b232b360811b85600f1660108110612dbf57612dbf613bed565b1a60f81b828281518110612dd557612dd5613bed565b60200101906001600160f81b031916908160001a90535060049490941c93612dfc816143d0565b9050612d8e565b508315612cb05760405162461bcd60e51b815260206004820181905260248201527f537472696e67733a20686578206c656e67746820696e73756666696369656e74604482015260640161060c565b60008072184f03e93ff9f4daa797ed6e38ed64bf6a1f0160401b8310612e915772184f03e93ff9f4daa797ed6e38ed64bf6a1f0160401b830492506040015b6904ee2d6d415b85acef8160201b8310612ebb576904ee2d6d415b85acef8160201b830492506020015b662386f26fc100008310612ed957662386f26fc10000830492506010015b6305f5e1008310612ef1576305f5e100830492506008015b6127108310612f0557612710830492506004015b60648310612f17576064830492506002015b600a83106104d95760010192915050565b606082612f344661263c565b612f3d8461263c565b604051602001612f4f939291906143e7565b604051602081830303815290604052905092915050565b606081612f724661263c565b84604051602001612f4f93929190614419565b60606000612f9283612e52565b60010190506000816001600160401b03811115612fb157612fb161325f565b6040519080825280601f01601f191660200182016040528015612fdb576020820181803683370190505b5090508181016020015b600019016f181899199a1a9b1b9c1cb0b131b232b360811b600a86061a8153600a8504945084156126c757612fe5565b6040805160808101825260608152600060208201529081016130356130fa565b8152602001606081525090565b828054828255906000526020600020906001016002900481019282156130ea5791602002820160005b838211156130b557835183826101000a8154816001600160801b0302191690836001600160801b031602179055509260200192601001602081600f0104928301926001030261306b565b80156130e85782816101000a8154906001600160801b030219169055601001602081600f010492830192600103026130b5565b505b506130f6929150613136565b5090565b6040805180820190915280600081526020016131316040805160608101909152806000815260006020820181905260409091015290565b905290565b5b808211156130f65760008155600101613137565b6001600160e01b031981168114610bc957600080fd5b60006020828403121561317357600080fd5b8135612cb08161314b565b60005b83811015613199578181015183820152602001613181565b50506000910152565b600081518084526131ba81602086016020860161317e565b601f01601f19169290920160200192915050565b602081526000612cb060208301846131a2565b6000602082840312156131f357600080fd5b5035919050565b6001600160a01b0391909116815260200190565b6001600160a01b0381168114610bc957600080fd5b803561322e8161320e565b919050565b6000806040838503121561324657600080fd5b82356132518161320e565b946020939093013593505050565b634e487b7160e01b600052604160045260246000fd5b604051608081016001600160401b03811182821017156132975761329761325f565b60405290565b604051606081016001600160401b03811182821017156132975761329761325f565b604051601f8201601f191681016001600160401b03811182821017156132e7576132e761325f565b604052919050565b60006001600160401b038311156133085761330861325f565b61331b601f8401601f19166020016132bf565b905082815283838301111561332f57600080fd5b828260208301376000602084830101529392505050565b6000806000806080858703121561335c57600080fd5b84356133678161320e565b935060208501356133778161320e565b92506040850135915060608501356001600160401b0381111561339957600080fd5b8501601f810187136133aa57600080fd5b6133b9878235602084016132ef565b91505092959194509250565b6000602082840312156133d757600080fd5b8135612cb08161320e565b6000806000606084860312156133f757600080fd5b83356134028161320e565b925060208401356134128161320e565b929592945050506040919091013590565b634e487b7160e01b600052602160045260246000fd5b60028110610bc957610bc9613423565b60006020808301818452808551808352604092508286019150828160051b87010184880160005b838110156134e157603f1989840301855281516080815161349081613439565b85528189015189860152878201518886018290526134b0828701826131a2565b915050606080830151925085820381870152506134cd81836131a2565b968901969450505090860190600101613470565b509098975050505050505050565b60008083601f84011261350157600080fd5b5081356001600160401b0381111561351857600080fd5b60208301915083602082850101111561353057600080fd5b9250929050565b60008060008060006060868803121561354f57600080fd5b85356001600160401b038082111561356657600080fd5b61357289838a016134ef565b9097509550602088013591508082111561358b57600080fd5b50613598888289016134ef565b9094509250506040860135600581106135b057600080fd5b809150509295509295909350565b600082601f8301126135cf57600080fd5b612cb0838335602085016132ef565b6000602082840312156135f057600080fd5b81356001600160401b038082111561360757600080fd5b908301906080828603121561361b57600080fd5b613623613275565b82358281111561363257600080fd5b61363e878286016135be565b82525060208301358281111561365357600080fd5b61365f878286016135be565b60208301525060408301358281111561367757600080fd5b613683878286016135be565b60408301525060608301358281111561369b57600080fd5b6136a7878286016135be565b60608301525095945050505050565b6000602082840312156136c857600080fd5b81356001600160401b038111156136de57600080fd5b6106bb848285016135be565b600082601f8301126136fb57600080fd5b813560206001600160401b038211156137165761371661325f565b8160051b6137258282016132bf565b928352848101820192828101908785111561373f57600080fd5b83870192505b848310156137745782356001600160801b03811681146137655760008081fd5b82529183019190830190613745565b979650505050505050565b600081830360e081121561379257600080fd5b61379a613275565b915082356001600160401b03808211156137b357600080fd5b6137bf868387016135be565b845260208501359150600282106137d557600080fd5b816020850152604091506080603f19840112156137f157600080fd5b8151828101818110838211171561380a5761380a61325f565b8352858301356003811061381d57600080fd5b81526060605f198501121561383157600080fd5b61383961329d565b935060608601356004811061384d57600080fd5b8452608086013561385d8161320e565b8060208601525060a08601358385015283602082015280838601525060c085013592508083111561388d57600080fd5b505061389b848285016136ea565b60608301525092915050565b600080600080600080600060e0888a0312156138c257600080fd5b87356001600160401b03808211156138d957600080fd5b6138e58b838c016135be565b985060208a01359150808211156138fb57600080fd5b6139078b838c016135be565b975060408a013591506139198261320e565b90955060608901359061392b8261320e565b81955061393a60808b01613223565b945060a08a0135935060c08a013591508082111561395757600080fd5b506139648a828b0161377f565b91505092959891949750929550565b60006020828403121561398557600080fd5b81356001600160401b0381111561399b57600080fd5b6106bb8482850161377f565b6000602082840312156139b957600080fd5b81356001600160c01b031981168114612cb057600080fd5b6139da85613439565b8481528360208201526080604082015260006139f960808301856131a2565b828103606084015261377481856131a2565b60008060408385031215613a1e57600080fd5b8235613a298161320e565b915060208301358015158114613a3e57600080fd5b809150509250929050565b600081518084526020808501945080840160005b83811015613a825781516001600160801b031687529582019590820190600101613a5d565b509495945050505050565b602081526000825160e06020840152613aaa6101008401826131a2565b90506020840151613aba81613439565b806040850152506040840151805160038110613ad857613ad8613423565b606085015260200151805160048110613af357613af3613423565b608085015260208101516001600160a01b031660a08501526040015160c08401526060840151838203601f190160e0850152613b2f8282613a49565b95945050505050565b60008060408385031215613b4b57600080fd5b8235613b568161320e565b91506020830135613a3e8161320e565b600181811c90821680613b7a57607f821691505b602082108103613b9a57634e487b7160e01b600052602260045260246000fd5b50919050565b6020808252602d908201527f4552433732313a2063616c6c6572206973206e6f7420746f6b656e206f776e6560408201526c1c881bdc88185c1c1c9bdd9959609a1b606082015260800190565b634e487b7160e01b600052603260045260246000fd5b601f8211156106ad57600081815260208120601f850160051c81016020861015613c2a5750805b601f850160051c820191505b818110156125ac57828155600101613c36565b81516001600160401b03811115613c6257613c6261325f565b613c7681613c708454613b66565b84613c03565b602080601f831160018114613cab5760008415613c935750858301515b600019600386901b1c1916600185901b1785556125ac565b600085815260208120601f198616915b82811015613cda57888601518255948401946001909101908401613cbb565b5085821015613cf85787850151600019600388901b60f8161c191681555b5050505050600190811b01905550565b602080825260189082015277115490cdcc8c4e881a5b9d985b1a59081d1bdad95b88125160421b604082015260600190565b60008154613d4781613b66565b60018281168015613d5f5760018114613d7457613da3565b60ff1984168752821515830287019450613da3565b8560005260208060002060005b85811015613d9a5781548a820152908401908201613d81565b50505082870194505b5050505092915050565b6d53454c4543542b2a2b46524f4d2b60901b81526000613dd0600e830184613d3a565b6d2b57484552452b69642b2533442b60901b8152600e019392505050565b7f68747470733a2f2f746573746e6574732e7461626c656c616e642e6e6574776f815276726b2f71756572793f756e777261703d7472756526733d60481b602082015260008251613e4681603785016020870161317e565b9190910160370192915050565b600060208284031215613e6557600080fd5b8151612cb08161320e565b60208082526025908201527f4552433732313a207472616e736665722066726f6d20696e636f72726563742060408201526437bbb732b960d91b606082015260800190565b60008651613ec7818460208b0161317e565b8083019050600b60fa1b8082528751613ee7816001850160208c0161317e565b600192019182018190528651613f04816002850160208b0161317e565b600292019182018190528551613f21816003850160208a0161317e565b60039201918201528351613f3c81600484016020880161317e565b01600401979650505050505050565b60018060a01b0384168152826020820152606060408201526000613b2f60608301846131a2565b6020808252602b908201527f496e697469616c697a61626c653a20636f6e7472616374206973206e6f74206960408201526a6e697469616c697a696e6760a81b606082015260800190565b71656d62726163655f636f6d6d756e6974795f60701b815260008251613fea81601285016020870161317e565b9190910160120192915050565b60408152600061400a60408301856131a2565b905060018060a01b03831660208301529392505050565b60208082526032908201527f4552433732313a207472616e7366657220746f206e6f6e20455243373231526560408201527131b2b4bb32b91034b6b83632b6b2b73a32b960711b606082015260800190565b6000835161408581846020880161317e565b83519083019061409981836020880161317e565b01949350505050565b634e487b7160e01b600052601160045260246000fd5b818103818111156104d9576104d96140a2565b808201808211156104d9576104d96140a2565b6020808252601c908201527b115490cdcc8c4e881d1bdad95b88185b1c9958591e481b5a5b9d195960221b604082015260600190565b6000845161412681846020890161317e565b8083019050600b60fa1b8082528551614146816001850160208a0161317e565b6001920191820152835161416181600284016020880161317e565b0160020195945050505050565b6000602760f81b808352835161418b81600186016020880161317e565b600193019283015250600201919050565b6b024a729a2a92a1024a72a27960a51b8152600084516141c381600c85016020890161317e565b600560fb1b600c9184019182015284516141e481600d84016020890161317e565b67052ac8298aa8aa6560c31b600d9290910191820152835161420d81601584016020880161317e565b602960f81b6015929091019182015260160195945050505050565b60408152600061423b60408301856131a2565b8281036020840152613b2f81856131a2565b600060208083526000845461426181613b66565b80848701526040600180841660008114614282576001811461429c576142ca565b60ff1985168984015283151560051b8901830195506142ca565b896000528660002060005b858110156142c25781548b82018601529083019088016142a7565b8a0184019650505b509398975050505050505050565b60006142e48284613d3a565b675f6d656d6265727360c01b81526008019392505050565b6001600160a01b03831681526040602082018190526000906106bb908301846131a2565b60006020828403121561433257600080fd5b5051919050565b60006143458284613d3a565b695f6b65795f76616c756560b01b8152600a019392505050565b6001600160a01b0385811682528416602082015260408101839052608060608201819052600090614392908301846131a2565b9695505050505050565b6000602082840312156143ae57600080fd5b8151612cb08161314b565b80820281158282048414176104d9576104d96140a2565b6000816143df576143df6140a2565b506000190190565b600084516143f981846020890161317e565b8083019050605f60f81b8082528551614146816001850160208a0161317e565b6c021a922a0aa22902a20a126229609d1b81526000845161444181600d85016020890161317e565b605f60f81b600d91840191820152845161446281600e84016020890161317e565b600560fb1b600e9290910191820152835161448481600f84016020880161317e565b602960f81b600f92909101918201526010019594505050505056fe4a6f509d2fb27c497f2a5da3b090969267e49a91a64c342de0818ca8785bfc0f6b2c20762c206163636f756e742c20656e6372797074696f6e2c20646174654372656174656486e268c87961fb38e40a85030f9d3acccd58b51955b56fa22c56bd7aa1236ec26b2054455854205052494d415259204b45592c207620544558542c206163636f756e7420544558542c20656e6372797074696f6e20494e54454745522c2064617465437265617465642054455854696420494e5445474552205052494d415259204b45592c206163636f756e7420544558542c2064617465437265617465642054455854ddf252ad1be2c89b69c2b068fc378daa952ba7f163c4a11628f55a4df523b3efa164736f6c6343000811000a",
  "linkReferences": {},
  "deployedLinkReferences": {}
}