{
  "_format": "hh-sol-artifact-1",
  "contractName": "EmbraceCommunity",
  "sourceName": "contracts/EmbraceCommunity.sol",
  "abi": [
    {
      "inputs": [
        {
          "internalType": "address",
          "name": "member",
          "type": "address"
        }
      ],
      "name": "ErrorMemberExists",
      "type": "error"
    },
    {
      "inputs": [
        {
          "internalType": "string",
          "name": "tableName",
          "type": "string"
        }
      ],
      "name": "ErrorTableExists",
      "type": "error"
    },
    {
      "anonymous": false,
      "inputs": [
        {
          "indexed": true,
          "internalType": "address",
          "name": "owner",
          "type": "address"
        },
        {
          "indexed": true,
          "internalType": "address",
          "name": "approved",
          "type": "address"
        },
        {
          "indexed": true,
          "internalType": "uint256",
          "name": "tokenId",
          "type": "uint256"
        }
      ],
      "name": "Approval",
      "type": "event"
    },
    {
      "anonymous": false,
      "inputs": [
        {
          "indexed": true,
          "internalType": "address",
          "name": "owner",
          "type": "address"
        },
        {
          "indexed": true,
          "internalType": "address",
          "name": "operator",
          "type": "address"
        },
        {
          "indexed": false,
          "internalType": "bool",
          "name": "approved",
          "type": "bool"
        }
      ],
      "name": "ApprovalForAll",
      "type": "event"
    },
    {
      "anonymous": false,
      "inputs": [
        {
          "indexed": false,
          "internalType": "uint8",
          "name": "version",
          "type": "uint8"
        }
      ],
      "name": "Initialized",
      "type": "event"
    },
    {
      "anonymous": false,
      "inputs": [
        {
          "indexed": true,
          "internalType": "bytes32",
          "name": "role",
          "type": "bytes32"
        },
        {
          "indexed": true,
          "internalType": "bytes32",
          "name": "previousAdminRole",
          "type": "bytes32"
        },
        {
          "indexed": true,
          "internalType": "bytes32",
          "name": "newAdminRole",
          "type": "bytes32"
        }
      ],
      "name": "RoleAdminChanged",
      "type": "event"
    },
    {
      "anonymous": false,
      "inputs": [
        {
          "indexed": true,
          "internalType": "bytes32",
          "name": "role",
          "type": "bytes32"
        },
        {
          "indexed": true,
          "internalType": "address",
          "name": "account",
          "type": "address"
        },
        {
          "indexed": true,
          "internalType": "address",
          "name": "sender",
          "type": "address"
        }
      ],
      "name": "RoleGranted",
      "type": "event"
    },
    {
      "anonymous": false,
      "inputs": [
        {
          "indexed": true,
          "internalType": "bytes32",
          "name": "role",
          "type": "bytes32"
        },
        {
          "indexed": true,
          "internalType": "address",
          "name": "account",
          "type": "address"
        },
        {
          "indexed": true,
          "internalType": "address",
          "name": "sender",
          "type": "address"
        }
      ],
      "name": "RoleRevoked",
      "type": "event"
    },
    {
      "anonymous": false,
      "inputs": [
        {
          "indexed": true,
          "internalType": "address",
          "name": "from",
          "type": "address"
        },
        {
          "indexed": true,
          "internalType": "address",
          "name": "to",
          "type": "address"
        },
        {
          "indexed": true,
          "internalType": "uint256",
          "name": "tokenId",
          "type": "uint256"
        }
      ],
      "name": "Transfer",
      "type": "event"
    },
    {
      "inputs": [],
      "name": "DEFAULT_ADMIN_ROLE",
      "outputs": [
        {
          "internalType": "bytes32",
          "name": "",
          "type": "bytes32"
        }
      ],
      "stateMutability": "view",
      "type": "function"
    },
    {
      "inputs": [
        {
          "internalType": "address",
          "name": "to",
          "type": "address"
        },
        {
          "internalType": "uint256",
          "name": "tokenId",
          "type": "uint256"
        }
      ],
      "name": "approve",
      "outputs": [],
      "stateMutability": "nonpayable",
      "type": "function"
    },
    {
      "inputs": [
        {
          "internalType": "address",
          "name": "owner",
          "type": "address"
        }
      ],
      "name": "balanceOf",
      "outputs": [
        {
          "internalType": "uint256",
          "name": "",
          "type": "uint256"
        }
      ],
      "stateMutability": "view",
      "type": "function"
    },
    {
      "inputs": [],
      "name": "createKeyValueTable",
      "outputs": [],
      "stateMutability": "nonpayable",
      "type": "function"
    },
    {
      "inputs": [],
      "name": "createMemberTable",
      "outputs": [],
      "stateMutability": "nonpayable",
      "type": "function"
    },
    {
      "inputs": [
        {
          "internalType": "uint256",
          "name": "tokenId",
          "type": "uint256"
        }
      ],
      "name": "getApproved",
      "outputs": [
        {
          "internalType": "address",
          "name": "",
          "type": "address"
        }
      ],
      "stateMutability": "view",
      "type": "function"
    },
    {
      "inputs": [],
      "name": "getCommunityData",
      "outputs": [
        {
          "components": [
            {
              "internalType": "string",
              "name": "handle",
              "type": "string"
            },
            {
              "internalType": "enum Visibility",
              "name": "visibility",
              "type": "uint8"
            },
            {
              "internalType": "enum Membership",
              "name": "membership",
              "type": "uint8"
            },
            {
              "internalType": "uint128[]",
              "name": "apps",
              "type": "uint128[]"
            }
          ],
          "internalType": "struct CommunityContractData",
          "name": "",
          "type": "tuple"
        }
      ],
      "stateMutability": "view",
      "type": "function"
    },
    {
      "inputs": [],
      "name": "getFounder",
      "outputs": [
        {
          "internalType": "address",
          "name": "",
          "type": "address"
        }
      ],
      "stateMutability": "view",
      "type": "function"
    },
    {
      "inputs": [
        {
          "internalType": "bytes32",
          "name": "role",
          "type": "bytes32"
        }
      ],
      "name": "getRoleAdmin",
      "outputs": [
        {
          "internalType": "bytes32",
          "name": "",
          "type": "bytes32"
        }
      ],
      "stateMutability": "view",
      "type": "function"
    },
    {
      "inputs": [],
      "name": "getTables",
      "outputs": [
        {
          "components": [
            {
              "internalType": "uint256",
              "name": "id",
              "type": "uint256"
            },
            {
              "internalType": "string",
              "name": "name",
              "type": "string"
            }
          ],
          "internalType": "struct EmbraceCommunity.Table[]",
          "name": "",
          "type": "tuple[]"
        }
      ],
      "stateMutability": "view",
      "type": "function"
    },
    {
      "inputs": [
        {
          "internalType": "bytes32",
          "name": "role",
          "type": "bytes32"
        },
        {
          "internalType": "address",
          "name": "account",
          "type": "address"
        }
      ],
      "name": "grantRole",
      "outputs": [],
      "stateMutability": "nonpayable",
      "type": "function"
    },
    {
      "inputs": [
        {
          "internalType": "bytes32",
          "name": "role",
          "type": "bytes32"
        },
        {
          "internalType": "address",
          "name": "account",
          "type": "address"
        }
      ],
      "name": "hasRole",
      "outputs": [
        {
          "internalType": "bool",
          "name": "",
          "type": "bool"
        }
      ],
      "stateMutability": "view",
      "type": "function"
    },
    {
      "inputs": [
        {
          "internalType": "string",
          "name": "_name",
          "type": "string"
        },
        {
          "internalType": "string",
          "name": "_symbol",
          "type": "string"
        },
        {
          "internalType": "address",
          "name": "_tablelandRegistryAddress",
          "type": "address"
        },
        {
          "internalType": "uint256",
          "name": "_communityId",
          "type": "uint256"
        }
      ],
      "name": "initialize",
      "outputs": [],
      "stateMutability": "nonpayable",
      "type": "function"
    },
    {
      "inputs": [
        {
          "internalType": "uint256",
          "name": "_memberId",
          "type": "uint256"
        }
      ],
      "name": "insertMember",
      "outputs": [],
      "stateMutability": "nonpayable",
      "type": "function"
    },
    {
      "inputs": [
        {
          "internalType": "address",
          "name": "owner",
          "type": "address"
        },
        {
          "internalType": "address",
          "name": "operator",
          "type": "address"
        }
      ],
      "name": "isApprovedForAll",
      "outputs": [
        {
          "internalType": "bool",
          "name": "",
          "type": "bool"
        }
      ],
      "stateMutability": "view",
      "type": "function"
    },
    {
      "inputs": [],
      "name": "join",
      "outputs": [],
      "stateMutability": "nonpayable",
      "type": "function"
    },
    {
      "inputs": [],
      "name": "keyValueTable",
      "outputs": [
        {
          "internalType": "uint256",
          "name": "id",
          "type": "uint256"
        },
        {
          "internalType": "string",
          "name": "name",
          "type": "string"
        }
      ],
      "stateMutability": "view",
      "type": "function"
    },
    {
      "inputs": [],
      "name": "memberTable",
      "outputs": [
        {
          "internalType": "uint256",
          "name": "id",
          "type": "uint256"
        },
        {
          "internalType": "string",
          "name": "name",
          "type": "string"
        }
      ],
      "stateMutability": "view",
      "type": "function"
    },
    {
      "inputs": [
        {
          "internalType": "address",
          "name": "",
          "type": "address"
        }
      ],
      "name": "memberToTokenId",
      "outputs": [
        {
          "internalType": "uint256",
          "name": "",
          "type": "uint256"
        }
      ],
      "stateMutability": "view",
      "type": "function"
    },
    {
      "inputs": [],
      "name": "name",
      "outputs": [
        {
          "internalType": "string",
          "name": "",
          "type": "string"
        }
      ],
      "stateMutability": "view",
      "type": "function"
    },
    {
      "inputs": [
        {
          "internalType": "address",
          "name": "",
          "type": "address"
        },
        {
          "internalType": "address",
          "name": "",
          "type": "address"
        },
        {
          "internalType": "uint256",
          "name": "",
          "type": "uint256"
        },
        {
          "internalType": "bytes",
          "name": "",
          "type": "bytes"
        }
      ],
      "name": "onERC721Received",
      "outputs": [
        {
          "internalType": "bytes4",
          "name": "",
          "type": "bytes4"
        }
      ],
      "stateMutability": "nonpayable",
      "type": "function"
    },
    {
      "inputs": [
        {
          "internalType": "uint256",
          "name": "tokenId",
          "type": "uint256"
        }
      ],
      "name": "ownerOf",
      "outputs": [
        {
          "internalType": "address",
          "name": "",
          "type": "address"
        }
      ],
      "stateMutability": "view",
      "type": "function"
    },
    {
      "inputs": [
        {
          "internalType": "bytes32",
          "name": "role",
          "type": "bytes32"
        },
        {
          "internalType": "address",
          "name": "account",
          "type": "address"
        }
      ],
      "name": "renounceRole",
      "outputs": [],
      "stateMutability": "nonpayable",
      "type": "function"
    },
    {
      "inputs": [
        {
          "internalType": "bytes32",
          "name": "role",
          "type": "bytes32"
        },
        {
          "internalType": "address",
          "name": "account",
          "type": "address"
        }
      ],
      "name": "revokeRole",
      "outputs": [],
      "stateMutability": "nonpayable",
      "type": "function"
    },
    {
      "inputs": [
        {
          "internalType": "address",
          "name": "from",
          "type": "address"
        },
        {
          "internalType": "address",
          "name": "to",
          "type": "address"
        },
        {
          "internalType": "uint256",
          "name": "tokenId",
          "type": "uint256"
        }
      ],
      "name": "safeTransferFrom",
      "outputs": [],
      "stateMutability": "nonpayable",
      "type": "function"
    },
    {
      "inputs": [
        {
          "internalType": "address",
          "name": "from",
          "type": "address"
        },
        {
          "internalType": "address",
          "name": "to",
          "type": "address"
        },
        {
          "internalType": "uint256",
          "name": "tokenId",
          "type": "uint256"
        },
        {
          "internalType": "bytes",
          "name": "data",
          "type": "bytes"
        }
      ],
      "name": "safeTransferFrom",
      "outputs": [],
      "stateMutability": "nonpayable",
      "type": "function"
    },
    {
      "inputs": [
        {
          "internalType": "address",
          "name": "operator",
          "type": "address"
        },
        {
          "internalType": "bool",
          "name": "approved",
          "type": "bool"
        }
      ],
      "name": "setApprovalForAll",
      "outputs": [],
      "stateMutability": "nonpayable",
      "type": "function"
    },
    {
      "inputs": [
        {
          "internalType": "address",
          "name": "_address",
          "type": "address"
        }
      ],
      "name": "setCommunitiesContractAddress",
      "outputs": [],
      "stateMutability": "nonpayable",
      "type": "function"
    },
    {
      "inputs": [
        {
          "components": [
            {
              "internalType": "string",
              "name": "handle",
              "type": "string"
            },
            {
              "internalType": "enum Visibility",
              "name": "visibility",
              "type": "uint8"
            },
            {
              "internalType": "enum Membership",
              "name": "membership",
              "type": "uint8"
            },
            {
              "internalType": "uint128[]",
              "name": "apps",
              "type": "uint128[]"
            }
          ],
          "internalType": "struct CommunityContractData",
          "name": "_communityData",
          "type": "tuple"
        }
      ],
      "name": "setCommunityData",
      "outputs": [],
      "stateMutability": "nonpayable",
      "type": "function"
    },
    {
      "inputs": [
        {
          "internalType": "bytes4",
          "name": "interfaceId",
          "type": "bytes4"
        }
      ],
      "name": "supportsInterface",
      "outputs": [
        {
          "internalType": "bool",
          "name": "",
          "type": "bool"
        }
      ],
      "stateMutability": "view",
      "type": "function"
    },
    {
      "inputs": [],
      "name": "symbol",
      "outputs": [
        {
          "internalType": "string",
          "name": "",
          "type": "string"
        }
      ],
      "stateMutability": "view",
      "type": "function"
    },
    {
      "inputs": [
        {
          "internalType": "uint256",
          "name": "tokenId",
          "type": "uint256"
        }
      ],
      "name": "tokenURI",
      "outputs": [
        {
          "internalType": "string",
          "name": "",
          "type": "string"
        }
      ],
      "stateMutability": "view",
      "type": "function"
    },
    {
      "inputs": [],
      "name": "totalSupply",
      "outputs": [
        {
          "internalType": "uint256",
          "name": "",
          "type": "uint256"
        }
      ],
      "stateMutability": "view",
      "type": "function"
    },
    {
      "inputs": [
        {
          "internalType": "address",
          "name": "from",
          "type": "address"
        },
        {
          "internalType": "address",
          "name": "to",
          "type": "address"
        },
        {
          "internalType": "uint256",
          "name": "tokenId",
          "type": "uint256"
        }
      ],
      "name": "transferFrom",
      "outputs": [],
      "stateMutability": "nonpayable",
      "type": "function"
    }
  ],
  "bytecode": "0x608060405234801561001057600080fd5b506130d7806100206000396000f3fe608060405234801561001057600080fd5b50600436106101965760003560e01c806301ffc9a71461019b57806306fdde03146101c3578063081812fc146101d8578063095ea7b3146101f8578063150b7a021461020d57806318160ddd14610239578063239ac4161461024f57806323b872dd14610270578063248a9ca31461028357806328343c34146102965780632f2ff15d146102ab578063351e2339146102be57806336568abe146102c657806342842e0e146102d95780636352211e146102ec578063668bf428146102ff57806370a082311461031557806379e6681c1461032857806391d1485414610359578063946bcc301461036c57806395d89b4114610374578063a217fddf1461037c578063a22cb46514610384578063adaf1cab14610397578063b43bdada146103aa578063b688a363146103b2578063b75b238c146103ba578063b88d4fde146103c2578063c87b56dd146103d5578063d547741f146103e8578063daee9ac9146103fb578063e985e9c514610410578063f542033f14610423578063f6228cad14610436575b600080fd5b6101ae6101a93660046121de565b610449565b60405190151581526020015b60405180910390f35b6101cb61045a565b6040516101ba919061224b565b6101eb6101e636600461225e565b6104ec565b6040516101ba9190612277565b61020b6102063660046122a0565b610513565b005b61022061021b366004612391565b61062d565b6040516001600160e01b031990911681526020016101ba565b61024161063e565b6040519081526020016101ba565b61024161025d366004612410565b6101396020526000908152604090205481565b61020b61027e36600461242d565b61064f565b61024161029136600461225e565b610680565b61029e610695565b6040516101ba919061246e565b61020b6102b93660046124e2565b61086e565b61020b61088a565b61020b6102d43660046124e2565b61098e565b61020b6102e736600461242d565b610a08565b6101eb6102fa36600461225e565b610a23565b610307610a57565b6040516101ba929190612512565b610241610323366004612410565b610af0565b61020b610336366004612410565b61013a80546001600160a01b0319166001600160a01b0392909216919091179055565b6101ae6103673660046124e2565b610b76565b6101eb610ba1565b6101cb610c15565b610241600081565b61020b61039236600461252b565b610c24565b61020b6103a536600461258b565b610c2f565b61020b610ca9565b61020b610dbf565b610307610e4f565b61020b6103d0366004612391565b610e65565b6101cb6103e336600461225e565b610e9d565b61020b6103f63660046124e2565b610ea8565b610403610ec4565b6040516101ba91906126f4565b6101ae61041e366004612791565b611060565b61020b6104313660046127bf565b61108e565b61020b61044436600461225e565b611271565b600061045482611316565b92915050565b6060606580546104699061283c565b80601f01602080910402602001604051908101604052809291908181526020018280546104959061283c565b80156104e25780601f106104b7576101008083540402835291602001916104e2565b820191906000526020600020905b8154815290600101906020018083116104c557829003601f168201915b5050505050905090565b60006104f78261133b565b506000908152606960205260409020546001600160a01b031690565b600061051e82610a23565b9050806001600160a01b0316836001600160a01b0316036105905760405162461bcd60e51b815260206004820152602160248201527f4552433732313a20617070726f76616c20746f2063757272656e74206f776e656044820152603960f91b60648201526084015b60405180910390fd5b336001600160a01b03821614806105ac57506105ac8133611060565b61061e5760405162461bcd60e51b815260206004820152603d60248201527f4552433732313a20617070726f76652063616c6c6572206973206e6f7420746f60448201527f6b656e206f776e6572206f7220617070726f76656420666f7220616c6c0000006064820152608401610587565b6106288383611363565b505050565b630a85bd0160e11b5b949350505050565b600061064a61012d5490565b905090565b61065933826113d1565b6106755760405162461bcd60e51b815260040161058790612876565b61062883838361142f565b600090815260fb602052604090206001015490565b604080516002808252606082810190935260009190816020015b6040805180820190915260008152606060208201528152602001906001900390816106af579050509050610130604051806040016040529081600082015481526020016001820180546107019061283c565b80601f016020809104026020016040519081016040528092919081815260200182805461072d9061283c565b801561077a5780601f1061074f5761010080835404028352916020019161077a565b820191906000526020600020905b81548152906001019060200180831161075d57829003601f168201915b50505050508152505081600081518110610796576107966128c3565b6020026020010181905250610132604051806040016040529081600082015481526020016001820180546107c99061283c565b80601f01602080910402602001604051908101604052809291908181526020018280546107f59061283c565b80156108425780601f1061081757610100808354040283529160200191610842565b820191906000526020600020905b81548152906001019060200180831161082557829003601f168201915b5050505050815250508160018151811061085e5761085e6128c3565b6020908102919091010152919050565b61087782610680565b6108808161158e565b6106288383611598565b61013054156108b057604051633e0f514960e01b815261058790610131906004016128d9565b600061012e6040516020016108c591906129d7565b60408051601f1981840301815261012f546060840190925260248084529093506001600160a01b0390911691633a9151b091309161090b9161308760208301398561161e565b6040518363ffffffff1660e01b81526004016109289291906129fa565b6020604051808303816000875af1158015610947573d6000803e3d6000fd5b505050506040513d601f19601f8201168201806040525081019061096b9190612a1e565b61013081905561097c908290611654565b6101319061098a9082612a85565b5050565b6001600160a01b03811633146109fe5760405162461bcd60e51b815260206004820152602f60248201527f416363657373436f6e74726f6c3a2063616e206f6e6c792072656e6f756e636560448201526e103937b632b9903337b91039b2b63360891b6064820152608401610587565b61098a828261167b565b61062883838360405180602001604052806000815250610e65565b600080610a2f836116e2565b90506001600160a01b0381166104545760405162461bcd60e51b815260040161058790612b44565b61013080546101318054919291610a6d9061283c565b80601f0160208091040260200160405190810160405280929190818152602001828054610a999061283c565b8015610ae65780601f10610abb57610100808354040283529160200191610ae6565b820191906000526020600020905b815481529060010190602001808311610ac957829003601f168201915b5050505050905082565b60006001600160a01b038216610b5a5760405162461bcd60e51b815260206004820152602960248201527f4552433732313a2061646472657373207a65726f206973206e6f7420612076616044820152683634b21037bbb732b960b91b6064820152608401610587565b506001600160a01b031660009081526068602052604090205490565b600091825260fb602090815260408084206001600160a01b0393909316845291905290205460ff1690565b61013a54610135546040516331a9108f60e11b815260048101919091526000916001600160a01b031690636352211e90602401602060405180830381865afa158015610bf1573d6000803e3d6000fd5b505050506040513d601f19601f8201168201806040525081019061064a9190612b76565b6060606680546104699061283c565b61098a3383836116fd565b805161013690610c3f9082612a85565b506020810151610137805460ff191660018381811115610c6157610c616126c0565b02179055506040810151610137805461ff001916610100836001811115610c8a57610c8a6126c0565b02179055506060810151805161098a91610138916020909101906120fb565b6101325415610ccf57604051633e0f514960e01b815261058790610133906004016128d9565b600061012e604051602001610ce49190612b93565b60408051601f1981840301815261012f54838301909252601a8352791ac81511561508141492535054964812d1564b081d881511561560321b602084015292506001600160a01b031690633a9151b0903090610d40908561161e565b6040518363ffffffff1660e01b8152600401610d5d9291906129fa565b6020604051808303816000875af1158015610d7c573d6000803e3d6000fd5b505050506040513d601f19601f82011682018060405250810190610da09190612a1e565b610132819055610db1908290611654565b6101339061098a9082612a85565b3360009081526101396020526040902054151580610dec575033610de1610ba1565b6001600160a01b0316145b15610e0c5733604051630548cc1b60e01b81526004016105879190612277565b610e1b61012d80546001019055565b6000610e2761012d5490565b9050610e3333826117c7565b610e3c81611271565b3360009081526101396020526040902055565b61013280546101338054919291610a6d9061283c565b610e6f33836113d1565b610e8b5760405162461bcd60e51b815260040161058790612876565b610e97848484846118d0565b50505050565b606061045482611903565b610eb182610680565b610eba8161158e565b610628838361167b565b610ef0604080516080810190915260608152602081016000815260200160008152602001606081525090565b60405180608001604052806101368054610f099061283c565b80601f0160208091040260200160405190810160405280929190818152602001828054610f359061283c565b8015610f825780601f10610f5757610100808354040283529160200191610f82565b820191906000526020600020905b815481529060010190602001808311610f6557829003601f168201915b50505091835250506101375460209091019060ff166001811115610fa857610fa86126c0565b815260200161013760019054906101000a900460ff166001811115610fcf57610fcf6126c0565b815260200161013880548060200260200160405190810160405280929190818152602001828054801561105357602002820191906000526020600020906000905b82829054906101000a90046001600160801b03166001600160801b031681526020019060100190602082600f010492830192600103820291508084116110105790505b5050505050815250905090565b6001600160a01b039182166000908152606a6020908152604080832093909416825291909152205460ff1690565b600054610100900460ff16158080156110ae5750600054600160ff909116105b806110cf57506110bd306119fe565b1580156110cf575060005460ff166001145b6111325760405162461bcd60e51b815260206004820152602e60248201527f496e697469616c697a61626c653a20636f6e747261637420697320616c72656160448201526d191e481a5b9a5d1a585b1a5e995960921b6064820152608401610587565b6000805460ff191660011790558015611155576000805461ff0019166101001790555b611160600033611598565b61116a8585611a0d565b61013582905561012f80546001600160a01b0319166001600160a01b03851617905561119582611a3e565b6040516020016111a59190612bb9565b60405160208183030381529060405261012e90816111c39190612a85565b506111cc61088a565b6040516000906111e29061013190602001612bf3565b604051602081830303815290604052905061121b816040516020016112079190612c34565b604051602081830303815290604052611ad1565b611223610ca9565b50801561126a576000805461ff0019169055604051600181527f7f26b83ff96e1f2b6a682f133852f6798a09c465da95921460cefb38474024989060200160405180910390a15b5050505050565b600061127c82611a3e565b9050600061013060010182604051602001611298929190612c99565b60408051601f198184030181529082905261012f546101305463757ae82760e11b84529193506001600160a01b03169163eaf5d04e916112df913091908690600401612cfc565b600060405180830381600087803b1580156112f957600080fd5b505af115801561130d573d6000803e3d6000fd5b50505050505050565b60006001600160e01b03198216637965db0b60e01b1480610454575061045482611ade565b61134481611b2e565b6113605760405162461bcd60e51b815260040161058790612b44565b50565b600081815260696020526040902080546001600160a01b0319166001600160a01b038416908117909155819061139882610a23565b6001600160a01b03167f8c5be1e5ebec7d5bd14f71427d1e84f3dd0314c0f7b2291e5b200ac8c7c3b92560405160405180910390a45050565b6000806113dd83610a23565b9050806001600160a01b0316846001600160a01b0316148061140457506114048185611060565b806106365750836001600160a01b031661141d846104ec565b6001600160a01b031614949350505050565b826001600160a01b031661144282610a23565b6001600160a01b0316146114685760405162461bcd60e51b815260040161058790612d2c565b6001600160a01b0382166114ca5760405162461bcd60e51b8152602060048201526024808201527f4552433732313a207472616e7366657220746f20746865207a65726f206164646044820152637265737360e01b6064820152608401610587565b6114d78383836001611b4b565b826001600160a01b03166114ea82610a23565b6001600160a01b0316146115105760405162461bcd60e51b815260040161058790612d2c565b600081815260696020908152604080832080546001600160a01b03199081169091556001600160a01b0387811680865260688552838620805460001901905590871680865283862080546001019055868652606790945282852080549092168417909155905184936000805160206130ab83398151915291a4505050565b6113608133611bd3565b6115a28282610b76565b61098a57600082815260fb602090815260408083206001600160a01b03851684529091529020805460ff191660011790556115da3390565b6001600160a01b0316816001600160a01b0316837f2f8788117e7eff1d82e926ec794901d17c78024a50270940304540a733656f0d60405160405180910390a45050565b60608161162a46611a3e565b8460405160200161163d93929190612d71565b604051602081830303815290604052905092915050565b60608261166046611a3e565b61166984611a3e565b60405160200161163d93929190612df7565b6116858282610b76565b1561098a57600082815260fb602090815260408083206001600160a01b0385168085529252808320805460ff1916905551339285917ff6391f5c32d9c69d2a47ea670b442974b53935d1edc7fd64eb21e047a839171b9190a45050565b6000908152606760205260409020546001600160a01b031690565b816001600160a01b0316836001600160a01b03160361175a5760405162461bcd60e51b815260206004820152601960248201527822a9219b99189d1030b8383937bb32903a379031b0b63632b960391b6044820152606401610587565b6001600160a01b038381166000818152606a6020908152604080832094871680845294825291829020805460ff191686151590811790915591519182527f17307eab39ab6107e8899845ad3d59bd9653f200f220920489ca2b5937696c31910160405180910390a3505050565b6001600160a01b03821661181d5760405162461bcd60e51b815260206004820181905260248201527f4552433732313a206d696e7420746f20746865207a65726f20616464726573736044820152606401610587565b61182681611b2e565b156118435760405162461bcd60e51b815260040161058790612e51565b611851600083836001611b4b565b61185a81611b2e565b156118775760405162461bcd60e51b815260040161058790612e51565b6001600160a01b038216600081815260686020908152604080832080546001019055848352606790915280822080546001600160a01b0319168417905551839291906000805160206130ab833981519152908290a45050565b6118db84848461142f565b6118e784848484611c2c565b610e975760405162461bcd60e51b815260040161058790612e87565b606061190e8261133b565b600082815260976020526040812080546119279061283c565b80601f01602080910402602001604051908101604052809291908181526020018280546119539061283c565b80156119a05780601f10611975576101008083540402835291602001916119a0565b820191906000526020600020905b81548152906001019060200180831161198357829003601f168201915b5050505050905060006119b1611d31565b905080516000036119c3575092915050565b8151156119f55780826040516020016119dd929190612ed9565b60405160208183030381529060405292505050919050565b61063684611d41565b6001600160a01b03163b151590565b600054610100900460ff16611a345760405162461bcd60e51b815260040161058790612f08565b61098a8282611da8565b60606000611a4b83611de8565b60010190506000816001600160401b03811115611a6a57611a6a6122cc565b6040519080825280601f01601f191660200182016040528015611a94576020820181803683370190505b5090508181016020015b600019016f181899199a1a9b1b9c1cb0b131b232b360811b600a86061a8153600a8504945084611a9e575b509392505050565b61013461098a8282612a85565b60006001600160e01b031982166380ac58cd60e01b1480611b0f57506001600160e01b03198216635b5e139f60e01b145b8061045457506301ffc9a760e01b6001600160e01b0319831614610454565b600080611b3a836116e2565b6001600160a01b0316141592915050565b6001811115610e97576001600160a01b03841615611b91576001600160a01b03841660009081526068602052604081208054839290611b8b908490612f69565b90915550505b6001600160a01b03831615610e97576001600160a01b03831660009081526068602052604081208054839290611bc8908490612f7c565b909155505050505050565b611bdd8282610b76565b61098a57611bea81611ebe565b611bf5836020611ed0565b604051602001611c06929190612f8f565b60408051601f198184030181529082905262461bcd60e51b82526105879160040161224b565b6000611c40846001600160a01b03166119fe565b15611d2957604051630a85bd0160e11b81526001600160a01b0385169063150b7a0290611c77903390899088908890600401612ffe565b6020604051808303816000875af1925050508015611cb2575060408051601f3d908101601f19168201909252611caf9181019061303b565b60015b611d0f573d808015611ce0576040519150601f19603f3d011682016040523d82523d6000602084013e611ce5565b606091505b508051600003611d075760405162461bcd60e51b815260040161058790612e87565b805181602001fd5b6001600160e01b031916630a85bd0160e11b149050610636565b506001610636565b606061013480546104699061283c565b6060611d4c8261133b565b6000611d56611d31565b90506000815111611d765760405180602001604052806000815250611da1565b80611d808461206b565b604051602001611d91929190612ed9565b6040516020818303038152906040525b9392505050565b600054610100900460ff16611dcf5760405162461bcd60e51b815260040161058790612f08565b6065611ddb8382612a85565b5060666106288282612a85565b60008072184f03e93ff9f4daa797ed6e38ed64bf6a1f0160401b8310611e275772184f03e93ff9f4daa797ed6e38ed64bf6a1f0160401b830492506040015b6904ee2d6d415b85acef8160201b8310611e51576904ee2d6d415b85acef8160201b830492506020015b662386f26fc100008310611e6f57662386f26fc10000830492506010015b6305f5e1008310611e87576305f5e100830492506008015b6127108310611e9b57612710830492506004015b60648310611ead576064830492506002015b600a83106104545760010192915050565b60606104546001600160a01b03831660145b60606000611edf836002613058565b611eea906002612f7c565b6001600160401b03811115611f0157611f016122cc565b6040519080825280601f01601f191660200182016040528015611f2b576020820181803683370190505b509050600360fc1b81600081518110611f4657611f466128c3565b60200101906001600160f81b031916908160001a905350600f60fb1b81600181518110611f7557611f756128c3565b60200101906001600160f81b031916908160001a9053506000611f99846002613058565b611fa4906001612f7c565b90505b600181111561201c576f181899199a1a9b1b9c1cb0b131b232b360811b85600f1660108110611fd857611fd86128c3565b1a60f81b828281518110611fee57611fee6128c3565b60200101906001600160f81b031916908160001a90535060049490941c936120158161306f565b9050611fa7565b508315611da15760405162461bcd60e51b815260206004820181905260248201527f537472696e67733a20686578206c656e67746820696e73756666696369656e746044820152606401610587565b6060600061207883611de8565b60010190506000816001600160401b03811115612097576120976122cc565b6040519080825280601f01601f1916602001820160405280156120c1576020820181803683370190505b5090508181016020015b600019016f181899199a1a9b1b9c1cb0b131b232b360811b600a86061a8153600a850494508415611ac9576120cb565b828054828255906000526020600020906001016002900481019282156121a35791602002820160005b8382111561216e57835183826101000a8154816001600160801b0302191690836001600160801b031602179055509260200192601001602081600f01049283019260010302612124565b80156121a15782816101000a8154906001600160801b030219169055601001602081600f0104928301926001030261216e565b505b506121af9291506121b3565b5090565b5b808211156121af57600081556001016121b4565b6001600160e01b03198116811461136057600080fd5b6000602082840312156121f057600080fd5b8135611da1816121c8565b60005b838110156122165781810151838201526020016121fe565b50506000910152565b600081518084526122378160208601602086016121fb565b601f01601f19169290920160200192915050565b602081526000611da1602083018461221f565b60006020828403121561227057600080fd5b5035919050565b6001600160a01b0391909116815260200190565b6001600160a01b038116811461136057600080fd5b600080604083850312156122b357600080fd5b82356122be8161228b565b946020939093013593505050565b634e487b7160e01b600052604160045260246000fd5b604051608081016001600160401b0381118282101715612304576123046122cc565b60405290565b604051601f8201601f191681016001600160401b0381118282101715612332576123326122cc565b604052919050565b60006001600160401b03831115612353576123536122cc565b612366601f8401601f191660200161230a565b905082815283838301111561237a57600080fd5b828260208301376000602084830101529392505050565b600080600080608085870312156123a757600080fd5b84356123b28161228b565b935060208501356123c28161228b565b92506040850135915060608501356001600160401b038111156123e457600080fd5b8501601f810187136123f557600080fd5b6124048782356020840161233a565b91505092959194509250565b60006020828403121561242257600080fd5b8135611da18161228b565b60008060006060848603121561244257600080fd5b833561244d8161228b565b9250602084013561245d8161228b565b929592945050506040919091013590565b60006020808301818452808551808352604092508286019150828160051b87010184880160005b838110156124d457888303603f190185528151805184528701518784018790526124c18785018261221f565b9588019593505090860190600101612495565b509098975050505050505050565b600080604083850312156124f557600080fd5b8235915060208301356125078161228b565b809150509250929050565b828152604060208201526000610636604083018461221f565b6000806040838503121561253e57600080fd5b82356125498161228b565b91506020830135801515811461250757600080fd5b600082601f83011261256f57600080fd5b611da18383356020850161233a565b6002811061136057600080fd5b6000602080838503121561259e57600080fd5b82356001600160401b03808211156125b557600080fd5b90840190608082870312156125c957600080fd5b6125d16122e2565b8235828111156125e057600080fd5b6125ec8882860161255e565b825250838301356125fc8161257e565b81850152604083013561260e8161257e565b604082015260608301358281111561262557600080fd5b80840193505086601f84011261263a57600080fd5b82358281111561264c5761264c6122cc565b8060051b925061265d85840161230a565b818152928401850192858101908985111561267757600080fd5b948601945b848610156126ae57853592506001600160801b038316831461269e5760008081fd5b828252948601949086019061267c565b60608401525090979650505050505050565b634e487b7160e01b600052602160045260246000fd5b6002811061136057634e487b7160e01b600052602160045260246000fd5b60006020808352835160808285015261271060a085018261221f565b90508185015161271f816126d6565b806040860152506040850151612734816126d6565b606085810191909152850151848203601f19016080860152805180835290830191600091908401905b808310156127865783516001600160801b0316825292840192600192909201919084019061275d565b509695505050505050565b600080604083850312156127a457600080fd5b82356127af8161228b565b915060208301356125078161228b565b600080600080608085870312156127d557600080fd5b84356001600160401b03808211156127ec57600080fd5b6127f88883890161255e565b9550602087013591508082111561280e57600080fd5b5061281b8782880161255e565b935050604085013561282c8161228b565b9396929550929360600135925050565b600181811c9082168061285057607f821691505b60208210810361287057634e487b7160e01b600052602260045260246000fd5b50919050565b6020808252602d908201527f4552433732313a2063616c6c6572206973206e6f7420746f6b656e206f776e6560408201526c1c881bdc88185c1c1c9bdd9959609a1b606082015260800190565b634e487b7160e01b600052603260045260246000fd5b60006020808352600084546128ed8161283c565b8084870152604060018084166000811461290e576001811461292857612956565b60ff1985168984015283151560051b890183019550612956565b896000528660002060005b8581101561294e5781548b8201860152908301908801612933565b8a0184019650505b509398975050505050505050565b600081546129718161283c565b60018281168015612989576001811461299e576129cd565b60ff19841687528215158302870194506129cd565b8560005260208060002060005b858110156129c45781548a8201529084019082016129ab565b50505082870194505b5050505092915050565b60006129e38284612964565b662fb6b2b6b132b960c91b81526007019392505050565b6001600160a01b03831681526040602082018190526000906106369083018461221f565b600060208284031215612a3057600080fd5b5051919050565b601f82111561062857600081815260208120601f850160051c81016020861015612a5e5750805b601f850160051c820191505b81811015612a7d57828155600101612a6a565b505050505050565b81516001600160401b03811115612a9e57612a9e6122cc565b612ab281612aac845461283c565b84612a37565b602080601f831160018114612ae75760008415612acf5750858301515b600019600386901b1c1916600185901b178555612a7d565b600085815260208120601f198616915b82811015612b1657888601518255948401946001909101908401612af7565b5085821015612b345787850151600019600388901b60f8161c191681555b5050505050600190811b01905550565b602080825260189082015277115490cdcc8c4e881a5b9d985b1a59081d1bdad95b88125160421b604082015260600190565b600060208284031215612b8857600080fd5b8151611da18161228b565b6000612b9f8284612964565b695f6b65795f76616c756560b01b8152600a019392505050565b71656d62726163655f636f6d6d756e6974795f60701b815260008251612be68160128501602087016121fb565b9190910160120192915050565b6d53454c4543542b2a2b46524f4d2b60901b81526000612c16600e830184612964565b6d2b57484552452b69642b2533442b60901b8152600e019392505050565b7f68747470733a2f2f746573746e6574732e7461626c656c616e642e6e6574776f815276726b2f71756572793f756e777261703d7472756526733d60481b602082015260008251612c8c8160378501602087016121fb565b9190910160370192915050565b6b024a729a2a92a1024a72a27960a51b81526000612cba600c830185612964565b6d04050d2c85240ac8298aa8aa640560931b81528351612ce181600e8401602088016121fb565b61293b60f01b600e9290910191820152601001949350505050565b60018060a01b0384168152826020820152606060408201526000612d23606083018461221f565b95945050505050565b60208082526025908201527f4552433732313a207472616e736665722066726f6d20696e636f72726563742060408201526437bbb732b960d91b606082015260800190565b6c021a922a0aa22902a20a126229609d1b815260008451612d9981600d8501602089016121fb565b605f60f81b600d918401918201528451612dba81600e8401602089016121fb565b600560fb1b600e92909101918201528351612ddc81600f8401602088016121fb565b602960f81b600f929091019182015260100195945050505050565b60008451612e098184602089016121fb565b8083019050605f60f81b8082528551612e29816001850160208a016121fb565b60019201918201528351612e448160028401602088016121fb565b0160020195945050505050565b6020808252601c908201527b115490cdcc8c4e881d1bdad95b88185b1c9958591e481b5a5b9d195960221b604082015260600190565b60208082526032908201527f4552433732313a207472616e7366657220746f206e6f6e20455243373231526560408201527131b2b4bb32b91034b6b83632b6b2b73a32b960711b606082015260800190565b60008351612eeb8184602088016121fb565b835190830190612eff8183602088016121fb565b01949350505050565b6020808252602b908201527f496e697469616c697a61626c653a20636f6e7472616374206973206e6f74206960408201526a6e697469616c697a696e6760a81b606082015260800190565b634e487b7160e01b600052601160045260246000fd5b8181038181111561045457610454612f53565b8082018082111561045457610454612f53565b76020b1b1b2b9b9a1b7b73a3937b61d1030b1b1b7bab73a1604d1b815260008351612fc18160178501602088016121fb565b7001034b99036b4b9b9b4b733903937b6329607d1b6017918401918201528351612ff28160288401602088016121fb565b01602801949350505050565b6001600160a01b03858116825284166020820152604081018390526080606082018190526000906130319083018461221f565b9695505050505050565b60006020828403121561304d57600080fd5b8151611da1816121c8565b808202811582820484141761045457610454612f53565b60008161307e5761307e612f53565b50600019019056fe696420494e5445474552205052494d415259204b45592c206163636f756e742054455854ddf252ad1be2c89b69c2b068fc378daa952ba7f163c4a11628f55a4df523b3efa164736f6c6343000811000a",
  "linkReferences": {},
  "deployedLinkReferences": {}
}