{
  "_format": "hh-sol-artifact-1",
  "contractName": "EmbraceCommunity",
  "sourceName": "contracts/EmbraceCommunity.sol",
  "abi": [
    {
      "inputs": [
        {
          "internalType": "address",
          "name": "member",
          "type": "address"
        }
      ],
      "name": "ErrorAlreadyAdmin",
      "type": "error"
    },
    {
      "inputs": [
        {
          "internalType": "address",
          "name": "account",
          "type": "address"
        }
      ],
      "name": "ErrorCannotRemoveFounderAdmin",
      "type": "error"
    },
    {
      "inputs": [
        {
          "internalType": "address",
          "name": "account",
          "type": "address"
        }
      ],
      "name": "ErrorFounderCannotLeave",
      "type": "error"
    },
    {
      "inputs": [
        {
          "internalType": "address",
          "name": "account",
          "type": "address"
        }
      ],
      "name": "ErrorGatedRequirementsNotMet",
      "type": "error"
    },
    {
      "inputs": [
        {
          "internalType": "address",
          "name": "member",
          "type": "address"
        }
      ],
      "name": "ErrorMemberDoesNotExist",
      "type": "error"
    },
    {
      "inputs": [
        {
          "internalType": "address",
          "name": "member",
          "type": "address"
        }
      ],
      "name": "ErrorMemberExists",
      "type": "error"
    },
    {
      "inputs": [
        {
          "internalType": "address",
          "name": "member",
          "type": "address"
        }
      ],
      "name": "ErrorNotAdmin",
      "type": "error"
    },
    {
      "inputs": [
        {
          "internalType": "address",
          "name": "member",
          "type": "address"
        }
      ],
      "name": "ErrorNotFounder",
      "type": "error"
    },
    {
      "inputs": [
        {
          "internalType": "address",
          "name": "account",
          "type": "address"
        }
      ],
      "name": "ErrorNotGatedAccess",
      "type": "error"
    },
    {
      "inputs": [
        {
          "internalType": "address",
          "name": "account",
          "type": "address"
        }
      ],
      "name": "ErrorNotMember",
      "type": "error"
    },
    {
      "inputs": [
        {
          "internalType": "address",
          "name": "account",
          "type": "address"
        }
      ],
      "name": "ErrorNotOpenAccess",
      "type": "error"
    },
    {
      "inputs": [
        {
          "internalType": "string",
          "name": "tableName",
          "type": "string"
        }
      ],
      "name": "ErrorTableDoesNotExist",
      "type": "error"
    },
    {
      "inputs": [
        {
          "internalType": "string",
          "name": "tableName",
          "type": "string"
        }
      ],
      "name": "ErrorTableExists",
      "type": "error"
    },
    {
      "anonymous": false,
      "inputs": [
        {
          "indexed": true,
          "internalType": "address",
          "name": "owner",
          "type": "address"
        },
        {
          "indexed": true,
          "internalType": "address",
          "name": "approved",
          "type": "address"
        },
        {
          "indexed": true,
          "internalType": "uint256",
          "name": "tokenId",
          "type": "uint256"
        }
      ],
      "name": "Approval",
      "type": "event"
    },
    {
      "anonymous": false,
      "inputs": [
        {
          "indexed": true,
          "internalType": "address",
          "name": "owner",
          "type": "address"
        },
        {
          "indexed": true,
          "internalType": "address",
          "name": "operator",
          "type": "address"
        },
        {
          "indexed": false,
          "internalType": "bool",
          "name": "approved",
          "type": "bool"
        }
      ],
      "name": "ApprovalForAll",
      "type": "event"
    },
    {
      "anonymous": false,
      "inputs": [
        {
          "indexed": false,
          "internalType": "uint8",
          "name": "version",
          "type": "uint8"
        }
      ],
      "name": "Initialized",
      "type": "event"
    },
    {
      "anonymous": false,
      "inputs": [
        {
          "indexed": true,
          "internalType": "address",
          "name": "from",
          "type": "address"
        },
        {
          "indexed": true,
          "internalType": "address",
          "name": "to",
          "type": "address"
        },
        {
          "indexed": true,
          "internalType": "uint256",
          "name": "tokenId",
          "type": "uint256"
        }
      ],
      "name": "Transfer",
      "type": "event"
    },
    {
      "inputs": [
        {
          "internalType": "address",
          "name": "_memberAddress",
          "type": "address"
        },
        {
          "internalType": "bool",
          "name": "_isAdmin",
          "type": "bool"
        }
      ],
      "name": "addMember",
      "outputs": [],
      "stateMutability": "nonpayable",
      "type": "function"
    },
    {
      "inputs": [
        {
          "internalType": "address",
          "name": "to",
          "type": "address"
        },
        {
          "internalType": "uint256",
          "name": "tokenId",
          "type": "uint256"
        }
      ],
      "name": "approve",
      "outputs": [],
      "stateMutability": "nonpayable",
      "type": "function"
    },
    {
      "inputs": [
        {
          "internalType": "address",
          "name": "owner",
          "type": "address"
        }
      ],
      "name": "balanceOf",
      "outputs": [
        {
          "internalType": "uint256",
          "name": "",
          "type": "uint256"
        }
      ],
      "stateMutability": "view",
      "type": "function"
    },
    {
      "inputs": [
        {
          "internalType": "uint256",
          "name": "tokenId",
          "type": "uint256"
        }
      ],
      "name": "getApproved",
      "outputs": [
        {
          "internalType": "address",
          "name": "",
          "type": "address"
        }
      ],
      "stateMutability": "view",
      "type": "function"
    },
    {
      "inputs": [],
      "name": "getCommunityData",
      "outputs": [
        {
          "components": [
            {
              "internalType": "string",
              "name": "handle",
              "type": "string"
            },
            {
              "internalType": "enum Visibility",
              "name": "visibility",
              "type": "uint8"
            },
            {
              "components": [
                {
                  "internalType": "enum Access",
                  "name": "access",
                  "type": "uint8"
                },
                {
                  "components": [
                    {
                      "internalType": "enum MembershipGateToken",
                      "name": "tokenType",
                      "type": "uint8"
                    },
                    {
                      "internalType": "address",
                      "name": "tokenAddress",
                      "type": "address"
                    },
                    {
                      "internalType": "uint256",
                      "name": "tokenId",
                      "type": "uint256"
                    }
                  ],
                  "internalType": "struct MembershipGate",
                  "name": "gate",
                  "type": "tuple"
                }
              ],
              "internalType": "struct Membership",
              "name": "membership",
              "type": "tuple"
            },
            {
              "internalType": "uint128[]",
              "name": "apps",
              "type": "uint128[]"
            }
          ],
          "internalType": "struct CommunityContractData",
          "name": "",
          "type": "tuple"
        }
      ],
      "stateMutability": "view",
      "type": "function"
    },
    {
      "inputs": [],
      "name": "getFounder",
      "outputs": [
        {
          "internalType": "address",
          "name": "",
          "type": "address"
        }
      ],
      "stateMutability": "view",
      "type": "function"
    },
    {
      "inputs": [
        {
          "internalType": "address",
          "name": "_address",
          "type": "address"
        }
      ],
      "name": "getMemberStatus",
      "outputs": [
        {
          "components": [
            {
              "internalType": "bool",
              "name": "isFounder",
              "type": "bool"
            },
            {
              "internalType": "bool",
              "name": "isAdmin",
              "type": "bool"
            },
            {
              "internalType": "bool",
              "name": "isMember",
              "type": "bool"
            }
          ],
          "internalType": "struct EmbraceCommunity.MemberStatus",
          "name": "",
          "type": "tuple"
        }
      ],
      "stateMutability": "view",
      "type": "function"
    },
    {
      "inputs": [
        {
          "internalType": "address",
          "name": "_account",
          "type": "address"
        }
      ],
      "name": "getMemberTokenId",
      "outputs": [
        {
          "internalType": "uint256",
          "name": "",
          "type": "uint256"
        }
      ],
      "stateMutability": "view",
      "type": "function"
    },
    {
      "inputs": [],
      "name": "getTables",
      "outputs": [
        {
          "components": [
            {
              "internalType": "enum TablelandCommunity.TableType",
              "name": "tableType",
              "type": "uint8"
            },
            {
              "internalType": "uint256",
              "name": "id",
              "type": "uint256"
            },
            {
              "internalType": "string",
              "name": "name",
              "type": "string"
            },
            {
              "internalType": "string",
              "name": "prefix",
              "type": "string"
            }
          ],
          "internalType": "struct TablelandCommunity.Table[]",
          "name": "",
          "type": "tuple[]"
        }
      ],
      "stateMutability": "view",
      "type": "function"
    },
    {
      "inputs": [
        {
          "internalType": "address",
          "name": "_account",
          "type": "address"
        }
      ],
      "name": "grantAdminRole",
      "outputs": [],
      "stateMutability": "nonpayable",
      "type": "function"
    },
    {
      "inputs": [
        {
          "internalType": "string",
          "name": "_name",
          "type": "string"
        },
        {
          "internalType": "string",
          "name": "_symbol",
          "type": "string"
        },
        {
          "internalType": "address",
          "name": "_founderAddress",
          "type": "address"
        },
        {
          "internalType": "address",
          "name": "_communitiesContractAddress",
          "type": "address"
        },
        {
          "internalType": "address",
          "name": "_tablelandRegistryAddress",
          "type": "address"
        },
        {
          "internalType": "uint256",
          "name": "_communityId",
          "type": "uint256"
        },
        {
          "components": [
            {
              "internalType": "string",
              "name": "handle",
              "type": "string"
            },
            {
              "internalType": "enum Visibility",
              "name": "visibility",
              "type": "uint8"
            },
            {
              "components": [
                {
                  "internalType": "enum Access",
                  "name": "access",
                  "type": "uint8"
                },
                {
                  "components": [
                    {
                      "internalType": "enum MembershipGateToken",
                      "name": "tokenType",
                      "type": "uint8"
                    },
                    {
                      "internalType": "address",
                      "name": "tokenAddress",
                      "type": "address"
                    },
                    {
                      "internalType": "uint256",
                      "name": "tokenId",
                      "type": "uint256"
                    }
                  ],
                  "internalType": "struct MembershipGate",
                  "name": "gate",
                  "type": "tuple"
                }
              ],
              "internalType": "struct Membership",
              "name": "membership",
              "type": "tuple"
            },
            {
              "internalType": "uint128[]",
              "name": "apps",
              "type": "uint128[]"
            }
          ],
          "internalType": "struct CommunityContractData",
          "name": "_communityContractData",
          "type": "tuple"
        }
      ],
      "name": "initialize",
      "outputs": [],
      "stateMutability": "nonpayable",
      "type": "function"
    },
    {
      "inputs": [
        {
          "internalType": "string",
          "name": "_key",
          "type": "string"
        },
        {
          "internalType": "string",
          "name": "_value",
          "type": "string"
        },
        {
          "internalType": "enum TablelandCommunity.KeyValueEncryption",
          "name": "_encryptionType",
          "type": "uint8"
        }
      ],
      "name": "insertKeyValue",
      "outputs": [],
      "stateMutability": "nonpayable",
      "type": "function"
    },
    {
      "inputs": [],
      "name": "isAdmin",
      "outputs": [
        {
          "internalType": "bool",
          "name": "",
          "type": "bool"
        }
      ],
      "stateMutability": "view",
      "type": "function"
    },
    {
      "inputs": [
        {
          "internalType": "address",
          "name": "owner",
          "type": "address"
        },
        {
          "internalType": "address",
          "name": "operator",
          "type": "address"
        }
      ],
      "name": "isApprovedForAll",
      "outputs": [
        {
          "internalType": "bool",
          "name": "",
          "type": "bool"
        }
      ],
      "stateMutability": "view",
      "type": "function"
    },
    {
      "inputs": [],
      "name": "isFounder",
      "outputs": [
        {
          "internalType": "bool",
          "name": "",
          "type": "bool"
        }
      ],
      "stateMutability": "view",
      "type": "function"
    },
    {
      "inputs": [],
      "name": "join",
      "outputs": [],
      "stateMutability": "nonpayable",
      "type": "function"
    },
    {
      "inputs": [],
      "name": "joinGated",
      "outputs": [],
      "stateMutability": "nonpayable",
      "type": "function"
    },
    {
      "inputs": [],
      "name": "leave",
      "outputs": [],
      "stateMutability": "nonpayable",
      "type": "function"
    },
    {
      "inputs": [
        {
          "internalType": "address",
          "name": "",
          "type": "address"
        }
      ],
      "name": "memberToTokenId",
      "outputs": [
        {
          "internalType": "uint256",
          "name": "",
          "type": "uint256"
        }
      ],
      "stateMutability": "view",
      "type": "function"
    },
    {
      "inputs": [],
      "name": "name",
      "outputs": [
        {
          "internalType": "string",
          "name": "",
          "type": "string"
        }
      ],
      "stateMutability": "view",
      "type": "function"
    },
    {
      "inputs": [
        {
          "internalType": "address",
          "name": "",
          "type": "address"
        },
        {
          "internalType": "address",
          "name": "",
          "type": "address"
        },
        {
          "internalType": "uint256",
          "name": "",
          "type": "uint256"
        },
        {
          "internalType": "bytes",
          "name": "",
          "type": "bytes"
        }
      ],
      "name": "onERC721Received",
      "outputs": [
        {
          "internalType": "bytes4",
          "name": "",
          "type": "bytes4"
        }
      ],
      "stateMutability": "nonpayable",
      "type": "function"
    },
    {
      "inputs": [
        {
          "internalType": "uint256",
          "name": "tokenId",
          "type": "uint256"
        }
      ],
      "name": "ownerOf",
      "outputs": [
        {
          "internalType": "address",
          "name": "",
          "type": "address"
        }
      ],
      "stateMutability": "view",
      "type": "function"
    },
    {
      "inputs": [
        {
          "internalType": "address",
          "name": "_memberAddress",
          "type": "address"
        }
      ],
      "name": "removeMember",
      "outputs": [],
      "stateMutability": "nonpayable",
      "type": "function"
    },
    {
      "inputs": [
        {
          "internalType": "address",
          "name": "_account",
          "type": "address"
        }
      ],
      "name": "revokeAdminRole",
      "outputs": [],
      "stateMutability": "nonpayable",
      "type": "function"
    },
    {
      "inputs": [
        {
          "internalType": "address",
          "name": "from",
          "type": "address"
        },
        {
          "internalType": "address",
          "name": "to",
          "type": "address"
        },
        {
          "internalType": "uint256",
          "name": "tokenId",
          "type": "uint256"
        }
      ],
      "name": "safeTransferFrom",
      "outputs": [],
      "stateMutability": "nonpayable",
      "type": "function"
    },
    {
      "inputs": [
        {
          "internalType": "address",
          "name": "from",
          "type": "address"
        },
        {
          "internalType": "address",
          "name": "to",
          "type": "address"
        },
        {
          "internalType": "uint256",
          "name": "tokenId",
          "type": "uint256"
        },
        {
          "internalType": "bytes",
          "name": "data",
          "type": "bytes"
        }
      ],
      "name": "safeTransferFrom",
      "outputs": [],
      "stateMutability": "nonpayable",
      "type": "function"
    },
    {
      "inputs": [
        {
          "internalType": "address",
          "name": "operator",
          "type": "address"
        },
        {
          "internalType": "bool",
          "name": "approved",
          "type": "bool"
        }
      ],
      "name": "setApprovalForAll",
      "outputs": [],
      "stateMutability": "nonpayable",
      "type": "function"
    },
    {
      "inputs": [
        {
          "internalType": "string",
          "name": "_uri",
          "type": "string"
        }
      ],
      "name": "setBaseURI",
      "outputs": [],
      "stateMutability": "nonpayable",
      "type": "function"
    },
    {
      "inputs": [
        {
          "components": [
            {
              "internalType": "string",
              "name": "handle",
              "type": "string"
            },
            {
              "internalType": "enum Visibility",
              "name": "visibility",
              "type": "uint8"
            },
            {
              "components": [
                {
                  "internalType": "enum Access",
                  "name": "access",
                  "type": "uint8"
                },
                {
                  "components": [
                    {
                      "internalType": "enum MembershipGateToken",
                      "name": "tokenType",
                      "type": "uint8"
                    },
                    {
                      "internalType": "address",
                      "name": "tokenAddress",
                      "type": "address"
                    },
                    {
                      "internalType": "uint256",
                      "name": "tokenId",
                      "type": "uint256"
                    }
                  ],
                  "internalType": "struct MembershipGate",
                  "name": "gate",
                  "type": "tuple"
                }
              ],
              "internalType": "struct Membership",
              "name": "membership",
              "type": "tuple"
            },
            {
              "internalType": "uint128[]",
              "name": "apps",
              "type": "uint128[]"
            }
          ],
          "internalType": "struct CommunityContractData",
          "name": "_communityData",
          "type": "tuple"
        }
      ],
      "name": "setCommunityContractData",
      "outputs": [],
      "stateMutability": "nonpayable",
      "type": "function"
    },
    {
      "inputs": [
        {
          "components": [
            {
              "internalType": "string",
              "name": "handle",
              "type": "string"
            },
            {
              "internalType": "string",
              "name": "name",
              "type": "string"
            },
            {
              "internalType": "string",
              "name": "description",
              "type": "string"
            },
            {
              "internalType": "string",
              "name": "image",
              "type": "string"
            }
          ],
          "internalType": "struct CommunityMetaData",
          "name": "_communityMetaData",
          "type": "tuple"
        }
      ],
      "name": "setCommunityMetaData",
      "outputs": [],
      "stateMutability": "nonpayable",
      "type": "function"
    },
    {
      "inputs": [
        {
          "internalType": "bytes4",
          "name": "interfaceId",
          "type": "bytes4"
        }
      ],
      "name": "supportsInterface",
      "outputs": [
        {
          "internalType": "bool",
          "name": "",
          "type": "bool"
        }
      ],
      "stateMutability": "view",
      "type": "function"
    },
    {
      "inputs": [],
      "name": "symbol",
      "outputs": [
        {
          "internalType": "string",
          "name": "",
          "type": "string"
        }
      ],
      "stateMutability": "view",
      "type": "function"
    },
    {
      "inputs": [
        {
          "internalType": "bytes8",
          "name": "",
          "type": "bytes8"
        }
      ],
      "name": "tables",
      "outputs": [
        {
          "internalType": "enum TablelandCommunity.TableType",
          "name": "tableType",
          "type": "uint8"
        },
        {
          "internalType": "uint256",
          "name": "id",
          "type": "uint256"
        },
        {
          "internalType": "string",
          "name": "name",
          "type": "string"
        },
        {
          "internalType": "string",
          "name": "prefix",
          "type": "string"
        }
      ],
      "stateMutability": "view",
      "type": "function"
    },
    {
      "inputs": [
        {
          "internalType": "uint256",
          "name": "tokenId",
          "type": "uint256"
        }
      ],
      "name": "tokenURI",
      "outputs": [
        {
          "internalType": "string",
          "name": "",
          "type": "string"
        }
      ],
      "stateMutability": "view",
      "type": "function"
    },
    {
      "inputs": [],
      "name": "totalMembers",
      "outputs": [
        {
          "internalType": "uint256",
          "name": "",
          "type": "uint256"
        }
      ],
      "stateMutability": "view",
      "type": "function"
    },
    {
      "inputs": [],
      "name": "totalSupply",
      "outputs": [
        {
          "internalType": "uint256",
          "name": "",
          "type": "uint256"
        }
      ],
      "stateMutability": "view",
      "type": "function"
    },
    {
      "inputs": [
        {
          "internalType": "address",
          "name": "from",
          "type": "address"
        },
        {
          "internalType": "address",
          "name": "to",
          "type": "address"
        },
        {
          "internalType": "uint256",
          "name": "tokenId",
          "type": "uint256"
        }
      ],
      "name": "transferFrom",
      "outputs": [],
      "stateMutability": "nonpayable",
      "type": "function"
    }
  ],
  "bytecode": "0x608060405234801561001057600080fd5b50614730806100206000396000f3fe608060405234801561001057600080fd5b50600436106101b75760003560e01c806301ffc9a7146101bc57806306fdde03146101e4578063081812fc146101f9578063095ea7b3146102195780630b1ca49a1461022e578063150b7a021461024157806318160ddd1461026d578063239ac4161461028357806323b872dd146102a457806328343c34146102b757806330547e5b146102cc57806337897c2b146102d457806339478568146102e757806342842e0e146102ef5780634cfbd7ce1461030257806355f804b3146103155780636352211e146103285780636c11cefc1461033b57806370a082311461034e57806376e925591461036157806381cd123a14610369578063946bcc301461037c57806395d89b41146103845780639a19c7b01461038c5780639e645d321461039f578063a22cb465146103c2578063b688a363146103d5578063b6db75a0146103dd578063b88d4fde146103e5578063c634b78e146103f8578063c87b56dd1461040b578063c9030ea01461041e578063d18fd36714610431578063d66d9e191461045b578063daee9ac914610463578063dde8535f14610478578063e985e9c5146104b3575b600080fd5b6101cf6101ca3660046132fd565b6104c6565b60405190151581526020015b60405180910390f35b6101ec610518565b6040516101db919061336a565b61020c61020736600461337d565b6105aa565b6040516101db9190613396565b61022c6102273660046133cf565b6105d1565b005b61022c61023c3660046133fb565b6106eb565b61025461024f3660046134ff565b61071e565b6040516001600160e01b031990911681526020016101db565b61027561072f565b6040519081526020016101db565b6102756102913660046133fb565b6101016020526000908152604090205481565b61022c6102b236600461357e565b61073f565b6102bf610770565b6040516101db91906135e5565b61022c610b28565b61022c6102e23660046136d3565b610b9e565b6101cf610bd9565b61022c6102fd36600461357e565b610bf3565b61022c61031036600461377a565b610c0e565b61022c610323366004613852565b610c35565b61020c61033636600461337d565b610c78565b61022c610349366004613a43565b610cac565b61027561035c3660046133fb565b610e3f565b610275610ec5565b61022c610377366004613b0f565b610edd565b61020c610f0d565b6101ec610f81565b61022c61039a3660046133fb565b610f90565b6103b26103ad366004613b43565b61108d565b6040516101db9493929190613b6d565b61022c6103d0366004613ba7565b6111ca565b61022c6111d5565b6101cf61120f565b61022c6103f33660046134ff565b611231565b61022c6104063660046133fb565b611269565b6101ec61041936600461337d565b61132f565b61022c61042c366004613ba7565b61133a565b61027561043f3660046133fb565b6001600160a01b03166000908152610101602052604090205490565b61022c6113d2565b61046b6113db565b6040516101db9190613c29565b61048b6104863660046133fb565b6115d1565b60408051825115158152602080840151151590820152918101511515908201526060016101db565b6101cf6104c1366004613cd4565b61167a565b60006001600160e01b031982166380ac58cd60e01b14806104f757506001600160e01b03198216635b5e139f60e01b145b8061051257506301ffc9a760e01b6001600160e01b03198316145b92915050565b60606065805461052790613d02565b80601f016020809104026020016040519081016040528092919081815260200182805461055390613d02565b80156105a05780601f10610575576101008083540402835291602001916105a0565b820191906000526020600020905b81548152906001019060200180831161058357829003601f168201915b5050505050905090565b60006105b5826116a8565b506000908152606960205260409020546001600160a01b031690565b60006105dc82610c78565b9050806001600160a01b0316836001600160a01b03160361064e5760405162461bcd60e51b815260206004820152602160248201527f4552433732313a20617070726f76616c20746f2063757272656e74206f776e656044820152603960f91b60648201526084015b60405180910390fd5b336001600160a01b038216148061066a575061066a813361167a565b6106dc5760405162461bcd60e51b815260206004820152603d60248201527f4552433732313a20617070726f76652063616c6c6572206973206e6f7420746f60448201527f6b656e206f776e6572206f7220617070726f76656420666f7220616c6c0000006064820152608401610645565b6106e683836116cd565b505050565b6106f361120f565b6107125733604051631de7241f60e31b81526004016106459190613396565b61071b8161173b565b50565b630a85bd0160e11b5b949350505050565b600061073a60fe5490565b905090565b61074933826117e6565b6107655760405162461bcd60e51b815260040161064590613d3c565b6106e6838383611844565b604080516002808252606082810190935260009190816020015b6107b6604080516080810190915280600081526020016000815260200160608152602001606081525090565b81526020019060019003908161078a575050664d454d4245525360c81b60005260fb602052604080516080810190915260008051602061466083398151915280549293509091829060ff166001811115610812576108126135bf565b6001811115610823576108236135bf565b81526020016001820154815260200160028201805461084190613d02565b80601f016020809104026020016040519081016040528092919081815260200182805461086d90613d02565b80156108ba5780601f1061088f576101008083540402835291602001916108ba565b820191906000526020600020905b81548152906001019060200180831161089d57829003601f168201915b505050505081526020016003820180546108d390613d02565b80601f01602080910402602001604051908101604052809291908181526020018280546108ff90613d02565b801561094c5780601f106109215761010080835404028352916020019161094c565b820191906000526020600020905b81548152906001019060200180831161092f57829003601f168201915b5050509190925250839150600090508151811061096b5761096b613d89565b602090810291909101810191909152674b455956414c554560c01b60005260fb9052604080516080810190915260008051602061461a8339815191528054829060ff1660018111156109bf576109bf6135bf565b60018111156109d0576109d06135bf565b8152602001600182015481526020016002820180546109ee90613d02565b80601f0160208091040260200160405190810160405280929190818152602001828054610a1a90613d02565b8015610a675780601f10610a3c57610100808354040283529160200191610a67565b820191906000526020600020905b815481529060010190602001808311610a4a57829003601f168201915b50505050508152602001600382018054610a8090613d02565b80601f0160208091040260200160405190810160405280929190818152602001828054610aac90613d02565b8015610af95780601f10610ace57610100808354040283529160200191610af9565b820191906000526020600020905b815481529060010190602001808311610adc57829003601f168201915b50505091909252508391506001905081518110610b1857610b18613d89565b6020908102919091010152919050565b60016101065460ff166002811115610b4257610b426135bf565b14610b625733604051632ea5767760e21b81526004016106459190613396565b336000908152610101602052604090205415610b935733604051630548cc1b60e01b81526004016106459190613396565b610b9c336119a3565b565b610ba661120f565b610bc55733604051631de7241f60e31b81526004016106459190613396565b610bd285858585856119ef565b5050505050565b600033610be4610f0d565b6001600160a01b031614905090565b6106e683838360405180602001604052806000815250611231565b610c1661120f565b61071b5733604051631de7241f60e31b81526004016106459190613396565b33610c3e610f0d565b6001600160a01b031614610c67573360405163412c7d7560e01b81526004016106459190613396565b610100610c748282613ded565b5050565b600080610c8483611da5565b90506001600160a01b0381166105125760405162461bcd60e51b815260040161064590613eac565b600054610100900460ff1615808015610ccc5750600054600160ff909116105b80610ced5750610cdb30611dc0565b158015610ced575060005460ff166001145b610d505760405162461bcd60e51b815260206004820152602e60248201527f496e697469616c697a61626c653a20636f6e747261637420697320616c72656160448201526d191e481a5b9a5d1a585b1a5e995960921b6064820152608401610645565b6000805460ff191660011790558015610d73576000805461ff0019166101001790555b610d7d8888611dcf565b610d878484611e00565b61010a80546001600160a01b0319166001600160a01b038716179055610103839055610db9610db4611e89565b610c67565b610dc282611f0a565b610dcb866119a3565b6001600160a01b038616600090815261010260205260409020805460ff191660011790558015610e35576000805461ff0019169055604051600181527f7f26b83ff96e1f2b6a682f133852f6798a09c465da95921460cefb38474024989060200160405180910390a15b5050505050505050565b60006001600160a01b038216610ea95760405162461bcd60e51b815260206004820152602960248201527f4552433732313a2061646472657373207a65726f206973206e6f7420612076616044820152683634b21037bbb732b960b91b6064820152608401610645565b506001600160a01b031660009081526068602052604090205490565b6000610ed060ff5490565b60fe5461073a9190613ef4565b610ee561120f565b610f045733604051631de7241f60e31b81526004016106459190613396565b61071b81611f0a565b61010a54610103546040516331a9108f60e11b815260048101919091526000916001600160a01b031690636352211e90602401602060405180830381865afa158015610f5d573d6000803e3d6000fd5b505050506040513d601f19601f8201168201806040525081019061073a9190613f07565b60606066805461052790613d02565b6001600160a01b03811660009081526101016020526040812054829103610fcc573360405163129822cd60e31b81526004016106459190613396565b610fd461120f565b610ff35733604051631de7241f60e31b81526004016106459190613396565b6001600160a01b0382166000908152610102602052604090205460ff1661102f5781604051631de7241f60e31b81526004016106459190613396565b611037610f0d565b6001600160a01b0316826001600160a01b03160361106a57336040516317dfe6bb60e21b81526004016106459190613396565b506001600160a01b0316600090815261010260205260409020805460ff19169055565b60fb6020526000908152604090208054600182015460028301805460ff9093169391926110b990613d02565b80601f01602080910402602001604051908101604052809291908181526020018280546110e590613d02565b80156111325780601f1061110757610100808354040283529160200191611132565b820191906000526020600020905b81548152906001019060200180831161111557829003601f168201915b50505050509080600301805461114790613d02565b80601f016020809104026020016040519081016040528092919081815260200182805461117390613d02565b80156111c05780601f10611195576101008083540402835291602001916111c0565b820191906000526020600020905b8154815290600101906020018083116111a357829003601f168201915b5050505050905084565b610c74338383611fea565b60006101065460ff1660028111156111ef576111ef6135bf565b14610b625733604051631dca17b960e21b81526004016106459190613396565b336000908152610102602052604081205460ff168061073a575061073a610bd9565b61123b33836117e6565b6112575760405162461bcd60e51b815260040161064590613d3c565b611263848484846120b4565b50505050565b6001600160a01b038116600090815261010160205260408120548291036112a5573360405163129822cd60e31b81526004016106459190613396565b6112ad61120f565b6112cc5733604051631de7241f60e31b81526004016106459190613396565b6001600160a01b0382166000908152610102602052604090205460ff16156113095781604051633444055760e01b81526004016106459190613396565b506001600160a01b0316600090815261010260205260409020805460ff19166001179055565b6060610512826120e7565b61134261120f565b6113615733604051631de7241f60e31b81526004016106459190613396565b6001600160a01b038216600090815261010160205260409020541561139b5781604051630548cc1b60e01b81526004016106459190613396565b6113a4826119a3565b8015610c74576001600160a01b038216600090815261010260205260409020805460ff191660011790555050565b610b9c3361173b565b6113e3613177565b604051806080016040528061010480546113fc90613d02565b80601f016020809104026020016040519081016040528092919081815260200182805461142890613d02565b80156114755780601f1061144a57610100808354040283529160200191611475565b820191906000526020600020905b81548152906001019060200180831161145857829003601f168201915b50505091835250506101055460209091019060ff16600181111561149b5761149b6135bf565b8152604080518082019091526101068054602090930192829060ff1660028111156114c8576114c86135bf565b60028111156114d9576114d96135bf565b81526040805160608101909152600183018054602090930192829060ff166003811115611508576115086135bf565b6003811115611519576115196135bf565b8152815461010090046001600160a01b031660208083019190915260019092015460409182015291909252928452610109805484518184028101840190955280855294820194909250908301828280156115c457602002820191906000526020600020906000905b82829054906101000a90046001600160801b03166001600160801b031681526020019060100190602082600f010492830192600103820291508084116115815790505b5050505050815250905090565b60408051606081018252600080825260208201819052918101829052906001600160a01b038316611600610f0d565b6001600160a01b031614905060405180606001604052808215158152602001828061164457506001600160a01b0385166000908152610102602052604090205460ff165b15158152602001828061166f57506001600160a01b0385166000908152610101602052604090205415155b151590529392505050565b6001600160a01b039182166000908152606a6020908152604080832093909416825291909152205460ff1690565b6116b1816121ef565b61071b5760405162461bcd60e51b815260040161064590613eac565b600081815260696020526040902080546001600160a01b0319166001600160a01b038416908117909155819061170282610c78565b6001600160a01b03167f8c5be1e5ebec7d5bd14f71427d1e84f3dd0314c0f7b2291e5b200ac8c7c3b92560405160405180910390a45050565b6001600160a01b03811660009081526101016020526040812054908190036117785781604051633d2aa18360e01b81526004016106459190613396565b611780610f0d565b6001600160a01b0316826001600160a01b0316036117b35781604051634175d2f360e11b81526004016106459190613396565b6117bc8161220c565b6117ca60ff80546001019055565b506001600160a01b031660009081526101016020526040812055565b6000806117f283610c78565b9050806001600160a01b0316846001600160a01b031614806118195750611819818561167a565b806107275750836001600160a01b0316611832846105aa565b6001600160a01b031614949350505050565b826001600160a01b031661185782610c78565b6001600160a01b03161461187d5760405162461bcd60e51b815260040161064590613f24565b6001600160a01b0382166118df5760405162461bcd60e51b8152602060048201526024808201527f4552433732313a207472616e7366657220746f20746865207a65726f206164646044820152637265737360e01b6064820152608401610645565b6118ec838383600161224c565b826001600160a01b03166118ff82610c78565b6001600160a01b0316146119255760405162461bcd60e51b815260040161064590613f24565b600081815260696020908152604080832080546001600160a01b03199081169091556001600160a01b03878116808652606885528386208054600019019055908716808652838620805460010190558686526067909452828520805490921684179091559051849360008051602061470483398151915291a4505050565b6119b160fe80546001019055565b60006119bc60fe5490565b90506119c882826122d4565b6119d281836123dd565b6001600160a01b0390911660009081526101016020526040902055565b674b455956414c554560c01b600090815260fb602052604080516080810190915260008051602061461a8339815191528054829060ff166001811115611a3757611a376135bf565b6001811115611a4857611a486135bf565b815260200160018201548152602001600282018054611a6690613d02565b80601f0160208091040260200160405190810160405280929190818152602001828054611a9290613d02565b8015611adf5780601f10611ab457610100808354040283529160200191611adf565b820191906000526020600020905b815481529060010190602001808311611ac257829003601f168201915b50505050508152602001600382018054611af890613d02565b80601f0160208091040260200160405190810160405280929190818152602001828054611b2490613d02565b8015611b715780601f10611b4657610100808354040283529160200191611b71565b820191906000526020600020905b815481529060010190602001808311611b5457829003601f168201915b50505050508152505090508060200151600003611bc3576040516351f71f4760e11b815260206004820152600f60248201526e4b65792056616c7565205461626c6560881b6044820152606401610645565b6000611bce336126f7565b90506000611bdb4261270d565b90506000611bf9856004811115611bf457611bf46135bf565b61270d565b90506000611ce48560600151866020015160405180606001604052806026815260200161463a60269139611c628e8e8080601f0160208091040260200160405190810160405280939291908181526020018383808284376000920191909152506127a092505050565b611ca18d8d8080601f0160208091040260200160405190810160405280939291908181526020018383808284376000920191909152506127a092505050565b611caa8a6127a0565b611cb3896127a0565b611cbc8b6127a0565b604051602001611cd0959493929190613f69565b6040516020818303038152906040526127c9565b905046617a6903611d2f57611d2560405180604001604052806014815260200173496e73657274696e67206d656d6265723a20257360601b81525082612808565b5050505050610bd2565b60fd54602086015160405163757ae82760e11b81526001600160a01b039092169163eaf5d04e91611d67913091908690600401613fff565b600060405180830381600087803b158015611d8157600080fd5b505af1158015611d95573d6000803e3d6000fd5b5050505050505050505050505050565b6000908152606760205260409020546001600160a01b031690565b6001600160a01b03163b151590565b600054610100900460ff16611df65760405162461bcd60e51b815260040161064590614026565b610c74828261284d565b600054610100900460ff16611e275760405162461bcd60e51b815260040161064590614026565b60fd80546001600160a01b0319166001600160a01b038416179055611e4b8161270d565b604051602001611e5b9190614071565b60405160208183030381529060405260fc9081611e789190613ded565b50611e8161288d565b610c74612b05565b664d454d4245525360c81b600090815260fb602090815260405160609291611ed3917f86e268c87961fb38e40a85030f9d3acccd58b51955b56fa22c56bd7aa1236ec4910161411e565b604051602081830303815290604052905080604051602001611ef5919061415f565b60405160208183030381529060405291505090565b805161010490611f1a9082613ded565b506020810151610105805460ff191660018381811115611f3c57611f3c6135bf565b0217905550604081015180516101068054909190829060ff19166001836002811115611f6a57611f6a6135bf565b02179055506020820151805160018084018054909291839160ff191690836003811115611f9957611f996135bf565b021790555060208281015182546001600160a01b0390911661010002610100600160a81b031990911617825560409092015160019091015560608401518051610c74945061010993509101906131a4565b816001600160a01b0316836001600160a01b0316036120475760405162461bcd60e51b815260206004820152601960248201527822a9219b99189d1030b8383937bb32903a379031b0b63632b960391b6044820152606401610645565b6001600160a01b038381166000818152606a6020908152604080832094871680845294825291829020805460ff191686151590811790915591519182527f17307eab39ab6107e8899845ad3d59bd9653f200f220920489ca2b5937696c31910160405180910390a3505050565b6120bf848484611844565b6120cb84848484612bee565b6112635760405162461bcd60e51b8152600401610645906141c4565b60606120f2826116a8565b6000828152609760205260408120805461210b90613d02565b80601f016020809104026020016040519081016040528092919081815260200182805461213790613d02565b80156121845780601f1061215957610100808354040283529160200191612184565b820191906000526020600020905b81548152906001019060200180831161216757829003601f168201915b5050505050905060006121a260408051602081019091526000815290565b905080516000036121b4575092915050565b8151156121e65780826040516020016121ce929190614216565b60405160208183030381529060405292505050919050565b61072784612cf3565b6000806121fb83611da5565b6001600160a01b0316141592915050565b61221581612d67565b6000818152609760205260409020805461222e90613d02565b15905061071b57600081815260976020526040812061071b9161325c565b6001811115611263576001600160a01b03841615612292576001600160a01b0384166000908152606860205260408120805483929061228c908490613ef4565b90915550505b6001600160a01b03831615611263576001600160a01b038316600090815260686020526040812080548392906122c9908490614245565b909155505050505050565b6001600160a01b03821661232a5760405162461bcd60e51b815260206004820181905260248201527f4552433732313a206d696e7420746f20746865207a65726f20616464726573736044820152606401610645565b612333816121ef565b156123505760405162461bcd60e51b815260040161064590614258565b61235e60008383600161224c565b612367816121ef565b156123845760405162461bcd60e51b815260040161064590614258565b6001600160a01b038216600081815260686020908152604080832080546001019055848352606790915280822080546001600160a01b031916841790555183929190600080516020614704833981519152908290a45050565b664d454d4245525360c81b600090815260fb60205260408051608081019091526000805160206146608339815191528054829060ff166001811115612424576124246135bf565b6001811115612435576124356135bf565b81526020016001820154815260200160028201805461245390613d02565b80601f016020809104026020016040519081016040528092919081815260200182805461247f90613d02565b80156124cc5780601f106124a1576101008083540402835291602001916124cc565b820191906000526020600020905b8154815290600101906020018083116124af57829003601f168201915b505050505081526020016003820180546124e590613d02565b80601f016020809104026020016040519081016040528092919081815260200182805461251190613d02565b801561255e5780601f106125335761010080835404028352916020019161255e565b820191906000526020600020905b81548152906001019060200180831161254157829003601f168201915b505050505081525050905080602001516000036125ae576040516351f71f4760e11b815260206004820152600d60248201526c4d656d62657273205461626c6560981b6044820152606401610645565b60006125b98461270d565b905060006125c6846126f7565b905060006125d34261270d565b9050600061263a85606001518660200151604051806040016040528060188152602001771a590b081858d8dbdd5b9d0b0819185d1950dc99585d195960421b8152508761261f886127a0565b612628886127a0565b604051602001611cd09392919061428e565b905046617a69036126845761267b60405180604001604052806014815260200173496e73657274696e67206d656d6265723a20257360601b81525082612808565b50505050505050565b60fd54602086015160405163757ae82760e11b81526001600160a01b039092169163eaf5d04e916126bc913091908690600401613fff565b600060405180830381600087803b1580156126d657600080fd5b505af11580156126ea573d6000803e3d6000fd5b5050505050505050505050565b60606105126001600160a01b0383166014612df8565b6060600061271a83612f93565b60010190506000816001600160401b0381111561273957612739613418565b6040519080825280601f01601f191660200182016040528015612763576020820181803683370190505b5090508181016020015b600019016f181899199a1a9b1b9c1cb0b131b232b360811b600a86061a8153600a850494508461276d575b509392505050565b6060816040516020016127b391906142e8565b6040516020818303038152906040529050919050565b606060006127d78686613069565b90508084846040516020016127ee93929190614316565b604051602081830303815290604052915050949350505050565b610c74828260405160240161281e9291906143a2565b60408051601f198184030181529190526020810180516001600160e01b0316634b5c427760e01b1790526130a7565b600054610100900460ff166128745760405162461bcd60e51b815260040161064590614026565b60656128808382613ded565b5060666106e68282613ded565b664d454d4245525360c81b60005260fb6020527f86e268c87961fb38e40a85030f9d3acccd58b51955b56fa22c56bd7aa1236ec35460008051602061466083398151915290156128f55780600201604051633e0f514960e01b815260040161064591906143c7565b805460ff1916815560405161290f9060fc90602001614452565b60405160208183030381529060405281600301908161292e9190613ded565b5060fd54604080516060810190915260368082526001600160a01b0390921691633a9151b09130916129f591906146ce602083013985600301805461297290613d02565b80601f016020809104026020016040519081016040528092919081815260200182805461299e90613d02565b80156129eb5780601f106129c0576101008083540402835291602001916129eb565b820191906000526020600020905b8154815290600101906020018083116129ce57829003601f168201915b50505050506130c8565b6040518363ffffffff1660e01b8152600401612a12929190614476565b6020604051808303816000875af1158015612a31573d6000803e3d6000fd5b505050506040513d601f19601f82011682018060405250810190612a55919061449a565b6001820155600381018054612af69190612a6e90613d02565b80601f0160208091040260200160405190810160405280929190818152602001828054612a9a90613d02565b8015612ae75780601f10612abc57610100808354040283529160200191612ae7565b820191906000526020600020905b815481529060010190602001808311612aca57829003601f168201915b50505050508260010154613069565b6002820190610c749082613ded565b674b455956414c554560c01b60005260fb6020527f4a6f509d2fb27c497f2a5da3b090969267e49a91a64c342de0818ca8785bfc105460008051602061461a8339815191529015612b6e5780600201604051633e0f514960e01b815260040161064591906143c7565b805460ff19166001178155604051612b8b9060fc906020016144b3565b604051602081830303815290604052816003019081612baa9190613ded565b5060fd546040805160808101909152604e8082526001600160a01b0390921691633a9151b09130916129f59190614680602083013985600301805461297290613d02565b6000612c02846001600160a01b0316611dc0565b15612ceb57604051630a85bd0160e11b81526001600160a01b0385169063150b7a0290612c399033908990889088906004016144d9565b6020604051808303816000875af1925050508015612c74575060408051601f3d908101601f19168201909252612c7191810190614516565b60015b612cd1573d808015612ca2576040519150601f19603f3d011682016040523d82523d6000602084013e612ca7565b606091505b508051600003612cc95760405162461bcd60e51b8152600401610645906141c4565b805181602001fd5b6001600160e01b031916630a85bd0160e11b149050610727565b506001610727565b6060612cfe826116a8565b6000612d1560408051602081019091526000815290565b90506000815111612d355760405180602001604052806000815250612d60565b80612d3f846130e7565b604051602001612d50929190614216565b6040516020818303038152906040525b9392505050565b6000612d7282610c78565b9050612d8281600084600161224c565b612d8b82610c78565b600083815260696020908152604080832080546001600160a01b03199081169091556001600160a01b038516808552606884528285208054600019019055878552606790935281842080549091169055519293508492600080516020614704833981519152908390a45050565b60606000612e07836002614533565b612e12906002614245565b6001600160401b03811115612e2957612e29613418565b6040519080825280601f01601f191660200182016040528015612e53576020820181803683370190505b509050600360fc1b81600081518110612e6e57612e6e613d89565b60200101906001600160f81b031916908160001a905350600f60fb1b81600181518110612e9d57612e9d613d89565b60200101906001600160f81b031916908160001a9053506000612ec1846002614533565b612ecc906001614245565b90505b6001811115612f44576f181899199a1a9b1b9c1cb0b131b232b360811b85600f1660108110612f0057612f00613d89565b1a60f81b828281518110612f1657612f16613d89565b60200101906001600160f81b031916908160001a90535060049490941c93612f3d8161454a565b9050612ecf565b508315612d605760405162461bcd60e51b815260206004820181905260248201527f537472696e67733a20686578206c656e67746820696e73756666696369656e746044820152606401610645565b60008072184f03e93ff9f4daa797ed6e38ed64bf6a1f0160401b8310612fd25772184f03e93ff9f4daa797ed6e38ed64bf6a1f0160401b830492506040015b6904ee2d6d415b85acef8160201b8310612ffc576904ee2d6d415b85acef8160201b830492506020015b662386f26fc10000831061301a57662386f26fc10000830492506010015b6305f5e1008310613032576305f5e100830492506008015b612710831061304657612710830492506004015b60648310613058576064830492506002015b600a83106105125760010192915050565b6060826130754661270d565b61307e8461270d565b60405160200161309093929190614561565b604051602081830303815290604052905092915050565b80516a636f6e736f6c652e6c6f67602083016000808483855afa5050505050565b6060816130d44661270d565b8460405160200161309093929190614593565b606060006130f483612f93565b60010190506000816001600160401b0381111561311357613113613418565b6040519080825280601f01601f19166020018201604052801561313d576020820181803683370190505b5090508181016020015b600019016f181899199a1a9b1b9c1cb0b131b232b360811b600a86061a8153600a85049450841561279857613147565b604080516080810182526060815260006020820152908101613197613296565b8152602001606081525090565b8280548282559060005260206000209060010160029004810192821561324c5791602002820160005b8382111561321757835183826101000a8154816001600160801b0302191690836001600160801b031602179055509260200192601001602081600f010492830192600103026131cd565b801561324a5782816101000a8154906001600160801b030219169055601001602081600f01049283019260010302613217565b505b506132589291506132d2565b5090565b50805461326890613d02565b6000825580601f10613278575050565b601f01602090049060005260206000209081019061071b91906132d2565b6040805180820190915280600081526020016132cd6040805160608101909152806000815260006020820181905260409091015290565b905290565b5b8082111561325857600081556001016132d3565b6001600160e01b03198116811461071b57600080fd5b60006020828403121561330f57600080fd5b8135612d60816132e7565b60005b8381101561333557818101518382015260200161331d565b50506000910152565b6000815180845261335681602086016020860161331a565b601f01601f19169290920160200192915050565b602081526000612d60602083018461333e565b60006020828403121561338f57600080fd5b5035919050565b6001600160a01b0391909116815260200190565b6001600160a01b038116811461071b57600080fd5b80356133ca816133aa565b919050565b600080604083850312156133e257600080fd5b82356133ed816133aa565b946020939093013593505050565b60006020828403121561340d57600080fd5b8135612d60816133aa565b634e487b7160e01b600052604160045260246000fd5b604051608081016001600160401b038111828210171561345057613450613418565b60405290565b604051606081016001600160401b038111828210171561345057613450613418565b604051601f8201601f191681016001600160401b03811182821017156134a0576134a0613418565b604052919050565b60006001600160401b038311156134c1576134c1613418565b6134d4601f8401601f1916602001613478565b90508281528383830111156134e857600080fd5b828260208301376000602084830101529392505050565b6000806000806080858703121561351557600080fd5b8435613520816133aa565b93506020850135613530816133aa565b92506040850135915060608501356001600160401b0381111561355257600080fd5b8501601f8101871361356357600080fd5b613572878235602084016134a8565b91505092959194509250565b60008060006060848603121561359357600080fd5b833561359e816133aa565b925060208401356135ae816133aa565b929592945050506040919091013590565b634e487b7160e01b600052602160045260246000fd5b6002811061071b5761071b6135bf565b60006020808301818452808551808352604092508286019150828160051b87010184880160005b8381101561367d57603f1989840301855281516080815161362c816135d5565b855281890151898601528782015188860182905261364c8287018261333e565b91505060608083015192508582038187015250613669818361333e565b96890196945050509086019060010161360c565b509098975050505050505050565b60008083601f84011261369d57600080fd5b5081356001600160401b038111156136b457600080fd5b6020830191508360208285010111156136cc57600080fd5b9250929050565b6000806000806000606086880312156136eb57600080fd5b85356001600160401b038082111561370257600080fd5b61370e89838a0161368b565b9097509550602088013591508082111561372757600080fd5b506137348882890161368b565b90945092505060408601356005811061374c57600080fd5b809150509295509295909350565b600082601f83011261376b57600080fd5b612d60838335602085016134a8565b60006020828403121561378c57600080fd5b81356001600160401b03808211156137a357600080fd5b90830190608082860312156137b757600080fd5b6137bf61342e565b8235828111156137ce57600080fd5b6137da8782860161375a565b8252506020830135828111156137ef57600080fd5b6137fb8782860161375a565b60208301525060408301358281111561381357600080fd5b61381f8782860161375a565b60408301525060608301358281111561383757600080fd5b6138438782860161375a565b60608301525095945050505050565b60006020828403121561386457600080fd5b81356001600160401b0381111561387a57600080fd5b6107278482850161375a565b600082601f83011261389757600080fd5b813560206001600160401b038211156138b2576138b2613418565b8160051b6138c1828201613478565b92835284810182019282810190878511156138db57600080fd5b83870192505b848310156139105782356001600160801b03811681146139015760008081fd5b825291830191908301906138e1565b979650505050505050565b600081830360e081121561392e57600080fd5b61393661342e565b915082356001600160401b038082111561394f57600080fd5b61395b8683870161375a565b8452602085013591506002821061397157600080fd5b816020850152604091506080603f198401121561398d57600080fd5b815182810181811083821117156139a6576139a6613418565b835285830135600381106139b957600080fd5b81526060605f19850112156139cd57600080fd5b6139d5613456565b93506060860135600481106139e957600080fd5b845260808601356139f9816133aa565b8060208601525060a08601358385015283602082015280838601525060c0850135925080831115613a2957600080fd5b5050613a3784828501613886565b60608301525092915050565b600080600080600080600060e0888a031215613a5e57600080fd5b87356001600160401b0380821115613a7557600080fd5b613a818b838c0161375a565b985060208a0135915080821115613a9757600080fd5b613aa38b838c0161375a565b975060408a01359150613ab5826133aa565b909550606089013590613ac7826133aa565b819550613ad660808b016133bf565b945060a08a0135935060c08a0135915080821115613af357600080fd5b50613b008a828b0161391b565b91505092959891949750929550565b600060208284031215613b2157600080fd5b81356001600160401b03811115613b3757600080fd5b6107278482850161391b565b600060208284031215613b5557600080fd5b81356001600160c01b031981168114612d6057600080fd5b613b76856135d5565b848152836020820152608060408201526000613b95608083018561333e565b8281036060840152613910818561333e565b60008060408385031215613bba57600080fd5b8235613bc5816133aa565b915060208301358015158114613bda57600080fd5b809150509250929050565b600081518084526020808501945080840160005b83811015613c1e5781516001600160801b031687529582019590820190600101613bf9565b509495945050505050565b602081526000825160e06020840152613c4661010084018261333e565b90506020840151613c56816135d5565b806040850152506040840151805160038110613c7457613c746135bf565b606085015260200151805160048110613c8f57613c8f6135bf565b608085015260208101516001600160a01b031660a08501526040015160c08401526060840151838203601f190160e0850152613ccb8282613be5565b95945050505050565b60008060408385031215613ce757600080fd5b8235613cf2816133aa565b91506020830135613bda816133aa565b600181811c90821680613d1657607f821691505b602082108103613d3657634e487b7160e01b600052602260045260246000fd5b50919050565b6020808252602d908201527f4552433732313a2063616c6c6572206973206e6f7420746f6b656e206f776e6560408201526c1c881bdc88185c1c1c9bdd9959609a1b606082015260800190565b634e487b7160e01b600052603260045260246000fd5b601f8211156106e657600081815260208120601f850160051c81016020861015613dc65750805b601f850160051c820191505b81811015613de557828155600101613dd2565b505050505050565b81516001600160401b03811115613e0657613e06613418565b613e1a81613e148454613d02565b84613d9f565b602080601f831160018114613e4f5760008415613e375750858301515b600019600386901b1c1916600185901b178555613de5565b600085815260208120601f198616915b82811015613e7e57888601518255948401946001909101908401613e5f565b5085821015613e9c5787850151600019600388901b60f8161c191681555b5050505050600190811b01905550565b602080825260189082015277115490cdcc8c4e881a5b9d985b1a59081d1bdad95b88125160421b604082015260600190565b634e487b7160e01b600052601160045260246000fd5b8181038181111561051257610512613ede565b600060208284031215613f1957600080fd5b8151612d60816133aa565b60208082526025908201527f4552433732313a207472616e736665722066726f6d20696e636f72726563742060408201526437bbb732b960d91b606082015260800190565b60008651613f7b818460208b0161331a565b8083019050600b60fa1b8082528751613f9b816001850160208c0161331a565b600192019182018190528651613fb8816002850160208b0161331a565b600292019182018190528551613fd5816003850160208a0161331a565b60039201918201528351613ff081600484016020880161331a565b01600401979650505050505050565b60018060a01b0384168152826020820152606060408201526000613ccb606083018461333e565b6020808252602b908201527f496e697469616c697a61626c653a20636f6e7472616374206973206e6f74206960408201526a6e697469616c697a696e6760a81b606082015260800190565b71656d62726163655f636f6d6d756e6974795f60701b81526000825161409e81601285016020870161331a565b9190910160120192915050565b600081546140b881613d02565b600182811680156140d057600181146140e557614114565b60ff1984168752821515830287019450614114565b8560005260208060002060005b8581101561410b5781548a8201529084019082016140f2565b50505082870194505b5050505092915050565b6d53454c4543542b2a2b46524f4d2b60901b81526000614141600e8301846140ab565b6d2b57484552452b69642b2533442b60901b8152600e019392505050565b7f68747470733a2f2f746573746e6574732e7461626c656c616e642e6e6574776f815276726b2f71756572793f756e777261703d7472756526733d60481b6020820152600082516141b781603785016020870161331a565b9190910160370192915050565b60208082526032908201527f4552433732313a207472616e7366657220746f206e6f6e20455243373231526560408201527131b2b4bb32b91034b6b83632b6b2b73a32b960711b606082015260800190565b6000835161422881846020880161331a565b83519083019061423c81836020880161331a565b01949350505050565b8082018082111561051257610512613ede565b6020808252601c908201527b115490cdcc8c4e881d1bdad95b88185b1c9958591e481b5a5b9d195960221b604082015260600190565b600084516142a081846020890161331a565b8083019050600b60fa1b80825285516142c0816001850160208a0161331a565b600192019182015283516142db81600284016020880161331a565b0160020195945050505050565b6000602760f81b808352835161430581600186016020880161331a565b600193019283015250600201919050565b6b024a729a2a92a1024a72a27960a51b81526000845161433d81600c85016020890161331a565b600560fb1b600c91840191820152845161435e81600d84016020890161331a565b67052ac8298aa8aa6560c31b600d9290910191820152835161438781601584016020880161331a565b602960f81b6015929091019182015260160195945050505050565b6040815260006143b5604083018561333e565b8281036020840152613ccb818561333e565b60006020808352600084546143db81613d02565b808487015260406001808416600081146143fc576001811461441657614444565b60ff1985168984015283151560051b890183019550614444565b896000528660002060005b8581101561443c5781548b8201860152908301908801614421565b8a0184019650505b509398975050505050505050565b600061445e82846140ab565b675f6d656d6265727360c01b81526008019392505050565b6001600160a01b03831681526040602082018190526000906107279083018461333e565b6000602082840312156144ac57600080fd5b5051919050565b60006144bf82846140ab565b695f6b65795f76616c756560b01b8152600a019392505050565b6001600160a01b038581168252841660208201526040810183905260806060820181905260009061450c9083018461333e565b9695505050505050565b60006020828403121561452857600080fd5b8151612d60816132e7565b808202811582820484141761051257610512613ede565b60008161455957614559613ede565b506000190190565b6000845161457381846020890161331a565b8083019050605f60f81b80825285516142c0816001850160208a0161331a565b6c021a922a0aa22902a20a126229609d1b8152600084516145bb81600d85016020890161331a565b605f60f81b600d9184019182015284516145dc81600e84016020890161331a565b600560fb1b600e929091019182015283516145fe81600f84016020880161331a565b602960f81b600f92909101918201526010019594505050505056fe4a6f509d2fb27c497f2a5da3b090969267e49a91a64c342de0818ca8785bfc0f6b2c20762c206163636f756e742c20656e6372797074696f6e2c20646174654372656174656486e268c87961fb38e40a85030f9d3acccd58b51955b56fa22c56bd7aa1236ec26b2054455854205052494d415259204b45592c207620544558542c206163636f756e7420544558542c20656e6372797074696f6e20494e54454745522c2064617465437265617465642054455854696420494e5445474552205052494d415259204b45592c206163636f756e7420544558542c2064617465437265617465642054455854ddf252ad1be2c89b69c2b068fc378daa952ba7f163c4a11628f55a4df523b3efa164736f6c6343000811000a",
  "linkReferences": {},
  "deployedLinkReferences": {}
}