{
  "_format": "hh-sol-artifact-1",
  "contractName": "EmbraceCommunity",
  "sourceName": "contracts/EmbraceCommunity.sol",
  "abi": [
    {
      "inputs": [
        {
          "internalType": "address",
          "name": "account",
          "type": "address"
        }
      ],
      "name": "ErrorCannotRemoveFounderAdmin",
      "type": "error"
    },
    {
      "inputs": [
        {
          "internalType": "address",
          "name": "account",
          "type": "address"
        }
      ],
      "name": "ErrorFounderCannotLeave",
      "type": "error"
    },
    {
      "inputs": [
        {
          "internalType": "address",
          "name": "account",
          "type": "address"
        }
      ],
      "name": "ErrorGatedRequirementsNotMet",
      "type": "error"
    },
    {
      "inputs": [
        {
          "internalType": "address",
          "name": "member",
          "type": "address"
        }
      ],
      "name": "ErrorMemberDoesNotExist",
      "type": "error"
    },
    {
      "inputs": [
        {
          "internalType": "address",
          "name": "member",
          "type": "address"
        }
      ],
      "name": "ErrorMemberExists",
      "type": "error"
    },
    {
      "inputs": [
        {
          "internalType": "address",
          "name": "member",
          "type": "address"
        }
      ],
      "name": "ErrorNotAdmin",
      "type": "error"
    },
    {
      "inputs": [
        {
          "internalType": "address",
          "name": "member",
          "type": "address"
        }
      ],
      "name": "ErrorNotFounder",
      "type": "error"
    },
    {
      "inputs": [
        {
          "internalType": "address",
          "name": "account",
          "type": "address"
        }
      ],
      "name": "ErrorNotGatedAccess",
      "type": "error"
    },
    {
      "inputs": [
        {
          "internalType": "address",
          "name": "account",
          "type": "address"
        }
      ],
      "name": "ErrorNotMember",
      "type": "error"
    },
    {
      "inputs": [
        {
          "internalType": "address",
          "name": "account",
          "type": "address"
        }
      ],
      "name": "ErrorNotOpenAccess",
      "type": "error"
    },
    {
      "anonymous": false,
      "inputs": [
        {
          "indexed": false,
          "internalType": "uint256",
          "name": "communityId",
          "type": "uint256"
        },
        {
          "indexed": false,
          "internalType": "address",
          "name": "member",
          "type": "address"
        }
      ],
      "name": "AdminAdded",
      "type": "event"
    },
    {
      "anonymous": false,
      "inputs": [
        {
          "indexed": false,
          "internalType": "uint256",
          "name": "communityId",
          "type": "uint256"
        },
        {
          "indexed": false,
          "internalType": "address",
          "name": "member",
          "type": "address"
        }
      ],
      "name": "AdminRemoved",
      "type": "event"
    },
    {
      "anonymous": false,
      "inputs": [
        {
          "indexed": true,
          "internalType": "address",
          "name": "owner",
          "type": "address"
        },
        {
          "indexed": true,
          "internalType": "address",
          "name": "approved",
          "type": "address"
        },
        {
          "indexed": true,
          "internalType": "uint256",
          "name": "tokenId",
          "type": "uint256"
        }
      ],
      "name": "Approval",
      "type": "event"
    },
    {
      "anonymous": false,
      "inputs": [
        {
          "indexed": true,
          "internalType": "address",
          "name": "owner",
          "type": "address"
        },
        {
          "indexed": true,
          "internalType": "address",
          "name": "operator",
          "type": "address"
        },
        {
          "indexed": false,
          "internalType": "bool",
          "name": "approved",
          "type": "bool"
        }
      ],
      "name": "ApprovalForAll",
      "type": "event"
    },
    {
      "anonymous": false,
      "inputs": [
        {
          "indexed": false,
          "internalType": "uint8",
          "name": "version",
          "type": "uint8"
        }
      ],
      "name": "Initialized",
      "type": "event"
    },
    {
      "anonymous": false,
      "inputs": [
        {
          "indexed": false,
          "internalType": "uint256",
          "name": "communityId",
          "type": "uint256"
        },
        {
          "indexed": false,
          "internalType": "uint256",
          "name": "tokenId",
          "type": "uint256"
        },
        {
          "indexed": false,
          "internalType": "address",
          "name": "member",
          "type": "address"
        }
      ],
      "name": "MemberAdded",
      "type": "event"
    },
    {
      "anonymous": false,
      "inputs": [
        {
          "indexed": false,
          "internalType": "uint256",
          "name": "communityId",
          "type": "uint256"
        },
        {
          "indexed": false,
          "internalType": "uint256",
          "name": "tokenId",
          "type": "uint256"
        },
        {
          "indexed": false,
          "internalType": "address",
          "name": "member",
          "type": "address"
        }
      ],
      "name": "MemberRemoved",
      "type": "event"
    },
    {
      "anonymous": false,
      "inputs": [
        {
          "indexed": true,
          "internalType": "address",
          "name": "from",
          "type": "address"
        },
        {
          "indexed": true,
          "internalType": "address",
          "name": "to",
          "type": "address"
        },
        {
          "indexed": true,
          "internalType": "uint256",
          "name": "tokenId",
          "type": "uint256"
        }
      ],
      "name": "Transfer",
      "type": "event"
    },
    {
      "inputs": [
        {
          "internalType": "address",
          "name": "_account",
          "type": "address"
        }
      ],
      "name": "adminAdd",
      "outputs": [],
      "stateMutability": "nonpayable",
      "type": "function"
    },
    {
      "inputs": [
        {
          "internalType": "address",
          "name": "_account",
          "type": "address"
        }
      ],
      "name": "adminRemove",
      "outputs": [],
      "stateMutability": "nonpayable",
      "type": "function"
    },
    {
      "inputs": [
        {
          "internalType": "address",
          "name": "to",
          "type": "address"
        },
        {
          "internalType": "uint256",
          "name": "tokenId",
          "type": "uint256"
        }
      ],
      "name": "approve",
      "outputs": [],
      "stateMutability": "nonpayable",
      "type": "function"
    },
    {
      "inputs": [
        {
          "internalType": "address",
          "name": "owner",
          "type": "address"
        }
      ],
      "name": "balanceOf",
      "outputs": [
        {
          "internalType": "uint256",
          "name": "",
          "type": "uint256"
        }
      ],
      "stateMutability": "view",
      "type": "function"
    },
    {
      "inputs": [
        {
          "internalType": "uint256",
          "name": "tokenId",
          "type": "uint256"
        }
      ],
      "name": "getApproved",
      "outputs": [
        {
          "internalType": "address",
          "name": "",
          "type": "address"
        }
      ],
      "stateMutability": "view",
      "type": "function"
    },
    {
      "inputs": [],
      "name": "getCommunityData",
      "outputs": [
        {
          "components": [
            {
              "internalType": "string",
              "name": "handle",
              "type": "string"
            },
            {
              "internalType": "enum Visibility",
              "name": "visibility",
              "type": "uint8"
            },
            {
              "components": [
                {
                  "internalType": "enum Access",
                  "name": "access",
                  "type": "uint8"
                },
                {
                  "components": [
                    {
                      "internalType": "enum MembershipGateToken",
                      "name": "tokenType",
                      "type": "uint8"
                    },
                    {
                      "internalType": "address",
                      "name": "tokenAddress",
                      "type": "address"
                    },
                    {
                      "internalType": "uint256",
                      "name": "tokenId",
                      "type": "uint256"
                    }
                  ],
                  "internalType": "struct MembershipGate",
                  "name": "gate",
                  "type": "tuple"
                }
              ],
              "internalType": "struct Membership",
              "name": "membership",
              "type": "tuple"
            },
            {
              "internalType": "uint128[]",
              "name": "apps",
              "type": "uint128[]"
            },
            {
              "internalType": "string",
              "name": "metadata",
              "type": "string"
            }
          ],
          "internalType": "struct CommunityData",
          "name": "",
          "type": "tuple"
        }
      ],
      "stateMutability": "view",
      "type": "function"
    },
    {
      "inputs": [],
      "name": "getFounder",
      "outputs": [
        {
          "internalType": "address",
          "name": "",
          "type": "address"
        }
      ],
      "stateMutability": "view",
      "type": "function"
    },
    {
      "inputs": [
        {
          "internalType": "address",
          "name": "_address",
          "type": "address"
        }
      ],
      "name": "getMemberStatus",
      "outputs": [
        {
          "components": [
            {
              "internalType": "bool",
              "name": "isFounder",
              "type": "bool"
            },
            {
              "internalType": "bool",
              "name": "isAdmin",
              "type": "bool"
            },
            {
              "internalType": "bool",
              "name": "isMember",
              "type": "bool"
            }
          ],
          "internalType": "struct EmbraceCommunity.MemberStatus",
          "name": "",
          "type": "tuple"
        }
      ],
      "stateMutability": "view",
      "type": "function"
    },
    {
      "inputs": [
        {
          "internalType": "address",
          "name": "_account",
          "type": "address"
        }
      ],
      "name": "getMemberTokenId",
      "outputs": [
        {
          "internalType": "uint256",
          "name": "",
          "type": "uint256"
        }
      ],
      "stateMutability": "view",
      "type": "function"
    },
    {
      "inputs": [
        {
          "internalType": "string",
          "name": "_name",
          "type": "string"
        },
        {
          "internalType": "string",
          "name": "_symbol",
          "type": "string"
        },
        {
          "internalType": "address",
          "name": "_founderAddress",
          "type": "address"
        },
        {
          "internalType": "address",
          "name": "_communitiesContractAddress",
          "type": "address"
        },
        {
          "internalType": "uint256",
          "name": "_communityId",
          "type": "uint256"
        },
        {
          "components": [
            {
              "internalType": "string",
              "name": "handle",
              "type": "string"
            },
            {
              "internalType": "enum Visibility",
              "name": "visibility",
              "type": "uint8"
            },
            {
              "components": [
                {
                  "internalType": "enum Access",
                  "name": "access",
                  "type": "uint8"
                },
                {
                  "components": [
                    {
                      "internalType": "enum MembershipGateToken",
                      "name": "tokenType",
                      "type": "uint8"
                    },
                    {
                      "internalType": "address",
                      "name": "tokenAddress",
                      "type": "address"
                    },
                    {
                      "internalType": "uint256",
                      "name": "tokenId",
                      "type": "uint256"
                    }
                  ],
                  "internalType": "struct MembershipGate",
                  "name": "gate",
                  "type": "tuple"
                }
              ],
              "internalType": "struct Membership",
              "name": "membership",
              "type": "tuple"
            },
            {
              "internalType": "uint128[]",
              "name": "apps",
              "type": "uint128[]"
            },
            {
              "internalType": "string",
              "name": "metadata",
              "type": "string"
            }
          ],
          "internalType": "struct CommunityData",
          "name": "_communityData",
          "type": "tuple"
        }
      ],
      "name": "initialize",
      "outputs": [],
      "stateMutability": "nonpayable",
      "type": "function"
    },
    {
      "inputs": [
        {
          "internalType": "string",
          "name": "_key",
          "type": "string"
        },
        {
          "internalType": "string",
          "name": "_value",
          "type": "string"
        }
      ],
      "name": "insertKeyValue",
      "outputs": [],
      "stateMutability": "nonpayable",
      "type": "function"
    },
    {
      "inputs": [],
      "name": "isAdmin",
      "outputs": [
        {
          "internalType": "bool",
          "name": "",
          "type": "bool"
        }
      ],
      "stateMutability": "view",
      "type": "function"
    },
    {
      "inputs": [
        {
          "internalType": "address",
          "name": "owner",
          "type": "address"
        },
        {
          "internalType": "address",
          "name": "operator",
          "type": "address"
        }
      ],
      "name": "isApprovedForAll",
      "outputs": [
        {
          "internalType": "bool",
          "name": "",
          "type": "bool"
        }
      ],
      "stateMutability": "view",
      "type": "function"
    },
    {
      "inputs": [],
      "name": "isFounder",
      "outputs": [
        {
          "internalType": "bool",
          "name": "",
          "type": "bool"
        }
      ],
      "stateMutability": "view",
      "type": "function"
    },
    {
      "inputs": [],
      "name": "join",
      "outputs": [],
      "stateMutability": "nonpayable",
      "type": "function"
    },
    {
      "inputs": [],
      "name": "joinGated",
      "outputs": [],
      "stateMutability": "nonpayable",
      "type": "function"
    },
    {
      "inputs": [],
      "name": "leave",
      "outputs": [],
      "stateMutability": "nonpayable",
      "type": "function"
    },
    {
      "inputs": [
        {
          "internalType": "address",
          "name": "_memberAddress",
          "type": "address"
        },
        {
          "internalType": "bool",
          "name": "_isAdmin",
          "type": "bool"
        }
      ],
      "name": "memberAdd",
      "outputs": [],
      "stateMutability": "nonpayable",
      "type": "function"
    },
    {
      "inputs": [
        {
          "internalType": "address",
          "name": "",
          "type": "address"
        }
      ],
      "name": "memberToTokenId",
      "outputs": [
        {
          "internalType": "uint256",
          "name": "",
          "type": "uint256"
        }
      ],
      "stateMutability": "view",
      "type": "function"
    },
    {
      "inputs": [],
      "name": "name",
      "outputs": [
        {
          "internalType": "string",
          "name": "",
          "type": "string"
        }
      ],
      "stateMutability": "view",
      "type": "function"
    },
    {
      "inputs": [
        {
          "internalType": "address",
          "name": "",
          "type": "address"
        },
        {
          "internalType": "address",
          "name": "",
          "type": "address"
        },
        {
          "internalType": "uint256",
          "name": "",
          "type": "uint256"
        },
        {
          "internalType": "bytes",
          "name": "",
          "type": "bytes"
        }
      ],
      "name": "onERC721Received",
      "outputs": [
        {
          "internalType": "bytes4",
          "name": "",
          "type": "bytes4"
        }
      ],
      "stateMutability": "nonpayable",
      "type": "function"
    },
    {
      "inputs": [
        {
          "internalType": "uint256",
          "name": "tokenId",
          "type": "uint256"
        }
      ],
      "name": "ownerOf",
      "outputs": [
        {
          "internalType": "address",
          "name": "",
          "type": "address"
        }
      ],
      "stateMutability": "view",
      "type": "function"
    },
    {
      "inputs": [
        {
          "internalType": "address",
          "name": "_memberAddress",
          "type": "address"
        }
      ],
      "name": "removeMember",
      "outputs": [],
      "stateMutability": "nonpayable",
      "type": "function"
    },
    {
      "inputs": [
        {
          "internalType": "address",
          "name": "from",
          "type": "address"
        },
        {
          "internalType": "address",
          "name": "to",
          "type": "address"
        },
        {
          "internalType": "uint256",
          "name": "tokenId",
          "type": "uint256"
        }
      ],
      "name": "safeTransferFrom",
      "outputs": [],
      "stateMutability": "nonpayable",
      "type": "function"
    },
    {
      "inputs": [
        {
          "internalType": "address",
          "name": "from",
          "type": "address"
        },
        {
          "internalType": "address",
          "name": "to",
          "type": "address"
        },
        {
          "internalType": "uint256",
          "name": "tokenId",
          "type": "uint256"
        },
        {
          "internalType": "bytes",
          "name": "data",
          "type": "bytes"
        }
      ],
      "name": "safeTransferFrom",
      "outputs": [],
      "stateMutability": "nonpayable",
      "type": "function"
    },
    {
      "inputs": [
        {
          "internalType": "address",
          "name": "operator",
          "type": "address"
        },
        {
          "internalType": "bool",
          "name": "approved",
          "type": "bool"
        }
      ],
      "name": "setApprovalForAll",
      "outputs": [],
      "stateMutability": "nonpayable",
      "type": "function"
    },
    {
      "inputs": [
        {
          "internalType": "string",
          "name": "_uri",
          "type": "string"
        }
      ],
      "name": "setBaseURI",
      "outputs": [],
      "stateMutability": "nonpayable",
      "type": "function"
    },
    {
      "inputs": [
        {
          "components": [
            {
              "internalType": "string",
              "name": "handle",
              "type": "string"
            },
            {
              "internalType": "enum Visibility",
              "name": "visibility",
              "type": "uint8"
            },
            {
              "components": [
                {
                  "internalType": "enum Access",
                  "name": "access",
                  "type": "uint8"
                },
                {
                  "components": [
                    {
                      "internalType": "enum MembershipGateToken",
                      "name": "tokenType",
                      "type": "uint8"
                    },
                    {
                      "internalType": "address",
                      "name": "tokenAddress",
                      "type": "address"
                    },
                    {
                      "internalType": "uint256",
                      "name": "tokenId",
                      "type": "uint256"
                    }
                  ],
                  "internalType": "struct MembershipGate",
                  "name": "gate",
                  "type": "tuple"
                }
              ],
              "internalType": "struct Membership",
              "name": "membership",
              "type": "tuple"
            },
            {
              "internalType": "uint128[]",
              "name": "apps",
              "type": "uint128[]"
            },
            {
              "internalType": "string",
              "name": "metadata",
              "type": "string"
            }
          ],
          "internalType": "struct CommunityData",
          "name": "_communityData",
          "type": "tuple"
        }
      ],
      "name": "setCommunityData",
      "outputs": [],
      "stateMutability": "nonpayable",
      "type": "function"
    },
    {
      "inputs": [
        {
          "internalType": "bytes4",
          "name": "interfaceId",
          "type": "bytes4"
        }
      ],
      "name": "supportsInterface",
      "outputs": [
        {
          "internalType": "bool",
          "name": "",
          "type": "bool"
        }
      ],
      "stateMutability": "view",
      "type": "function"
    },
    {
      "inputs": [],
      "name": "symbol",
      "outputs": [
        {
          "internalType": "string",
          "name": "",
          "type": "string"
        }
      ],
      "stateMutability": "view",
      "type": "function"
    },
    {
      "inputs": [
        {
          "internalType": "uint256",
          "name": "tokenId",
          "type": "uint256"
        }
      ],
      "name": "tokenURI",
      "outputs": [
        {
          "internalType": "string",
          "name": "",
          "type": "string"
        }
      ],
      "stateMutability": "view",
      "type": "function"
    },
    {
      "inputs": [],
      "name": "totalMembers",
      "outputs": [
        {
          "internalType": "uint256",
          "name": "",
          "type": "uint256"
        }
      ],
      "stateMutability": "view",
      "type": "function"
    },
    {
      "inputs": [],
      "name": "totalSupply",
      "outputs": [
        {
          "internalType": "uint256",
          "name": "",
          "type": "uint256"
        }
      ],
      "stateMutability": "view",
      "type": "function"
    },
    {
      "inputs": [
        {
          "internalType": "address",
          "name": "from",
          "type": "address"
        },
        {
          "internalType": "address",
          "name": "to",
          "type": "address"
        },
        {
          "internalType": "uint256",
          "name": "tokenId",
          "type": "uint256"
        }
      ],
      "name": "transferFrom",
      "outputs": [],
      "stateMutability": "nonpayable",
      "type": "function"
    }
  ],
  "bytecode": "0x608060405234801561001057600080fd5b50612c36806100206000396000f3fe608060405234801561001057600080fd5b50600436106101965760003560e01c806301ffc9a71461019b57806306fdde03146101c3578063081812fc146101d8578063095ea7b3146101f85780630b1ca49a1461020d578063150b7a021461022057806318160ddd1461024c578063239ac4161461026257806323b872dd1461028257806330547e5b14610295578063394785681461029d5780633d60154c146102a557806342842e0e146102b85780634ced4d51146102cb57806355f804b3146102de5780636352211e146102f15780636b52f2cf1461030457806370a082311461031757806376e925591461032a578063936bc98314610332578063946bcc301461034557806395d89b411461034d578063a22cb46514610355578063ad357f7014610368578063b688a3631461037b578063b6db75a014610383578063b88d4fde1461038b578063c87b56dd1461039e578063d18fd367146103b1578063d66d9e19146103da578063daee9ac9146103e2578063dde8535f146103f7578063e985e9c514610432578063f269c59514610445575b600080fd5b6101ae6101a9366004611fd5565b610458565b60405190151581526020015b60405180910390f35b6101cb6104aa565b6040516101ba9190612042565b6101eb6101e6366004612055565b61053c565b6040516101ba919061206e565b61020b610206366004612097565b610563565b005b61020b61021b3660046120c3565b61067d565b61023361022e3660046121a5565b6106b0565b6040516001600160e01b031990911681526020016101ba565b6102546106c1565b6040519081526020016101ba565b6102546102703660046120c3565b60fe6020526000908152604090205481565b61020b610290366004612224565b6106d1565b61020b610702565b6101ae610777565b61020b6102b33660046122ad565b610791565b61020b6102c6366004612224565b6107be565b61020b6102d9366004612560565b6107d9565b61020b6102ec366004612594565b610809565b6101eb6102ff366004612055565b61084b565b61020b6103123660046125c8565b61087f565b6102546103253660046120c3565b610a03565b610254610a89565b61020b6103403660046120c3565b610aa1565b6101eb610bdb565b6101cb610c4f565b61020b610363366004612681565b610c5e565b61020b610376366004612681565b610c69565b61020b610ce1565b6101ae610d1b565b61020b6103993660046121a5565b610d3c565b6101cb6103ac366004612055565b610d6e565b6102546103bf3660046120c3565b6001600160a01b0316600090815260fe602052604090205490565b61020b610d79565b6103ea610d82565b6040516101ba9190612729565b61040a6104053660046120c3565b611009565b60408051825115158152602080840151151590820152918101511515908201526060016101ba565b6101ae6104403660046127ef565b6110b1565b61020b6104533660046120c3565b6110df565b60006001600160e01b031982166380ac58cd60e01b148061048957506001600160e01b03198216635b5e139f60e01b145b806104a457506301ffc9a760e01b6001600160e01b03198316145b92915050565b6060606580546104b99061281d565b80601f01602080910402602001604051908101604052809291908181526020018280546104e59061281d565b80156105325780601f1061050757610100808354040283529160200191610532565b820191906000526020600020905b81548152906001019060200180831161051557829003601f168201915b5050505050905090565b60006105478261114a565b506000908152606960205260409020546001600160a01b031690565b600061056e8261084b565b9050806001600160a01b0316836001600160a01b0316036105e05760405162461bcd60e51b815260206004820152602160248201527f4552433732313a20617070726f76616c20746f2063757272656e74206f776e656044820152603960f91b60648201526084015b60405180910390fd5b336001600160a01b03821614806105fc57506105fc81336110b1565b61066e5760405162461bcd60e51b815260206004820152603d60248201527f4552433732313a20617070726f76652063616c6c6572206973206e6f7420746f60448201527f6b656e206f776e6572206f7220617070726f76656420666f7220616c6c00000060648201526084016105d7565b610678838361116f565b505050565b610685610d1b565b6106a45733604051631de7241f60e31b81526004016105d7919061206e565b6106ad816111dd565b50565b630a85bd0160e11b5b949350505050565b60006106cc60fb5490565b905090565b6106db33826112bd565b6106f75760405162461bcd60e51b81526004016105d790612857565b61067883838361131b565b60016101035460ff16600381111561071c5761071c6126bf565b1461073c5733604051632ea5767760e21b81526004016105d7919061206e565b33600090815260fe60205260409020541561076c5733604051630548cc1b60e01b81526004016105d7919061206e565b6107753361147a565b565b600033610782610bdb565b6001600160a01b031614905090565b610799610d1b565b6107b85733604051631de7241f60e31b81526004016105d7919061206e565b50505050565b61067883838360405180602001604052806000815250610d3c565b6107e1610d1b565b6108005733604051631de7241f60e31b81526004016105d7919061206e565b6106ad816114f1565b33610812610bdb565b6001600160a01b03161461083b573360405163412c7d7560e01b81526004016105d7919061206e565b60fd61084782826128f2565b5050565b600080610857836115e5565b90506001600160a01b0381166104a45760405162461bcd60e51b81526004016105d7906129b1565b600054610100900460ff161580801561089f5750600054600160ff909116105b806108c057506108ae30611600565b1580156108c0575060005460ff166001145b6109235760405162461bcd60e51b815260206004820152602e60248201527f496e697469616c697a61626c653a20636f6e747261637420697320616c72656160448201526d191e481a5b9a5d1a585b1a5e995960921b60648201526084016105d7565b6000805460ff191660011790558015610946576000805461ff0019166101001790555b610950878761160f565b61010880546001600160a01b0319166001600160a01b038616179055610100839055604080518082019091526007815266697066733a2f2f60c81b60208201526109999061083b565b6109a2826114f1565b6109ab8561147a565b6109b485611640565b80156109fa576000805461ff0019169055604051600181527f7f26b83ff96e1f2b6a682f133852f6798a09c465da95921460cefb38474024989060200160405180910390a15b50505050505050565b60006001600160a01b038216610a6d5760405162461bcd60e51b815260206004820152602960248201527f4552433732313a2061646472657373207a65726f206973206e6f7420612076616044820152683634b21037bbb732b960b91b60648201526084016105d7565b506001600160a01b031660009081526068602052604090205490565b6000610a9460fc5490565b60fb546106cc91906129f9565b6001600160a01b038116600090815260fe6020526040812054829103610adc573360405163129822cd60e31b81526004016105d7919061206e565b610ae4610d1b565b610b035733604051631de7241f60e31b81526004016105d7919061206e565b6001600160a01b038216600090815260ff602081905260409091205416610b3f5781604051631de7241f60e31b81526004016105d7919061206e565b610b47610bdb565b6001600160a01b0316826001600160a01b031603610b7a57336040516317dfe6bb60e21b81526004016105d7919061206e565b6001600160a01b038216600090815260ff602052604090819020805460ff191690556101005490517f8b41a2498e3f784d58ed746da2a7a2f699504cdd0ee2f9982dc7256e006e7ee591610bcf918590612a0c565b60405180910390a15050565b61010854610100546040516331a9108f60e11b815260048101919091526000916001600160a01b031690636352211e90602401602060405180830381865afa158015610c2b573d6000803e3d6000fd5b505050506040513d601f19601f820116820180604052508101906106cc9190612a23565b6060606680546104b99061281d565b6108473383836116a3565b610c71610d1b565b610c905733604051631de7241f60e31b81526004016105d7919061206e565b6001600160a01b038216600090815260fe602052604090205415610cc95781604051630548cc1b60e01b81526004016105d7919061206e565b610cd28261147a565b80156108475761084782611640565b60006101035460ff166003811115610cfb57610cfb6126bf565b1461073c5733604051631dca17b960e21b81526004016105d7919061206e565b33600090815260ff6020819052604082205416806106cc57506106cc610777565b610d4633836112bd565b610d625760405162461bcd60e51b81526004016105d790612857565b6107b88484848461176d565b60606104a4826117a0565b610775336111dd565b610d8a611e48565b6040518060a001604052806101018054610da39061281d565b80601f0160208091040260200160405190810160405280929190818152602001828054610dcf9061281d565b8015610e1c5780601f10610df157610100808354040283529160200191610e1c565b820191906000526020600020905b815481529060010190602001808311610dff57829003601f168201915b50505091835250506101025460209091019060ff166001811115610e4257610e426126bf565b8152604080518082019091526101038054602090930192829060ff166003811115610e6f57610e6f6126bf565b6003811115610e8057610e806126bf565b81526040805160608101909152600183018054602090930192829060ff166003811115610eaf57610eaf6126bf565b6003811115610ec057610ec06126bf565b8152815461010090046001600160a01b03166020808301919091526001909201546040918201529190925292845261010680548451818402810184019095528085529482019490925090830182828015610f6b57602002820191906000526020600020906000905b82829054906101000a90046001600160801b03166001600160801b031681526020019060100190602082600f01049283019260010382029150808411610f285790505b505050505081526020016101078054610f839061281d565b80601f0160208091040260200160405190810160405280929190818152602001828054610faf9061281d565b8015610ffc5780601f10610fd157610100808354040283529160200191610ffc565b820191906000526020600020905b815481529060010190602001808311610fdf57829003601f168201915b5050505050815250905090565b60408051606081018252600080825260208201819052918101829052906001600160a01b038316611038610bdb565b6001600160a01b031614905060405180606001604052808215158152602001828061107c57506001600160a01b038516600090815260ff6020819052604090912054165b1515815260200182806110a657506001600160a01b038516600090815260fe602052604090205415155b151590529392505050565b6001600160a01b039182166000908152606a6020908152604080832093909416825291909152205460ff1690565b6001600160a01b038116600090815260fe602052604081205482910361111a573360405163129822cd60e31b81526004016105d7919061206e565b611122610d1b565b6111415733604051631de7241f60e31b81526004016105d7919061206e565b61084782611640565b611153816118a8565b6106ad5760405162461bcd60e51b81526004016105d7906129b1565b600081815260696020526040902080546001600160a01b0319166001600160a01b03841690811790915581906111a48261084b565b6001600160a01b03167f8c5be1e5ebec7d5bd14f71427d1e84f3dd0314c0f7b2291e5b200ac8c7c3b92560405160405180910390a45050565b6001600160a01b038116600090815260fe6020526040812054908190036112195781604051633d2aa18360e01b81526004016105d7919061206e565b611221610bdb565b6001600160a01b0316826001600160a01b0316036112545781604051634175d2f360e11b81526004016105d7919061206e565b61125d816118c5565b61126b60fc80546001019055565b6001600160a01b038216600090815260fe6020526040808220919091556101005490517f835dc82a4966810d6dcc725f483edc17fed6c0888faa3724f138dfc008a8c34b91610bcf9184908690612a40565b6000806112c98361084b565b9050806001600160a01b0316846001600160a01b031614806112f057506112f081856110b1565b806106b95750836001600160a01b03166113098461053c565b6001600160a01b031614949350505050565b826001600160a01b031661132e8261084b565b6001600160a01b0316146113545760405162461bcd60e51b81526004016105d790612a5f565b6001600160a01b0382166113b65760405162461bcd60e51b8152602060048201526024808201527f4552433732313a207472616e7366657220746f20746865207a65726f206164646044820152637265737360e01b60648201526084016105d7565b6113c38383836001611905565b826001600160a01b03166113d68261084b565b6001600160a01b0316146113fc5760405162461bcd60e51b81526004016105d790612a5f565b600081815260696020908152604080832080546001600160a01b03199081169091556001600160a01b038781168086526068855283862080546000190190559087168086528386208054600101905586865260679094528285208054909216841790915590518493600080516020612c0a83398151915291a4505050565b61148860fb80546001019055565b600061149360fb5490565b905061149f828261198d565b6001600160a01b038216600090815260fe6020526040908190208290556101005490517f48f5b44a07dc2b27f2e8ba95392d18124dc8553bc338c2ad73d3181984aa588c91610bcf9184908690612a40565b80516101019061150190826128f2565b506020810151610102805460ff191660018381811115611523576115236126bf565b0217905550604081015180516101038054909190829060ff19166001836003811115611551576115516126bf565b02179055506020820151805160018084018054909291839160ff191690836003811115611580576115806126bf565b021790555060208281015182546001600160a01b0390911661010002610100600160a81b0319909116178255604090920151600190910155606084015180516115d194506101069350910190611e7c565b5060808101516101079061084790826128f2565b6000908152606760205260409020546001600160a01b031690565b6001600160a01b03163b151590565b600054610100900460ff166116365760405162461bcd60e51b81526004016105d790612aa4565b6108478282611a96565b6001600160a01b038116600090815260ff602052604090819020805460ff191660011790556101005490517f5b9611f54db67f0ad14ca6d531a6b00d0c68defcd0843350fb378ee2aac1a5cd91611698918490612a0c565b60405180910390a150565b816001600160a01b0316836001600160a01b0316036117005760405162461bcd60e51b815260206004820152601960248201527822a9219b99189d1030b8383937bb32903a379031b0b63632b960391b60448201526064016105d7565b6001600160a01b038381166000818152606a6020908152604080832094871680845294825291829020805460ff191686151590811790915591519182527f17307eab39ab6107e8899845ad3d59bd9653f200f220920489ca2b5937696c31910160405180910390a3505050565b61177884848461131b565b61178484848484611ad6565b6107b85760405162461bcd60e51b81526004016105d790612aef565b60606117ab8261114a565b600082815260976020526040812080546117c49061281d565b80601f01602080910402602001604051908101604052809291908181526020018280546117f09061281d565b801561183d5780601f106118125761010080835404028352916020019161183d565b820191906000526020600020905b81548152906001019060200180831161182057829003601f168201915b50505050509050600061185b60408051602081019091526000815290565b9050805160000361186d575092915050565b81511561189f578082604051602001611887929190612b41565b60405160208183030381529060405292505050919050565b6106b984611bdb565b6000806118b4836115e5565b6001600160a01b0316141592915050565b6118ce81611c4f565b600081815260976020526040902080546118e79061281d565b1590506106ad5760008181526097602052604081206106ad91611f34565b60018111156107b8576001600160a01b0384161561194b576001600160a01b038416600090815260686020526040812080548392906119459084906129f9565b90915550505b6001600160a01b038316156107b8576001600160a01b03831660009081526068602052604081208054839290611982908490612b70565b909155505050505050565b6001600160a01b0382166119e35760405162461bcd60e51b815260206004820181905260248201527f4552433732313a206d696e7420746f20746865207a65726f206164647265737360448201526064016105d7565b6119ec816118a8565b15611a095760405162461bcd60e51b81526004016105d790612b83565b611a17600083836001611905565b611a20816118a8565b15611a3d5760405162461bcd60e51b81526004016105d790612b83565b6001600160a01b038216600081815260686020908152604080832080546001019055848352606790915280822080546001600160a01b031916841790555183929190600080516020612c0a833981519152908290a45050565b600054610100900460ff16611abd5760405162461bcd60e51b81526004016105d790612aa4565b6065611ac983826128f2565b50606661067882826128f2565b6000611aea846001600160a01b0316611600565b15611bd357604051630a85bd0160e11b81526001600160a01b0385169063150b7a0290611b21903390899088908890600401612bb9565b6020604051808303816000875af1925050508015611b5c575060408051601f3d908101601f19168201909252611b5991810190612bec565b60015b611bb9573d808015611b8a576040519150601f19603f3d011682016040523d82523d6000602084013e611b8f565b606091505b508051600003611bb15760405162461bcd60e51b81526004016105d790612aef565b805181602001fd5b6001600160e01b031916630a85bd0160e11b1490506106b9565b5060016106b9565b6060611be68261114a565b6000611bfd60408051602081019091526000815290565b90506000815111611c1d5760405180602001604052806000815250611c48565b80611c2784611ce0565b604051602001611c38929190612b41565b6040516020818303038152906040525b9392505050565b6000611c5a8261084b565b9050611c6a816000846001611905565b611c738261084b565b600083815260696020908152604080832080546001600160a01b03199081169091556001600160a01b038516808552606884528285208054600019019055878552606790935281842080549091169055519293508492600080516020612c0a833981519152908390a45050565b60606000611ced83611d72565b60010190506000816001600160401b03811115611d0c57611d0c6120e0565b6040519080825280601f01601f191660200182016040528015611d36576020820181803683370190505b5090508181016020015b600019016f181899199a1a9b1b9c1cb0b131b232b360811b600a86061a8153600a8504945084611d4057509392505050565b60008072184f03e93ff9f4daa797ed6e38ed64bf6a1f0160401b8310611db15772184f03e93ff9f4daa797ed6e38ed64bf6a1f0160401b830492506040015b6904ee2d6d415b85acef8160201b8310611ddb576904ee2d6d415b85acef8160201b830492506020015b662386f26fc100008310611df957662386f26fc10000830492506010015b6305f5e1008310611e11576305f5e100830492506008015b6127108310611e2557612710830492506004015b60648310611e37576064830492506002015b600a83106104a45760010192915050565b6040805160a0810182526060815260006020820152908101611e68611f6e565b815260200160608152602001606081525090565b82805482825590600052602060002090600101600290048101928215611f245791602002820160005b83821115611eef57835183826101000a8154816001600160801b0302191690836001600160801b031602179055509260200192601001602081600f01049283019260010302611ea5565b8015611f225782816101000a8154906001600160801b030219169055601001602081600f01049283019260010302611eef565b505b50611f30929150611faa565b5090565b508054611f409061281d565b6000825580601f10611f50575050565b601f0160209004906000526020600020908101906106ad9190611faa565b604080518082019091528060008152602001611fa56040805160608101909152806000815260006020820181905260409091015290565b905290565b5b80821115611f305760008155600101611fab565b6001600160e01b0319811681146106ad57600080fd5b600060208284031215611fe757600080fd5b8135611c4881611fbf565b60005b8381101561200d578181015183820152602001611ff5565b50506000910152565b6000815180845261202e816020860160208601611ff2565b601f01601f19169290920160200192915050565b602081526000611c486020830184612016565b60006020828403121561206757600080fd5b5035919050565b6001600160a01b0391909116815260200190565b6001600160a01b03811681146106ad57600080fd5b600080604083850312156120aa57600080fd5b82356120b581612082565b946020939093013593505050565b6000602082840312156120d557600080fd5b8135611c4881612082565b634e487b7160e01b600052604160045260246000fd5b60405160a081016001600160401b0381118282101715612118576121186120e0565b60405290565b604051601f8201601f191681016001600160401b0381118282101715612146576121466120e0565b604052919050565b60006001600160401b03831115612167576121676120e0565b61217a601f8401601f191660200161211e565b905082815283838301111561218e57600080fd5b828260208301376000602084830101529392505050565b600080600080608085870312156121bb57600080fd5b84356121c681612082565b935060208501356121d681612082565b92506040850135915060608501356001600160401b038111156121f857600080fd5b8501601f8101871361220957600080fd5b6122188782356020840161214e565b91505092959194509250565b60008060006060848603121561223957600080fd5b833561224481612082565b9250602084013561225481612082565b929592945050506040919091013590565b60008083601f84011261227757600080fd5b5081356001600160401b0381111561228e57600080fd5b6020830191508360208285010111156122a657600080fd5b9250929050565b600080600080604085870312156122c357600080fd5b84356001600160401b03808211156122da57600080fd5b6122e688838901612265565b909650945060208701359150808211156122ff57600080fd5b5061230c87828801612265565b95989497509550505050565b600082601f83011261232957600080fd5b611c488383356020850161214e565b80356002811061234757600080fd5b919050565b600481106106ad57600080fd5b6000818303608081121561236c57600080fd5b604080518082016001600160401b03808211838310171561238f5761238f6120e0565b818452829550863591506123a28261234c565b8183526060601f19860112156123b757600080fd5b8351945060608501915084821081831117156123d5576123d56120e0565b50825260208501356123e68161234c565b8352848201356123f581612082565b8060208501525060608501358284015282602082015250505092915050565b600082601f83011261242557600080fd5b813560206001600160401b03821115612440576124406120e0565b8160051b61244f82820161211e565b928352848101820192828101908785111561246957600080fd5b83870192505b8483101561249e5782356001600160801b038116811461248f5760008081fd5b8252918301919083019061246f565b979650505050505050565b600061010082840312156124bc57600080fd5b6124c46120f6565b905081356001600160401b03808211156124dd57600080fd5b6124e985838601612318565b83526124f760208501612338565b60208401526125098560408601612359565b604084015260c084013591508082111561252257600080fd5b61252e85838601612414565b606084015260e084013591508082111561254757600080fd5b5061255484828501612318565b60808301525092915050565b60006020828403121561257257600080fd5b81356001600160401b0381111561258857600080fd5b6106b9848285016124a9565b6000602082840312156125a657600080fd5b81356001600160401b038111156125bc57600080fd5b6106b984828501612318565b60008060008060008060c087890312156125e157600080fd5b86356001600160401b03808211156125f857600080fd5b6126048a838b01612318565b9750602089013591508082111561261a57600080fd5b6126268a838b01612318565b96506040890135915061263882612082565b90945060608801359061264a82612082565b9093506080880135925060a0880135908082111561266757600080fd5b5061267489828a016124a9565b9150509295509295509295565b6000806040838503121561269457600080fd5b823561269f81612082565b9150602083013580151581146126b457600080fd5b809150509250929050565b634e487b7160e01b600052602160045260246000fd5b600481106106ad576106ad6126bf565b600081518084526020808501945080840160005b8381101561271e5781516001600160801b0316875295820195908201906001016126f9565b509495945050505050565b6020815260008251610100806020850152612748610120850183612016565b915060208501516002811061275f5761275f6126bf565b8060408601525060408501518051612776816126d5565b606086015260200151805161278a816126d5565b608086015260208101516001600160a01b031660a08601526040015160c08501526060850151848303601f1990810160e08701526127c884836126e5565b935060808701519150808685030183870152506127e58382612016565b9695505050505050565b6000806040838503121561280257600080fd5b823561280d81612082565b915060208301356126b481612082565b600181811c9082168061283157607f821691505b60208210810361285157634e487b7160e01b600052602260045260246000fd5b50919050565b6020808252602d908201527f4552433732313a2063616c6c6572206973206e6f7420746f6b656e206f776e6560408201526c1c881bdc88185c1c1c9bdd9959609a1b606082015260800190565b601f82111561067857600081815260208120601f850160051c810160208610156128cb5750805b601f850160051c820191505b818110156128ea578281556001016128d7565b505050505050565b81516001600160401b0381111561290b5761290b6120e0565b61291f81612919845461281d565b846128a4565b602080601f831160018114612954576000841561293c5750858301515b600019600386901b1c1916600185901b1785556128ea565b600085815260208120601f198616915b8281101561298357888601518255948401946001909101908401612964565b50858210156129a15787850151600019600388901b60f8161c191681555b5050505050600190811b01905550565b602080825260189082015277115490cdcc8c4e881a5b9d985b1a59081d1bdad95b88125160421b604082015260600190565b634e487b7160e01b600052601160045260246000fd5b818103818111156104a4576104a46129e3565b9182526001600160a01b0316602082015260400190565b600060208284031215612a3557600080fd5b8151611c4881612082565b92835260208301919091526001600160a01b0316604082015260600190565b60208082526025908201527f4552433732313a207472616e736665722066726f6d20696e636f72726563742060408201526437bbb732b960d91b606082015260800190565b6020808252602b908201527f496e697469616c697a61626c653a20636f6e7472616374206973206e6f74206960408201526a6e697469616c697a696e6760a81b606082015260800190565b60208082526032908201527f4552433732313a207472616e7366657220746f206e6f6e20455243373231526560408201527131b2b4bb32b91034b6b83632b6b2b73a32b960711b606082015260800190565b60008351612b53818460208801611ff2565b835190830190612b67818360208801611ff2565b01949350505050565b808201808211156104a4576104a46129e3565b6020808252601c908201527b115490cdcc8c4e881d1bdad95b88185b1c9958591e481b5a5b9d195960221b604082015260600190565b6001600160a01b03858116825284166020820152604081018390526080606082018190526000906127e590830184612016565b600060208284031215612bfe57600080fd5b8151611c4881611fbf56feddf252ad1be2c89b69c2b068fc378daa952ba7f163c4a11628f55a4df523b3efa164736f6c6343000811000a",
  "linkReferences": {},
  "deployedLinkReferences": {}
}