{
  "_format": "hh-sol-artifact-1",
  "contractName": "EmbraceCommunityOld",
  "sourceName": "contracts/EmbraceCommunityOld.sol",
  "abi": [
    {
      "inputs": [
        {
          "internalType": "address",
          "name": "member",
          "type": "address"
        }
      ],
      "name": "ErrorAlreadyAdmin",
      "type": "error"
    },
    {
      "inputs": [
        {
          "internalType": "address",
          "name": "account",
          "type": "address"
        }
      ],
      "name": "ErrorCannotRemoveFounderAdmin",
      "type": "error"
    },
    {
      "inputs": [
        {
          "internalType": "address",
          "name": "account",
          "type": "address"
        }
      ],
      "name": "ErrorGatedRequirementsNotMet",
      "type": "error"
    },
    {
      "inputs": [
        {
          "internalType": "address",
          "name": "member",
          "type": "address"
        }
      ],
      "name": "ErrorMemberDoesNotExist",
      "type": "error"
    },
    {
      "inputs": [
        {
          "internalType": "address",
          "name": "member",
          "type": "address"
        }
      ],
      "name": "ErrorMemberExists",
      "type": "error"
    },
    {
      "inputs": [
        {
          "internalType": "address",
          "name": "member",
          "type": "address"
        }
      ],
      "name": "ErrorNotAdmin",
      "type": "error"
    },
    {
      "inputs": [
        {
          "internalType": "address",
          "name": "member",
          "type": "address"
        }
      ],
      "name": "ErrorNotFounder",
      "type": "error"
    },
    {
      "inputs": [
        {
          "internalType": "address",
          "name": "account",
          "type": "address"
        }
      ],
      "name": "ErrorNotGatedAccess",
      "type": "error"
    },
    {
      "inputs": [
        {
          "internalType": "address",
          "name": "account",
          "type": "address"
        }
      ],
      "name": "ErrorNotOpenAccess",
      "type": "error"
    },
    {
      "inputs": [
        {
          "internalType": "string",
          "name": "tableName",
          "type": "string"
        }
      ],
      "name": "ErrorTableDoesNotExist",
      "type": "error"
    },
    {
      "inputs": [
        {
          "internalType": "string",
          "name": "tableName",
          "type": "string"
        }
      ],
      "name": "ErrorTableExists",
      "type": "error"
    },
    {
      "anonymous": false,
      "inputs": [
        {
          "indexed": true,
          "internalType": "address",
          "name": "owner",
          "type": "address"
        },
        {
          "indexed": true,
          "internalType": "address",
          "name": "approved",
          "type": "address"
        },
        {
          "indexed": true,
          "internalType": "uint256",
          "name": "tokenId",
          "type": "uint256"
        }
      ],
      "name": "Approval",
      "type": "event"
    },
    {
      "anonymous": false,
      "inputs": [
        {
          "indexed": true,
          "internalType": "address",
          "name": "owner",
          "type": "address"
        },
        {
          "indexed": true,
          "internalType": "address",
          "name": "operator",
          "type": "address"
        },
        {
          "indexed": false,
          "internalType": "bool",
          "name": "approved",
          "type": "bool"
        }
      ],
      "name": "ApprovalForAll",
      "type": "event"
    },
    {
      "anonymous": false,
      "inputs": [
        {
          "indexed": false,
          "internalType": "uint8",
          "name": "version",
          "type": "uint8"
        }
      ],
      "name": "Initialized",
      "type": "event"
    },
    {
      "anonymous": false,
      "inputs": [
        {
          "indexed": true,
          "internalType": "address",
          "name": "from",
          "type": "address"
        },
        {
          "indexed": true,
          "internalType": "address",
          "name": "to",
          "type": "address"
        },
        {
          "indexed": true,
          "internalType": "uint256",
          "name": "tokenId",
          "type": "uint256"
        }
      ],
      "name": "Transfer",
      "type": "event"
    },
    {
      "inputs": [
        {
          "internalType": "address",
          "name": "_memberAddress",
          "type": "address"
        },
        {
          "internalType": "bool",
          "name": "_isAdmin",
          "type": "bool"
        }
      ],
      "name": "addMember",
      "outputs": [],
      "stateMutability": "nonpayable",
      "type": "function"
    },
    {
      "inputs": [
        {
          "internalType": "address",
          "name": "to",
          "type": "address"
        },
        {
          "internalType": "uint256",
          "name": "tokenId",
          "type": "uint256"
        }
      ],
      "name": "approve",
      "outputs": [],
      "stateMutability": "nonpayable",
      "type": "function"
    },
    {
      "inputs": [
        {
          "internalType": "address",
          "name": "owner",
          "type": "address"
        }
      ],
      "name": "balanceOf",
      "outputs": [
        {
          "internalType": "uint256",
          "name": "",
          "type": "uint256"
        }
      ],
      "stateMutability": "view",
      "type": "function"
    },
    {
      "inputs": [
        {
          "internalType": "uint256",
          "name": "tokenId",
          "type": "uint256"
        }
      ],
      "name": "getApproved",
      "outputs": [
        {
          "internalType": "address",
          "name": "",
          "type": "address"
        }
      ],
      "stateMutability": "view",
      "type": "function"
    },
    {
      "inputs": [],
      "name": "getCommunityData",
      "outputs": [
        {
          "components": [
            {
              "internalType": "string",
              "name": "handle",
              "type": "string"
            },
            {
              "internalType": "enum Visibility",
              "name": "visibility",
              "type": "uint8"
            },
            {
              "components": [
                {
                  "internalType": "enum Access",
                  "name": "access",
                  "type": "uint8"
                },
                {
                  "components": [
                    {
                      "internalType": "enum MembershipGateToken",
                      "name": "tokenType",
                      "type": "uint8"
                    },
                    {
                      "internalType": "address",
                      "name": "tokenAddress",
                      "type": "address"
                    },
                    {
                      "internalType": "uint256",
                      "name": "tokenId",
                      "type": "uint256"
                    }
                  ],
                  "internalType": "struct MembershipGate",
                  "name": "gate",
                  "type": "tuple"
                }
              ],
              "internalType": "struct Membership",
              "name": "membership",
              "type": "tuple"
            },
            {
              "internalType": "uint128[]",
              "name": "apps",
              "type": "uint128[]"
            }
          ],
          "internalType": "struct CommunityContractData",
          "name": "",
          "type": "tuple"
        }
      ],
      "stateMutability": "view",
      "type": "function"
    },
    {
      "inputs": [],
      "name": "getFounder",
      "outputs": [
        {
          "internalType": "address",
          "name": "",
          "type": "address"
        }
      ],
      "stateMutability": "view",
      "type": "function"
    },
    {
      "inputs": [
        {
          "internalType": "address",
          "name": "_address",
          "type": "address"
        }
      ],
      "name": "getMemberStatus",
      "outputs": [
        {
          "components": [
            {
              "internalType": "bool",
              "name": "isFounder",
              "type": "bool"
            },
            {
              "internalType": "bool",
              "name": "isAdmin",
              "type": "bool"
            },
            {
              "internalType": "bool",
              "name": "isMember",
              "type": "bool"
            }
          ],
          "internalType": "struct EmbraceCommunityOld.MemberStatus",
          "name": "",
          "type": "tuple"
        }
      ],
      "stateMutability": "view",
      "type": "function"
    },
    {
      "inputs": [
        {
          "internalType": "address",
          "name": "_account",
          "type": "address"
        }
      ],
      "name": "getMemberTokenId",
      "outputs": [
        {
          "internalType": "uint256",
          "name": "",
          "type": "uint256"
        }
      ],
      "stateMutability": "view",
      "type": "function"
    },
    {
      "inputs": [],
      "name": "getTables",
      "outputs": [
        {
          "components": [
            {
              "internalType": "enum EmbraceCommunityOld.TableType",
              "name": "tableType",
              "type": "uint8"
            },
            {
              "internalType": "uint256",
              "name": "id",
              "type": "uint256"
            },
            {
              "internalType": "string",
              "name": "name",
              "type": "string"
            },
            {
              "internalType": "string",
              "name": "prefix",
              "type": "string"
            }
          ],
          "internalType": "struct EmbraceCommunityOld.Table[]",
          "name": "",
          "type": "tuple[]"
        }
      ],
      "stateMutability": "view",
      "type": "function"
    },
    {
      "inputs": [
        {
          "internalType": "address",
          "name": "_account",
          "type": "address"
        }
      ],
      "name": "grantAdminRole",
      "outputs": [],
      "stateMutability": "nonpayable",
      "type": "function"
    },
    {
      "inputs": [
        {
          "internalType": "string",
          "name": "_name",
          "type": "string"
        },
        {
          "internalType": "string",
          "name": "_symbol",
          "type": "string"
        },
        {
          "internalType": "address",
          "name": "_founderAddress",
          "type": "address"
        },
        {
          "internalType": "address",
          "name": "_communitiesContractAddress",
          "type": "address"
        },
        {
          "internalType": "address",
          "name": "_tablelandRegistryAddress",
          "type": "address"
        },
        {
          "internalType": "uint256",
          "name": "_communityId",
          "type": "uint256"
        },
        {
          "components": [
            {
              "internalType": "string",
              "name": "handle",
              "type": "string"
            },
            {
              "internalType": "enum Visibility",
              "name": "visibility",
              "type": "uint8"
            },
            {
              "components": [
                {
                  "internalType": "enum Access",
                  "name": "access",
                  "type": "uint8"
                },
                {
                  "components": [
                    {
                      "internalType": "enum MembershipGateToken",
                      "name": "tokenType",
                      "type": "uint8"
                    },
                    {
                      "internalType": "address",
                      "name": "tokenAddress",
                      "type": "address"
                    },
                    {
                      "internalType": "uint256",
                      "name": "tokenId",
                      "type": "uint256"
                    }
                  ],
                  "internalType": "struct MembershipGate",
                  "name": "gate",
                  "type": "tuple"
                }
              ],
              "internalType": "struct Membership",
              "name": "membership",
              "type": "tuple"
            },
            {
              "internalType": "uint128[]",
              "name": "apps",
              "type": "uint128[]"
            }
          ],
          "internalType": "struct CommunityContractData",
          "name": "_communityContractData",
          "type": "tuple"
        }
      ],
      "name": "initialize",
      "outputs": [],
      "stateMutability": "nonpayable",
      "type": "function"
    },
    {
      "inputs": [
        {
          "internalType": "string",
          "name": "_key",
          "type": "string"
        },
        {
          "internalType": "string",
          "name": "_value",
          "type": "string"
        },
        {
          "internalType": "enum EmbraceCommunityOld.KeyValueEncryption",
          "name": "_encryptionType",
          "type": "uint8"
        }
      ],
      "name": "insertKeyValue",
      "outputs": [],
      "stateMutability": "nonpayable",
      "type": "function"
    },
    {
      "inputs": [],
      "name": "isAdmin",
      "outputs": [
        {
          "internalType": "bool",
          "name": "",
          "type": "bool"
        }
      ],
      "stateMutability": "view",
      "type": "function"
    },
    {
      "inputs": [
        {
          "internalType": "address",
          "name": "owner",
          "type": "address"
        },
        {
          "internalType": "address",
          "name": "operator",
          "type": "address"
        }
      ],
      "name": "isApprovedForAll",
      "outputs": [
        {
          "internalType": "bool",
          "name": "",
          "type": "bool"
        }
      ],
      "stateMutability": "view",
      "type": "function"
    },
    {
      "inputs": [],
      "name": "isFounder",
      "outputs": [
        {
          "internalType": "bool",
          "name": "",
          "type": "bool"
        }
      ],
      "stateMutability": "view",
      "type": "function"
    },
    {
      "inputs": [],
      "name": "join",
      "outputs": [],
      "stateMutability": "nonpayable",
      "type": "function"
    },
    {
      "inputs": [],
      "name": "joinGated",
      "outputs": [],
      "stateMutability": "nonpayable",
      "type": "function"
    },
    {
      "inputs": [
        {
          "internalType": "address",
          "name": "",
          "type": "address"
        }
      ],
      "name": "memberToTokenId",
      "outputs": [
        {
          "internalType": "uint256",
          "name": "",
          "type": "uint256"
        }
      ],
      "stateMutability": "view",
      "type": "function"
    },
    {
      "inputs": [],
      "name": "name",
      "outputs": [
        {
          "internalType": "string",
          "name": "",
          "type": "string"
        }
      ],
      "stateMutability": "view",
      "type": "function"
    },
    {
      "inputs": [
        {
          "internalType": "address",
          "name": "",
          "type": "address"
        },
        {
          "internalType": "address",
          "name": "",
          "type": "address"
        },
        {
          "internalType": "uint256",
          "name": "",
          "type": "uint256"
        },
        {
          "internalType": "bytes",
          "name": "",
          "type": "bytes"
        }
      ],
      "name": "onERC721Received",
      "outputs": [
        {
          "internalType": "bytes4",
          "name": "",
          "type": "bytes4"
        }
      ],
      "stateMutability": "nonpayable",
      "type": "function"
    },
    {
      "inputs": [
        {
          "internalType": "uint256",
          "name": "tokenId",
          "type": "uint256"
        }
      ],
      "name": "ownerOf",
      "outputs": [
        {
          "internalType": "address",
          "name": "",
          "type": "address"
        }
      ],
      "stateMutability": "view",
      "type": "function"
    },
    {
      "inputs": [
        {
          "internalType": "address",
          "name": "_account",
          "type": "address"
        }
      ],
      "name": "revokeAdminRole",
      "outputs": [],
      "stateMutability": "nonpayable",
      "type": "function"
    },
    {
      "inputs": [
        {
          "internalType": "address",
          "name": "from",
          "type": "address"
        },
        {
          "internalType": "address",
          "name": "to",
          "type": "address"
        },
        {
          "internalType": "uint256",
          "name": "tokenId",
          "type": "uint256"
        }
      ],
      "name": "safeTransferFrom",
      "outputs": [],
      "stateMutability": "nonpayable",
      "type": "function"
    },
    {
      "inputs": [
        {
          "internalType": "address",
          "name": "from",
          "type": "address"
        },
        {
          "internalType": "address",
          "name": "to",
          "type": "address"
        },
        {
          "internalType": "uint256",
          "name": "tokenId",
          "type": "uint256"
        },
        {
          "internalType": "bytes",
          "name": "data",
          "type": "bytes"
        }
      ],
      "name": "safeTransferFrom",
      "outputs": [],
      "stateMutability": "nonpayable",
      "type": "function"
    },
    {
      "inputs": [
        {
          "internalType": "address",
          "name": "operator",
          "type": "address"
        },
        {
          "internalType": "bool",
          "name": "approved",
          "type": "bool"
        }
      ],
      "name": "setApprovalForAll",
      "outputs": [],
      "stateMutability": "nonpayable",
      "type": "function"
    },
    {
      "inputs": [
        {
          "internalType": "string",
          "name": "_uri",
          "type": "string"
        }
      ],
      "name": "setBaseURI",
      "outputs": [],
      "stateMutability": "nonpayable",
      "type": "function"
    },
    {
      "inputs": [
        {
          "components": [
            {
              "internalType": "string",
              "name": "handle",
              "type": "string"
            },
            {
              "internalType": "enum Visibility",
              "name": "visibility",
              "type": "uint8"
            },
            {
              "components": [
                {
                  "internalType": "enum Access",
                  "name": "access",
                  "type": "uint8"
                },
                {
                  "components": [
                    {
                      "internalType": "enum MembershipGateToken",
                      "name": "tokenType",
                      "type": "uint8"
                    },
                    {
                      "internalType": "address",
                      "name": "tokenAddress",
                      "type": "address"
                    },
                    {
                      "internalType": "uint256",
                      "name": "tokenId",
                      "type": "uint256"
                    }
                  ],
                  "internalType": "struct MembershipGate",
                  "name": "gate",
                  "type": "tuple"
                }
              ],
              "internalType": "struct Membership",
              "name": "membership",
              "type": "tuple"
            },
            {
              "internalType": "uint128[]",
              "name": "apps",
              "type": "uint128[]"
            }
          ],
          "internalType": "struct CommunityContractData",
          "name": "_communityData",
          "type": "tuple"
        }
      ],
      "name": "setCommunityContractData",
      "outputs": [],
      "stateMutability": "nonpayable",
      "type": "function"
    },
    {
      "inputs": [
        {
          "components": [
            {
              "internalType": "string",
              "name": "handle",
              "type": "string"
            },
            {
              "internalType": "string",
              "name": "name",
              "type": "string"
            },
            {
              "internalType": "string",
              "name": "description",
              "type": "string"
            },
            {
              "internalType": "string",
              "name": "image",
              "type": "string"
            }
          ],
          "internalType": "struct CommunityMetaData",
          "name": "_communityMetaData",
          "type": "tuple"
        }
      ],
      "name": "setCommunityMetaData",
      "outputs": [],
      "stateMutability": "nonpayable",
      "type": "function"
    },
    {
      "inputs": [
        {
          "internalType": "bytes4",
          "name": "interfaceId",
          "type": "bytes4"
        }
      ],
      "name": "supportsInterface",
      "outputs": [
        {
          "internalType": "bool",
          "name": "",
          "type": "bool"
        }
      ],
      "stateMutability": "view",
      "type": "function"
    },
    {
      "inputs": [],
      "name": "symbol",
      "outputs": [
        {
          "internalType": "string",
          "name": "",
          "type": "string"
        }
      ],
      "stateMutability": "view",
      "type": "function"
    },
    {
      "inputs": [
        {
          "internalType": "bytes8",
          "name": "",
          "type": "bytes8"
        }
      ],
      "name": "tables",
      "outputs": [
        {
          "internalType": "enum EmbraceCommunityOld.TableType",
          "name": "tableType",
          "type": "uint8"
        },
        {
          "internalType": "uint256",
          "name": "id",
          "type": "uint256"
        },
        {
          "internalType": "string",
          "name": "name",
          "type": "string"
        },
        {
          "internalType": "string",
          "name": "prefix",
          "type": "string"
        }
      ],
      "stateMutability": "view",
      "type": "function"
    },
    {
      "inputs": [
        {
          "internalType": "uint256",
          "name": "tokenId",
          "type": "uint256"
        }
      ],
      "name": "tokenURI",
      "outputs": [
        {
          "internalType": "string",
          "name": "",
          "type": "string"
        }
      ],
      "stateMutability": "view",
      "type": "function"
    },
    {
      "inputs": [],
      "name": "totalMembers",
      "outputs": [
        {
          "internalType": "uint256",
          "name": "",
          "type": "uint256"
        }
      ],
      "stateMutability": "view",
      "type": "function"
    },
    {
      "inputs": [],
      "name": "totalSupply",
      "outputs": [
        {
          "internalType": "uint256",
          "name": "",
          "type": "uint256"
        }
      ],
      "stateMutability": "view",
      "type": "function"
    },
    {
      "inputs": [
        {
          "internalType": "address",
          "name": "from",
          "type": "address"
        },
        {
          "internalType": "address",
          "name": "to",
          "type": "address"
        },
        {
          "internalType": "uint256",
          "name": "tokenId",
          "type": "uint256"
        }
      ],
      "name": "transferFrom",
      "outputs": [],
      "stateMutability": "nonpayable",
      "type": "function"
    }
  ],
  "bytecode": "0x608060405234801561001057600080fd5b5061448f806100206000396000f3fe608060405234801561001057600080fd5b50600436106101a15760003560e01c806301ffc9a7146101a657806306fdde03146101ce578063081812fc146101e3578063095ea7b314610203578063150b7a021461021857806318160ddd14610244578063239ac4161461025a57806323b872dd1461027b57806328343c341461028e57806330547e5b146102a357806337897c2b146102ab57806339478568146102be57806342842e0e146102c65780634cfbd7ce146102d957806355f804b3146102ec5780636352211e146102ff5780636c11cefc1461031257806370a082311461032557806376e925591461024457806381cd123a14610338578063946bcc301461034b57806395d89b41146103535780639a19c7b01461035b5780639e645d321461036e578063a22cb46514610391578063b688a363146103a4578063b6db75a0146103ac578063b88d4fde146103b4578063c634b78e146103c7578063c87b56dd146103da578063c9030ea0146103ed578063d18fd36714610400578063daee9ac91461042a578063dde8535f1461043f578063e985e9c51461047a575b600080fd5b6101b96101b4366004613064565b61048d565b60405190151581526020015b60405180910390f35b6101d66104df565b6040516101c591906130d1565b6101f66101f13660046130e4565b610571565b6040516101c591906130fd565b610216610211366004613136565b610598565b005b61022b610226366004613249565b6106b2565b6040516001600160e01b031990911681526020016101c5565b61024c6106c3565b6040519081526020016101c5565b61024c6102683660046132c8565b6101006020526000908152604090205481565b6102166102893660046132e5565b6106d3565b610296610704565b6040516101c5919061334c565b610216610abc565b6102166102b936600461343a565b610b32565b6101b9610f10565b6102166102d43660046132e5565b610f2a565b6102166102e73660046134e1565b610f45565b6102166102fa3660046135b9565b610f6f565b6101f661030d3660046130e4565b610fb1565b6102166103203660046137aa565b610fe5565b61024c6103333660046132c8565b61123a565b610216610346366004613876565b6112c0565b6101f66112f0565b6101d6611364565b6102166103693660046132c8565b611373565b61038161037c3660046138aa565b611470565b6040516101c594939291906138d4565b61021661039f36600461390e565b6115ad565b6102166115b8565b6101b96115f2565b6102166103c2366004613249565b611614565b6102166103d53660046132c8565b61164c565b6101d66103e83660046130e4565b611712565b6102166103fb36600461390e565b61171d565b61024c61040e3660046132c8565b6001600160a01b03166000908152610100602052604090205490565b6104326117b5565b6040516101c59190613990565b61045261044d3660046132c8565b6119ab565b60408051825115158152602080840151151590820152918101511515908201526060016101c5565b6101b9610488366004613a3b565b611a54565b60006001600160e01b031982166380ac58cd60e01b14806104be57506001600160e01b03198216635b5e139f60e01b145b806104d957506301ffc9a760e01b6001600160e01b03198316145b92915050565b6060606580546104ee90613a69565b80601f016020809104026020016040519081016040528092919081815260200182805461051a90613a69565b80156105675780601f1061053c57610100808354040283529160200191610567565b820191906000526020600020905b81548152906001019060200180831161054a57829003601f168201915b5050505050905090565b600061057c82611a82565b506000908152606960205260409020546001600160a01b031690565b60006105a382610fb1565b9050806001600160a01b0316836001600160a01b0316036106155760405162461bcd60e51b815260206004820152602160248201527f4552433732313a20617070726f76616c20746f2063757272656e74206f776e656044820152603960f91b60648201526084015b60405180910390fd5b336001600160a01b038216148061063157506106318133611a54565b6106a35760405162461bcd60e51b815260206004820152603d60248201527f4552433732313a20617070726f76652063616c6c6572206973206e6f7420746f60448201527f6b656e206f776e6572206f7220617070726f76656420666f7220616c6c000000606482015260840161060c565b6106ad8383611aa7565b505050565b630a85bd0160e11b5b949350505050565b60006106ce60fb5490565b905090565b6106dd3382611b15565b6106f95760405162461bcd60e51b815260040161060c90613aa3565b6106ad838383611b73565b604080516002808252606082810190935260009190816020015b61074a604080516080810190915280600081526020016000815260200160608152602001606081525090565b81526020019060019003908161071e575050664d454d4245525360c81b60005260fc602052604080516080810190915260008051602061446383398151915280549293509091829060ff1660018111156107a6576107a6613326565b60018111156107b7576107b7613326565b8152602001600182015481526020016002820180546107d590613a69565b80601f016020809104026020016040519081016040528092919081815260200182805461080190613a69565b801561084e5780601f106108235761010080835404028352916020019161084e565b820191906000526020600020905b81548152906001019060200180831161083157829003601f168201915b5050505050815260200160038201805461086790613a69565b80601f016020809104026020016040519081016040528092919081815260200182805461089390613a69565b80156108e05780601f106108b5576101008083540402835291602001916108e0565b820191906000526020600020905b8154815290600101906020018083116108c357829003601f168201915b505050919092525083915060009050815181106108ff576108ff613af0565b602090810291909101810191909152674b455956414c554560c01b60005260fc905260408051608081019091526000805160206144238339815191528054829060ff16600181111561095357610953613326565b600181111561096457610964613326565b81526020016001820154815260200160028201805461098290613a69565b80601f01602080910402602001604051908101604052809291908181526020018280546109ae90613a69565b80156109fb5780601f106109d0576101008083540402835291602001916109fb565b820191906000526020600020905b8154815290600101906020018083116109de57829003601f168201915b50505050508152602001600382018054610a1490613a69565b80601f0160208091040260200160405190810160405280929190818152602001828054610a4090613a69565b8015610a8d5780601f10610a6257610100808354040283529160200191610a8d565b820191906000526020600020905b815481529060010190602001808311610a7057829003601f168201915b50505091909252508391506001905081518110610aac57610aac613af0565b6020908102919091010152919050565b60016101055460ff166002811115610ad657610ad6613326565b14610af65733604051632ea5767760e21b815260040161060c91906130fd565b336000908152610100602052604090205415610b275733604051630548cc1b60e01b815260040161060c91906130fd565b610b3033611cd2565b565b610b3a6115f2565b610b595733604051631de7241f60e31b815260040161060c91906130fd565b674b455956414c554560c01b600090815260fc60205260408051608081019091526000805160206144238339815191528054829060ff166001811115610ba157610ba1613326565b6001811115610bb257610bb2613326565b815260200160018201548152602001600282018054610bd090613a69565b80601f0160208091040260200160405190810160405280929190818152602001828054610bfc90613a69565b8015610c495780601f10610c1e57610100808354040283529160200191610c49565b820191906000526020600020905b815481529060010190602001808311610c2c57829003601f168201915b50505050508152602001600382018054610c6290613a69565b80601f0160208091040260200160405190810160405280929190818152602001828054610c8e90613a69565b8015610cdb5780601f10610cb057610100808354040283529160200191610cdb565b820191906000526020600020905b815481529060010190602001808311610cbe57829003601f168201915b50505050508152505090508060200151600003610d2d576040516351f71f4760e11b815260206004820152600f60248201526e4b65792056616c7565205461626c6560881b604482015260640161060c565b6000610d3833611d1d565b90506000610d4542611d33565b90506000610d63856004811115610d5e57610d5e613326565b611d33565b90506000610e4e8560600151866020015160405180606001604052806026815260200161437960269139610dcc8e8e8080601f016020809104026020016040519081016040528093929190818152602001838380828437600092019190915250611dc692505050565b610e0b8d8d8080601f016020809104026020016040519081016040528093929190818152602001838380828437600092019190915250611dc692505050565b610e148a611dc6565b610e1d89611dc6565b610e268b611dc6565b604051602001610e3a959493929190613b06565b604051602081830303815290604052611def565b905046617a6903610e9957610e8f60405180604001604052806014815260200173496e73657274696e67206d656d6265723a20257360601b81525082611e2e565b5050505050610f09565b60fe54602086015160405163757ae82760e11b81526001600160a01b039092169163eaf5d04e91610ed1913091908690600401613b9c565b600060405180830381600087803b158015610eeb57600080fd5b505af1158015610eff573d6000803e3d6000fd5b5050505050505050505b5050505050565b600033610f1b6112f0565b6001600160a01b031614905090565b6106ad83838360405180602001604052806000815250611614565b610f4d6115f2565b610f6c5733604051631de7241f60e31b815260040161060c91906130fd565b50565b33610f786112f0565b6001600160a01b031614610fa1573360405163412c7d7560e01b815260040161060c91906130fd565b60ff610fad8282613c09565b5050565b600080610fbd83611e73565b90506001600160a01b0381166104d95760405162461bcd60e51b815260040161060c90613cc8565b600054610100900460ff16158080156110055750600054600160ff909116105b80611026575061101430611e8e565b158015611026575060005460ff166001145b6110895760405162461bcd60e51b815260206004820152602e60248201527f496e697469616c697a61626c653a20636f6e747261637420697320616c72656160448201526d191e481a5b9a5d1a585b1a5e995960921b606482015260840161060c565b6000805460ff1916600117905580156110ac576000805461ff0019166101001790555b6110b68888611e9d565b61010283905561010980546001600160a01b038088166001600160a01b03199283161790925560fe8054928716929091169190911790556110f683611ece565b6040516020016111069190613cfa565b60405160208183030381529060405260fd90816111239190613c09565b5061112d82611f5e565b61113561203e565b664d454d4245525360c81b600090815260fc602090815260405161117b917fa2d7986979e2ece57316cb858eebbe5dad190c94fcf1c0ff7f220a6a89ee78119101613da7565b60405160208183030381529060405290506111b4816040516020016111a09190613de8565b604051602081830303815290604052610fa1565b6111bd87611cd2565b6001600160a01b038716600090815261010160205260409020805460ff191660011790556111e96122b6565b508015611230576000805461ff0019169055604051600181527f7f26b83ff96e1f2b6a682f133852f6798a09c465da95921460cefb38474024989060200160405180910390a15b5050505050505050565b60006001600160a01b0382166112a45760405162461bcd60e51b815260206004820152602960248201527f4552433732313a2061646472657373207a65726f206973206e6f7420612076616044820152683634b21037bbb732b960b91b606482015260840161060c565b506001600160a01b031660009081526068602052604090205490565b6112c86115f2565b6112e75733604051631de7241f60e31b815260040161060c91906130fd565b610f6c81611f5e565b61010954610102546040516331a9108f60e11b815260048101919091526000916001600160a01b031690636352211e90602401602060405180830381865afa158015611340573d6000803e3d6000fd5b505050506040513d601f19601f820116820180604052508101906106ce9190613e4d565b6060606680546104ee90613a69565b6001600160a01b038116600090815261010060205260408120548291036113af573360405163129822cd60e31b815260040161060c91906130fd565b6113b76115f2565b6113d65733604051631de7241f60e31b815260040161060c91906130fd565b6001600160a01b0382166000908152610101602052604090205460ff166114125781604051631de7241f60e31b815260040161060c91906130fd565b61141a6112f0565b6001600160a01b0316826001600160a01b03160361144d57336040516317dfe6bb60e21b815260040161060c91906130fd565b506001600160a01b0316600090815261010160205260409020805460ff19169055565b60fc6020526000908152604090208054600182015460028301805460ff90931693919261149c90613a69565b80601f01602080910402602001604051908101604052809291908181526020018280546114c890613a69565b80156115155780601f106114ea57610100808354040283529160200191611515565b820191906000526020600020905b8154815290600101906020018083116114f857829003601f168201915b50505050509080600301805461152a90613a69565b80601f016020809104026020016040519081016040528092919081815260200182805461155690613a69565b80156115a35780601f10611578576101008083540402835291602001916115a3565b820191906000526020600020905b81548152906001019060200180831161158657829003601f168201915b5050505050905084565b610fad33838361239f565b60006101055460ff1660028111156115d2576115d2613326565b14610af65733604051631dca17b960e21b815260040161060c91906130fd565b336000908152610101602052604081205460ff16806106ce57506106ce610f10565b61161e3383611b15565b61163a5760405162461bcd60e51b815260040161060c90613aa3565b61164684848484612469565b50505050565b6001600160a01b03811660009081526101006020526040812054829103611688573360405163129822cd60e31b815260040161060c91906130fd565b6116906115f2565b6116af5733604051631de7241f60e31b815260040161060c91906130fd565b6001600160a01b0382166000908152610101602052604090205460ff16156116ec5781604051633444055760e01b815260040161060c91906130fd565b506001600160a01b0316600090815261010160205260409020805460ff19166001179055565b60606104d98261249c565b6117256115f2565b6117445733604051631de7241f60e31b815260040161060c91906130fd565b6001600160a01b038216600090815261010060205260409020541561177e5781604051630548cc1b60e01b815260040161060c91906130fd565b61178782611cd2565b8015610fad576001600160a01b038216600090815261010160205260409020805460ff191660011790555050565b6117bd612f18565b604051806080016040528061010380546117d690613a69565b80601f016020809104026020016040519081016040528092919081815260200182805461180290613a69565b801561184f5780601f106118245761010080835404028352916020019161184f565b820191906000526020600020905b81548152906001019060200180831161183257829003601f168201915b50505091835250506101045460209091019060ff16600181111561187557611875613326565b8152604080518082019091526101058054602090930192829060ff1660028111156118a2576118a2613326565b60028111156118b3576118b3613326565b81526040805160608101909152600183018054602090930192829060ff1660038111156118e2576118e2613326565b60038111156118f3576118f3613326565b8152815461010090046001600160a01b0316602080830191909152600190920154604091820152919092529284526101088054845181840281018401909552808552948201949092509083018282801561199e57602002820191906000526020600020906000905b82829054906101000a90046001600160801b03166001600160801b031681526020019060100190602082600f0104928301926001038202915080841161195b5790505b5050505050815250905090565b60408051606081018252600080825260208201819052918101829052906001600160a01b0383166119da6112f0565b6001600160a01b0316149050604051806060016040528082151581526020018280611a1e57506001600160a01b0385166000908152610101602052604090205460ff165b151581526020018280611a4957506001600160a01b0385166000908152610100602052604090205415155b151590529392505050565b6001600160a01b039182166000908152606a6020908152604080832093909416825291909152205460ff1690565b611a8b816125a4565b610f6c5760405162461bcd60e51b815260040161060c90613cc8565b600081815260696020526040902080546001600160a01b0319166001600160a01b0384169081179091558190611adc82610fb1565b6001600160a01b03167f8c5be1e5ebec7d5bd14f71427d1e84f3dd0314c0f7b2291e5b200ac8c7c3b92560405160405180910390a45050565b600080611b2183610fb1565b9050806001600160a01b0316846001600160a01b03161480611b485750611b488185611a54565b806106bb5750836001600160a01b0316611b6184610571565b6001600160a01b031614949350505050565b826001600160a01b0316611b8682610fb1565b6001600160a01b031614611bac5760405162461bcd60e51b815260040161060c90613e6a565b6001600160a01b038216611c0e5760405162461bcd60e51b8152602060048201526024808201527f4552433732313a207472616e7366657220746f20746865207a65726f206164646044820152637265737360e01b606482015260840161060c565b611c1b83838360016125c1565b826001600160a01b0316611c2e82610fb1565b6001600160a01b031614611c545760405162461bcd60e51b815260040161060c90613e6a565b600081815260696020908152604080832080546001600160a01b03199081169091556001600160a01b03878116808652606885528386208054600019019055908716808652838620805460010190558686526067909452828520805490921684179091559051849360008051602061444383398151915291a4505050565b611ce060fb80546001019055565b6000611ceb60fb5490565b9050611cf78282612649565b611d0081612752565b6001600160a01b0390911660009081526101006020526040902055565b60606104d96001600160a01b0383166014612a6a565b60606000611d4083612c0c565b60010190506000816001600160401b03811115611d5f57611d5f613162565b6040519080825280601f01601f191660200182016040528015611d89576020820181803683370190505b5090508181016020015b600019016f181899199a1a9b1b9c1cb0b131b232b360811b600a86061a8153600a8504945084611d93575b509392505050565b606081604051602001611dd99190613eaf565b6040516020818303038152906040529050919050565b60606000611dfd8686612ce2565b9050808484604051602001611e1493929190613edd565b604051602081830303815290604052915050949350505050565b610fad8282604051602401611e44929190613f69565b60408051601f198184030181529190526020810180516001600160e01b0316634b5c427760e01b179052612d20565b6000908152606760205260409020546001600160a01b031690565b6001600160a01b03163b151590565b600054610100900460ff16611ec45760405162461bcd60e51b815260040161060c90613f8e565b610fad8282612d41565b60606000611edb83612c0c565b60010190506000816001600160401b03811115611efa57611efa613162565b6040519080825280601f01601f191660200182016040528015611f24576020820181803683370190505b5090508181016020015b600019016f181899199a1a9b1b9c1cb0b131b232b360811b600a86061a8153600a850494508415611dbe57611f2e565b805161010390611f6e9082613c09565b506020810151610104805460ff191660018381811115611f9057611f90613326565b0217905550604081015180516101058054909190829060ff19166001836002811115611fbe57611fbe613326565b02179055506020820151805160018084018054909291839160ff191690836003811115611fed57611fed613326565b021790555060208281015182546001600160a01b0390911661010002610100600160a81b031990911617825560409092015160019091015560608401518051610fad94506101089350910190612f45565b664d454d4245525360c81b60005260fc6020527fa2d7986979e2ece57316cb858eebbe5dad190c94fcf1c0ff7f220a6a89ee78105460008051602061446383398151915290156120a65780600201604051633e0f514960e01b815260040161060c9190613fd9565b805460ff191681556040516120c09060fd90602001614064565b6040516020818303038152906040528160030190816120df9190613c09565b5060fe54604080516060810190915260368082526001600160a01b0390921691633a9151b09130916121a691906143ed602083013985600301805461212390613a69565b80601f016020809104026020016040519081016040528092919081815260200182805461214f90613a69565b801561219c5780601f106121715761010080835404028352916020019161219c565b820191906000526020600020905b81548152906001019060200180831161217f57829003601f168201915b5050505050612d81565b6040518363ffffffff1660e01b81526004016121c3929190614088565b6020604051808303816000875af11580156121e2573d6000803e3d6000fd5b505050506040513d601f19601f8201168201806040525081019061220691906140ac565b60018201556003810180546122a7919061221f90613a69565b80601f016020809104026020016040519081016040528092919081815260200182805461224b90613a69565b80156122985780601f1061226d57610100808354040283529160200191612298565b820191906000526020600020905b81548152906001019060200180831161227b57829003601f168201915b50505050508260010154612ce2565b6002820190610fad9082613c09565b674b455956414c554560c01b60005260fc6020527f12f18a9f2fd61cd983319a9e31b5c5e08ad6449dd396c51861774fe3cc8b124a54600080516020614423833981519152901561231f5780600201604051633e0f514960e01b815260040161060c9190613fd9565b805460ff1916600117815560405161233c9060fd906020016140c5565b60405160208183030381529060405281600301908161235b9190613c09565b5060fe546040805160808101909152604e8082526001600160a01b0390921691633a9151b09130916121a6919061439f602083013985600301805461212390613a69565b816001600160a01b0316836001600160a01b0316036123fc5760405162461bcd60e51b815260206004820152601960248201527822a9219b99189d1030b8383937bb32903a379031b0b63632b960391b604482015260640161060c565b6001600160a01b038381166000818152606a6020908152604080832094871680845294825291829020805460ff191686151590811790915591519182527f17307eab39ab6107e8899845ad3d59bd9653f200f220920489ca2b5937696c31910160405180910390a3505050565b612474848484611b73565b61248084848484612da0565b6116465760405162461bcd60e51b815260040161060c906140eb565b60606124a782611a82565b600082815260976020526040812080546124c090613a69565b80601f01602080910402602001604051908101604052809291908181526020018280546124ec90613a69565b80156125395780601f1061250e57610100808354040283529160200191612539565b820191906000526020600020905b81548152906001019060200180831161251c57829003601f168201915b50505050509050600061255760408051602081019091526000815290565b90508051600003612569575092915050565b81511561259b57808260405160200161258392919061413d565b60405160208183030381529060405292505050919050565b6106bb84612ea5565b6000806125b083611e73565b6001600160a01b0316141592915050565b6001811115611646576001600160a01b03841615612607576001600160a01b03841660009081526068602052604081208054839290612601908490614182565b90915550505b6001600160a01b03831615611646576001600160a01b0383166000908152606860205260408120805483929061263e908490614195565b909155505050505050565b6001600160a01b03821661269f5760405162461bcd60e51b815260206004820181905260248201527f4552433732313a206d696e7420746f20746865207a65726f2061646472657373604482015260640161060c565b6126a8816125a4565b156126c55760405162461bcd60e51b815260040161060c906141a8565b6126d36000838360016125c1565b6126dc816125a4565b156126f95760405162461bcd60e51b815260040161060c906141a8565b6001600160a01b038216600081815260686020908152604080832080546001019055848352606790915280822080546001600160a01b031916841790555183929190600080516020614443833981519152908290a45050565b664d454d4245525360c81b600090815260fc60205260408051608081019091526000805160206144638339815191528054829060ff16600181111561279957612799613326565b60018111156127aa576127aa613326565b8152602001600182015481526020016002820180546127c890613a69565b80601f01602080910402602001604051908101604052809291908181526020018280546127f490613a69565b80156128415780601f1061281657610100808354040283529160200191612841565b820191906000526020600020905b81548152906001019060200180831161282457829003601f168201915b5050505050815260200160038201805461285a90613a69565b80601f016020809104026020016040519081016040528092919081815260200182805461288690613a69565b80156128d35780601f106128a8576101008083540402835291602001916128d3565b820191906000526020600020905b8154815290600101906020018083116128b657829003601f168201915b50505050508152505090508060200151600003612923576040516351f71f4760e11b815260206004820152600d60248201526c4d656d62657273205461626c6560981b604482015260640161060c565b600061292e83611d33565b9050600061293b33611d1d565b9050600061294842611d33565b905060006129af85606001518660200151604051806040016040528060188152602001771a590b081858d8dbdd5b9d0b0819185d1950dc99585d195960421b8152508761299488611dc6565b61299d88611dc6565b604051602001610e3a939291906141de565b905046617a69036129f8576129f060405180604001604052806014815260200173496e73657274696e67206d656d6265723a20257360601b81525082611e2e565b505050505050565b60fe54602086015160405163757ae82760e11b81526001600160a01b039092169163eaf5d04e91612a30913091908690600401613b9c565b600060405180830381600087803b158015612a4a57600080fd5b505af1158015612a5e573d6000803e3d6000fd5b50505050505050505050565b60606000612a79836002614238565b612a84906002614195565b6001600160401b03811115612a9b57612a9b613162565b6040519080825280601f01601f191660200182016040528015612ac5576020820181803683370190505b509050600360fc1b81600081518110612ae057612ae0613af0565b60200101906001600160f81b031916908160001a905350600f60fb1b81600181518110612b0f57612b0f613af0565b60200101906001600160f81b031916908160001a9053506000612b33846002614238565b612b3e906001614195565b90505b6001811115612bb6576f181899199a1a9b1b9c1cb0b131b232b360811b85600f1660108110612b7257612b72613af0565b1a60f81b828281518110612b8857612b88613af0565b60200101906001600160f81b031916908160001a90535060049490941c93612baf8161424f565b9050612b41565b508315612c055760405162461bcd60e51b815260206004820181905260248201527f537472696e67733a20686578206c656e67746820696e73756666696369656e74604482015260640161060c565b9392505050565b60008072184f03e93ff9f4daa797ed6e38ed64bf6a1f0160401b8310612c4b5772184f03e93ff9f4daa797ed6e38ed64bf6a1f0160401b830492506040015b6904ee2d6d415b85acef8160201b8310612c75576904ee2d6d415b85acef8160201b830492506020015b662386f26fc100008310612c9357662386f26fc10000830492506010015b6305f5e1008310612cab576305f5e100830492506008015b6127108310612cbf57612710830492506004015b60648310612cd1576064830492506002015b600a83106104d95760010192915050565b606082612cee46611ece565b612cf784611ece565b604051602001612d0993929190614266565b604051602081830303815290604052905092915050565b80516a636f6e736f6c652e6c6f67602083016000808483855afa5050505050565b600054610100900460ff16612d685760405162461bcd60e51b815260040161060c90613f8e565b6065612d748382613c09565b5060666106ad8282613c09565b606081612d8d46611ece565b84604051602001612d0993929190614298565b6000612db4846001600160a01b0316611e8e565b15612e9d57604051630a85bd0160e11b81526001600160a01b0385169063150b7a0290612deb90339089908890889060040161431e565b6020604051808303816000875af1925050508015612e26575060408051601f3d908101601f19168201909252612e239181019061435b565b60015b612e83573d808015612e54576040519150601f19603f3d011682016040523d82523d6000602084013e612e59565b606091505b508051600003612e7b5760405162461bcd60e51b815260040161060c906140eb565b805181602001fd5b6001600160e01b031916630a85bd0160e11b1490506106bb565b5060016106bb565b6060612eb082611a82565b6000612ec760408051602081019091526000815290565b90506000815111612ee75760405180602001604052806000815250612c05565b80612ef184611d33565b604051602001612f0292919061413d565b6040516020818303038152906040529392505050565b604080516080810182526060815260006020820152908101612f38612ffd565b8152602001606081525090565b82805482825590600052602060002090600101600290048101928215612fed5791602002820160005b83821115612fb857835183826101000a8154816001600160801b0302191690836001600160801b031602179055509260200192601001602081600f01049283019260010302612f6e565b8015612feb5782816101000a8154906001600160801b030219169055601001602081600f01049283019260010302612fb8565b505b50612ff9929150613039565b5090565b6040805180820190915280600081526020016130346040805160608101909152806000815260006020820181905260409091015290565b905290565b5b80821115612ff9576000815560010161303a565b6001600160e01b031981168114610f6c57600080fd5b60006020828403121561307657600080fd5b8135612c058161304e565b60005b8381101561309c578181015183820152602001613084565b50506000910152565b600081518084526130bd816020860160208601613081565b601f01601f19169290920160200192915050565b602081526000612c0560208301846130a5565b6000602082840312156130f657600080fd5b5035919050565b6001600160a01b0391909116815260200190565b6001600160a01b0381168114610f6c57600080fd5b803561313181613111565b919050565b6000806040838503121561314957600080fd5b823561315481613111565b946020939093013593505050565b634e487b7160e01b600052604160045260246000fd5b604051608081016001600160401b038111828210171561319a5761319a613162565b60405290565b604051606081016001600160401b038111828210171561319a5761319a613162565b604051601f8201601f191681016001600160401b03811182821017156131ea576131ea613162565b604052919050565b60006001600160401b0383111561320b5761320b613162565b61321e601f8401601f19166020016131c2565b905082815283838301111561323257600080fd5b828260208301376000602084830101529392505050565b6000806000806080858703121561325f57600080fd5b843561326a81613111565b9350602085013561327a81613111565b92506040850135915060608501356001600160401b0381111561329c57600080fd5b8501601f810187136132ad57600080fd5b6132bc878235602084016131f2565b91505092959194509250565b6000602082840312156132da57600080fd5b8135612c0581613111565b6000806000606084860312156132fa57600080fd5b833561330581613111565b9250602084013561331581613111565b929592945050506040919091013590565b634e487b7160e01b600052602160045260246000fd5b60028110610f6c57610f6c613326565b60006020808301818452808551808352604092508286019150828160051b87010184880160005b838110156133e457603f198984030185528151608081516133938161333c565b85528189015189860152878201518886018290526133b3828701826130a5565b915050606080830151925085820381870152506133d081836130a5565b968901969450505090860190600101613373565b509098975050505050505050565b60008083601f84011261340457600080fd5b5081356001600160401b0381111561341b57600080fd5b60208301915083602082850101111561343357600080fd5b9250929050565b60008060008060006060868803121561345257600080fd5b85356001600160401b038082111561346957600080fd5b61347589838a016133f2565b9097509550602088013591508082111561348e57600080fd5b5061349b888289016133f2565b9094509250506040860135600581106134b357600080fd5b809150509295509295909350565b600082601f8301126134d257600080fd5b612c05838335602085016131f2565b6000602082840312156134f357600080fd5b81356001600160401b038082111561350a57600080fd5b908301906080828603121561351e57600080fd5b613526613178565b82358281111561353557600080fd5b613541878286016134c1565b82525060208301358281111561355657600080fd5b613562878286016134c1565b60208301525060408301358281111561357a57600080fd5b613586878286016134c1565b60408301525060608301358281111561359e57600080fd5b6135aa878286016134c1565b60608301525095945050505050565b6000602082840312156135cb57600080fd5b81356001600160401b038111156135e157600080fd5b6106bb848285016134c1565b600082601f8301126135fe57600080fd5b813560206001600160401b0382111561361957613619613162565b8160051b6136288282016131c2565b928352848101820192828101908785111561364257600080fd5b83870192505b848310156136775782356001600160801b03811681146136685760008081fd5b82529183019190830190613648565b979650505050505050565b600081830360e081121561369557600080fd5b61369d613178565b915082356001600160401b03808211156136b657600080fd5b6136c2868387016134c1565b845260208501359150600282106136d857600080fd5b816020850152604091506080603f19840112156136f457600080fd5b8151828101818110838211171561370d5761370d613162565b8352858301356003811061372057600080fd5b81526060605f198501121561373457600080fd5b61373c6131a0565b935060608601356004811061375057600080fd5b8452608086013561376081613111565b8060208601525060a08601358385015283602082015280838601525060c085013592508083111561379057600080fd5b505061379e848285016135ed565b60608301525092915050565b600080600080600080600060e0888a0312156137c557600080fd5b87356001600160401b03808211156137dc57600080fd5b6137e88b838c016134c1565b985060208a01359150808211156137fe57600080fd5b61380a8b838c016134c1565b975060408a0135915061381c82613111565b90955060608901359061382e82613111565b81955061383d60808b01613126565b945060a08a0135935060c08a013591508082111561385a57600080fd5b506138678a828b01613682565b91505092959891949750929550565b60006020828403121561388857600080fd5b81356001600160401b0381111561389e57600080fd5b6106bb84828501613682565b6000602082840312156138bc57600080fd5b81356001600160c01b031981168114612c0557600080fd5b6138dd8561333c565b8481528360208201526080604082015260006138fc60808301856130a5565b828103606084015261367781856130a5565b6000806040838503121561392157600080fd5b823561392c81613111565b91506020830135801515811461394157600080fd5b809150509250929050565b600081518084526020808501945080840160005b838110156139855781516001600160801b031687529582019590820190600101613960565b509495945050505050565b602081526000825160e060208401526139ad6101008401826130a5565b905060208401516139bd8161333c565b8060408501525060408401518051600381106139db576139db613326565b6060850152602001518051600481106139f6576139f6613326565b608085015260208101516001600160a01b031660a08501526040015160c08401526060840151838203601f190160e0850152613a32828261394c565b95945050505050565b60008060408385031215613a4e57600080fd5b8235613a5981613111565b9150602083013561394181613111565b600181811c90821680613a7d57607f821691505b602082108103613a9d57634e487b7160e01b600052602260045260246000fd5b50919050565b6020808252602d908201527f4552433732313a2063616c6c6572206973206e6f7420746f6b656e206f776e6560408201526c1c881bdc88185c1c1c9bdd9959609a1b606082015260800190565b634e487b7160e01b600052603260045260246000fd5b60008651613b18818460208b01613081565b8083019050600b60fa1b8082528751613b38816001850160208c01613081565b600192019182018190528651613b55816002850160208b01613081565b600292019182018190528551613b72816003850160208a01613081565b60039201918201528351613b8d816004840160208801613081565b01600401979650505050505050565b60018060a01b0384168152826020820152606060408201526000613a3260608301846130a5565b601f8211156106ad57600081815260208120601f850160051c81016020861015613bea5750805b601f850160051c820191505b818110156129f057828155600101613bf6565b81516001600160401b03811115613c2257613c22613162565b613c3681613c308454613a69565b84613bc3565b602080601f831160018114613c6b5760008415613c535750858301515b600019600386901b1c1916600185901b1785556129f0565b600085815260208120601f198616915b82811015613c9a57888601518255948401946001909101908401613c7b565b5085821015613cb85787850151600019600388901b60f8161c191681555b5050505050600190811b01905550565b602080825260189082015277115490cdcc8c4e881a5b9d985b1a59081d1bdad95b88125160421b604082015260600190565b71656d62726163655f636f6d6d756e6974795f60701b815260008251613d27816012850160208701613081565b9190910160120192915050565b60008154613d4181613a69565b60018281168015613d595760018114613d6e57613d9d565b60ff1984168752821515830287019450613d9d565b8560005260208060002060005b85811015613d945781548a820152908401908201613d7b565b50505082870194505b5050505092915050565b6d53454c4543542b2a2b46524f4d2b60901b81526000613dca600e830184613d34565b6d2b57484552452b69642b2533442b60901b8152600e019392505050565b7f68747470733a2f2f746573746e6574732e7461626c656c616e642e6e6574776f815276726b2f71756572793f756e777261703d7472756526733d60481b602082015260008251613e40816037850160208701613081565b9190910160370192915050565b600060208284031215613e5f57600080fd5b8151612c0581613111565b60208082526025908201527f4552433732313a207472616e736665722066726f6d20696e636f72726563742060408201526437bbb732b960d91b606082015260800190565b6000602760f81b8083528351613ecc816001860160208801613081565b600193019283015250600201919050565b6b024a729a2a92a1024a72a27960a51b815260008451613f0481600c850160208901613081565b600560fb1b600c918401918201528451613f2581600d840160208901613081565b67052ac8298aa8aa6560c31b600d92909101918201528351613f4e816015840160208801613081565b602960f81b6015929091019182015260160195945050505050565b604081526000613f7c60408301856130a5565b8281036020840152613a3281856130a5565b6020808252602b908201527f496e697469616c697a61626c653a20636f6e7472616374206973206e6f74206960408201526a6e697469616c697a696e6760a81b606082015260800190565b6000602080835260008454613fed81613a69565b8084870152604060018084166000811461400e576001811461402857614056565b60ff1985168984015283151560051b890183019550614056565b896000528660002060005b8581101561404e5781548b8201860152908301908801614033565b8a0184019650505b509398975050505050505050565b60006140708284613d34565b675f6d656d6265727360c01b81526008019392505050565b6001600160a01b03831681526040602082018190526000906106bb908301846130a5565b6000602082840312156140be57600080fd5b5051919050565b60006140d18284613d34565b695f6b65795f76616c756560b01b8152600a019392505050565b60208082526032908201527f4552433732313a207472616e7366657220746f206e6f6e20455243373231526560408201527131b2b4bb32b91034b6b83632b6b2b73a32b960711b606082015260800190565b6000835161414f818460208801613081565b835190830190614163818360208801613081565b01949350505050565b634e487b7160e01b600052601160045260246000fd5b818103818111156104d9576104d961416c565b808201808211156104d9576104d961416c565b6020808252601c908201527b115490cdcc8c4e881d1bdad95b88185b1c9958591e481b5a5b9d195960221b604082015260600190565b600084516141f0818460208901613081565b8083019050600b60fa1b8082528551614210816001850160208a01613081565b6001920191820152835161422b816002840160208801613081565b0160020195945050505050565b80820281158282048414176104d9576104d961416c565b60008161425e5761425e61416c565b506000190190565b60008451614278818460208901613081565b8083019050605f60f81b8082528551614210816001850160208a01613081565b6c021a922a0aa22902a20a126229609d1b8152600084516142c081600d850160208901613081565b605f60f81b600d9184019182015284516142e181600e840160208901613081565b600560fb1b600e9290910191820152835161430381600f840160208801613081565b602960f81b600f929091019182015260100195945050505050565b6001600160a01b0385811682528416602082015260408101839052608060608201819052600090614351908301846130a5565b9695505050505050565b60006020828403121561436d57600080fd5b8151612c058161304e56fe6b2c20762c206163636f756e742c20656e6372797074696f6e2c2064617465437265617465646b2054455854205052494d415259204b45592c207620544558542c206163636f756e7420544558542c20656e6372797074696f6e20494e54454745522c2064617465437265617465642054455854696420494e5445474552205052494d415259204b45592c206163636f756e7420544558542c206461746543726561746564205445585412f18a9f2fd61cd983319a9e31b5c5e08ad6449dd396c51861774fe3cc8b1249ddf252ad1be2c89b69c2b068fc378daa952ba7f163c4a11628f55a4df523b3efa2d7986979e2ece57316cb858eebbe5dad190c94fcf1c0ff7f220a6a89ee780fa164736f6c6343000811000a",
  "linkReferences": {},
  "deployedLinkReferences": {}
}