{"contracts/EmbraceAccounts.sol":{"EmbraceAccounts":{"abi":[{"inputs":[{"internalType":"address","name":"_address","type":"address"},{"internalType":"uint256","name":"_spaceId","type":"uint256"}],"name":"addSpace","outputs":[],"stateMutability":"nonpayable","type":"function"},{"inputs":[{"internalType":"address","name":"_address","type":"address"}],"name":"getSpaces","outputs":[{"internalType":"uint256[]","name":"","type":"uint256[]"}],"stateMutability":"view","type":"function"}],"evm":{"bytecode":{"linkReferences":{},"object":"6080806040523461001657610240908161001c8239f35b600080fdfe604060808152600436101561001357600080fd5b6000803560e01c80636aed0c1a1461010c5763d9a056a61461003457600080fd5b346101095760209081600319360112610109576001600160a01b03610057610138565b16815280825282812091835191828285549182815201908195835283832090835b858282106100f55750505050839003601f01601f19168301946001600160401b038611848710176100e15785815282865292518583018190528594938501939290915b8281106100ca57505050500390f35b8351855286955093810193928101926001016100bb565b634e487b7160e01b82526041600452602482fd5b835485529093019260019283019201610078565b80fd5b5090346101345736600319011261010957610131610128610138565b60243590610181565b80f35b5080fd5b600435906001600160a01b038216820361014e57565b600080fd5b805482101561016b5760005260206000200190600090565b634e487b7160e01b600052603260045260246000fd5b6001600160a01b03166000908152602081905260408120805491805b8381106101f05750600160401b8310156101dc5750906101c291600182018155610153565b819291549060031b600019811b9283911b16911916179055565b634e487b7160e01b81526041600452602490fd5b846101fb8285610153565b90549060031b1c1461022c5760001981146102185760010161019d565b634e487b7160e01b82526011600452602482fd5b505050505056fea164736f6c6343000811000a","opcodes":"PUSH1 0x80 DUP1 PUSH1 0x40 MSTORE CALLVALUE PUSH2 0x16 JUMPI PUSH2 0x240 SWAP1 DUP2 PUSH2 0x1C DUP3 CODECOPY RETURN JUMPDEST PUSH1 0x0 DUP1 REVERT INVALID PUSH1 0x40 PUSH1 0x80 DUP2 MSTORE PUSH1 0x4 CALLDATASIZE LT ISZERO PUSH2 0x13 JUMPI PUSH1 0x0 DUP1 REVERT JUMPDEST PUSH1 0x0 DUP1 CALLDATALOAD PUSH1 0xE0 SHR DUP1 PUSH4 0x6AED0C1A EQ PUSH2 0x10C JUMPI PUSH4 0xD9A056A6 EQ PUSH2 0x34 JUMPI PUSH1 0x0 DUP1 REVERT JUMPDEST CALLVALUE PUSH2 0x109 JUMPI PUSH1 0x20 SWAP1 DUP2 PUSH1 0x3 NOT CALLDATASIZE ADD SLT PUSH2 0x109 JUMPI PUSH1 0x1 PUSH1 0x1 PUSH1 0xA0 SHL SUB PUSH2 0x57 PUSH2 0x138 JUMP JUMPDEST AND DUP2 MSTORE DUP1 DUP3 MSTORE DUP3 DUP2 KECCAK256 SWAP2 DUP4 MLOAD SWAP2 DUP3 DUP3 DUP6 SLOAD SWAP2 DUP3 DUP2 MSTORE ADD SWAP1 DUP2 SWAP6 DUP4 MSTORE DUP4 DUP4 KECCAK256 SWAP1 DUP4 JUMPDEST DUP6 DUP3 DUP3 LT PUSH2 0xF5 JUMPI POP POP POP POP DUP4 SWAP1 SUB PUSH1 0x1F ADD PUSH1 0x1F NOT AND DUP4 ADD SWAP5 PUSH1 0x1 PUSH1 0x1 PUSH1 0x40 SHL SUB DUP7 GT DUP5 DUP8 LT OR PUSH2 0xE1 JUMPI DUP6 DUP2 MSTORE DUP3 DUP7 MSTORE SWAP3 MLOAD DUP6 DUP4 ADD DUP2 SWAP1 MSTORE DUP6 SWAP5 SWAP4 DUP6 ADD SWAP4 SWAP3 SWAP1 SWAP2 JUMPDEST DUP3 DUP2 LT PUSH2 0xCA JUMPI POP POP POP POP SUB SWAP1 RETURN JUMPDEST DUP4 MLOAD DUP6 MSTORE DUP7 SWAP6 POP SWAP4 DUP2 ADD SWAP4 SWAP3 DUP2 ADD SWAP3 PUSH1 0x1 ADD PUSH2 0xBB JUMP JUMPDEST PUSH4 0x4E487B71 PUSH1 0xE0 SHL DUP3 MSTORE PUSH1 0x41 PUSH1 0x4 MSTORE PUSH1 0x24 DUP3 REVERT JUMPDEST DUP4 SLOAD DUP6 MSTORE SWAP1 SWAP4 ADD SWAP3 PUSH1 0x1 SWAP3 DUP4 ADD SWAP3 ADD PUSH2 0x78 JUMP JUMPDEST DUP1 REVERT JUMPDEST POP SWAP1 CALLVALUE PUSH2 0x134 JUMPI CALLDATASIZE PUSH1 0x3 NOT ADD SLT PUSH2 0x109 JUMPI PUSH2 0x131 PUSH2 0x128 PUSH2 0x138 JUMP JUMPDEST PUSH1 0x24 CALLDATALOAD SWAP1 PUSH2 0x181 JUMP JUMPDEST DUP1 RETURN JUMPDEST POP DUP1 REVERT JUMPDEST PUSH1 0x4 CALLDATALOAD SWAP1 PUSH1 0x1 PUSH1 0x1 PUSH1 0xA0 SHL SUB DUP3 AND DUP3 SUB PUSH2 0x14E JUMPI JUMP JUMPDEST PUSH1 0x0 DUP1 REVERT JUMPDEST DUP1 SLOAD DUP3 LT ISZERO PUSH2 0x16B JUMPI PUSH1 0x0 MSTORE PUSH1 0x20 PUSH1 0x0 KECCAK256 ADD SWAP1 PUSH1 0x0 SWAP1 JUMP JUMPDEST PUSH4 0x4E487B71 PUSH1 0xE0 SHL PUSH1 0x0 MSTORE PUSH1 0x32 PUSH1 0x4 MSTORE PUSH1 0x24 PUSH1 0x0 REVERT JUMPDEST PUSH1 0x1 PUSH1 0x1 PUSH1 0xA0 SHL SUB AND PUSH1 0x0 SWAP1 DUP2 MSTORE PUSH1 0x20 DUP2 SWAP1 MSTORE PUSH1 0x40 DUP2 KECCAK256 DUP1 SLOAD SWAP2 DUP1 JUMPDEST DUP4 DUP2 LT PUSH2 0x1F0 JUMPI POP PUSH1 0x1 PUSH1 0x40 SHL DUP4 LT ISZERO PUSH2 0x1DC JUMPI POP SWAP1 PUSH2 0x1C2 SWAP2 PUSH1 0x1 DUP3 ADD DUP2 SSTORE PUSH2 0x153 JUMP JUMPDEST DUP2 SWAP3 SWAP2 SLOAD SWAP1 PUSH1 0x3 SHL PUSH1 0x0 NOT DUP2 SHL SWAP3 DUP4 SWAP2 SHL AND SWAP2 NOT AND OR SWAP1 SSTORE JUMP JUMPDEST PUSH4 0x4E487B71 PUSH1 0xE0 SHL DUP2 MSTORE PUSH1 0x41 PUSH1 0x4 MSTORE PUSH1 0x24 SWAP1 REVERT JUMPDEST DUP5 PUSH2 0x1FB DUP3 DUP6 PUSH2 0x153 JUMP JUMPDEST SWAP1 SLOAD SWAP1 PUSH1 0x3 SHL SHR EQ PUSH2 0x22C JUMPI PUSH1 0x0 NOT DUP2 EQ PUSH2 0x218 JUMPI PUSH1 0x1 ADD PUSH2 0x19D JUMP JUMPDEST PUSH4 0x4E487B71 PUSH1 0xE0 SHL DUP3 MSTORE PUSH1 0x11 PUSH1 0x4 MSTORE PUSH1 0x24 DUP3 REVERT JUMPDEST POP POP POP POP POP JUMP INVALID LOG1 PUSH5 0x736F6C6343 STOP ADDMOD GT STOP EXP "},"methodIdentifiers":{"addSpace(address,uint256)":"6aed0c1a","getSpaces(address)":"d9a056a6"}}}}}