{"contracts/EmbraceCommunity.sol":{"EmbraceCommunity":{"abi":[{"inputs":[{"internalType":"string","name":"_name","type":"string"},{"internalType":"string","name":"_symbol","type":"string"},{"internalType":"address","name":"_embraceCommunitiesContract","type":"address"},{"internalType":"uint256","name":"_communityId","type":"uint256"}],"stateMutability":"nonpayable","type":"constructor"},{"anonymous":false,"inputs":[{"indexed":true,"internalType":"address","name":"owner","type":"address"},{"indexed":true,"internalType":"address","name":"approved","type":"address"},{"indexed":true,"internalType":"uint256","name":"tokenId","type":"uint256"}],"name":"Approval","type":"event"},{"anonymous":false,"inputs":[{"indexed":true,"internalType":"address","name":"owner","type":"address"},{"indexed":true,"internalType":"address","name":"operator","type":"address"},{"indexed":false,"internalType":"bool","name":"approved","type":"bool"}],"name":"ApprovalForAll","type":"event"},{"anonymous":false,"inputs":[{"indexed":true,"internalType":"bytes32","name":"role","type":"bytes32"},{"indexed":true,"internalType":"bytes32","name":"previousAdminRole","type":"bytes32"},{"indexed":true,"internalType":"bytes32","name":"newAdminRole","type":"bytes32"}],"name":"RoleAdminChanged","type":"event"},{"anonymous":false,"inputs":[{"indexed":true,"internalType":"bytes32","name":"role","type":"bytes32"},{"indexed":true,"internalType":"address","name":"account","type":"address"},{"indexed":true,"internalType":"address","name":"sender","type":"address"}],"name":"RoleGranted","type":"event"},{"anonymous":false,"inputs":[{"indexed":true,"internalType":"bytes32","name":"role","type":"bytes32"},{"indexed":true,"internalType":"address","name":"account","type":"address"},{"indexed":true,"internalType":"address","name":"sender","type":"address"}],"name":"RoleRevoked","type":"event"},{"anonymous":false,"inputs":[{"indexed":true,"internalType":"address","name":"from","type":"address"},{"indexed":true,"internalType":"address","name":"to","type":"address"},{"indexed":true,"internalType":"uint256","name":"tokenId","type":"uint256"}],"name":"Transfer","type":"event"},{"inputs":[],"name":"DEFAULT_ADMIN_ROLE","outputs":[{"internalType":"bytes32","name":"","type":"bytes32"}],"stateMutability":"view","type":"function"},{"inputs":[{"internalType":"address","name":"to","type":"address"},{"internalType":"uint256","name":"tokenId","type":"uint256"}],"name":"approve","outputs":[],"stateMutability":"nonpayable","type":"function"},{"inputs":[{"internalType":"uint256","name":"","type":"uint256"}],"name":"apps","outputs":[{"internalType":"uint128","name":"","type":"uint128"}],"stateMutability":"view","type":"function"},{"inputs":[{"internalType":"address","name":"owner","type":"address"}],"name":"balanceOf","outputs":[{"internalType":"uint256","name":"","type":"uint256"}],"stateMutability":"view","type":"function"},{"inputs":[],"name":"communityId","outputs":[{"internalType":"uint256","name":"","type":"uint256"}],"stateMutability":"view","type":"function"},{"inputs":[{"internalType":"uint256","name":"tokenId","type":"uint256"}],"name":"getApproved","outputs":[{"internalType":"address","name":"","type":"address"}],"stateMutability":"view","type":"function"},{"inputs":[],"name":"getCommunityData","outputs":[{"components":[{"internalType":"string","name":"handle","type":"string"},{"internalType":"enum Visibility","name":"visibility","type":"uint8"},{"internalType":"enum Membership","name":"membership","type":"uint8"},{"internalType":"uint128[]","name":"apps","type":"uint128[]"}],"internalType":"struct CommunityContractData","name":"","type":"tuple"}],"stateMutability":"view","type":"function"},{"inputs":[{"internalType":"bytes32","name":"role","type":"bytes32"}],"name":"getRoleAdmin","outputs":[{"internalType":"bytes32","name":"","type":"bytes32"}],"stateMutability":"view","type":"function"},{"inputs":[{"internalType":"bytes32","name":"role","type":"bytes32"},{"internalType":"address","name":"account","type":"address"}],"name":"grantRole","outputs":[],"stateMutability":"nonpayable","type":"function"},{"inputs":[],"name":"handle","outputs":[{"internalType":"string","name":"","type":"string"}],"stateMutability":"view","type":"function"},{"inputs":[{"internalType":"bytes32","name":"role","type":"bytes32"},{"internalType":"address","name":"account","type":"address"}],"name":"hasRole","outputs":[{"internalType":"bool","name":"","type":"bool"}],"stateMutability":"view","type":"function"},{"inputs":[{"internalType":"address","name":"owner","type":"address"},{"internalType":"address","name":"operator","type":"address"}],"name":"isApprovedForAll","outputs":[{"internalType":"bool","name":"","type":"bool"}],"stateMutability":"view","type":"function"},{"inputs":[],"name":"membership","outputs":[{"internalType":"enum Membership","name":"","type":"uint8"}],"stateMutability":"view","type":"function"},{"inputs":[],"name":"mint","outputs":[],"stateMutability":"nonpayable","type":"function"},{"inputs":[],"name":"name","outputs":[{"internalType":"string","name":"","type":"string"}],"stateMutability":"view","type":"function"},{"inputs":[{"internalType":"uint256","name":"tokenId","type":"uint256"}],"name":"ownerOf","outputs":[{"internalType":"address","name":"","type":"address"}],"stateMutability":"view","type":"function"},{"inputs":[{"internalType":"bytes32","name":"role","type":"bytes32"},{"internalType":"address","name":"account","type":"address"}],"name":"renounceRole","outputs":[],"stateMutability":"nonpayable","type":"function"},{"inputs":[{"internalType":"bytes32","name":"role","type":"bytes32"},{"internalType":"address","name":"account","type":"address"}],"name":"revokeRole","outputs":[],"stateMutability":"nonpayable","type":"function"},{"inputs":[{"internalType":"address","name":"from","type":"address"},{"internalType":"address","name":"to","type":"address"},{"internalType":"uint256","name":"tokenId","type":"uint256"}],"name":"safeTransferFrom","outputs":[],"stateMutability":"nonpayable","type":"function"},{"inputs":[{"internalType":"address","name":"from","type":"address"},{"internalType":"address","name":"to","type":"address"},{"internalType":"uint256","name":"tokenId","type":"uint256"},{"internalType":"bytes","name":"data","type":"bytes"}],"name":"safeTransferFrom","outputs":[],"stateMutability":"nonpayable","type":"function"},{"inputs":[{"internalType":"address","name":"operator","type":"address"},{"internalType":"bool","name":"approved","type":"bool"}],"name":"setApprovalForAll","outputs":[],"stateMutability":"nonpayable","type":"function"},{"inputs":[{"components":[{"internalType":"string","name":"handle","type":"string"},{"internalType":"enum Visibility","name":"visibility","type":"uint8"},{"internalType":"enum Membership","name":"membership","type":"uint8"},{"internalType":"uint128[]","name":"apps","type":"uint128[]"}],"internalType":"struct CommunityContractData","name":"_communityData","type":"tuple"}],"name":"setCommunityData","outputs":[],"stateMutability":"nonpayable","type":"function"},{"inputs":[{"internalType":"bytes4","name":"interfaceId","type":"bytes4"}],"name":"supportsInterface","outputs":[{"internalType":"bool","name":"","type":"bool"}],"stateMutability":"view","type":"function"},{"inputs":[],"name":"symbol","outputs":[{"internalType":"string","name":"","type":"string"}],"stateMutability":"view","type":"function"},{"inputs":[{"internalType":"uint256","name":"tokenId","type":"uint256"}],"name":"tokenURI","outputs":[{"internalType":"string","name":"","type":"string"}],"stateMutability":"view","type":"function"},{"inputs":[{"internalType":"address","name":"from","type":"address"},{"internalType":"address","name":"to","type":"address"},{"internalType":"uint256","name":"tokenId","type":"uint256"}],"name":"transferFrom","outputs":[],"stateMutability":"nonpayable","type":"function"},{"inputs":[],"name":"visibility","outputs":[{"internalType":"enum Visibility","name":"","type":"uint8"}],"stateMutability":"view","type":"function"}],"evm":{"bytecode":{"linkReferences":{},"object":"60406080815234620004115762002514803803806200001e8162000416565b9283398101608082820312620004115781516001600160401b039290838111620004115782620000509183016200043c565b92602092838301519082821162000411576200006e9184016200043c565b8286015190936001600160a01b03821693909184900362000411576060015193855192808411620003fb576000918254946001988987811c97168015620003f0575b86881014620002fa578190601f978881116200039d575b508690888311600114620003395786926200032d575b5050600019600383901b1c191690891b1783555b805190828211620003195788548981811c911680156200030e575b86821014620002fa57908187849311620002a7575b5085908783116001146200024357859262000237575b5050600019600383901b1c191690881b1787555b875190818901908111828210176200022357908391895260078152019266697066733a2f2f60c81b8452600954928784811c9416801562000218575b818510146200020457818411620001de575b505091516001600160c81b031916600e176009555050600a80546001600160a01b031916919091179055600b5560088054919091019055516120659081620004af8239f35b600983528220920160051c82019186905b838110156200019957828155018690620001ef565b634e487b7160e01b83526022600452602483fd5b93607f169362000187565b634e487b7160e01b83526041600452602483fd5b01519050388062000137565b8a86528686208b94509190601f198416875b8982821062000290575050841162000276575b505050811b0187556200014b565b015160001960f88460031b161c1916905538808062000268565b8385015186558e9790950194938401930162000255565b9091508985528585208780850160051c820192888610620002f0575b918c91869594930160051c01915b828110620002e157505062000121565b8781558594508c9101620002d1565b92508192620002c3565b634e487b7160e01b85526022600452602485fd5b90607f16906200010c565b634e487b7160e01b84526041600452602484fd5b015190503880620000dd565b8680528787208c94509190601f198416885b8a8282106200038657505084116200036c575b505050811b018355620000f1565b015160001960f88460031b161c191690553880806200035e565b8385015186558f979095019493840193016200034b565b9091508580528686208880850160051c820192898610620003e6575b918d91869594930160051c01915b828110620003d7575050620000c7565b8881558594508d9101620003c7565b92508192620003b9565b96607f1696620000b0565b634e487b7160e01b600052604160045260246000fd5b600080fd5b6040519190601f01601f191682016001600160401b03811183821017620003fb57604052565b919080601f84011215620004115782516001600160401b038111620003fb5760209062000472601f8201601f1916830162000416565b92818452828287010111620004115760005b8181106200049a57508260009394955001015290565b85810183015184820184015282016200048456fe608060408181526004918236101561001657600080fd5b600092833560e01c91826301ffc9a7146111655750816306fdde03146110de578163081812fc146110be578163095ea7b314610f505781631249c58b14610e8d57816323b872dd14610e63578163248a9ca314610e3857816329adec1414610e125781632f2ff15d14610d6557816336568abe14610cd357816342842e0e14610caa57816361acc37e14610c435781636352211e14610c1257816370a0823114610b7c5781637f50861a14610b5d57816391d1485414610b1657816395d89b4114610a8f578163a217fddf14610a74578163a22cb465146109ac578163a2bf68b91461097f578163adaf1cab14610587578163b88d4fde14610523578163c87b56dd146104ec578163d547741f146104a957508063daee9ac914610282578063e985e9c5146102355763fd0da0991461014e57600080fd5b3461023157816003193601126102315780519082600c5461016e81611379565b8085529060019081811690811561020957506001146101b0575b50505061019a826101ac940383611304565b5191829160208352602083019061120d565b0390f35b600c8352602095507fdf6966c971051c3d54ec59162606531493a51404a002842f56009d7e5cf4a8c75b8284106101f657505050826101ac9461019a9282010194610188565b80548685018801529286019281016101da565b6101ac975061019a9450602092508693915060ff191682840152151560051b82010194610188565b5080fd5b503461023157806003193601126102315760ff81602093610254611232565b61025c61124d565b6001600160a01b0391821683526005875283832091168252855220549151911615158152f35b503461023157816003193601126102315780519161029f836112b8565b60608352606080602094838682015283858201520152600d5460ff8082169160081c16938351936102cf856112b8565b8051600c54969085816102e18a611379565b9182825260019a878c8216918260001461048c57505060011461044e575b61030b92500382611304565b86528286019361031a81611298565b84528186019061032981611298565b815281519182838580600e549384815201600e8a528b828b20948b5b87828483011061041f575061037696549285838310610407575b5050106103f9575b50905099979695990384611304565b606087019283526103978151978989525160808a8a015260a089019061120d565b9351906103a382611298565b870152516103b081611298565b606086015251848203601f19016080860152805180835291860195908101925b8281106103dd5785870386f35b83516001600160801b03168752958101959281019284016103d0565b60801c815201869038610367565b6001600160801b038516865290940193018e8561035f565b87546001600160801b038116865260801c8c86015292909601958995508a945091909201918d91600201610345565b5050600c875281858089208b8a915b85831061047357505061030b93508201016102ff565b80919294505483858801015201910186908b859361045d565b60ff19168482015261030b94151560051b84010191506102ff9050565b919050346104e857806003193601126104e8576104e591356104e060016104ce61124d565b93838752600760205286200154611470565b61175c565b80f35b8280fd5b828434610520576020366003190112610520575061050d6101ac9235611cd4565b905191829160208352602083019061120d565b80fd5b8390346102315760803660031901126102315761053e611232565b61054661124d565b906064356001600160401b0381116105835736602382011215610583576104e59381602461057993369301359101611342565b91604435916118cd565b8480fd5b919050346104e85760206003198181360112610583576001600160401b039084359082821161097b576080908236030112610977578351936080850185811084821117610964578152818601358381116109605782019136602384011215610960576105fd6024933690858a8201359101611342565b8652828101356002968782101561095c578681019182526044830135928884101561095457848201938452606481013590878211610958570136602382011215610954578981013594878611610942578560051b9051956106608a830188611304565b865286898701918301019136831161093e578701905b82821061091b5750505060608101938452518051908682116109095781908b6106a0600c54611379565b8a601f82116108cf575b5050508890601f831160011461086a578c9261085f575b50508160011b916000199060031b1c191617600c555b51906106e282611298565b6106eb82611298565b60ff61ff00600d5492516106fe81611298565b61070781611298565b60081b1692169061ffff19161717600d555190815192831161084e57600160401b831161084e57508290600e5483600e55808410610801575b500190600e86528286209260019282841c95885b8781106107bd5750506001198316909203918261076f578780f35b929190879688905b838210610791575050505050500155388080808080808780f35b90919293836107b082979a60018060801b038c51169086861b90611cbb565b9901959493920190610777565b85908a8b5b868c8683106107d8575050508189015501610754565b82979495936107f4929360018060801b03875116921b90611cbb565b92019401908792916107c2565b61082e90600e89528389206001808701811c8201926010888c1b1680610834575b500160011c0190611ca4565b38610740565b60001990818601918254918a0360031b1c16905538610822565b634e487b7160e01b87526041865286fd5b0151905038806106c1565b600c8d52898d209250601f1984168d5b8b8282106108b95750509084600195949392106108a0575b505050811b01600c556106d7565b015160001960f88460031b161c19169055388080610892565b600185968293968601518155019501930161087a565b82600c6108f7945220601f850160051c8101918c86106108ff575b601f0160051c0190611ca4565b8b388a6106aa565b90915081906108ea565b634e487b7160e01b8b5260418a52858bfd5b81356001600160801b038116810361093a578152908901908901610676565b8d80fd5b8c80fd5b634e487b7160e01b8c5260418b52868cfd5b8a80fd5b8b80fd5b8980fd5b8780fd5b634e487b7160e01b885260418752602488fd5b8580fd5b8680fd5b505034610231578160031936011261023157600d54905160209160081c60ff166109a881611298565b8152f35b919050346104e857806003193601126104e8576109c7611232565b9060243591821515809303610583576001600160a01b031692338414610a365750338452600560205280842083855260205280842060ff1981541660ff8416179055519081527f17307eab39ab6107e8899845ad3d59bd9653f200f220920489ca2b5937696c3160203392a380f35b6020606492519162461bcd60e51b8352820152601960248201527822a9219b99189d1030b8383937bb32903a379031b0b63632b960391b6044820152fd5b50503461023157816003193601126102315751908152602090f35b505034610231578160031936011261023157805190826001805490610ab382611379565b808652918181169081156102095750600114610adb5750505061019a826101ac940383611304565b80955082526020948583205b828410610b0357505050826101ac9461019a9282010194610188565b8054868501880152928601928101610ae7565b9050346104e857816003193601126104e8578160209360ff92610b3761124d565b90358252600786528282206001600160a01b039091168252855220549151911615158152f35b505034610231578160031936011261023157602090600b549051908152f35b83915034610231576020366003190112610231576001600160a01b03610ba0611232565b16908115610bbd5760208480858581526003845220549051908152f35b608490602085519162461bcd60e51b8352820152602960248201527f4552433732313a2061646472657373207a65726f206973206e6f7420612076616044820152683634b21037bbb732b960b91b6064820152fd5b8284346105205760203660031901126105205750610c3260209235611819565b90516001600160a01b039091168152f35b9050346104e85760203660031901126104e85735600e548110156104e857600e909252600182901c7fbb7b4a454dc3493923482f07822329ed19e8244eff582cc204f8554c3620c3fd0154905160079290921b6080161c6001600160801b03168152602090f35b505034610231576104e590610cbe36611263565b91925192610ccb846112e9565b8584526118cd565b83915034610231578260031936011261023157610cee61124d565b90336001600160a01b03831603610d0a57906104e5913561175c565b608490602085519162461bcd60e51b8352820152602f60248201527f416363657373436f6e74726f6c3a2063616e206f6e6c792072656e6f756e636560448201526e103937b632b9903337b91039b2b63360891b6064820152fd5b9050346104e857816003193601126104e8573590610d8161124d565b908284526007602052610d9960018286200154611470565b828452600760209081528185206001600160a01b039093168086529290528084205460ff1615610dc7578380f35b82845260076020528084208285526020528320600160ff1982541617905533917f2f8788117e7eff1d82e926ec794901d17c78024a50270940304540a733656f0d8480a43880808380f35b505034610231578160031936011261023157600d54905160209160ff166109a881611298565b9050346104e85760203660031901126104e85781602093600192358152600785522001549051908152f35b8334610520576104e5610e7536611263565b91610e88610e838433611946565b61186b565b611a0e565b919050346104e857826003193601126104e857600854913315610f0e5750610ebd610eb783611b0a565b15611fad565b610ec9610eb783611b0a565b3380845260036020908152828520805460010190558385526002905290832080546001600160a01b03191682179055826000805160206120398339815191528180a480f35b6020606492519162461bcd60e51b8352820152602060248201527f4552433732313a206d696e7420746f20746865207a65726f20616464726573736044820152fd5b9050346104e857816003193601126104e857610f6a611232565b6024359290916001600160a01b0391908280610f8587611819565b1694169380851461107157803314908115611052575b5015610fea57848652602052842080546001600160a01b03191683179055610fc283611819565b167f8c5be1e5ebec7d5bd14f71427d1e84f3dd0314c0f7b2291e5b200ac8c7c3b9258480a480f35b6020608492519162461bcd60e51b8352820152603d60248201527f4552433732313a20617070726f76652063616c6c6572206973206e6f7420746f60448201527f6b656e206f776e6572206f7220617070726f76656420666f7220616c6c0000006064820152fd5b90508652600560205281862033875260205260ff828720541638610f9b565b506020608492519162461bcd60e51b8352820152602160248201527f4552433732313a20617070726f76616c20746f2063757272656e74206f776e656044820152603960f91b6064820152fd5b8284346105205760203660031901126105205750610c326020923561183f565b5050346102315781600319360112610231578051908280546110ff81611379565b80855290600190818116908115610209575060011461112a5750505061019a826101ac940383611304565b94508180526020948583205b82841061115257505050826101ac9461019a9282010194610188565b8054868501880152928601928101611136565b8491346104e85760203660031901126104e8573563ffffffff60e01b81168091036104e85760209250637965db0b60e01b81149081156111a7575b5015158152f35b6380ac58cd60e01b8114915081156111d9575b81156111c8575b50836111a0565b6301ffc9a760e01b149050836111c1565b635b5e139f60e01b811491506111ba565b60005b8381106111fd5750506000910152565b81810151838201526020016111ed565b90602091611226815180928185528580860191016111ea565b601f01601f1916010190565b600435906001600160a01b038216820361124857565b600080fd5b602435906001600160a01b038216820361124857565b6060906003190112611248576001600160a01b0390600435828116810361124857916024359081168103611248579060443590565b600211156112a257565b634e487b7160e01b600052602160045260246000fd5b608081019081106001600160401b038211176112d357604052565b634e487b7160e01b600052604160045260246000fd5b602081019081106001600160401b038211176112d357604052565b601f909101601f19168101906001600160401b038211908210176112d357604052565b6001600160401b0381116112d357601f01601f191660200190565b92919261134e82611327565b9161135c6040519384611304565b829481845281830111611248578281602093846000960137010152565b90600182811c921680156113a9575b602083101461139357565b634e487b7160e01b600052602260045260246000fd5b91607f1691611388565b60405190600082600954916113c783611379565b80835260019380851690811561144f57506001146113ef575b506113ed92500383611304565b565b600960009081527f6e1540171b6c0c960b71a7020d9f60077f6af931a8bbf590da0223dacf75c7af94602093509091905b8183106114375750506113ed9350820101386113e0565b85548884018501529485019487945091830191611420565b90506113ed94506020925060ff191682840152151560051b820101386113e0565b60009080825260209060078252604092838120338252835260ff84822054161561149a5750505050565b8351913390606084016001600160401b03811185821017611748578652602a845284840190863683378451156117345760308253845192600193841015611720576078602187015360295b8481116116b65750611686578651926114fd846112b8565b60428452868401946060368737845115611672576030865384518210156116725790607860218601536041915b818311611604575050506115d4576115d09386936115b4936115a560489461157c9a519a8b9576020b1b1b2b9b9a1b7b73a3937b61d1030b1b1b7bab73a1604d1b8c88015251809260378801906111ea565b8401917001034b99036b4b9b9b4b733903937b6329607d1b6037840152518093868401906111ea565b01036028810187520185611304565b5192839262461bcd60e51b84526004840152602483019061120d565b0390fd5b60648587519062461bcd60e51b82528060048301526024820152600080516020611ff98339815191526044820152fd5b909192600f8116601081101561165e576f181899199a1a9b1b9c1cb0b131b232b360811b901a6116348588611c7d565b5360041c92801561164a5760001901919061152a565b634e487b7160e01b82526011600452602482fd5b634e487b7160e01b83526032600452602483fd5b634e487b7160e01b81526032600452602490fd5b60648688519062461bcd60e51b82528060048301526024820152600080516020611ff98339815191526044820152fd5b90600f8116601081101561170c576f181899199a1a9b1b9c1cb0b131b232b360811b901a6116e48389611c7d565b5360041c9080156116f857600019016114e5565b634e487b7160e01b86526011600452602486fd5b634e487b7160e01b87526032600452602487fd5b634e487b7160e01b85526032600452602485fd5b634e487b7160e01b84526032600452602484fd5b634e487b7160e01b84526041600452602484fd5b906000918083526007602052604083209160018060a01b03169182845260205260ff60408420541661178d57505050565b8083526007602052604083208284526020526040832060ff1981541690557ff6391f5c32d9c69d2a47ea670b442974b53935d1edc7fd64eb21e047a839171b339380a4565b156117d957565b60405162461bcd60e51b8152602060048201526018602482015277115490cdcc8c4e881a5b9d985b1a59081d1bdad95b88125160421b6044820152606490fd5b6000908152600260205260409020546001600160a01b031661183c8115156117d2565b90565b61185061184b82611b0a565b6117d2565b6000908152600460205260409020546001600160a01b031690565b1561187257565b60405162461bcd60e51b815260206004820152602d60248201527f4552433732313a2063616c6c6572206973206e6f7420746f6b656e206f776e6560448201526c1c881bdc88185c1c1c9bdd9959609a1b6064820152608490fd5b906118f19392916118e1610e838433611946565b6118ec838383611a0e565b611b27565b156118f857565b60405162461bcd60e51b8152602060048201526032602482015260008051602061201983398151915260448201527131b2b4bb32b91034b6b83632b6b2b73a32b960711b6064820152608490fd5b906001600160a01b03808061195a84611819565b1693169183831493841561198d575b508315611977575b50505090565b6119839192935061183f565b1614388080611971565b909350600052600560205260406000208260005260205260ff604060002054169238611969565b156119bb57565b60405162461bcd60e51b815260206004820152602560248201527f4552433732313a207472616e736665722066726f6d20696e636f72726563742060448201526437bbb732b960d91b6064820152608490fd5b90611a3691611a1c84611819565b6001600160a01b03939184169284929091831684146119b4565b16918215611ab95781611a5391611a4c86611819565b16146119b4565b600080516020612039833981519152600084815260046020526040812060018060a01b03199081815416905583825260036020526040822060001981540190558482526040822060018154019055858252600260205284604083209182541617905580a4565b60405162461bcd60e51b8152602060048201526024808201527f4552433732313a207472616e7366657220746f20746865207a65726f206164646044820152637265737360e01b6064820152608490fd5b6000908152600260205260409020546001600160a01b0316151590565b9293600093909291803b15611c7257948491611b819660405180948193630a85bd0160e11b9788845233600485015260018060a01b0380921660248501526044840152608060648401528260209b8c97608483019061120d565b0393165af1849181611c32575b50611c21575050503d600014611c19573d611ba881611327565b90611bb66040519283611304565b81528091833d92013e5b80519182611c165760405162461bcd60e51b8152602060048201526032602482015260008051602061201983398151915260448201527131b2b4bb32b91034b6b83632b6b2b73a32b960711b6064820152608490fd5b01fd5b506060611bc0565b6001600160e01b0319161492509050565b9091508581813d8311611c6b575b611c4a8183611304565b8101031261058357516001600160e01b031981168103610583579038611b8e565b503d611c40565b505050915050600190565b908151811015611c8e570160200190565b634e487b7160e01b600052603260045260246000fd5b818110611caf575050565b60008155600101611ca4565b9060031b60018060801b03811b9283911b169119161790565b611ce061184b82611b0a565b600081815260209060068252604090818120918051829380549482611d0487611379565b91828252888201936001988a8a82169182600014611f8f575050600114611f51575b50611d3392500383611304565b611d3b6113b3565b908151928315611f45578051611f215750505050611d5b61184b86611b0a565b611d636113b3565b805190939015611f0b5791948592819072184f03e93ff9f4daa797ed6e38ed64bf6a1f0160401b8281811015611efc575b506904ee2d6d415b85acef8160201b905080841015611eee575b50662386f26fc1000080841015611edf575b506305f5e10080841015611ed0575b5061271080841015611ec1575b506064831015611eb1575b600a80931015611ea8575b90816021818a0199611e1b611e068c611327565b9b611e1389519d8e611304565b808d52611327565b8b8b019890601f1901368a37508a0101905b611e72575b5050505090611e669461183c949392519583611e5788955180928880890191016111ea565b840191518093868401906111ea565b01038084520182611304565b600019019083906f181899199a1a9b1b9c1cb0b131b232b360811b8282061a835304918215611ea357919082611e2d565b611e32565b80970196611df2565b9691606460029104920196611de7565b60049198930492019638611ddc565b60089198930492019638611dcf565b60109198930492019638611dc0565b879198930492019638611dae565b94985088940492503880611d94565b5092509250505190611f1c826112e9565b815290565b9297509261183c969550611e66919450611e578891519889968880890191016111ea565b97505050505050505090565b915050855282878087208888915b858310611f76575050611d33935082010138611d26565b8091929450548385890101520191018890888693611f5f565b60ff19168752611d3395151560051b8501019250389150611d269050565b15611fb457565b60405162461bcd60e51b815260206004820152601c60248201527b115490cdcc8c4e881d1bdad95b88185b1c9958591e481b5a5b9d195960221b6044820152606490fdfe537472696e67733a20686578206c656e67746820696e73756666696369656e744552433732313a207472616e7366657220746f206e6f6e204552433732315265ddf252ad1be2c89b69c2b068fc378daa952ba7f163c4a11628f55a4df523b3efa164736f6c6343000811000a","opcodes":"PUSH1 0x40 PUSH1 0x80 DUP2 MSTORE CALLVALUE PUSH3 0x411 JUMPI PUSH3 0x2514 DUP1 CODESIZE SUB DUP1 PUSH3 0x1E DUP2 PUSH3 0x416 JUMP JUMPDEST SWAP3 DUP4 CODECOPY DUP2 ADD PUSH1 0x80 DUP3 DUP3 SUB SLT PUSH3 0x411 JUMPI DUP2 MLOAD PUSH1 0x1 PUSH1 0x1 PUSH1 0x40 SHL SUB SWAP3 SWAP1 DUP4 DUP2 GT PUSH3 0x411 JUMPI DUP3 PUSH3 0x50 SWAP2 DUP4 ADD PUSH3 0x43C JUMP JUMPDEST SWAP3 PUSH1 0x20 SWAP3 DUP4 DUP4 ADD MLOAD SWAP1 DUP3 DUP3 GT PUSH3 0x411 JUMPI PUSH3 0x6E SWAP2 DUP5 ADD PUSH3 0x43C JUMP JUMPDEST DUP3 DUP7 ADD MLOAD SWAP1 SWAP4 PUSH1 0x1 PUSH1 0x1 PUSH1 0xA0 SHL SUB DUP3 AND SWAP4 SWAP1 SWAP2 DUP5 SWAP1 SUB PUSH3 0x411 JUMPI PUSH1 0x60 ADD MLOAD SWAP4 DUP6 MLOAD SWAP3 DUP1 DUP5 GT PUSH3 0x3FB JUMPI PUSH1 0x0 SWAP2 DUP3 SLOAD SWAP5 PUSH1 0x1 SWAP9 DUP10 DUP8 DUP2 SHR SWAP8 AND DUP1 ISZERO PUSH3 0x3F0 JUMPI JUMPDEST DUP7 DUP9 LT EQ PUSH3 0x2FA JUMPI DUP2 SWAP1 PUSH1 0x1F SWAP8 DUP9 DUP2 GT PUSH3 0x39D JUMPI JUMPDEST POP DUP7 SWAP1 DUP9 DUP4 GT PUSH1 0x1 EQ PUSH3 0x339 JUMPI DUP7 SWAP3 PUSH3 0x32D JUMPI JUMPDEST POP POP PUSH1 0x0 NOT PUSH1 0x3 DUP4 SWAP1 SHL SHR NOT AND SWAP1 DUP10 SHL OR DUP4 SSTORE JUMPDEST DUP1 MLOAD SWAP1 DUP3 DUP3 GT PUSH3 0x319 JUMPI DUP9 SLOAD DUP10 DUP2 DUP2 SHR SWAP2 AND DUP1 ISZERO PUSH3 0x30E JUMPI JUMPDEST DUP7 DUP3 LT EQ PUSH3 0x2FA JUMPI SWAP1 DUP2 DUP8 DUP5 SWAP4 GT PUSH3 0x2A7 JUMPI JUMPDEST POP DUP6 SWAP1 DUP8 DUP4 GT PUSH1 0x1 EQ PUSH3 0x243 JUMPI DUP6 SWAP3 PUSH3 0x237 JUMPI JUMPDEST POP POP PUSH1 0x0 NOT PUSH1 0x3 DUP4 SWAP1 SHL SHR NOT AND SWAP1 DUP9 SHL OR DUP8 SSTORE JUMPDEST DUP8 MLOAD SWAP1 DUP2 DUP10 ADD SWAP1 DUP2 GT DUP3 DUP3 LT OR PUSH3 0x223 JUMPI SWAP1 DUP4 SWAP2 DUP10 MSTORE PUSH1 0x7 DUP2 MSTORE ADD SWAP3 PUSH7 0x697066733A2F2F PUSH1 0xC8 SHL DUP5 MSTORE PUSH1 0x9 SLOAD SWAP3 DUP8 DUP5 DUP2 SHR SWAP5 AND DUP1 ISZERO PUSH3 0x218 JUMPI JUMPDEST DUP2 DUP6 LT EQ PUSH3 0x204 JUMPI DUP2 DUP5 GT PUSH3 0x1DE JUMPI JUMPDEST POP POP SWAP2 MLOAD PUSH1 0x1 PUSH1 0x1 PUSH1 0xC8 SHL SUB NOT AND PUSH1 0xE OR PUSH1 0x9 SSTORE POP POP PUSH1 0xA DUP1 SLOAD PUSH1 0x1 PUSH1 0x1 PUSH1 0xA0 SHL SUB NOT AND SWAP2 SWAP1 SWAP2 OR SWAP1 SSTORE PUSH1 0xB SSTORE PUSH1 0x8 DUP1 SLOAD SWAP2 SWAP1 SWAP2 ADD SWAP1 SSTORE MLOAD PUSH2 0x2065 SWAP1 DUP2 PUSH3 0x4AF DUP3 CODECOPY RETURN JUMPDEST PUSH1 0x9 DUP4 MSTORE DUP3 KECCAK256 SWAP3 ADD PUSH1 0x5 SHR DUP3 ADD SWAP2 DUP7 SWAP1 JUMPDEST DUP4 DUP2 LT ISZERO PUSH3 0x199 JUMPI DUP3 DUP2 SSTORE ADD DUP7 SWAP1 PUSH3 0x1EF JUMP JUMPDEST PUSH4 0x4E487B71 PUSH1 0xE0 SHL DUP4 MSTORE PUSH1 0x22 PUSH1 0x4 MSTORE PUSH1 0x24 DUP4 REVERT JUMPDEST SWAP4 PUSH1 0x7F AND SWAP4 PUSH3 0x187 JUMP JUMPDEST PUSH4 0x4E487B71 PUSH1 0xE0 SHL DUP4 MSTORE PUSH1 0x41 PUSH1 0x4 MSTORE PUSH1 0x24 DUP4 REVERT JUMPDEST ADD MLOAD SWAP1 POP CODESIZE DUP1 PUSH3 0x137 JUMP JUMPDEST DUP11 DUP7 MSTORE DUP7 DUP7 KECCAK256 DUP12 SWAP5 POP SWAP2 SWAP1 PUSH1 0x1F NOT DUP5 AND DUP8 JUMPDEST DUP10 DUP3 DUP3 LT PUSH3 0x290 JUMPI POP POP DUP5 GT PUSH3 0x276 JUMPI JUMPDEST POP POP POP DUP2 SHL ADD DUP8 SSTORE PUSH3 0x14B JUMP JUMPDEST ADD MLOAD PUSH1 0x0 NOT PUSH1 0xF8 DUP5 PUSH1 0x3 SHL AND SHR NOT AND SWAP1 SSTORE CODESIZE DUP1 DUP1 PUSH3 0x268 JUMP JUMPDEST DUP4 DUP6 ADD MLOAD DUP7 SSTORE DUP15 SWAP8 SWAP1 SWAP6 ADD SWAP5 SWAP4 DUP5 ADD SWAP4 ADD PUSH3 0x255 JUMP JUMPDEST SWAP1 SWAP2 POP DUP10 DUP6 MSTORE DUP6 DUP6 KECCAK256 DUP8 DUP1 DUP6 ADD PUSH1 0x5 SHR DUP3 ADD SWAP3 DUP9 DUP7 LT PUSH3 0x2F0 JUMPI JUMPDEST SWAP2 DUP13 SWAP2 DUP7 SWAP6 SWAP5 SWAP4 ADD PUSH1 0x5 SHR ADD SWAP2 JUMPDEST DUP3 DUP2 LT PUSH3 0x2E1 JUMPI POP POP PUSH3 0x121 JUMP JUMPDEST DUP8 DUP2 SSTORE DUP6 SWAP5 POP DUP13 SWAP2 ADD PUSH3 0x2D1 JUMP JUMPDEST SWAP3 POP DUP2 SWAP3 PUSH3 0x2C3 JUMP JUMPDEST PUSH4 0x4E487B71 PUSH1 0xE0 SHL DUP6 MSTORE PUSH1 0x22 PUSH1 0x4 MSTORE PUSH1 0x24 DUP6 REVERT JUMPDEST SWAP1 PUSH1 0x7F AND SWAP1 PUSH3 0x10C JUMP JUMPDEST PUSH4 0x4E487B71 PUSH1 0xE0 SHL DUP5 MSTORE PUSH1 0x41 PUSH1 0x4 MSTORE PUSH1 0x24 DUP5 REVERT JUMPDEST ADD MLOAD SWAP1 POP CODESIZE DUP1 PUSH3 0xDD JUMP JUMPDEST DUP7 DUP1 MSTORE DUP8 DUP8 KECCAK256 DUP13 SWAP5 POP SWAP2 SWAP1 PUSH1 0x1F NOT DUP5 AND DUP9 JUMPDEST DUP11 DUP3 DUP3 LT PUSH3 0x386 JUMPI POP POP DUP5 GT PUSH3 0x36C JUMPI JUMPDEST POP POP POP DUP2 SHL ADD DUP4 SSTORE PUSH3 0xF1 JUMP JUMPDEST ADD MLOAD PUSH1 0x0 NOT PUSH1 0xF8 DUP5 PUSH1 0x3 SHL AND SHR NOT AND SWAP1 SSTORE CODESIZE DUP1 DUP1 PUSH3 0x35E JUMP JUMPDEST DUP4 DUP6 ADD MLOAD DUP7 SSTORE DUP16 SWAP8 SWAP1 SWAP6 ADD SWAP5 SWAP4 DUP5 ADD SWAP4 ADD PUSH3 0x34B JUMP JUMPDEST SWAP1 SWAP2 POP DUP6 DUP1 MSTORE DUP7 DUP7 KECCAK256 DUP9 DUP1 DUP6 ADD PUSH1 0x5 SHR DUP3 ADD SWAP3 DUP10 DUP7 LT PUSH3 0x3E6 JUMPI JUMPDEST SWAP2 DUP14 SWAP2 DUP7 SWAP6 SWAP5 SWAP4 ADD PUSH1 0x5 SHR ADD SWAP2 JUMPDEST DUP3 DUP2 LT PUSH3 0x3D7 JUMPI POP POP PUSH3 0xC7 JUMP JUMPDEST DUP9 DUP2 SSTORE DUP6 SWAP5 POP DUP14 SWAP2 ADD PUSH3 0x3C7 JUMP JUMPDEST SWAP3 POP DUP2 SWAP3 PUSH3 0x3B9 JUMP JUMPDEST SWAP7 PUSH1 0x7F AND SWAP7 PUSH3 0xB0 JUMP JUMPDEST PUSH4 0x4E487B71 PUSH1 0xE0 SHL PUSH1 0x0 MSTORE PUSH1 0x41 PUSH1 0x4 MSTORE PUSH1 0x24 PUSH1 0x0 REVERT JUMPDEST PUSH1 0x0 DUP1 REVERT JUMPDEST PUSH1 0x40 MLOAD SWAP2 SWAP1 PUSH1 0x1F ADD PUSH1 0x1F NOT AND DUP3 ADD PUSH1 0x1 PUSH1 0x1 PUSH1 0x40 SHL SUB DUP2 GT DUP4 DUP3 LT OR PUSH3 0x3FB JUMPI PUSH1 0x40 MSTORE JUMP JUMPDEST SWAP2 SWAP1 DUP1 PUSH1 0x1F DUP5 ADD SLT ISZERO PUSH3 0x411 JUMPI DUP3 MLOAD PUSH1 0x1 PUSH1 0x1 PUSH1 0x40 SHL SUB DUP2 GT PUSH3 0x3FB JUMPI PUSH1 0x20 SWAP1 PUSH3 0x472 PUSH1 0x1F DUP3 ADD PUSH1 0x1F NOT AND DUP4 ADD PUSH3 0x416 JUMP JUMPDEST SWAP3 DUP2 DUP5 MSTORE DUP3 DUP3 DUP8 ADD ADD GT PUSH3 0x411 JUMPI PUSH1 0x0 JUMPDEST DUP2 DUP2 LT PUSH3 0x49A JUMPI POP DUP3 PUSH1 0x0 SWAP4 SWAP5 SWAP6 POP ADD ADD MSTORE SWAP1 JUMP JUMPDEST DUP6 DUP2 ADD DUP4 ADD MLOAD DUP5 DUP3 ADD DUP5 ADD MSTORE DUP3 ADD PUSH3 0x484 JUMP INVALID PUSH1 0x80 PUSH1 0x40 DUP2 DUP2 MSTORE PUSH1 0x4 SWAP2 DUP3 CALLDATASIZE LT ISZERO PUSH2 0x16 JUMPI PUSH1 0x0 DUP1 REVERT JUMPDEST PUSH1 0x0 SWAP3 DUP4 CALLDATALOAD PUSH1 0xE0 SHR SWAP2 DUP3 PUSH4 0x1FFC9A7 EQ PUSH2 0x1165 JUMPI POP DUP2 PUSH4 0x6FDDE03 EQ PUSH2 0x10DE JUMPI DUP2 PUSH4 0x81812FC EQ PUSH2 0x10BE JUMPI DUP2 PUSH4 0x95EA7B3 EQ PUSH2 0xF50 JUMPI DUP2 PUSH4 0x1249C58B EQ PUSH2 0xE8D JUMPI DUP2 PUSH4 0x23B872DD EQ PUSH2 0xE63 JUMPI DUP2 PUSH4 0x248A9CA3 EQ PUSH2 0xE38 JUMPI DUP2 PUSH4 0x29ADEC14 EQ PUSH2 0xE12 JUMPI DUP2 PUSH4 0x2F2FF15D EQ PUSH2 0xD65 JUMPI DUP2 PUSH4 0x36568ABE EQ PUSH2 0xCD3 JUMPI DUP2 PUSH4 0x42842E0E EQ PUSH2 0xCAA JUMPI DUP2 PUSH4 0x61ACC37E EQ PUSH2 0xC43 JUMPI DUP2 PUSH4 0x6352211E EQ PUSH2 0xC12 JUMPI DUP2 PUSH4 0x70A08231 EQ PUSH2 0xB7C JUMPI DUP2 PUSH4 0x7F50861A EQ PUSH2 0xB5D JUMPI DUP2 PUSH4 0x91D14854 EQ PUSH2 0xB16 JUMPI DUP2 PUSH4 0x95D89B41 EQ PUSH2 0xA8F JUMPI DUP2 PUSH4 0xA217FDDF EQ PUSH2 0xA74 JUMPI DUP2 PUSH4 0xA22CB465 EQ PUSH2 0x9AC JUMPI DUP2 PUSH4 0xA2BF68B9 EQ PUSH2 0x97F JUMPI DUP2 PUSH4 0xADAF1CAB EQ PUSH2 0x587 JUMPI DUP2 PUSH4 0xB88D4FDE EQ PUSH2 0x523 JUMPI DUP2 PUSH4 0xC87B56DD EQ PUSH2 0x4EC JUMPI DUP2 PUSH4 0xD547741F EQ PUSH2 0x4A9 JUMPI POP DUP1 PUSH4 0xDAEE9AC9 EQ PUSH2 0x282 JUMPI DUP1 PUSH4 0xE985E9C5 EQ PUSH2 0x235 JUMPI PUSH4 0xFD0DA099 EQ PUSH2 0x14E JUMPI PUSH1 0x0 DUP1 REVERT JUMPDEST CALLVALUE PUSH2 0x231 JUMPI DUP2 PUSH1 0x3 NOT CALLDATASIZE ADD SLT PUSH2 0x231 JUMPI DUP1 MLOAD SWAP1 DUP3 PUSH1 0xC SLOAD PUSH2 0x16E DUP2 PUSH2 0x1379 JUMP JUMPDEST DUP1 DUP6 MSTORE SWAP1 PUSH1 0x1 SWAP1 DUP2 DUP2 AND SWAP1 DUP2 ISZERO PUSH2 0x209 JUMPI POP PUSH1 0x1 EQ PUSH2 0x1B0 JUMPI JUMPDEST POP POP POP PUSH2 0x19A DUP3 PUSH2 0x1AC SWAP5 SUB DUP4 PUSH2 0x1304 JUMP JUMPDEST MLOAD SWAP2 DUP3 SWAP2 PUSH1 0x20 DUP4 MSTORE PUSH1 0x20 DUP4 ADD SWAP1 PUSH2 0x120D JUMP JUMPDEST SUB SWAP1 RETURN JUMPDEST PUSH1 0xC DUP4 MSTORE PUSH1 0x20 SWAP6 POP PUSH32 0xDF6966C971051C3D54EC59162606531493A51404A002842F56009D7E5CF4A8C7 JUMPDEST DUP3 DUP5 LT PUSH2 0x1F6 JUMPI POP POP POP DUP3 PUSH2 0x1AC SWAP5 PUSH2 0x19A SWAP3 DUP3 ADD ADD SWAP5 PUSH2 0x188 JUMP JUMPDEST DUP1 SLOAD DUP7 DUP6 ADD DUP9 ADD MSTORE SWAP3 DUP7 ADD SWAP3 DUP2 ADD PUSH2 0x1DA JUMP JUMPDEST PUSH2 0x1AC SWAP8 POP PUSH2 0x19A SWAP5 POP PUSH1 0x20 SWAP3 POP DUP7 SWAP4 SWAP2 POP PUSH1 0xFF NOT AND DUP3 DUP5 ADD MSTORE ISZERO ISZERO PUSH1 0x5 SHL DUP3 ADD ADD SWAP5 PUSH2 0x188 JUMP JUMPDEST POP DUP1 REVERT JUMPDEST POP CALLVALUE PUSH2 0x231 JUMPI DUP1 PUSH1 0x3 NOT CALLDATASIZE ADD SLT PUSH2 0x231 JUMPI PUSH1 0xFF DUP2 PUSH1 0x20 SWAP4 PUSH2 0x254 PUSH2 0x1232 JUMP JUMPDEST PUSH2 0x25C PUSH2 0x124D JUMP JUMPDEST PUSH1 0x1 PUSH1 0x1 PUSH1 0xA0 SHL SUB SWAP2 DUP3 AND DUP4 MSTORE PUSH1 0x5 DUP8 MSTORE DUP4 DUP4 KECCAK256 SWAP2 AND DUP3 MSTORE DUP6 MSTORE KECCAK256 SLOAD SWAP2 MLOAD SWAP2 AND ISZERO ISZERO DUP2 MSTORE RETURN JUMPDEST POP CALLVALUE PUSH2 0x231 JUMPI DUP2 PUSH1 0x3 NOT CALLDATASIZE ADD SLT PUSH2 0x231 JUMPI DUP1 MLOAD SWAP2 PUSH2 0x29F DUP4 PUSH2 0x12B8 JUMP JUMPDEST PUSH1 0x60 DUP4 MSTORE PUSH1 0x60 DUP1 PUSH1 0x20 SWAP5 DUP4 DUP7 DUP3 ADD MSTORE DUP4 DUP6 DUP3 ADD MSTORE ADD MSTORE PUSH1 0xD SLOAD PUSH1 0xFF DUP1 DUP3 AND SWAP2 PUSH1 0x8 SHR AND SWAP4 DUP4 MLOAD SWAP4 PUSH2 0x2CF DUP6 PUSH2 0x12B8 JUMP JUMPDEST DUP1 MLOAD PUSH1 0xC SLOAD SWAP7 SWAP1 DUP6 DUP2 PUSH2 0x2E1 DUP11 PUSH2 0x1379 JUMP JUMPDEST SWAP2 DUP3 DUP3 MSTORE PUSH1 0x1 SWAP11 DUP8 DUP13 DUP3 AND SWAP2 DUP3 PUSH1 0x0 EQ PUSH2 0x48C JUMPI POP POP PUSH1 0x1 EQ PUSH2 0x44E JUMPI JUMPDEST PUSH2 0x30B SWAP3 POP SUB DUP3 PUSH2 0x1304 JUMP JUMPDEST DUP7 MSTORE DUP3 DUP7 ADD SWAP4 PUSH2 0x31A DUP2 PUSH2 0x1298 JUMP JUMPDEST DUP5 MSTORE DUP2 DUP7 ADD SWAP1 PUSH2 0x329 DUP2 PUSH2 0x1298 JUMP JUMPDEST DUP2 MSTORE DUP2 MLOAD SWAP2 DUP3 DUP4 DUP6 DUP1 PUSH1 0xE SLOAD SWAP4 DUP5 DUP2 MSTORE ADD PUSH1 0xE DUP11 MSTORE DUP12 DUP3 DUP12 KECCAK256 SWAP5 DUP12 JUMPDEST DUP8 DUP3 DUP5 DUP4 ADD LT PUSH2 0x41F JUMPI POP PUSH2 0x376 SWAP7 SLOAD SWAP3 DUP6 DUP4 DUP4 LT PUSH2 0x407 JUMPI JUMPDEST POP POP LT PUSH2 0x3F9 JUMPI JUMPDEST POP SWAP1 POP SWAP10 SWAP8 SWAP7 SWAP6 SWAP10 SUB DUP5 PUSH2 0x1304 JUMP JUMPDEST PUSH1 0x60 DUP8 ADD SWAP3 DUP4 MSTORE PUSH2 0x397 DUP2 MLOAD SWAP8 DUP10 DUP10 MSTORE MLOAD PUSH1 0x80 DUP11 DUP11 ADD MSTORE PUSH1 0xA0 DUP10 ADD SWAP1 PUSH2 0x120D JUMP JUMPDEST SWAP4 MLOAD SWAP1 PUSH2 0x3A3 DUP3 PUSH2 0x1298 JUMP JUMPDEST DUP8 ADD MSTORE MLOAD PUSH2 0x3B0 DUP2 PUSH2 0x1298 JUMP JUMPDEST PUSH1 0x60 DUP7 ADD MSTORE MLOAD DUP5 DUP3 SUB PUSH1 0x1F NOT ADD PUSH1 0x80 DUP7 ADD MSTORE DUP1 MLOAD DUP1 DUP4 MSTORE SWAP2 DUP7 ADD SWAP6 SWAP1 DUP2 ADD SWAP3 JUMPDEST DUP3 DUP2 LT PUSH2 0x3DD JUMPI DUP6 DUP8 SUB DUP7 RETURN JUMPDEST DUP4 MLOAD PUSH1 0x1 PUSH1 0x1 PUSH1 0x80 SHL SUB AND DUP8 MSTORE SWAP6 DUP2 ADD SWAP6 SWAP3 DUP2 ADD SWAP3 DUP5 ADD PUSH2 0x3D0 JUMP JUMPDEST PUSH1 0x80 SHR DUP2 MSTORE ADD DUP7 SWAP1 CODESIZE PUSH2 0x367 JUMP JUMPDEST PUSH1 0x1 PUSH1 0x1 PUSH1 0x80 SHL SUB DUP6 AND DUP7 MSTORE SWAP1 SWAP5 ADD SWAP4 ADD DUP15 DUP6 PUSH2 0x35F JUMP JUMPDEST DUP8 SLOAD PUSH1 0x1 PUSH1 0x1 PUSH1 0x80 SHL SUB DUP2 AND DUP7 MSTORE PUSH1 0x80 SHR DUP13 DUP7 ADD MSTORE SWAP3 SWAP1 SWAP7 ADD SWAP6 DUP10 SWAP6 POP DUP11 SWAP5 POP SWAP2 SWAP1 SWAP3 ADD SWAP2 DUP14 SWAP2 PUSH1 0x2 ADD PUSH2 0x345 JUMP JUMPDEST POP POP PUSH1 0xC DUP8 MSTORE DUP2 DUP6 DUP1 DUP10 KECCAK256 DUP12 DUP11 SWAP2 JUMPDEST DUP6 DUP4 LT PUSH2 0x473 JUMPI POP POP PUSH2 0x30B SWAP4 POP DUP3 ADD ADD PUSH2 0x2FF JUMP JUMPDEST DUP1 SWAP2 SWAP3 SWAP5 POP SLOAD DUP4 DUP6 DUP9 ADD ADD MSTORE ADD SWAP2 ADD DUP7 SWAP1 DUP12 DUP6 SWAP4 PUSH2 0x45D JUMP JUMPDEST PUSH1 0xFF NOT AND DUP5 DUP3 ADD MSTORE PUSH2 0x30B SWAP5 ISZERO ISZERO PUSH1 0x5 SHL DUP5 ADD ADD SWAP2 POP PUSH2 0x2FF SWAP1 POP JUMP JUMPDEST SWAP2 SWAP1 POP CALLVALUE PUSH2 0x4E8 JUMPI DUP1 PUSH1 0x3 NOT CALLDATASIZE ADD SLT PUSH2 0x4E8 JUMPI PUSH2 0x4E5 SWAP2 CALLDATALOAD PUSH2 0x4E0 PUSH1 0x1 PUSH2 0x4CE PUSH2 0x124D JUMP JUMPDEST SWAP4 DUP4 DUP8 MSTORE PUSH1 0x7 PUSH1 0x20 MSTORE DUP7 KECCAK256 ADD SLOAD PUSH2 0x1470 JUMP JUMPDEST PUSH2 0x175C JUMP JUMPDEST DUP1 RETURN JUMPDEST DUP3 DUP1 REVERT JUMPDEST DUP3 DUP5 CALLVALUE PUSH2 0x520 JUMPI PUSH1 0x20 CALLDATASIZE PUSH1 0x3 NOT ADD SLT PUSH2 0x520 JUMPI POP PUSH2 0x50D PUSH2 0x1AC SWAP3 CALLDATALOAD PUSH2 0x1CD4 JUMP JUMPDEST SWAP1 MLOAD SWAP2 DUP3 SWAP2 PUSH1 0x20 DUP4 MSTORE PUSH1 0x20 DUP4 ADD SWAP1 PUSH2 0x120D JUMP JUMPDEST DUP1 REVERT JUMPDEST DUP4 SWAP1 CALLVALUE PUSH2 0x231 JUMPI PUSH1 0x80 CALLDATASIZE PUSH1 0x3 NOT ADD SLT PUSH2 0x231 JUMPI PUSH2 0x53E PUSH2 0x1232 JUMP JUMPDEST PUSH2 0x546 PUSH2 0x124D JUMP JUMPDEST SWAP1 PUSH1 0x64 CALLDATALOAD PUSH1 0x1 PUSH1 0x1 PUSH1 0x40 SHL SUB DUP2 GT PUSH2 0x583 JUMPI CALLDATASIZE PUSH1 0x23 DUP3 ADD SLT ISZERO PUSH2 0x583 JUMPI PUSH2 0x4E5 SWAP4 DUP2 PUSH1 0x24 PUSH2 0x579 SWAP4 CALLDATASIZE SWAP4 ADD CALLDATALOAD SWAP2 ADD PUSH2 0x1342 JUMP JUMPDEST SWAP2 PUSH1 0x44 CALLDATALOAD SWAP2 PUSH2 0x18CD JUMP JUMPDEST DUP5 DUP1 REVERT JUMPDEST SWAP2 SWAP1 POP CALLVALUE PUSH2 0x4E8 JUMPI PUSH1 0x20 PUSH1 0x3 NOT DUP2 DUP2 CALLDATASIZE ADD SLT PUSH2 0x583 JUMPI PUSH1 0x1 PUSH1 0x1 PUSH1 0x40 SHL SUB SWAP1 DUP5 CALLDATALOAD SWAP1 DUP3 DUP3 GT PUSH2 0x97B JUMPI PUSH1 0x80 SWAP1 DUP3 CALLDATASIZE SUB ADD SLT PUSH2 0x977 JUMPI DUP4 MLOAD SWAP4 PUSH1 0x80 DUP6 ADD DUP6 DUP2 LT DUP5 DUP3 GT OR PUSH2 0x964 JUMPI DUP2 MSTORE DUP2 DUP7 ADD CALLDATALOAD DUP4 DUP2 GT PUSH2 0x960 JUMPI DUP3 ADD SWAP2 CALLDATASIZE PUSH1 0x23 DUP5 ADD SLT ISZERO PUSH2 0x960 JUMPI PUSH2 0x5FD PUSH1 0x24 SWAP4 CALLDATASIZE SWAP1 DUP6 DUP11 DUP3 ADD CALLDATALOAD SWAP2 ADD PUSH2 0x1342 JUMP JUMPDEST DUP7 MSTORE DUP3 DUP2 ADD CALLDATALOAD PUSH1 0x2 SWAP7 DUP8 DUP3 LT ISZERO PUSH2 0x95C JUMPI DUP7 DUP2 ADD SWAP2 DUP3 MSTORE PUSH1 0x44 DUP4 ADD CALLDATALOAD SWAP3 DUP9 DUP5 LT ISZERO PUSH2 0x954 JUMPI DUP5 DUP3 ADD SWAP4 DUP5 MSTORE PUSH1 0x64 DUP2 ADD CALLDATALOAD SWAP1 DUP8 DUP3 GT PUSH2 0x958 JUMPI ADD CALLDATASIZE PUSH1 0x23 DUP3 ADD SLT ISZERO PUSH2 0x954 JUMPI DUP10 DUP2 ADD CALLDATALOAD SWAP5 DUP8 DUP7 GT PUSH2 0x942 JUMPI DUP6 PUSH1 0x5 SHL SWAP1 MLOAD SWAP6 PUSH2 0x660 DUP11 DUP4 ADD DUP9 PUSH2 0x1304 JUMP JUMPDEST DUP7 MSTORE DUP7 DUP10 DUP8 ADD SWAP2 DUP4 ADD ADD SWAP2 CALLDATASIZE DUP4 GT PUSH2 0x93E JUMPI DUP8 ADD SWAP1 JUMPDEST DUP3 DUP3 LT PUSH2 0x91B JUMPI POP POP POP PUSH1 0x60 DUP2 ADD SWAP4 DUP5 MSTORE MLOAD DUP1 MLOAD SWAP1 DUP7 DUP3 GT PUSH2 0x909 JUMPI DUP2 SWAP1 DUP12 PUSH2 0x6A0 PUSH1 0xC SLOAD PUSH2 0x1379 JUMP JUMPDEST DUP11 PUSH1 0x1F DUP3 GT PUSH2 0x8CF JUMPI JUMPDEST POP POP POP DUP9 SWAP1 PUSH1 0x1F DUP4 GT PUSH1 0x1 EQ PUSH2 0x86A JUMPI DUP13 SWAP3 PUSH2 0x85F JUMPI JUMPDEST POP POP DUP2 PUSH1 0x1 SHL SWAP2 PUSH1 0x0 NOT SWAP1 PUSH1 0x3 SHL SHR NOT AND OR PUSH1 0xC SSTORE JUMPDEST MLOAD SWAP1 PUSH2 0x6E2 DUP3 PUSH2 0x1298 JUMP JUMPDEST PUSH2 0x6EB DUP3 PUSH2 0x1298 JUMP JUMPDEST PUSH1 0xFF PUSH2 0xFF00 PUSH1 0xD SLOAD SWAP3 MLOAD PUSH2 0x6FE DUP2 PUSH2 0x1298 JUMP JUMPDEST PUSH2 0x707 DUP2 PUSH2 0x1298 JUMP JUMPDEST PUSH1 0x8 SHL AND SWAP3 AND SWAP1 PUSH2 0xFFFF NOT AND OR OR PUSH1 0xD SSTORE MLOAD SWAP1 DUP2 MLOAD SWAP3 DUP4 GT PUSH2 0x84E JUMPI PUSH1 0x1 PUSH1 0x40 SHL DUP4 GT PUSH2 0x84E JUMPI POP DUP3 SWAP1 PUSH1 0xE SLOAD DUP4 PUSH1 0xE SSTORE DUP1 DUP5 LT PUSH2 0x801 JUMPI JUMPDEST POP ADD SWAP1 PUSH1 0xE DUP7 MSTORE DUP3 DUP7 KECCAK256 SWAP3 PUSH1 0x1 SWAP3 DUP3 DUP5 SHR SWAP6 DUP9 JUMPDEST DUP8 DUP2 LT PUSH2 0x7BD JUMPI POP POP PUSH1 0x1 NOT DUP4 AND SWAP1 SWAP3 SUB SWAP2 DUP3 PUSH2 0x76F JUMPI DUP8 DUP1 RETURN JUMPDEST SWAP3 SWAP2 SWAP1 DUP8 SWAP7 DUP9 SWAP1 JUMPDEST DUP4 DUP3 LT PUSH2 0x791 JUMPI POP POP POP POP POP POP ADD SSTORE CODESIZE DUP1 DUP1 DUP1 DUP1 DUP1 DUP1 DUP8 DUP1 RETURN JUMPDEST SWAP1 SWAP2 SWAP3 SWAP4 DUP4 PUSH2 0x7B0 DUP3 SWAP8 SWAP11 PUSH1 0x1 DUP1 PUSH1 0x80 SHL SUB DUP13 MLOAD AND SWAP1 DUP7 DUP7 SHL SWAP1 PUSH2 0x1CBB JUMP JUMPDEST SWAP10 ADD SWAP6 SWAP5 SWAP4 SWAP3 ADD SWAP1 PUSH2 0x777 JUMP JUMPDEST DUP6 SWAP1 DUP11 DUP12 JUMPDEST DUP7 DUP13 DUP7 DUP4 LT PUSH2 0x7D8 JUMPI POP POP POP DUP2 DUP10 ADD SSTORE ADD PUSH2 0x754 JUMP JUMPDEST DUP3 SWAP8 SWAP5 SWAP6 SWAP4 PUSH2 0x7F4 SWAP3 SWAP4 PUSH1 0x1 DUP1 PUSH1 0x80 SHL SUB DUP8 MLOAD AND SWAP3 SHL SWAP1 PUSH2 0x1CBB JUMP JUMPDEST SWAP3 ADD SWAP5 ADD SWAP1 DUP8 SWAP3 SWAP2 PUSH2 0x7C2 JUMP JUMPDEST PUSH2 0x82E SWAP1 PUSH1 0xE DUP10 MSTORE DUP4 DUP10 KECCAK256 PUSH1 0x1 DUP1 DUP8 ADD DUP2 SHR DUP3 ADD SWAP3 PUSH1 0x10 DUP9 DUP13 SHL AND DUP1 PUSH2 0x834 JUMPI JUMPDEST POP ADD PUSH1 0x1 SHR ADD SWAP1 PUSH2 0x1CA4 JUMP JUMPDEST CODESIZE PUSH2 0x740 JUMP JUMPDEST PUSH1 0x0 NOT SWAP1 DUP2 DUP7 ADD SWAP2 DUP3 SLOAD SWAP2 DUP11 SUB PUSH1 0x3 SHL SHR AND SWAP1 SSTORE CODESIZE PUSH2 0x822 JUMP JUMPDEST PUSH4 0x4E487B71 PUSH1 0xE0 SHL DUP8 MSTORE PUSH1 0x41 DUP7 MSTORE DUP7 REVERT JUMPDEST ADD MLOAD SWAP1 POP CODESIZE DUP1 PUSH2 0x6C1 JUMP JUMPDEST PUSH1 0xC DUP14 MSTORE DUP10 DUP14 KECCAK256 SWAP3 POP PUSH1 0x1F NOT DUP5 AND DUP14 JUMPDEST DUP12 DUP3 DUP3 LT PUSH2 0x8B9 JUMPI POP POP SWAP1 DUP5 PUSH1 0x1 SWAP6 SWAP5 SWAP4 SWAP3 LT PUSH2 0x8A0 JUMPI JUMPDEST POP POP POP DUP2 SHL ADD PUSH1 0xC SSTORE PUSH2 0x6D7 JUMP JUMPDEST ADD MLOAD PUSH1 0x0 NOT PUSH1 0xF8 DUP5 PUSH1 0x3 SHL AND SHR NOT AND SWAP1 SSTORE CODESIZE DUP1 DUP1 PUSH2 0x892 JUMP JUMPDEST PUSH1 0x1 DUP6 SWAP7 DUP3 SWAP4 SWAP7 DUP7 ADD MLOAD DUP2 SSTORE ADD SWAP6 ADD SWAP4 ADD PUSH2 0x87A JUMP JUMPDEST DUP3 PUSH1 0xC PUSH2 0x8F7 SWAP5 MSTORE KECCAK256 PUSH1 0x1F DUP6 ADD PUSH1 0x5 SHR DUP2 ADD SWAP2 DUP13 DUP7 LT PUSH2 0x8FF JUMPI JUMPDEST PUSH1 0x1F ADD PUSH1 0x5 SHR ADD SWAP1 PUSH2 0x1CA4 JUMP JUMPDEST DUP12 CODESIZE DUP11 PUSH2 0x6AA JUMP JUMPDEST SWAP1 SWAP2 POP DUP2 SWAP1 PUSH2 0x8EA JUMP JUMPDEST PUSH4 0x4E487B71 PUSH1 0xE0 SHL DUP12 MSTORE PUSH1 0x41 DUP11 MSTORE DUP6 DUP12 REVERT JUMPDEST DUP2 CALLDATALOAD PUSH1 0x1 PUSH1 0x1 PUSH1 0x80 SHL SUB DUP2 AND DUP2 SUB PUSH2 0x93A JUMPI DUP2 MSTORE SWAP1 DUP10 ADD SWAP1 DUP10 ADD PUSH2 0x676 JUMP JUMPDEST DUP14 DUP1 REVERT JUMPDEST DUP13 DUP1 REVERT JUMPDEST PUSH4 0x4E487B71 PUSH1 0xE0 SHL DUP13 MSTORE PUSH1 0x41 DUP12 MSTORE DUP7 DUP13 REVERT JUMPDEST DUP11 DUP1 REVERT JUMPDEST DUP12 DUP1 REVERT JUMPDEST DUP10 DUP1 REVERT JUMPDEST DUP8 DUP1 REVERT JUMPDEST PUSH4 0x4E487B71 PUSH1 0xE0 SHL DUP9 MSTORE PUSH1 0x41 DUP8 MSTORE PUSH1 0x24 DUP9 REVERT JUMPDEST DUP6 DUP1 REVERT JUMPDEST DUP7 DUP1 REVERT JUMPDEST POP POP CALLVALUE PUSH2 0x231 JUMPI DUP2 PUSH1 0x3 NOT CALLDATASIZE ADD SLT PUSH2 0x231 JUMPI PUSH1 0xD SLOAD SWAP1 MLOAD PUSH1 0x20 SWAP2 PUSH1 0x8 SHR PUSH1 0xFF AND PUSH2 0x9A8 DUP2 PUSH2 0x1298 JUMP JUMPDEST DUP2 MSTORE RETURN JUMPDEST SWAP2 SWAP1 POP CALLVALUE PUSH2 0x4E8 JUMPI DUP1 PUSH1 0x3 NOT CALLDATASIZE ADD SLT PUSH2 0x4E8 JUMPI PUSH2 0x9C7 PUSH2 0x1232 JUMP JUMPDEST SWAP1 PUSH1 0x24 CALLDATALOAD SWAP2 DUP3 ISZERO ISZERO DUP1 SWAP4 SUB PUSH2 0x583 JUMPI PUSH1 0x1 PUSH1 0x1 PUSH1 0xA0 SHL SUB AND SWAP3 CALLER DUP5 EQ PUSH2 0xA36 JUMPI POP CALLER DUP5 MSTORE PUSH1 0x5 PUSH1 0x20 MSTORE DUP1 DUP5 KECCAK256 DUP4 DUP6 MSTORE PUSH1 0x20 MSTORE DUP1 DUP5 KECCAK256 PUSH1 0xFF NOT DUP2 SLOAD AND PUSH1 0xFF DUP5 AND OR SWAP1 SSTORE MLOAD SWAP1 DUP2 MSTORE PUSH32 0x17307EAB39AB6107E8899845AD3D59BD9653F200F220920489CA2B5937696C31 PUSH1 0x20 CALLER SWAP3 LOG3 DUP1 RETURN JUMPDEST PUSH1 0x20 PUSH1 0x64 SWAP3 MLOAD SWAP2 PUSH3 0x461BCD PUSH1 0xE5 SHL DUP4 MSTORE DUP3 ADD MSTORE PUSH1 0x19 PUSH1 0x24 DUP3 ADD MSTORE PUSH25 0x22A9219B99189D1030B8383937BB32903A379031B0B63632B9 PUSH1 0x39 SHL PUSH1 0x44 DUP3 ADD MSTORE REVERT JUMPDEST POP POP CALLVALUE PUSH2 0x231 JUMPI DUP2 PUSH1 0x3 NOT CALLDATASIZE ADD SLT PUSH2 0x231 JUMPI MLOAD SWAP1 DUP2 MSTORE PUSH1 0x20 SWAP1 RETURN JUMPDEST POP POP CALLVALUE PUSH2 0x231 JUMPI DUP2 PUSH1 0x3 NOT CALLDATASIZE ADD SLT PUSH2 0x231 JUMPI DUP1 MLOAD SWAP1 DUP3 PUSH1 0x1 DUP1 SLOAD SWAP1 PUSH2 0xAB3 DUP3 PUSH2 0x1379 JUMP JUMPDEST DUP1 DUP7 MSTORE SWAP2 DUP2 DUP2 AND SWAP1 DUP2 ISZERO PUSH2 0x209 JUMPI POP PUSH1 0x1 EQ PUSH2 0xADB JUMPI POP POP POP PUSH2 0x19A DUP3 PUSH2 0x1AC SWAP5 SUB DUP4 PUSH2 0x1304 JUMP JUMPDEST DUP1 SWAP6 POP DUP3 MSTORE PUSH1 0x20 SWAP5 DUP6 DUP4 KECCAK256 JUMPDEST DUP3 DUP5 LT PUSH2 0xB03 JUMPI POP POP POP DUP3 PUSH2 0x1AC SWAP5 PUSH2 0x19A SWAP3 DUP3 ADD ADD SWAP5 PUSH2 0x188 JUMP JUMPDEST DUP1 SLOAD DUP7 DUP6 ADD DUP9 ADD MSTORE SWAP3 DUP7 ADD SWAP3 DUP2 ADD PUSH2 0xAE7 JUMP JUMPDEST SWAP1 POP CALLVALUE PUSH2 0x4E8 JUMPI DUP2 PUSH1 0x3 NOT CALLDATASIZE ADD SLT PUSH2 0x4E8 JUMPI DUP2 PUSH1 0x20 SWAP4 PUSH1 0xFF SWAP3 PUSH2 0xB37 PUSH2 0x124D JUMP JUMPDEST SWAP1 CALLDATALOAD DUP3 MSTORE PUSH1 0x7 DUP7 MSTORE DUP3 DUP3 KECCAK256 PUSH1 0x1 PUSH1 0x1 PUSH1 0xA0 SHL SUB SWAP1 SWAP2 AND DUP3 MSTORE DUP6 MSTORE KECCAK256 SLOAD SWAP2 MLOAD SWAP2 AND ISZERO ISZERO DUP2 MSTORE RETURN JUMPDEST POP POP CALLVALUE PUSH2 0x231 JUMPI DUP2 PUSH1 0x3 NOT CALLDATASIZE ADD SLT PUSH2 0x231 JUMPI PUSH1 0x20 SWAP1 PUSH1 0xB SLOAD SWAP1 MLOAD SWAP1 DUP2 MSTORE RETURN JUMPDEST DUP4 SWAP2 POP CALLVALUE PUSH2 0x231 JUMPI PUSH1 0x20 CALLDATASIZE PUSH1 0x3 NOT ADD SLT PUSH2 0x231 JUMPI PUSH1 0x1 PUSH1 0x1 PUSH1 0xA0 SHL SUB PUSH2 0xBA0 PUSH2 0x1232 JUMP JUMPDEST AND SWAP1 DUP2 ISZERO PUSH2 0xBBD JUMPI PUSH1 0x20 DUP5 DUP1 DUP6 DUP6 DUP2 MSTORE PUSH1 0x3 DUP5 MSTORE KECCAK256 SLOAD SWAP1 MLOAD SWAP1 DUP2 MSTORE RETURN JUMPDEST PUSH1 0x84 SWAP1 PUSH1 0x20 DUP6 MLOAD SWAP2 PUSH3 0x461BCD PUSH1 0xE5 SHL DUP4 MSTORE DUP3 ADD MSTORE PUSH1 0x29 PUSH1 0x24 DUP3 ADD MSTORE PUSH32 0x4552433732313A2061646472657373207A65726F206973206E6F742061207661 PUSH1 0x44 DUP3 ADD MSTORE PUSH9 0x3634B21037BBB732B9 PUSH1 0xB9 SHL PUSH1 0x64 DUP3 ADD MSTORE REVERT JUMPDEST DUP3 DUP5 CALLVALUE PUSH2 0x520 JUMPI PUSH1 0x20 CALLDATASIZE PUSH1 0x3 NOT ADD SLT PUSH2 0x520 JUMPI POP PUSH2 0xC32 PUSH1 0x20 SWAP3 CALLDATALOAD PUSH2 0x1819 JUMP JUMPDEST SWAP1 MLOAD PUSH1 0x1 PUSH1 0x1 PUSH1 0xA0 SHL SUB SWAP1 SWAP2 AND DUP2 MSTORE RETURN JUMPDEST SWAP1 POP CALLVALUE PUSH2 0x4E8 JUMPI PUSH1 0x20 CALLDATASIZE PUSH1 0x3 NOT ADD SLT PUSH2 0x4E8 JUMPI CALLDATALOAD PUSH1 0xE SLOAD DUP2 LT ISZERO PUSH2 0x4E8 JUMPI PUSH1 0xE SWAP1 SWAP3 MSTORE PUSH1 0x1 DUP3 SWAP1 SHR PUSH32 0xBB7B4A454DC3493923482F07822329ED19E8244EFF582CC204F8554C3620C3FD ADD SLOAD SWAP1 MLOAD PUSH1 0x7 SWAP3 SWAP1 SWAP3 SHL PUSH1 0x80 AND SHR PUSH1 0x1 PUSH1 0x1 PUSH1 0x80 SHL SUB AND DUP2 MSTORE PUSH1 0x20 SWAP1 RETURN JUMPDEST POP POP CALLVALUE PUSH2 0x231 JUMPI PUSH2 0x4E5 SWAP1 PUSH2 0xCBE CALLDATASIZE PUSH2 0x1263 JUMP JUMPDEST SWAP2 SWAP3 MLOAD SWAP3 PUSH2 0xCCB DUP5 PUSH2 0x12E9 JUMP JUMPDEST DUP6 DUP5 MSTORE PUSH2 0x18CD JUMP JUMPDEST DUP4 SWAP2 POP CALLVALUE PUSH2 0x231 JUMPI DUP3 PUSH1 0x3 NOT CALLDATASIZE ADD SLT PUSH2 0x231 JUMPI PUSH2 0xCEE PUSH2 0x124D JUMP JUMPDEST SWAP1 CALLER PUSH1 0x1 PUSH1 0x1 PUSH1 0xA0 SHL SUB DUP4 AND SUB PUSH2 0xD0A JUMPI SWAP1 PUSH2 0x4E5 SWAP2 CALLDATALOAD PUSH2 0x175C JUMP JUMPDEST PUSH1 0x84 SWAP1 PUSH1 0x20 DUP6 MLOAD SWAP2 PUSH3 0x461BCD PUSH1 0xE5 SHL DUP4 MSTORE DUP3 ADD MSTORE PUSH1 0x2F PUSH1 0x24 DUP3 ADD MSTORE PUSH32 0x416363657373436F6E74726F6C3A2063616E206F6E6C792072656E6F756E6365 PUSH1 0x44 DUP3 ADD MSTORE PUSH15 0x103937B632B9903337B91039B2B633 PUSH1 0x89 SHL PUSH1 0x64 DUP3 ADD MSTORE REVERT JUMPDEST SWAP1 POP CALLVALUE PUSH2 0x4E8 JUMPI DUP2 PUSH1 0x3 NOT CALLDATASIZE ADD SLT PUSH2 0x4E8 JUMPI CALLDATALOAD SWAP1 PUSH2 0xD81 PUSH2 0x124D JUMP JUMPDEST SWAP1 DUP3 DUP5 MSTORE PUSH1 0x7 PUSH1 0x20 MSTORE PUSH2 0xD99 PUSH1 0x1 DUP3 DUP7 KECCAK256 ADD SLOAD PUSH2 0x1470 JUMP JUMPDEST DUP3 DUP5 MSTORE PUSH1 0x7 PUSH1 0x20 SWAP1 DUP2 MSTORE DUP2 DUP6 KECCAK256 PUSH1 0x1 PUSH1 0x1 PUSH1 0xA0 SHL SUB SWAP1 SWAP4 AND DUP1 DUP7 MSTORE SWAP3 SWAP1 MSTORE DUP1 DUP5 KECCAK256 SLOAD PUSH1 0xFF AND ISZERO PUSH2 0xDC7 JUMPI DUP4 DUP1 RETURN JUMPDEST DUP3 DUP5 MSTORE PUSH1 0x7 PUSH1 0x20 MSTORE DUP1 DUP5 KECCAK256 DUP3 DUP6 MSTORE PUSH1 0x20 MSTORE DUP4 KECCAK256 PUSH1 0x1 PUSH1 0xFF NOT DUP3 SLOAD AND OR SWAP1 SSTORE CALLER SWAP2 PUSH32 0x2F8788117E7EFF1D82E926EC794901D17C78024A50270940304540A733656F0D DUP5 DUP1 LOG4 CODESIZE DUP1 DUP1 DUP4 DUP1 RETURN JUMPDEST POP POP CALLVALUE PUSH2 0x231 JUMPI DUP2 PUSH1 0x3 NOT CALLDATASIZE ADD SLT PUSH2 0x231 JUMPI PUSH1 0xD SLOAD SWAP1 MLOAD PUSH1 0x20 SWAP2 PUSH1 0xFF AND PUSH2 0x9A8 DUP2 PUSH2 0x1298 JUMP JUMPDEST SWAP1 POP CALLVALUE PUSH2 0x4E8 JUMPI PUSH1 0x20 CALLDATASIZE PUSH1 0x3 NOT ADD SLT PUSH2 0x4E8 JUMPI DUP2 PUSH1 0x20 SWAP4 PUSH1 0x1 SWAP3 CALLDATALOAD DUP2 MSTORE PUSH1 0x7 DUP6 MSTORE KECCAK256 ADD SLOAD SWAP1 MLOAD SWAP1 DUP2 MSTORE RETURN JUMPDEST DUP4 CALLVALUE PUSH2 0x520 JUMPI PUSH2 0x4E5 PUSH2 0xE75 CALLDATASIZE PUSH2 0x1263 JUMP JUMPDEST SWAP2 PUSH2 0xE88 PUSH2 0xE83 DUP5 CALLER PUSH2 0x1946 JUMP JUMPDEST PUSH2 0x186B JUMP JUMPDEST PUSH2 0x1A0E JUMP JUMPDEST SWAP2 SWAP1 POP CALLVALUE PUSH2 0x4E8 JUMPI DUP3 PUSH1 0x3 NOT CALLDATASIZE ADD SLT PUSH2 0x4E8 JUMPI PUSH1 0x8 SLOAD SWAP2 CALLER ISZERO PUSH2 0xF0E JUMPI POP PUSH2 0xEBD PUSH2 0xEB7 DUP4 PUSH2 0x1B0A JUMP JUMPDEST ISZERO PUSH2 0x1FAD JUMP JUMPDEST PUSH2 0xEC9 PUSH2 0xEB7 DUP4 PUSH2 0x1B0A JUMP JUMPDEST CALLER DUP1 DUP5 MSTORE PUSH1 0x3 PUSH1 0x20 SWAP1 DUP2 MSTORE DUP3 DUP6 KECCAK256 DUP1 SLOAD PUSH1 0x1 ADD SWAP1 SSTORE DUP4 DUP6 MSTORE PUSH1 0x2 SWAP1 MSTORE SWAP1 DUP4 KECCAK256 DUP1 SLOAD PUSH1 0x1 PUSH1 0x1 PUSH1 0xA0 SHL SUB NOT AND DUP3 OR SWAP1 SSTORE DUP3 PUSH1 0x0 DUP1 MLOAD PUSH1 0x20 PUSH2 0x2039 DUP4 CODECOPY DUP2 MLOAD SWAP2 MSTORE DUP2 DUP1 LOG4 DUP1 RETURN JUMPDEST PUSH1 0x20 PUSH1 0x64 SWAP3 MLOAD SWAP2 PUSH3 0x461BCD PUSH1 0xE5 SHL DUP4 MSTORE DUP3 ADD MSTORE PUSH1 0x20 PUSH1 0x24 DUP3 ADD MSTORE PUSH32 0x4552433732313A206D696E7420746F20746865207A65726F2061646472657373 PUSH1 0x44 DUP3 ADD MSTORE REVERT JUMPDEST SWAP1 POP CALLVALUE PUSH2 0x4E8 JUMPI DUP2 PUSH1 0x3 NOT CALLDATASIZE ADD SLT PUSH2 0x4E8 JUMPI PUSH2 0xF6A PUSH2 0x1232 JUMP JUMPDEST PUSH1 0x24 CALLDATALOAD SWAP3 SWAP1 SWAP2 PUSH1 0x1 PUSH1 0x1 PUSH1 0xA0 SHL SUB SWAP2 SWAP1 DUP3 DUP1 PUSH2 0xF85 DUP8 PUSH2 0x1819 JUMP JUMPDEST AND SWAP5 AND SWAP4 DUP1 DUP6 EQ PUSH2 0x1071 JUMPI DUP1 CALLER EQ SWAP1 DUP2 ISZERO PUSH2 0x1052 JUMPI JUMPDEST POP ISZERO PUSH2 0xFEA JUMPI DUP5 DUP7 MSTORE PUSH1 0x20 MSTORE DUP5 KECCAK256 DUP1 SLOAD PUSH1 0x1 PUSH1 0x1 PUSH1 0xA0 SHL SUB NOT AND DUP4 OR SWAP1 SSTORE PUSH2 0xFC2 DUP4 PUSH2 0x1819 JUMP JUMPDEST AND PUSH32 0x8C5BE1E5EBEC7D5BD14F71427D1E84F3DD0314C0F7B2291E5B200AC8C7C3B925 DUP5 DUP1 LOG4 DUP1 RETURN JUMPDEST PUSH1 0x20 PUSH1 0x84 SWAP3 MLOAD SWAP2 PUSH3 0x461BCD PUSH1 0xE5 SHL DUP4 MSTORE DUP3 ADD MSTORE PUSH1 0x3D PUSH1 0x24 DUP3 ADD MSTORE PUSH32 0x4552433732313A20617070726F76652063616C6C6572206973206E6F7420746F PUSH1 0x44 DUP3 ADD MSTORE PUSH32 0x6B656E206F776E6572206F7220617070726F76656420666F7220616C6C000000 PUSH1 0x64 DUP3 ADD MSTORE REVERT JUMPDEST SWAP1 POP DUP7 MSTORE PUSH1 0x5 PUSH1 0x20 MSTORE DUP2 DUP7 KECCAK256 CALLER DUP8 MSTORE PUSH1 0x20 MSTORE PUSH1 0xFF DUP3 DUP8 KECCAK256 SLOAD AND CODESIZE PUSH2 0xF9B JUMP JUMPDEST POP PUSH1 0x20 PUSH1 0x84 SWAP3 MLOAD SWAP2 PUSH3 0x461BCD PUSH1 0xE5 SHL DUP4 MSTORE DUP3 ADD MSTORE PUSH1 0x21 PUSH1 0x24 DUP3 ADD MSTORE PUSH32 0x4552433732313A20617070726F76616C20746F2063757272656E74206F776E65 PUSH1 0x44 DUP3 ADD MSTORE PUSH1 0x39 PUSH1 0xF9 SHL PUSH1 0x64 DUP3 ADD MSTORE REVERT JUMPDEST DUP3 DUP5 CALLVALUE PUSH2 0x520 JUMPI PUSH1 0x20 CALLDATASIZE PUSH1 0x3 NOT ADD SLT PUSH2 0x520 JUMPI POP PUSH2 0xC32 PUSH1 0x20 SWAP3 CALLDATALOAD PUSH2 0x183F JUMP JUMPDEST POP POP CALLVALUE PUSH2 0x231 JUMPI DUP2 PUSH1 0x3 NOT CALLDATASIZE ADD SLT PUSH2 0x231 JUMPI DUP1 MLOAD SWAP1 DUP3 DUP1 SLOAD PUSH2 0x10FF DUP2 PUSH2 0x1379 JUMP JUMPDEST DUP1 DUP6 MSTORE SWAP1 PUSH1 0x1 SWAP1 DUP2 DUP2 AND SWAP1 DUP2 ISZERO PUSH2 0x209 JUMPI POP PUSH1 0x1 EQ PUSH2 0x112A JUMPI POP POP POP PUSH2 0x19A DUP3 PUSH2 0x1AC SWAP5 SUB DUP4 PUSH2 0x1304 JUMP JUMPDEST SWAP5 POP DUP2 DUP1 MSTORE PUSH1 0x20 SWAP5 DUP6 DUP4 KECCAK256 JUMPDEST DUP3 DUP5 LT PUSH2 0x1152 JUMPI POP POP POP DUP3 PUSH2 0x1AC SWAP5 PUSH2 0x19A SWAP3 DUP3 ADD ADD SWAP5 PUSH2 0x188 JUMP JUMPDEST DUP1 SLOAD DUP7 DUP6 ADD DUP9 ADD MSTORE SWAP3 DUP7 ADD SWAP3 DUP2 ADD PUSH2 0x1136 JUMP JUMPDEST DUP5 SWAP2 CALLVALUE PUSH2 0x4E8 JUMPI PUSH1 0x20 CALLDATASIZE PUSH1 0x3 NOT ADD SLT PUSH2 0x4E8 JUMPI CALLDATALOAD PUSH4 0xFFFFFFFF PUSH1 0xE0 SHL DUP2 AND DUP1 SWAP2 SUB PUSH2 0x4E8 JUMPI PUSH1 0x20 SWAP3 POP PUSH4 0x7965DB0B PUSH1 0xE0 SHL DUP2 EQ SWAP1 DUP2 ISZERO PUSH2 0x11A7 JUMPI JUMPDEST POP ISZERO ISZERO DUP2 MSTORE RETURN JUMPDEST PUSH4 0x80AC58CD PUSH1 0xE0 SHL DUP2 EQ SWAP2 POP DUP2 ISZERO PUSH2 0x11D9 JUMPI JUMPDEST DUP2 ISZERO PUSH2 0x11C8 JUMPI JUMPDEST POP DUP4 PUSH2 0x11A0 JUMP JUMPDEST PUSH4 0x1FFC9A7 PUSH1 0xE0 SHL EQ SWAP1 POP DUP4 PUSH2 0x11C1 JUMP JUMPDEST PUSH4 0x5B5E139F PUSH1 0xE0 SHL DUP2 EQ SWAP2 POP PUSH2 0x11BA JUMP JUMPDEST PUSH1 0x0 JUMPDEST DUP4 DUP2 LT PUSH2 0x11FD JUMPI POP POP PUSH1 0x0 SWAP2 ADD MSTORE JUMP JUMPDEST DUP2 DUP2 ADD MLOAD DUP4 DUP3 ADD MSTORE PUSH1 0x20 ADD PUSH2 0x11ED JUMP JUMPDEST SWAP1 PUSH1 0x20 SWAP2 PUSH2 0x1226 DUP2 MLOAD DUP1 SWAP3 DUP2 DUP6 MSTORE DUP6 DUP1 DUP7 ADD SWAP2 ADD PUSH2 0x11EA JUMP JUMPDEST PUSH1 0x1F ADD PUSH1 0x1F NOT AND ADD ADD SWAP1 JUMP JUMPDEST PUSH1 0x4 CALLDATALOAD SWAP1 PUSH1 0x1 PUSH1 0x1 PUSH1 0xA0 SHL SUB DUP3 AND DUP3 SUB PUSH2 0x1248 JUMPI JUMP JUMPDEST PUSH1 0x0 DUP1 REVERT JUMPDEST PUSH1 0x24 CALLDATALOAD SWAP1 PUSH1 0x1 PUSH1 0x1 PUSH1 0xA0 SHL SUB DUP3 AND DUP3 SUB PUSH2 0x1248 JUMPI JUMP JUMPDEST PUSH1 0x60 SWAP1 PUSH1 0x3 NOT ADD SLT PUSH2 0x1248 JUMPI PUSH1 0x1 PUSH1 0x1 PUSH1 0xA0 SHL SUB SWAP1 PUSH1 0x4 CALLDATALOAD DUP3 DUP2 AND DUP2 SUB PUSH2 0x1248 JUMPI SWAP2 PUSH1 0x24 CALLDATALOAD SWAP1 DUP2 AND DUP2 SUB PUSH2 0x1248 JUMPI SWAP1 PUSH1 0x44 CALLDATALOAD SWAP1 JUMP JUMPDEST PUSH1 0x2 GT ISZERO PUSH2 0x12A2 JUMPI JUMP JUMPDEST PUSH4 0x4E487B71 PUSH1 0xE0 SHL PUSH1 0x0 MSTORE PUSH1 0x21 PUSH1 0x4 MSTORE PUSH1 0x24 PUSH1 0x0 REVERT JUMPDEST PUSH1 0x80 DUP2 ADD SWAP1 DUP2 LT PUSH1 0x1 PUSH1 0x1 PUSH1 0x40 SHL SUB DUP3 GT OR PUSH2 0x12D3 JUMPI PUSH1 0x40 MSTORE JUMP JUMPDEST PUSH4 0x4E487B71 PUSH1 0xE0 SHL PUSH1 0x0 MSTORE PUSH1 0x41 PUSH1 0x4 MSTORE PUSH1 0x24 PUSH1 0x0 REVERT JUMPDEST PUSH1 0x20 DUP2 ADD SWAP1 DUP2 LT PUSH1 0x1 PUSH1 0x1 PUSH1 0x40 SHL SUB DUP3 GT OR PUSH2 0x12D3 JUMPI PUSH1 0x40 MSTORE JUMP JUMPDEST PUSH1 0x1F SWAP1 SWAP2 ADD PUSH1 0x1F NOT AND DUP2 ADD SWAP1 PUSH1 0x1 PUSH1 0x1 PUSH1 0x40 SHL SUB DUP3 GT SWAP1 DUP3 LT OR PUSH2 0x12D3 JUMPI PUSH1 0x40 MSTORE JUMP JUMPDEST PUSH1 0x1 PUSH1 0x1 PUSH1 0x40 SHL SUB DUP2 GT PUSH2 0x12D3 JUMPI PUSH1 0x1F ADD PUSH1 0x1F NOT AND PUSH1 0x20 ADD SWAP1 JUMP JUMPDEST SWAP3 SWAP2 SWAP3 PUSH2 0x134E DUP3 PUSH2 0x1327 JUMP JUMPDEST SWAP2 PUSH2 0x135C PUSH1 0x40 MLOAD SWAP4 DUP5 PUSH2 0x1304 JUMP JUMPDEST DUP3 SWAP5 DUP2 DUP5 MSTORE DUP2 DUP4 ADD GT PUSH2 0x1248 JUMPI DUP3 DUP2 PUSH1 0x20 SWAP4 DUP5 PUSH1 0x0 SWAP7 ADD CALLDATACOPY ADD ADD MSTORE JUMP JUMPDEST SWAP1 PUSH1 0x1 DUP3 DUP2 SHR SWAP3 AND DUP1 ISZERO PUSH2 0x13A9 JUMPI JUMPDEST PUSH1 0x20 DUP4 LT EQ PUSH2 0x1393 JUMPI JUMP JUMPDEST PUSH4 0x4E487B71 PUSH1 0xE0 SHL PUSH1 0x0 MSTORE PUSH1 0x22 PUSH1 0x4 MSTORE PUSH1 0x24 PUSH1 0x0 REVERT JUMPDEST SWAP2 PUSH1 0x7F AND SWAP2 PUSH2 0x1388 JUMP JUMPDEST PUSH1 0x40 MLOAD SWAP1 PUSH1 0x0 DUP3 PUSH1 0x9 SLOAD SWAP2 PUSH2 0x13C7 DUP4 PUSH2 0x1379 JUMP JUMPDEST DUP1 DUP4 MSTORE PUSH1 0x1 SWAP4 DUP1 DUP6 AND SWAP1 DUP2 ISZERO PUSH2 0x144F JUMPI POP PUSH1 0x1 EQ PUSH2 0x13EF JUMPI JUMPDEST POP PUSH2 0x13ED SWAP3 POP SUB DUP4 PUSH2 0x1304 JUMP JUMPDEST JUMP JUMPDEST PUSH1 0x9 PUSH1 0x0 SWAP1 DUP2 MSTORE PUSH32 0x6E1540171B6C0C960B71A7020D9F60077F6AF931A8BBF590DA0223DACF75C7AF SWAP5 PUSH1 0x20 SWAP4 POP SWAP1 SWAP2 SWAP1 JUMPDEST DUP2 DUP4 LT PUSH2 0x1437 JUMPI POP POP PUSH2 0x13ED SWAP4 POP DUP3 ADD ADD CODESIZE PUSH2 0x13E0 JUMP JUMPDEST DUP6 SLOAD DUP9 DUP5 ADD DUP6 ADD MSTORE SWAP5 DUP6 ADD SWAP5 DUP8 SWAP5 POP SWAP2 DUP4 ADD SWAP2 PUSH2 0x1420 JUMP JUMPDEST SWAP1 POP PUSH2 0x13ED SWAP5 POP PUSH1 0x20 SWAP3 POP PUSH1 0xFF NOT AND DUP3 DUP5 ADD MSTORE ISZERO ISZERO PUSH1 0x5 SHL DUP3 ADD ADD CODESIZE PUSH2 0x13E0 JUMP JUMPDEST PUSH1 0x0 SWAP1 DUP1 DUP3 MSTORE PUSH1 0x20 SWAP1 PUSH1 0x7 DUP3 MSTORE PUSH1 0x40 SWAP3 DUP4 DUP2 KECCAK256 CALLER DUP3 MSTORE DUP4 MSTORE PUSH1 0xFF DUP5 DUP3 KECCAK256 SLOAD AND ISZERO PUSH2 0x149A JUMPI POP POP POP POP JUMP JUMPDEST DUP4 MLOAD SWAP2 CALLER SWAP1 PUSH1 0x60 DUP5 ADD PUSH1 0x1 PUSH1 0x1 PUSH1 0x40 SHL SUB DUP2 GT DUP6 DUP3 LT OR PUSH2 0x1748 JUMPI DUP7 MSTORE PUSH1 0x2A DUP5 MSTORE DUP5 DUP5 ADD SWAP1 DUP7 CALLDATASIZE DUP4 CALLDATACOPY DUP5 MLOAD ISZERO PUSH2 0x1734 JUMPI PUSH1 0x30 DUP3 MSTORE8 DUP5 MLOAD SWAP3 PUSH1 0x1 SWAP4 DUP5 LT ISZERO PUSH2 0x1720 JUMPI PUSH1 0x78 PUSH1 0x21 DUP8 ADD MSTORE8 PUSH1 0x29 JUMPDEST DUP5 DUP2 GT PUSH2 0x16B6 JUMPI POP PUSH2 0x1686 JUMPI DUP7 MLOAD SWAP3 PUSH2 0x14FD DUP5 PUSH2 0x12B8 JUMP JUMPDEST PUSH1 0x42 DUP5 MSTORE DUP7 DUP5 ADD SWAP5 PUSH1 0x60 CALLDATASIZE DUP8 CALLDATACOPY DUP5 MLOAD ISZERO PUSH2 0x1672 JUMPI PUSH1 0x30 DUP7 MSTORE8 DUP5 MLOAD DUP3 LT ISZERO PUSH2 0x1672 JUMPI SWAP1 PUSH1 0x78 PUSH1 0x21 DUP7 ADD MSTORE8 PUSH1 0x41 SWAP2 JUMPDEST DUP2 DUP4 GT PUSH2 0x1604 JUMPI POP POP POP PUSH2 0x15D4 JUMPI PUSH2 0x15D0 SWAP4 DUP7 SWAP4 PUSH2 0x15B4 SWAP4 PUSH2 0x15A5 PUSH1 0x48 SWAP5 PUSH2 0x157C SWAP11 MLOAD SWAP11 DUP12 SWAP6 PUSH23 0x20B1B1B2B9B9A1B7B73A3937B61D1030B1B1B7BAB73A1 PUSH1 0x4D SHL DUP13 DUP9 ADD MSTORE MLOAD DUP1 SWAP3 PUSH1 0x37 DUP9 ADD SWAP1 PUSH2 0x11EA JUMP JUMPDEST DUP5 ADD SWAP2 PUSH17 0x1034B99036B4B9B9B4B733903937B6329 PUSH1 0x7D SHL PUSH1 0x37 DUP5 ADD MSTORE MLOAD DUP1 SWAP4 DUP7 DUP5 ADD SWAP1 PUSH2 0x11EA JUMP JUMPDEST ADD SUB PUSH1 0x28 DUP2 ADD DUP8 MSTORE ADD DUP6 PUSH2 0x1304 JUMP JUMPDEST MLOAD SWAP3 DUP4 SWAP3 PUSH3 0x461BCD PUSH1 0xE5 SHL DUP5 MSTORE PUSH1 0x4 DUP5 ADD MSTORE PUSH1 0x24 DUP4 ADD SWAP1 PUSH2 0x120D JUMP JUMPDEST SUB SWAP1 REVERT JUMPDEST PUSH1 0x64 DUP6 DUP8 MLOAD SWAP1 PUSH3 0x461BCD PUSH1 0xE5 SHL DUP3 MSTORE DUP1 PUSH1 0x4 DUP4 ADD MSTORE PUSH1 0x24 DUP3 ADD MSTORE PUSH1 0x0 DUP1 MLOAD PUSH1 0x20 PUSH2 0x1FF9 DUP4 CODECOPY DUP2 MLOAD SWAP2 MSTORE PUSH1 0x44 DUP3 ADD MSTORE REVERT JUMPDEST SWAP1 SWAP2 SWAP3 PUSH1 0xF DUP2 AND PUSH1 0x10 DUP2 LT ISZERO PUSH2 0x165E JUMPI PUSH16 0x181899199A1A9B1B9C1CB0B131B232B3 PUSH1 0x81 SHL SWAP1 BYTE PUSH2 0x1634 DUP6 DUP9 PUSH2 0x1C7D JUMP JUMPDEST MSTORE8 PUSH1 0x4 SHR SWAP3 DUP1 ISZERO PUSH2 0x164A JUMPI PUSH1 0x0 NOT ADD SWAP2 SWAP1 PUSH2 0x152A JUMP JUMPDEST PUSH4 0x4E487B71 PUSH1 0xE0 SHL DUP3 MSTORE PUSH1 0x11 PUSH1 0x4 MSTORE PUSH1 0x24 DUP3 REVERT JUMPDEST PUSH4 0x4E487B71 PUSH1 0xE0 SHL DUP4 MSTORE PUSH1 0x32 PUSH1 0x4 MSTORE PUSH1 0x24 DUP4 REVERT JUMPDEST PUSH4 0x4E487B71 PUSH1 0xE0 SHL DUP2 MSTORE PUSH1 0x32 PUSH1 0x4 MSTORE PUSH1 0x24 SWAP1 REVERT JUMPDEST PUSH1 0x64 DUP7 DUP9 MLOAD SWAP1 PUSH3 0x461BCD PUSH1 0xE5 SHL DUP3 MSTORE DUP1 PUSH1 0x4 DUP4 ADD MSTORE PUSH1 0x24 DUP3 ADD MSTORE PUSH1 0x0 DUP1 MLOAD PUSH1 0x20 PUSH2 0x1FF9 DUP4 CODECOPY DUP2 MLOAD SWAP2 MSTORE PUSH1 0x44 DUP3 ADD MSTORE REVERT JUMPDEST SWAP1 PUSH1 0xF DUP2 AND PUSH1 0x10 DUP2 LT ISZERO PUSH2 0x170C JUMPI PUSH16 0x181899199A1A9B1B9C1CB0B131B232B3 PUSH1 0x81 SHL SWAP1 BYTE PUSH2 0x16E4 DUP4 DUP10 PUSH2 0x1C7D JUMP JUMPDEST MSTORE8 PUSH1 0x4 SHR SWAP1 DUP1 ISZERO PUSH2 0x16F8 JUMPI PUSH1 0x0 NOT ADD PUSH2 0x14E5 JUMP JUMPDEST PUSH4 0x4E487B71 PUSH1 0xE0 SHL DUP7 MSTORE PUSH1 0x11 PUSH1 0x4 MSTORE PUSH1 0x24 DUP7 REVERT JUMPDEST PUSH4 0x4E487B71 PUSH1 0xE0 SHL DUP8 MSTORE PUSH1 0x32 PUSH1 0x4 MSTORE PUSH1 0x24 DUP8 REVERT JUMPDEST PUSH4 0x4E487B71 PUSH1 0xE0 SHL DUP6 MSTORE PUSH1 0x32 PUSH1 0x4 MSTORE PUSH1 0x24 DUP6 REVERT JUMPDEST PUSH4 0x4E487B71 PUSH1 0xE0 SHL DUP5 MSTORE PUSH1 0x32 PUSH1 0x4 MSTORE PUSH1 0x24 DUP5 REVERT JUMPDEST PUSH4 0x4E487B71 PUSH1 0xE0 SHL DUP5 MSTORE PUSH1 0x41 PUSH1 0x4 MSTORE PUSH1 0x24 DUP5 REVERT JUMPDEST SWAP1 PUSH1 0x0 SWAP2 DUP1 DUP4 MSTORE PUSH1 0x7 PUSH1 0x20 MSTORE PUSH1 0x40 DUP4 KECCAK256 SWAP2 PUSH1 0x1 DUP1 PUSH1 0xA0 SHL SUB AND SWAP2 DUP3 DUP5 MSTORE PUSH1 0x20 MSTORE PUSH1 0xFF PUSH1 0x40 DUP5 KECCAK256 SLOAD AND PUSH2 0x178D JUMPI POP POP POP JUMP JUMPDEST DUP1 DUP4 MSTORE PUSH1 0x7 PUSH1 0x20 MSTORE PUSH1 0x40 DUP4 KECCAK256 DUP3 DUP5 MSTORE PUSH1 0x20 MSTORE PUSH1 0x40 DUP4 KECCAK256 PUSH1 0xFF NOT DUP2 SLOAD AND SWAP1 SSTORE PUSH32 0xF6391F5C32D9C69D2A47EA670B442974B53935D1EDC7FD64EB21E047A839171B CALLER SWAP4 DUP1 LOG4 JUMP JUMPDEST ISZERO PUSH2 0x17D9 JUMPI JUMP JUMPDEST PUSH1 0x40 MLOAD PUSH3 0x461BCD PUSH1 0xE5 SHL DUP2 MSTORE PUSH1 0x20 PUSH1 0x4 DUP3 ADD MSTORE PUSH1 0x18 PUSH1 0x24 DUP3 ADD MSTORE PUSH24 0x115490CDCC8C4E881A5B9D985B1A59081D1BDAD95B881251 PUSH1 0x42 SHL PUSH1 0x44 DUP3 ADD MSTORE PUSH1 0x64 SWAP1 REVERT JUMPDEST PUSH1 0x0 SWAP1 DUP2 MSTORE PUSH1 0x2 PUSH1 0x20 MSTORE PUSH1 0x40 SWAP1 KECCAK256 SLOAD PUSH1 0x1 PUSH1 0x1 PUSH1 0xA0 SHL SUB AND PUSH2 0x183C DUP2 ISZERO ISZERO PUSH2 0x17D2 JUMP JUMPDEST SWAP1 JUMP JUMPDEST PUSH2 0x1850 PUSH2 0x184B DUP3 PUSH2 0x1B0A JUMP JUMPDEST PUSH2 0x17D2 JUMP JUMPDEST PUSH1 0x0 SWAP1 DUP2 MSTORE PUSH1 0x4 PUSH1 0x20 MSTORE PUSH1 0x40 SWAP1 KECCAK256 SLOAD PUSH1 0x1 PUSH1 0x1 PUSH1 0xA0 SHL SUB AND SWAP1 JUMP JUMPDEST ISZERO PUSH2 0x1872 JUMPI JUMP JUMPDEST PUSH1 0x40 MLOAD PUSH3 0x461BCD PUSH1 0xE5 SHL DUP2 MSTORE PUSH1 0x20 PUSH1 0x4 DUP3 ADD MSTORE PUSH1 0x2D PUSH1 0x24 DUP3 ADD MSTORE PUSH32 0x4552433732313A2063616C6C6572206973206E6F7420746F6B656E206F776E65 PUSH1 0x44 DUP3 ADD MSTORE PUSH13 0x1C881BDC88185C1C1C9BDD9959 PUSH1 0x9A SHL PUSH1 0x64 DUP3 ADD MSTORE PUSH1 0x84 SWAP1 REVERT JUMPDEST SWAP1 PUSH2 0x18F1 SWAP4 SWAP3 SWAP2 PUSH2 0x18E1 PUSH2 0xE83 DUP5 CALLER PUSH2 0x1946 JUMP JUMPDEST PUSH2 0x18EC DUP4 DUP4 DUP4 PUSH2 0x1A0E JUMP JUMPDEST PUSH2 0x1B27 JUMP JUMPDEST ISZERO PUSH2 0x18F8 JUMPI JUMP JUMPDEST PUSH1 0x40 MLOAD PUSH3 0x461BCD PUSH1 0xE5 SHL DUP2 MSTORE PUSH1 0x20 PUSH1 0x4 DUP3 ADD MSTORE PUSH1 0x32 PUSH1 0x24 DUP3 ADD MSTORE PUSH1 0x0 DUP1 MLOAD PUSH1 0x20 PUSH2 0x2019 DUP4 CODECOPY DUP2 MLOAD SWAP2 MSTORE PUSH1 0x44 DUP3 ADD MSTORE PUSH18 0x31B2B4BB32B91034B6B83632B6B2B73A32B9 PUSH1 0x71 SHL PUSH1 0x64 DUP3 ADD MSTORE PUSH1 0x84 SWAP1 REVERT JUMPDEST SWAP1 PUSH1 0x1 PUSH1 0x1 PUSH1 0xA0 SHL SUB DUP1 DUP1 PUSH2 0x195A DUP5 PUSH2 0x1819 JUMP JUMPDEST AND SWAP4 AND SWAP2 DUP4 DUP4 EQ SWAP4 DUP5 ISZERO PUSH2 0x198D JUMPI JUMPDEST POP DUP4 ISZERO PUSH2 0x1977 JUMPI JUMPDEST POP POP POP SWAP1 JUMP JUMPDEST PUSH2 0x1983 SWAP2 SWAP3 SWAP4 POP PUSH2 0x183F JUMP JUMPDEST AND EQ CODESIZE DUP1 DUP1 PUSH2 0x1971 JUMP JUMPDEST SWAP1 SWAP4 POP PUSH1 0x0 MSTORE PUSH1 0x5 PUSH1 0x20 MSTORE PUSH1 0x40 PUSH1 0x0 KECCAK256 DUP3 PUSH1 0x0 MSTORE PUSH1 0x20 MSTORE PUSH1 0xFF PUSH1 0x40 PUSH1 0x0 KECCAK256 SLOAD AND SWAP3 CODESIZE PUSH2 0x1969 JUMP JUMPDEST ISZERO PUSH2 0x19BB JUMPI JUMP JUMPDEST PUSH1 0x40 MLOAD PUSH3 0x461BCD PUSH1 0xE5 SHL DUP2 MSTORE PUSH1 0x20 PUSH1 0x4 DUP3 ADD MSTORE PUSH1 0x25 PUSH1 0x24 DUP3 ADD MSTORE PUSH32 0x4552433732313A207472616E736665722066726F6D20696E636F727265637420 PUSH1 0x44 DUP3 ADD MSTORE PUSH5 0x37BBB732B9 PUSH1 0xD9 SHL PUSH1 0x64 DUP3 ADD MSTORE PUSH1 0x84 SWAP1 REVERT JUMPDEST SWAP1 PUSH2 0x1A36 SWAP2 PUSH2 0x1A1C DUP5 PUSH2 0x1819 JUMP JUMPDEST PUSH1 0x1 PUSH1 0x1 PUSH1 0xA0 SHL SUB SWAP4 SWAP2 DUP5 AND SWAP3 DUP5 SWAP3 SWAP1 SWAP2 DUP4 AND DUP5 EQ PUSH2 0x19B4 JUMP JUMPDEST AND SWAP2 DUP3 ISZERO PUSH2 0x1AB9 JUMPI DUP2 PUSH2 0x1A53 SWAP2 PUSH2 0x1A4C DUP7 PUSH2 0x1819 JUMP JUMPDEST AND EQ PUSH2 0x19B4 JUMP JUMPDEST PUSH1 0x0 DUP1 MLOAD PUSH1 0x20 PUSH2 0x2039 DUP4 CODECOPY DUP2 MLOAD SWAP2 MSTORE PUSH1 0x0 DUP5 DUP2 MSTORE PUSH1 0x4 PUSH1 0x20 MSTORE PUSH1 0x40 DUP2 KECCAK256 PUSH1 0x1 DUP1 PUSH1 0xA0 SHL SUB NOT SWAP1 DUP2 DUP2 SLOAD AND SWAP1 SSTORE DUP4 DUP3 MSTORE PUSH1 0x3 PUSH1 0x20 MSTORE PUSH1 0x40 DUP3 KECCAK256 PUSH1 0x0 NOT DUP2 SLOAD ADD SWAP1 SSTORE DUP5 DUP3 MSTORE PUSH1 0x40 DUP3 KECCAK256 PUSH1 0x1 DUP2 SLOAD ADD SWAP1 SSTORE DUP6 DUP3 MSTORE PUSH1 0x2 PUSH1 0x20 MSTORE DUP5 PUSH1 0x40 DUP4 KECCAK256 SWAP2 DUP3 SLOAD AND OR SWAP1 SSTORE DUP1 LOG4 JUMP JUMPDEST PUSH1 0x40 MLOAD PUSH3 0x461BCD PUSH1 0xE5 SHL DUP2 MSTORE PUSH1 0x20 PUSH1 0x4 DUP3 ADD MSTORE PUSH1 0x24 DUP1 DUP3 ADD MSTORE PUSH32 0x4552433732313A207472616E7366657220746F20746865207A65726F20616464 PUSH1 0x44 DUP3 ADD MSTORE PUSH4 0x72657373 PUSH1 0xE0 SHL PUSH1 0x64 DUP3 ADD MSTORE PUSH1 0x84 SWAP1 REVERT JUMPDEST PUSH1 0x0 SWAP1 DUP2 MSTORE PUSH1 0x2 PUSH1 0x20 MSTORE PUSH1 0x40 SWAP1 KECCAK256 SLOAD PUSH1 0x1 PUSH1 0x1 PUSH1 0xA0 SHL SUB AND ISZERO ISZERO SWAP1 JUMP JUMPDEST SWAP3 SWAP4 PUSH1 0x0 SWAP4 SWAP1 SWAP3 SWAP2 DUP1 EXTCODESIZE ISZERO PUSH2 0x1C72 JUMPI SWAP5 DUP5 SWAP2 PUSH2 0x1B81 SWAP7 PUSH1 0x40 MLOAD DUP1 SWAP5 DUP2 SWAP4 PUSH4 0xA85BD01 PUSH1 0xE1 SHL SWAP8 DUP9 DUP5 MSTORE CALLER PUSH1 0x4 DUP6 ADD MSTORE PUSH1 0x1 DUP1 PUSH1 0xA0 SHL SUB DUP1 SWAP3 AND PUSH1 0x24 DUP6 ADD MSTORE PUSH1 0x44 DUP5 ADD MSTORE PUSH1 0x80 PUSH1 0x64 DUP5 ADD MSTORE DUP3 PUSH1 0x20 SWAP12 DUP13 SWAP8 PUSH1 0x84 DUP4 ADD SWAP1 PUSH2 0x120D JUMP JUMPDEST SUB SWAP4 AND GAS CALL DUP5 SWAP2 DUP2 PUSH2 0x1C32 JUMPI JUMPDEST POP PUSH2 0x1C21 JUMPI POP POP POP RETURNDATASIZE PUSH1 0x0 EQ PUSH2 0x1C19 JUMPI RETURNDATASIZE PUSH2 0x1BA8 DUP2 PUSH2 0x1327 JUMP JUMPDEST SWAP1 PUSH2 0x1BB6 PUSH1 0x40 MLOAD SWAP3 DUP4 PUSH2 0x1304 JUMP JUMPDEST DUP2 MSTORE DUP1 SWAP2 DUP4 RETURNDATASIZE SWAP3 ADD RETURNDATACOPY JUMPDEST DUP1 MLOAD SWAP2 DUP3 PUSH2 0x1C16 JUMPI PUSH1 0x40 MLOAD PUSH3 0x461BCD PUSH1 0xE5 SHL DUP2 MSTORE PUSH1 0x20 PUSH1 0x4 DUP3 ADD MSTORE PUSH1 0x32 PUSH1 0x24 DUP3 ADD MSTORE PUSH1 0x0 DUP1 MLOAD PUSH1 0x20 PUSH2 0x2019 DUP4 CODECOPY DUP2 MLOAD SWAP2 MSTORE PUSH1 0x44 DUP3 ADD MSTORE PUSH18 0x31B2B4BB32B91034B6B83632B6B2B73A32B9 PUSH1 0x71 SHL PUSH1 0x64 DUP3 ADD MSTORE PUSH1 0x84 SWAP1 REVERT JUMPDEST ADD REVERT JUMPDEST POP PUSH1 0x60 PUSH2 0x1BC0 JUMP JUMPDEST PUSH1 0x1 PUSH1 0x1 PUSH1 0xE0 SHL SUB NOT AND EQ SWAP3 POP SWAP1 POP JUMP JUMPDEST SWAP1 SWAP2 POP DUP6 DUP2 DUP2 RETURNDATASIZE DUP4 GT PUSH2 0x1C6B JUMPI JUMPDEST PUSH2 0x1C4A DUP2 DUP4 PUSH2 0x1304 JUMP JUMPDEST DUP2 ADD SUB SLT PUSH2 0x583 JUMPI MLOAD PUSH1 0x1 PUSH1 0x1 PUSH1 0xE0 SHL SUB NOT DUP2 AND DUP2 SUB PUSH2 0x583 JUMPI SWAP1 CODESIZE PUSH2 0x1B8E JUMP JUMPDEST POP RETURNDATASIZE PUSH2 0x1C40 JUMP JUMPDEST POP POP POP SWAP2 POP POP PUSH1 0x1 SWAP1 JUMP JUMPDEST SWAP1 DUP2 MLOAD DUP2 LT ISZERO PUSH2 0x1C8E JUMPI ADD PUSH1 0x20 ADD SWAP1 JUMP JUMPDEST PUSH4 0x4E487B71 PUSH1 0xE0 SHL PUSH1 0x0 MSTORE PUSH1 0x32 PUSH1 0x4 MSTORE PUSH1 0x24 PUSH1 0x0 REVERT JUMPDEST DUP2 DUP2 LT PUSH2 0x1CAF JUMPI POP POP JUMP JUMPDEST PUSH1 0x0 DUP2 SSTORE PUSH1 0x1 ADD PUSH2 0x1CA4 JUMP JUMPDEST SWAP1 PUSH1 0x3 SHL PUSH1 0x1 DUP1 PUSH1 0x80 SHL SUB DUP2 SHL SWAP3 DUP4 SWAP2 SHL AND SWAP2 NOT AND OR SWAP1 JUMP JUMPDEST PUSH2 0x1CE0 PUSH2 0x184B DUP3 PUSH2 0x1B0A JUMP JUMPDEST PUSH1 0x0 DUP2 DUP2 MSTORE PUSH1 0x20 SWAP1 PUSH1 0x6 DUP3 MSTORE PUSH1 0x40 SWAP1 DUP2 DUP2 KECCAK256 SWAP2 DUP1 MLOAD DUP3 SWAP4 DUP1 SLOAD SWAP5 DUP3 PUSH2 0x1D04 DUP8 PUSH2 0x1379 JUMP JUMPDEST SWAP2 DUP3 DUP3 MSTORE DUP9 DUP3 ADD SWAP4 PUSH1 0x1 SWAP9 DUP11 DUP11 DUP3 AND SWAP2 DUP3 PUSH1 0x0 EQ PUSH2 0x1F8F JUMPI POP POP PUSH1 0x1 EQ PUSH2 0x1F51 JUMPI JUMPDEST POP PUSH2 0x1D33 SWAP3 POP SUB DUP4 PUSH2 0x1304 JUMP JUMPDEST PUSH2 0x1D3B PUSH2 0x13B3 JUMP JUMPDEST SWAP1 DUP2 MLOAD SWAP3 DUP4 ISZERO PUSH2 0x1F45 JUMPI DUP1 MLOAD PUSH2 0x1F21 JUMPI POP POP POP POP PUSH2 0x1D5B PUSH2 0x184B DUP7 PUSH2 0x1B0A JUMP JUMPDEST PUSH2 0x1D63 PUSH2 0x13B3 JUMP JUMPDEST DUP1 MLOAD SWAP1 SWAP4 SWAP1 ISZERO PUSH2 0x1F0B JUMPI SWAP2 SWAP5 DUP6 SWAP3 DUP2 SWAP1 PUSH19 0x184F03E93FF9F4DAA797ED6E38ED64BF6A1F01 PUSH1 0x40 SHL DUP3 DUP2 DUP2 LT ISZERO PUSH2 0x1EFC JUMPI JUMPDEST POP PUSH10 0x4EE2D6D415B85ACEF81 PUSH1 0x20 SHL SWAP1 POP DUP1 DUP5 LT ISZERO PUSH2 0x1EEE JUMPI JUMPDEST POP PUSH7 0x2386F26FC10000 DUP1 DUP5 LT ISZERO PUSH2 0x1EDF JUMPI JUMPDEST POP PUSH4 0x5F5E100 DUP1 DUP5 LT ISZERO PUSH2 0x1ED0 JUMPI JUMPDEST POP PUSH2 0x2710 DUP1 DUP5 LT ISZERO PUSH2 0x1EC1 JUMPI JUMPDEST POP PUSH1 0x64 DUP4 LT ISZERO PUSH2 0x1EB1 JUMPI JUMPDEST PUSH1 0xA DUP1 SWAP4 LT ISZERO PUSH2 0x1EA8 JUMPI JUMPDEST SWAP1 DUP2 PUSH1 0x21 DUP2 DUP11 ADD SWAP10 PUSH2 0x1E1B PUSH2 0x1E06 DUP13 PUSH2 0x1327 JUMP JUMPDEST SWAP12 PUSH2 0x1E13 DUP10 MLOAD SWAP14 DUP15 PUSH2 0x1304 JUMP JUMPDEST DUP1 DUP14 MSTORE PUSH2 0x1327 JUMP JUMPDEST DUP12 DUP12 ADD SWAP9 SWAP1 PUSH1 0x1F NOT ADD CALLDATASIZE DUP11 CALLDATACOPY POP DUP11 ADD ADD SWAP1 JUMPDEST PUSH2 0x1E72 JUMPI JUMPDEST POP POP POP POP SWAP1 PUSH2 0x1E66 SWAP5 PUSH2 0x183C SWAP5 SWAP4 SWAP3 MLOAD SWAP6 DUP4 PUSH2 0x1E57 DUP9 SWAP6 MLOAD DUP1 SWAP3 DUP9 DUP1 DUP10 ADD SWAP2 ADD PUSH2 0x11EA JUMP JUMPDEST DUP5 ADD SWAP2 MLOAD DUP1 SWAP4 DUP7 DUP5 ADD SWAP1 PUSH2 0x11EA JUMP JUMPDEST ADD SUB DUP1 DUP5 MSTORE ADD DUP3 PUSH2 0x1304 JUMP JUMPDEST PUSH1 0x0 NOT ADD SWAP1 DUP4 SWAP1 PUSH16 0x181899199A1A9B1B9C1CB0B131B232B3 PUSH1 0x81 SHL DUP3 DUP3 MOD BYTE DUP4 MSTORE8 DIV SWAP2 DUP3 ISZERO PUSH2 0x1EA3 JUMPI SWAP2 SWAP1 DUP3 PUSH2 0x1E2D JUMP JUMPDEST PUSH2 0x1E32 JUMP JUMPDEST DUP1 SWAP8 ADD SWAP7 PUSH2 0x1DF2 JUMP JUMPDEST SWAP7 SWAP2 PUSH1 0x64 PUSH1 0x2 SWAP2 DIV SWAP3 ADD SWAP7 PUSH2 0x1DE7 JUMP JUMPDEST PUSH1 0x4 SWAP2 SWAP9 SWAP4 DIV SWAP3 ADD SWAP7 CODESIZE PUSH2 0x1DDC JUMP JUMPDEST PUSH1 0x8 SWAP2 SWAP9 SWAP4 DIV SWAP3 ADD SWAP7 CODESIZE PUSH2 0x1DCF JUMP JUMPDEST PUSH1 0x10 SWAP2 SWAP9 SWAP4 DIV SWAP3 ADD SWAP7 CODESIZE PUSH2 0x1DC0 JUMP JUMPDEST DUP8 SWAP2 SWAP9 SWAP4 DIV SWAP3 ADD SWAP7 CODESIZE PUSH2 0x1DAE JUMP JUMPDEST SWAP5 SWAP9 POP DUP9 SWAP5 DIV SWAP3 POP CODESIZE DUP1 PUSH2 0x1D94 JUMP JUMPDEST POP SWAP3 POP SWAP3 POP POP MLOAD SWAP1 PUSH2 0x1F1C DUP3 PUSH2 0x12E9 JUMP JUMPDEST DUP2 MSTORE SWAP1 JUMP JUMPDEST SWAP3 SWAP8 POP SWAP3 PUSH2 0x183C SWAP7 SWAP6 POP PUSH2 0x1E66 SWAP2 SWAP5 POP PUSH2 0x1E57 DUP9 SWAP2 MLOAD SWAP9 DUP10 SWAP7 DUP9 DUP1 DUP10 ADD SWAP2 ADD PUSH2 0x11EA JUMP JUMPDEST SWAP8 POP POP POP POP POP POP POP POP SWAP1 JUMP JUMPDEST SWAP2 POP POP DUP6 MSTORE DUP3 DUP8 DUP1 DUP8 KECCAK256 DUP9 DUP9 SWAP2 JUMPDEST DUP6 DUP4 LT PUSH2 0x1F76 JUMPI POP POP PUSH2 0x1D33 SWAP4 POP DUP3 ADD ADD CODESIZE PUSH2 0x1D26 JUMP JUMPDEST DUP1 SWAP2 SWAP3 SWAP5 POP SLOAD DUP4 DUP6 DUP10 ADD ADD MSTORE ADD SWAP2 ADD DUP9 SWAP1 DUP9 DUP7 SWAP4 PUSH2 0x1F5F JUMP JUMPDEST PUSH1 0xFF NOT AND DUP8 MSTORE PUSH2 0x1D33 SWAP6 ISZERO ISZERO PUSH1 0x5 SHL DUP6 ADD ADD SWAP3 POP CODESIZE SWAP2 POP PUSH2 0x1D26 SWAP1 POP JUMP JUMPDEST ISZERO PUSH2 0x1FB4 JUMPI JUMP JUMPDEST PUSH1 0x40 MLOAD PUSH3 0x461BCD PUSH1 0xE5 SHL DUP2 MSTORE PUSH1 0x20 PUSH1 0x4 DUP3 ADD MSTORE PUSH1 0x1C PUSH1 0x24 DUP3 ADD MSTORE PUSH28 0x115490CDCC8C4E881D1BDAD95B88185B1C9958591E481B5A5B9D1959 PUSH1 0x22 SHL PUSH1 0x44 DUP3 ADD MSTORE PUSH1 0x64 SWAP1 REVERT INVALID MSTORE8 PUSH21 0x72696E67733A20686578206C656E67746820696E73 PUSH22 0x6666696369656E744552433732313A207472616E7366 PUSH6 0x7220746F206E PUSH16 0x6E204552433732315265DDF252AD1BE2 0xC8 SWAP12 PUSH10 0xC2B068FC378DAA952BA7 CALL PUSH4 0xC4A11628 CREATE2 GAS 0x4D CREATE2 0x23 0xB3 0xEF LOG1 PUSH5 0x736F6C6343 STOP ADDMOD GT STOP EXP "},"methodIdentifiers":{"DEFAULT_ADMIN_ROLE()":"a217fddf","approve(address,uint256)":"095ea7b3","apps(uint256)":"61acc37e","balanceOf(address)":"70a08231","communityId()":"7f50861a","getApproved(uint256)":"081812fc","getCommunityData()":"daee9ac9","getRoleAdmin(bytes32)":"248a9ca3","grantRole(bytes32,address)":"2f2ff15d","handle()":"fd0da099","hasRole(bytes32,address)":"91d14854","isApprovedForAll(address,address)":"e985e9c5","membership()":"a2bf68b9","mint()":"1249c58b","name()":"06fdde03","ownerOf(uint256)":"6352211e","renounceRole(bytes32,address)":"36568abe","revokeRole(bytes32,address)":"d547741f","safeTransferFrom(address,address,uint256)":"42842e0e","safeTransferFrom(address,address,uint256,bytes)":"b88d4fde","setApprovalForAll(address,bool)":"a22cb465","setCommunityData((string,uint8,uint8,uint128[]))":"adaf1cab","supportsInterface(bytes4)":"01ffc9a7","symbol()":"95d89b41","tokenURI(uint256)":"c87b56dd","transferFrom(address,address,uint256)":"23b872dd","visibility()":"29adec14"}}}}}