{"contracts/EmbraceCommunities.sol":{"EmbraceCommunities":{"abi":[{"inputs":[{"internalType":"string","name":"_name","type":"string"},{"internalType":"string","name":"_symbol","type":"string"},{"internalType":"address","name":"_accountsContractAddress","type":"address"},{"internalType":"address","name":"_tablelandRegistryAddress","type":"address"}],"stateMutability":"nonpayable","type":"constructor"},{"anonymous":false,"inputs":[{"indexed":true,"internalType":"address","name":"owner","type":"address"},{"indexed":true,"internalType":"address","name":"approved","type":"address"},{"indexed":true,"internalType":"uint256","name":"tokenId","type":"uint256"}],"name":"Approval","type":"event"},{"anonymous":false,"inputs":[{"indexed":true,"internalType":"address","name":"owner","type":"address"},{"indexed":true,"internalType":"address","name":"operator","type":"address"},{"indexed":false,"internalType":"bool","name":"approved","type":"bool"}],"name":"ApprovalForAll","type":"event"},{"anonymous":false,"inputs":[{"indexed":true,"internalType":"address","name":"previousOwner","type":"address"},{"indexed":true,"internalType":"address","name":"newOwner","type":"address"}],"name":"OwnershipTransferred","type":"event"},{"anonymous":false,"inputs":[{"indexed":true,"internalType":"address","name":"from","type":"address"},{"indexed":true,"internalType":"address","name":"to","type":"address"},{"indexed":true,"internalType":"uint256","name":"tokenId","type":"uint256"}],"name":"Transfer","type":"event"},{"inputs":[{"internalType":"address","name":"to","type":"address"},{"internalType":"uint256","name":"tokenId","type":"uint256"}],"name":"approve","outputs":[],"stateMutability":"nonpayable","type":"function"},{"inputs":[{"internalType":"address","name":"owner","type":"address"}],"name":"balanceOf","outputs":[{"internalType":"uint256","name":"","type":"uint256"}],"stateMutability":"view","type":"function"},{"inputs":[{"internalType":"uint256","name":"","type":"uint256"}],"name":"communities","outputs":[{"internalType":"uint256","name":"id","type":"uint256"},{"internalType":"address","name":"contractAddress","type":"address"},{"internalType":"string","name":"handle","type":"string"}],"stateMutability":"view","type":"function"},{"inputs":[],"name":"communitiesTableId","outputs":[{"internalType":"uint256","name":"","type":"uint256"}],"stateMutability":"view","type":"function"},{"inputs":[],"name":"communitiesTableName","outputs":[{"internalType":"string","name":"","type":"string"}],"stateMutability":"view","type":"function"},{"inputs":[],"name":"communitiesTablePrefix","outputs":[{"internalType":"string","name":"","type":"string"}],"stateMutability":"view","type":"function"},{"inputs":[],"name":"createCommunitiesTable","outputs":[],"stateMutability":"payable","type":"function"},{"inputs":[{"internalType":"string","name":"_handle","type":"string"},{"components":[{"internalType":"string","name":"handle","type":"string"},{"internalType":"enum Visibility","name":"visibility","type":"uint8"},{"internalType":"enum Membership","name":"membership","type":"uint8"},{"internalType":"uint128[]","name":"apps","type":"uint128[]"}],"internalType":"struct CommunityContractData","name":"_communityData","type":"tuple"},{"components":[{"internalType":"string","name":"handle","type":"string"},{"internalType":"string","name":"name","type":"string"},{"internalType":"string","name":"description","type":"string"},{"internalType":"string","name":"image","type":"string"}],"internalType":"struct EmbraceCommunities.CommunityMetaData","name":"_communityMetaData","type":"tuple"}],"name":"createCommunity","outputs":[{"internalType":"uint256","name":"","type":"uint256"}],"stateMutability":"nonpayable","type":"function"},{"inputs":[{"internalType":"uint256","name":"tokenId","type":"uint256"}],"name":"getApproved","outputs":[{"internalType":"address","name":"","type":"address"}],"stateMutability":"view","type":"function"},{"inputs":[{"internalType":"string","name":"_handle","type":"string"}],"name":"handleToCommunityContract","outputs":[{"internalType":"address","name":"communityContractAddress","type":"address"}],"stateMutability":"view","type":"function"},{"inputs":[{"internalType":"bytes32","name":"","type":"bytes32"}],"name":"handleToId","outputs":[{"internalType":"uint256","name":"","type":"uint256"}],"stateMutability":"view","type":"function"},{"inputs":[{"internalType":"address","name":"owner","type":"address"},{"internalType":"address","name":"operator","type":"address"}],"name":"isApprovedForAll","outputs":[{"internalType":"bool","name":"","type":"bool"}],"stateMutability":"view","type":"function"},{"inputs":[],"name":"name","outputs":[{"internalType":"string","name":"","type":"string"}],"stateMutability":"view","type":"function"},{"inputs":[{"internalType":"address","name":"","type":"address"},{"internalType":"address","name":"","type":"address"},{"internalType":"uint256","name":"","type":"uint256"},{"internalType":"bytes","name":"","type":"bytes"}],"name":"onERC721Received","outputs":[{"internalType":"bytes4","name":"","type":"bytes4"}],"stateMutability":"nonpayable","type":"function"},{"inputs":[],"name":"owner","outputs":[{"internalType":"address","name":"","type":"address"}],"stateMutability":"view","type":"function"},{"inputs":[{"internalType":"uint256","name":"tokenId","type":"uint256"}],"name":"ownerOf","outputs":[{"internalType":"address","name":"","type":"address"}],"stateMutability":"view","type":"function"},{"inputs":[],"name":"renounceOwnership","outputs":[],"stateMutability":"nonpayable","type":"function"},{"inputs":[{"internalType":"address","name":"from","type":"address"},{"internalType":"address","name":"to","type":"address"},{"internalType":"uint256","name":"tokenId","type":"uint256"}],"name":"safeTransferFrom","outputs":[],"stateMutability":"nonpayable","type":"function"},{"inputs":[{"internalType":"address","name":"from","type":"address"},{"internalType":"address","name":"to","type":"address"},{"internalType":"uint256","name":"tokenId","type":"uint256"},{"internalType":"bytes","name":"data","type":"bytes"}],"name":"safeTransferFrom","outputs":[],"stateMutability":"nonpayable","type":"function"},{"inputs":[{"internalType":"address","name":"operator","type":"address"},{"internalType":"bool","name":"approved","type":"bool"}],"name":"setApprovalForAll","outputs":[],"stateMutability":"nonpayable","type":"function"},{"inputs":[{"internalType":"bytes4","name":"interfaceId","type":"bytes4"}],"name":"supportsInterface","outputs":[{"internalType":"bool","name":"","type":"bool"}],"stateMutability":"view","type":"function"},{"inputs":[],"name":"symbol","outputs":[{"internalType":"string","name":"","type":"string"}],"stateMutability":"view","type":"function"},{"inputs":[{"internalType":"uint256","name":"tokenId","type":"uint256"}],"name":"tokenURI","outputs":[{"internalType":"string","name":"","type":"string"}],"stateMutability":"view","type":"function"},{"inputs":[{"internalType":"address","name":"from","type":"address"},{"internalType":"address","name":"to","type":"address"},{"internalType":"uint256","name":"tokenId","type":"uint256"}],"name":"transferFrom","outputs":[],"stateMutability":"nonpayable","type":"function"},{"inputs":[{"internalType":"address","name":"newOwner","type":"address"}],"name":"transferOwnership","outputs":[],"stateMutability":"nonpayable","type":"function"}],"evm":{"bytecode":{"linkReferences":{},"object":"60808060405234620000a8576001600160401b0390620069693881900391908290601f8201601f1916830185811184821017620000ad575b6040528239808281019212620000a8578051838111620000a857826200005f9183016200015a565b9160a051938411620000a85762000098936200007c92016200015a565b62000086620001a7565b9062000091620001be565b92620005c1565b6040516157b39081620011768239f35b600080fd5b620000b7620000bd565b62000037565b50634e487b7160e01b600052604160045260246000fd5b601f909101601f19168101906001600160401b03821190821017620000f857604052565b62000102620000bd565b604052565b6020906001600160401b03811162000125575b601f01601f19160190565b6200012f620000bd565b6200011a565b60005b838110620001495750506000910152565b818101518382015260200162000138565b81601f82011215620000a8578051620001738162000107565b92620001836040519485620000d4565b81845260208284010111620000a857620001a4916020808501910162000135565b90565b60c051906001600160a01b0382168203620000a857565b60e051906001600160a01b0382168203620000a857565b90600182811c9216801562000207575b6020831014620001f157565b634e487b7160e01b600052602260045260246000fd5b91607f1691620001e5565b8181106200021e575050565b6000815560010162000212565b90601f821162000239575050565b6200026991600080526020600020906020601f840160051c830193106200026b575b601f0160051c019062000212565b565b90915081906200025b565b90601f821162000284575050565b6200026991600a6000526020600020906020601f840160051c830193106200026b57601f0160051c019062000212565b90601f8211620002c2575050565b620002699160016000526020600020906020601f840160051c830193106200026b57601f0160051c019062000212565b90601f821162000300575050565b6200026991600d6000526020600020906020601f840160051c830193106200026b57601f0160051c019062000212565b6200033d600f54620001d5565b601f81116200036e575b507f656d62726163655f636f6d6d756e697469657300000000000000000000000026600f55565b600f6000526200039890601f0160051c600080516020620069498339815191529081019062000212565b3862000347565b604051908160207f53454c4543542b636f6d6d756e69747949642532432b6d657461646174612b468183015263524f4d2b60e01b6040830152600090600d5490620003ea82620001d5565b916001908181169081156200048e575060011462000441575b50507f2b57484552452b636f6d6d756e69747949642b2533442b000000000000000000825250620002699160179103600819810185520183620000d4565b9091939250600d60005281600020906000915b8583106200047657505050508060446200026993601793010191819362000403565b80548884016044015287945091830191810162000454565b90506017945060449250620002699593915060ff1916828401528015150282010191819362000403565b9062000269606460405180947f68747470733a2f2f746573746e6574732e7461626c656c616e642e6e6574776f60208301527f726b2f71756572793f756e777261703d7472756526657874726163743d7472756040830152636526733d60e01b606083015262000532815180926020868601910162000135565b8101036044810185520183620000d4565b9062000269605760405180947f687474703a2f2f6c6f63616c686f73743a383038302f71756572793f756e777260208301527f61703d7472756526657874726163743d7472756526733d0000000000000000006040830152620005b0815180926020868601910162000135565b8101036037810185520183620000d4565b805191949392916001600160401b0381116200077f575b600091620005f282620005ec8554620001d5565b6200022b565b60209081601f8411600114620006ea575091808492620006ba989994620006349692620006de575b50508160011b916000199060031b1c19161790556200078f565b6200063f3362000984565b6200064962000330565b600980546001600160a01b0319166001600160a01b039384161790556200066f6200039f565b4661047103620006c957620006886200068e9162000543565b62000ffe565b6200069862000bd8565b60108054919092166001600160a01b03166001600160a01b0319909116179055565b62000269600160085401600855565b62000688620006d891620004b8565b6200068e565b0151905038806200061a565b600080529190601f1984167f290decd9548b62a8d60345a988386fc84ba6bc95484008f6362f93160ef3e5639386905b82821062000766575050926001928592620006ba9a9b96620006349896106200074c575b505050811b0190556200078f565b015160001960f88460031b161c191690553880806200073e565b806001869782949787015181550196019401906200071a565b62000789620000bd565b620005d8565b80519091906001600160401b03811162000881575b600190620007be81620007b88454620001d5565b620002b4565b602080601f8311600114620007fc575081929394600092620007f0575b5050600019600383901b1c191690821b179055565b015190503880620007db565b6001600052601f198316959091907fb10e2d527612073b26eecdfd717e6a320cf44b4afac2b0732d9fcbe2b7fa0cf6926000905b8882106200086957505083859697106200084f575b505050811b019055565b015160001960f88460031b161c1916905538808062000845565b80878596829496860151815501950193019062000830565b6200088b620000bd565b620007a4565b80519091906001600160401b03811162000974575b620008be81620008b8600d54620001d5565b620002f2565b602080601f8311600114620008fd5750819293600092620008f1575b50508160011b916000199060031b1c191617600d55565b015190503880620008da565b600d600052601f1983169490919060008051602062006929833981519152926000905b8782106200095b57505083600195961062000941575b505050811b01600d55565b015160001960f88460031b161c1916905538808062000936565b8060018596829496860151815501950193019062000920565b6200097e620000bd565b620008a6565b600780546001600160a01b039283166001600160a01b0319821681179092559091167f8be0079c531659141344cd1fd0a4f28419497f9722a3daafe3b4186f6b6457e0600080a3565b60405190600082600f5491620009e383620001d5565b80835260019380851690811562000a60575060011462000a0d575b506200026992500383620000d4565b600f60009081526000805160206200694983398151915294602093509091905b81831062000a4757505062000269935082010138620009fe565b8554888401850152948501948794509183019162000a2d565b90506200026994506020925060ff191682840152151560051b82010138620009fe565b60405190600082600d549162000a9983620001d5565b80835260019380851690811562000a60575060011462000ac257506200026992500383620000d4565b600d60009081526000805160206200692983398151915294602093509091905b81831062000afc57505062000269935082010138620009fe565b8554888401850152948501948794509183019162000ae2565b90816020910312620000a8575190565b9060209162000b408151809281855285808601910162000135565b601f01601f1916010190565b6001600160a01b039091168152604060208201819052620001a49291019062000b25565b506040513d6000823e3d90fd5b60408051919082016001600160401b0381118382101762000bc8575b604052602082527f4372656174656420636f6d6d756e6974696573207461626c653a2025732025736020830152565b62000bd2620000bd565b62000b99565b62000caa6000602062000c8e60018060a01b036009541662000c706040516060810181811060018060401b0382111762000d33575b604052603f81527f636f6d6d756e697479496420696e7465676572207072696d617279206b65792c858201527f206d6574616461746120746578742c20696e646578656420696e746567657200604082015262000c69620009cd565b9062000f5b565b6040519485809481936303a9151b60e41b8352306004840162000b4c565b03925af190811562000d23575b60009162000cee575b50600e55565b62000ccb62000cc5600e5462000cbf620009cd565b62000d43565b62000891565b62000269600e5462000cdc62000b7d565b9062000ce762000a83565b9162001102565b62000d14915060203d811162000d1b575b62000d0b8183620000d4565b81019062000b15565b3862000ca4565b503d62000cff565b62000d2d62000b70565b62000c9b565b62000d3d620000bd565b62000c0d565b6022620001a49162000d6062000d594662000e04565b9462000e04565b604051948262000d7b87945180926020808801910162000135565b830190605f60f81b9182602082015262000da082518093602060218501910162000135565b0190602182015262000dbc825180936020878501910162000135565b01036002810184520182620000d4565b9062000dd88262000107565b62000de76040519182620000d4565b828152809262000dfa601f199162000107565b0190602036910137565b806000917a184f03e93ff9f4daa797ed6e38ed64bf6a1f0100000000000000008082101562000f4c575b506d04ee2d6d415b85acef81000000008083101562000f3c575b50662386f26fc100008083101562000f2c575b506305f5e1008083101562000f1c575b506127108083101562000f0c575b50606482101562000efb575b600a8092101562000ef0575b60019081602162000ea482870162000dcc565b95860101905b62000eb7575b5050505090565b600019019083906f181899199a1a9b1b9c1cb0b131b232b360811b8282061a83530491821562000eea5791908262000eaa565b62000eb0565b916001019162000e91565b919060646002910491019162000e85565b6004919392049101913862000e79565b6008919392049101913862000e6b565b6010919392049101913862000e5b565b6020919392049101913862000e48565b60409350810491503862000e2e565b906030620001a49162000f6e4662000e04565b936040519485926c021a922a0aa22902a20a126229609d1b602085015262000fa1815180926020602d8801910162000135565b8301605f60f81b602d82015262000fc3825180936020602e8501910162000135565b01600560fb1b602e82015262000fe4825180936020602f8501910162000135565b01602960f81b602f820152036010810184520182620000d4565b80519091906001600160401b038111620010f2575b6200102b8162001025600a54620001d5565b62000276565b602080601f83116001146200106a57508192936000926200105e575b50508160011b916000199060031b1c191617600a55565b01519050388062001047565b600a600052601f198316949091907fc65a7bb8d6351c1cf70c95a316cc6a92839c986682d98bc35f958f4883f9d2a8926000905b878210620010d9575050836001959610620010bf575b505050811b01600a55565b015160001960f88460031b161c19169055388080620010b4565b806001859682949686015181550195019301906200109e565b620010fc620000bd565b62001013565b60009291620011628493620011536040519384926200113b6020850197635970e08960e01b895260606024870152608486019062000b25565b91604485015260231984830301606485015262000b25565b03601f198101835282620000d4565b51906a636f6e736f6c652e6c6f675afa5056fe6080604052600436101562000014575b600080fd5b60003560e01c806301ffc9a7146200025157806306fdde031462000246578063081812fc146200023b578063095ea7b314620002305780630ce84ebe1462000225578063150b7a02146200021a57806323b872dd146200020f57806342842e0e14620002045780635c7bc4c214620001f95780636352211e14620001ee57806370a0823114620001e3578063715018a614620001d85780638da5cb5b14620001cd5780638e07fa9014620001c257806393fcf4a614620001b757806395d89b4114620001ac578063a22cb46514620001a1578063b17588e41462000196578063b4d4b6a0146200018b578063b88d4fde1462000180578063bd978da11462000175578063c87b56dd146200016a578063e590b56a146200015f578063e985e9c514620001545763f2fde38b146200014a57600080fd5b6200000f62001563565b506200000f62001504565b506200000f62001437565b506200000f620013c7565b506200000f62001325565b506200000f62001305565b506200000f620011f0565b506200000f620011c1565b506200000f620010e1565b506200000f6200104d565b506200000f62000fab565b506200000f62000b39565b506200000f62000a67565b506200000f62000a15565b506200000f6200096d565b506200000f6200094a565b506200000f62000929565b506200000f620008f9565b506200000f620008c6565b506200000f62000867565b506200000f620006e3565b506200000f62000480565b506200000f62000434565b506200000f62000354565b506200000f6200026f565b6001600160e01b03198116036200000f57565b50346200000f5760203660031901126200000f57602060043562000293816200025c565b63ffffffff60e01b166380ac58cd60e01b8114908115620002d4575b8115620002c2575b506040519015158152f35b6301ffc9a760e01b14905038620002b7565b635b5e139f60e01b81149150620002af565b60009103126200000f57565b60005b838110620003065750506000910152565b8181015183820152602001620002f5565b906020916200033281518092818552858086019101620002f2565b601f01601f1916010190565b9060206200035192818152019062000317565b90565b50346200000f5760008060031936011262000425576040518180546200037a8162000cd3565b80845290600190818116908115620003fa5750600114620003ba575b620003b684620003a98188038262000617565b604051918291826200033e565b0390f35b93508180526020938483205b828410620003e65750505081620003b693620003a9928201019362000396565b8054858501870152928501928101620003c6565b620003b69650620003a99450602092508593915060ff191682840152151560051b8201019362000396565b80fd5b6001600160a01b031690565b50346200000f5760203660031901126200000f57602062000457600435620017a6565b6040516001600160a01b039091168152f35b600435906001600160a01b03821682036200000f57565b50346200000f5760403660031901126200000f576200049e62000469565b602435620004ac816200170e565b916001600160a01b0380841690821681146200051e57620004e493620004de913314908115620004e6575b5062001733565b62001aaf565b005b6001600160a01b0316600090815260056020526040902062000517915062000510903390620016af565b5460ff1690565b38620004d7565b60405162461bcd60e51b815260206004820152602160248201527f4552433732313a20617070726f76616c20746f2063757272656e74206f776e656044820152603960f91b6064820152608490fd5b50634e487b7160e01b600052604160045260246000fd5b606081019081106001600160401b03821117620005a057604052565b620005aa6200056d565b604052565b608081019081106001600160401b03821117620005a057604052565b6001600160401b038111620005a057604052565b602081019081106001600160401b03821117620005a057604052565b604081019081106001600160401b03821117620005a057604052565b601f909101601f19168101906001600160401b03821190821017620005a057604052565b604051906200064a82620005af565b565b604051906200064a8262000584565b6020906001600160401b03811162000679575b601f01601f19160190565b620006836200056d565b6200066e565b92919262000697826200065b565b91620006a7604051938462000617565b8294818452818301116200000f578281602093846000960137010152565b9080601f830112156200000f57816020620003519335910162000689565b50346200000f5760203660031901126200000f576004356001600160401b0381116200000f5762000719903690600401620006c5565b60208151910120600052600b602052620007456040600020546000198101908111620007ed5762001401565b50604051620007548162000584565b8154815260018201546001600160a01b031660208201908152916200077c9060020162000efb565b60408201525115620007b25762000798620003b6915162000428565b6040516001600160a01b0390911681529081906020820190565b60405162461bcd60e51b815260206004820152601360248201527210dbdb5b5d5b9a5d1e481b9bdd08199bdd5b99606a1b6044820152606490fd5b620007f762002a3e565b62001401565b9060806003198301126200000f576001600160a01b039160043583811681036200000f579260243590811681036200000f579160443591606435906001600160401b0382116200000f57806023830112156200000f57816024620003519360040135910162000689565b50346200000f576200087936620007fd565b505050506020604051630a85bd0160e11b8152f35b60609060031901126200000f576001600160a01b039060043582811681036200000f579160243590811681036200000f579060443590565b50346200000f57620004e4620008dc366200088e565b91620008f3620008ed8433620018bb565b620017d6565b6200198e565b50346200000f57620004e46200090f366200088e565b90604051926200091f84620005df565b6000845262001839565b50346200000f5760003660031901126200000f576020600e54604051908152f35b50346200000f5760203660031901126200000f576020620004576004356200170e565b50346200000f5760203660031901126200000f576001600160a01b036200099362000469565b168015620009be576000526003602052620003b6604060002054604051918291829190602083019252565b60405162461bcd60e51b815260206004820152602960248201527f4552433732313a2061646472657373207a65726f206973206e6f7420612076616044820152683634b21037bbb732b960b91b6064820152608490fd5b50346200000f57600080600319360112620004255762000a346200161d565b600780546001600160a01b0319811690915581906001600160a01b0316600080516020620057478339815191528280a380f35b50346200000f5760003660031901126200000f576007546040516001600160a01b039091168152602090f35b600211156200000f57565b9190916080818403126200000f5762000ab66200063b565b926001600160401b0382358181116200000f578262000ad7918501620006c5565b855260208301358181116200000f578262000af4918501620006c5565b602086015260408301358181116200000f578262000b14918501620006c5565b604086015260608301359081116200000f5762000b329201620006c5565b6060830152565b50346200000f576003196060368201126200000f576001600160401b039060049081358381116200000f5762000b739036908401620006c5565b90602435908482116200000f5760809082360301126200000f576040519062000b9c82620005af565b808401358581116200000f5762000bb990853691840101620006c5565b825260248101359062000bcc8262000a93565b60209182840152604481013562000be38162000a93565b60408401526064810135908682116200000f570190366023830112156200000f57848201359186831162000cac575b8260051b6040519362000c288483018662000617565b8452602483850191830101913683116200000f57602401905b82821062000c8b575050505060608201526044359384116200000f5762000c7462000c7b93620003b69536910162000a9e565b9162002616565b6040519081529081906020820190565b81356001600160801b03811681036200000f57815290830190830162000c41565b62000cb66200056d565b62000c12565b50634e487b7160e01b600052600060045260246000fd5b90600182811c9216801562000d05575b602083101462000cef57565b634e487b7160e01b600052602260045260246000fd5b91607f169162000ce3565b60405190600082600f549162000d268362000cd3565b80835260019380851690811562000da3575060011462000d50575b506200064a9250038362000617565b600f60009081526000805160206200578783398151915294602093509091905b81831062000d8a5750506200064a93508201013862000d41565b8554888401850152948501948794509183019162000d70565b90506200064a94506020925060ff191682840152151560051b8201013862000d41565b60405190600082600d549162000ddc8362000cd3565b80835260019380851690811562000da3575060011462000e0557506200064a9250038362000617565b600d60009081526000805160206200572783398151915294602093509091905b81831062000e3f5750506200064a93508201013862000d41565b8554888401850152948501948794509183019162000e25565b60405190600082600a549162000e6e8362000cd3565b80835260019380851690811562000da3575060011462000e9757506200064a9250038362000617565b600a60009081527fc65a7bb8d6351c1cf70c95a316cc6a92839c986682d98bc35f958f4883f9d2a894602093509091905b81831062000ee25750506200064a93508201013862000d41565b8554888401850152948501948794509183019162000ec8565b906040519182600082549262000f118462000cd3565b90818452600194858116908160001462000f86575060011462000f3f575b50506200064a9250038362000617565b9093915060005260209081600020936000915b81831062000f6d5750506200064a9350820101388062000f2f565b8554888401850152948501948794509183019162000f52565b9150506200064a94506020925060ff191682840152151560051b820101388062000f2f565b50346200000f57600080600319360112620004255760405181600f5462000fd28162000cd3565b80845290600190818116908115620003fa57506001146200100057620003b684620003a98188038262000617565b600f835260209450600080516020620057878339815191525b828410620010395750505081620003b693620003a9928201019362000396565b805485850187015292850192810162001019565b50346200000f576000806003193601126200042557604051816001805490620010768262000cd3565b80855291818116908115620003fa5750600114620010a157620003b684620003a98188038262000617565b80945082526020938483205b828410620010cd5750505081620003b693620003a9928201019362000396565b8054858501870152928501928101620010ad565b50346200000f5760403660031901126200000f57620010ff62000469565b60243580151581036200000f576001600160a01b038216913383146200118057816200113d6200114e923360005260056020526040600020620016af565b9060ff801983541691151516179055565b604051901515815233907f17307eab39ab6107e8899845ad3d59bd9653f200f220920489ca2b5937696c3190602090a3005b60405162461bcd60e51b815260206004820152601960248201527822a9219b99189d1030b8383937bb32903a379031b0b63632b960391b6044820152606490fd5b50346200000f5760203660031901126200000f57600435600052600b6020526020604060002054604051908152f35b506000806003193601126200042557620012798160206200125e620012216200121b60095462000428565b62000428565b620012406200122f62001cb9565b6200123962000d10565b9062002159565b6040519485809481936303a9151b60e41b8352306004840162001d2a565b03925af1908115620012f5575b8391620012c0575b50600e55565b6200129a62001294600e546200128e62000d10565b62001f47565b62001e00565b620012bd600e54620012ab62001ef3565b90620012b662000dc6565b9162002bc2565b80f35b620012e6915060203d8111620012ed575b620012dd818362000617565b81019062001d1a565b3862001273565b503d620012d1565b620012ff62001b6f565b6200126b565b50346200000f57620004e46200131b36620007fd565b9291909162001839565b50346200000f57600080600319360112620004255760405181600d546200134c8162000cd3565b80845290600190818116908115620003fa57506001146200137a57620003b684620003a98188038262000617565b600d835260209450600080516020620057278339815191525b828410620013b35750505081620003b693620003a9928201019362000396565b805485850187015292850192810162001393565b50346200000f5760203660031901126200000f57620003b6620013ec60043562002943565b60405191829160208352602083019062000317565b600c548110156200142157600c6000526003602060002091020190600090565b634e487b7160e01b600052603260045260246000fd5b50346200000f5760203660031901126200000f57600435600c548110156200000f57600c6000526003027fdf6966c971051c3d54ec59162606531493a51404a002842f56009d7e5cf4a8c78101547fdf6966c971051c3d54ec59162606531493a51404a002842f56009d7e5cf4a8c88201546001600160a01b031691620003b690620014e5907fdf6966c971051c3d54ec59162606531493a51404a002842f56009d7e5cf4a8c90162000efb565b6040519384938452602084015260606040840152606083019062000317565b50346200000f5760403660031901126200000f576200152262000469565b602435906001600160a01b039081831683036200000f5760209260ff92620015579216600052600584526040600020620016af565b54166040519015158152f35b50346200000f5760203660031901126200000f576200158162000469565b6200158b6200161d565b6001600160a01b03908116908115620015c957600780546001600160a01b0319811684179091551660008051602062005747833981519152600080a3005b60405162461bcd60e51b815260206004820152602660248201527f4f776e61626c653a206e6577206f776e657220697320746865207a65726f206160448201526564647265737360d01b6064820152608490fd5b6007546001600160a01b031633036200163257565b606460405162461bcd60e51b815260206004820152602060248201527f4f776e61626c653a2063616c6c6572206973206e6f7420746865206f776e65726044820152fd5b80546001600160a01b0319166001600160a01b03909216919091179055565b6001600160a01b0316600090815260036020526040902090565b9060018060a01b0316600052602052604060002090565b15620016ce57565b60405162461bcd60e51b8152602060048201526018602482015277115490cdcc8c4e881a5b9d985b1a59081d1bdad95b88125160421b6044820152606490fd5b6000908152600260205260409020546001600160a01b031662000351811515620016c6565b156200173b57565b60405162461bcd60e51b815260206004820152603d60248201527f4552433732313a20617070726f76652063616c6c6572206973206e6f7420746f60448201527f6b656e206f776e6572206f7220617070726f76656420666f7220616c6c0000006064820152608490fd5b620017bb620017b58262001b07565b620016c6565b6000908152600460205260409020546001600160a01b031690565b15620017de57565b60405162461bcd60e51b815260206004820152602d60248201527f4552433732313a2063616c6c6572206973206e6f7420746f6b656e206f776e6560448201526c1c881bdc88185c1c1c9bdd9959609a1b6064820152608490fd5b906200186493929162001851620008ed8433620018bb565b6200185e8383836200198e565b62001bb1565b156200186c57565b60405162461bcd60e51b815260206004820152603260248201526000805160206200570783398151915260448201527131b2b4bb32b91034b6b83632b6b2b73a32b960711b6064820152608490fd5b6001600160a01b0380620018cf846200170e565b1692818316928484149485156200190a575b50508315620018f1575b50505090565b620018ff91929350620017a6565b1614388080620018eb565b60ff92955090620019289160005260056020526040600020620016af565b5416923880620018e1565b156200193b57565b60405162461bcd60e51b815260206004820152602560248201527f4552433732313a207472616e736665722066726f6d20696e636f72726563742060448201526437bbb732b960d91b6064820152608490fd5b620019b6906200199e846200170e565b6001600160a01b038281169390918216841462001933565b831692831562001a5e5762001a1362001a4892620019e485620019dd6200121b8a6200170e565b1462001933565b62001a0d620019fd886000526004602052604060002090565b80546001600160a01b0319169055565b62001695565b805460001901905562001a268162001695565b6001815401905562001a42856000526002602052604060002090565b62001676565b60008051602062005767833981519152600080a4565b60405162461bcd60e51b8152602060048201526024808201527f4552433732313a207472616e7366657220746f20746865207a65726f206164646044820152637265737360e01b6064820152608490fd5b81600052600460205262001ac881604060002062001676565b6001600160a01b038062001adc846200170e565b169116907f8c5be1e5ebec7d5bd14f71427d1e84f3dd0314c0f7b2291e5b200ac8c7c3b925600080a4565b6000908152600260205260409020546001600160a01b0316151590565b908160209103126200000f575162000351816200025c565b6001600160a01b039182168152911660208201526040810191909152608060608201819052620003519291019062000317565b506040513d6000823e3d90fd5b3d1562001bac573d9062001b90826200065b565b9162001ba0604051938462000617565b82523d6000602084013e565b606090565b92909190823b1562001cb05762001be7926020926000604051809681958294630a85bd0160e11b9a8b8552336004860162001b3c565b03926001600160a01b03165af16000918162001c79575b5062001c6b5762001c0e62001b7c565b8051908162001c665760405162461bcd60e51b815260206004820152603260248201526000805160206200570783398151915260448201527131b2b4bb32b91034b6b83632b6b2b73a32b960711b6064820152608490fd5b602001fd5b6001600160e01b0319161490565b62001ca091925060203d811162001ca8575b62001c97818362000617565b81019062001b24565b903862001bfe565b503d62001c8b565b50505050600190565b6040519062001cc88262000584565b603f82527f206d6574616461746120746578742c20696e646578656420696e7465676572006040837f636f6d6d756e697479496420696e7465676572207072696d617279206b65792c60208201520152565b908160209103126200000f575190565b6001600160a01b039091168152604060208201819052620003519291019062000317565b601f811162001d5b575050565b600090600d825260208220906020601f850160051c8301941062001d9c575b601f0160051c01915b82811062001d9057505050565b81815560010162001d83565b909250829062001d7a565b90601f811162001db657505050565b600091825260208220906020601f850160051c8301941062001df5575b601f0160051c01915b82811062001de957505050565b81815560010162001ddc565b909250829062001dd3565b80519091906001600160401b03811162001ee3575b62001e2d8162001e27600d5462000cd3565b62001d4e565b602080601f831160011462001e6c575081929360009262001e60575b50508160011b916000199060031b1c191617600d55565b01519050388062001e49565b600d600052601f1983169490919060008051602062005727833981519152926000905b87821062001eca57505083600195961062001eb0575b505050811b01600d55565b015160001960f88460031b161c1916905538808062001ea5565b8060018596829496860151815501950193019062001e8f565b62001eed6200056d565b62001e15565b6040519062001f0282620005fb565b602082527f4372656174656420636f6d6d756e6974696573207461626c653a2025732025736020830152565b9062001f4360209282815194859201620002f2565b0190565b6022620003519162001f6462001f5d4662002008565b9462002008565b604051948262001f7f879451809260208088019101620002f2565b830190605f60f81b9182602082015262001fa4825180936020602185019101620002f2565b0190602182015262001fc08251809360208785019101620002f2565b0103600281018452018262000617565b9062001fdc826200065b565b62001feb604051918262000617565b828152809262001ffe601f19916200065b565b0190602036910137565b6000908072184f03e93ff9f4daa797ed6e38ed64bf6a1f0160401b808210156200214a575b506904ee2d6d415b85acef8160201b808310156200213a575b50662386f26fc10000808310156200212a575b506305f5e100808310156200211a575b50612710808310156200210a575b506064821015620020f9575b600a80921015620020ee575b600190816021620020a282870162001fd0565b95860101905b620020b5575b5050505090565b600019019083906f181899199a1a9b1b9c1cb0b131b232b360811b8282061a835304918215620020e857919082620020a8565b620020ae565b91600101916200208f565b919060646002910491019162002083565b6004919392049101913862002077565b6008919392049101913862002069565b6010919392049101913862002059565b6020919392049101913862002046565b6040935081049150386200202d565b90603062000351916200216c4662002008565b936040519485926c021a922a0aa22902a20a126229609d1b60208501526200219f815180926020602d88019101620002f2565b8301605f60f81b602d820152620021c1825180936020602e85019101620002f2565b01600560fb1b602e820152620021e2825180936020602f85019101620002f2565b01602960f81b602f82015203601081018452018262000617565b91949392909460405195869360206b024a729a2a92a1024a72a27960a51b81870152600090600d5490620022308262000cd3565b9160019081811690811562002383575060011462002339575b50505060079594600f620022ec6200231c966008620022d86200064a9c98600c620022bd60099a620022b6620023079b602a907f2028636f6d6d756e69747949642c206d657461646174612c20696e646578656481526905240ac8298aa8aa640560b31b60208201520190565b9062001f2e565b6b0161013bdb430b73236329d160a51b81525b019062001f2e565b67016103730b6b29d160c51b8152620022d0565b6e016103232b9b1b934b83a34b7b71d1608d1b8152620022d0565b680161034b6b0b3b29d160bd1b8152620022d0565b667d272c2031293b60c81b81520360181981018552018362000617565b90919250600d60005281600020906000915b8483106200236957505050508501602c0184600f620022ec62002249565b8054998301602c01999099528b989183019181016200234b565b60ff1916602c808c01919091528415159094028a019093019350879250600f9150620022ec905062002249565b62000351939260609260018060a01b031682526020820152816040820152019062000317565b60021115620023e157565b634e487b7160e01b600052602160045260246000fd5b90602090818352606062002417825160808587015260a086019062000317565b91838101516200242781620023d6565b604086015260408101516200243c81620023d6565b828601520151926080601f198284030191015281808451928381520193019160005b8281106200246d575050505090565b83516001600160801b0316855293810193928101926001016200245e565b600c54600160401b811015620025d3575b620024af600191828101600c5562001401565b620025c3575b8251815560406002602092620024d960018060a01b03858801511686830162001676565b019301519081519160018060401b038311620025b3575b620025088362002501875462000cd3565b8762001da7565b81601f841160011462002544575092829391839260009462002538575b50501b916000199060031b1c1916179055565b01519250388062002525565b919083601f1981166200255c88600052602060002090565b946000905b888383106200259857505050106200257e575b505050811b019055565b015160001960f88460031b161c1916905538808062002574565b85870151885590960195948501948793509081019062002561565b620025bd6200056d565b620024f0565b620025cd62000cbc565b620024b5565b620025dd6200056d565b6200249c565b60405190620025f282620005fb565b6015825274436f6d6d756e69747920437265617465643a20257360581b6020830152565b919091805160208201206200263581600052600b602052604060002090565b546200290e57600854936200264b853362002aa1565b6200265c6200121b60095462000428565b92600e54936200268b620026708862002008565b875197602081015160409960608b84015193015193620021fc565b813b156200000f57620026bb9587519283809263757ae82760e11b82528160009a8b9687933060048501620023b0565b03925af18015620028fe575b620028e7575b508451806200275c88612ae5808401906001600160401b03821185831017620028d7575b62002c228539608080825260119082015270454d425f434f4d4d5f4e46545f4e414d4560781b60a082015260c0602082018190526013908201527211535097d0d3d35357d3919517d4d6535093d3606a1b60e082015230604082015260608101919091526101000190565b039085f08015620028c7575b6001600160a01b031691823b15620028c357620027f892879492620027a687620027e8948a518093819263adaf1cab60e01b835260048301620023f7565b038183875af18015620028b3575b6200289c575b50620027de620027c96200064c565b8781526001600160a01b039093166020840152565b878201526200248b565b600052600b602052604060002090565b556200280a6200121b60105462000428565b91823b15620028985751633576860d60e11b815233600482015260248101849052918290604490829084905af1801562002888575b6200286a575b506200285b8162002855620025e3565b62002b5f565b62000351600160085401600855565b806200287a6200288192620005cb565b80620002e6565b3862002845565b6200289262001b6f565b6200283f565b5080fd5b806200287a620028ac92620005cb565b38620027ba565b620028bd62001b6f565b620027b4565b8480fd5b620028d162001b6f565b62002768565b620028e16200056d565b620026f1565b806200287a620028f792620005cb565b38620026cd565b6200290862001b6f565b620026c7565b60405162461bcd60e51b815260206004820152600d60248201526c48616e646c652065786973747360981b6044820152606490fd5b62002952620017b58262001b07565b806000526020600681526200296b604060002062000efb565b6200297562000e58565b805191821562002a3657805162002a175750505062002998620017b58362001b07565b620029a262000e58565b805190929060009015620029ff575090620029c1620003519262002008565b926040519381620029dc8693518092868087019101620002f2565b8201620029f282518093868085019101620002f2565b0103808452018262000617565b925050506040519062002a1282620005df565b815290565b826200035194939550620029dc604051968794868087019101620002f2565b935050505090565b50634e487b7160e01b600052601160045260246000fd5b1562002a5d57565b60405162461bcd60e51b815260206004820152601c60248201527b115490cdcc8c4e881d1bdad95b88185b1c9958591e481b5a5b9d195960221b6044820152606490fd5b6001600160a01b03811690811562002b1b5762002b049062002ace62002ac78562001b07565b1562002a55565b62002add62002ac78562001b07565b62002ae88162001695565b6001815401905562001a42846000526002602052604060002090565b6000600080516020620057678339815191528180a4565b606460405162461bcd60e51b815260206004820152602060248201527f4552433732313a206d696e7420746f20746865207a65726f20616464726573736044820152fd5b62002ba762002b92916200064a93604051938492632d839cb360e21b602085015260406024850152606484019062000317565b90604483015203601f19810183528262000617565b600080916020815191016a636f6e736f6c652e6c6f675afa50565b62002ba79062002c1262002bfa936200064a95604051958694635970e08960e01b602087015260606024870152608486019062000317565b91604485015260231984830301606485015262000317565b03601f1981018352826200061756fe60406080815234620004125762002ae5803803806200001e8162000417565b9283398101608082820312620004125781516001600160401b039290838111620004125782620000509183016200043d565b92602092838301519082821162000412576200006e9184016200043d565b8286015190936001600160a01b03821693909184900362000412576060015193855192808411620003fc576000918254946001988987811c97168015620003f1575b86881014620002fb578190601f978881116200039e575b5086908883116001146200033a5786926200032e575b5050600019600383901b1c191690891b1783555b8051908282116200031a5788548981811c911680156200030f575b86821014620002fb57908187849311620002a8575b5085908783116001146200024457859262000238575b5050600019600383901b1c191690881b1787555b875190818901908111828210176200022457908391895260078152019266697066733a2f2f60c81b8452600d54928784811c9416801562000219575b818510146200020557818411620001df575b505091516001600160c81b031916600e908117600d5580546001600160a01b031916939093179092555050600f55600c8054919091019055516126359081620004b08239f35b600d83528220920160051c82019186905b838110156200019957828155018690620001f0565b634e487b7160e01b83526022600452602483fd5b93607f169362000187565b634e487b7160e01b83526041600452602483fd5b01519050388062000137565b8a86528686208b94509190601f198416875b8982821062000291575050841162000277575b505050811b0187556200014b565b015160001960f88460031b161c1916905538808062000269565b8385015186558e9790950194938401930162000256565b9091508985528585208780850160051c820192888610620002f1575b918c91869594930160051c01915b828110620002e257505062000121565b8781558594508c9101620002d2565b92508192620002c4565b634e487b7160e01b85526022600452602485fd5b90607f16906200010c565b634e487b7160e01b84526041600452602484fd5b015190503880620000dd565b8680528787208c94509190601f198416885b8a8282106200038757505084116200036d575b505050811b018355620000f1565b015160001960f88460031b161c191690553880806200035f565b8385015186558f979095019493840193016200034c565b9091508580528686208880850160051c820192898610620003e7575b918d91869594930160051c01915b828110620003d8575050620000c7565b8881558594508d9101620003c8565b92508192620003ba565b96607f1696620000b0565b634e487b7160e01b600052604160045260246000fd5b600080fd5b6040519190601f01601f191682016001600160401b03811183821017620003fc57604052565b919080601f84011215620004125782516001600160401b038111620003fc5760209062000473601f8201601f1916830162000417565b92818452828287010111620004125760005b8181106200049b57508260009394955001015290565b85810183015184820184015282016200048556fe608060408181526004918236101561001657600080fd5b600092833560e01c91826301ffc9a7146114b75750816306fdde0314611430578163081812fc14611410578163095ea7b3146112a25781631249c58b1461115857816318160ddd1461113957816323b872dd1461110f578163248a9ca3146110e457816329adec14146110be5781632f2ff15d146110115781632f745c5914610f6557816336568abe14610ed357816342842e0e14610eaa5781634f6ccce714610e8a57816350ff4ee314610d2157816361acc37e14610cba5781636352211e14610c8957816370a0823114610c5c5781637c0f6b3514610ba05781637f50861a14610b8157816391d1485414610b3a57816395d89b4114610ab3578163a217fddf14610a98578163a22cb465146109d0578163a2bf68b9146109a3578163adaf1cab146105be578163b88d4fde1461055a578163c87b56dd14610523578163d547741f146104e057508063daee9ac9146102b9578063e985e9c51461026c5763fd0da0991461018557600080fd5b34610268578160031936011261026857805190826010546101a581611717565b8085529060019081811690811561024057506001146101e7575b5050506101d1826101e394038361168b565b51918291602083526020830190611579565b0390f35b60108352602095507f1b6847dc741a1b0cd08d278845f9d819d87b734759afb55fe2de5cb82a9ae6725b82841061022d57505050826101e3946101d192820101946101bf565b8054868501880152928601928101610211565b6101e397506101d19450602092508693915060ff191682840152151560051b820101946101bf565b5080fd5b503461026857806003193601126102685760ff8160209361028b61159e565b6102936115b9565b6001600160a01b0391821683526005875283832091168252855220549151911615158152f35b50346102685781600319360112610268578051916102d683611655565b6060835260608060209483868201528385820152015260115460ff8082169160081c169383519361030685611655565b8051601054969085816103188a611717565b9182825260019a878c821691826000146104c3575050600114610485575b6103429250038261168b565b86528286019361035181611604565b84528186019061036081611604565b815281519182838580601254938481520160128a528b828b20948b5b87828483011061045657506103ad9654928583831061043e575b505010610430575b5090509997969599038461168b565b606087019283526103ce8151978989525160808a8a015260a0890190611579565b9351906103da82611604565b870152516103e781611604565b606086015251848203601f19016080860152805180835291860195908101925b8281106104145785870386f35b83516001600160801b0316875295810195928101928401610407565b60801c81520186903861039e565b6001600160801b038516865290940193018e85610396565b87546001600160801b038116865260801c8c86015292909601958995508a945091909201918d9160020161037c565b50506010875281858089208b8a915b8583106104aa5750506103429350820101610336565b80919294505483858801015201910186908b8593610494565b60ff19168482015261034294151560051b84010191506103369050565b9190503461051f578060031936011261051f5761051c913561051760016105056115b9565b93838752600b6020528620015461180e565b611ad6565b80f35b8280fd5b82843461055757602036600319011261055757506105446101e39235612288565b9051918291602083526020830190611579565b80fd5b8390346102685760803660031901126102685761057561159e565b61057d6115b9565b906064356001600160401b0381116105ba57366023820112156105ba5761051c938160246105b0933693013591016116c9565b9160443591611cbe565b8480fd5b9190503461051f57602060031981813601126105ba578335926001600160401b039182851161099f57608090853603011261099b578051936080850185811084821117610988578252808601358381116109845781019136602384011215610984576106346024933690858a82013591016116c9565b865282820135916002968784101561098057868101938452604482013591888310156109785783820192835260648101359087821161097c570136602382011215610978578981013561069261068982611700565b9551958661168b565b808552868986019160051b83010191368311610974578701905b82821061095157505050606081019283525192835186811161093f57806010958c6106d78854611717565b8b601f8211610906575b50505089908d601f84116001146108a35792610898575b50508160011b916000199060031b1c19161784555b519061071882611604565b61072182611604565b60ff61ff00601154925161073481611604565b61073d81611604565b60081b1692169061ffff191617176011555191825193841161088757600160401b84116108875750908391601254908460125581851061083a575b50500190601286528286209260019282841c95885b8781106107f6575050600119831690920391826107a8578780f35b929190879688905b8382106107ca575050505050500155388080808080808780f35b90919293836107e982979a60018060801b038c51169086861b9061226f565b99019594939201906107b0565b85908a8b5b868c86831061081157505050818901550161078d565b829794959361082d929360018060801b03875116921b9061226f565b92019401908792916107fb565b6108669160128a526001858b2091818801821c830193888c1b168061086d575b500160011c0190612258565b3880610778565b60001990818601918254918a0360031b1c1690553861085a565b634e487b7160e01b88526041875287fd5b0151905038806106f8565b8881528b81209350601f198516905b8c8282106108f05750509084600195949392106108d7575b505050811b01845561070d565b015160001960f88460031b161c191690553880806108ca565b60018596829396860151815501950193016108b2565b828a61092d945220601f850160051c8101918d8610610935575b601f0160051c0190612258565b8c388b6106e1565b9091508190610920565b634e487b7160e01b8b5260418a52858bfd5b81356001600160801b03811681036109705781529089019089016106ac565b8d80fd5b8c80fd5b8a80fd5b8b80fd5b8980fd5b8780fd5b634e487b7160e01b885260418752602488fd5b8580fd5b8680fd5b505034610268578160031936011261026857601154905160209160081c60ff166109cc81611604565b8152f35b9190503461051f578060031936011261051f576109eb61159e565b90602435918215158093036105ba576001600160a01b031692338414610a5a5750338452600560205280842083855260205280842060ff1981541660ff8416179055519081527f17307eab39ab6107e8899845ad3d59bd9653f200f220920489ca2b5937696c3160203392a380f35b6020606492519162461bcd60e51b8352820152601960248201527822a9219b99189d1030b8383937bb32903a379031b0b63632b960391b6044820152fd5b50503461026857816003193601126102685751908152602090f35b505034610268578160031936011261026857805190826001805490610ad782611717565b808652918181169081156102405750600114610aff575050506101d1826101e394038361168b565b80955082526020948583205b828410610b2757505050826101e3946101d192820101946101bf565b8054868501880152928601928101610b0b565b90503461051f578160031936011261051f578160209360ff92610b5b6115b9565b90358252600b86528282206001600160a01b039091168252855220549151911615158152f35b505034610268578160031936011261026857602090600f549051908152f35b8284346105575780600319360112610557579060085491610bc083611700565b90610bcd8351928361168b565b838252610bd984611700565b6020948584019391601f1901368537825b818110610c2e57505083519485948186019282875251809352850193925b828110610c1757505050500390f35b835185528695509381019392810192600101610c08565b80610c41610c51929895949697986121d0565b610c4b8288612569565b5261255a565b959493919295610bea565b50503461026857602036600319011261026857602090610c82610c7d61159e565b611b4c565b9051908152f35b8284346105575760203660031901126105575750610ca960209235611c0a565b90516001600160a01b039091168152f35b90503461051f57602036600319011261051f573560125481101561051f576012909252600182901c7fbb8a6a4669ba250d26cd7a459eca9d215f8307e33aebe50379bc5a3617ec34440154905160079290921b6080161c6001600160801b03168152602090f35b828434610557578060031936011261055757600854610d3f81611700565b90610d4c8451928361168b565b808252601f19610d5b82611700565b01835b818110610e62575050825b818110610df2575050825191602080840190808552835180925285850181878460051b880101950193965b838810610da15786860387f35b90919293948380600192603f198a82030186528851908151815285610dd28484015160608087860152840190611579565b9281878060a01b0391015116910152970193019701969093929193610d94565b80610dff610e5d926121d0565b610e10610e0b836121d0565b612288565b610e21610e1c846121d0565b611c0a565b90885192610e2e84611624565b835260208301526001600160a01b031687820152610e4c8286612569565b52610e578185612569565b5061255a565b610d69565b6020908651610e7081611624565b868152826060818301528789830152828701015201610d5e565b8284346105575760203660031901126105575750610c82602092356121d0565b5050346102685761051c90610ebe366115cf565b91925192610ecb84611670565b858452611cbe565b83915034610268578260031936011261026857610eee6115b9565b90336001600160a01b03831603610f0a579061051c9135611ad6565b608490602085519162461bcd60e51b8352820152602f60248201527f416363657373436f6e74726f6c3a2063616e206f6e6c792072656e6f756e636560448201526e103937b632b9903337b91039b2b63360891b6064820152fd5b828434610557578160031936011261055757610f7f61159e565b60243590610f8c81611b4c565b821015610fba576001600160a01b031682526006602090815283832091835290815290829020548251908152f35b835162461bcd60e51b8152602081870152602b60248201527f455243373231456e756d657261626c653a206f776e657220696e646578206f7560448201526a74206f6620626f756e647360a81b6064820152608490fd5b90503461051f578160031936011261051f57359061102d6115b9565b90828452600b6020526110456001828620015461180e565b828452600b60209081528185206001600160a01b039093168086529290528084205460ff1615611073578380f35b828452600b6020528084208285526020528320600160ff1982541617905533917f2f8788117e7eff1d82e926ec794901d17c78024a50270940304540a733656f0d8480a43880808380f35b505034610268578160031936011261026857601154905160209160ff166109cc81611604565b90503461051f57602036600319011261051f5781602093600192358152600b85522001549051908152f35b83346105575761051c611121366115cf565b9161113461112f8433611d37565b611c5c565b611dff565b5050346102685781600319360112610268576020906008549051908152f35b9190503461051f578260031936011261051f57600c54913315611260576111876111818461202c565b1561257d565b600854838552602091600983528184872055600160401b82101561124d5750906111d8846111bd8460016002960160085561219f565b90919082549060031b600019811b9283911b16911916179055565b6111e133611b4c565b3386526006825283862081875282528484872055848652600782528386205561120c6111818561202c565b33808652600382528386208054600101905584865291905290832080546001600160a01b03191682179055826000805160206126098339815191528180a480f35b634e487b7160e01b865260419052602485fd5b6020606492519162461bcd60e51b8352820152602060248201527f4552433732313a206d696e7420746f20746865207a65726f20616464726573736044820152fd5b90503461051f578160031936011261051f576112bc61159e565b6024359290916001600160a01b03919082806112d787611c0a565b169416938085146113c3578033149081156113a4575b501561133c57848652602052842080546001600160a01b0319168317905561131483611c0a565b167f8c5be1e5ebec7d5bd14f71427d1e84f3dd0314c0f7b2291e5b200ac8c7c3b9258480a480f35b6020608492519162461bcd60e51b8352820152603d60248201527f4552433732313a20617070726f76652063616c6c6572206973206e6f7420746f60448201527f6b656e206f776e6572206f7220617070726f76656420666f7220616c6c0000006064820152fd5b90508652600560205281862033875260205260ff8287205416386112ed565b506020608492519162461bcd60e51b8352820152602160248201527f4552433732313a20617070726f76616c20746f2063757272656e74206f776e656044820152603960f91b6064820152fd5b8284346105575760203660031901126105575750610ca960209235611c30565b50503461026857816003193601126102685780519082805461145181611717565b80855290600190818116908115610240575060011461147c575050506101d1826101e394038361168b565b94508180526020948583205b8284106114a457505050826101e3946101d192820101946101bf565b8054868501880152928601928101611488565b84913461051f57602036600319011261051f573563ffffffff60e01b811680910361051f5760209250637965db0b60e01b81149081156114f9575b5015158152f35b63780e9d6360e01b811491508115611513575b50836114f2565b6380ac58cd60e01b811491508115611545575b8115611534575b508361150c565b6301ffc9a760e01b1490508361152d565b635b5e139f60e01b81149150611526565b60005b8381106115695750506000910152565b8181015183820152602001611559565b9060209161159281518092818552858086019101611556565b601f01601f1916010190565b600435906001600160a01b03821682036115b457565b600080fd5b602435906001600160a01b03821682036115b457565b60609060031901126115b4576001600160a01b039060043582811681036115b4579160243590811681036115b4579060443590565b6002111561160e57565b634e487b7160e01b600052602160045260246000fd5b606081019081106001600160401b0382111761163f57604052565b634e487b7160e01b600052604160045260246000fd5b608081019081106001600160401b0382111761163f57604052565b602081019081106001600160401b0382111761163f57604052565b601f909101601f19168101906001600160401b0382119082101761163f57604052565b6001600160401b03811161163f57601f01601f191660200190565b9291926116d5826116ae565b916116e3604051938461168b565b8294818452818301116115b4578281602093846000960137010152565b6001600160401b03811161163f5760051b60200190565b90600182811c92168015611747575b602083101461173157565b634e487b7160e01b600052602260045260246000fd5b91607f1691611726565b60405190600082600d549161176583611717565b8083526001938085169081156117ed575060011461178d575b5061178b9250038361168b565b565b600d60009081527fd7b6990105719101dabeb77144f2a3385c8033acd3af97e9423a695e81ad1eb594602093509091905b8183106117d557505061178b93508201013861177e565b855488840185015294850194879450918301916117be565b905061178b94506020925060ff191682840152151560051b8201013861177e565b600090808252602090600b8252604092838120338252835260ff8482205416156118385750505050565b3384519261184584611624565b602a84528484019086368337845115611ac25760308253845192600193841015611aae576078602187015360295b848111611a445750611a145786519261188b84611655565b60428452868401946060368737845115611a0057603086538451821015611a005790607860218601536041915b818311611992575050506119625761195e9386936119429361193360489461190a9a519a8b9576020b1b1b2b9b9a1b7b73a3937b61d1030b1b1b7bab73a1604d1b8c8801525180926037880190611556565b8401917001034b99036b4b9b9b4b733903937b6329607d1b603784015251809386840190611556565b0103602881018752018561168b565b5192839262461bcd60e51b845260048401526024830190611579565b0390fd5b60648587519062461bcd60e51b825280600483015260248201526000805160206125c98339815191526044820152fd5b909192600f811660108110156119ec576f181899199a1a9b1b9c1cb0b131b232b360811b901a6119c28588612247565b5360041c9280156119d8576000190191906118b8565b634e487b7160e01b82526011600452602482fd5b634e487b7160e01b83526032600452602483fd5b634e487b7160e01b81526032600452602490fd5b60648688519062461bcd60e51b825280600483015260248201526000805160206125c98339815191526044820152fd5b90600f81166010811015611a9a576f181899199a1a9b1b9c1cb0b131b232b360811b901a611a728389612247565b5360041c908015611a865760001901611873565b634e487b7160e01b86526011600452602486fd5b634e487b7160e01b87526032600452602487fd5b634e487b7160e01b85526032600452602485fd5b634e487b7160e01b84526032600452602484fd5b90600091808352600b602052604083209160018060a01b03169182845260205260ff604084205416611b0757505050565b808352600b602052604083208284526020526040832060ff1981541690557ff6391f5c32d9c69d2a47ea670b442974b53935d1edc7fd64eb21e047a839171b339380a4565b6001600160a01b03168015611b6c57600052600360205260406000205490565b60405162461bcd60e51b815260206004820152602960248201527f4552433732313a2061646472657373207a65726f206973206e6f7420612076616044820152683634b21037bbb732b960b91b6064820152608490fd5b15611bca57565b60405162461bcd60e51b8152602060048201526018602482015277115490cdcc8c4e881a5b9d985b1a59081d1bdad95b88125160421b6044820152606490fd5b6000908152600260205260409020546001600160a01b0316611c2d811515611bc3565b90565b611c41611c3c8261202c565b611bc3565b6000908152600460205260409020546001600160a01b031690565b15611c6357565b60405162461bcd60e51b815260206004820152602d60248201527f4552433732313a2063616c6c6572206973206e6f7420746f6b656e206f776e6560448201526c1c881bdc88185c1c1c9bdd9959609a1b6064820152608490fd5b90611ce2939291611cd261112f8433611d37565b611cdd838383611dff565b612049565b15611ce957565b60405162461bcd60e51b815260206004820152603260248201526000805160206125e983398151915260448201527131b2b4bb32b91034b6b83632b6b2b73a32b960711b6064820152608490fd5b906001600160a01b038080611d4b84611c0a565b16931691838314938415611d7e575b508315611d68575b50505090565b611d7491929350611c30565b1614388080611d62565b909350600052600560205260406000208260005260205260ff604060002054169238611d5a565b15611dac57565b60405162461bcd60e51b815260206004820152602560248201527f4552433732313a207472616e736665722066726f6d20696e636f72726563742060448201526437bbb732b960d91b6064820152608490fd5b611e2391611e0c84611c0a565b6001600160a01b0393848416939185168414611da5565b838216938415611fdb57839182611f22575060085460008781526009602052604090208190559150600160401b82101561163f57611e8992611e70876111bd85600189970160085561219f565b828603611eef575b50611e8286611c0a565b1614611da5565b600080516020612609833981519152600084815260046020526040812060018060a01b03199081815416905583825260036020526040822060001981540190558482526040822060018154019055858252600260205284604083209182541617905580a4565b611ef890611b4c565b60406000878152600660205281812083825260205288828220558881526007602052205538611e78565b858303611f34575b50611e8992611e70565b611f3f919250611b4c565b600019810191908211611fc557611e899284926000908882526020906007825260409182842054828103611f8e575b508a84528383812055868452600681528284209184525281205592611f2a565b8785526006825283852083865282528385205488865260068352848620828752835280858720558552600782528385205538611f6e565b634e487b7160e01b600052601160045260246000fd5b60405162461bcd60e51b8152602060048201526024808201527f4552433732313a207472616e7366657220746f20746865207a65726f206164646044820152637265737360e01b6064820152608490fd5b6000908152600260205260409020546001600160a01b0316151590565b9293600093909291803b15612194579484916120a39660405180948193630a85bd0160e11b9788845233600485015260018060a01b0380921660248501526044840152608060648401528260209b8c976084830190611579565b0393165af1849181612154575b50612143575050503d60001461213b573d6120ca816116ae565b906120d8604051928361168b565b81528091833d92013e5b805191826121385760405162461bcd60e51b815260206004820152603260248201526000805160206125e983398151915260448201527131b2b4bb32b91034b6b83632b6b2b73a32b960711b6064820152608490fd5b01fd5b5060606120e2565b6001600160e01b0319161492509050565b9091508581813d831161218d575b61216c818361168b565b810103126105ba57516001600160e01b0319811681036105ba5790386120b0565b503d612162565b505050915050600190565b6008548110156121ba57600860005260206000200190600090565b634e487b7160e01b600052603260045260246000fd5b6008548110156121ed576121e39061219f565b90549060031b1c90565b60405162461bcd60e51b815260206004820152602c60248201527f455243373231456e756d657261626c653a20676c6f62616c20696e646578206f60448201526b7574206f6620626f756e647360a01b6064820152608490fd5b9081518110156121ba570160200190565b818110612263575050565b60008155600101612258565b9060031b60018060801b03811b9283911b169119161790565b612294611c3c8261202c565b6000818152600a60209181835260408082209281518394805495826122b888611717565b91828252898201936001998b8b8216918260001461253c5750506001146124fe575b506122e79250038361168b565b6122ef611751565b9081519283156124f15780516124cb575050505061230f611c3c8761202c565b612317611751565b8051909490156124b457929586938172184f03e93ff9f4daa797ed6e38ed64bf6a1f0160401b81818110156124a5575b5084919050886904ee2d6d415b85acef8160201b80831015612499575b5050662386f26fc100008082101561248c575b506305f5e1008082101561247f575b5061271080821015612472575b506064811015612464575b101561245b575b90816021818a01996123ce6123b98c6116ae565b9b6123c689519d8e61168b565b808d526116ae565b8b8b019890601f1901368a37508a0101905b612425575b505050509061241994611c2d94939251958361240a8895518092888089019101611556565b84019151809386840190611556565b0103808452018261168b565b600019019083906f181899199a1a9b1b9c1cb0b131b232b360811b8282061a835304918215612456579190826123e0565b6123e5565b809701966123a5565b60646002910499019861239e565b6004910499019838612393565b6008910499019838612386565b6010910499019838612377565b9a019990048838612364565b95995089950490508338612347565b5050925092505051906124c682611670565b815290565b935093829850611c2d9796506124199291955061240a9051988996888089019101611556565b9850505050505050505090565b915050865282888088208989915b8583106125235750506122e79350820101386122da565b809192945054838589010152019101899089869361250c565b60ff191687526122e795151560051b85010192503891506122da9050565b6000198114611fc55760010190565b80518210156121ba5760209160051b010190565b1561258457565b60405162461bcd60e51b815260206004820152601c60248201527b115490cdcc8c4e881d1bdad95b88185b1c9958591e481b5a5b9d195960221b6044820152606490fdfe537472696e67733a20686578206c656e67746820696e73756666696369656e744552433732313a207472616e7366657220746f206e6f6e204552433732315265ddf252ad1be2c89b69c2b068fc378daa952ba7f163c4a11628f55a4df523b3efa164736f6c6343000811000a4552433732313a207472616e7366657220746f206e6f6e204552433732315265d7b6990105719101dabeb77144f2a3385c8033acd3af97e9423a695e81ad1eb58be0079c531659141344cd1fd0a4f28419497f9722a3daafe3b4186f6b6457e0ddf252ad1be2c89b69c2b068fc378daa952ba7f163c4a11628f55a4df523b3ef8d1108e10bcb7c27dddfc02ed9d693a074039d026cf4ea4240b40f7d581ac802a164736f6c6343000811000ad7b6990105719101dabeb77144f2a3385c8033acd3af97e9423a695e81ad1eb58d1108e10bcb7c27dddfc02ed9d693a074039d026cf4ea4240b40f7d581ac802","opcodes":"PUSH1 0x80 DUP1 PUSH1 0x40 MSTORE CALLVALUE PUSH3 0xA8 JUMPI PUSH1 0x1 PUSH1 0x1 PUSH1 0x40 SHL SUB SWAP1 PUSH3 0x6969 CODESIZE DUP2 SWAP1 SUB SWAP2 SWAP1 DUP3 SWAP1 PUSH1 0x1F DUP3 ADD PUSH1 0x1F NOT AND DUP4 ADD DUP6 DUP2 GT DUP5 DUP3 LT OR PUSH3 0xAD JUMPI JUMPDEST PUSH1 0x40 MSTORE DUP3 CODECOPY DUP1 DUP3 DUP2 ADD SWAP3 SLT PUSH3 0xA8 JUMPI DUP1 MLOAD DUP4 DUP2 GT PUSH3 0xA8 JUMPI DUP3 PUSH3 0x5F SWAP2 DUP4 ADD PUSH3 0x15A JUMP JUMPDEST SWAP2 PUSH1 0xA0 MLOAD SWAP4 DUP5 GT PUSH3 0xA8 JUMPI PUSH3 0x98 SWAP4 PUSH3 0x7C SWAP3 ADD PUSH3 0x15A JUMP JUMPDEST PUSH3 0x86 PUSH3 0x1A7 JUMP JUMPDEST SWAP1 PUSH3 0x91 PUSH3 0x1BE JUMP JUMPDEST SWAP3 PUSH3 0x5C1 JUMP JUMPDEST PUSH1 0x40 MLOAD PUSH2 0x57B3 SWAP1 DUP2 PUSH3 0x1176 DUP3 CODECOPY RETURN JUMPDEST PUSH1 0x0 DUP1 REVERT JUMPDEST PUSH3 0xB7 PUSH3 0xBD JUMP JUMPDEST PUSH3 0x37 JUMP JUMPDEST POP PUSH4 0x4E487B71 PUSH1 0xE0 SHL PUSH1 0x0 MSTORE PUSH1 0x41 PUSH1 0x4 MSTORE PUSH1 0x24 PUSH1 0x0 REVERT JUMPDEST PUSH1 0x1F SWAP1 SWAP2 ADD PUSH1 0x1F NOT AND DUP2 ADD SWAP1 PUSH1 0x1 PUSH1 0x1 PUSH1 0x40 SHL SUB DUP3 GT SWAP1 DUP3 LT OR PUSH3 0xF8 JUMPI PUSH1 0x40 MSTORE JUMP JUMPDEST PUSH3 0x102 PUSH3 0xBD JUMP JUMPDEST PUSH1 0x40 MSTORE JUMP JUMPDEST PUSH1 0x20 SWAP1 PUSH1 0x1 PUSH1 0x1 PUSH1 0x40 SHL SUB DUP2 GT PUSH3 0x125 JUMPI JUMPDEST PUSH1 0x1F ADD PUSH1 0x1F NOT AND ADD SWAP1 JUMP JUMPDEST PUSH3 0x12F PUSH3 0xBD JUMP JUMPDEST PUSH3 0x11A JUMP JUMPDEST PUSH1 0x0 JUMPDEST DUP4 DUP2 LT PUSH3 0x149 JUMPI POP POP PUSH1 0x0 SWAP2 ADD MSTORE JUMP JUMPDEST DUP2 DUP2 ADD MLOAD DUP4 DUP3 ADD MSTORE PUSH1 0x20 ADD PUSH3 0x138 JUMP JUMPDEST DUP2 PUSH1 0x1F DUP3 ADD SLT ISZERO PUSH3 0xA8 JUMPI DUP1 MLOAD PUSH3 0x173 DUP2 PUSH3 0x107 JUMP JUMPDEST SWAP3 PUSH3 0x183 PUSH1 0x40 MLOAD SWAP5 DUP6 PUSH3 0xD4 JUMP JUMPDEST DUP2 DUP5 MSTORE PUSH1 0x20 DUP3 DUP5 ADD ADD GT PUSH3 0xA8 JUMPI PUSH3 0x1A4 SWAP2 PUSH1 0x20 DUP1 DUP6 ADD SWAP2 ADD PUSH3 0x135 JUMP JUMPDEST SWAP1 JUMP JUMPDEST PUSH1 0xC0 MLOAD SWAP1 PUSH1 0x1 PUSH1 0x1 PUSH1 0xA0 SHL SUB DUP3 AND DUP3 SUB PUSH3 0xA8 JUMPI JUMP JUMPDEST PUSH1 0xE0 MLOAD SWAP1 PUSH1 0x1 PUSH1 0x1 PUSH1 0xA0 SHL SUB DUP3 AND DUP3 SUB PUSH3 0xA8 JUMPI JUMP JUMPDEST SWAP1 PUSH1 0x1 DUP3 DUP2 SHR SWAP3 AND DUP1 ISZERO PUSH3 0x207 JUMPI JUMPDEST PUSH1 0x20 DUP4 LT EQ PUSH3 0x1F1 JUMPI JUMP JUMPDEST PUSH4 0x4E487B71 PUSH1 0xE0 SHL PUSH1 0x0 MSTORE PUSH1 0x22 PUSH1 0x4 MSTORE PUSH1 0x24 PUSH1 0x0 REVERT JUMPDEST SWAP2 PUSH1 0x7F AND SWAP2 PUSH3 0x1E5 JUMP JUMPDEST DUP2 DUP2 LT PUSH3 0x21E JUMPI POP POP JUMP JUMPDEST PUSH1 0x0 DUP2 SSTORE PUSH1 0x1 ADD PUSH3 0x212 JUMP JUMPDEST SWAP1 PUSH1 0x1F DUP3 GT PUSH3 0x239 JUMPI POP POP JUMP JUMPDEST PUSH3 0x269 SWAP2 PUSH1 0x0 DUP1 MSTORE PUSH1 0x20 PUSH1 0x0 KECCAK256 SWAP1 PUSH1 0x20 PUSH1 0x1F DUP5 ADD PUSH1 0x5 SHR DUP4 ADD SWAP4 LT PUSH3 0x26B JUMPI JUMPDEST PUSH1 0x1F ADD PUSH1 0x5 SHR ADD SWAP1 PUSH3 0x212 JUMP JUMPDEST JUMP JUMPDEST SWAP1 SWAP2 POP DUP2 SWAP1 PUSH3 0x25B JUMP JUMPDEST SWAP1 PUSH1 0x1F DUP3 GT PUSH3 0x284 JUMPI POP POP JUMP JUMPDEST PUSH3 0x269 SWAP2 PUSH1 0xA PUSH1 0x0 MSTORE PUSH1 0x20 PUSH1 0x0 KECCAK256 SWAP1 PUSH1 0x20 PUSH1 0x1F DUP5 ADD PUSH1 0x5 SHR DUP4 ADD SWAP4 LT PUSH3 0x26B JUMPI PUSH1 0x1F ADD PUSH1 0x5 SHR ADD SWAP1 PUSH3 0x212 JUMP JUMPDEST SWAP1 PUSH1 0x1F DUP3 GT PUSH3 0x2C2 JUMPI POP POP JUMP JUMPDEST PUSH3 0x269 SWAP2 PUSH1 0x1 PUSH1 0x0 MSTORE PUSH1 0x20 PUSH1 0x0 KECCAK256 SWAP1 PUSH1 0x20 PUSH1 0x1F DUP5 ADD PUSH1 0x5 SHR DUP4 ADD SWAP4 LT PUSH3 0x26B JUMPI PUSH1 0x1F ADD PUSH1 0x5 SHR ADD SWAP1 PUSH3 0x212 JUMP JUMPDEST SWAP1 PUSH1 0x1F DUP3 GT PUSH3 0x300 JUMPI POP POP JUMP JUMPDEST PUSH3 0x269 SWAP2 PUSH1 0xD PUSH1 0x0 MSTORE PUSH1 0x20 PUSH1 0x0 KECCAK256 SWAP1 PUSH1 0x20 PUSH1 0x1F DUP5 ADD PUSH1 0x5 SHR DUP4 ADD SWAP4 LT PUSH3 0x26B JUMPI PUSH1 0x1F ADD PUSH1 0x5 SHR ADD SWAP1 PUSH3 0x212 JUMP JUMPDEST PUSH3 0x33D PUSH1 0xF SLOAD PUSH3 0x1D5 JUMP JUMPDEST PUSH1 0x1F DUP2 GT PUSH3 0x36E JUMPI JUMPDEST POP PUSH32 0x656D62726163655F636F6D6D756E697469657300000000000000000000000026 PUSH1 0xF SSTORE JUMP JUMPDEST PUSH1 0xF PUSH1 0x0 MSTORE PUSH3 0x398 SWAP1 PUSH1 0x1F ADD PUSH1 0x5 SHR PUSH1 0x0 DUP1 MLOAD PUSH1 0x20 PUSH3 0x6949 DUP4 CODECOPY DUP2 MLOAD SWAP2 MSTORE SWAP1 DUP2 ADD SWAP1 PUSH3 0x212 JUMP JUMPDEST CODESIZE PUSH3 0x347 JUMP JUMPDEST PUSH1 0x40 MLOAD SWAP1 DUP2 PUSH1 0x20 PUSH32 0x53454C4543542B636F6D6D756E69747949642532432B6D657461646174612B46 DUP2 DUP4 ADD MSTORE PUSH4 0x524F4D2B PUSH1 0xE0 SHL PUSH1 0x40 DUP4 ADD MSTORE PUSH1 0x0 SWAP1 PUSH1 0xD SLOAD SWAP1 PUSH3 0x3EA DUP3 PUSH3 0x1D5 JUMP JUMPDEST SWAP2 PUSH1 0x1 SWAP1 DUP2 DUP2 AND SWAP1 DUP2 ISZERO PUSH3 0x48E JUMPI POP PUSH1 0x1 EQ PUSH3 0x441 JUMPI JUMPDEST POP POP PUSH32 0x2B57484552452B636F6D6D756E69747949642B2533442B000000000000000000 DUP3 MSTORE POP PUSH3 0x269 SWAP2 PUSH1 0x17 SWAP2 SUB PUSH1 0x8 NOT DUP2 ADD DUP6 MSTORE ADD DUP4 PUSH3 0xD4 JUMP JUMPDEST SWAP1 SWAP2 SWAP4 SWAP3 POP PUSH1 0xD PUSH1 0x0 MSTORE DUP2 PUSH1 0x0 KECCAK256 SWAP1 PUSH1 0x0 SWAP2 JUMPDEST DUP6 DUP4 LT PUSH3 0x476 JUMPI POP POP POP POP DUP1 PUSH1 0x44 PUSH3 0x269 SWAP4 PUSH1 0x17 SWAP4 ADD ADD SWAP2 DUP2 SWAP4 PUSH3 0x403 JUMP JUMPDEST DUP1 SLOAD DUP9 DUP5 ADD PUSH1 0x44 ADD MSTORE DUP8 SWAP5 POP SWAP2 DUP4 ADD SWAP2 DUP2 ADD PUSH3 0x454 JUMP JUMPDEST SWAP1 POP PUSH1 0x17 SWAP5 POP PUSH1 0x44 SWAP3 POP PUSH3 0x269 SWAP6 SWAP4 SWAP2 POP PUSH1 0xFF NOT AND DUP3 DUP5 ADD MSTORE DUP1 ISZERO ISZERO MUL DUP3 ADD ADD SWAP2 DUP2 SWAP4 PUSH3 0x403 JUMP JUMPDEST SWAP1 PUSH3 0x269 PUSH1 0x64 PUSH1 0x40 MLOAD DUP1 SWAP5 PUSH32 0x68747470733A2F2F746573746E6574732E7461626C656C616E642E6E6574776F PUSH1 0x20 DUP4 ADD MSTORE PUSH32 0x726B2F71756572793F756E777261703D7472756526657874726163743D747275 PUSH1 0x40 DUP4 ADD MSTORE PUSH4 0x6526733D PUSH1 0xE0 SHL PUSH1 0x60 DUP4 ADD MSTORE PUSH3 0x532 DUP2 MLOAD DUP1 SWAP3 PUSH1 0x20 DUP7 DUP7 ADD SWAP2 ADD PUSH3 0x135 JUMP JUMPDEST DUP2 ADD SUB PUSH1 0x44 DUP2 ADD DUP6 MSTORE ADD DUP4 PUSH3 0xD4 JUMP JUMPDEST SWAP1 PUSH3 0x269 PUSH1 0x57 PUSH1 0x40 MLOAD DUP1 SWAP5 PUSH32 0x687474703A2F2F6C6F63616C686F73743A383038302F71756572793F756E7772 PUSH1 0x20 DUP4 ADD MSTORE PUSH32 0x61703D7472756526657874726163743D7472756526733D000000000000000000 PUSH1 0x40 DUP4 ADD MSTORE PUSH3 0x5B0 DUP2 MLOAD DUP1 SWAP3 PUSH1 0x20 DUP7 DUP7 ADD SWAP2 ADD PUSH3 0x135 JUMP JUMPDEST DUP2 ADD SUB PUSH1 0x37 DUP2 ADD DUP6 MSTORE ADD DUP4 PUSH3 0xD4 JUMP JUMPDEST DUP1 MLOAD SWAP2 SWAP5 SWAP4 SWAP3 SWAP2 PUSH1 0x1 PUSH1 0x1 PUSH1 0x40 SHL SUB DUP2 GT PUSH3 0x77F JUMPI JUMPDEST PUSH1 0x0 SWAP2 PUSH3 0x5F2 DUP3 PUSH3 0x5EC DUP6 SLOAD PUSH3 0x1D5 JUMP JUMPDEST PUSH3 0x22B JUMP JUMPDEST PUSH1 0x20 SWAP1 DUP2 PUSH1 0x1F DUP5 GT PUSH1 0x1 EQ PUSH3 0x6EA JUMPI POP SWAP2 DUP1 DUP5 SWAP3 PUSH3 0x6BA SWAP9 SWAP10 SWAP5 PUSH3 0x634 SWAP7 SWAP3 PUSH3 0x6DE JUMPI JUMPDEST POP POP DUP2 PUSH1 0x1 SHL SWAP2 PUSH1 0x0 NOT SWAP1 PUSH1 0x3 SHL SHR NOT AND OR SWAP1 SSTORE PUSH3 0x78F JUMP JUMPDEST PUSH3 0x63F CALLER PUSH3 0x984 JUMP JUMPDEST PUSH3 0x649 PUSH3 0x330 JUMP JUMPDEST PUSH1 0x9 DUP1 SLOAD PUSH1 0x1 PUSH1 0x1 PUSH1 0xA0 SHL SUB NOT AND PUSH1 0x1 PUSH1 0x1 PUSH1 0xA0 SHL SUB SWAP4 DUP5 AND OR SWAP1 SSTORE PUSH3 0x66F PUSH3 0x39F JUMP JUMPDEST CHAINID PUSH2 0x471 SUB PUSH3 0x6C9 JUMPI PUSH3 0x688 PUSH3 0x68E SWAP2 PUSH3 0x543 JUMP JUMPDEST PUSH3 0xFFE JUMP JUMPDEST PUSH3 0x698 PUSH3 0xBD8 JUMP JUMPDEST PUSH1 0x10 DUP1 SLOAD SWAP2 SWAP1 SWAP3 AND PUSH1 0x1 PUSH1 0x1 PUSH1 0xA0 SHL SUB AND PUSH1 0x1 PUSH1 0x1 PUSH1 0xA0 SHL SUB NOT SWAP1 SWAP2 AND OR SWAP1 SSTORE JUMP JUMPDEST PUSH3 0x269 PUSH1 0x1 PUSH1 0x8 SLOAD ADD PUSH1 0x8 SSTORE JUMP JUMPDEST PUSH3 0x688 PUSH3 0x6D8 SWAP2 PUSH3 0x4B8 JUMP JUMPDEST PUSH3 0x68E JUMP JUMPDEST ADD MLOAD SWAP1 POP CODESIZE DUP1 PUSH3 0x61A JUMP JUMPDEST PUSH1 0x0 DUP1 MSTORE SWAP2 SWAP1 PUSH1 0x1F NOT DUP5 AND PUSH32 0x290DECD9548B62A8D60345A988386FC84BA6BC95484008F6362F93160EF3E563 SWAP4 DUP7 SWAP1 JUMPDEST DUP3 DUP3 LT PUSH3 0x766 JUMPI POP POP SWAP3 PUSH1 0x1 SWAP3 DUP6 SWAP3 PUSH3 0x6BA SWAP11 SWAP12 SWAP7 PUSH3 0x634 SWAP9 SWAP7 LT PUSH3 0x74C JUMPI JUMPDEST POP POP POP DUP2 SHL ADD SWAP1 SSTORE PUSH3 0x78F JUMP JUMPDEST ADD MLOAD PUSH1 0x0 NOT PUSH1 0xF8 DUP5 PUSH1 0x3 SHL AND SHR NOT AND SWAP1 SSTORE CODESIZE DUP1 DUP1 PUSH3 0x73E JUMP JUMPDEST DUP1 PUSH1 0x1 DUP7 SWAP8 DUP3 SWAP5 SWAP8 DUP8 ADD MLOAD DUP2 SSTORE ADD SWAP7 ADD SWAP5 ADD SWAP1 PUSH3 0x71A JUMP JUMPDEST PUSH3 0x789 PUSH3 0xBD JUMP JUMPDEST PUSH3 0x5D8 JUMP JUMPDEST DUP1 MLOAD SWAP1 SWAP2 SWAP1 PUSH1 0x1 PUSH1 0x1 PUSH1 0x40 SHL SUB DUP2 GT PUSH3 0x881 JUMPI JUMPDEST PUSH1 0x1 SWAP1 PUSH3 0x7BE DUP2 PUSH3 0x7B8 DUP5 SLOAD PUSH3 0x1D5 JUMP JUMPDEST PUSH3 0x2B4 JUMP JUMPDEST PUSH1 0x20 DUP1 PUSH1 0x1F DUP4 GT PUSH1 0x1 EQ PUSH3 0x7FC JUMPI POP DUP2 SWAP3 SWAP4 SWAP5 PUSH1 0x0 SWAP3 PUSH3 0x7F0 JUMPI JUMPDEST POP POP PUSH1 0x0 NOT PUSH1 0x3 DUP4 SWAP1 SHL SHR NOT AND SWAP1 DUP3 SHL OR SWAP1 SSTORE JUMP JUMPDEST ADD MLOAD SWAP1 POP CODESIZE DUP1 PUSH3 0x7DB JUMP JUMPDEST PUSH1 0x1 PUSH1 0x0 MSTORE PUSH1 0x1F NOT DUP4 AND SWAP6 SWAP1 SWAP2 SWAP1 PUSH32 0xB10E2D527612073B26EECDFD717E6A320CF44B4AFAC2B0732D9FCBE2B7FA0CF6 SWAP3 PUSH1 0x0 SWAP1 JUMPDEST DUP9 DUP3 LT PUSH3 0x869 JUMPI POP POP DUP4 DUP6 SWAP7 SWAP8 LT PUSH3 0x84F JUMPI JUMPDEST POP POP POP DUP2 SHL ADD SWAP1 SSTORE JUMP JUMPDEST ADD MLOAD PUSH1 0x0 NOT PUSH1 0xF8 DUP5 PUSH1 0x3 SHL AND SHR NOT AND SWAP1 SSTORE CODESIZE DUP1 DUP1 PUSH3 0x845 JUMP JUMPDEST DUP1 DUP8 DUP6 SWAP7 DUP3 SWAP5 SWAP7 DUP7 ADD MLOAD DUP2 SSTORE ADD SWAP6 ADD SWAP4 ADD SWAP1 PUSH3 0x830 JUMP JUMPDEST PUSH3 0x88B PUSH3 0xBD JUMP JUMPDEST PUSH3 0x7A4 JUMP JUMPDEST DUP1 MLOAD SWAP1 SWAP2 SWAP1 PUSH1 0x1 PUSH1 0x1 PUSH1 0x40 SHL SUB DUP2 GT PUSH3 0x974 JUMPI JUMPDEST PUSH3 0x8BE DUP2 PUSH3 0x8B8 PUSH1 0xD SLOAD PUSH3 0x1D5 JUMP JUMPDEST PUSH3 0x2F2 JUMP JUMPDEST PUSH1 0x20 DUP1 PUSH1 0x1F DUP4 GT PUSH1 0x1 EQ PUSH3 0x8FD JUMPI POP DUP2 SWAP3 SWAP4 PUSH1 0x0 SWAP3 PUSH3 0x8F1 JUMPI JUMPDEST POP POP DUP2 PUSH1 0x1 SHL SWAP2 PUSH1 0x0 NOT SWAP1 PUSH1 0x3 SHL SHR NOT AND OR PUSH1 0xD SSTORE JUMP JUMPDEST ADD MLOAD SWAP1 POP CODESIZE DUP1 PUSH3 0x8DA JUMP JUMPDEST PUSH1 0xD PUSH1 0x0 MSTORE PUSH1 0x1F NOT DUP4 AND SWAP5 SWAP1 SWAP2 SWAP1 PUSH1 0x0 DUP1 MLOAD PUSH1 0x20 PUSH3 0x6929 DUP4 CODECOPY DUP2 MLOAD SWAP2 MSTORE SWAP3 PUSH1 0x0 SWAP1 JUMPDEST DUP8 DUP3 LT PUSH3 0x95B JUMPI POP POP DUP4 PUSH1 0x1 SWAP6 SWAP7 LT PUSH3 0x941 JUMPI JUMPDEST POP POP POP DUP2 SHL ADD PUSH1 0xD SSTORE JUMP JUMPDEST ADD MLOAD PUSH1 0x0 NOT PUSH1 0xF8 DUP5 PUSH1 0x3 SHL AND SHR NOT AND SWAP1 SSTORE CODESIZE DUP1 DUP1 PUSH3 0x936 JUMP JUMPDEST DUP1 PUSH1 0x1 DUP6 SWAP7 DUP3 SWAP5 SWAP7 DUP7 ADD MLOAD DUP2 SSTORE ADD SWAP6 ADD SWAP4 ADD SWAP1 PUSH3 0x920 JUMP JUMPDEST PUSH3 0x97E PUSH3 0xBD JUMP JUMPDEST PUSH3 0x8A6 JUMP JUMPDEST PUSH1 0x7 DUP1 SLOAD PUSH1 0x1 PUSH1 0x1 PUSH1 0xA0 SHL SUB SWAP3 DUP4 AND PUSH1 0x1 PUSH1 0x1 PUSH1 0xA0 SHL SUB NOT DUP3 AND DUP2 OR SWAP1 SWAP3 SSTORE SWAP1 SWAP2 AND PUSH32 0x8BE0079C531659141344CD1FD0A4F28419497F9722A3DAAFE3B4186F6B6457E0 PUSH1 0x0 DUP1 LOG3 JUMP JUMPDEST PUSH1 0x40 MLOAD SWAP1 PUSH1 0x0 DUP3 PUSH1 0xF SLOAD SWAP2 PUSH3 0x9E3 DUP4 PUSH3 0x1D5 JUMP JUMPDEST DUP1 DUP4 MSTORE PUSH1 0x1 SWAP4 DUP1 DUP6 AND SWAP1 DUP2 ISZERO PUSH3 0xA60 JUMPI POP PUSH1 0x1 EQ PUSH3 0xA0D JUMPI JUMPDEST POP PUSH3 0x269 SWAP3 POP SUB DUP4 PUSH3 0xD4 JUMP JUMPDEST PUSH1 0xF PUSH1 0x0 SWAP1 DUP2 MSTORE PUSH1 0x0 DUP1 MLOAD PUSH1 0x20 PUSH3 0x6949 DUP4 CODECOPY DUP2 MLOAD SWAP2 MSTORE SWAP5 PUSH1 0x20 SWAP4 POP SWAP1 SWAP2 SWAP1 JUMPDEST DUP2 DUP4 LT PUSH3 0xA47 JUMPI POP POP PUSH3 0x269 SWAP4 POP DUP3 ADD ADD CODESIZE PUSH3 0x9FE JUMP JUMPDEST DUP6 SLOAD DUP9 DUP5 ADD DUP6 ADD MSTORE SWAP5 DUP6 ADD SWAP5 DUP8 SWAP5 POP SWAP2 DUP4 ADD SWAP2 PUSH3 0xA2D JUMP JUMPDEST SWAP1 POP PUSH3 0x269 SWAP5 POP PUSH1 0x20 SWAP3 POP PUSH1 0xFF NOT AND DUP3 DUP5 ADD MSTORE ISZERO ISZERO PUSH1 0x5 SHL DUP3 ADD ADD CODESIZE PUSH3 0x9FE JUMP JUMPDEST PUSH1 0x40 MLOAD SWAP1 PUSH1 0x0 DUP3 PUSH1 0xD SLOAD SWAP2 PUSH3 0xA99 DUP4 PUSH3 0x1D5 JUMP JUMPDEST DUP1 DUP4 MSTORE PUSH1 0x1 SWAP4 DUP1 DUP6 AND SWAP1 DUP2 ISZERO PUSH3 0xA60 JUMPI POP PUSH1 0x1 EQ PUSH3 0xAC2 JUMPI POP PUSH3 0x269 SWAP3 POP SUB DUP4 PUSH3 0xD4 JUMP JUMPDEST PUSH1 0xD PUSH1 0x0 SWAP1 DUP2 MSTORE PUSH1 0x0 DUP1 MLOAD PUSH1 0x20 PUSH3 0x6929 DUP4 CODECOPY DUP2 MLOAD SWAP2 MSTORE SWAP5 PUSH1 0x20 SWAP4 POP SWAP1 SWAP2 SWAP1 JUMPDEST DUP2 DUP4 LT PUSH3 0xAFC JUMPI POP POP PUSH3 0x269 SWAP4 POP DUP3 ADD ADD CODESIZE PUSH3 0x9FE JUMP JUMPDEST DUP6 SLOAD DUP9 DUP5 ADD DUP6 ADD MSTORE SWAP5 DUP6 ADD SWAP5 DUP8 SWAP5 POP SWAP2 DUP4 ADD SWAP2 PUSH3 0xAE2 JUMP JUMPDEST SWAP1 DUP2 PUSH1 0x20 SWAP2 SUB SLT PUSH3 0xA8 JUMPI MLOAD SWAP1 JUMP JUMPDEST SWAP1 PUSH1 0x20 SWAP2 PUSH3 0xB40 DUP2 MLOAD DUP1 SWAP3 DUP2 DUP6 MSTORE DUP6 DUP1 DUP7 ADD SWAP2 ADD PUSH3 0x135 JUMP JUMPDEST PUSH1 0x1F ADD PUSH1 0x1F NOT AND ADD ADD SWAP1 JUMP JUMPDEST PUSH1 0x1 PUSH1 0x1 PUSH1 0xA0 SHL SUB SWAP1 SWAP2 AND DUP2 MSTORE PUSH1 0x40 PUSH1 0x20 DUP3 ADD DUP2 SWAP1 MSTORE PUSH3 0x1A4 SWAP3 SWAP2 ADD SWAP1 PUSH3 0xB25 JUMP JUMPDEST POP PUSH1 0x40 MLOAD RETURNDATASIZE PUSH1 0x0 DUP3 RETURNDATACOPY RETURNDATASIZE SWAP1 REVERT JUMPDEST PUSH1 0x40 DUP1 MLOAD SWAP2 SWAP1 DUP3 ADD PUSH1 0x1 PUSH1 0x1 PUSH1 0x40 SHL SUB DUP2 GT DUP4 DUP3 LT OR PUSH3 0xBC8 JUMPI JUMPDEST PUSH1 0x40 MSTORE PUSH1 0x20 DUP3 MSTORE PUSH32 0x4372656174656420636F6D6D756E6974696573207461626C653A202573202573 PUSH1 0x20 DUP4 ADD MSTORE JUMP JUMPDEST PUSH3 0xBD2 PUSH3 0xBD JUMP JUMPDEST PUSH3 0xB99 JUMP JUMPDEST PUSH3 0xCAA PUSH1 0x0 PUSH1 0x20 PUSH3 0xC8E PUSH1 0x1 DUP1 PUSH1 0xA0 SHL SUB PUSH1 0x9 SLOAD AND PUSH3 0xC70 PUSH1 0x40 MLOAD PUSH1 0x60 DUP2 ADD DUP2 DUP2 LT PUSH1 0x1 DUP1 PUSH1 0x40 SHL SUB DUP3 GT OR PUSH3 0xD33 JUMPI JUMPDEST PUSH1 0x40 MSTORE PUSH1 0x3F DUP2 MSTORE PUSH32 0x636F6D6D756E697479496420696E7465676572207072696D617279206B65792C DUP6 DUP3 ADD MSTORE PUSH32 0x206D6574616461746120746578742C20696E646578656420696E746567657200 PUSH1 0x40 DUP3 ADD MSTORE PUSH3 0xC69 PUSH3 0x9CD JUMP JUMPDEST SWAP1 PUSH3 0xF5B JUMP JUMPDEST PUSH1 0x40 MLOAD SWAP5 DUP6 DUP1 SWAP5 DUP2 SWAP4 PUSH4 0x3A9151B PUSH1 0xE4 SHL DUP4 MSTORE ADDRESS PUSH1 0x4 DUP5 ADD PUSH3 0xB4C JUMP JUMPDEST SUB SWAP3 GAS CALL SWAP1 DUP2 ISZERO PUSH3 0xD23 JUMPI JUMPDEST PUSH1 0x0 SWAP2 PUSH3 0xCEE JUMPI JUMPDEST POP PUSH1 0xE SSTORE JUMP JUMPDEST PUSH3 0xCCB PUSH3 0xCC5 PUSH1 0xE SLOAD PUSH3 0xCBF PUSH3 0x9CD JUMP JUMPDEST PUSH3 0xD43 JUMP JUMPDEST PUSH3 0x891 JUMP JUMPDEST PUSH3 0x269 PUSH1 0xE SLOAD PUSH3 0xCDC PUSH3 0xB7D JUMP JUMPDEST SWAP1 PUSH3 0xCE7 PUSH3 0xA83 JUMP JUMPDEST SWAP2 PUSH3 0x1102 JUMP JUMPDEST PUSH3 0xD14 SWAP2 POP PUSH1 0x20 RETURNDATASIZE DUP2 GT PUSH3 0xD1B JUMPI JUMPDEST PUSH3 0xD0B DUP2 DUP4 PUSH3 0xD4 JUMP JUMPDEST DUP2 ADD SWAP1 PUSH3 0xB15 JUMP JUMPDEST CODESIZE PUSH3 0xCA4 JUMP JUMPDEST POP RETURNDATASIZE PUSH3 0xCFF JUMP JUMPDEST PUSH3 0xD2D PUSH3 0xB70 JUMP JUMPDEST PUSH3 0xC9B JUMP JUMPDEST PUSH3 0xD3D PUSH3 0xBD JUMP JUMPDEST PUSH3 0xC0D JUMP JUMPDEST PUSH1 0x22 PUSH3 0x1A4 SWAP2 PUSH3 0xD60 PUSH3 0xD59 CHAINID PUSH3 0xE04 JUMP JUMPDEST SWAP5 PUSH3 0xE04 JUMP JUMPDEST PUSH1 0x40 MLOAD SWAP5 DUP3 PUSH3 0xD7B DUP8 SWAP5 MLOAD DUP1 SWAP3 PUSH1 0x20 DUP1 DUP9 ADD SWAP2 ADD PUSH3 0x135 JUMP JUMPDEST DUP4 ADD SWAP1 PUSH1 0x5F PUSH1 0xF8 SHL SWAP2 DUP3 PUSH1 0x20 DUP3 ADD MSTORE PUSH3 0xDA0 DUP3 MLOAD DUP1 SWAP4 PUSH1 0x20 PUSH1 0x21 DUP6 ADD SWAP2 ADD PUSH3 0x135 JUMP JUMPDEST ADD SWAP1 PUSH1 0x21 DUP3 ADD MSTORE PUSH3 0xDBC DUP3 MLOAD DUP1 SWAP4 PUSH1 0x20 DUP8 DUP6 ADD SWAP2 ADD PUSH3 0x135 JUMP JUMPDEST ADD SUB PUSH1 0x2 DUP2 ADD DUP5 MSTORE ADD DUP3 PUSH3 0xD4 JUMP JUMPDEST SWAP1 PUSH3 0xDD8 DUP3 PUSH3 0x107 JUMP JUMPDEST PUSH3 0xDE7 PUSH1 0x40 MLOAD SWAP2 DUP3 PUSH3 0xD4 JUMP JUMPDEST DUP3 DUP2 MSTORE DUP1 SWAP3 PUSH3 0xDFA PUSH1 0x1F NOT SWAP2 PUSH3 0x107 JUMP JUMPDEST ADD SWAP1 PUSH1 0x20 CALLDATASIZE SWAP2 ADD CALLDATACOPY JUMP JUMPDEST DUP1 PUSH1 0x0 SWAP2 PUSH27 0x184F03E93FF9F4DAA797ED6E38ED64BF6A1F010000000000000000 DUP1 DUP3 LT ISZERO PUSH3 0xF4C JUMPI JUMPDEST POP PUSH14 0x4EE2D6D415B85ACEF8100000000 DUP1 DUP4 LT ISZERO PUSH3 0xF3C JUMPI JUMPDEST POP PUSH7 0x2386F26FC10000 DUP1 DUP4 LT ISZERO PUSH3 0xF2C JUMPI JUMPDEST POP PUSH4 0x5F5E100 DUP1 DUP4 LT ISZERO PUSH3 0xF1C JUMPI JUMPDEST POP PUSH2 0x2710 DUP1 DUP4 LT ISZERO PUSH3 0xF0C JUMPI JUMPDEST POP PUSH1 0x64 DUP3 LT ISZERO PUSH3 0xEFB JUMPI JUMPDEST PUSH1 0xA DUP1 SWAP3 LT ISZERO PUSH3 0xEF0 JUMPI JUMPDEST PUSH1 0x1 SWAP1 DUP2 PUSH1 0x21 PUSH3 0xEA4 DUP3 DUP8 ADD PUSH3 0xDCC JUMP JUMPDEST SWAP6 DUP7 ADD ADD SWAP1 JUMPDEST PUSH3 0xEB7 JUMPI JUMPDEST POP POP POP POP SWAP1 JUMP JUMPDEST PUSH1 0x0 NOT ADD SWAP1 DUP4 SWAP1 PUSH16 0x181899199A1A9B1B9C1CB0B131B232B3 PUSH1 0x81 SHL DUP3 DUP3 MOD BYTE DUP4 MSTORE8 DIV SWAP2 DUP3 ISZERO PUSH3 0xEEA JUMPI SWAP2 SWAP1 DUP3 PUSH3 0xEAA JUMP JUMPDEST PUSH3 0xEB0 JUMP JUMPDEST SWAP2 PUSH1 0x1 ADD SWAP2 PUSH3 0xE91 JUMP JUMPDEST SWAP2 SWAP1 PUSH1 0x64 PUSH1 0x2 SWAP2 DIV SWAP2 ADD SWAP2 PUSH3 0xE85 JUMP JUMPDEST PUSH1 0x4 SWAP2 SWAP4 SWAP3 DIV SWAP2 ADD SWAP2 CODESIZE PUSH3 0xE79 JUMP JUMPDEST PUSH1 0x8 SWAP2 SWAP4 SWAP3 DIV SWAP2 ADD SWAP2 CODESIZE PUSH3 0xE6B JUMP JUMPDEST PUSH1 0x10 SWAP2 SWAP4 SWAP3 DIV SWAP2 ADD SWAP2 CODESIZE PUSH3 0xE5B JUMP JUMPDEST PUSH1 0x20 SWAP2 SWAP4 SWAP3 DIV SWAP2 ADD SWAP2 CODESIZE PUSH3 0xE48 JUMP JUMPDEST PUSH1 0x40 SWAP4 POP DUP2 DIV SWAP2 POP CODESIZE PUSH3 0xE2E JUMP JUMPDEST SWAP1 PUSH1 0x30 PUSH3 0x1A4 SWAP2 PUSH3 0xF6E CHAINID PUSH3 0xE04 JUMP JUMPDEST SWAP4 PUSH1 0x40 MLOAD SWAP5 DUP6 SWAP3 PUSH13 0x21A922A0AA22902A20A126229 PUSH1 0x9D SHL PUSH1 0x20 DUP6 ADD MSTORE PUSH3 0xFA1 DUP2 MLOAD DUP1 SWAP3 PUSH1 0x20 PUSH1 0x2D DUP9 ADD SWAP2 ADD PUSH3 0x135 JUMP JUMPDEST DUP4 ADD PUSH1 0x5F PUSH1 0xF8 SHL PUSH1 0x2D DUP3 ADD MSTORE PUSH3 0xFC3 DUP3 MLOAD DUP1 SWAP4 PUSH1 0x20 PUSH1 0x2E DUP6 ADD SWAP2 ADD PUSH3 0x135 JUMP JUMPDEST ADD PUSH1 0x5 PUSH1 0xFB SHL PUSH1 0x2E DUP3 ADD MSTORE PUSH3 0xFE4 DUP3 MLOAD DUP1 SWAP4 PUSH1 0x20 PUSH1 0x2F DUP6 ADD SWAP2 ADD PUSH3 0x135 JUMP JUMPDEST ADD PUSH1 0x29 PUSH1 0xF8 SHL PUSH1 0x2F DUP3 ADD MSTORE SUB PUSH1 0x10 DUP2 ADD DUP5 MSTORE ADD DUP3 PUSH3 0xD4 JUMP JUMPDEST DUP1 MLOAD SWAP1 SWAP2 SWAP1 PUSH1 0x1 PUSH1 0x1 PUSH1 0x40 SHL SUB DUP2 GT PUSH3 0x10F2 JUMPI JUMPDEST PUSH3 0x102B DUP2 PUSH3 0x1025 PUSH1 0xA SLOAD PUSH3 0x1D5 JUMP JUMPDEST PUSH3 0x276 JUMP JUMPDEST PUSH1 0x20 DUP1 PUSH1 0x1F DUP4 GT PUSH1 0x1 EQ PUSH3 0x106A JUMPI POP DUP2 SWAP3 SWAP4 PUSH1 0x0 SWAP3 PUSH3 0x105E JUMPI JUMPDEST POP POP DUP2 PUSH1 0x1 SHL SWAP2 PUSH1 0x0 NOT SWAP1 PUSH1 0x3 SHL SHR NOT AND OR PUSH1 0xA SSTORE JUMP JUMPDEST ADD MLOAD SWAP1 POP CODESIZE DUP1 PUSH3 0x1047 JUMP JUMPDEST PUSH1 0xA PUSH1 0x0 MSTORE PUSH1 0x1F NOT DUP4 AND SWAP5 SWAP1 SWAP2 SWAP1 PUSH32 0xC65A7BB8D6351C1CF70C95A316CC6A92839C986682D98BC35F958F4883F9D2A8 SWAP3 PUSH1 0x0 SWAP1 JUMPDEST DUP8 DUP3 LT PUSH3 0x10D9 JUMPI POP POP DUP4 PUSH1 0x1 SWAP6 SWAP7 LT PUSH3 0x10BF JUMPI JUMPDEST POP POP POP DUP2 SHL ADD PUSH1 0xA SSTORE JUMP JUMPDEST ADD MLOAD PUSH1 0x0 NOT PUSH1 0xF8 DUP5 PUSH1 0x3 SHL AND SHR NOT AND SWAP1 SSTORE CODESIZE DUP1 DUP1 PUSH3 0x10B4 JUMP JUMPDEST DUP1 PUSH1 0x1 DUP6 SWAP7 DUP3 SWAP5 SWAP7 DUP7 ADD MLOAD DUP2 SSTORE ADD SWAP6 ADD SWAP4 ADD SWAP1 PUSH3 0x109E JUMP JUMPDEST PUSH3 0x10FC PUSH3 0xBD JUMP JUMPDEST PUSH3 0x1013 JUMP JUMPDEST PUSH1 0x0 SWAP3 SWAP2 PUSH3 0x1162 DUP5 SWAP4 PUSH3 0x1153 PUSH1 0x40 MLOAD SWAP4 DUP5 SWAP3 PUSH3 0x113B PUSH1 0x20 DUP6 ADD SWAP8 PUSH4 0x5970E089 PUSH1 0xE0 SHL DUP10 MSTORE PUSH1 0x60 PUSH1 0x24 DUP8 ADD MSTORE PUSH1 0x84 DUP7 ADD SWAP1 PUSH3 0xB25 JUMP JUMPDEST SWAP2 PUSH1 0x44 DUP6 ADD MSTORE PUSH1 0x23 NOT DUP5 DUP4 SUB ADD PUSH1 0x64 DUP6 ADD MSTORE PUSH3 0xB25 JUMP JUMPDEST SUB PUSH1 0x1F NOT DUP2 ADD DUP4 MSTORE DUP3 PUSH3 0xD4 JUMP JUMPDEST MLOAD SWAP1 PUSH11 0x636F6E736F6C652E6C6F67 GAS STATICCALL POP JUMP INVALID PUSH1 0x80 PUSH1 0x40 MSTORE PUSH1 0x4 CALLDATASIZE LT ISZERO PUSH3 0x14 JUMPI JUMPDEST PUSH1 0x0 DUP1 REVERT JUMPDEST PUSH1 0x0 CALLDATALOAD PUSH1 0xE0 SHR DUP1 PUSH4 0x1FFC9A7 EQ PUSH3 0x251 JUMPI DUP1 PUSH4 0x6FDDE03 EQ PUSH3 0x246 JUMPI DUP1 PUSH4 0x81812FC EQ PUSH3 0x23B JUMPI DUP1 PUSH4 0x95EA7B3 EQ PUSH3 0x230 JUMPI DUP1 PUSH4 0xCE84EBE EQ PUSH3 0x225 JUMPI DUP1 PUSH4 0x150B7A02 EQ PUSH3 0x21A JUMPI DUP1 PUSH4 0x23B872DD EQ PUSH3 0x20F JUMPI DUP1 PUSH4 0x42842E0E EQ PUSH3 0x204 JUMPI DUP1 PUSH4 0x5C7BC4C2 EQ PUSH3 0x1F9 JUMPI DUP1 PUSH4 0x6352211E EQ PUSH3 0x1EE JUMPI DUP1 PUSH4 0x70A08231 EQ PUSH3 0x1E3 JUMPI DUP1 PUSH4 0x715018A6 EQ PUSH3 0x1D8 JUMPI DUP1 PUSH4 0x8DA5CB5B EQ PUSH3 0x1CD JUMPI DUP1 PUSH4 0x8E07FA90 EQ PUSH3 0x1C2 JUMPI DUP1 PUSH4 0x93FCF4A6 EQ PUSH3 0x1B7 JUMPI DUP1 PUSH4 0x95D89B41 EQ PUSH3 0x1AC JUMPI DUP1 PUSH4 0xA22CB465 EQ PUSH3 0x1A1 JUMPI DUP1 PUSH4 0xB17588E4 EQ PUSH3 0x196 JUMPI DUP1 PUSH4 0xB4D4B6A0 EQ PUSH3 0x18B JUMPI DUP1 PUSH4 0xB88D4FDE EQ PUSH3 0x180 JUMPI DUP1 PUSH4 0xBD978DA1 EQ PUSH3 0x175 JUMPI DUP1 PUSH4 0xC87B56DD EQ PUSH3 0x16A JUMPI DUP1 PUSH4 0xE590B56A EQ PUSH3 0x15F JUMPI DUP1 PUSH4 0xE985E9C5 EQ PUSH3 0x154 JUMPI PUSH4 0xF2FDE38B EQ PUSH3 0x14A JUMPI PUSH1 0x0 DUP1 REVERT JUMPDEST PUSH3 0xF PUSH3 0x1563 JUMP JUMPDEST POP PUSH3 0xF PUSH3 0x1504 JUMP JUMPDEST POP PUSH3 0xF PUSH3 0x1437 JUMP JUMPDEST POP PUSH3 0xF PUSH3 0x13C7 JUMP JUMPDEST POP PUSH3 0xF PUSH3 0x1325 JUMP JUMPDEST POP PUSH3 0xF PUSH3 0x1305 JUMP JUMPDEST POP PUSH3 0xF PUSH3 0x11F0 JUMP JUMPDEST POP PUSH3 0xF PUSH3 0x11C1 JUMP JUMPDEST POP PUSH3 0xF PUSH3 0x10E1 JUMP JUMPDEST POP PUSH3 0xF PUSH3 0x104D JUMP JUMPDEST POP PUSH3 0xF PUSH3 0xFAB JUMP JUMPDEST POP PUSH3 0xF PUSH3 0xB39 JUMP JUMPDEST POP PUSH3 0xF PUSH3 0xA67 JUMP JUMPDEST POP PUSH3 0xF PUSH3 0xA15 JUMP JUMPDEST POP PUSH3 0xF PUSH3 0x96D JUMP JUMPDEST POP PUSH3 0xF PUSH3 0x94A JUMP JUMPDEST POP PUSH3 0xF PUSH3 0x929 JUMP JUMPDEST POP PUSH3 0xF PUSH3 0x8F9 JUMP JUMPDEST POP PUSH3 0xF PUSH3 0x8C6 JUMP JUMPDEST POP PUSH3 0xF PUSH3 0x867 JUMP JUMPDEST POP PUSH3 0xF PUSH3 0x6E3 JUMP JUMPDEST POP PUSH3 0xF PUSH3 0x480 JUMP JUMPDEST POP PUSH3 0xF PUSH3 0x434 JUMP JUMPDEST POP PUSH3 0xF PUSH3 0x354 JUMP JUMPDEST POP PUSH3 0xF PUSH3 0x26F JUMP JUMPDEST PUSH1 0x1 PUSH1 0x1 PUSH1 0xE0 SHL SUB NOT DUP2 AND SUB PUSH3 0xF JUMPI JUMP JUMPDEST POP CALLVALUE PUSH3 0xF JUMPI PUSH1 0x20 CALLDATASIZE PUSH1 0x3 NOT ADD SLT PUSH3 0xF JUMPI PUSH1 0x20 PUSH1 0x4 CALLDATALOAD PUSH3 0x293 DUP2 PUSH3 0x25C JUMP JUMPDEST PUSH4 0xFFFFFFFF PUSH1 0xE0 SHL AND PUSH4 0x80AC58CD PUSH1 0xE0 SHL DUP2 EQ SWAP1 DUP2 ISZERO PUSH3 0x2D4 JUMPI JUMPDEST DUP2 ISZERO PUSH3 0x2C2 JUMPI JUMPDEST POP PUSH1 0x40 MLOAD SWAP1 ISZERO ISZERO DUP2 MSTORE RETURN JUMPDEST PUSH4 0x1FFC9A7 PUSH1 0xE0 SHL EQ SWAP1 POP CODESIZE PUSH3 0x2B7 JUMP JUMPDEST PUSH4 0x5B5E139F PUSH1 0xE0 SHL DUP2 EQ SWAP2 POP PUSH3 0x2AF JUMP JUMPDEST PUSH1 0x0 SWAP2 SUB SLT PUSH3 0xF JUMPI JUMP JUMPDEST PUSH1 0x0 JUMPDEST DUP4 DUP2 LT PUSH3 0x306 JUMPI POP POP PUSH1 0x0 SWAP2 ADD MSTORE JUMP JUMPDEST DUP2 DUP2 ADD MLOAD DUP4 DUP3 ADD MSTORE PUSH1 0x20 ADD PUSH3 0x2F5 JUMP JUMPDEST SWAP1 PUSH1 0x20 SWAP2 PUSH3 0x332 DUP2 MLOAD DUP1 SWAP3 DUP2 DUP6 MSTORE DUP6 DUP1 DUP7 ADD SWAP2 ADD PUSH3 0x2F2 JUMP JUMPDEST PUSH1 0x1F ADD PUSH1 0x1F NOT AND ADD ADD SWAP1 JUMP JUMPDEST SWAP1 PUSH1 0x20 PUSH3 0x351 SWAP3 DUP2 DUP2 MSTORE ADD SWAP1 PUSH3 0x317 JUMP JUMPDEST SWAP1 JUMP JUMPDEST POP CALLVALUE PUSH3 0xF JUMPI PUSH1 0x0 DUP1 PUSH1 0x3 NOT CALLDATASIZE ADD SLT PUSH3 0x425 JUMPI PUSH1 0x40 MLOAD DUP2 DUP1 SLOAD PUSH3 0x37A DUP2 PUSH3 0xCD3 JUMP JUMPDEST DUP1 DUP5 MSTORE SWAP1 PUSH1 0x1 SWAP1 DUP2 DUP2 AND SWAP1 DUP2 ISZERO PUSH3 0x3FA JUMPI POP PUSH1 0x1 EQ PUSH3 0x3BA JUMPI JUMPDEST PUSH3 0x3B6 DUP5 PUSH3 0x3A9 DUP2 DUP9 SUB DUP3 PUSH3 0x617 JUMP JUMPDEST PUSH1 0x40 MLOAD SWAP2 DUP3 SWAP2 DUP3 PUSH3 0x33E JUMP JUMPDEST SUB SWAP1 RETURN JUMPDEST SWAP4 POP DUP2 DUP1 MSTORE PUSH1 0x20 SWAP4 DUP5 DUP4 KECCAK256 JUMPDEST DUP3 DUP5 LT PUSH3 0x3E6 JUMPI POP POP POP DUP2 PUSH3 0x3B6 SWAP4 PUSH3 0x3A9 SWAP3 DUP3 ADD ADD SWAP4 PUSH3 0x396 JUMP JUMPDEST DUP1 SLOAD DUP6 DUP6 ADD DUP8 ADD MSTORE SWAP3 DUP6 ADD SWAP3 DUP2 ADD PUSH3 0x3C6 JUMP JUMPDEST PUSH3 0x3B6 SWAP7 POP PUSH3 0x3A9 SWAP5 POP PUSH1 0x20 SWAP3 POP DUP6 SWAP4 SWAP2 POP PUSH1 0xFF NOT AND DUP3 DUP5 ADD MSTORE ISZERO ISZERO PUSH1 0x5 SHL DUP3 ADD ADD SWAP4 PUSH3 0x396 JUMP JUMPDEST DUP1 REVERT JUMPDEST PUSH1 0x1 PUSH1 0x1 PUSH1 0xA0 SHL SUB AND SWAP1 JUMP JUMPDEST POP CALLVALUE PUSH3 0xF JUMPI PUSH1 0x20 CALLDATASIZE PUSH1 0x3 NOT ADD SLT PUSH3 0xF JUMPI PUSH1 0x20 PUSH3 0x457 PUSH1 0x4 CALLDATALOAD PUSH3 0x17A6 JUMP JUMPDEST PUSH1 0x40 MLOAD PUSH1 0x1 PUSH1 0x1 PUSH1 0xA0 SHL SUB SWAP1 SWAP2 AND DUP2 MSTORE RETURN JUMPDEST PUSH1 0x4 CALLDATALOAD SWAP1 PUSH1 0x1 PUSH1 0x1 PUSH1 0xA0 SHL SUB DUP3 AND DUP3 SUB PUSH3 0xF JUMPI JUMP JUMPDEST POP CALLVALUE PUSH3 0xF JUMPI PUSH1 0x40 CALLDATASIZE PUSH1 0x3 NOT ADD SLT PUSH3 0xF JUMPI PUSH3 0x49E PUSH3 0x469 JUMP JUMPDEST PUSH1 0x24 CALLDATALOAD PUSH3 0x4AC DUP2 PUSH3 0x170E JUMP JUMPDEST SWAP2 PUSH1 0x1 PUSH1 0x1 PUSH1 0xA0 SHL SUB DUP1 DUP5 AND SWAP1 DUP3 AND DUP2 EQ PUSH3 0x51E JUMPI PUSH3 0x4E4 SWAP4 PUSH3 0x4DE SWAP2 CALLER EQ SWAP1 DUP2 ISZERO PUSH3 0x4E6 JUMPI JUMPDEST POP PUSH3 0x1733 JUMP JUMPDEST PUSH3 0x1AAF JUMP JUMPDEST STOP JUMPDEST PUSH1 0x1 PUSH1 0x1 PUSH1 0xA0 SHL SUB AND PUSH1 0x0 SWAP1 DUP2 MSTORE PUSH1 0x5 PUSH1 0x20 MSTORE PUSH1 0x40 SWAP1 KECCAK256 PUSH3 0x517 SWAP2 POP PUSH3 0x510 SWAP1 CALLER SWAP1 PUSH3 0x16AF JUMP JUMPDEST SLOAD PUSH1 0xFF AND SWAP1 JUMP JUMPDEST CODESIZE PUSH3 0x4D7 JUMP JUMPDEST PUSH1 0x40 MLOAD PUSH3 0x461BCD PUSH1 0xE5 SHL DUP2 MSTORE PUSH1 0x20 PUSH1 0x4 DUP3 ADD MSTORE PUSH1 0x21 PUSH1 0x24 DUP3 ADD MSTORE PUSH32 0x4552433732313A20617070726F76616C20746F2063757272656E74206F776E65 PUSH1 0x44 DUP3 ADD MSTORE PUSH1 0x39 PUSH1 0xF9 SHL PUSH1 0x64 DUP3 ADD MSTORE PUSH1 0x84 SWAP1 REVERT JUMPDEST POP PUSH4 0x4E487B71 PUSH1 0xE0 SHL PUSH1 0x0 MSTORE PUSH1 0x41 PUSH1 0x4 MSTORE PUSH1 0x24 PUSH1 0x0 REVERT JUMPDEST PUSH1 0x60 DUP2 ADD SWAP1 DUP2 LT PUSH1 0x1 PUSH1 0x1 PUSH1 0x40 SHL SUB DUP3 GT OR PUSH3 0x5A0 JUMPI PUSH1 0x40 MSTORE JUMP JUMPDEST PUSH3 0x5AA PUSH3 0x56D JUMP JUMPDEST PUSH1 0x40 MSTORE JUMP JUMPDEST PUSH1 0x80 DUP2 ADD SWAP1 DUP2 LT PUSH1 0x1 PUSH1 0x1 PUSH1 0x40 SHL SUB DUP3 GT OR PUSH3 0x5A0 JUMPI PUSH1 0x40 MSTORE JUMP JUMPDEST PUSH1 0x1 PUSH1 0x1 PUSH1 0x40 SHL SUB DUP2 GT PUSH3 0x5A0 JUMPI PUSH1 0x40 MSTORE JUMP JUMPDEST PUSH1 0x20 DUP2 ADD SWAP1 DUP2 LT PUSH1 0x1 PUSH1 0x1 PUSH1 0x40 SHL SUB DUP3 GT OR PUSH3 0x5A0 JUMPI PUSH1 0x40 MSTORE JUMP JUMPDEST PUSH1 0x40 DUP2 ADD SWAP1 DUP2 LT PUSH1 0x1 PUSH1 0x1 PUSH1 0x40 SHL SUB DUP3 GT OR PUSH3 0x5A0 JUMPI PUSH1 0x40 MSTORE JUMP JUMPDEST PUSH1 0x1F SWAP1 SWAP2 ADD PUSH1 0x1F NOT AND DUP2 ADD SWAP1 PUSH1 0x1 PUSH1 0x1 PUSH1 0x40 SHL SUB DUP3 GT SWAP1 DUP3 LT OR PUSH3 0x5A0 JUMPI PUSH1 0x40 MSTORE JUMP JUMPDEST PUSH1 0x40 MLOAD SWAP1 PUSH3 0x64A DUP3 PUSH3 0x5AF JUMP JUMPDEST JUMP JUMPDEST PUSH1 0x40 MLOAD SWAP1 PUSH3 0x64A DUP3 PUSH3 0x584 JUMP JUMPDEST PUSH1 0x20 SWAP1 PUSH1 0x1 PUSH1 0x1 PUSH1 0x40 SHL SUB DUP2 GT PUSH3 0x679 JUMPI JUMPDEST PUSH1 0x1F ADD PUSH1 0x1F NOT AND ADD SWAP1 JUMP JUMPDEST PUSH3 0x683 PUSH3 0x56D JUMP JUMPDEST PUSH3 0x66E JUMP JUMPDEST SWAP3 SWAP2 SWAP3 PUSH3 0x697 DUP3 PUSH3 0x65B JUMP JUMPDEST SWAP2 PUSH3 0x6A7 PUSH1 0x40 MLOAD SWAP4 DUP5 PUSH3 0x617 JUMP JUMPDEST DUP3 SWAP5 DUP2 DUP5 MSTORE DUP2 DUP4 ADD GT PUSH3 0xF JUMPI DUP3 DUP2 PUSH1 0x20 SWAP4 DUP5 PUSH1 0x0 SWAP7 ADD CALLDATACOPY ADD ADD MSTORE JUMP JUMPDEST SWAP1 DUP1 PUSH1 0x1F DUP4 ADD SLT ISZERO PUSH3 0xF JUMPI DUP2 PUSH1 0x20 PUSH3 0x351 SWAP4 CALLDATALOAD SWAP2 ADD PUSH3 0x689 JUMP JUMPDEST POP CALLVALUE PUSH3 0xF JUMPI PUSH1 0x20 CALLDATASIZE PUSH1 0x3 NOT ADD SLT PUSH3 0xF JUMPI PUSH1 0x4 CALLDATALOAD PUSH1 0x1 PUSH1 0x1 PUSH1 0x40 SHL SUB DUP2 GT PUSH3 0xF JUMPI PUSH3 0x719 SWAP1 CALLDATASIZE SWAP1 PUSH1 0x4 ADD PUSH3 0x6C5 JUMP JUMPDEST PUSH1 0x20 DUP2 MLOAD SWAP2 ADD KECCAK256 PUSH1 0x0 MSTORE PUSH1 0xB PUSH1 0x20 MSTORE PUSH3 0x745 PUSH1 0x40 PUSH1 0x0 KECCAK256 SLOAD PUSH1 0x0 NOT DUP2 ADD SWAP1 DUP2 GT PUSH3 0x7ED JUMPI PUSH3 0x1401 JUMP JUMPDEST POP PUSH1 0x40 MLOAD PUSH3 0x754 DUP2 PUSH3 0x584 JUMP JUMPDEST DUP2 SLOAD DUP2 MSTORE PUSH1 0x1 DUP3 ADD SLOAD PUSH1 0x1 PUSH1 0x1 PUSH1 0xA0 SHL SUB AND PUSH1 0x20 DUP3 ADD SWAP1 DUP2 MSTORE SWAP2 PUSH3 0x77C SWAP1 PUSH1 0x2 ADD PUSH3 0xEFB JUMP JUMPDEST PUSH1 0x40 DUP3 ADD MSTORE MLOAD ISZERO PUSH3 0x7B2 JUMPI PUSH3 0x798 PUSH3 0x3B6 SWAP2 MLOAD PUSH3 0x428 JUMP JUMPDEST PUSH1 0x40 MLOAD PUSH1 0x1 PUSH1 0x1 PUSH1 0xA0 SHL SUB SWAP1 SWAP2 AND DUP2 MSTORE SWAP1 DUP2 SWAP1 PUSH1 0x20 DUP3 ADD SWAP1 JUMP JUMPDEST PUSH1 0x40 MLOAD PUSH3 0x461BCD PUSH1 0xE5 SHL DUP2 MSTORE PUSH1 0x20 PUSH1 0x4 DUP3 ADD MSTORE PUSH1 0x13 PUSH1 0x24 DUP3 ADD MSTORE PUSH19 0x10DBDB5B5D5B9A5D1E481B9BDD08199BDD5B99 PUSH1 0x6A SHL PUSH1 0x44 DUP3 ADD MSTORE PUSH1 0x64 SWAP1 REVERT JUMPDEST PUSH3 0x7F7 PUSH3 0x2A3E JUMP JUMPDEST PUSH3 0x1401 JUMP JUMPDEST SWAP1 PUSH1 0x80 PUSH1 0x3 NOT DUP4 ADD SLT PUSH3 0xF JUMPI PUSH1 0x1 PUSH1 0x1 PUSH1 0xA0 SHL SUB SWAP2 PUSH1 0x4 CALLDATALOAD DUP4 DUP2 AND DUP2 SUB PUSH3 0xF JUMPI SWAP3 PUSH1 0x24 CALLDATALOAD SWAP1 DUP2 AND DUP2 SUB PUSH3 0xF JUMPI SWAP2 PUSH1 0x44 CALLDATALOAD SWAP2 PUSH1 0x64 CALLDATALOAD SWAP1 PUSH1 0x1 PUSH1 0x1 PUSH1 0x40 SHL SUB DUP3 GT PUSH3 0xF JUMPI DUP1 PUSH1 0x23 DUP4 ADD SLT ISZERO PUSH3 0xF JUMPI DUP2 PUSH1 0x24 PUSH3 0x351 SWAP4 PUSH1 0x4 ADD CALLDATALOAD SWAP2 ADD PUSH3 0x689 JUMP JUMPDEST POP CALLVALUE PUSH3 0xF JUMPI PUSH3 0x879 CALLDATASIZE PUSH3 0x7FD JUMP JUMPDEST POP POP POP POP PUSH1 0x20 PUSH1 0x40 MLOAD PUSH4 0xA85BD01 PUSH1 0xE1 SHL DUP2 MSTORE RETURN JUMPDEST PUSH1 0x60 SWAP1 PUSH1 0x3 NOT ADD SLT PUSH3 0xF JUMPI PUSH1 0x1 PUSH1 0x1 PUSH1 0xA0 SHL SUB SWAP1 PUSH1 0x4 CALLDATALOAD DUP3 DUP2 AND DUP2 SUB PUSH3 0xF JUMPI SWAP2 PUSH1 0x24 CALLDATALOAD SWAP1 DUP2 AND DUP2 SUB PUSH3 0xF JUMPI SWAP1 PUSH1 0x44 CALLDATALOAD SWAP1 JUMP JUMPDEST POP CALLVALUE PUSH3 0xF JUMPI PUSH3 0x4E4 PUSH3 0x8DC CALLDATASIZE PUSH3 0x88E JUMP JUMPDEST SWAP2 PUSH3 0x8F3 PUSH3 0x8ED DUP5 CALLER PUSH3 0x18BB JUMP JUMPDEST PUSH3 0x17D6 JUMP JUMPDEST PUSH3 0x198E JUMP JUMPDEST POP CALLVALUE PUSH3 0xF JUMPI PUSH3 0x4E4 PUSH3 0x90F CALLDATASIZE PUSH3 0x88E JUMP JUMPDEST SWAP1 PUSH1 0x40 MLOAD SWAP3 PUSH3 0x91F DUP5 PUSH3 0x5DF JUMP JUMPDEST PUSH1 0x0 DUP5 MSTORE PUSH3 0x1839 JUMP JUMPDEST POP CALLVALUE PUSH3 0xF JUMPI PUSH1 0x0 CALLDATASIZE PUSH1 0x3 NOT ADD SLT PUSH3 0xF JUMPI PUSH1 0x20 PUSH1 0xE SLOAD PUSH1 0x40 MLOAD SWAP1 DUP2 MSTORE RETURN JUMPDEST POP CALLVALUE PUSH3 0xF JUMPI PUSH1 0x20 CALLDATASIZE PUSH1 0x3 NOT ADD SLT PUSH3 0xF JUMPI PUSH1 0x20 PUSH3 0x457 PUSH1 0x4 CALLDATALOAD PUSH3 0x170E JUMP JUMPDEST POP CALLVALUE PUSH3 0xF JUMPI PUSH1 0x20 CALLDATASIZE PUSH1 0x3 NOT ADD SLT PUSH3 0xF JUMPI PUSH1 0x1 PUSH1 0x1 PUSH1 0xA0 SHL SUB PUSH3 0x993 PUSH3 0x469 JUMP JUMPDEST AND DUP1 ISZERO PUSH3 0x9BE JUMPI PUSH1 0x0 MSTORE PUSH1 0x3 PUSH1 0x20 MSTORE PUSH3 0x3B6 PUSH1 0x40 PUSH1 0x0 KECCAK256 SLOAD PUSH1 0x40 MLOAD SWAP2 DUP3 SWAP2 DUP3 SWAP2 SWAP1 PUSH1 0x20 DUP4 ADD SWAP3 MSTORE JUMP JUMPDEST PUSH1 0x40 MLOAD PUSH3 0x461BCD PUSH1 0xE5 SHL DUP2 MSTORE PUSH1 0x20 PUSH1 0x4 DUP3 ADD MSTORE PUSH1 0x29 PUSH1 0x24 DUP3 ADD MSTORE PUSH32 0x4552433732313A2061646472657373207A65726F206973206E6F742061207661 PUSH1 0x44 DUP3 ADD MSTORE PUSH9 0x3634B21037BBB732B9 PUSH1 0xB9 SHL PUSH1 0x64 DUP3 ADD MSTORE PUSH1 0x84 SWAP1 REVERT JUMPDEST POP CALLVALUE PUSH3 0xF JUMPI PUSH1 0x0 DUP1 PUSH1 0x3 NOT CALLDATASIZE ADD SLT PUSH3 0x425 JUMPI PUSH3 0xA34 PUSH3 0x161D JUMP JUMPDEST PUSH1 0x7 DUP1 SLOAD PUSH1 0x1 PUSH1 0x1 PUSH1 0xA0 SHL SUB NOT DUP2 AND SWAP1 SWAP2 SSTORE DUP2 SWAP1 PUSH1 0x1 PUSH1 0x1 PUSH1 0xA0 SHL SUB AND PUSH1 0x0 DUP1 MLOAD PUSH1 0x20 PUSH3 0x5747 DUP4 CODECOPY DUP2 MLOAD SWAP2 MSTORE DUP3 DUP1 LOG3 DUP1 RETURN JUMPDEST POP CALLVALUE PUSH3 0xF JUMPI PUSH1 0x0 CALLDATASIZE PUSH1 0x3 NOT ADD SLT PUSH3 0xF JUMPI PUSH1 0x7 SLOAD PUSH1 0x40 MLOAD PUSH1 0x1 PUSH1 0x1 PUSH1 0xA0 SHL SUB SWAP1 SWAP2 AND DUP2 MSTORE PUSH1 0x20 SWAP1 RETURN JUMPDEST PUSH1 0x2 GT ISZERO PUSH3 0xF JUMPI JUMP JUMPDEST SWAP2 SWAP1 SWAP2 PUSH1 0x80 DUP2 DUP5 SUB SLT PUSH3 0xF JUMPI PUSH3 0xAB6 PUSH3 0x63B JUMP JUMPDEST SWAP3 PUSH1 0x1 PUSH1 0x1 PUSH1 0x40 SHL SUB DUP3 CALLDATALOAD DUP2 DUP2 GT PUSH3 0xF JUMPI DUP3 PUSH3 0xAD7 SWAP2 DUP6 ADD PUSH3 0x6C5 JUMP JUMPDEST DUP6 MSTORE PUSH1 0x20 DUP4 ADD CALLDATALOAD DUP2 DUP2 GT PUSH3 0xF JUMPI DUP3 PUSH3 0xAF4 SWAP2 DUP6 ADD PUSH3 0x6C5 JUMP JUMPDEST PUSH1 0x20 DUP7 ADD MSTORE PUSH1 0x40 DUP4 ADD CALLDATALOAD DUP2 DUP2 GT PUSH3 0xF JUMPI DUP3 PUSH3 0xB14 SWAP2 DUP6 ADD PUSH3 0x6C5 JUMP JUMPDEST PUSH1 0x40 DUP7 ADD MSTORE PUSH1 0x60 DUP4 ADD CALLDATALOAD SWAP1 DUP2 GT PUSH3 0xF JUMPI PUSH3 0xB32 SWAP3 ADD PUSH3 0x6C5 JUMP JUMPDEST PUSH1 0x60 DUP4 ADD MSTORE JUMP JUMPDEST POP CALLVALUE PUSH3 0xF JUMPI PUSH1 0x3 NOT PUSH1 0x60 CALLDATASIZE DUP3 ADD SLT PUSH3 0xF JUMPI PUSH1 0x1 PUSH1 0x1 PUSH1 0x40 SHL SUB SWAP1 PUSH1 0x4 SWAP1 DUP2 CALLDATALOAD DUP4 DUP2 GT PUSH3 0xF JUMPI PUSH3 0xB73 SWAP1 CALLDATASIZE SWAP1 DUP5 ADD PUSH3 0x6C5 JUMP JUMPDEST SWAP1 PUSH1 0x24 CALLDATALOAD SWAP1 DUP5 DUP3 GT PUSH3 0xF JUMPI PUSH1 0x80 SWAP1 DUP3 CALLDATASIZE SUB ADD SLT PUSH3 0xF JUMPI PUSH1 0x40 MLOAD SWAP1 PUSH3 0xB9C DUP3 PUSH3 0x5AF JUMP JUMPDEST DUP1 DUP5 ADD CALLDATALOAD DUP6 DUP2 GT PUSH3 0xF JUMPI PUSH3 0xBB9 SWAP1 DUP6 CALLDATASIZE SWAP2 DUP5 ADD ADD PUSH3 0x6C5 JUMP JUMPDEST DUP3 MSTORE PUSH1 0x24 DUP2 ADD CALLDATALOAD SWAP1 PUSH3 0xBCC DUP3 PUSH3 0xA93 JUMP JUMPDEST PUSH1 0x20 SWAP2 DUP3 DUP5 ADD MSTORE PUSH1 0x44 DUP2 ADD CALLDATALOAD PUSH3 0xBE3 DUP2 PUSH3 0xA93 JUMP JUMPDEST PUSH1 0x40 DUP5 ADD MSTORE PUSH1 0x64 DUP2 ADD CALLDATALOAD SWAP1 DUP7 DUP3 GT PUSH3 0xF JUMPI ADD SWAP1 CALLDATASIZE PUSH1 0x23 DUP4 ADD SLT ISZERO PUSH3 0xF JUMPI DUP5 DUP3 ADD CALLDATALOAD SWAP2 DUP7 DUP4 GT PUSH3 0xCAC JUMPI JUMPDEST DUP3 PUSH1 0x5 SHL PUSH1 0x40 MLOAD SWAP4 PUSH3 0xC28 DUP5 DUP4 ADD DUP7 PUSH3 0x617 JUMP JUMPDEST DUP5 MSTORE PUSH1 0x24 DUP4 DUP6 ADD SWAP2 DUP4 ADD ADD SWAP2 CALLDATASIZE DUP4 GT PUSH3 0xF JUMPI PUSH1 0x24 ADD SWAP1 JUMPDEST DUP3 DUP3 LT PUSH3 0xC8B JUMPI POP POP POP POP PUSH1 0x60 DUP3 ADD MSTORE PUSH1 0x44 CALLDATALOAD SWAP4 DUP5 GT PUSH3 0xF JUMPI PUSH3 0xC74 PUSH3 0xC7B SWAP4 PUSH3 0x3B6 SWAP6 CALLDATASIZE SWAP2 ADD PUSH3 0xA9E JUMP JUMPDEST SWAP2 PUSH3 0x2616 JUMP JUMPDEST PUSH1 0x40 MLOAD SWAP1 DUP2 MSTORE SWAP1 DUP2 SWAP1 PUSH1 0x20 DUP3 ADD SWAP1 JUMP JUMPDEST DUP2 CALLDATALOAD PUSH1 0x1 PUSH1 0x1 PUSH1 0x80 SHL SUB DUP2 AND DUP2 SUB PUSH3 0xF JUMPI DUP2 MSTORE SWAP1 DUP4 ADD SWAP1 DUP4 ADD PUSH3 0xC41 JUMP JUMPDEST PUSH3 0xCB6 PUSH3 0x56D JUMP JUMPDEST PUSH3 0xC12 JUMP JUMPDEST POP PUSH4 0x4E487B71 PUSH1 0xE0 SHL PUSH1 0x0 MSTORE PUSH1 0x0 PUSH1 0x4 MSTORE PUSH1 0x24 PUSH1 0x0 REVERT JUMPDEST SWAP1 PUSH1 0x1 DUP3 DUP2 SHR SWAP3 AND DUP1 ISZERO PUSH3 0xD05 JUMPI JUMPDEST PUSH1 0x20 DUP4 LT EQ PUSH3 0xCEF JUMPI JUMP JUMPDEST PUSH4 0x4E487B71 PUSH1 0xE0 SHL PUSH1 0x0 MSTORE PUSH1 0x22 PUSH1 0x4 MSTORE PUSH1 0x24 PUSH1 0x0 REVERT JUMPDEST SWAP2 PUSH1 0x7F AND SWAP2 PUSH3 0xCE3 JUMP JUMPDEST PUSH1 0x40 MLOAD SWAP1 PUSH1 0x0 DUP3 PUSH1 0xF SLOAD SWAP2 PUSH3 0xD26 DUP4 PUSH3 0xCD3 JUMP JUMPDEST DUP1 DUP4 MSTORE PUSH1 0x1 SWAP4 DUP1 DUP6 AND SWAP1 DUP2 ISZERO PUSH3 0xDA3 JUMPI POP PUSH1 0x1 EQ PUSH3 0xD50 JUMPI JUMPDEST POP PUSH3 0x64A SWAP3 POP SUB DUP4 PUSH3 0x617 JUMP JUMPDEST PUSH1 0xF PUSH1 0x0 SWAP1 DUP2 MSTORE PUSH1 0x0 DUP1 MLOAD PUSH1 0x20 PUSH3 0x5787 DUP4 CODECOPY DUP2 MLOAD SWAP2 MSTORE SWAP5 PUSH1 0x20 SWAP4 POP SWAP1 SWAP2 SWAP1 JUMPDEST DUP2 DUP4 LT PUSH3 0xD8A JUMPI POP POP PUSH3 0x64A SWAP4 POP DUP3 ADD ADD CODESIZE PUSH3 0xD41 JUMP JUMPDEST DUP6 SLOAD DUP9 DUP5 ADD DUP6 ADD MSTORE SWAP5 DUP6 ADD SWAP5 DUP8 SWAP5 POP SWAP2 DUP4 ADD SWAP2 PUSH3 0xD70 JUMP JUMPDEST SWAP1 POP PUSH3 0x64A SWAP5 POP PUSH1 0x20 SWAP3 POP PUSH1 0xFF NOT AND DUP3 DUP5 ADD MSTORE ISZERO ISZERO PUSH1 0x5 SHL DUP3 ADD ADD CODESIZE PUSH3 0xD41 JUMP JUMPDEST PUSH1 0x40 MLOAD SWAP1 PUSH1 0x0 DUP3 PUSH1 0xD SLOAD SWAP2 PUSH3 0xDDC DUP4 PUSH3 0xCD3 JUMP JUMPDEST DUP1 DUP4 MSTORE PUSH1 0x1 SWAP4 DUP1 DUP6 AND SWAP1 DUP2 ISZERO PUSH3 0xDA3 JUMPI POP PUSH1 0x1 EQ PUSH3 0xE05 JUMPI POP PUSH3 0x64A SWAP3 POP SUB DUP4 PUSH3 0x617 JUMP JUMPDEST PUSH1 0xD PUSH1 0x0 SWAP1 DUP2 MSTORE PUSH1 0x0 DUP1 MLOAD PUSH1 0x20 PUSH3 0x5727 DUP4 CODECOPY DUP2 MLOAD SWAP2 MSTORE SWAP5 PUSH1 0x20 SWAP4 POP SWAP1 SWAP2 SWAP1 JUMPDEST DUP2 DUP4 LT PUSH3 0xE3F JUMPI POP POP PUSH3 0x64A SWAP4 POP DUP3 ADD ADD CODESIZE PUSH3 0xD41 JUMP JUMPDEST DUP6 SLOAD DUP9 DUP5 ADD DUP6 ADD MSTORE SWAP5 DUP6 ADD SWAP5 DUP8 SWAP5 POP SWAP2 DUP4 ADD SWAP2 PUSH3 0xE25 JUMP JUMPDEST PUSH1 0x40 MLOAD SWAP1 PUSH1 0x0 DUP3 PUSH1 0xA SLOAD SWAP2 PUSH3 0xE6E DUP4 PUSH3 0xCD3 JUMP JUMPDEST DUP1 DUP4 MSTORE PUSH1 0x1 SWAP4 DUP1 DUP6 AND SWAP1 DUP2 ISZERO PUSH3 0xDA3 JUMPI POP PUSH1 0x1 EQ PUSH3 0xE97 JUMPI POP PUSH3 0x64A SWAP3 POP SUB DUP4 PUSH3 0x617 JUMP JUMPDEST PUSH1 0xA PUSH1 0x0 SWAP1 DUP2 MSTORE PUSH32 0xC65A7BB8D6351C1CF70C95A316CC6A92839C986682D98BC35F958F4883F9D2A8 SWAP5 PUSH1 0x20 SWAP4 POP SWAP1 SWAP2 SWAP1 JUMPDEST DUP2 DUP4 LT PUSH3 0xEE2 JUMPI POP POP PUSH3 0x64A SWAP4 POP DUP3 ADD ADD CODESIZE PUSH3 0xD41 JUMP JUMPDEST DUP6 SLOAD DUP9 DUP5 ADD DUP6 ADD MSTORE SWAP5 DUP6 ADD SWAP5 DUP8 SWAP5 POP SWAP2 DUP4 ADD SWAP2 PUSH3 0xEC8 JUMP JUMPDEST SWAP1 PUSH1 0x40 MLOAD SWAP2 DUP3 PUSH1 0x0 DUP3 SLOAD SWAP3 PUSH3 0xF11 DUP5 PUSH3 0xCD3 JUMP JUMPDEST SWAP1 DUP2 DUP5 MSTORE PUSH1 0x1 SWAP5 DUP6 DUP2 AND SWAP1 DUP2 PUSH1 0x0 EQ PUSH3 0xF86 JUMPI POP PUSH1 0x1 EQ PUSH3 0xF3F JUMPI JUMPDEST POP POP PUSH3 0x64A SWAP3 POP SUB DUP4 PUSH3 0x617 JUMP JUMPDEST SWAP1 SWAP4 SWAP2 POP PUSH1 0x0 MSTORE PUSH1 0x20 SWAP1 DUP2 PUSH1 0x0 KECCAK256 SWAP4 PUSH1 0x0 SWAP2 JUMPDEST DUP2 DUP4 LT PUSH3 0xF6D JUMPI POP POP PUSH3 0x64A SWAP4 POP DUP3 ADD ADD CODESIZE DUP1 PUSH3 0xF2F JUMP JUMPDEST DUP6 SLOAD DUP9 DUP5 ADD DUP6 ADD MSTORE SWAP5 DUP6 ADD SWAP5 DUP8 SWAP5 POP SWAP2 DUP4 ADD SWAP2 PUSH3 0xF52 JUMP JUMPDEST SWAP2 POP POP PUSH3 0x64A SWAP5 POP PUSH1 0x20 SWAP3 POP PUSH1 0xFF NOT AND DUP3 DUP5 ADD MSTORE ISZERO ISZERO PUSH1 0x5 SHL DUP3 ADD ADD CODESIZE DUP1 PUSH3 0xF2F JUMP JUMPDEST POP CALLVALUE PUSH3 0xF JUMPI PUSH1 0x0 DUP1 PUSH1 0x3 NOT CALLDATASIZE ADD SLT PUSH3 0x425 JUMPI PUSH1 0x40 MLOAD DUP2 PUSH1 0xF SLOAD PUSH3 0xFD2 DUP2 PUSH3 0xCD3 JUMP JUMPDEST DUP1 DUP5 MSTORE SWAP1 PUSH1 0x1 SWAP1 DUP2 DUP2 AND SWAP1 DUP2 ISZERO PUSH3 0x3FA JUMPI POP PUSH1 0x1 EQ PUSH3 0x1000 JUMPI PUSH3 0x3B6 DUP5 PUSH3 0x3A9 DUP2 DUP9 SUB DUP3 PUSH3 0x617 JUMP JUMPDEST PUSH1 0xF DUP4 MSTORE PUSH1 0x20 SWAP5 POP PUSH1 0x0 DUP1 MLOAD PUSH1 0x20 PUSH3 0x5787 DUP4 CODECOPY DUP2 MLOAD SWAP2 MSTORE JUMPDEST DUP3 DUP5 LT PUSH3 0x1039 JUMPI POP POP POP DUP2 PUSH3 0x3B6 SWAP4 PUSH3 0x3A9 SWAP3 DUP3 ADD ADD SWAP4 PUSH3 0x396 JUMP JUMPDEST DUP1 SLOAD DUP6 DUP6 ADD DUP8 ADD MSTORE SWAP3 DUP6 ADD SWAP3 DUP2 ADD PUSH3 0x1019 JUMP JUMPDEST POP CALLVALUE PUSH3 0xF JUMPI PUSH1 0x0 DUP1 PUSH1 0x3 NOT CALLDATASIZE ADD SLT PUSH3 0x425 JUMPI PUSH1 0x40 MLOAD DUP2 PUSH1 0x1 DUP1 SLOAD SWAP1 PUSH3 0x1076 DUP3 PUSH3 0xCD3 JUMP JUMPDEST DUP1 DUP6 MSTORE SWAP2 DUP2 DUP2 AND SWAP1 DUP2 ISZERO PUSH3 0x3FA JUMPI POP PUSH1 0x1 EQ PUSH3 0x10A1 JUMPI PUSH3 0x3B6 DUP5 PUSH3 0x3A9 DUP2 DUP9 SUB DUP3 PUSH3 0x617 JUMP JUMPDEST DUP1 SWAP5 POP DUP3 MSTORE PUSH1 0x20 SWAP4 DUP5 DUP4 KECCAK256 JUMPDEST DUP3 DUP5 LT PUSH3 0x10CD JUMPI POP POP POP DUP2 PUSH3 0x3B6 SWAP4 PUSH3 0x3A9 SWAP3 DUP3 ADD ADD SWAP4 PUSH3 0x396 JUMP JUMPDEST DUP1 SLOAD DUP6 DUP6 ADD DUP8 ADD MSTORE SWAP3 DUP6 ADD SWAP3 DUP2 ADD PUSH3 0x10AD JUMP JUMPDEST POP CALLVALUE PUSH3 0xF JUMPI PUSH1 0x40 CALLDATASIZE PUSH1 0x3 NOT ADD SLT PUSH3 0xF JUMPI PUSH3 0x10FF PUSH3 0x469 JUMP JUMPDEST PUSH1 0x24 CALLDATALOAD DUP1 ISZERO ISZERO DUP2 SUB PUSH3 0xF JUMPI PUSH1 0x1 PUSH1 0x1 PUSH1 0xA0 SHL SUB DUP3 AND SWAP2 CALLER DUP4 EQ PUSH3 0x1180 JUMPI DUP2 PUSH3 0x113D PUSH3 0x114E SWAP3 CALLER PUSH1 0x0 MSTORE PUSH1 0x5 PUSH1 0x20 MSTORE PUSH1 0x40 PUSH1 0x0 KECCAK256 PUSH3 0x16AF JUMP JUMPDEST SWAP1 PUSH1 0xFF DUP1 NOT DUP4 SLOAD AND SWAP2 ISZERO ISZERO AND OR SWAP1 SSTORE JUMP JUMPDEST PUSH1 0x40 MLOAD SWAP1 ISZERO ISZERO DUP2 MSTORE CALLER SWAP1 PUSH32 0x17307EAB39AB6107E8899845AD3D59BD9653F200F220920489CA2B5937696C31 SWAP1 PUSH1 0x20 SWAP1 LOG3 STOP JUMPDEST PUSH1 0x40 MLOAD PUSH3 0x461BCD PUSH1 0xE5 SHL DUP2 MSTORE PUSH1 0x20 PUSH1 0x4 DUP3 ADD MSTORE PUSH1 0x19 PUSH1 0x24 DUP3 ADD MSTORE PUSH25 0x22A9219B99189D1030B8383937BB32903A379031B0B63632B9 PUSH1 0x39 SHL PUSH1 0x44 DUP3 ADD MSTORE PUSH1 0x64 SWAP1 REVERT JUMPDEST POP CALLVALUE PUSH3 0xF JUMPI PUSH1 0x20 CALLDATASIZE PUSH1 0x3 NOT ADD SLT PUSH3 0xF JUMPI PUSH1 0x4 CALLDATALOAD PUSH1 0x0 MSTORE PUSH1 0xB PUSH1 0x20 MSTORE PUSH1 0x20 PUSH1 0x40 PUSH1 0x0 KECCAK256 SLOAD PUSH1 0x40 MLOAD SWAP1 DUP2 MSTORE RETURN JUMPDEST POP PUSH1 0x0 DUP1 PUSH1 0x3 NOT CALLDATASIZE ADD SLT PUSH3 0x425 JUMPI PUSH3 0x1279 DUP2 PUSH1 0x20 PUSH3 0x125E PUSH3 0x1221 PUSH3 0x121B PUSH1 0x9 SLOAD PUSH3 0x428 JUMP JUMPDEST PUSH3 0x428 JUMP JUMPDEST PUSH3 0x1240 PUSH3 0x122F PUSH3 0x1CB9 JUMP JUMPDEST PUSH3 0x1239 PUSH3 0xD10 JUMP JUMPDEST SWAP1 PUSH3 0x2159 JUMP JUMPDEST PUSH1 0x40 MLOAD SWAP5 DUP6 DUP1 SWAP5 DUP2 SWAP4 PUSH4 0x3A9151B PUSH1 0xE4 SHL DUP4 MSTORE ADDRESS PUSH1 0x4 DUP5 ADD PUSH3 0x1D2A JUMP JUMPDEST SUB SWAP3 GAS CALL SWAP1 DUP2 ISZERO PUSH3 0x12F5 JUMPI JUMPDEST DUP4 SWAP2 PUSH3 0x12C0 JUMPI JUMPDEST POP PUSH1 0xE SSTORE JUMP JUMPDEST PUSH3 0x129A PUSH3 0x1294 PUSH1 0xE SLOAD PUSH3 0x128E PUSH3 0xD10 JUMP JUMPDEST PUSH3 0x1F47 JUMP JUMPDEST PUSH3 0x1E00 JUMP JUMPDEST PUSH3 0x12BD PUSH1 0xE SLOAD PUSH3 0x12AB PUSH3 0x1EF3 JUMP JUMPDEST SWAP1 PUSH3 0x12B6 PUSH3 0xDC6 JUMP JUMPDEST SWAP2 PUSH3 0x2BC2 JUMP JUMPDEST DUP1 RETURN JUMPDEST PUSH3 0x12E6 SWAP2 POP PUSH1 0x20 RETURNDATASIZE DUP2 GT PUSH3 0x12ED JUMPI JUMPDEST PUSH3 0x12DD DUP2 DUP4 PUSH3 0x617 JUMP JUMPDEST DUP2 ADD SWAP1 PUSH3 0x1D1A JUMP JUMPDEST CODESIZE PUSH3 0x1273 JUMP JUMPDEST POP RETURNDATASIZE PUSH3 0x12D1 JUMP JUMPDEST PUSH3 0x12FF PUSH3 0x1B6F JUMP JUMPDEST PUSH3 0x126B JUMP JUMPDEST POP CALLVALUE PUSH3 0xF JUMPI PUSH3 0x4E4 PUSH3 0x131B CALLDATASIZE PUSH3 0x7FD JUMP JUMPDEST SWAP3 SWAP2 SWAP1 SWAP2 PUSH3 0x1839 JUMP JUMPDEST POP CALLVALUE PUSH3 0xF JUMPI PUSH1 0x0 DUP1 PUSH1 0x3 NOT CALLDATASIZE ADD SLT PUSH3 0x425 JUMPI PUSH1 0x40 MLOAD DUP2 PUSH1 0xD SLOAD PUSH3 0x134C DUP2 PUSH3 0xCD3 JUMP JUMPDEST DUP1 DUP5 MSTORE SWAP1 PUSH1 0x1 SWAP1 DUP2 DUP2 AND SWAP1 DUP2 ISZERO PUSH3 0x3FA JUMPI POP PUSH1 0x1 EQ PUSH3 0x137A JUMPI PUSH3 0x3B6 DUP5 PUSH3 0x3A9 DUP2 DUP9 SUB DUP3 PUSH3 0x617 JUMP JUMPDEST PUSH1 0xD DUP4 MSTORE PUSH1 0x20 SWAP5 POP PUSH1 0x0 DUP1 MLOAD PUSH1 0x20 PUSH3 0x5727 DUP4 CODECOPY DUP2 MLOAD SWAP2 MSTORE JUMPDEST DUP3 DUP5 LT PUSH3 0x13B3 JUMPI POP POP POP DUP2 PUSH3 0x3B6 SWAP4 PUSH3 0x3A9 SWAP3 DUP3 ADD ADD SWAP4 PUSH3 0x396 JUMP JUMPDEST DUP1 SLOAD DUP6 DUP6 ADD DUP8 ADD MSTORE SWAP3 DUP6 ADD SWAP3 DUP2 ADD PUSH3 0x1393 JUMP JUMPDEST POP CALLVALUE PUSH3 0xF JUMPI PUSH1 0x20 CALLDATASIZE PUSH1 0x3 NOT ADD SLT PUSH3 0xF JUMPI PUSH3 0x3B6 PUSH3 0x13EC PUSH1 0x4 CALLDATALOAD PUSH3 0x2943 JUMP JUMPDEST PUSH1 0x40 MLOAD SWAP2 DUP3 SWAP2 PUSH1 0x20 DUP4 MSTORE PUSH1 0x20 DUP4 ADD SWAP1 PUSH3 0x317 JUMP JUMPDEST PUSH1 0xC SLOAD DUP2 LT ISZERO PUSH3 0x1421 JUMPI PUSH1 0xC PUSH1 0x0 MSTORE PUSH1 0x3 PUSH1 0x20 PUSH1 0x0 KECCAK256 SWAP2 MUL ADD SWAP1 PUSH1 0x0 SWAP1 JUMP JUMPDEST PUSH4 0x4E487B71 PUSH1 0xE0 SHL PUSH1 0x0 MSTORE PUSH1 0x32 PUSH1 0x4 MSTORE PUSH1 0x24 PUSH1 0x0 REVERT JUMPDEST POP CALLVALUE PUSH3 0xF JUMPI PUSH1 0x20 CALLDATASIZE PUSH1 0x3 NOT ADD SLT PUSH3 0xF JUMPI PUSH1 0x4 CALLDATALOAD PUSH1 0xC SLOAD DUP2 LT ISZERO PUSH3 0xF JUMPI PUSH1 0xC PUSH1 0x0 MSTORE PUSH1 0x3 MUL PUSH32 0xDF6966C971051C3D54EC59162606531493A51404A002842F56009D7E5CF4A8C7 DUP2 ADD SLOAD PUSH32 0xDF6966C971051C3D54EC59162606531493A51404A002842F56009D7E5CF4A8C8 DUP3 ADD SLOAD PUSH1 0x1 PUSH1 0x1 PUSH1 0xA0 SHL SUB AND SWAP2 PUSH3 0x3B6 SWAP1 PUSH3 0x14E5 SWAP1 PUSH32 0xDF6966C971051C3D54EC59162606531493A51404A002842F56009D7E5CF4A8C9 ADD PUSH3 0xEFB JUMP JUMPDEST PUSH1 0x40 MLOAD SWAP4 DUP5 SWAP4 DUP5 MSTORE PUSH1 0x20 DUP5 ADD MSTORE PUSH1 0x60 PUSH1 0x40 DUP5 ADD MSTORE PUSH1 0x60 DUP4 ADD SWAP1 PUSH3 0x317 JUMP JUMPDEST POP CALLVALUE PUSH3 0xF JUMPI PUSH1 0x40 CALLDATASIZE PUSH1 0x3 NOT ADD SLT PUSH3 0xF JUMPI PUSH3 0x1522 PUSH3 0x469 JUMP JUMPDEST PUSH1 0x24 CALLDATALOAD SWAP1 PUSH1 0x1 PUSH1 0x1 PUSH1 0xA0 SHL SUB SWAP1 DUP2 DUP4 AND DUP4 SUB PUSH3 0xF JUMPI PUSH1 0x20 SWAP3 PUSH1 0xFF SWAP3 PUSH3 0x1557 SWAP3 AND PUSH1 0x0 MSTORE PUSH1 0x5 DUP5 MSTORE PUSH1 0x40 PUSH1 0x0 KECCAK256 PUSH3 0x16AF JUMP JUMPDEST SLOAD AND PUSH1 0x40 MLOAD SWAP1 ISZERO ISZERO DUP2 MSTORE RETURN JUMPDEST POP CALLVALUE PUSH3 0xF JUMPI PUSH1 0x20 CALLDATASIZE PUSH1 0x3 NOT ADD SLT PUSH3 0xF JUMPI PUSH3 0x1581 PUSH3 0x469 JUMP JUMPDEST PUSH3 0x158B PUSH3 0x161D JUMP JUMPDEST PUSH1 0x1 PUSH1 0x1 PUSH1 0xA0 SHL SUB SWAP1 DUP2 AND SWAP1 DUP2 ISZERO PUSH3 0x15C9 JUMPI PUSH1 0x7 DUP1 SLOAD PUSH1 0x1 PUSH1 0x1 PUSH1 0xA0 SHL SUB NOT DUP2 AND DUP5 OR SWAP1 SWAP2 SSTORE AND PUSH1 0x0 DUP1 MLOAD PUSH1 0x20 PUSH3 0x5747 DUP4 CODECOPY DUP2 MLOAD SWAP2 MSTORE PUSH1 0x0 DUP1 LOG3 STOP JUMPDEST PUSH1 0x40 MLOAD PUSH3 0x461BCD PUSH1 0xE5 SHL DUP2 MSTORE PUSH1 0x20 PUSH1 0x4 DUP3 ADD MSTORE PUSH1 0x26 PUSH1 0x24 DUP3 ADD MSTORE PUSH32 0x4F776E61626C653A206E6577206F776E657220697320746865207A65726F2061 PUSH1 0x44 DUP3 ADD MSTORE PUSH6 0x646472657373 PUSH1 0xD0 SHL PUSH1 0x64 DUP3 ADD MSTORE PUSH1 0x84 SWAP1 REVERT JUMPDEST PUSH1 0x7 SLOAD PUSH1 0x1 PUSH1 0x1 PUSH1 0xA0 SHL SUB AND CALLER SUB PUSH3 0x1632 JUMPI JUMP JUMPDEST PUSH1 0x64 PUSH1 0x40 MLOAD PUSH3 0x461BCD PUSH1 0xE5 SHL DUP2 MSTORE PUSH1 0x20 PUSH1 0x4 DUP3 ADD MSTORE PUSH1 0x20 PUSH1 0x24 DUP3 ADD MSTORE PUSH32 0x4F776E61626C653A2063616C6C6572206973206E6F7420746865206F776E6572 PUSH1 0x44 DUP3 ADD MSTORE REVERT JUMPDEST DUP1 SLOAD PUSH1 0x1 PUSH1 0x1 PUSH1 0xA0 SHL SUB NOT AND PUSH1 0x1 PUSH1 0x1 PUSH1 0xA0 SHL SUB SWAP1 SWAP3 AND SWAP2 SWAP1 SWAP2 OR SWAP1 SSTORE JUMP JUMPDEST PUSH1 0x1 PUSH1 0x1 PUSH1 0xA0 SHL SUB AND PUSH1 0x0 SWAP1 DUP2 MSTORE PUSH1 0x3 PUSH1 0x20 MSTORE PUSH1 0x40 SWAP1 KECCAK256 SWAP1 JUMP JUMPDEST SWAP1 PUSH1 0x1 DUP1 PUSH1 0xA0 SHL SUB AND PUSH1 0x0 MSTORE PUSH1 0x20 MSTORE PUSH1 0x40 PUSH1 0x0 KECCAK256 SWAP1 JUMP JUMPDEST ISZERO PUSH3 0x16CE JUMPI JUMP JUMPDEST PUSH1 0x40 MLOAD PUSH3 0x461BCD PUSH1 0xE5 SHL DUP2 MSTORE PUSH1 0x20 PUSH1 0x4 DUP3 ADD MSTORE PUSH1 0x18 PUSH1 0x24 DUP3 ADD MSTORE PUSH24 0x115490CDCC8C4E881A5B9D985B1A59081D1BDAD95B881251 PUSH1 0x42 SHL PUSH1 0x44 DUP3 ADD MSTORE PUSH1 0x64 SWAP1 REVERT JUMPDEST PUSH1 0x0 SWAP1 DUP2 MSTORE PUSH1 0x2 PUSH1 0x20 MSTORE PUSH1 0x40 SWAP1 KECCAK256 SLOAD PUSH1 0x1 PUSH1 0x1 PUSH1 0xA0 SHL SUB AND PUSH3 0x351 DUP2 ISZERO ISZERO PUSH3 0x16C6 JUMP JUMPDEST ISZERO PUSH3 0x173B JUMPI JUMP JUMPDEST PUSH1 0x40 MLOAD PUSH3 0x461BCD PUSH1 0xE5 SHL DUP2 MSTORE PUSH1 0x20 PUSH1 0x4 DUP3 ADD MSTORE PUSH1 0x3D PUSH1 0x24 DUP3 ADD MSTORE PUSH32 0x4552433732313A20617070726F76652063616C6C6572206973206E6F7420746F PUSH1 0x44 DUP3 ADD MSTORE PUSH32 0x6B656E206F776E6572206F7220617070726F76656420666F7220616C6C000000 PUSH1 0x64 DUP3 ADD MSTORE PUSH1 0x84 SWAP1 REVERT JUMPDEST PUSH3 0x17BB PUSH3 0x17B5 DUP3 PUSH3 0x1B07 JUMP JUMPDEST PUSH3 0x16C6 JUMP JUMPDEST PUSH1 0x0 SWAP1 DUP2 MSTORE PUSH1 0x4 PUSH1 0x20 MSTORE PUSH1 0x40 SWAP1 KECCAK256 SLOAD PUSH1 0x1 PUSH1 0x1 PUSH1 0xA0 SHL SUB AND SWAP1 JUMP JUMPDEST ISZERO PUSH3 0x17DE JUMPI JUMP JUMPDEST PUSH1 0x40 MLOAD PUSH3 0x461BCD PUSH1 0xE5 SHL DUP2 MSTORE PUSH1 0x20 PUSH1 0x4 DUP3 ADD MSTORE PUSH1 0x2D PUSH1 0x24 DUP3 ADD MSTORE PUSH32 0x4552433732313A2063616C6C6572206973206E6F7420746F6B656E206F776E65 PUSH1 0x44 DUP3 ADD MSTORE PUSH13 0x1C881BDC88185C1C1C9BDD9959 PUSH1 0x9A SHL PUSH1 0x64 DUP3 ADD MSTORE PUSH1 0x84 SWAP1 REVERT JUMPDEST SWAP1 PUSH3 0x1864 SWAP4 SWAP3 SWAP2 PUSH3 0x1851 PUSH3 0x8ED DUP5 CALLER PUSH3 0x18BB JUMP JUMPDEST PUSH3 0x185E DUP4 DUP4 DUP4 PUSH3 0x198E JUMP JUMPDEST PUSH3 0x1BB1 JUMP JUMPDEST ISZERO PUSH3 0x186C JUMPI JUMP JUMPDEST PUSH1 0x40 MLOAD PUSH3 0x461BCD PUSH1 0xE5 SHL DUP2 MSTORE PUSH1 0x20 PUSH1 0x4 DUP3 ADD MSTORE PUSH1 0x32 PUSH1 0x24 DUP3 ADD MSTORE PUSH1 0x0 DUP1 MLOAD PUSH1 0x20 PUSH3 0x5707 DUP4 CODECOPY DUP2 MLOAD SWAP2 MSTORE PUSH1 0x44 DUP3 ADD MSTORE PUSH18 0x31B2B4BB32B91034B6B83632B6B2B73A32B9 PUSH1 0x71 SHL PUSH1 0x64 DUP3 ADD MSTORE PUSH1 0x84 SWAP1 REVERT JUMPDEST PUSH1 0x1 PUSH1 0x1 PUSH1 0xA0 SHL SUB DUP1 PUSH3 0x18CF DUP5 PUSH3 0x170E JUMP JUMPDEST AND SWAP3 DUP2 DUP4 AND SWAP3 DUP5 DUP5 EQ SWAP5 DUP6 ISZERO PUSH3 0x190A JUMPI JUMPDEST POP POP DUP4 ISZERO PUSH3 0x18F1 JUMPI JUMPDEST POP POP POP SWAP1 JUMP JUMPDEST PUSH3 0x18FF SWAP2 SWAP3 SWAP4 POP PUSH3 0x17A6 JUMP JUMPDEST AND EQ CODESIZE DUP1 DUP1 PUSH3 0x18EB JUMP JUMPDEST PUSH1 0xFF SWAP3 SWAP6 POP SWAP1 PUSH3 0x1928 SWAP2 PUSH1 0x0 MSTORE PUSH1 0x5 PUSH1 0x20 MSTORE PUSH1 0x40 PUSH1 0x0 KECCAK256 PUSH3 0x16AF JUMP JUMPDEST SLOAD AND SWAP3 CODESIZE DUP1 PUSH3 0x18E1 JUMP JUMPDEST ISZERO PUSH3 0x193B JUMPI JUMP JUMPDEST PUSH1 0x40 MLOAD PUSH3 0x461BCD PUSH1 0xE5 SHL DUP2 MSTORE PUSH1 0x20 PUSH1 0x4 DUP3 ADD MSTORE PUSH1 0x25 PUSH1 0x24 DUP3 ADD MSTORE PUSH32 0x4552433732313A207472616E736665722066726F6D20696E636F727265637420 PUSH1 0x44 DUP3 ADD MSTORE PUSH5 0x37BBB732B9 PUSH1 0xD9 SHL PUSH1 0x64 DUP3 ADD MSTORE PUSH1 0x84 SWAP1 REVERT JUMPDEST PUSH3 0x19B6 SWAP1 PUSH3 0x199E DUP5 PUSH3 0x170E JUMP JUMPDEST PUSH1 0x1 PUSH1 0x1 PUSH1 0xA0 SHL SUB DUP3 DUP2 AND SWAP4 SWAP1 SWAP2 DUP3 AND DUP5 EQ PUSH3 0x1933 JUMP JUMPDEST DUP4 AND SWAP3 DUP4 ISZERO PUSH3 0x1A5E JUMPI PUSH3 0x1A13 PUSH3 0x1A48 SWAP3 PUSH3 0x19E4 DUP6 PUSH3 0x19DD PUSH3 0x121B DUP11 PUSH3 0x170E JUMP JUMPDEST EQ PUSH3 0x1933 JUMP JUMPDEST PUSH3 0x1A0D PUSH3 0x19FD DUP9 PUSH1 0x0 MSTORE PUSH1 0x4 PUSH1 0x20 MSTORE PUSH1 0x40 PUSH1 0x0 KECCAK256 SWAP1 JUMP JUMPDEST DUP1 SLOAD PUSH1 0x1 PUSH1 0x1 PUSH1 0xA0 SHL SUB NOT AND SWAP1 SSTORE JUMP JUMPDEST PUSH3 0x1695 JUMP JUMPDEST DUP1 SLOAD PUSH1 0x0 NOT ADD SWAP1 SSTORE PUSH3 0x1A26 DUP2 PUSH3 0x1695 JUMP JUMPDEST PUSH1 0x1 DUP2 SLOAD ADD SWAP1 SSTORE PUSH3 0x1A42 DUP6 PUSH1 0x0 MSTORE PUSH1 0x2 PUSH1 0x20 MSTORE PUSH1 0x40 PUSH1 0x0 KECCAK256 SWAP1 JUMP JUMPDEST PUSH3 0x1676 JUMP JUMPDEST PUSH1 0x0 DUP1 MLOAD PUSH1 0x20 PUSH3 0x5767 DUP4 CODECOPY DUP2 MLOAD SWAP2 MSTORE PUSH1 0x0 DUP1 LOG4 JUMP JUMPDEST PUSH1 0x40 MLOAD PUSH3 0x461BCD PUSH1 0xE5 SHL DUP2 MSTORE PUSH1 0x20 PUSH1 0x4 DUP3 ADD MSTORE PUSH1 0x24 DUP1 DUP3 ADD MSTORE PUSH32 0x4552433732313A207472616E7366657220746F20746865207A65726F20616464 PUSH1 0x44 DUP3 ADD MSTORE PUSH4 0x72657373 PUSH1 0xE0 SHL PUSH1 0x64 DUP3 ADD MSTORE PUSH1 0x84 SWAP1 REVERT JUMPDEST DUP2 PUSH1 0x0 MSTORE PUSH1 0x4 PUSH1 0x20 MSTORE PUSH3 0x1AC8 DUP2 PUSH1 0x40 PUSH1 0x0 KECCAK256 PUSH3 0x1676 JUMP JUMPDEST PUSH1 0x1 PUSH1 0x1 PUSH1 0xA0 SHL SUB DUP1 PUSH3 0x1ADC DUP5 PUSH3 0x170E JUMP JUMPDEST AND SWAP2 AND SWAP1 PUSH32 0x8C5BE1E5EBEC7D5BD14F71427D1E84F3DD0314C0F7B2291E5B200AC8C7C3B925 PUSH1 0x0 DUP1 LOG4 JUMP JUMPDEST PUSH1 0x0 SWAP1 DUP2 MSTORE PUSH1 0x2 PUSH1 0x20 MSTORE PUSH1 0x40 SWAP1 KECCAK256 SLOAD PUSH1 0x1 PUSH1 0x1 PUSH1 0xA0 SHL SUB AND ISZERO ISZERO SWAP1 JUMP JUMPDEST SWAP1 DUP2 PUSH1 0x20 SWAP2 SUB SLT PUSH3 0xF JUMPI MLOAD PUSH3 0x351 DUP2 PUSH3 0x25C JUMP JUMPDEST PUSH1 0x1 PUSH1 0x1 PUSH1 0xA0 SHL SUB SWAP2 DUP3 AND DUP2 MSTORE SWAP2 AND PUSH1 0x20 DUP3 ADD MSTORE PUSH1 0x40 DUP2 ADD SWAP2 SWAP1 SWAP2 MSTORE PUSH1 0x80 PUSH1 0x60 DUP3 ADD DUP2 SWAP1 MSTORE PUSH3 0x351 SWAP3 SWAP2 ADD SWAP1 PUSH3 0x317 JUMP JUMPDEST POP PUSH1 0x40 MLOAD RETURNDATASIZE PUSH1 0x0 DUP3 RETURNDATACOPY RETURNDATASIZE SWAP1 REVERT JUMPDEST RETURNDATASIZE ISZERO PUSH3 0x1BAC JUMPI RETURNDATASIZE SWAP1 PUSH3 0x1B90 DUP3 PUSH3 0x65B JUMP JUMPDEST SWAP2 PUSH3 0x1BA0 PUSH1 0x40 MLOAD SWAP4 DUP5 PUSH3 0x617 JUMP JUMPDEST DUP3 MSTORE RETURNDATASIZE PUSH1 0x0 PUSH1 0x20 DUP5 ADD RETURNDATACOPY JUMP JUMPDEST PUSH1 0x60 SWAP1 JUMP JUMPDEST SWAP3 SWAP1 SWAP2 SWAP1 DUP3 EXTCODESIZE ISZERO PUSH3 0x1CB0 JUMPI PUSH3 0x1BE7 SWAP3 PUSH1 0x20 SWAP3 PUSH1 0x0 PUSH1 0x40 MLOAD DUP1 SWAP7 DUP2 SWAP6 DUP3 SWAP5 PUSH4 0xA85BD01 PUSH1 0xE1 SHL SWAP11 DUP12 DUP6 MSTORE CALLER PUSH1 0x4 DUP7 ADD PUSH3 0x1B3C JUMP JUMPDEST SUB SWAP3 PUSH1 0x1 PUSH1 0x1 PUSH1 0xA0 SHL SUB AND GAS CALL PUSH1 0x0 SWAP2 DUP2 PUSH3 0x1C79 JUMPI JUMPDEST POP PUSH3 0x1C6B JUMPI PUSH3 0x1C0E PUSH3 0x1B7C JUMP JUMPDEST DUP1 MLOAD SWAP1 DUP2 PUSH3 0x1C66 JUMPI PUSH1 0x40 MLOAD PUSH3 0x461BCD PUSH1 0xE5 SHL DUP2 MSTORE PUSH1 0x20 PUSH1 0x4 DUP3 ADD MSTORE PUSH1 0x32 PUSH1 0x24 DUP3 ADD MSTORE PUSH1 0x0 DUP1 MLOAD PUSH1 0x20 PUSH3 0x5707 DUP4 CODECOPY DUP2 MLOAD SWAP2 MSTORE PUSH1 0x44 DUP3 ADD MSTORE PUSH18 0x31B2B4BB32B91034B6B83632B6B2B73A32B9 PUSH1 0x71 SHL PUSH1 0x64 DUP3 ADD MSTORE PUSH1 0x84 SWAP1 REVERT JUMPDEST PUSH1 0x20 ADD REVERT JUMPDEST PUSH1 0x1 PUSH1 0x1 PUSH1 0xE0 SHL SUB NOT AND EQ SWAP1 JUMP JUMPDEST PUSH3 0x1CA0 SWAP2 SWAP3 POP PUSH1 0x20 RETURNDATASIZE DUP2 GT PUSH3 0x1CA8 JUMPI JUMPDEST PUSH3 0x1C97 DUP2 DUP4 PUSH3 0x617 JUMP JUMPDEST DUP2 ADD SWAP1 PUSH3 0x1B24 JUMP JUMPDEST SWAP1 CODESIZE PUSH3 0x1BFE JUMP JUMPDEST POP RETURNDATASIZE PUSH3 0x1C8B JUMP JUMPDEST POP POP POP POP PUSH1 0x1 SWAP1 JUMP JUMPDEST PUSH1 0x40 MLOAD SWAP1 PUSH3 0x1CC8 DUP3 PUSH3 0x584 JUMP JUMPDEST PUSH1 0x3F DUP3 MSTORE PUSH32 0x206D6574616461746120746578742C20696E646578656420696E746567657200 PUSH1 0x40 DUP4 PUSH32 0x636F6D6D756E697479496420696E7465676572207072696D617279206B65792C PUSH1 0x20 DUP3 ADD MSTORE ADD MSTORE JUMP JUMPDEST SWAP1 DUP2 PUSH1 0x20 SWAP2 SUB SLT PUSH3 0xF JUMPI MLOAD SWAP1 JUMP JUMPDEST PUSH1 0x1 PUSH1 0x1 PUSH1 0xA0 SHL SUB SWAP1 SWAP2 AND DUP2 MSTORE PUSH1 0x40 PUSH1 0x20 DUP3 ADD DUP2 SWAP1 MSTORE PUSH3 0x351 SWAP3 SWAP2 ADD SWAP1 PUSH3 0x317 JUMP JUMPDEST PUSH1 0x1F DUP2 GT PUSH3 0x1D5B JUMPI POP POP JUMP JUMPDEST PUSH1 0x0 SWAP1 PUSH1 0xD DUP3 MSTORE PUSH1 0x20 DUP3 KECCAK256 SWAP1 PUSH1 0x20 PUSH1 0x1F DUP6 ADD PUSH1 0x5 SHR DUP4 ADD SWAP5 LT PUSH3 0x1D9C JUMPI JUMPDEST PUSH1 0x1F ADD PUSH1 0x5 SHR ADD SWAP2 JUMPDEST DUP3 DUP2 LT PUSH3 0x1D90 JUMPI POP POP POP JUMP JUMPDEST DUP2 DUP2 SSTORE PUSH1 0x1 ADD PUSH3 0x1D83 JUMP JUMPDEST SWAP1 SWAP3 POP DUP3 SWAP1 PUSH3 0x1D7A JUMP JUMPDEST SWAP1 PUSH1 0x1F DUP2 GT PUSH3 0x1DB6 JUMPI POP POP POP JUMP JUMPDEST PUSH1 0x0 SWAP2 DUP3 MSTORE PUSH1 0x20 DUP3 KECCAK256 SWAP1 PUSH1 0x20 PUSH1 0x1F DUP6 ADD PUSH1 0x5 SHR DUP4 ADD SWAP5 LT PUSH3 0x1DF5 JUMPI JUMPDEST PUSH1 0x1F ADD PUSH1 0x5 SHR ADD SWAP2 JUMPDEST DUP3 DUP2 LT PUSH3 0x1DE9 JUMPI POP POP POP JUMP JUMPDEST DUP2 DUP2 SSTORE PUSH1 0x1 ADD PUSH3 0x1DDC JUMP JUMPDEST SWAP1 SWAP3 POP DUP3 SWAP1 PUSH3 0x1DD3 JUMP JUMPDEST DUP1 MLOAD SWAP1 SWAP2 SWAP1 PUSH1 0x1 PUSH1 0x1 PUSH1 0x40 SHL SUB DUP2 GT PUSH3 0x1EE3 JUMPI JUMPDEST PUSH3 0x1E2D DUP2 PUSH3 0x1E27 PUSH1 0xD SLOAD PUSH3 0xCD3 JUMP JUMPDEST PUSH3 0x1D4E JUMP JUMPDEST PUSH1 0x20 DUP1 PUSH1 0x1F DUP4 GT PUSH1 0x1 EQ PUSH3 0x1E6C JUMPI POP DUP2 SWAP3 SWAP4 PUSH1 0x0 SWAP3 PUSH3 0x1E60 JUMPI JUMPDEST POP POP DUP2 PUSH1 0x1 SHL SWAP2 PUSH1 0x0 NOT SWAP1 PUSH1 0x3 SHL SHR NOT AND OR PUSH1 0xD SSTORE JUMP JUMPDEST ADD MLOAD SWAP1 POP CODESIZE DUP1 PUSH3 0x1E49 JUMP JUMPDEST PUSH1 0xD PUSH1 0x0 MSTORE PUSH1 0x1F NOT DUP4 AND SWAP5 SWAP1 SWAP2 SWAP1 PUSH1 0x0 DUP1 MLOAD PUSH1 0x20 PUSH3 0x5727 DUP4 CODECOPY DUP2 MLOAD SWAP2 MSTORE SWAP3 PUSH1 0x0 SWAP1 JUMPDEST DUP8 DUP3 LT PUSH3 0x1ECA JUMPI POP POP DUP4 PUSH1 0x1 SWAP6 SWAP7 LT PUSH3 0x1EB0 JUMPI JUMPDEST POP POP POP DUP2 SHL ADD PUSH1 0xD SSTORE JUMP JUMPDEST ADD MLOAD PUSH1 0x0 NOT PUSH1 0xF8 DUP5 PUSH1 0x3 SHL AND SHR NOT AND SWAP1 SSTORE CODESIZE DUP1 DUP1 PUSH3 0x1EA5 JUMP JUMPDEST DUP1 PUSH1 0x1 DUP6 SWAP7 DUP3 SWAP5 SWAP7 DUP7 ADD MLOAD DUP2 SSTORE ADD SWAP6 ADD SWAP4 ADD SWAP1 PUSH3 0x1E8F JUMP JUMPDEST PUSH3 0x1EED PUSH3 0x56D JUMP JUMPDEST PUSH3 0x1E15 JUMP JUMPDEST PUSH1 0x40 MLOAD SWAP1 PUSH3 0x1F02 DUP3 PUSH3 0x5FB JUMP JUMPDEST PUSH1 0x20 DUP3 MSTORE PUSH32 0x4372656174656420636F6D6D756E6974696573207461626C653A202573202573 PUSH1 0x20 DUP4 ADD MSTORE JUMP JUMPDEST SWAP1 PUSH3 0x1F43 PUSH1 0x20 SWAP3 DUP3 DUP2 MLOAD SWAP5 DUP6 SWAP3 ADD PUSH3 0x2F2 JUMP JUMPDEST ADD SWAP1 JUMP JUMPDEST PUSH1 0x22 PUSH3 0x351 SWAP2 PUSH3 0x1F64 PUSH3 0x1F5D CHAINID PUSH3 0x2008 JUMP JUMPDEST SWAP5 PUSH3 0x2008 JUMP JUMPDEST PUSH1 0x40 MLOAD SWAP5 DUP3 PUSH3 0x1F7F DUP8 SWAP5 MLOAD DUP1 SWAP3 PUSH1 0x20 DUP1 DUP9 ADD SWAP2 ADD PUSH3 0x2F2 JUMP JUMPDEST DUP4 ADD SWAP1 PUSH1 0x5F PUSH1 0xF8 SHL SWAP2 DUP3 PUSH1 0x20 DUP3 ADD MSTORE PUSH3 0x1FA4 DUP3 MLOAD DUP1 SWAP4 PUSH1 0x20 PUSH1 0x21 DUP6 ADD SWAP2 ADD PUSH3 0x2F2 JUMP JUMPDEST ADD SWAP1 PUSH1 0x21 DUP3 ADD MSTORE PUSH3 0x1FC0 DUP3 MLOAD DUP1 SWAP4 PUSH1 0x20 DUP8 DUP6 ADD SWAP2 ADD PUSH3 0x2F2 JUMP JUMPDEST ADD SUB PUSH1 0x2 DUP2 ADD DUP5 MSTORE ADD DUP3 PUSH3 0x617 JUMP JUMPDEST SWAP1 PUSH3 0x1FDC DUP3 PUSH3 0x65B JUMP JUMPDEST PUSH3 0x1FEB PUSH1 0x40 MLOAD SWAP2 DUP3 PUSH3 0x617 JUMP JUMPDEST DUP3 DUP2 MSTORE DUP1 SWAP3 PUSH3 0x1FFE PUSH1 0x1F NOT SWAP2 PUSH3 0x65B JUMP JUMPDEST ADD SWAP1 PUSH1 0x20 CALLDATASIZE SWAP2 ADD CALLDATACOPY JUMP JUMPDEST PUSH1 0x0 SWAP1 DUP1 PUSH19 0x184F03E93FF9F4DAA797ED6E38ED64BF6A1F01 PUSH1 0x40 SHL DUP1 DUP3 LT ISZERO PUSH3 0x214A JUMPI JUMPDEST POP PUSH10 0x4EE2D6D415B85ACEF81 PUSH1 0x20 SHL DUP1 DUP4 LT ISZERO PUSH3 0x213A JUMPI JUMPDEST POP PUSH7 0x2386F26FC10000 DUP1 DUP4 LT ISZERO PUSH3 0x212A JUMPI JUMPDEST POP PUSH4 0x5F5E100 DUP1 DUP4 LT ISZERO PUSH3 0x211A JUMPI JUMPDEST POP PUSH2 0x2710 DUP1 DUP4 LT ISZERO PUSH3 0x210A JUMPI JUMPDEST POP PUSH1 0x64 DUP3 LT ISZERO PUSH3 0x20F9 JUMPI JUMPDEST PUSH1 0xA DUP1 SWAP3 LT ISZERO PUSH3 0x20EE JUMPI JUMPDEST PUSH1 0x1 SWAP1 DUP2 PUSH1 0x21 PUSH3 0x20A2 DUP3 DUP8 ADD PUSH3 0x1FD0 JUMP JUMPDEST SWAP6 DUP7 ADD ADD SWAP1 JUMPDEST PUSH3 0x20B5 JUMPI JUMPDEST POP POP POP POP SWAP1 JUMP JUMPDEST PUSH1 0x0 NOT ADD SWAP1 DUP4 SWAP1 PUSH16 0x181899199A1A9B1B9C1CB0B131B232B3 PUSH1 0x81 SHL DUP3 DUP3 MOD BYTE DUP4 MSTORE8 DIV SWAP2 DUP3 ISZERO PUSH3 0x20E8 JUMPI SWAP2 SWAP1 DUP3 PUSH3 0x20A8 JUMP JUMPDEST PUSH3 0x20AE JUMP JUMPDEST SWAP2 PUSH1 0x1 ADD SWAP2 PUSH3 0x208F JUMP JUMPDEST SWAP2 SWAP1 PUSH1 0x64 PUSH1 0x2 SWAP2 DIV SWAP2 ADD SWAP2 PUSH3 0x2083 JUMP JUMPDEST PUSH1 0x4 SWAP2 SWAP4 SWAP3 DIV SWAP2 ADD SWAP2 CODESIZE PUSH3 0x2077 JUMP JUMPDEST PUSH1 0x8 SWAP2 SWAP4 SWAP3 DIV SWAP2 ADD SWAP2 CODESIZE PUSH3 0x2069 JUMP JUMPDEST PUSH1 0x10 SWAP2 SWAP4 SWAP3 DIV SWAP2 ADD SWAP2 CODESIZE PUSH3 0x2059 JUMP JUMPDEST PUSH1 0x20 SWAP2 SWAP4 SWAP3 DIV SWAP2 ADD SWAP2 CODESIZE PUSH3 0x2046 JUMP JUMPDEST PUSH1 0x40 SWAP4 POP DUP2 DIV SWAP2 POP CODESIZE PUSH3 0x202D JUMP JUMPDEST SWAP1 PUSH1 0x30 PUSH3 0x351 SWAP2 PUSH3 0x216C CHAINID PUSH3 0x2008 JUMP JUMPDEST SWAP4 PUSH1 0x40 MLOAD SWAP5 DUP6 SWAP3 PUSH13 0x21A922A0AA22902A20A126229 PUSH1 0x9D SHL PUSH1 0x20 DUP6 ADD MSTORE PUSH3 0x219F DUP2 MLOAD DUP1 SWAP3 PUSH1 0x20 PUSH1 0x2D DUP9 ADD SWAP2 ADD PUSH3 0x2F2 JUMP JUMPDEST DUP4 ADD PUSH1 0x5F PUSH1 0xF8 SHL PUSH1 0x2D DUP3 ADD MSTORE PUSH3 0x21C1 DUP3 MLOAD DUP1 SWAP4 PUSH1 0x20 PUSH1 0x2E DUP6 ADD SWAP2 ADD PUSH3 0x2F2 JUMP JUMPDEST ADD PUSH1 0x5 PUSH1 0xFB SHL PUSH1 0x2E DUP3 ADD MSTORE PUSH3 0x21E2 DUP3 MLOAD DUP1 SWAP4 PUSH1 0x20 PUSH1 0x2F DUP6 ADD SWAP2 ADD PUSH3 0x2F2 JUMP JUMPDEST ADD PUSH1 0x29 PUSH1 0xF8 SHL PUSH1 0x2F DUP3 ADD MSTORE SUB PUSH1 0x10 DUP2 ADD DUP5 MSTORE ADD DUP3 PUSH3 0x617 JUMP JUMPDEST SWAP2 SWAP5 SWAP4 SWAP3 SWAP1 SWAP5 PUSH1 0x40 MLOAD SWAP6 DUP7 SWAP4 PUSH1 0x20 PUSH12 0x24A729A2A92A1024A72A279 PUSH1 0xA5 SHL DUP2 DUP8 ADD MSTORE PUSH1 0x0 SWAP1 PUSH1 0xD SLOAD SWAP1 PUSH3 0x2230 DUP3 PUSH3 0xCD3 JUMP JUMPDEST SWAP2 PUSH1 0x1 SWAP1 DUP2 DUP2 AND SWAP1 DUP2 ISZERO PUSH3 0x2383 JUMPI POP PUSH1 0x1 EQ PUSH3 0x2339 JUMPI JUMPDEST POP POP POP PUSH1 0x7 SWAP6 SWAP5 PUSH1 0xF PUSH3 0x22EC PUSH3 0x231C SWAP7 PUSH1 0x8 PUSH3 0x22D8 PUSH3 0x64A SWAP13 SWAP9 PUSH1 0xC PUSH3 0x22BD PUSH1 0x9 SWAP11 PUSH3 0x22B6 PUSH3 0x2307 SWAP12 PUSH1 0x2A SWAP1 PUSH32 0x2028636F6D6D756E69747949642C206D657461646174612C20696E6465786564 DUP2 MSTORE PUSH10 0x5240AC8298AA8AA6405 PUSH1 0xB3 SHL PUSH1 0x20 DUP3 ADD MSTORE ADD SWAP1 JUMP JUMPDEST SWAP1 PUSH3 0x1F2E JUMP JUMPDEST PUSH12 0x161013BDB430B73236329D1 PUSH1 0xA5 SHL DUP2 MSTORE JUMPDEST ADD SWAP1 PUSH3 0x1F2E JUMP JUMPDEST PUSH8 0x16103730B6B29D1 PUSH1 0xC5 SHL DUP2 MSTORE PUSH3 0x22D0 JUMP JUMPDEST PUSH15 0x16103232B9B1B934B83A34B7B71D1 PUSH1 0x8D SHL DUP2 MSTORE PUSH3 0x22D0 JUMP JUMPDEST PUSH9 0x161034B6B0B3B29D1 PUSH1 0xBD SHL DUP2 MSTORE PUSH3 0x22D0 JUMP JUMPDEST PUSH7 0x7D272C2031293B PUSH1 0xC8 SHL DUP2 MSTORE SUB PUSH1 0x18 NOT DUP2 ADD DUP6 MSTORE ADD DUP4 PUSH3 0x617 JUMP JUMPDEST SWAP1 SWAP2 SWAP3 POP PUSH1 0xD PUSH1 0x0 MSTORE DUP2 PUSH1 0x0 KECCAK256 SWAP1 PUSH1 0x0 SWAP2 JUMPDEST DUP5 DUP4 LT PUSH3 0x2369 JUMPI POP POP POP POP DUP6 ADD PUSH1 0x2C ADD DUP5 PUSH1 0xF PUSH3 0x22EC PUSH3 0x2249 JUMP JUMPDEST DUP1 SLOAD SWAP10 DUP4 ADD PUSH1 0x2C ADD SWAP10 SWAP1 SWAP10 MSTORE DUP12 SWAP9 SWAP2 DUP4 ADD SWAP2 DUP2 ADD PUSH3 0x234B JUMP JUMPDEST PUSH1 0xFF NOT AND PUSH1 0x2C DUP1 DUP13 ADD SWAP2 SWAP1 SWAP2 MSTORE DUP5 ISZERO ISZERO SWAP1 SWAP5 MUL DUP11 ADD SWAP1 SWAP4 ADD SWAP4 POP DUP8 SWAP3 POP PUSH1 0xF SWAP2 POP PUSH3 0x22EC SWAP1 POP PUSH3 0x2249 JUMP JUMPDEST PUSH3 0x351 SWAP4 SWAP3 PUSH1 0x60 SWAP3 PUSH1 0x1 DUP1 PUSH1 0xA0 SHL SUB AND DUP3 MSTORE PUSH1 0x20 DUP3 ADD MSTORE DUP2 PUSH1 0x40 DUP3 ADD MSTORE ADD SWAP1 PUSH3 0x317 JUMP JUMPDEST PUSH1 0x2 GT ISZERO PUSH3 0x23E1 JUMPI JUMP JUMPDEST PUSH4 0x4E487B71 PUSH1 0xE0 SHL PUSH1 0x0 MSTORE PUSH1 0x21 PUSH1 0x4 MSTORE PUSH1 0x24 PUSH1 0x0 REVERT JUMPDEST SWAP1 PUSH1 0x20 SWAP1 DUP2 DUP4 MSTORE PUSH1 0x60 PUSH3 0x2417 DUP3 MLOAD PUSH1 0x80 DUP6 DUP8 ADD MSTORE PUSH1 0xA0 DUP7 ADD SWAP1 PUSH3 0x317 JUMP JUMPDEST SWAP2 DUP4 DUP2 ADD MLOAD PUSH3 0x2427 DUP2 PUSH3 0x23D6 JUMP JUMPDEST PUSH1 0x40 DUP7 ADD MSTORE PUSH1 0x40 DUP2 ADD MLOAD PUSH3 0x243C DUP2 PUSH3 0x23D6 JUMP JUMPDEST DUP3 DUP7 ADD MSTORE ADD MLOAD SWAP3 PUSH1 0x80 PUSH1 0x1F NOT DUP3 DUP5 SUB ADD SWAP2 ADD MSTORE DUP2 DUP1 DUP5 MLOAD SWAP3 DUP4 DUP2 MSTORE ADD SWAP4 ADD SWAP2 PUSH1 0x0 JUMPDEST DUP3 DUP2 LT PUSH3 0x246D JUMPI POP POP POP POP SWAP1 JUMP JUMPDEST DUP4 MLOAD PUSH1 0x1 PUSH1 0x1 PUSH1 0x80 SHL SUB AND DUP6 MSTORE SWAP4 DUP2 ADD SWAP4 SWAP3 DUP2 ADD SWAP3 PUSH1 0x1 ADD PUSH3 0x245E JUMP JUMPDEST PUSH1 0xC SLOAD PUSH1 0x1 PUSH1 0x40 SHL DUP2 LT ISZERO PUSH3 0x25D3 JUMPI JUMPDEST PUSH3 0x24AF PUSH1 0x1 SWAP2 DUP3 DUP2 ADD PUSH1 0xC SSTORE PUSH3 0x1401 JUMP JUMPDEST PUSH3 0x25C3 JUMPI JUMPDEST DUP3 MLOAD DUP2 SSTORE PUSH1 0x40 PUSH1 0x2 PUSH1 0x20 SWAP3 PUSH3 0x24D9 PUSH1 0x1 DUP1 PUSH1 0xA0 SHL SUB DUP6 DUP9 ADD MLOAD AND DUP7 DUP4 ADD PUSH3 0x1676 JUMP JUMPDEST ADD SWAP4 ADD MLOAD SWAP1 DUP2 MLOAD SWAP2 PUSH1 0x1 DUP1 PUSH1 0x40 SHL SUB DUP4 GT PUSH3 0x25B3 JUMPI JUMPDEST PUSH3 0x2508 DUP4 PUSH3 0x2501 DUP8 SLOAD PUSH3 0xCD3 JUMP JUMPDEST DUP8 PUSH3 0x1DA7 JUMP JUMPDEST DUP2 PUSH1 0x1F DUP5 GT PUSH1 0x1 EQ PUSH3 0x2544 JUMPI POP SWAP3 DUP3 SWAP4 SWAP2 DUP4 SWAP3 PUSH1 0x0 SWAP5 PUSH3 0x2538 JUMPI JUMPDEST POP POP SHL SWAP2 PUSH1 0x0 NOT SWAP1 PUSH1 0x3 SHL SHR NOT AND OR SWAP1 SSTORE JUMP JUMPDEST ADD MLOAD SWAP3 POP CODESIZE DUP1 PUSH3 0x2525 JUMP JUMPDEST SWAP2 SWAP1 DUP4 PUSH1 0x1F NOT DUP2 AND PUSH3 0x255C DUP9 PUSH1 0x0 MSTORE PUSH1 0x20 PUSH1 0x0 KECCAK256 SWAP1 JUMP JUMPDEST SWAP5 PUSH1 0x0 SWAP1 JUMPDEST DUP9 DUP4 DUP4 LT PUSH3 0x2598 JUMPI POP POP POP LT PUSH3 0x257E JUMPI JUMPDEST POP POP POP DUP2 SHL ADD SWAP1 SSTORE JUMP JUMPDEST ADD MLOAD PUSH1 0x0 NOT PUSH1 0xF8 DUP5 PUSH1 0x3 SHL AND SHR NOT AND SWAP1 SSTORE CODESIZE DUP1 DUP1 PUSH3 0x2574 JUMP JUMPDEST DUP6 DUP8 ADD MLOAD DUP9 SSTORE SWAP1 SWAP7 ADD SWAP6 SWAP5 DUP6 ADD SWAP5 DUP8 SWAP4 POP SWAP1 DUP2 ADD SWAP1 PUSH3 0x2561 JUMP JUMPDEST PUSH3 0x25BD PUSH3 0x56D JUMP JUMPDEST PUSH3 0x24F0 JUMP JUMPDEST PUSH3 0x25CD PUSH3 0xCBC JUMP JUMPDEST PUSH3 0x24B5 JUMP JUMPDEST PUSH3 0x25DD PUSH3 0x56D JUMP JUMPDEST PUSH3 0x249C JUMP JUMPDEST PUSH1 0x40 MLOAD SWAP1 PUSH3 0x25F2 DUP3 PUSH3 0x5FB JUMP JUMPDEST PUSH1 0x15 DUP3 MSTORE PUSH21 0x436F6D6D756E69747920437265617465643A202573 PUSH1 0x58 SHL PUSH1 0x20 DUP4 ADD MSTORE JUMP JUMPDEST SWAP2 SWAP1 SWAP2 DUP1 MLOAD PUSH1 0x20 DUP3 ADD KECCAK256 PUSH3 0x2635 DUP2 PUSH1 0x0 MSTORE PUSH1 0xB PUSH1 0x20 MSTORE PUSH1 0x40 PUSH1 0x0 KECCAK256 SWAP1 JUMP JUMPDEST SLOAD PUSH3 0x290E JUMPI PUSH1 0x8 SLOAD SWAP4 PUSH3 0x264B DUP6 CALLER PUSH3 0x2AA1 JUMP JUMPDEST PUSH3 0x265C PUSH3 0x121B PUSH1 0x9 SLOAD PUSH3 0x428 JUMP JUMPDEST SWAP3 PUSH1 0xE SLOAD SWAP4 PUSH3 0x268B PUSH3 0x2670 DUP9 PUSH3 0x2008 JUMP JUMPDEST DUP8 MLOAD SWAP8 PUSH1 0x20 DUP2 ADD MLOAD PUSH1 0x40 SWAP10 PUSH1 0x60 DUP12 DUP5 ADD MLOAD SWAP4 ADD MLOAD SWAP4 PUSH3 0x21FC JUMP JUMPDEST DUP2 EXTCODESIZE ISZERO PUSH3 0xF JUMPI PUSH3 0x26BB SWAP6 DUP8 MLOAD SWAP3 DUP4 DUP1 SWAP3 PUSH4 0x757AE827 PUSH1 0xE1 SHL DUP3 MSTORE DUP2 PUSH1 0x0 SWAP11 DUP12 SWAP7 DUP8 SWAP4 ADDRESS PUSH1 0x4 DUP6 ADD PUSH3 0x23B0 JUMP JUMPDEST SUB SWAP3 GAS CALL DUP1 ISZERO PUSH3 0x28FE JUMPI JUMPDEST PUSH3 0x28E7 JUMPI JUMPDEST POP DUP5 MLOAD DUP1 PUSH3 0x275C DUP9 PUSH2 0x2AE5 DUP1 DUP5 ADD SWAP1 PUSH1 0x1 PUSH1 0x1 PUSH1 0x40 SHL SUB DUP3 GT DUP6 DUP4 LT OR PUSH3 0x28D7 JUMPI JUMPDEST PUSH3 0x2C22 DUP6 CODECOPY PUSH1 0x80 DUP1 DUP3 MSTORE PUSH1 0x11 SWAP1 DUP3 ADD MSTORE PUSH17 0x454D425F434F4D4D5F4E46545F4E414D45 PUSH1 0x78 SHL PUSH1 0xA0 DUP3 ADD MSTORE PUSH1 0xC0 PUSH1 0x20 DUP3 ADD DUP2 SWAP1 MSTORE PUSH1 0x13 SWAP1 DUP3 ADD MSTORE PUSH19 0x11535097D0D3D35357D3919517D4D6535093D3 PUSH1 0x6A SHL PUSH1 0xE0 DUP3 ADD MSTORE ADDRESS PUSH1 0x40 DUP3 ADD MSTORE PUSH1 0x60 DUP2 ADD SWAP2 SWAP1 SWAP2 MSTORE PUSH2 0x100 ADD SWAP1 JUMP JUMPDEST SUB SWAP1 DUP6 CREATE DUP1 ISZERO PUSH3 0x28C7 JUMPI JUMPDEST PUSH1 0x1 PUSH1 0x1 PUSH1 0xA0 SHL SUB AND SWAP2 DUP3 EXTCODESIZE ISZERO PUSH3 0x28C3 JUMPI PUSH3 0x27F8 SWAP3 DUP8 SWAP5 SWAP3 PUSH3 0x27A6 DUP8 PUSH3 0x27E8 SWAP5 DUP11 MLOAD DUP1 SWAP4 DUP2 SWAP3 PUSH4 0xADAF1CAB PUSH1 0xE0 SHL DUP4 MSTORE PUSH1 0x4 DUP4 ADD PUSH3 0x23F7 JUMP JUMPDEST SUB DUP2 DUP4 DUP8 GAS CALL DUP1 ISZERO PUSH3 0x28B3 JUMPI JUMPDEST PUSH3 0x289C JUMPI JUMPDEST POP PUSH3 0x27DE PUSH3 0x27C9 PUSH3 0x64C JUMP JUMPDEST DUP8 DUP2 MSTORE PUSH1 0x1 PUSH1 0x1 PUSH1 0xA0 SHL SUB SWAP1 SWAP4 AND PUSH1 0x20 DUP5 ADD MSTORE JUMP JUMPDEST DUP8 DUP3 ADD MSTORE PUSH3 0x248B JUMP JUMPDEST PUSH1 0x0 MSTORE PUSH1 0xB PUSH1 0x20 MSTORE PUSH1 0x40 PUSH1 0x0 KECCAK256 SWAP1 JUMP JUMPDEST SSTORE PUSH3 0x280A PUSH3 0x121B PUSH1 0x10 SLOAD PUSH3 0x428 JUMP JUMPDEST SWAP2 DUP3 EXTCODESIZE ISZERO PUSH3 0x2898 JUMPI MLOAD PUSH4 0x3576860D PUSH1 0xE1 SHL DUP2 MSTORE CALLER PUSH1 0x4 DUP3 ADD MSTORE PUSH1 0x24 DUP2 ADD DUP5 SWAP1 MSTORE SWAP2 DUP3 SWAP1 PUSH1 0x44 SWAP1 DUP3 SWAP1 DUP5 SWAP1 GAS CALL DUP1 ISZERO PUSH3 0x2888 JUMPI JUMPDEST PUSH3 0x286A JUMPI JUMPDEST POP PUSH3 0x285B DUP2 PUSH3 0x2855 PUSH3 0x25E3 JUMP JUMPDEST PUSH3 0x2B5F JUMP JUMPDEST PUSH3 0x351 PUSH1 0x1 PUSH1 0x8 SLOAD ADD PUSH1 0x8 SSTORE JUMP JUMPDEST DUP1 PUSH3 0x287A PUSH3 0x2881 SWAP3 PUSH3 0x5CB JUMP JUMPDEST DUP1 PUSH3 0x2E6 JUMP JUMPDEST CODESIZE PUSH3 0x2845 JUMP JUMPDEST PUSH3 0x2892 PUSH3 0x1B6F JUMP JUMPDEST PUSH3 0x283F JUMP JUMPDEST POP DUP1 REVERT JUMPDEST DUP1 PUSH3 0x287A PUSH3 0x28AC SWAP3 PUSH3 0x5CB JUMP JUMPDEST CODESIZE PUSH3 0x27BA JUMP JUMPDEST PUSH3 0x28BD PUSH3 0x1B6F JUMP JUMPDEST PUSH3 0x27B4 JUMP JUMPDEST DUP5 DUP1 REVERT JUMPDEST PUSH3 0x28D1 PUSH3 0x1B6F JUMP JUMPDEST PUSH3 0x2768 JUMP JUMPDEST PUSH3 0x28E1 PUSH3 0x56D JUMP JUMPDEST PUSH3 0x26F1 JUMP JUMPDEST DUP1 PUSH3 0x287A PUSH3 0x28F7 SWAP3 PUSH3 0x5CB JUMP JUMPDEST CODESIZE PUSH3 0x26CD JUMP JUMPDEST PUSH3 0x2908 PUSH3 0x1B6F JUMP JUMPDEST PUSH3 0x26C7 JUMP JUMPDEST PUSH1 0x40 MLOAD PUSH3 0x461BCD PUSH1 0xE5 SHL DUP2 MSTORE PUSH1 0x20 PUSH1 0x4 DUP3 ADD MSTORE PUSH1 0xD PUSH1 0x24 DUP3 ADD MSTORE PUSH13 0x48616E646C6520657869737473 PUSH1 0x98 SHL PUSH1 0x44 DUP3 ADD MSTORE PUSH1 0x64 SWAP1 REVERT JUMPDEST PUSH3 0x2952 PUSH3 0x17B5 DUP3 PUSH3 0x1B07 JUMP JUMPDEST DUP1 PUSH1 0x0 MSTORE PUSH1 0x20 PUSH1 0x6 DUP2 MSTORE PUSH3 0x296B PUSH1 0x40 PUSH1 0x0 KECCAK256 PUSH3 0xEFB JUMP JUMPDEST PUSH3 0x2975 PUSH3 0xE58 JUMP JUMPDEST DUP1 MLOAD SWAP2 DUP3 ISZERO PUSH3 0x2A36 JUMPI DUP1 MLOAD PUSH3 0x2A17 JUMPI POP POP POP PUSH3 0x2998 PUSH3 0x17B5 DUP4 PUSH3 0x1B07 JUMP JUMPDEST PUSH3 0x29A2 PUSH3 0xE58 JUMP JUMPDEST DUP1 MLOAD SWAP1 SWAP3 SWAP1 PUSH1 0x0 SWAP1 ISZERO PUSH3 0x29FF JUMPI POP SWAP1 PUSH3 0x29C1 PUSH3 0x351 SWAP3 PUSH3 0x2008 JUMP JUMPDEST SWAP3 PUSH1 0x40 MLOAD SWAP4 DUP2 PUSH3 0x29DC DUP7 SWAP4 MLOAD DUP1 SWAP3 DUP7 DUP1 DUP8 ADD SWAP2 ADD PUSH3 0x2F2 JUMP JUMPDEST DUP3 ADD PUSH3 0x29F2 DUP3 MLOAD DUP1 SWAP4 DUP7 DUP1 DUP6 ADD SWAP2 ADD PUSH3 0x2F2 JUMP JUMPDEST ADD SUB DUP1 DUP5 MSTORE ADD DUP3 PUSH3 0x617 JUMP JUMPDEST SWAP3 POP POP POP PUSH1 0x40 MLOAD SWAP1 PUSH3 0x2A12 DUP3 PUSH3 0x5DF JUMP JUMPDEST DUP2 MSTORE SWAP1 JUMP JUMPDEST DUP3 PUSH3 0x351 SWAP5 SWAP4 SWAP6 POP PUSH3 0x29DC PUSH1 0x40 MLOAD SWAP7 DUP8 SWAP5 DUP7 DUP1 DUP8 ADD SWAP2 ADD PUSH3 0x2F2 JUMP JUMPDEST SWAP4 POP POP POP POP SWAP1 JUMP JUMPDEST POP PUSH4 0x4E487B71 PUSH1 0xE0 SHL PUSH1 0x0 MSTORE PUSH1 0x11 PUSH1 0x4 MSTORE PUSH1 0x24 PUSH1 0x0 REVERT JUMPDEST ISZERO PUSH3 0x2A5D JUMPI JUMP JUMPDEST PUSH1 0x40 MLOAD PUSH3 0x461BCD PUSH1 0xE5 SHL DUP2 MSTORE PUSH1 0x20 PUSH1 0x4 DUP3 ADD MSTORE PUSH1 0x1C PUSH1 0x24 DUP3 ADD MSTORE PUSH28 0x115490CDCC8C4E881D1BDAD95B88185B1C9958591E481B5A5B9D1959 PUSH1 0x22 SHL PUSH1 0x44 DUP3 ADD MSTORE PUSH1 0x64 SWAP1 REVERT JUMPDEST PUSH1 0x1 PUSH1 0x1 PUSH1 0xA0 SHL SUB DUP2 AND SWAP1 DUP2 ISZERO PUSH3 0x2B1B JUMPI PUSH3 0x2B04 SWAP1 PUSH3 0x2ACE PUSH3 0x2AC7 DUP6 PUSH3 0x1B07 JUMP JUMPDEST ISZERO PUSH3 0x2A55 JUMP JUMPDEST PUSH3 0x2ADD PUSH3 0x2AC7 DUP6 PUSH3 0x1B07 JUMP JUMPDEST PUSH3 0x2AE8 DUP2 PUSH3 0x1695 JUMP JUMPDEST PUSH1 0x1 DUP2 SLOAD ADD SWAP1 SSTORE PUSH3 0x1A42 DUP5 PUSH1 0x0 MSTORE PUSH1 0x2 PUSH1 0x20 MSTORE PUSH1 0x40 PUSH1 0x0 KECCAK256 SWAP1 JUMP JUMPDEST PUSH1 0x0 PUSH1 0x0 DUP1 MLOAD PUSH1 0x20 PUSH3 0x5767 DUP4 CODECOPY DUP2 MLOAD SWAP2 MSTORE DUP2 DUP1 LOG4 JUMP JUMPDEST PUSH1 0x64 PUSH1 0x40 MLOAD PUSH3 0x461BCD PUSH1 0xE5 SHL DUP2 MSTORE PUSH1 0x20 PUSH1 0x4 DUP3 ADD MSTORE PUSH1 0x20 PUSH1 0x24 DUP3 ADD MSTORE PUSH32 0x4552433732313A206D696E7420746F20746865207A65726F2061646472657373 PUSH1 0x44 DUP3 ADD MSTORE REVERT JUMPDEST PUSH3 0x2BA7 PUSH3 0x2B92 SWAP2 PUSH3 0x64A SWAP4 PUSH1 0x40 MLOAD SWAP4 DUP5 SWAP3 PUSH4 0x2D839CB3 PUSH1 0xE2 SHL PUSH1 0x20 DUP6 ADD MSTORE PUSH1 0x40 PUSH1 0x24 DUP6 ADD MSTORE PUSH1 0x64 DUP5 ADD SWAP1 PUSH3 0x317 JUMP JUMPDEST SWAP1 PUSH1 0x44 DUP4 ADD MSTORE SUB PUSH1 0x1F NOT DUP2 ADD DUP4 MSTORE DUP3 PUSH3 0x617 JUMP JUMPDEST PUSH1 0x0 DUP1 SWAP2 PUSH1 0x20 DUP2 MLOAD SWAP2 ADD PUSH11 0x636F6E736F6C652E6C6F67 GAS STATICCALL POP JUMP JUMPDEST PUSH3 0x2BA7 SWAP1 PUSH3 0x2C12 PUSH3 0x2BFA SWAP4 PUSH3 0x64A SWAP6 PUSH1 0x40 MLOAD SWAP6 DUP7 SWAP5 PUSH4 0x5970E089 PUSH1 0xE0 SHL PUSH1 0x20 DUP8 ADD MSTORE PUSH1 0x60 PUSH1 0x24 DUP8 ADD MSTORE PUSH1 0x84 DUP7 ADD SWAP1 PUSH3 0x317 JUMP JUMPDEST SWAP2 PUSH1 0x44 DUP6 ADD MSTORE PUSH1 0x23 NOT DUP5 DUP4 SUB ADD PUSH1 0x64 DUP6 ADD MSTORE PUSH3 0x317 JUMP JUMPDEST SUB PUSH1 0x1F NOT DUP2 ADD DUP4 MSTORE DUP3 PUSH3 0x617 JUMP INVALID PUSH1 0x40 PUSH1 0x80 DUP2 MSTORE CALLVALUE PUSH3 0x412 JUMPI PUSH3 0x2AE5 DUP1 CODESIZE SUB DUP1 PUSH3 0x1E DUP2 PUSH3 0x417 JUMP JUMPDEST SWAP3 DUP4 CODECOPY DUP2 ADD PUSH1 0x80 DUP3 DUP3 SUB SLT PUSH3 0x412 JUMPI DUP2 MLOAD PUSH1 0x1 PUSH1 0x1 PUSH1 0x40 SHL SUB SWAP3 SWAP1 DUP4 DUP2 GT PUSH3 0x412 JUMPI DUP3 PUSH3 0x50 SWAP2 DUP4 ADD PUSH3 0x43D JUMP JUMPDEST SWAP3 PUSH1 0x20 SWAP3 DUP4 DUP4 ADD MLOAD SWAP1 DUP3 DUP3 GT PUSH3 0x412 JUMPI PUSH3 0x6E SWAP2 DUP5 ADD PUSH3 0x43D JUMP JUMPDEST DUP3 DUP7 ADD MLOAD SWAP1 SWAP4 PUSH1 0x1 PUSH1 0x1 PUSH1 0xA0 SHL SUB DUP3 AND SWAP4 SWAP1 SWAP2 DUP5 SWAP1 SUB PUSH3 0x412 JUMPI PUSH1 0x60 ADD MLOAD SWAP4 DUP6 MLOAD SWAP3 DUP1 DUP5 GT PUSH3 0x3FC JUMPI PUSH1 0x0 SWAP2 DUP3 SLOAD SWAP5 PUSH1 0x1 SWAP9 DUP10 DUP8 DUP2 SHR SWAP8 AND DUP1 ISZERO PUSH3 0x3F1 JUMPI JUMPDEST DUP7 DUP9 LT EQ PUSH3 0x2FB JUMPI DUP2 SWAP1 PUSH1 0x1F SWAP8 DUP9 DUP2 GT PUSH3 0x39E JUMPI JUMPDEST POP DUP7 SWAP1 DUP9 DUP4 GT PUSH1 0x1 EQ PUSH3 0x33A JUMPI DUP7 SWAP3 PUSH3 0x32E JUMPI JUMPDEST POP POP PUSH1 0x0 NOT PUSH1 0x3 DUP4 SWAP1 SHL SHR NOT AND SWAP1 DUP10 SHL OR DUP4 SSTORE JUMPDEST DUP1 MLOAD SWAP1 DUP3 DUP3 GT PUSH3 0x31A JUMPI DUP9 SLOAD DUP10 DUP2 DUP2 SHR SWAP2 AND DUP1 ISZERO PUSH3 0x30F JUMPI JUMPDEST DUP7 DUP3 LT EQ PUSH3 0x2FB JUMPI SWAP1 DUP2 DUP8 DUP5 SWAP4 GT PUSH3 0x2A8 JUMPI JUMPDEST POP DUP6 SWAP1 DUP8 DUP4 GT PUSH1 0x1 EQ PUSH3 0x244 JUMPI DUP6 SWAP3 PUSH3 0x238 JUMPI JUMPDEST POP POP PUSH1 0x0 NOT PUSH1 0x3 DUP4 SWAP1 SHL SHR NOT AND SWAP1 DUP9 SHL OR DUP8 SSTORE JUMPDEST DUP8 MLOAD SWAP1 DUP2 DUP10 ADD SWAP1 DUP2 GT DUP3 DUP3 LT OR PUSH3 0x224 JUMPI SWAP1 DUP4 SWAP2 DUP10 MSTORE PUSH1 0x7 DUP2 MSTORE ADD SWAP3 PUSH7 0x697066733A2F2F PUSH1 0xC8 SHL DUP5 MSTORE PUSH1 0xD SLOAD SWAP3 DUP8 DUP5 DUP2 SHR SWAP5 AND DUP1 ISZERO PUSH3 0x219 JUMPI JUMPDEST DUP2 DUP6 LT EQ PUSH3 0x205 JUMPI DUP2 DUP5 GT PUSH3 0x1DF JUMPI JUMPDEST POP POP SWAP2 MLOAD PUSH1 0x1 PUSH1 0x1 PUSH1 0xC8 SHL SUB NOT AND PUSH1 0xE SWAP1 DUP2 OR PUSH1 0xD SSTORE DUP1 SLOAD PUSH1 0x1 PUSH1 0x1 PUSH1 0xA0 SHL SUB NOT AND SWAP4 SWAP1 SWAP4 OR SWAP1 SWAP3 SSTORE POP POP PUSH1 0xF SSTORE PUSH1 0xC DUP1 SLOAD SWAP2 SWAP1 SWAP2 ADD SWAP1 SSTORE MLOAD PUSH2 0x2635 SWAP1 DUP2 PUSH3 0x4B0 DUP3 CODECOPY RETURN JUMPDEST PUSH1 0xD DUP4 MSTORE DUP3 KECCAK256 SWAP3 ADD PUSH1 0x5 SHR DUP3 ADD SWAP2 DUP7 SWAP1 JUMPDEST DUP4 DUP2 LT ISZERO PUSH3 0x199 JUMPI DUP3 DUP2 SSTORE ADD DUP7 SWAP1 PUSH3 0x1F0 JUMP JUMPDEST PUSH4 0x4E487B71 PUSH1 0xE0 SHL DUP4 MSTORE PUSH1 0x22 PUSH1 0x4 MSTORE PUSH1 0x24 DUP4 REVERT JUMPDEST SWAP4 PUSH1 0x7F AND SWAP4 PUSH3 0x187 JUMP JUMPDEST PUSH4 0x4E487B71 PUSH1 0xE0 SHL DUP4 MSTORE PUSH1 0x41 PUSH1 0x4 MSTORE PUSH1 0x24 DUP4 REVERT JUMPDEST ADD MLOAD SWAP1 POP CODESIZE DUP1 PUSH3 0x137 JUMP JUMPDEST DUP11 DUP7 MSTORE DUP7 DUP7 KECCAK256 DUP12 SWAP5 POP SWAP2 SWAP1 PUSH1 0x1F NOT DUP5 AND DUP8 JUMPDEST DUP10 DUP3 DUP3 LT PUSH3 0x291 JUMPI POP POP DUP5 GT PUSH3 0x277 JUMPI JUMPDEST POP POP POP DUP2 SHL ADD DUP8 SSTORE PUSH3 0x14B JUMP JUMPDEST ADD MLOAD PUSH1 0x0 NOT PUSH1 0xF8 DUP5 PUSH1 0x3 SHL AND SHR NOT AND SWAP1 SSTORE CODESIZE DUP1 DUP1 PUSH3 0x269 JUMP JUMPDEST DUP4 DUP6 ADD MLOAD DUP7 SSTORE DUP15 SWAP8 SWAP1 SWAP6 ADD SWAP5 SWAP4 DUP5 ADD SWAP4 ADD PUSH3 0x256 JUMP JUMPDEST SWAP1 SWAP2 POP DUP10 DUP6 MSTORE DUP6 DUP6 KECCAK256 DUP8 DUP1 DUP6 ADD PUSH1 0x5 SHR DUP3 ADD SWAP3 DUP9 DUP7 LT PUSH3 0x2F1 JUMPI JUMPDEST SWAP2 DUP13 SWAP2 DUP7 SWAP6 SWAP5 SWAP4 ADD PUSH1 0x5 SHR ADD SWAP2 JUMPDEST DUP3 DUP2 LT PUSH3 0x2E2 JUMPI POP POP PUSH3 0x121 JUMP JUMPDEST DUP8 DUP2 SSTORE DUP6 SWAP5 POP DUP13 SWAP2 ADD PUSH3 0x2D2 JUMP JUMPDEST SWAP3 POP DUP2 SWAP3 PUSH3 0x2C4 JUMP JUMPDEST PUSH4 0x4E487B71 PUSH1 0xE0 SHL DUP6 MSTORE PUSH1 0x22 PUSH1 0x4 MSTORE PUSH1 0x24 DUP6 REVERT JUMPDEST SWAP1 PUSH1 0x7F AND SWAP1 PUSH3 0x10C JUMP JUMPDEST PUSH4 0x4E487B71 PUSH1 0xE0 SHL DUP5 MSTORE PUSH1 0x41 PUSH1 0x4 MSTORE PUSH1 0x24 DUP5 REVERT JUMPDEST ADD MLOAD SWAP1 POP CODESIZE DUP1 PUSH3 0xDD JUMP JUMPDEST DUP7 DUP1 MSTORE DUP8 DUP8 KECCAK256 DUP13 SWAP5 POP SWAP2 SWAP1 PUSH1 0x1F NOT DUP5 AND DUP9 JUMPDEST DUP11 DUP3 DUP3 LT PUSH3 0x387 JUMPI POP POP DUP5 GT PUSH3 0x36D JUMPI JUMPDEST POP POP POP DUP2 SHL ADD DUP4 SSTORE PUSH3 0xF1 JUMP JUMPDEST ADD MLOAD PUSH1 0x0 NOT PUSH1 0xF8 DUP5 PUSH1 0x3 SHL AND SHR NOT AND SWAP1 SSTORE CODESIZE DUP1 DUP1 PUSH3 0x35F JUMP JUMPDEST DUP4 DUP6 ADD MLOAD DUP7 SSTORE DUP16 SWAP8 SWAP1 SWAP6 ADD SWAP5 SWAP4 DUP5 ADD SWAP4 ADD PUSH3 0x34C JUMP JUMPDEST SWAP1 SWAP2 POP DUP6 DUP1 MSTORE DUP7 DUP7 KECCAK256 DUP9 DUP1 DUP6 ADD PUSH1 0x5 SHR DUP3 ADD SWAP3 DUP10 DUP7 LT PUSH3 0x3E7 JUMPI JUMPDEST SWAP2 DUP14 SWAP2 DUP7 SWAP6 SWAP5 SWAP4 ADD PUSH1 0x5 SHR ADD SWAP2 JUMPDEST DUP3 DUP2 LT PUSH3 0x3D8 JUMPI POP POP PUSH3 0xC7 JUMP JUMPDEST DUP9 DUP2 SSTORE DUP6 SWAP5 POP DUP14 SWAP2 ADD PUSH3 0x3C8 JUMP JUMPDEST SWAP3 POP DUP2 SWAP3 PUSH3 0x3BA JUMP JUMPDEST SWAP7 PUSH1 0x7F AND SWAP7 PUSH3 0xB0 JUMP JUMPDEST PUSH4 0x4E487B71 PUSH1 0xE0 SHL PUSH1 0x0 MSTORE PUSH1 0x41 PUSH1 0x4 MSTORE PUSH1 0x24 PUSH1 0x0 REVERT JUMPDEST PUSH1 0x0 DUP1 REVERT JUMPDEST PUSH1 0x40 MLOAD SWAP2 SWAP1 PUSH1 0x1F ADD PUSH1 0x1F NOT AND DUP3 ADD PUSH1 0x1 PUSH1 0x1 PUSH1 0x40 SHL SUB DUP2 GT DUP4 DUP3 LT OR PUSH3 0x3FC JUMPI PUSH1 0x40 MSTORE JUMP JUMPDEST SWAP2 SWAP1 DUP1 PUSH1 0x1F DUP5 ADD SLT ISZERO PUSH3 0x412 JUMPI DUP3 MLOAD PUSH1 0x1 PUSH1 0x1 PUSH1 0x40 SHL SUB DUP2 GT PUSH3 0x3FC JUMPI PUSH1 0x20 SWAP1 PUSH3 0x473 PUSH1 0x1F DUP3 ADD PUSH1 0x1F NOT AND DUP4 ADD PUSH3 0x417 JUMP JUMPDEST SWAP3 DUP2 DUP5 MSTORE DUP3 DUP3 DUP8 ADD ADD GT PUSH3 0x412 JUMPI PUSH1 0x0 JUMPDEST DUP2 DUP2 LT PUSH3 0x49B JUMPI POP DUP3 PUSH1 0x0 SWAP4 SWAP5 SWAP6 POP ADD ADD MSTORE SWAP1 JUMP JUMPDEST DUP6 DUP2 ADD DUP4 ADD MLOAD DUP5 DUP3 ADD DUP5 ADD MSTORE DUP3 ADD PUSH3 0x485 JUMP INVALID PUSH1 0x80 PUSH1 0x40 DUP2 DUP2 MSTORE PUSH1 0x4 SWAP2 DUP3 CALLDATASIZE LT ISZERO PUSH2 0x16 JUMPI PUSH1 0x0 DUP1 REVERT JUMPDEST PUSH1 0x0 SWAP3 DUP4 CALLDATALOAD PUSH1 0xE0 SHR SWAP2 DUP3 PUSH4 0x1FFC9A7 EQ PUSH2 0x14B7 JUMPI POP DUP2 PUSH4 0x6FDDE03 EQ PUSH2 0x1430 JUMPI DUP2 PUSH4 0x81812FC EQ PUSH2 0x1410 JUMPI DUP2 PUSH4 0x95EA7B3 EQ PUSH2 0x12A2 JUMPI DUP2 PUSH4 0x1249C58B EQ PUSH2 0x1158 JUMPI DUP2 PUSH4 0x18160DDD EQ PUSH2 0x1139 JUMPI DUP2 PUSH4 0x23B872DD EQ PUSH2 0x110F JUMPI DUP2 PUSH4 0x248A9CA3 EQ PUSH2 0x10E4 JUMPI DUP2 PUSH4 0x29ADEC14 EQ PUSH2 0x10BE JUMPI DUP2 PUSH4 0x2F2FF15D EQ PUSH2 0x1011 JUMPI DUP2 PUSH4 0x2F745C59 EQ PUSH2 0xF65 JUMPI DUP2 PUSH4 0x36568ABE EQ PUSH2 0xED3 JUMPI DUP2 PUSH4 0x42842E0E EQ PUSH2 0xEAA JUMPI DUP2 PUSH4 0x4F6CCCE7 EQ PUSH2 0xE8A JUMPI DUP2 PUSH4 0x50FF4EE3 EQ PUSH2 0xD21 JUMPI DUP2 PUSH4 0x61ACC37E EQ PUSH2 0xCBA JUMPI DUP2 PUSH4 0x6352211E EQ PUSH2 0xC89 JUMPI DUP2 PUSH4 0x70A08231 EQ PUSH2 0xC5C JUMPI DUP2 PUSH4 0x7C0F6B35 EQ PUSH2 0xBA0 JUMPI DUP2 PUSH4 0x7F50861A EQ PUSH2 0xB81 JUMPI DUP2 PUSH4 0x91D14854 EQ PUSH2 0xB3A JUMPI DUP2 PUSH4 0x95D89B41 EQ PUSH2 0xAB3 JUMPI DUP2 PUSH4 0xA217FDDF EQ PUSH2 0xA98 JUMPI DUP2 PUSH4 0xA22CB465 EQ PUSH2 0x9D0 JUMPI DUP2 PUSH4 0xA2BF68B9 EQ PUSH2 0x9A3 JUMPI DUP2 PUSH4 0xADAF1CAB EQ PUSH2 0x5BE JUMPI DUP2 PUSH4 0xB88D4FDE EQ PUSH2 0x55A JUMPI DUP2 PUSH4 0xC87B56DD EQ PUSH2 0x523 JUMPI DUP2 PUSH4 0xD547741F EQ PUSH2 0x4E0 JUMPI POP DUP1 PUSH4 0xDAEE9AC9 EQ PUSH2 0x2B9 JUMPI DUP1 PUSH4 0xE985E9C5 EQ PUSH2 0x26C JUMPI PUSH4 0xFD0DA099 EQ PUSH2 0x185 JUMPI PUSH1 0x0 DUP1 REVERT JUMPDEST CALLVALUE PUSH2 0x268 JUMPI DUP2 PUSH1 0x3 NOT CALLDATASIZE ADD SLT PUSH2 0x268 JUMPI DUP1 MLOAD SWAP1 DUP3 PUSH1 0x10 SLOAD PUSH2 0x1A5 DUP2 PUSH2 0x1717 JUMP JUMPDEST DUP1 DUP6 MSTORE SWAP1 PUSH1 0x1 SWAP1 DUP2 DUP2 AND SWAP1 DUP2 ISZERO PUSH2 0x240 JUMPI POP PUSH1 0x1 EQ PUSH2 0x1E7 JUMPI JUMPDEST POP POP POP PUSH2 0x1D1 DUP3 PUSH2 0x1E3 SWAP5 SUB DUP4 PUSH2 0x168B JUMP JUMPDEST MLOAD SWAP2 DUP3 SWAP2 PUSH1 0x20 DUP4 MSTORE PUSH1 0x20 DUP4 ADD SWAP1 PUSH2 0x1579 JUMP JUMPDEST SUB SWAP1 RETURN JUMPDEST PUSH1 0x10 DUP4 MSTORE PUSH1 0x20 SWAP6 POP PUSH32 0x1B6847DC741A1B0CD08D278845F9D819D87B734759AFB55FE2DE5CB82A9AE672 JUMPDEST DUP3 DUP5 LT PUSH2 0x22D JUMPI POP POP POP DUP3 PUSH2 0x1E3 SWAP5 PUSH2 0x1D1 SWAP3 DUP3 ADD ADD SWAP5 PUSH2 0x1BF JUMP JUMPDEST DUP1 SLOAD DUP7 DUP6 ADD DUP9 ADD MSTORE SWAP3 DUP7 ADD SWAP3 DUP2 ADD PUSH2 0x211 JUMP JUMPDEST PUSH2 0x1E3 SWAP8 POP PUSH2 0x1D1 SWAP5 POP PUSH1 0x20 SWAP3 POP DUP7 SWAP4 SWAP2 POP PUSH1 0xFF NOT AND DUP3 DUP5 ADD MSTORE ISZERO ISZERO PUSH1 0x5 SHL DUP3 ADD ADD SWAP5 PUSH2 0x1BF JUMP JUMPDEST POP DUP1 REVERT JUMPDEST POP CALLVALUE PUSH2 0x268 JUMPI DUP1 PUSH1 0x3 NOT CALLDATASIZE ADD SLT PUSH2 0x268 JUMPI PUSH1 0xFF DUP2 PUSH1 0x20 SWAP4 PUSH2 0x28B PUSH2 0x159E JUMP JUMPDEST PUSH2 0x293 PUSH2 0x15B9 JUMP JUMPDEST PUSH1 0x1 PUSH1 0x1 PUSH1 0xA0 SHL SUB SWAP2 DUP3 AND DUP4 MSTORE PUSH1 0x5 DUP8 MSTORE DUP4 DUP4 KECCAK256 SWAP2 AND DUP3 MSTORE DUP6 MSTORE KECCAK256 SLOAD SWAP2 MLOAD SWAP2 AND ISZERO ISZERO DUP2 MSTORE RETURN JUMPDEST POP CALLVALUE PUSH2 0x268 JUMPI DUP2 PUSH1 0x3 NOT CALLDATASIZE ADD SLT PUSH2 0x268 JUMPI DUP1 MLOAD SWAP2 PUSH2 0x2D6 DUP4 PUSH2 0x1655 JUMP JUMPDEST PUSH1 0x60 DUP4 MSTORE PUSH1 0x60 DUP1 PUSH1 0x20 SWAP5 DUP4 DUP7 DUP3 ADD MSTORE DUP4 DUP6 DUP3 ADD MSTORE ADD MSTORE PUSH1 0x11 SLOAD PUSH1 0xFF DUP1 DUP3 AND SWAP2 PUSH1 0x8 SHR AND SWAP4 DUP4 MLOAD SWAP4 PUSH2 0x306 DUP6 PUSH2 0x1655 JUMP JUMPDEST DUP1 MLOAD PUSH1 0x10 SLOAD SWAP7 SWAP1 DUP6 DUP2 PUSH2 0x318 DUP11 PUSH2 0x1717 JUMP JUMPDEST SWAP2 DUP3 DUP3 MSTORE PUSH1 0x1 SWAP11 DUP8 DUP13 DUP3 AND SWAP2 DUP3 PUSH1 0x0 EQ PUSH2 0x4C3 JUMPI POP POP PUSH1 0x1 EQ PUSH2 0x485 JUMPI JUMPDEST PUSH2 0x342 SWAP3 POP SUB DUP3 PUSH2 0x168B JUMP JUMPDEST DUP7 MSTORE DUP3 DUP7 ADD SWAP4 PUSH2 0x351 DUP2 PUSH2 0x1604 JUMP JUMPDEST DUP5 MSTORE DUP2 DUP7 ADD SWAP1 PUSH2 0x360 DUP2 PUSH2 0x1604 JUMP JUMPDEST DUP2 MSTORE DUP2 MLOAD SWAP2 DUP3 DUP4 DUP6 DUP1 PUSH1 0x12 SLOAD SWAP4 DUP5 DUP2 MSTORE ADD PUSH1 0x12 DUP11 MSTORE DUP12 DUP3 DUP12 KECCAK256 SWAP5 DUP12 JUMPDEST DUP8 DUP3 DUP5 DUP4 ADD LT PUSH2 0x456 JUMPI POP PUSH2 0x3AD SWAP7 SLOAD SWAP3 DUP6 DUP4 DUP4 LT PUSH2 0x43E JUMPI JUMPDEST POP POP LT PUSH2 0x430 JUMPI JUMPDEST POP SWAP1 POP SWAP10 SWAP8 SWAP7 SWAP6 SWAP10 SUB DUP5 PUSH2 0x168B JUMP JUMPDEST PUSH1 0x60 DUP8 ADD SWAP3 DUP4 MSTORE PUSH2 0x3CE DUP2 MLOAD SWAP8 DUP10 DUP10 MSTORE MLOAD PUSH1 0x80 DUP11 DUP11 ADD MSTORE PUSH1 0xA0 DUP10 ADD SWAP1 PUSH2 0x1579 JUMP JUMPDEST SWAP4 MLOAD SWAP1 PUSH2 0x3DA DUP3 PUSH2 0x1604 JUMP JUMPDEST DUP8 ADD MSTORE MLOAD PUSH2 0x3E7 DUP2 PUSH2 0x1604 JUMP JUMPDEST PUSH1 0x60 DUP7 ADD MSTORE MLOAD DUP5 DUP3 SUB PUSH1 0x1F NOT ADD PUSH1 0x80 DUP7 ADD MSTORE DUP1 MLOAD DUP1 DUP4 MSTORE SWAP2 DUP7 ADD SWAP6 SWAP1 DUP2 ADD SWAP3 JUMPDEST DUP3 DUP2 LT PUSH2 0x414 JUMPI DUP6 DUP8 SUB DUP7 RETURN JUMPDEST DUP4 MLOAD PUSH1 0x1 PUSH1 0x1 PUSH1 0x80 SHL SUB AND DUP8 MSTORE SWAP6 DUP2 ADD SWAP6 SWAP3 DUP2 ADD SWAP3 DUP5 ADD PUSH2 0x407 JUMP JUMPDEST PUSH1 0x80 SHR DUP2 MSTORE ADD DUP7 SWAP1 CODESIZE PUSH2 0x39E JUMP JUMPDEST PUSH1 0x1 PUSH1 0x1 PUSH1 0x80 SHL SUB DUP6 AND DUP7 MSTORE SWAP1 SWAP5 ADD SWAP4 ADD DUP15 DUP6 PUSH2 0x396 JUMP JUMPDEST DUP8 SLOAD PUSH1 0x1 PUSH1 0x1 PUSH1 0x80 SHL SUB DUP2 AND DUP7 MSTORE PUSH1 0x80 SHR DUP13 DUP7 ADD MSTORE SWAP3 SWAP1 SWAP7 ADD SWAP6 DUP10 SWAP6 POP DUP11 SWAP5 POP SWAP2 SWAP1 SWAP3 ADD SWAP2 DUP14 SWAP2 PUSH1 0x2 ADD PUSH2 0x37C JUMP JUMPDEST POP POP PUSH1 0x10 DUP8 MSTORE DUP2 DUP6 DUP1 DUP10 KECCAK256 DUP12 DUP11 SWAP2 JUMPDEST DUP6 DUP4 LT PUSH2 0x4AA JUMPI POP POP PUSH2 0x342 SWAP4 POP DUP3 ADD ADD PUSH2 0x336 JUMP JUMPDEST DUP1 SWAP2 SWAP3 SWAP5 POP SLOAD DUP4 DUP6 DUP9 ADD ADD MSTORE ADD SWAP2 ADD DUP7 SWAP1 DUP12 DUP6 SWAP4 PUSH2 0x494 JUMP JUMPDEST PUSH1 0xFF NOT AND DUP5 DUP3 ADD MSTORE PUSH2 0x342 SWAP5 ISZERO ISZERO PUSH1 0x5 SHL DUP5 ADD ADD SWAP2 POP PUSH2 0x336 SWAP1 POP JUMP JUMPDEST SWAP2 SWAP1 POP CALLVALUE PUSH2 0x51F JUMPI DUP1 PUSH1 0x3 NOT CALLDATASIZE ADD SLT PUSH2 0x51F JUMPI PUSH2 0x51C SWAP2 CALLDATALOAD PUSH2 0x517 PUSH1 0x1 PUSH2 0x505 PUSH2 0x15B9 JUMP JUMPDEST SWAP4 DUP4 DUP8 MSTORE PUSH1 0xB PUSH1 0x20 MSTORE DUP7 KECCAK256 ADD SLOAD PUSH2 0x180E JUMP JUMPDEST PUSH2 0x1AD6 JUMP JUMPDEST DUP1 RETURN JUMPDEST DUP3 DUP1 REVERT JUMPDEST DUP3 DUP5 CALLVALUE PUSH2 0x557 JUMPI PUSH1 0x20 CALLDATASIZE PUSH1 0x3 NOT ADD SLT PUSH2 0x557 JUMPI POP PUSH2 0x544 PUSH2 0x1E3 SWAP3 CALLDATALOAD PUSH2 0x2288 JUMP JUMPDEST SWAP1 MLOAD SWAP2 DUP3 SWAP2 PUSH1 0x20 DUP4 MSTORE PUSH1 0x20 DUP4 ADD SWAP1 PUSH2 0x1579 JUMP JUMPDEST DUP1 REVERT JUMPDEST DUP4 SWAP1 CALLVALUE PUSH2 0x268 JUMPI PUSH1 0x80 CALLDATASIZE PUSH1 0x3 NOT ADD SLT PUSH2 0x268 JUMPI PUSH2 0x575 PUSH2 0x159E JUMP JUMPDEST PUSH2 0x57D PUSH2 0x15B9 JUMP JUMPDEST SWAP1 PUSH1 0x64 CALLDATALOAD PUSH1 0x1 PUSH1 0x1 PUSH1 0x40 SHL SUB DUP2 GT PUSH2 0x5BA JUMPI CALLDATASIZE PUSH1 0x23 DUP3 ADD SLT ISZERO PUSH2 0x5BA JUMPI PUSH2 0x51C SWAP4 DUP2 PUSH1 0x24 PUSH2 0x5B0 SWAP4 CALLDATASIZE SWAP4 ADD CALLDATALOAD SWAP2 ADD PUSH2 0x16C9 JUMP JUMPDEST SWAP2 PUSH1 0x44 CALLDATALOAD SWAP2 PUSH2 0x1CBE JUMP JUMPDEST DUP5 DUP1 REVERT JUMPDEST SWAP2 SWAP1 POP CALLVALUE PUSH2 0x51F JUMPI PUSH1 0x20 PUSH1 0x3 NOT DUP2 DUP2 CALLDATASIZE ADD SLT PUSH2 0x5BA JUMPI DUP4 CALLDATALOAD SWAP3 PUSH1 0x1 PUSH1 0x1 PUSH1 0x40 SHL SUB SWAP2 DUP3 DUP6 GT PUSH2 0x99F JUMPI PUSH1 0x80 SWAP1 DUP6 CALLDATASIZE SUB ADD SLT PUSH2 0x99B JUMPI DUP1 MLOAD SWAP4 PUSH1 0x80 DUP6 ADD DUP6 DUP2 LT DUP5 DUP3 GT OR PUSH2 0x988 JUMPI DUP3 MSTORE DUP1 DUP7 ADD CALLDATALOAD DUP4 DUP2 GT PUSH2 0x984 JUMPI DUP2 ADD SWAP2 CALLDATASIZE PUSH1 0x23 DUP5 ADD SLT ISZERO PUSH2 0x984 JUMPI PUSH2 0x634 PUSH1 0x24 SWAP4 CALLDATASIZE SWAP1 DUP6 DUP11 DUP3 ADD CALLDATALOAD SWAP2 ADD PUSH2 0x16C9 JUMP JUMPDEST DUP7 MSTORE DUP3 DUP3 ADD CALLDATALOAD SWAP2 PUSH1 0x2 SWAP7 DUP8 DUP5 LT ISZERO PUSH2 0x980 JUMPI DUP7 DUP2 ADD SWAP4 DUP5 MSTORE PUSH1 0x44 DUP3 ADD CALLDATALOAD SWAP2 DUP9 DUP4 LT ISZERO PUSH2 0x978 JUMPI DUP4 DUP3 ADD SWAP3 DUP4 MSTORE PUSH1 0x64 DUP2 ADD CALLDATALOAD SWAP1 DUP8 DUP3 GT PUSH2 0x97C JUMPI ADD CALLDATASIZE PUSH1 0x23 DUP3 ADD SLT ISZERO PUSH2 0x978 JUMPI DUP10 DUP2 ADD CALLDATALOAD PUSH2 0x692 PUSH2 0x689 DUP3 PUSH2 0x1700 JUMP JUMPDEST SWAP6 MLOAD SWAP6 DUP7 PUSH2 0x168B JUMP JUMPDEST DUP1 DUP6 MSTORE DUP7 DUP10 DUP7 ADD SWAP2 PUSH1 0x5 SHL DUP4 ADD ADD SWAP2 CALLDATASIZE DUP4 GT PUSH2 0x974 JUMPI DUP8 ADD SWAP1 JUMPDEST DUP3 DUP3 LT PUSH2 0x951 JUMPI POP POP POP PUSH1 0x60 DUP2 ADD SWAP3 DUP4 MSTORE MLOAD SWAP3 DUP4 MLOAD DUP7 DUP2 GT PUSH2 0x93F JUMPI DUP1 PUSH1 0x10 SWAP6 DUP13 PUSH2 0x6D7 DUP9 SLOAD PUSH2 0x1717 JUMP JUMPDEST DUP12 PUSH1 0x1F DUP3 GT PUSH2 0x906 JUMPI JUMPDEST POP POP POP DUP10 SWAP1 DUP14 PUSH1 0x1F DUP5 GT PUSH1 0x1 EQ PUSH2 0x8A3 JUMPI SWAP3 PUSH2 0x898 JUMPI JUMPDEST POP POP DUP2 PUSH1 0x1 SHL SWAP2 PUSH1 0x0 NOT SWAP1 PUSH1 0x3 SHL SHR NOT AND OR DUP5 SSTORE JUMPDEST MLOAD SWAP1 PUSH2 0x718 DUP3 PUSH2 0x1604 JUMP JUMPDEST PUSH2 0x721 DUP3 PUSH2 0x1604 JUMP JUMPDEST PUSH1 0xFF PUSH2 0xFF00 PUSH1 0x11 SLOAD SWAP3 MLOAD PUSH2 0x734 DUP2 PUSH2 0x1604 JUMP JUMPDEST PUSH2 0x73D DUP2 PUSH2 0x1604 JUMP JUMPDEST PUSH1 0x8 SHL AND SWAP3 AND SWAP1 PUSH2 0xFFFF NOT AND OR OR PUSH1 0x11 SSTORE MLOAD SWAP2 DUP3 MLOAD SWAP4 DUP5 GT PUSH2 0x887 JUMPI PUSH1 0x1 PUSH1 0x40 SHL DUP5 GT PUSH2 0x887 JUMPI POP SWAP1 DUP4 SWAP2 PUSH1 0x12 SLOAD SWAP1 DUP5 PUSH1 0x12 SSTORE DUP2 DUP6 LT PUSH2 0x83A JUMPI JUMPDEST POP POP ADD SWAP1 PUSH1 0x12 DUP7 MSTORE DUP3 DUP7 KECCAK256 SWAP3 PUSH1 0x1 SWAP3 DUP3 DUP5 SHR SWAP6 DUP9 JUMPDEST DUP8 DUP2 LT PUSH2 0x7F6 JUMPI POP POP PUSH1 0x1 NOT DUP4 AND SWAP1 SWAP3 SUB SWAP2 DUP3 PUSH2 0x7A8 JUMPI DUP8 DUP1 RETURN JUMPDEST SWAP3 SWAP2 SWAP1 DUP8 SWAP7 DUP9 SWAP1 JUMPDEST DUP4 DUP3 LT PUSH2 0x7CA JUMPI POP POP POP POP POP POP ADD SSTORE CODESIZE DUP1 DUP1 DUP1 DUP1 DUP1 DUP1 DUP8 DUP1 RETURN JUMPDEST SWAP1 SWAP2 SWAP3 SWAP4 DUP4 PUSH2 0x7E9 DUP3 SWAP8 SWAP11 PUSH1 0x1 DUP1 PUSH1 0x80 SHL SUB DUP13 MLOAD AND SWAP1 DUP7 DUP7 SHL SWAP1 PUSH2 0x226F JUMP JUMPDEST SWAP10 ADD SWAP6 SWAP5 SWAP4 SWAP3 ADD SWAP1 PUSH2 0x7B0 JUMP JUMPDEST DUP6 SWAP1 DUP11 DUP12 JUMPDEST DUP7 DUP13 DUP7 DUP4 LT PUSH2 0x811 JUMPI POP POP POP DUP2 DUP10 ADD SSTORE ADD PUSH2 0x78D JUMP JUMPDEST DUP3 SWAP8 SWAP5 SWAP6 SWAP4 PUSH2 0x82D SWAP3 SWAP4 PUSH1 0x1 DUP1 PUSH1 0x80 SHL SUB DUP8 MLOAD AND SWAP3 SHL SWAP1 PUSH2 0x226F JUMP JUMPDEST SWAP3 ADD SWAP5 ADD SWAP1 DUP8 SWAP3 SWAP2 PUSH2 0x7FB JUMP JUMPDEST PUSH2 0x866 SWAP2 PUSH1 0x12 DUP11 MSTORE PUSH1 0x1 DUP6 DUP12 KECCAK256 SWAP2 DUP2 DUP9 ADD DUP3 SHR DUP4 ADD SWAP4 DUP9 DUP13 SHL AND DUP1 PUSH2 0x86D JUMPI JUMPDEST POP ADD PUSH1 0x1 SHR ADD SWAP1 PUSH2 0x2258 JUMP JUMPDEST CODESIZE DUP1 PUSH2 0x778 JUMP JUMPDEST PUSH1 0x0 NOT SWAP1 DUP2 DUP7 ADD SWAP2 DUP3 SLOAD SWAP2 DUP11 SUB PUSH1 0x3 SHL SHR AND SWAP1 SSTORE CODESIZE PUSH2 0x85A JUMP JUMPDEST PUSH4 0x4E487B71 PUSH1 0xE0 SHL DUP9 MSTORE PUSH1 0x41 DUP8 MSTORE DUP8 REVERT JUMPDEST ADD MLOAD SWAP1 POP CODESIZE DUP1 PUSH2 0x6F8 JUMP JUMPDEST DUP9 DUP2 MSTORE DUP12 DUP2 KECCAK256 SWAP4 POP PUSH1 0x1F NOT DUP6 AND SWAP1 JUMPDEST DUP13 DUP3 DUP3 LT PUSH2 0x8F0 JUMPI POP POP SWAP1 DUP5 PUSH1 0x1 SWAP6 SWAP5 SWAP4 SWAP3 LT PUSH2 0x8D7 JUMPI JUMPDEST POP POP POP DUP2 SHL ADD DUP5 SSTORE PUSH2 0x70D JUMP JUMPDEST ADD MLOAD PUSH1 0x0 NOT PUSH1 0xF8 DUP5 PUSH1 0x3 SHL AND SHR NOT AND SWAP1 SSTORE CODESIZE DUP1 DUP1 PUSH2 0x8CA JUMP JUMPDEST PUSH1 0x1 DUP6 SWAP7 DUP3 SWAP4 SWAP7 DUP7 ADD MLOAD DUP2 SSTORE ADD SWAP6 ADD SWAP4 ADD PUSH2 0x8B2 JUMP JUMPDEST DUP3 DUP11 PUSH2 0x92D SWAP5 MSTORE KECCAK256 PUSH1 0x1F DUP6 ADD PUSH1 0x5 SHR DUP2 ADD SWAP2 DUP14 DUP7 LT PUSH2 0x935 JUMPI JUMPDEST PUSH1 0x1F ADD PUSH1 0x5 SHR ADD SWAP1 PUSH2 0x2258 JUMP JUMPDEST DUP13 CODESIZE DUP12 PUSH2 0x6E1 JUMP JUMPDEST SWAP1 SWAP2 POP DUP2 SWAP1 PUSH2 0x920 JUMP JUMPDEST PUSH4 0x4E487B71 PUSH1 0xE0 SHL DUP12 MSTORE PUSH1 0x41 DUP11 MSTORE DUP6 DUP12 REVERT JUMPDEST DUP2 CALLDATALOAD PUSH1 0x1 PUSH1 0x1 PUSH1 0x80 SHL SUB DUP2 AND DUP2 SUB PUSH2 0x970 JUMPI DUP2 MSTORE SWAP1 DUP10 ADD SWAP1 DUP10 ADD PUSH2 0x6AC JUMP JUMPDEST DUP14 DUP1 REVERT JUMPDEST DUP13 DUP1 REVERT JUMPDEST DUP11 DUP1 REVERT JUMPDEST DUP12 DUP1 REVERT JUMPDEST DUP10 DUP1 REVERT JUMPDEST DUP8 DUP1 REVERT JUMPDEST PUSH4 0x4E487B71 PUSH1 0xE0 SHL DUP9 MSTORE PUSH1 0x41 DUP8 MSTORE PUSH1 0x24 DUP9 REVERT JUMPDEST DUP6 DUP1 REVERT JUMPDEST DUP7 DUP1 REVERT JUMPDEST POP POP CALLVALUE PUSH2 0x268 JUMPI DUP2 PUSH1 0x3 NOT CALLDATASIZE ADD SLT PUSH2 0x268 JUMPI PUSH1 0x11 SLOAD SWAP1 MLOAD PUSH1 0x20 SWAP2 PUSH1 0x8 SHR PUSH1 0xFF AND PUSH2 0x9CC DUP2 PUSH2 0x1604 JUMP JUMPDEST DUP2 MSTORE RETURN JUMPDEST SWAP2 SWAP1 POP CALLVALUE PUSH2 0x51F JUMPI DUP1 PUSH1 0x3 NOT CALLDATASIZE ADD SLT PUSH2 0x51F JUMPI PUSH2 0x9EB PUSH2 0x159E JUMP JUMPDEST SWAP1 PUSH1 0x24 CALLDATALOAD SWAP2 DUP3 ISZERO ISZERO DUP1 SWAP4 SUB PUSH2 0x5BA JUMPI PUSH1 0x1 PUSH1 0x1 PUSH1 0xA0 SHL SUB AND SWAP3 CALLER DUP5 EQ PUSH2 0xA5A JUMPI POP CALLER DUP5 MSTORE PUSH1 0x5 PUSH1 0x20 MSTORE DUP1 DUP5 KECCAK256 DUP4 DUP6 MSTORE PUSH1 0x20 MSTORE DUP1 DUP5 KECCAK256 PUSH1 0xFF NOT DUP2 SLOAD AND PUSH1 0xFF DUP5 AND OR SWAP1 SSTORE MLOAD SWAP1 DUP2 MSTORE PUSH32 0x17307EAB39AB6107E8899845AD3D59BD9653F200F220920489CA2B5937696C31 PUSH1 0x20 CALLER SWAP3 LOG3 DUP1 RETURN JUMPDEST PUSH1 0x20 PUSH1 0x64 SWAP3 MLOAD SWAP2 PUSH3 0x461BCD PUSH1 0xE5 SHL DUP4 MSTORE DUP3 ADD MSTORE PUSH1 0x19 PUSH1 0x24 DUP3 ADD MSTORE PUSH25 0x22A9219B99189D1030B8383937BB32903A379031B0B63632B9 PUSH1 0x39 SHL PUSH1 0x44 DUP3 ADD MSTORE REVERT JUMPDEST POP POP CALLVALUE PUSH2 0x268 JUMPI DUP2 PUSH1 0x3 NOT CALLDATASIZE ADD SLT PUSH2 0x268 JUMPI MLOAD SWAP1 DUP2 MSTORE PUSH1 0x20 SWAP1 RETURN JUMPDEST POP POP CALLVALUE PUSH2 0x268 JUMPI DUP2 PUSH1 0x3 NOT CALLDATASIZE ADD SLT PUSH2 0x268 JUMPI DUP1 MLOAD SWAP1 DUP3 PUSH1 0x1 DUP1 SLOAD SWAP1 PUSH2 0xAD7 DUP3 PUSH2 0x1717 JUMP JUMPDEST DUP1 DUP7 MSTORE SWAP2 DUP2 DUP2 AND SWAP1 DUP2 ISZERO PUSH2 0x240 JUMPI POP PUSH1 0x1 EQ PUSH2 0xAFF JUMPI POP POP POP PUSH2 0x1D1 DUP3 PUSH2 0x1E3 SWAP5 SUB DUP4 PUSH2 0x168B JUMP JUMPDEST DUP1 SWAP6 POP DUP3 MSTORE PUSH1 0x20 SWAP5 DUP6 DUP4 KECCAK256 JUMPDEST DUP3 DUP5 LT PUSH2 0xB27 JUMPI POP POP POP DUP3 PUSH2 0x1E3 SWAP5 PUSH2 0x1D1 SWAP3 DUP3 ADD ADD SWAP5 PUSH2 0x1BF JUMP JUMPDEST DUP1 SLOAD DUP7 DUP6 ADD DUP9 ADD MSTORE SWAP3 DUP7 ADD SWAP3 DUP2 ADD PUSH2 0xB0B JUMP JUMPDEST SWAP1 POP CALLVALUE PUSH2 0x51F JUMPI DUP2 PUSH1 0x3 NOT CALLDATASIZE ADD SLT PUSH2 0x51F JUMPI DUP2 PUSH1 0x20 SWAP4 PUSH1 0xFF SWAP3 PUSH2 0xB5B PUSH2 0x15B9 JUMP JUMPDEST SWAP1 CALLDATALOAD DUP3 MSTORE PUSH1 0xB DUP7 MSTORE DUP3 DUP3 KECCAK256 PUSH1 0x1 PUSH1 0x1 PUSH1 0xA0 SHL SUB SWAP1 SWAP2 AND DUP3 MSTORE DUP6 MSTORE KECCAK256 SLOAD SWAP2 MLOAD SWAP2 AND ISZERO ISZERO DUP2 MSTORE RETURN JUMPDEST POP POP CALLVALUE PUSH2 0x268 JUMPI DUP2 PUSH1 0x3 NOT CALLDATASIZE ADD SLT PUSH2 0x268 JUMPI PUSH1 0x20 SWAP1 PUSH1 0xF SLOAD SWAP1 MLOAD SWAP1 DUP2 MSTORE RETURN JUMPDEST DUP3 DUP5 CALLVALUE PUSH2 0x557 JUMPI DUP1 PUSH1 0x3 NOT CALLDATASIZE ADD SLT PUSH2 0x557 JUMPI SWAP1 PUSH1 0x8 SLOAD SWAP2 PUSH2 0xBC0 DUP4 PUSH2 0x1700 JUMP JUMPDEST SWAP1 PUSH2 0xBCD DUP4 MLOAD SWAP3 DUP4 PUSH2 0x168B JUMP JUMPDEST DUP4 DUP3 MSTORE PUSH2 0xBD9 DUP5 PUSH2 0x1700 JUMP JUMPDEST PUSH1 0x20 SWAP5 DUP6 DUP5 ADD SWAP4 SWAP2 PUSH1 0x1F NOT ADD CALLDATASIZE DUP6 CALLDATACOPY DUP3 JUMPDEST DUP2 DUP2 LT PUSH2 0xC2E JUMPI POP POP DUP4 MLOAD SWAP5 DUP6 SWAP5 DUP2 DUP7 ADD SWAP3 DUP3 DUP8 MSTORE MLOAD DUP1 SWAP4 MSTORE DUP6 ADD SWAP4 SWAP3 JUMPDEST DUP3 DUP2 LT PUSH2 0xC17 JUMPI POP POP POP POP SUB SWAP1 RETURN JUMPDEST DUP4 MLOAD DUP6 MSTORE DUP7 SWAP6 POP SWAP4 DUP2 ADD SWAP4 SWAP3 DUP2 ADD SWAP3 PUSH1 0x1 ADD PUSH2 0xC08 JUMP JUMPDEST DUP1 PUSH2 0xC41 PUSH2 0xC51 SWAP3 SWAP9 SWAP6 SWAP5 SWAP7 SWAP8 SWAP9 PUSH2 0x21D0 JUMP JUMPDEST PUSH2 0xC4B DUP3 DUP9 PUSH2 0x2569 JUMP JUMPDEST MSTORE PUSH2 0x255A JUMP JUMPDEST SWAP6 SWAP5 SWAP4 SWAP2 SWAP3 SWAP6 PUSH2 0xBEA JUMP JUMPDEST POP POP CALLVALUE PUSH2 0x268 JUMPI PUSH1 0x20 CALLDATASIZE PUSH1 0x3 NOT ADD SLT PUSH2 0x268 JUMPI PUSH1 0x20 SWAP1 PUSH2 0xC82 PUSH2 0xC7D PUSH2 0x159E JUMP JUMPDEST PUSH2 0x1B4C JUMP JUMPDEST SWAP1 MLOAD SWAP1 DUP2 MSTORE RETURN JUMPDEST DUP3 DUP5 CALLVALUE PUSH2 0x557 JUMPI PUSH1 0x20 CALLDATASIZE PUSH1 0x3 NOT ADD SLT PUSH2 0x557 JUMPI POP PUSH2 0xCA9 PUSH1 0x20 SWAP3 CALLDATALOAD PUSH2 0x1C0A JUMP JUMPDEST SWAP1 MLOAD PUSH1 0x1 PUSH1 0x1 PUSH1 0xA0 SHL SUB SWAP1 SWAP2 AND DUP2 MSTORE RETURN JUMPDEST SWAP1 POP CALLVALUE PUSH2 0x51F JUMPI PUSH1 0x20 CALLDATASIZE PUSH1 0x3 NOT ADD SLT PUSH2 0x51F JUMPI CALLDATALOAD PUSH1 0x12 SLOAD DUP2 LT ISZERO PUSH2 0x51F JUMPI PUSH1 0x12 SWAP1 SWAP3 MSTORE PUSH1 0x1 DUP3 SWAP1 SHR PUSH32 0xBB8A6A4669BA250D26CD7A459ECA9D215F8307E33AEBE50379BC5A3617EC3444 ADD SLOAD SWAP1 MLOAD PUSH1 0x7 SWAP3 SWAP1 SWAP3 SHL PUSH1 0x80 AND SHR PUSH1 0x1 PUSH1 0x1 PUSH1 0x80 SHL SUB AND DUP2 MSTORE PUSH1 0x20 SWAP1 RETURN JUMPDEST DUP3 DUP5 CALLVALUE PUSH2 0x557 JUMPI DUP1 PUSH1 0x3 NOT CALLDATASIZE ADD SLT PUSH2 0x557 JUMPI PUSH1 0x8 SLOAD PUSH2 0xD3F DUP2 PUSH2 0x1700 JUMP JUMPDEST SWAP1 PUSH2 0xD4C DUP5 MLOAD SWAP3 DUP4 PUSH2 0x168B JUMP JUMPDEST DUP1 DUP3 MSTORE PUSH1 0x1F NOT PUSH2 0xD5B DUP3 PUSH2 0x1700 JUMP JUMPDEST ADD DUP4 JUMPDEST DUP2 DUP2 LT PUSH2 0xE62 JUMPI POP POP DUP3 JUMPDEST DUP2 DUP2 LT PUSH2 0xDF2 JUMPI POP POP DUP3 MLOAD SWAP2 PUSH1 0x20 DUP1 DUP5 ADD SWAP1 DUP1 DUP6 MSTORE DUP4 MLOAD DUP1 SWAP3 MSTORE DUP6 DUP6 ADD DUP2 DUP8 DUP5 PUSH1 0x5 SHL DUP9 ADD ADD SWAP6 ADD SWAP4 SWAP7 JUMPDEST DUP4 DUP9 LT PUSH2 0xDA1 JUMPI DUP7 DUP7 SUB DUP8 RETURN JUMPDEST SWAP1 SWAP2 SWAP3 SWAP4 SWAP5 DUP4 DUP1 PUSH1 0x1 SWAP3 PUSH1 0x3F NOT DUP11 DUP3 SUB ADD DUP7 MSTORE DUP9 MLOAD SWAP1 DUP2 MLOAD DUP2 MSTORE DUP6 PUSH2 0xDD2 DUP5 DUP5 ADD MLOAD PUSH1 0x60 DUP1 DUP8 DUP7 ADD MSTORE DUP5 ADD SWAP1 PUSH2 0x1579 JUMP JUMPDEST SWAP3 DUP2 DUP8 DUP1 PUSH1 0xA0 SHL SUB SWAP2 ADD MLOAD AND SWAP2 ADD MSTORE SWAP8 ADD SWAP4 ADD SWAP8 ADD SWAP7 SWAP1 SWAP4 SWAP3 SWAP2 SWAP4 PUSH2 0xD94 JUMP JUMPDEST DUP1 PUSH2 0xDFF PUSH2 0xE5D SWAP3 PUSH2 0x21D0 JUMP JUMPDEST PUSH2 0xE10 PUSH2 0xE0B DUP4 PUSH2 0x21D0 JUMP JUMPDEST PUSH2 0x2288 JUMP JUMPDEST PUSH2 0xE21 PUSH2 0xE1C DUP5 PUSH2 0x21D0 JUMP JUMPDEST PUSH2 0x1C0A JUMP JUMPDEST SWAP1 DUP9 MLOAD SWAP3 PUSH2 0xE2E DUP5 PUSH2 0x1624 JUMP JUMPDEST DUP4 MSTORE PUSH1 0x20 DUP4 ADD MSTORE PUSH1 0x1 PUSH1 0x1 PUSH1 0xA0 SHL SUB AND DUP8 DUP3 ADD MSTORE PUSH2 0xE4C DUP3 DUP7 PUSH2 0x2569 JUMP JUMPDEST MSTORE PUSH2 0xE57 DUP2 DUP6 PUSH2 0x2569 JUMP JUMPDEST POP PUSH2 0x255A JUMP JUMPDEST PUSH2 0xD69 JUMP JUMPDEST PUSH1 0x20 SWAP1 DUP7 MLOAD PUSH2 0xE70 DUP2 PUSH2 0x1624 JUMP JUMPDEST DUP7 DUP2 MSTORE DUP3 PUSH1 0x60 DUP2 DUP4 ADD MSTORE DUP8 DUP10 DUP4 ADD MSTORE DUP3 DUP8 ADD ADD MSTORE ADD PUSH2 0xD5E JUMP JUMPDEST DUP3 DUP5 CALLVALUE PUSH2 0x557 JUMPI PUSH1 0x20 CALLDATASIZE PUSH1 0x3 NOT ADD SLT PUSH2 0x557 JUMPI POP PUSH2 0xC82 PUSH1 0x20 SWAP3 CALLDATALOAD PUSH2 0x21D0 JUMP JUMPDEST POP POP CALLVALUE PUSH2 0x268 JUMPI PUSH2 0x51C SWAP1 PUSH2 0xEBE CALLDATASIZE PUSH2 0x15CF JUMP JUMPDEST SWAP2 SWAP3 MLOAD SWAP3 PUSH2 0xECB DUP5 PUSH2 0x1670 JUMP JUMPDEST DUP6 DUP5 MSTORE PUSH2 0x1CBE JUMP JUMPDEST DUP4 SWAP2 POP CALLVALUE PUSH2 0x268 JUMPI DUP3 PUSH1 0x3 NOT CALLDATASIZE ADD SLT PUSH2 0x268 JUMPI PUSH2 0xEEE PUSH2 0x15B9 JUMP JUMPDEST SWAP1 CALLER PUSH1 0x1 PUSH1 0x1 PUSH1 0xA0 SHL SUB DUP4 AND SUB PUSH2 0xF0A JUMPI SWAP1 PUSH2 0x51C SWAP2 CALLDATALOAD PUSH2 0x1AD6 JUMP JUMPDEST PUSH1 0x84 SWAP1 PUSH1 0x20 DUP6 MLOAD SWAP2 PUSH3 0x461BCD PUSH1 0xE5 SHL DUP4 MSTORE DUP3 ADD MSTORE PUSH1 0x2F PUSH1 0x24 DUP3 ADD MSTORE PUSH32 0x416363657373436F6E74726F6C3A2063616E206F6E6C792072656E6F756E6365 PUSH1 0x44 DUP3 ADD MSTORE PUSH15 0x103937B632B9903337B91039B2B633 PUSH1 0x89 SHL PUSH1 0x64 DUP3 ADD MSTORE REVERT JUMPDEST DUP3 DUP5 CALLVALUE PUSH2 0x557 JUMPI DUP2 PUSH1 0x3 NOT CALLDATASIZE ADD SLT PUSH2 0x557 JUMPI PUSH2 0xF7F PUSH2 0x159E JUMP JUMPDEST PUSH1 0x24 CALLDATALOAD SWAP1 PUSH2 0xF8C DUP2 PUSH2 0x1B4C JUMP JUMPDEST DUP3 LT ISZERO PUSH2 0xFBA JUMPI PUSH1 0x1 PUSH1 0x1 PUSH1 0xA0 SHL SUB AND DUP3 MSTORE PUSH1 0x6 PUSH1 0x20 SWAP1 DUP2 MSTORE DUP4 DUP4 KECCAK256 SWAP2 DUP4 MSTORE SWAP1 DUP2 MSTORE SWAP1 DUP3 SWAP1 KECCAK256 SLOAD DUP3 MLOAD SWAP1 DUP2 MSTORE RETURN JUMPDEST DUP4 MLOAD PUSH3 0x461BCD PUSH1 0xE5 SHL DUP2 MSTORE PUSH1 0x20 DUP2 DUP8 ADD MSTORE PUSH1 0x2B PUSH1 0x24 DUP3 ADD MSTORE PUSH32 0x455243373231456E756D657261626C653A206F776E657220696E646578206F75 PUSH1 0x44 DUP3 ADD MSTORE PUSH11 0x74206F6620626F756E6473 PUSH1 0xA8 SHL PUSH1 0x64 DUP3 ADD MSTORE PUSH1 0x84 SWAP1 REVERT JUMPDEST SWAP1 POP CALLVALUE PUSH2 0x51F JUMPI DUP2 PUSH1 0x3 NOT CALLDATASIZE ADD SLT PUSH2 0x51F JUMPI CALLDATALOAD SWAP1 PUSH2 0x102D PUSH2 0x15B9 JUMP JUMPDEST SWAP1 DUP3 DUP5 MSTORE PUSH1 0xB PUSH1 0x20 MSTORE PUSH2 0x1045 PUSH1 0x1 DUP3 DUP7 KECCAK256 ADD SLOAD PUSH2 0x180E JUMP JUMPDEST DUP3 DUP5 MSTORE PUSH1 0xB PUSH1 0x20 SWAP1 DUP2 MSTORE DUP2 DUP6 KECCAK256 PUSH1 0x1 PUSH1 0x1 PUSH1 0xA0 SHL SUB SWAP1 SWAP4 AND DUP1 DUP7 MSTORE SWAP3 SWAP1 MSTORE DUP1 DUP5 KECCAK256 SLOAD PUSH1 0xFF AND ISZERO PUSH2 0x1073 JUMPI DUP4 DUP1 RETURN JUMPDEST DUP3 DUP5 MSTORE PUSH1 0xB PUSH1 0x20 MSTORE DUP1 DUP5 KECCAK256 DUP3 DUP6 MSTORE PUSH1 0x20 MSTORE DUP4 KECCAK256 PUSH1 0x1 PUSH1 0xFF NOT DUP3 SLOAD AND OR SWAP1 SSTORE CALLER SWAP2 PUSH32 0x2F8788117E7EFF1D82E926EC794901D17C78024A50270940304540A733656F0D DUP5 DUP1 LOG4 CODESIZE DUP1 DUP1 DUP4 DUP1 RETURN JUMPDEST POP POP CALLVALUE PUSH2 0x268 JUMPI DUP2 PUSH1 0x3 NOT CALLDATASIZE ADD SLT PUSH2 0x268 JUMPI PUSH1 0x11 SLOAD SWAP1 MLOAD PUSH1 0x20 SWAP2 PUSH1 0xFF AND PUSH2 0x9CC DUP2 PUSH2 0x1604 JUMP JUMPDEST SWAP1 POP CALLVALUE PUSH2 0x51F JUMPI PUSH1 0x20 CALLDATASIZE PUSH1 0x3 NOT ADD SLT PUSH2 0x51F JUMPI DUP2 PUSH1 0x20 SWAP4 PUSH1 0x1 SWAP3 CALLDATALOAD DUP2 MSTORE PUSH1 0xB DUP6 MSTORE KECCAK256 ADD SLOAD SWAP1 MLOAD SWAP1 DUP2 MSTORE RETURN JUMPDEST DUP4 CALLVALUE PUSH2 0x557 JUMPI PUSH2 0x51C PUSH2 0x1121 CALLDATASIZE PUSH2 0x15CF JUMP JUMPDEST SWAP2 PUSH2 0x1134 PUSH2 0x112F DUP5 CALLER PUSH2 0x1D37 JUMP JUMPDEST PUSH2 0x1C5C JUMP JUMPDEST PUSH2 0x1DFF JUMP JUMPDEST POP POP CALLVALUE PUSH2 0x268 JUMPI DUP2 PUSH1 0x3 NOT CALLDATASIZE ADD SLT PUSH2 0x268 JUMPI PUSH1 0x20 SWAP1 PUSH1 0x8 SLOAD SWAP1 MLOAD SWAP1 DUP2 MSTORE RETURN JUMPDEST SWAP2 SWAP1 POP CALLVALUE PUSH2 0x51F JUMPI DUP3 PUSH1 0x3 NOT CALLDATASIZE ADD SLT PUSH2 0x51F JUMPI PUSH1 0xC SLOAD SWAP2 CALLER ISZERO PUSH2 0x1260 JUMPI PUSH2 0x1187 PUSH2 0x1181 DUP5 PUSH2 0x202C JUMP JUMPDEST ISZERO PUSH2 0x257D JUMP JUMPDEST PUSH1 0x8 SLOAD DUP4 DUP6 MSTORE PUSH1 0x20 SWAP2 PUSH1 0x9 DUP4 MSTORE DUP2 DUP5 DUP8 KECCAK256 SSTORE PUSH1 0x1 PUSH1 0x40 SHL DUP3 LT ISZERO PUSH2 0x124D JUMPI POP SWAP1 PUSH2 0x11D8 DUP5 PUSH2 0x11BD DUP5 PUSH1 0x1 PUSH1 0x2 SWAP7 ADD PUSH1 0x8 SSTORE PUSH2 0x219F JUMP JUMPDEST SWAP1 SWAP2 SWAP1 DUP3 SLOAD SWAP1 PUSH1 0x3 SHL PUSH1 0x0 NOT DUP2 SHL SWAP3 DUP4 SWAP2 SHL AND SWAP2 NOT AND OR SWAP1 SSTORE JUMP JUMPDEST PUSH2 0x11E1 CALLER PUSH2 0x1B4C JUMP JUMPDEST CALLER DUP7 MSTORE PUSH1 0x6 DUP3 MSTORE DUP4 DUP7 KECCAK256 DUP2 DUP8 MSTORE DUP3 MSTORE DUP5 DUP5 DUP8 KECCAK256 SSTORE DUP5 DUP7 MSTORE PUSH1 0x7 DUP3 MSTORE DUP4 DUP7 KECCAK256 SSTORE PUSH2 0x120C PUSH2 0x1181 DUP6 PUSH2 0x202C JUMP JUMPDEST CALLER DUP1 DUP7 MSTORE PUSH1 0x3 DUP3 MSTORE DUP4 DUP7 KECCAK256 DUP1 SLOAD PUSH1 0x1 ADD SWAP1 SSTORE DUP5 DUP7 MSTORE SWAP2 SWAP1 MSTORE SWAP1 DUP4 KECCAK256 DUP1 SLOAD PUSH1 0x1 PUSH1 0x1 PUSH1 0xA0 SHL SUB NOT AND DUP3 OR SWAP1 SSTORE DUP3 PUSH1 0x0 DUP1 MLOAD PUSH1 0x20 PUSH2 0x2609 DUP4 CODECOPY DUP2 MLOAD SWAP2 MSTORE DUP2 DUP1 LOG4 DUP1 RETURN JUMPDEST PUSH4 0x4E487B71 PUSH1 0xE0 SHL DUP7 MSTORE PUSH1 0x41 SWAP1 MSTORE PUSH1 0x24 DUP6 REVERT JUMPDEST PUSH1 0x20 PUSH1 0x64 SWAP3 MLOAD SWAP2 PUSH3 0x461BCD PUSH1 0xE5 SHL DUP4 MSTORE DUP3 ADD MSTORE PUSH1 0x20 PUSH1 0x24 DUP3 ADD MSTORE PUSH32 0x4552433732313A206D696E7420746F20746865207A65726F2061646472657373 PUSH1 0x44 DUP3 ADD MSTORE REVERT JUMPDEST SWAP1 POP CALLVALUE PUSH2 0x51F JUMPI DUP2 PUSH1 0x3 NOT CALLDATASIZE ADD SLT PUSH2 0x51F JUMPI PUSH2 0x12BC PUSH2 0x159E JUMP JUMPDEST PUSH1 0x24 CALLDATALOAD SWAP3 SWAP1 SWAP2 PUSH1 0x1 PUSH1 0x1 PUSH1 0xA0 SHL SUB SWAP2 SWAP1 DUP3 DUP1 PUSH2 0x12D7 DUP8 PUSH2 0x1C0A JUMP JUMPDEST AND SWAP5 AND SWAP4 DUP1 DUP6 EQ PUSH2 0x13C3 JUMPI DUP1 CALLER EQ SWAP1 DUP2 ISZERO PUSH2 0x13A4 JUMPI JUMPDEST POP ISZERO PUSH2 0x133C JUMPI DUP5 DUP7 MSTORE PUSH1 0x20 MSTORE DUP5 KECCAK256 DUP1 SLOAD PUSH1 0x1 PUSH1 0x1 PUSH1 0xA0 SHL SUB NOT AND DUP4 OR SWAP1 SSTORE PUSH2 0x1314 DUP4 PUSH2 0x1C0A JUMP JUMPDEST AND PUSH32 0x8C5BE1E5EBEC7D5BD14F71427D1E84F3DD0314C0F7B2291E5B200AC8C7C3B925 DUP5 DUP1 LOG4 DUP1 RETURN JUMPDEST PUSH1 0x20 PUSH1 0x84 SWAP3 MLOAD SWAP2 PUSH3 0x461BCD PUSH1 0xE5 SHL DUP4 MSTORE DUP3 ADD MSTORE PUSH1 0x3D PUSH1 0x24 DUP3 ADD MSTORE PUSH32 0x4552433732313A20617070726F76652063616C6C6572206973206E6F7420746F PUSH1 0x44 DUP3 ADD MSTORE PUSH32 0x6B656E206F776E6572206F7220617070726F76656420666F7220616C6C000000 PUSH1 0x64 DUP3 ADD MSTORE REVERT JUMPDEST SWAP1 POP DUP7 MSTORE PUSH1 0x5 PUSH1 0x20 MSTORE DUP2 DUP7 KECCAK256 CALLER DUP8 MSTORE PUSH1 0x20 MSTORE PUSH1 0xFF DUP3 DUP8 KECCAK256 SLOAD AND CODESIZE PUSH2 0x12ED JUMP JUMPDEST POP PUSH1 0x20 PUSH1 0x84 SWAP3 MLOAD SWAP2 PUSH3 0x461BCD PUSH1 0xE5 SHL DUP4 MSTORE DUP3 ADD MSTORE PUSH1 0x21 PUSH1 0x24 DUP3 ADD MSTORE PUSH32 0x4552433732313A20617070726F76616C20746F2063757272656E74206F776E65 PUSH1 0x44 DUP3 ADD MSTORE PUSH1 0x39 PUSH1 0xF9 SHL PUSH1 0x64 DUP3 ADD MSTORE REVERT JUMPDEST DUP3 DUP5 CALLVALUE PUSH2 0x557 JUMPI PUSH1 0x20 CALLDATASIZE PUSH1 0x3 NOT ADD SLT PUSH2 0x557 JUMPI POP PUSH2 0xCA9 PUSH1 0x20 SWAP3 CALLDATALOAD PUSH2 0x1C30 JUMP JUMPDEST POP POP CALLVALUE PUSH2 0x268 JUMPI DUP2 PUSH1 0x3 NOT CALLDATASIZE ADD SLT PUSH2 0x268 JUMPI DUP1 MLOAD SWAP1 DUP3 DUP1 SLOAD PUSH2 0x1451 DUP2 PUSH2 0x1717 JUMP JUMPDEST DUP1 DUP6 MSTORE SWAP1 PUSH1 0x1 SWAP1 DUP2 DUP2 AND SWAP1 DUP2 ISZERO PUSH2 0x240 JUMPI POP PUSH1 0x1 EQ PUSH2 0x147C JUMPI POP POP POP PUSH2 0x1D1 DUP3 PUSH2 0x1E3 SWAP5 SUB DUP4 PUSH2 0x168B JUMP JUMPDEST SWAP5 POP DUP2 DUP1 MSTORE PUSH1 0x20 SWAP5 DUP6 DUP4 KECCAK256 JUMPDEST DUP3 DUP5 LT PUSH2 0x14A4 JUMPI POP POP POP DUP3 PUSH2 0x1E3 SWAP5 PUSH2 0x1D1 SWAP3 DUP3 ADD ADD SWAP5 PUSH2 0x1BF JUMP JUMPDEST DUP1 SLOAD DUP7 DUP6 ADD DUP9 ADD MSTORE SWAP3 DUP7 ADD SWAP3 DUP2 ADD PUSH2 0x1488 JUMP JUMPDEST DUP5 SWAP2 CALLVALUE PUSH2 0x51F JUMPI PUSH1 0x20 CALLDATASIZE PUSH1 0x3 NOT ADD SLT PUSH2 0x51F JUMPI CALLDATALOAD PUSH4 0xFFFFFFFF PUSH1 0xE0 SHL DUP2 AND DUP1 SWAP2 SUB PUSH2 0x51F JUMPI PUSH1 0x20 SWAP3 POP PUSH4 0x7965DB0B PUSH1 0xE0 SHL DUP2 EQ SWAP1 DUP2 ISZERO PUSH2 0x14F9 JUMPI JUMPDEST POP ISZERO ISZERO DUP2 MSTORE RETURN JUMPDEST PUSH4 0x780E9D63 PUSH1 0xE0 SHL DUP2 EQ SWAP2 POP DUP2 ISZERO PUSH2 0x1513 JUMPI JUMPDEST POP DUP4 PUSH2 0x14F2 JUMP JUMPDEST PUSH4 0x80AC58CD PUSH1 0xE0 SHL DUP2 EQ SWAP2 POP DUP2 ISZERO PUSH2 0x1545 JUMPI JUMPDEST DUP2 ISZERO PUSH2 0x1534 JUMPI JUMPDEST POP DUP4 PUSH2 0x150C JUMP JUMPDEST PUSH4 0x1FFC9A7 PUSH1 0xE0 SHL EQ SWAP1 POP DUP4 PUSH2 0x152D JUMP JUMPDEST PUSH4 0x5B5E139F PUSH1 0xE0 SHL DUP2 EQ SWAP2 POP PUSH2 0x1526 JUMP JUMPDEST PUSH1 0x0 JUMPDEST DUP4 DUP2 LT PUSH2 0x1569 JUMPI POP POP PUSH1 0x0 SWAP2 ADD MSTORE JUMP JUMPDEST DUP2 DUP2 ADD MLOAD DUP4 DUP3 ADD MSTORE PUSH1 0x20 ADD PUSH2 0x1559 JUMP JUMPDEST SWAP1 PUSH1 0x20 SWAP2 PUSH2 0x1592 DUP2 MLOAD DUP1 SWAP3 DUP2 DUP6 MSTORE DUP6 DUP1 DUP7 ADD SWAP2 ADD PUSH2 0x1556 JUMP JUMPDEST PUSH1 0x1F ADD PUSH1 0x1F NOT AND ADD ADD SWAP1 JUMP JUMPDEST PUSH1 0x4 CALLDATALOAD SWAP1 PUSH1 0x1 PUSH1 0x1 PUSH1 0xA0 SHL SUB DUP3 AND DUP3 SUB PUSH2 0x15B4 JUMPI JUMP JUMPDEST PUSH1 0x0 DUP1 REVERT JUMPDEST PUSH1 0x24 CALLDATALOAD SWAP1 PUSH1 0x1 PUSH1 0x1 PUSH1 0xA0 SHL SUB DUP3 AND DUP3 SUB PUSH2 0x15B4 JUMPI JUMP JUMPDEST PUSH1 0x60 SWAP1 PUSH1 0x3 NOT ADD SLT PUSH2 0x15B4 JUMPI PUSH1 0x1 PUSH1 0x1 PUSH1 0xA0 SHL SUB SWAP1 PUSH1 0x4 CALLDATALOAD DUP3 DUP2 AND DUP2 SUB PUSH2 0x15B4 JUMPI SWAP2 PUSH1 0x24 CALLDATALOAD SWAP1 DUP2 AND DUP2 SUB PUSH2 0x15B4 JUMPI SWAP1 PUSH1 0x44 CALLDATALOAD SWAP1 JUMP JUMPDEST PUSH1 0x2 GT ISZERO PUSH2 0x160E JUMPI JUMP JUMPDEST PUSH4 0x4E487B71 PUSH1 0xE0 SHL PUSH1 0x0 MSTORE PUSH1 0x21 PUSH1 0x4 MSTORE PUSH1 0x24 PUSH1 0x0 REVERT JUMPDEST PUSH1 0x60 DUP2 ADD SWAP1 DUP2 LT PUSH1 0x1 PUSH1 0x1 PUSH1 0x40 SHL SUB DUP3 GT OR PUSH2 0x163F JUMPI PUSH1 0x40 MSTORE JUMP JUMPDEST PUSH4 0x4E487B71 PUSH1 0xE0 SHL PUSH1 0x0 MSTORE PUSH1 0x41 PUSH1 0x4 MSTORE PUSH1 0x24 PUSH1 0x0 REVERT JUMPDEST PUSH1 0x80 DUP2 ADD SWAP1 DUP2 LT PUSH1 0x1 PUSH1 0x1 PUSH1 0x40 SHL SUB DUP3 GT OR PUSH2 0x163F JUMPI PUSH1 0x40 MSTORE JUMP JUMPDEST PUSH1 0x20 DUP2 ADD SWAP1 DUP2 LT PUSH1 0x1 PUSH1 0x1 PUSH1 0x40 SHL SUB DUP3 GT OR PUSH2 0x163F JUMPI PUSH1 0x40 MSTORE JUMP JUMPDEST PUSH1 0x1F SWAP1 SWAP2 ADD PUSH1 0x1F NOT AND DUP2 ADD SWAP1 PUSH1 0x1 PUSH1 0x1 PUSH1 0x40 SHL SUB DUP3 GT SWAP1 DUP3 LT OR PUSH2 0x163F JUMPI PUSH1 0x40 MSTORE JUMP JUMPDEST PUSH1 0x1 PUSH1 0x1 PUSH1 0x40 SHL SUB DUP2 GT PUSH2 0x163F JUMPI PUSH1 0x1F ADD PUSH1 0x1F NOT AND PUSH1 0x20 ADD SWAP1 JUMP JUMPDEST SWAP3 SWAP2 SWAP3 PUSH2 0x16D5 DUP3 PUSH2 0x16AE JUMP JUMPDEST SWAP2 PUSH2 0x16E3 PUSH1 0x40 MLOAD SWAP4 DUP5 PUSH2 0x168B JUMP JUMPDEST DUP3 SWAP5 DUP2 DUP5 MSTORE DUP2 DUP4 ADD GT PUSH2 0x15B4 JUMPI DUP3 DUP2 PUSH1 0x20 SWAP4 DUP5 PUSH1 0x0 SWAP7 ADD CALLDATACOPY ADD ADD MSTORE JUMP JUMPDEST PUSH1 0x1 PUSH1 0x1 PUSH1 0x40 SHL SUB DUP2 GT PUSH2 0x163F JUMPI PUSH1 0x5 SHL PUSH1 0x20 ADD SWAP1 JUMP JUMPDEST SWAP1 PUSH1 0x1 DUP3 DUP2 SHR SWAP3 AND DUP1 ISZERO PUSH2 0x1747 JUMPI JUMPDEST PUSH1 0x20 DUP4 LT EQ PUSH2 0x1731 JUMPI JUMP JUMPDEST PUSH4 0x4E487B71 PUSH1 0xE0 SHL PUSH1 0x0 MSTORE PUSH1 0x22 PUSH1 0x4 MSTORE PUSH1 0x24 PUSH1 0x0 REVERT JUMPDEST SWAP2 PUSH1 0x7F AND SWAP2 PUSH2 0x1726 JUMP JUMPDEST PUSH1 0x40 MLOAD SWAP1 PUSH1 0x0 DUP3 PUSH1 0xD SLOAD SWAP2 PUSH2 0x1765 DUP4 PUSH2 0x1717 JUMP JUMPDEST DUP1 DUP4 MSTORE PUSH1 0x1 SWAP4 DUP1 DUP6 AND SWAP1 DUP2 ISZERO PUSH2 0x17ED JUMPI POP PUSH1 0x1 EQ PUSH2 0x178D JUMPI JUMPDEST POP PUSH2 0x178B SWAP3 POP SUB DUP4 PUSH2 0x168B JUMP JUMPDEST JUMP JUMPDEST PUSH1 0xD PUSH1 0x0 SWAP1 DUP2 MSTORE PUSH32 0xD7B6990105719101DABEB77144F2A3385C8033ACD3AF97E9423A695E81AD1EB5 SWAP5 PUSH1 0x20 SWAP4 POP SWAP1 SWAP2 SWAP1 JUMPDEST DUP2 DUP4 LT PUSH2 0x17D5 JUMPI POP POP PUSH2 0x178B SWAP4 POP DUP3 ADD ADD CODESIZE PUSH2 0x177E JUMP JUMPDEST DUP6 SLOAD DUP9 DUP5 ADD DUP6 ADD MSTORE SWAP5 DUP6 ADD SWAP5 DUP8 SWAP5 POP SWAP2 DUP4 ADD SWAP2 PUSH2 0x17BE JUMP JUMPDEST SWAP1 POP PUSH2 0x178B SWAP5 POP PUSH1 0x20 SWAP3 POP PUSH1 0xFF NOT AND DUP3 DUP5 ADD MSTORE ISZERO ISZERO PUSH1 0x5 SHL DUP3 ADD ADD CODESIZE PUSH2 0x177E JUMP JUMPDEST PUSH1 0x0 SWAP1 DUP1 DUP3 MSTORE PUSH1 0x20 SWAP1 PUSH1 0xB DUP3 MSTORE PUSH1 0x40 SWAP3 DUP4 DUP2 KECCAK256 CALLER DUP3 MSTORE DUP4 MSTORE PUSH1 0xFF DUP5 DUP3 KECCAK256 SLOAD AND ISZERO PUSH2 0x1838 JUMPI POP POP POP POP JUMP JUMPDEST CALLER DUP5 MLOAD SWAP3 PUSH2 0x1845 DUP5 PUSH2 0x1624 JUMP JUMPDEST PUSH1 0x2A DUP5 MSTORE DUP5 DUP5 ADD SWAP1 DUP7 CALLDATASIZE DUP4 CALLDATACOPY DUP5 MLOAD ISZERO PUSH2 0x1AC2 JUMPI PUSH1 0x30 DUP3 MSTORE8 DUP5 MLOAD SWAP3 PUSH1 0x1 SWAP4 DUP5 LT ISZERO PUSH2 0x1AAE JUMPI PUSH1 0x78 PUSH1 0x21 DUP8 ADD MSTORE8 PUSH1 0x29 JUMPDEST DUP5 DUP2 GT PUSH2 0x1A44 JUMPI POP PUSH2 0x1A14 JUMPI DUP7 MLOAD SWAP3 PUSH2 0x188B DUP5 PUSH2 0x1655 JUMP JUMPDEST PUSH1 0x42 DUP5 MSTORE DUP7 DUP5 ADD SWAP5 PUSH1 0x60 CALLDATASIZE DUP8 CALLDATACOPY DUP5 MLOAD ISZERO PUSH2 0x1A00 JUMPI PUSH1 0x30 DUP7 MSTORE8 DUP5 MLOAD DUP3 LT ISZERO PUSH2 0x1A00 JUMPI SWAP1 PUSH1 0x78 PUSH1 0x21 DUP7 ADD MSTORE8 PUSH1 0x41 SWAP2 JUMPDEST DUP2 DUP4 GT PUSH2 0x1992 JUMPI POP POP POP PUSH2 0x1962 JUMPI PUSH2 0x195E SWAP4 DUP7 SWAP4 PUSH2 0x1942 SWAP4 PUSH2 0x1933 PUSH1 0x48 SWAP5 PUSH2 0x190A SWAP11 MLOAD SWAP11 DUP12 SWAP6 PUSH23 0x20B1B1B2B9B9A1B7B73A3937B61D1030B1B1B7BAB73A1 PUSH1 0x4D SHL DUP13 DUP9 ADD MSTORE MLOAD DUP1 SWAP3 PUSH1 0x37 DUP9 ADD SWAP1 PUSH2 0x1556 JUMP JUMPDEST DUP5 ADD SWAP2 PUSH17 0x1034B99036B4B9B9B4B733903937B6329 PUSH1 0x7D SHL PUSH1 0x37 DUP5 ADD MSTORE MLOAD DUP1 SWAP4 DUP7 DUP5 ADD SWAP1 PUSH2 0x1556 JUMP JUMPDEST ADD SUB PUSH1 0x28 DUP2 ADD DUP8 MSTORE ADD DUP6 PUSH2 0x168B JUMP JUMPDEST MLOAD SWAP3 DUP4 SWAP3 PUSH3 0x461BCD PUSH1 0xE5 SHL DUP5 MSTORE PUSH1 0x4 DUP5 ADD MSTORE PUSH1 0x24 DUP4 ADD SWAP1 PUSH2 0x1579 JUMP JUMPDEST SUB SWAP1 REVERT JUMPDEST PUSH1 0x64 DUP6 DUP8 MLOAD SWAP1 PUSH3 0x461BCD PUSH1 0xE5 SHL DUP3 MSTORE DUP1 PUSH1 0x4 DUP4 ADD MSTORE PUSH1 0x24 DUP3 ADD MSTORE PUSH1 0x0 DUP1 MLOAD PUSH1 0x20 PUSH2 0x25C9 DUP4 CODECOPY DUP2 MLOAD SWAP2 MSTORE PUSH1 0x44 DUP3 ADD MSTORE REVERT JUMPDEST SWAP1 SWAP2 SWAP3 PUSH1 0xF DUP2 AND PUSH1 0x10 DUP2 LT ISZERO PUSH2 0x19EC JUMPI PUSH16 0x181899199A1A9B1B9C1CB0B131B232B3 PUSH1 0x81 SHL SWAP1 BYTE PUSH2 0x19C2 DUP6 DUP9 PUSH2 0x2247 JUMP JUMPDEST MSTORE8 PUSH1 0x4 SHR SWAP3 DUP1 ISZERO PUSH2 0x19D8 JUMPI PUSH1 0x0 NOT ADD SWAP2 SWAP1 PUSH2 0x18B8 JUMP JUMPDEST PUSH4 0x4E487B71 PUSH1 0xE0 SHL DUP3 MSTORE PUSH1 0x11 PUSH1 0x4 MSTORE PUSH1 0x24 DUP3 REVERT JUMPDEST PUSH4 0x4E487B71 PUSH1 0xE0 SHL DUP4 MSTORE PUSH1 0x32 PUSH1 0x4 MSTORE PUSH1 0x24 DUP4 REVERT JUMPDEST PUSH4 0x4E487B71 PUSH1 0xE0 SHL DUP2 MSTORE PUSH1 0x32 PUSH1 0x4 MSTORE PUSH1 0x24 SWAP1 REVERT JUMPDEST PUSH1 0x64 DUP7 DUP9 MLOAD SWAP1 PUSH3 0x461BCD PUSH1 0xE5 SHL DUP3 MSTORE DUP1 PUSH1 0x4 DUP4 ADD MSTORE PUSH1 0x24 DUP3 ADD MSTORE PUSH1 0x0 DUP1 MLOAD PUSH1 0x20 PUSH2 0x25C9 DUP4 CODECOPY DUP2 MLOAD SWAP2 MSTORE PUSH1 0x44 DUP3 ADD MSTORE REVERT JUMPDEST SWAP1 PUSH1 0xF DUP2 AND PUSH1 0x10 DUP2 LT ISZERO PUSH2 0x1A9A JUMPI PUSH16 0x181899199A1A9B1B9C1CB0B131B232B3 PUSH1 0x81 SHL SWAP1 BYTE PUSH2 0x1A72 DUP4 DUP10 PUSH2 0x2247 JUMP JUMPDEST MSTORE8 PUSH1 0x4 SHR SWAP1 DUP1 ISZERO PUSH2 0x1A86 JUMPI PUSH1 0x0 NOT ADD PUSH2 0x1873 JUMP JUMPDEST PUSH4 0x4E487B71 PUSH1 0xE0 SHL DUP7 MSTORE PUSH1 0x11 PUSH1 0x4 MSTORE PUSH1 0x24 DUP7 REVERT JUMPDEST PUSH4 0x4E487B71 PUSH1 0xE0 SHL DUP8 MSTORE PUSH1 0x32 PUSH1 0x4 MSTORE PUSH1 0x24 DUP8 REVERT JUMPDEST PUSH4 0x4E487B71 PUSH1 0xE0 SHL DUP6 MSTORE PUSH1 0x32 PUSH1 0x4 MSTORE PUSH1 0x24 DUP6 REVERT JUMPDEST PUSH4 0x4E487B71 PUSH1 0xE0 SHL DUP5 MSTORE PUSH1 0x32 PUSH1 0x4 MSTORE PUSH1 0x24 DUP5 REVERT JUMPDEST SWAP1 PUSH1 0x0 SWAP2 DUP1 DUP4 MSTORE PUSH1 0xB PUSH1 0x20 MSTORE PUSH1 0x40 DUP4 KECCAK256 SWAP2 PUSH1 0x1 DUP1 PUSH1 0xA0 SHL SUB AND SWAP2 DUP3 DUP5 MSTORE PUSH1 0x20 MSTORE PUSH1 0xFF PUSH1 0x40 DUP5 KECCAK256 SLOAD AND PUSH2 0x1B07 JUMPI POP POP POP JUMP JUMPDEST DUP1 DUP4 MSTORE PUSH1 0xB PUSH1 0x20 MSTORE PUSH1 0x40 DUP4 KECCAK256 DUP3 DUP5 MSTORE PUSH1 0x20 MSTORE PUSH1 0x40 DUP4 KECCAK256 PUSH1 0xFF NOT DUP2 SLOAD AND SWAP1 SSTORE PUSH32 0xF6391F5C32D9C69D2A47EA670B442974B53935D1EDC7FD64EB21E047A839171B CALLER SWAP4 DUP1 LOG4 JUMP JUMPDEST PUSH1 0x1 PUSH1 0x1 PUSH1 0xA0 SHL SUB AND DUP1 ISZERO PUSH2 0x1B6C JUMPI PUSH1 0x0 MSTORE PUSH1 0x3 PUSH1 0x20 MSTORE PUSH1 0x40 PUSH1 0x0 KECCAK256 SLOAD SWAP1 JUMP JUMPDEST PUSH1 0x40 MLOAD PUSH3 0x461BCD PUSH1 0xE5 SHL DUP2 MSTORE PUSH1 0x20 PUSH1 0x4 DUP3 ADD MSTORE PUSH1 0x29 PUSH1 0x24 DUP3 ADD MSTORE PUSH32 0x4552433732313A2061646472657373207A65726F206973206E6F742061207661 PUSH1 0x44 DUP3 ADD MSTORE PUSH9 0x3634B21037BBB732B9 PUSH1 0xB9 SHL PUSH1 0x64 DUP3 ADD MSTORE PUSH1 0x84 SWAP1 REVERT JUMPDEST ISZERO PUSH2 0x1BCA JUMPI JUMP JUMPDEST PUSH1 0x40 MLOAD PUSH3 0x461BCD PUSH1 0xE5 SHL DUP2 MSTORE PUSH1 0x20 PUSH1 0x4 DUP3 ADD MSTORE PUSH1 0x18 PUSH1 0x24 DUP3 ADD MSTORE PUSH24 0x115490CDCC8C4E881A5B9D985B1A59081D1BDAD95B881251 PUSH1 0x42 SHL PUSH1 0x44 DUP3 ADD MSTORE PUSH1 0x64 SWAP1 REVERT JUMPDEST PUSH1 0x0 SWAP1 DUP2 MSTORE PUSH1 0x2 PUSH1 0x20 MSTORE PUSH1 0x40 SWAP1 KECCAK256 SLOAD PUSH1 0x1 PUSH1 0x1 PUSH1 0xA0 SHL SUB AND PUSH2 0x1C2D DUP2 ISZERO ISZERO PUSH2 0x1BC3 JUMP JUMPDEST SWAP1 JUMP JUMPDEST PUSH2 0x1C41 PUSH2 0x1C3C DUP3 PUSH2 0x202C JUMP JUMPDEST PUSH2 0x1BC3 JUMP JUMPDEST PUSH1 0x0 SWAP1 DUP2 MSTORE PUSH1 0x4 PUSH1 0x20 MSTORE PUSH1 0x40 SWAP1 KECCAK256 SLOAD PUSH1 0x1 PUSH1 0x1 PUSH1 0xA0 SHL SUB AND SWAP1 JUMP JUMPDEST ISZERO PUSH2 0x1C63 JUMPI JUMP JUMPDEST PUSH1 0x40 MLOAD PUSH3 0x461BCD PUSH1 0xE5 SHL DUP2 MSTORE PUSH1 0x20 PUSH1 0x4 DUP3 ADD MSTORE PUSH1 0x2D PUSH1 0x24 DUP3 ADD MSTORE PUSH32 0x4552433732313A2063616C6C6572206973206E6F7420746F6B656E206F776E65 PUSH1 0x44 DUP3 ADD MSTORE PUSH13 0x1C881BDC88185C1C1C9BDD9959 PUSH1 0x9A SHL PUSH1 0x64 DUP3 ADD MSTORE PUSH1 0x84 SWAP1 REVERT JUMPDEST SWAP1 PUSH2 0x1CE2 SWAP4 SWAP3 SWAP2 PUSH2 0x1CD2 PUSH2 0x112F DUP5 CALLER PUSH2 0x1D37 JUMP JUMPDEST PUSH2 0x1CDD DUP4 DUP4 DUP4 PUSH2 0x1DFF JUMP JUMPDEST PUSH2 0x2049 JUMP JUMPDEST ISZERO PUSH2 0x1CE9 JUMPI JUMP JUMPDEST PUSH1 0x40 MLOAD PUSH3 0x461BCD PUSH1 0xE5 SHL DUP2 MSTORE PUSH1 0x20 PUSH1 0x4 DUP3 ADD MSTORE PUSH1 0x32 PUSH1 0x24 DUP3 ADD MSTORE PUSH1 0x0 DUP1 MLOAD PUSH1 0x20 PUSH2 0x25E9 DUP4 CODECOPY DUP2 MLOAD SWAP2 MSTORE PUSH1 0x44 DUP3 ADD MSTORE PUSH18 0x31B2B4BB32B91034B6B83632B6B2B73A32B9 PUSH1 0x71 SHL PUSH1 0x64 DUP3 ADD MSTORE PUSH1 0x84 SWAP1 REVERT JUMPDEST SWAP1 PUSH1 0x1 PUSH1 0x1 PUSH1 0xA0 SHL SUB DUP1 DUP1 PUSH2 0x1D4B DUP5 PUSH2 0x1C0A JUMP JUMPDEST AND SWAP4 AND SWAP2 DUP4 DUP4 EQ SWAP4 DUP5 ISZERO PUSH2 0x1D7E JUMPI JUMPDEST POP DUP4 ISZERO PUSH2 0x1D68 JUMPI JUMPDEST POP POP POP SWAP1 JUMP JUMPDEST PUSH2 0x1D74 SWAP2 SWAP3 SWAP4 POP PUSH2 0x1C30 JUMP JUMPDEST AND EQ CODESIZE DUP1 DUP1 PUSH2 0x1D62 JUMP JUMPDEST SWAP1 SWAP4 POP PUSH1 0x0 MSTORE PUSH1 0x5 PUSH1 0x20 MSTORE PUSH1 0x40 PUSH1 0x0 KECCAK256 DUP3 PUSH1 0x0 MSTORE PUSH1 0x20 MSTORE PUSH1 0xFF PUSH1 0x40 PUSH1 0x0 KECCAK256 SLOAD AND SWAP3 CODESIZE PUSH2 0x1D5A JUMP JUMPDEST ISZERO PUSH2 0x1DAC JUMPI JUMP JUMPDEST PUSH1 0x40 MLOAD PUSH3 0x461BCD PUSH1 0xE5 SHL DUP2 MSTORE PUSH1 0x20 PUSH1 0x4 DUP3 ADD MSTORE PUSH1 0x25 PUSH1 0x24 DUP3 ADD MSTORE PUSH32 0x4552433732313A207472616E736665722066726F6D20696E636F727265637420 PUSH1 0x44 DUP3 ADD MSTORE PUSH5 0x37BBB732B9 PUSH1 0xD9 SHL PUSH1 0x64 DUP3 ADD MSTORE PUSH1 0x84 SWAP1 REVERT JUMPDEST PUSH2 0x1E23 SWAP2 PUSH2 0x1E0C DUP5 PUSH2 0x1C0A JUMP JUMPDEST PUSH1 0x1 PUSH1 0x1 PUSH1 0xA0 SHL SUB SWAP4 DUP5 DUP5 AND SWAP4 SWAP2 DUP6 AND DUP5 EQ PUSH2 0x1DA5 JUMP JUMPDEST DUP4 DUP3 AND SWAP4 DUP5 ISZERO PUSH2 0x1FDB JUMPI DUP4 SWAP2 DUP3 PUSH2 0x1F22 JUMPI POP PUSH1 0x8 SLOAD PUSH1 0x0 DUP8 DUP2 MSTORE PUSH1 0x9 PUSH1 0x20 MSTORE PUSH1 0x40 SWAP1 KECCAK256 DUP2 SWAP1 SSTORE SWAP2 POP PUSH1 0x1 PUSH1 0x40 SHL DUP3 LT ISZERO PUSH2 0x163F JUMPI PUSH2 0x1E89 SWAP3 PUSH2 0x1E70 DUP8 PUSH2 0x11BD DUP6 PUSH1 0x1 DUP10 SWAP8 ADD PUSH1 0x8 SSTORE PUSH2 0x219F JUMP JUMPDEST DUP3 DUP7 SUB PUSH2 0x1EEF JUMPI JUMPDEST POP PUSH2 0x1E82 DUP7 PUSH2 0x1C0A JUMP JUMPDEST AND EQ PUSH2 0x1DA5 JUMP JUMPDEST PUSH1 0x0 DUP1 MLOAD PUSH1 0x20 PUSH2 0x2609 DUP4 CODECOPY DUP2 MLOAD SWAP2 MSTORE PUSH1 0x0 DUP5 DUP2 MSTORE PUSH1 0x4 PUSH1 0x20 MSTORE PUSH1 0x40 DUP2 KECCAK256 PUSH1 0x1 DUP1 PUSH1 0xA0 SHL SUB NOT SWAP1 DUP2 DUP2 SLOAD AND SWAP1 SSTORE DUP4 DUP3 MSTORE PUSH1 0x3 PUSH1 0x20 MSTORE PUSH1 0x40 DUP3 KECCAK256 PUSH1 0x0 NOT DUP2 SLOAD ADD SWAP1 SSTORE DUP5 DUP3 MSTORE PUSH1 0x40 DUP3 KECCAK256 PUSH1 0x1 DUP2 SLOAD ADD SWAP1 SSTORE DUP6 DUP3 MSTORE PUSH1 0x2 PUSH1 0x20 MSTORE DUP5 PUSH1 0x40 DUP4 KECCAK256 SWAP2 DUP3 SLOAD AND OR SWAP1 SSTORE DUP1 LOG4 JUMP JUMPDEST PUSH2 0x1EF8 SWAP1 PUSH2 0x1B4C JUMP JUMPDEST PUSH1 0x40 PUSH1 0x0 DUP8 DUP2 MSTORE PUSH1 0x6 PUSH1 0x20 MSTORE DUP2 DUP2 KECCAK256 DUP4 DUP3 MSTORE PUSH1 0x20 MSTORE DUP9 DUP3 DUP3 KECCAK256 SSTORE DUP9 DUP2 MSTORE PUSH1 0x7 PUSH1 0x20 MSTORE KECCAK256 SSTORE CODESIZE PUSH2 0x1E78 JUMP JUMPDEST DUP6 DUP4 SUB PUSH2 0x1F34 JUMPI JUMPDEST POP PUSH2 0x1E89 SWAP3 PUSH2 0x1E70 JUMP JUMPDEST PUSH2 0x1F3F SWAP2 SWAP3 POP PUSH2 0x1B4C JUMP JUMPDEST PUSH1 0x0 NOT DUP2 ADD SWAP2 SWAP1 DUP3 GT PUSH2 0x1FC5 JUMPI PUSH2 0x1E89 SWAP3 DUP5 SWAP3 PUSH1 0x0 SWAP1 DUP9 DUP3 MSTORE PUSH1 0x20 SWAP1 PUSH1 0x7 DUP3 MSTORE PUSH1 0x40 SWAP2 DUP3 DUP5 KECCAK256 SLOAD DUP3 DUP2 SUB PUSH2 0x1F8E JUMPI JUMPDEST POP DUP11 DUP5 MSTORE DUP4 DUP4 DUP2 KECCAK256 SSTORE DUP7 DUP5 MSTORE PUSH1 0x6 DUP2 MSTORE DUP3 DUP5 KECCAK256 SWAP2 DUP5 MSTORE MSTORE DUP2 KECCAK256 SSTORE SWAP3 PUSH2 0x1F2A JUMP JUMPDEST DUP8 DUP6 MSTORE PUSH1 0x6 DUP3 MSTORE DUP4 DUP6 KECCAK256 DUP4 DUP7 MSTORE DUP3 MSTORE DUP4 DUP6 KECCAK256 SLOAD DUP9 DUP7 MSTORE PUSH1 0x6 DUP4 MSTORE DUP5 DUP7 KECCAK256 DUP3 DUP8 MSTORE DUP4 MSTORE DUP1 DUP6 DUP8 KECCAK256 SSTORE DUP6 MSTORE PUSH1 0x7 DUP3 MSTORE DUP4 DUP6 KECCAK256 SSTORE CODESIZE PUSH2 0x1F6E JUMP JUMPDEST PUSH4 0x4E487B71 PUSH1 0xE0 SHL PUSH1 0x0 MSTORE PUSH1 0x11 PUSH1 0x4 MSTORE PUSH1 0x24 PUSH1 0x0 REVERT JUMPDEST PUSH1 0x40 MLOAD PUSH3 0x461BCD PUSH1 0xE5 SHL DUP2 MSTORE PUSH1 0x20 PUSH1 0x4 DUP3 ADD MSTORE PUSH1 0x24 DUP1 DUP3 ADD MSTORE PUSH32 0x4552433732313A207472616E7366657220746F20746865207A65726F20616464 PUSH1 0x44 DUP3 ADD MSTORE PUSH4 0x72657373 PUSH1 0xE0 SHL PUSH1 0x64 DUP3 ADD MSTORE PUSH1 0x84 SWAP1 REVERT JUMPDEST PUSH1 0x0 SWAP1 DUP2 MSTORE PUSH1 0x2 PUSH1 0x20 MSTORE PUSH1 0x40 SWAP1 KECCAK256 SLOAD PUSH1 0x1 PUSH1 0x1 PUSH1 0xA0 SHL SUB AND ISZERO ISZERO SWAP1 JUMP JUMPDEST SWAP3 SWAP4 PUSH1 0x0 SWAP4 SWAP1 SWAP3 SWAP2 DUP1 EXTCODESIZE ISZERO PUSH2 0x2194 JUMPI SWAP5 DUP5 SWAP2 PUSH2 0x20A3 SWAP7 PUSH1 0x40 MLOAD DUP1 SWAP5 DUP2 SWAP4 PUSH4 0xA85BD01 PUSH1 0xE1 SHL SWAP8 DUP9 DUP5 MSTORE CALLER PUSH1 0x4 DUP6 ADD MSTORE PUSH1 0x1 DUP1 PUSH1 0xA0 SHL SUB DUP1 SWAP3 AND PUSH1 0x24 DUP6 ADD MSTORE PUSH1 0x44 DUP5 ADD MSTORE PUSH1 0x80 PUSH1 0x64 DUP5 ADD MSTORE DUP3 PUSH1 0x20 SWAP12 DUP13 SWAP8 PUSH1 0x84 DUP4 ADD SWAP1 PUSH2 0x1579 JUMP JUMPDEST SUB SWAP4 AND GAS CALL DUP5 SWAP2 DUP2 PUSH2 0x2154 JUMPI JUMPDEST POP PUSH2 0x2143 JUMPI POP POP POP RETURNDATASIZE PUSH1 0x0 EQ PUSH2 0x213B JUMPI RETURNDATASIZE PUSH2 0x20CA DUP2 PUSH2 0x16AE JUMP JUMPDEST SWAP1 PUSH2 0x20D8 PUSH1 0x40 MLOAD SWAP3 DUP4 PUSH2 0x168B JUMP JUMPDEST DUP2 MSTORE DUP1 SWAP2 DUP4 RETURNDATASIZE SWAP3 ADD RETURNDATACOPY JUMPDEST DUP1 MLOAD SWAP2 DUP3 PUSH2 0x2138 JUMPI PUSH1 0x40 MLOAD PUSH3 0x461BCD PUSH1 0xE5 SHL DUP2 MSTORE PUSH1 0x20 PUSH1 0x4 DUP3 ADD MSTORE PUSH1 0x32 PUSH1 0x24 DUP3 ADD MSTORE PUSH1 0x0 DUP1 MLOAD PUSH1 0x20 PUSH2 0x25E9 DUP4 CODECOPY DUP2 MLOAD SWAP2 MSTORE PUSH1 0x44 DUP3 ADD MSTORE PUSH18 0x31B2B4BB32B91034B6B83632B6B2B73A32B9 PUSH1 0x71 SHL PUSH1 0x64 DUP3 ADD MSTORE PUSH1 0x84 SWAP1 REVERT JUMPDEST ADD REVERT JUMPDEST POP PUSH1 0x60 PUSH2 0x20E2 JUMP JUMPDEST PUSH1 0x1 PUSH1 0x1 PUSH1 0xE0 SHL SUB NOT AND EQ SWAP3 POP SWAP1 POP JUMP JUMPDEST SWAP1 SWAP2 POP DUP6 DUP2 DUP2 RETURNDATASIZE DUP4 GT PUSH2 0x218D JUMPI JUMPDEST PUSH2 0x216C DUP2 DUP4 PUSH2 0x168B JUMP JUMPDEST DUP2 ADD SUB SLT PUSH2 0x5BA JUMPI MLOAD PUSH1 0x1 PUSH1 0x1 PUSH1 0xE0 SHL SUB NOT DUP2 AND DUP2 SUB PUSH2 0x5BA JUMPI SWAP1 CODESIZE PUSH2 0x20B0 JUMP JUMPDEST POP RETURNDATASIZE PUSH2 0x2162 JUMP JUMPDEST POP POP POP SWAP2 POP POP PUSH1 0x1 SWAP1 JUMP JUMPDEST PUSH1 0x8 SLOAD DUP2 LT ISZERO PUSH2 0x21BA JUMPI PUSH1 0x8 PUSH1 0x0 MSTORE PUSH1 0x20 PUSH1 0x0 KECCAK256 ADD SWAP1 PUSH1 0x0 SWAP1 JUMP JUMPDEST PUSH4 0x4E487B71 PUSH1 0xE0 SHL PUSH1 0x0 MSTORE PUSH1 0x32 PUSH1 0x4 MSTORE PUSH1 0x24 PUSH1 0x0 REVERT JUMPDEST PUSH1 0x8 SLOAD DUP2 LT ISZERO PUSH2 0x21ED JUMPI PUSH2 0x21E3 SWAP1 PUSH2 0x219F JUMP JUMPDEST SWAP1 SLOAD SWAP1 PUSH1 0x3 SHL SHR SWAP1 JUMP JUMPDEST PUSH1 0x40 MLOAD PUSH3 0x461BCD PUSH1 0xE5 SHL DUP2 MSTORE PUSH1 0x20 PUSH1 0x4 DUP3 ADD MSTORE PUSH1 0x2C PUSH1 0x24 DUP3 ADD MSTORE PUSH32 0x455243373231456E756D657261626C653A20676C6F62616C20696E646578206F PUSH1 0x44 DUP3 ADD MSTORE PUSH12 0x7574206F6620626F756E6473 PUSH1 0xA0 SHL PUSH1 0x64 DUP3 ADD MSTORE PUSH1 0x84 SWAP1 REVERT JUMPDEST SWAP1 DUP2 MLOAD DUP2 LT ISZERO PUSH2 0x21BA JUMPI ADD PUSH1 0x20 ADD SWAP1 JUMP JUMPDEST DUP2 DUP2 LT PUSH2 0x2263 JUMPI POP POP JUMP JUMPDEST PUSH1 0x0 DUP2 SSTORE PUSH1 0x1 ADD PUSH2 0x2258 JUMP JUMPDEST SWAP1 PUSH1 0x3 SHL PUSH1 0x1 DUP1 PUSH1 0x80 SHL SUB DUP2 SHL SWAP3 DUP4 SWAP2 SHL AND SWAP2 NOT AND OR SWAP1 JUMP JUMPDEST PUSH2 0x2294 PUSH2 0x1C3C DUP3 PUSH2 0x202C JUMP JUMPDEST PUSH1 0x0 DUP2 DUP2 MSTORE PUSH1 0xA PUSH1 0x20 SWAP2 DUP2 DUP4 MSTORE PUSH1 0x40 DUP1 DUP3 KECCAK256 SWAP3 DUP2 MLOAD DUP4 SWAP5 DUP1 SLOAD SWAP6 DUP3 PUSH2 0x22B8 DUP9 PUSH2 0x1717 JUMP JUMPDEST SWAP2 DUP3 DUP3 MSTORE DUP10 DUP3 ADD SWAP4 PUSH1 0x1 SWAP10 DUP12 DUP12 DUP3 AND SWAP2 DUP3 PUSH1 0x0 EQ PUSH2 0x253C JUMPI POP POP PUSH1 0x1 EQ PUSH2 0x24FE JUMPI JUMPDEST POP PUSH2 0x22E7 SWAP3 POP SUB DUP4 PUSH2 0x168B JUMP JUMPDEST PUSH2 0x22EF PUSH2 0x1751 JUMP JUMPDEST SWAP1 DUP2 MLOAD SWAP3 DUP4 ISZERO PUSH2 0x24F1 JUMPI DUP1 MLOAD PUSH2 0x24CB JUMPI POP POP POP POP PUSH2 0x230F PUSH2 0x1C3C DUP8 PUSH2 0x202C JUMP JUMPDEST PUSH2 0x2317 PUSH2 0x1751 JUMP JUMPDEST DUP1 MLOAD SWAP1 SWAP5 SWAP1 ISZERO PUSH2 0x24B4 JUMPI SWAP3 SWAP6 DUP7 SWAP4 DUP2 PUSH19 0x184F03E93FF9F4DAA797ED6E38ED64BF6A1F01 PUSH1 0x40 SHL DUP2 DUP2 DUP2 LT ISZERO PUSH2 0x24A5 JUMPI JUMPDEST POP DUP5 SWAP2 SWAP1 POP DUP9 PUSH10 0x4EE2D6D415B85ACEF81 PUSH1 0x20 SHL DUP1 DUP4 LT ISZERO PUSH2 0x2499 JUMPI JUMPDEST POP POP PUSH7 0x2386F26FC10000 DUP1 DUP3 LT ISZERO PUSH2 0x248C JUMPI JUMPDEST POP PUSH4 0x5F5E100 DUP1 DUP3 LT ISZERO PUSH2 0x247F JUMPI JUMPDEST POP PUSH2 0x2710 DUP1 DUP3 LT ISZERO PUSH2 0x2472 JUMPI JUMPDEST POP PUSH1 0x64 DUP2 LT ISZERO PUSH2 0x2464 JUMPI JUMPDEST LT ISZERO PUSH2 0x245B JUMPI JUMPDEST SWAP1 DUP2 PUSH1 0x21 DUP2 DUP11 ADD SWAP10 PUSH2 0x23CE PUSH2 0x23B9 DUP13 PUSH2 0x16AE JUMP JUMPDEST SWAP12 PUSH2 0x23C6 DUP10 MLOAD SWAP14 DUP15 PUSH2 0x168B JUMP JUMPDEST DUP1 DUP14 MSTORE PUSH2 0x16AE JUMP JUMPDEST DUP12 DUP12 ADD SWAP9 SWAP1 PUSH1 0x1F NOT ADD CALLDATASIZE DUP11 CALLDATACOPY POP DUP11 ADD ADD SWAP1 JUMPDEST PUSH2 0x2425 JUMPI JUMPDEST POP POP POP POP SWAP1 PUSH2 0x2419 SWAP5 PUSH2 0x1C2D SWAP5 SWAP4 SWAP3 MLOAD SWAP6 DUP4 PUSH2 0x240A DUP9 SWAP6 MLOAD DUP1 SWAP3 DUP9 DUP1 DUP10 ADD SWAP2 ADD PUSH2 0x1556 JUMP JUMPDEST DUP5 ADD SWAP2 MLOAD DUP1 SWAP4 DUP7 DUP5 ADD SWAP1 PUSH2 0x1556 JUMP JUMPDEST ADD SUB DUP1 DUP5 MSTORE ADD DUP3 PUSH2 0x168B JUMP JUMPDEST PUSH1 0x0 NOT ADD SWAP1 DUP4 SWAP1 PUSH16 0x181899199A1A9B1B9C1CB0B131B232B3 PUSH1 0x81 SHL DUP3 DUP3 MOD BYTE DUP4 MSTORE8 DIV SWAP2 DUP3 ISZERO PUSH2 0x2456 JUMPI SWAP2 SWAP1 DUP3 PUSH2 0x23E0 JUMP JUMPDEST PUSH2 0x23E5 JUMP JUMPDEST DUP1 SWAP8 ADD SWAP7 PUSH2 0x23A5 JUMP JUMPDEST PUSH1 0x64 PUSH1 0x2 SWAP2 DIV SWAP10 ADD SWAP9 PUSH2 0x239E JUMP JUMPDEST PUSH1 0x4 SWAP2 DIV SWAP10 ADD SWAP9 CODESIZE PUSH2 0x2393 JUMP JUMPDEST PUSH1 0x8 SWAP2 DIV SWAP10 ADD SWAP9 CODESIZE PUSH2 0x2386 JUMP JUMPDEST PUSH1 0x10 SWAP2 DIV SWAP10 ADD SWAP9 CODESIZE PUSH2 0x2377 JUMP JUMPDEST SWAP11 ADD SWAP10 SWAP1 DIV DUP9 CODESIZE PUSH2 0x2364 JUMP JUMPDEST SWAP6 SWAP10 POP DUP10 SWAP6 DIV SWAP1 POP DUP4 CODESIZE PUSH2 0x2347 JUMP JUMPDEST POP POP SWAP3 POP SWAP3 POP POP MLOAD SWAP1 PUSH2 0x24C6 DUP3 PUSH2 0x1670 JUMP JUMPDEST DUP2 MSTORE SWAP1 JUMP JUMPDEST SWAP4 POP SWAP4 DUP3 SWAP9 POP PUSH2 0x1C2D SWAP8 SWAP7 POP PUSH2 0x2419 SWAP3 SWAP2 SWAP6 POP PUSH2 0x240A SWAP1 MLOAD SWAP9 DUP10 SWAP7 DUP9 DUP1 DUP10 ADD SWAP2 ADD PUSH2 0x1556 JUMP JUMPDEST SWAP9 POP POP POP POP POP POP POP POP POP SWAP1 JUMP JUMPDEST SWAP2 POP POP DUP7 MSTORE DUP3 DUP9 DUP1 DUP9 KECCAK256 DUP10 DUP10 SWAP2 JUMPDEST DUP6 DUP4 LT PUSH2 0x2523 JUMPI POP POP PUSH2 0x22E7 SWAP4 POP DUP3 ADD ADD CODESIZE PUSH2 0x22DA JUMP JUMPDEST DUP1 SWAP2 SWAP3 SWAP5 POP SLOAD DUP4 DUP6 DUP10 ADD ADD MSTORE ADD SWAP2 ADD DUP10 SWAP1 DUP10 DUP7 SWAP4 PUSH2 0x250C JUMP JUMPDEST PUSH1 0xFF NOT AND DUP8 MSTORE PUSH2 0x22E7 SWAP6 ISZERO ISZERO PUSH1 0x5 SHL DUP6 ADD ADD SWAP3 POP CODESIZE SWAP2 POP PUSH2 0x22DA SWAP1 POP JUMP JUMPDEST PUSH1 0x0 NOT DUP2 EQ PUSH2 0x1FC5 JUMPI PUSH1 0x1 ADD SWAP1 JUMP JUMPDEST DUP1 MLOAD DUP3 LT ISZERO PUSH2 0x21BA JUMPI PUSH1 0x20 SWAP2 PUSH1 0x5 SHL ADD ADD SWAP1 JUMP JUMPDEST ISZERO PUSH2 0x2584 JUMPI JUMP JUMPDEST PUSH1 0x40 MLOAD PUSH3 0x461BCD PUSH1 0xE5 SHL DUP2 MSTORE PUSH1 0x20 PUSH1 0x4 DUP3 ADD MSTORE PUSH1 0x1C PUSH1 0x24 DUP3 ADD MSTORE PUSH28 0x115490CDCC8C4E881D1BDAD95B88185B1C9958591E481B5A5B9D1959 PUSH1 0x22 SHL PUSH1 0x44 DUP3 ADD MSTORE PUSH1 0x64 SWAP1 REVERT INVALID MSTORE8 PUSH21 0x72696E67733A20686578206C656E67746820696E73 PUSH22 0x6666696369656E744552433732313A207472616E7366 PUSH6 0x7220746F206E PUSH16 0x6E204552433732315265DDF252AD1BE2 0xC8 SWAP12 PUSH10 0xC2B068FC378DAA952BA7 CALL PUSH4 0xC4A11628 CREATE2 GAS 0x4D CREATE2 0x23 0xB3 0xEF LOG1 PUSH5 0x736F6C6343 STOP ADDMOD GT STOP EXP GASLIMIT MSTORE NUMBER CALLDATACOPY ORIGIN BALANCE GASPRICE KECCAK256 PUSH21 0x72616E7366657220746F206E6F6E20455243373231 MSTORE PUSH6 0xD7B699010571 SWAP2 ADD 0xDA 0xBE 0xB7 PUSH18 0x44F2A3385C8033ACD3AF97E9423A695E81AD 0x1E 0xB5 DUP12 0xE0 SMOD SWAP13 MSTORE8 AND MSIZE EQ SGT DIFFICULTY 0xCD 0x1F 0xD0 LOG4 CALLCODE DUP5 NOT 0x49 PUSH32 0x9722A3DAAFE3B4186F6B6457E0DDF252AD1BE2C89B69C2B068FC378DAA952BA7 CALL PUSH4 0xC4A11628 CREATE2 GAS 0x4D CREATE2 0x23 0xB3 0xEF DUP14 GT ADDMOD 0xE1 SIGNEXTEND 0xCB PUSH29 0x27DDDFC02ED9D693A074039D026CF4EA4240B40F7D581AC802A164736F PUSH13 0x6343000811000AD7B699010571 SWAP2 ADD 0xDA 0xBE 0xB7 PUSH18 0x44F2A3385C8033ACD3AF97E9423A695E81AD 0x1E 0xB5 DUP14 GT ADDMOD 0xE1 SIGNEXTEND 0xCB PUSH29 0x27DDDFC02ED9D693A074039D026CF4EA4240B40F7D581AC80200000000 "},"methodIdentifiers":{"approve(address,uint256)":"095ea7b3","balanceOf(address)":"70a08231","communities(uint256)":"e590b56a","communitiesTableId()":"5c7bc4c2","communitiesTableName()":"bd978da1","communitiesTablePrefix()":"93fcf4a6","createCommunitiesTable()":"b4d4b6a0","createCommunity(string,(string,uint8,uint8,uint128[]),(string,string,string,string))":"8e07fa90","getApproved(uint256)":"081812fc","handleToCommunityContract(string)":"0ce84ebe","handleToId(bytes32)":"b17588e4","isApprovedForAll(address,address)":"e985e9c5","name()":"06fdde03","onERC721Received(address,address,uint256,bytes)":"150b7a02","owner()":"8da5cb5b","ownerOf(uint256)":"6352211e","renounceOwnership()":"715018a6","safeTransferFrom(address,address,uint256)":"42842e0e","safeTransferFrom(address,address,uint256,bytes)":"b88d4fde","setApprovalForAll(address,bool)":"a22cb465","supportsInterface(bytes4)":"01ffc9a7","symbol()":"95d89b41","tokenURI(uint256)":"c87b56dd","transferFrom(address,address,uint256)":"23b872dd","transferOwnership(address)":"f2fde38b"}}}}}