{
  "_format": "hh-sol-artifact-1",
  "contractName": "CommunitiesTableMethods",
  "sourceName": "contracts/CommunitiesTableMethods.sol",
  "abi": [
    {
      "inputs": [
        {
          "internalType": "address",
          "name": "_tablelandRegistryAddress",
          "type": "address"
        },
        {
          "internalType": "string",
          "name": "_tablePrefix",
          "type": "string"
        }
      ],
      "stateMutability": "nonpayable",
      "type": "constructor"
    },
    {
      "inputs": [
        {
          "internalType": "string",
          "name": "tableName",
          "type": "string"
        }
      ],
      "name": "ErrorTableExists",
      "type": "error"
    },
    {
      "inputs": [],
      "name": "communitiesTable",
      "outputs": [
        {
          "internalType": "uint256",
          "name": "id",
          "type": "uint256"
        },
        {
          "internalType": "string",
          "name": "name",
          "type": "string"
        }
      ],
      "stateMutability": "view",
      "type": "function"
    },
    {
      "inputs": [],
      "name": "createCommunitiesTable",
      "outputs": [],
      "stateMutability": "nonpayable",
      "type": "function"
    },
    {
      "inputs": [
        {
          "internalType": "uint256",
          "name": "newCommunityId",
          "type": "uint256"
        },
        {
          "components": [
            {
              "internalType": "string",
              "name": "handle",
              "type": "string"
            },
            {
              "internalType": "string",
              "name": "name",
              "type": "string"
            },
            {
              "internalType": "string",
              "name": "description",
              "type": "string"
            },
            {
              "internalType": "string",
              "name": "image",
              "type": "string"
            }
          ],
          "internalType": "struct CommunityMetaData",
          "name": "_communityMetaData",
          "type": "tuple"
        }
      ],
      "name": "insertCommunity",
      "outputs": [],
      "stateMutability": "nonpayable",
      "type": "function"
    }
  ],
  "bytecode": "0x60806040523480156200001157600080fd5b506040516200102d3803806200102d83398101604081905262000034916200007c565b600180546001600160a01b0319166001600160a01b03841617905560006200005d828262000201565b505050620002cd565b634e487b7160e01b600052604160045260246000fd5b600080604083850312156200009057600080fd5b82516001600160a01b0381168114620000a857600080fd5b602084810151919350906001600160401b0380821115620000c857600080fd5b818601915086601f830112620000dd57600080fd5b815181811115620000f257620000f262000066565b604051601f8201601f19908116603f011681019083821181831017156200011d576200011d62000066565b8160405282815289868487010111156200013657600080fd5b600093505b828410156200015a57848401860151818501870152928501926200013b565b60008684830101528096505050505050509250929050565b600181811c908216806200018757607f821691505b602082108103620001a857634e487b7160e01b600052602260045260246000fd5b50919050565b601f821115620001fc57600081815260208120601f850160051c81016020861015620001d75750805b601f850160051c820191505b81811015620001f857828155600101620001e3565b5050505b505050565b81516001600160401b038111156200021d576200021d62000066565b62000235816200022e845462000172565b84620001ae565b602080601f8311600181146200026d5760008415620002545750858301515b600019600386901b1c1916600185901b178555620001f8565b600085815260208120601f198616915b828110156200029e578886015182559484019460019091019084016200027d565b5085821015620002bd5787850151600019600388901b60f8161c191681555b5050505050600190811b01905550565b610d5080620002dd6000396000f3fe608060405234801561001057600080fd5b50600436106100415760003560e01c8063315ac05814610046578063b4d4b6a01461005b578063d359496314610063575b600080fd5b610059610054366004610699565b610082565b005b610059610173565b61006b610372565b6040516100799291906107cd565b60405180910390f35b600061008d83610409565b9050600082600001518360200151846040015185606001516040516020016100b8949392919061080a565b604051602081830303815290604052905060006100d56001610409565b9050600060026001018484846040516020016100f49493929190610917565b60408051601f198184030181529082905260015460025463757ae82760e11b84529193506001600160a01b03169163eaf5d04e91610139913091908690600401610a27565b600060405180830381600087803b15801561015357600080fd5b505af1158015610167573d6000803e3d6000fd5b50505050505050505050565b600254156101a057604051633e0f514960e01b815261019790600390600401610a57565b60405180910390fd5b600154604080516060810190915260368082526001600160a01b0390921691633a9151b09130916102649190610d0e6020830139600080546101e1906108dd565b80601f016020809104026020016040519081016040528092919081815260200182805461020d906108dd565b801561025a5780601f1061022f5761010080835404028352916020019161025a565b820191906000526020600020905b81548152906001019060200180831161023d57829003601f168201915b505050505061049b565b6040518363ffffffff1660e01b8152600401610281929190610ae2565b6020604051808303816000875af11580156102a0573d6000803e3d6000fd5b505050506040513d601f19601f820116820180604052508101906102c49190610b06565b6002556000805461036291906102d9906108dd565b80601f0160208091040260200160405190810160405280929190818152602001828054610305906108dd565b80156103525780601f1061032757610100808354040283529160200191610352565b820191906000526020600020905b81548152906001019060200180831161033557829003601f168201915b50505050506002600001546104d1565b60039061036f9082610b6e565b50565b6002805460038054919291610386906108dd565b80601f01602080910402602001604051908101604052809291908181526020018280546103b2906108dd565b80156103ff5780601f106103d4576101008083540402835291602001916103ff565b820191906000526020600020905b8154815290600101906020018083116103e257829003601f168201915b5050505050905082565b60606000610416836104f8565b60010190506000816001600160401b03811115610435576104356105cf565b6040519080825280601f01601f19166020018201604052801561045f576020820181803683370190505b5090508181016020015b600019016f181899199a1a9b1b9c1cb0b131b232b360811b600a86061a8153600a850494508461046957509392505050565b6060816104a746610409565b846040516020016104ba93929190610c2d565b604051602081830303815290604052905092915050565b6060826104dd46610409565b6104e684610409565b6040516020016104ba93929190610cb3565b60008072184f03e93ff9f4daa797ed6e38ed64bf6a1f0160401b83106105375772184f03e93ff9f4daa797ed6e38ed64bf6a1f0160401b830492506040015b6904ee2d6d415b85acef8160201b8310610561576904ee2d6d415b85acef8160201b830492506020015b662386f26fc10000831061057f57662386f26fc10000830492506010015b6305f5e1008310610597576305f5e100830492506008015b61271083106105ab57612710830492506004015b606483106105bd576064830492506002015b600a83106105c9576001015b92915050565b634e487b7160e01b600052604160045260246000fd5b604051608081016001600160401b0381118282101715610607576106076105cf565b60405290565b600082601f83011261061e57600080fd5b81356001600160401b0380821115610638576106386105cf565b604051601f8301601f19908116603f01168101908282118183101715610660576106606105cf565b8160405283815286602085880101111561067957600080fd5b836020870160208301376000602085830101528094505050505092915050565b600080604083850312156106ac57600080fd5b8235915060208301356001600160401b03808211156106ca57600080fd5b90840190608082870312156106de57600080fd5b6106e66105e5565b8235828111156106f557600080fd5b6107018882860161060d565b82525060208301358281111561071657600080fd5b6107228882860161060d565b60208301525060408301358281111561073a57600080fd5b6107468882860161060d565b60408301525060608301358281111561075e57600080fd5b61076a8882860161060d565b6060830152508093505050509250929050565b60005b83811015610798578181015183820152602001610780565b50506000910152565b600081518084526107b981602086016020860161077d565b601f01601f19169290920160200192915050565b8281526040602082015260006107e660408301846107a1565b949350505050565b6000815161080081856020860161077d565b9290920192915050565b6b3d913430b7323632911d101160a11b8152845160009061083281600c850160208a0161077d565b6b111610113730b6b2911d101160a11b600c91840191820152855161085e816018840160208a0161077d565b72111610113232b9b1b934b83a34b7b7111d101160691b60189290910191820152845161089281602b84016020890161077d565b6c1116101134b6b0b3b2911d101160991b602b929091019182015283516108c081603884016020880161077d565b61227d60f01b60389290910191820152603a019695505050505050565b600181811c908216806108f157607f821691505b60208210810361091157634e487b7160e01b600052602260045260246000fd5b50919050565b6b024a729a2a92a1024a72a27960a51b81526000600c6000875461093a816108dd565b60018281168015610952576001811461096b5761099e565b60ff19841688870152821515830288018601945061099e565b8b60005260208060002060005b858110156109935781548b82018a0152908401908201610978565b505050858389010194505b50507f202869642c206d657461646174612c20696e6465786564292056414c5545532083525050600560fb1b60208201526109dc60218201886107ee565b9150506109ed81612c2760f01b9052565b6109fa60028201866107ee565b6109cb60f21b81529050610a1160028201856107ee565b61293b60f01b8152600201979650505050505050565b60018060a01b0384168152826020820152606060408201526000610a4e60608301846107a1565b95945050505050565b6000602080835260008454610a6b816108dd565b80848701526040600180841660008114610a8c5760018114610aa657610ad4565b60ff1985168984015283151560051b890183019550610ad4565b896000528660002060005b85811015610acc5781548b8201860152908301908801610ab1565b8a0184019650505b509398975050505050505050565b6001600160a01b03831681526040602082018190526000906107e6908301846107a1565b600060208284031215610b1857600080fd5b5051919050565b601f821115610b6957600081815260208120601f850160051c81016020861015610b465750805b601f850160051c820191505b81811015610b6557828155600101610b52565b5050505b505050565b81516001600160401b03811115610b8757610b876105cf565b610b9b81610b9584546108dd565b84610b1f565b602080601f831160018114610bd05760008415610bb85750858301515b600019600386901b1c1916600185901b178555610b65565b600085815260208120601f198616915b82811015610bff57888601518255948401946001909101908401610be0565b5085821015610c1d5787850151600019600388901b60f8161c191681555b5050505050600190811b01905550565b6c021a922a0aa22902a20a126229609d1b815260008451610c5581600d85016020890161077d565b605f60f81b600d918401918201528451610c7681600e84016020890161077d565b600560fb1b600e92909101918201528351610c9881600f84016020880161077d565b602960f81b600f929091019182015260100195945050505050565b60008451610cc581846020890161077d565b8083019050605f60f81b8082528551610ce5816001850160208a0161077d565b60019201918201528351610d0081600284016020880161077d565b016002019594505050505056fe696420696e7465676572207072696d617279206b65792c206d6574616461746120746578742c20696e646578656420696e7465676572a164736f6c6343000811000a",
  "linkReferences": {},
  "deployedLinkReferences": {}
}