{
  "_format": "hh-sol-artifact-1",
  "contractName": "AppCreations",
  "sourceName": "contracts/app/AppCreations.sol",
  "abi": [
    {
      "inputs": [
        {
          "internalType": "address",
          "name": "_embraceSpacesAddress",
          "type": "address"
        }
      ],
      "stateMutability": "nonpayable",
      "type": "constructor"
    },
    {
      "inputs": [
        {
          "internalType": "uint256",
          "name": "spaceId",
          "type": "uint256"
        },
        {
          "internalType": "address",
          "name": "memberAddress",
          "type": "address"
        }
      ],
      "name": "ErrorOnlyAdmin",
      "type": "error"
    },
    {
      "anonymous": false,
      "inputs": [
        {
          "indexed": true,
          "internalType": "uint256",
          "name": "spaceId",
          "type": "uint256"
        },
        {
          "indexed": true,
          "internalType": "address",
          "name": "creator",
          "type": "address"
        },
        {
          "components": [
            {
              "internalType": "uint128",
              "name": "id",
              "type": "uint128"
            },
            {
              "internalType": "address",
              "name": "contractAddress",
              "type": "address"
            },
            {
              "internalType": "string",
              "name": "name",
              "type": "string"
            }
          ],
          "indexed": false,
          "internalType": "struct AppCreations.Collection",
          "name": "collection",
          "type": "tuple"
        }
      ],
      "name": "CollectionCreated",
      "type": "event"
    },
    {
      "inputs": [
        {
          "internalType": "uint256",
          "name": "_spaceId",
          "type": "uint256"
        },
        {
          "internalType": "string",
          "name": "_name",
          "type": "string"
        },
        {
          "internalType": "string",
          "name": "_symbol",
          "type": "string"
        }
      ],
      "name": "createCollection",
      "outputs": [],
      "stateMutability": "nonpayable",
      "type": "function"
    },
    {
      "inputs": [],
      "name": "embraceSpacesAddress",
      "outputs": [
        {
          "internalType": "address",
          "name": "",
          "type": "address"
        }
      ],
      "stateMutability": "view",
      "type": "function"
    },
    {
      "inputs": [
        {
          "internalType": "uint256",
          "name": "_spaceId",
          "type": "uint256"
        },
        {
          "internalType": "uint128",
          "name": "_id",
          "type": "uint128"
        }
      ],
      "name": "getCollection",
      "outputs": [
        {
          "components": [
            {
              "internalType": "uint128",
              "name": "id",
              "type": "uint128"
            },
            {
              "internalType": "address",
              "name": "contractAddress",
              "type": "address"
            },
            {
              "internalType": "string",
              "name": "name",
              "type": "string"
            }
          ],
          "internalType": "struct AppCreations.Collection",
          "name": "",
          "type": "tuple"
        }
      ],
      "stateMutability": "view",
      "type": "function"
    },
    {
      "inputs": [
        {
          "internalType": "uint256",
          "name": "_spaceId",
          "type": "uint256"
        }
      ],
      "name": "getCollectionCount",
      "outputs": [
        {
          "internalType": "uint64",
          "name": "",
          "type": "uint64"
        }
      ],
      "stateMutability": "view",
      "type": "function"
    },
    {
      "inputs": [
        {
          "internalType": "uint256",
          "name": "_spaceId",
          "type": "uint256"
        }
      ],
      "name": "getCollections",
      "outputs": [
        {
          "components": [
            {
              "internalType": "uint128",
              "name": "id",
              "type": "uint128"
            },
            {
              "internalType": "address",
              "name": "contractAddress",
              "type": "address"
            },
            {
              "internalType": "string",
              "name": "name",
              "type": "string"
            }
          ],
          "internalType": "struct AppCreations.Collection[]",
          "name": "",
          "type": "tuple[]"
        }
      ],
      "stateMutability": "view",
      "type": "function"
    },
    {
      "inputs": [
        {
          "internalType": "uint256",
          "name": "_spaceId",
          "type": "uint256"
        },
        {
          "internalType": "address",
          "name": "_address",
          "type": "address"
        }
      ],
      "name": "isAdminExternal",
      "outputs": [
        {
          "internalType": "bool",
          "name": "",
          "type": "bool"
        }
      ],
      "stateMutability": "view",
      "type": "function"
    },
    {
      "inputs": [
        {
          "internalType": "uint256",
          "name": "_spaceId",
          "type": "uint256"
        },
        {
          "internalType": "address",
          "name": "_address",
          "type": "address"
        }
      ],
      "name": "isFounderExternal",
      "outputs": [
        {
          "internalType": "bool",
          "name": "",
          "type": "bool"
        }
      ],
      "stateMutability": "view",
      "type": "function"
    },
    {
      "inputs": [
        {
          "internalType": "uint256",
          "name": "",
          "type": "uint256"
        },
        {
          "internalType": "uint256",
          "name": "",
          "type": "uint256"
        }
      ],
      "name": "spaceCollections",
      "outputs": [
        {
          "internalType": "uint128",
          "name": "id",
          "type": "uint128"
        },
        {
          "internalType": "address",
          "name": "contractAddress",
          "type": "address"
        },
        {
          "internalType": "string",
          "name": "name",
          "type": "string"
        }
      ],
      "stateMutability": "view",
      "type": "function"
    },
    {
      "inputs": [
        {
          "internalType": "uint256",
          "name": "",
          "type": "uint256"
        }
      ],
      "name": "spaceToCollectionCount",
      "outputs": [
        {
          "internalType": "uint64",
          "name": "",
          "type": "uint64"
        }
      ],
      "stateMutability": "view",
      "type": "function"
    }
  ],
  "bytecode": "0x60803461007457601f6131a638819003918201601f19168301916001600160401b038311848410176100795780849260209460405283398101031261007457516001600160a01b0381169081900361007457600280546001600160a01b03191691909117905560405161311690816100908239f35b600080fd5b634e487b7160e01b600052604160045260246000fdfe60806040818152600491823610156200001757600080fd5b600092833560e01c9182630d1110c814620006145750816311a6194b14620005725781631b5b1a4614620004e257816327f9904a14620001425781637c19af5d14620000e85781637d54b28214620001215781639035d93814620000e857508063cd5b22a114620000bf5763d881072b146200009257600080fd5b34620000bb5781600319360112620000bb5760025490516001600160a01b039091168152602090f35b5080fd5b5034620000bb57602090620000df620000d8366200096a565b9062000a4a565b90519015158152f35b9050346200011d5760203660031901126200011d5735825260016020908152918190205490516001600160401b039091168152f35b8280fd5b505034620000bb57602090620000df6200013b366200096a565b90620009c5565b919050346200011d5760603660031901126200011d578135906024906001600160401b038235818111620004de576200017f90369087016200090a565b90604435818111620004da576200019a90369088016200090a565b95620001a73387620009c5565b1580620004c6575b620004a45760025484516001600160a01b03929161262480830191851690868311848410176200049257916200021591849362000ac68539815260209b8b8d83015260808a83015262000206608083018a6200070f565b9160608184039101526200070f565b03908af09586156200048857878a52600192838a52868b20805486811687811462000476576001600160401b03199091169086018716179055888b52838a52868b2054875198908616620002698a62000802565b895281168a8901908152878901968752898c528b8b52878c20805490600160401b821015620004645790620002a391878201815562000792565b9290926200045357895183546001600160801b0319166001600160801b0391909116178355905185830180546001600160a01b03191691909216179055945180516002969096019594909290851162000442575050620003048454620007c5565b601f8111620003f7575b508790601f841160011462000378579280600080516020620030ea83398151915297959381936200036698968d946200036c575b50501b916000199060031b1c19161790555b51918291868352339683019062000751565b0390a380f35b01519250388062000342565b848a52888a209293929190601f1984168b5b8b828210620003e257505091620003669795939185600080516020620030ea8339815191529a98969410620003c8575b505050811b01905562000354565b015160001960f88460031b161c19169055388080620003ba565b8385015186559487019493840193016200038a565b848a52888a20601f850160051c8101918a861062000437575b601f0160051c019083905b8281106200042b5750506200030e565b8b81550183906200041b565b909150819062000410565b634e487b7160e01b8b526041905289fd5b634e487b7160e01b8d528c8552838dfd5b634e487b7160e01b8e5260418652848efd5b634e487b7160e01b8e5260118652848efd5b85513d8b823e3d90fd5b634e487b7160e01b8d5260418552898dfd5b85620004c2855192839263eae3129560e01b845233918401620009ac565b0390fd5b50620004d3338762000a4a565b15620001af565b8780fd5b8680fd5b9050346200011d57816003193601126200011d57602435903583528260205281832080548210156200056e57906200051a9162000792565b50805460018201546001600160a01b0316926001600160801b03909116916200056a91906060906200054f9060020162000858565b9180519586958652602086015284015260608301906200070f565b0390f35b8380fd5b82843462000611578160031936011262000611576001600160801b039060243582811690819003620000bb576060848051620005ae8162000802565b848152846020820152015260001901918211620005fe57620005ea9183620005e3926200056a96358152806020522062000792565b5062000a7d565b905191829160208352602083019062000751565b634e487b7160e01b815260118452602490fd5b80fd5b849250346200011d576020806003193601126200056e5782358452838152848420805490936001600160401b038211620006fc57506200065e82826005979594971b018362000834565b8082528482018094845285842084915b838310620006d457505050508451938085019181865251809252858501958260051b8601019392955b828710620006a55785850386f35b909192938280620006c3600193603f198a8203018652885162000751565b960192019601959291909262000697565b600388600192620006e9859b98999b62000a7d565b815201920192019190969493966200066e565b634e487b7160e01b865260419052602485fd5b919082519283825260005b8481106200073c575050826000602080949584010152601f8019910116010190565b6020818301810151848301820152016200071a565b80516001600160801b031682526020808201516001600160a01b03169083015260409081015160609183018290526200078f9291909101906200070f565b90565b8054821015620007af576000526003602060002091020190600090565b634e487b7160e01b600052603260045260246000fd5b90600182811c92168015620007f7575b6020831014620007e157565b634e487b7160e01b600052602260045260246000fd5b91607f1691620007d5565b606081019081106001600160401b038211176200081e57604052565b634e487b7160e01b600052604160045260246000fd5b601f909101601f19168101906001600160401b038211908210176200081e57604052565b90604051918260008254926200086e84620007c5565b908184526001948581169081600014620008e557506001146200089e575b50506200089c9250038362000834565b565b9093915060005260209081600020936000915b818310620008cc5750506200089c935082010138806200088c565b85548884018501529485019487945091830191620008b1565b9150506200089c94506020925060ff191682840152151560051b82010138806200088c565b81601f8201121562000965578035906001600160401b0382116200081e576040519262000942601f8401601f19166020018562000834565b828452602083830101116200096557816000926020809301838601378301015290565b600080fd5b60409060031901126200096557600435906024356001600160a01b0381168103620009655790565b908160209103126200096557518015158103620009655790565b9081526001600160a01b03909116602082015260400190565b600254604051633eaa594160e11b81529260209284926001600160a01b03169183918291620009f89160048401620009ac565b03915afa90811562000a3e5760009162000a10575090565b6200078f915060203d811162000a36575b62000a2d818362000834565b81019062000992565b503d62000a21565b6040513d6000823e3d90fd5b60025460405163cd5b22a160e01b81529260209284926001600160a01b03169183918291620009f89160048401620009ac565b9060405162000a8c8162000802565b82546001600160801b0316815260018301546001600160a01b0316602082015291829060409062000ac09060020162000858565b91015256fe60406080815234620004065762002624803803806200001e816200040b565b9283398101608082820312620004065781516001600160a01b0381169081900362000406576020838101518585015190949192916001600160401b03918281116200040657856200007191830162000431565b94606082015183811162000406576200008b920162000431565b91845195828711620003f057600093845497600197888a811c9a168015620003e5575b888b1014620002ef578190601f9a8b811162000392575b5088908b83116001146200032e57889262000322575b5050600019600383901b1c191690881b1785555b8051908482116200030e5787548881811c9116801562000303575b88821014620002ef5790818a8493116200029c575b5087908a8311600114620002385787926200022c575b5050600019600383901b1c191690871b1786555b600d55600c80546001600160a01b031916919091179055855190818701908111828210176200021857908391875260078152019366697066733a2f2f60c81b8552600e54928484811c941680156200020d575b81851014620001f957818411620001d0575b85516001600160c81b031916600e908117905586516121809081620004a48239f35b600e83528220920160051c8201915b828110620001ee5780620001ae565b8181558301620001df565b634e487b7160e01b83526022600452602483fd5b93607f16936200019c565b634e487b7160e01b83526041600452602483fd5b01519050388062000135565b8988528888208a94509190601f198416895b8b8282106200028557505084116200026b575b505050811b01865562000149565b015160001960f88460031b161c191690553880806200025d565b8385015186558d979095019493840193016200024a565b9091508887528787208a80850160051c8201928a8610620002e5575b918b91869594930160051c01915b828110620002d65750506200011f565b8981558594508b9101620002c6565b92508192620002b8565b634e487b7160e01b87526022600452602487fd5b90607f16906200010a565b634e487b7160e01b86526041600452602486fd5b015190503880620000db565b8880528989208b94509190601f1984168a5b8c8282106200037b575050841162000361575b505050811b018555620000ef565b015160001960f88460031b161c1916905538808062000353565b8385015186558e9790950194938401930162000340565b9091508780528888208b80850160051c8201928b8610620003db575b918c91869594930160051c01915b828110620003cc575050620000c5565b8a81558594508c9101620003bc565b92508192620003ae565b99607f1699620000ae565b634e487b7160e01b600052604160045260246000fd5b600080fd5b6040519190601f01601f191682016001600160401b03811183821017620003f057604052565b919080601f84011215620004065782516001600160401b038111620003f05760209062000467601f8201601f191683016200040b565b92818452828287010111620004065760005b8181106200048f57508260009394955001015290565b85810183015184820184015282016200047956fe60806040526004361015610013575b600080fd5b60003560e01c806301ffc9a7146101cb57806306fdde03146101c2578063081812fc146101b9578063095ea7b3146101b057806318160ddd146101a757806323b872dd1461019e5780632a5c792a146101955780632f745c591461018c57806342842e0e146101835780634f6ccce71461017a5780636352211e1461017157806370a08231146101685780637d54b2821461015f57806395d89b4114610156578063a22cb4651461014d578063b88d4fde14610144578063c87b56dd1461013b578063cd1404ca14610132578063cd5b22a114610129578063d85d3d2714610120578063d881072b146101175763e985e9c51461010f57600080fd5b61000e610e31565b5061000e610e07565b5061000e610c22565b5061000e610bfb565b5061000e610b02565b5061000e610a46565b5061000e6109e6565b5061000e610822565b5061000e610792565b5061000e610761565b5061000e61073d565b5061000e61071e565b5061000e6106f7565b5061000e6106ae565b5061000e6105fa565b5061000e610545565b5061000e61051b565b5061000e6104c7565b5061000e6103ea565b5061000e61038d565b5061000e6102cb565b5061000e6101e6565b6001600160e01b031981160361000e57565b503461000e57602036600319011261000e576020600435610206816101d4565b63ffffffff60e01b1663780e9d6360e01b811490811561022c575b506040519015158152f35b6380ac58cd60e01b81149150811561025e575b811561024d575b5038610221565b6301ffc9a760e01b14905038610246565b635b5e139f60e01b8114915061023f565b60005b8381106102825750506000910152565b8181015183820152602001610272565b906020916102ab8151809281855285808601910161026f565b601f01601f1916010190565b9060206102c8928181520190610292565b90565b503461000e5760008060031936011261038a576040518180546102ed81610faf565b808452906001908181169081156103625750600114610327575b6103238461031781880382610953565b604051918291826102b7565b0390f35b93508180526020938483205b82841061034f5750505081610323936103179282010193610307565b8054858501870152928501928101610333565b61032396506103179450602092508593915060ff191682840152151560051b82010193610307565b80fd5b503461000e57602036600319011261000e5760206103ac600435611104565b6040516001600160a01b039091168152f35b600435906001600160a01b038216820361000e57565b602435906001600160a01b038216820361000e57565b503461000e57604036600319011261000e576104046103be565b60243561041081610f8c565b916001600160a01b038084169082168114610478576104429361043d913314908115610444575b50611092565b611442565b005b6001600160a01b03166000908152600560205260409020610472915061046b903390610eb7565b5460ff1690565b38610437565b60405162461bcd60e51b815260206004820152602160248201527f4552433732313a20617070726f76616c20746f2063757272656e74206f776e656044820152603960f91b6064820152608490fd5b503461000e57600036600319011261000e576020600854604051908152f35b606090600319011261000e576001600160a01b0390600435828116810361000e5791602435908116810361000e579060443590565b503461000e5761044261052d366104e6565b9161054061053b843361123c565b611130565b611323565b503461000e57600036600319011261000e5760085461056381611d27565b6105706040519182610953565b81815261057c82611d27565b6020928383019291601f190136843760005b8181106105d857505090604051928392818401908285525180915260408401929160005b8281106105c157505050500390f35b8351855286955093810193928101926001016105b2565b806105e56105f592611645565b6105ef8286611d7c565b52611d64565b61058e565b503461000e57604036600319011261000e576106146103be565b6024359061062181610ece565b821015610655576001600160a01b031660009081526006602090815260408083209383529281529082902054915191825290f35b60405162461bcd60e51b815260206004820152602b60248201527f455243373231456e756d657261626c653a206f776e657220696e646578206f7560448201526a74206f6620626f756e647360a81b6064820152608490fd5b503461000e576104426106c0366104e6565b60405192909190602084016001600160401b038111858210176106ea575b604052600084526111c3565b6106f26108f9565b6106de565b503461000e57602036600319011261000e576020610716600435611645565b604051908152f35b503461000e57602036600319011261000e5760206103ac600435610f8c565b503461000e57602036600319011261000e57602061071661075c6103be565b610ece565b503461000e57604036600319011261000e5760206107886107806103d4565b6004356116f0565b6040519015158152f35b503461000e5760008060031936011261038a576040518160018054906107b782610faf565b8085529181811690811561036257506001146107dd576103238461031781880382610953565b80945082526020938483205b8284106108055750505081610323936103179282010193610307565b80548585018701529285019281016107e9565b8015150361000e57565b503461000e57604036600319011261000e5761083c6103be565b60243561084881610818565b6001600160a01b038216913383146108b85781610875610886923360005260056020526040600020610eb7565b9060ff801983541691151516179055565b604051901515815233907f17307eab39ab6107e8899845ad3d59bd9653f200f220920489ca2b5937696c3190602090a3005b60405162461bcd60e51b815260206004820152601960248201527822a9219b99189d1030b8383937bb32903a379031b0b63632b960391b6044820152606490fd5b50634e487b7160e01b600052604160045260246000fd5b606081019081106001600160401b0382111761092b57604052565b6109336108f9565b604052565b604081019081106001600160401b0382111761092b57604052565b601f909101601f19168101906001600160401b0382119082101761092b57604052565b6040519061098382610910565b565b6020906001600160401b0381116109a2575b601f01601f19160190565b6109aa6108f9565b610997565b9291926109bb82610985565b916109c96040519384610953565b82948184528183011161000e578281602093846000960137010152565b503461000e57608036600319011261000e57610a006103be565b610a086103d4565b606435916001600160401b03831161000e573660238401121561000e57610a3c6104429336906024816004013591016109af565b91604435916111c3565b503461000e57602036600319011261000e57610323610a666004356119bc565b604051918291602083526020830190610292565b602080820190808352835180925260409283810182858560051b8401019601946000925b858410610aaf575050505050505090565b909192939495968580600192603f198582030187528a51908151815286610ae28484015160608087860152840190610292565b9281878060a01b0391015116910152990194019401929594939190610a9e565b503461000e5760008060031936011261038a57600854610b2181611d27565b90604092610b3184519384610953565b818352601f19610b4083611d27565b01815b818110610bd35750505b818110610b61578351806103238582610a7a565b80610b6e610bce92611645565b610bb3610b82610b7d84611645565b6119bc565b610b93610b8e85611645565b610f8c565b90610b9c610976565b93845260208401526001600160a01b031687830152565b610bbd8286611d7c565b52610bc88185611d7c565b50611d64565b610b4d565b6020908651610be181610910565b848152826060818301528589830152828801015201610b43565b503461000e57604036600319011261000e576020610788610c1a6103d4565b60043561179c565b503461000e57602036600319011261000e576004356001600160401b03811161000e573660238201121561000e57610c649036906024816004013591016109af565b600d54600c54604051610ca6916001600160a01b0316908390610c8681610938565b600e81526d37b7363ca9b830b1b2a0b236b4b760911b602082015261208a565b610cb033826116f0565b1580610df6575b610dd357506001600b54019081600b553315610d8f57610ce5610ce0610cdc84611496565b1590565b611d9e565b610cef8233611de9565b610cfe610ce0610cdc84611496565b610d0733610e83565b60018154019055610d2b33610d26846000526002602052604060002090565b611304565b813360006000805160206121548339815191528180a48051610d7f575b50600d5460405191825230913391907f024b3a732399b285a2020f19abe7746472b1ce95d01ddbd0362a7a65072ebed090602090a4005b610d899082611852565b38610d48565b606460405162461bcd60e51b815260206004820152602060248201527f4552433732313a206d696e7420746f20746865207a65726f20616464726573736044820152fd5b60405163eae3129560e01b8152908190610df2903390600484016116d7565b0390fd5b50610e01338261179c565b15610cb7565b503461000e57600036600319011261000e57600c546040516001600160a01b039091168152602090f35b503461000e57604036600319011261000e57602060ff610e77610e526103be565b610e5a6103d4565b6001600160a01b0390911660009081526005855260409020610eb7565b54166040519015158152f35b6001600160a01b0316600090815260036020526040902090565b6001600160a01b0316600090815260066020526040902090565b9060018060a01b0316600052602052604060002090565b6001600160a01b03168015610eee57600052600360205260406000205490565b60405162461bcd60e51b815260206004820152602960248201527f4552433732313a2061646472657373207a65726f206973206e6f7420612076616044820152683634b21037bbb732b960b91b6064820152608490fd5b15610f4c57565b60405162461bcd60e51b8152602060048201526018602482015277115490cdcc8c4e881a5b9d985b1a59081d1bdad95b88125160421b6044820152606490fd5b6000908152600260205260409020546001600160a01b03166102c8811515610f45565b90600182811c92168015610fdf575b6020831014610fc957565b634e487b7160e01b600052602260045260246000fd5b91607f1691610fbe565b60405190600082600e5491610ffd83610faf565b8083526001938085169081156110715750600114611023575b5061098392500383610953565b600e600090815260008051602061211483398151915294602093509091905b818310611059575050610983935082010138611016565b85548884018501529485019487945091830191611042565b905061098394506020925060ff191682840152151560051b82010138611016565b1561109957565b60405162461bcd60e51b815260206004820152603d60248201527f4552433732313a20617070726f76652063616c6c6572206973206e6f7420746f60448201527f6b656e206f776e6572206f7220617070726f76656420666f7220616c6c0000006064820152608490fd5b61111561111082611496565b610f45565b6000908152600460205260409020546001600160a01b031690565b1561113757565b60405162461bcd60e51b815260206004820152602d60248201527f4552433732313a2063616c6c6572206973206e6f7420746f6b656e206f776e6560448201526c1c881bdc88185c1c1c9bdd9959609a1b6064820152608490fd5b60405190602082016001600160401b038111838210176111b6575b60405260008252565b6111be6108f9565b6111ad565b906111e79392916111d761053b843361123c565b6111e2838383611323565b611536565b156111ee57565b60405162461bcd60e51b815260206004820152603260248201526000805160206120f483398151915260448201527131b2b4bb32b91034b6b83632b6b2b73a32b960711b6064820152608490fd5b6001600160a01b038061124e84610f8c565b169281831692848414948515611284575b5050831561126e575b50505090565b61127a91929350611104565b1614388080611268565b60ff929550906112a09160005260056020526040600020610eb7565b541692388061125f565b156112b157565b60405162461bcd60e51b815260206004820152602560248201527f4552433732313a207472616e736665722066726f6d20696e636f72726563742060448201526437bbb732b960d91b6064820152608490fd5b80546001600160a01b0319166001600160a01b03909216919091179055565b6113479061133084610f8c565b6001600160a01b03828116939091821684146112aa565b83169283156113f1576113b08261136287846113dc96611e14565b6113848561137e6113728a610f8c565b6001600160a01b031690565b146112aa565b6113ab61139b886000526004602052604060002090565b80546001600160a01b0319169055565b610e83565b80546000190190556113c181610e83565b60018154019055610d26856000526002602052604060002090565b600080516020612154833981519152600080a4565b60405162461bcd60e51b8152602060048201526024808201527f4552433732313a207472616e7366657220746f20746865207a65726f206164646044820152637265737360e01b6064820152608490fd5b816000526004602052611459816040600020611304565b6001600160a01b038061146b84610f8c565b169116907f8c5be1e5ebec7d5bd14f71427d1e84f3dd0314c0f7b2291e5b200ac8c7c3b925600080a4565b6000908152600260205260409020546001600160a01b0316151590565b9081602091031261000e57516102c8816101d4565b6001600160a01b0391821681529116602082015260408101919091526080606082018190526102c892910190610292565b506040513d6000823e3d90fd5b3d15611531573d9061151782610985565b916115256040519384610953565b82523d6000602084013e565b606090565b92909190823b1561162557611569926020926000604051809681958294630a85bd0160e11b9a8b855233600486016114c8565b03926001600160a01b03165af1600091816115f5575b506115e75761158c611506565b805190816115e25760405162461bcd60e51b815260206004820152603260248201526000805160206120f483398151915260448201527131b2b4bb32b91034b6b83632b6b2b73a32b960711b6064820152608490fd5b602001fd5b6001600160e01b0319161490565b61161791925060203d811161161e575b61160f8183610953565b8101906114b3565b903861157f565b503d611605565b50505050600190565b50634e487b7160e01b600052603260045260246000fd5b600854811015611668576008600052600080516020612134833981519152015490565b60405162461bcd60e51b815260206004820152602c60248201527f455243373231456e756d657261626c653a20676c6f62616c20696e646578206f60448201526b7574206f6620626f756e647360a01b6064820152608490fd5b9081602091031261000e57516102c881610818565b9081526001600160a01b03909116602082015260400190565b6117509160209160018060a01b03600c541690611734828260405161171481610938565b600f81526e1a5cd0591b5a5b915e1d195c9b985b608a1b8882015261208a565b604051809581948293633eaa594160e11b8452600484016116d7565b03915afa90811561178f575b600091611767575090565b6102c8915060203d8111611788575b6117808183610953565b8101906116c2565b503d611776565b6117976114f9565b61175c565b6117509160209160018060a01b03600c5416906117e282826040516117c081610938565b60118152701a5cd19bdd5b99195c915e1d195c9b985b607a1b8882015261208a565b60405180958194829363cd5b22a160e01b8452600484016116d7565b90601f811161180c57505050565b600091825260208220906020601f850160051c83019410611848575b601f0160051c01915b82811061183d57505050565b818155600101611831565b9092508290611828565b91909161185e81611496565b15611949576000526020600a815260406000209083519060018060401b03821161193c575b611897826118918554610faf565b856117fe565b80601f83116001146118d15750819293946000926118c6575b50508160011b916000199060031b1c1916179055565b0151905038806118b0565b90601f198316956118e785600052602060002090565b926000905b8882106119245750508360019596971061190b575b505050811b019055565b015160001960f88460031b161c19169055388080611901565b806001859682949686015181550195019301906118ec565b6119446108f9565b611883565b60405162461bcd60e51b815260206004820152602e60248201527f45524337323155524953746f726167653a2055524920736574206f66206e6f6e60448201526d32bc34b9ba32b73a103a37b5b2b760911b6064820152608490fd5b906119b86020928281519485920161026f565b0190565b6119c861111082611496565b6000908082526020600a815260408320604051848195908354906119eb82610faf565b94858552600192878482169182600014611aab575050600114611a6f575b505050611a1892500384610953565b611a20610fe9565b92835115611a68578051611a3a5750506102c89150611acf565b6102c89250611a5a90611a546040519586948501906119a5565b906119a5565b03601f198101835282610953565b9250505090565b869350819291528282205b858310611a93575050611a189350820101388080611a09565b8054838a018501528894508693909201918101611a7a565b935094505050611a1894915060ff191682840152151560051b820101388080611a09565b611adb61111082611496565b60405190600082600e5491611aef83610faf565b808352600193808516908115611b975750600114611b49575b50611b1592500383610953565b815115611b3f57611a5491611a5a611b2f6102c893611bea565b60405194859360208501906119a5565b50506102c8611192565b600e600090815260008051602061211483398151915294602093509091905b818310611b7f575050611b15935082010138611b08565b85548884018501529485019487945091830191611b68565b9050611b1594506020925060ff191682840152151560051b82010138611b08565b90611bc282610985565b611bcf6040519182610953565b8281528092611be0601f1991610985565b0190602036910137565b6000908072184f03e93ff9f4daa797ed6e38ed64bf6a1f0160401b80821015611d19575b506904ee2d6d415b85acef8160201b80831015611d0a575b50662386f26fc1000080831015611cfb575b506305f5e10080831015611cec575b5061271080831015611cdd575b506064821015611ccd575b600a80921015611cc3575b600190816021611c7b828701611bb8565b95860101905b611c8d575b5050505090565b600019019083906f181899199a1a9b1b9c1cb0b131b232b360811b8282061a835304918215611cbe57919082611c81565b611c86565b9160010191611c6a565b9190606460029104910191611c5f565b60049193920491019138611c54565b60089193920491019138611c47565b60109193920491019138611c38565b60209193920491019138611c26565b604093508104915038611c0e565b6020906001600160401b038111611d40575b60051b0190565b611d486108f9565b611d39565b50634e487b7160e01b600052601160045260246000fd5b6001906000198114611d74570190565b6119b8611d4d565b6020918151811015611d91575b60051b010190565b611d9961162e565b611d89565b15611da557565b60405162461bcd60e51b815260206004820152601c60248201527b115490cdcc8c4e881d1bdad95b88185b1c9958591e481b5a5b9d195960221b6044820152606490fd5b90611df381611f47565b6001600160a01b038216611e0b576109839150611fa9565b61098391611f0f565b9091906001600160a01b038082169182611e4e5750611e3283611f47565b831680611e455750506109839150611fa9565b03611e0b575050565b8185168303611e5e575b50611e32565b611e6781610ece565b6000198101908111611f02575b611eab60009286845260076020526040842054838103611ebc575b5083611ea5886000526007602052604060002090565b55610e9d565b908252602052604081205538611e58565b868552600660205260408520848652602052611efb6040862054611edf84610e9d565b8388526020528060408820556000526007602052604060002090565b5538611e8f565b611f0a611d4d565b611e74565b604090611f1b81610ece565b9260009160018060a01b0316825260066020528282208483526020528083832055815260076020522055565b60085481600052600960205280604060002055600160401b811015611f9c575b6001810180600855811015611f8f575b60086000526000805160206121348339815191520155565b611f9761162e565b611f77565b611fa46108f9565b611f67565b600861200d815461201e6000199485830183811161207d575b60009485948386526009602052806040872054931015612070575b87865288816020882001015490831015612063575b87865280836020882001556000526009602052604060002090565b556000526009602052604060002090565b55815492831561204f578084019380851015612042575b8383526020832001015555565b61204a61162e565b612035565b634e487b7160e01b82526031600452602482fd5b61206b61162e565b611ff2565b61207861162e565b611fdd565b612085611d4d565b611fc2565b600092916120e084936040519283916120bc602084019663038fd88960e31b8852606060248601526084850190610292565b60448401929092526001600160a01b0316606483015203601f198101835282610953565b51906a636f6e736f6c652e6c6f675afa5056fe4552433732313a207472616e7366657220746f206e6f6e204552433732315265bb7b4a454dc3493923482f07822329ed19e8244eff582cc204f8554c3620c3fdf3f7a9fe364faab93b216da50a3214154f22a0a2b415b23a84c8169e8b636ee3ddf252ad1be2c89b69c2b068fc378daa952ba7f163c4a11628f55a4df523b3efa164736f6c6343000811000a2c4c0f4771b4f9cc588b8cc0ad913d18c5982cade64c4cd92f0f4da8e85b0232a164736f6c6343000811000a",
  "linkReferences": {},
  "deployedLinkReferences": {}
}