{
  "_format": "hh-sol-artifact-1",
  "contractName": "AppCreationsCollection",
  "sourceName": "contracts/app/AppCreationsCollection.sol",
  "abi": [
    {
      "inputs": [
        {
          "internalType": "address",
          "name": "_embraceSpacesAddress",
          "type": "address"
        },
        {
          "internalType": "uint256",
          "name": "_spaceId",
          "type": "uint256"
        },
        {
          "internalType": "string",
          "name": "_name",
          "type": "string"
        },
        {
          "internalType": "string",
          "name": "_symbol",
          "type": "string"
        }
      ],
      "stateMutability": "nonpayable",
      "type": "constructor"
    },
    {
      "inputs": [
        {
          "internalType": "uint256",
          "name": "spaceId",
          "type": "uint256"
        },
        {
          "internalType": "address",
          "name": "memberAddress",
          "type": "address"
        }
      ],
      "name": "ErrorOnlyAdmin",
      "type": "error"
    },
    {
      "anonymous": false,
      "inputs": [
        {
          "indexed": true,
          "internalType": "address",
          "name": "owner",
          "type": "address"
        },
        {
          "indexed": true,
          "internalType": "address",
          "name": "approved",
          "type": "address"
        },
        {
          "indexed": true,
          "internalType": "uint256",
          "name": "tokenId",
          "type": "uint256"
        }
      ],
      "name": "Approval",
      "type": "event"
    },
    {
      "anonymous": false,
      "inputs": [
        {
          "indexed": true,
          "internalType": "address",
          "name": "owner",
          "type": "address"
        },
        {
          "indexed": true,
          "internalType": "address",
          "name": "operator",
          "type": "address"
        },
        {
          "indexed": false,
          "internalType": "bool",
          "name": "approved",
          "type": "bool"
        }
      ],
      "name": "ApprovalForAll",
      "type": "event"
    },
    {
      "anonymous": false,
      "inputs": [
        {
          "indexed": true,
          "internalType": "uint256",
          "name": "spaceId",
          "type": "uint256"
        },
        {
          "indexed": true,
          "internalType": "address",
          "name": "creator",
          "type": "address"
        },
        {
          "indexed": true,
          "internalType": "address",
          "name": "collectionContractAddress",
          "type": "address"
        },
        {
          "indexed": false,
          "internalType": "uint256",
          "name": "tokenId",
          "type": "uint256"
        }
      ],
      "name": "CreationCreated",
      "type": "event"
    },
    {
      "anonymous": false,
      "inputs": [
        {
          "indexed": true,
          "internalType": "address",
          "name": "from",
          "type": "address"
        },
        {
          "indexed": true,
          "internalType": "address",
          "name": "to",
          "type": "address"
        },
        {
          "indexed": true,
          "internalType": "uint256",
          "name": "tokenId",
          "type": "uint256"
        }
      ],
      "name": "Transfer",
      "type": "event"
    },
    {
      "inputs": [
        {
          "internalType": "address",
          "name": "to",
          "type": "address"
        },
        {
          "internalType": "uint256",
          "name": "tokenId",
          "type": "uint256"
        }
      ],
      "name": "approve",
      "outputs": [],
      "stateMutability": "nonpayable",
      "type": "function"
    },
    {
      "inputs": [
        {
          "internalType": "address",
          "name": "owner",
          "type": "address"
        }
      ],
      "name": "balanceOf",
      "outputs": [
        {
          "internalType": "uint256",
          "name": "",
          "type": "uint256"
        }
      ],
      "stateMutability": "view",
      "type": "function"
    },
    {
      "inputs": [],
      "name": "embraceSpacesAddress",
      "outputs": [
        {
          "internalType": "address",
          "name": "",
          "type": "address"
        }
      ],
      "stateMutability": "view",
      "type": "function"
    },
    {
      "inputs": [],
      "name": "getAllTokens",
      "outputs": [
        {
          "internalType": "uint256[]",
          "name": "",
          "type": "uint256[]"
        }
      ],
      "stateMutability": "view",
      "type": "function"
    },
    {
      "inputs": [],
      "name": "getAllTokensData",
      "outputs": [
        {
          "components": [
            {
              "internalType": "uint256",
              "name": "tokenId",
              "type": "uint256"
            },
            {
              "internalType": "string",
              "name": "tokenURI",
              "type": "string"
            },
            {
              "internalType": "address",
              "name": "owner",
              "type": "address"
            }
          ],
          "internalType": "struct AppCreationsCollection.TokenData[]",
          "name": "",
          "type": "tuple[]"
        }
      ],
      "stateMutability": "view",
      "type": "function"
    },
    {
      "inputs": [
        {
          "internalType": "uint256",
          "name": "tokenId",
          "type": "uint256"
        }
      ],
      "name": "getApproved",
      "outputs": [
        {
          "internalType": "address",
          "name": "",
          "type": "address"
        }
      ],
      "stateMutability": "view",
      "type": "function"
    },
    {
      "inputs": [
        {
          "internalType": "uint256",
          "name": "_spaceId",
          "type": "uint256"
        },
        {
          "internalType": "address",
          "name": "_address",
          "type": "address"
        }
      ],
      "name": "isAdminExternal",
      "outputs": [
        {
          "internalType": "bool",
          "name": "",
          "type": "bool"
        }
      ],
      "stateMutability": "view",
      "type": "function"
    },
    {
      "inputs": [
        {
          "internalType": "address",
          "name": "owner",
          "type": "address"
        },
        {
          "internalType": "address",
          "name": "operator",
          "type": "address"
        }
      ],
      "name": "isApprovedForAll",
      "outputs": [
        {
          "internalType": "bool",
          "name": "",
          "type": "bool"
        }
      ],
      "stateMutability": "view",
      "type": "function"
    },
    {
      "inputs": [
        {
          "internalType": "uint256",
          "name": "_spaceId",
          "type": "uint256"
        },
        {
          "internalType": "address",
          "name": "_address",
          "type": "address"
        }
      ],
      "name": "isFounderExternal",
      "outputs": [
        {
          "internalType": "bool",
          "name": "",
          "type": "bool"
        }
      ],
      "stateMutability": "view",
      "type": "function"
    },
    {
      "inputs": [
        {
          "internalType": "string",
          "name": "_tokenURI",
          "type": "string"
        }
      ],
      "name": "mint",
      "outputs": [],
      "stateMutability": "nonpayable",
      "type": "function"
    },
    {
      "inputs": [],
      "name": "name",
      "outputs": [
        {
          "internalType": "string",
          "name": "",
          "type": "string"
        }
      ],
      "stateMutability": "view",
      "type": "function"
    },
    {
      "inputs": [
        {
          "internalType": "uint256",
          "name": "tokenId",
          "type": "uint256"
        }
      ],
      "name": "ownerOf",
      "outputs": [
        {
          "internalType": "address",
          "name": "",
          "type": "address"
        }
      ],
      "stateMutability": "view",
      "type": "function"
    },
    {
      "inputs": [
        {
          "internalType": "address",
          "name": "from",
          "type": "address"
        },
        {
          "internalType": "address",
          "name": "to",
          "type": "address"
        },
        {
          "internalType": "uint256",
          "name": "tokenId",
          "type": "uint256"
        }
      ],
      "name": "safeTransferFrom",
      "outputs": [],
      "stateMutability": "nonpayable",
      "type": "function"
    },
    {
      "inputs": [
        {
          "internalType": "address",
          "name": "from",
          "type": "address"
        },
        {
          "internalType": "address",
          "name": "to",
          "type": "address"
        },
        {
          "internalType": "uint256",
          "name": "tokenId",
          "type": "uint256"
        },
        {
          "internalType": "bytes",
          "name": "data",
          "type": "bytes"
        }
      ],
      "name": "safeTransferFrom",
      "outputs": [],
      "stateMutability": "nonpayable",
      "type": "function"
    },
    {
      "inputs": [
        {
          "internalType": "address",
          "name": "operator",
          "type": "address"
        },
        {
          "internalType": "bool",
          "name": "approved",
          "type": "bool"
        }
      ],
      "name": "setApprovalForAll",
      "outputs": [],
      "stateMutability": "nonpayable",
      "type": "function"
    },
    {
      "inputs": [
        {
          "internalType": "bytes4",
          "name": "interfaceId",
          "type": "bytes4"
        }
      ],
      "name": "supportsInterface",
      "outputs": [
        {
          "internalType": "bool",
          "name": "",
          "type": "bool"
        }
      ],
      "stateMutability": "view",
      "type": "function"
    },
    {
      "inputs": [],
      "name": "symbol",
      "outputs": [
        {
          "internalType": "string",
          "name": "",
          "type": "string"
        }
      ],
      "stateMutability": "view",
      "type": "function"
    },
    {
      "inputs": [
        {
          "internalType": "uint256",
          "name": "index",
          "type": "uint256"
        }
      ],
      "name": "tokenByIndex",
      "outputs": [
        {
          "internalType": "uint256",
          "name": "",
          "type": "uint256"
        }
      ],
      "stateMutability": "view",
      "type": "function"
    },
    {
      "inputs": [
        {
          "internalType": "address",
          "name": "owner",
          "type": "address"
        },
        {
          "internalType": "uint256",
          "name": "index",
          "type": "uint256"
        }
      ],
      "name": "tokenOfOwnerByIndex",
      "outputs": [
        {
          "internalType": "uint256",
          "name": "",
          "type": "uint256"
        }
      ],
      "stateMutability": "view",
      "type": "function"
    },
    {
      "inputs": [
        {
          "internalType": "uint256",
          "name": "tokenId",
          "type": "uint256"
        }
      ],
      "name": "tokenURI",
      "outputs": [
        {
          "internalType": "string",
          "name": "",
          "type": "string"
        }
      ],
      "stateMutability": "view",
      "type": "function"
    },
    {
      "inputs": [],
      "name": "totalSupply",
      "outputs": [
        {
          "internalType": "uint256",
          "name": "",
          "type": "uint256"
        }
      ],
      "stateMutability": "view",
      "type": "function"
    },
    {
      "inputs": [
        {
          "internalType": "address",
          "name": "from",
          "type": "address"
        },
        {
          "internalType": "address",
          "name": "to",
          "type": "address"
        },
        {
          "internalType": "uint256",
          "name": "tokenId",
          "type": "uint256"
        }
      ],
      "name": "transferFrom",
      "outputs": [],
      "stateMutability": "nonpayable",
      "type": "function"
    }
  ],
  "bytecode": "0x60806040523480156200001157600080fd5b506040516200242d3803806200242d833981016040819052620000349162000180565b81816000620000448382620002a3565b506001620000538282620002a3565b505050600d839055600c80546001600160a01b0319166001600160a01b038616179055604080518082019091526007815266697066733a2f2f60c81b60208201526200009f90620000a9565b505050506200036f565b600e620000b78282620002a3565b5050565b634e487b7160e01b600052604160045260246000fd5b600082601f830112620000e357600080fd5b81516001600160401b0380821115620001005762000100620000bb565b604051601f8301601f19908116603f011681019082821181831017156200012b576200012b620000bb565b816040528381526020925086838588010111156200014857600080fd5b600091505b838210156200016c57858201830151818301840152908201906200014d565b600093810190920192909252949350505050565b600080600080608085870312156200019757600080fd5b84516001600160a01b0381168114620001af57600080fd5b6020860151604087015191955093506001600160401b0380821115620001d457600080fd5b620001e288838901620000d1565b93506060870151915080821115620001f957600080fd5b506200020887828801620000d1565b91505092959194509250565b600181811c908216806200022957607f821691505b6020821081036200024a57634e487b7160e01b600052602260045260246000fd5b50919050565b601f8211156200029e57600081815260208120601f850160051c81016020861015620002795750805b601f850160051c820191505b818110156200029a5782815560010162000285565b5050505b505050565b81516001600160401b03811115620002bf57620002bf620000bb565b620002d781620002d0845462000214565b8462000250565b602080601f8311600181146200030f5760008415620002f65750858301515b600019600386901b1c1916600185901b1785556200029a565b600085815260208120601f198616915b8281101562000340578886015182559484019460019091019084016200031f565b50858210156200035f5787850151600019600388901b60f8161c191681555b5050505050600190811b01905550565b6120ae806200037f6000396000f3fe608060405234801561001057600080fd5b50600436106101125760003560e01c806301ffc9a71461011757806306fdde031461013f578063081812fc14610154578063095ea7b31461017f57806318160ddd1461019457806323b872dd146101a65780632a5c792a146101b95780632f745c59146101ce57806342842e0e146101e15780634f6ccce7146101f45780636352211e1461020757806370a082311461021a5780637d54b2821461022d57806395d89b4114610240578063a22cb46514610248578063b88d4fde1461025b578063c87b56dd1461026e578063cd1404ca14610281578063cd5b22a114610296578063d85d3d27146102a9578063d881072b146102bc578063e985e9c5146102cf575b600080fd5b61012a610125366004611896565b6102e2565b60405190151581526020015b60405180910390f35b6101476102f3565b6040516101369190611903565b610167610162366004611916565b610385565b6040516001600160a01b039091168152602001610136565b61019261018d36600461194b565b6103ac565b005b6008545b604051908152602001610136565b6101926101b4366004611975565b6104c6565b6101c16104f7565b60405161013691906119b1565b6101986101dc36600461194b565b610592565b6101926101ef366004611975565b610628565b610198610202366004611916565b610643565b610167610215366004611916565b6106d6565b6101986102283660046119f5565b61070a565b61012a61023b366004611a10565b610790565b61014761084a565b610192610256366004611a4a565b610859565b610192610269366004611b0c565b610868565b61014761027c366004611916565b6108a0565b6102896108ab565b6040516101369190611b87565b61012a6102a4366004611a10565b6109af565b6101926102b7366004611c11565b610a23565b600c54610167906001600160a01b031681565b61012a6102dd366004611c59565b610b18565b60006102ed82610b46565b92915050565b60606000805461030290611c83565b80601f016020809104026020016040519081016040528092919081815260200182805461032e90611c83565b801561037b5780601f106103505761010080835404028352916020019161037b565b820191906000526020600020905b81548152906001019060200180831161035e57829003601f168201915b5050505050905090565b600061039082610b6b565b506000908152600460205260409020546001600160a01b031690565b60006103b7826106d6565b9050806001600160a01b0316836001600160a01b0316036104295760405162461bcd60e51b815260206004820152602160248201527f4552433732313a20617070726f76616c20746f2063757272656e74206f776e656044820152603960f91b60648201526084015b60405180910390fd5b336001600160a01b038216148061044557506104458133610b18565b6104b75760405162461bcd60e51b815260206004820152603d60248201527f4552433732313a20617070726f76652063616c6c6572206973206e6f7420746f60448201527f6b656e206f776e6572206f7220617070726f76656420666f7220616c6c0000006064820152608401610420565b6104c18383610b93565b505050565b6104d03382610c01565b6104ec5760405162461bcd60e51b815260040161042090611cb7565b6104c1838383610c60565b6060600061050460085490565b6001600160401b0381111561051b5761051b611a81565b604051908082528060200260200182016040528015610544578160200160208202803683370190505b50905060005b60085481101561058c5761055d81610643565b82828151811061056f5761056f611d04565b60209081029190910101528061058481611d30565b91505061054a565b50919050565b600061059d8361070a565b82106105ff5760405162461bcd60e51b815260206004820152602b60248201527f455243373231456e756d657261626c653a206f776e657220696e646578206f7560448201526a74206f6620626f756e647360a81b6064820152608401610420565b506001600160a01b03919091166000908152600660209081526040808320938352929052205490565b6104c183838360405180602001604052806000815250610868565b600061064e60085490565b82106106b15760405162461bcd60e51b815260206004820152602c60248201527f455243373231456e756d657261626c653a20676c6f62616c20696e646578206f60448201526b7574206f6620626f756e647360a01b6064820152608401610420565b600882815481106106c4576106c4611d04565b90600052602060002001549050919050565b6000806106e283610dbf565b90506001600160a01b0381166102ed5760405162461bcd60e51b815260040161042090611d49565b60006001600160a01b0382166107745760405162461bcd60e51b815260206004820152602960248201527f4552433732313a2061646472657373207a65726f206973206e6f7420612076616044820152683634b21037bbb732b960b91b6064820152608401610420565b506001600160a01b031660009081526003602052604090205490565b60408051808201909152600f81526e1a5cd0591b5a5b915e1d195c9b985b608a1b6020820152600c546000916107d09185906001600160a01b0316610dda565b600c54604051633eaa594160e11b81526001600160a01b0390911690637d54b282906108029086908690600401611d7b565b602060405180830381865afa15801561081f573d6000803e3d6000fd5b505050506040513d601f19601f820116820180604052508101906108439190611d92565b9392505050565b60606001805461030290611c83565b610864338383610e21565b5050565b6108723383610c01565b61088e5760405162461bcd60e51b815260040161042090611cb7565b61089a84848484610eeb565b50505050565b60606102ed82610f1e565b606060006108b860085490565b6001600160401b038111156108cf576108cf611a81565b60405190808252806020026020018201604052801561092d57816020015b61091a6040518060600160405280600081526020016060815260200160006001600160a01b031681525090565b8152602001906001900390816108ed5790505b50905060005b60085481101561058c57604051806060016040528061095183610643565b815260200161096261027c84610643565b815260200161097361021584610643565b6001600160a01b031681525082828151811061099157610991611d04565b602002602001018190525080806109a790611d30565b915050610933565b6040805180820190915260118152701a5cd19bdd5b99195c915e1d195c9b985b607a1b6020820152600c546000916109f19185906001600160a01b0316610dda565b600c5460405163cd5b22a160e01b81526001600160a01b039091169063cd5b22a1906108029086908690600401611d7b565b600d5460408051808201909152600e81526d37b7363ca9b830b1b2a0b236b4b760911b6020820152600c54610a63919083906001600160a01b0316610dda565b610a6d8133610790565b158015610a815750610a7f81336109af565b155b15610aa357803360405163eae3129560e01b8152600401610420929190611d7b565b610ab1600b80546001019055565b6000610abc600b5490565b9050610ac83382611019565b825115610ad957610ad98184611023565b600d54604051828152309133917f024b3a732399b285a2020f19abe7746472b1ce95d01ddbd0362a7a65072ebed09060200160405180910390a4505050565b6001600160a01b03918216600090815260056020908152604080832093909416825291909152205460ff1690565b60006001600160e01b0319821663780e9d6360e01b14806102ed57506102ed826110a7565b610b74816110f7565b610b905760405162461bcd60e51b815260040161042090611d49565b50565b600081815260046020526040902080546001600160a01b0319166001600160a01b0384169081179091558190610bc8826106d6565b6001600160a01b03167f8c5be1e5ebec7d5bd14f71427d1e84f3dd0314c0f7b2291e5b200ac8c7c3b92560405160405180910390a45050565b600080610c0d836106d6565b9050806001600160a01b0316846001600160a01b03161480610c345750610c348185610b18565b80610c585750836001600160a01b0316610c4d84610385565b6001600160a01b0316145b949350505050565b826001600160a01b0316610c73826106d6565b6001600160a01b031614610c995760405162461bcd60e51b815260040161042090611daf565b6001600160a01b038216610cfb5760405162461bcd60e51b8152602060048201526024808201527f4552433732313a207472616e7366657220746f20746865207a65726f206164646044820152637265737360e01b6064820152608401610420565b610d088383836001611114565b826001600160a01b0316610d1b826106d6565b6001600160a01b031614610d415760405162461bcd60e51b815260040161042090611daf565b600081815260046020908152604080832080546001600160a01b03199081169091556001600160a01b03878116808652600385528386208054600019019055908716808652838620805460010190558686526002909452828520805490921684179091559051849360008051602061208283398151915291a4505050565b6000908152600260205260409020546001600160a01b031690565b6104c1838383604051602401610df293929190611df4565b60408051601f198184030181529190526020810180516001600160e01b031663038fd88960e31b179052611120565b816001600160a01b0316836001600160a01b031603610e7e5760405162461bcd60e51b815260206004820152601960248201527822a9219b99189d1030b8383937bb32903a379031b0b63632b960391b6044820152606401610420565b6001600160a01b03838116600081815260056020908152604080832094871680845294825291829020805460ff191686151590811790915591519182527f17307eab39ab6107e8899845ad3d59bd9653f200f220920489ca2b5937696c31910160405180910390a3505050565b610ef6848484610c60565b610f0284848484611141565b61089a5760405162461bcd60e51b815260040161042090611e27565b6060610f2982610b6b565b6000828152600a602052604081208054610f4290611c83565b80601f0160208091040260200160405190810160405280929190818152602001828054610f6e90611c83565b8015610fbb5780601f10610f9057610100808354040283529160200191610fbb565b820191906000526020600020905b815481529060010190602001808311610f9e57829003601f168201915b505050505090506000610fcc611242565b90508051600003610fde575092915050565b815115611010578082604051602001610ff8929190611e79565b60405160208183030381529060405292505050919050565b610c5884611251565b61086482826112b7565b61102c826110f7565b61108f5760405162461bcd60e51b815260206004820152602e60248201527f45524337323155524953746f726167653a2055524920736574206f66206e6f6e60448201526d32bc34b9ba32b73a103a37b5b2b760911b6064820152608401610420565b6000828152600a602052604090206104c18282611ef6565b60006001600160e01b031982166380ac58cd60e01b14806110d857506001600160e01b03198216635b5e139f60e01b145b806102ed57506301ffc9a760e01b6001600160e01b03198316146102ed565b60008061110383610dbf565b6001600160a01b0316141592915050565b61089a848484846113c0565b80516a636f6e736f6c652e6c6f67602083016000808483855afa5050505050565b60006001600160a01b0384163b1561123757604051630a85bd0160e11b81526001600160a01b0385169063150b7a0290611185903390899088908890600401611fb5565b6020604051808303816000875af19250505080156111c0575060408051601f3d908101601f191682019092526111bd91810190611ff2565b60015b61121d573d8080156111ee576040519150601f19603f3d011682016040523d82523d6000602084013e6111f3565b606091505b5080516000036112155760405162461bcd60e51b815260040161042090611e27565b805181602001fd5b6001600160e01b031916630a85bd0160e11b149050610c58565b506001949350505050565b6060600e805461030290611c83565b606061125c82610b6b565b6000611266611242565b905060008151116112865760405180602001604052806000815250610843565b8061129084611500565b6040516020016112a1929190611e79565b6040516020818303038152906040529392505050565b6001600160a01b03821661130d5760405162461bcd60e51b815260206004820181905260248201527f4552433732313a206d696e7420746f20746865207a65726f20616464726573736044820152606401610420565b611316816110f7565b156113335760405162461bcd60e51b81526004016104209061200f565b611341600083836001611114565b61134a816110f7565b156113675760405162461bcd60e51b81526004016104209061200f565b6001600160a01b038216600081815260036020908152604080832080546001019055848352600290915280822080546001600160a01b031916841790555183929190600080516020612082833981519152908290a45050565b6113cc84848484611592565b600181111561143b5760405162461bcd60e51b815260206004820152603560248201527f455243373231456e756d657261626c653a20636f6e7365637574697665207472604482015274185b9cd9995c9cc81b9bdd081cdd5c1c1bdc9d1959605a1b6064820152608401610420565b816001600160a01b0385166114975761149281600880546000838152600960205260408120829055600182018355919091527ff3f7a9fe364faab93b216da50a3214154f22a0a2b415b23a84c8169e8b636ee30155565b6114ba565b836001600160a01b0316856001600160a01b0316146114ba576114ba858261161a565b6001600160a01b0384166114d6576114d1816116b7565b6114f9565b846001600160a01b0316846001600160a01b0316146114f9576114f98482611766565b5050505050565b6060600061150d836117aa565b60010190506000816001600160401b0381111561152c5761152c611a81565b6040519080825280601f01601f191660200182016040528015611556576020820181803683370190505b5090508181016020015b600019016f181899199a1a9b1b9c1cb0b131b232b360811b600a86061a8153600a850494508461156057509392505050565b600181111561089a576001600160a01b038416156115d8576001600160a01b038416600090815260036020526040812080548392906115d2908490612045565b90915550505b6001600160a01b0383161561089a576001600160a01b0383166000908152600360205260408120805483929061160f908490612058565b909155505050505050565b600060016116278461070a565b6116319190612045565b600083815260076020526040902054909150808214611684576001600160a01b03841660009081526006602090815260408083208584528252808320548484528184208190558352600790915290208190555b5060009182526007602090815260408084208490556001600160a01b039094168352600681528383209183525290812055565b6008546000906116c990600190612045565b600083815260096020526040812054600880549394509092849081106116f1576116f1611d04565b90600052602060002001549050806008838154811061171257611712611d04565b600091825260208083209091019290925582815260099091526040808220849055858252812055600880548061174a5761174a61206b565b6001900381819060005260206000200160009055905550505050565b60006117718361070a565b6001600160a01b039093166000908152600660209081526040808320868452825280832085905593825260079052919091209190915550565b60008072184f03e93ff9f4daa797ed6e38ed64bf6a1f0160401b83106117e95772184f03e93ff9f4daa797ed6e38ed64bf6a1f0160401b830492506040015b6904ee2d6d415b85acef8160201b8310611813576904ee2d6d415b85acef8160201b830492506020015b662386f26fc10000831061183157662386f26fc10000830492506010015b6305f5e1008310611849576305f5e100830492506008015b612710831061185d57612710830492506004015b6064831061186f576064830492506002015b600a83106102ed5760010192915050565b6001600160e01b031981168114610b9057600080fd5b6000602082840312156118a857600080fd5b813561084381611880565b60005b838110156118ce5781810151838201526020016118b6565b50506000910152565b600081518084526118ef8160208601602086016118b3565b601f01601f19169290920160200192915050565b60208152600061084360208301846118d7565b60006020828403121561192857600080fd5b5035919050565b80356001600160a01b038116811461194657600080fd5b919050565b6000806040838503121561195e57600080fd5b6119678361192f565b946020939093013593505050565b60008060006060848603121561198a57600080fd5b6119938461192f565b92506119a16020850161192f565b9150604084013590509250925092565b6020808252825182820181905260009190848201906040850190845b818110156119e9578351835292840192918401916001016119cd565b50909695505050505050565b600060208284031215611a0757600080fd5b6108438261192f565b60008060408385031215611a2357600080fd5b82359150611a336020840161192f565b90509250929050565b8015158114610b9057600080fd5b60008060408385031215611a5d57600080fd5b611a668361192f565b91506020830135611a7681611a3c565b809150509250929050565b634e487b7160e01b600052604160045260246000fd5b60006001600160401b0380841115611ab157611ab1611a81565b604051601f8501601f19908116603f01168101908282118183101715611ad957611ad9611a81565b81604052809350858152868686011115611af257600080fd5b858560208301376000602087830101525050509392505050565b60008060008060808587031215611b2257600080fd5b611b2b8561192f565b9350611b396020860161192f565b92506040850135915060608501356001600160401b03811115611b5b57600080fd5b8501601f81018713611b6c57600080fd5b611b7b87823560208401611a97565b91505092959194509250565b60006020808301818452808551808352604092508286019150828160051b87010184880160005b83811015611c0357603f19898403018552815160608151855288820151818a870152611bdc828701826118d7565b928901516001600160a01b0316958901959095525094870194925090860190600101611bae565b509098975050505050505050565b600060208284031215611c2357600080fd5b81356001600160401b03811115611c3957600080fd5b8201601f81018413611c4a57600080fd5b610c5884823560208401611a97565b60008060408385031215611c6c57600080fd5b611c758361192f565b9150611a336020840161192f565b600181811c90821680611c9757607f821691505b60208210810361058c57634e487b7160e01b600052602260045260246000fd5b6020808252602d908201527f4552433732313a2063616c6c6572206973206e6f7420746f6b656e206f776e6560408201526c1c881bdc88185c1c1c9bdd9959609a1b606082015260800190565b634e487b7160e01b600052603260045260246000fd5b634e487b7160e01b600052601160045260246000fd5b600060018201611d4257611d42611d1a565b5060010190565b602080825260189082015277115490cdcc8c4e881a5b9d985b1a59081d1bdad95b88125160421b604082015260600190565b9182526001600160a01b0316602082015260400190565b600060208284031215611da457600080fd5b815161084381611a3c565b60208082526025908201527f4552433732313a207472616e736665722066726f6d20696e636f72726563742060408201526437bbb732b960d91b606082015260800190565b606081526000611e0760608301866118d7565b6020830194909452506001600160a01b0391909116604090910152919050565b60208082526032908201527f4552433732313a207472616e7366657220746f206e6f6e20455243373231526560408201527131b2b4bb32b91034b6b83632b6b2b73a32b960711b606082015260800190565b60008351611e8b8184602088016118b3565b835190830190611e9f8183602088016118b3565b01949350505050565b601f8211156104c157600081815260208120601f850160051c81016020861015611ecf5750805b601f850160051c820191505b81811015611eee57828155600101611edb565b505050505050565b81516001600160401b03811115611f0f57611f0f611a81565b611f2381611f1d8454611c83565b84611ea8565b602080601f831160018114611f585760008415611f405750858301515b600019600386901b1c1916600185901b178555611eee565b600085815260208120601f198616915b82811015611f8757888601518255948401946001909101908401611f68565b5085821015611fa55787850151600019600388901b60f8161c191681555b5050505050600190811b01905550565b6001600160a01b0385811682528416602082015260408101839052608060608201819052600090611fe8908301846118d7565b9695505050505050565b60006020828403121561200457600080fd5b815161084381611880565b6020808252601c908201527b115490cdcc8c4e881d1bdad95b88185b1c9958591e481b5a5b9d195960221b604082015260600190565b818103818111156102ed576102ed611d1a565b808201808211156102ed576102ed611d1a565b634e487b7160e01b600052603160045260246000fdfeddf252ad1be2c89b69c2b068fc378daa952ba7f163c4a11628f55a4df523b3efa164736f6c6343000811000a",
  "linkReferences": {},
  "deployedLinkReferences": {}
}