{
  "_format": "hh-sol-artifact-1",
  "contractName": "EmbraceCommunities",
  "sourceName": "contracts/EmbraceCommunities.sol",
  "abi": [
    {
      "inputs": [
        {
          "internalType": "string",
          "name": "_name",
          "type": "string"
        },
        {
          "internalType": "string",
          "name": "_symbol",
          "type": "string"
        },
        {
          "internalType": "address",
          "name": "_accountsContractAddress",
          "type": "address"
        },
        {
          "internalType": "address",
          "name": "_embraceCommunityAddress",
          "type": "address"
        }
      ],
      "stateMutability": "nonpayable",
      "type": "constructor"
    },
    {
      "inputs": [
        {
          "internalType": "string",
          "name": "handle",
          "type": "string"
        }
      ],
      "name": "ErrorHandleExists",
      "type": "error"
    },
    {
      "inputs": [
        {
          "internalType": "uint256",
          "name": "communityId",
          "type": "uint256"
        },
        {
          "internalType": "address",
          "name": "account",
          "type": "address"
        }
      ],
      "name": "ErrorNotCommunityOwner",
      "type": "error"
    },
    {
      "anonymous": false,
      "inputs": [
        {
          "indexed": true,
          "internalType": "address",
          "name": "owner",
          "type": "address"
        },
        {
          "indexed": true,
          "internalType": "address",
          "name": "approved",
          "type": "address"
        },
        {
          "indexed": true,
          "internalType": "uint256",
          "name": "tokenId",
          "type": "uint256"
        }
      ],
      "name": "Approval",
      "type": "event"
    },
    {
      "anonymous": false,
      "inputs": [
        {
          "indexed": true,
          "internalType": "address",
          "name": "owner",
          "type": "address"
        },
        {
          "indexed": true,
          "internalType": "address",
          "name": "operator",
          "type": "address"
        },
        {
          "indexed": false,
          "internalType": "bool",
          "name": "approved",
          "type": "bool"
        }
      ],
      "name": "ApprovalForAll",
      "type": "event"
    },
    {
      "anonymous": false,
      "inputs": [
        {
          "indexed": false,
          "internalType": "uint256",
          "name": "communityId",
          "type": "uint256"
        },
        {
          "indexed": false,
          "internalType": "enum Visibility",
          "name": "visibility",
          "type": "uint8"
        },
        {
          "indexed": false,
          "internalType": "enum Access",
          "name": "access",
          "type": "uint8"
        },
        {
          "indexed": false,
          "internalType": "string",
          "name": "communityMetaData",
          "type": "string"
        }
      ],
      "name": "CommunityCreated",
      "type": "event"
    },
    {
      "anonymous": false,
      "inputs": [
        {
          "indexed": true,
          "internalType": "address",
          "name": "from",
          "type": "address"
        },
        {
          "indexed": true,
          "internalType": "address",
          "name": "to",
          "type": "address"
        },
        {
          "indexed": true,
          "internalType": "uint256",
          "name": "tokenId",
          "type": "uint256"
        }
      ],
      "name": "Transfer",
      "type": "event"
    },
    {
      "inputs": [
        {
          "internalType": "address",
          "name": "to",
          "type": "address"
        },
        {
          "internalType": "uint256",
          "name": "tokenId",
          "type": "uint256"
        }
      ],
      "name": "approve",
      "outputs": [],
      "stateMutability": "nonpayable",
      "type": "function"
    },
    {
      "inputs": [
        {
          "internalType": "address",
          "name": "owner",
          "type": "address"
        }
      ],
      "name": "balanceOf",
      "outputs": [
        {
          "internalType": "uint256",
          "name": "",
          "type": "uint256"
        }
      ],
      "stateMutability": "view",
      "type": "function"
    },
    {
      "inputs": [
        {
          "internalType": "uint256",
          "name": "_communityId",
          "type": "uint256"
        }
      ],
      "name": "close",
      "outputs": [],
      "stateMutability": "nonpayable",
      "type": "function"
    },
    {
      "inputs": [
        {
          "internalType": "string",
          "name": "_handle",
          "type": "string"
        },
        {
          "components": [
            {
              "internalType": "string",
              "name": "handle",
              "type": "string"
            },
            {
              "internalType": "enum Visibility",
              "name": "visibility",
              "type": "uint8"
            },
            {
              "internalType": "enum Access",
              "name": "access",
              "type": "uint8"
            },
            {
              "components": [
                {
                  "internalType": "enum MembershipGateToken",
                  "name": "tokenType",
                  "type": "uint8"
                },
                {
                  "internalType": "address",
                  "name": "tokenAddress",
                  "type": "address"
                },
                {
                  "internalType": "uint256",
                  "name": "tokenId",
                  "type": "uint256"
                }
              ],
              "internalType": "struct MembershipGate",
              "name": "membershipGate",
              "type": "tuple"
            },
            {
              "internalType": "uint128[]",
              "name": "apps",
              "type": "uint128[]"
            },
            {
              "internalType": "string",
              "name": "metadata",
              "type": "string"
            }
          ],
          "internalType": "struct CommunityData",
          "name": "_communityData",
          "type": "tuple"
        }
      ],
      "name": "createCommunity",
      "outputs": [
        {
          "internalType": "uint256",
          "name": "",
          "type": "uint256"
        }
      ],
      "stateMutability": "nonpayable",
      "type": "function"
    },
    {
      "inputs": [
        {
          "internalType": "uint256",
          "name": "tokenId",
          "type": "uint256"
        }
      ],
      "name": "getApproved",
      "outputs": [
        {
          "internalType": "address",
          "name": "",
          "type": "address"
        }
      ],
      "stateMutability": "view",
      "type": "function"
    },
    {
      "inputs": [],
      "name": "getCommunities",
      "outputs": [
        {
          "components": [
            {
              "internalType": "uint256",
              "name": "id",
              "type": "uint256"
            },
            {
              "internalType": "address",
              "name": "contractAddress",
              "type": "address"
            },
            {
              "internalType": "string",
              "name": "handle",
              "type": "string"
            }
          ],
          "internalType": "struct EmbraceCommunities.Community[]",
          "name": "",
          "type": "tuple[]"
        }
      ],
      "stateMutability": "view",
      "type": "function"
    },
    {
      "inputs": [
        {
          "internalType": "string",
          "name": "_handle",
          "type": "string"
        }
      ],
      "name": "handleToCommunity",
      "outputs": [
        {
          "components": [
            {
              "internalType": "uint256",
              "name": "id",
              "type": "uint256"
            },
            {
              "internalType": "address",
              "name": "contractAddress",
              "type": "address"
            },
            {
              "internalType": "string",
              "name": "handle",
              "type": "string"
            }
          ],
          "internalType": "struct EmbraceCommunities.Community",
          "name": "_community",
          "type": "tuple"
        }
      ],
      "stateMutability": "view",
      "type": "function"
    },
    {
      "inputs": [
        {
          "internalType": "bytes32",
          "name": "",
          "type": "bytes32"
        }
      ],
      "name": "handleToId",
      "outputs": [
        {
          "internalType": "uint256",
          "name": "",
          "type": "uint256"
        }
      ],
      "stateMutability": "view",
      "type": "function"
    },
    {
      "inputs": [
        {
          "internalType": "address",
          "name": "owner",
          "type": "address"
        },
        {
          "internalType": "address",
          "name": "operator",
          "type": "address"
        }
      ],
      "name": "isApprovedForAll",
      "outputs": [
        {
          "internalType": "bool",
          "name": "",
          "type": "bool"
        }
      ],
      "stateMutability": "view",
      "type": "function"
    },
    {
      "inputs": [],
      "name": "name",
      "outputs": [
        {
          "internalType": "string",
          "name": "",
          "type": "string"
        }
      ],
      "stateMutability": "view",
      "type": "function"
    },
    {
      "inputs": [
        {
          "internalType": "address",
          "name": "",
          "type": "address"
        },
        {
          "internalType": "address",
          "name": "",
          "type": "address"
        },
        {
          "internalType": "uint256",
          "name": "",
          "type": "uint256"
        },
        {
          "internalType": "bytes",
          "name": "",
          "type": "bytes"
        }
      ],
      "name": "onERC721Received",
      "outputs": [
        {
          "internalType": "bytes4",
          "name": "",
          "type": "bytes4"
        }
      ],
      "stateMutability": "nonpayable",
      "type": "function"
    },
    {
      "inputs": [
        {
          "internalType": "uint256",
          "name": "tokenId",
          "type": "uint256"
        }
      ],
      "name": "ownerOf",
      "outputs": [
        {
          "internalType": "address",
          "name": "",
          "type": "address"
        }
      ],
      "stateMutability": "view",
      "type": "function"
    },
    {
      "inputs": [
        {
          "internalType": "address",
          "name": "from",
          "type": "address"
        },
        {
          "internalType": "address",
          "name": "to",
          "type": "address"
        },
        {
          "internalType": "uint256",
          "name": "tokenId",
          "type": "uint256"
        }
      ],
      "name": "safeTransferFrom",
      "outputs": [],
      "stateMutability": "nonpayable",
      "type": "function"
    },
    {
      "inputs": [
        {
          "internalType": "address",
          "name": "from",
          "type": "address"
        },
        {
          "internalType": "address",
          "name": "to",
          "type": "address"
        },
        {
          "internalType": "uint256",
          "name": "tokenId",
          "type": "uint256"
        },
        {
          "internalType": "bytes",
          "name": "data",
          "type": "bytes"
        }
      ],
      "name": "safeTransferFrom",
      "outputs": [],
      "stateMutability": "nonpayable",
      "type": "function"
    },
    {
      "inputs": [
        {
          "internalType": "address",
          "name": "operator",
          "type": "address"
        },
        {
          "internalType": "bool",
          "name": "approved",
          "type": "bool"
        }
      ],
      "name": "setApprovalForAll",
      "outputs": [],
      "stateMutability": "nonpayable",
      "type": "function"
    },
    {
      "inputs": [
        {
          "internalType": "bytes4",
          "name": "interfaceId",
          "type": "bytes4"
        }
      ],
      "name": "supportsInterface",
      "outputs": [
        {
          "internalType": "bool",
          "name": "",
          "type": "bool"
        }
      ],
      "stateMutability": "view",
      "type": "function"
    },
    {
      "inputs": [],
      "name": "symbol",
      "outputs": [
        {
          "internalType": "string",
          "name": "",
          "type": "string"
        }
      ],
      "stateMutability": "view",
      "type": "function"
    },
    {
      "inputs": [
        {
          "internalType": "uint256",
          "name": "tokenId",
          "type": "uint256"
        }
      ],
      "name": "tokenURI",
      "outputs": [
        {
          "internalType": "string",
          "name": "",
          "type": "string"
        }
      ],
      "stateMutability": "view",
      "type": "function"
    },
    {
      "inputs": [],
      "name": "totalCommunities",
      "outputs": [
        {
          "internalType": "uint256",
          "name": "",
          "type": "uint256"
        }
      ],
      "stateMutability": "view",
      "type": "function"
    },
    {
      "inputs": [],
      "name": "totalSupply",
      "outputs": [
        {
          "internalType": "uint256",
          "name": "",
          "type": "uint256"
        }
      ],
      "stateMutability": "view",
      "type": "function"
    },
    {
      "inputs": [
        {
          "internalType": "address",
          "name": "from",
          "type": "address"
        },
        {
          "internalType": "address",
          "name": "to",
          "type": "address"
        },
        {
          "internalType": "uint256",
          "name": "tokenId",
          "type": "uint256"
        }
      ],
      "name": "transferFrom",
      "outputs": [],
      "stateMutability": "nonpayable",
      "type": "function"
    },
    {
      "inputs": [
        {
          "internalType": "uint256",
          "name": "_communityId",
          "type": "uint256"
        },
        {
          "components": [
            {
              "internalType": "string",
              "name": "handle",
              "type": "string"
            },
            {
              "internalType": "enum Visibility",
              "name": "visibility",
              "type": "uint8"
            },
            {
              "internalType": "enum Access",
              "name": "access",
              "type": "uint8"
            },
            {
              "components": [
                {
                  "internalType": "enum MembershipGateToken",
                  "name": "tokenType",
                  "type": "uint8"
                },
                {
                  "internalType": "address",
                  "name": "tokenAddress",
                  "type": "address"
                },
                {
                  "internalType": "uint256",
                  "name": "tokenId",
                  "type": "uint256"
                }
              ],
              "internalType": "struct MembershipGate",
              "name": "membershipGate",
              "type": "tuple"
            },
            {
              "internalType": "uint128[]",
              "name": "apps",
              "type": "uint128[]"
            },
            {
              "internalType": "string",
              "name": "metadata",
              "type": "string"
            }
          ],
          "internalType": "struct CommunityData",
          "name": "_CommunityData",
          "type": "tuple"
        }
      ],
      "name": "updateCommunity",
      "outputs": [],
      "stateMutability": "nonpayable",
      "type": "function"
    }
  ],
  "bytecode": "0x604060c08152346200040e5762002d70803803806200001e8162000413565b92833981016080828203126200040e5781516001600160401b0391908281116200040e57816200005091850162000439565b9160209182850151908282116200040e576200006e91860162000439565b906200008a606062000082888801620004ab565b9601620004ab565b94845195828711620003f857600093845497600197888a811c9a168015620003ed575b888b1014620002f7578190601f9a8b81116200039a575b5088908b8311600114620003365788926200032a575b5050600019600383901b1c191690881b1785555b805190848211620003165787548881811c911680156200030b575b88821014620002f75790818a849311620002a4575b5087908a83116001146200024057879262000234575b5050600019600383901b1c191690871b1786555b6080526001600160a01b031660a052855190818701908111828210176200022057908391875260078152019366697066733a2f2f60c81b8552600954928484811c9416801562000215575b818510146200020157818411620001d8575b85516001600160c81b031916600e1760095586516128af9081620004c1823960805181611dd7015260a05181611ed40152f35b600983528220920160051c8201915b828110620001f65780620001a5565b8181558301620001e7565b634e487b7160e01b83526022600452602483fd5b93607f169362000193565b634e487b7160e01b83526041600452602483fd5b01519050388062000134565b8988528888208a94509190601f198416895b8b8282106200028d575050841162000273575b505050811b01865562000148565b015160001960f88460031b161c1916905538808062000265565b8385015186558d9790950194938401930162000252565b9091508887528787208a80850160051c8201928a8610620002ed575b918b91869594930160051c01915b828110620002de5750506200011e565b8981558594508b9101620002ce565b92508192620002c0565b634e487b7160e01b87526022600452602487fd5b90607f169062000109565b634e487b7160e01b86526041600452602486fd5b015190503880620000da565b8880528989208b94509190601f1984168a5b8c82821062000383575050841162000369575b505050811b018555620000ee565b015160001960f88460031b161c191690553880806200035b565b8385015186558e9790950194938401930162000348565b9091508780528888208b80850160051c8201928b8610620003e3575b918c91869594930160051c01915b828110620003d4575050620000c4565b8a81558594508c9101620003c4565b92508192620003b6565b99607f1699620000ad565b634e487b7160e01b600052604160045260246000fd5b600080fd5b6040519190601f01601f191682016001600160401b03811183821017620003f857604052565b919080601f840112156200040e5782516001600160401b038111620003f8576020906200046f601f8201601f1916830162000413565b928184528282870101116200040e5760005b8181106200049757508260009394955001015290565b858101830151848201840152820162000481565b51906001600160a01b03821682036200040e5756fe60806040526004361015610013575b600080fd5b60003560e01c806301ffc9a7146101cb57806306fdde03146101c2578063081812fc146101b9578063095ea7b3146101b05780630aebeb4e146101a7578063150b7a021461019e57806318160ddd1461019557806323b872dd1461018c57806342842e0e146101835780635aaa2b2f1461017a5780636352211e146101715780636ffe50361461016857806370a082311461015f57806395d89b4114610156578063a22cb4651461014d578063b17588e414610144578063b88d4fde1461013b578063c251b56514610132578063c25d33c314610129578063c87b56dd14610120578063e985e9c5146101175763fcb4d2061461010f57600080fd5b61000e610fdd565b5061000e610f85565b5061000e610f51565b5061000e610e73565b5061000e610d79565b5061000e610d2f565b5061000e610d02565b5061000e610c1b565b5061000e610b95565b5061000e610af3565b5061000e610a17565b5061000e6108b3565b5061000e61082f565b5061000e610806565b5061000e6107dc565b5061000e610788565b5061000e610764565b5061000e6104b6565b5061000e6103d9565b5061000e61037e565b5061000e6102bc565b5061000e6101e6565b6001600160e01b031981160361000e57565b503461000e57602036600319011261000e576020600435610206816101d4565b63ffffffff60e01b166380ac58cd60e01b8114908115610244575b8115610233575b506040519015158152f35b6301ffc9a760e01b14905038610228565b635b5e139f60e01b81149150610221565b600091031261000e57565b60005b8381106102735750506000910152565b8181015183820152602001610263565b9060209161029c81518092818552858086019101610260565b601f01601f1916010190565b9060206102b9928181520190610283565b90565b503461000e5760008060031936011261037b576040518180546102de816110b1565b808452906001908181169081156103535750600114610318575b610314846103088188038261064f565b604051918291826102a8565b0390f35b93508180526020938483205b82841061034057505050816103149361030892820101936102f8565b8054858501870152928501928101610324565b61031496506103089450602092508593915060ff191682840152151560051b820101936102f8565b80fd5b503461000e57602036600319011261000e57602061039d6004356112bc565b6040516001600160a01b039091168152f35b600435906001600160a01b038216820361000e57565b35906001600160a01b038216820361000e57565b503461000e57604036600319011261000e576103f36103af565b6024356103ff8161108e565b916001600160a01b038084169082168114610467576104319361042c913314908115610433575b5061124a565b6115a8565b005b6001600160a01b03166000908152600560205260409020610461915061045a903390611030565b5460ff1690565b38610426565b60405162461bcd60e51b815260206004820152602160248201527f4552433732313a20617070726f76616c20746f2063757272656e74206f776e656044820152603960f91b6064820152608490fd5b503461000e57602036600319011261000e576004356104d48161108e565b6001600160a01b039033908216036105a457600082916104f38361108e565b506104fd8361108e565b610524610514856000526004602052604060002090565b80546001600160a01b0319169055565b61052d81611016565b8319815401905561054061051485610cf2565b166000805160206128838339815191528280a461056f61056a826000526006602052604060002090565b612708565b610582575b610431600160085401600855565b61059961059e916000526006602052604060002090565b612712565b38610574565b604051637e9bc4c360e01b815260048101839052336024820152604490fd5b0390fd5b50634e487b7160e01b600052604160045260246000fd5b606081019081106001600160401b038211176105f957604052565b6106016105c7565b604052565b6001600160401b0381116105f957604052565b602081019081106001600160401b038211176105f957604052565b604081019081106001600160401b038211176105f957604052565b601f909101601f19168101906001600160401b038211908210176105f957604052565b6040519060c082016001600160401b038111838210176105f957604052565b6040519061069e826105de565b565b6020906001600160401b0381116106bd575b601f01601f19160190565b6106c56105c7565b6106b2565b9291926106d6826106a0565b916106e4604051938461064f565b82948184528183011161000e578281602093846000960137010152565b90608060031983011261000e576001600160a01b0391600435838116810361000e5792602435908116810361000e579160443591606435906001600160401b03821161000e578060238301121561000e578160246102b9936004013591016106ca565b503461000e5761077336610701565b505050506020604051630a85bd0160e11b8152f35b503461000e57600036600319011261000e576020600754604051908152f35b606090600319011261000e576001600160a01b0390600435828116810361000e5791602435908116810361000e579060443590565b503461000e576104316107ee366107a7565b916108016107fc84336113c3565b6112e8565b6114aa565b503461000e57610431610818366107a7565b906040519261082684610619565b6000845261134a565b503461000e5760031960403682011261000e576001600160401b0360043581811161000e573660238201121561000e5780600401359282841161000e57366024858401011161000e5760243592831161000e5761010090833603011261000e576103149260246108a3936004019201611d75565b6040519081529081906020820190565b503461000e57602036600319011261000e57602061039d60043561108e565b9080601f8301121561000e578160206102b9933591016106ca565b6002111561000e57565b359061069e826108ed565b6004111561000e57565b359061069e82610902565b919082606091031261000e57604051606081016001600160401b0381118282101761096a575b6040526040808294803561095081610902565b845261095e602082016103c5565b60208501520135910152565b6109726105c7565b61093d565b6020906001600160401b038111610990575b60051b0190565b6109986105c7565b610989565b35906001600160801b038216820361000e57565b81601f8201121561000e578035916109c883610977565b926109d6604051948561064f565b808452602092838086019260051b82010192831161000e578301905b828210610a00575050505090565b838091610a0c8461099d565b8152019101906109f2565b503461000e5760031960403682011261000e57602435906001600160401b039081831161000e5761010090833603011261000e57610a53610672565b90826004013581811161000e57610a7090600436918601016108d2565b8252610a7e602484016108f7565b6020830152610a8f6044840161090c565b6040830152610aa13660648501610917565b606083015260c483013581811161000e57610ac290600436918601016109b1565b608083015260e483013590811161000e57610431926004610ae692369201016108d2565b60a0820152600435612492565b503461000e57602036600319011261000e576001600160a01b03610b156103af565b168015610b3e576000526003602052610314604060002054604051918291829190602083019252565b60405162461bcd60e51b815260206004820152602960248201527f4552433732313a2061646472657373207a65726f206973206e6f7420612076616044820152683634b21037bbb732b960b91b6064820152608490fd5b503461000e5760008060031936011261037b57604051816001805490610bba826110b1565b808552918181169081156103535750600114610be057610314846103088188038261064f565b80945082526020938483205b828410610c0857505050816103149361030892820101936102f8565b8054858501870152928501928101610bec565b503461000e57604036600319011261000e57610c356103af565b602435801515810361000e576001600160a01b03821691338314610cb15781610c6e610c7f923360005260056020526040600020611030565b9060ff801983541691151516179055565b604051901515815233907f17307eab39ab6107e8899845ad3d59bd9653f200f220920489ca2b5937696c3190602090a3005b60405162461bcd60e51b815260206004820152601960248201527822a9219b99189d1030b8383937bb32903a379031b0b63632b960391b6044820152606490fd5b6000526002602052604060002090565b503461000e57602036600319011261000e57600435600052600a6020526020604060002054604051908152f35b503461000e57610431610d4136610701565b9291909161134a565b90606060406102b9938051845260018060a01b0360208201511660208501520151918160408201520190610283565b503461000e5760008060031936011261037b57600b54610d9881610977565b90610da6604051928361064f565b808252600b835260209283830191817f0175b7a638427703f0dbe7bb9bbf987a2551717b34e79f33b5b1008d1fa01db9845b838310610e3d5750505050604051928484019085855251809152604084019460408260051b8601019392955b828710610e115785850386f35b909192938280610e2d600193603f198a82030186528851610d4a565b9601920196019592919092610e04565b600388600192610e50859b9a989b612457565b81520192019201919096939596610dd8565b9060206102b9928181520190610d4a565b503461000e57602036600319011261000e576004356001600160401b03811161000e57610ea49036906004016108d2565b606060408051610eb3816105de565b6000815260006020820152015260208151910120600052600a602052610ef2610eec6040600020546000198101908111610f4457611ae3565b50612457565b805115610f09576103149060405191829182610e62565b60405162461bcd60e51b815260206004820152601360248201527210dbdb5b5d5b9a5d1e481b9bdd08199bdd5b99606a1b6044820152606490fd5b610f4c611794565b611ae3565b503461000e57602036600319011261000e57610314610f71600435612629565b604051918291602083526020830190610283565b503461000e57604036600319011261000e57610f9f6103af565b602435906001600160a01b0390818316830361000e5760209260ff92610fd19216600052600584526040600020611030565b54166040519015158152f35b503461000e57600036600319011261000e5760206007546008548103908111611009575b604051908152f35b611011611794565b611001565b6001600160a01b0316600090815260036020526040902090565b9060018060a01b0316600052602052604060002090565b1561104e57565b60405162461bcd60e51b8152602060048201526018602482015277115490cdcc8c4e881a5b9d985b1a59081d1bdad95b88125160421b6044820152606490fd5b6000908152600260205260409020546001600160a01b03166102b9811515611047565b90600182811c921680156110e1575b60208310146110cb57565b634e487b7160e01b600052602260045260246000fd5b91607f16916110c0565b60405190600082600954916110ff836110b1565b8083526001938085169081156111855750600114611125575b5061069e9250038361064f565b600960009081527f6e1540171b6c0c960b71a7020d9f60077f6af931a8bbf590da0223dacf75c7af94602093509091905b81831061116d57505061069e935082010138611118565b85548884018501529485019487945091830191611156565b905061069e94506020925060ff191682840152151560051b82010138611118565b90604051918260008254926111ba846110b1565b90818452600194858116908160001461122757506001146111e4575b505061069e9250038361064f565b9093915060005260209081600020936000915b81831061120f57505061069e935082010138806111d6565b855488840185015294850194879450918301916111f7565b91505061069e94506020925060ff191682840152151560051b82010138806111d6565b1561125157565b60405162461bcd60e51b815260206004820152603d60248201527f4552433732313a20617070726f76652063616c6c6572206973206e6f7420746f60448201527f6b656e206f776e6572206f7220617070726f76656420666f7220616c6c0000006064820152608490fd5b6112cd6112c8826115fc565b611047565b6000908152600460205260409020546001600160a01b031690565b156112ef57565b60405162461bcd60e51b815260206004820152602d60248201527f4552433732313a2063616c6c6572206973206e6f7420746f6b656e206f776e6560448201526c1c881bdc88185c1c1c9bdd9959609a1b6064820152608490fd5b9061136e93929161135e6107fc84336113c3565b6113698383836114aa565b61169c565b1561137557565b60405162461bcd60e51b8152602060048201526032602482015260008051602061286383398151915260448201527131b2b4bb32b91034b6b83632b6b2b73a32b960711b6064820152608490fd5b6001600160a01b03806113d58461108e565b16928183169284841494851561140b575b505083156113f5575b50505090565b611401919293506112bc565b16143880806113ef565b60ff929550906114279160005260056020526040600020611030565b54169238806113e6565b1561143857565b60405162461bcd60e51b815260206004820152602560248201527f4552433732313a207472616e736665722066726f6d20696e636f72726563742060448201526437bbb732b960d91b6064820152608490fd5b80546001600160a01b0319166001600160a01b03909216919091179055565b6114ce906114b78461108e565b6001600160a01b0382811693909182168414611431565b83169283156115575761151c61154292611500856114fa6114ee8a61108e565b6001600160a01b031690565b14611431565b611517610514886000526004602052604060002090565b611016565b805460001901905561152d81611016565b6001815401905561153d85610cf2565b61148b565b600080516020612883833981519152600080a4565b60405162461bcd60e51b8152602060048201526024808201527f4552433732313a207472616e7366657220746f20746865207a65726f206164646044820152637265737360e01b6064820152608490fd5b8160005260046020526115bf81604060002061148b565b6001600160a01b03806115d18461108e565b169116907f8c5be1e5ebec7d5bd14f71427d1e84f3dd0314c0f7b2291e5b200ac8c7c3b925600080a4565b6000908152600260205260409020546001600160a01b0316151590565b9081602091031261000e57516102b9816101d4565b6001600160a01b0391821681529116602082015260408101919091526080606082018190526102b992910190610283565b506040513d6000823e3d90fd5b3d15611697573d9061167d826106a0565b9161168b604051938461064f565b82523d6000602084013e565b606090565b92909190823b1561178b576116cf926020926000604051809681958294630a85bd0160e11b9a8b8552336004860161162e565b03926001600160a01b03165af16000918161175b575b5061174d576116f261166c565b805190816117485760405162461bcd60e51b8152602060048201526032602482015260008051602061286383398151915260448201527131b2b4bb32b91034b6b83632b6b2b73a32b960711b6064820152608490fd5b602001fd5b6001600160e01b0319161490565b61177d91925060203d8111611784575b611775818361064f565b810190611619565b90386116e5565b503d61176b565b50505050600190565b50634e487b7160e01b600052601160045260246000fd5b908060209392818452848401376000828201840152601f01601f1916010190565b9160206102b99381815201916117ab565b604051906117ea826105de565b6022825261257360f01b6040837f4372656174696e6720636f6d6d756e69747920776974682068616e646c653a2060208201520152565b9061069e6032604051809471022a6a12920a1a2afa1a7a6a6af98171899960751b602083015261185a8151809260208686019101610260565b810103601281018552018361064f565b9061069e602e60405180946d022a6a12fa1a7a6a6af98171899960951b602083015261189f8151809260208686019101610260565b810103600e81018552018361064f565b9035601e198236030181121561000e570160208101919035906001600160401b03821161000e57813603831361000e57565b50634e487b7160e01b600052602160045260246000fd5b9060028210156119055752565b61190d6118e1565b52565b6004111561191a57565b61069e6118e1565b9035601e198236030181121561000e570160208101919035906001600160401b03821161000e578160051b3603831361000e57565b91908082526020809201929160005b828110611974575050505090565b909192938280600192838060801b0361198c8961099d565b16815201950193929101611966565b6102b996956119cc611a99946119be611aa497989560c0865260c0860190610283565b908482036020860152610283565b6001600160a01b0396871660408401529286166060830152608082015280820360a09091015292611a0e611a0086806118af565b6101008088528701916117ab565b90611a2a6020870135611a20816108ed565b60208701906118f8565b6040860135611a3881610902565b611a4181611910565b60408601526060860135611a5481610902565b611a5d81611910565b6060860152611a6e608087016103c5565b16608085015260a085013560a0850152611a8b60c0860186611922565b9085830360c0870152611957565b9260e08101906118af565b9160e08185039101526117ab565b60405190611abf82610634565b60158252744e657720636f6d6d756e697479206164647265737360581b6020830152565b600b54811015611b0257600b6000526003602060002091020190600090565b634e487b7160e01b600052603260045260246000fd5b50634e487b7160e01b600052600060045260246000fd5b818110611b3a575050565b60008155600101611b2f565b9190601f8111611b5557505050565b61069e926000526020600020906020601f840160051c83019310611b81575b601f0160051c0190611b2f565b9091508190611b74565b600b54600160401b811015611cba575b611bac600191828101600b55611ae3565b611cad575b8251815560406002602092611bd360018060a01b03858801511686830161148b565b019301519081519160018060401b038311611ca0575b611bfd83611bf787546110b1565b87611b46565b81601f8411600114611c365750928293918392600094611c2b575b50501b916000199060031b1c1916179055565b015192503880611c18565b919083601f198116611c4d88600052602060002090565b946000905b88838310611c865750505010611c6d575b505050811b019055565b015160001960f88460031b161c19169055388080611c63565b858701518855909601959485019487935090810190611c52565b611ca86105c7565b611be9565b611cb5611b18565b611bb1565b611cc26105c7565b611b9b565b903590601e198136030182121561000e57018035906001600160401b03821161000e5760200191813603831361000e57565b356102b9816108ed565b356102b981610902565b9092611d266080936102b99795845260208401906118f8565b611d2f81611910565b604082015281606082015201916117ab565b60405190611d4e82610634565b6018825277436f6d6d756e69747920437265617465643a20257320257360401b6020830152565b919091611d833684836106ca565b6020815191012092611d9f84600052600a602052604060002090565b5461200d57611dc0611daf6117dd565b611dba3684866106ca565b9061275e565b611dce600160075401600755565b60075493611dfb7f000000000000000000000000000000000000000000000000000000000000000061202a565b611e0c611e078761231a565b611821565b90611e1e611e198861231a565b61186a565b916001600160a01b0382163b1561000e578795611ed195876000611ec196611eb795611e638d6040519586948594632e8b54ab60e21b8652309133916004880161199b565b0381836001600160a01b038a165af18015612000575b611fed575b50611e9084611e8b611ab2565b6127cb565b611eb0611e9b610691565b8981526001600160a01b039095166020860152565b36916106ca565b6040820152611b8b565b600052600a602052604060002090565b557f00000000000000000000000000000000000000000000000000000000000000006001600160a01b031690813b1561000e57604051633576860d60e11b8152336004820152602481018490527ffdd4a2748372821b146c0f15a0951903c598ceb899e41129e5cb3d6728839d4e926000908290604490829084905af18015611fe0575b611fc7575b50611f658333612109565b60e08101611f7f611f79611eb08385611cc7565b856121af565b611fb2611fa4611f9160208501611cf9565b92611f9e60408601611d03565b94611cc7565b906040519485948886611d0d565b0390a16102b94682611fc2611d41565b612819565b80611fd4611fda92610606565b80610255565b38611f5a565b611fe861165f565b611f55565b80611fd4611ffa92610606565b38611e7e565b61200861165f565b611e79565b604051630b6da56160e21b81529182916105c391600484016117cc565b6e5af43d82803e903d91602b57fd5bf390763d602d80600a3d3981f3363d3d373d3d3d363d7300000062ffffff8260881c161760005260781b17602052603760096000f0906001600160a01b0382161561208057565b60405162461bcd60e51b8152602060048201526016602482015275115490cc4c4d8dce8818dc99585d194819985a5b195960521b6044820152606490fd5b156120c557565b60405162461bcd60e51b815260206004820152601c60248201527b115490cdcc8c4e881d1bdad95b88185b1c9958591e481b5a5b9d195960221b6044820152606490fd5b6001600160a01b03811690811561216b576121559061213061212a856115fc565b156120be565b61213c61212a856115fc565b61214581611016565b6001815401905561153d84610cf2565b60006000805160206128838339815191528180a4565b606460405162461bcd60e51b815260206004820152602060248201527f4552433732313a206d696e7420746f20746865207a65726f20616464726573736044820152fd5b9190916121bb816115fc565b1561228c5760005260206006815260406000209083519060018060401b03821161227f575b6121f4826121ee85546110b1565b85611b46565b80601f831160011461222e575081929394600092612223575b50508160011b916000199060031b1c1916179055565b01519050388061220d565b90601f1983169561224485600052602060002090565b926000905b88821061226757505083600195969710611c6d57505050811b019055565b80600185968294968601518155019501930190612249565b6122876105c7565b6121e0565b60405162461bcd60e51b815260206004820152602e60248201527f45524337323155524953746f726167653a2055524920736574206f66206e6f6e60448201526d32bc34b9ba32b73a103a37b5b2b760911b6064820152608490fd5b906122f2826106a0565b6122ff604051918261064f565b8281528092612310601f19916106a0565b0190602036910137565b6000908072184f03e93ff9f4daa797ed6e38ed64bf6a1f0160401b80821015612449575b506904ee2d6d415b85acef8160201b8083101561243a575b50662386f26fc100008083101561242b575b506305f5e1008083101561241c575b506127108083101561240d575b5060648210156123fd575b600a809210156123f3575b6001908160216123ab8287016122e8565b95860101905b6123bd575b5050505090565b600019019083906f181899199a1a9b1b9c1cb0b131b232b360811b8282061a8353049182156123ee579190826123b1565b6123b6565b916001019161239a565b919060646002910491019161238f565b60049193920491019138612384565b60089193920491019138612377565b60109193920491019138612368565b60209193920491019138612356565b60409350810491503861233e565b90604051612464816105de565b8254815260018301546001600160a01b0316602082015291829060409061248d906002016111a6565b910152565b61249b8161108e565b6001600160a01b039033908216036105a4576114ee6124dc9160206124cd610eec6000198701878111610f4457611ae3565b0151166001600160a01b031690565b803b1561000e5761069e9260a0916000604051809263522c66bd60e01b825281838161250b8860048301612581565b03925af18015612537575b612524575b500151906121af565b80611fd461253192610606565b3861251b565b61253f61165f565b612516565b90815180825260208080930193019160005b828110612564575050505090565b83516001600160801b031685529381019392810192600101612556565b906102b991602081528151906125a561010092836020840152610120830190610283565b916125b8602085015160408401906118f8565b60408401516125c681611910565b60608301526040606085015180516125dd81611910565b608085015260018060a01b0360208201511660a0850152015160c083015260a0612619608086015194601f1995868683030160e0870152612544565b9401519282850301910152610283565b6126356112c8826115fc565b8060005260206006815261264c60406000206111a6565b6126546110eb565b80519182156127005780516126e4575050506126726112c8836115fc565b61267a6110eb565b8051909290600090156126ce5750906126956102b99261231a565b9260405193816126ae8693518092868087019101610260565b82016126c282518093868085019101610260565b0103808452018261064f565b92505050604051906126df82610619565b815290565b826102b9949395506126ae604051968794868087019101610260565b935050505090565b6102b990546110b1565b61271c81546110b1565b9081612726575050565b81601f60009311600114612738575055565b8183526020832061275491601f0160051c810190600101611b2f565b8160208120915555565b6127b0612790916127a261069e94604051948593634b5c427760e01b6020860152604060248601526064850190610283565b83810360231901604485015290610283565b03601f19810183528261064f565b600080916020815191016a636f6e736f6c652e6c6f675afa50565b6127b06127fa9161069e9360405193849263319af33360e01b6020850152604060248501526064840190610283565b6001600160a01b0391909116604483015203601f19810183528261064f565b6127b0906128499261069e9460405194859363ca47c4eb60e01b6020860152606060248601526084850190610283565b916044840152606483015203601f19810183528261064f56fe4552433732313a207472616e7366657220746f206e6f6e204552433732315265ddf252ad1be2c89b69c2b068fc378daa952ba7f163c4a11628f55a4df523b3efa164736f6c6343000811000a",
  "linkReferences": {},
  "deployedLinkReferences": {}
}