{
  "_format": "hh-sol-artifact-1",
  "contractName": "EmbraceCommunities",
  "sourceName": "contracts/EmbraceCommunities.sol",
  "abi": [
    {
      "inputs": [
        {
          "internalType": "string",
          "name": "_name",
          "type": "string"
        },
        {
          "internalType": "string",
          "name": "_symbol",
          "type": "string"
        },
        {
          "internalType": "address",
          "name": "_accountsContractAddress",
          "type": "address"
        },
        {
          "internalType": "address",
          "name": "_embraceCommunityAddress",
          "type": "address"
        },
        {
          "internalType": "address",
          "name": "_tablelandRegistryAddress",
          "type": "address"
        }
      ],
      "stateMutability": "nonpayable",
      "type": "constructor"
    },
    {
      "inputs": [
        {
          "internalType": "string",
          "name": "handle",
          "type": "string"
        }
      ],
      "name": "ErrorHandleExists",
      "type": "error"
    },
    {
      "inputs": [
        {
          "internalType": "string",
          "name": "tableName",
          "type": "string"
        }
      ],
      "name": "ErrorTableExists",
      "type": "error"
    },
    {
      "anonymous": false,
      "inputs": [
        {
          "indexed": true,
          "internalType": "address",
          "name": "owner",
          "type": "address"
        },
        {
          "indexed": true,
          "internalType": "address",
          "name": "approved",
          "type": "address"
        },
        {
          "indexed": true,
          "internalType": "uint256",
          "name": "tokenId",
          "type": "uint256"
        }
      ],
      "name": "Approval",
      "type": "event"
    },
    {
      "anonymous": false,
      "inputs": [
        {
          "indexed": true,
          "internalType": "address",
          "name": "owner",
          "type": "address"
        },
        {
          "indexed": true,
          "internalType": "address",
          "name": "operator",
          "type": "address"
        },
        {
          "indexed": false,
          "internalType": "bool",
          "name": "approved",
          "type": "bool"
        }
      ],
      "name": "ApprovalForAll",
      "type": "event"
    },
    {
      "anonymous": false,
      "inputs": [
        {
          "indexed": true,
          "internalType": "address",
          "name": "previousOwner",
          "type": "address"
        },
        {
          "indexed": true,
          "internalType": "address",
          "name": "newOwner",
          "type": "address"
        }
      ],
      "name": "OwnershipTransferred",
      "type": "event"
    },
    {
      "anonymous": false,
      "inputs": [
        {
          "indexed": true,
          "internalType": "address",
          "name": "from",
          "type": "address"
        },
        {
          "indexed": true,
          "internalType": "address",
          "name": "to",
          "type": "address"
        },
        {
          "indexed": true,
          "internalType": "uint256",
          "name": "tokenId",
          "type": "uint256"
        }
      ],
      "name": "Transfer",
      "type": "event"
    },
    {
      "inputs": [
        {
          "internalType": "address",
          "name": "to",
          "type": "address"
        },
        {
          "internalType": "uint256",
          "name": "tokenId",
          "type": "uint256"
        }
      ],
      "name": "approve",
      "outputs": [],
      "stateMutability": "nonpayable",
      "type": "function"
    },
    {
      "inputs": [
        {
          "internalType": "address",
          "name": "owner",
          "type": "address"
        }
      ],
      "name": "balanceOf",
      "outputs": [
        {
          "internalType": "uint256",
          "name": "",
          "type": "uint256"
        }
      ],
      "stateMutability": "view",
      "type": "function"
    },
    {
      "inputs": [],
      "name": "communitiesTable",
      "outputs": [
        {
          "internalType": "uint256",
          "name": "id",
          "type": "uint256"
        },
        {
          "internalType": "string",
          "name": "name",
          "type": "string"
        }
      ],
      "stateMutability": "view",
      "type": "function"
    },
    {
      "inputs": [],
      "name": "createCommunitiesTable",
      "outputs": [],
      "stateMutability": "nonpayable",
      "type": "function"
    },
    {
      "inputs": [
        {
          "internalType": "string",
          "name": "_handle",
          "type": "string"
        },
        {
          "components": [
            {
              "internalType": "string",
              "name": "handle",
              "type": "string"
            },
            {
              "internalType": "enum Visibility",
              "name": "visibility",
              "type": "uint8"
            },
            {
              "internalType": "enum Membership",
              "name": "membership",
              "type": "uint8"
            },
            {
              "internalType": "uint128[]",
              "name": "apps",
              "type": "uint128[]"
            }
          ],
          "internalType": "struct CommunityContractData",
          "name": "_communityData",
          "type": "tuple"
        },
        {
          "components": [
            {
              "internalType": "string",
              "name": "handle",
              "type": "string"
            },
            {
              "internalType": "string",
              "name": "name",
              "type": "string"
            },
            {
              "internalType": "string",
              "name": "description",
              "type": "string"
            },
            {
              "internalType": "string",
              "name": "image",
              "type": "string"
            }
          ],
          "internalType": "struct CommunityMetaData",
          "name": "_communityMetaData",
          "type": "tuple"
        }
      ],
      "name": "createCommunity",
      "outputs": [
        {
          "internalType": "uint256",
          "name": "",
          "type": "uint256"
        }
      ],
      "stateMutability": "nonpayable",
      "type": "function"
    },
    {
      "inputs": [
        {
          "internalType": "uint256",
          "name": "tokenId",
          "type": "uint256"
        }
      ],
      "name": "getApproved",
      "outputs": [
        {
          "internalType": "address",
          "name": "",
          "type": "address"
        }
      ],
      "stateMutability": "view",
      "type": "function"
    },
    {
      "inputs": [],
      "name": "getCommunities",
      "outputs": [
        {
          "components": [
            {
              "internalType": "uint256",
              "name": "id",
              "type": "uint256"
            },
            {
              "internalType": "address",
              "name": "contractAddress",
              "type": "address"
            },
            {
              "internalType": "string",
              "name": "handle",
              "type": "string"
            }
          ],
          "internalType": "struct EmbraceCommunities.Community[]",
          "name": "",
          "type": "tuple[]"
        }
      ],
      "stateMutability": "view",
      "type": "function"
    },
    {
      "inputs": [],
      "name": "getTableName",
      "outputs": [
        {
          "internalType": "string",
          "name": "",
          "type": "string"
        }
      ],
      "stateMutability": "view",
      "type": "function"
    },
    {
      "inputs": [
        {
          "internalType": "string",
          "name": "_handle",
          "type": "string"
        }
      ],
      "name": "handleToCommunity",
      "outputs": [
        {
          "components": [
            {
              "internalType": "uint256",
              "name": "id",
              "type": "uint256"
            },
            {
              "internalType": "address",
              "name": "contractAddress",
              "type": "address"
            },
            {
              "internalType": "string",
              "name": "handle",
              "type": "string"
            }
          ],
          "internalType": "struct EmbraceCommunities.Community",
          "name": "_community",
          "type": "tuple"
        }
      ],
      "stateMutability": "view",
      "type": "function"
    },
    {
      "inputs": [
        {
          "internalType": "bytes32",
          "name": "",
          "type": "bytes32"
        }
      ],
      "name": "handleToId",
      "outputs": [
        {
          "internalType": "uint256",
          "name": "",
          "type": "uint256"
        }
      ],
      "stateMutability": "view",
      "type": "function"
    },
    {
      "inputs": [
        {
          "internalType": "uint256",
          "name": "newCommunityId",
          "type": "uint256"
        },
        {
          "components": [
            {
              "internalType": "string",
              "name": "handle",
              "type": "string"
            },
            {
              "internalType": "string",
              "name": "name",
              "type": "string"
            },
            {
              "internalType": "string",
              "name": "description",
              "type": "string"
            },
            {
              "internalType": "string",
              "name": "image",
              "type": "string"
            }
          ],
          "internalType": "struct CommunityMetaData",
          "name": "_communityMetaData",
          "type": "tuple"
        }
      ],
      "name": "insertCommunity",
      "outputs": [],
      "stateMutability": "nonpayable",
      "type": "function"
    },
    {
      "inputs": [
        {
          "internalType": "address",
          "name": "owner",
          "type": "address"
        },
        {
          "internalType": "address",
          "name": "operator",
          "type": "address"
        }
      ],
      "name": "isApprovedForAll",
      "outputs": [
        {
          "internalType": "bool",
          "name": "",
          "type": "bool"
        }
      ],
      "stateMutability": "view",
      "type": "function"
    },
    {
      "inputs": [],
      "name": "name",
      "outputs": [
        {
          "internalType": "string",
          "name": "",
          "type": "string"
        }
      ],
      "stateMutability": "view",
      "type": "function"
    },
    {
      "inputs": [
        {
          "internalType": "address",
          "name": "",
          "type": "address"
        },
        {
          "internalType": "address",
          "name": "",
          "type": "address"
        },
        {
          "internalType": "uint256",
          "name": "",
          "type": "uint256"
        },
        {
          "internalType": "bytes",
          "name": "",
          "type": "bytes"
        }
      ],
      "name": "onERC721Received",
      "outputs": [
        {
          "internalType": "bytes4",
          "name": "",
          "type": "bytes4"
        }
      ],
      "stateMutability": "nonpayable",
      "type": "function"
    },
    {
      "inputs": [],
      "name": "owner",
      "outputs": [
        {
          "internalType": "address",
          "name": "",
          "type": "address"
        }
      ],
      "stateMutability": "view",
      "type": "function"
    },
    {
      "inputs": [
        {
          "internalType": "uint256",
          "name": "tokenId",
          "type": "uint256"
        }
      ],
      "name": "ownerOf",
      "outputs": [
        {
          "internalType": "address",
          "name": "",
          "type": "address"
        }
      ],
      "stateMutability": "view",
      "type": "function"
    },
    {
      "inputs": [],
      "name": "renounceOwnership",
      "outputs": [],
      "stateMutability": "nonpayable",
      "type": "function"
    },
    {
      "inputs": [
        {
          "internalType": "address",
          "name": "from",
          "type": "address"
        },
        {
          "internalType": "address",
          "name": "to",
          "type": "address"
        },
        {
          "internalType": "uint256",
          "name": "tokenId",
          "type": "uint256"
        }
      ],
      "name": "safeTransferFrom",
      "outputs": [],
      "stateMutability": "nonpayable",
      "type": "function"
    },
    {
      "inputs": [
        {
          "internalType": "address",
          "name": "from",
          "type": "address"
        },
        {
          "internalType": "address",
          "name": "to",
          "type": "address"
        },
        {
          "internalType": "uint256",
          "name": "tokenId",
          "type": "uint256"
        },
        {
          "internalType": "bytes",
          "name": "data",
          "type": "bytes"
        }
      ],
      "name": "safeTransferFrom",
      "outputs": [],
      "stateMutability": "nonpayable",
      "type": "function"
    },
    {
      "inputs": [
        {
          "internalType": "address",
          "name": "operator",
          "type": "address"
        },
        {
          "internalType": "bool",
          "name": "approved",
          "type": "bool"
        }
      ],
      "name": "setApprovalForAll",
      "outputs": [],
      "stateMutability": "nonpayable",
      "type": "function"
    },
    {
      "inputs": [
        {
          "internalType": "bytes4",
          "name": "interfaceId",
          "type": "bytes4"
        }
      ],
      "name": "supportsInterface",
      "outputs": [
        {
          "internalType": "bool",
          "name": "",
          "type": "bool"
        }
      ],
      "stateMutability": "view",
      "type": "function"
    },
    {
      "inputs": [],
      "name": "symbol",
      "outputs": [
        {
          "internalType": "string",
          "name": "",
          "type": "string"
        }
      ],
      "stateMutability": "view",
      "type": "function"
    },
    {
      "inputs": [
        {
          "internalType": "uint256",
          "name": "tokenId",
          "type": "uint256"
        }
      ],
      "name": "tokenURI",
      "outputs": [
        {
          "internalType": "string",
          "name": "",
          "type": "string"
        }
      ],
      "stateMutability": "view",
      "type": "function"
    },
    {
      "inputs": [],
      "name": "totalSupply",
      "outputs": [
        {
          "internalType": "uint256",
          "name": "",
          "type": "uint256"
        }
      ],
      "stateMutability": "view",
      "type": "function"
    },
    {
      "inputs": [
        {
          "internalType": "address",
          "name": "from",
          "type": "address"
        },
        {
          "internalType": "address",
          "name": "to",
          "type": "address"
        },
        {
          "internalType": "uint256",
          "name": "tokenId",
          "type": "uint256"
        }
      ],
      "name": "transferFrom",
      "outputs": [],
      "stateMutability": "nonpayable",
      "type": "function"
    },
    {
      "inputs": [
        {
          "internalType": "address",
          "name": "newOwner",
          "type": "address"
        }
      ],
      "name": "transferOwnership",
      "outputs": [],
      "stateMutability": "nonpayable",
      "type": "function"
    }
  ],
  "bytecode": "0x610120604052601360e09081527f656d62726163655f636f6d6d756e697469657300000000000000000000000000610100526009906200004090826200069d565b503480156200004e57600080fd5b50604051620039a9380380620039a983398101604081905262000071916200083d565b848460006200008183826200069d565b5060016200009082826200069d565b505050620000ad620000a76200014660201b60201c565b6200014a565b6001600160a01b03808216608081905283821660a052600a80546001600160a01b0319169091179055831660c052620000e56200019c565b604051600090620000fc90600c90602001620008df565b60405160208183030381529060405290506200013a81604051602001620001249190620009a2565b60408051601f19818403018152919052620003d0565b50505050505062000bf9565b3390565b600780546001600160a01b038381166001600160a01b0319831681179093556040519116919082907f8be0079c531659141344cd1fd0a4f28419497f9722a3daafe3b4186f6b6457e090600090a35050565b600b5415620001cc57604051633e0f514960e01b8152620001c390600c9060040162000a1c565b60405180910390fd5b600a54604080516060810190915260368082526001600160a01b0390921691633a9151b0913091620002a691906200397360208301396009805462000211906200060e565b80601f01602080910402602001604051908101604052809291908181526020018280546200023f906200060e565b8015620002905780601f10620002645761010080835404028352916020019162000290565b820191906000526020600020905b8154815290600101906020018083116200027257829003601f168201915b5050505050620003e260201b6200120e1760201c565b6040518363ffffffff1660e01b8152600401620002c592919062000aaf565b6020604051808303816000875af1158015620002e5573d6000803e3d6000fd5b505050506040513d601f19601f820116820180604052508101906200030b919062000af3565b600b5560098054620003be919062000323906200060e565b80601f016020809104026020016040519081016040528092919081815260200182805462000351906200060e565b8015620003a25780601f106200037657610100808354040283529160200191620003a2565b820191906000526020600020905b8154815290600101906020018083116200038457829003601f168201915b5050505050600b600001546200042760201b620012441760201c565b600c90620003cd90826200069d565b50565b600d620003de82826200069d565b5050565b606081620003fb466200046a60201b6200126b1760201c565b84604051602001620004109392919062000b0d565b604051602081830303815290604052905092915050565b60608262000440466200046a60201b6200126b1760201c565b62000456846200046a60201b6200126b1760201c565b604051602001620004109392919062000b99565b6060600062000484836200050e60201b620012fd1760201c565b60010190506000816001600160401b03811115620004a657620004a6620005f8565b6040519080825280601f01601f191660200182016040528015620004d1576020820181803683370190505b5090508181016020015b600019016f181899199a1a9b1b9c1cb0b131b232b360811b600a86061a8153600a8504945084620004db57509392505050565b6000807a184f03e93ff9f4daa797ed6e38ed64bf6a1f010000000000000000831062000558577a184f03e93ff9f4daa797ed6e38ed64bf6a1f010000000000000000830492506040015b6d04ee2d6d415b85acef8100000000831062000585576d04ee2d6d415b85acef8100000000830492506020015b662386f26fc100008310620005a457662386f26fc10000830492506010015b6305f5e1008310620005bd576305f5e100830492506008015b6127108310620005d257612710830492506004015b60648310620005e5576064830492506002015b600a8310620005f2576001015b92915050565b634e487b7160e01b600052604160045260246000fd5b600181811c908216806200062357607f821691505b6020821081036200064457634e487b7160e01b600052602260045260246000fd5b50919050565b601f8211156200069857600081815260208120601f850160051c81016020861015620006735750805b601f850160051c820191505b8181101562000694578281556001016200067f565b5050505b505050565b81516001600160401b03811115620006b957620006b9620005f8565b620006d181620006ca84546200060e565b846200064a565b602080601f831160018114620007095760008415620006f05750858301515b600019600386901b1c1916600185901b17855562000694565b600085815260208120601f198616915b828110156200073a5788860151825594840194600190910190840162000719565b5085821015620007595787850151600019600388901b60f8161c191681555b5050505050600190811b01905550565b60005b83811015620007865781810151838201526020016200076c565b50506000910152565b600082601f830112620007a157600080fd5b81516001600160401b0380821115620007be57620007be620005f8565b604051601f8301601f19908116603f01168101908282118183101715620007e957620007e9620005f8565b816040528381528660208588010111156200080357600080fd5b6200081684602083016020890162000769565b9695505050505050565b80516001600160a01b03811681146200083857600080fd5b919050565b600080600080600060a086880312156200085657600080fd5b85516001600160401b03808211156200086e57600080fd5b6200087c89838a016200078f565b965060208801519150808211156200089357600080fd5b50620008a2888289016200078f565b945050620008b36040870162000820565b9250620008c36060870162000820565b9150620008d36080870162000820565b90509295509295909350565b7f53454c4543542b6d657461646174612b46524f4d2b00000000000000000000008152600060156000845462000915816200060e565b600182811680156200093057600181146200094a576200097f565b60ff1984168887015282151583028801860194506200097f565b8860005260208060002060005b85811015620009745781548b82018a015290840190820162000957565b505050858389010194505b50506d2b57484552452b69642b2533442b60901b83525050600e01949350505050565b7f68747470733a2f2f746573746e6574732e7461626c656c616e642e6e6574776f81527f726b2f71756572793f756e777261703d7472756526657874726163743d7472756020820152636526733d60e01b60408201526000825162000a0f81604485016020870162000769565b9190910160440192915050565b600060208083526000845462000a32816200060e565b8084870152604060018084166000811462000a56576001811462000a715762000aa1565b60ff1985168984015283151560051b89018301955062000aa1565b896000528660002060005b8581101562000a995781548b820186015290830190880162000a7c565b8a0184019650505b509398975050505050505050565b60018060a01b0383168152604060208201526000825180604084015262000ade81606085016020870162000769565b601f01601f1916919091016060019392505050565b60006020828403121562000b0657600080fd5b5051919050565b6c021a922a0aa22902a20a126229609d1b81526000845162000b3781600d85016020890162000769565b605f60f81b600d91840191820152845162000b5a81600e84016020890162000769565b600560fb1b600e9290910191820152835162000b7e81600f84016020880162000769565b602960f81b600f929091019182015260100195945050505050565b6000845162000bad81846020890162000769565b8083019050605f60f81b808252855162000bcf816001850160208a0162000769565b6001920191820152835162000bec81600284016020880162000769565b0160020195945050505050565b60805160a05160c051612d4a62000c296000396000610b3b01526000610889015260006109100152612d4a6000f3fe608060405234801561001057600080fd5b506004361061013e5760003560e01c806301ffc9a71461014357806306fdde031461016b578063081812fc14610180578063095ea7b3146101a0578063150b7a02146101b557806318160ddd146101e157806323b872dd146101f7578063315ac0581461020a57806342842e0e1461021d5780635d5a33a2146102305780636352211e1461023857806370a082311461024b578063715018a61461025e5780638da5cb5b146102665780638e07fa901461026e57806395d89b4114610281578063a22cb46514610289578063b17588e41461029c578063b4d4b6a0146102bc578063b88d4fde146102c4578063c251b565146102d7578063c25d33c3146102ec578063c87b56dd1461030c578063d35949631461031f578063e985e9c514610335578063f2fde38b14610348575b600080fd5b610156610151366004611d66565b61035b565b60405190151581526020015b60405180910390f35b6101736103ad565b6040516101629190611dd3565b61019361018e366004611de6565b61043f565b6040516101629190611dff565b6101b36101ae366004611e2a565b610466565b005b6101c86101c3366004611f19565b610580565b6040516001600160e01b03199091168152602001610162565b6101e9610591565b604051908152602001610162565b6101b3610205366004611f94565b6105a1565b6101b36102183660046120a8565b6105d2565b6101b361022b366004611f94565b61070f565b61017361072a565b610193610246366004611de6565b61073c565b6101e96102593660046120ee565b610770565b6101b36107f6565b61019361080a565b6101e961027c366004612116565b610819565b610173610be6565b6101b3610297366004612291565b610bf5565b6101e96102aa366004611de6565b600e6020526000908152604090205481565b6101b3610c04565b6101b36102d2366004611f19565b610dfa565b6102df610e32565b60405161016291906122fe565b6102ff6102fa366004612360565b610f43565b6040516101629190612394565b61017361031a366004611de6565b6110c8565b6103276110d3565b6040516101629291906123a7565b6101566103433660046123c0565b61116a565b6101b36103563660046120ee565b611198565b60006001600160e01b031982166380ac58cd60e01b148061038c57506001600160e01b03198216635b5e139f60e01b145b806103a757506301ffc9a760e01b6001600160e01b03198316145b92915050565b6060600080546103bc906123f3565b80601f01602080910402602001604051908101604052809291908181526020018280546103e8906123f3565b80156104355780601f1061040a57610100808354040283529160200191610435565b820191906000526020600020905b81548152906001019060200180831161041857829003601f168201915b5050505050905090565b600061044a826113d3565b506000908152600460205260409020546001600160a01b031690565b60006104718261073c565b9050806001600160a01b0316836001600160a01b0316036104e35760405162461bcd60e51b815260206004820152602160248201527f4552433732313a20617070726f76616c20746f2063757272656e74206f776e656044820152603960f91b60648201526084015b60405180910390fd5b336001600160a01b03821614806104ff57506104ff813361116a565b6105715760405162461bcd60e51b815260206004820152603d60248201527f4552433732313a20617070726f76652063616c6c6572206973206e6f7420746f60448201527f6b656e206f776e6572206f7220617070726f76656420666f7220616c6c00000060648201526084016104da565b61057b83836113f8565b505050565b630a85bd0160e11b5b949350505050565b600061059c60085490565b905090565b6105ab3382611466565b6105c75760405162461bcd60e51b81526004016104da9061242d565b61057b8383836114c4565b60006105dd8361126b565b9050600082600001518360200151846040015185606001516040516020016106089493929190612496565b60405160208183030381529060405290506000610625600161126b565b90506000600b6001018484846040516020016106449493929190612569565b604051602081830303815290604052905046617a690361069f5761069760405180604001604052806017815260200176496e73657274696e6720436f6d6d756e6974793a20257360481b81525082611623565b505050505050565b600a54600b5460405163757ae82760e11b81526001600160a01b039092169163eaf5d04e916106d5913091908690600401612679565b600060405180830381600087803b1580156106ef57600080fd5b505af1158015610703573d6000803e3d6000fd5b50505050505050505050565b61057b83838360405180602001604052806000815250610dfa565b6060600b60010180546103bc906123f3565b60008061074883611668565b90506001600160a01b0381166103a75760405162461bcd60e51b81526004016104da906126a9565b60006001600160a01b0382166107da5760405162461bcd60e51b815260206004820152602960248201527f4552433732313a2061646472657373207a65726f206973206e6f7420612076616044820152683634b21037bbb732b960b91b60648201526084016104da565b506001600160a01b031660009081526003602052604090205490565b6107fe611683565b61080860006116e2565b565b6007546001600160a01b031690565b82516020808501919091206000818152600e9092526040822054156108535784604051630b6da56160e21b81526004016104da9190611dd3565b610861600880546001019055565b600061086c60085490565b90506108783382611734565b61088281856105d2565b60006108ad7f000000000000000000000000000000000000000000000000000000000000000061183d565b9050806001600160a01b031663f542033f6108c78461126b565b6040516020016108d791906126db565b6040516020818303038152906040526108ef8561126b565b6040516020016108ff9190612715565b6040516020818303038152906040527f0000000000000000000000000000000000000000000000000000000000000000866040518563ffffffff1660e01b815260040161094f949392919061274b565b600060405180830381600087803b15801561096957600080fd5b505af115801561097d573d6000803e3d6000fd5b505060405163adaf1cab60e01b81526001600160a01b038416925063adaf1cab91506109ad9089906004016127ab565b600060405180830381600087803b1580156109c757600080fd5b505af11580156109db573d6000803e3d6000fd5b5050604051631e799a0760e21b81526001600160a01b03841692506379e6681c9150610a0b903090600401611dff565b600060405180830381600087803b158015610a2557600080fd5b505af1158015610a39573d6000803e3d6000fd5b5050604080516060810182528581526001600160a01b03858116602083019081529282018c8152600f805460018101825560009190915283517f8d1108e10bcb7c27dddfc02ed9d693a074039d026cf4ea4240b40f7d581ac802600390920291820190815594517f8d1108e10bcb7c27dddfc02ed9d693a074039d026cf4ea4240b40f7d581ac803820180546001600160a01b0319169190941617909255519194508493507f8d1108e10bcb7c27dddfc02ed9d693a074039d026cf4ea4240b40f7d581ac8040190610b0b908261288e565b5050506000848152600e60205260409081902084905551633576860d60e11b8152336004820152602481018490527f00000000000000000000000000000000000000000000000000000000000000006001600160a01b031690636aed0c1a90604401600060405180830381600087803b158015610b8757600080fd5b505af1158015610b9b573d6000803e3d6000fd5b50505050610bda60405180604001604052806018815260200177436f6d6d756e69747920437265617465643a20257320257360401b81525084466118d7565b50909695505050505050565b6060600180546103bc906123f3565b610c0033838361191e565b5050565b600b5415610c2857604051633e0f514960e01b81526104da90600c9060040161294d565b600a54604080516060810190915260368082526001600160a01b0390921691633a9151b0913091610cec9190612d08602083013960098054610c69906123f3565b80601f0160208091040260200160405190810160405280929190818152602001828054610c95906123f3565b8015610ce25780601f10610cb757610100808354040283529160200191610ce2565b820191906000526020600020905b815481529060010190602001808311610cc557829003601f168201915b505050505061120e565b6040518363ffffffff1660e01b8152600401610d099291906129d8565b6020604051808303816000875af1158015610d28573d6000803e3d6000fd5b505050506040513d601f19601f82011682018060405250810190610d4c91906129fc565b600b5560098054610dea9190610d61906123f3565b80601f0160208091040260200160405190810160405280929190818152602001828054610d8d906123f3565b8015610dda5780601f10610daf57610100808354040283529160200191610dda565b820191906000526020600020905b815481529060010190602001808311610dbd57829003601f168201915b5050505050600b60000154611244565b600c90610df7908261288e565b50565b610e043383611466565b610e205760405162461bcd60e51b81526004016104da9061242d565b610e2c848484846119e8565b50505050565b6060600f805480602002602001604051908101604052809291908181526020016000905b82821015610f3a57600084815260209081902060408051606081018252600386029092018054835260018101546001600160a01b03169383019390935260028301805492939291840191610ea9906123f3565b80601f0160208091040260200160405190810160405280929190818152602001828054610ed5906123f3565b8015610f225780601f10610ef757610100808354040283529160200191610f22565b820191906000526020600020905b815481529060010190602001808311610f0557829003601f168201915b50505050508152505081526020019060010190610e56565b50505050905090565b6040805160608082018352600080835260208301529181019190915281516020808401919091206000818152600e90925260408220549091600f610f88600184612a2b565b81548110610f9857610f98612a3e565b9060005260206000209060030201604051806060016040529081600082015481526020016001820160009054906101000a90046001600160a01b03166001600160a01b03166001600160a01b03168152602001600282018054610ffa906123f3565b80601f0160208091040260200160405190810160405280929190818152602001828054611026906123f3565b80156110735780601f1061104857610100808354040283529160200191611073565b820191906000526020600020905b81548152906001019060200180831161105657829003601f168201915b505050505081525050905080600001516000036105895760405162461bcd60e51b815260206004820152601360248201527210dbdb5b5d5b9a5d1e481b9bdd08199bdd5b99606a1b60448201526064016104da565b60606103a782611a1b565b600b8054600c80549192916110e7906123f3565b80601f0160208091040260200160405190810160405280929190818152602001828054611113906123f3565b80156111605780601f1061113557610100808354040283529160200191611160565b820191906000526020600020905b81548152906001019060200180831161114357829003601f168201915b5050505050905082565b6001600160a01b03918216600090815260056020908152604080832093909416825291909152205460ff1690565b6111a0611683565b6001600160a01b0381166112055760405162461bcd60e51b815260206004820152602660248201527f4f776e61626c653a206e6577206f776e657220697320746865207a65726f206160448201526564647265737360d01b60648201526084016104da565b610df7816116e2565b60608161121a4661126b565b8460405160200161122d93929190612a54565b604051602081830303815290604052905092915050565b6060826112504661126b565b6112598461126b565b60405160200161122d93929190612ada565b60606000611278836112fd565b60010190506000816001600160401b0381111561129757611297611e54565b6040519080825280601f01601f1916602001820160405280156112c1576020820181803683370190505b5090508181016020015b600019016f181899199a1a9b1b9c1cb0b131b232b360811b600a86061a8153600a85049450846112cb57509392505050565b60008072184f03e93ff9f4daa797ed6e38ed64bf6a1f0160401b831061133c5772184f03e93ff9f4daa797ed6e38ed64bf6a1f0160401b830492506040015b6904ee2d6d415b85acef8160201b8310611366576904ee2d6d415b85acef8160201b830492506020015b662386f26fc10000831061138457662386f26fc10000830492506010015b6305f5e100831061139c576305f5e100830492506008015b61271083106113b057612710830492506004015b606483106113c2576064830492506002015b600a83106103a75760010192915050565b6113dc81611b16565b610df75760405162461bcd60e51b81526004016104da906126a9565b600081815260046020526040902080546001600160a01b0319166001600160a01b038416908117909155819061142d8261073c565b6001600160a01b03167f8c5be1e5ebec7d5bd14f71427d1e84f3dd0314c0f7b2291e5b200ac8c7c3b92560405160405180910390a45050565b6000806114728361073c565b9050806001600160a01b0316846001600160a01b031614806114995750611499818561116a565b806105895750836001600160a01b03166114b28461043f565b6001600160a01b031614949350505050565b826001600160a01b03166114d78261073c565b6001600160a01b0316146114fd5760405162461bcd60e51b81526004016104da90612b34565b6001600160a01b03821661155f5760405162461bcd60e51b8152602060048201526024808201527f4552433732313a207472616e7366657220746f20746865207a65726f206164646044820152637265737360e01b60648201526084016104da565b61156c8383836001611b33565b826001600160a01b031661157f8261073c565b6001600160a01b0316146115a55760405162461bcd60e51b81526004016104da90612b34565b600081815260046020908152604080832080546001600160a01b03199081169091556001600160a01b038781168086526003855283862080546000190190559087168086528386208054600101905586865260029094528285208054909216841790915590518493600080516020612ce883398151915291a4505050565b610c008282604051602401611639929190612b79565b60408051601f198184030181529190526020810180516001600160e01b0316634b5c427760e01b179052611bbb565b6000908152600260205260409020546001600160a01b031690565b3361168c61080a565b6001600160a01b0316146108085760405162461bcd60e51b815260206004820181905260248201527f4f776e61626c653a2063616c6c6572206973206e6f7420746865206f776e657260448201526064016104da565b600780546001600160a01b038381166001600160a01b0319831681179093556040519116919082907f8be0079c531659141344cd1fd0a4f28419497f9722a3daafe3b4186f6b6457e090600090a35050565b6001600160a01b03821661178a5760405162461bcd60e51b815260206004820181905260248201527f4552433732313a206d696e7420746f20746865207a65726f206164647265737360448201526064016104da565b61179381611b16565b156117b05760405162461bcd60e51b81526004016104da90612b9e565b6117be600083836001611b33565b6117c781611b16565b156117e45760405162461bcd60e51b81526004016104da90612b9e565b6001600160a01b038216600081815260036020908152604080832080546001019055848352600290915280822080546001600160a01b031916841790555183929190600080516020612ce8833981519152908290a45050565b6000763d602d80600a3d3981f3363d3d373d3d3d363d730000008260601b60e81c176000526e5af43d82803e903d91602b57fd5bf38260781b17602052603760096000f090506001600160a01b0381166118d25760405162461bcd60e51b8152602060048201526016602482015275115490cc4c4d8dce8818dc99585d194819985a5b195960521b60448201526064016104da565b919050565b61057b8383836040516024016118ef93929190612bd4565b60408051601f198184030181529190526020810180516001600160e01b031663ca47c4eb60e01b179052611bbb565b816001600160a01b0316836001600160a01b03160361197b5760405162461bcd60e51b815260206004820152601960248201527822a9219b99189d1030b8383937bb32903a379031b0b63632b960391b60448201526064016104da565b6001600160a01b03838116600081815260056020908152604080832094871680845294825291829020805460ff191686151590811790915591519182527f17307eab39ab6107e8899845ad3d59bd9653f200f220920489ca2b5937696c31910160405180910390a3505050565b6119f38484846114c4565b6119ff84848484611bdc565b610e2c5760405162461bcd60e51b81526004016104da90612bf9565b6060611a26826113d3565b60008281526006602052604081208054611a3f906123f3565b80601f0160208091040260200160405190810160405280929190818152602001828054611a6b906123f3565b8015611ab85780601f10611a8d57610100808354040283529160200191611ab8565b820191906000526020600020905b815481529060010190602001808311611a9b57829003601f168201915b505050505090506000611ac9611cda565b90508051600003611adb575092915050565b815115611b0d578082604051602001611af5929190612c4b565b60405160208183030381529060405292505050919050565b61058984611ce9565b600080611b2283611668565b6001600160a01b0316141592915050565b6001811115610e2c576001600160a01b03841615611b79576001600160a01b03841660009081526003602052604081208054839290611b73908490612a2b565b90915550505b6001600160a01b03831615610e2c576001600160a01b03831660009081526003602052604081208054839290611bb0908490612c7a565b909155505050505050565b80516a636f6e736f6c652e6c6f67602083016000808483855afa5050505050565b60006001600160a01b0384163b15611cd257604051630a85bd0160e11b81526001600160a01b0385169063150b7a0290611c20903390899088908890600401612c8d565b6020604051808303816000875af1925050508015611c5b575060408051601f3d908101601f19168201909252611c5891810190612cca565b60015b611cb8573d808015611c89576040519150601f19603f3d011682016040523d82523d6000602084013e611c8e565b606091505b508051600003611cb05760405162461bcd60e51b81526004016104da90612bf9565b805181602001fd5b6001600160e01b031916630a85bd0160e11b149050610589565b506001610589565b6060600d80546103bc906123f3565b6060611cf4826113d3565b6000611cfe611cda565b90506000815111611d1e5760405180602001604052806000815250611d49565b80611d288461126b565b604051602001611d39929190612c4b565b6040516020818303038152906040525b9392505050565b6001600160e01b031981168114610df757600080fd5b600060208284031215611d7857600080fd5b8135611d4981611d50565b60005b83811015611d9e578181015183820152602001611d86565b50506000910152565b60008151808452611dbf816020860160208601611d83565b601f01601f19169290920160200192915050565b602081526000611d496020830184611da7565b600060208284031215611df857600080fd5b5035919050565b6001600160a01b0391909116815260200190565b80356001600160a01b03811681146118d257600080fd5b60008060408385031215611e3d57600080fd5b611e4683611e13565b946020939093013593505050565b634e487b7160e01b600052604160045260246000fd5b604051608081016001600160401b0381118282101715611e8c57611e8c611e54565b60405290565b604051601f8201601f191681016001600160401b0381118282101715611eba57611eba611e54565b604052919050565b60006001600160401b03831115611edb57611edb611e54565b611eee601f8401601f1916602001611e92565b9050828152838383011115611f0257600080fd5b828260208301376000602084830101529392505050565b60008060008060808587031215611f2f57600080fd5b611f3885611e13565b9350611f4660208601611e13565b92506040850135915060608501356001600160401b03811115611f6857600080fd5b8501601f81018713611f7957600080fd5b611f8887823560208401611ec2565b91505092959194509250565b600080600060608486031215611fa957600080fd5b611fb284611e13565b9250611fc060208501611e13565b9150604084013590509250925092565b600082601f830112611fe157600080fd5b611d4983833560208501611ec2565b60006080828403121561200257600080fd5b61200a611e6a565b905081356001600160401b038082111561202357600080fd5b61202f85838601611fd0565b8352602084013591508082111561204557600080fd5b61205185838601611fd0565b6020840152604084013591508082111561206a57600080fd5b61207685838601611fd0565b6040840152606084013591508082111561208f57600080fd5b5061209c84828501611fd0565b60608301525092915050565b600080604083850312156120bb57600080fd5b8235915060208301356001600160401b038111156120d857600080fd5b6120e485828601611ff0565b9150509250929050565b60006020828403121561210057600080fd5b611d4982611e13565b60028110610df757600080fd5b60008060006060848603121561212b57600080fd5b83356001600160401b038082111561214257600080fd5b61214e87838801611fd0565b945060209150818601358181111561216557600080fd5b86016080818903121561217757600080fd5b61217f611e6a565b81358381111561218e57600080fd5b61219a8a828501611fd0565b825250838201356121aa81612109565b8185015260408201356121bc81612109565b60408201526060820135838111156121d357600080fd5b80830192505088601f8301126121e857600080fd5b8135838111156121fa576121fa611e54565b8060051b612209868201611e92565b918252838101860191868101908c84111561222357600080fd5b948701945b8386101561225a57853592506001600160801b038316831461224a5760008081fd5b8282529487019490870190612228565b606085015250919650505050604086013591508082111561227a57600080fd5b5061228786828701611ff0565b9150509250925092565b600080604083850312156122a457600080fd5b6122ad83611e13565b9150602083013580151581146122c257600080fd5b809150509250929050565b8051825260018060a01b03602082015116602083015260006040820151606060408501526105896060850182611da7565b6000602080830181845280855180835260408601915060408160051b870101925083870160005b8281101561235357603f198886030184526123418583516122cd565b94509285019290850190600101612325565b5092979650505050505050565b60006020828403121561237257600080fd5b81356001600160401b0381111561238857600080fd5b61058984828501611fd0565b602081526000611d4960208301846122cd565b8281526040602082015260006105896040830184611da7565b600080604083850312156123d357600080fd5b6123dc83611e13565b91506123ea60208401611e13565b90509250929050565b600181811c9082168061240757607f821691505b60208210810361242757634e487b7160e01b600052602260045260246000fd5b50919050565b6020808252602d908201527f4552433732313a2063616c6c6572206973206e6f7420746f6b656e206f776e6560408201526c1c881bdc88185c1c1c9bdd9959609a1b606082015260800190565b6000815161248c818560208601611d83565b9290920192915050565b6b3d913430b7323632911d101160a11b815284516000906124be81600c850160208a01611d83565b6b111610113730b6b2911d101160a11b600c9184019182015285516124ea816018840160208a01611d83565b72111610113232b9b1b934b83a34b7b7111d101160691b60189290910191820152845161251e81602b840160208901611d83565b6c1116101134b6b0b3b2911d101160991b602b9290910191820152835161254c816038840160208801611d83565b61227d60f01b60389290910191820152603a019695505050505050565b6b024a729a2a92a1024a72a27960a51b81526000600c6000875461258c816123f3565b600182811680156125a457600181146125bd576125f0565b60ff1984168887015282151583028801860194506125f0565b8b60005260208060002060005b858110156125e55781548b82018a01529084019082016125ca565b505050858389010194505b50507f202869642c206d657461646174612c20696e6465786564292056414c5545532083525050600560fb1b602082015261262e602182018861247a565b91505061263f81612c2760f01b9052565b61264c600282018661247a565b6109cb60f21b81529050612663600282018561247a565b61293b60f01b8152600201979650505050505050565b60018060a01b03841681528260208201526060604082015260006126a06060830184611da7565b95945050505050565b602080825260189082015277115490cdcc8c4e881a5b9d985b1a59081d1bdad95b88125160421b604082015260600190565b71022a6a12920a1a2afa1a7a6a6af98171899960751b815260008251612708816012850160208701611d83565b9190910160120192915050565b6d022a6a12fa1a7a6a6af98171899960951b81526000825161273e81600e850160208701611d83565b91909101600e0192915050565b60808152600061275e6080830187611da7565b82810360208401526127708187611da7565b6001600160a01b0395909516604084015250506060015292915050565b60028110610df757634e487b7160e01b600052602160045260246000fd5b6000602080835283516080828501526127c760a0850182611da7565b9050818501516127d68161278d565b8060408601525060408501516127eb8161278d565b606085810191909152850151848203601f19016080860152805180835290830191600091908401905b8083101561283d5783516001600160801b03168252928401926001929092019190840190612814565b509695505050505050565b601f82111561057b57600081815260208120601f850160051c8101602086101561286f5750805b601f850160051c820191505b818110156106975782815560010161287b565b81516001600160401b038111156128a7576128a7611e54565b6128bb816128b584546123f3565b84612848565b602080601f8311600181146128f057600084156128d85750858301515b600019600386901b1c1916600185901b178555610697565b600085815260208120601f198616915b8281101561291f57888601518255948401946001909101908401612900565b508582101561293d5787850151600019600388901b60f8161c191681555b5050505050600190811b01905550565b6000602080835260008454612961816123f3565b80848701526040600180841660008114612982576001811461299c576129ca565b60ff1985168984015283151560051b8901830195506129ca565b896000528660002060005b858110156129c25781548b82018601529083019088016129a7565b8a0184019650505b509398975050505050505050565b6001600160a01b038316815260406020820181905260009061058990830184611da7565b600060208284031215612a0e57600080fd5b5051919050565b634e487b7160e01b600052601160045260246000fd5b818103818111156103a7576103a7612a15565b634e487b7160e01b600052603260045260246000fd5b6c021a922a0aa22902a20a126229609d1b815260008451612a7c81600d850160208901611d83565b605f60f81b600d918401918201528451612a9d81600e840160208901611d83565b600560fb1b600e92909101918201528351612abf81600f840160208801611d83565b602960f81b600f929091019182015260100195945050505050565b60008451612aec818460208901611d83565b8083019050605f60f81b8082528551612b0c816001850160208a01611d83565b60019201918201528351612b27816002840160208801611d83565b0160020195945050505050565b60208082526025908201527f4552433732313a207472616e736665722066726f6d20696e636f72726563742060408201526437bbb732b960d91b606082015260800190565b604081526000612b8c6040830185611da7565b82810360208401526126a08185611da7565b6020808252601c908201527b115490cdcc8c4e881d1bdad95b88185b1c9958591e481b5a5b9d195960221b604082015260600190565b606081526000612be76060830186611da7565b60208301949094525060400152919050565b60208082526032908201527f4552433732313a207472616e7366657220746f206e6f6e20455243373231526560408201527131b2b4bb32b91034b6b83632b6b2b73a32b960711b606082015260800190565b60008351612c5d818460208801611d83565b835190830190612c71818360208801611d83565b01949350505050565b808201808211156103a7576103a7612a15565b6001600160a01b0385811682528416602082015260408101839052608060608201819052600090612cc090830184611da7565b9695505050505050565b600060208284031215612cdc57600080fd5b8151611d4981611d5056feddf252ad1be2c89b69c2b068fc378daa952ba7f163c4a11628f55a4df523b3ef696420696e7465676572207072696d617279206b65792c206d6574616461746120746578742c20696e646578656420696e7465676572a164736f6c6343000811000a696420696e7465676572207072696d617279206b65792c206d6574616461746120746578742c20696e646578656420696e7465676572",
  "linkReferences": {},
  "deployedLinkReferences": {}
}