{
  "_format": "hh-sol-artifact-1",
  "contractName": "EmbraceCommunities",
  "sourceName": "contracts/EmbraceCommunities.sol",
  "abi": [
    {
      "inputs": [
        {
          "internalType": "string",
          "name": "_name",
          "type": "string"
        },
        {
          "internalType": "string",
          "name": "_symbol",
          "type": "string"
        },
        {
          "internalType": "address",
          "name": "_accountsContractAddress",
          "type": "address"
        },
        {
          "internalType": "address",
          "name": "_embraceCommunityAddress",
          "type": "address"
        },
        {
          "internalType": "address",
          "name": "_tablelandRegistryAddress",
          "type": "address"
        }
      ],
      "stateMutability": "nonpayable",
      "type": "constructor"
    },
    {
      "inputs": [
        {
          "internalType": "string",
          "name": "handle",
          "type": "string"
        }
      ],
      "name": "ErrorHandleExists",
      "type": "error"
    },
    {
      "inputs": [
        {
          "internalType": "string",
          "name": "tableName",
          "type": "string"
        }
      ],
      "name": "ErrorTableExists",
      "type": "error"
    },
    {
      "anonymous": false,
      "inputs": [
        {
          "indexed": true,
          "internalType": "address",
          "name": "owner",
          "type": "address"
        },
        {
          "indexed": true,
          "internalType": "address",
          "name": "approved",
          "type": "address"
        },
        {
          "indexed": true,
          "internalType": "uint256",
          "name": "tokenId",
          "type": "uint256"
        }
      ],
      "name": "Approval",
      "type": "event"
    },
    {
      "anonymous": false,
      "inputs": [
        {
          "indexed": true,
          "internalType": "address",
          "name": "owner",
          "type": "address"
        },
        {
          "indexed": true,
          "internalType": "address",
          "name": "operator",
          "type": "address"
        },
        {
          "indexed": false,
          "internalType": "bool",
          "name": "approved",
          "type": "bool"
        }
      ],
      "name": "ApprovalForAll",
      "type": "event"
    },
    {
      "anonymous": false,
      "inputs": [
        {
          "indexed": true,
          "internalType": "address",
          "name": "previousOwner",
          "type": "address"
        },
        {
          "indexed": true,
          "internalType": "address",
          "name": "newOwner",
          "type": "address"
        }
      ],
      "name": "OwnershipTransferred",
      "type": "event"
    },
    {
      "anonymous": false,
      "inputs": [
        {
          "indexed": true,
          "internalType": "address",
          "name": "from",
          "type": "address"
        },
        {
          "indexed": true,
          "internalType": "address",
          "name": "to",
          "type": "address"
        },
        {
          "indexed": true,
          "internalType": "uint256",
          "name": "tokenId",
          "type": "uint256"
        }
      ],
      "name": "Transfer",
      "type": "event"
    },
    {
      "inputs": [
        {
          "internalType": "address",
          "name": "to",
          "type": "address"
        },
        {
          "internalType": "uint256",
          "name": "tokenId",
          "type": "uint256"
        }
      ],
      "name": "approve",
      "outputs": [],
      "stateMutability": "nonpayable",
      "type": "function"
    },
    {
      "inputs": [
        {
          "internalType": "address",
          "name": "owner",
          "type": "address"
        }
      ],
      "name": "balanceOf",
      "outputs": [
        {
          "internalType": "uint256",
          "name": "",
          "type": "uint256"
        }
      ],
      "stateMutability": "view",
      "type": "function"
    },
    {
      "inputs": [],
      "name": "communitiesTable",
      "outputs": [
        {
          "internalType": "uint256",
          "name": "id",
          "type": "uint256"
        },
        {
          "internalType": "string",
          "name": "name",
          "type": "string"
        }
      ],
      "stateMutability": "view",
      "type": "function"
    },
    {
      "inputs": [],
      "name": "createCommunitiesTable",
      "outputs": [],
      "stateMutability": "nonpayable",
      "type": "function"
    },
    {
      "inputs": [
        {
          "internalType": "string",
          "name": "_handle",
          "type": "string"
        },
        {
          "components": [
            {
              "internalType": "string",
              "name": "handle",
              "type": "string"
            },
            {
              "internalType": "enum Visibility",
              "name": "visibility",
              "type": "uint8"
            },
            {
              "internalType": "enum Membership",
              "name": "membership",
              "type": "uint8"
            },
            {
              "internalType": "uint128[]",
              "name": "apps",
              "type": "uint128[]"
            }
          ],
          "internalType": "struct CommunityContractData",
          "name": "_communityData",
          "type": "tuple"
        },
        {
          "components": [
            {
              "internalType": "string",
              "name": "handle",
              "type": "string"
            },
            {
              "internalType": "string",
              "name": "name",
              "type": "string"
            },
            {
              "internalType": "string",
              "name": "description",
              "type": "string"
            },
            {
              "internalType": "string",
              "name": "image",
              "type": "string"
            }
          ],
          "internalType": "struct CommunityMetaData",
          "name": "_communityMetaData",
          "type": "tuple"
        }
      ],
      "name": "createCommunity",
      "outputs": [
        {
          "internalType": "uint256",
          "name": "",
          "type": "uint256"
        }
      ],
      "stateMutability": "nonpayable",
      "type": "function"
    },
    {
      "inputs": [
        {
          "internalType": "uint256",
          "name": "tokenId",
          "type": "uint256"
        }
      ],
      "name": "getApproved",
      "outputs": [
        {
          "internalType": "address",
          "name": "",
          "type": "address"
        }
      ],
      "stateMutability": "view",
      "type": "function"
    },
    {
      "inputs": [],
      "name": "getCommunities",
      "outputs": [
        {
          "components": [
            {
              "internalType": "uint256",
              "name": "id",
              "type": "uint256"
            },
            {
              "internalType": "address",
              "name": "contractAddress",
              "type": "address"
            },
            {
              "internalType": "string",
              "name": "handle",
              "type": "string"
            }
          ],
          "internalType": "struct EmbraceCommunities.Community[]",
          "name": "",
          "type": "tuple[]"
        }
      ],
      "stateMutability": "view",
      "type": "function"
    },
    {
      "inputs": [],
      "name": "getTableName",
      "outputs": [
        {
          "internalType": "string",
          "name": "",
          "type": "string"
        }
      ],
      "stateMutability": "view",
      "type": "function"
    },
    {
      "inputs": [
        {
          "internalType": "string",
          "name": "_handle",
          "type": "string"
        }
      ],
      "name": "handleToCommunity",
      "outputs": [
        {
          "components": [
            {
              "internalType": "uint256",
              "name": "id",
              "type": "uint256"
            },
            {
              "internalType": "address",
              "name": "contractAddress",
              "type": "address"
            },
            {
              "internalType": "string",
              "name": "handle",
              "type": "string"
            }
          ],
          "internalType": "struct EmbraceCommunities.Community",
          "name": "_community",
          "type": "tuple"
        }
      ],
      "stateMutability": "view",
      "type": "function"
    },
    {
      "inputs": [
        {
          "internalType": "bytes32",
          "name": "",
          "type": "bytes32"
        }
      ],
      "name": "handleToId",
      "outputs": [
        {
          "internalType": "uint256",
          "name": "",
          "type": "uint256"
        }
      ],
      "stateMutability": "view",
      "type": "function"
    },
    {
      "inputs": [
        {
          "internalType": "uint256",
          "name": "newCommunityId",
          "type": "uint256"
        },
        {
          "components": [
            {
              "internalType": "string",
              "name": "handle",
              "type": "string"
            },
            {
              "internalType": "string",
              "name": "name",
              "type": "string"
            },
            {
              "internalType": "string",
              "name": "description",
              "type": "string"
            },
            {
              "internalType": "string",
              "name": "image",
              "type": "string"
            }
          ],
          "internalType": "struct CommunityMetaData",
          "name": "_communityMetaData",
          "type": "tuple"
        }
      ],
      "name": "insertCommunity",
      "outputs": [],
      "stateMutability": "nonpayable",
      "type": "function"
    },
    {
      "inputs": [
        {
          "internalType": "address",
          "name": "owner",
          "type": "address"
        },
        {
          "internalType": "address",
          "name": "operator",
          "type": "address"
        }
      ],
      "name": "isApprovedForAll",
      "outputs": [
        {
          "internalType": "bool",
          "name": "",
          "type": "bool"
        }
      ],
      "stateMutability": "view",
      "type": "function"
    },
    {
      "inputs": [],
      "name": "name",
      "outputs": [
        {
          "internalType": "string",
          "name": "",
          "type": "string"
        }
      ],
      "stateMutability": "view",
      "type": "function"
    },
    {
      "inputs": [
        {
          "internalType": "address",
          "name": "",
          "type": "address"
        },
        {
          "internalType": "address",
          "name": "",
          "type": "address"
        },
        {
          "internalType": "uint256",
          "name": "",
          "type": "uint256"
        },
        {
          "internalType": "bytes",
          "name": "",
          "type": "bytes"
        }
      ],
      "name": "onERC721Received",
      "outputs": [
        {
          "internalType": "bytes4",
          "name": "",
          "type": "bytes4"
        }
      ],
      "stateMutability": "nonpayable",
      "type": "function"
    },
    {
      "inputs": [],
      "name": "owner",
      "outputs": [
        {
          "internalType": "address",
          "name": "",
          "type": "address"
        }
      ],
      "stateMutability": "view",
      "type": "function"
    },
    {
      "inputs": [
        {
          "internalType": "uint256",
          "name": "tokenId",
          "type": "uint256"
        }
      ],
      "name": "ownerOf",
      "outputs": [
        {
          "internalType": "address",
          "name": "",
          "type": "address"
        }
      ],
      "stateMutability": "view",
      "type": "function"
    },
    {
      "inputs": [],
      "name": "renounceOwnership",
      "outputs": [],
      "stateMutability": "nonpayable",
      "type": "function"
    },
    {
      "inputs": [
        {
          "internalType": "address",
          "name": "from",
          "type": "address"
        },
        {
          "internalType": "address",
          "name": "to",
          "type": "address"
        },
        {
          "internalType": "uint256",
          "name": "tokenId",
          "type": "uint256"
        }
      ],
      "name": "safeTransferFrom",
      "outputs": [],
      "stateMutability": "nonpayable",
      "type": "function"
    },
    {
      "inputs": [
        {
          "internalType": "address",
          "name": "from",
          "type": "address"
        },
        {
          "internalType": "address",
          "name": "to",
          "type": "address"
        },
        {
          "internalType": "uint256",
          "name": "tokenId",
          "type": "uint256"
        },
        {
          "internalType": "bytes",
          "name": "data",
          "type": "bytes"
        }
      ],
      "name": "safeTransferFrom",
      "outputs": [],
      "stateMutability": "nonpayable",
      "type": "function"
    },
    {
      "inputs": [
        {
          "internalType": "address",
          "name": "operator",
          "type": "address"
        },
        {
          "internalType": "bool",
          "name": "approved",
          "type": "bool"
        }
      ],
      "name": "setApprovalForAll",
      "outputs": [],
      "stateMutability": "nonpayable",
      "type": "function"
    },
    {
      "inputs": [
        {
          "internalType": "bytes4",
          "name": "interfaceId",
          "type": "bytes4"
        }
      ],
      "name": "supportsInterface",
      "outputs": [
        {
          "internalType": "bool",
          "name": "",
          "type": "bool"
        }
      ],
      "stateMutability": "view",
      "type": "function"
    },
    {
      "inputs": [],
      "name": "symbol",
      "outputs": [
        {
          "internalType": "string",
          "name": "",
          "type": "string"
        }
      ],
      "stateMutability": "view",
      "type": "function"
    },
    {
      "inputs": [
        {
          "internalType": "uint256",
          "name": "tokenId",
          "type": "uint256"
        }
      ],
      "name": "tokenURI",
      "outputs": [
        {
          "internalType": "string",
          "name": "",
          "type": "string"
        }
      ],
      "stateMutability": "view",
      "type": "function"
    },
    {
      "inputs": [],
      "name": "totalSupply",
      "outputs": [
        {
          "internalType": "uint256",
          "name": "",
          "type": "uint256"
        }
      ],
      "stateMutability": "view",
      "type": "function"
    },
    {
      "inputs": [
        {
          "internalType": "address",
          "name": "from",
          "type": "address"
        },
        {
          "internalType": "address",
          "name": "to",
          "type": "address"
        },
        {
          "internalType": "uint256",
          "name": "tokenId",
          "type": "uint256"
        }
      ],
      "name": "transferFrom",
      "outputs": [],
      "stateMutability": "nonpayable",
      "type": "function"
    },
    {
      "inputs": [
        {
          "internalType": "address",
          "name": "newOwner",
          "type": "address"
        }
      ],
      "name": "transferOwnership",
      "outputs": [],
      "stateMutability": "nonpayable",
      "type": "function"
    }
  ],
  "bytecode": "0x610120604052601360e09081527f656d62726163655f636f6d6d756e697469657300000000000000000000000000610100526009906200004090826200069d565b503480156200004e57600080fd5b50604051620038f2380380620038f283398101604081905262000071916200083d565b848460006200008183826200069d565b5060016200009082826200069d565b505050620000ad620000a76200014660201b60201c565b6200014a565b6001600160a01b03808216608081905283821660a052600a80546001600160a01b0319169091179055831660c052620000e56200019c565b604051600090620000fc90600c90602001620008df565b60405160208183030381529060405290506200013a81604051602001620001249190620009a2565b60408051601f19818403018152919052620003d0565b50505050505062000bf9565b3390565b600780546001600160a01b038381166001600160a01b0319831681179093556040519116919082907f8be0079c531659141344cd1fd0a4f28419497f9722a3daafe3b4186f6b6457e090600090a35050565b600b5415620001cc57604051633e0f514960e01b8152620001c390600c9060040162000a1c565b60405180910390fd5b600a54604080516060810190915260368082526001600160a01b0390921691633a9151b0913091620002a69190620038bc60208301396009805462000211906200060e565b80601f01602080910402602001604051908101604052809291908181526020018280546200023f906200060e565b8015620002905780601f10620002645761010080835404028352916020019162000290565b820191906000526020600020905b8154815290600101906020018083116200027257829003601f168201915b5050505050620003e260201b620011be1760201c565b6040518363ffffffff1660e01b8152600401620002c592919062000aaf565b6020604051808303816000875af1158015620002e5573d6000803e3d6000fd5b505050506040513d601f19601f820116820180604052508101906200030b919062000af3565b600b5560098054620003be919062000323906200060e565b80601f016020809104026020016040519081016040528092919081815260200182805462000351906200060e565b8015620003a25780601f106200037657610100808354040283529160200191620003a2565b820191906000526020600020905b8154815290600101906020018083116200038457829003601f168201915b5050505050600b600001546200042760201b620011f41760201c565b600c90620003cd90826200069d565b50565b600d620003de82826200069d565b5050565b606081620003fb466200046a60201b6200121b1760201c565b84604051602001620004109392919062000b0d565b604051602081830303815290604052905092915050565b60608262000440466200046a60201b6200121b1760201c565b62000456846200046a60201b6200121b1760201c565b604051602001620004109392919062000b99565b6060600062000484836200050e60201b620012ad1760201c565b60010190506000816001600160401b03811115620004a657620004a6620005f8565b6040519080825280601f01601f191660200182016040528015620004d1576020820181803683370190505b5090508181016020015b600019016f181899199a1a9b1b9c1cb0b131b232b360811b600a86061a8153600a8504945084620004db57509392505050565b6000807a184f03e93ff9f4daa797ed6e38ed64bf6a1f010000000000000000831062000558577a184f03e93ff9f4daa797ed6e38ed64bf6a1f010000000000000000830492506040015b6d04ee2d6d415b85acef8100000000831062000585576d04ee2d6d415b85acef8100000000830492506020015b662386f26fc100008310620005a457662386f26fc10000830492506010015b6305f5e1008310620005bd576305f5e100830492506008015b6127108310620005d257612710830492506004015b60648310620005e5576064830492506002015b600a8310620005f2576001015b92915050565b634e487b7160e01b600052604160045260246000fd5b600181811c908216806200062357607f821691505b6020821081036200064457634e487b7160e01b600052602260045260246000fd5b50919050565b601f8211156200069857600081815260208120601f850160051c81016020861015620006735750805b601f850160051c820191505b8181101562000694578281556001016200067f565b5050505b505050565b81516001600160401b03811115620006b957620006b9620005f8565b620006d181620006ca84546200060e565b846200064a565b602080601f831160018114620007095760008415620006f05750858301515b600019600386901b1c1916600185901b17855562000694565b600085815260208120601f198616915b828110156200073a5788860151825594840194600190910190840162000719565b5085821015620007595787850151600019600388901b60f8161c191681555b5050505050600190811b01905550565b60005b83811015620007865781810151838201526020016200076c565b50506000910152565b600082601f830112620007a157600080fd5b81516001600160401b0380821115620007be57620007be620005f8565b604051601f8301601f19908116603f01168101908282118183101715620007e957620007e9620005f8565b816040528381528660208588010111156200080357600080fd5b6200081684602083016020890162000769565b9695505050505050565b80516001600160a01b03811681146200083857600080fd5b919050565b600080600080600060a086880312156200085657600080fd5b85516001600160401b03808211156200086e57600080fd5b6200087c89838a016200078f565b965060208801519150808211156200089357600080fd5b50620008a2888289016200078f565b945050620008b36040870162000820565b9250620008c36060870162000820565b9150620008d36080870162000820565b90509295509295909350565b7f53454c4543542b6d657461646174612b46524f4d2b00000000000000000000008152600060156000845462000915816200060e565b600182811680156200093057600181146200094a576200097f565b60ff1984168887015282151583028801860194506200097f565b8860005260208060002060005b85811015620009745781548b82018a015290840190820162000957565b505050858389010194505b50506d2b57484552452b69642b2533442b60901b83525050600e01949350505050565b7f68747470733a2f2f746573746e6574732e7461626c656c616e642e6e6574776f81527f726b2f71756572793f756e777261703d7472756526657874726163743d7472756020820152636526733d60e01b60408201526000825162000a0f81604485016020870162000769565b9190910160440192915050565b600060208083526000845462000a32816200060e565b8084870152604060018084166000811462000a56576001811462000a715762000aa1565b60ff1985168984015283151560051b89018301955062000aa1565b896000528660002060005b8581101562000a995781548b820186015290830190880162000a7c565b8a0184019650505b509398975050505050505050565b60018060a01b0383168152604060208201526000825180604084015262000ade81606085016020870162000769565b601f01601f1916919091016060019392505050565b60006020828403121562000b0657600080fd5b5051919050565b6c021a922a0aa22902a20a126229609d1b81526000845162000b3781600d85016020890162000769565b605f60f81b600d91840191820152845162000b5a81600e84016020890162000769565b600560fb1b600e9290910191820152835162000b7e81600f84016020880162000769565b602960f81b600f929091019182015260100195945050505050565b6000845162000bad81846020890162000769565b8083019050605f60f81b808252855162000bcf816001850160208a0162000769565b6001920191820152835162000bec81600284016020880162000769565b0160020195945050505050565b60805160a05160c051612c9362000c296000396000610aef0152600061083d015260006108c40152612c936000f3fe608060405234801561001057600080fd5b506004361061013e5760003560e01c806301ffc9a71461014357806306fdde031461016b578063081812fc14610180578063095ea7b3146101a0578063150b7a02146101b557806318160ddd146101e157806323b872dd146101f7578063315ac0581461020a57806342842e0e1461021d5780635d5a33a2146102305780636352211e1461023857806370a082311461024b578063715018a61461025e5780638da5cb5b146102665780638e07fa901461026e57806395d89b4114610281578063a22cb46514610289578063b17588e41461029c578063b4d4b6a0146102bc578063b88d4fde146102c4578063c251b565146102d7578063c25d33c3146102ec578063c87b56dd1461030c578063d35949631461031f578063e985e9c514610335578063f2fde38b14610348575b600080fd5b610156610151366004611ccf565b61035b565b60405190151581526020015b60405180910390f35b6101736103ad565b6040516101629190611d3c565b61019361018e366004611d4f565b61043f565b6040516101629190611d68565b6101b36101ae366004611d93565b610466565b005b6101c86101c3366004611e82565b610580565b6040516001600160e01b03199091168152602001610162565b6101e9610591565b604051908152602001610162565b6101b3610205366004611efd565b6105a1565b6101b3610218366004612011565b6105d2565b6101b361022b366004611efd565b6106c3565b6101736106de565b610193610246366004611d4f565b6106f0565b6101e9610259366004612057565b610724565b6101b36107aa565b6101936107be565b6101e961027c36600461207f565b6107cd565b610173610b96565b6101b36102973660046121fa565b610ba5565b6101e96102aa366004611d4f565b600e6020526000908152604090205481565b6101b3610bb4565b6101b36102d2366004611e82565b610daa565b6102df610de2565b6040516101629190612267565b6102ff6102fa3660046122c9565b610ef3565b60405161016291906122fd565b61017361031a366004611d4f565b611078565b610327611083565b604051610162929190612310565b610156610343366004612329565b61111a565b6101b3610356366004612057565b611148565b60006001600160e01b031982166380ac58cd60e01b148061038c57506001600160e01b03198216635b5e139f60e01b145b806103a757506301ffc9a760e01b6001600160e01b03198316145b92915050565b6060600080546103bc9061235c565b80601f01602080910402602001604051908101604052809291908181526020018280546103e89061235c565b80156104355780601f1061040a57610100808354040283529160200191610435565b820191906000526020600020905b81548152906001019060200180831161041857829003601f168201915b5050505050905090565b600061044a82611383565b506000908152600460205260409020546001600160a01b031690565b6000610471826106f0565b9050806001600160a01b0316836001600160a01b0316036104e35760405162461bcd60e51b815260206004820152602160248201527f4552433732313a20617070726f76616c20746f2063757272656e74206f776e656044820152603960f91b60648201526084015b60405180910390fd5b336001600160a01b03821614806104ff57506104ff813361111a565b6105715760405162461bcd60e51b815260206004820152603d60248201527f4552433732313a20617070726f76652063616c6c6572206973206e6f7420746f60448201527f6b656e206f776e6572206f7220617070726f76656420666f7220616c6c00000060648201526084016104da565b61057b83836113a8565b505050565b630a85bd0160e11b5b949350505050565b600061059c60085490565b905090565b6105ab3382611416565b6105c75760405162461bcd60e51b81526004016104da90612396565b61057b838383611474565b60006105dd8361121b565b90506000826000015183602001518460400151856060015160405160200161060894939291906123ff565b60405160208183030381529060405290506000610625600161121b565b90506000600b60010184848460405160200161064494939291906124d2565b60408051601f1981840301815290829052600a54600b5463757ae82760e11b84529193506001600160a01b03169163eaf5d04e916106899130919086906004016125e2565b600060405180830381600087803b1580156106a357600080fd5b505af11580156106b7573d6000803e3d6000fd5b50505050505050505050565b61057b83838360405180602001604052806000815250610daa565b6060600b60010180546103bc9061235c565b6000806106fc836115d3565b90506001600160a01b0381166103a75760405162461bcd60e51b81526004016104da90612612565b60006001600160a01b03821661078e5760405162461bcd60e51b815260206004820152602960248201527f4552433732313a2061646472657373207a65726f206973206e6f7420612076616044820152683634b21037bbb732b960b91b60648201526084016104da565b506001600160a01b031660009081526003602052604090205490565b6107b26115ee565b6107bc600061164d565b565b6007546001600160a01b031690565b82516020808501919091206000818152600e9092526040822054156108075784604051630b6da56160e21b81526004016104da9190611d3c565b610815600880546001019055565b600061082060085490565b905061082c338261169f565b61083681856105d2565b60006108617f00000000000000000000000000000000000000000000000000000000000000006117a8565b9050806001600160a01b031663f542033f61087b8461121b565b60405160200161088b9190612644565b6040516020818303038152906040526108a38561121b565b6040516020016108b3919061267e565b6040516020818303038152906040527f0000000000000000000000000000000000000000000000000000000000000000866040518563ffffffff1660e01b815260040161090394939291906126b4565b600060405180830381600087803b15801561091d57600080fd5b505af1158015610931573d6000803e3d6000fd5b505060405163adaf1cab60e01b81526001600160a01b038416925063adaf1cab9150610961908990600401612714565b600060405180830381600087803b15801561097b57600080fd5b505af115801561098f573d6000803e3d6000fd5b5050604051631e799a0760e21b81526001600160a01b03841692506379e6681c91506109bf903090600401611d68565b600060405180830381600087803b1580156109d957600080fd5b505af11580156109ed573d6000803e3d6000fd5b5050604080516060810182528581526001600160a01b03858116602083019081529282018c8152600f805460018101825560009190915283517f8d1108e10bcb7c27dddfc02ed9d693a074039d026cf4ea4240b40f7d581ac802600390920291820190815594517f8d1108e10bcb7c27dddfc02ed9d693a074039d026cf4ea4240b40f7d581ac803820180546001600160a01b0319169190941617909255519194508493507f8d1108e10bcb7c27dddfc02ed9d693a074039d026cf4ea4240b40f7d581ac8040190610abf90826127ff565b5050506000848152600e60205260409081902084905551633576860d60e11b8152336004820152602481018490527f00000000000000000000000000000000000000000000000000000000000000006001600160a01b031690636aed0c1a90604401600060405180830381600087803b158015610b3b57600080fd5b505af1158015610b4f573d6000803e3d6000fd5b50505050610b8a60405180604001604052806015815260200174436f6d6d756e69747920437265617465643a20257360581b81525084611842565b50909695505050505050565b6060600180546103bc9061235c565b610bb0338383611887565b5050565b600b5415610bd857604051633e0f514960e01b81526104da90600c906004016128be565b600a54604080516060810190915260368082526001600160a01b0390921691633a9151b0913091610c9c9190612c51602083013960098054610c199061235c565b80601f0160208091040260200160405190810160405280929190818152602001828054610c459061235c565b8015610c925780601f10610c6757610100808354040283529160200191610c92565b820191906000526020600020905b815481529060010190602001808311610c7557829003601f168201915b50505050506111be565b6040518363ffffffff1660e01b8152600401610cb9929190612949565b6020604051808303816000875af1158015610cd8573d6000803e3d6000fd5b505050506040513d601f19601f82011682018060405250810190610cfc919061296d565b600b5560098054610d9a9190610d119061235c565b80601f0160208091040260200160405190810160405280929190818152602001828054610d3d9061235c565b8015610d8a5780601f10610d5f57610100808354040283529160200191610d8a565b820191906000526020600020905b815481529060010190602001808311610d6d57829003601f168201915b5050505050600b600001546111f4565b600c90610da790826127ff565b50565b610db43383611416565b610dd05760405162461bcd60e51b81526004016104da90612396565b610ddc84848484611951565b50505050565b6060600f805480602002602001604051908101604052809291908181526020016000905b82821015610eea57600084815260209081902060408051606081018252600386029092018054835260018101546001600160a01b03169383019390935260028301805492939291840191610e599061235c565b80601f0160208091040260200160405190810160405280929190818152602001828054610e859061235c565b8015610ed25780601f10610ea757610100808354040283529160200191610ed2565b820191906000526020600020905b815481529060010190602001808311610eb557829003601f168201915b50505050508152505081526020019060010190610e06565b50505050905090565b6040805160608082018352600080835260208301529181019190915281516020808401919091206000818152600e90925260408220549091600f610f3860018461299c565b81548110610f4857610f486129af565b9060005260206000209060030201604051806060016040529081600082015481526020016001820160009054906101000a90046001600160a01b03166001600160a01b03166001600160a01b03168152602001600282018054610faa9061235c565b80601f0160208091040260200160405190810160405280929190818152602001828054610fd69061235c565b80156110235780601f10610ff857610100808354040283529160200191611023565b820191906000526020600020905b81548152906001019060200180831161100657829003601f168201915b505050505081525050905080600001516000036105895760405162461bcd60e51b815260206004820152601360248201527210dbdb5b5d5b9a5d1e481b9bdd08199bdd5b99606a1b60448201526064016104da565b60606103a782611984565b600b8054600c80549192916110979061235c565b80601f01602080910402602001604051908101604052809291908181526020018280546110c39061235c565b80156111105780601f106110e557610100808354040283529160200191611110565b820191906000526020600020905b8154815290600101906020018083116110f357829003601f168201915b5050505050905082565b6001600160a01b03918216600090815260056020908152604080832093909416825291909152205460ff1690565b6111506115ee565b6001600160a01b0381166111b55760405162461bcd60e51b815260206004820152602660248201527f4f776e61626c653a206e6577206f776e657220697320746865207a65726f206160448201526564647265737360d01b60648201526084016104da565b610da78161164d565b6060816111ca4661121b565b846040516020016111dd939291906129c5565b604051602081830303815290604052905092915050565b6060826112004661121b565b6112098461121b565b6040516020016111dd93929190612a4b565b60606000611228836112ad565b60010190506000816001600160401b0381111561124757611247611dbd565b6040519080825280601f01601f191660200182016040528015611271576020820181803683370190505b5090508181016020015b600019016f181899199a1a9b1b9c1cb0b131b232b360811b600a86061a8153600a850494508461127b57509392505050565b60008072184f03e93ff9f4daa797ed6e38ed64bf6a1f0160401b83106112ec5772184f03e93ff9f4daa797ed6e38ed64bf6a1f0160401b830492506040015b6904ee2d6d415b85acef8160201b8310611316576904ee2d6d415b85acef8160201b830492506020015b662386f26fc10000831061133457662386f26fc10000830492506010015b6305f5e100831061134c576305f5e100830492506008015b612710831061136057612710830492506004015b60648310611372576064830492506002015b600a83106103a75760010192915050565b61138c81611a7f565b610da75760405162461bcd60e51b81526004016104da90612612565b600081815260046020526040902080546001600160a01b0319166001600160a01b03841690811790915581906113dd826106f0565b6001600160a01b03167f8c5be1e5ebec7d5bd14f71427d1e84f3dd0314c0f7b2291e5b200ac8c7c3b92560405160405180910390a45050565b600080611422836106f0565b9050806001600160a01b0316846001600160a01b031614806114495750611449818561111a565b806105895750836001600160a01b03166114628461043f565b6001600160a01b031614949350505050565b826001600160a01b0316611487826106f0565b6001600160a01b0316146114ad5760405162461bcd60e51b81526004016104da90612aa5565b6001600160a01b03821661150f5760405162461bcd60e51b8152602060048201526024808201527f4552433732313a207472616e7366657220746f20746865207a65726f206164646044820152637265737360e01b60648201526084016104da565b61151c8383836001611a9c565b826001600160a01b031661152f826106f0565b6001600160a01b0316146115555760405162461bcd60e51b81526004016104da90612aa5565b600081815260046020908152604080832080546001600160a01b03199081169091556001600160a01b038781168086526003855283862080546000190190559087168086528386208054600101905586865260029094528285208054909216841790915590518493600080516020612c3183398151915291a4505050565b6000908152600260205260409020546001600160a01b031690565b336115f76107be565b6001600160a01b0316146107bc5760405162461bcd60e51b815260206004820181905260248201527f4f776e61626c653a2063616c6c6572206973206e6f7420746865206f776e657260448201526064016104da565b600780546001600160a01b038381166001600160a01b0319831681179093556040519116919082907f8be0079c531659141344cd1fd0a4f28419497f9722a3daafe3b4186f6b6457e090600090a35050565b6001600160a01b0382166116f55760405162461bcd60e51b815260206004820181905260248201527f4552433732313a206d696e7420746f20746865207a65726f206164647265737360448201526064016104da565b6116fe81611a7f565b1561171b5760405162461bcd60e51b81526004016104da90612aea565b611729600083836001611a9c565b61173281611a7f565b1561174f5760405162461bcd60e51b81526004016104da90612aea565b6001600160a01b038216600081815260036020908152604080832080546001019055848352600290915280822080546001600160a01b031916841790555183929190600080516020612c31833981519152908290a45050565b6000763d602d80600a3d3981f3363d3d373d3d3d363d730000008260601b60e81c176000526e5af43d82803e903d91602b57fd5bf38260781b17602052603760096000f090506001600160a01b03811661183d5760405162461bcd60e51b8152602060048201526016602482015275115490cc4c4d8dce8818dc99585d194819985a5b195960521b60448201526064016104da565b919050565b610bb08282604051602401611858929190612b20565b60408051601f198184030181529190526020810180516001600160e01b0316632d839cb360e21b179052611b24565b816001600160a01b0316836001600160a01b0316036118e45760405162461bcd60e51b815260206004820152601960248201527822a9219b99189d1030b8383937bb32903a379031b0b63632b960391b60448201526064016104da565b6001600160a01b03838116600081815260056020908152604080832094871680845294825291829020805460ff191686151590811790915591519182527f17307eab39ab6107e8899845ad3d59bd9653f200f220920489ca2b5937696c31910160405180910390a3505050565b61195c848484611474565b61196884848484611b45565b610ddc5760405162461bcd60e51b81526004016104da90612b42565b606061198f82611383565b600082815260066020526040812080546119a89061235c565b80601f01602080910402602001604051908101604052809291908181526020018280546119d49061235c565b8015611a215780601f106119f657610100808354040283529160200191611a21565b820191906000526020600020905b815481529060010190602001808311611a0457829003601f168201915b505050505090506000611a32611c43565b90508051600003611a44575092915050565b815115611a76578082604051602001611a5e929190612b94565b60405160208183030381529060405292505050919050565b61058984611c52565b600080611a8b836115d3565b6001600160a01b0316141592915050565b6001811115610ddc576001600160a01b03841615611ae2576001600160a01b03841660009081526003602052604081208054839290611adc90849061299c565b90915550505b6001600160a01b03831615610ddc576001600160a01b03831660009081526003602052604081208054839290611b19908490612bc3565b909155505050505050565b80516a636f6e736f6c652e6c6f67602083016000808483855afa5050505050565b60006001600160a01b0384163b15611c3b57604051630a85bd0160e11b81526001600160a01b0385169063150b7a0290611b89903390899088908890600401612bd6565b6020604051808303816000875af1925050508015611bc4575060408051601f3d908101601f19168201909252611bc191810190612c13565b60015b611c21573d808015611bf2576040519150601f19603f3d011682016040523d82523d6000602084013e611bf7565b606091505b508051600003611c195760405162461bcd60e51b81526004016104da90612b42565b805181602001fd5b6001600160e01b031916630a85bd0160e11b149050610589565b506001610589565b6060600d80546103bc9061235c565b6060611c5d82611383565b6000611c67611c43565b90506000815111611c875760405180602001604052806000815250611cb2565b80611c918461121b565b604051602001611ca2929190612b94565b6040516020818303038152906040525b9392505050565b6001600160e01b031981168114610da757600080fd5b600060208284031215611ce157600080fd5b8135611cb281611cb9565b60005b83811015611d07578181015183820152602001611cef565b50506000910152565b60008151808452611d28816020860160208601611cec565b601f01601f19169290920160200192915050565b602081526000611cb26020830184611d10565b600060208284031215611d6157600080fd5b5035919050565b6001600160a01b0391909116815260200190565b80356001600160a01b038116811461183d57600080fd5b60008060408385031215611da657600080fd5b611daf83611d7c565b946020939093013593505050565b634e487b7160e01b600052604160045260246000fd5b604051608081016001600160401b0381118282101715611df557611df5611dbd565b60405290565b604051601f8201601f191681016001600160401b0381118282101715611e2357611e23611dbd565b604052919050565b60006001600160401b03831115611e4457611e44611dbd565b611e57601f8401601f1916602001611dfb565b9050828152838383011115611e6b57600080fd5b828260208301376000602084830101529392505050565b60008060008060808587031215611e9857600080fd5b611ea185611d7c565b9350611eaf60208601611d7c565b92506040850135915060608501356001600160401b03811115611ed157600080fd5b8501601f81018713611ee257600080fd5b611ef187823560208401611e2b565b91505092959194509250565b600080600060608486031215611f1257600080fd5b611f1b84611d7c565b9250611f2960208501611d7c565b9150604084013590509250925092565b600082601f830112611f4a57600080fd5b611cb283833560208501611e2b565b600060808284031215611f6b57600080fd5b611f73611dd3565b905081356001600160401b0380821115611f8c57600080fd5b611f9885838601611f39565b83526020840135915080821115611fae57600080fd5b611fba85838601611f39565b60208401526040840135915080821115611fd357600080fd5b611fdf85838601611f39565b60408401526060840135915080821115611ff857600080fd5b5061200584828501611f39565b60608301525092915050565b6000806040838503121561202457600080fd5b8235915060208301356001600160401b0381111561204157600080fd5b61204d85828601611f59565b9150509250929050565b60006020828403121561206957600080fd5b611cb282611d7c565b60028110610da757600080fd5b60008060006060848603121561209457600080fd5b83356001600160401b03808211156120ab57600080fd5b6120b787838801611f39565b94506020915081860135818111156120ce57600080fd5b8601608081890312156120e057600080fd5b6120e8611dd3565b8135838111156120f757600080fd5b6121038a828501611f39565b8252508382013561211381612072565b81850152604082013561212581612072565b604082015260608201358381111561213c57600080fd5b80830192505088601f83011261215157600080fd5b81358381111561216357612163611dbd565b8060051b612172868201611dfb565b918252838101860191868101908c84111561218c57600080fd5b948701945b838610156121c357853592506001600160801b03831683146121b35760008081fd5b8282529487019490870190612191565b60608501525091965050505060408601359150808211156121e357600080fd5b506121f086828701611f59565b9150509250925092565b6000806040838503121561220d57600080fd5b61221683611d7c565b91506020830135801515811461222b57600080fd5b809150509250929050565b8051825260018060a01b03602082015116602083015260006040820151606060408501526105896060850182611d10565b6000602080830181845280855180835260408601915060408160051b870101925083870160005b828110156122bc57603f198886030184526122aa858351612236565b9450928501929085019060010161228e565b5092979650505050505050565b6000602082840312156122db57600080fd5b81356001600160401b038111156122f157600080fd5b61058984828501611f39565b602081526000611cb26020830184612236565b8281526040602082015260006105896040830184611d10565b6000806040838503121561233c57600080fd5b61234583611d7c565b915061235360208401611d7c565b90509250929050565b600181811c9082168061237057607f821691505b60208210810361239057634e487b7160e01b600052602260045260246000fd5b50919050565b6020808252602d908201527f4552433732313a2063616c6c6572206973206e6f7420746f6b656e206f776e6560408201526c1c881bdc88185c1c1c9bdd9959609a1b606082015260800190565b600081516123f5818560208601611cec565b9290920192915050565b6b3d913430b7323632911d101160a11b8152845160009061242781600c850160208a01611cec565b6b111610113730b6b2911d101160a11b600c918401918201528551612453816018840160208a01611cec565b72111610113232b9b1b934b83a34b7b7111d101160691b60189290910191820152845161248781602b840160208901611cec565b6c1116101134b6b0b3b2911d101160991b602b929091019182015283516124b5816038840160208801611cec565b61227d60f01b60389290910191820152603a019695505050505050565b6b024a729a2a92a1024a72a27960a51b81526000600c600087546124f58161235c565b6001828116801561250d576001811461252657612559565b60ff198416888701528215158302880186019450612559565b8b60005260208060002060005b8581101561254e5781548b82018a0152908401908201612533565b505050858389010194505b50507f202869642c206d657461646174612c20696e6465786564292056414c5545532083525050600560fb1b602082015261259760218201886123e3565b9150506125a881612c2760f01b9052565b6125b560028201866123e3565b6109cb60f21b815290506125cc60028201856123e3565b61293b60f01b8152600201979650505050505050565b60018060a01b03841681528260208201526060604082015260006126096060830184611d10565b95945050505050565b602080825260189082015277115490cdcc8c4e881a5b9d985b1a59081d1bdad95b88125160421b604082015260600190565b71022a6a12920a1a2afa1a7a6a6af98171899160751b815260008251612671816012850160208701611cec565b9190910160120192915050565b6d022a6a12fa1a7a6a6af98171899160951b8152600082516126a781600e850160208701611cec565b91909101600e0192915050565b6080815260006126c76080830187611d10565b82810360208401526126d98187611d10565b6001600160a01b0395909516604084015250506060015292915050565b60028110610da757634e487b7160e01b600052602160045260246000fd5b60006020808352835160808285015261273060a0850182611d10565b90508185015161273f816126f6565b806040860152506040850151612754816126f6565b606085810191909152850151848203601f19016080860152805180835290830191600091908401905b808310156127a65783516001600160801b0316825292840192600192909201919084019061277d565b509695505050505050565b601f82111561057b57600081815260208120601f850160051c810160208610156127d85750805b601f850160051c820191505b818110156127f7578281556001016127e4565b505050505050565b81516001600160401b0381111561281857612818611dbd565b61282c81612826845461235c565b846127b1565b602080601f83116001811461286157600084156128495750858301515b600019600386901b1c1916600185901b1785556127f7565b600085815260208120601f198616915b8281101561289057888601518255948401946001909101908401612871565b50858210156128ae5787850151600019600388901b60f8161c191681555b5050505050600190811b01905550565b60006020808352600084546128d28161235c565b808487015260406001808416600081146128f3576001811461290d5761293b565b60ff1985168984015283151560051b89018301955061293b565b896000528660002060005b858110156129335781548b8201860152908301908801612918565b8a0184019650505b509398975050505050505050565b6001600160a01b038316815260406020820181905260009061058990830184611d10565b60006020828403121561297f57600080fd5b5051919050565b634e487b7160e01b600052601160045260246000fd5b818103818111156103a7576103a7612986565b634e487b7160e01b600052603260045260246000fd5b6c021a922a0aa22902a20a126229609d1b8152600084516129ed81600d850160208901611cec565b605f60f81b600d918401918201528451612a0e81600e840160208901611cec565b600560fb1b600e92909101918201528351612a3081600f840160208801611cec565b602960f81b600f929091019182015260100195945050505050565b60008451612a5d818460208901611cec565b8083019050605f60f81b8082528551612a7d816001850160208a01611cec565b60019201918201528351612a98816002840160208801611cec565b0160020195945050505050565b60208082526025908201527f4552433732313a207472616e736665722066726f6d20696e636f72726563742060408201526437bbb732b960d91b606082015260800190565b6020808252601c908201527b115490cdcc8c4e881d1bdad95b88185b1c9958591e481b5a5b9d195960221b604082015260600190565b604081526000612b336040830185611d10565b90508260208301529392505050565b60208082526032908201527f4552433732313a207472616e7366657220746f206e6f6e20455243373231526560408201527131b2b4bb32b91034b6b83632b6b2b73a32b960711b606082015260800190565b60008351612ba6818460208801611cec565b835190830190612bba818360208801611cec565b01949350505050565b808201808211156103a7576103a7612986565b6001600160a01b0385811682528416602082015260408101839052608060608201819052600090612c0990830184611d10565b9695505050505050565b600060208284031215612c2557600080fd5b8151611cb281611cb956feddf252ad1be2c89b69c2b068fc378daa952ba7f163c4a11628f55a4df523b3ef696420696e7465676572207072696d617279206b65792c206d6574616461746120746578742c20696e646578656420696e7465676572a164736f6c6343000811000a696420696e7465676572207072696d617279206b65792c206d6574616461746120746578742c20696e646578656420696e7465676572",
  "linkReferences": {},
  "deployedLinkReferences": {}
}