{
  "_format": "hh-sol-artifact-1",
  "contractName": "EmbraceCommunities",
  "sourceName": "contracts/EmbraceCommunities.sol",
  "abi": [
    {
      "inputs": [
        {
          "internalType": "string",
          "name": "_name",
          "type": "string"
        },
        {
          "internalType": "string",
          "name": "_symbol",
          "type": "string"
        },
        {
          "internalType": "address",
          "name": "_accountsContractAddress",
          "type": "address"
        },
        {
          "internalType": "address",
          "name": "_tablelandRegistryAddress",
          "type": "address"
        }
      ],
      "stateMutability": "nonpayable",
      "type": "constructor"
    },
    {
      "inputs": [
        {
          "internalType": "string",
          "name": "tableName",
          "type": "string"
        }
      ],
      "name": "ErrorTableExists",
      "type": "error"
    },
    {
      "anonymous": false,
      "inputs": [
        {
          "indexed": true,
          "internalType": "address",
          "name": "owner",
          "type": "address"
        },
        {
          "indexed": true,
          "internalType": "address",
          "name": "approved",
          "type": "address"
        },
        {
          "indexed": true,
          "internalType": "uint256",
          "name": "tokenId",
          "type": "uint256"
        }
      ],
      "name": "Approval",
      "type": "event"
    },
    {
      "anonymous": false,
      "inputs": [
        {
          "indexed": true,
          "internalType": "address",
          "name": "owner",
          "type": "address"
        },
        {
          "indexed": true,
          "internalType": "address",
          "name": "operator",
          "type": "address"
        },
        {
          "indexed": false,
          "internalType": "bool",
          "name": "approved",
          "type": "bool"
        }
      ],
      "name": "ApprovalForAll",
      "type": "event"
    },
    {
      "anonymous": false,
      "inputs": [
        {
          "indexed": true,
          "internalType": "address",
          "name": "previousOwner",
          "type": "address"
        },
        {
          "indexed": true,
          "internalType": "address",
          "name": "newOwner",
          "type": "address"
        }
      ],
      "name": "OwnershipTransferred",
      "type": "event"
    },
    {
      "anonymous": false,
      "inputs": [
        {
          "indexed": true,
          "internalType": "address",
          "name": "from",
          "type": "address"
        },
        {
          "indexed": true,
          "internalType": "address",
          "name": "to",
          "type": "address"
        },
        {
          "indexed": true,
          "internalType": "uint256",
          "name": "tokenId",
          "type": "uint256"
        }
      ],
      "name": "Transfer",
      "type": "event"
    },
    {
      "inputs": [
        {
          "internalType": "address",
          "name": "to",
          "type": "address"
        },
        {
          "internalType": "uint256",
          "name": "tokenId",
          "type": "uint256"
        }
      ],
      "name": "approve",
      "outputs": [],
      "stateMutability": "nonpayable",
      "type": "function"
    },
    {
      "inputs": [
        {
          "internalType": "address",
          "name": "owner",
          "type": "address"
        }
      ],
      "name": "balanceOf",
      "outputs": [
        {
          "internalType": "uint256",
          "name": "",
          "type": "uint256"
        }
      ],
      "stateMutability": "view",
      "type": "function"
    },
    {
      "inputs": [
        {
          "internalType": "uint256",
          "name": "",
          "type": "uint256"
        }
      ],
      "name": "communities",
      "outputs": [
        {
          "internalType": "uint256",
          "name": "id",
          "type": "uint256"
        },
        {
          "internalType": "address",
          "name": "contractAddress",
          "type": "address"
        },
        {
          "internalType": "string",
          "name": "handle",
          "type": "string"
        }
      ],
      "stateMutability": "view",
      "type": "function"
    },
    {
      "inputs": [],
      "name": "communitiesTableId",
      "outputs": [
        {
          "internalType": "uint256",
          "name": "",
          "type": "uint256"
        }
      ],
      "stateMutability": "view",
      "type": "function"
    },
    {
      "inputs": [],
      "name": "communitiesTableName",
      "outputs": [
        {
          "internalType": "string",
          "name": "",
          "type": "string"
        }
      ],
      "stateMutability": "view",
      "type": "function"
    },
    {
      "inputs": [],
      "name": "communitiesTablePrefix",
      "outputs": [
        {
          "internalType": "string",
          "name": "",
          "type": "string"
        }
      ],
      "stateMutability": "view",
      "type": "function"
    },
    {
      "inputs": [],
      "name": "createCommunitiesTable",
      "outputs": [],
      "stateMutability": "nonpayable",
      "type": "function"
    },
    {
      "inputs": [
        {
          "internalType": "string",
          "name": "_handle",
          "type": "string"
        },
        {
          "components": [
            {
              "internalType": "string",
              "name": "handle",
              "type": "string"
            },
            {
              "internalType": "enum Visibility",
              "name": "visibility",
              "type": "uint8"
            },
            {
              "internalType": "enum Membership",
              "name": "membership",
              "type": "uint8"
            },
            {
              "internalType": "uint128[]",
              "name": "apps",
              "type": "uint128[]"
            }
          ],
          "internalType": "struct CommunityContractData",
          "name": "_communityData",
          "type": "tuple"
        },
        {
          "components": [
            {
              "internalType": "string",
              "name": "handle",
              "type": "string"
            },
            {
              "internalType": "string",
              "name": "name",
              "type": "string"
            },
            {
              "internalType": "string",
              "name": "description",
              "type": "string"
            },
            {
              "internalType": "string",
              "name": "image",
              "type": "string"
            }
          ],
          "internalType": "struct EmbraceCommunities.CommunityMetaData",
          "name": "_communityMetaData",
          "type": "tuple"
        }
      ],
      "name": "createCommunity",
      "outputs": [
        {
          "internalType": "uint256",
          "name": "",
          "type": "uint256"
        }
      ],
      "stateMutability": "nonpayable",
      "type": "function"
    },
    {
      "inputs": [
        {
          "internalType": "uint256",
          "name": "tokenId",
          "type": "uint256"
        }
      ],
      "name": "getApproved",
      "outputs": [
        {
          "internalType": "address",
          "name": "",
          "type": "address"
        }
      ],
      "stateMutability": "view",
      "type": "function"
    },
    {
      "inputs": [],
      "name": "getCommunities",
      "outputs": [
        {
          "components": [
            {
              "internalType": "uint256",
              "name": "id",
              "type": "uint256"
            },
            {
              "internalType": "address",
              "name": "contractAddress",
              "type": "address"
            },
            {
              "internalType": "string",
              "name": "handle",
              "type": "string"
            }
          ],
          "internalType": "struct EmbraceCommunities.Community[]",
          "name": "",
          "type": "tuple[]"
        }
      ],
      "stateMutability": "view",
      "type": "function"
    },
    {
      "inputs": [],
      "name": "getTableName",
      "outputs": [
        {
          "internalType": "string",
          "name": "",
          "type": "string"
        }
      ],
      "stateMutability": "view",
      "type": "function"
    },
    {
      "inputs": [
        {
          "internalType": "string",
          "name": "_handle",
          "type": "string"
        }
      ],
      "name": "handleToCommunity",
      "outputs": [
        {
          "components": [
            {
              "internalType": "uint256",
              "name": "id",
              "type": "uint256"
            },
            {
              "internalType": "address",
              "name": "contractAddress",
              "type": "address"
            },
            {
              "internalType": "string",
              "name": "handle",
              "type": "string"
            }
          ],
          "internalType": "struct EmbraceCommunities.Community",
          "name": "_community",
          "type": "tuple"
        }
      ],
      "stateMutability": "view",
      "type": "function"
    },
    {
      "inputs": [
        {
          "internalType": "bytes32",
          "name": "",
          "type": "bytes32"
        }
      ],
      "name": "handleToId",
      "outputs": [
        {
          "internalType": "uint256",
          "name": "",
          "type": "uint256"
        }
      ],
      "stateMutability": "view",
      "type": "function"
    },
    {
      "inputs": [
        {
          "internalType": "address",
          "name": "owner",
          "type": "address"
        },
        {
          "internalType": "address",
          "name": "operator",
          "type": "address"
        }
      ],
      "name": "isApprovedForAll",
      "outputs": [
        {
          "internalType": "bool",
          "name": "",
          "type": "bool"
        }
      ],
      "stateMutability": "view",
      "type": "function"
    },
    {
      "inputs": [],
      "name": "name",
      "outputs": [
        {
          "internalType": "string",
          "name": "",
          "type": "string"
        }
      ],
      "stateMutability": "view",
      "type": "function"
    },
    {
      "inputs": [
        {
          "internalType": "address",
          "name": "",
          "type": "address"
        },
        {
          "internalType": "address",
          "name": "",
          "type": "address"
        },
        {
          "internalType": "uint256",
          "name": "",
          "type": "uint256"
        },
        {
          "internalType": "bytes",
          "name": "",
          "type": "bytes"
        }
      ],
      "name": "onERC721Received",
      "outputs": [
        {
          "internalType": "bytes4",
          "name": "",
          "type": "bytes4"
        }
      ],
      "stateMutability": "nonpayable",
      "type": "function"
    },
    {
      "inputs": [],
      "name": "owner",
      "outputs": [
        {
          "internalType": "address",
          "name": "",
          "type": "address"
        }
      ],
      "stateMutability": "view",
      "type": "function"
    },
    {
      "inputs": [
        {
          "internalType": "uint256",
          "name": "tokenId",
          "type": "uint256"
        }
      ],
      "name": "ownerOf",
      "outputs": [
        {
          "internalType": "address",
          "name": "",
          "type": "address"
        }
      ],
      "stateMutability": "view",
      "type": "function"
    },
    {
      "inputs": [],
      "name": "renounceOwnership",
      "outputs": [],
      "stateMutability": "nonpayable",
      "type": "function"
    },
    {
      "inputs": [
        {
          "internalType": "address",
          "name": "from",
          "type": "address"
        },
        {
          "internalType": "address",
          "name": "to",
          "type": "address"
        },
        {
          "internalType": "uint256",
          "name": "tokenId",
          "type": "uint256"
        }
      ],
      "name": "safeTransferFrom",
      "outputs": [],
      "stateMutability": "nonpayable",
      "type": "function"
    },
    {
      "inputs": [
        {
          "internalType": "address",
          "name": "from",
          "type": "address"
        },
        {
          "internalType": "address",
          "name": "to",
          "type": "address"
        },
        {
          "internalType": "uint256",
          "name": "tokenId",
          "type": "uint256"
        },
        {
          "internalType": "bytes",
          "name": "data",
          "type": "bytes"
        }
      ],
      "name": "safeTransferFrom",
      "outputs": [],
      "stateMutability": "nonpayable",
      "type": "function"
    },
    {
      "inputs": [
        {
          "internalType": "address",
          "name": "operator",
          "type": "address"
        },
        {
          "internalType": "bool",
          "name": "approved",
          "type": "bool"
        }
      ],
      "name": "setApprovalForAll",
      "outputs": [],
      "stateMutability": "nonpayable",
      "type": "function"
    },
    {
      "inputs": [
        {
          "internalType": "bytes4",
          "name": "interfaceId",
          "type": "bytes4"
        }
      ],
      "name": "supportsInterface",
      "outputs": [
        {
          "internalType": "bool",
          "name": "",
          "type": "bool"
        }
      ],
      "stateMutability": "view",
      "type": "function"
    },
    {
      "inputs": [],
      "name": "symbol",
      "outputs": [
        {
          "internalType": "string",
          "name": "",
          "type": "string"
        }
      ],
      "stateMutability": "view",
      "type": "function"
    },
    {
      "inputs": [
        {
          "internalType": "uint256",
          "name": "tokenId",
          "type": "uint256"
        }
      ],
      "name": "tokenURI",
      "outputs": [
        {
          "internalType": "string",
          "name": "",
          "type": "string"
        }
      ],
      "stateMutability": "view",
      "type": "function"
    },
    {
      "inputs": [
        {
          "internalType": "address",
          "name": "from",
          "type": "address"
        },
        {
          "internalType": "address",
          "name": "to",
          "type": "address"
        },
        {
          "internalType": "uint256",
          "name": "tokenId",
          "type": "uint256"
        }
      ],
      "name": "transferFrom",
      "outputs": [],
      "stateMutability": "nonpayable",
      "type": "function"
    },
    {
      "inputs": [
        {
          "internalType": "address",
          "name": "newOwner",
          "type": "address"
        }
      ],
      "name": "transferOwnership",
      "outputs": [],
      "stateMutability": "nonpayable",
      "type": "function"
    }
  ],
  "bytecode": "0x608060409080825234620009ed576200633b8038038091620000228285620009f2565b8339810190608081830312620009ed5780516001600160401b0390818111620009ed57836200005391840162000a57565b916020938482015190838211620009ed576200007191830162000a57565b936200008d60606200008588850162000aa4565b930162000aa4565b92845194818611620009d75760009580620000a9885462000ab9565b92601f93848111620009a7575b5085908483116001146200093f57899262000933575b50508160011b916000199060031b1c19161786555b86518281116200091f5780600198620000fb8a5462000ab9565b848111620008ef575b5085908483116001146200088b5789926200087f575b5050600019600383901b1c191690881b1787555b600780546001600160a01b031980821633908117909355976001600160a01b03979092889283167f8be0079c531659141344cd1fd0a4f28419497f9722a3daafe3b4186f6b6457e08580a362000186600f5462000ab9565b8481116200085e575b5060267f656d62726163655f636f6d6d756e69746965730000000000000000000000000001600f5516876009541617600955885193898186017f53454c4543542b636f6d6d756e69747949642532432b6d657461646174612b46815263524f4d2b60e01b828801528396600d978c8954836200020b8262000ab9565b9282169182156200083b575050600114620007f2575b50601782827f2b57484552452b636f6d6d756e69747949642b2533442b0000000000000000006200025d945203600819810184520182620009f2565b466104710362000762576057837f61703d7472756526657874726163743d7472756526733d00000000000000000093620002d3620002e494620002ea97519687947f687474703a2f2f6c6f63616c686f73743a383038302f71756572793f756e77728b8701528501525180928585019062000a32565b8101036037810184520182620009f2565b62000d1a565b600e54620006ae5786600954168a519060608201828110878211176200069a57918386928e969594875260368352818301907f696420696e7465676572207072696d617279206b65792c206d6574616461746182528784017f20746578742c20696e646578656420696e746567657200000000000000000000905287519788620003748162000b0f565b0362000381908a620009f2565b6200038c4662000b9a565b9481519384918683019b6c021a922a0aa22902a20a126229609d1b8d528051908189602d8701920191620003c09262000a32565b830197605f60f81b9889602d820152815191828a602e8401920191620003e69262000a32565b0190602e8201600560fb1b9052519182602f8301620004059262000a32565b01602f8101602960f81b905203601081018452603001620004279084620009f2565b878151809a819582946303a9151b60e41b84523060048501526024840152519081604484015281606484016200045d9262000a32565b601f199889910116810103606401925af194851562000690578d9085966200064b575b506200051e9160229187600e55805191620004a883620004a08162000b0f565b0384620009f2565b620004be620004b74662000b9a565b9962000b9a565b91519883620004d78b955180928b808901910162000a32565b84018289820152620004f3825180938b60218501910162000a32565b019060218201526200050e8251809389878501910162000a32565b01036002810187520185620009f2565b835195861162000637579085949392916200053a885462000ab9565b858111620005fc575b508194861160011462000598575050926200058c575b5050600019600383901b1c191690861b1790555b1690601054161760105560085401600855516154ed908162000e4e8239f35b01519050388062000559565b8783528183208c97909594939116915b828210620005e25750508411620005c8575b505050811b0190556200056d565b015160001960f88460031b161c19169055388080620005ba565b8484015186558c97909501949384019390810190620005a8565b620006269089855283852087808a0160051c820192868b106200062d575b0160051c019062000af6565b3862000543565b925081926200061a565b634e487b7160e01b83526041600452602483fd5b84809697508193949592503d831162000688575b6200066b8183620009f2565b81010312620006845751939291908c6200051e62000480565b8480fd5b503d6200065f565b8d513d86823e3d90fd5b634e487b7160e01b85526041600452602485fd5b8882868c51938493633e0f514960e01b855281600486015283835493620006d58562000ab9565b9485602489015283811690816000146200073d5750600114620006f9575b86860387fd5b81528281209594509291905b828410620007235750505081604492935001018380808080620006f3565b855487850160440152948501948694509281019262000705565b9450505050506044925060ff191682840152151560051b8201018380808080620006f3565b6064837f726b2f71756572793f756e777261703d7472756526657874726163743d74727593620007db620002e494620007ec97519687947f68747470733a2f2f746573746e6574732e7461626c656c616e642e6e6574776f8b870152850152636526733d60e01b60608501525180928585019062000a32565b8101036044810184520182620009f2565b620002ea565b90508886528c858088209188925b8484106200081957505050508101604401601762000221565b8091929394959697505460448588010152019101858f959493928f9062000800565b60ff19166044828101919091528315159093020190910191506017905062000221565b600f84528684206200087891860160051c81019062000af6565b386200018f565b0151905038806200011a565b8a8a52868a208b94509190601f1984168b5b89828210620008d85750508411620008be575b505050811b0187556200012e565b015160001960f88460031b161c19169055388080620008b0565b8385015186558e979095019493840193016200089d565b62000918908b8b52878b208680860160051c8201928a87106200062d570160051c019062000af6565b3862000104565b634e487b7160e01b87526041600452602487fd5b015190503880620000cc565b898052868a209250601f1984168a5b888282106200099057505090846001959493921062000976575b505050811b018655620000e1565b015160001960f88460031b161c1916905538808062000968565b60018596829396860151815501950193016200094e565b620009d0908a8052878b208680860160051c8201928a87106200062d570160051c019062000af6565b38620000b6565b634e487b7160e01b600052604160045260246000fd5b600080fd5b601f909101601f19168101906001600160401b03821190821017620009d757604052565b6001600160401b038111620009d757601f01601f191660200190565b60005b83811062000a465750506000910152565b818101518382015260200162000a35565b81601f82011215620009ed57805162000a708162000a16565b9262000a806040519485620009f2565b81845260208284010111620009ed5762000aa1916020808501910162000a32565b90565b51906001600160a01b0382168203620009ed57565b90600182811c9216801562000aeb575b602083101462000ad557565b634e487b7160e01b600052602260045260246000fd5b91607f169162000ac9565b81811062000b02575050565b6000815560010162000af6565b600f546000929162000b218262000ab9565b90818152600192838116908160001462000b7f575060011462000b4357505050565b90929350600f6000526020928360002092846000945b83861062000b6a5750505050010190565b80548587018301529401938590820162000b59565b91935050602093945060ff191683830152151560051b010190565b806000917a184f03e93ff9f4daa797ed6e38ed64bf6a1f0100000000000000008082101562000d0b575b506d04ee2d6d415b85acef81000000008083101562000cfb575b50662386f26fc100008083101562000ceb575b506305f5e1008083101562000cdb575b506127108083101562000ccb575b50606482101562000cba575b600a8092101562000caf575b6001908160218186019562000c3c8762000a16565b9662000c4c6040519889620009f2565b80885262000c5d601f199162000a16565b01366020890137860101905b62000c76575b5050505090565b600019019083906f181899199a1a9b1b9c1cb0b131b232b360811b8282061a83530491821562000ca95791908262000c69565b62000c6f565b916001019162000c27565b919060646002910491019162000c1b565b6004919392049101913862000c0f565b6008919392049101913862000c01565b6010919392049101913862000bf1565b6020919392049101913862000bde565b60409350810491503862000bc4565b80519091906001600160401b038111620009d75762000d3b600a5462000ab9565b601f811162000dee575b50602080601f831160011462000d85575081929360009262000d79575b50508160011b916000199060031b1c191617600a55565b01519050388062000d62565b90601f19831694600a60005282600020926000905b87821062000dd557505083600195961062000dbb575b505050811b01600a55565b015160001960f88460031b161c1916905538808062000db0565b8060018596829496860151815501950193019062000d9a565b600a60005262000e3b907fc65a7bb8d6351c1cf70c95a316cc6a92839c986682d98bc35f958f4883f9d2a8601f840160051c8101916020851062000e42575b601f0160051c019062000af6565b3862000d45565b909150819062000e2d56fe6080604052600436101562000014575b600080fd5b60003560e01c806301ffc9a7146200027f57806306fdde031462000274578063081812fc1462000269578063095ea7b3146200025e578063150b7a02146200025357806323b872dd146200024857806342842e0e146200023d5780635c7bc4c214620002325780635d5a33a214620002275780636352211e146200021c57806370a082311462000211578063715018a614620002065780638da5cb5b14620001fb5780638e07fa9014620001f057806393fcf4a614620001e557806395d89b4114620001da578063a22cb46514620001cf578063b17588e414620001c4578063b4d4b6a014620001b9578063b88d4fde14620001ae578063bd978da114620001a3578063c251b5651462000198578063c25d33c3146200018d578063c87b56dd1462000182578063e590b56a1462000177578063e985e9c5146200016c5763f2fde38b146200016257600080fd5b6200000f62001673565b506200000f62001614565b506200000f62001593565b506200000f62001511565b506200000f62001421565b506200000f62001317565b506200000f62001244565b506200000f62001224565b506200000f62001104565b506200000f620010d5565b506200000f62000ff5565b506200000f62000f61565b506200000f62000ebf565b506200000f62000b19565b506200000f620009ff565b506200000f620009ad565b506200000f62000905565b506200000f620008e2565b506200000f62000840565b506200000f6200081f565b506200000f620007ef565b506200000f620007bc565b506200000f6200075d565b506200000f620004ae565b506200000f62000462565b506200000f62000382565b506200000f6200029d565b6001600160e01b03198116036200000f57565b50346200000f5760203660031901126200000f576020600435620002c1816200028a565b63ffffffff60e01b166380ac58cd60e01b811490811562000302575b8115620002f0575b506040519015158152f35b6301ffc9a760e01b14905038620002e5565b635b5e139f60e01b81149150620002dd565b60009103126200000f57565b60005b838110620003345750506000910152565b818101518382015260200162000323565b90602091620003608151809281855285808601910162000320565b601f01601f1916010190565b9060206200037f92818152019062000345565b90565b50346200000f576000806003193601126200045357604051818054620003a88162000ca3565b80845290600190818116908115620004285750600114620003e8575b620003e484620003d78188038262000645565b604051918291826200036c565b0390f35b93508180526020938483205b828410620004145750505081620003e493620003d79282010193620003c4565b8054858501870152928501928101620003f4565b620003e49650620003d79450602092508593915060ff191682840152151560051b82010193620003c4565b80fd5b6001600160a01b031690565b50346200000f5760203660031901126200000f57602062000485600435620018b6565b6040516001600160a01b039091168152f35b600435906001600160a01b03821682036200000f57565b50346200000f5760403660031901126200000f57620004cc62000497565b602435620004da816200181e565b916001600160a01b0380841690821681146200054c5762000512936200050c91331490811562000514575b5062001843565b62001bbf565b005b6001600160a01b031660009081526005602052604090206200054591506200053e903390620017bf565b5460ff1690565b3862000505565b60405162461bcd60e51b815260206004820152602160248201527f4552433732313a20617070726f76616c20746f2063757272656e74206f776e656044820152603960f91b6064820152608490fd5b50634e487b7160e01b600052604160045260246000fd5b608081019081106001600160401b03821117620005ce57604052565b620005d86200059b565b604052565b606081019081106001600160401b03821117620005ce57604052565b6001600160401b038111620005ce57604052565b602081019081106001600160401b03821117620005ce57604052565b604081019081106001600160401b03821117620005ce57604052565b601f909101601f19168101906001600160401b03821190821017620005ce57604052565b604051906200067882620005b2565b565b604051906200067882620005dd565b6020906001600160401b038111620006a7575b601f01601f19160190565b620006b16200059b565b6200069c565b929192620006c58262000689565b91620006d5604051938462000645565b8294818452818301116200000f578281602093846000960137010152565b9060806003198301126200000f576001600160a01b039160043583811681036200000f579260243590811681036200000f579160443591606435906001600160401b0382116200000f57806023830112156200000f578160246200037f93600401359101620006b7565b50346200000f576200076f36620006f3565b505050506020604051630a85bd0160e11b8152f35b60609060031901126200000f576001600160a01b039060043582811681036200000f579160243590811681036200000f579060443590565b50346200000f5762000512620007d23662000784565b91620007e9620007e38433620019cb565b620018e6565b62001a9e565b50346200000f5762000512620008053662000784565b906040519262000815846200060d565b6000845262001949565b50346200000f5760003660031901126200000f576020600e54604051908152f35b50346200000f57600080600319360112620004535760405181600d54620008678162000ca3565b808452906001908181169081156200042857506001146200089557620003e484620003d78188038262000645565b600d835260209450600080516020620054618339815191525b828410620008ce5750505081620003e493620003d79282010193620003c4565b8054858501870152928501928101620008ae565b50346200000f5760203660031901126200000f576020620004856004356200181e565b50346200000f5760203660031901126200000f576001600160a01b036200092b62000497565b16801562000956576000526003602052620003e4604060002054604051918291829190602083019252565b60405162461bcd60e51b815260206004820152602960248201527f4552433732313a2061646472657373207a65726f206973206e6f7420612076616044820152683634b21037bbb732b960b91b6064820152608490fd5b50346200000f576000806003193601126200045357620009cc6200172d565b600780546001600160a01b0319811690915581906001600160a01b0316600080516020620054818339815191528280a380f35b50346200000f5760003660031901126200000f576007546040516001600160a01b039091168152602090f35b9080601f830112156200000f578160206200037f93359101620006b7565b600211156200000f57565b6020906001600160401b03811162000a6e575b60051b0190565b62000a786200059b565b62000a67565b9190916080818403126200000f5762000a9662000669565b926001600160401b0382358181116200000f578262000ab791850162000a2b565b855260208301358181116200000f578262000ad491850162000a2b565b602086015260408301358181116200000f578262000af491850162000a2b565b604086015260608301359081116200000f5762000b12920162000a2b565b6060830152565b50346200000f576003196060368201126200000f576001600160401b039060049081358381116200000f5762000b53903690840162000a2b565b90602435908482116200000f5760809082360301126200000f576040519062000b7c82620005b2565b808401358581116200000f5762000b999085369184010162000a2b565b825260248101359062000bac8262000a49565b60209182840152604481013562000bc38162000a49565b60408401526064810135908682116200000f570190366023830112156200000f57848201359162000bf48362000a54565b9262000c04604051948562000645565b80845260248385019160051b830101913683116200000f57602401905b82821062000c6b575050505060608201526044359384116200000f5762000c5462000c5b93620003e49536910162000a7e565b916200289b565b6040519081529081906020820190565b81356001600160801b03811681036200000f57815290830190830162000c21565b50634e487b7160e01b600052600060045260246000fd5b90600182811c9216801562000cd5575b602083101462000cbf57565b634e487b7160e01b600052602260045260246000fd5b91607f169162000cb3565b600a546000929162000cf28262000ca3565b90818152600192838116908160001462000d50575060011462000d1457505050565b90929350600a6000526020928360002092846000945b83861062000d3b5750505050010190565b80548587018301529401938590820162000d2a565b91935050602093945060ff191683830152151560051b010190565b906000929180549162000d7e8362000ca3565b91828252600193848116908160001462000de5575060011462000da2575b50505050565b90919394506000526020928360002092846000945b83861062000dd057505050500101903880808062000d9c565b80548587018301529401938590820162000db7565b9294505050602093945060ff191683830152151560051b0101903880808062000d9c565b60405190600082600f549162000e1f8362000ca3565b80835260019380851690811562000e9c575060011462000e49575b50620006789250038362000645565b600f6000908152600080516020620054c183398151915294602093509091905b81831062000e835750506200067893508201013862000e3a565b8554888401850152948501948794509183019162000e69565b90506200067894506020925060ff191682840152151560051b8201013862000e3a565b50346200000f57600080600319360112620004535760405181600f5462000ee68162000ca3565b8084529060019081811690811562000428575060011462000f1457620003e484620003d78188038262000645565b600f835260209450600080516020620054c18339815191525b82841062000f4d5750505081620003e493620003d79282010193620003c4565b805485850187015292850192810162000f2d565b50346200000f57600080600319360112620004535760405181600180549062000f8a8262000ca3565b8085529181811690811562000428575060011462000fb557620003e484620003d78188038262000645565b80945082526020938483205b82841062000fe15750505081620003e493620003d79282010193620003c4565b805485850187015292850192810162000fc1565b50346200000f5760403660031901126200000f576200101362000497565b60243580151581036200000f576001600160a01b038216913383146200109457816200105162001062923360005260056020526040600020620017bf565b9060ff801983541691151516179055565b604051901515815233907f17307eab39ab6107e8899845ad3d59bd9653f200f220920489ca2b5937696c3190602090a3005b60405162461bcd60e51b815260206004820152601960248201527822a9219b99189d1030b8383937bb32903a379031b0b63632b960391b6044820152606490fd5b50346200000f5760203660031901126200000f57600435600052600b6020526020604060002054604051908152f35b50346200000f576000806003193601126200045357600e5462001204576200119b81602062001180620011436200113d60095462000456565b62000456565b620011626200115162001e6c565b6200115b62000e09565b906200232f565b6040519485809481936303a9151b60e41b8352306004840162001ed6565b03925af1908115620011f4575b8391620011bf575b50600e55565b620011bc620011b6600e54620011b062000e09565b620020b8565b62001fac565b80f35b620011e5915060203d8111620011ec575b620011dc818362000645565b81019062001ec6565b3862001195565b503d620011d0565b620011fe62001c7f565b6200118d565b604051633e0f514960e01b815280620012206004820162001dc9565b0390fd5b50346200000f57620005126200123a36620006f3565b9291909162001949565b50346200000f57600080600319360112620004535760405181600d546200126b8162000ca3565b808452906001908181169081156200042857506001146200129957620003e484620003d78188038262000645565b600d835260209450600080516020620054618339815191525b828410620012d25750505081620003e493620003d79282010193620003c4565b8054858501870152928501928101620012b2565b90606060406200037f938051845260018060a01b036020820151166020850152015191816040820152019062000345565b50346200000f576000806003193601126200045357600c546200133a8162000a54565b906200134a604051928362000645565b808252600c835260209283830191817fdf6966c971051c3d54ec59162606531493a51404a002842f56009d7e5cf4a8c7845b838310620013e65750505050604051928484019085855251809152604084019460408260051b8601019392955b828710620013b75785850386f35b909192938280620013d5600193603f198a82030186528851620012e6565b9601920196019592919092620013a9565b600388600192620013fb859b9a989b62002d1b565b815201920192019190969395966200137c565b9060206200037f928181520190620012e6565b50346200000f5760203660031901126200000f576004356001600160401b0381116200000f576200145790369060040162000a2b565b6060604080516200146881620005dd565b6000815260006020820152015260208151910120600052600b602052620014ac620014a56040600020546000198101908111620015015762001562565b5062002d1b565b805115620014c657620003e490604051918291826200140e565b60405162461bcd60e51b815260206004820152601360248201527210dbdb5b5d5b9a5d1e481b9bdd08199bdd5b99606a1b6044820152606490fd5b6200150b62002d04565b62001562565b50346200000f5760203660031901126200000f57620003e46200153660043562002bf4565b60405191829160208352602083019062000345565b50634e487b7160e01b600052603260045260246000fd5b600c5481101562001583575b600c6000526003602060002091020190600090565b6200158d6200154b565b6200156e565b50346200000f5760203660031901126200000f57600435600c548110156200000f57620015c09062001562565b508054620003e46002620015f560018060a01b0360018601541694620015ed604051809481930162000d6b565b038262000645565b6040519384938452602084015260606040840152606083019062000345565b50346200000f5760403660031901126200000f576200163262000497565b602435906001600160a01b039081831683036200000f5760209260ff92620016679216600052600584526040600020620017bf565b54166040519015158152f35b50346200000f5760203660031901126200000f576200169162000497565b6200169b6200172d565b6001600160a01b03908116908115620016d957600780546001600160a01b0319811684179091551660008051602062005481833981519152600080a3005b60405162461bcd60e51b815260206004820152602660248201527f4f776e61626c653a206e6577206f776e657220697320746865207a65726f206160448201526564647265737360d01b6064820152608490fd5b6007546001600160a01b031633036200174257565b606460405162461bcd60e51b815260206004820152602060248201527f4f776e61626c653a2063616c6c6572206973206e6f7420746865206f776e65726044820152fd5b80546001600160a01b0319166001600160a01b03909216919091179055565b6001600160a01b0316600090815260036020526040902090565b9060018060a01b0316600052602052604060002090565b15620017de57565b60405162461bcd60e51b8152602060048201526018602482015277115490cdcc8c4e881a5b9d985b1a59081d1bdad95b88125160421b6044820152606490fd5b6000908152600260205260409020546001600160a01b03166200037f811515620017d6565b156200184b57565b60405162461bcd60e51b815260206004820152603d60248201527f4552433732313a20617070726f76652063616c6c6572206973206e6f7420746f60448201527f6b656e206f776e6572206f7220617070726f76656420666f7220616c6c0000006064820152608490fd5b620018cb620018c58262001c17565b620017d6565b6000908152600460205260409020546001600160a01b031690565b15620018ee57565b60405162461bcd60e51b815260206004820152602d60248201527f4552433732313a2063616c6c6572206973206e6f7420746f6b656e206f776e6560448201526c1c881bdc88185c1c1c9bdd9959609a1b6064820152608490fd5b906200197493929162001961620007e38433620019cb565b6200196e83838362001a9e565b62001cc1565b156200197c57565b60405162461bcd60e51b815260206004820152603260248201526000805160206200544183398151915260448201527131b2b4bb32b91034b6b83632b6b2b73a32b960711b6064820152608490fd5b6001600160a01b0380620019df846200181e565b16928183169284841494851562001a1a575b5050831562001a01575b50505090565b62001a0f91929350620018b6565b1614388080620019fb565b60ff9295509062001a389160005260056020526040600020620017bf565b5416923880620019f1565b1562001a4b57565b60405162461bcd60e51b815260206004820152602560248201527f4552433732313a207472616e736665722066726f6d20696e636f72726563742060448201526437bbb732b960d91b6064820152608490fd5b62001ac69062001aae846200181e565b6001600160a01b038281169390918216841462001a43565b831692831562001b6e5762001b2362001b589262001af48562001aed6200113d8a6200181e565b1462001a43565b62001b1d62001b0d886000526004602052604060002090565b80546001600160a01b0319169055565b620017a5565b805460001901905562001b3681620017a5565b6001815401905562001b52856000526002602052604060002090565b62001786565b600080516020620054a1833981519152600080a4565b60405162461bcd60e51b8152602060048201526024808201527f4552433732313a207472616e7366657220746f20746865207a65726f206164646044820152637265737360e01b6064820152608490fd5b81600052600460205262001bd881604060002062001786565b6001600160a01b038062001bec846200181e565b169116907f8c5be1e5ebec7d5bd14f71427d1e84f3dd0314c0f7b2291e5b200ac8c7c3b925600080a4565b6000908152600260205260409020546001600160a01b0316151590565b908160209103126200000f57516200037f816200028a565b6001600160a01b0391821681529116602082015260408101919091526080606082018190526200037f9291019062000345565b506040513d6000823e3d90fd5b3d1562001cbc573d9062001ca08262000689565b9162001cb0604051938462000645565b82523d6000602084013e565b606090565b92909190823b1562001dc05762001cf7926020926000604051809681958294630a85bd0160e11b9a8b8552336004860162001c4c565b03926001600160a01b03165af16000918162001d89575b5062001d7b5762001d1e62001c8c565b8051908162001d765760405162461bcd60e51b815260206004820152603260248201526000805160206200544183398151915260448201527131b2b4bb32b91034b6b83632b6b2b73a32b960711b6064820152608490fd5b602001fd5b6001600160e01b0319161490565b62001db091925060203d811162001db8575b62001da7818362000645565b81019062001c34565b903862001d0e565b503d62001d9b565b50505050600190565b6020808252600091600d549162001de08362000ca3565b928382840152600190818116908160001462001e48575060011462001e07575b5050505090565b929350600d60005280600020926000935b85851062001e33575050506040925001013880808062001e00565b80548585016040015293820193810162001e18565b925050506040935060ff929192191683830152151560051b01013880808062001e00565b6040519062001e7b82620005dd565b6036825275103a32bc3a161034b73232bc32b21034b73a32b3b2b960511b6040837f696420696e7465676572207072696d617279206b65792c206d6574616461746160208201520152565b908160209103126200000f575190565b6001600160a01b0390911681526040602082018190526200037f9291019062000345565b601f811162001f07575050565b600090600d825260208220906020601f850160051c8301941062001f48575b601f0160051c01915b82811062001f3c57505050565b81815560010162001f2f565b909250829062001f26565b90601f811162001f6257505050565b600091825260208220906020601f850160051c8301941062001fa1575b601f0160051c01915b82811062001f9557505050565b81815560010162001f88565b909250829062001f7f565b80519091906001600160401b0381116200208f575b62001fd98162001fd3600d5462000ca3565b62001efa565b602080601f83116001146200201857508192936000926200200c575b50508160011b916000199060031b1c191617600d55565b01519050388062001ff5565b600d600052601f1983169490919060008051602062005461833981519152926000905b878210620020765750508360019596106200205c575b505050811b01600d55565b015160001960f88460031b161c1916905538808062002051565b806001859682949686015181550195019301906200203b565b620020996200059b565b62001fc1565b90620020b46020928281519485920162000320565b0190565b60226200037f91620020d5620020ce46620021df565b94620021df565b6040519482620020f087945180926020808801910162000320565b830190605f60f81b918260208201526200211582518093602060218501910162000320565b0190602182015262002131825180936020878501910162000320565b0103600281018452018262000645565b906200214d8262000689565b6200215c604051918262000645565b82815280926200216f601f199162000689565b0190602036910137565b6040516001806200218a8362000629565b8183526020368185013760218301825b620021a55750505090565b6000190190600a906f181899199a1a9b1b9c1cb0b131b232b360811b8282061a835304918215620021d9579190826200219a565b620019fb565b6000908072184f03e93ff9f4daa797ed6e38ed64bf6a1f0160401b8082101562002320575b506904ee2d6d415b85acef8160201b8083101562002310575b50662386f26fc100008083101562002300575b506305f5e10080831015620022f0575b5061271080831015620022e0575b506064821015620022cf575b600a80921015620022c4575b6001908160216200227982870162002141565b95860101905b6200228b575050505090565b600019019083906f181899199a1a9b1b9c1cb0b131b232b360811b8282061a835304918215620022be579190826200227f565b62001e00565b916001019162002266565b91906064600291049101916200225a565b600491939204910191386200224e565b6008919392049101913862002240565b6010919392049101913862002230565b602091939204910191386200221d565b60409350810491503862002204565b9060306200037f916200234246620021df565b936040519485926c021a922a0aa22902a20a126229609d1b602085015262002375815180926020602d8801910162000320565b8301605f60f81b602d82015262002397825180936020602e8501910162000320565b01600560fb1b602e820152620023b8825180936020602f8501910162000320565b01602960f81b602f82015203601081018452018262000645565b605a91949362000678936040519687936b3d913430b7323632911d101160a11b60208601526200240d815180926020602c8901910162000320565b84016b111610113730b6b2911d101160a11b602c8201526200243a82518093602060388501910162000320565b0172111610113232b9b1b934b83a34b7b7111d101160691b60388201526200246d825180936020604b8501910162000320565b016c1116101134b6b0b3b2911d101160991b604b8201526200249a82518093602060588501910162000320565b01620024ad6058820161227d60f01b9052565b03603a81018552018362000645565b9291909260405193849160206b024a729a2a92a1024a72a27960a51b81850152600090600d5490620024ee8262000ca3565b91600190818116908115620025e3575060011462002599575b50505093600262002573819594826200256262002581966200255b620006789b6021907f202869642c206d657461646174612c20696e6465786564292056414c554553208152600560fb1b60208201520190565b906200209f565b612c2760f01b81525b01906200209f565b6109cb60f21b81526200256b565b61293b60f01b815203601d1981018552018362000645565b90919250600d60005281600020906000915b848310620025c957505050508301602c016002620025738162002507565b8054978301602c01979097528996918301918101620025ab565b60ff1916602c808a0191909152841515909402880190930193506002925062002573915082905062002507565b6200037f939260609260018060a01b031682526020820152816040820152019062000345565b60405190620026458262000629565b600782526653514c3a20257360c81b6020830152565b600211156200266657565b634e487b7160e01b600052602160045260246000fd5b9060209081835260606200269c825160808587015260a086019062000345565b9183810151620026ac816200265b565b60408601526040810151620026c1816200265b565b828601520151926080601f198284030191015281808451928381520193019160005b828110620026f2575050505090565b83516001600160801b031685529381019392810192600101620026e3565b600c54600160401b81101562002858575b62002734600191828101600c5562001562565b62002848575b82518155604060026020926200275e60018060a01b03858801511686830162001786565b019301519081519160018060401b03831162002838575b6200278d8362002786875462000ca3565b8762001f53565b81601f8411600114620027c95750928293918392600094620027bd575b50501b916000199060031b1c1916179055565b015192503880620027aa565b919083601f198116620027e188600052602060002090565b946000905b888383106200281d575050501062002803575b505050811b019055565b015160001960f88460031b161c19169055388080620027f9565b858701518855909601959485019487935090810190620027e6565b620028426200059b565b62002775565b6200285262000c8c565b6200273a565b620028626200059b565b62002721565b60405190620028778262000629565b6015825274436f6d6d756e69747920437265617465643a20257360581b6020830152565b91909180516020820120620028ba81600052600b602052604060002090565b5462002bbf5760085493620028d0853362002db2565b6200290f620028df86620021df565b620028fe865160208801519760409860608a83015192015192620023d2565b6200290862002179565b91620024bc565b92620029216200113d60095462000456565b93600e5490853b156200000f576200295c95816200297f9389519283809263757ae82760e11b82528160009c8d968793306004850162002610565b03925af1801562002baf575b62002b98575b506200297962002636565b62002ed3565b84518062002a0d88612514808401906001600160401b0382118583101762002b88575b62002f2d8539608080825260119082015270454d425f434f4d4d5f4e46545f4e414d4560781b60a082015260c0602082018190526013908201527211535097d0d3d35357d3919517d4d6535093d3606a1b60e082015230604082015260608101919091526101000190565b039085f0801562002b78575b6001600160a01b031691823b1562002b745762002aa99287949262002a578762002a99948a518093819263adaf1cab60e01b8352600483016200267c565b038183875af1801562002b64575b62002b4d575b5062002a8f62002a7a6200067a565b8781526001600160a01b039093166020840152565b8782015262002710565b600052600b602052604060002090565b5562002abb6200113d60105462000456565b91823b1562002b495751633576860d60e11b815233600482015260248101849052918290604490829084905af1801562002b39575b62002b1b575b5062002b0c8162002b0662002868565b62002e70565b6200037f600160085401600855565b8062002b2b62002b3292620005f9565b8062000314565b3862002af6565b62002b4362001c7f565b62002af0565b5080fd5b8062002b2b62002b5d92620005f9565b3862002a6b565b62002b6e62001c7f565b62002a65565b8480fd5b62002b8262001c7f565b62002a19565b62002b926200059b565b620029a2565b8062002b2b62002ba892620005f9565b386200296e565b62002bb962001c7f565b62002968565b60405162461bcd60e51b815260206004820152600d60248201526c48616e646c652065786973747360981b6044820152606490fd5b62002c03620018c58262001c17565b80600052602060068152604090620015ed62002c288360002084519283809262000d6b565b825162002c3a81620015ed8162000ce0565b805191821562002cfb57805162002cdd5750505062002c5d620018c58462001c17565b815162002c6f81620015ed8162000ce0565b80516000901562002cc7575062002c8b6200037f9394620021df565b9351938162002ca4869351809286808701910162000320565b820162002cba8251809386808501910162000320565b0103808452018262000645565b93505050519062002cd8826200060d565b815290565b909180955062002ca46200037f955196879486808701910162000320565b94505050505090565b50634e487b7160e01b600052601160045260246000fd5b9060026040805162002d2d81620005dd565b62002d6281958054835260018060a01b03600182015416602084015262002d5a8451809681930162000d6b565b038462000645565b0152565b1562002d6e57565b60405162461bcd60e51b815260206004820152601c60248201527b115490cdcc8c4e881d1bdad95b88185b1c9958591e481b5a5b9d195960221b6044820152606490fd5b6001600160a01b03811690811562002e2c5762002e159062002ddf62002dd88562001c17565b1562002d66565b62002dee62002dd88562001c17565b62002df981620017a5565b6001815401905562001b52846000526002602052604060002090565b6000600080516020620054a18339815191528180a4565b606460405162461bcd60e51b815260206004820152602060248201527f4552433732313a206d696e7420746f20746865207a65726f20616464726573736044820152fd5b62002eb862002ea3916200067893604051938492632d839cb360e21b602085015260406024850152606484019062000345565b90604483015203601f19810183528262000645565b600080916020815191016a636f6e736f6c652e6c6f675afa50565b62002eb862002f0a9162002f1d6200067894604051948593634b5c427760e01b602086015260406024860152606485019062000345565b8381036023190160448501529062000345565b03601f1981018352826200064556fe60406080815234620004115762002514803803806200001e8162000416565b9283398101608082820312620004115781516001600160401b039290838111620004115782620000509183016200043c565b92602092838301519082821162000411576200006e9184016200043c565b8286015190936001600160a01b03821693909184900362000411576060015193855192808411620003fb576000918254946001988987811c97168015620003f0575b86881014620002fa578190601f978881116200039d575b508690888311600114620003395786926200032d575b5050600019600383901b1c191690891b1783555b805190828211620003195788548981811c911680156200030e575b86821014620002fa57908187849311620002a7575b5085908783116001146200024357859262000237575b5050600019600383901b1c191690881b1787555b875190818901908111828210176200022357908391895260078152019266697066733a2f2f60c81b8452600954928784811c9416801562000218575b818510146200020457818411620001de575b505091516001600160c81b031916600e176009555050600a80546001600160a01b031916919091179055600b5560088054919091019055516120659081620004af8239f35b600983528220920160051c82019186905b838110156200019957828155018690620001ef565b634e487b7160e01b83526022600452602483fd5b93607f169362000187565b634e487b7160e01b83526041600452602483fd5b01519050388062000137565b8a86528686208b94509190601f198416875b8982821062000290575050841162000276575b505050811b0187556200014b565b015160001960f88460031b161c1916905538808062000268565b8385015186558e9790950194938401930162000255565b9091508985528585208780850160051c820192888610620002f0575b918c91869594930160051c01915b828110620002e157505062000121565b8781558594508c9101620002d1565b92508192620002c3565b634e487b7160e01b85526022600452602485fd5b90607f16906200010c565b634e487b7160e01b84526041600452602484fd5b015190503880620000dd565b8680528787208c94509190601f198416885b8a8282106200038657505084116200036c575b505050811b018355620000f1565b015160001960f88460031b161c191690553880806200035e565b8385015186558f979095019493840193016200034b565b9091508580528686208880850160051c820192898610620003e6575b918d91869594930160051c01915b828110620003d7575050620000c7565b8881558594508d9101620003c7565b92508192620003b9565b96607f1696620000b0565b634e487b7160e01b600052604160045260246000fd5b600080fd5b6040519190601f01601f191682016001600160401b03811183821017620003fb57604052565b919080601f84011215620004115782516001600160401b038111620003fb5760209062000472601f8201601f1916830162000416565b92818452828287010111620004115760005b8181106200049a57508260009394955001015290565b85810183015184820184015282016200048456fe608060408181526004918236101561001657600080fd5b600092833560e01c91826301ffc9a7146111655750816306fdde03146110de578163081812fc146110be578163095ea7b314610f505781631249c58b14610e8d57816323b872dd14610e63578163248a9ca314610e3857816329adec1414610e125781632f2ff15d14610d6557816336568abe14610cd357816342842e0e14610caa57816361acc37e14610c435781636352211e14610c1257816370a0823114610b7c5781637f50861a14610b5d57816391d1485414610b1657816395d89b4114610a8f578163a217fddf14610a74578163a22cb465146109ac578163a2bf68b91461097f578163adaf1cab14610587578163b88d4fde14610523578163c87b56dd146104ec578163d547741f146104a957508063daee9ac914610282578063e985e9c5146102355763fd0da0991461014e57600080fd5b3461023157816003193601126102315780519082600c5461016e81611379565b8085529060019081811690811561020957506001146101b0575b50505061019a826101ac940383611304565b5191829160208352602083019061120d565b0390f35b600c8352602095507fdf6966c971051c3d54ec59162606531493a51404a002842f56009d7e5cf4a8c75b8284106101f657505050826101ac9461019a9282010194610188565b80548685018801529286019281016101da565b6101ac975061019a9450602092508693915060ff191682840152151560051b82010194610188565b5080fd5b503461023157806003193601126102315760ff81602093610254611232565b61025c61124d565b6001600160a01b0391821683526005875283832091168252855220549151911615158152f35b503461023157816003193601126102315780519161029f836112b8565b60608352606080602094838682015283858201520152600d5460ff8082169160081c16938351936102cf856112b8565b8051600c54969085816102e18a611379565b9182825260019a878c8216918260001461048c57505060011461044e575b61030b92500382611304565b86528286019361031a81611298565b84528186019061032981611298565b815281519182838580600e549384815201600e8a528b828b20948b5b87828483011061041f575061037696549285838310610407575b5050106103f9575b50905099979695990384611304565b606087019283526103978151978989525160808a8a015260a089019061120d565b9351906103a382611298565b870152516103b081611298565b606086015251848203601f19016080860152805180835291860195908101925b8281106103dd5785870386f35b83516001600160801b03168752958101959281019284016103d0565b60801c815201869038610367565b6001600160801b038516865290940193018e8561035f565b87546001600160801b038116865260801c8c86015292909601958995508a945091909201918d91600201610345565b5050600c875281858089208b8a915b85831061047357505061030b93508201016102ff565b80919294505483858801015201910186908b859361045d565b60ff19168482015261030b94151560051b84010191506102ff9050565b919050346104e857806003193601126104e8576104e591356104e060016104ce61124d565b93838752600760205286200154611470565b61175c565b80f35b8280fd5b828434610520576020366003190112610520575061050d6101ac9235611cd4565b905191829160208352602083019061120d565b80fd5b8390346102315760803660031901126102315761053e611232565b61054661124d565b906064356001600160401b0381116105835736602382011215610583576104e59381602461057993369301359101611342565b91604435916118cd565b8480fd5b919050346104e85760206003198181360112610583576001600160401b039084359082821161097b576080908236030112610977578351936080850185811084821117610964578152818601358381116109605782019136602384011215610960576105fd6024933690858a8201359101611342565b8652828101356002968782101561095c578681019182526044830135928884101561095457848201938452606481013590878211610958570136602382011215610954578981013594878611610942578560051b9051956106608a830188611304565b865286898701918301019136831161093e578701905b82821061091b5750505060608101938452518051908682116109095781908b6106a0600c54611379565b8a601f82116108cf575b5050508890601f831160011461086a578c9261085f575b50508160011b916000199060031b1c191617600c555b51906106e282611298565b6106eb82611298565b60ff61ff00600d5492516106fe81611298565b61070781611298565b60081b1692169061ffff19161717600d555190815192831161084e57600160401b831161084e57508290600e5483600e55808410610801575b500190600e86528286209260019282841c95885b8781106107bd5750506001198316909203918261076f578780f35b929190879688905b838210610791575050505050500155388080808080808780f35b90919293836107b082979a60018060801b038c51169086861b90611cbb565b9901959493920190610777565b85908a8b5b868c8683106107d8575050508189015501610754565b82979495936107f4929360018060801b03875116921b90611cbb565b92019401908792916107c2565b61082e90600e89528389206001808701811c8201926010888c1b1680610834575b500160011c0190611ca4565b38610740565b60001990818601918254918a0360031b1c16905538610822565b634e487b7160e01b87526041865286fd5b0151905038806106c1565b600c8d52898d209250601f1984168d5b8b8282106108b95750509084600195949392106108a0575b505050811b01600c556106d7565b015160001960f88460031b161c19169055388080610892565b600185968293968601518155019501930161087a565b82600c6108f7945220601f850160051c8101918c86106108ff575b601f0160051c0190611ca4565b8b388a6106aa565b90915081906108ea565b634e487b7160e01b8b5260418a52858bfd5b81356001600160801b038116810361093a578152908901908901610676565b8d80fd5b8c80fd5b634e487b7160e01b8c5260418b52868cfd5b8a80fd5b8b80fd5b8980fd5b8780fd5b634e487b7160e01b885260418752602488fd5b8580fd5b8680fd5b505034610231578160031936011261023157600d54905160209160081c60ff166109a881611298565b8152f35b919050346104e857806003193601126104e8576109c7611232565b9060243591821515809303610583576001600160a01b031692338414610a365750338452600560205280842083855260205280842060ff1981541660ff8416179055519081527f17307eab39ab6107e8899845ad3d59bd9653f200f220920489ca2b5937696c3160203392a380f35b6020606492519162461bcd60e51b8352820152601960248201527822a9219b99189d1030b8383937bb32903a379031b0b63632b960391b6044820152fd5b50503461023157816003193601126102315751908152602090f35b505034610231578160031936011261023157805190826001805490610ab382611379565b808652918181169081156102095750600114610adb5750505061019a826101ac940383611304565b80955082526020948583205b828410610b0357505050826101ac9461019a9282010194610188565b8054868501880152928601928101610ae7565b9050346104e857816003193601126104e8578160209360ff92610b3761124d565b90358252600786528282206001600160a01b039091168252855220549151911615158152f35b505034610231578160031936011261023157602090600b549051908152f35b83915034610231576020366003190112610231576001600160a01b03610ba0611232565b16908115610bbd5760208480858581526003845220549051908152f35b608490602085519162461bcd60e51b8352820152602960248201527f4552433732313a2061646472657373207a65726f206973206e6f7420612076616044820152683634b21037bbb732b960b91b6064820152fd5b8284346105205760203660031901126105205750610c3260209235611819565b90516001600160a01b039091168152f35b9050346104e85760203660031901126104e85735600e548110156104e857600e909252600182901c7fbb7b4a454dc3493923482f07822329ed19e8244eff582cc204f8554c3620c3fd0154905160079290921b6080161c6001600160801b03168152602090f35b505034610231576104e590610cbe36611263565b91925192610ccb846112e9565b8584526118cd565b83915034610231578260031936011261023157610cee61124d565b90336001600160a01b03831603610d0a57906104e5913561175c565b608490602085519162461bcd60e51b8352820152602f60248201527f416363657373436f6e74726f6c3a2063616e206f6e6c792072656e6f756e636560448201526e103937b632b9903337b91039b2b63360891b6064820152fd5b9050346104e857816003193601126104e8573590610d8161124d565b908284526007602052610d9960018286200154611470565b828452600760209081528185206001600160a01b039093168086529290528084205460ff1615610dc7578380f35b82845260076020528084208285526020528320600160ff1982541617905533917f2f8788117e7eff1d82e926ec794901d17c78024a50270940304540a733656f0d8480a43880808380f35b505034610231578160031936011261023157600d54905160209160ff166109a881611298565b9050346104e85760203660031901126104e85781602093600192358152600785522001549051908152f35b8334610520576104e5610e7536611263565b91610e88610e838433611946565b61186b565b611a0e565b919050346104e857826003193601126104e857600854913315610f0e5750610ebd610eb783611b0a565b15611fad565b610ec9610eb783611b0a565b3380845260036020908152828520805460010190558385526002905290832080546001600160a01b03191682179055826000805160206120398339815191528180a480f35b6020606492519162461bcd60e51b8352820152602060248201527f4552433732313a206d696e7420746f20746865207a65726f20616464726573736044820152fd5b9050346104e857816003193601126104e857610f6a611232565b6024359290916001600160a01b0391908280610f8587611819565b1694169380851461107157803314908115611052575b5015610fea57848652602052842080546001600160a01b03191683179055610fc283611819565b167f8c5be1e5ebec7d5bd14f71427d1e84f3dd0314c0f7b2291e5b200ac8c7c3b9258480a480f35b6020608492519162461bcd60e51b8352820152603d60248201527f4552433732313a20617070726f76652063616c6c6572206973206e6f7420746f60448201527f6b656e206f776e6572206f7220617070726f76656420666f7220616c6c0000006064820152fd5b90508652600560205281862033875260205260ff828720541638610f9b565b506020608492519162461bcd60e51b8352820152602160248201527f4552433732313a20617070726f76616c20746f2063757272656e74206f776e656044820152603960f91b6064820152fd5b8284346105205760203660031901126105205750610c326020923561183f565b5050346102315781600319360112610231578051908280546110ff81611379565b80855290600190818116908115610209575060011461112a5750505061019a826101ac940383611304565b94508180526020948583205b82841061115257505050826101ac9461019a9282010194610188565b8054868501880152928601928101611136565b8491346104e85760203660031901126104e8573563ffffffff60e01b81168091036104e85760209250637965db0b60e01b81149081156111a7575b5015158152f35b6380ac58cd60e01b8114915081156111d9575b81156111c8575b50836111a0565b6301ffc9a760e01b149050836111c1565b635b5e139f60e01b811491506111ba565b60005b8381106111fd5750506000910152565b81810151838201526020016111ed565b90602091611226815180928185528580860191016111ea565b601f01601f1916010190565b600435906001600160a01b038216820361124857565b600080fd5b602435906001600160a01b038216820361124857565b6060906003190112611248576001600160a01b0390600435828116810361124857916024359081168103611248579060443590565b600211156112a257565b634e487b7160e01b600052602160045260246000fd5b608081019081106001600160401b038211176112d357604052565b634e487b7160e01b600052604160045260246000fd5b602081019081106001600160401b038211176112d357604052565b601f909101601f19168101906001600160401b038211908210176112d357604052565b6001600160401b0381116112d357601f01601f191660200190565b92919261134e82611327565b9161135c6040519384611304565b829481845281830111611248578281602093846000960137010152565b90600182811c921680156113a9575b602083101461139357565b634e487b7160e01b600052602260045260246000fd5b91607f1691611388565b60405190600082600954916113c783611379565b80835260019380851690811561144f57506001146113ef575b506113ed92500383611304565b565b600960009081527f6e1540171b6c0c960b71a7020d9f60077f6af931a8bbf590da0223dacf75c7af94602093509091905b8183106114375750506113ed9350820101386113e0565b85548884018501529485019487945091830191611420565b90506113ed94506020925060ff191682840152151560051b820101386113e0565b60009080825260209060078252604092838120338252835260ff84822054161561149a5750505050565b8351913390606084016001600160401b03811185821017611748578652602a845284840190863683378451156117345760308253845192600193841015611720576078602187015360295b8481116116b65750611686578651926114fd846112b8565b60428452868401946060368737845115611672576030865384518210156116725790607860218601536041915b818311611604575050506115d4576115d09386936115b4936115a560489461157c9a519a8b9576020b1b1b2b9b9a1b7b73a3937b61d1030b1b1b7bab73a1604d1b8c88015251809260378801906111ea565b8401917001034b99036b4b9b9b4b733903937b6329607d1b6037840152518093868401906111ea565b01036028810187520185611304565b5192839262461bcd60e51b84526004840152602483019061120d565b0390fd5b60648587519062461bcd60e51b82528060048301526024820152600080516020611ff98339815191526044820152fd5b909192600f8116601081101561165e576f181899199a1a9b1b9c1cb0b131b232b360811b901a6116348588611c7d565b5360041c92801561164a5760001901919061152a565b634e487b7160e01b82526011600452602482fd5b634e487b7160e01b83526032600452602483fd5b634e487b7160e01b81526032600452602490fd5b60648688519062461bcd60e51b82528060048301526024820152600080516020611ff98339815191526044820152fd5b90600f8116601081101561170c576f181899199a1a9b1b9c1cb0b131b232b360811b901a6116e48389611c7d565b5360041c9080156116f857600019016114e5565b634e487b7160e01b86526011600452602486fd5b634e487b7160e01b87526032600452602487fd5b634e487b7160e01b85526032600452602485fd5b634e487b7160e01b84526032600452602484fd5b634e487b7160e01b84526041600452602484fd5b906000918083526007602052604083209160018060a01b03169182845260205260ff60408420541661178d57505050565b8083526007602052604083208284526020526040832060ff1981541690557ff6391f5c32d9c69d2a47ea670b442974b53935d1edc7fd64eb21e047a839171b339380a4565b156117d957565b60405162461bcd60e51b8152602060048201526018602482015277115490cdcc8c4e881a5b9d985b1a59081d1bdad95b88125160421b6044820152606490fd5b6000908152600260205260409020546001600160a01b031661183c8115156117d2565b90565b61185061184b82611b0a565b6117d2565b6000908152600460205260409020546001600160a01b031690565b1561187257565b60405162461bcd60e51b815260206004820152602d60248201527f4552433732313a2063616c6c6572206973206e6f7420746f6b656e206f776e6560448201526c1c881bdc88185c1c1c9bdd9959609a1b6064820152608490fd5b906118f19392916118e1610e838433611946565b6118ec838383611a0e565b611b27565b156118f857565b60405162461bcd60e51b8152602060048201526032602482015260008051602061201983398151915260448201527131b2b4bb32b91034b6b83632b6b2b73a32b960711b6064820152608490fd5b906001600160a01b03808061195a84611819565b1693169183831493841561198d575b508315611977575b50505090565b6119839192935061183f565b1614388080611971565b909350600052600560205260406000208260005260205260ff604060002054169238611969565b156119bb57565b60405162461bcd60e51b815260206004820152602560248201527f4552433732313a207472616e736665722066726f6d20696e636f72726563742060448201526437bbb732b960d91b6064820152608490fd5b90611a3691611a1c84611819565b6001600160a01b03939184169284929091831684146119b4565b16918215611ab95781611a5391611a4c86611819565b16146119b4565b600080516020612039833981519152600084815260046020526040812060018060a01b03199081815416905583825260036020526040822060001981540190558482526040822060018154019055858252600260205284604083209182541617905580a4565b60405162461bcd60e51b8152602060048201526024808201527f4552433732313a207472616e7366657220746f20746865207a65726f206164646044820152637265737360e01b6064820152608490fd5b6000908152600260205260409020546001600160a01b0316151590565b9293600093909291803b15611c7257948491611b819660405180948193630a85bd0160e11b9788845233600485015260018060a01b0380921660248501526044840152608060648401528260209b8c97608483019061120d565b0393165af1849181611c32575b50611c21575050503d600014611c19573d611ba881611327565b90611bb66040519283611304565b81528091833d92013e5b80519182611c165760405162461bcd60e51b8152602060048201526032602482015260008051602061201983398151915260448201527131b2b4bb32b91034b6b83632b6b2b73a32b960711b6064820152608490fd5b01fd5b506060611bc0565b6001600160e01b0319161492509050565b9091508581813d8311611c6b575b611c4a8183611304565b8101031261058357516001600160e01b031981168103610583579038611b8e565b503d611c40565b505050915050600190565b908151811015611c8e570160200190565b634e487b7160e01b600052603260045260246000fd5b818110611caf575050565b60008155600101611ca4565b9060031b60018060801b03811b9283911b169119161790565b611ce061184b82611b0a565b600081815260209060068252604090818120918051829380549482611d0487611379565b91828252888201936001988a8a82169182600014611f8f575050600114611f51575b50611d3392500383611304565b611d3b6113b3565b908151928315611f45578051611f215750505050611d5b61184b86611b0a565b611d636113b3565b805190939015611f0b5791948592819072184f03e93ff9f4daa797ed6e38ed64bf6a1f0160401b8281811015611efc575b506904ee2d6d415b85acef8160201b905080841015611eee575b50662386f26fc1000080841015611edf575b506305f5e10080841015611ed0575b5061271080841015611ec1575b506064831015611eb1575b600a80931015611ea8575b90816021818a0199611e1b611e068c611327565b9b611e1389519d8e611304565b808d52611327565b8b8b019890601f1901368a37508a0101905b611e72575b5050505090611e669461183c949392519583611e5788955180928880890191016111ea565b840191518093868401906111ea565b01038084520182611304565b600019019083906f181899199a1a9b1b9c1cb0b131b232b360811b8282061a835304918215611ea357919082611e2d565b611e32565b80970196611df2565b9691606460029104920196611de7565b60049198930492019638611ddc565b60089198930492019638611dcf565b60109198930492019638611dc0565b879198930492019638611dae565b94985088940492503880611d94565b5092509250505190611f1c826112e9565b815290565b9297509261183c969550611e66919450611e578891519889968880890191016111ea565b97505050505050505090565b915050855282878087208888915b858310611f76575050611d33935082010138611d26565b8091929450548385890101520191018890888693611f5f565b60ff19168752611d3395151560051b8501019250389150611d269050565b15611fb457565b60405162461bcd60e51b815260206004820152601c60248201527b115490cdcc8c4e881d1bdad95b88185b1c9958591e481b5a5b9d195960221b6044820152606490fdfe537472696e67733a20686578206c656e67746820696e73756666696369656e744552433732313a207472616e7366657220746f206e6f6e204552433732315265ddf252ad1be2c89b69c2b068fc378daa952ba7f163c4a11628f55a4df523b3efa164736f6c6343000811000a4552433732313a207472616e7366657220746f206e6f6e204552433732315265d7b6990105719101dabeb77144f2a3385c8033acd3af97e9423a695e81ad1eb58be0079c531659141344cd1fd0a4f28419497f9722a3daafe3b4186f6b6457e0ddf252ad1be2c89b69c2b068fc378daa952ba7f163c4a11628f55a4df523b3ef8d1108e10bcb7c27dddfc02ed9d693a074039d026cf4ea4240b40f7d581ac802a164736f6c6343000811000a",
  "linkReferences": {},
  "deployedLinkReferences": {}
}