{
  "_format": "hh-sol-artifact-1",
  "contractName": "EmbraceCommunities",
  "sourceName": "contracts/EmbraceCommunities.sol",
  "abi": [
    {
      "inputs": [
        {
          "internalType": "string",
          "name": "_name",
          "type": "string"
        },
        {
          "internalType": "string",
          "name": "_symbol",
          "type": "string"
        },
        {
          "internalType": "address",
          "name": "_accountsContractAddress",
          "type": "address"
        },
        {
          "internalType": "address",
          "name": "_embraceCommunityAddress",
          "type": "address"
        },
        {
          "internalType": "address",
          "name": "_tablelandRegistryAddress",
          "type": "address"
        }
      ],
      "stateMutability": "nonpayable",
      "type": "constructor"
    },
    {
      "inputs": [
        {
          "internalType": "string",
          "name": "handle",
          "type": "string"
        }
      ],
      "name": "ErrorHandleExists",
      "type": "error"
    },
    {
      "inputs": [
        {
          "internalType": "string",
          "name": "tableName",
          "type": "string"
        }
      ],
      "name": "ErrorTableExists",
      "type": "error"
    },
    {
      "anonymous": false,
      "inputs": [
        {
          "indexed": true,
          "internalType": "address",
          "name": "owner",
          "type": "address"
        },
        {
          "indexed": true,
          "internalType": "address",
          "name": "approved",
          "type": "address"
        },
        {
          "indexed": true,
          "internalType": "uint256",
          "name": "tokenId",
          "type": "uint256"
        }
      ],
      "name": "Approval",
      "type": "event"
    },
    {
      "anonymous": false,
      "inputs": [
        {
          "indexed": true,
          "internalType": "address",
          "name": "owner",
          "type": "address"
        },
        {
          "indexed": true,
          "internalType": "address",
          "name": "operator",
          "type": "address"
        },
        {
          "indexed": false,
          "internalType": "bool",
          "name": "approved",
          "type": "bool"
        }
      ],
      "name": "ApprovalForAll",
      "type": "event"
    },
    {
      "anonymous": false,
      "inputs": [
        {
          "indexed": true,
          "internalType": "address",
          "name": "previousOwner",
          "type": "address"
        },
        {
          "indexed": true,
          "internalType": "address",
          "name": "newOwner",
          "type": "address"
        }
      ],
      "name": "OwnershipTransferred",
      "type": "event"
    },
    {
      "anonymous": false,
      "inputs": [
        {
          "indexed": true,
          "internalType": "address",
          "name": "from",
          "type": "address"
        },
        {
          "indexed": true,
          "internalType": "address",
          "name": "to",
          "type": "address"
        },
        {
          "indexed": true,
          "internalType": "uint256",
          "name": "tokenId",
          "type": "uint256"
        }
      ],
      "name": "Transfer",
      "type": "event"
    },
    {
      "inputs": [
        {
          "internalType": "address",
          "name": "to",
          "type": "address"
        },
        {
          "internalType": "uint256",
          "name": "tokenId",
          "type": "uint256"
        }
      ],
      "name": "approve",
      "outputs": [],
      "stateMutability": "nonpayable",
      "type": "function"
    },
    {
      "inputs": [
        {
          "internalType": "address",
          "name": "owner",
          "type": "address"
        }
      ],
      "name": "balanceOf",
      "outputs": [
        {
          "internalType": "uint256",
          "name": "",
          "type": "uint256"
        }
      ],
      "stateMutability": "view",
      "type": "function"
    },
    {
      "inputs": [],
      "name": "communitiesTable",
      "outputs": [
        {
          "internalType": "uint256",
          "name": "id",
          "type": "uint256"
        },
        {
          "internalType": "string",
          "name": "name",
          "type": "string"
        }
      ],
      "stateMutability": "view",
      "type": "function"
    },
    {
      "inputs": [
        {
          "internalType": "string",
          "name": "_handle",
          "type": "string"
        },
        {
          "components": [
            {
              "internalType": "string",
              "name": "handle",
              "type": "string"
            },
            {
              "internalType": "enum Visibility",
              "name": "visibility",
              "type": "uint8"
            },
            {
              "components": [
                {
                  "internalType": "enum Access",
                  "name": "access",
                  "type": "uint8"
                },
                {
                  "components": [
                    {
                      "internalType": "enum MembershipGateToken",
                      "name": "tokenType",
                      "type": "uint8"
                    },
                    {
                      "internalType": "address",
                      "name": "tokenAddress",
                      "type": "address"
                    },
                    {
                      "internalType": "uint256",
                      "name": "tokenId",
                      "type": "uint256"
                    }
                  ],
                  "internalType": "struct MembershipGate",
                  "name": "gate",
                  "type": "tuple"
                }
              ],
              "internalType": "struct Membership",
              "name": "membership",
              "type": "tuple"
            },
            {
              "internalType": "uint128[]",
              "name": "apps",
              "type": "uint128[]"
            }
          ],
          "internalType": "struct CommunityContractData",
          "name": "_communityContractData",
          "type": "tuple"
        },
        {
          "components": [
            {
              "internalType": "string",
              "name": "handle",
              "type": "string"
            },
            {
              "internalType": "string",
              "name": "name",
              "type": "string"
            },
            {
              "internalType": "string",
              "name": "description",
              "type": "string"
            },
            {
              "internalType": "string",
              "name": "image",
              "type": "string"
            }
          ],
          "internalType": "struct CommunityMetaData",
          "name": "_communityMetaData",
          "type": "tuple"
        }
      ],
      "name": "createCommunity",
      "outputs": [
        {
          "internalType": "uint256",
          "name": "",
          "type": "uint256"
        }
      ],
      "stateMutability": "nonpayable",
      "type": "function"
    },
    {
      "inputs": [
        {
          "internalType": "uint256",
          "name": "tokenId",
          "type": "uint256"
        }
      ],
      "name": "getApproved",
      "outputs": [
        {
          "internalType": "address",
          "name": "",
          "type": "address"
        }
      ],
      "stateMutability": "view",
      "type": "function"
    },
    {
      "inputs": [],
      "name": "getCommunities",
      "outputs": [
        {
          "components": [
            {
              "internalType": "uint256",
              "name": "id",
              "type": "uint256"
            },
            {
              "internalType": "address",
              "name": "contractAddress",
              "type": "address"
            },
            {
              "internalType": "string",
              "name": "handle",
              "type": "string"
            }
          ],
          "internalType": "struct EmbraceCommunities.Community[]",
          "name": "",
          "type": "tuple[]"
        }
      ],
      "stateMutability": "view",
      "type": "function"
    },
    {
      "inputs": [],
      "name": "getTableName",
      "outputs": [
        {
          "internalType": "string",
          "name": "",
          "type": "string"
        }
      ],
      "stateMutability": "view",
      "type": "function"
    },
    {
      "inputs": [
        {
          "internalType": "string",
          "name": "_handle",
          "type": "string"
        }
      ],
      "name": "handleToCommunity",
      "outputs": [
        {
          "components": [
            {
              "internalType": "uint256",
              "name": "id",
              "type": "uint256"
            },
            {
              "internalType": "address",
              "name": "contractAddress",
              "type": "address"
            },
            {
              "internalType": "string",
              "name": "handle",
              "type": "string"
            }
          ],
          "internalType": "struct EmbraceCommunities.Community",
          "name": "_community",
          "type": "tuple"
        }
      ],
      "stateMutability": "view",
      "type": "function"
    },
    {
      "inputs": [
        {
          "internalType": "bytes32",
          "name": "",
          "type": "bytes32"
        }
      ],
      "name": "handleToId",
      "outputs": [
        {
          "internalType": "uint256",
          "name": "",
          "type": "uint256"
        }
      ],
      "stateMutability": "view",
      "type": "function"
    },
    {
      "inputs": [
        {
          "internalType": "uint256",
          "name": "newCommunityId",
          "type": "uint256"
        },
        {
          "components": [
            {
              "internalType": "string",
              "name": "handle",
              "type": "string"
            },
            {
              "internalType": "string",
              "name": "name",
              "type": "string"
            },
            {
              "internalType": "string",
              "name": "description",
              "type": "string"
            },
            {
              "internalType": "string",
              "name": "image",
              "type": "string"
            }
          ],
          "internalType": "struct CommunityMetaData",
          "name": "_communityMetaData",
          "type": "tuple"
        }
      ],
      "name": "insertCommunity",
      "outputs": [],
      "stateMutability": "nonpayable",
      "type": "function"
    },
    {
      "inputs": [
        {
          "internalType": "address",
          "name": "owner",
          "type": "address"
        },
        {
          "internalType": "address",
          "name": "operator",
          "type": "address"
        }
      ],
      "name": "isApprovedForAll",
      "outputs": [
        {
          "internalType": "bool",
          "name": "",
          "type": "bool"
        }
      ],
      "stateMutability": "view",
      "type": "function"
    },
    {
      "inputs": [],
      "name": "name",
      "outputs": [
        {
          "internalType": "string",
          "name": "",
          "type": "string"
        }
      ],
      "stateMutability": "view",
      "type": "function"
    },
    {
      "inputs": [
        {
          "internalType": "address",
          "name": "",
          "type": "address"
        },
        {
          "internalType": "address",
          "name": "",
          "type": "address"
        },
        {
          "internalType": "uint256",
          "name": "",
          "type": "uint256"
        },
        {
          "internalType": "bytes",
          "name": "",
          "type": "bytes"
        }
      ],
      "name": "onERC721Received",
      "outputs": [
        {
          "internalType": "bytes4",
          "name": "",
          "type": "bytes4"
        }
      ],
      "stateMutability": "nonpayable",
      "type": "function"
    },
    {
      "inputs": [],
      "name": "owner",
      "outputs": [
        {
          "internalType": "address",
          "name": "",
          "type": "address"
        }
      ],
      "stateMutability": "view",
      "type": "function"
    },
    {
      "inputs": [
        {
          "internalType": "uint256",
          "name": "tokenId",
          "type": "uint256"
        }
      ],
      "name": "ownerOf",
      "outputs": [
        {
          "internalType": "address",
          "name": "",
          "type": "address"
        }
      ],
      "stateMutability": "view",
      "type": "function"
    },
    {
      "inputs": [],
      "name": "renounceOwnership",
      "outputs": [],
      "stateMutability": "nonpayable",
      "type": "function"
    },
    {
      "inputs": [
        {
          "internalType": "address",
          "name": "from",
          "type": "address"
        },
        {
          "internalType": "address",
          "name": "to",
          "type": "address"
        },
        {
          "internalType": "uint256",
          "name": "tokenId",
          "type": "uint256"
        }
      ],
      "name": "safeTransferFrom",
      "outputs": [],
      "stateMutability": "nonpayable",
      "type": "function"
    },
    {
      "inputs": [
        {
          "internalType": "address",
          "name": "from",
          "type": "address"
        },
        {
          "internalType": "address",
          "name": "to",
          "type": "address"
        },
        {
          "internalType": "uint256",
          "name": "tokenId",
          "type": "uint256"
        },
        {
          "internalType": "bytes",
          "name": "data",
          "type": "bytes"
        }
      ],
      "name": "safeTransferFrom",
      "outputs": [],
      "stateMutability": "nonpayable",
      "type": "function"
    },
    {
      "inputs": [
        {
          "internalType": "address",
          "name": "operator",
          "type": "address"
        },
        {
          "internalType": "bool",
          "name": "approved",
          "type": "bool"
        }
      ],
      "name": "setApprovalForAll",
      "outputs": [],
      "stateMutability": "nonpayable",
      "type": "function"
    },
    {
      "inputs": [
        {
          "internalType": "bytes4",
          "name": "interfaceId",
          "type": "bytes4"
        }
      ],
      "name": "supportsInterface",
      "outputs": [
        {
          "internalType": "bool",
          "name": "",
          "type": "bool"
        }
      ],
      "stateMutability": "view",
      "type": "function"
    },
    {
      "inputs": [],
      "name": "symbol",
      "outputs": [
        {
          "internalType": "string",
          "name": "",
          "type": "string"
        }
      ],
      "stateMutability": "view",
      "type": "function"
    },
    {
      "inputs": [
        {
          "internalType": "uint256",
          "name": "tokenId",
          "type": "uint256"
        }
      ],
      "name": "tokenURI",
      "outputs": [
        {
          "internalType": "string",
          "name": "",
          "type": "string"
        }
      ],
      "stateMutability": "view",
      "type": "function"
    },
    {
      "inputs": [],
      "name": "totalSupply",
      "outputs": [
        {
          "internalType": "uint256",
          "name": "",
          "type": "uint256"
        }
      ],
      "stateMutability": "view",
      "type": "function"
    },
    {
      "inputs": [
        {
          "internalType": "address",
          "name": "from",
          "type": "address"
        },
        {
          "internalType": "address",
          "name": "to",
          "type": "address"
        },
        {
          "internalType": "uint256",
          "name": "tokenId",
          "type": "uint256"
        }
      ],
      "name": "transferFrom",
      "outputs": [],
      "stateMutability": "nonpayable",
      "type": "function"
    },
    {
      "inputs": [
        {
          "internalType": "address",
          "name": "newOwner",
          "type": "address"
        }
      ],
      "name": "transferOwnership",
      "outputs": [],
      "stateMutability": "nonpayable",
      "type": "function"
    }
  ],
  "bytecode": "0x610120604052601360e09081527f656d62726163655f636f6d6d756e69746965730000000000000000000000000061010052600990620000409082620007e0565b503480156200004e57600080fd5b506040516200398f3803806200398f833981016040819052620000719162000980565b84846000620000818382620007e0565b506001620000908282620007e0565b505050620000ad620000a76200014660201b60201c565b6200014a565b6001600160a01b03808216608081905283821660a052600a80546001600160a01b0319169091179055831660c052620000e56200019c565b604051600090620000fc90600c9060200162000a22565b60405160208183030381529060405290506200013a8160405160200162000124919062000ae5565b60408051601f19818403018152919052620004a5565b50505050505062000d86565b3390565b600780546001600160a01b038381166001600160a01b0319831681179093556040519116919082907f8be0079c531659141344cd1fd0a4f28419497f9722a3daafe3b4186f6b6457e090600090a35050565b600b5415620001cc57604051633e0f514960e01b8152620001c390600c9060040162000b5f565b60405180910390fd5b600a54604080516060810190915260368082526001600160a01b0390921691633a9151b0913091620002a6919062003959602083013960098054620002119062000751565b80601f01602080910402602001604051908101604052809291908181526020018280546200023f9062000751565b8015620002905780601f10620002645761010080835404028352916020019162000290565b820191906000526020600020905b8154815290600101906020018083116200027257829003601f168201915b5050505050620004b760201b620010261760201c565b6040518363ffffffff1660e01b8152600401620002c592919062000c20565b6020604051808303816000875af1158015620002e5573d6000803e3d6000fd5b505050506040513d601f19601f820116820180604052508101906200030b919062000c4e565b600b5560098054620003be9190620003239062000751565b80601f0160208091040260200160405190810160405280929190818152602001828054620003519062000751565b8015620003a25780601f106200037657610100808354040283529160200191620003a2565b820191906000526020600020905b8154815290600101906020018083116200038457829003601f168201915b5050505050600b60000154620004fc60201b6200105c1760201c565b600c90620003cd9082620007e0565b50620004a36040518060400160405280601181526020017043726561746564207461626c653a20257360781b815250600b60010180546200040e9062000751565b80601f01602080910402602001604051908101604052809291908181526020018280546200043c9062000751565b80156200048d5780601f1062000461576101008083540402835291602001916200048d565b820191906000526020600020905b8154815290600101906020018083116200046f57829003601f168201915b50505050506200053f60201b620010831760201c565b565b600d620004b38282620007e0565b5050565b606081620004d0466200058c60201b620010c81760201c565b84604051602001620004e59392919062000c68565b604051602081830303815290604052905092915050565b60608262000515466200058c60201b620010c81760201c565b6200052b846200058c60201b620010c81760201c565b604051602001620004e59392919062000cf4565b620004b382826040516024016200055892919062000d54565b60408051601f198184030181529190526020810180516001600160e01b03908116634b5c427760e01b179091526200063016565b60606000620005a6836200065160201b6200115a1760201c565b60010190506000816001600160401b03811115620005c857620005c86200073b565b6040519080825280601f01601f191660200182016040528015620005f3576020820181803683370190505b5090508181016020015b600019016f181899199a1a9b1b9c1cb0b131b232b360811b600a86061a8153600a8504945084620005fd57509392505050565b80516a636f6e736f6c652e6c6f67602083016000808483855afa5050505050565b6000807a184f03e93ff9f4daa797ed6e38ed64bf6a1f01000000000000000083106200069b577a184f03e93ff9f4daa797ed6e38ed64bf6a1f010000000000000000830492506040015b6d04ee2d6d415b85acef81000000008310620006c8576d04ee2d6d415b85acef8100000000830492506020015b662386f26fc100008310620006e757662386f26fc10000830492506010015b6305f5e100831062000700576305f5e100830492506008015b61271083106200071557612710830492506004015b6064831062000728576064830492506002015b600a831062000735576001015b92915050565b634e487b7160e01b600052604160045260246000fd5b600181811c908216806200076657607f821691505b6020821081036200078757634e487b7160e01b600052602260045260246000fd5b50919050565b601f821115620007db57600081815260208120601f850160051c81016020861015620007b65750805b601f850160051c820191505b81811015620007d757828155600101620007c2565b5050505b505050565b81516001600160401b03811115620007fc57620007fc6200073b565b62000814816200080d845462000751565b846200078d565b602080601f8311600181146200084c5760008415620008335750858301515b600019600386901b1c1916600185901b178555620007d7565b600085815260208120601f198616915b828110156200087d578886015182559484019460019091019084016200085c565b50858210156200089c5787850151600019600388901b60f8161c191681555b5050505050600190811b01905550565b60005b83811015620008c9578181015183820152602001620008af565b50506000910152565b600082601f830112620008e457600080fd5b81516001600160401b03808211156200090157620009016200073b565b604051601f8301601f19908116603f011681019082821181831017156200092c576200092c6200073b565b816040528381528660208588010111156200094657600080fd5b62000959846020830160208901620008ac565b9695505050505050565b80516001600160a01b03811681146200097b57600080fd5b919050565b600080600080600060a086880312156200099957600080fd5b85516001600160401b0380821115620009b157600080fd5b620009bf89838a01620008d2565b96506020880151915080821115620009d657600080fd5b50620009e588828901620008d2565b945050620009f66040870162000963565b925062000a066060870162000963565b915062000a166080870162000963565b90509295509295909350565b7f53454c4543542b6d657461646174612b46524f4d2b00000000000000000000008152600060156000845462000a588162000751565b6001828116801562000a73576001811462000a8d5762000ac2565b60ff19841688870152821515830288018601945062000ac2565b8860005260208060002060005b8581101562000ab75781548b82018a015290840190820162000a9a565b505050858389010194505b50506d2b57484552452b69642b2533442b60901b83525050600e01949350505050565b7f68747470733a2f2f746573746e6574732e7461626c656c616e642e6e6574776f81527f726b2f71756572793f756e777261703d7472756526657874726163743d7472756020820152636526733d60e01b60408201526000825162000b52816044850160208701620008ac565b9190910160440192915050565b600060208083526000845462000b758162000751565b8084870152604060018084166000811462000b99576001811462000bb45762000be4565b60ff1985168984015283151560051b89018301955062000be4565b896000528660002060005b8581101562000bdc5781548b820186015290830190880162000bbf565b8a0184019650505b509398975050505050505050565b6000815180845262000c0c816020860160208601620008ac565b601f01601f19169290920160200192915050565b6001600160a01b038316815260406020820181905260009062000c469083018462000bf2565b949350505050565b60006020828403121562000c6157600080fd5b5051919050565b6c021a922a0aa22902a20a126229609d1b81526000845162000c9281600d850160208901620008ac565b605f60f81b600d91840191820152845162000cb581600e840160208901620008ac565b600560fb1b600e9290910191820152835162000cd981600f840160208801620008ac565b602960f81b600f929091019182015260100195945050505050565b6000845162000d08818460208901620008ac565b8083019050605f60f81b808252855162000d2a816001850160208a01620008ac565b6001920191820152835162000d47816002840160208801620008ac565b0160020195945050505050565b60408152600062000d69604083018562000bf2565b828103602084015262000d7d818562000bf2565b95945050505050565b60805160a05160c051612ba362000db66000396000610ed401526000610cd801526000610d610152612ba36000f3fe608060405234801561001057600080fd5b50600436106101335760003560e01c806301ffc9a71461013857806306fdde0314610160578063081812fc14610175578063095ea7b3146101a0578063150b7a02146101b557806318160ddd146101e157806323b872dd146101f7578063315ac0581461020a57806342842e0e1461021d5780635d5a33a2146102305780636352211e1461023857806370a082311461024b578063715018a61461025e5780638da5cb5b1461026657806395d89b411461026e578063a22cb46514610276578063b17588e414610289578063b88d4fde146102a9578063c251b565146102bc578063c25d33c3146102d1578063c87b56dd146102f1578063d359496314610304578063dc591bc91461031a578063e985e9c51461032d578063f2fde38b14610340575b600080fd5b61014b610146366004611be2565b610353565b60405190151581526020015b60405180910390f35b6101686103a5565b6040516101579190611c4f565b610188610183366004611c62565b610437565b6040516001600160a01b039091168152602001610157565b6101b36101ae366004611c92565b61045e565b005b6101c86101c3366004611da3565b610578565b6040516001600160e01b03199091168152602001610157565b6101e9610589565b604051908152602001610157565b6101b3610205366004611e1e565b610599565b6101b3610218366004611f32565b6105ca565b6101b361022b366004611e1e565b6107d0565b6101686107eb565b610188610246366004611c62565b6107fd565b6101e9610259366004611f78565b610831565b6101b36108b7565b6101886108cb565b6101686108da565b6101b3610284366004611f93565b6108e9565b6101e9610297366004611c62565b600e6020526000908152604090205481565b6101b36102b7366004611da3565b6108f8565b6102c4610930565b6040516101579190612000565b6102e46102df366004612062565b610a41565b6040516101579190612096565b6101686102ff366004611c62565b610bc6565b61030c610bd1565b6040516101579291906120a9565b6101e96103283660046121fc565b610c68565b61014b61033b3660046122fe565b610f7f565b6101b361034e366004611f78565b610fad565b60006001600160e01b031982166380ac58cd60e01b148061038457506001600160e01b03198216635b5e139f60e01b145b8061039f57506301ffc9a760e01b6001600160e01b03198316145b92915050565b6060600080546103b490612331565b80601f01602080910402602001604051908101604052809291908181526020018280546103e090612331565b801561042d5780601f106104025761010080835404028352916020019161042d565b820191906000526020600020905b81548152906001019060200180831161041057829003601f168201915b5050505050905090565b600061044282611230565b506000908152600460205260409020546001600160a01b031690565b6000610469826107fd565b9050806001600160a01b0316836001600160a01b0316036104db5760405162461bcd60e51b815260206004820152602160248201527f4552433732313a20617070726f76616c20746f2063757272656e74206f776e656044820152603960f91b60648201526084015b60405180910390fd5b336001600160a01b03821614806104f757506104f78133610f7f565b6105695760405162461bcd60e51b815260206004820152603d60248201527f4552433732313a20617070726f76652063616c6c6572206973206e6f7420746f60448201527f6b656e206f776e6572206f7220617070726f76656420666f7220616c6c00000060648201526084016104d2565b6105738383611255565b505050565b630a85bd0160e11b5b949350505050565b600061059460085490565b905090565b6105a333826112c3565b6105bf5760405162461bcd60e51b81526004016104d29061236b565b610573838383611321565b60006105d5836110c8565b90506000826000015183602001518460400151856060015160405160200161060094939291906123b8565b6040516020818303038152906040529050600061061d60016110c8565b905060006107146009805461063190612331565b80601f016020809104026020016040519081016040528092919081815260200182805461065d90612331565b80156106aa5780601f1061067f576101008083540402835291602001916106aa565b820191906000526020600020905b81548152906001019060200180831161068d57829003601f168201915b5050505050600b60000154604051806040016040528060158152602001741a590b081b595d1859185d184b081a5b99195e1959605a1b815250876106ed88611480565b876040516020016107009392919061248b565b6040516020818303038152906040526114a9565b905046617a69036107605761075860405180604001604052806017815260200176496e73657274696e6720436f6d6d756e6974793a20257360481b81525082611083565b505050505050565b600a54600b5460405163757ae82760e11b81526001600160a01b039092169163eaf5d04e916107969130919086906004016124e5565b600060405180830381600087803b1580156107b057600080fd5b505af11580156107c4573d6000803e3d6000fd5b50505050505050505050565b610573838383604051806020016040528060008152506108f8565b6060600b60010180546103b490612331565b600080610809836114e8565b90506001600160a01b03811661039f5760405162461bcd60e51b81526004016104d290612515565b60006001600160a01b03821661089b5760405162461bcd60e51b815260206004820152602960248201527f4552433732313a2061646472657373207a65726f206973206e6f7420612076616044820152683634b21037bbb732b960b91b60648201526084016104d2565b506001600160a01b031660009081526003602052604090205490565b6108bf611503565b6108c96000611562565b565b6007546001600160a01b031690565b6060600180546103b490612331565b6108f43383836115b4565b5050565b61090233836112c3565b61091e5760405162461bcd60e51b81526004016104d29061236b565b61092a8484848461167e565b50505050565b6060600f805480602002602001604051908101604052809291908181526020016000905b82821015610a3857600084815260209081902060408051606081018252600386029092018054835260018101546001600160a01b031693830193909352600283018054929392918401916109a790612331565b80601f01602080910402602001604051908101604052809291908181526020018280546109d390612331565b8015610a205780601f106109f557610100808354040283529160200191610a20565b820191906000526020600020905b815481529060010190602001808311610a0357829003601f168201915b50505050508152505081526020019060010190610954565b50505050905090565b6040805160608082018352600080835260208301529181019190915281516020808401919091206000818152600e90925260408220549091600f610a8660018461255d565b81548110610a9657610a96612570565b9060005260206000209060030201604051806060016040529081600082015481526020016001820160009054906101000a90046001600160a01b03166001600160a01b03166001600160a01b03168152602001600282018054610af890612331565b80601f0160208091040260200160405190810160405280929190818152602001828054610b2490612331565b8015610b715780601f10610b4657610100808354040283529160200191610b71565b820191906000526020600020905b815481529060010190602001808311610b5457829003601f168201915b505050505081525050905080600001516000036105815760405162461bcd60e51b815260206004820152601360248201527210dbdb5b5d5b9a5d1e481b9bdd08199bdd5b99606a1b60448201526064016104d2565b606061039f826116b1565b600b8054600c8054919291610be590612331565b80601f0160208091040260200160405190810160405280929190818152602001828054610c1190612331565b8015610c5e5780601f10610c3357610100808354040283529160200191610c5e565b820191906000526020600020905b815481529060010190602001808311610c4157829003601f168201915b5050505050905082565b82516020808501919091206000818152600e909252604082205415610ca25784604051630b6da56160e21b81526004016104d29190611c4f565b610cb0600880546001019055565b6000610cbb60085490565b9050610cc733826117ac565b610cd181856105ca565b6000610cfc7f00000000000000000000000000000000000000000000000000000000000000006118b5565b9050806001600160a01b0316636c11cefc610d16846110c8565b604051602001610d269190612586565b604051602081830303815290604052610d3e856110c8565b604051602001610d4e91906125c0565b60405160208183030381529060405233307f0000000000000000000000000000000000000000000000000000000000000000888d6040518863ffffffff1660e01b8152600401610da49796959493929190612650565b600060405180830381600087803b158015610dbe57600080fd5b505af1158015610dd2573d6000803e3d6000fd5b5050604080516060810182528581526001600160a01b03858116602083019081529282018c8152600f805460018101825560009190915283517f8d1108e10bcb7c27dddfc02ed9d693a074039d026cf4ea4240b40f7d581ac802600390920291820190815594517f8d1108e10bcb7c27dddfc02ed9d693a074039d026cf4ea4240b40f7d581ac803820180546001600160a01b0319169190941617909255519194508493507f8d1108e10bcb7c27dddfc02ed9d693a074039d026cf4ea4240b40f7d581ac8040190610ea49082612792565b5050506000848152600e60205260409081902084905551633576860d60e11b8152336004820152602481018490527f00000000000000000000000000000000000000000000000000000000000000006001600160a01b031690636aed0c1a90604401600060405180830381600087803b158015610f2057600080fd5b505af1158015610f34573d6000803e3d6000fd5b50505050610f7360405180604001604052806018815260200177436f6d6d756e69747920437265617465643a20257320257360401b815250844661194f565b50909695505050505050565b6001600160a01b03918216600090815260056020908152604080832093909416825291909152205460ff1690565b610fb5611503565b6001600160a01b03811661101a5760405162461bcd60e51b815260206004820152602660248201527f4f776e61626c653a206e6577206f776e657220697320746865207a65726f206160448201526564647265737360d01b60648201526084016104d2565b61102381611562565b50565b606081611032466110c8565b8460405160200161104593929190612851565b604051602081830303815290604052905092915050565b606082611068466110c8565b611071846110c8565b604051602001611045939291906128d7565b6108f48282604051602401611099929190612909565b60408051601f198184030181529190526020810180516001600160e01b0316634b5c427760e01b179052611992565b606060006110d58361115a565b60010190506000816001600160401b038111156110f4576110f4611cbc565b6040519080825280601f01601f19166020018201604052801561111e576020820181803683370190505b5090508181016020015b600019016f181899199a1a9b1b9c1cb0b131b232b360811b600a86061a8153600a850494508461112857509392505050565b60008072184f03e93ff9f4daa797ed6e38ed64bf6a1f0160401b83106111995772184f03e93ff9f4daa797ed6e38ed64bf6a1f0160401b830492506040015b6904ee2d6d415b85acef8160201b83106111c3576904ee2d6d415b85acef8160201b830492506020015b662386f26fc1000083106111e157662386f26fc10000830492506010015b6305f5e10083106111f9576305f5e100830492506008015b612710831061120d57612710830492506004015b6064831061121f576064830492506002015b600a831061039f5760010192915050565b611239816119b3565b6110235760405162461bcd60e51b81526004016104d290612515565b600081815260046020526040902080546001600160a01b0319166001600160a01b038416908117909155819061128a826107fd565b6001600160a01b03167f8c5be1e5ebec7d5bd14f71427d1e84f3dd0314c0f7b2291e5b200ac8c7c3b92560405160405180910390a45050565b6000806112cf836107fd565b9050806001600160a01b0316846001600160a01b031614806112f657506112f68185610f7f565b806105815750836001600160a01b031661130f84610437565b6001600160a01b031614949350505050565b826001600160a01b0316611334826107fd565b6001600160a01b03161461135a5760405162461bcd60e51b81526004016104d29061292e565b6001600160a01b0382166113bc5760405162461bcd60e51b8152602060048201526024808201527f4552433732313a207472616e7366657220746f20746865207a65726f206164646044820152637265737360e01b60648201526084016104d2565b6113c983838360016119d0565b826001600160a01b03166113dc826107fd565b6001600160a01b0316146114025760405162461bcd60e51b81526004016104d29061292e565b600081815260046020908152604080832080546001600160a01b03199081169091556001600160a01b038781168086526003855283862080546000190190559087168086528386208054600101905586865260029094528285208054909216841790915590518493600080516020612b7783398151915291a4505050565b6060816040516020016114939190612973565b6040516020818303038152906040529050919050565b606060006114b7868661105c565b90508084846040516020016114ce939291906129a1565b604051602081830303815290604052915050949350505050565b6000908152600260205260409020546001600160a01b031690565b3361150c6108cb565b6001600160a01b0316146108c95760405162461bcd60e51b815260206004820181905260248201527f4f776e61626c653a2063616c6c6572206973206e6f7420746865206f776e657260448201526064016104d2565b600780546001600160a01b038381166001600160a01b0319831681179093556040519116919082907f8be0079c531659141344cd1fd0a4f28419497f9722a3daafe3b4186f6b6457e090600090a35050565b816001600160a01b0316836001600160a01b0316036116115760405162461bcd60e51b815260206004820152601960248201527822a9219b99189d1030b8383937bb32903a379031b0b63632b960391b60448201526064016104d2565b6001600160a01b03838116600081815260056020908152604080832094871680845294825291829020805460ff191686151590811790915591519182527f17307eab39ab6107e8899845ad3d59bd9653f200f220920489ca2b5937696c31910160405180910390a3505050565b611689848484611321565b61169584848484611a58565b61092a5760405162461bcd60e51b81526004016104d290612a2d565b60606116bc82611230565b600082815260066020526040812080546116d590612331565b80601f016020809104026020016040519081016040528092919081815260200182805461170190612331565b801561174e5780601f106117235761010080835404028352916020019161174e565b820191906000526020600020905b81548152906001019060200180831161173157829003601f168201915b50505050509050600061175f611b56565b90508051600003611771575092915050565b8151156117a357808260405160200161178b929190612a7f565b60405160208183030381529060405292505050919050565b61058184611b65565b6001600160a01b0382166118025760405162461bcd60e51b815260206004820181905260248201527f4552433732313a206d696e7420746f20746865207a65726f206164647265737360448201526064016104d2565b61180b816119b3565b156118285760405162461bcd60e51b81526004016104d290612aae565b6118366000838360016119d0565b61183f816119b3565b1561185c5760405162461bcd60e51b81526004016104d290612aae565b6001600160a01b038216600081815260036020908152604080832080546001019055848352600290915280822080546001600160a01b031916841790555183929190600080516020612b77833981519152908290a45050565b6000763d602d80600a3d3981f3363d3d373d3d3d363d730000008260601b60e81c176000526e5af43d82803e903d91602b57fd5bf38260781b17602052603760096000f090506001600160a01b03811661194a5760405162461bcd60e51b8152602060048201526016602482015275115490cc4c4d8dce8818dc99585d194819985a5b195960521b60448201526064016104d2565b919050565b61057383838360405160240161196793929190612ae4565b60408051601f198184030181529190526020810180516001600160e01b031663ca47c4eb60e01b1790525b80516a636f6e736f6c652e6c6f67602083016000808483855afa5050505050565b6000806119bf836114e8565b6001600160a01b0316141592915050565b600181111561092a576001600160a01b03841615611a16576001600160a01b03841660009081526003602052604081208054839290611a1090849061255d565b90915550505b6001600160a01b0383161561092a576001600160a01b03831660009081526003602052604081208054839290611a4d908490612b09565b909155505050505050565b60006001600160a01b0384163b15611b4e57604051630a85bd0160e11b81526001600160a01b0385169063150b7a0290611a9c903390899088908890600401612b1c565b6020604051808303816000875af1925050508015611ad7575060408051601f3d908101601f19168201909252611ad491810190612b59565b60015b611b34573d808015611b05576040519150601f19603f3d011682016040523d82523d6000602084013e611b0a565b606091505b508051600003611b2c5760405162461bcd60e51b81526004016104d290612a2d565b805181602001fd5b6001600160e01b031916630a85bd0160e11b149050610581565b506001610581565b6060600d80546103b490612331565b6060611b7082611230565b6000611b7a611b56565b90506000815111611b9a5760405180602001604052806000815250611bc5565b80611ba4846110c8565b604051602001611bb5929190612a7f565b6040516020818303038152906040525b9392505050565b6001600160e01b03198116811461102357600080fd5b600060208284031215611bf457600080fd5b8135611bc581611bcc565b60005b83811015611c1a578181015183820152602001611c02565b50506000910152565b60008151808452611c3b816020860160208601611bff565b601f01601f19169290920160200192915050565b602081526000611bc56020830184611c23565b600060208284031215611c7457600080fd5b5035919050565b80356001600160a01b038116811461194a57600080fd5b60008060408385031215611ca557600080fd5b611cae83611c7b565b946020939093013593505050565b634e487b7160e01b600052604160045260246000fd5b604051608081016001600160401b0381118282101715611cf457611cf4611cbc565b60405290565b604051606081016001600160401b0381118282101715611cf457611cf4611cbc565b604051601f8201601f191681016001600160401b0381118282101715611d4457611d44611cbc565b604052919050565b60006001600160401b03831115611d6557611d65611cbc565b611d78601f8401601f1916602001611d1c565b9050828152838383011115611d8c57600080fd5b828260208301376000602084830101529392505050565b60008060008060808587031215611db957600080fd5b611dc285611c7b565b9350611dd060208601611c7b565b92506040850135915060608501356001600160401b03811115611df257600080fd5b8501601f81018713611e0357600080fd5b611e1287823560208401611d4c565b91505092959194509250565b600080600060608486031215611e3357600080fd5b611e3c84611c7b565b9250611e4a60208501611c7b565b9150604084013590509250925092565b600082601f830112611e6b57600080fd5b611bc583833560208501611d4c565b600060808284031215611e8c57600080fd5b611e94611cd2565b905081356001600160401b0380821115611ead57600080fd5b611eb985838601611e5a565b83526020840135915080821115611ecf57600080fd5b611edb85838601611e5a565b60208401526040840135915080821115611ef457600080fd5b611f0085838601611e5a565b60408401526060840135915080821115611f1957600080fd5b50611f2684828501611e5a565b60608301525092915050565b60008060408385031215611f4557600080fd5b8235915060208301356001600160401b03811115611f6257600080fd5b611f6e85828601611e7a565b9150509250929050565b600060208284031215611f8a57600080fd5b611bc582611c7b565b60008060408385031215611fa657600080fd5b611faf83611c7b565b915060208301358015158114611fc457600080fd5b809150509250929050565b8051825260018060a01b03602082015116602083015260006040820151606060408501526105816060850182611c23565b6000602080830181845280855180835260408601915060408160051b870101925083870160005b8281101561205557603f19888603018452612043858351611fcf565b94509285019290850190600101612027565b5092979650505050505050565b60006020828403121561207457600080fd5b81356001600160401b0381111561208a57600080fd5b61058184828501611e5a565b602081526000611bc56020830184611fcf565b8281526040602082015260006105816040830184611c23565b600081830360808112156120d557600080fd5b604080519081016001600160401b03811182821017156120f7576120f7611cbc565b60405291508183356003811061210c57600080fd5b81526060601f198301121561212057600080fd5b612128611cfa565b915060208401356004811061213c57600080fd5b825261214a60408501611c7b565b602083015260608401356040830152816020820152505092915050565b600082601f83011261217857600080fd5b813560206001600160401b0382111561219357612193611cbc565b8160051b6121a2828201611d1c565b92835284810182019282810190878511156121bc57600080fd5b83870192505b848310156121f15782356001600160801b03811681146121e25760008081fd5b825291830191908301906121c2565b979650505050505050565b60008060006060848603121561221157600080fd5b83356001600160401b038082111561222857600080fd5b61223487838801611e5a565b9450602086013591508082111561224a57600080fd5b9085019060e0828803121561225e57600080fd5b612266611cd2565b82358281111561227557600080fd5b61228189828601611e5a565b82525060208301356002811061229657600080fd5b60208201526122a888604085016120c2565b604082015260c0830135828111156122bf57600080fd5b6122cb89828601612167565b606083015250935060408601359150808211156122e757600080fd5b506122f486828701611e7a565b9150509250925092565b6000806040838503121561231157600080fd5b61231a83611c7b565b915061232860208401611c7b565b90509250929050565b600181811c9082168061234557607f821691505b60208210810361236557634e487b7160e01b600052602260045260246000fd5b50919050565b6020808252602d908201527f4552433732313a2063616c6c6572206973206e6f7420746f6b656e206f776e6560408201526c1c881bdc88185c1c1c9bdd9959609a1b606082015260800190565b6b3d913430b7323632911d101160a11b815284516000906123e081600c850160208a01611bff565b6b111610113730b6b2911d101160a11b600c91840191820152855161240c816018840160208a01611bff565b72111610113232b9b1b934b83a34b7b7111d101160691b60189290910191820152845161244081602b840160208901611bff565b6c1116101134b6b0b3b2911d101160991b602b9290910191820152835161246e816038840160208801611bff565b61227d60f01b60389290910191820152603a019695505050505050565b6000845161249d818460208901611bff565b8083019050600b60fa1b80825285516124bd816001850160208a01611bff565b600192019182015283516124d8816002840160208801611bff565b0160020195945050505050565b60018060a01b038416815282602082015260606040820152600061250c6060830184611c23565b95945050505050565b602080825260189082015277115490cdcc8c4e881a5b9d985b1a59081d1bdad95b88125160421b604082015260600190565b634e487b7160e01b600052601160045260246000fd5b8181038181111561039f5761039f612547565b634e487b7160e01b600052603260045260246000fd5b71022a6a12920a1a2afa1a7a6a6af98171899960751b8152600082516125b3816012850160208701611bff565b9190910160120192915050565b6d022a6a12fa1a7a6a6af98171899960951b8152600082516125e981600e850160208701611bff565b91909101600e0192915050565b634e487b7160e01b600052602160045260246000fd5b600081518084526020808501945080840160005b838110156126455781516001600160801b031687529582019590820190600101612620565b509495945050505050565b60e08152600061266360e083018a611c23565b8281036020840152612675818a611c23565b905060018060a01b038089166040850152808816606085015280871660808501528560a085015283820360c0850152845160e083526126b760e0840182611c23565b90506020860151600281106126ce576126ce6125f6565b602084015260408601518051600381106126ea576126ea6125f6565b604085015260200151805160048110612705576127056125f6565b80606086015250826020820151166080850152604081015160a0850152506060860151915082810360c084015261273c818361260c565b9c9b505050505050505050505050565b601f82111561057357600081815260208120601f850160051c810160208610156127735750805b601f850160051c820191505b818110156107585782815560010161277f565b81516001600160401b038111156127ab576127ab611cbc565b6127bf816127b98454612331565b8461274c565b602080601f8311600181146127f457600084156127dc5750858301515b600019600386901b1c1916600185901b178555610758565b600085815260208120601f198616915b8281101561282357888601518255948401946001909101908401612804565b50858210156128415787850151600019600388901b60f8161c191681555b5050505050600190811b01905550565b6c021a922a0aa22902a20a126229609d1b81526000845161287981600d850160208901611bff565b605f60f81b600d91840191820152845161289a81600e840160208901611bff565b600560fb1b600e929091019182015283516128bc81600f840160208801611bff565b602960f81b600f929091019182015260100195945050505050565b600084516128e9818460208901611bff565b8083019050605f60f81b80825285516124bd816001850160208a01611bff565b60408152600061291c6040830185611c23565b828103602084015261250c8185611c23565b60208082526025908201527f4552433732313a207472616e736665722066726f6d20696e636f72726563742060408201526437bbb732b960d91b606082015260800190565b6000602760f81b8083528351612990816001860160208801611bff565b600193019283015250600201919050565b6b024a729a2a92a1024a72a27960a51b8152600084516129c881600c850160208901611bff565b600560fb1b600c9184019182015284516129e981600d840160208901611bff565b67052ac8298aa8aa6560c31b600d92909101918201528351612a12816015840160208801611bff565b602960f81b6015929091019182015260160195945050505050565b60208082526032908201527f4552433732313a207472616e7366657220746f206e6f6e20455243373231526560408201527131b2b4bb32b91034b6b83632b6b2b73a32b960711b606082015260800190565b60008351612a91818460208801611bff565b835190830190612aa5818360208801611bff565b01949350505050565b6020808252601c908201527b115490cdcc8c4e881d1bdad95b88185b1c9958591e481b5a5b9d195960221b604082015260600190565b606081526000612af76060830186611c23565b60208301949094525060400152919050565b8082018082111561039f5761039f612547565b6001600160a01b0385811682528416602082015260408101839052608060608201819052600090612b4f90830184611c23565b9695505050505050565b600060208284031215612b6b57600080fd5b8151611bc581611bcc56feddf252ad1be2c89b69c2b068fc378daa952ba7f163c4a11628f55a4df523b3efa164736f6c6343000811000a696420696e7465676572207072696d617279206b65792c206d6574616461746120746578742c20696e646578656420696e7465676572",
  "linkReferences": {},
  "deployedLinkReferences": {}
}