{
  "_format": "hh-sol-artifact-1",
  "contractName": "EmbraceCommunities",
  "sourceName": "contracts/EmbraceCommunities.sol",
  "abi": [
    {
      "inputs": [
        {
          "internalType": "string",
          "name": "_name",
          "type": "string"
        },
        {
          "internalType": "string",
          "name": "_symbol",
          "type": "string"
        },
        {
          "internalType": "address",
          "name": "_accountsContractAddress",
          "type": "address"
        },
        {
          "internalType": "address",
          "name": "_appsContractAddress",
          "type": "address"
        }
      ],
      "stateMutability": "nonpayable",
      "type": "constructor"
    },
    {
      "anonymous": false,
      "inputs": [
        {
          "indexed": true,
          "internalType": "address",
          "name": "owner",
          "type": "address"
        },
        {
          "indexed": true,
          "internalType": "address",
          "name": "approved",
          "type": "address"
        },
        {
          "indexed": true,
          "internalType": "uint256",
          "name": "tokenId",
          "type": "uint256"
        }
      ],
      "name": "Approval",
      "type": "event"
    },
    {
      "anonymous": false,
      "inputs": [
        {
          "indexed": true,
          "internalType": "address",
          "name": "owner",
          "type": "address"
        },
        {
          "indexed": true,
          "internalType": "address",
          "name": "operator",
          "type": "address"
        },
        {
          "indexed": false,
          "internalType": "bool",
          "name": "approved",
          "type": "bool"
        }
      ],
      "name": "ApprovalForAll",
      "type": "event"
    },
    {
      "anonymous": false,
      "inputs": [
        {
          "indexed": true,
          "internalType": "address",
          "name": "from",
          "type": "address"
        },
        {
          "indexed": true,
          "internalType": "address",
          "name": "to",
          "type": "address"
        },
        {
          "indexed": true,
          "internalType": "uint256",
          "name": "tokenId",
          "type": "uint256"
        }
      ],
      "name": "Transfer",
      "type": "event"
    },
    {
      "inputs": [
        {
          "internalType": "address",
          "name": "to",
          "type": "address"
        },
        {
          "internalType": "uint256",
          "name": "tokenId",
          "type": "uint256"
        }
      ],
      "name": "approve",
      "outputs": [],
      "stateMutability": "nonpayable",
      "type": "function"
    },
    {
      "inputs": [
        {
          "internalType": "address",
          "name": "owner",
          "type": "address"
        }
      ],
      "name": "balanceOf",
      "outputs": [
        {
          "internalType": "uint256",
          "name": "",
          "type": "uint256"
        }
      ],
      "stateMutability": "view",
      "type": "function"
    },
    {
      "inputs": [
        {
          "internalType": "uint256",
          "name": "",
          "type": "uint256"
        }
      ],
      "name": "communities",
      "outputs": [
        {
          "internalType": "uint256",
          "name": "id",
          "type": "uint256"
        },
        {
          "internalType": "address",
          "name": "contractAddress",
          "type": "address"
        },
        {
          "internalType": "string",
          "name": "handle",
          "type": "string"
        }
      ],
      "stateMutability": "view",
      "type": "function"
    },
    {
      "inputs": [
        {
          "internalType": "string",
          "name": "_handle",
          "type": "string"
        },
        {
          "components": [
            {
              "internalType": "string",
              "name": "handle",
              "type": "string"
            },
            {
              "internalType": "enum Visibility",
              "name": "visibility",
              "type": "uint8"
            },
            {
              "internalType": "enum Membership",
              "name": "membership",
              "type": "uint8"
            },
            {
              "internalType": "uint128[]",
              "name": "apps",
              "type": "uint128[]"
            }
          ],
          "internalType": "struct CommunityData",
          "name": "_communityData",
          "type": "tuple"
        },
        {
          "internalType": "string",
          "name": "_tokenURI",
          "type": "string"
        },
        {
          "components": [
            {
              "internalType": "string",
              "name": "name",
              "type": "string"
            },
            {
              "internalType": "string",
              "name": "description",
              "type": "string"
            },
            {
              "internalType": "string",
              "name": "image",
              "type": "string"
            }
          ],
          "internalType": "struct EmbraceCommunities.CommunityMetaData",
          "name": "_communityMetaData",
          "type": "tuple"
        }
      ],
      "name": "createCommunity",
      "outputs": [
        {
          "internalType": "uint256",
          "name": "",
          "type": "uint256"
        }
      ],
      "stateMutability": "nonpayable",
      "type": "function"
    },
    {
      "inputs": [
        {
          "internalType": "uint256",
          "name": "tokenId",
          "type": "uint256"
        }
      ],
      "name": "getApproved",
      "outputs": [
        {
          "internalType": "address",
          "name": "",
          "type": "address"
        }
      ],
      "stateMutability": "view",
      "type": "function"
    },
    {
      "inputs": [],
      "name": "getCommunities",
      "outputs": [
        {
          "internalType": "uint256[]",
          "name": "",
          "type": "uint256[]"
        }
      ],
      "stateMutability": "view",
      "type": "function"
    },
    {
      "inputs": [],
      "name": "getCommunitiesData",
      "outputs": [
        {
          "components": [
            {
              "internalType": "uint256",
              "name": "tokenId",
              "type": "uint256"
            },
            {
              "internalType": "string",
              "name": "tokenURI",
              "type": "string"
            },
            {
              "internalType": "address",
              "name": "owner",
              "type": "address"
            }
          ],
          "internalType": "struct EmbraceCommunities.TokenData[]",
          "name": "",
          "type": "tuple[]"
        }
      ],
      "stateMutability": "view",
      "type": "function"
    },
    {
      "inputs": [
        {
          "internalType": "string",
          "name": "_handle",
          "type": "string"
        }
      ],
      "name": "handleToCommunity",
      "outputs": [
        {
          "components": [
            {
              "internalType": "string",
              "name": "handle",
              "type": "string"
            },
            {
              "internalType": "enum Visibility",
              "name": "visibility",
              "type": "uint8"
            },
            {
              "internalType": "enum Membership",
              "name": "membership",
              "type": "uint8"
            },
            {
              "internalType": "uint128[]",
              "name": "apps",
              "type": "uint128[]"
            }
          ],
          "internalType": "struct CommunityData",
          "name": "",
          "type": "tuple"
        }
      ],
      "stateMutability": "view",
      "type": "function"
    },
    {
      "inputs": [
        {
          "internalType": "bytes32",
          "name": "",
          "type": "bytes32"
        }
      ],
      "name": "handleToId",
      "outputs": [
        {
          "internalType": "uint256",
          "name": "",
          "type": "uint256"
        }
      ],
      "stateMutability": "view",
      "type": "function"
    },
    {
      "inputs": [
        {
          "internalType": "address",
          "name": "owner",
          "type": "address"
        },
        {
          "internalType": "address",
          "name": "operator",
          "type": "address"
        }
      ],
      "name": "isApprovedForAll",
      "outputs": [
        {
          "internalType": "bool",
          "name": "",
          "type": "bool"
        }
      ],
      "stateMutability": "view",
      "type": "function"
    },
    {
      "inputs": [],
      "name": "name",
      "outputs": [
        {
          "internalType": "string",
          "name": "",
          "type": "string"
        }
      ],
      "stateMutability": "view",
      "type": "function"
    },
    {
      "inputs": [
        {
          "internalType": "uint256",
          "name": "tokenId",
          "type": "uint256"
        }
      ],
      "name": "ownerOf",
      "outputs": [
        {
          "internalType": "address",
          "name": "",
          "type": "address"
        }
      ],
      "stateMutability": "view",
      "type": "function"
    },
    {
      "inputs": [
        {
          "internalType": "address",
          "name": "from",
          "type": "address"
        },
        {
          "internalType": "address",
          "name": "to",
          "type": "address"
        },
        {
          "internalType": "uint256",
          "name": "tokenId",
          "type": "uint256"
        }
      ],
      "name": "safeTransferFrom",
      "outputs": [],
      "stateMutability": "nonpayable",
      "type": "function"
    },
    {
      "inputs": [
        {
          "internalType": "address",
          "name": "from",
          "type": "address"
        },
        {
          "internalType": "address",
          "name": "to",
          "type": "address"
        },
        {
          "internalType": "uint256",
          "name": "tokenId",
          "type": "uint256"
        },
        {
          "internalType": "bytes",
          "name": "data",
          "type": "bytes"
        }
      ],
      "name": "safeTransferFrom",
      "outputs": [],
      "stateMutability": "nonpayable",
      "type": "function"
    },
    {
      "inputs": [
        {
          "internalType": "address",
          "name": "operator",
          "type": "address"
        },
        {
          "internalType": "bool",
          "name": "approved",
          "type": "bool"
        }
      ],
      "name": "setApprovalForAll",
      "outputs": [],
      "stateMutability": "nonpayable",
      "type": "function"
    },
    {
      "inputs": [
        {
          "internalType": "bytes4",
          "name": "interfaceId",
          "type": "bytes4"
        }
      ],
      "name": "supportsInterface",
      "outputs": [
        {
          "internalType": "bool",
          "name": "",
          "type": "bool"
        }
      ],
      "stateMutability": "view",
      "type": "function"
    },
    {
      "inputs": [],
      "name": "symbol",
      "outputs": [
        {
          "internalType": "string",
          "name": "",
          "type": "string"
        }
      ],
      "stateMutability": "view",
      "type": "function"
    },
    {
      "inputs": [
        {
          "internalType": "uint256",
          "name": "index",
          "type": "uint256"
        }
      ],
      "name": "tokenByIndex",
      "outputs": [
        {
          "internalType": "uint256",
          "name": "",
          "type": "uint256"
        }
      ],
      "stateMutability": "view",
      "type": "function"
    },
    {
      "inputs": [
        {
          "internalType": "address",
          "name": "owner",
          "type": "address"
        },
        {
          "internalType": "uint256",
          "name": "index",
          "type": "uint256"
        }
      ],
      "name": "tokenOfOwnerByIndex",
      "outputs": [
        {
          "internalType": "uint256",
          "name": "",
          "type": "uint256"
        }
      ],
      "stateMutability": "view",
      "type": "function"
    },
    {
      "inputs": [
        {
          "internalType": "uint256",
          "name": "tokenId",
          "type": "uint256"
        }
      ],
      "name": "tokenURI",
      "outputs": [
        {
          "internalType": "string",
          "name": "",
          "type": "string"
        }
      ],
      "stateMutability": "view",
      "type": "function"
    },
    {
      "inputs": [],
      "name": "totalSupply",
      "outputs": [
        {
          "internalType": "uint256",
          "name": "",
          "type": "uint256"
        }
      ],
      "stateMutability": "view",
      "type": "function"
    },
    {
      "inputs": [
        {
          "internalType": "address",
          "name": "from",
          "type": "address"
        },
        {
          "internalType": "address",
          "name": "to",
          "type": "address"
        },
        {
          "internalType": "uint256",
          "name": "tokenId",
          "type": "uint256"
        }
      ],
      "name": "transferFrom",
      "outputs": [],
      "stateMutability": "nonpayable",
      "type": "function"
    }
  ],
  "bytecode": "0x60806040523480156200001157600080fd5b506040516200617e3803806200617e8339810160408190526200003491620001d0565b83836000620000448382620002ee565b506001620000538282620002ee565b5050604080518082019091526007815266697066733a2f2f60c81b60208201526200007f9150620000d3565b600f80546001600160a01b03199081166001600160a01b038581169190911790925560108054909116918316919091179055620000c9600b620000e5602090811b620011d117901c565b50505050620003ba565b600c620000e18282620002ee565b5050565b80546001019055565b634e487b7160e01b600052604160045260246000fd5b600082601f8301126200011657600080fd5b81516001600160401b0380821115620001335762000133620000ee565b604051601f8301601f19908116603f011681019082821181831017156200015e576200015e620000ee565b816040528381526020925086838588010111156200017b57600080fd5b600091505b838210156200019f578582018301518183018401529082019062000180565b600093810190920192909252949350505050565b80516001600160a01b0381168114620001cb57600080fd5b919050565b60008060008060808587031215620001e757600080fd5b84516001600160401b0380821115620001ff57600080fd5b6200020d8883890162000104565b955060208701519150808211156200022457600080fd5b50620002338782880162000104565b9350506200024460408601620001b3565b91506200025460608601620001b3565b905092959194509250565b600181811c908216806200027457607f821691505b6020821081036200029557634e487b7160e01b600052602260045260246000fd5b50919050565b601f821115620002e957600081815260208120601f850160051c81016020861015620002c45750805b601f850160051c820191505b81811015620002e557828155600101620002d0565b5050505b505050565b81516001600160401b038111156200030a576200030a620000ee565b62000322816200031b84546200025f565b846200029b565b602080601f8311600181146200035a5760008415620003415750858301515b600019600386901b1c1916600185901b178555620002e5565b600085815260208120601f198616915b828110156200038b578886015182559484019460019091019084016200036a565b5085821015620003aa5787850151600019600388901b60f8161c191681555b5050505050600190811b01905550565b615db480620003ca6000396000f3fe60806040523480156200001157600080fd5b5060043610620001a15760003560e01c806387d68e2d11620000e9578063c251b5651162000097578063e590b56a116200006e578063e590b56a1462000399578063e985e9c514620003c1578063f5dbb780146200040057600080fd5b8063c251b5651462000343578063c25d33c3146200035c578063c87b56dd146200038257600080fd5b8063a22cb46511620000cc578063a22cb46514620002f2578063b17588e41462000309578063b88d4fde146200032c57600080fd5b806387d68e2d14620002d157806395d89b4114620002e857600080fd5b806323b872dd11620001535780634f6ccce7116200012a5780634f6ccce7146200028c5780636352211e14620002a357806370a0823114620002ba57600080fd5b806323b872dd14620002475780632f745c59146200025e57806342842e0e146200027557600080fd5b8063081812fc1162000188578063081812fc14620001eb578063095ea7b3146200021b57806318160ddd146200023457600080fd5b806301ffc9a714620001a657806306fdde0314620001d2575b600080fd5b620001bd620001b736600462002219565b62000419565b60405190151581526020015b60405180910390f35b620001dc6200042c565b604051620001c991906200228d565b62000202620001fc366004620022a2565b620004c6565b6040516001600160a01b039091168152602001620001c9565b620002326200022c366004620022d9565b620004ef565b005b6008545b604051908152602001620001c9565b620002326200025836600462002306565b62000613565b620002386200026f366004620022d9565b62000690565b620002326200028636600462002306565b6200073c565b620002386200029d366004620022a2565b62000759565b62000202620002b4366004620022a2565b62000803565b62000238620002cb36600462002347565b6200086a565b62000238620002e23660046200257c565b62000906565b620001dc62000c5c565b62000232620003033660046200271d565b62000c6d565b620002386200031a366004620022a2565b600d6020526000908152604090205481565b620002326200033d3660046200275d565b62000c7e565b6200034d62000d02565b604051620001c99190620027d6565b620003736200036d3660046200281c565b62000dac565b604051620001c9919062002874565b620001dc62000393366004620022a2565b62000fd7565b620003b0620003aa366004620022a2565b62000fe4565b604051620001c99392919062002922565b620001bd620003d236600462002955565b6001600160a01b03918216600090815260056020908152604080832093909416825291909152205460ff1690565b6200040a620010b6565b604051620001c991906200298d565b60006200042682620011da565b92915050565b6060600080546200043d9062002a1b565b80601f01602080910402602001604051908101604052809291908181526020018280546200046b9062002a1b565b8015620004bc5780601f106200049057610100808354040283529160200191620004bc565b820191906000526020600020905b8154815290600101906020018083116200049e57829003601f168201915b5050505050905090565b6000620004d38262001202565b506000908152600460205260409020546001600160a01b031690565b6000620004fc8262000803565b9050806001600160a01b0316836001600160a01b0316036200056f5760405162461bcd60e51b815260206004820152602160248201527f4552433732313a20617070726f76616c20746f2063757272656e74206f776e656044820152603960f91b60648201526084015b60405180910390fd5b336001600160a01b03821614806200058e57506200058e8133620003d2565b620006025760405162461bcd60e51b815260206004820152603d60248201527f4552433732313a20617070726f76652063616c6c6572206973206e6f7420746f60448201527f6b656e206f776e6572206f7220617070726f76656420666f7220616c6c000000606482015260840162000566565b6200060e83836200126b565b505050565b6200061f3382620012db565b620006835760405162461bcd60e51b815260206004820152602d60248201527f4552433732313a2063616c6c6572206973206e6f7420746f6b656e206f776e6560448201526c1c881bdc88185c1c1c9bdd9959609a1b606482015260840162000566565b6200060e8383836200135f565b60006200069d836200086a565b8210620007135760405162461bcd60e51b815260206004820152602b60248201527f455243373231456e756d657261626c653a206f776e657220696e646578206f7560448201527f74206f6620626f756e6473000000000000000000000000000000000000000000606482015260840162000566565b506001600160a01b03919091166000908152600660209081526040808320938352929052205490565b6200060e8383836040518060200160405280600081525062000c7e565b60006200076560085490565b8210620007db5760405162461bcd60e51b815260206004820152602c60248201527f455243373231456e756d657261626c653a20676c6f62616c20696e646578206f60448201527f7574206f6620626f756e64730000000000000000000000000000000000000000606482015260840162000566565b60088281548110620007f157620007f162002a51565b90600052602060002001549050919050565b6000818152600260205260408120546001600160a01b031680620004265760405162461bcd60e51b815260206004820152601860248201527f4552433732313a20696e76616c696420746f6b656e2049440000000000000000604482015260640162000566565b60006001600160a01b038216620008ea5760405162461bcd60e51b815260206004820152602960248201527f4552433732313a2061646472657373207a65726f206973206e6f74206120766160448201527f6c6964206f776e65720000000000000000000000000000000000000000000000606482015260840162000566565b506001600160a01b031660009081526003602052604090205490565b83516020808601919091206000818152600d9092526040822054156200096f5760405162461bcd60e51b815260206004820152600d60248201527f48616e646c652065786973747300000000000000000000000000000000000000604482015260640162000566565b60006200097b600b5490565b905062000989338262001558565b8451156200099d576200099d818662001564565b60003082604051620009af90620021f4565b6001600160a01b03909216825260208201526080604082018190526011908201527f454d425f434f4d4d5f4e46545f4e414d4500000000000000000000000000000060a082015260c0606082018190526013908201527f454d425f434f4d4d5f4e46545f53594d424f4c0000000000000000000000000060e082015261010001604051809103906000f08015801562000a4c573d6000803e3d6000fd5b5060405163adaf1cab60e01b81529091506001600160a01b0382169063adaf1cab9062000a7e908a9060040162002874565b600060405180830381600087803b15801562000a9957600080fd5b505af115801562000aae573d6000803e3d6000fd5b5050604080516060810182528581526001600160a01b03858116602083019081529282018d8152600e805460018101825560009190915283517fbb7b4a454dc3493923482f07822329ed19e8244eff582cc204f8554c3620c3fd600390920291820190815594517fbb7b4a454dc3493923482f07822329ed19e8244eff582cc204f8554c3620c3fe820180546001600160a01b0319169190941617909255519194508493507fbb7b4a454dc3493923482f07822329ed19e8244eff582cc204f8554c3620c3ff019062000b82908262002ab9565b5050506000848152600d602052604090819020849055600f549051633576860d60e11b8152336004820152602481018590526001600160a01b0390911690636aed0c1a90604401600060405180830381600087803b15801562000be457600080fd5b505af115801562000bf9573d6000803e3d6000fd5b5050505062000c3e6040518060400160405280601581526020017f436f6d6d756e69747920437265617465643a2025730000000000000000000000815250846200160a565b62000c4d600b80546001019055565b5090925050505b949350505050565b6060600180546200043d9062002a1b565b62000c7a33838362001668565b5050565b62000c8a3383620012db565b62000cee5760405162461bcd60e51b815260206004820152602d60248201527f4552433732313a2063616c6c6572206973206e6f7420746f6b656e206f776e6560448201526c1c881bdc88185c1c1c9bdd9959609a1b606482015260840162000566565b62000cfc8484848462001738565b50505050565b6060600062000d1060085490565b67ffffffffffffffff81111562000d2b5762000d2b62002365565b60405190808252806020026020018201604052801562000d55578160200160208202803683370190505b50905060005b60085481101562000da65762000d718162000759565b82828151811062000d865762000d8662002a51565b60209081029190910101528062000d9d8162002b9c565b91505062000d5b565b50919050565b62000dd9604080516080810190915260608152602081016000815260200160008152602001606081525090565b81516020808401919091206000818152600d90925260408220549091600e62000e0460018462002bb8565b8154811062000e175762000e1762002a51565b9060005260206000209060030201604051806060016040529081600082015481526020016001820160009054906101000a90046001600160a01b03166001600160a01b03166001600160a01b0316815260200160028201805462000e7b9062002a1b565b80601f016020809104026020016040519081016040528092919081815260200182805462000ea99062002a1b565b801562000efa5780601f1062000ece5761010080835404028352916020019162000efa565b820191906000526020600020905b81548152906001019060200180831162000edc57829003601f168201915b5050505050815250509050806000015160000362000f5b5760405162461bcd60e51b815260206004820152601360248201527f436f6d6d756e697479206e6f7420666f756e6400000000000000000000000000604482015260640162000566565b600081602001519050806001600160a01b031663daee9ac96040518163ffffffff1660e01b8152600401600060405180830381865afa15801562000fa3573d6000803e3d6000fd5b505050506040513d6000823e601f3d908101601f1916820160405262000fcd919081019062002c48565b9695505050505050565b60606200042682620017c7565b600e818154811062000ff557600080fd5b60009182526020909120600390910201805460018201546002830180549294506001600160a01b0390911692916200102d9062002a1b565b80601f01602080910402602001604051908101604052809291908181526020018280546200105b9062002a1b565b8015620010ac5780601f106200108057610100808354040283529160200191620010ac565b820191906000526020600020905b8154815290600101906020018083116200108e57829003601f168201915b5050505050905083565b60606000620010c460085490565b67ffffffffffffffff811115620010df57620010df62002365565b6040519080825280602002602001820160405280156200114057816020015b6200112c6040518060600160405280600081526020016060815260200160006001600160a01b031681525090565b815260200190600190039081620010fe5790505b50905060005b60085481101562000da6576040518060600160405280620011678362000759565b81526020016200117b620003938462000759565b81526020016200118f620002b48462000759565b6001600160a01b0316815250828281518110620011b057620011b062002a51565b60200260200101819052508080620011c89062002b9c565b91505062001146565b80546001019055565b60006001600160e01b0319821663780e9d6360e01b14806200042657506200042682620018d4565b6000818152600260205260409020546001600160a01b0316620012685760405162461bcd60e51b815260206004820152601860248201527f4552433732313a20696e76616c696420746f6b656e2049440000000000000000604482015260640162000566565b50565b600081815260046020526040902080546001600160a01b0319166001600160a01b0384169081179091558190620012a28262000803565b6001600160a01b03167f8c5be1e5ebec7d5bd14f71427d1e84f3dd0314c0f7b2291e5b200ac8c7c3b92560405160405180910390a45050565b600080620012e98362000803565b9050806001600160a01b0316846001600160a01b031614806200133157506001600160a01b0380821660009081526005602090815260408083209388168352929052205460ff165b8062000c545750836001600160a01b03166200134d84620004c6565b6001600160a01b031614949350505050565b826001600160a01b0316620013748262000803565b6001600160a01b031614620013da5760405162461bcd60e51b815260206004820152602560248201527f4552433732313a207472616e736665722066726f6d20696e636f72726563742060448201526437bbb732b960d91b606482015260840162000566565b6001600160a01b0382166200143e5760405162461bcd60e51b8152602060048201526024808201527f4552433732313a207472616e7366657220746f20746865207a65726f206164646044820152637265737360e01b606482015260840162000566565b6200144d838383600162001927565b826001600160a01b0316620014628262000803565b6001600160a01b031614620014c85760405162461bcd60e51b815260206004820152602560248201527f4552433732313a207472616e736665722066726f6d20696e636f72726563742060448201526437bbb732b960d91b606482015260840162000566565b600081815260046020908152604080832080546001600160a01b03199081169091556001600160a01b0387811680865260038552838620805460001901905590871680865283862080546001019055868652600290945282852080549092168417909155905184937fddf252ad1be2c89b69c2b068fc378daa952ba7f163c4a11628f55a4df523b3ef91a4505050565b62000c7a828262001935565b6000828152600260205260409020546001600160a01b0316620015f05760405162461bcd60e51b815260206004820152602e60248201527f45524337323155524953746f726167653a2055524920736574206f66206e6f6e60448201527f6578697374656e7420746f6b656e000000000000000000000000000000000000606482015260840162000566565b6000828152600a602052604090206200060e828262002ab9565b62000c7a82826040516024016200162392919062002d48565b60408051601f198184030181529190526020810180517bffffffffffffffffffffffffffffffffffffffffffffffffffffffff16632d839cb360e21b17905262001ad6565b816001600160a01b0316836001600160a01b031603620016cb5760405162461bcd60e51b815260206004820152601960248201527f4552433732313a20617070726f766520746f2063616c6c657200000000000000604482015260640162000566565b6001600160a01b03838116600081815260056020908152604080832094871680845294825291829020805460ff191686151590811790915591519182527f17307eab39ab6107e8899845ad3d59bd9653f200f220920489ca2b5937696c31910160405180910390a3505050565b620017458484846200135f565b620017538484848462001af7565b62000cfc5760405162461bcd60e51b815260206004820152603260248201527f4552433732313a207472616e7366657220746f206e6f6e20455243373231526560448201527f63656976657220696d706c656d656e7465720000000000000000000000000000606482015260840162000566565b6060620017d48262001202565b6000828152600a602052604081208054620017ef9062002a1b565b80601f01602080910402602001604051908101604052809291908181526020018280546200181d9062002a1b565b80156200186e5780601f1062001842576101008083540402835291602001916200186e565b820191906000526020600020905b8154815290600101906020018083116200185057829003601f168201915b5050505050905060006200188162001c58565b9050805160000362001894575092915050565b815115620018c9578082604051602001620018b192919062002d6c565b60405160208183030381529060405292505050919050565b62000c548462001c69565b60006001600160e01b031982166380ac58cd60e01b14806200190657506001600160e01b03198216635b5e139f60e01b145b806200042657506301ffc9a760e01b6001600160e01b031983161462000426565b62000cfc8484848462001cda565b6001600160a01b0382166200198d5760405162461bcd60e51b815260206004820181905260248201527f4552433732313a206d696e7420746f20746865207a65726f2061646472657373604482015260640162000566565b6000818152600260205260409020546001600160a01b031615620019f45760405162461bcd60e51b815260206004820152601c60248201527f4552433732313a20746f6b656e20616c7265616479206d696e74656400000000604482015260640162000566565b62001a0460008383600162001927565b6000818152600260205260409020546001600160a01b03161562001a6b5760405162461bcd60e51b815260206004820152601c60248201527f4552433732313a20746f6b656e20616c7265616479206d696e74656400000000604482015260640162000566565b6001600160a01b038216600081815260036020908152604080832080546001019055848352600290915280822080546001600160a01b0319168417905551839291907fddf252ad1be2c89b69c2b068fc378daa952ba7f163c4a11628f55a4df523b3ef908290a45050565b80516a636f6e736f6c652e6c6f67602083016000808483855afa5050505050565b60006001600160a01b0384163b1562001c4f57604051630a85bd0160e11b81526001600160a01b0385169063150b7a029062001b3e90339089908890889060040162002d9f565b6020604051808303816000875af192505050801562001b7c575060408051601f3d908101601f1916820190925262001b799181019062002dd3565b60015b62001c34573d80801562001bad576040519150601f19603f3d011682016040523d82523d6000602084013e62001bb2565b606091505b50805160000362001c2c5760405162461bcd60e51b815260206004820152603260248201527f4552433732313a207472616e7366657220746f206e6f6e20455243373231526560448201527f63656976657220696d706c656d656e7465720000000000000000000000000000606482015260840162000566565b805181602001fd5b6001600160e01b031916630a85bd0160e11b14905062000c54565b50600162000c54565b6060600c80546200043d9062002a1b565b606062001c768262001202565b600062001c8262001c58565b9050600081511162001ca4576040518060200160405280600081525062001cd3565b8062001cb08462001e33565b60405160200162001cc392919062002d6c565b6040516020818303038152906040525b9392505050565b62001ce88484848462001eda565b600181111562001d615760405162461bcd60e51b815260206004820152603560248201527f455243373231456e756d657261626c653a20636f6e736563757469766520747260448201527f616e7366657273206e6f7420737570706f727465640000000000000000000000606482015260840162000566565b816001600160a01b03851662001dc05762001dba81600880546000838152600960205260408120829055600182018355919091527ff3f7a9fe364faab93b216da50a3214154f22a0a2b415b23a84c8169e8b636ee30155565b62001de6565b836001600160a01b0316856001600160a01b03161462001de65762001de6858262001f69565b6001600160a01b03841662001e065762001e00816200200b565b62001e2c565b846001600160a01b0316846001600160a01b03161462001e2c5762001e2c8482620020c5565b5050505050565b6060600062001e42836200210b565b600101905060008167ffffffffffffffff81111562001e655762001e6562002365565b6040519080825280601f01601f19166020018201604052801562001e90576020820181803683370190505b5090508181016020015b600019017f3031323334353637383961626364656600000000000000000000000000000000600a86061a8153600a850494508462001e9a57509392505050565b600181111562000cfc576001600160a01b0384161562001f24576001600160a01b0384166000908152600360205260408120805483929062001f1e90849062002bb8565b90915550505b6001600160a01b0383161562000cfc576001600160a01b0383166000908152600360205260408120805483929062001f5e90849062002df3565b909155505050505050565b6000600162001f78846200086a565b62001f84919062002bb8565b60008381526007602052604090205490915080821462001fd8576001600160a01b03841660009081526006602090815260408083208584528252808320548484528184208190558352600790915290208190555b5060009182526007602090815260408084208490556001600160a01b039094168352600681528383209183525290812055565b6008546000906200201f9060019062002bb8565b600083815260096020526040812054600880549394509092849081106200204a576200204a62002a51565b9060005260206000200154905080600883815481106200206e576200206e62002a51565b6000918252602080832090910192909255828152600990915260408082208490558582528120556008805480620020a957620020a962002e09565b6001900381819060005260206000200160009055905550505050565b6000620020d2836200086a565b6001600160a01b039093166000908152600660209081526040808320868452825280832085905593825260079052919091209190915550565b6000807a184f03e93ff9f4daa797ed6e38ed64bf6a1f010000000000000000831062002155577a184f03e93ff9f4daa797ed6e38ed64bf6a1f010000000000000000830492506040015b6d04ee2d6d415b85acef8100000000831062002182576d04ee2d6d415b85acef8100000000830492506020015b662386f26fc100008310620021a157662386f26fc10000830492506010015b6305f5e1008310620021ba576305f5e100830492506008015b6127108310620021cf57612710830492506004015b60648310620021e2576064830492506002015b600a8310620004265760010192915050565b612f888062002e2083390190565b6001600160e01b0319811681146200126857600080fd5b6000602082840312156200222c57600080fd5b813562001cd38162002202565b60005b83811015620022565781810151838201526020016200223c565b50506000910152565b600081518084526200227981602086016020860162002239565b601f01601f19169290920160200192915050565b60208152600062001cd360208301846200225f565b600060208284031215620022b557600080fd5b5035919050565b80356001600160a01b0381168114620022d457600080fd5b919050565b60008060408385031215620022ed57600080fd5b620022f883620022bc565b946020939093013593505050565b6000806000606084860312156200231c57600080fd5b6200232784620022bc565b92506200233760208501620022bc565b9150604084013590509250925092565b6000602082840312156200235a57600080fd5b62001cd382620022bc565b634e487b7160e01b600052604160045260246000fd5b6040516080810167ffffffffffffffff81118282101715620023a157620023a162002365565b60405290565b604051601f8201601f1916810167ffffffffffffffff81118282101715620023d357620023d362002365565b604052919050565b600067ffffffffffffffff821115620023f857620023f862002365565b50601f01601f191660200190565b60006200241d6200241784620023db565b620023a7565b90508281528383830111156200243257600080fd5b828260208301376000602084830101529392505050565b600082601f8301126200245b57600080fd5b62001cd38383356020850162002406565b600281106200126857600080fd5b600067ffffffffffffffff82111562002497576200249762002365565b5060051b60200190565b6fffffffffffffffffffffffffffffffff811681146200126857600080fd5b600060608284031215620024d357600080fd5b6040516060810167ffffffffffffffff8282108183111715620024fa57620024fa62002365565b8160405282935084359150808211156200251357600080fd5b620025218683870162002449565b835260208501359150808211156200253857600080fd5b620025468683870162002449565b602084015260408501359150808211156200256057600080fd5b506200256f8582860162002449565b6040830152505092915050565b600080600080608085870312156200259357600080fd5b843567ffffffffffffffff80821115620025ac57600080fd5b620025ba8883890162002449565b9550602091508187013581811115620025d257600080fd5b87016080818a031215620025e557600080fd5b620025ef6200237b565b813583811115620025ff57600080fd5b6200260d8b82850162002449565b825250838201356200261f816200246c565b81850152604082013562002633816200246c565b60408201526060820135838111156200264b57600080fd5b80830192505089601f8301126200266157600080fd5b81356200267262002417826200247a565b81815260059190911b8301850190858101908c8311156200269257600080fd5b938601935b82851015620026bd578435620026ad81620024a1565b8252938601939086019062002697565b60608401525090965050506040870135915080821115620026dd57600080fd5b620026eb8883890162002449565b935060608701359150808211156200270257600080fd5b506200271187828801620024c0565b91505092959194509250565b600080604083850312156200273157600080fd5b6200273c83620022bc565b9150602083013580151581146200275257600080fd5b809150509250929050565b600080600080608085870312156200277457600080fd5b6200277f85620022bc565b93506200278f60208601620022bc565b925060408501359150606085013567ffffffffffffffff811115620027b357600080fd5b8501601f81018713620027c557600080fd5b620027118782356020840162002406565b6020808252825182820181905260009190848201906040850190845b818110156200281057835183529284019291840191600101620027f2565b50909695505050505050565b6000602082840312156200282f57600080fd5b813567ffffffffffffffff8111156200284757600080fd5b62000c548482850162002449565b600281106200126857634e487b7160e01b600052602160045260246000fd5b6000602080835283516080828501526200289260a08501826200225f565b905081850151620028a38162002855565b806040860152506040850151620028ba8162002855565b606085810191909152850151848203601f19016080860152805180835290830191600091908401905b80831015620029175783516fffffffffffffffffffffffffffffffff168252928401926001929092019190840190620028e3565b509695505050505050565b8381526001600160a01b03831660208201526060604082015260006200294c60608301846200225f565b95945050505050565b600080604083850312156200296957600080fd5b6200297483620022bc565b91506200298460208401620022bc565b90509250929050565b60006020808301818452808551808352604092508286019150828160051b87010184880160005b8381101562002a0d57603f19898403018552815160608151855288820151818a870152620029e5828701826200225f565b928901516001600160a01b0316958901959095525094870194925090860190600101620029b4565b509098975050505050505050565b600181811c9082168062002a3057607f821691505b60208210810362000da657634e487b7160e01b600052602260045260246000fd5b634e487b7160e01b600052603260045260246000fd5b601f8211156200060e57600081815260208120601f850160051c8101602086101562002a905750805b601f850160051c820191505b8181101562002ab15782815560010162002a9c565b505050505050565b815167ffffffffffffffff81111562002ad65762002ad662002365565b62002aee8162002ae7845462002a1b565b8462002a67565b602080601f83116001811462002b26576000841562002b0d5750858301515b600019600386901b1c1916600185901b17855562002ab1565b600085815260208120601f198616915b8281101562002b575788860151825594840194600190910190840162002b36565b508582101562002b765787850151600019600388901b60f8161c191681555b5050505050600190811b01905550565b634e487b7160e01b600052601160045260246000fd5b60006001820162002bb15762002bb162002b86565b5060010190565b8181038181111562000426576200042662002b86565b8051620022d4816200246c565b600082601f83011262002bed57600080fd5b8151602062002c0062002417836200247a565b82815260059290921b8401810191818101908684111562002c2057600080fd5b8286015b848110156200291757805162002c3a81620024a1565b835291830191830162002c24565b6000602080838503121562002c5c57600080fd5b825167ffffffffffffffff8082111562002c7557600080fd5b908401906080828703121562002c8a57600080fd5b62002c946200237b565b82518281111562002ca457600080fd5b8301601f8101881362002cb657600080fd5b805162002cc76200241782620023db565b818152898783850101111562002cdc57600080fd5b62002ced8288830189860162002239565b83525062002cff905083850162002bce565b8482015262002d116040840162002bce565b6040820152606083015193508184111562002d2b57600080fd5b62002d398785850162002bdb565b60608201529695505050505050565b60408152600062002d5d60408301856200225f565b90508260208301529392505050565b6000835162002d8081846020880162002239565b83519083019062002d9681836020880162002239565b01949350505050565b60006001600160a01b0380871683528086166020840152508360408301526080606083015262000fcd60808301846200225f565b60006020828403121562002de657600080fd5b815162001cd38162002202565b8082018082111562000426576200042662002b86565b634e487b7160e01b600052603160045260246000fdfe60806040523480156200001157600080fd5b5060405162002f8838038062002f888339810160408190526200003491620001a1565b81816000620000448382620002c4565b506001620000538282620002c4565b5050604080518082019091526007815266697066733a2f2f60c81b60208201526200007f9150620000c1565b600e80546001600160a01b0319166001600160a01b038616179055600f839055620000b7600c620000d3602090811b62000fa817901c565b5050505062000390565b600d620000cf8282620002c4565b5050565b80546001019055565b634e487b7160e01b600052604160045260246000fd5b600082601f8301126200010457600080fd5b81516001600160401b0380821115620001215762000121620000dc565b604051601f8301601f19908116603f011681019082821181831017156200014c576200014c620000dc565b816040528381526020925086838588010111156200016957600080fd5b600091505b838210156200018d57858201830151818301840152908201906200016e565b600093810190920192909252949350505050565b60008060008060808587031215620001b857600080fd5b84516001600160a01b0381168114620001d057600080fd5b6020860151604087015191955093506001600160401b0380821115620001f557600080fd5b6200020388838901620000f2565b935060608701519150808211156200021a57600080fd5b506200022987828801620000f2565b91505092959194509250565b600181811c908216806200024a57607f821691505b6020821081036200026b57634e487b7160e01b600052602260045260246000fd5b50919050565b601f821115620002bf57600081815260208120601f850160051c810160208610156200029a5750805b601f850160051c820191505b81811015620002bb57828155600101620002a6565b5050505b505050565b81516001600160401b03811115620002e057620002e0620000dc565b620002f881620002f1845462000235565b8462000271565b602080601f831160018114620003305760008415620003175750858301515b600019600386901b1c1916600185901b178555620002bb565b600085815260208120601f198616915b82811015620003615788860151825594840194600190910190840162000340565b5085821015620003805787850151600019600388901b60f8161c191681555b5050505050600190811b01905550565b612be880620003a06000396000f3fe608060405234801561001057600080fd5b50600436106101f05760003560e01c806370a082311161010f578063b88d4fde116100a2578063d85d3d2711610071578063d85d3d2714610471578063daee9ac914610484578063e985e9c514610499578063fd0da099146104d557600080fd5b8063b88d4fde14610423578063c87b56dd14610436578063cd1404ca14610449578063d547741f1461045e57600080fd5b8063a217fddf116100de578063a217fddf146103e3578063a22cb465146103eb578063a2bf68b9146103fe578063adaf1cab1461041057600080fd5b806370a08231146103865780637f50861a1461039957806391d14854146103a257806395d89b41146103db57600080fd5b80632a5c792a1161018757806342842e0e1161015657806342842e0e146103225780634f6ccce71461033557806361acc37e146103485780636352211e1461037357600080fd5b80632a5c792a146102d45780632f2ff15d146102e95780632f745c59146102fc57806336568abe1461030f57600080fd5b806318160ddd116101c357806318160ddd1461027257806323b872dd14610284578063248a9ca31461029757806329adec14146102ba57600080fd5b806301ffc9a7146101f557806306fdde031461021d578063081812fc14610232578063095ea7b31461025d575b600080fd5b61020861020336600461228b565b6104dd565b60405190151581526020015b60405180910390f35b6102256104ee565b60405161021491906122f8565b61024561024036600461230b565b610580565b6040516001600160a01b039091168152602001610214565b61027061026b366004612340565b6105a7565b005b6008545b604051908152602001610214565b61027061029236600461236a565b6106c1565b6102766102a536600461230b565b6000908152600b602052604090206001015490565b6011546102c79060ff1681565b60405161021491906123da565b6102dc610738565b60405161021491906123ed565b6102706102f7366004612431565b6107d4565b61027661030a366004612340565b6107f9565b61027061031d366004612431565b6108a1565b61027061033036600461236a565b61092d565b61027661034336600461230b565b610948565b61035b61035636600461230b565b6109ec565b6040516001600160801b039091168152602001610214565b61024561038136600461230b565b610a29565b61027661039436600461245d565b610a8e565b610276600f5481565b6102086103b0366004612431565b6000918252600b602090815260408084206001600160a01b0393909316845291905290205460ff1690565b610225610b28565b610276600081565b6102706103f9366004612478565b610b37565b6011546102c790610100900460ff1681565b61027061041e3660046125a9565b610b42565b6102706104313660046126df565b610bb8565b61022561044436600461230b565b610c36565b610451610c41565b604051610214919061275b565b61027061046c366004612431565b610d46565b61027061047f3660046127e5565b610d6b565b61048c610d82565b604051610214919061281a565b6102086104a73660046128b7565b6001600160a01b03918216600090815260056020908152604080832093909416825291909152205460ff1690565b610225610f1a565b60006104e882610fb1565b92915050565b6060600080546104fd906128e1565b80601f0160208091040260200160405190810160405280929190818152602001828054610529906128e1565b80156105765780601f1061054b57610100808354040283529160200191610576565b820191906000526020600020905b81548152906001019060200180831161055957829003601f168201915b5050505050905090565b600061058b82610fd6565b506000908152600460205260409020546001600160a01b031690565b60006105b282610a29565b9050806001600160a01b0316836001600160a01b0316036106245760405162461bcd60e51b815260206004820152602160248201527f4552433732313a20617070726f76616c20746f2063757272656e74206f776e656044820152603960f91b60648201526084015b60405180910390fd5b336001600160a01b0382161480610640575061064081336104a7565b6106b25760405162461bcd60e51b815260206004820152603d60248201527f4552433732313a20617070726f76652063616c6c6572206973206e6f7420746f60448201527f6b656e206f776e6572206f7220617070726f76656420666f7220616c6c000000606482015260840161061b565b6106bc838361103d565b505050565b6106cb33826110b8565b61072d5760405162461bcd60e51b815260206004820152602d60248201527f4552433732313a2063616c6c6572206973206e6f7420746f6b656e206f776e6560448201526c1c881bdc88185c1c1c9bdd9959609a1b606482015260840161061b565b6106bc838383611137565b6060600061074560085490565b67ffffffffffffffff81111561075d5761075d6124b4565b604051908082528060200260200182016040528015610786578160200160208202803683370190505b50905060005b6008548110156107ce5761079f81610948565b8282815181106107b1576107b1612915565b6020908102919091010152806107c681612941565b91505061078c565b50919050565b6000828152600b60205260409020600101546107ef81611331565b6106bc838361133b565b600061080483610a8e565b82106108785760405162461bcd60e51b815260206004820152602b60248201527f455243373231456e756d657261626c653a206f776e657220696e646578206f7560448201527f74206f6620626f756e6473000000000000000000000000000000000000000000606482015260840161061b565b506001600160a01b03919091166000908152600660209081526040808320938352929052205490565b6001600160a01b038116331461091f5760405162461bcd60e51b815260206004820152602f60248201527f416363657373436f6e74726f6c3a2063616e206f6e6c792072656e6f756e636560448201527f20726f6c657320666f722073656c660000000000000000000000000000000000606482015260840161061b565b61092982826113dd565b5050565b6106bc83838360405180602001604052806000815250610bb8565b600061095360085490565b82106109c75760405162461bcd60e51b815260206004820152602c60248201527f455243373231456e756d657261626c653a20676c6f62616c20696e646578206f60448201527f7574206f6620626f756e64730000000000000000000000000000000000000000606482015260840161061b565b600882815481106109da576109da612915565b90600052602060002001549050919050565b601281815481106109fc57600080fd5b9060005260206000209060029182820401919006601002915054906101000a90046001600160801b031681565b6000818152600260205260408120546001600160a01b0316806104e85760405162461bcd60e51b815260206004820152601860248201527f4552433732313a20696e76616c696420746f6b656e2049440000000000000000604482015260640161061b565b60006001600160a01b038216610b0c5760405162461bcd60e51b815260206004820152602960248201527f4552433732313a2061646472657373207a65726f206973206e6f74206120766160448201527f6c6964206f776e65720000000000000000000000000000000000000000000000606482015260840161061b565b506001600160a01b031660009081526003602052604090205490565b6060600180546104fd906128e1565b610929338383611460565b8051601090610b5190826129a8565b5060208101516011805460ff191660018381811115610b7257610b726123a6565b021790555060408101516011805461ff001916610100836001811115610b9a57610b9a6123a6565b021790555060608101518051610929916012916020909101906121a8565b610bc233836110b8565b610c245760405162461bcd60e51b815260206004820152602d60248201527f4552433732313a2063616c6c6572206973206e6f7420746f6b656e206f776e6560448201526c1c881bdc88185c1c1c9bdd9959609a1b606482015260840161061b565b610c308484848461152e565b50505050565b60606104e8826115b7565b60606000610c4e60085490565b67ffffffffffffffff811115610c6657610c666124b4565b604051908082528060200260200182016040528015610cc457816020015b610cb16040518060600160405280600081526020016060815260200160006001600160a01b031681525090565b815260200190600190039081610c845790505b50905060005b6008548110156107ce576040518060600160405280610ce883610948565b8152602001610cf961044484610948565b8152602001610d0a61038184610948565b6001600160a01b0316815250828281518110610d2857610d28612915565b60200260200101819052508080610d3e90612941565b915050610cca565b6000828152600b6020526040902060010154610d6181611331565b6106bc83836113dd565b6000610d76600c5490565b905061092933826116b2565b610dae604080516080810190915260608152602081016000815260200160008152602001606081525090565b604051806080016040528060108054610dc6906128e1565b80601f0160208091040260200160405190810160405280929190818152602001828054610df2906128e1565b8015610e3f5780601f10610e1457610100808354040283529160200191610e3f565b820191906000526020600020905b815481529060010190602001808311610e2257829003601f168201915b505050918352505060115460209091019060ff166001811115610e6457610e646123a6565b8152602001601160019054906101000a900460ff166001811115610e8a57610e8a6123a6565b81526020016012805480602002602001604051908101604052809291908181526020018280548015610f0d57602002820191906000526020600020906000905b82829054906101000a90046001600160801b03166001600160801b031681526020019060100190602082600f01049283019260010382029150808411610eca5790505b5050505050815250905090565b60108054610f27906128e1565b80601f0160208091040260200160405190810160405280929190818152602001828054610f53906128e1565b8015610fa05780601f10610f7557610100808354040283529160200191610fa0565b820191906000526020600020905b815481529060010190602001808311610f8357829003601f168201915b505050505081565b80546001019055565b60006001600160e01b03198216637965db0b60e01b14806104e857506104e8826116bc565b6000818152600260205260409020546001600160a01b031661103a5760405162461bcd60e51b815260206004820152601860248201527f4552433732313a20696e76616c696420746f6b656e2049440000000000000000604482015260640161061b565b50565b6000818152600460205260409020805473ffffffffffffffffffffffffffffffffffffffff19166001600160a01b038416908117909155819061107f82610a29565b6001600160a01b03167f8c5be1e5ebec7d5bd14f71427d1e84f3dd0314c0f7b2291e5b200ac8c7c3b92560405160405180910390a45050565b6000806110c483610a29565b9050806001600160a01b0316846001600160a01b0316148061110b57506001600160a01b0380821660009081526005602090815260408083209388168352929052205460ff165b8061112f5750836001600160a01b031661112484610580565b6001600160a01b0316145b949350505050565b826001600160a01b031661114a82610a29565b6001600160a01b0316146111ae5760405162461bcd60e51b815260206004820152602560248201527f4552433732313a207472616e736665722066726f6d20696e636f72726563742060448201526437bbb732b960d91b606482015260840161061b565b6001600160a01b0382166112105760405162461bcd60e51b8152602060048201526024808201527f4552433732313a207472616e7366657220746f20746865207a65726f206164646044820152637265737360e01b606482015260840161061b565b61121d83838360016116e1565b826001600160a01b031661123082610a29565b6001600160a01b0316146112945760405162461bcd60e51b815260206004820152602560248201527f4552433732313a207472616e736665722066726f6d20696e636f72726563742060448201526437bbb732b960d91b606482015260840161061b565b6000818152600460209081526040808320805473ffffffffffffffffffffffffffffffffffffffff199081169091556001600160a01b0387811680865260038552838620805460001901905590871680865283862080546001019055868652600290945282852080549092168417909155905184937fddf252ad1be2c89b69c2b068fc378daa952ba7f163c4a11628f55a4df523b3ef91a4505050565b61103a81336116ed565b6000828152600b602090815260408083206001600160a01b038516845290915290205460ff16610929576000828152600b602090815260408083206001600160a01b03851684529091529020805460ff191660011790556113993390565b6001600160a01b0316816001600160a01b0316837f2f8788117e7eff1d82e926ec794901d17c78024a50270940304540a733656f0d60405160405180910390a45050565b6000828152600b602090815260408083206001600160a01b038516845290915290205460ff1615610929576000828152600b602090815260408083206001600160a01b0385168085529252808320805460ff1916905551339285917ff6391f5c32d9c69d2a47ea670b442974b53935d1edc7fd64eb21e047a839171b9190a45050565b816001600160a01b0316836001600160a01b0316036114c15760405162461bcd60e51b815260206004820152601960248201527f4552433732313a20617070726f766520746f2063616c6c657200000000000000604482015260640161061b565b6001600160a01b03838116600081815260056020908152604080832094871680845294825291829020805460ff191686151590811790915591519182527f17307eab39ab6107e8899845ad3d59bd9653f200f220920489ca2b5937696c31910160405180910390a3505050565b611539848484611137565b61154584848484611762565b610c305760405162461bcd60e51b815260206004820152603260248201527f4552433732313a207472616e7366657220746f206e6f6e20455243373231526560448201527f63656976657220696d706c656d656e7465720000000000000000000000000000606482015260840161061b565b60606115c282610fd6565b6000828152600a6020526040812080546115db906128e1565b80601f0160208091040260200160405190810160405280929190818152602001828054611607906128e1565b80156116545780601f1061162957610100808354040283529160200191611654565b820191906000526020600020905b81548152906001019060200180831161163757829003601f168201915b5050505050905060006116656118b9565b90508051600003611677575092915050565b8151156116a9578082604051602001611691929190612a68565b60405160208183030381529060405292505050919050565b61112f846118c8565b610929828261192f565b60006001600160e01b0319821663780e9d6360e01b14806104e857506104e882611ad5565b610c3084848484611b25565b6000828152600b602090815260408083206001600160a01b038516845290915290205460ff166109295761172081611c6d565b61172b836020611c7f565b60405160200161173c929190612a97565b60408051601f198184030181529082905262461bcd60e51b825261061b916004016122f8565b60006001600160a01b0384163b156118ae57604051630a85bd0160e11b81526001600160a01b0385169063150b7a02906117a6903390899088908890600401612b18565b6020604051808303816000875af19250505080156117e1575060408051601f3d908101601f191682019092526117de91810190612b54565b60015b611894573d80801561180f576040519150601f19603f3d011682016040523d82523d6000602084013e611814565b606091505b50805160000361188c5760405162461bcd60e51b815260206004820152603260248201527f4552433732313a207472616e7366657220746f206e6f6e20455243373231526560448201527f63656976657220696d706c656d656e7465720000000000000000000000000000606482015260840161061b565b805181602001fd5b6001600160e01b031916630a85bd0160e11b14905061112f565b506001949350505050565b6060600d80546104fd906128e1565b60606118d382610fd6565b60006118dd6118b9565b905060008151116118fd5760405180602001604052806000815250611928565b8061190784611e1b565b604051602001611918929190612a68565b6040516020818303038152906040525b9392505050565b6001600160a01b0382166119855760405162461bcd60e51b815260206004820181905260248201527f4552433732313a206d696e7420746f20746865207a65726f2061646472657373604482015260640161061b565b6000818152600260205260409020546001600160a01b0316156119ea5760405162461bcd60e51b815260206004820152601c60248201527f4552433732313a20746f6b656e20616c7265616479206d696e74656400000000604482015260640161061b565b6119f86000838360016116e1565b6000818152600260205260409020546001600160a01b031615611a5d5760405162461bcd60e51b815260206004820152601c60248201527f4552433732313a20746f6b656e20616c7265616479206d696e74656400000000604482015260640161061b565b6001600160a01b0382166000818152600360209081526040808320805460010190558483526002909152808220805473ffffffffffffffffffffffffffffffffffffffff19168417905551839291907fddf252ad1be2c89b69c2b068fc378daa952ba7f163c4a11628f55a4df523b3ef908290a45050565b60006001600160e01b031982166380ac58cd60e01b1480611b0657506001600160e01b03198216635b5e139f60e01b145b806104e857506301ffc9a760e01b6001600160e01b03198316146104e8565b611b3184848484611eae565b6001811115611ba85760405162461bcd60e51b815260206004820152603560248201527f455243373231456e756d657261626c653a20636f6e736563757469766520747260448201527f616e7366657273206e6f7420737570706f727465640000000000000000000000606482015260840161061b565b816001600160a01b038516611c0457611bff81600880546000838152600960205260408120829055600182018355919091527ff3f7a9fe364faab93b216da50a3214154f22a0a2b415b23a84c8169e8b636ee30155565b611c27565b836001600160a01b0316856001600160a01b031614611c2757611c278582611f36565b6001600160a01b038416611c4357611c3e81611fd3565b611c66565b846001600160a01b0316846001600160a01b031614611c6657611c668482612082565b5050505050565b60606104e86001600160a01b03831660145b60606000611c8e836002612b71565b611c99906002612b88565b67ffffffffffffffff811115611cb157611cb16124b4565b6040519080825280601f01601f191660200182016040528015611cdb576020820181803683370190505b509050600360fc1b81600081518110611cf657611cf6612915565b60200101906001600160f81b031916908160001a905350600f60fb1b81600181518110611d2557611d25612915565b60200101906001600160f81b031916908160001a9053506000611d49846002612b71565b611d54906001612b88565b90505b6001811115611dcc576f181899199a1a9b1b9c1cb0b131b232b360811b85600f1660108110611d8857611d88612915565b1a60f81b828281518110611d9e57611d9e612915565b60200101906001600160f81b031916908160001a90535060049490941c93611dc581612b9b565b9050611d57565b5083156119285760405162461bcd60e51b815260206004820181905260248201527f537472696e67733a20686578206c656e67746820696e73756666696369656e74604482015260640161061b565b60606000611e28836120c6565b600101905060008167ffffffffffffffff811115611e4857611e486124b4565b6040519080825280601f01601f191660200182016040528015611e72576020820181803683370190505b5090508181016020015b600019016f181899199a1a9b1b9c1cb0b131b232b360811b600a86061a8153600a8504945084611e7c57509392505050565b6001811115610c30576001600160a01b03841615611ef4576001600160a01b03841660009081526003602052604081208054839290611eee908490612bb2565b90915550505b6001600160a01b03831615610c30576001600160a01b03831660009081526003602052604081208054839290611f2b908490612b88565b909155505050505050565b60006001611f4384610a8e565b611f4d9190612bb2565b600083815260076020526040902054909150808214611fa0576001600160a01b03841660009081526006602090815260408083208584528252808320548484528184208190558352600790915290208190555b5060009182526007602090815260408084208490556001600160a01b039094168352600681528383209183525290812055565b600854600090611fe590600190612bb2565b6000838152600960205260408120546008805493945090928490811061200d5761200d612915565b90600052602060002001549050806008838154811061202e5761202e612915565b600091825260208083209091019290925582815260099091526040808220849055858252812055600880548061206657612066612bc5565b6001900381819060005260206000200160009055905550505050565b600061208d83610a8e565b6001600160a01b039093166000908152600660209081526040808320868452825280832085905593825260079052919091209190915550565b6000807a184f03e93ff9f4daa797ed6e38ed64bf6a1f010000000000000000831061210f577a184f03e93ff9f4daa797ed6e38ed64bf6a1f010000000000000000830492506040015b6d04ee2d6d415b85acef8100000000831061213b576d04ee2d6d415b85acef8100000000830492506020015b662386f26fc10000831061215957662386f26fc10000830492506010015b6305f5e1008310612171576305f5e100830492506008015b612710831061218557612710830492506004015b60648310612197576064830492506002015b600a83106104e85760010192915050565b828054828255906000526020600020906001016002900481019282156122505791602002820160005b8382111561221b57835183826101000a8154816001600160801b0302191690836001600160801b031602179055509260200192601001602081600f010492830192600103026121d1565b801561224e5782816101000a8154906001600160801b030219169055601001602081600f0104928301926001030261221b565b505b5061225c929150612260565b5090565b5b8082111561225c5760008155600101612261565b6001600160e01b03198116811461103a57600080fd5b60006020828403121561229d57600080fd5b813561192881612275565b60005b838110156122c35781810151838201526020016122ab565b50506000910152565b600081518084526122e48160208601602086016122a8565b601f01601f19169290920160200192915050565b60208152600061192860208301846122cc565b60006020828403121561231d57600080fd5b5035919050565b80356001600160a01b038116811461233b57600080fd5b919050565b6000806040838503121561235357600080fd5b61235c83612324565b946020939093013593505050565b60008060006060848603121561237f57600080fd5b61238884612324565b925061239660208501612324565b9150604084013590509250925092565b634e487b7160e01b600052602160045260246000fd5b6002811061103a57634e487b7160e01b600052602160045260246000fd5b602081016123e7836123bc565b91905290565b6020808252825182820181905260009190848201906040850190845b8181101561242557835183529284019291840191600101612409565b50909695505050505050565b6000806040838503121561244457600080fd5b8235915061245460208401612324565b90509250929050565b60006020828403121561246f57600080fd5b61192882612324565b6000806040838503121561248b57600080fd5b61249483612324565b9150602083013580151581146124a957600080fd5b809150509250929050565b634e487b7160e01b600052604160045260246000fd5b6040516080810167ffffffffffffffff811182821017156124ed576124ed6124b4565b60405290565b604051601f8201601f1916810167ffffffffffffffff8111828210171561251c5761251c6124b4565b604052919050565b600067ffffffffffffffff83111561253e5761253e6124b4565b612551601f8401601f19166020016124f3565b905082815283838301111561256557600080fd5b828260208301376000602084830101529392505050565b600082601f83011261258d57600080fd5b61192883833560208501612524565b6002811061103a57600080fd5b600060208083850312156125bc57600080fd5b823567ffffffffffffffff808211156125d457600080fd5b90840190608082870312156125e857600080fd5b6125f06124ca565b8235828111156125ff57600080fd5b61260b8882860161257c565b8252508383013561261b8161259c565b81850152604083013561262d8161259c565b604082015260608301358281111561264457600080fd5b80840193505086601f84011261265957600080fd5b82358281111561266b5761266b6124b4565b8060051b925061267c8584016124f3565b818152928401850192858101908985111561269657600080fd5b948601945b848610156126cd57853592506001600160801b03831683146126bd5760008081fd5b828252948601949086019061269b565b60608401525090979650505050505050565b600080600080608085870312156126f557600080fd5b6126fe85612324565b935061270c60208601612324565b925060408501359150606085013567ffffffffffffffff81111561272f57600080fd5b8501601f8101871361274057600080fd5b61274f87823560208401612524565b91505092959194509250565b60006020808301818452808551808352604092508286019150828160051b87010184880160005b838110156127d757603f19898403018552815160608151855288820151818a8701526127b0828701826122cc565b928901516001600160a01b0316958901959095525094870194925090860190600101612782565b509098975050505050505050565b6000602082840312156127f757600080fd5b813567ffffffffffffffff81111561280e57600080fd5b61112f8482850161257c565b60006020808352835160808285015261283660a08501826122cc565b905081850151612845816123bc565b80604086015250604085015161285a816123bc565b606085810191909152850151848203601f19016080860152805180835290830191600091908401905b808310156128ac5783516001600160801b03168252928401926001929092019190840190612883565b509695505050505050565b600080604083850312156128ca57600080fd5b6128d383612324565b915061245460208401612324565b600181811c908216806128f557607f821691505b6020821081036107ce57634e487b7160e01b600052602260045260246000fd5b634e487b7160e01b600052603260045260246000fd5b634e487b7160e01b600052601160045260246000fd5b6000600182016129535761295361292b565b5060010190565b601f8211156106bc57600081815260208120601f850160051c810160208610156129815750805b601f850160051c820191505b818110156129a05782815560010161298d565b505050505050565b815167ffffffffffffffff8111156129c2576129c26124b4565b6129d6816129d084546128e1565b8461295a565b602080601f831160018114612a0b57600084156129f35750858301515b600019600386901b1c1916600185901b1785556129a0565b600085815260208120601f198616915b82811015612a3a57888601518255948401946001909101908401612a1b565b5085821015612a585787850151600019600388901b60f8161c191681555b5050505050600190811b01905550565b60008351612a7a8184602088016122a8565b835190830190612a8e8183602088016122a8565b01949350505050565b7f416363657373436f6e74726f6c3a206163636f756e7420000000000000000000815260008351612acf8160178501602088016122a8565b7f206973206d697373696e6720726f6c65200000000000000000000000000000006017918401918201528351612b0c8160288401602088016122a8565b01602801949350505050565b60006001600160a01b03808716835280861660208401525083604083015260806060830152612b4a60808301846122cc565b9695505050505050565b600060208284031215612b6657600080fd5b815161192881612275565b80820281158282048414176104e8576104e861292b565b808201808211156104e8576104e861292b565b600081612baa57612baa61292b565b506000190190565b818103818111156104e8576104e861292b565b634e487b7160e01b600052603160045260246000fdfea164736f6c6343000811000aa164736f6c6343000811000a",
  "linkReferences": {},
  "deployedLinkReferences": {}
}