{
  "_format": "hh-sol-artifact-1",
  "contractName": "EmbraceCommunities",
  "sourceName": "contracts/EmbraceCommunities.sol",
  "abi": [
    {
      "inputs": [
        {
          "internalType": "string",
          "name": "_name",
          "type": "string"
        },
        {
          "internalType": "string",
          "name": "_symbol",
          "type": "string"
        },
        {
          "internalType": "address",
          "name": "_accountsContractAddress",
          "type": "address"
        },
        {
          "internalType": "address",
          "name": "_embraceCommunityAddress",
          "type": "address"
        },
        {
          "internalType": "address",
          "name": "_tablelandRegistryAddress",
          "type": "address"
        }
      ],
      "stateMutability": "nonpayable",
      "type": "constructor"
    },
    {
      "inputs": [
        {
          "internalType": "string",
          "name": "handle",
          "type": "string"
        }
      ],
      "name": "ErrorHandleExists",
      "type": "error"
    },
    {
      "inputs": [
        {
          "internalType": "uint256",
          "name": "communityId",
          "type": "uint256"
        },
        {
          "internalType": "address",
          "name": "account",
          "type": "address"
        }
      ],
      "name": "ErrorNotCommunityOwner",
      "type": "error"
    },
    {
      "inputs": [
        {
          "internalType": "string",
          "name": "tableName",
          "type": "string"
        }
      ],
      "name": "ErrorTableExists",
      "type": "error"
    },
    {
      "anonymous": false,
      "inputs": [
        {
          "indexed": true,
          "internalType": "address",
          "name": "owner",
          "type": "address"
        },
        {
          "indexed": true,
          "internalType": "address",
          "name": "approved",
          "type": "address"
        },
        {
          "indexed": true,
          "internalType": "uint256",
          "name": "tokenId",
          "type": "uint256"
        }
      ],
      "name": "Approval",
      "type": "event"
    },
    {
      "anonymous": false,
      "inputs": [
        {
          "indexed": true,
          "internalType": "address",
          "name": "owner",
          "type": "address"
        },
        {
          "indexed": true,
          "internalType": "address",
          "name": "operator",
          "type": "address"
        },
        {
          "indexed": false,
          "internalType": "bool",
          "name": "approved",
          "type": "bool"
        }
      ],
      "name": "ApprovalForAll",
      "type": "event"
    },
    {
      "anonymous": false,
      "inputs": [
        {
          "indexed": true,
          "internalType": "address",
          "name": "from",
          "type": "address"
        },
        {
          "indexed": true,
          "internalType": "address",
          "name": "to",
          "type": "address"
        },
        {
          "indexed": true,
          "internalType": "uint256",
          "name": "tokenId",
          "type": "uint256"
        }
      ],
      "name": "Transfer",
      "type": "event"
    },
    {
      "inputs": [
        {
          "internalType": "uint256",
          "name": "newCommunityId",
          "type": "uint256"
        },
        {
          "components": [
            {
              "internalType": "string",
              "name": "handle",
              "type": "string"
            },
            {
              "internalType": "string",
              "name": "name",
              "type": "string"
            },
            {
              "internalType": "string",
              "name": "description",
              "type": "string"
            },
            {
              "internalType": "string",
              "name": "image",
              "type": "string"
            }
          ],
          "internalType": "struct CommunityMetaData",
          "name": "_communityMetaData",
          "type": "tuple"
        }
      ],
      "name": "_insertCommunity",
      "outputs": [],
      "stateMutability": "nonpayable",
      "type": "function"
    },
    {
      "inputs": [
        {
          "internalType": "address",
          "name": "to",
          "type": "address"
        },
        {
          "internalType": "uint256",
          "name": "tokenId",
          "type": "uint256"
        }
      ],
      "name": "approve",
      "outputs": [],
      "stateMutability": "nonpayable",
      "type": "function"
    },
    {
      "inputs": [
        {
          "internalType": "address",
          "name": "owner",
          "type": "address"
        }
      ],
      "name": "balanceOf",
      "outputs": [
        {
          "internalType": "uint256",
          "name": "",
          "type": "uint256"
        }
      ],
      "stateMutability": "view",
      "type": "function"
    },
    {
      "inputs": [
        {
          "internalType": "uint256",
          "name": "_communityId",
          "type": "uint256"
        }
      ],
      "name": "close",
      "outputs": [],
      "stateMutability": "nonpayable",
      "type": "function"
    },
    {
      "inputs": [],
      "name": "communitiesTable",
      "outputs": [
        {
          "internalType": "uint256",
          "name": "id",
          "type": "uint256"
        },
        {
          "internalType": "string",
          "name": "name",
          "type": "string"
        }
      ],
      "stateMutability": "view",
      "type": "function"
    },
    {
      "inputs": [
        {
          "internalType": "string",
          "name": "_handle",
          "type": "string"
        },
        {
          "components": [
            {
              "internalType": "string",
              "name": "handle",
              "type": "string"
            },
            {
              "internalType": "enum Visibility",
              "name": "visibility",
              "type": "uint8"
            },
            {
              "components": [
                {
                  "internalType": "enum Access",
                  "name": "access",
                  "type": "uint8"
                },
                {
                  "components": [
                    {
                      "internalType": "enum MembershipGateToken",
                      "name": "tokenType",
                      "type": "uint8"
                    },
                    {
                      "internalType": "address",
                      "name": "tokenAddress",
                      "type": "address"
                    },
                    {
                      "internalType": "uint256",
                      "name": "tokenId",
                      "type": "uint256"
                    }
                  ],
                  "internalType": "struct MembershipGate",
                  "name": "gate",
                  "type": "tuple"
                }
              ],
              "internalType": "struct Membership",
              "name": "membership",
              "type": "tuple"
            },
            {
              "internalType": "uint128[]",
              "name": "apps",
              "type": "uint128[]"
            }
          ],
          "internalType": "struct CommunityContractData",
          "name": "_communityContractData",
          "type": "tuple"
        },
        {
          "components": [
            {
              "internalType": "string",
              "name": "handle",
              "type": "string"
            },
            {
              "internalType": "string",
              "name": "name",
              "type": "string"
            },
            {
              "internalType": "string",
              "name": "description",
              "type": "string"
            },
            {
              "internalType": "string",
              "name": "image",
              "type": "string"
            }
          ],
          "internalType": "struct CommunityMetaData",
          "name": "_communityMetaData",
          "type": "tuple"
        }
      ],
      "name": "createCommunity",
      "outputs": [
        {
          "internalType": "uint256",
          "name": "",
          "type": "uint256"
        }
      ],
      "stateMutability": "nonpayable",
      "type": "function"
    },
    {
      "inputs": [
        {
          "internalType": "uint256",
          "name": "tokenId",
          "type": "uint256"
        }
      ],
      "name": "getApproved",
      "outputs": [
        {
          "internalType": "address",
          "name": "",
          "type": "address"
        }
      ],
      "stateMutability": "view",
      "type": "function"
    },
    {
      "inputs": [],
      "name": "getCommunities",
      "outputs": [
        {
          "components": [
            {
              "internalType": "uint256",
              "name": "id",
              "type": "uint256"
            },
            {
              "internalType": "address",
              "name": "contractAddress",
              "type": "address"
            },
            {
              "internalType": "string",
              "name": "handle",
              "type": "string"
            }
          ],
          "internalType": "struct EmbraceCommunities.Community[]",
          "name": "",
          "type": "tuple[]"
        }
      ],
      "stateMutability": "view",
      "type": "function"
    },
    {
      "inputs": [],
      "name": "getTableName",
      "outputs": [
        {
          "internalType": "string",
          "name": "",
          "type": "string"
        }
      ],
      "stateMutability": "view",
      "type": "function"
    },
    {
      "inputs": [
        {
          "internalType": "string",
          "name": "_handle",
          "type": "string"
        }
      ],
      "name": "handleToCommunity",
      "outputs": [
        {
          "components": [
            {
              "internalType": "uint256",
              "name": "id",
              "type": "uint256"
            },
            {
              "internalType": "address",
              "name": "contractAddress",
              "type": "address"
            },
            {
              "internalType": "string",
              "name": "handle",
              "type": "string"
            }
          ],
          "internalType": "struct EmbraceCommunities.Community",
          "name": "_community",
          "type": "tuple"
        }
      ],
      "stateMutability": "view",
      "type": "function"
    },
    {
      "inputs": [
        {
          "internalType": "bytes32",
          "name": "",
          "type": "bytes32"
        }
      ],
      "name": "handleToId",
      "outputs": [
        {
          "internalType": "uint256",
          "name": "",
          "type": "uint256"
        }
      ],
      "stateMutability": "view",
      "type": "function"
    },
    {
      "inputs": [
        {
          "internalType": "address",
          "name": "owner",
          "type": "address"
        },
        {
          "internalType": "address",
          "name": "operator",
          "type": "address"
        }
      ],
      "name": "isApprovedForAll",
      "outputs": [
        {
          "internalType": "bool",
          "name": "",
          "type": "bool"
        }
      ],
      "stateMutability": "view",
      "type": "function"
    },
    {
      "inputs": [],
      "name": "name",
      "outputs": [
        {
          "internalType": "string",
          "name": "",
          "type": "string"
        }
      ],
      "stateMutability": "view",
      "type": "function"
    },
    {
      "inputs": [
        {
          "internalType": "address",
          "name": "",
          "type": "address"
        },
        {
          "internalType": "address",
          "name": "",
          "type": "address"
        },
        {
          "internalType": "uint256",
          "name": "",
          "type": "uint256"
        },
        {
          "internalType": "bytes",
          "name": "",
          "type": "bytes"
        }
      ],
      "name": "onERC721Received",
      "outputs": [
        {
          "internalType": "bytes4",
          "name": "",
          "type": "bytes4"
        }
      ],
      "stateMutability": "nonpayable",
      "type": "function"
    },
    {
      "inputs": [
        {
          "internalType": "uint256",
          "name": "tokenId",
          "type": "uint256"
        }
      ],
      "name": "ownerOf",
      "outputs": [
        {
          "internalType": "address",
          "name": "",
          "type": "address"
        }
      ],
      "stateMutability": "view",
      "type": "function"
    },
    {
      "inputs": [
        {
          "internalType": "address",
          "name": "from",
          "type": "address"
        },
        {
          "internalType": "address",
          "name": "to",
          "type": "address"
        },
        {
          "internalType": "uint256",
          "name": "tokenId",
          "type": "uint256"
        }
      ],
      "name": "safeTransferFrom",
      "outputs": [],
      "stateMutability": "nonpayable",
      "type": "function"
    },
    {
      "inputs": [
        {
          "internalType": "address",
          "name": "from",
          "type": "address"
        },
        {
          "internalType": "address",
          "name": "to",
          "type": "address"
        },
        {
          "internalType": "uint256",
          "name": "tokenId",
          "type": "uint256"
        },
        {
          "internalType": "bytes",
          "name": "data",
          "type": "bytes"
        }
      ],
      "name": "safeTransferFrom",
      "outputs": [],
      "stateMutability": "nonpayable",
      "type": "function"
    },
    {
      "inputs": [
        {
          "internalType": "address",
          "name": "operator",
          "type": "address"
        },
        {
          "internalType": "bool",
          "name": "approved",
          "type": "bool"
        }
      ],
      "name": "setApprovalForAll",
      "outputs": [],
      "stateMutability": "nonpayable",
      "type": "function"
    },
    {
      "inputs": [
        {
          "internalType": "bytes4",
          "name": "interfaceId",
          "type": "bytes4"
        }
      ],
      "name": "supportsInterface",
      "outputs": [
        {
          "internalType": "bool",
          "name": "",
          "type": "bool"
        }
      ],
      "stateMutability": "view",
      "type": "function"
    },
    {
      "inputs": [],
      "name": "symbol",
      "outputs": [
        {
          "internalType": "string",
          "name": "",
          "type": "string"
        }
      ],
      "stateMutability": "view",
      "type": "function"
    },
    {
      "inputs": [
        {
          "internalType": "uint256",
          "name": "tokenId",
          "type": "uint256"
        }
      ],
      "name": "tokenURI",
      "outputs": [
        {
          "internalType": "string",
          "name": "",
          "type": "string"
        }
      ],
      "stateMutability": "view",
      "type": "function"
    },
    {
      "inputs": [],
      "name": "totalCommunities",
      "outputs": [
        {
          "internalType": "uint256",
          "name": "",
          "type": "uint256"
        }
      ],
      "stateMutability": "view",
      "type": "function"
    },
    {
      "inputs": [],
      "name": "totalSupply",
      "outputs": [
        {
          "internalType": "uint256",
          "name": "",
          "type": "uint256"
        }
      ],
      "stateMutability": "view",
      "type": "function"
    },
    {
      "inputs": [
        {
          "internalType": "address",
          "name": "from",
          "type": "address"
        },
        {
          "internalType": "address",
          "name": "to",
          "type": "address"
        },
        {
          "internalType": "uint256",
          "name": "tokenId",
          "type": "uint256"
        }
      ],
      "name": "transferFrom",
      "outputs": [],
      "stateMutability": "nonpayable",
      "type": "function"
    }
  ],
  "bytecode": "0x610120604052601360e09081527f656d62726163655f636f6d6d756e697469657300000000000000000000000000610100526007906200004090826200078a565b503480156200004e57600080fd5b50604051620039653803806200396583398101604081905262000071916200092a565b80858560006200008283826200078a565b5060016200009182826200078a565b5050600880546001600160a01b0319166001600160a01b03841617905550620000b9620000f2565b506001600160a01b0380821660c052828116608052831660a052620000e7620000e1620003fb565b6200044f565b505050505062000d30565b600954156200012257604051633e0f514960e01b81526200011990600a90600401620009cc565b60405180910390fd5b600854604080516060810190915260368082526001600160a01b0390921691633a9151b0913091620001fc91906200392f6020830139600780546200016790620006fb565b80601f01602080910402602001604051908101604052809291908181526020018280546200019590620006fb565b8015620001e65780601f10620001ba57610100808354040283529160200191620001e6565b820191906000526020600020905b815481529060010190602001808311620001c857829003601f168201915b50505050506200046160201b62000fe11760201c565b6040518363ffffffff1660e01b81526004016200021b92919062000a8d565b6020604051808303816000875af11580156200023b573d6000803e3d6000fd5b505050506040513d601f19601f8201168201806040525081019062000261919062000abb565b600955600780546200031491906200027990620006fb565b80601f0160208091040260200160405190810160405280929190818152602001828054620002a790620006fb565b8015620002f85780601f10620002cc57610100808354040283529160200191620002f8565b820191906000526020600020905b815481529060010190602001808311620002da57829003601f168201915b5050505050600960000154620004a660201b620010171760201c565b600a906200032390826200078a565b50620003f96040518060400160405280601181526020017043726561746564207461626c653a20257360781b815250600960010180546200036490620006fb565b80601f01602080910402602001604051908101604052809291908181526020018280546200039290620006fb565b8015620003e35780601f10620003b757610100808354040283529160200191620003e3565b820191906000526020600020905b815481529060010190602001808311620003c557829003601f168201915b5050505050620004e960201b6200103e1760201c565b565b60606000600960010160405160200162000416919062000ad5565b6040516020818303038152906040529050806040516020016200043a919062000b98565b60405160208183030381529060405291505090565b600d6200045d82826200078a565b5050565b6060816200047a466200053660201b620010831760201c565b846040516020016200048f9392919062000c12565b604051602081830303815290604052905092915050565b606082620004bf466200053660201b620010831760201c565b620004d5846200053660201b620010831760201c565b6040516020016200048f9392919062000c9e565b6200045d82826040516024016200050292919062000cfe565b60408051601f198184030181529190526020810180516001600160e01b03908116634b5c427760e01b17909152620005da16565b606060006200055083620005fb60201b620011151760201c565b60010190506000816001600160401b03811115620005725762000572620006e5565b6040519080825280601f01601f1916602001820160405280156200059d576020820181803683370190505b5090508181016020015b600019016f181899199a1a9b1b9c1cb0b131b232b360811b600a86061a8153600a8504945084620005a757509392505050565b80516a636f6e736f6c652e6c6f67602083016000808483855afa5050505050565b6000807a184f03e93ff9f4daa797ed6e38ed64bf6a1f010000000000000000831062000645577a184f03e93ff9f4daa797ed6e38ed64bf6a1f010000000000000000830492506040015b6d04ee2d6d415b85acef8100000000831062000672576d04ee2d6d415b85acef8100000000830492506020015b662386f26fc1000083106200069157662386f26fc10000830492506010015b6305f5e1008310620006aa576305f5e100830492506008015b6127108310620006bf57612710830492506004015b60648310620006d2576064830492506002015b600a8310620006df576001015b92915050565b634e487b7160e01b600052604160045260246000fd5b600181811c908216806200071057607f821691505b6020821081036200073157634e487b7160e01b600052602260045260246000fd5b50919050565b601f8211156200078557600081815260208120601f850160051c81016020861015620007605750805b601f850160051c820191505b8181101562000781578281556001016200076c565b5050505b505050565b81516001600160401b03811115620007a657620007a6620006e5565b620007be81620007b78454620006fb565b8462000737565b602080601f831160018114620007f65760008415620007dd5750858301515b600019600386901b1c1916600185901b17855562000781565b600085815260208120601f198616915b82811015620008275788860151825594840194600190910190840162000806565b5085821015620008465787850151600019600388901b60f8161c191681555b5050505050600190811b01905550565b60005b838110156200087357818101518382015260200162000859565b50506000910152565b600082601f8301126200088e57600080fd5b81516001600160401b0380821115620008ab57620008ab620006e5565b604051601f8301601f19908116603f01168101908282118183101715620008d657620008d6620006e5565b81604052838152866020858801011115620008f057600080fd5b6200090384602083016020890162000856565b9695505050505050565b80516001600160a01b03811681146200092557600080fd5b919050565b600080600080600060a086880312156200094357600080fd5b85516001600160401b03808211156200095b57600080fd5b6200096989838a016200087c565b965060208801519150808211156200098057600080fd5b506200098f888289016200087c565b945050620009a0604087016200090d565b9250620009b0606087016200090d565b9150620009c0608087016200090d565b90509295509295909350565b6000602080835260008454620009e281620006fb565b8084870152604060018084166000811462000a06576001811462000a215762000a51565b60ff1985168984015283151560051b89018301955062000a51565b896000528660002060005b8581101562000a495781548b820186015290830190880162000a2c565b8a0184019650505b509398975050505050505050565b6000815180845262000a7981602086016020860162000856565b601f01601f19169290920160200192915050565b6001600160a01b038316815260406020820181905260009062000ab39083018462000a5f565b949350505050565b60006020828403121562000ace57600080fd5b5051919050565b7f53454c4543542b6d657461646174612b46524f4d2b00000000000000000000008152600060156000845462000b0b81620006fb565b6001828116801562000b26576001811462000b405762000b75565b60ff19841688870152821515830288018601945062000b75565b8860005260208060002060005b8581101562000b6a5781548b82018a015290840190820162000b4d565b505050858389010194505b50506d2b57484552452b69642b2533442b60901b83525050600e01949350505050565b7f68747470733a2f2f746573746e6574732e7461626c656c616e642e6e6574776f81527f726b2f71756572793f756e777261703d7472756526657874726163743d7472756020820152636526733d60e01b60408201526000825162000c0581604485016020870162000856565b9190910160440192915050565b6c021a922a0aa22902a20a126229609d1b81526000845162000c3c81600d85016020890162000856565b605f60f81b600d91840191820152845162000c5f81600e84016020890162000856565b600560fb1b600e9290910191820152835162000c8381600f84016020880162000856565b602960f81b600f929091019182015260100195945050505050565b6000845162000cb281846020890162000856565b8083019050605f60f81b808252855162000cd4816001850160208a0162000856565b6001920191820152835162000cf181600284016020880162000856565b0160020195945050505050565b60408152600062000d13604083018562000a5f565b828103602084015262000d27818562000a5f565b95945050505050565b60805160a05160c051612bcf62000d606000396000610d7d01526000610ef001526000610cf40152612bcf6000f3fe608060405234801561001057600080fd5b50600436106101285760003560e01c806301ffc9a71461012d57806306fdde0314610155578063081812fc1461016a578063095ea7b3146101955780630aebeb4e146101aa578063150b7a02146101bd57806318160ddd146101e957806323b872dd146101ff57806342842e0e146102125780635774932e146102255780635d5a33a2146102385780636352211e1461024057806370a082311461025357806395d89b4114610266578063a22cb4651461026e578063b17588e414610281578063b88d4fde146102a1578063c251b565146102b4578063c25d33c3146102c9578063c87b56dd146102e9578063d3594963146102fc578063dc591bc914610312578063e985e9c514610325578063fcb4d20614610338575b600080fd5b61014061013b366004611c0e565b610340565b60405190151581526020015b60405180910390f35b61015d610392565b60405161014c9190611c7b565b61017d610178366004611c8e565b610424565b6040516001600160a01b03909116815260200161014c565b6101a86101a3366004611cbe565b61044b565b005b6101a86101b8366004611c8e565b610565565b6101d06101cb366004611dcf565b6105bb565b6040516001600160e01b0319909116815260200161014c565b6101f16105cc565b60405190815260200161014c565b6101a861020d366004611e4a565b6105dc565b6101a8610220366004611e4a565b61060d565b6101a8610233366004611f5e565b610628565b61015d61082e565b61017d61024e366004611c8e565b610840565b6101f1610261366004611fa4565b610874565b61015d6108fa565b6101a861027c366004611fbf565b610909565b6101f161028f366004611c8e565b600e6020526000908152604090205481565b6101a86102af366004611dcf565b610914565b6102bc61094c565b60405161014c919061202c565b6102dc6102d736600461208e565b610a5d565b60405161014c91906120c2565b61015d6102f7366004611c8e565b610be2565b610304610bed565b60405161014c9291906120d5565b6101f1610320366004612228565b610c84565b61014061033336600461232a565b610f9b565b6101f1610fc9565b60006001600160e01b031982166380ac58cd60e01b148061037157506001600160e01b03198216635b5e139f60e01b145b8061038c57506301ffc9a760e01b6001600160e01b03198316145b92915050565b6060600080546103a19061235d565b80601f01602080910402602001604051908101604052809291908181526020018280546103cd9061235d565b801561041a5780601f106103ef5761010080835404028352916020019161041a565b820191906000526020600020905b8154815290600101906020018083116103fd57829003601f168201915b5050505050905090565b600061042f826111eb565b506000908152600460205260409020546001600160a01b031690565b600061045682610840565b9050806001600160a01b0316836001600160a01b0316036104c85760405162461bcd60e51b815260206004820152602160248201527f4552433732313a20617070726f76616c20746f2063757272656e74206f776e656044820152603960f91b60648201526084015b60405180910390fd5b336001600160a01b03821614806104e457506104e48133610f9b565b6105565760405162461bcd60e51b815260206004820152603d60248201527f4552433732313a20617070726f76652063616c6c6572206973206e6f7420746f60448201527f6b656e206f776e6572206f7220617070726f76656420666f7220616c6c00000060648201526084016104bf565b6105608383611213565b505050565b803361057082610840565b6001600160a01b0316146105a057604051637e9bc4c360e01b8152600481018290523360248201526044016104bf565b6105a982611281565b6105b7600c80546001019055565b5050565b630a85bd0160e11b5b949350505050565b60006105d7600b5490565b905090565b6105e633826112c1565b6106025760405162461bcd60e51b81526004016104bf90612397565b61056083838361131f565b61056083838360405180602001604052806000815250610914565b600061063383611083565b90506000826000015183602001518460400151856060015160405160200161065e94939291906123e4565b6040516020818303038152906040529050600061067b6001611083565b905060006107726007805461068f9061235d565b80601f01602080910402602001604051908101604052809291908181526020018280546106bb9061235d565b80156107085780601f106106dd57610100808354040283529160200191610708565b820191906000526020600020905b8154815290600101906020018083116106eb57829003601f168201915b5050505050600960000154604051806040016040528060158152602001741a590b081b595d1859185d184b081a5b99195e1959605a1b8152508761074b8861147e565b8760405160200161075e939291906124b7565b6040516020818303038152906040526114a7565b905046617a69036107be576107b660405180604001604052806017815260200176496e73657274696e6720436f6d6d756e6974793a20257360481b8152508261103e565b505050505050565b60085460095460405163757ae82760e11b81526001600160a01b039092169163eaf5d04e916107f4913091908690600401612511565b600060405180830381600087803b15801561080e57600080fd5b505af1158015610822573d6000803e3d6000fd5b50505050505050505050565b6060600960010180546103a19061235d565b60008061084c836114e6565b90506001600160a01b03811661038c5760405162461bcd60e51b81526004016104bf90612541565b60006001600160a01b0382166108de5760405162461bcd60e51b815260206004820152602960248201527f4552433732313a2061646472657373207a65726f206973206e6f7420612076616044820152683634b21037bbb732b960b91b60648201526084016104bf565b506001600160a01b031660009081526003602052604090205490565b6060600180546103a19061235d565b6105b7338383611501565b61091e33836112c1565b61093a5760405162461bcd60e51b81526004016104bf90612397565b610946848484846115cb565b50505050565b6060600f805480602002602001604051908101604052809291908181526020016000905b82821015610a5457600084815260209081902060408051606081018252600386029092018054835260018101546001600160a01b031693830193909352600283018054929392918401916109c39061235d565b80601f01602080910402602001604051908101604052809291908181526020018280546109ef9061235d565b8015610a3c5780601f10610a1157610100808354040283529160200191610a3c565b820191906000526020600020905b815481529060010190602001808311610a1f57829003601f168201915b50505050508152505081526020019060010190610970565b50505050905090565b6040805160608082018352600080835260208301529181019190915281516020808401919091206000818152600e90925260408220549091600f610aa2600184612589565b81548110610ab257610ab261259c565b9060005260206000209060030201604051806060016040529081600082015481526020016001820160009054906101000a90046001600160a01b03166001600160a01b03166001600160a01b03168152602001600282018054610b149061235d565b80601f0160208091040260200160405190810160405280929190818152602001828054610b409061235d565b8015610b8d5780601f10610b6257610100808354040283529160200191610b8d565b820191906000526020600020905b815481529060010190602001808311610b7057829003601f168201915b505050505081525050905080600001516000036105c45760405162461bcd60e51b815260206004820152601360248201527210dbdb5b5d5b9a5d1e481b9bdd08199bdd5b99606a1b60448201526064016104bf565b606061038c826115fe565b60098054600a8054919291610c019061235d565b80601f0160208091040260200160405190810160405280929190818152602001828054610c2d9061235d565b8015610c7a5780601f10610c4f57610100808354040283529160200191610c7a565b820191906000526020600020905b815481529060010190602001808311610c5d57829003601f168201915b5050505050905082565b82516020808501919091206000818152600e909252604082205415610cbe5784604051630b6da56160e21b81526004016104bf9190611c7b565b610ccc600b80546001019055565b6000610cd7600b5490565b9050610ce333826116f9565b610ced8185610628565b6000610d187f0000000000000000000000000000000000000000000000000000000000000000611802565b9050806001600160a01b0316636c11cefc610d3284611083565b604051602001610d4291906125b2565b604051602081830303815290604052610d5a85611083565b604051602001610d6a91906125ec565b60405160208183030381529060405233307f0000000000000000000000000000000000000000000000000000000000000000888d6040518863ffffffff1660e01b8152600401610dc0979695949392919061267c565b600060405180830381600087803b158015610dda57600080fd5b505af1158015610dee573d6000803e3d6000fd5b5050604080516060810182528581526001600160a01b03858116602083019081529282018c8152600f805460018101825560009190915283517f8d1108e10bcb7c27dddfc02ed9d693a074039d026cf4ea4240b40f7d581ac802600390920291820190815594517f8d1108e10bcb7c27dddfc02ed9d693a074039d026cf4ea4240b40f7d581ac803820180546001600160a01b0319169190941617909255519194508493507f8d1108e10bcb7c27dddfc02ed9d693a074039d026cf4ea4240b40f7d581ac8040190610ec090826127be565b5050506000848152600e60205260409081902084905551633576860d60e11b8152336004820152602481018490527f00000000000000000000000000000000000000000000000000000000000000006001600160a01b031690636aed0c1a90604401600060405180830381600087803b158015610f3c57600080fd5b505af1158015610f50573d6000803e3d6000fd5b50505050610f8f60405180604001604052806018815260200177436f6d6d756e69747920437265617465643a20257320257360401b815250844661189c565b50909695505050505050565b6001600160a01b03918216600090815260056020908152604080832093909416825291909152205460ff1690565b6000610fd4600c5490565b600b546105d79190612589565b606081610fed46611083565b846040516020016110009392919061287d565b604051602081830303815290604052905092915050565b60608261102346611083565b61102c84611083565b60405160200161100093929190612903565b6105b78282604051602401611054929190612935565b60408051601f198184030181529190526020810180516001600160e01b0316634b5c427760e01b1790526118df565b6060600061109083611115565b60010190506000816001600160401b038111156110af576110af611ce8565b6040519080825280601f01601f1916602001820160405280156110d9576020820181803683370190505b5090508181016020015b600019016f181899199a1a9b1b9c1cb0b131b232b360811b600a86061a8153600a85049450846110e357509392505050565b60008072184f03e93ff9f4daa797ed6e38ed64bf6a1f0160401b83106111545772184f03e93ff9f4daa797ed6e38ed64bf6a1f0160401b830492506040015b6904ee2d6d415b85acef8160201b831061117e576904ee2d6d415b85acef8160201b830492506020015b662386f26fc10000831061119c57662386f26fc10000830492506010015b6305f5e10083106111b4576305f5e100830492506008015b61271083106111c857612710830492506004015b606483106111da576064830492506002015b600a831061038c5760010192915050565b6111f481611900565b6112105760405162461bcd60e51b81526004016104bf90612541565b50565b600081815260046020526040902080546001600160a01b0319166001600160a01b038416908117909155819061124882610840565b6001600160a01b03167f8c5be1e5ebec7d5bd14f71427d1e84f3dd0314c0f7b2291e5b200ac8c7c3b92560405160405180910390a45050565b61128a8161191d565b600081815260066020526040902080546112a39061235d565b15905061121057600081815260066020526040812061121091611baa565b6000806112cd83610840565b9050806001600160a01b0316846001600160a01b031614806112f457506112f48185610f9b565b806105c45750836001600160a01b031661130d84610424565b6001600160a01b031614949350505050565b826001600160a01b031661133282610840565b6001600160a01b0316146113585760405162461bcd60e51b81526004016104bf9061295a565b6001600160a01b0382166113ba5760405162461bcd60e51b8152602060048201526024808201527f4552433732313a207472616e7366657220746f20746865207a65726f206164646044820152637265737360e01b60648201526084016104bf565b6113c783838360016119ae565b826001600160a01b03166113da82610840565b6001600160a01b0316146114005760405162461bcd60e51b81526004016104bf9061295a565b600081815260046020908152604080832080546001600160a01b03199081169091556001600160a01b038781168086526003855283862080546000190190559087168086528386208054600101905586865260029094528285208054909216841790915590518493600080516020612ba383398151915291a4505050565b606081604051602001611491919061299f565b6040516020818303038152906040529050919050565b606060006114b58686611017565b90508084846040516020016114cc939291906129cd565b604051602081830303815290604052915050949350505050565b6000908152600260205260409020546001600160a01b031690565b816001600160a01b0316836001600160a01b03160361155e5760405162461bcd60e51b815260206004820152601960248201527822a9219b99189d1030b8383937bb32903a379031b0b63632b960391b60448201526064016104bf565b6001600160a01b03838116600081815260056020908152604080832094871680845294825291829020805460ff191686151590811790915591519182527f17307eab39ab6107e8899845ad3d59bd9653f200f220920489ca2b5937696c31910160405180910390a3505050565b6115d684848461131f565b6115e284848484611a36565b6109465760405162461bcd60e51b81526004016104bf90612a59565b6060611609826111eb565b600082815260066020526040812080546116229061235d565b80601f016020809104026020016040519081016040528092919081815260200182805461164e9061235d565b801561169b5780601f106116705761010080835404028352916020019161169b565b820191906000526020600020905b81548152906001019060200180831161167e57829003601f168201915b5050505050905060006116ac611b34565b905080516000036116be575092915050565b8151156116f05780826040516020016116d8929190612aab565b60405160208183030381529060405292505050919050565b6105c484611b43565b6001600160a01b03821661174f5760405162461bcd60e51b815260206004820181905260248201527f4552433732313a206d696e7420746f20746865207a65726f206164647265737360448201526064016104bf565b61175881611900565b156117755760405162461bcd60e51b81526004016104bf90612ada565b6117836000838360016119ae565b61178c81611900565b156117a95760405162461bcd60e51b81526004016104bf90612ada565b6001600160a01b038216600081815260036020908152604080832080546001019055848352600290915280822080546001600160a01b031916841790555183929190600080516020612ba3833981519152908290a45050565b6000763d602d80600a3d3981f3363d3d373d3d3d363d730000008260601b60e81c176000526e5af43d82803e903d91602b57fd5bf38260781b17602052603760096000f090506001600160a01b0381166118975760405162461bcd60e51b8152602060048201526016602482015275115490cc4c4d8dce8818dc99585d194819985a5b195960521b60448201526064016104bf565b919050565b6105608383836040516024016118b493929190612b10565b60408051601f198184030181529190526020810180516001600160e01b031663ca47c4eb60e01b1790525b80516a636f6e736f6c652e6c6f67602083016000808483855afa5050505050565b60008061190c836114e6565b6001600160a01b0316141592915050565b600061192882610840565b90506119388160008460016119ae565b61194182610840565b600083815260046020908152604080832080546001600160a01b03199081169091556001600160a01b038516808552600384528285208054600019019055878552600290935281842080549091169055519293508492600080516020612ba3833981519152908390a45050565b6001811115610946576001600160a01b038416156119f4576001600160a01b038416600090815260036020526040812080548392906119ee908490612589565b90915550505b6001600160a01b03831615610946576001600160a01b03831660009081526003602052604081208054839290611a2b908490612b35565b909155505050505050565b60006001600160a01b0384163b15611b2c57604051630a85bd0160e11b81526001600160a01b0385169063150b7a0290611a7a903390899088908890600401612b48565b6020604051808303816000875af1925050508015611ab5575060408051601f3d908101601f19168201909252611ab291810190612b85565b60015b611b12573d808015611ae3576040519150601f19603f3d011682016040523d82523d6000602084013e611ae8565b606091505b508051600003611b0a5760405162461bcd60e51b81526004016104bf90612a59565b805181602001fd5b6001600160e01b031916630a85bd0160e11b1490506105c4565b5060016105c4565b6060600d80546103a19061235d565b6060611b4e826111eb565b6000611b58611b34565b90506000815111611b785760405180602001604052806000815250611ba3565b80611b8284611083565b604051602001611b93929190612aab565b6040516020818303038152906040525b9392505050565b508054611bb69061235d565b6000825580601f10611bc6575050565b601f01602090049060005260206000209081019061121091905b80821115611bf45760008155600101611be0565b5090565b6001600160e01b03198116811461121057600080fd5b600060208284031215611c2057600080fd5b8135611ba381611bf8565b60005b83811015611c46578181015183820152602001611c2e565b50506000910152565b60008151808452611c67816020860160208601611c2b565b601f01601f19169290920160200192915050565b602081526000611ba36020830184611c4f565b600060208284031215611ca057600080fd5b5035919050565b80356001600160a01b038116811461189757600080fd5b60008060408385031215611cd157600080fd5b611cda83611ca7565b946020939093013593505050565b634e487b7160e01b600052604160045260246000fd5b604051608081016001600160401b0381118282101715611d2057611d20611ce8565b60405290565b604051606081016001600160401b0381118282101715611d2057611d20611ce8565b604051601f8201601f191681016001600160401b0381118282101715611d7057611d70611ce8565b604052919050565b60006001600160401b03831115611d9157611d91611ce8565b611da4601f8401601f1916602001611d48565b9050828152838383011115611db857600080fd5b828260208301376000602084830101529392505050565b60008060008060808587031215611de557600080fd5b611dee85611ca7565b9350611dfc60208601611ca7565b92506040850135915060608501356001600160401b03811115611e1e57600080fd5b8501601f81018713611e2f57600080fd5b611e3e87823560208401611d78565b91505092959194509250565b600080600060608486031215611e5f57600080fd5b611e6884611ca7565b9250611e7660208501611ca7565b9150604084013590509250925092565b600082601f830112611e9757600080fd5b611ba383833560208501611d78565b600060808284031215611eb857600080fd5b611ec0611cfe565b905081356001600160401b0380821115611ed957600080fd5b611ee585838601611e86565b83526020840135915080821115611efb57600080fd5b611f0785838601611e86565b60208401526040840135915080821115611f2057600080fd5b611f2c85838601611e86565b60408401526060840135915080821115611f4557600080fd5b50611f5284828501611e86565b60608301525092915050565b60008060408385031215611f7157600080fd5b8235915060208301356001600160401b03811115611f8e57600080fd5b611f9a85828601611ea6565b9150509250929050565b600060208284031215611fb657600080fd5b611ba382611ca7565b60008060408385031215611fd257600080fd5b611fdb83611ca7565b915060208301358015158114611ff057600080fd5b809150509250929050565b8051825260018060a01b03602082015116602083015260006040820151606060408501526105c46060850182611c4f565b6000602080830181845280855180835260408601915060408160051b870101925083870160005b8281101561208157603f1988860301845261206f858351611ffb565b94509285019290850190600101612053565b5092979650505050505050565b6000602082840312156120a057600080fd5b81356001600160401b038111156120b657600080fd5b6105c484828501611e86565b602081526000611ba36020830184611ffb565b8281526040602082015260006105c46040830184611c4f565b6000818303608081121561210157600080fd5b604080519081016001600160401b038111828210171561212357612123611ce8565b60405291508183356003811061213857600080fd5b81526060601f198301121561214c57600080fd5b612154611d26565b915060208401356004811061216857600080fd5b825261217660408501611ca7565b602083015260608401356040830152816020820152505092915050565b600082601f8301126121a457600080fd5b813560206001600160401b038211156121bf576121bf611ce8565b8160051b6121ce828201611d48565b92835284810182019282810190878511156121e857600080fd5b83870192505b8483101561221d5782356001600160801b038116811461220e5760008081fd5b825291830191908301906121ee565b979650505050505050565b60008060006060848603121561223d57600080fd5b83356001600160401b038082111561225457600080fd5b61226087838801611e86565b9450602086013591508082111561227657600080fd5b9085019060e0828803121561228a57600080fd5b612292611cfe565b8235828111156122a157600080fd5b6122ad89828601611e86565b8252506020830135600281106122c257600080fd5b60208201526122d488604085016120ee565b604082015260c0830135828111156122eb57600080fd5b6122f789828601612193565b6060830152509350604086013591508082111561231357600080fd5b5061232086828701611ea6565b9150509250925092565b6000806040838503121561233d57600080fd5b61234683611ca7565b915061235460208401611ca7565b90509250929050565b600181811c9082168061237157607f821691505b60208210810361239157634e487b7160e01b600052602260045260246000fd5b50919050565b6020808252602d908201527f4552433732313a2063616c6c6572206973206e6f7420746f6b656e206f776e6560408201526c1c881bdc88185c1c1c9bdd9959609a1b606082015260800190565b6b3d913430b7323632911d101160a11b8152845160009061240c81600c850160208a01611c2b565b6b111610113730b6b2911d101160a11b600c918401918201528551612438816018840160208a01611c2b565b72111610113232b9b1b934b83a34b7b7111d101160691b60189290910191820152845161246c81602b840160208901611c2b565b6c1116101134b6b0b3b2911d101160991b602b9290910191820152835161249a816038840160208801611c2b565b61227d60f01b60389290910191820152603a019695505050505050565b600084516124c9818460208901611c2b565b8083019050600b60fa1b80825285516124e9816001850160208a01611c2b565b60019201918201528351612504816002840160208801611c2b565b0160020195945050505050565b60018060a01b03841681528260208201526060604082015260006125386060830184611c4f565b95945050505050565b602080825260189082015277115490cdcc8c4e881a5b9d985b1a59081d1bdad95b88125160421b604082015260600190565b634e487b7160e01b600052601160045260246000fd5b8181038181111561038c5761038c612573565b634e487b7160e01b600052603260045260246000fd5b71022a6a12920a1a2afa1a7a6a6af98171899960751b8152600082516125df816012850160208701611c2b565b9190910160120192915050565b6d022a6a12fa1a7a6a6af98171899960951b81526000825161261581600e850160208701611c2b565b91909101600e0192915050565b634e487b7160e01b600052602160045260246000fd5b600081518084526020808501945080840160005b838110156126715781516001600160801b03168752958201959082019060010161264c565b509495945050505050565b60e08152600061268f60e083018a611c4f565b82810360208401526126a1818a611c4f565b905060018060a01b038089166040850152808816606085015280871660808501528560a085015283820360c0850152845160e083526126e360e0840182611c4f565b90506020860151600281106126fa576126fa612622565b6020840152604086015180516003811061271657612716612622565b60408501526020015180516004811061273157612731612622565b80606086015250826020820151166080850152604081015160a0850152506060860151915082810360c08401526127688183612638565b9c9b505050505050505050505050565b601f82111561056057600081815260208120601f850160051c8101602086101561279f5750805b601f850160051c820191505b818110156107b6578281556001016127ab565b81516001600160401b038111156127d7576127d7611ce8565b6127eb816127e5845461235d565b84612778565b602080601f83116001811461282057600084156128085750858301515b600019600386901b1c1916600185901b1785556107b6565b600085815260208120601f198616915b8281101561284f57888601518255948401946001909101908401612830565b508582101561286d5787850151600019600388901b60f8161c191681555b5050505050600190811b01905550565b6c021a922a0aa22902a20a126229609d1b8152600084516128a581600d850160208901611c2b565b605f60f81b600d9184019182015284516128c681600e840160208901611c2b565b600560fb1b600e929091019182015283516128e881600f840160208801611c2b565b602960f81b600f929091019182015260100195945050505050565b60008451612915818460208901611c2b565b8083019050605f60f81b80825285516124e9816001850160208a01611c2b565b6040815260006129486040830185611c4f565b82810360208401526125388185611c4f565b60208082526025908201527f4552433732313a207472616e736665722066726f6d20696e636f72726563742060408201526437bbb732b960d91b606082015260800190565b6000602760f81b80835283516129bc816001860160208801611c2b565b600193019283015250600201919050565b6b024a729a2a92a1024a72a27960a51b8152600084516129f481600c850160208901611c2b565b600560fb1b600c918401918201528451612a1581600d840160208901611c2b565b67052ac8298aa8aa6560c31b600d92909101918201528351612a3e816015840160208801611c2b565b602960f81b6015929091019182015260160195945050505050565b60208082526032908201527f4552433732313a207472616e7366657220746f206e6f6e20455243373231526560408201527131b2b4bb32b91034b6b83632b6b2b73a32b960711b606082015260800190565b60008351612abd818460208801611c2b565b835190830190612ad1818360208801611c2b565b01949350505050565b6020808252601c908201527b115490cdcc8c4e881d1bdad95b88185b1c9958591e481b5a5b9d195960221b604082015260600190565b606081526000612b236060830186611c4f565b60208301949094525060400152919050565b8082018082111561038c5761038c612573565b6001600160a01b0385811682528416602082015260408101839052608060608201819052600090612b7b90830184611c4f565b9695505050505050565b600060208284031215612b9757600080fd5b8151611ba381611bf856feddf252ad1be2c89b69c2b068fc378daa952ba7f163c4a11628f55a4df523b3efa164736f6c6343000811000a696420696e7465676572207072696d617279206b65792c206d6574616461746120746578742c20696e646578656420696e7465676572",
  "linkReferences": {},
  "deployedLinkReferences": {}
}