{
  "_format": "hh-sol-artifact-1",
  "contractName": "EmbraceCommunities",
  "sourceName": "contracts/EmbraceCommunities.sol",
  "abi": [
    {
      "inputs": [
        {
          "internalType": "string",
          "name": "_name",
          "type": "string"
        },
        {
          "internalType": "string",
          "name": "_symbol",
          "type": "string"
        },
        {
          "internalType": "address",
          "name": "_accountsContractAddress",
          "type": "address"
        },
        {
          "internalType": "address",
          "name": "_embraceCommunityAddress",
          "type": "address"
        }
      ],
      "stateMutability": "nonpayable",
      "type": "constructor"
    },
    {
      "inputs": [
        {
          "internalType": "string",
          "name": "handle",
          "type": "string"
        }
      ],
      "name": "ErrorHandleExists",
      "type": "error"
    },
    {
      "inputs": [
        {
          "internalType": "uint256",
          "name": "communityId",
          "type": "uint256"
        },
        {
          "internalType": "address",
          "name": "account",
          "type": "address"
        }
      ],
      "name": "ErrorNotCommunityOwner",
      "type": "error"
    },
    {
      "anonymous": false,
      "inputs": [
        {
          "indexed": true,
          "internalType": "address",
          "name": "owner",
          "type": "address"
        },
        {
          "indexed": true,
          "internalType": "address",
          "name": "approved",
          "type": "address"
        },
        {
          "indexed": true,
          "internalType": "uint256",
          "name": "tokenId",
          "type": "uint256"
        }
      ],
      "name": "Approval",
      "type": "event"
    },
    {
      "anonymous": false,
      "inputs": [
        {
          "indexed": true,
          "internalType": "address",
          "name": "owner",
          "type": "address"
        },
        {
          "indexed": true,
          "internalType": "address",
          "name": "operator",
          "type": "address"
        },
        {
          "indexed": false,
          "internalType": "bool",
          "name": "approved",
          "type": "bool"
        }
      ],
      "name": "ApprovalForAll",
      "type": "event"
    },
    {
      "anonymous": false,
      "inputs": [
        {
          "indexed": false,
          "internalType": "uint256",
          "name": "communityId",
          "type": "uint256"
        },
        {
          "indexed": false,
          "internalType": "enum Visibility",
          "name": "visibility",
          "type": "uint8"
        },
        {
          "indexed": false,
          "internalType": "enum Access",
          "name": "access",
          "type": "uint8"
        },
        {
          "indexed": false,
          "internalType": "string",
          "name": "communityMetaData",
          "type": "string"
        }
      ],
      "name": "CommunityCreated",
      "type": "event"
    },
    {
      "anonymous": false,
      "inputs": [
        {
          "indexed": true,
          "internalType": "address",
          "name": "from",
          "type": "address"
        },
        {
          "indexed": true,
          "internalType": "address",
          "name": "to",
          "type": "address"
        },
        {
          "indexed": true,
          "internalType": "uint256",
          "name": "tokenId",
          "type": "uint256"
        }
      ],
      "name": "Transfer",
      "type": "event"
    },
    {
      "inputs": [
        {
          "internalType": "address",
          "name": "to",
          "type": "address"
        },
        {
          "internalType": "uint256",
          "name": "tokenId",
          "type": "uint256"
        }
      ],
      "name": "approve",
      "outputs": [],
      "stateMutability": "nonpayable",
      "type": "function"
    },
    {
      "inputs": [
        {
          "internalType": "address",
          "name": "owner",
          "type": "address"
        }
      ],
      "name": "balanceOf",
      "outputs": [
        {
          "internalType": "uint256",
          "name": "",
          "type": "uint256"
        }
      ],
      "stateMutability": "view",
      "type": "function"
    },
    {
      "inputs": [
        {
          "internalType": "uint256",
          "name": "_communityId",
          "type": "uint256"
        }
      ],
      "name": "close",
      "outputs": [],
      "stateMutability": "nonpayable",
      "type": "function"
    },
    {
      "inputs": [
        {
          "internalType": "string",
          "name": "_handle",
          "type": "string"
        },
        {
          "components": [
            {
              "internalType": "string",
              "name": "handle",
              "type": "string"
            },
            {
              "internalType": "enum Visibility",
              "name": "visibility",
              "type": "uint8"
            },
            {
              "internalType": "enum Access",
              "name": "access",
              "type": "uint8"
            },
            {
              "components": [
                {
                  "internalType": "enum MembershipGateToken",
                  "name": "tokenType",
                  "type": "uint8"
                },
                {
                  "internalType": "address",
                  "name": "tokenAddress",
                  "type": "address"
                },
                {
                  "internalType": "uint256",
                  "name": "tokenId",
                  "type": "uint256"
                }
              ],
              "internalType": "struct MembershipGate",
              "name": "membershipGate",
              "type": "tuple"
            },
            {
              "internalType": "uint128[]",
              "name": "apps",
              "type": "uint128[]"
            },
            {
              "internalType": "string",
              "name": "metadata",
              "type": "string"
            }
          ],
          "internalType": "struct CommunityData",
          "name": "_communityData",
          "type": "tuple"
        }
      ],
      "name": "createCommunity",
      "outputs": [
        {
          "internalType": "uint256",
          "name": "",
          "type": "uint256"
        }
      ],
      "stateMutability": "nonpayable",
      "type": "function"
    },
    {
      "inputs": [
        {
          "internalType": "uint256",
          "name": "tokenId",
          "type": "uint256"
        }
      ],
      "name": "getApproved",
      "outputs": [
        {
          "internalType": "address",
          "name": "",
          "type": "address"
        }
      ],
      "stateMutability": "view",
      "type": "function"
    },
    {
      "inputs": [],
      "name": "getCommunities",
      "outputs": [
        {
          "components": [
            {
              "internalType": "uint256",
              "name": "id",
              "type": "uint256"
            },
            {
              "internalType": "address",
              "name": "contractAddress",
              "type": "address"
            },
            {
              "internalType": "string",
              "name": "handle",
              "type": "string"
            }
          ],
          "internalType": "struct EmbraceCommunities.Community[]",
          "name": "",
          "type": "tuple[]"
        }
      ],
      "stateMutability": "view",
      "type": "function"
    },
    {
      "inputs": [
        {
          "internalType": "string",
          "name": "_handle",
          "type": "string"
        }
      ],
      "name": "handleToCommunity",
      "outputs": [
        {
          "components": [
            {
              "internalType": "uint256",
              "name": "id",
              "type": "uint256"
            },
            {
              "internalType": "address",
              "name": "contractAddress",
              "type": "address"
            },
            {
              "internalType": "string",
              "name": "handle",
              "type": "string"
            }
          ],
          "internalType": "struct EmbraceCommunities.Community",
          "name": "_community",
          "type": "tuple"
        }
      ],
      "stateMutability": "view",
      "type": "function"
    },
    {
      "inputs": [
        {
          "internalType": "bytes32",
          "name": "",
          "type": "bytes32"
        }
      ],
      "name": "handleToId",
      "outputs": [
        {
          "internalType": "uint256",
          "name": "",
          "type": "uint256"
        }
      ],
      "stateMutability": "view",
      "type": "function"
    },
    {
      "inputs": [
        {
          "internalType": "address",
          "name": "owner",
          "type": "address"
        },
        {
          "internalType": "address",
          "name": "operator",
          "type": "address"
        }
      ],
      "name": "isApprovedForAll",
      "outputs": [
        {
          "internalType": "bool",
          "name": "",
          "type": "bool"
        }
      ],
      "stateMutability": "view",
      "type": "function"
    },
    {
      "inputs": [],
      "name": "name",
      "outputs": [
        {
          "internalType": "string",
          "name": "",
          "type": "string"
        }
      ],
      "stateMutability": "view",
      "type": "function"
    },
    {
      "inputs": [
        {
          "internalType": "address",
          "name": "",
          "type": "address"
        },
        {
          "internalType": "address",
          "name": "",
          "type": "address"
        },
        {
          "internalType": "uint256",
          "name": "",
          "type": "uint256"
        },
        {
          "internalType": "bytes",
          "name": "",
          "type": "bytes"
        }
      ],
      "name": "onERC721Received",
      "outputs": [
        {
          "internalType": "bytes4",
          "name": "",
          "type": "bytes4"
        }
      ],
      "stateMutability": "nonpayable",
      "type": "function"
    },
    {
      "inputs": [
        {
          "internalType": "uint256",
          "name": "tokenId",
          "type": "uint256"
        }
      ],
      "name": "ownerOf",
      "outputs": [
        {
          "internalType": "address",
          "name": "",
          "type": "address"
        }
      ],
      "stateMutability": "view",
      "type": "function"
    },
    {
      "inputs": [
        {
          "internalType": "address",
          "name": "from",
          "type": "address"
        },
        {
          "internalType": "address",
          "name": "to",
          "type": "address"
        },
        {
          "internalType": "uint256",
          "name": "tokenId",
          "type": "uint256"
        }
      ],
      "name": "safeTransferFrom",
      "outputs": [],
      "stateMutability": "nonpayable",
      "type": "function"
    },
    {
      "inputs": [
        {
          "internalType": "address",
          "name": "from",
          "type": "address"
        },
        {
          "internalType": "address",
          "name": "to",
          "type": "address"
        },
        {
          "internalType": "uint256",
          "name": "tokenId",
          "type": "uint256"
        },
        {
          "internalType": "bytes",
          "name": "data",
          "type": "bytes"
        }
      ],
      "name": "safeTransferFrom",
      "outputs": [],
      "stateMutability": "nonpayable",
      "type": "function"
    },
    {
      "inputs": [
        {
          "internalType": "address",
          "name": "operator",
          "type": "address"
        },
        {
          "internalType": "bool",
          "name": "approved",
          "type": "bool"
        }
      ],
      "name": "setApprovalForAll",
      "outputs": [],
      "stateMutability": "nonpayable",
      "type": "function"
    },
    {
      "inputs": [
        {
          "internalType": "bytes4",
          "name": "interfaceId",
          "type": "bytes4"
        }
      ],
      "name": "supportsInterface",
      "outputs": [
        {
          "internalType": "bool",
          "name": "",
          "type": "bool"
        }
      ],
      "stateMutability": "view",
      "type": "function"
    },
    {
      "inputs": [],
      "name": "symbol",
      "outputs": [
        {
          "internalType": "string",
          "name": "",
          "type": "string"
        }
      ],
      "stateMutability": "view",
      "type": "function"
    },
    {
      "inputs": [
        {
          "internalType": "uint256",
          "name": "tokenId",
          "type": "uint256"
        }
      ],
      "name": "tokenURI",
      "outputs": [
        {
          "internalType": "string",
          "name": "",
          "type": "string"
        }
      ],
      "stateMutability": "view",
      "type": "function"
    },
    {
      "inputs": [],
      "name": "totalCommunities",
      "outputs": [
        {
          "internalType": "uint256",
          "name": "",
          "type": "uint256"
        }
      ],
      "stateMutability": "view",
      "type": "function"
    },
    {
      "inputs": [],
      "name": "totalSupply",
      "outputs": [
        {
          "internalType": "uint256",
          "name": "",
          "type": "uint256"
        }
      ],
      "stateMutability": "view",
      "type": "function"
    },
    {
      "inputs": [
        {
          "internalType": "address",
          "name": "from",
          "type": "address"
        },
        {
          "internalType": "address",
          "name": "to",
          "type": "address"
        },
        {
          "internalType": "uint256",
          "name": "tokenId",
          "type": "uint256"
        }
      ],
      "name": "transferFrom",
      "outputs": [],
      "stateMutability": "nonpayable",
      "type": "function"
    },
    {
      "inputs": [
        {
          "internalType": "uint256",
          "name": "_communityId",
          "type": "uint256"
        },
        {
          "components": [
            {
              "internalType": "string",
              "name": "handle",
              "type": "string"
            },
            {
              "internalType": "enum Visibility",
              "name": "visibility",
              "type": "uint8"
            },
            {
              "internalType": "enum Access",
              "name": "access",
              "type": "uint8"
            },
            {
              "components": [
                {
                  "internalType": "enum MembershipGateToken",
                  "name": "tokenType",
                  "type": "uint8"
                },
                {
                  "internalType": "address",
                  "name": "tokenAddress",
                  "type": "address"
                },
                {
                  "internalType": "uint256",
                  "name": "tokenId",
                  "type": "uint256"
                }
              ],
              "internalType": "struct MembershipGate",
              "name": "membershipGate",
              "type": "tuple"
            },
            {
              "internalType": "uint128[]",
              "name": "apps",
              "type": "uint128[]"
            },
            {
              "internalType": "string",
              "name": "metadata",
              "type": "string"
            }
          ],
          "internalType": "struct CommunityData",
          "name": "_CommunityData",
          "type": "tuple"
        }
      ],
      "name": "updateCommunity",
      "outputs": [],
      "stateMutability": "nonpayable",
      "type": "function"
    }
  ],
  "bytecode": "0x60c06040523480156200001157600080fd5b5060405162002f8438038062002f84833981016040819052620000349162000190565b83836000620000448382620002ae565b506001620000538282620002ae565b5050506001600160a01b03808216608052821660a052604080518082019091526007815266697066733a2f2f60c81b602082015262000092906200009c565b505050506200037a565b6009620000aa8282620002ae565b5050565b634e487b7160e01b600052604160045260246000fd5b600082601f830112620000d657600080fd5b81516001600160401b0380821115620000f357620000f3620000ae565b604051601f8301601f19908116603f011681019082821181831017156200011e576200011e620000ae565b816040528381526020925086838588010111156200013b57600080fd5b600091505b838210156200015f578582018301518183018401529082019062000140565b600093810190920192909252949350505050565b80516001600160a01b03811681146200018b57600080fd5b919050565b60008060008060808587031215620001a757600080fd5b84516001600160401b0380821115620001bf57600080fd5b620001cd88838901620000c4565b95506020870151915080821115620001e457600080fd5b50620001f387828801620000c4565b935050620002046040860162000173565b9150620002146060860162000173565b905092959194509250565b600181811c908216806200023457607f821691505b6020821081036200025557634e487b7160e01b600052602260045260246000fd5b50919050565b601f821115620002a957600081815260208120601f850160051c81016020861015620002845750805b601f850160051c820191505b81811015620002a55782815560010162000290565b5050505b505050565b81516001600160401b03811115620002ca57620002ca620000ae565b620002e281620002db84546200021f565b846200025b565b602080601f8311600181146200031a5760008415620003015750858301515b600019600386901b1c1916600185901b178555620002a5565b600085815260208120601f198616915b828110156200034b578886015182559484019460019091019084016200032a565b50858210156200036a5787850151600019600388901b60f8161c191681555b5050505050600190811b01905550565b60805160a051612be4620003a06000396000610915015260006106be0152612be46000f3fe608060405234801561001057600080fd5b50600436106101125760003560e01c806301ffc9a71461011757806306fdde031461013f578063081812fc14610154578063095ea7b31461017f5780630aebeb4e14610194578063150b7a02146101a757806318160ddd146101d357806323b872dd146101e957806342842e0e146101fc5780635aaa2b2f1461020f5780636352211e146102225780636ffe50361461023557806370a082311461024857806395d89b411461025b578063a22cb46514610263578063b17588e414610276578063b88d4fde14610296578063c251b565146102a9578063c25d33c3146102be578063c87b56dd146102de578063e985e9c5146102f1578063fcb4d20614610304575b600080fd5b61012a610125366004611c50565b61030c565b60405190151581526020015b60405180910390f35b61014761035e565b6040516101369190611cbd565b610167610162366004611cd0565b6103f0565b6040516001600160a01b039091168152602001610136565b61019261018d366004611d00565b610417565b005b6101926101a2366004611cd0565b610531565b6101ba6101b5366004611def565b610582565b6040516001600160e01b03199091168152602001610136565b6101db610593565b604051908152602001610136565b6101926101f7366004611e6a565b6105a3565b61019261020a366004611e6a565b6105d4565b6101db61021d366004611ea6565b6105ef565b610167610230366004611cd0565b610a7d565b61019261024336600461208e565b610ab1565b6101db610256366004612183565b610c62565b610147610ce8565b61019261027136600461219e565b610cf7565b6101db610284366004611cd0565b600a6020526000908152604090205481565b6101926102a4366004611def565b610d02565b6102b1610d34565b604051610136919061220b565b6102d16102cc36600461226d565b610e45565b60405161013691906122a1565b6101476102ec366004611cd0565b610fca565b61012a6102ff3660046122b4565b610fd5565b6101db611003565b60006001600160e01b031982166380ac58cd60e01b148061033d57506001600160e01b03198216635b5e139f60e01b145b8061035857506301ffc9a760e01b6001600160e01b03198316145b92915050565b60606000805461036d906122e7565b80601f0160208091040260200160405190810160405280929190818152602001828054610399906122e7565b80156103e65780601f106103bb576101008083540402835291602001916103e6565b820191906000526020600020905b8154815290600101906020018083116103c957829003601f168201915b5050505050905090565b60006103fb8261101b565b506000908152600460205260409020546001600160a01b031690565b600061042282610a7d565b9050806001600160a01b0316836001600160a01b0316036104945760405162461bcd60e51b815260206004820152602160248201527f4552433732313a20617070726f76616c20746f2063757272656e74206f776e656044820152603960f91b60648201526084015b60405180910390fd5b336001600160a01b03821614806104b057506104b08133610fd5565b6105225760405162461bcd60e51b815260206004820152603d60248201527f4552433732313a20617070726f76652063616c6c6572206973206e6f7420746f60448201527f6b656e206f776e6572206f7220617070726f76656420666f7220616c6c000000606482015260840161048b565b61052c8383611043565b505050565b803361053c82610a7d565b6001600160a01b031614610567578033604051637e9bc4c360e01b815260040161048b929190612321565b610570826110b1565b61057e600880546001019055565b5050565b630a85bd0160e11b5b949350505050565b600061059e60075490565b905090565b6105ad33826110f1565b6105c95760405162461bcd60e51b815260040161048b90612338565b61052c83838361114f565b61052c83838360405180602001604052806000815250610d02565b6000808484604051610602929190612385565b60405180910390209050600a600082815260200190815260200160002054600014610644578484604051630b6da56160e21b815260040161048b9291906123be565b61069c604051806060016040528060228152602001612bb66022913986868080601f0160208091040260200160405190810160405280939291908181526020018383808284376000920191909152506112ae92505050565b6106aa600780546001019055565b60006106b560075490565b905060006106e27f00000000000000000000000000000000000000000000000000000000000000006112f3565b9050806001600160a01b031663ba2d52ac6106fc8461138d565b60405160200161070c91906123d2565b6040516020818303038152906040526107248561138d565b604051602001610734919061240c565b6040516020818303038152906040523330878b6040518763ffffffff1660e01b815260040161076896959493929190612557565b600060405180830381600087803b15801561078257600080fd5b505af1158015610796573d6000803e3d6000fd5b505050506107d1604051806040016040528060158152602001744e657720636f6d6d756e697479206164647265737360581b8152508261141f565b60006040518060600160405280848152602001836001600160a01b0316815260200189898080601f0160208091040260200160405190810160405280939291908181526020018383808284376000920182905250939094525050600b80546001810182559152825160039091027f0175b7a638427703f0dbe7bb9bbf987a2551717b34e79f33b5b1008d1fa01db9810191825560208401517f0175b7a638427703f0dbe7bb9bbf987a2551717b34e79f33b5b1008d1fa01dba820180546001600160a01b039092166001600160a01b0319909216919091179055604084015193945084939192507f0175b7a638427703f0dbe7bb9bbf987a2551717b34e79f33b5b1008d1fa01dbb01906108e590826126da565b5050506000848152600a60205260409081902084905551633576860d60e11b8152336004820152602481018490527f00000000000000000000000000000000000000000000000000000000000000006001600160a01b031690636aed0c1a90604401600060405180830381600087803b15801561096157600080fd5b505af1158015610975573d6000803e3d6000fd5b505050506109833384611464565b6109ce8361099460e0890189612799565b8080601f01602080910402602001604051908101604052809392919081815260200183838082843760009201919091525061156d92505050565b7ffdd4a2748372821b146c0f15a0951903c598ceb899e41129e5cb3d6728839d4e83610a006040890160208a016127df565b610a1060608a0160408b016127fa565b610a1d60e08b018b612799565b604051610a2e959493929190612817565b60405180910390a1610a7160405180604001604052806018815260200177436f6d6d756e69747920437265617465643a20257320257360401b81525084466115f1565b50909695505050505050565b600080610a8983611638565b90506001600160a01b0381166103585760405162461bcd60e51b815260040161048b9061284d565b8133610abc82610a7d565b6001600160a01b031614610ae7578033604051637e9bc4c360e01b815260040161048b929190612321565b6000600b610af6600186612895565b81548110610b0657610b066128a8565b9060005260206000209060030201604051806060016040529081600082015481526020016001820160009054906101000a90046001600160a01b03166001600160a01b03166001600160a01b03168152602001600282018054610b68906122e7565b80601f0160208091040260200160405190810160405280929190818152602001828054610b94906122e7565b8015610be15780601f10610bb657610100808354040283529160200191610be1565b820191906000526020600020905b815481529060010190602001808311610bc457829003601f168201915b505050505081525050905080602001516001600160a01b031663522c66bd846040518263ffffffff1660e01b8152600401610c1c91906128f7565b600060405180830381600087803b158015610c3657600080fd5b505af1158015610c4a573d6000803e3d6000fd5b50505050610c5c848460a0015161156d565b50505050565b60006001600160a01b038216610ccc5760405162461bcd60e51b815260206004820152602960248201527f4552433732313a2061646472657373207a65726f206973206e6f7420612076616044820152683634b21037bbb732b960b91b606482015260840161048b565b506001600160a01b031660009081526003602052604090205490565b60606001805461036d906122e7565b61057e338383611653565b610d0c33836110f1565b610d285760405162461bcd60e51b815260040161048b90612338565b610c5c8484848461171d565b6060600b805480602002602001604051908101604052809291908181526020016000905b82821015610e3c57600084815260209081902060408051606081018252600386029092018054835260018101546001600160a01b03169383019390935260028301805492939291840191610dab906122e7565b80601f0160208091040260200160405190810160405280929190818152602001828054610dd7906122e7565b8015610e245780601f10610df957610100808354040283529160200191610e24565b820191906000526020600020905b815481529060010190602001808311610e0757829003601f168201915b50505050508152505081526020019060010190610d58565b50505050905090565b6040805160608082018352600080835260208301529181019190915281516020808401919091206000818152600a90925260408220549091600b610e8a600184612895565b81548110610e9a57610e9a6128a8565b9060005260206000209060030201604051806060016040529081600082015481526020016001820160009054906101000a90046001600160a01b03166001600160a01b03166001600160a01b03168152602001600282018054610efc906122e7565b80601f0160208091040260200160405190810160405280929190818152602001828054610f28906122e7565b8015610f755780601f10610f4a57610100808354040283529160200191610f75565b820191906000526020600020905b815481529060010190602001808311610f5857829003601f168201915b5050505050815250509050806000015160000361058b5760405162461bcd60e51b815260206004820152601360248201527210dbdb5b5d5b9a5d1e481b9bdd08199bdd5b99606a1b604482015260640161048b565b606061035882611750565b6001600160a01b03918216600090815260056020908152604080832093909416825291909152205460ff1690565b600061100e60085490565b60075461059e9190612895565b6110248161184b565b6110405760405162461bcd60e51b815260040161048b9061284d565b50565b600081815260046020526040902080546001600160a01b0319166001600160a01b038416908117909155819061107882610a7d565b6001600160a01b03167f8c5be1e5ebec7d5bd14f71427d1e84f3dd0314c0f7b2291e5b200ac8c7c3b92560405160405180910390a45050565b6110ba81611868565b600081815260066020526040902080546110d3906122e7565b15905061104057600081815260066020526040812061104091611bec565b6000806110fd83610a7d565b9050806001600160a01b0316846001600160a01b0316148061112457506111248185610fd5565b8061058b5750836001600160a01b031661113d846103f0565b6001600160a01b031614949350505050565b826001600160a01b031661116282610a7d565b6001600160a01b0316146111885760405162461bcd60e51b815260040161048b906129b9565b6001600160a01b0382166111ea5760405162461bcd60e51b8152602060048201526024808201527f4552433732313a207472616e7366657220746f20746865207a65726f206164646044820152637265737360e01b606482015260840161048b565b6111f783838360016118f9565b826001600160a01b031661120a82610a7d565b6001600160a01b0316146112305760405162461bcd60e51b815260040161048b906129b9565b600081815260046020908152604080832080546001600160a01b03199081169091556001600160a01b038781168086526003855283862080546000190190559087168086528386208054600101905586865260029094528285208054909216841790915590518493600080516020612b9683398151915291a4505050565b61057e82826040516024016112c49291906129fe565b60408051601f198184030181529190526020810180516001600160e01b0316634b5c427760e01b179052611981565b6000763d602d80600a3d3981f3363d3d373d3d3d363d730000008260601b60e81c176000526e5af43d82803e903d91602b57fd5bf38260781b17602052603760096000f090506001600160a01b0381166113885760405162461bcd60e51b8152602060048201526016602482015275115490cc4c4d8dce8818dc99585d194819985a5b195960521b604482015260640161048b565b919050565b6060600061139a836119a2565b60010190506000816001600160401b038111156113b9576113b9611d2a565b6040519080825280601f01601f1916602001820160405280156113e3576020820181803683370190505b5090508181016020015b600019016f181899199a1a9b1b9c1cb0b131b232b360811b600a86061a8153600a85049450846113ed57509392505050565b61057e8282604051602401611435929190612a2c565b60408051601f198184030181529190526020810180516001600160e01b031663319af33360e01b179052611981565b6001600160a01b0382166114ba5760405162461bcd60e51b815260206004820181905260248201527f4552433732313a206d696e7420746f20746865207a65726f2061646472657373604482015260640161048b565b6114c38161184b565b156114e05760405162461bcd60e51b815260040161048b90612a56565b6114ee6000838360016118f9565b6114f78161184b565b156115145760405162461bcd60e51b815260040161048b90612a56565b6001600160a01b038216600081815260036020908152604080832080546001019055848352600290915280822080546001600160a01b031916841790555183929190600080516020612b96833981519152908290a45050565b6115768261184b565b6115d95760405162461bcd60e51b815260206004820152602e60248201527f45524337323155524953746f726167653a2055524920736574206f66206e6f6e60448201526d32bc34b9ba32b73a103a37b5b2b760911b606482015260840161048b565b600082815260066020526040902061052c82826126da565b61052c83838360405160240161160993929190612a8c565b60408051601f198184030181529190526020810180516001600160e01b031663ca47c4eb60e01b179052611981565b6000908152600260205260409020546001600160a01b031690565b816001600160a01b0316836001600160a01b0316036116b05760405162461bcd60e51b815260206004820152601960248201527822a9219b99189d1030b8383937bb32903a379031b0b63632b960391b604482015260640161048b565b6001600160a01b03838116600081815260056020908152604080832094871680845294825291829020805460ff191686151590811790915591519182527f17307eab39ab6107e8899845ad3d59bd9653f200f220920489ca2b5937696c31910160405180910390a3505050565b61172884848461114f565b61173484848484611a78565b610c5c5760405162461bcd60e51b815260040161048b90612ab1565b606061175b8261101b565b60008281526006602052604081208054611774906122e7565b80601f01602080910402602001604051908101604052809291908181526020018280546117a0906122e7565b80156117ed5780601f106117c2576101008083540402835291602001916117ed565b820191906000526020600020905b8154815290600101906020018083116117d057829003601f168201915b5050505050905060006117fe611b76565b90508051600003611810575092915050565b81511561184257808260405160200161182a929190612b03565b60405160208183030381529060405292505050919050565b61058b84611b85565b60008061185783611638565b6001600160a01b0316141592915050565b600061187382610a7d565b90506118838160008460016118f9565b61188c82610a7d565b600083815260046020908152604080832080546001600160a01b03199081169091556001600160a01b038516808552600384528285208054600019019055878552600290935281842080549091169055519293508492600080516020612b96833981519152908390a45050565b6001811115610c5c576001600160a01b0384161561193f576001600160a01b03841660009081526003602052604081208054839290611939908490612895565b90915550505b6001600160a01b03831615610c5c576001600160a01b03831660009081526003602052604081208054839290611976908490612b32565b909155505050505050565b80516a636f6e736f6c652e6c6f67602083016000808483855afa5050505050565b60008072184f03e93ff9f4daa797ed6e38ed64bf6a1f0160401b83106119e15772184f03e93ff9f4daa797ed6e38ed64bf6a1f0160401b830492506040015b6904ee2d6d415b85acef8160201b8310611a0b576904ee2d6d415b85acef8160201b830492506020015b662386f26fc100008310611a2957662386f26fc10000830492506010015b6305f5e1008310611a41576305f5e100830492506008015b6127108310611a5557612710830492506004015b60648310611a67576064830492506002015b600a83106103585760010192915050565b60006001600160a01b0384163b15611b6e57604051630a85bd0160e11b81526001600160a01b0385169063150b7a0290611abc903390899088908890600401612b45565b6020604051808303816000875af1925050508015611af7575060408051601f3d908101601f19168201909252611af491810190612b78565b60015b611b54573d808015611b25576040519150601f19603f3d011682016040523d82523d6000602084013e611b2a565b606091505b508051600003611b4c5760405162461bcd60e51b815260040161048b90612ab1565b805181602001fd5b6001600160e01b031916630a85bd0160e11b14905061058b565b50600161058b565b60606009805461036d906122e7565b6060611b908261101b565b6000611b9a611b76565b90506000815111611bba5760405180602001604052806000815250611be5565b80611bc48461138d565b604051602001611bd5929190612b03565b6040516020818303038152906040525b9392505050565b508054611bf8906122e7565b6000825580601f10611c08575050565b601f01602090049060005260206000209081019061104091905b80821115611c365760008155600101611c22565b5090565b6001600160e01b03198116811461104057600080fd5b600060208284031215611c6257600080fd5b8135611be581611c3a565b60005b83811015611c88578181015183820152602001611c70565b50506000910152565b60008151808452611ca9816020860160208601611c6d565b601f01601f19169290920160200192915050565b602081526000611be56020830184611c91565b600060208284031215611ce257600080fd5b5035919050565b80356001600160a01b038116811461138857600080fd5b60008060408385031215611d1357600080fd5b611d1c83611ce9565b946020939093013593505050565b634e487b7160e01b600052604160045260246000fd5b60405160c081016001600160401b0381118282101715611d6257611d62611d2a565b60405290565b604051601f8201601f191681016001600160401b0381118282101715611d9057611d90611d2a565b604052919050565b60006001600160401b03831115611db157611db1611d2a565b611dc4601f8401601f1916602001611d68565b9050828152838383011115611dd857600080fd5b828260208301376000602084830101529392505050565b60008060008060808587031215611e0557600080fd5b611e0e85611ce9565b9350611e1c60208601611ce9565b92506040850135915060608501356001600160401b03811115611e3e57600080fd5b8501601f81018713611e4f57600080fd5b611e5e87823560208401611d98565b91505092959194509250565b600080600060608486031215611e7f57600080fd5b611e8884611ce9565b9250611e9660208501611ce9565b9150604084013590509250925092565b600080600060408486031215611ebb57600080fd5b83356001600160401b0380821115611ed257600080fd5b818601915086601f830112611ee657600080fd5b813581811115611ef557600080fd5b876020828501011115611f0757600080fd5b602092830195509350908501359080821115611f2257600080fd5b5084016101008187031215611f3657600080fd5b809150509250925092565b600082601f830112611f5257600080fd5b611be583833560208501611d98565b80356002811061138857600080fd5b6004811061104057600080fd5b803561138881611f70565b600060608284031215611f9a57600080fd5b604051606081016001600160401b0381118282101715611fbc57611fbc611d2a565b6040529050808235611fcd81611f70565b8152611fdb60208401611ce9565b6020820152604083013560408201525092915050565b80356001600160801b038116811461138857600080fd5b600082601f83011261201957600080fd5b813560206001600160401b0382111561203457612034611d2a565b8160051b612043828201611d68565b928352848101820192828101908785111561205d57600080fd5b83870192505b848310156120835761207483611ff1565b82529183019190830190612063565b979650505050505050565b600080604083850312156120a157600080fd5b8235915060208301356001600160401b03808211156120bf57600080fd5b9084019061010082870312156120d457600080fd5b6120dc611d40565b8235828111156120eb57600080fd5b6120f788828601611f41565b82525061210660208401611f61565b602082015261211760408401611f7d565b60408201526121298760608501611f88565b606082015260c08301358281111561214057600080fd5b61214c88828601612008565b60808301525060e08301358281111561216457600080fd5b61217088828601611f41565b60a0830152508093505050509250929050565b60006020828403121561219557600080fd5b611be582611ce9565b600080604083850312156121b157600080fd5b6121ba83611ce9565b9150602083013580151581146121cf57600080fd5b809150509250929050565b8051825260018060a01b036020820151166020830152600060408201516060604085015261058b6060850182611c91565b6000602080830181845280855180835260408601915060408160051b870101925083870160005b8281101561226057603f1988860301845261224e8583516121da565b94509285019290850190600101612232565b5092979650505050505050565b60006020828403121561227f57600080fd5b81356001600160401b0381111561229557600080fd5b61058b84828501611f41565b602081526000611be560208301846121da565b600080604083850312156122c757600080fd5b6122d083611ce9565b91506122de60208401611ce9565b90509250929050565b600181811c908216806122fb57607f821691505b60208210810361231b57634e487b7160e01b600052602260045260246000fd5b50919050565b9182526001600160a01b0316602082015260400190565b6020808252602d908201527f4552433732313a2063616c6c6572206973206e6f7420746f6b656e206f776e6560408201526c1c881bdc88185c1c1c9bdd9959609a1b606082015260800190565b8183823760009101908152919050565b81835281816020850137506000828201602090810191909152601f909101601f19169091010190565b60208152600061058b602083018486612395565b71022a6a12920a1a2afa1a7a6a6af98171899960751b8152600082516123ff816012850160208701611c6d565b9190910160120192915050565b6d022a6a12fa1a7a6a6af98171899960951b81526000825161243581600e850160208701611c6d565b91909101600e0192915050565b6000808335601e1984360301811261245957600080fd5b83016020810192503590506001600160401b0381111561247857600080fd5b80360382131561248757600080fd5b9250929050565b634e487b7160e01b600052602160045260246000fd5b600281106124b4576124b461248e565b9052565b600481106110405761104061248e565b6000808335601e198436030181126124df57600080fd5b83016020810192503590506001600160401b038111156124fe57600080fd5b8060051b360382131561248757600080fd5b8183526000602080850194508260005b8581101561254c576001600160801b0361253983611ff1565b1687529582019590820190600101612520565b509495945050505050565b60c08152600061256a60c0830189611c91565b828103602084015261257c8189611c91565b6001600160a01b03888116604086015287811660608601526080850187905284820360a08601529091506101006125b38680612442565b8285526125c38386018284612395565b925050506125d360208701611f61565b6125e060208501826124a4565b5060408601356125ef81611f70565b6125f8816124b8565b6040840152606086013561260b81611f70565b612614816124b8565b60608401528161262660808801611ce9565b16608084015260a086013560a084015261264360c08701876124c8565b925083820360c0850152612658828483612510565b9250505061266960e0860186612442565b83830360e085015261267c838284612395565b9c9b505050505050505050505050565b601f82111561052c57600081815260208120601f850160051c810160208610156126b35750805b601f850160051c820191505b818110156126d2578281556001016126bf565b505050505050565b81516001600160401b038111156126f3576126f3611d2a565b6127078161270184546122e7565b8461268c565b602080601f83116001811461273c57600084156127245750858301515b600019600386901b1c1916600185901b1785556126d2565b600085815260208120601f198616915b8281101561276b5788860151825594840194600190910190840161274c565b50858210156127895787850151600019600388901b60f8161c191681555b5050505050600190811b01905550565b6000808335601e198436030181126127b057600080fd5b8301803591506001600160401b038211156127ca57600080fd5b60200191503681900382131561248757600080fd5b6000602082840312156127f157600080fd5b611be582611f61565b60006020828403121561280c57600080fd5b8135611be581611f70565b85815261282760208201866124a4565b612830846124b8565b836040820152608060608201526000612083608083018486612395565b602080825260189082015277115490cdcc8c4e881a5b9d985b1a59081d1bdad95b88125160421b604082015260600190565b634e487b7160e01b600052601160045260246000fd5b818103818111156103585761035861287f565b634e487b7160e01b600052603260045260246000fd5b600081518084526020808501945080840160005b8381101561254c5781516001600160801b0316875295820195908201906001016128d2565b6020815260008251610100806020850152612916610120850183611c91565b9150602085015161292a60408601826124a4565b506040850151612939816124b8565b8060608601525060608501518051612950816124b8565b60808681019190915260208201516001600160a01b031660a087015260409091015160c0860152850151848303601f1990810160e087015261299284836128be565b935060a08701519150808685030183870152506129af8382611c91565b9695505050505050565b60208082526025908201527f4552433732313a207472616e736665722066726f6d20696e636f72726563742060408201526437bbb732b960d91b606082015260800190565b604081526000612a116040830185611c91565b8281036020840152612a238185611c91565b95945050505050565b604081526000612a3f6040830185611c91565b905060018060a01b03831660208301529392505050565b6020808252601c908201527b115490cdcc8c4e881d1bdad95b88185b1c9958591e481b5a5b9d195960221b604082015260600190565b606081526000612a9f6060830186611c91565b60208301949094525060400152919050565b60208082526032908201527f4552433732313a207472616e7366657220746f206e6f6e20455243373231526560408201527131b2b4bb32b91034b6b83632b6b2b73a32b960711b606082015260800190565b60008351612b15818460208801611c6d565b835190830190612b29818360208801611c6d565b01949350505050565b808201808211156103585761035861287f565b6001600160a01b03858116825284166020820152604081018390526080606082018190526000906129af90830184611c91565b600060208284031215612b8a57600080fd5b8151611be581611c3a56feddf252ad1be2c89b69c2b068fc378daa952ba7f163c4a11628f55a4df523b3ef4372656174696e6720636f6d6d756e69747920776974682068616e646c653a202573a164736f6c6343000811000a",
  "linkReferences": {},
  "deployedLinkReferences": {}
}