{
  "_format": "hh-sol-artifact-1",
  "contractName": "AppCreations",
  "sourceName": "contracts/app/AppCreations.sol",
  "abi": [
    {
      "inputs": [
        {
          "internalType": "uint256",
          "name": "_spaceId",
          "type": "uint256"
        },
        {
          "internalType": "string",
          "name": "_name",
          "type": "string"
        },
        {
          "internalType": "string",
          "name": "_symbol",
          "type": "string"
        }
      ],
      "name": "createCollection",
      "outputs": [],
      "stateMutability": "nonpayable",
      "type": "function"
    },
    {
      "inputs": [
        {
          "internalType": "uint256",
          "name": "_spaceId",
          "type": "uint256"
        },
        {
          "internalType": "uint64",
          "name": "_index",
          "type": "uint64"
        }
      ],
      "name": "getCollection",
      "outputs": [
        {
          "components": [
            {
              "internalType": "uint64",
              "name": "index",
              "type": "uint64"
            },
            {
              "internalType": "address",
              "name": "collectionContract",
              "type": "address"
            },
            {
              "internalType": "string",
              "name": "name",
              "type": "string"
            }
          ],
          "internalType": "struct AppCreations.Collection",
          "name": "",
          "type": "tuple"
        }
      ],
      "stateMutability": "view",
      "type": "function"
    },
    {
      "inputs": [
        {
          "internalType": "uint256",
          "name": "_spaceId",
          "type": "uint256"
        }
      ],
      "name": "getCollectionCount",
      "outputs": [
        {
          "internalType": "uint64",
          "name": "",
          "type": "uint64"
        }
      ],
      "stateMutability": "view",
      "type": "function"
    },
    {
      "inputs": [
        {
          "internalType": "uint256",
          "name": "_spaceId",
          "type": "uint256"
        }
      ],
      "name": "getCollections",
      "outputs": [
        {
          "components": [
            {
              "internalType": "uint64",
              "name": "index",
              "type": "uint64"
            },
            {
              "internalType": "address",
              "name": "collectionContract",
              "type": "address"
            },
            {
              "internalType": "string",
              "name": "name",
              "type": "string"
            }
          ],
          "internalType": "struct AppCreations.Collection[]",
          "name": "",
          "type": "tuple[]"
        }
      ],
      "stateMutability": "view",
      "type": "function"
    },
    {
      "inputs": [
        {
          "internalType": "uint256",
          "name": "",
          "type": "uint256"
        },
        {
          "internalType": "uint256",
          "name": "",
          "type": "uint256"
        }
      ],
      "name": "spaceCollections",
      "outputs": [
        {
          "internalType": "uint64",
          "name": "index",
          "type": "uint64"
        },
        {
          "internalType": "address",
          "name": "collectionContract",
          "type": "address"
        },
        {
          "internalType": "string",
          "name": "name",
          "type": "string"
        }
      ],
      "stateMutability": "view",
      "type": "function"
    },
    {
      "inputs": [
        {
          "internalType": "uint256",
          "name": "",
          "type": "uint256"
        }
      ],
      "name": "spaceToCollectionCount",
      "outputs": [
        {
          "internalType": "uint64",
          "name": "",
          "type": "uint64"
        }
      ],
      "stateMutability": "view",
      "type": "function"
    }
  ],
  "bytecode": "0x608060405234801561001057600080fd5b50612d69806100206000396000f3fe60806040523480156200001157600080fd5b50600436106200007b5760003560e01c80637c19af5d11620000565780637c19af5d14620000f05780639035d9381462000137578063e39bad85146200016457600080fd5b80630d1110c814620000805780631b5b1a4614620000af57806327f9904a14620000d7575b600080fd5b620000976200009136600462000714565b6200018a565b604051620000a69190620007bc565b60405180910390f35b620000c6620000c036600462000822565b620002c1565b604051620000a69392919062000845565b620000ee620000e83660046200092d565b620003b0565b005b6200011d6200010136600462000714565b60009081526001602052604090205467ffffffffffffffff1690565b60405167ffffffffffffffff9091168152602001620000a6565b6200011d6200014836600462000714565b60016020526000908152604090205467ffffffffffffffff1681565b6200017b62000175366004620009a1565b62000543565b604051620000a69190620009e0565b600081815260208181526040808320805482518185028101850190935280835260609492939192909184015b82821015620002b65760008481526020908190206040805160608101825260028602909201805467ffffffffffffffff811684526801000000000000000090046001600160a01b031693830193909352600183018054929392918401916200021e90620009fc565b80601f01602080910402602001604051908101604052809291908181526020018280546200024c90620009fc565b80156200029d5780601f1062000271576101008083540402835291602001916200029d565b820191906000526020600020905b8154815290600101906020018083116200027f57829003601f168201915b50505050508152505081526020019060010190620001b6565b505050509050919050565b60006020528160005260406000208181548110620002de57600080fd5b60009182526020909120600290910201805460018201805467ffffffffffffffff83169550680100000000000000009092046001600160a01b03169350906200032790620009fc565b80601f01602080910402602001604051908101604052809291908181526020018280546200035590620009fc565b8015620003a65780601f106200037a57610100808354040283529160200191620003a6565b820191906000526020600020905b8154815290600101906020018083116200038857829003601f168201915b5050505050905083565b6000838383604051620003c39062000706565b620003d19392919062000a38565b604051809103906000f080158015620003ee573d6000803e3d6000fd5b50604080516060810182526000878152600160208181528483205467ffffffffffffffff90811685526001600160a01b038088168387019081528688018c81528d8752868552978620805480870182559087529390952086516002909402018054955190911668010000000000000000027fffffffff000000000000000000000000000000000000000000000000000000009095169290911691909117929092178255925193945090928392820190620004a9908262000ac4565b5050506000858152600160205260408120805467ffffffffffffffff1691620004d28362000b91565b91906101000a81548167ffffffffffffffff021916908367ffffffffffffffff160217905550506200053c6040518060400160405280601081526020017f637265617465436f6c6c656374696f6e000000000000000000000000000000008152508686856200067d565b5050505050565b604080516060808201835260008083526020830152918101919091526000838152602081905260409020805467ffffffffffffffff84169081106200058c576200058c62000bc7565b6000918252602091829020604080516060810182526002909302909101805467ffffffffffffffff811684526001600160a01b0368010000000000000000909104169383019390935260018301805492939291840191620005ed90620009fc565b80601f01602080910402602001604051908101604052809291908181526020018280546200061b90620009fc565b80156200066c5780601f1062000640576101008083540402835291602001916200066c565b820191906000526020600020905b8154815290600101906020018083116200064e57829003601f168201915b505050505081525050905092915050565b620006df848484846040516024016200069a949392919062000bdd565b60408051601f198184030181529190526020810180517bffffffffffffffffffffffffffffffffffffffffffffffffffffffff16631f118ca960e21b179052620006e5565b50505050565b80516a636f6e736f6c652e6c6f67602083016000808483855afa5050505050565b6121358062000c2883390190565b6000602082840312156200072757600080fd5b5035919050565b6000815180845260005b81811015620007565760208185018101518683018201520162000738565b506000602082860101526020601f19601f83011685010191505092915050565b67ffffffffffffffff81511682526001600160a01b0360208201511660208301526000604082015160606040850152620007b460608501826200072e565b949350505050565b6000602080830181845280855180835260408601915060408160051b870101925083870160005b828110156200081557603f198886030184526200080285835162000776565b94509285019290850190600101620007e3565b5092979650505050505050565b600080604083850312156200083657600080fd5b50508035926020909101359150565b67ffffffffffffffff841681526001600160a01b03831660208201526060604082015260006200087960608301846200072e565b95945050505050565b634e487b7160e01b600052604160045260246000fd5b600082601f830112620008aa57600080fd5b813567ffffffffffffffff80821115620008c857620008c862000882565b604051601f8301601f19908116603f01168101908282118183101715620008f357620008f362000882565b816040528381528660208588010111156200090d57600080fd5b836020870160208301376000602085830101528094505050505092915050565b6000806000606084860312156200094357600080fd5b83359250602084013567ffffffffffffffff808211156200096357600080fd5b620009718783880162000898565b935060408601359150808211156200098857600080fd5b50620009978682870162000898565b9150509250925092565b60008060408385031215620009b557600080fd5b82359150602083013567ffffffffffffffff81168114620009d557600080fd5b809150509250929050565b602081526000620009f5602083018462000776565b9392505050565b600181811c9082168062000a1157607f821691505b60208210810362000a3257634e487b7160e01b600052602260045260246000fd5b50919050565b83815260606020820152600062000a5360608301856200072e565b828103604084015262000a6781856200072e565b9695505050505050565b601f82111562000abf57600081815260208120601f850160051c8101602086101562000a9a5750805b601f850160051c820191505b8181101562000abb5782815560010162000aa6565b5050505b505050565b815167ffffffffffffffff81111562000ae15762000ae162000882565b62000af98162000af28454620009fc565b8462000a71565b602080601f83116001811462000b31576000841562000b185750858301515b600019600386901b1c1916600185901b17855562000abb565b600085815260208120601f198616915b8281101562000b625788860151825594840194600190910190840162000b41565b508582101562000b815787850151600019600388901b60f8161c191681555b5050505050600190811b01905550565b600067ffffffffffffffff80831681810362000bbd57634e487b7160e01b600052601160045260246000fd5b6001019392505050565b634e487b7160e01b600052603260045260246000fd5b60808152600062000bf260808301876200072e565b856020840152828103604084015262000c0c81866200072e565b9150506001600160a01b03831660608301529594505050505056fe60806040523480156200001157600080fd5b506040516200213538038062002135833981016040819052620000349162000164565b8181600062000044838262000267565b50600162000053828262000267565b505050600c839055604080518082019091526007815266697066733a2f2f60c81b602082015262000084906200008d565b50505062000333565b600d6200009b828262000267565b5050565b634e487b7160e01b600052604160045260246000fd5b600082601f830112620000c757600080fd5b81516001600160401b0380821115620000e457620000e46200009f565b604051601f8301601f19908116603f011681019082821181831017156200010f576200010f6200009f565b816040528381526020925086838588010111156200012c57600080fd5b600091505b8382101562000150578582018301518183018401529082019062000131565b600093810190920192909252949350505050565b6000806000606084860312156200017a57600080fd5b835160208501519093506001600160401b03808211156200019a57600080fd5b620001a887838801620000b5565b93506040860151915080821115620001bf57600080fd5b50620001ce86828701620000b5565b9150509250925092565b600181811c90821680620001ed57607f821691505b6020821081036200020e57634e487b7160e01b600052602260045260246000fd5b50919050565b601f8211156200026257600081815260208120601f850160051c810160208610156200023d5750805b601f850160051c820191505b818110156200025e5782815560010162000249565b5050505b505050565b81516001600160401b038111156200028357620002836200009f565b6200029b81620002948454620001d8565b8462000214565b602080601f831160018114620002d35760008415620002ba5750858301515b600019600386901b1c1916600185901b1785556200025e565b600085815260208120601f198616915b828110156200030457888601518255948401946001909101908401620002e3565b5085821015620003235787850151600019600388901b60f8161c191681555b5050505050600190811b01905550565b611df280620003436000396000f3fe608060405234801561001057600080fd5b50600436106101365760003560e01c80634f6ccce7116100b2578063a22cb46511610081578063c87b56dd11610066578063c87b56dd1461027f578063d85d3d2714610292578063e985e9c5146102a557600080fd5b8063a22cb46514610259578063b88d4fde1461026c57600080fd5b80634f6ccce7146102185780636352211e1461022b57806370a082311461023e57806395d89b411461025157600080fd5b806318160ddd116101095780632a5c792a116100ee5780632a5c792a146101dd5780632f745c59146101f257806342842e0e1461020557600080fd5b806318160ddd146101b857806323b872dd146101ca57600080fd5b806301ffc9a71461013b57806306fdde0314610163578063081812fc14610178578063095ea7b3146101a3575b600080fd5b61014e610149366004611860565b6102e1565b60405190151581526020015b60405180910390f35b61016b6102f2565b60405161015a91906118cd565b61018b6101863660046118e0565b610384565b6040516001600160a01b03909116815260200161015a565b6101b66101b1366004611915565b6103ab565b005b6008545b60405190815260200161015a565b6101b66101d836600461193f565b6104c5565b6101e561053c565b60405161015a919061197b565b6101bc610200366004611915565b6105d8565b6101b661021336600461193f565b610680565b6101bc6102263660046118e0565b61069b565b61018b6102393660046118e0565b61073f565b6101bc61024c3660046119bf565b6107a4565b61016b61083e565b6101b66102673660046119da565b61084d565b6101b661027a366004611aa2565b61085c565b61016b61028d3660046118e0565b6108da565b6101b66102a0366004611b1e565b6108e5565b61014e6102b3366004611b67565b6001600160a01b03918216600090815260056020908152604080832093909416825291909152205460ff1690565b60006102ec8261091b565b92915050565b60606000805461030190611b9a565b80601f016020809104026020016040519081016040528092919081815260200182805461032d90611b9a565b801561037a5780601f1061034f5761010080835404028352916020019161037a565b820191906000526020600020905b81548152906001019060200180831161035d57829003601f168201915b5050505050905090565b600061038f82610940565b506000908152600460205260409020546001600160a01b031690565b60006103b68261073f565b9050806001600160a01b0316836001600160a01b0316036104285760405162461bcd60e51b815260206004820152602160248201527f4552433732313a20617070726f76616c20746f2063757272656e74206f776e656044820152603960f91b60648201526084015b60405180910390fd5b336001600160a01b0382161480610444575061044481336102b3565b6104b65760405162461bcd60e51b815260206004820152603d60248201527f4552433732313a20617070726f76652063616c6c6572206973206e6f7420746f60448201527f6b656e206f776e6572206f7220617070726f76656420666f7220616c6c000000606482015260840161041f565b6104c083836109a7565b505050565b6104cf3382610a22565b6105315760405162461bcd60e51b815260206004820152602d60248201527f4552433732313a2063616c6c6572206973206e6f7420746f6b656e206f776e6560448201526c1c881bdc88185c1c1c9bdd9959609a1b606482015260840161041f565b6104c0838383610aa1565b6060600061054960085490565b67ffffffffffffffff81111561056157610561611a16565b60405190808252806020026020018201604052801561058a578160200160208202803683370190505b50905060005b6008548110156105d2576105a38161069b565b8282815181106105b5576105b5611bce565b6020908102919091010152806105ca81611bfa565b915050610590565b50919050565b60006105e3836107a4565b82106106575760405162461bcd60e51b815260206004820152602b60248201527f455243373231456e756d657261626c653a206f776e657220696e646578206f7560448201527f74206f6620626f756e6473000000000000000000000000000000000000000000606482015260840161041f565b506001600160a01b03919091166000908152600660209081526040808320938352929052205490565b6104c08383836040518060200160405280600081525061085c565b60006106a660085490565b821061071a5760405162461bcd60e51b815260206004820152602c60248201527f455243373231456e756d657261626c653a20676c6f62616c20696e646578206f60448201527f7574206f6620626f756e64730000000000000000000000000000000000000000606482015260840161041f565b6008828154811061072d5761072d611bce565b90600052602060002001549050919050565b6000818152600260205260408120546001600160a01b0316806102ec5760405162461bcd60e51b815260206004820152601860248201527f4552433732313a20696e76616c696420746f6b656e2049440000000000000000604482015260640161041f565b60006001600160a01b0382166108225760405162461bcd60e51b815260206004820152602960248201527f4552433732313a2061646472657373207a65726f206973206e6f74206120766160448201527f6c6964206f776e65720000000000000000000000000000000000000000000000606482015260840161041f565b506001600160a01b031660009081526003602052604090205490565b60606001805461030190611b9a565b610858338383610c9b565b5050565b6108663383610a22565b6108c85760405162461bcd60e51b815260206004820152602d60248201527f4552433732313a2063616c6c6572206973206e6f7420746f6b656e206f776e6560448201526c1c881bdc88185c1c1c9bdd9959609a1b606482015260840161041f565b6108d484848484610d69565b50505050565b60606102ec82610df2565b6108f3600b80546001019055565b60006108fe600b5490565b905061090a3382610eed565b815115610858576108588183610ef7565b60006001600160e01b0319821663780e9d6360e01b14806102ec57506102ec82610f99565b6000818152600260205260409020546001600160a01b03166109a45760405162461bcd60e51b815260206004820152601860248201527f4552433732313a20696e76616c696420746f6b656e2049440000000000000000604482015260640161041f565b50565b6000818152600460205260409020805473ffffffffffffffffffffffffffffffffffffffff19166001600160a01b03841690811790915581906109e98261073f565b6001600160a01b03167f8c5be1e5ebec7d5bd14f71427d1e84f3dd0314c0f7b2291e5b200ac8c7c3b92560405160405180910390a45050565b600080610a2e8361073f565b9050806001600160a01b0316846001600160a01b03161480610a7557506001600160a01b0380821660009081526005602090815260408083209388168352929052205460ff165b80610a995750836001600160a01b0316610a8e84610384565b6001600160a01b0316145b949350505050565b826001600160a01b0316610ab48261073f565b6001600160a01b031614610b185760405162461bcd60e51b815260206004820152602560248201527f4552433732313a207472616e736665722066726f6d20696e636f72726563742060448201526437bbb732b960d91b606482015260840161041f565b6001600160a01b038216610b7a5760405162461bcd60e51b8152602060048201526024808201527f4552433732313a207472616e7366657220746f20746865207a65726f206164646044820152637265737360e01b606482015260840161041f565b610b878383836001610fe9565b826001600160a01b0316610b9a8261073f565b6001600160a01b031614610bfe5760405162461bcd60e51b815260206004820152602560248201527f4552433732313a207472616e736665722066726f6d20696e636f72726563742060448201526437bbb732b960d91b606482015260840161041f565b6000818152600460209081526040808320805473ffffffffffffffffffffffffffffffffffffffff199081169091556001600160a01b0387811680865260038552838620805460001901905590871680865283862080546001019055868652600290945282852080549092168417909155905184937fddf252ad1be2c89b69c2b068fc378daa952ba7f163c4a11628f55a4df523b3ef91a4505050565b816001600160a01b0316836001600160a01b031603610cfc5760405162461bcd60e51b815260206004820152601960248201527f4552433732313a20617070726f766520746f2063616c6c657200000000000000604482015260640161041f565b6001600160a01b03838116600081815260056020908152604080832094871680845294825291829020805460ff191686151590811790915591519182527f17307eab39ab6107e8899845ad3d59bd9653f200f220920489ca2b5937696c31910160405180910390a3505050565b610d74848484610aa1565b610d8084848484610ff5565b6108d45760405162461bcd60e51b815260206004820152603260248201527f4552433732313a207472616e7366657220746f206e6f6e20455243373231526560448201527f63656976657220696d706c656d656e7465720000000000000000000000000000606482015260840161041f565b6060610dfd82610940565b6000828152600a602052604081208054610e1690611b9a565b80601f0160208091040260200160405190810160405280929190818152602001828054610e4290611b9a565b8015610e8f5780601f10610e6457610100808354040283529160200191610e8f565b820191906000526020600020905b815481529060010190602001808311610e7257829003601f168201915b505050505090506000610ea061114c565b90508051600003610eb2575092915050565b815115610ee4578082604051602001610ecc929190611c13565b60405160208183030381529060405292505050919050565b610a998461115b565b61085882826111c2565b6000828152600260205260409020546001600160a01b0316610f815760405162461bcd60e51b815260206004820152602e60248201527f45524337323155524953746f726167653a2055524920736574206f66206e6f6e60448201527f6578697374656e7420746f6b656e000000000000000000000000000000000000606482015260840161041f565b6000828152600a602052604090206104c08282611c90565b60006001600160e01b031982166380ac58cd60e01b1480610fca57506001600160e01b03198216635b5e139f60e01b145b806102ec57506301ffc9a760e01b6001600160e01b03198316146102ec565b6108d484848484611368565b60006001600160a01b0384163b1561114157604051630a85bd0160e11b81526001600160a01b0385169063150b7a0290611039903390899088908890600401611d50565b6020604051808303816000875af1925050508015611074575060408051601f3d908101601f1916820190925261107191810190611d8c565b60015b611127573d8080156110a2576040519150601f19603f3d011682016040523d82523d6000602084013e6110a7565b606091505b50805160000361111f5760405162461bcd60e51b815260206004820152603260248201527f4552433732313a207472616e7366657220746f206e6f6e20455243373231526560448201527f63656976657220696d706c656d656e7465720000000000000000000000000000606482015260840161041f565b805181602001fd5b6001600160e01b031916630a85bd0160e11b149050610a99565b506001949350505050565b6060600d805461030190611b9a565b606061116682610940565b600061117061114c565b9050600081511161119057604051806020016040528060008152506111bb565b8061119a846114b0565b6040516020016111ab929190611c13565b6040516020818303038152906040525b9392505050565b6001600160a01b0382166112185760405162461bcd60e51b815260206004820181905260248201527f4552433732313a206d696e7420746f20746865207a65726f2061646472657373604482015260640161041f565b6000818152600260205260409020546001600160a01b03161561127d5760405162461bcd60e51b815260206004820152601c60248201527f4552433732313a20746f6b656e20616c7265616479206d696e74656400000000604482015260640161041f565b61128b600083836001610fe9565b6000818152600260205260409020546001600160a01b0316156112f05760405162461bcd60e51b815260206004820152601c60248201527f4552433732313a20746f6b656e20616c7265616479206d696e74656400000000604482015260640161041f565b6001600160a01b0382166000818152600360209081526040808320805460010190558483526002909152808220805473ffffffffffffffffffffffffffffffffffffffff19168417905551839291907fddf252ad1be2c89b69c2b068fc378daa952ba7f163c4a11628f55a4df523b3ef908290a45050565b61137484848484611550565b60018111156113eb5760405162461bcd60e51b815260206004820152603560248201527f455243373231456e756d657261626c653a20636f6e736563757469766520747260448201527f616e7366657273206e6f7420737570706f727465640000000000000000000000606482015260840161041f565b816001600160a01b0385166114475761144281600880546000838152600960205260408120829055600182018355919091527ff3f7a9fe364faab93b216da50a3214154f22a0a2b415b23a84c8169e8b636ee30155565b61146a565b836001600160a01b0316856001600160a01b03161461146a5761146a85826115d8565b6001600160a01b0384166114865761148181611675565b6114a9565b846001600160a01b0316846001600160a01b0316146114a9576114a98482611724565b5050505050565b606060006114bd83611768565b600101905060008167ffffffffffffffff8111156114dd576114dd611a16565b6040519080825280601f01601f191660200182016040528015611507576020820181803683370190505b5090508181016020015b600019017f3031323334353637383961626364656600000000000000000000000000000000600a86061a8153600a850494508461151157509392505050565b60018111156108d4576001600160a01b03841615611596576001600160a01b03841660009081526003602052604081208054839290611590908490611da9565b90915550505b6001600160a01b038316156108d4576001600160a01b038316600090815260036020526040812080548392906115cd908490611dbc565b909155505050505050565b600060016115e5846107a4565b6115ef9190611da9565b600083815260076020526040902054909150808214611642576001600160a01b03841660009081526006602090815260408083208584528252808320548484528184208190558352600790915290208190555b5060009182526007602090815260408084208490556001600160a01b039094168352600681528383209183525290812055565b60085460009061168790600190611da9565b600083815260096020526040812054600880549394509092849081106116af576116af611bce565b9060005260206000200154905080600883815481106116d0576116d0611bce565b600091825260208083209091019290925582815260099091526040808220849055858252812055600880548061170857611708611dcf565b6001900381819060005260206000200160009055905550505050565b600061172f836107a4565b6001600160a01b039093166000908152600660209081526040808320868452825280832085905593825260079052919091209190915550565b6000807a184f03e93ff9f4daa797ed6e38ed64bf6a1f01000000000000000083106117b1577a184f03e93ff9f4daa797ed6e38ed64bf6a1f010000000000000000830492506040015b6d04ee2d6d415b85acef810000000083106117dd576d04ee2d6d415b85acef8100000000830492506020015b662386f26fc1000083106117fb57662386f26fc10000830492506010015b6305f5e1008310611813576305f5e100830492506008015b612710831061182757612710830492506004015b60648310611839576064830492506002015b600a83106102ec5760010192915050565b6001600160e01b0319811681146109a457600080fd5b60006020828403121561187257600080fd5b81356111bb8161184a565b60005b83811015611898578181015183820152602001611880565b50506000910152565b600081518084526118b981602086016020860161187d565b601f01601f19169290920160200192915050565b6020815260006111bb60208301846118a1565b6000602082840312156118f257600080fd5b5035919050565b80356001600160a01b038116811461191057600080fd5b919050565b6000806040838503121561192857600080fd5b611931836118f9565b946020939093013593505050565b60008060006060848603121561195457600080fd5b61195d846118f9565b925061196b602085016118f9565b9150604084013590509250925092565b6020808252825182820181905260009190848201906040850190845b818110156119b357835183529284019291840191600101611997565b50909695505050505050565b6000602082840312156119d157600080fd5b6111bb826118f9565b600080604083850312156119ed57600080fd5b6119f6836118f9565b915060208301358015158114611a0b57600080fd5b809150509250929050565b634e487b7160e01b600052604160045260246000fd5b600067ffffffffffffffff80841115611a4757611a47611a16565b604051601f8501601f19908116603f01168101908282118183101715611a6f57611a6f611a16565b81604052809350858152868686011115611a8857600080fd5b858560208301376000602087830101525050509392505050565b60008060008060808587031215611ab857600080fd5b611ac1856118f9565b9350611acf602086016118f9565b925060408501359150606085013567ffffffffffffffff811115611af257600080fd5b8501601f81018713611b0357600080fd5b611b1287823560208401611a2c565b91505092959194509250565b600060208284031215611b3057600080fd5b813567ffffffffffffffff811115611b4757600080fd5b8201601f81018413611b5857600080fd5b610a9984823560208401611a2c565b60008060408385031215611b7a57600080fd5b611b83836118f9565b9150611b91602084016118f9565b90509250929050565b600181811c90821680611bae57607f821691505b6020821081036105d257634e487b7160e01b600052602260045260246000fd5b634e487b7160e01b600052603260045260246000fd5b634e487b7160e01b600052601160045260246000fd5b600060018201611c0c57611c0c611be4565b5060010190565b60008351611c2581846020880161187d565b835190830190611c3981836020880161187d565b01949350505050565b601f8211156104c057600081815260208120601f850160051c81016020861015611c695750805b601f850160051c820191505b81811015611c8857828155600101611c75565b505050505050565b815167ffffffffffffffff811115611caa57611caa611a16565b611cbe81611cb88454611b9a565b84611c42565b602080601f831160018114611cf35760008415611cdb5750858301515b600019600386901b1c1916600185901b178555611c88565b600085815260208120601f198616915b82811015611d2257888601518255948401946001909101908401611d03565b5085821015611d405787850151600019600388901b60f8161c191681555b5050505050600190811b01905550565b60006001600160a01b03808716835280861660208401525083604083015260806060830152611d8260808301846118a1565b9695505050505050565b600060208284031215611d9e57600080fd5b81516111bb8161184a565b818103818111156102ec576102ec611be4565b808201808211156102ec576102ec611be4565b634e487b7160e01b600052603160045260246000fdfea164736f6c6343000811000aa164736f6c6343000811000a",
  "linkReferences": {},
  "deployedLinkReferences": {}
}