{
  "_format": "hh-sol-artifact-1",
  "contractName": "AppCreationsCollection",
  "sourceName": "contracts/app/AppCreationsCollection.sol",
  "abi": [
    {
      "inputs": [
        {
          "internalType": "uint256",
          "name": "_spaceId",
          "type": "uint256"
        },
        {
          "internalType": "string",
          "name": "_name",
          "type": "string"
        },
        {
          "internalType": "string",
          "name": "_symbol",
          "type": "string"
        }
      ],
      "stateMutability": "nonpayable",
      "type": "constructor"
    },
    {
      "anonymous": false,
      "inputs": [
        {
          "indexed": true,
          "internalType": "address",
          "name": "owner",
          "type": "address"
        },
        {
          "indexed": true,
          "internalType": "address",
          "name": "approved",
          "type": "address"
        },
        {
          "indexed": true,
          "internalType": "uint256",
          "name": "tokenId",
          "type": "uint256"
        }
      ],
      "name": "Approval",
      "type": "event"
    },
    {
      "anonymous": false,
      "inputs": [
        {
          "indexed": true,
          "internalType": "address",
          "name": "owner",
          "type": "address"
        },
        {
          "indexed": true,
          "internalType": "address",
          "name": "operator",
          "type": "address"
        },
        {
          "indexed": false,
          "internalType": "bool",
          "name": "approved",
          "type": "bool"
        }
      ],
      "name": "ApprovalForAll",
      "type": "event"
    },
    {
      "anonymous": false,
      "inputs": [
        {
          "indexed": true,
          "internalType": "address",
          "name": "from",
          "type": "address"
        },
        {
          "indexed": true,
          "internalType": "address",
          "name": "to",
          "type": "address"
        },
        {
          "indexed": true,
          "internalType": "uint256",
          "name": "tokenId",
          "type": "uint256"
        }
      ],
      "name": "Transfer",
      "type": "event"
    },
    {
      "inputs": [
        {
          "internalType": "address",
          "name": "to",
          "type": "address"
        },
        {
          "internalType": "uint256",
          "name": "tokenId",
          "type": "uint256"
        }
      ],
      "name": "approve",
      "outputs": [],
      "stateMutability": "nonpayable",
      "type": "function"
    },
    {
      "inputs": [
        {
          "internalType": "address",
          "name": "owner",
          "type": "address"
        }
      ],
      "name": "balanceOf",
      "outputs": [
        {
          "internalType": "uint256",
          "name": "",
          "type": "uint256"
        }
      ],
      "stateMutability": "view",
      "type": "function"
    },
    {
      "inputs": [],
      "name": "getAllTokens",
      "outputs": [
        {
          "internalType": "uint256[]",
          "name": "",
          "type": "uint256[]"
        }
      ],
      "stateMutability": "view",
      "type": "function"
    },
    {
      "inputs": [],
      "name": "getAllTokensData",
      "outputs": [
        {
          "components": [
            {
              "internalType": "uint256",
              "name": "tokenId",
              "type": "uint256"
            },
            {
              "internalType": "string",
              "name": "tokenURI",
              "type": "string"
            },
            {
              "internalType": "address",
              "name": "owner",
              "type": "address"
            }
          ],
          "internalType": "struct AppCreationsCollection.TokenData[]",
          "name": "",
          "type": "tuple[]"
        }
      ],
      "stateMutability": "view",
      "type": "function"
    },
    {
      "inputs": [
        {
          "internalType": "uint256",
          "name": "tokenId",
          "type": "uint256"
        }
      ],
      "name": "getApproved",
      "outputs": [
        {
          "internalType": "address",
          "name": "",
          "type": "address"
        }
      ],
      "stateMutability": "view",
      "type": "function"
    },
    {
      "inputs": [
        {
          "internalType": "address",
          "name": "owner",
          "type": "address"
        },
        {
          "internalType": "address",
          "name": "operator",
          "type": "address"
        }
      ],
      "name": "isApprovedForAll",
      "outputs": [
        {
          "internalType": "bool",
          "name": "",
          "type": "bool"
        }
      ],
      "stateMutability": "view",
      "type": "function"
    },
    {
      "inputs": [
        {
          "internalType": "string",
          "name": "_tokenURI",
          "type": "string"
        }
      ],
      "name": "mint",
      "outputs": [],
      "stateMutability": "nonpayable",
      "type": "function"
    },
    {
      "inputs": [],
      "name": "name",
      "outputs": [
        {
          "internalType": "string",
          "name": "",
          "type": "string"
        }
      ],
      "stateMutability": "view",
      "type": "function"
    },
    {
      "inputs": [
        {
          "internalType": "uint256",
          "name": "tokenId",
          "type": "uint256"
        }
      ],
      "name": "ownerOf",
      "outputs": [
        {
          "internalType": "address",
          "name": "",
          "type": "address"
        }
      ],
      "stateMutability": "view",
      "type": "function"
    },
    {
      "inputs": [
        {
          "internalType": "address",
          "name": "from",
          "type": "address"
        },
        {
          "internalType": "address",
          "name": "to",
          "type": "address"
        },
        {
          "internalType": "uint256",
          "name": "tokenId",
          "type": "uint256"
        }
      ],
      "name": "safeTransferFrom",
      "outputs": [],
      "stateMutability": "nonpayable",
      "type": "function"
    },
    {
      "inputs": [
        {
          "internalType": "address",
          "name": "from",
          "type": "address"
        },
        {
          "internalType": "address",
          "name": "to",
          "type": "address"
        },
        {
          "internalType": "uint256",
          "name": "tokenId",
          "type": "uint256"
        },
        {
          "internalType": "bytes",
          "name": "data",
          "type": "bytes"
        }
      ],
      "name": "safeTransferFrom",
      "outputs": [],
      "stateMutability": "nonpayable",
      "type": "function"
    },
    {
      "inputs": [
        {
          "internalType": "address",
          "name": "operator",
          "type": "address"
        },
        {
          "internalType": "bool",
          "name": "approved",
          "type": "bool"
        }
      ],
      "name": "setApprovalForAll",
      "outputs": [],
      "stateMutability": "nonpayable",
      "type": "function"
    },
    {
      "inputs": [
        {
          "internalType": "bytes4",
          "name": "interfaceId",
          "type": "bytes4"
        }
      ],
      "name": "supportsInterface",
      "outputs": [
        {
          "internalType": "bool",
          "name": "",
          "type": "bool"
        }
      ],
      "stateMutability": "view",
      "type": "function"
    },
    {
      "inputs": [],
      "name": "symbol",
      "outputs": [
        {
          "internalType": "string",
          "name": "",
          "type": "string"
        }
      ],
      "stateMutability": "view",
      "type": "function"
    },
    {
      "inputs": [
        {
          "internalType": "uint256",
          "name": "index",
          "type": "uint256"
        }
      ],
      "name": "tokenByIndex",
      "outputs": [
        {
          "internalType": "uint256",
          "name": "",
          "type": "uint256"
        }
      ],
      "stateMutability": "view",
      "type": "function"
    },
    {
      "inputs": [
        {
          "internalType": "address",
          "name": "owner",
          "type": "address"
        },
        {
          "internalType": "uint256",
          "name": "index",
          "type": "uint256"
        }
      ],
      "name": "tokenOfOwnerByIndex",
      "outputs": [
        {
          "internalType": "uint256",
          "name": "",
          "type": "uint256"
        }
      ],
      "stateMutability": "view",
      "type": "function"
    },
    {
      "inputs": [
        {
          "internalType": "uint256",
          "name": "tokenId",
          "type": "uint256"
        }
      ],
      "name": "tokenURI",
      "outputs": [
        {
          "internalType": "string",
          "name": "",
          "type": "string"
        }
      ],
      "stateMutability": "view",
      "type": "function"
    },
    {
      "inputs": [],
      "name": "totalSupply",
      "outputs": [
        {
          "internalType": "uint256",
          "name": "",
          "type": "uint256"
        }
      ],
      "stateMutability": "view",
      "type": "function"
    },
    {
      "inputs": [
        {
          "internalType": "address",
          "name": "from",
          "type": "address"
        },
        {
          "internalType": "address",
          "name": "to",
          "type": "address"
        },
        {
          "internalType": "uint256",
          "name": "tokenId",
          "type": "uint256"
        }
      ],
      "name": "transferFrom",
      "outputs": [],
      "stateMutability": "nonpayable",
      "type": "function"
    }
  ],
  "bytecode": "0x60806040523480156200001157600080fd5b50604051620022f4380380620022f4833981016040819052620000349162000164565b8181600062000044838262000267565b50600162000053828262000267565b505050600c839055604080518082019091526007815266697066733a2f2f60c81b602082015262000084906200008d565b50505062000333565b600d6200009b828262000267565b5050565b634e487b7160e01b600052604160045260246000fd5b600082601f830112620000c757600080fd5b81516001600160401b0380821115620000e457620000e46200009f565b604051601f8301601f19908116603f011681019082821181831017156200010f576200010f6200009f565b816040528381526020925086838588010111156200012c57600080fd5b600091505b8382101562000150578582018301518183018401529082019062000131565b600093810190920192909252949350505050565b6000806000606084860312156200017a57600080fd5b835160208501519093506001600160401b03808211156200019a57600080fd5b620001a887838801620000b5565b93506040860151915080821115620001bf57600080fd5b50620001ce86828701620000b5565b9150509250925092565b600181811c90821680620001ed57607f821691505b6020821081036200020e57634e487b7160e01b600052602260045260246000fd5b50919050565b601f8211156200026257600081815260208120601f850160051c810160208610156200023d5750805b601f850160051c820191505b818110156200025e5782815560010162000249565b5050505b505050565b81516001600160401b038111156200028357620002836200009f565b6200029b81620002948454620001d8565b8462000214565b602080601f831160018114620002d35760008415620002ba5750858301515b600019600386901b1c1916600185901b1785556200025e565b600085815260208120601f198616915b828110156200030457888601518255948401946001909101908401620002e3565b5085821015620003235787850151600019600388901b60f8161c191681555b5050505050600190811b01905550565b611fb180620003436000396000f3fe608060405234801561001057600080fd5b50600436106101515760003560e01c80634f6ccce7116100cd578063b88d4fde11610081578063cd1404ca11610066578063cd1404ca146102ad578063d85d3d27146102c2578063e985e9c5146102d557600080fd5b8063b88d4fde14610287578063c87b56dd1461029a57600080fd5b806370a08231116100b257806370a082311461025957806395d89b411461026c578063a22cb4651461027457600080fd5b80634f6ccce7146102335780636352211e1461024657600080fd5b806318160ddd116101245780632a5c792a116101095780632a5c792a146101f85780632f745c591461020d57806342842e0e1461022057600080fd5b806318160ddd146101d357806323b872dd146101e557600080fd5b806301ffc9a71461015657806306fdde031461017e578063081812fc14610193578063095ea7b3146101be575b600080fd5b610169610164366004611995565b610311565b60405190151581526020015b60405180910390f35b610186610322565b6040516101759190611a02565b6101a66101a1366004611a15565b6103b4565b6040516001600160a01b039091168152602001610175565b6101d16101cc366004611a4a565b6103db565b005b6008545b604051908152602001610175565b6101d16101f3366004611a74565b6104f5565b61020061056c565b6040516101759190611ab0565b6101d761021b366004611a4a565b610608565b6101d161022e366004611a74565b6106b0565b6101d7610241366004611a15565b6106cb565b6101a6610254366004611a15565b61076f565b6101d7610267366004611af4565b6107d4565b61018661086e565b6101d1610282366004611b0f565b61087d565b6101d1610295366004611bd7565b61088c565b6101866102a8366004611a15565b61090a565b6102b5610915565b6040516101759190611c53565b6101d16102d0366004611cdd565b610a1a565b6101696102e3366004611d26565b6001600160a01b03918216600090815260056020908152604080832093909416825291909152205460ff1690565b600061031c82610a50565b92915050565b60606000805461033190611d59565b80601f016020809104026020016040519081016040528092919081815260200182805461035d90611d59565b80156103aa5780601f1061037f576101008083540402835291602001916103aa565b820191906000526020600020905b81548152906001019060200180831161038d57829003601f168201915b5050505050905090565b60006103bf82610a75565b506000908152600460205260409020546001600160a01b031690565b60006103e68261076f565b9050806001600160a01b0316836001600160a01b0316036104585760405162461bcd60e51b815260206004820152602160248201527f4552433732313a20617070726f76616c20746f2063757272656e74206f776e656044820152603960f91b60648201526084015b60405180910390fd5b336001600160a01b0382161480610474575061047481336102e3565b6104e65760405162461bcd60e51b815260206004820152603d60248201527f4552433732313a20617070726f76652063616c6c6572206973206e6f7420746f60448201527f6b656e206f776e6572206f7220617070726f76656420666f7220616c6c000000606482015260840161044f565b6104f08383610adc565b505050565b6104ff3382610b57565b6105615760405162461bcd60e51b815260206004820152602d60248201527f4552433732313a2063616c6c6572206973206e6f7420746f6b656e206f776e6560448201526c1c881bdc88185c1c1c9bdd9959609a1b606482015260840161044f565b6104f0838383610bd6565b6060600061057960085490565b67ffffffffffffffff81111561059157610591611b4b565b6040519080825280602002602001820160405280156105ba578160200160208202803683370190505b50905060005b600854811015610602576105d3816106cb565b8282815181106105e5576105e5611d8d565b6020908102919091010152806105fa81611db9565b9150506105c0565b50919050565b6000610613836107d4565b82106106875760405162461bcd60e51b815260206004820152602b60248201527f455243373231456e756d657261626c653a206f776e657220696e646578206f7560448201527f74206f6620626f756e6473000000000000000000000000000000000000000000606482015260840161044f565b506001600160a01b03919091166000908152600660209081526040808320938352929052205490565b6104f08383836040518060200160405280600081525061088c565b60006106d660085490565b821061074a5760405162461bcd60e51b815260206004820152602c60248201527f455243373231456e756d657261626c653a20676c6f62616c20696e646578206f60448201527f7574206f6620626f756e64730000000000000000000000000000000000000000606482015260840161044f565b6008828154811061075d5761075d611d8d565b90600052602060002001549050919050565b6000818152600260205260408120546001600160a01b03168061031c5760405162461bcd60e51b815260206004820152601860248201527f4552433732313a20696e76616c696420746f6b656e2049440000000000000000604482015260640161044f565b60006001600160a01b0382166108525760405162461bcd60e51b815260206004820152602960248201527f4552433732313a2061646472657373207a65726f206973206e6f74206120766160448201527f6c6964206f776e65720000000000000000000000000000000000000000000000606482015260840161044f565b506001600160a01b031660009081526003602052604090205490565b60606001805461033190611d59565b610888338383610dd0565b5050565b6108963383610b57565b6108f85760405162461bcd60e51b815260206004820152602d60248201527f4552433732313a2063616c6c6572206973206e6f7420746f6b656e206f776e6560448201526c1c881bdc88185c1c1c9bdd9959609a1b606482015260840161044f565b61090484848484610e9e565b50505050565b606061031c82610f27565b6060600061092260085490565b67ffffffffffffffff81111561093a5761093a611b4b565b60405190808252806020026020018201604052801561099857816020015b6109856040518060600160405280600081526020016060815260200160006001600160a01b031681525090565b8152602001906001900390816109585790505b50905060005b6008548110156106025760405180606001604052806109bc836106cb565b81526020016109cd6102a8846106cb565b81526020016109de610254846106cb565b6001600160a01b03168152508282815181106109fc576109fc611d8d565b60200260200101819052508080610a1290611db9565b91505061099e565b610a28600b80546001019055565b6000610a33600b5490565b9050610a3f3382611022565b81511561088857610888818361102c565b60006001600160e01b0319821663780e9d6360e01b148061031c575061031c826110ce565b6000818152600260205260409020546001600160a01b0316610ad95760405162461bcd60e51b815260206004820152601860248201527f4552433732313a20696e76616c696420746f6b656e2049440000000000000000604482015260640161044f565b50565b6000818152600460205260409020805473ffffffffffffffffffffffffffffffffffffffff19166001600160a01b0384169081179091558190610b1e8261076f565b6001600160a01b03167f8c5be1e5ebec7d5bd14f71427d1e84f3dd0314c0f7b2291e5b200ac8c7c3b92560405160405180910390a45050565b600080610b638361076f565b9050806001600160a01b0316846001600160a01b03161480610baa57506001600160a01b0380821660009081526005602090815260408083209388168352929052205460ff165b80610bce5750836001600160a01b0316610bc3846103b4565b6001600160a01b0316145b949350505050565b826001600160a01b0316610be98261076f565b6001600160a01b031614610c4d5760405162461bcd60e51b815260206004820152602560248201527f4552433732313a207472616e736665722066726f6d20696e636f72726563742060448201526437bbb732b960d91b606482015260840161044f565b6001600160a01b038216610caf5760405162461bcd60e51b8152602060048201526024808201527f4552433732313a207472616e7366657220746f20746865207a65726f206164646044820152637265737360e01b606482015260840161044f565b610cbc838383600161111e565b826001600160a01b0316610ccf8261076f565b6001600160a01b031614610d335760405162461bcd60e51b815260206004820152602560248201527f4552433732313a207472616e736665722066726f6d20696e636f72726563742060448201526437bbb732b960d91b606482015260840161044f565b6000818152600460209081526040808320805473ffffffffffffffffffffffffffffffffffffffff199081169091556001600160a01b0387811680865260038552838620805460001901905590871680865283862080546001019055868652600290945282852080549092168417909155905184937fddf252ad1be2c89b69c2b068fc378daa952ba7f163c4a11628f55a4df523b3ef91a4505050565b816001600160a01b0316836001600160a01b031603610e315760405162461bcd60e51b815260206004820152601960248201527f4552433732313a20617070726f766520746f2063616c6c657200000000000000604482015260640161044f565b6001600160a01b03838116600081815260056020908152604080832094871680845294825291829020805460ff191686151590811790915591519182527f17307eab39ab6107e8899845ad3d59bd9653f200f220920489ca2b5937696c31910160405180910390a3505050565b610ea9848484610bd6565b610eb58484848461112a565b6109045760405162461bcd60e51b815260206004820152603260248201527f4552433732313a207472616e7366657220746f206e6f6e20455243373231526560448201527f63656976657220696d706c656d656e7465720000000000000000000000000000606482015260840161044f565b6060610f3282610a75565b6000828152600a602052604081208054610f4b90611d59565b80601f0160208091040260200160405190810160405280929190818152602001828054610f7790611d59565b8015610fc45780601f10610f9957610100808354040283529160200191610fc4565b820191906000526020600020905b815481529060010190602001808311610fa757829003601f168201915b505050505090506000610fd5611281565b90508051600003610fe7575092915050565b815115611019578082604051602001611001929190611dd2565b60405160208183030381529060405292505050919050565b610bce84611290565b61088882826112f7565b6000828152600260205260409020546001600160a01b03166110b65760405162461bcd60e51b815260206004820152602e60248201527f45524337323155524953746f726167653a2055524920736574206f66206e6f6e60448201527f6578697374656e7420746f6b656e000000000000000000000000000000000000606482015260840161044f565b6000828152600a602052604090206104f08282611e4f565b60006001600160e01b031982166380ac58cd60e01b14806110ff57506001600160e01b03198216635b5e139f60e01b145b8061031c57506301ffc9a760e01b6001600160e01b031983161461031c565b6109048484848461149d565b60006001600160a01b0384163b1561127657604051630a85bd0160e11b81526001600160a01b0385169063150b7a029061116e903390899088908890600401611f0f565b6020604051808303816000875af19250505080156111a9575060408051601f3d908101601f191682019092526111a691810190611f4b565b60015b61125c573d8080156111d7576040519150601f19603f3d011682016040523d82523d6000602084013e6111dc565b606091505b5080516000036112545760405162461bcd60e51b815260206004820152603260248201527f4552433732313a207472616e7366657220746f206e6f6e20455243373231526560448201527f63656976657220696d706c656d656e7465720000000000000000000000000000606482015260840161044f565b805181602001fd5b6001600160e01b031916630a85bd0160e11b149050610bce565b506001949350505050565b6060600d805461033190611d59565b606061129b82610a75565b60006112a5611281565b905060008151116112c557604051806020016040528060008152506112f0565b806112cf846115e5565b6040516020016112e0929190611dd2565b6040516020818303038152906040525b9392505050565b6001600160a01b03821661134d5760405162461bcd60e51b815260206004820181905260248201527f4552433732313a206d696e7420746f20746865207a65726f2061646472657373604482015260640161044f565b6000818152600260205260409020546001600160a01b0316156113b25760405162461bcd60e51b815260206004820152601c60248201527f4552433732313a20746f6b656e20616c7265616479206d696e74656400000000604482015260640161044f565b6113c060008383600161111e565b6000818152600260205260409020546001600160a01b0316156114255760405162461bcd60e51b815260206004820152601c60248201527f4552433732313a20746f6b656e20616c7265616479206d696e74656400000000604482015260640161044f565b6001600160a01b0382166000818152600360209081526040808320805460010190558483526002909152808220805473ffffffffffffffffffffffffffffffffffffffff19168417905551839291907fddf252ad1be2c89b69c2b068fc378daa952ba7f163c4a11628f55a4df523b3ef908290a45050565b6114a984848484611685565b60018111156115205760405162461bcd60e51b815260206004820152603560248201527f455243373231456e756d657261626c653a20636f6e736563757469766520747260448201527f616e7366657273206e6f7420737570706f727465640000000000000000000000606482015260840161044f565b816001600160a01b03851661157c5761157781600880546000838152600960205260408120829055600182018355919091527ff3f7a9fe364faab93b216da50a3214154f22a0a2b415b23a84c8169e8b636ee30155565b61159f565b836001600160a01b0316856001600160a01b03161461159f5761159f858261170d565b6001600160a01b0384166115bb576115b6816117aa565b6115de565b846001600160a01b0316846001600160a01b0316146115de576115de8482611859565b5050505050565b606060006115f28361189d565b600101905060008167ffffffffffffffff81111561161257611612611b4b565b6040519080825280601f01601f19166020018201604052801561163c576020820181803683370190505b5090508181016020015b600019017f3031323334353637383961626364656600000000000000000000000000000000600a86061a8153600a850494508461164657509392505050565b6001811115610904576001600160a01b038416156116cb576001600160a01b038416600090815260036020526040812080548392906116c5908490611f68565b90915550505b6001600160a01b03831615610904576001600160a01b03831660009081526003602052604081208054839290611702908490611f7b565b909155505050505050565b6000600161171a846107d4565b6117249190611f68565b600083815260076020526040902054909150808214611777576001600160a01b03841660009081526006602090815260408083208584528252808320548484528184208190558352600790915290208190555b5060009182526007602090815260408084208490556001600160a01b039094168352600681528383209183525290812055565b6008546000906117bc90600190611f68565b600083815260096020526040812054600880549394509092849081106117e4576117e4611d8d565b90600052602060002001549050806008838154811061180557611805611d8d565b600091825260208083209091019290925582815260099091526040808220849055858252812055600880548061183d5761183d611f8e565b6001900381819060005260206000200160009055905550505050565b6000611864836107d4565b6001600160a01b039093166000908152600660209081526040808320868452825280832085905593825260079052919091209190915550565b6000807a184f03e93ff9f4daa797ed6e38ed64bf6a1f01000000000000000083106118e6577a184f03e93ff9f4daa797ed6e38ed64bf6a1f010000000000000000830492506040015b6d04ee2d6d415b85acef81000000008310611912576d04ee2d6d415b85acef8100000000830492506020015b662386f26fc10000831061193057662386f26fc10000830492506010015b6305f5e1008310611948576305f5e100830492506008015b612710831061195c57612710830492506004015b6064831061196e576064830492506002015b600a831061031c5760010192915050565b6001600160e01b031981168114610ad957600080fd5b6000602082840312156119a757600080fd5b81356112f08161197f565b60005b838110156119cd5781810151838201526020016119b5565b50506000910152565b600081518084526119ee8160208601602086016119b2565b601f01601f19169290920160200192915050565b6020815260006112f060208301846119d6565b600060208284031215611a2757600080fd5b5035919050565b80356001600160a01b0381168114611a4557600080fd5b919050565b60008060408385031215611a5d57600080fd5b611a6683611a2e565b946020939093013593505050565b600080600060608486031215611a8957600080fd5b611a9284611a2e565b9250611aa060208501611a2e565b9150604084013590509250925092565b6020808252825182820181905260009190848201906040850190845b81811015611ae857835183529284019291840191600101611acc565b50909695505050505050565b600060208284031215611b0657600080fd5b6112f082611a2e565b60008060408385031215611b2257600080fd5b611b2b83611a2e565b915060208301358015158114611b4057600080fd5b809150509250929050565b634e487b7160e01b600052604160045260246000fd5b600067ffffffffffffffff80841115611b7c57611b7c611b4b565b604051601f8501601f19908116603f01168101908282118183101715611ba457611ba4611b4b565b81604052809350858152868686011115611bbd57600080fd5b858560208301376000602087830101525050509392505050565b60008060008060808587031215611bed57600080fd5b611bf685611a2e565b9350611c0460208601611a2e565b925060408501359150606085013567ffffffffffffffff811115611c2757600080fd5b8501601f81018713611c3857600080fd5b611c4787823560208401611b61565b91505092959194509250565b60006020808301818452808551808352604092508286019150828160051b87010184880160005b83811015611ccf57603f19898403018552815160608151855288820151818a870152611ca8828701826119d6565b928901516001600160a01b0316958901959095525094870194925090860190600101611c7a565b509098975050505050505050565b600060208284031215611cef57600080fd5b813567ffffffffffffffff811115611d0657600080fd5b8201601f81018413611d1757600080fd5b610bce84823560208401611b61565b60008060408385031215611d3957600080fd5b611d4283611a2e565b9150611d5060208401611a2e565b90509250929050565b600181811c90821680611d6d57607f821691505b60208210810361060257634e487b7160e01b600052602260045260246000fd5b634e487b7160e01b600052603260045260246000fd5b634e487b7160e01b600052601160045260246000fd5b600060018201611dcb57611dcb611da3565b5060010190565b60008351611de48184602088016119b2565b835190830190611df88183602088016119b2565b01949350505050565b601f8211156104f057600081815260208120601f850160051c81016020861015611e285750805b601f850160051c820191505b81811015611e4757828155600101611e34565b505050505050565b815167ffffffffffffffff811115611e6957611e69611b4b565b611e7d81611e778454611d59565b84611e01565b602080601f831160018114611eb25760008415611e9a5750858301515b600019600386901b1c1916600185901b178555611e47565b600085815260208120601f198616915b82811015611ee157888601518255948401946001909101908401611ec2565b5085821015611eff5787850151600019600388901b60f8161c191681555b5050505050600190811b01905550565b60006001600160a01b03808716835280861660208401525083604083015260806060830152611f4160808301846119d6565b9695505050505050565b600060208284031215611f5d57600080fd5b81516112f08161197f565b8181038181111561031c5761031c611da3565b8082018082111561031c5761031c611da3565b634e487b7160e01b600052603160045260246000fdfea164736f6c6343000811000a",
  "linkReferences": {},
  "deployedLinkReferences": {}
}