{
  "_format": "hh-sol-artifact-1",
  "contractName": "AppCreations",
  "sourceName": "contracts/app/AppCreations.sol",
  "abi": [
    {
      "inputs": [
        {
          "internalType": "address",
          "name": "_embraceSpacesAddress",
          "type": "address"
        }
      ],
      "stateMutability": "nonpayable",
      "type": "constructor"
    },
    {
      "inputs": [
        {
          "internalType": "uint256",
          "name": "spaceId",
          "type": "uint256"
        },
        {
          "internalType": "address",
          "name": "memberAddress",
          "type": "address"
        }
      ],
      "name": "ErrorOnlyAdmin",
      "type": "error"
    },
    {
      "anonymous": false,
      "inputs": [
        {
          "indexed": true,
          "internalType": "uint256",
          "name": "spaceId",
          "type": "uint256"
        },
        {
          "indexed": true,
          "internalType": "address",
          "name": "creator",
          "type": "address"
        },
        {
          "components": [
            {
              "internalType": "uint128",
              "name": "id",
              "type": "uint128"
            },
            {
              "internalType": "address",
              "name": "contractAddress",
              "type": "address"
            },
            {
              "internalType": "string",
              "name": "name",
              "type": "string"
            }
          ],
          "indexed": false,
          "internalType": "struct AppCreations.Collection",
          "name": "collection",
          "type": "tuple"
        }
      ],
      "name": "CollectionCreated",
      "type": "event"
    },
    {
      "inputs": [
        {
          "internalType": "uint256",
          "name": "_spaceId",
          "type": "uint256"
        },
        {
          "internalType": "string",
          "name": "_name",
          "type": "string"
        },
        {
          "internalType": "string",
          "name": "_symbol",
          "type": "string"
        }
      ],
      "name": "createCollection",
      "outputs": [],
      "stateMutability": "nonpayable",
      "type": "function"
    },
    {
      "inputs": [],
      "name": "embraceSpacesAddress",
      "outputs": [
        {
          "internalType": "address",
          "name": "",
          "type": "address"
        }
      ],
      "stateMutability": "view",
      "type": "function"
    },
    {
      "inputs": [
        {
          "internalType": "uint256",
          "name": "_spaceId",
          "type": "uint256"
        },
        {
          "internalType": "uint128",
          "name": "_id",
          "type": "uint128"
        }
      ],
      "name": "getCollection",
      "outputs": [
        {
          "components": [
            {
              "internalType": "uint128",
              "name": "id",
              "type": "uint128"
            },
            {
              "internalType": "address",
              "name": "contractAddress",
              "type": "address"
            },
            {
              "internalType": "string",
              "name": "name",
              "type": "string"
            }
          ],
          "internalType": "struct AppCreations.Collection",
          "name": "",
          "type": "tuple"
        }
      ],
      "stateMutability": "view",
      "type": "function"
    },
    {
      "inputs": [
        {
          "internalType": "uint256",
          "name": "_spaceId",
          "type": "uint256"
        }
      ],
      "name": "getCollectionCount",
      "outputs": [
        {
          "internalType": "uint64",
          "name": "",
          "type": "uint64"
        }
      ],
      "stateMutability": "view",
      "type": "function"
    },
    {
      "inputs": [
        {
          "internalType": "uint256",
          "name": "_spaceId",
          "type": "uint256"
        }
      ],
      "name": "getCollections",
      "outputs": [
        {
          "components": [
            {
              "internalType": "uint128",
              "name": "id",
              "type": "uint128"
            },
            {
              "internalType": "address",
              "name": "contractAddress",
              "type": "address"
            },
            {
              "internalType": "string",
              "name": "name",
              "type": "string"
            }
          ],
          "internalType": "struct AppCreations.Collection[]",
          "name": "",
          "type": "tuple[]"
        }
      ],
      "stateMutability": "view",
      "type": "function"
    },
    {
      "inputs": [
        {
          "internalType": "uint256",
          "name": "_spaceId",
          "type": "uint256"
        },
        {
          "internalType": "address",
          "name": "_address",
          "type": "address"
        }
      ],
      "name": "isAdminExternal",
      "outputs": [
        {
          "internalType": "bool",
          "name": "",
          "type": "bool"
        }
      ],
      "stateMutability": "view",
      "type": "function"
    },
    {
      "inputs": [
        {
          "internalType": "uint256",
          "name": "_spaceId",
          "type": "uint256"
        },
        {
          "internalType": "address",
          "name": "_address",
          "type": "address"
        }
      ],
      "name": "isFounderExternal",
      "outputs": [
        {
          "internalType": "bool",
          "name": "",
          "type": "bool"
        }
      ],
      "stateMutability": "view",
      "type": "function"
    },
    {
      "inputs": [
        {
          "internalType": "uint256",
          "name": "",
          "type": "uint256"
        },
        {
          "internalType": "uint256",
          "name": "",
          "type": "uint256"
        }
      ],
      "name": "spaceCollections",
      "outputs": [
        {
          "internalType": "uint128",
          "name": "id",
          "type": "uint128"
        },
        {
          "internalType": "address",
          "name": "contractAddress",
          "type": "address"
        },
        {
          "internalType": "string",
          "name": "name",
          "type": "string"
        }
      ],
      "stateMutability": "view",
      "type": "function"
    },
    {
      "inputs": [
        {
          "internalType": "uint256",
          "name": "",
          "type": "uint256"
        }
      ],
      "name": "spaceToCollectionCount",
      "outputs": [
        {
          "internalType": "uint64",
          "name": "",
          "type": "uint64"
        }
      ],
      "stateMutability": "view",
      "type": "function"
    }
  ],
  "bytecode": "0x608060405234801561001057600080fd5b506040516134ff3803806134ff83398101604081905261002f91610054565b600280546001600160a01b0319166001600160a01b0392909216919091179055610084565b60006020828403121561006657600080fd5b81516001600160a01b038116811461007d57600080fd5b9392505050565b61346c806100936000396000f3fe60806040523480156200001157600080fd5b5060043610620000b05760003560e01c80637c19af5d116200007f5780639035d93811620000625780639035d93814620001ba578063cd5b22a114620001e7578063d881072b14620001fe57600080fd5b80637c19af5d146200014b5780637d54b282146200019257600080fd5b80630d1110c814620000b557806311a6194b14620000e45780631b5b1a46146200010a57806327f9904a1462000132575b600080fd5b620000cc620000c63660046200084f565b6200022b565b604051620000db9190620008f6565b60405180910390f35b620000fb620000f53660046200095c565b62000359565b604051620000db91906200099a565b620001216200011b366004620009af565b6200049b565b604051620000db93929190620009d2565b620001496200014336600462000ab9565b62000584565b005b620001786200015c3660046200084f565b60009081526001602052604090205467ffffffffffffffff1690565b60405167ffffffffffffffff9091168152602001620000db565b620001a9620001a336600462000b2d565b62000785565b6040519015158152602001620000db565b62000178620001cb3660046200084f565b60016020526000908152604090205467ffffffffffffffff1681565b620001a9620001f836600462000b2d565b62000806565b60025462000212906001600160a01b031681565b6040516001600160a01b039091168152602001620000db565b600081815260208181526040808320805482518185028101850190935280835260609492939192909184015b828210156200034e576000848152602090819020604080516060810182526003860290920180546001600160801b0316835260018101546001600160a01b03169383019390935260028301805492939291840191620002b69062000b60565b80601f0160208091040260200160405190810160405280929190818152602001828054620002e49062000b60565b8015620003355780601f10620003095761010080835404028352916020019162000335565b820191906000526020600020905b8154815290600101906020018083116200031757829003601f168201915b5050505050815250508152602001906001019062000257565b505050509050919050565b604080516060808201835260008083526020830181905292820152906200038260018462000bb2565b9050600080858152602001908152602001600020816001600160801b031681548110620003b357620003b362000bdc565b600091825260209182902060408051606081018252600390930290910180546001600160801b0316835260018101546001600160a01b031693830193909352600283018054929392918401916200040a9062000b60565b80601f0160208091040260200160405190810160405280929190818152602001828054620004389062000b60565b8015620004895780601f106200045d5761010080835404028352916020019162000489565b820191906000526020600020905b8154815290600101906020018083116200046b57829003601f168201915b50505050508152505091505092915050565b60006020528160005260406000208181548110620004b857600080fd5b60009182526020909120600390910201805460018201546002830180546001600160801b0390931695506001600160a01b03909116935090620004fb9062000b60565b80601f0160208091040260200160405190810160405280929190818152602001828054620005299062000b60565b80156200057a5780601f106200054e576101008083540402835291602001916200057a565b820191906000526020600020905b8154815290600101906020018083116200055c57829003601f168201915b5050505050905083565b8262000591813362000785565b158015620005a85750620005a6813362000806565b155b15620005d45760405163eae3129560e01b81526004810182905233602482015260440160405180910390fd5b6002546040516000916001600160a01b031690869086908690620005f89062000841565b62000607949392919062000bf2565b604051809103906000f08015801562000624573d6000803e3d6000fd5b506000868152600160205260408120805492935067ffffffffffffffff9092169190620006518362000c3b565b82546101009290920a67ffffffffffffffff818102199093169183160217909155604080516060810182526000898152600160208181528483205490951683526001600160a01b038781168685019081528486018c81528d85528488529584208054808501825590855296909320845160039097020180546fffffffffffffffffffffffffffffffff19166001600160801b03909716969096178655915190850180547fffffffffffffffffffffffff000000000000000000000000000000000000000016919092161790559051909250829190600282019062000736908262000cb8565b505050336001600160a01b0316867f2c4c0f4771b4f9cc588b8cc0ad913d18c5982cade64c4cd92f0f4da8e85b0232836040516200077591906200099a565b60405180910390a3505050505050565b600254604051633eaa594160e11b8152600481018490526001600160a01b0383811660248301526000921690637d54b282906044015b602060405180830381865afa158015620007d9573d6000803e3d6000fd5b505050506040513d601f19601f82011682018060405250810190620007ff919062000d85565b9392505050565b60025460405163cd5b22a160e01b8152600481018490526001600160a01b038381166024830152600092169063cd5b22a190604401620007bb565b6126b68062000daa83390190565b6000602082840312156200086257600080fd5b5035919050565b6000815180845260005b81811015620008915760208185018101518683018201520162000873565b506000602082860101526020601f19601f83011685010191505092915050565b6001600160801b0381511682526001600160a01b0360208201511660208301526000604082015160606040850152620008ee606085018262000869565b949350505050565b6000602080830181845280855180835260408601915060408160051b870101925083870160005b828110156200094f57603f198886030184526200093c858351620008b1565b945092850192908501906001016200091d565b5092979650505050505050565b600080604083850312156200097057600080fd5b8235915060208301356001600160801b03811681146200098f57600080fd5b809150509250929050565b602081526000620007ff6020830184620008b1565b60008060408385031215620009c357600080fd5b50508035926020909101359150565b6001600160801b03841681526001600160a01b038316602082015260606040820152600062000a05606083018462000869565b95945050505050565b634e487b7160e01b600052604160045260246000fd5b600082601f83011262000a3657600080fd5b813567ffffffffffffffff8082111562000a545762000a5462000a0e565b604051601f8301601f19908116603f0116810190828211818310171562000a7f5762000a7f62000a0e565b8160405283815286602085880101111562000a9957600080fd5b836020870160208301376000602085830101528094505050505092915050565b60008060006060848603121562000acf57600080fd5b83359250602084013567ffffffffffffffff8082111562000aef57600080fd5b62000afd8783880162000a24565b9350604086013591508082111562000b1457600080fd5b5062000b238682870162000a24565b9150509250925092565b6000806040838503121562000b4157600080fd5b8235915060208301356001600160a01b03811681146200098f57600080fd5b600181811c9082168062000b7557607f821691505b60208210810362000b9657634e487b7160e01b600052602260045260246000fd5b50919050565b634e487b7160e01b600052601160045260246000fd5b6001600160801b0382811682821603908082111562000bd55762000bd562000b9c565b5092915050565b634e487b7160e01b600052603260045260246000fd5b6001600160a01b038516815283602082015260806040820152600062000c1c608083018562000869565b828103606084015262000c30818562000869565b979650505050505050565b600067ffffffffffffffff80831681810362000c5b5762000c5b62000b9c565b6001019392505050565b601f82111562000cb357600081815260208120601f850160051c8101602086101562000c8e5750805b601f850160051c820191505b8181101562000caf5782815560010162000c9a565b5050505b505050565b815167ffffffffffffffff81111562000cd55762000cd562000a0e565b62000ced8162000ce6845462000b60565b8462000c65565b602080601f83116001811462000d25576000841562000d0c5750858301515b600019600386901b1c1916600185901b17855562000caf565b600085815260208120601f198616915b8281101562000d565788860151825594840194600190910190840162000d35565b508582101562000d755787850151600019600388901b60f8161c191681555b5050505050600190811b01905550565b60006020828403121562000d9857600080fd5b81518015158114620007ff57600080fdfe60806040523480156200001157600080fd5b50604051620026b6380380620026b6833981016040819052620000349162000180565b81816000620000448382620002a3565b506001620000538282620002a3565b505050600d839055600c80546001600160a01b0319166001600160a01b038616179055604080518082019091526007815266697066733a2f2f60c81b60208201526200009f90620000a9565b505050506200036f565b600e620000b78282620002a3565b5050565b634e487b7160e01b600052604160045260246000fd5b600082601f830112620000e357600080fd5b81516001600160401b0380821115620001005762000100620000bb565b604051601f8301601f19908116603f011681019082821181831017156200012b576200012b620000bb565b816040528381526020925086838588010111156200014857600080fd5b600091505b838210156200016c57858201830151818301840152908201906200014d565b600093810190920192909252949350505050565b600080600080608085870312156200019757600080fd5b84516001600160a01b0381168114620001af57600080fd5b6020860151604087015191955093506001600160401b0380821115620001d457600080fd5b620001e288838901620000d1565b93506060870151915080821115620001f957600080fd5b506200020887828801620000d1565b91505092959194509250565b600181811c908216806200022957607f821691505b6020821081036200024a57634e487b7160e01b600052602260045260246000fd5b50919050565b601f8211156200029e57600081815260208120601f850160051c81016020861015620002795750805b601f850160051c820191505b818110156200029a5782815560010162000285565b5050505b505050565b81516001600160401b03811115620002bf57620002bf620000bb565b620002d781620002d0845462000214565b8462000250565b602080601f8311600181146200030f5760008415620002f65750858301515b600019600386901b1c1916600185901b1785556200029a565b600085815260208120601f198616915b8281101562000340578886015182559484019460019091019084016200031f565b50858210156200035f5787850151600019600388901b60f8161c191681555b5050505050600190811b01905550565b612337806200037f6000396000f3fe608060405234801561001057600080fd5b50600436106101825760003560e01c806370a08231116100d8578063c87b56dd1161008c578063d85d3d2711610066578063d85d3d2714610319578063d881072b1461032c578063e985e9c51461033f57600080fd5b8063c87b56dd146102de578063cd1404ca146102f1578063cd5b22a11461030657600080fd5b806395d89b41116100bd57806395d89b41146102b0578063a22cb465146102b8578063b88d4fde146102cb57600080fd5b806370a082311461028a5780637d54b2821461029d57600080fd5b806323b872dd1161013a57806342842e0e1161011457806342842e0e146102515780634f6ccce7146102645780636352211e1461027757600080fd5b806323b872dd146102165780632a5c792a146102295780632f745c591461023e57600080fd5b8063081812fc1161016b578063081812fc146101c4578063095ea7b3146101ef57806318160ddd1461020457600080fd5b806301ffc9a71461018757806306fdde03146101af575b600080fd5b61019a610195366004611ca0565b61037b565b60405190151581526020015b60405180910390f35b6101b761038c565b6040516101a69190611d0d565b6101d76101d2366004611d20565b61041e565b6040516001600160a01b0390911681526020016101a6565b6102026101fd366004611d55565b610445565b005b6008545b6040519081526020016101a6565b610202610224366004611d7f565b61055f565b6102316105d6565b6040516101a69190611dbb565b61020861024c366004611d55565b610672565b61020261025f366004611d7f565b61071a565b610208610272366004611d20565b610735565b6101d7610285366004611d20565b6107d9565b610208610298366004611dff565b61083e565b61019a6102ab366004611e1a565b6108d8565b6101b76109a3565b6102026102c6366004611e54565b6109b2565b6102026102d9366004611f17565b6109c1565b6101b76102ec366004611d20565b610a3f565b6102f9610a4a565b6040516101a69190611f93565b61019a610314366004611e1a565b610b4f565b61020261032736600461201d565b610bd6565b600c546101d7906001600160a01b031681565b61019a61034d366004612066565b6001600160a01b03918216600090815260056020908152604080832093909416825291909152205460ff1690565b600061038682610cdf565b92915050565b60606000805461039b90612090565b80601f01602080910402602001604051908101604052809291908181526020018280546103c790612090565b80156104145780601f106103e957610100808354040283529160200191610414565b820191906000526020600020905b8154815290600101906020018083116103f757829003601f168201915b5050505050905090565b600061042982610d04565b506000908152600460205260409020546001600160a01b031690565b6000610450826107d9565b9050806001600160a01b0316836001600160a01b0316036104c25760405162461bcd60e51b815260206004820152602160248201527f4552433732313a20617070726f76616c20746f2063757272656e74206f776e656044820152603960f91b60648201526084015b60405180910390fd5b336001600160a01b03821614806104de57506104de813361034d565b6105505760405162461bcd60e51b815260206004820152603d60248201527f4552433732313a20617070726f76652063616c6c6572206973206e6f7420746f60448201527f6b656e206f776e6572206f7220617070726f76656420666f7220616c6c00000060648201526084016104b9565b61055a8383610d6b565b505050565b6105693382610de6565b6105cb5760405162461bcd60e51b815260206004820152602d60248201527f4552433732313a2063616c6c6572206973206e6f7420746f6b656e206f776e6560448201526c1c881bdc88185c1c1c9bdd9959609a1b60648201526084016104b9565b61055a838383610e65565b606060006105e360085490565b67ffffffffffffffff8111156105fb576105fb611e8b565b604051908082528060200260200182016040528015610624578160200160208202803683370190505b50905060005b60085481101561066c5761063d81610735565b82828151811061064f5761064f6120c4565b602090810291909101015280610664816120f0565b91505061062a565b50919050565b600061067d8361083e565b82106106f15760405162461bcd60e51b815260206004820152602b60248201527f455243373231456e756d657261626c653a206f776e657220696e646578206f7560448201527f74206f6620626f756e647300000000000000000000000000000000000000000060648201526084016104b9565b506001600160a01b03919091166000908152600660209081526040808320938352929052205490565b61055a838383604051806020016040528060008152506109c1565b600061074060085490565b82106107b45760405162461bcd60e51b815260206004820152602c60248201527f455243373231456e756d657261626c653a20676c6f62616c20696e646578206f60448201527f7574206f6620626f756e6473000000000000000000000000000000000000000060648201526084016104b9565b600882815481106107c7576107c76120c4565b90600052602060002001549050919050565b6000818152600260205260408120546001600160a01b0316806103865760405162461bcd60e51b815260206004820152601860248201527f4552433732313a20696e76616c696420746f6b656e204944000000000000000060448201526064016104b9565b60006001600160a01b0382166108bc5760405162461bcd60e51b815260206004820152602960248201527f4552433732313a2061646472657373207a65726f206973206e6f74206120766160448201527f6c6964206f776e6572000000000000000000000000000000000000000000000060648201526084016104b9565b506001600160a01b031660009081526003602052604090205490565b60408051808201909152600f81527f697341646d696e45787465726e616c00000000000000000000000000000000006020820152600c546000916109269185906001600160a01b031661105f565b600c54604051633eaa594160e11b8152600481018590526001600160a01b03848116602483015290911690637d54b282906044015b602060405180830381865afa158015610978573d6000803e3d6000fd5b505050506040513d601f19601f8201168201806040525081019061099c9190612109565b9392505050565b60606001805461039b90612090565b6109bd3383836110bb565b5050565b6109cb3383610de6565b610a2d5760405162461bcd60e51b815260206004820152602d60248201527f4552433732313a2063616c6c6572206973206e6f7420746f6b656e206f776e6560448201526c1c881bdc88185c1c1c9bdd9959609a1b60648201526084016104b9565b610a3984848484611189565b50505050565b606061038682611212565b60606000610a5760085490565b67ffffffffffffffff811115610a6f57610a6f611e8b565b604051908082528060200260200182016040528015610acd57816020015b610aba6040518060600160405280600081526020016060815260200160006001600160a01b031681525090565b815260200190600190039081610a8d5790505b50905060005b60085481101561066c576040518060600160405280610af183610735565b8152602001610b026102ec84610735565b8152602001610b1361028584610735565b6001600160a01b0316815250828281518110610b3157610b316120c4565b60200260200101819052508080610b47906120f0565b915050610ad3565b60408051808201909152601181527f6973466f756e64657245787465726e616c0000000000000000000000000000006020820152600c54600091610b9d9185906001600160a01b031661105f565b600c5460405163cd5b22a160e01b8152600481018590526001600160a01b0384811660248301529091169063cd5b22a19060440161095b565b600d5460408051808201909152600e81527f6f6e6c79537061636541646d696e0000000000000000000000000000000000006020820152600c54610c25919083906001600160a01b031661105f565b610c2f81336108d8565b158015610c435750610c418133610b4f565b155b15610c6a5760405163eae3129560e01b8152600481018290523360248201526044016104b9565b610c78600b80546001019055565b6000610c83600b5490565b9050610c8f338261130d565b825115610ca057610ca08184611317565b600d54604051828152309133917f024b3a732399b285a2020f19abe7746472b1ce95d01ddbd0362a7a65072ebed09060200160405180910390a4505050565b60006001600160e01b0319821663780e9d6360e01b14806103865750610386826113b9565b6000818152600260205260409020546001600160a01b0316610d685760405162461bcd60e51b815260206004820152601860248201527f4552433732313a20696e76616c696420746f6b656e204944000000000000000060448201526064016104b9565b50565b6000818152600460205260409020805473ffffffffffffffffffffffffffffffffffffffff19166001600160a01b0384169081179091558190610dad826107d9565b6001600160a01b03167f8c5be1e5ebec7d5bd14f71427d1e84f3dd0314c0f7b2291e5b200ac8c7c3b92560405160405180910390a45050565b600080610df2836107d9565b9050806001600160a01b0316846001600160a01b03161480610e3957506001600160a01b0380821660009081526005602090815260408083209388168352929052205460ff165b80610e5d5750836001600160a01b0316610e528461041e565b6001600160a01b0316145b949350505050565b826001600160a01b0316610e78826107d9565b6001600160a01b031614610edc5760405162461bcd60e51b815260206004820152602560248201527f4552433732313a207472616e736665722066726f6d20696e636f72726563742060448201526437bbb732b960d91b60648201526084016104b9565b6001600160a01b038216610f3e5760405162461bcd60e51b8152602060048201526024808201527f4552433732313a207472616e7366657220746f20746865207a65726f206164646044820152637265737360e01b60648201526084016104b9565b610f4b8383836001611409565b826001600160a01b0316610f5e826107d9565b6001600160a01b031614610fc25760405162461bcd60e51b815260206004820152602560248201527f4552433732313a207472616e736665722066726f6d20696e636f72726563742060448201526437bbb732b960d91b60648201526084016104b9565b6000818152600460209081526040808320805473ffffffffffffffffffffffffffffffffffffffff199081169091556001600160a01b0387811680865260038552838620805460001901905590871680865283862080546001019055868652600290945282852080549092168417909155905184937fddf252ad1be2c89b69c2b068fc378daa952ba7f163c4a11628f55a4df523b3ef91a4505050565b61055a83838360405160240161107793929190612126565b60408051601f198184030181529190526020810180517bffffffffffffffffffffffffffffffffffffffffffffffffffffffff1663038fd88960e31b179052611415565b816001600160a01b0316836001600160a01b03160361111c5760405162461bcd60e51b815260206004820152601960248201527f4552433732313a20617070726f766520746f2063616c6c65720000000000000060448201526064016104b9565b6001600160a01b03838116600081815260056020908152604080832094871680845294825291829020805460ff191686151590811790915591519182527f17307eab39ab6107e8899845ad3d59bd9653f200f220920489ca2b5937696c31910160405180910390a3505050565b611194848484610e65565b6111a084848484611436565b610a395760405162461bcd60e51b815260206004820152603260248201527f4552433732313a207472616e7366657220746f206e6f6e20455243373231526560448201527f63656976657220696d706c656d656e746572000000000000000000000000000060648201526084016104b9565b606061121d82610d04565b6000828152600a60205260408120805461123690612090565b80601f016020809104026020016040519081016040528092919081815260200182805461126290612090565b80156112af5780601f10611284576101008083540402835291602001916112af565b820191906000526020600020905b81548152906001019060200180831161129257829003601f168201915b5050505050905060006112c061158d565b905080516000036112d2575092915050565b8151156113045780826040516020016112ec929190612158565b60405160208183030381529060405292505050919050565b610e5d8461159c565b6109bd8282611602565b6000828152600260205260409020546001600160a01b03166113a15760405162461bcd60e51b815260206004820152602e60248201527f45524337323155524953746f726167653a2055524920736574206f66206e6f6e60448201527f6578697374656e7420746f6b656e00000000000000000000000000000000000060648201526084016104b9565b6000828152600a6020526040902061055a82826121d5565b60006001600160e01b031982166380ac58cd60e01b14806113ea57506001600160e01b03198216635b5e139f60e01b145b8061038657506301ffc9a760e01b6001600160e01b0319831614610386565b610a39848484846117a8565b80516a636f6e736f6c652e6c6f67602083016000808483855afa5050505050565b60006001600160a01b0384163b1561158257604051630a85bd0160e11b81526001600160a01b0385169063150b7a029061147a903390899088908890600401612295565b6020604051808303816000875af19250505080156114b5575060408051601f3d908101601f191682019092526114b2918101906122d1565b60015b611568573d8080156114e3576040519150601f19603f3d011682016040523d82523d6000602084013e6114e8565b606091505b5080516000036115605760405162461bcd60e51b815260206004820152603260248201527f4552433732313a207472616e7366657220746f206e6f6e20455243373231526560448201527f63656976657220696d706c656d656e746572000000000000000000000000000060648201526084016104b9565b805181602001fd5b6001600160e01b031916630a85bd0160e11b149050610e5d565b506001949350505050565b6060600e805461039b90612090565b60606115a782610d04565b60006115b161158d565b905060008151116115d1576040518060200160405280600081525061099c565b806115db846118f0565b6040516020016115ec929190612158565b6040516020818303038152906040529392505050565b6001600160a01b0382166116585760405162461bcd60e51b815260206004820181905260248201527f4552433732313a206d696e7420746f20746865207a65726f206164647265737360448201526064016104b9565b6000818152600260205260409020546001600160a01b0316156116bd5760405162461bcd60e51b815260206004820152601c60248201527f4552433732313a20746f6b656e20616c7265616479206d696e7465640000000060448201526064016104b9565b6116cb600083836001611409565b6000818152600260205260409020546001600160a01b0316156117305760405162461bcd60e51b815260206004820152601c60248201527f4552433732313a20746f6b656e20616c7265616479206d696e7465640000000060448201526064016104b9565b6001600160a01b0382166000818152600360209081526040808320805460010190558483526002909152808220805473ffffffffffffffffffffffffffffffffffffffff19168417905551839291907fddf252ad1be2c89b69c2b068fc378daa952ba7f163c4a11628f55a4df523b3ef908290a45050565b6117b484848484611990565b600181111561182b5760405162461bcd60e51b815260206004820152603560248201527f455243373231456e756d657261626c653a20636f6e736563757469766520747260448201527f616e7366657273206e6f7420737570706f72746564000000000000000000000060648201526084016104b9565b816001600160a01b0385166118875761188281600880546000838152600960205260408120829055600182018355919091527ff3f7a9fe364faab93b216da50a3214154f22a0a2b415b23a84c8169e8b636ee30155565b6118aa565b836001600160a01b0316856001600160a01b0316146118aa576118aa8582611a18565b6001600160a01b0384166118c6576118c181611ab5565b6118e9565b846001600160a01b0316846001600160a01b0316146118e9576118e98482611b64565b5050505050565b606060006118fd83611ba8565b600101905060008167ffffffffffffffff81111561191d5761191d611e8b565b6040519080825280601f01601f191660200182016040528015611947576020820181803683370190505b5090508181016020015b600019017f3031323334353637383961626364656600000000000000000000000000000000600a86061a8153600a850494508461195157509392505050565b6001811115610a39576001600160a01b038416156119d6576001600160a01b038416600090815260036020526040812080548392906119d09084906122ee565b90915550505b6001600160a01b03831615610a39576001600160a01b03831660009081526003602052604081208054839290611a0d908490612301565b909155505050505050565b60006001611a258461083e565b611a2f91906122ee565b600083815260076020526040902054909150808214611a82576001600160a01b03841660009081526006602090815260408083208584528252808320548484528184208190558352600790915290208190555b5060009182526007602090815260408084208490556001600160a01b039094168352600681528383209183525290812055565b600854600090611ac7906001906122ee565b60008381526009602052604081205460088054939450909284908110611aef57611aef6120c4565b906000526020600020015490508060088381548110611b1057611b106120c4565b6000918252602080832090910192909255828152600990915260408082208490558582528120556008805480611b4857611b48612314565b6001900381819060005260206000200160009055905550505050565b6000611b6f8361083e565b6001600160a01b039093166000908152600660209081526040808320868452825280832085905593825260079052919091209190915550565b6000807a184f03e93ff9f4daa797ed6e38ed64bf6a1f0100000000000000008310611bf1577a184f03e93ff9f4daa797ed6e38ed64bf6a1f010000000000000000830492506040015b6d04ee2d6d415b85acef81000000008310611c1d576d04ee2d6d415b85acef8100000000830492506020015b662386f26fc100008310611c3b57662386f26fc10000830492506010015b6305f5e1008310611c53576305f5e100830492506008015b6127108310611c6757612710830492506004015b60648310611c79576064830492506002015b600a83106103865760010192915050565b6001600160e01b031981168114610d6857600080fd5b600060208284031215611cb257600080fd5b813561099c81611c8a565b60005b83811015611cd8578181015183820152602001611cc0565b50506000910152565b60008151808452611cf9816020860160208601611cbd565b601f01601f19169290920160200192915050565b60208152600061099c6020830184611ce1565b600060208284031215611d3257600080fd5b5035919050565b80356001600160a01b0381168114611d5057600080fd5b919050565b60008060408385031215611d6857600080fd5b611d7183611d39565b946020939093013593505050565b600080600060608486031215611d9457600080fd5b611d9d84611d39565b9250611dab60208501611d39565b9150604084013590509250925092565b6020808252825182820181905260009190848201906040850190845b81811015611df357835183529284019291840191600101611dd7565b50909695505050505050565b600060208284031215611e1157600080fd5b61099c82611d39565b60008060408385031215611e2d57600080fd5b82359150611e3d60208401611d39565b90509250929050565b8015158114610d6857600080fd5b60008060408385031215611e6757600080fd5b611e7083611d39565b91506020830135611e8081611e46565b809150509250929050565b634e487b7160e01b600052604160045260246000fd5b600067ffffffffffffffff80841115611ebc57611ebc611e8b565b604051601f8501601f19908116603f01168101908282118183101715611ee457611ee4611e8b565b81604052809350858152868686011115611efd57600080fd5b858560208301376000602087830101525050509392505050565b60008060008060808587031215611f2d57600080fd5b611f3685611d39565b9350611f4460208601611d39565b925060408501359150606085013567ffffffffffffffff811115611f6757600080fd5b8501601f81018713611f7857600080fd5b611f8787823560208401611ea1565b91505092959194509250565b60006020808301818452808551808352604092508286019150828160051b87010184880160005b8381101561200f57603f19898403018552815160608151855288820151818a870152611fe882870182611ce1565b928901516001600160a01b0316958901959095525094870194925090860190600101611fba565b509098975050505050505050565b60006020828403121561202f57600080fd5b813567ffffffffffffffff81111561204657600080fd5b8201601f8101841361205757600080fd5b610e5d84823560208401611ea1565b6000806040838503121561207957600080fd5b61208283611d39565b9150611e3d60208401611d39565b600181811c908216806120a457607f821691505b60208210810361066c57634e487b7160e01b600052602260045260246000fd5b634e487b7160e01b600052603260045260246000fd5b634e487b7160e01b600052601160045260246000fd5b600060018201612102576121026120da565b5060010190565b60006020828403121561211b57600080fd5b815161099c81611e46565b6060815260006121396060830186611ce1565b90508360208301526001600160a01b0383166040830152949350505050565b6000835161216a818460208801611cbd565b83519083019061217e818360208801611cbd565b01949350505050565b601f82111561055a57600081815260208120601f850160051c810160208610156121ae5750805b601f850160051c820191505b818110156121cd578281556001016121ba565b505050505050565b815167ffffffffffffffff8111156121ef576121ef611e8b565b612203816121fd8454612090565b84612187565b602080601f83116001811461223857600084156122205750858301515b600019600386901b1c1916600185901b1785556121cd565b600085815260208120601f198616915b8281101561226757888601518255948401946001909101908401612248565b50858210156122855787850151600019600388901b60f8161c191681555b5050505050600190811b01905550565b60006001600160a01b038087168352808616602084015250836040830152608060608301526122c76080830184611ce1565b9695505050505050565b6000602082840312156122e357600080fd5b815161099c81611c8a565b81810381811115610386576103866120da565b80820180821115610386576103866120da565b634e487b7160e01b600052603160045260246000fdfea164736f6c6343000811000aa164736f6c6343000811000a",
  "linkReferences": {},
  "deployedLinkReferences": {}
}