{
  "_format": "hh-sol-artifact-1",
  "contractName": "AppSocials",
  "sourceName": "contracts/app/AppSocials.sol",
  "abi": [
    {
      "inputs": [
        {
          "internalType": "address",
          "name": "_embraceSpacesAddress",
          "type": "address"
        }
      ],
      "stateMutability": "nonpayable",
      "type": "constructor"
    },
    {
      "inputs": [
        {
          "internalType": "uint256",
          "name": "spaceId",
          "type": "uint256"
        },
        {
          "internalType": "address",
          "name": "memberAddress",
          "type": "address"
        }
      ],
      "name": "ErrorOnlyAdmin",
      "type": "error"
    },
    {
      "anonymous": false,
      "inputs": [
        {
          "indexed": true,
          "internalType": "uint256",
          "name": "spaceId",
          "type": "uint256"
        },
        {
          "indexed": true,
          "internalType": "address",
          "name": "creator",
          "type": "address"
        },
        {
          "indexed": false,
          "internalType": "address",
          "name": "lensWallet",
          "type": "address"
        },
        {
          "indexed": true,
          "internalType": "string",
          "name": "lensDefaultProfileId",
          "type": "string"
        }
      ],
      "name": "SocialCreated",
      "type": "event"
    },
    {
      "inputs": [
        {
          "internalType": "uint256",
          "name": "_spaceId",
          "type": "uint256"
        },
        {
          "internalType": "address",
          "name": "_lensWallet",
          "type": "address"
        },
        {
          "internalType": "string",
          "name": "_lensDefaultProfileId",
          "type": "string"
        }
      ],
      "name": "createSocial",
      "outputs": [],
      "stateMutability": "nonpayable",
      "type": "function"
    },
    {
      "inputs": [],
      "name": "embraceSpacesAddress",
      "outputs": [
        {
          "internalType": "address",
          "name": "",
          "type": "address"
        }
      ],
      "stateMutability": "view",
      "type": "function"
    },
    {
      "inputs": [
        {
          "internalType": "uint256",
          "name": "_spaceId",
          "type": "uint256"
        }
      ],
      "name": "getSocial",
      "outputs": [
        {
          "components": [
            {
              "internalType": "uint256",
              "name": "id",
              "type": "uint256"
            },
            {
              "internalType": "address",
              "name": "lensWallet",
              "type": "address"
            },
            {
              "internalType": "string",
              "name": "lensDefaultProfileId",
              "type": "string"
            }
          ],
          "internalType": "struct AppSocials.Social",
          "name": "",
          "type": "tuple"
        }
      ],
      "stateMutability": "view",
      "type": "function"
    },
    {
      "inputs": [
        {
          "internalType": "uint256",
          "name": "_spaceId",
          "type": "uint256"
        },
        {
          "internalType": "address",
          "name": "_address",
          "type": "address"
        }
      ],
      "name": "isAdminExternal",
      "outputs": [
        {
          "internalType": "bool",
          "name": "",
          "type": "bool"
        }
      ],
      "stateMutability": "view",
      "type": "function"
    },
    {
      "inputs": [
        {
          "internalType": "uint256",
          "name": "_spaceId",
          "type": "uint256"
        },
        {
          "internalType": "address",
          "name": "_address",
          "type": "address"
        }
      ],
      "name": "isFounderExternal",
      "outputs": [
        {
          "internalType": "bool",
          "name": "",
          "type": "bool"
        }
      ],
      "stateMutability": "view",
      "type": "function"
    },
    {
      "inputs": [
        {
          "internalType": "uint256",
          "name": "",
          "type": "uint256"
        }
      ],
      "name": "spaceSocials",
      "outputs": [
        {
          "internalType": "uint256",
          "name": "id",
          "type": "uint256"
        },
        {
          "internalType": "address",
          "name": "lensWallet",
          "type": "address"
        },
        {
          "internalType": "string",
          "name": "lensDefaultProfileId",
          "type": "string"
        }
      ],
      "stateMutability": "view",
      "type": "function"
    }
  ],
  "bytecode": "0x608060405234801561001057600080fd5b506040516108e23803806108e283398101604081905261002f91610054565b600180546001600160a01b0319166001600160a01b0392909216919091179055610084565b60006020828403121561006657600080fd5b81516001600160a01b038116811461007d57600080fd5b9392505050565b61084f806100936000396000f3fe608060405234801561001057600080fd5b50600436106100725760003560e01c80637d54b282116100505780637d54b282146100d7578063cd5b22a1146100fa578063d881072b1461010d57600080fd5b80631ff21a5314610077578063236170c31461008c57806373eeb046146100b5575b600080fd5b61008a6100853660046104ea565b610138565b005b61009f61009a3660046105b5565b61025e565b6040516100ac919061061e565b60405180910390f35b6100c86100c33660046105b5565b61034b565b6040516100ac9392919061065e565b6100ea6100e536600461068f565b610400565b60405190151581526020016100ac565b6100ea61010836600461068f565b61047e565b600154610120906001600160a01b031681565b6040516001600160a01b0390911681526020016100ac565b826101438133610400565b1580156101575750610155813361047e565b155b156101825760405163eae3129560e01b81526004810182905233602482015260440160405180910390fd5b604080516060810182528581526001600160a01b03858116602080840191825283850187815260008a8152918290529490208351815590516001820180547fffffffffffffffffffffffff000000000000000000000000000000000000000016919093161790915591519091829160028201906101ff9082610744565b505060405161021091508490610804565b6040519081900381206001600160a01b038616825290339087907f504f3bf66640a5751e055e5b79dce5a0e8e1f4fce8fd30bc5674ad16c816ff669060200160405180910390a45050505050565b604080516060808201835260008083526020830152918101919091526000828152602081815260409182902082516060810184528154815260018201546001600160a01b03169281019290925260028101805492939192918401916102c2906106bb565b80601f01602080910402602001604051908101604052809291908181526020018280546102ee906106bb565b801561033b5780601f106103105761010080835404028352916020019161033b565b820191906000526020600020905b81548152906001019060200180831161031e57829003601f168201915b5050505050815250509050919050565b60006020819052908152604090208054600182015460028301805492936001600160a01b039092169261037d906106bb565b80601f01602080910402602001604051908101604052809291908181526020018280546103a9906106bb565b80156103f65780601f106103cb576101008083540402835291602001916103f6565b820191906000526020600020905b8154815290600101906020018083116103d957829003601f168201915b5050505050905083565b600154604051633eaa594160e11b8152600481018490526001600160a01b0383811660248301526000921690637d54b282906044015b602060405180830381865afa158015610453573d6000803e3d6000fd5b505050506040513d601f19601f820116820180604052508101906104779190610820565b9392505050565b60015460405163cd5b22a160e01b8152600481018490526001600160a01b038381166024830152600092169063cd5b22a190604401610436565b80356001600160a01b03811681146104cf57600080fd5b919050565b634e487b7160e01b600052604160045260246000fd5b6000806000606084860312156104ff57600080fd5b8335925061050f602085016104b8565b9150604084013567ffffffffffffffff8082111561052c57600080fd5b818601915086601f83011261054057600080fd5b813581811115610552576105526104d4565b604051601f8201601f19908116603f0116810190838211818310171561057a5761057a6104d4565b8160405282815289602084870101111561059357600080fd5b8260208601602083013760006020848301015280955050505050509250925092565b6000602082840312156105c757600080fd5b5035919050565b60005b838110156105e95781810151838201526020016105d1565b50506000910152565b6000815180845261060a8160208601602086016105ce565b601f01601f19169290920160200192915050565b60208152815160208201526001600160a01b0360208301511660408201526000604083015160608084015261065660808401826105f2565b949350505050565b8381526001600160a01b038316602082015260606040820152600061068660608301846105f2565b95945050505050565b600080604083850312156106a257600080fd5b823591506106b2602084016104b8565b90509250929050565b600181811c908216806106cf57607f821691505b6020821081036106ef57634e487b7160e01b600052602260045260246000fd5b50919050565b601f82111561073f57600081815260208120601f850160051c8101602086101561071c5750805b601f850160051c820191505b8181101561073b57828155600101610728565b5050505b505050565b815167ffffffffffffffff81111561075e5761075e6104d4565b6107728161076c84546106bb565b846106f5565b602080601f8311600181146107a7576000841561078f5750858301515b600019600386901b1c1916600185901b17855561073b565b600085815260208120601f198616915b828110156107d6578886015182559484019460019091019084016107b7565b50858210156107f45787850151600019600388901b60f8161c191681555b5050505050600190811b01905550565b600082516108168184602087016105ce565b9190910192915050565b60006020828403121561083257600080fd5b8151801515811461047757600080fdfea164736f6c6343000811000a",
  "linkReferences": {},
  "deployedLinkReferences": {}
}