{
  "_format": "hh-sol-artifact-1",
  "contractName": "AppSocials",
  "sourceName": "contracts/app/AppSocials.sol",
  "abi": [
    {
      "inputs": [
        {
          "internalType": "address",
          "name": "_embraceSpacesAddress",
          "type": "address"
        }
      ],
      "stateMutability": "nonpayable",
      "type": "constructor"
    },
    {
      "inputs": [
        {
          "internalType": "uint256",
          "name": "spaceId",
          "type": "uint256"
        },
        {
          "internalType": "address",
          "name": "memberAddress",
          "type": "address"
        }
      ],
      "name": "ErrorOnlyAdmin",
      "type": "error"
    },
    {
      "anonymous": false,
      "inputs": [
        {
          "indexed": true,
          "internalType": "uint256",
          "name": "spaceId",
          "type": "uint256"
        },
        {
          "indexed": true,
          "internalType": "address",
          "name": "creator",
          "type": "address"
        },
        {
          "indexed": false,
          "internalType": "address",
          "name": "lensWallet",
          "type": "address"
        },
        {
          "indexed": true,
          "internalType": "string",
          "name": "lensDefaultProfileId",
          "type": "string"
        }
      ],
      "name": "SocialCreated",
      "type": "event"
    },
    {
      "inputs": [
        {
          "internalType": "uint256",
          "name": "_spaceId",
          "type": "uint256"
        },
        {
          "internalType": "address",
          "name": "_lensWallet",
          "type": "address"
        },
        {
          "internalType": "string",
          "name": "_lensDefaultProfileId",
          "type": "string"
        }
      ],
      "name": "createSocial",
      "outputs": [],
      "stateMutability": "nonpayable",
      "type": "function"
    },
    {
      "inputs": [],
      "name": "embraceSpacesAddress",
      "outputs": [
        {
          "internalType": "address",
          "name": "",
          "type": "address"
        }
      ],
      "stateMutability": "view",
      "type": "function"
    },
    {
      "inputs": [
        {
          "internalType": "uint256",
          "name": "_spaceId",
          "type": "uint256"
        }
      ],
      "name": "getSocial",
      "outputs": [
        {
          "components": [
            {
              "internalType": "uint256",
              "name": "id",
              "type": "uint256"
            },
            {
              "internalType": "address",
              "name": "lensWallet",
              "type": "address"
            },
            {
              "internalType": "string",
              "name": "lensDefaultProfileId",
              "type": "string"
            }
          ],
          "internalType": "struct AppSocials.Social",
          "name": "",
          "type": "tuple"
        }
      ],
      "stateMutability": "view",
      "type": "function"
    },
    {
      "inputs": [
        {
          "internalType": "uint256",
          "name": "_spaceId",
          "type": "uint256"
        },
        {
          "internalType": "address",
          "name": "_address",
          "type": "address"
        }
      ],
      "name": "isAdminExternal",
      "outputs": [
        {
          "internalType": "bool",
          "name": "",
          "type": "bool"
        }
      ],
      "stateMutability": "view",
      "type": "function"
    },
    {
      "inputs": [
        {
          "internalType": "uint256",
          "name": "_spaceId",
          "type": "uint256"
        },
        {
          "internalType": "address",
          "name": "_address",
          "type": "address"
        }
      ],
      "name": "isFounderExternal",
      "outputs": [
        {
          "internalType": "bool",
          "name": "",
          "type": "bool"
        }
      ],
      "stateMutability": "view",
      "type": "function"
    },
    {
      "inputs": [
        {
          "internalType": "uint256",
          "name": "",
          "type": "uint256"
        }
      ],
      "name": "spaceSocials",
      "outputs": [
        {
          "internalType": "uint256",
          "name": "id",
          "type": "uint256"
        },
        {
          "internalType": "address",
          "name": "lensWallet",
          "type": "address"
        },
        {
          "internalType": "string",
          "name": "lensDefaultProfileId",
          "type": "string"
        }
      ],
      "stateMutability": "view",
      "type": "function"
    }
  ],
  "bytecode": "0x60803461007457601f6107b338819003918201601f19168301916001600160401b038311848410176100795780849260209460405283398101031261007457516001600160a01b0381169081900361007457600180546001600160a01b03191691909117905560405161072390816100908239f35b600080fd5b634e487b7160e01b600052604160045260246000fdfe608060408181526004918236101561001657600080fd5b600092833560e01c9182631ff21a53146101e857508163236170c31461015057816373eeb046146100ee5781637d54b282146100c6578163cd5b22a114610092575063d881072b1461006757600080fd5b3461008e578160031936011261008e5760015490516001600160a01b039091168152602090f35b5080fd5b8284346100c357816003193601126100c357506100ba6020926100b361047f565b90356106c5565b90519015158152f35b80fd5b8284346100c357816003193601126100c357506100ba6020926100e761047f565b9035610647565b90503461014c57602036600319011261014c57918192358152806020522090610148825491606061012e600260018060a01b036001880154169601610570565b918051958695865260208601528401526060830190610511565b0390f35b8280fd5b8284346100c3576020928360031936011261008e5761014891839160608380516101798161049a565b84815284898201520152358152808552208251926101968461049a565b8154845260018201546001600160a01b03908116868601908152926101bd90600201610570565b9282860193845282519687968188525190870152511690840152516060808401526080830190610511565b8385913461014c57606036600319011261014c57833561020661047f565b6001600160401b03926044359084821161047b573660238301121561047b57818801359480861161046857602093601f19966102498689601f84011601856104cb565b80845285840194366024838301011161046457818b9260248993018837850101526102743387610647565b1580610453575b6104355790889188519761028e8961049a565b8789526002878a019960018060a01b038094169a8b81528c808301978989528c8152808c52209151825560019485830191511660018060a01b03198254161790550193519b8c5193841161042257506102e78454610536565b601f81116103e0575b508a9b8b98999a9b508791601f85116001146103665750928092819261034b989796956000805160206106f78339815191529b9461035b575b50501b916000199060031b1c19161790555b87519283928392519283916104ee565b810103902094519384523393a480f35b015192508e80610329565b9092949596979850831691858d52888d20928d5b8181106103cb57509161034b97959391856000805160206106f78339815191529b9a989694106103b2575b505050811b01905561033b565b015160001960f88460031b161c191690558c80806103a5565b82840151855593860193928a01928a0161037a565b848c52878c20601f850160051c810191898610610418575b601f0160051c01905b81811061040e57506102f0565b8c81558301610401565b90915081906103f8565b634e487b7160e01b8c526041905260248bfd5b875163eae3129560e01b81528061044f3389838f0161062e565b0390fd5b5061045e33876106c5565b1561027b565b8a80fd5b634e487b7160e01b885260418952602488fd5b8680fd5b602435906001600160a01b038216820361049557565b600080fd5b606081019081106001600160401b038211176104b557604052565b634e487b7160e01b600052604160045260246000fd5b601f909101601f19168101906001600160401b038211908210176104b557604052565b60005b8381106105015750506000910152565b81810151838201526020016104f1565b9060209161052a815180928185528580860191016104ee565b601f01601f1916010190565b90600182811c92168015610566575b602083101461055057565b634e487b7160e01b600052602260045260246000fd5b91607f1691610545565b906040519182600082549261058484610536565b9081845260019485811690816000146105f357506001146105b0575b50506105ae925003836104cb565b565b9093915060005260209081600020936000915b8183106105db5750506105ae935082010138806105a0565b855488840185015294850194879450918301916105c3565b9150506105ae94506020925060ff191682840152151560051b82010138806105a0565b90816020910312610495575180151581036104955790565b9081526001600160a01b03909116602082015260400190565b600154604051633eaa594160e11b81529260209284926001600160a01b03169183918291610678916004840161062e565b03915afa9081156106b95760009161068e575090565b6106af915060203d81116106b2575b6106a781836104cb565b810190610616565b90565b503d61069d565b6040513d6000823e3d90fd5b60015460405163cd5b22a160e01b81529260209284926001600160a01b03169183918291610678916004840161062e56fe504f3bf66640a5751e055e5b79dce5a0e8e1f4fce8fd30bc5674ad16c816ff66a164736f6c6343000811000a",
  "linkReferences": {},
  "deployedLinkReferences": {}
}