{
  "_format": "hh-sol-artifact-1",
  "contractName": "EmbraceApps",
  "sourceName": "contracts/EmbraceApps.sol",
  "abi": [
    {
      "inputs": [],
      "stateMutability": "nonpayable",
      "type": "constructor"
    },
    {
      "inputs": [
        {
          "internalType": "uint256",
          "name": "",
          "type": "uint256"
        }
      ],
      "name": "apps",
      "outputs": [
        {
          "internalType": "bytes32",
          "name": "code",
          "type": "bytes32"
        },
        {
          "internalType": "address",
          "name": "contractAddress",
          "type": "address"
        },
        {
          "internalType": "bool",
          "name": "enabled",
          "type": "bool"
        },
        {
          "internalType": "string",
          "name": "metadata",
          "type": "string"
        }
      ],
      "stateMutability": "view",
      "type": "function"
    },
    {
      "inputs": [
        {
          "internalType": "bytes32",
          "name": "_code",
          "type": "bytes32"
        },
        {
          "internalType": "address",
          "name": "_contractAddress",
          "type": "address"
        },
        {
          "internalType": "bool",
          "name": "_enabled",
          "type": "bool"
        },
        {
          "internalType": "string",
          "name": "_metadata",
          "type": "string"
        }
      ],
      "name": "createApp",
      "outputs": [],
      "stateMutability": "nonpayable",
      "type": "function"
    },
    {
      "inputs": [
        {
          "internalType": "bytes32",
          "name": "_code",
          "type": "bytes32"
        }
      ],
      "name": "getAppByCode",
      "outputs": [
        {
          "components": [
            {
              "internalType": "bytes32",
              "name": "code",
              "type": "bytes32"
            },
            {
              "internalType": "address",
              "name": "contractAddress",
              "type": "address"
            },
            {
              "internalType": "bool",
              "name": "enabled",
              "type": "bool"
            },
            {
              "internalType": "string",
              "name": "metadata",
              "type": "string"
            }
          ],
          "internalType": "struct EmbraceApps.App",
          "name": "",
          "type": "tuple"
        }
      ],
      "stateMutability": "view",
      "type": "function"
    },
    {
      "inputs": [
        {
          "internalType": "uint256",
          "name": "_appIndex",
          "type": "uint256"
        }
      ],
      "name": "getAppByIndex",
      "outputs": [
        {
          "components": [
            {
              "internalType": "bytes32",
              "name": "code",
              "type": "bytes32"
            },
            {
              "internalType": "address",
              "name": "contractAddress",
              "type": "address"
            },
            {
              "internalType": "bool",
              "name": "enabled",
              "type": "bool"
            },
            {
              "internalType": "string",
              "name": "metadata",
              "type": "string"
            }
          ],
          "internalType": "struct EmbraceApps.App",
          "name": "",
          "type": "tuple"
        }
      ],
      "stateMutability": "view",
      "type": "function"
    },
    {
      "inputs": [],
      "name": "getApps",
      "outputs": [
        {
          "components": [
            {
              "internalType": "bytes32",
              "name": "code",
              "type": "bytes32"
            },
            {
              "internalType": "address",
              "name": "contractAddress",
              "type": "address"
            },
            {
              "internalType": "bool",
              "name": "enabled",
              "type": "bool"
            },
            {
              "internalType": "string",
              "name": "metadata",
              "type": "string"
            }
          ],
          "internalType": "struct EmbraceApps.App[]",
          "name": "",
          "type": "tuple[]"
        }
      ],
      "stateMutability": "view",
      "type": "function"
    },
    {
      "inputs": [],
      "name": "owner",
      "outputs": [
        {
          "internalType": "address",
          "name": "",
          "type": "address"
        }
      ],
      "stateMutability": "view",
      "type": "function"
    },
    {
      "inputs": [
        {
          "internalType": "bytes32",
          "name": "_code",
          "type": "bytes32"
        },
        {
          "internalType": "address",
          "name": "_contractAddress",
          "type": "address"
        }
      ],
      "name": "setAppContractAddress",
      "outputs": [],
      "stateMutability": "nonpayable",
      "type": "function"
    },
    {
      "inputs": [
        {
          "internalType": "uint256",
          "name": "_appIndex",
          "type": "uint256"
        },
        {
          "internalType": "string",
          "name": "_newMetadata",
          "type": "string"
        }
      ],
      "name": "updateMetadata",
      "outputs": [
        {
          "components": [
            {
              "internalType": "bytes32",
              "name": "code",
              "type": "bytes32"
            },
            {
              "internalType": "address",
              "name": "contractAddress",
              "type": "address"
            },
            {
              "internalType": "bool",
              "name": "enabled",
              "type": "bool"
            },
            {
              "internalType": "string",
              "name": "metadata",
              "type": "string"
            }
          ],
          "internalType": "struct EmbraceApps.App",
          "name": "",
          "type": "tuple"
        }
      ],
      "stateMutability": "nonpayable",
      "type": "function"
    }
  ],
  "bytecode": "0x60806040526000805534801561001457600080fd5b50600380546001600160a01b0319163317905561105c806100366000396000f3fe608060405234801561001057600080fd5b50600436106100885760003560e01c80638da5cb5b1161005b5780638da5cb5b146100ff578063ac18ba631461012a578063d66d756d1461013f578063ed2a90581461015457600080fd5b806323797ed91461008d5780633388c8b6146100b657806353c8388e146100c957806361acc37e146100dc575b600080fd5b6100a061009b366004610ba0565b610167565b6040516100ad9190610c45565b60405180910390f35b6100a06100c4366004610ba0565b610287565b6100a06100d7366004610d02565b61043e565b6100ef6100ea366004610ba0565b6105d3565b6040516100ad9493929190610d49565b600354610112906001600160a01b031681565b6040516001600160a01b0390911681526020016100ad565b61013d610138366004610d9f565b6106a6565b005b6101476107a4565b6040516100ad9190610dcb565b61013d610162366004610e2d565b6108c9565b60408051608081018252600080825260208201819052918101919091526060808201526001828154811061019d5761019d610e9c565b6000918252602091829020604080516080810182526003939093029091018054835260018101546001600160a01b03811694840194909452600160a01b90930460ff161515908201526002820180549192916060840191906101fe90610eb2565b80601f016020809104026020016040519081016040528092919081815260200182805461022a90610eb2565b80156102775780601f1061024c57610100808354040283529160200191610277565b820191906000526020600020905b81548152906001019060200180831161025a57829003601f168201915b5050505050815250509050919050565b60408051608081018252600080825260208201819052918101829052606080820152905b6001548110156103f05782600182815481106102c9576102c9610e9c565b906000526020600020906003020160000154036103de57600181815481106102f3576102f3610e9c565b6000918252602091829020604080516080810182526003939093029091018054835260018101546001600160a01b03811694840194909452600160a01b90930460ff1615159082015260028201805491929160608401919061035490610eb2565b80601f016020809104026020016040519081016040528092919081815260200182805461038090610eb2565b80156103cd5780601f106103a2576101008083540402835291602001916103cd565b820191906000526020600020905b8154815290600101906020018083116103b057829003601f168201915b505050505081525050915050919050565b806103e881610eec565b9150506102ab565b5060405162461bcd60e51b815260206004820152600c60248201527f4e6f2061707020666f756e64000000000000000000000000000000000000000060448201526064015b60405180910390fd5b60408051608081018252600080825260208201819052918101919091526060808201526003546001600160a01b031633146104c65760405162461bcd60e51b815260206004820152602260248201527f4f6e6c79206f776e65722063616e2063616c6c20746869732066756e6374696f604482015261371760f11b6064820152608401610435565b6000600184815481106104db576104db610e9c565b90600052602060002090600302019050828160020190816104fc9190610f61565b50604080516080810182528254815260018301546001600160a01b0381166020830152600160a01b900460ff161515918101919091526002820180548391606084019161054890610eb2565b80601f016020809104026020016040519081016040528092919081815260200182805461057490610eb2565b80156105c15780601f10610596576101008083540402835291602001916105c1565b820191906000526020600020905b8154815290600101906020018083116105a457829003601f168201915b50505050508152505091505092915050565b600181815481106105e357600080fd5b60009182526020909120600390910201805460018201546002830180549294506001600160a01b03821693600160a01b90920460ff169261062390610eb2565b80601f016020809104026020016040519081016040528092919081815260200182805461064f90610eb2565b801561069c5780601f106106715761010080835404028352916020019161069c565b820191906000526020600020905b81548152906001019060200180831161067f57829003601f168201915b5050505050905084565b6003546001600160a01b0316331461070b5760405162461bcd60e51b815260206004820152602260248201527f4f6e6c79206f776e65722063616e2063616c6c20746869732066756e6374696f604482015261371760f11b6064820152608401610435565b60005b60015481101561079f57826001828154811061072c5761072c610e9c565b9060005260206000209060030201600001540361078d57816001828154811061075757610757610e9c565b906000526020600020906003020160010160006101000a8154816001600160a01b0302191690836001600160a01b031602179055505b8061079781610eec565b91505061070e565b505050565b60606001805480602002602001604051908101604052809291908181526020016000905b828210156108c057600084815260209081902060408051608081018252600386029092018054835260018101546001600160a01b03811694840194909452600160a01b90930460ff1615159082015260028201805491929160608401919061082f90610eb2565b80601f016020809104026020016040519081016040528092919081815260200182805461085b90610eb2565b80156108a85780601f1061087d576101008083540402835291602001916108a8565b820191906000526020600020905b81548152906001019060200180831161088b57829003601f168201915b505050505081525050815260200190600101906107c8565b50505050905090565b6003546001600160a01b0316331461092e5760405162461bcd60e51b815260206004820152602260248201527f4f6e6c79206f776e65722063616e2063616c6c20746869732066756e6374696f604482015261371760f11b6064820152608401610435565b8360005b6001548110156109c157816001828154811061095057610950610e9c565b906000526020600020906003020160000154036109af5760405162461bcd60e51b815260206004820152601860248201527f41707020636f646520616c7265616479206578697374732e00000000000000006044820152606401610435565b806109b981610eec565b915050610932565b50610a016040518060400160405280600881526020017f6d6574616461746100000000000000000000000000000000000000000000000081525083610b21565b604080516080810182528681526001600160a01b038087166020830190815286151593830193845260608301868152600180548082018255600091909152845160039091027fb10e2d527612073b26eecdfd717e6a320cf44b4afac2b0732d9fcbe2b7fa0cf6810191825592517fb10e2d527612073b26eecdfd717e6a320cf44b4afac2b0732d9fcbe2b7fa0cf78401805497511515600160a01b027fffffffffffffffffffffff00000000000000000000000000000000000000000090981691909516179590951790925590519192839290917fb10e2d527612073b26eecdfd717e6a320cf44b4afac2b0732d9fcbe2b7fa0cf80190610b029082610f61565b505060008054915080610b1483610eec565b9190505550505050505050565b610b7b8282604051602401610b37929190611021565b60408051601f198184030181529190526020810180517bffffffffffffffffffffffffffffffffffffffffffffffffffffffff16634b5c427760e01b179052610b7f565b5050565b80516a636f6e736f6c652e6c6f67602083016000808483855afa5050505050565b600060208284031215610bb257600080fd5b5035919050565b6000815180845260005b81811015610bdf57602081850181015186830182015201610bc3565b506000602082860101526020601f19601f83011685010191505092915050565b805182526001600160a01b0360208201511660208301526040810151151560408301526000606082015160806060850152610c3d6080850182610bb9565b949350505050565b602081526000610c586020830184610bff565b9392505050565b634e487b7160e01b600052604160045260246000fd5b600082601f830112610c8657600080fd5b813567ffffffffffffffff80821115610ca157610ca1610c5f565b604051601f8301601f19908116603f01168101908282118183101715610cc957610cc9610c5f565b81604052838152866020858801011115610ce257600080fd5b836020870160208301376000602085830101528094505050505092915050565b60008060408385031215610d1557600080fd5b82359150602083013567ffffffffffffffff811115610d3357600080fd5b610d3f85828601610c75565b9150509250929050565b8481526001600160a01b03841660208201528215156040820152608060608201526000610d796080830184610bb9565b9695505050505050565b80356001600160a01b0381168114610d9a57600080fd5b919050565b60008060408385031215610db257600080fd5b82359150610dc260208401610d83565b90509250929050565b6000602080830181845280855180835260408601915060408160051b870101925083870160005b82811015610e2057603f19888603018452610e0e858351610bff565b94509285019290850190600101610df2565b5092979650505050505050565b60008060008060808587031215610e4357600080fd5b84359350610e5360208601610d83565b925060408501358015158114610e6857600080fd5b9150606085013567ffffffffffffffff811115610e8457600080fd5b610e9087828801610c75565b91505092959194509250565b634e487b7160e01b600052603260045260246000fd5b600181811c90821680610ec657607f821691505b602082108103610ee657634e487b7160e01b600052602260045260246000fd5b50919050565b600060018201610f0c57634e487b7160e01b600052601160045260246000fd5b5060010190565b601f82111561079f57600081815260208120601f850160051c81016020861015610f3a5750805b601f850160051c820191505b81811015610f5957828155600101610f46565b505050505050565b815167ffffffffffffffff811115610f7b57610f7b610c5f565b610f8f81610f898454610eb2565b84610f13565b602080601f831160018114610fc45760008415610fac5750858301515b600019600386901b1c1916600185901b178555610f59565b600085815260208120601f198616915b82811015610ff357888601518255948401946001909101908401610fd4565b50858210156110115787850151600019600388901b60f8161c191681555b5050505050600190811b01905550565b6040815260006110346040830185610bb9565b82810360208401526110468185610bb9565b9594505050505056fea164736f6c6343000811000a",
  "linkReferences": {},
  "deployedLinkReferences": {}
}