{
  "_format": "hh-sol-artifact-1",
  "contractName": "EmbraceSpaces",
  "sourceName": "contracts/EmbraceSpaces.sol",
  "abi": [
    {
      "inputs": [
        {
          "internalType": "uint256",
          "name": "_spaceIndex",
          "type": "uint256"
        },
        {
          "internalType": "uint256",
          "name": "_appIndex",
          "type": "uint256"
        }
      ],
      "name": "addApp",
      "outputs": [],
      "stateMutability": "nonpayable",
      "type": "function"
    },
    {
      "inputs": [
        {
          "internalType": "uint256",
          "name": "_spaceIndex",
          "type": "uint256"
        },
        {
          "internalType": "address",
          "name": "_admin",
          "type": "address"
        }
      ],
      "name": "addSpaceAdmin",
      "outputs": [],
      "stateMutability": "nonpayable",
      "type": "function"
    },
    {
      "inputs": [
        {
          "internalType": "uint256",
          "name": "_spaceIndex",
          "type": "uint256"
        },
        {
          "internalType": "address",
          "name": "_member",
          "type": "address"
        }
      ],
      "name": "addSpaceMember",
      "outputs": [],
      "stateMutability": "nonpayable",
      "type": "function"
    },
    {
      "inputs": [
        {
          "internalType": "bytes32",
          "name": "_handle",
          "type": "bytes32"
        },
        {
          "internalType": "enum EmbraceSpaces.Visibility",
          "name": "_visibility",
          "type": "uint8"
        },
        {
          "internalType": "uint256[]",
          "name": "_apps",
          "type": "uint256[]"
        },
        {
          "internalType": "string",
          "name": "_metadata",
          "type": "string"
        },
        {
          "internalType": "string",
          "name": "_passstring",
          "type": "string"
        }
      ],
      "name": "createSpace",
      "outputs": [],
      "stateMutability": "nonpayable",
      "type": "function"
    },
    {
      "inputs": [
        {
          "internalType": "bytes32",
          "name": "_handle",
          "type": "bytes32"
        }
      ],
      "name": "getIdFromHandle",
      "outputs": [
        {
          "internalType": "uint256",
          "name": "",
          "type": "uint256"
        }
      ],
      "stateMutability": "view",
      "type": "function"
    },
    {
      "inputs": [
        {
          "internalType": "uint256",
          "name": "_spaceIndex",
          "type": "uint256"
        }
      ],
      "name": "getSpace",
      "outputs": [
        {
          "components": [
            {
              "internalType": "bytes32",
              "name": "handle",
              "type": "bytes32"
            },
            {
              "internalType": "enum EmbraceSpaces.Visibility",
              "name": "visibility",
              "type": "uint8"
            },
            {
              "internalType": "uint256[]",
              "name": "apps",
              "type": "uint256[]"
            },
            {
              "internalType": "string",
              "name": "metadata",
              "type": "string"
            },
            {
              "internalType": "address",
              "name": "founder",
              "type": "address"
            },
            {
              "internalType": "bytes32",
              "name": "passcode",
              "type": "bytes32"
            }
          ],
          "internalType": "struct EmbraceSpaces.Space",
          "name": "",
          "type": "tuple"
        }
      ],
      "stateMutability": "view",
      "type": "function"
    },
    {
      "inputs": [],
      "name": "getSpaces",
      "outputs": [
        {
          "components": [
            {
              "internalType": "bytes32",
              "name": "handle",
              "type": "bytes32"
            },
            {
              "internalType": "enum EmbraceSpaces.Visibility",
              "name": "visibility",
              "type": "uint8"
            },
            {
              "internalType": "uint256[]",
              "name": "apps",
              "type": "uint256[]"
            },
            {
              "internalType": "string",
              "name": "metadata",
              "type": "string"
            },
            {
              "internalType": "address",
              "name": "founder",
              "type": "address"
            },
            {
              "internalType": "bytes32",
              "name": "passcode",
              "type": "bytes32"
            }
          ],
          "internalType": "struct EmbraceSpaces.Space[]",
          "name": "",
          "type": "tuple[]"
        }
      ],
      "stateMutability": "view",
      "type": "function"
    },
    {
      "inputs": [
        {
          "internalType": "uint256",
          "name": "_spaceIndex",
          "type": "uint256"
        }
      ],
      "name": "isAdmin",
      "outputs": [
        {
          "internalType": "bool",
          "name": "",
          "type": "bool"
        }
      ],
      "stateMutability": "view",
      "type": "function"
    },
    {
      "inputs": [
        {
          "internalType": "uint256",
          "name": "_spaceIndex",
          "type": "uint256"
        }
      ],
      "name": "isFounder",
      "outputs": [
        {
          "internalType": "bool",
          "name": "",
          "type": "bool"
        }
      ],
      "stateMutability": "view",
      "type": "function"
    },
    {
      "inputs": [
        {
          "internalType": "uint256",
          "name": "_spaceIndex",
          "type": "uint256"
        }
      ],
      "name": "joinPublicSpace",
      "outputs": [
        {
          "internalType": "bool",
          "name": "",
          "type": "bool"
        }
      ],
      "stateMutability": "nonpayable",
      "type": "function"
    },
    {
      "inputs": [
        {
          "internalType": "uint256",
          "name": "_spaceIndex",
          "type": "uint256"
        },
        {
          "internalType": "string",
          "name": "_passstring",
          "type": "string"
        }
      ],
      "name": "joinRestrictedSpace",
      "outputs": [],
      "stateMutability": "nonpayable",
      "type": "function"
    },
    {
      "inputs": [
        {
          "internalType": "uint256",
          "name": "_spaceIndex",
          "type": "uint256"
        },
        {
          "internalType": "uint256",
          "name": "_appIndex",
          "type": "uint256"
        }
      ],
      "name": "removeApp",
      "outputs": [],
      "stateMutability": "nonpayable",
      "type": "function"
    },
    {
      "inputs": [
        {
          "internalType": "uint256",
          "name": "",
          "type": "uint256"
        }
      ],
      "name": "spaceAdminLength",
      "outputs": [
        {
          "internalType": "uint256",
          "name": "",
          "type": "uint256"
        }
      ],
      "stateMutability": "view",
      "type": "function"
    },
    {
      "inputs": [
        {
          "internalType": "uint256",
          "name": "",
          "type": "uint256"
        },
        {
          "internalType": "address",
          "name": "",
          "type": "address"
        }
      ],
      "name": "spaceAdmins",
      "outputs": [
        {
          "internalType": "bool",
          "name": "",
          "type": "bool"
        }
      ],
      "stateMutability": "view",
      "type": "function"
    },
    {
      "inputs": [
        {
          "internalType": "bytes32",
          "name": "",
          "type": "bytes32"
        }
      ],
      "name": "spaceHandles",
      "outputs": [
        {
          "internalType": "uint256",
          "name": "",
          "type": "uint256"
        }
      ],
      "stateMutability": "view",
      "type": "function"
    },
    {
      "inputs": [
        {
          "internalType": "uint256",
          "name": "",
          "type": "uint256"
        }
      ],
      "name": "spaceMemberLength",
      "outputs": [
        {
          "internalType": "uint256",
          "name": "",
          "type": "uint256"
        }
      ],
      "stateMutability": "view",
      "type": "function"
    },
    {
      "inputs": [
        {
          "internalType": "uint256",
          "name": "",
          "type": "uint256"
        },
        {
          "internalType": "address",
          "name": "",
          "type": "address"
        }
      ],
      "name": "spaceMembers",
      "outputs": [
        {
          "internalType": "bool",
          "name": "",
          "type": "bool"
        }
      ],
      "stateMutability": "view",
      "type": "function"
    },
    {
      "inputs": [
        {
          "internalType": "uint256",
          "name": "",
          "type": "uint256"
        }
      ],
      "name": "spaces",
      "outputs": [
        {
          "internalType": "bytes32",
          "name": "handle",
          "type": "bytes32"
        },
        {
          "internalType": "enum EmbraceSpaces.Visibility",
          "name": "visibility",
          "type": "uint8"
        },
        {
          "internalType": "string",
          "name": "metadata",
          "type": "string"
        },
        {
          "internalType": "address",
          "name": "founder",
          "type": "address"
        },
        {
          "internalType": "bytes32",
          "name": "passcode",
          "type": "bytes32"
        }
      ],
      "stateMutability": "view",
      "type": "function"
    }
  ],
  "bytecode": "0x6080604052600160005534801561001557600080fd5b50611916806100256000396000f3fe608060405234801561001057600080fd5b50600436106101365760003560e01c806385fe80c9116100b2578063af41f22a11610081578063e08a158511610066578063e08a15851461030b578063e3aa3ecc1461031e578063f71771281461033157600080fd5b8063af41f22a146102ca578063d16393db146102f857600080fd5b806385fe80c9146102565780638eb6a424146102765780639d26c7d5146102a4578063a303cf8e146102b757600080fd5b80633a6eb9551161010957806370e10431116100ee57806370e10431146101ff5780637586353b1461021f57806376c0220a1461024357600080fd5b80633a6eb955146101ca5780633e3579f0146101ea57600080fd5b806315478ca91461013b5780631f6dc437146101595780633254c1f61461017c57806333d7ae40146101aa575b600080fd5b610143610344565b6040516101509190611424565b60405180910390f35b61016c610167366004611486565b6104f3565b6040519015158152602001610150565b61019c61018a366004611486565b60066020526000908152604090205481565b604051908152602001610150565b61019c6101b8366004611486565b60036020526000908152604090205481565b61019c6101d8366004611486565b60009081526006602052604090205490565b6101fd6101f836600461149f565b610529565b005b61021261020d366004611486565b6105b5565b60405161015091906114db565b61023261022d366004611486565b61076d565b6040516101509594939291906114f5565b6101fd6102513660046115ef565b610846565b61019c610264366004611486565b60056020526000908152604090205481565b61016c61028436600461149f565b600460209081526000928352604080842090915290825290205460ff1681565b6101fd6102b23660046116fe565b610a44565b61016c6102c5366004611486565b610c7d565b61016c6102d836600461149f565b600260209081526000928352604080842090915290825290205460ff1681565b6101fd610306366004611745565b610e09565b6101fd61031936600461149f565b610ecd565b61016c61032c366004611486565b610f55565b6101fd61033f366004611745565b6111a4565b60606001805480602002602001604051908101604052809291908181526020016000905b828210156104ea57838290600052602060002090600602016040518060c0016040529081600082015481526020016001820160009054906101000a900460ff1660028111156103b9576103b96112ef565b60028111156103ca576103ca6112ef565b81526020016002820180548060200260200160405190810160405280929190818152602001828054801561041d57602002820191906000526020600020905b815481526020019060010190808311610409575b5050505050815260200160038201805461043690611767565b80601f016020809104026020016040519081016040528092919081815260200182805461046290611767565b80156104af5780601f10610484576101008083540402835291602001916104af565b820191906000526020600020905b81548152906001019060200180831161049257829003601f168201915b505050918352505060048201546001600160a01b03166020808301919091526005909201546040909101529082526001929092019101610368565b50505050905090565b600081815260046020908152604080832033845290915281205460ff16151560010361052157506001919050565b506000919050565b8161053381610c7d565b6105845760405162461bcd60e51b815260206004820152600c60248201527f4f6e6c7920666f756e646572000000000000000000000000000000000000000060448201526064015b60405180910390fd5b5060009182526004602090815260408084206001600160a01b0390931684529190529020805460ff19166001179055565b6105f06040805160c0810190915260008082526020820190815260606020820181905260408201819052600090820181905260809091015290565b60018281548110610603576106036117a1565b90600052602060002090600602016040518060c0016040529081600082015481526020016001820160009054906101000a900460ff16600281111561064a5761064a6112ef565b600281111561065b5761065b6112ef565b8152602001600282018054806020026020016040519081016040528092919081815260200182805480156106ae57602002820191906000526020600020905b81548152602001906001019080831161069a575b505050505081526020016003820180546106c790611767565b80601f01602080910402602001604051908101604052809291908181526020018280546106f390611767565b80156107405780601f1061071557610100808354040283529160200191610740565b820191906000526020600020905b81548152906001019060200180831161072357829003601f168201915b505050918352505060048201546001600160a01b0316602082015260059091015460409091015292915050565b6001818154811061077d57600080fd5b600091825260209091206006909102018054600182015460038301805492945060ff90911692916107ad90611767565b80601f01602080910402602001604051908101604052809291908181526020018280546107d990611767565b80156108265780601f106107fb57610100808354040283529160200191610826565b820191906000526020600020905b81548152906001019060200180831161080957829003601f168201915b50505050600483015460059093015491926001600160a01b031691905085565b600085815260066020526040902054156108a25760405162461bcd60e51b815260206004820152601560248201527f48616e646c6520616c7265616479206578697374730000000000000000000000604482015260640161057b565b60006040518060c001604052808781526020018660028111156108c7576108c76112ef565b8152602001858152602001848152602001336001600160a01b03168152602001836040516020016108f891906117b7565b60408051601f1981840301815291905280516020918201209091526001805480820182556000829052835160069091027fb10e2d527612073b26eecdfd717e6a320cf44b4afac2b0732d9fcbe2b7fa0cf68101918255928401517fb10e2d527612073b26eecdfd717e6a320cf44b4afac2b0732d9fcbe2b7fa0cf790930180549495508594919392909160ff191690836002811115610999576109996112ef565b0217905550604082015180516109b991600284019160209091019061128f565b50606082015160038201906109ce9082611822565b5060808201516004820180547fffffffffffffffffffffffff0000000000000000000000000000000000000000166001600160a01b0390921691909117905560a090910151600590910155600080548782526006602052604082208190559080610a37836118e2565b9190505550505050505050565b600060018381548110610a5957610a596117a1565b90600052602060002090600602016040518060c0016040529081600082015481526020016001820160009054906101000a900460ff166002811115610aa057610aa06112ef565b6002811115610ab157610ab16112ef565b815260200160028201805480602002602001604051908101604052809291908181526020018280548015610b0457602002820191906000526020600020905b815481526020019060010190808311610af0575b50505050508152602001600382018054610b1d90611767565b80601f0160208091040260200160405190810160405280929190818152602001828054610b4990611767565b8015610b965780601f10610b6b57610100808354040283529160200191610b96565b820191906000526020600020905b815481529060010190602001808311610b7957829003601f168201915b505050918352505060048201546001600160a01b031660208083019190915260059092015460409182015251919250610bd1918491016117b7565b604051602081830303815290604052805190602001208160a0015114610c395760405162461bcd60e51b815260206004820152601760248201527f57726f6e672070617373636f64652070726f7669646564000000000000000000604482015260640161057b565b60008381526002602090815260408083203384528252808320805460ff1916600117905585835260039091528120805491610c73836118e2565b9190505550505050565b60008060018381548110610c9357610c936117a1565b90600052602060002090600602016040518060c0016040529081600082015481526020016001820160009054906101000a900460ff166002811115610cda57610cda6112ef565b6002811115610ceb57610ceb6112ef565b815260200160028201805480602002602001604051908101604052809291908181526020018280548015610d3e57602002820191906000526020600020905b815481526020019060010190808311610d2a575b50505050508152602001600382018054610d5790611767565b80601f0160208091040260200160405190810160405280929190818152602001828054610d8390611767565b8015610dd05780601f10610da557610100808354040283529160200191610dd0565b820191906000526020600020905b815481529060010190602001808311610db357829003601f168201915b505050918352505060048201546001600160a01b0390811660208301526005909201546040909101526080909101511633149392505050565b81610e13816104f3565b80610e225750610e2281610c7d565b610e605760405162461bcd60e51b815260206004820152600f60248201526e27b7363c9020b236b4b7103ab9b2b960891b604482015260640161057b565b600060018481548110610e7557610e756117a1565b90600052602060002090600602019050806002018381548110610e9a57610e9a6117a1565b9060005260206000200154600003610ec75760028101805460018101825560009182526020909120018390555b50505050565b81610ed7816104f3565b80610ee65750610ee681610c7d565b610f245760405162461bcd60e51b815260206004820152600f60248201526e27b7363c9020b236b4b7103ab9b2b960891b604482015260640161057b565b5060009182526002602090815260408084206001600160a01b0390931684529190529020805460ff19166001179055565b60008060018381548110610f6b57610f6b6117a1565b90600052602060002090600602016040518060c0016040529081600082015481526020016001820160009054906101000a900460ff166002811115610fb257610fb26112ef565b6002811115610fc357610fc36112ef565b81526020016002820180548060200260200160405190810160405280929190818152602001828054801561101657602002820191906000526020600020905b815481526020019060010190808311611002575b5050505050815260200160038201805461102f90611767565b80601f016020809104026020016040519081016040528092919081815260200182805461105b90611767565b80156110a85780601f1061107d576101008083540402835291602001916110a8565b820191906000526020600020905b81548152906001019060200180831161108b57829003601f168201915b505050918352505060048201546001600160a01b0316602082015260059091015460409091015290506000816020015160028111156110e9576110e96112ef565b1461115c5760405162461bcd60e51b815260206004820152602d60248201527f43616e6e6f74206a6f696e20726573747269637465642073706163652077697460448201527f686f75742070617373636f646500000000000000000000000000000000000000606482015260840161057b565b60008381526002602090815260408083203384528252808320805460ff1916600117905585835260039091528120805491611196836118e2565b909155506001949350505050565b816111ae816104f3565b806111bd57506111bd81610c7d565b6111fb5760405162461bcd60e51b815260206004820152600f60248201526e27b7363c9020b236b4b7103ab9b2b960891b604482015260640161057b565b600060018481548110611210576112106117a1565b9060005260206000209060060201905060005b60028201548110156112885783826002018281548110611245576112456117a1565b9060005260206000200154036112765781600201818154811061126a5761126a6117a1565b60009182526020822001555b80611280816118e2565b915050611223565b5050505050565b8280548282559060005260206000209081019282156112ca579160200282015b828111156112ca5782518255916020019190600101906112af565b506112d69291506112da565b5090565b5b808211156112d657600081556001016112db565b634e487b7160e01b600052602160045260246000fd5b6003811061132357634e487b7160e01b600052602160045260246000fd5b9052565b60005b8381101561134257818101518382015260200161132a565b50506000910152565b60008151808452611363816020860160208601611327565b601f01601f19169290920160200192915050565b600060c083018251845260208084015161139382870182611305565b50604084015160c0604087015282815180855260e0880191508383019450600092505b808310156113d657845182529383019360019290920191908301906113b6565b506060860151935086810360608801526113f0818561134b565b9350505050608083015161140f60808601826001600160a01b03169052565b5060a083015160a08501528091505092915050565b6000602080830181845280855180835260408601915060408160051b870101925083870160005b8281101561147957603f19888603018452611467858351611377565b9450928501929085019060010161144b565b5092979650505050505050565b60006020828403121561149857600080fd5b5035919050565b600080604083850312156114b257600080fd5b8235915060208301356001600160a01b03811681146114d057600080fd5b809150509250929050565b6020815260006114ee6020830184611377565b9392505050565b8581526115056020820186611305565b60a06040820152600061151b60a083018661134b565b6001600160a01b0394909416606083015250608001529392505050565b634e487b7160e01b600052604160045260246000fd5b604051601f8201601f1916810167ffffffffffffffff8111828210171561157757611577611538565b604052919050565b600082601f83011261159057600080fd5b813567ffffffffffffffff8111156115aa576115aa611538565b6115bd601f8201601f191660200161154e565b8181528460208386010111156115d257600080fd5b816020850160208301376000918101602001919091529392505050565b600080600080600060a0868803121561160757600080fd5b853594506020808701356003811061161e57600080fd5b9450604087013567ffffffffffffffff8082111561163b57600080fd5b818901915089601f83011261164f57600080fd5b81358181111561166157611661611538565b8060051b61167085820161154e565b918252838101850191858101908d84111561168a57600080fd5b948601945b838610156116a85785358252948601949086019061168f565b985050505060608901359250808311156116c157600080fd5b6116cd8a848b0161157f565b945060808901359250808311156116e357600080fd5b50506116f18882890161157f565b9150509295509295909350565b6000806040838503121561171157600080fd5b82359150602083013567ffffffffffffffff81111561172f57600080fd5b61173b8582860161157f565b9150509250929050565b6000806040838503121561175857600080fd5b50508035926020909101359150565b600181811c9082168061177b57607f821691505b60208210810361179b57634e487b7160e01b600052602260045260246000fd5b50919050565b634e487b7160e01b600052603260045260246000fd5b600082516117c9818460208701611327565b9190910192915050565b601f82111561181d57600081815260208120601f850160051c810160208610156117fa5750805b601f850160051c820191505b8181101561181957828155600101611806565b5050505b505050565b815167ffffffffffffffff81111561183c5761183c611538565b6118508161184a8454611767565b846117d3565b602080601f831160018114611885576000841561186d5750858301515b600019600386901b1c1916600185901b178555611819565b600085815260208120601f198616915b828110156118b457888601518255948401946001909101908401611895565b50858210156118d25787850151600019600388901b60f8161c191681555b5050505050600190811b01905550565b60006001820161190257634e487b7160e01b600052601160045260246000fd5b506001019056fea164736f6c6343000811000a",
  "linkReferences": {},
  "deployedLinkReferences": {}
}