{
  "_format": "hh-sol-artifact-1",
  "contractName": "EmbraceSpaces",
  "sourceName": "contracts/EmbraceSpaces.sol",
  "abi": [
    {
      "inputs": [
        {
          "internalType": "address",
          "name": "_accountsAddress",
          "type": "address"
        }
      ],
      "stateMutability": "nonpayable",
      "type": "constructor"
    },
    {
      "inputs": [
        {
          "internalType": "uint256",
          "name": "_spaceIndex",
          "type": "uint256"
        },
        {
          "internalType": "address",
          "name": "_address",
          "type": "address"
        }
      ],
      "name": "addAdmin",
      "outputs": [],
      "stateMutability": "nonpayable",
      "type": "function"
    },
    {
      "inputs": [
        {
          "internalType": "uint256",
          "name": "_spaceIndex",
          "type": "uint256"
        },
        {
          "internalType": "uint128",
          "name": "_appIndex",
          "type": "uint128"
        }
      ],
      "name": "addApp",
      "outputs": [],
      "stateMutability": "nonpayable",
      "type": "function"
    },
    {
      "inputs": [
        {
          "internalType": "uint256",
          "name": "_spaceIndex",
          "type": "uint256"
        },
        {
          "internalType": "address",
          "name": "_address",
          "type": "address"
        }
      ],
      "name": "addMember",
      "outputs": [],
      "stateMutability": "nonpayable",
      "type": "function"
    },
    {
      "inputs": [
        {
          "internalType": "bytes32",
          "name": "_handle",
          "type": "bytes32"
        },
        {
          "internalType": "enum EmbraceSpaces.Visibility",
          "name": "_visibility",
          "type": "uint8"
        },
        {
          "components": [
            {
              "internalType": "enum EmbraceSpaces.MembershipType",
              "name": "kind",
              "type": "uint8"
            },
            {
              "components": [
                {
                  "internalType": "enum EmbraceSpaces.MembershipGateType",
                  "name": "gateType",
                  "type": "uint8"
                },
                {
                  "internalType": "address",
                  "name": "tokenAddress",
                  "type": "address"
                }
              ],
              "internalType": "struct EmbraceSpaces.MembershipGate",
              "name": "gate",
              "type": "tuple"
            },
            {
              "internalType": "bool",
              "name": "allowRequests",
              "type": "bool"
            }
          ],
          "internalType": "struct EmbraceSpaces.Membership",
          "name": "_membership",
          "type": "tuple"
        },
        {
          "internalType": "uint128[]",
          "name": "_apps",
          "type": "uint128[]"
        },
        {
          "internalType": "string",
          "name": "_metadata",
          "type": "string"
        }
      ],
      "name": "createSpace",
      "outputs": [],
      "stateMutability": "nonpayable",
      "type": "function"
    },
    {
      "inputs": [
        {
          "internalType": "bytes32",
          "name": "_handle",
          "type": "bytes32"
        }
      ],
      "name": "getIdFromHandle",
      "outputs": [
        {
          "internalType": "uint256",
          "name": "",
          "type": "uint256"
        }
      ],
      "stateMutability": "view",
      "type": "function"
    },
    {
      "inputs": [
        {
          "internalType": "uint256",
          "name": "_spaceIndex",
          "type": "uint256"
        }
      ],
      "name": "getMemberCount",
      "outputs": [
        {
          "internalType": "uint256",
          "name": "",
          "type": "uint256"
        }
      ],
      "stateMutability": "view",
      "type": "function"
    },
    {
      "inputs": [
        {
          "internalType": "uint256",
          "name": "_spaceIndex",
          "type": "uint256"
        }
      ],
      "name": "getSpace",
      "outputs": [
        {
          "components": [
            {
              "internalType": "uint256",
              "name": "index",
              "type": "uint256"
            },
            {
              "internalType": "bytes32",
              "name": "handle",
              "type": "bytes32"
            },
            {
              "internalType": "enum EmbraceSpaces.Visibility",
              "name": "visibility",
              "type": "uint8"
            },
            {
              "components": [
                {
                  "internalType": "enum EmbraceSpaces.MembershipType",
                  "name": "kind",
                  "type": "uint8"
                },
                {
                  "components": [
                    {
                      "internalType": "enum EmbraceSpaces.MembershipGateType",
                      "name": "gateType",
                      "type": "uint8"
                    },
                    {
                      "internalType": "address",
                      "name": "tokenAddress",
                      "type": "address"
                    }
                  ],
                  "internalType": "struct EmbraceSpaces.MembershipGate",
                  "name": "gate",
                  "type": "tuple"
                },
                {
                  "internalType": "bool",
                  "name": "allowRequests",
                  "type": "bool"
                }
              ],
              "internalType": "struct EmbraceSpaces.Membership",
              "name": "membership",
              "type": "tuple"
            },
            {
              "internalType": "uint128[]",
              "name": "apps",
              "type": "uint128[]"
            },
            {
              "internalType": "string",
              "name": "metadata",
              "type": "string"
            },
            {
              "internalType": "address",
              "name": "founder",
              "type": "address"
            }
          ],
          "internalType": "struct EmbraceSpaces.Space",
          "name": "",
          "type": "tuple"
        }
      ],
      "stateMutability": "view",
      "type": "function"
    },
    {
      "inputs": [
        {
          "internalType": "bytes32",
          "name": "_handle",
          "type": "bytes32"
        }
      ],
      "name": "getSpaceFromHandle",
      "outputs": [
        {
          "components": [
            {
              "internalType": "uint256",
              "name": "index",
              "type": "uint256"
            },
            {
              "internalType": "bytes32",
              "name": "handle",
              "type": "bytes32"
            },
            {
              "internalType": "enum EmbraceSpaces.Visibility",
              "name": "visibility",
              "type": "uint8"
            },
            {
              "components": [
                {
                  "internalType": "enum EmbraceSpaces.MembershipType",
                  "name": "kind",
                  "type": "uint8"
                },
                {
                  "components": [
                    {
                      "internalType": "enum EmbraceSpaces.MembershipGateType",
                      "name": "gateType",
                      "type": "uint8"
                    },
                    {
                      "internalType": "address",
                      "name": "tokenAddress",
                      "type": "address"
                    }
                  ],
                  "internalType": "struct EmbraceSpaces.MembershipGate",
                  "name": "gate",
                  "type": "tuple"
                },
                {
                  "internalType": "bool",
                  "name": "allowRequests",
                  "type": "bool"
                }
              ],
              "internalType": "struct EmbraceSpaces.Membership",
              "name": "membership",
              "type": "tuple"
            },
            {
              "internalType": "uint128[]",
              "name": "apps",
              "type": "uint128[]"
            },
            {
              "internalType": "string",
              "name": "metadata",
              "type": "string"
            },
            {
              "internalType": "address",
              "name": "founder",
              "type": "address"
            }
          ],
          "internalType": "struct EmbraceSpaces.Space",
          "name": "",
          "type": "tuple"
        }
      ],
      "stateMutability": "view",
      "type": "function"
    },
    {
      "inputs": [],
      "name": "getSpaces",
      "outputs": [
        {
          "components": [
            {
              "internalType": "uint256",
              "name": "index",
              "type": "uint256"
            },
            {
              "internalType": "bytes32",
              "name": "handle",
              "type": "bytes32"
            },
            {
              "internalType": "enum EmbraceSpaces.Visibility",
              "name": "visibility",
              "type": "uint8"
            },
            {
              "components": [
                {
                  "internalType": "enum EmbraceSpaces.MembershipType",
                  "name": "kind",
                  "type": "uint8"
                },
                {
                  "components": [
                    {
                      "internalType": "enum EmbraceSpaces.MembershipGateType",
                      "name": "gateType",
                      "type": "uint8"
                    },
                    {
                      "internalType": "address",
                      "name": "tokenAddress",
                      "type": "address"
                    }
                  ],
                  "internalType": "struct EmbraceSpaces.MembershipGate",
                  "name": "gate",
                  "type": "tuple"
                },
                {
                  "internalType": "bool",
                  "name": "allowRequests",
                  "type": "bool"
                }
              ],
              "internalType": "struct EmbraceSpaces.Membership",
              "name": "membership",
              "type": "tuple"
            },
            {
              "internalType": "uint128[]",
              "name": "apps",
              "type": "uint128[]"
            },
            {
              "internalType": "string",
              "name": "metadata",
              "type": "string"
            },
            {
              "internalType": "address",
              "name": "founder",
              "type": "address"
            }
          ],
          "internalType": "struct EmbraceSpaces.Space[]",
          "name": "",
          "type": "tuple[]"
        }
      ],
      "stateMutability": "view",
      "type": "function"
    },
    {
      "inputs": [
        {
          "internalType": "uint256",
          "name": "_spaceIndex",
          "type": "uint256"
        }
      ],
      "name": "isAdmin",
      "outputs": [
        {
          "internalType": "bool",
          "name": "",
          "type": "bool"
        }
      ],
      "stateMutability": "view",
      "type": "function"
    },
    {
      "inputs": [
        {
          "internalType": "uint256",
          "name": "_spaceIndex",
          "type": "uint256"
        }
      ],
      "name": "isFounder",
      "outputs": [
        {
          "internalType": "bool",
          "name": "",
          "type": "bool"
        }
      ],
      "stateMutability": "view",
      "type": "function"
    },
    {
      "inputs": [
        {
          "internalType": "uint256",
          "name": "_spaceIndex",
          "type": "uint256"
        }
      ],
      "name": "joinSpace",
      "outputs": [
        {
          "internalType": "bool",
          "name": "",
          "type": "bool"
        }
      ],
      "stateMutability": "nonpayable",
      "type": "function"
    },
    {
      "inputs": [
        {
          "internalType": "uint256",
          "name": "_spaceIndex",
          "type": "uint256"
        },
        {
          "internalType": "uint256",
          "name": "_appIndex",
          "type": "uint256"
        }
      ],
      "name": "removeApp",
      "outputs": [],
      "stateMutability": "nonpayable",
      "type": "function"
    },
    {
      "inputs": [
        {
          "internalType": "uint256",
          "name": "_spaceIndex",
          "type": "uint256"
        },
        {
          "internalType": "address",
          "name": "_member",
          "type": "address"
        }
      ],
      "name": "removeMember",
      "outputs": [],
      "stateMutability": "nonpayable",
      "type": "function"
    },
    {
      "inputs": [
        {
          "internalType": "uint256",
          "name": "_spaceIndex",
          "type": "uint256"
        },
        {
          "internalType": "address",
          "name": "_address",
          "type": "address"
        }
      ],
      "name": "setFounder",
      "outputs": [],
      "stateMutability": "nonpayable",
      "type": "function"
    },
    {
      "inputs": [
        {
          "internalType": "bytes32",
          "name": "",
          "type": "bytes32"
        }
      ],
      "name": "spaceHandles",
      "outputs": [
        {
          "internalType": "uint256",
          "name": "",
          "type": "uint256"
        }
      ],
      "stateMutability": "view",
      "type": "function"
    },
    {
      "inputs": [
        {
          "internalType": "uint256",
          "name": "",
          "type": "uint256"
        }
      ],
      "name": "spaceMemberLength",
      "outputs": [
        {
          "internalType": "uint256",
          "name": "",
          "type": "uint256"
        }
      ],
      "stateMutability": "view",
      "type": "function"
    },
    {
      "inputs": [
        {
          "internalType": "uint256",
          "name": "",
          "type": "uint256"
        },
        {
          "internalType": "address",
          "name": "",
          "type": "address"
        }
      ],
      "name": "spaceMembers",
      "outputs": [
        {
          "internalType": "bool",
          "name": "isAdmin",
          "type": "bool"
        },
        {
          "internalType": "bool",
          "name": "active",
          "type": "bool"
        },
        {
          "internalType": "bool",
          "name": "request",
          "type": "bool"
        }
      ],
      "stateMutability": "view",
      "type": "function"
    },
    {
      "inputs": [
        {
          "internalType": "uint256",
          "name": "",
          "type": "uint256"
        }
      ],
      "name": "spaces",
      "outputs": [
        {
          "internalType": "uint256",
          "name": "index",
          "type": "uint256"
        },
        {
          "internalType": "bytes32",
          "name": "handle",
          "type": "bytes32"
        },
        {
          "internalType": "enum EmbraceSpaces.Visibility",
          "name": "visibility",
          "type": "uint8"
        },
        {
          "components": [
            {
              "internalType": "enum EmbraceSpaces.MembershipType",
              "name": "kind",
              "type": "uint8"
            },
            {
              "components": [
                {
                  "internalType": "enum EmbraceSpaces.MembershipGateType",
                  "name": "gateType",
                  "type": "uint8"
                },
                {
                  "internalType": "address",
                  "name": "tokenAddress",
                  "type": "address"
                }
              ],
              "internalType": "struct EmbraceSpaces.MembershipGate",
              "name": "gate",
              "type": "tuple"
            },
            {
              "internalType": "bool",
              "name": "allowRequests",
              "type": "bool"
            }
          ],
          "internalType": "struct EmbraceSpaces.Membership",
          "name": "membership",
          "type": "tuple"
        },
        {
          "internalType": "string",
          "name": "metadata",
          "type": "string"
        },
        {
          "internalType": "address",
          "name": "founder",
          "type": "address"
        }
      ],
      "stateMutability": "view",
      "type": "function"
    }
  ],
  "bytecode": "0x6080604052600080553480156200001557600080fd5b5060405162002b1038038062002b1083398101604081905262000038916200005e565b600280546001600160a01b0319166001600160a01b039290921691909117905562000090565b6000602082840312156200007157600080fd5b81516001600160a01b03811681146200008957600080fd5b9392505050565b612a7080620000a06000396000f3fe608060405234801561001057600080fd5b50600436106101515760003560e01c806374d0a676116100cd578063a303cf8e11610081578063b29518f211610066578063b29518f214610351578063dbdc814b14610364578063f71771281461037757600080fd5b8063a303cf8e146102de578063af41f22a146102f157600080fd5b806385155bf6116100b257806385155bf6146102a55780638be9e3c8146102b857806399384976146102cb57600080fd5b806374d0a6761461026d5780637586353b1461028057600080fd5b806333d7ae40116101245780635ce9284f116101095780635ce9284f1461021a5780636be7658b1461023a57806370e104311461024d57600080fd5b806333d7ae40146101da5780633a6eb955146101fa57600080fd5b8063036f0e161461015657806315478ca91461016b5780631f6dc437146101895780633254c1f6146101ac575b600080fd5b610169610164366004612312565b61038a565b005b61017361049e565b60405161018091906124cc565b60405180910390f35b61019c61019736600461252e565b610721565b6040519015158152602001610180565b6101cc6101ba36600461252e565b60056020526000908152604090205481565b604051908152602001610180565b6101cc6101e836600461252e565b60046020526000908152604090205481565b6101cc61020836600461252e565b60009081526005602052604090205490565b6101cc61022836600461252e565b60009081526004602052604090205490565b61016961024836600461255e565b610757565b61026061025b36600461252e565b6108bf565b6040516101809190612581565b61016961027b36600461255e565b610b1c565b61029361028e36600461252e565b610c7d565b6040516101809695949392919061259b565b6102606102b336600461252e565b610dfe565b61019c6102c636600461252e565b61106c565b6101696102d936600461255e565b61163a565b61019c6102ec36600461252e565b6116d8565b6103326102ff36600461255e565b600360209081526000928352604080842090915290825290205460ff808216916101008104821691620100009091041683565b6040805193151584529115156020840152151590820152606001610180565b61016961035f36600461278c565b61193f565b61016961037236600461255e565b611cca565b61016961038536600461289d565b611e08565b8161039481610721565b806103a357506103a3816116d8565b6103e65760405162461bcd60e51b815260206004820152600f60248201526e27b7363c9020b236b4b7103ab9b2b960891b60448201526064015b60405180910390fd5b6000600184815481106103fb576103fb6128bf565b9060005260206000209060090201905080600601836001600160801b031681548110610429576104296128bf565b60009182526020822060028204015460019091166010026101000a90046001600160801b0316900361049857600681018054600180820183556000928352602090922060028204018054929091166010026101000a6001600160801b0381810219909316928616029190911790555b50505050565b60606001805480602002602001604051908101604052809291908181526020016000905b8282101561071857838290600052602060002090600902016040518060e001604052908160008201548152602001600182015481526020016002820160009054906101000a900460ff16600281111561051d5761051d61233e565b600281111561052e5761052e61233e565b81526040805160608101909152600383018054602090930192829060ff16600281111561055d5761055d61233e565b600281111561056e5761056e61233e565b815260408051808201909152600183018054602090930192829060ff16600281111561059c5761059c61233e565b60028111156105ad576105ad61233e565b8152905461010090046001600160a01b03166020918201529082526002929092015460ff161515908201529082526006830180546040805182850281018501909152818152938301939283018282801561065857602002820191906000526020600020906000905b82829054906101000a90046001600160801b03166001600160801b031681526020019060100190602082600f010492830192600103820291508084116106155790505b50505050508152602001600782018054610671906128d5565b80601f016020809104026020016040519081016040528092919081815260200182805461069d906128d5565b80156106ea5780601f106106bf576101008083540402835291602001916106ea565b820191906000526020600020905b8154815290600101906020018083116106cd57829003601f168201915b5050509183525050600891909101546001600160a01b031660209182015290825260019290920191016104c2565b50505050905090565b600081815260036020908152604080832033845290915281205460ff16151560010361074f57506001919050565b506000919050565b8161076181610721565b806107705750610770816116d8565b6107ae5760405162461bcd60e51b815260206004820152600f60248201526e27b7363c9020b236b4b7103ab9b2b960891b60448201526064016103dd565b60008381526003602090815260408083206001600160a01b0386168452909152812054610100900460ff16151590036108295760405162461bcd60e51b815260206004820152601560248201527f4d656d62657220646f6573206e6f74206578697374000000000000000000000060448201526064016103dd565b6040805160608101825260008082526020808301828152838501838152888452600383528584206001600160a01b0389168552835285842085518154935192511515620100000262ff0000199315156101000261ff00199215159290921661ffff1990951694909417179190911691909117905586825260049052918220805491926108b483612925565b919050555050505050565b6108c76121ad565b600182815481106108da576108da6128bf565b90600052602060002090600902016040518060e001604052908160008201548152602001600182015481526020016002820160009054906101000a900460ff16600281111561092b5761092b61233e565b600281111561093c5761093c61233e565b81526040805160608101909152600383018054602090930192829060ff16600281111561096b5761096b61233e565b600281111561097c5761097c61233e565b815260408051808201909152600183018054602090930192829060ff1660028111156109aa576109aa61233e565b60028111156109bb576109bb61233e565b8152905461010090046001600160a01b03166020918201529082526002929092015460ff1615159082015290825260068301805460408051828502810185019091528181529383019392830182828015610a6657602002820191906000526020600020906000905b82829054906101000a90046001600160801b03166001600160801b031681526020019060100190602082600f01049283019260010382029150808411610a235790505b50505050508152602001600782018054610a7f906128d5565b80601f0160208091040260200160405190810160405280929190818152602001828054610aab906128d5565b8015610af85780601f10610acd57610100808354040283529160200191610af8565b820191906000526020600020905b815481529060010190602001808311610adb57829003601f168201915b5050509183525050600891909101546001600160a01b031660209091015292915050565b81610b2681610721565b80610b355750610b35816116d8565b610b735760405162461bcd60e51b815260206004820152600f60248201526e27b7363c9020b236b4b7103ab9b2b960891b60448201526064016103dd565b60008381526003602090815260408083206001600160a01b0386168452909152902054610100900460ff161515600103610bef5760405162461bcd60e51b815260206004820152601560248201527f4d656d62657220616c726561647920657869737473000000000000000000000060448201526064016103dd565b60408051606081018252600080825260016020808401918252838501838152888452600382528584206001600160a01b0389168552825285842085518154945192511515620100000262ff0000199315156101000261ff00199215159290921661ffff199096169590951717919091169290921790915586825260049052918220805491926108b48361293c565b60018181548110610c8d57600080fd5b60009182526020909120600990910201805460018201546002808401546040805160608101909152600386018054959750939560ff928316959094919391928492911690811115610ce057610ce061233e565b6002811115610cf157610cf161233e565b815260408051808201909152600183018054602090930192829060ff166002811115610d1f57610d1f61233e565b6002811115610d3057610d3061233e565b8152905461010090046001600160a01b03166020918201529082526002929092015460ff161515910152600782018054919291610d6c906128d5565b80601f0160208091040260200160405190810160405280929190818152602001828054610d98906128d5565b8015610de55780601f10610dba57610100808354040283529160200191610de5565b820191906000526020600020905b815481529060010190602001808311610dc857829003601f168201915b505050600890930154919250506001600160a01b031686565b610e066121ad565b6000828152600560205260409020546001805482908110610e2957610e296128bf565b90600052602060002090600902016040518060e001604052908160008201548152602001600182015481526020016002820160009054906101000a900460ff166002811115610e7a57610e7a61233e565b6002811115610e8b57610e8b61233e565b81526040805160608101909152600383018054602090930192829060ff166002811115610eba57610eba61233e565b6002811115610ecb57610ecb61233e565b815260408051808201909152600183018054602090930192829060ff166002811115610ef957610ef961233e565b6002811115610f0a57610f0a61233e565b8152905461010090046001600160a01b03166020918201529082526002929092015460ff1615159082015290825260068301805460408051828502810185019091528181529383019392830182828015610fb557602002820191906000526020600020906000905b82829054906101000a90046001600160801b03166001600160801b031681526020019060100190602082600f01049283019260010382029150808411610f725790505b50505050508152602001600782018054610fce906128d5565b80601f0160208091040260200160405190810160405280929190818152602001828054610ffa906128d5565b80156110475780601f1061101c57610100808354040283529160200191611047565b820191906000526020600020905b81548152906001019060200180831161102a57829003601f168201915b5050509183525050600891909101546001600160a01b03166020909101529392505050565b60008060018381548110611082576110826128bf565b90600052602060002090600902016040518060e001604052908160008201548152602001600182015481526020016002820160009054906101000a900460ff1660028111156110d3576110d361233e565b60028111156110e4576110e461233e565b81526040805160608101909152600383018054602090930192829060ff1660028111156111135761111361233e565b60028111156111245761112461233e565b815260408051808201909152600183018054602090930192829060ff1660028111156111525761115261233e565b60028111156111635761116361233e565b8152905461010090046001600160a01b03166020918201529082526002929092015460ff161515908201529082526006830180546040805182850281018501909152818152938301939283018282801561120e57602002820191906000526020600020906000905b82829054906101000a90046001600160801b03166001600160801b031681526020019060100190602082600f010492830192600103820291508084116111cb5790505b50505050508152602001600782018054611227906128d5565b80601f0160208091040260200160405190810160405280929190818152602001828054611253906128d5565b80156112a05780601f10611275576101008083540402835291602001916112a0565b820191906000526020600020905b81548152906001019060200180831161128357829003601f168201915b5050509183525050600891909101546001600160a01b031660209182015260008581526003825260408082203383529092522054909150610100900460ff1615156001036113305760405162461bcd60e51b815260206004820152601860248201527f596f752061726520616c72656164792061206d656d626572000000000000000060448201526064016103dd565b6002816040015160028111156113485761134861233e565b036113a05760405162461bcd60e51b815260206004820152602260248201527f596f752063616e6e6f74206a6f696e20616e20616e6f6e796d6f757320737061604482015261636560f01b60648201526084016103dd565b6001816040015160028111156113b8576113b861233e565b1480156113db5750600260608201515160028111156113d9576113d961233e565b145b1561144e5760405162461bcd60e51b815260206004820152602660248201527f596f752063616e6e6f74206a6f696e2061207072697661746520636c6f73656460448201527f207370616365000000000000000000000000000000000000000000000000000060648201526084016103dd565b600160608201515160028111156114675761146761233e565b14801561147a575061147883611f2f565b155b156114ed5760405162461bcd60e51b815260206004820152603460248201527f596f7520646f206e6f74206d6565742074686520726571756972656d656e747360448201527f20666f722074686520676174656420737061636500000000000000000000000060648201526084016103dd565b6000600180836040015160028111156115085761150861233e565b14801561152b5750600060608401515160028111156115295761152961233e565b145b1561153857506001905060005b60408051606081018252600080825283151560208084019182528615158486019081528a845260038252858420338552825285842085518154945192511515620100000262ff0000199315156101000261ff00199215159290921661ffff199096169590951717919091169290921790915588825260049052918220805491926115c18361293c565b9091555050600254600054604051633576860d60e11b815233600482015260248101919091526001600160a01b0390911690636aed0c1a90604401600060405180830381600087803b15801561161657600080fd5b505af115801561162a573d6000803e3d6000fd5b5060019998505050505050505050565b81611644816116d8565b61167f5760405162461bcd60e51b815260206004820152600c60248201526b27b7363c903337bab73232b960a11b60448201526064016103dd565b600060018481548110611694576116946128bf565b60009182526020909120600990910201600801805473ffffffffffffffffffffffffffffffffffffffff19166001600160a01b039490941693909317909255505050565b600080600183815481106116ee576116ee6128bf565b90600052602060002090600902016040518060e001604052908160008201548152602001600182015481526020016002820160009054906101000a900460ff16600281111561173f5761173f61233e565b60028111156117505761175061233e565b81526040805160608101909152600383018054602090930192829060ff16600281111561177f5761177f61233e565b60028111156117905761179061233e565b815260408051808201909152600183018054602090930192829060ff1660028111156117be576117be61233e565b60028111156117cf576117cf61233e565b8152905461010090046001600160a01b03166020918201529082526002929092015460ff161515908201529082526006830180546040805182850281018501909152818152938301939283018282801561187a57602002820191906000526020600020906000905b82829054906101000a90046001600160801b03166001600160801b031681526020019060100190602082600f010492830192600103820291508084116118375790505b50505050508152602001600782018054611893906128d5565b80601f01602080910402602001604051908101604052809291908181526020018280546118bf906128d5565b801561190c5780601f106118e15761010080835404028352916020019161190c565b820191906000526020600020905b8154815290600101906020018083116118ef57829003601f168201915b5050509183525050600891909101546001600160a01b0390811660209092019190915260c0909101511633149392505050565b6000858152600560205260409020541561199b5760405162461bcd60e51b815260206004820152601560248201527f48616e646c6520616c726561647920657869737473000000000000000000000060448201526064016103dd565b60006040518060e0016040528060005481526020018781526020018660028111156119c8576119c861233e565b81526020808201879052604080830187905260608301869052336080909301929092526001805480820182556000829052845160099091027fb10e2d527612073b26eecdfd717e6a320cf44b4afac2b0732d9fcbe2b7fa0cf68101918255928501517fb10e2d527612073b26eecdfd717e6a320cf44b4afac2b0732d9fcbe2b7fa0cf7840155928401517fb10e2d527612073b26eecdfd717e6a320cf44b4afac2b0732d9fcbe2b7fa0cf890920180549495508594909160ff1990911690836002811115611a9857611a9861233e565b021790555060608201518051600383018054909190829060ff19166001836002811115611ac757611ac761233e565b02179055506020820151805160018084018054909291839160ff191690836002811115611af657611af661233e565b021790555060209182015181546001600160a01b03909116610100027fffffffffffffffffffffff0000000000000000000000000000000000000000ff909116179055604092909201516002909101805491151560ff1990921691909117905560808301518051611b6d92600685019201906121ef565b5060a08201516007820190611b8290826129a3565b5060c091909101516008909101805473ffffffffffffffffffffffffffffffffffffffff19166001600160a01b039283161790556000805488825260056020526040918290208190556002549151633576860d60e11b81523360048201526024810191909152911690636aed0c1a90604401600060405180830381600087803b158015611c0e57600080fd5b505af1158015611c22573d6000803e3d6000fd5b5050600080548152600460205260408120805493509150611c428361293c565b909155505060408051606081018252600180825260208083019182526000838501818152815482526003835285822033835290925293842092518354925191511515620100000262ff0000199215156101000261ff00199215159290921661ffff1990941693909317171617905580549080611cbd8361293c565b9190505550505050505050565b81611cd4816116d8565b611d0f5760405162461bcd60e51b815260206004820152600c60248201526b27b7363c903337bab73232b960a11b60448201526064016103dd565b60008381526003602090815260408083206001600160a01b0386168452909152902054610100900460ff161515600103611d755760008381526003602090815260408083206001600160a01b03861684529091529020805460ff19166001179055505050565b60408051606081018252600180825260208083019182526000838501818152888252600383528582206001600160a01b0389168352835285822085518154955192511515620100000262ff0000199315156101000261ff00199215159290921661ffff199097169690961717919091169390931790925586825260049052918220805491926108b48361293c565b505050565b81611e1281610721565b80611e215750611e21816116d8565b611e5f5760405162461bcd60e51b815260206004820152600f60248201526e27b7363c9020b236b4b7103ab9b2b960891b60448201526064016103dd565b600060018481548110611e7457611e746128bf565b9060005260206000209060090201905060005b6006820154811015611f285783826006018281548110611ea957611ea96128bf565b6000918252602090912060028204015460019091166010026101000a90046001600160801b031603611f1657816006018181548110611eea57611eea6128bf565b90600052602060002090600291828204019190066010026101000a8154906001600160801b0302191690555b80611f208161293c565b915050611e87565b5050505050565b60008060018381548110611f4557611f456128bf565b90600052602060002090600902016040518060e001604052908160008201548152602001600182015481526020016002820160009054906101000a900460ff166002811115611f9657611f9661233e565b6002811115611fa757611fa761233e565b81526040805160608101909152600383018054602090930192829060ff166002811115611fd657611fd661233e565b6002811115611fe757611fe761233e565b815260408051808201909152600183018054602090930192829060ff1660028111156120155761201561233e565b60028111156120265761202661233e565b8152905461010090046001600160a01b03166020918201529082526002929092015460ff16151590820152908252600683018054604080518285028101850190915281815293830193928301828280156120d157602002820191906000526020600020906000905b82829054906101000a90046001600160801b03166001600160801b031681526020019060100190602082600f0104928301926001038202915080841161208e5790505b505050505081526020016007820180546120ea906128d5565b80601f0160208091040260200160405190810160405280929190818152602001828054612116906128d5565b80156121635780601f1061213857610100808354040283529160200191612163565b820191906000526020600020905b81548152906001019060200180831161214657829003601f168201915b5050509183525050600891909101546001600160a01b039081166020928301526060830151820151909101519192508116156121a3575060019392505050565b5060009392505050565b6040805160e081018252600080825260208201819052909182019081526020016121d56122a7565b815260606020820181905260408201819052600091015290565b828054828255906000526020600020906001016002900481019282156122975791602002820160005b8382111561226257835183826101000a8154816001600160801b0302191690836001600160801b031602179055509260200192601001602081600f01049283019260010302612218565b80156122955782816101000a8154906001600160801b030219169055601001602081600f01049283019260010302612262565b505b506122a39291506122e1565b5090565b604080516060810190915280600081526020016122d4604080518082019091526000808252602082015290565b8152600060209091015290565b5b808211156122a357600081556001016122e2565b80356001600160801b038116811461230d57600080fd5b919050565b6000806040838503121561232557600080fd5b82359150612335602084016122f6565b90509250929050565b634e487b7160e01b600052602160045260246000fd5b6003811061237257634e487b7160e01b600052602160045260246000fd5b50565b805161238081612354565b82526020810151805161239281612354565b806020850152506001600160a01b036020820151166040840152506040810151151560608301525050565b6000815180845260005b818110156123e3576020818501810151868301820152016123c7565b506000602082860101526020601f19601f83011685010191505092915050565b60006101408084018351855260208085015181870152604085015161242781612354565b8060408801525060608501516124406060880182612375565b50608085015160e08701939093528251918290526101608601928101916000905b8082101561248a5783516001600160801b03168552938201939282019260019190910190612461565b5050505060a08301518482036101008601526124a682826123bd565b91505060c08301516124c46101208601826001600160a01b03169052565b509392505050565b6000602080830181845280855180835260408601915060408160051b870101925083870160005b8281101561252157603f1988860301845261250f858351612403565b945092850192908501906001016124f3565b5092979650505050505050565b60006020828403121561254057600080fd5b5035919050565b80356001600160a01b038116811461230d57600080fd5b6000806040838503121561257157600080fd5b8235915061233560208401612547565b6020815260006125946020830184612403565b9392505050565b60006101208883528760208401526125b287612354565b8660408401526125c56060840187612375565b8060e08401526125d7818401866123bd565b9150506001600160a01b038316610100830152979650505050505050565b6003811061237257600080fd5b634e487b7160e01b600052604160045260246000fd5b6040516060810167ffffffffffffffff8111828210171561263b5761263b612602565b60405290565b6040805190810167ffffffffffffffff8111828210171561263b5761263b612602565b604051601f8201601f1916810167ffffffffffffffff8111828210171561268d5761268d612602565b604052919050565b600082601f8301126126a657600080fd5b8135602067ffffffffffffffff8211156126c2576126c2612602565b8160051b6126d1828201612664565b92835284810182019282810190878511156126eb57600080fd5b83870192505b8483101561271157612702836122f6565b825291830191908301906126f1565b979650505050505050565b600082601f83011261272d57600080fd5b813567ffffffffffffffff81111561274757612747612602565b61275a601f8201601f1916602001612664565b81815284602083860101111561276f57600080fd5b816020850160208301376000918101602001919091529392505050565b60008060008060008587036101008112156127a657600080fd5b8635955060208701356127b8816125f5565b94506080603f19820112156127cc57600080fd5b6127d4612618565b60408801356127e2816125f5565b81526040605f19830112156127f657600080fd5b6127fe612641565b9150606088013561280e816125f5565b825261281c60808901612547565b602083015281602082015260a08801359150811515821461283c57600080fd5b6040810191909152925060c086013567ffffffffffffffff8082111561286157600080fd5b61286d89838a01612695565b935060e088013591508082111561288357600080fd5b506128908882890161271c565b9150509295509295909350565b600080604083850312156128b057600080fd5b50508035926020909101359150565b634e487b7160e01b600052603260045260246000fd5b600181811c908216806128e957607f821691505b60208210810361290957634e487b7160e01b600052602260045260246000fd5b50919050565b634e487b7160e01b600052601160045260246000fd5b6000816129345761293461290f565b506000190190565b60006001820161294e5761294e61290f565b5060010190565b601f821115611e0357600081815260208120601f850160051c8101602086101561297c5750805b601f850160051c820191505b8181101561299b57828155600101612988565b505050505050565b815167ffffffffffffffff8111156129bd576129bd612602565b6129d1816129cb84546128d5565b84612955565b602080601f831160018114612a0657600084156129ee5750858301515b600019600386901b1c1916600185901b17855561299b565b600085815260208120601f198616915b82811015612a3557888601518255948401946001909101908401612a16565b5085821015612a535787850151600019600388901b60f8161c191681555b5050505050600190811b0190555056fea164736f6c6343000811000a",
  "linkReferences": {},
  "deployedLinkReferences": {}
}