{
  "_format": "hh-sol-artifact-1",
  "contractName": "EmbraceSpaces",
  "sourceName": "contracts/EmbraceSpaces.sol",
  "abi": [
    {
      "inputs": [
        {
          "internalType": "address",
          "name": "_accountsAddress",
          "type": "address"
        }
      ],
      "stateMutability": "nonpayable",
      "type": "constructor"
    },
    {
      "inputs": [
        {
          "internalType": "uint256",
          "name": "_spaceIndex",
          "type": "uint256"
        },
        {
          "internalType": "address",
          "name": "_address",
          "type": "address"
        }
      ],
      "name": "addAdmin",
      "outputs": [],
      "stateMutability": "nonpayable",
      "type": "function"
    },
    {
      "inputs": [
        {
          "internalType": "uint256",
          "name": "_spaceIndex",
          "type": "uint256"
        },
        {
          "internalType": "uint128",
          "name": "_appIndex",
          "type": "uint128"
        }
      ],
      "name": "addApp",
      "outputs": [],
      "stateMutability": "nonpayable",
      "type": "function"
    },
    {
      "inputs": [
        {
          "internalType": "uint256",
          "name": "_spaceIndex",
          "type": "uint256"
        },
        {
          "internalType": "address",
          "name": "_address",
          "type": "address"
        }
      ],
      "name": "addMember",
      "outputs": [],
      "stateMutability": "nonpayable",
      "type": "function"
    },
    {
      "inputs": [
        {
          "internalType": "bytes32",
          "name": "_handle",
          "type": "bytes32"
        },
        {
          "internalType": "enum EmbraceSpaces.Visibility",
          "name": "_visibility",
          "type": "uint8"
        },
        {
          "internalType": "uint128[]",
          "name": "_apps",
          "type": "uint128[]"
        },
        {
          "internalType": "string",
          "name": "_metadata",
          "type": "string"
        }
      ],
      "name": "createSpace",
      "outputs": [],
      "stateMutability": "nonpayable",
      "type": "function"
    },
    {
      "inputs": [
        {
          "internalType": "bytes32",
          "name": "_handle",
          "type": "bytes32"
        }
      ],
      "name": "getIdFromHandle",
      "outputs": [
        {
          "internalType": "uint256",
          "name": "",
          "type": "uint256"
        }
      ],
      "stateMutability": "view",
      "type": "function"
    },
    {
      "inputs": [
        {
          "internalType": "uint256",
          "name": "_spaceIndex",
          "type": "uint256"
        }
      ],
      "name": "getMemberCount",
      "outputs": [
        {
          "internalType": "uint256",
          "name": "",
          "type": "uint256"
        }
      ],
      "stateMutability": "view",
      "type": "function"
    },
    {
      "inputs": [
        {
          "internalType": "uint256",
          "name": "_spaceIndex",
          "type": "uint256"
        }
      ],
      "name": "getSpace",
      "outputs": [
        {
          "components": [
            {
              "internalType": "uint256",
              "name": "index",
              "type": "uint256"
            },
            {
              "internalType": "bytes32",
              "name": "handle",
              "type": "bytes32"
            },
            {
              "internalType": "enum EmbraceSpaces.Visibility",
              "name": "visibility",
              "type": "uint8"
            },
            {
              "internalType": "uint128[]",
              "name": "apps",
              "type": "uint128[]"
            },
            {
              "internalType": "string",
              "name": "metadata",
              "type": "string"
            },
            {
              "internalType": "address",
              "name": "founder",
              "type": "address"
            }
          ],
          "internalType": "struct EmbraceSpaces.Space",
          "name": "",
          "type": "tuple"
        }
      ],
      "stateMutability": "view",
      "type": "function"
    },
    {
      "inputs": [],
      "name": "getSpaces",
      "outputs": [
        {
          "components": [
            {
              "internalType": "uint256",
              "name": "index",
              "type": "uint256"
            },
            {
              "internalType": "bytes32",
              "name": "handle",
              "type": "bytes32"
            },
            {
              "internalType": "enum EmbraceSpaces.Visibility",
              "name": "visibility",
              "type": "uint8"
            },
            {
              "internalType": "uint128[]",
              "name": "apps",
              "type": "uint128[]"
            },
            {
              "internalType": "string",
              "name": "metadata",
              "type": "string"
            },
            {
              "internalType": "address",
              "name": "founder",
              "type": "address"
            }
          ],
          "internalType": "struct EmbraceSpaces.Space[]",
          "name": "",
          "type": "tuple[]"
        }
      ],
      "stateMutability": "view",
      "type": "function"
    },
    {
      "inputs": [
        {
          "internalType": "uint256",
          "name": "_spaceIndex",
          "type": "uint256"
        }
      ],
      "name": "isAdmin",
      "outputs": [
        {
          "internalType": "bool",
          "name": "",
          "type": "bool"
        }
      ],
      "stateMutability": "view",
      "type": "function"
    },
    {
      "inputs": [
        {
          "internalType": "uint256",
          "name": "_spaceIndex",
          "type": "uint256"
        }
      ],
      "name": "isFounder",
      "outputs": [
        {
          "internalType": "bool",
          "name": "",
          "type": "bool"
        }
      ],
      "stateMutability": "view",
      "type": "function"
    },
    {
      "inputs": [
        {
          "internalType": "uint256",
          "name": "_spaceIndex",
          "type": "uint256"
        }
      ],
      "name": "joinPublicSpace",
      "outputs": [
        {
          "internalType": "bool",
          "name": "",
          "type": "bool"
        }
      ],
      "stateMutability": "nonpayable",
      "type": "function"
    },
    {
      "inputs": [
        {
          "internalType": "uint256",
          "name": "_spaceIndex",
          "type": "uint256"
        },
        {
          "internalType": "uint256",
          "name": "_appIndex",
          "type": "uint256"
        }
      ],
      "name": "removeApp",
      "outputs": [],
      "stateMutability": "nonpayable",
      "type": "function"
    },
    {
      "inputs": [
        {
          "internalType": "uint256",
          "name": "_spaceIndex",
          "type": "uint256"
        },
        {
          "internalType": "address",
          "name": "_member",
          "type": "address"
        }
      ],
      "name": "removeMember",
      "outputs": [],
      "stateMutability": "nonpayable",
      "type": "function"
    },
    {
      "inputs": [
        {
          "internalType": "bytes32",
          "name": "",
          "type": "bytes32"
        }
      ],
      "name": "spaceHandles",
      "outputs": [
        {
          "internalType": "uint256",
          "name": "",
          "type": "uint256"
        }
      ],
      "stateMutability": "view",
      "type": "function"
    },
    {
      "inputs": [
        {
          "internalType": "uint256",
          "name": "",
          "type": "uint256"
        }
      ],
      "name": "spaceMemberLength",
      "outputs": [
        {
          "internalType": "uint256",
          "name": "",
          "type": "uint256"
        }
      ],
      "stateMutability": "view",
      "type": "function"
    },
    {
      "inputs": [
        {
          "internalType": "uint256",
          "name": "",
          "type": "uint256"
        },
        {
          "internalType": "address",
          "name": "",
          "type": "address"
        }
      ],
      "name": "spaceMembers",
      "outputs": [
        {
          "internalType": "bool",
          "name": "isAdmin",
          "type": "bool"
        },
        {
          "internalType": "bool",
          "name": "active",
          "type": "bool"
        }
      ],
      "stateMutability": "view",
      "type": "function"
    },
    {
      "inputs": [
        {
          "internalType": "uint256",
          "name": "",
          "type": "uint256"
        }
      ],
      "name": "spaces",
      "outputs": [
        {
          "internalType": "uint256",
          "name": "index",
          "type": "uint256"
        },
        {
          "internalType": "bytes32",
          "name": "handle",
          "type": "bytes32"
        },
        {
          "internalType": "enum EmbraceSpaces.Visibility",
          "name": "visibility",
          "type": "uint8"
        },
        {
          "internalType": "string",
          "name": "metadata",
          "type": "string"
        },
        {
          "internalType": "address",
          "name": "founder",
          "type": "address"
        }
      ],
      "stateMutability": "view",
      "type": "function"
    }
  ],
  "bytecode": "0x60806040526000805534801561001457600080fd5b50604051611cf1380380611cf183398101604081905261003391610058565b600280546001600160a01b0319166001600160a01b0392909216919091179055610088565b60006020828403121561006a57600080fd5b81516001600160a01b038116811461008157600080fd5b9392505050565b611c5a806100976000396000f3fe608060405234801561001057600080fd5b506004361061011b5760003560e01c80636be7658b116100b2578063a303cf8e11610081578063dbdc814b11610066578063dbdc814b146102e2578063e3aa3ecc146102f5578063f71771281461030857600080fd5b8063a303cf8e14610281578063af41f22a1461029457600080fd5b80636be7658b1461021757806370e104311461022a57806374d0a6761461024a5780637586353b1461025d57600080fd5b80633254c1f6116100ee5780633254c1f61461018957806333d7ae40146101b75780633a6eb955146101d75780635ce9284f146101f757600080fd5b8063036f0e161461012057806315478ca9146101355780631f6dc43714610153578063226d45fb14610176575b600080fd5b61013361012e36600461166a565b61031b565b005b61013d61042f565b60405161014a91906117c7565b60405180910390f35b610166610161366004611829565b61060d565b604051901515815260200161014a565b6101336101843660046118f9565b610643565b6101a9610197366004611829565b60056020526000908152604090205481565b60405190815260200161014a565b6101a96101c5366004611829565b60046020526000908152604090205481565b6101a96101e5366004611829565b60009081526005602052604090205490565b6101a9610205366004611829565b60009081526004602052604090205490565b6101336102253660046119ea565b610902565b61023d610238366004611829565b610a4d565b60405161014a9190611a26565b6101336102583660046119ea565b610c2e565b61027061026b366004611829565b610d72565b60405161014a959493929190611a40565b61016661028f366004611829565b610e4d565b6102cb6102a23660046119ea565b600360209081526000928352604080842090915290825290205460ff8082169161010090041682565b60408051921515835290151560208301520161014a565b6101336102f03660046119ea565b61100f565b610166610303366004611829565b611141565b610133610316366004611a87565b61145a565b816103258161060d565b80610334575061033481610e4d565b6103775760405162461bcd60e51b815260206004820152600f60248201526e27b7363c9020b236b4b7103ab9b2b960891b60448201526064015b60405180910390fd5b60006001848154811061038c5761038c611aa9565b9060005260206000209060060201905080600301836001600160801b0316815481106103ba576103ba611aa9565b60009182526020822060028204015460019091166010026101000a90046001600160801b0316900361042957600381018054600180820183556000928352602090922060028204018054929091166010026101000a6001600160801b0381810219909316928616029190911790555b50505050565b60606001805480602002602001604051908101604052809291908181526020016000905b8282101561060457838290600052602060002090600602016040518060c001604052908160008201548152602001600182015481526020016002820160009054906101000a900460ff1660028111156104ae576104ae611696565b60028111156104bf576104bf611696565b81526020016003820180548060200260200160405190810160405280929190818152602001828054801561054457602002820191906000526020600020906000905b82829054906101000a90046001600160801b03166001600160801b031681526020019060100190602082600f010492830192600103820291508084116105015790505b5050505050815260200160048201805461055d90611abf565b80601f016020809104026020016040519081016040528092919081815260200182805461058990611abf565b80156105d65780601f106105ab576101008083540402835291602001916105d6565b820191906000526020600020905b8154815290600101906020018083116105b957829003601f168201915b5050509183525050600591909101546001600160a01b03166020918201529082526001929092019101610453565b50505050905090565b600081815260036020908152604080832033845290915281205460ff16151560010361063b57506001919050565b506000919050565b6000848152600560205260409020541561069f5760405162461bcd60e51b815260206004820152601560248201527f48616e646c6520616c7265616479206578697374730000000000000000000000604482015260640161036e565b60006040518060c0016040528060005481526020018681526020018560028111156106cc576106cc611696565b815260208082018690526040808301869052336060909301929092526001805480820182556000829052845160069091027fb10e2d527612073b26eecdfd717e6a320cf44b4afac2b0732d9fcbe2b7fa0cf68101918255928501517fb10e2d527612073b26eecdfd717e6a320cf44b4afac2b0732d9fcbe2b7fa0cf7840155928401517fb10e2d527612073b26eecdfd717e6a320cf44b4afac2b0732d9fcbe2b7fa0cf890920180549495508594909160ff199091169083600281111561079557610795611696565b0217905550606082015180516107b5916003840191602090910190611581565b50608082015160048201906107ca9082611b47565b5060a09190910151600591820180547fffffffffffffffffffffffff0000000000000000000000000000000000000000166001600160a01b03928316179055600080548882526020939093526040908190208390556002549051633576860d60e11b815233600482015260248101939093521690636aed0c1a90604401600060405180830381600087803b15801561086157600080fd5b505af1158015610875573d6000803e3d6000fd5b505060008054815260046020526040812080549350915061089583611c1d565b9091555050604080518082018252600180825260208083019182526000805481526003825284812033825290915292832091518254915161ffff1990921690151561ff0019161761010091151591909102179055805490806108f683611c1d565b91905055505050505050565b8161090c8161060d565b8061091b575061091b81610e4d565b6109595760405162461bcd60e51b815260206004820152600f60248201526e27b7363c9020b236b4b7103ab9b2b960891b604482015260640161036e565b60008381526003602090815260408083206001600160a01b0386168452909152812054610100900460ff16151590036109d45760405162461bcd60e51b815260206004820152601560248201527f4d656d62657220646f6573206e6f742065786973740000000000000000000000604482015260640161036e565b60408051808201825260008082526020808301828152878352600382528483206001600160a01b0388168452825284832084518154925161ffff1990931690151561ff00191617610100921515929092029190911790558682526004905291822080549192610a4283611c36565b919050555050505050565b6040805160c0810182526000808252602082018190529181018290526060808201819052608082015260a081019190915260018281548110610a9157610a91611aa9565b90600052602060002090600602016040518060c001604052908160008201548152602001600182015481526020016002820160009054906101000a900460ff166002811115610ae257610ae2611696565b6002811115610af357610af3611696565b815260200160038201805480602002602001604051908101604052809291908181526020018280548015610b7857602002820191906000526020600020906000905b82829054906101000a90046001600160801b03166001600160801b031681526020019060100190602082600f01049283019260010382029150808411610b355790505b50505050508152602001600482018054610b9190611abf565b80601f0160208091040260200160405190810160405280929190818152602001828054610bbd90611abf565b8015610c0a5780601f10610bdf57610100808354040283529160200191610c0a565b820191906000526020600020905b815481529060010190602001808311610bed57829003601f168201915b5050509183525050600591909101546001600160a01b031660209091015292915050565b81610c388161060d565b80610c475750610c4781610e4d565b610c855760405162461bcd60e51b815260206004820152600f60248201526e27b7363c9020b236b4b7103ab9b2b960891b604482015260640161036e565b60008381526003602090815260408083206001600160a01b0386168452909152902054610100900460ff161515600103610d015760405162461bcd60e51b815260206004820152601560248201527f4d656d62657220616c7265616479206578697374730000000000000000000000604482015260640161036e565b604080518082018252600080825260016020808401918252878352600381528483206001600160a01b0388168452815284832084518154935161ffff1990941690151561ff0019161761010093151593909302929092179091558682526004905291822080549192610a4283611c1d565b60018181548110610d8257600080fd5b60009182526020909120600690910201805460018201546002830154600484018054939550919360ff90911692909190610dbb90611abf565b80601f0160208091040260200160405190810160405280929190818152602001828054610de790611abf565b8015610e345780601f10610e0957610100808354040283529160200191610e34565b820191906000526020600020905b815481529060010190602001808311610e1757829003601f168201915b505050600590930154919250506001600160a01b031685565b60008060018381548110610e6357610e63611aa9565b90600052602060002090600602016040518060c001604052908160008201548152602001600182015481526020016002820160009054906101000a900460ff166002811115610eb457610eb4611696565b6002811115610ec557610ec5611696565b815260200160038201805480602002602001604051908101604052809291908181526020018280548015610f4a57602002820191906000526020600020906000905b82829054906101000a90046001600160801b03166001600160801b031681526020019060100190602082600f01049283019260010382029150808411610f075790505b50505050508152602001600482018054610f6390611abf565b80601f0160208091040260200160405190810160405280929190818152602001828054610f8f90611abf565b8015610fdc5780601f10610fb157610100808354040283529160200191610fdc565b820191906000526020600020905b815481529060010190602001808311610fbf57829003601f168201915b5050509183525050600591909101546001600160a01b0390811660209092019190915260a0909101511633149392505050565b8161101981610e4d565b6110655760405162461bcd60e51b815260206004820152600c60248201527f4f6e6c7920666f756e6465720000000000000000000000000000000000000000604482015260640161036e565b60008381526003602090815260408083206001600160a01b0386168452909152902054610100900460ff1615156001036110cb5760008381526003602090815260408083206001600160a01b03861684529091529020805460ff19166001179055505050565b604080518082018252600180825260208083019182526000878152600382528481206001600160a01b0388168252825284812084518154945161ffff1990951690151561ff0019161761010094151594909402939093179092558682526004905291822080549192610a4283611c1d565b505050565b6000806001838154811061115757611157611aa9565b90600052602060002090600602016040518060c001604052908160008201548152602001600182015481526020016002820160009054906101000a900460ff1660028111156111a8576111a8611696565b60028111156111b9576111b9611696565b81526020016003820180548060200260200160405190810160405280929190818152602001828054801561123e57602002820191906000526020600020906000905b82829054906101000a90046001600160801b03166001600160801b031681526020019060100190602082600f010492830192600103820291508084116111fb5790505b5050505050815260200160048201805461125790611abf565b80601f016020809104026020016040519081016040528092919081815260200182805461128390611abf565b80156112d05780601f106112a5576101008083540402835291602001916112d0565b820191906000526020600020905b8154815290600101906020018083116112b357829003601f168201915b5050509183525050600591909101546001600160a01b0316602090910152905060008160400151600281111561130857611308611696565b1461137b5760405162461bcd60e51b815260206004820152602f60248201527f43616e6e6f74206a6f696e20726573747269637465642073706163652077697460448201527f686f7574207065726d697373696f6e0000000000000000000000000000000000606482015260840161036e565b60408051808201825260008082526001602080840191825287835260038152848320338452815284832084518154935161ffff1990941690151561ff00191617610100931515939093029290921790915586825260049052918220805491926113e383611c1d565b9091555050600254600054604051633576860d60e11b815233600482015260248101919091526001600160a01b0390911690636aed0c1a90604401600060405180830381600087803b15801561143857600080fd5b505af115801561144c573d6000803e3d6000fd5b506001979650505050505050565b816114648161060d565b80611473575061147381610e4d565b6114b15760405162461bcd60e51b815260206004820152600f60248201526e27b7363c9020b236b4b7103ab9b2b960891b604482015260640161036e565b6000600184815481106114c6576114c6611aa9565b9060005260206000209060060201905060005b600382015481101561157a57838260030182815481106114fb576114fb611aa9565b6000918252602090912060028204015460019091166010026101000a90046001600160801b0316036115685781600301818154811061153c5761153c611aa9565b90600052602060002090600291828204019190066010026101000a8154906001600160801b0302191690555b8061157281611c1d565b9150506114d9565b5050505050565b828054828255906000526020600020906001016002900481019282156116295791602002820160005b838211156115f457835183826101000a8154816001600160801b0302191690836001600160801b031602179055509260200192601001602081600f010492830192600103026115aa565b80156116275782816101000a8154906001600160801b030219169055601001602081600f010492830192600103026115f4565b505b50611635929150611639565b5090565b5b80821115611635576000815560010161163a565b80356001600160801b038116811461166557600080fd5b919050565b6000806040838503121561167d57600080fd5b8235915061168d6020840161164e565b90509250929050565b634e487b7160e01b600052602160045260246000fd5b600381106116ca57634e487b7160e01b600052602160045260246000fd5b9052565b6000815180845260005b818110156116f4576020818501810151868301820152016116d8565b506000602082860101526020601f19601f83011685010191505092915050565b600060c083018251845260208084015181860152604084015161173a60408701826116ac565b50606084015160c0606087015282815180855260e0880191508383019450600092505b808310156117865784516001600160801b0316825293830193600192909201919083019061175d565b506080860151935086810360808801526117a081856116ce565b935050505060a08301516117bf60a08601826001600160a01b03169052565b509392505050565b6000602080830181845280855180835260408601915060408160051b870101925083870160005b8281101561181c57603f1988860301845261180a858351611714565b945092850192908501906001016117ee565b5092979650505050505050565b60006020828403121561183b57600080fd5b5035919050565b634e487b7160e01b600052604160045260246000fd5b604051601f8201601f1916810167ffffffffffffffff8111828210171561188157611881611842565b604052919050565b600082601f83011261189a57600080fd5b813567ffffffffffffffff8111156118b4576118b4611842565b6118c7601f8201601f1916602001611858565b8181528460208386010111156118dc57600080fd5b816020850160208301376000918101602001919091529392505050565b6000806000806080858703121561190f57600080fd5b843593506020808601356003811061192657600080fd5b9350604086013567ffffffffffffffff8082111561194357600080fd5b818801915088601f83011261195757600080fd5b81358181111561196957611969611842565b8060051b611978858201611858565b918252838101850191858101908c84111561199257600080fd5b948601945b838610156119b7576119a88661164e565b82529486019490860190611997565b975050505060608801359250808311156119d057600080fd5b50506119de87828801611889565b91505092959194509250565b600080604083850312156119fd57600080fd5b8235915060208301356001600160a01b0381168114611a1b57600080fd5b809150509250929050565b602081526000611a396020830184611714565b9392505050565b858152846020820152611a5660408201856116ac565b60a060608201526000611a6c60a08301856116ce565b90506001600160a01b03831660808301529695505050505050565b60008060408385031215611a9a57600080fd5b50508035926020909101359150565b634e487b7160e01b600052603260045260246000fd5b600181811c90821680611ad357607f821691505b602082108103611af357634e487b7160e01b600052602260045260246000fd5b50919050565b601f82111561113c57600081815260208120601f850160051c81016020861015611b205750805b601f850160051c820191505b81811015611b3f57828155600101611b2c565b505050505050565b815167ffffffffffffffff811115611b6157611b61611842565b611b7581611b6f8454611abf565b84611af9565b602080601f831160018114611baa5760008415611b925750858301515b600019600386901b1c1916600185901b178555611b3f565b600085815260208120601f198616915b82811015611bd957888601518255948401946001909101908401611bba565b5085821015611bf75787850151600019600388901b60f8161c191681555b5050505050600190811b01905550565b634e487b7160e01b600052601160045260246000fd5b600060018201611c2f57611c2f611c07565b5060010190565b600081611c4557611c45611c07565b50600019019056fea164736f6c6343000811000a",
  "linkReferences": {},
  "deployedLinkReferences": {}
}