{
  "_format": "hh-sol-artifact-1",
  "contractName": "EmbraceAccounts",
  "sourceName": "contracts/EmbraceAccounts.sol",
  "abi": [
    {
      "inputs": [
        {
          "internalType": "string",
          "name": "_userHandle",
          "type": "string"
        }
      ],
      "name": "addAccount",
      "outputs": [],
      "stateMutability": "nonpayable",
      "type": "function"
    },
    {
      "inputs": [
        {
          "internalType": "address",
          "name": "_address",
          "type": "address"
        },
        {
          "internalType": "uint256",
          "name": "_spaceIndex",
          "type": "uint256"
        }
      ],
      "name": "addSpace",
      "outputs": [],
      "stateMutability": "nonpayable",
      "type": "function"
    },
    {
      "inputs": [
        {
          "internalType": "string",
          "name": "_userHandle",
          "type": "string"
        }
      ],
      "name": "getAddress",
      "outputs": [
        {
          "internalType": "address",
          "name": "",
          "type": "address"
        }
      ],
      "stateMutability": "view",
      "type": "function"
    },
    {
      "inputs": [
        {
          "internalType": "address",
          "name": "_userAddress",
          "type": "address"
        }
      ],
      "name": "getHandle",
      "outputs": [
        {
          "internalType": "string",
          "name": "",
          "type": "string"
        }
      ],
      "stateMutability": "view",
      "type": "function"
    },
    {
      "inputs": [
        {
          "internalType": "address",
          "name": "_address",
          "type": "address"
        }
      ],
      "name": "getSpaces",
      "outputs": [
        {
          "internalType": "uint256[]",
          "name": "",
          "type": "uint256[]"
        }
      ],
      "stateMutability": "view",
      "type": "function"
    }
  ],
  "bytecode": "0x608060405234801561001057600080fd5b506106c0806100206000396000f3fe608060405234801561001057600080fd5b50600436106100675760003560e01c8063854b07b211610050578063854b07b214610094578063bf40fac1146100bd578063d9a056a6146100e857600080fd5b80632ad26a041461006c5780636aed0c1a14610081575b600080fd5b61007f61007a36600461035d565b610108565b005b61007f61008f36600461042a565b61012e565b6100a76100a2366004610454565b6101a4565b6040516100b4919061049a565b60405180910390f35b6100d06100cb36600461035d565b610250565b6040516001600160a01b0390911681526020016100b4565b6100fb6100f6366004610454565b610281565b6040516100b491906104cd565b336000908152602081905260409020610121828261059a565b5061012b816102ec565b50565b6001600160a01b0382166000908152600260205260408120905b815481101561018c57828282815481106101645761016461065a565b90600052602060002001540361017a5750505050565b8061018481610670565b915050610148565b50805460018101825560009182526020909120015550565b6001600160a01b03811660009081526020819052604090208054606091906101cb90610511565b80601f01602080910402602001604051908101604052809291908181526020018280546101f790610511565b80156102445780601f1061021957610100808354040283529160200191610244565b820191906000526020600020905b81548152906001019060200180831161022757829003601f168201915b50505050509050919050565b60006001826040516102629190610697565b908152604051908190036020019020546001600160a01b031692915050565b6001600160a01b03811660009081526002602090815260409182902080548351818402810184019094528084526060939283018282801561024457602002820191906000526020600020905b8154815260200190600101908083116102cd5750505050509050919050565b336001826040516102fd9190610697565b90815260405190819003602001902080546001600160a01b03929092167fffffffffffffffffffffffff000000000000000000000000000000000000000090921691909117905550565b634e487b7160e01b600052604160045260246000fd5b60006020828403121561036f57600080fd5b813567ffffffffffffffff8082111561038757600080fd5b818401915084601f83011261039b57600080fd5b8135818111156103ad576103ad610347565b604051601f8201601f19908116603f011681019083821181831017156103d5576103d5610347565b816040528281528760208487010111156103ee57600080fd5b826020860160208301376000928101602001929092525095945050505050565b80356001600160a01b038116811461042557600080fd5b919050565b6000806040838503121561043d57600080fd5b6104468361040e565b946020939093013593505050565b60006020828403121561046657600080fd5b61046f8261040e565b9392505050565b60005b83811015610491578181015183820152602001610479565b50506000910152565b60208152600082518060208401526104b9816040850160208701610476565b601f01601f19169190910160400192915050565b6020808252825182820181905260009190848201906040850190845b81811015610505578351835292840192918401916001016104e9565b50909695505050505050565b600181811c9082168061052557607f821691505b60208210810361054557634e487b7160e01b600052602260045260246000fd5b50919050565b601f82111561059557600081815260208120601f850160051c810160208610156105725750805b601f850160051c820191505b818110156105915782815560010161057e565b5050505b505050565b815167ffffffffffffffff8111156105b4576105b4610347565b6105c8816105c28454610511565b8461054b565b602080601f8311600181146105fd57600084156105e55750858301515b600019600386901b1c1916600185901b178555610591565b600085815260208120601f198616915b8281101561062c5788860151825594840194600190910190840161060d565b508582101561064a5787850151600019600388901b60f8161c191681555b5050505050600190811b01905550565b634e487b7160e01b600052603260045260246000fd5b60006001820161069057634e487b7160e01b600052601160045260246000fd5b5060010190565b600082516106a9818460208701610476565b919091019291505056fea164736f6c6343000811000a",
  "linkReferences": {},
  "deployedLinkReferences": {}
}