{
  "_format": "hh-sol-artifact-1",
  "contractName": "EmbraceSpaces",
  "sourceName": "contracts/EmbraceSpaces.sol",
  "abi": [
    {
      "inputs": [
        {
          "internalType": "address",
          "name": "_accountsAddress",
          "type": "address"
        }
      ],
      "stateMutability": "nonpayable",
      "type": "constructor"
    },
    {
      "inputs": [
        {
          "internalType": "uint256",
          "name": "_spaceIndex",
          "type": "uint256"
        },
        {
          "internalType": "address",
          "name": "_address",
          "type": "address"
        }
      ],
      "name": "addAdmin",
      "outputs": [],
      "stateMutability": "nonpayable",
      "type": "function"
    },
    {
      "inputs": [
        {
          "internalType": "uint256",
          "name": "_spaceIndex",
          "type": "uint256"
        },
        {
          "internalType": "uint128",
          "name": "_appIndex",
          "type": "uint128"
        }
      ],
      "name": "addApp",
      "outputs": [],
      "stateMutability": "nonpayable",
      "type": "function"
    },
    {
      "inputs": [
        {
          "internalType": "uint256",
          "name": "_spaceIndex",
          "type": "uint256"
        },
        {
          "internalType": "address",
          "name": "_address",
          "type": "address"
        }
      ],
      "name": "addMember",
      "outputs": [],
      "stateMutability": "nonpayable",
      "type": "function"
    },
    {
      "inputs": [
        {
          "internalType": "bytes32",
          "name": "_handle",
          "type": "bytes32"
        },
        {
          "internalType": "enum EmbraceSpaces.Visibility",
          "name": "_visibility",
          "type": "uint8"
        },
        {
          "components": [
            {
              "internalType": "enum EmbraceSpaces.MembershipType",
              "name": "kind",
              "type": "uint8"
            },
            {
              "components": [
                {
                  "internalType": "enum EmbraceSpaces.MembershipGateType",
                  "name": "gateType",
                  "type": "uint8"
                },
                {
                  "internalType": "address",
                  "name": "tokenAddress",
                  "type": "address"
                }
              ],
              "internalType": "struct EmbraceSpaces.MembershipGate",
              "name": "gate",
              "type": "tuple"
            },
            {
              "internalType": "bool",
              "name": "allowRequests",
              "type": "bool"
            }
          ],
          "internalType": "struct EmbraceSpaces.Membership",
          "name": "_membership",
          "type": "tuple"
        },
        {
          "internalType": "uint128[]",
          "name": "_apps",
          "type": "uint128[]"
        },
        {
          "internalType": "string",
          "name": "_metadata",
          "type": "string"
        }
      ],
      "name": "createSpace",
      "outputs": [],
      "stateMutability": "nonpayable",
      "type": "function"
    },
    {
      "inputs": [
        {
          "internalType": "bytes32",
          "name": "_handle",
          "type": "bytes32"
        }
      ],
      "name": "getIdFromHandle",
      "outputs": [
        {
          "internalType": "uint256",
          "name": "",
          "type": "uint256"
        }
      ],
      "stateMutability": "view",
      "type": "function"
    },
    {
      "inputs": [
        {
          "internalType": "uint256",
          "name": "_spaceIndex",
          "type": "uint256"
        }
      ],
      "name": "getMemberCount",
      "outputs": [
        {
          "internalType": "uint256",
          "name": "",
          "type": "uint256"
        }
      ],
      "stateMutability": "view",
      "type": "function"
    },
    {
      "inputs": [
        {
          "internalType": "uint256",
          "name": "_spaceIndex",
          "type": "uint256"
        }
      ],
      "name": "getSpace",
      "outputs": [
        {
          "components": [
            {
              "internalType": "uint256",
              "name": "index",
              "type": "uint256"
            },
            {
              "internalType": "bytes32",
              "name": "handle",
              "type": "bytes32"
            },
            {
              "internalType": "enum EmbraceSpaces.Visibility",
              "name": "visibility",
              "type": "uint8"
            },
            {
              "components": [
                {
                  "internalType": "enum EmbraceSpaces.MembershipType",
                  "name": "kind",
                  "type": "uint8"
                },
                {
                  "components": [
                    {
                      "internalType": "enum EmbraceSpaces.MembershipGateType",
                      "name": "gateType",
                      "type": "uint8"
                    },
                    {
                      "internalType": "address",
                      "name": "tokenAddress",
                      "type": "address"
                    }
                  ],
                  "internalType": "struct EmbraceSpaces.MembershipGate",
                  "name": "gate",
                  "type": "tuple"
                },
                {
                  "internalType": "bool",
                  "name": "allowRequests",
                  "type": "bool"
                }
              ],
              "internalType": "struct EmbraceSpaces.Membership",
              "name": "membership",
              "type": "tuple"
            },
            {
              "internalType": "uint128[]",
              "name": "apps",
              "type": "uint128[]"
            },
            {
              "internalType": "string",
              "name": "metadata",
              "type": "string"
            },
            {
              "internalType": "address",
              "name": "founder",
              "type": "address"
            }
          ],
          "internalType": "struct EmbraceSpaces.Space",
          "name": "",
          "type": "tuple"
        }
      ],
      "stateMutability": "view",
      "type": "function"
    },
    {
      "inputs": [
        {
          "internalType": "bytes32",
          "name": "_handle",
          "type": "bytes32"
        }
      ],
      "name": "getSpaceFromHandle",
      "outputs": [
        {
          "components": [
            {
              "internalType": "uint256",
              "name": "index",
              "type": "uint256"
            },
            {
              "internalType": "bytes32",
              "name": "handle",
              "type": "bytes32"
            },
            {
              "internalType": "enum EmbraceSpaces.Visibility",
              "name": "visibility",
              "type": "uint8"
            },
            {
              "components": [
                {
                  "internalType": "enum EmbraceSpaces.MembershipType",
                  "name": "kind",
                  "type": "uint8"
                },
                {
                  "components": [
                    {
                      "internalType": "enum EmbraceSpaces.MembershipGateType",
                      "name": "gateType",
                      "type": "uint8"
                    },
                    {
                      "internalType": "address",
                      "name": "tokenAddress",
                      "type": "address"
                    }
                  ],
                  "internalType": "struct EmbraceSpaces.MembershipGate",
                  "name": "gate",
                  "type": "tuple"
                },
                {
                  "internalType": "bool",
                  "name": "allowRequests",
                  "type": "bool"
                }
              ],
              "internalType": "struct EmbraceSpaces.Membership",
              "name": "membership",
              "type": "tuple"
            },
            {
              "internalType": "uint128[]",
              "name": "apps",
              "type": "uint128[]"
            },
            {
              "internalType": "string",
              "name": "metadata",
              "type": "string"
            },
            {
              "internalType": "address",
              "name": "founder",
              "type": "address"
            }
          ],
          "internalType": "struct EmbraceSpaces.Space",
          "name": "",
          "type": "tuple"
        }
      ],
      "stateMutability": "view",
      "type": "function"
    },
    {
      "inputs": [],
      "name": "getSpaces",
      "outputs": [
        {
          "components": [
            {
              "internalType": "uint256",
              "name": "index",
              "type": "uint256"
            },
            {
              "internalType": "bytes32",
              "name": "handle",
              "type": "bytes32"
            },
            {
              "internalType": "enum EmbraceSpaces.Visibility",
              "name": "visibility",
              "type": "uint8"
            },
            {
              "components": [
                {
                  "internalType": "enum EmbraceSpaces.MembershipType",
                  "name": "kind",
                  "type": "uint8"
                },
                {
                  "components": [
                    {
                      "internalType": "enum EmbraceSpaces.MembershipGateType",
                      "name": "gateType",
                      "type": "uint8"
                    },
                    {
                      "internalType": "address",
                      "name": "tokenAddress",
                      "type": "address"
                    }
                  ],
                  "internalType": "struct EmbraceSpaces.MembershipGate",
                  "name": "gate",
                  "type": "tuple"
                },
                {
                  "internalType": "bool",
                  "name": "allowRequests",
                  "type": "bool"
                }
              ],
              "internalType": "struct EmbraceSpaces.Membership",
              "name": "membership",
              "type": "tuple"
            },
            {
              "internalType": "uint128[]",
              "name": "apps",
              "type": "uint128[]"
            },
            {
              "internalType": "string",
              "name": "metadata",
              "type": "string"
            },
            {
              "internalType": "address",
              "name": "founder",
              "type": "address"
            }
          ],
          "internalType": "struct EmbraceSpaces.Space[]",
          "name": "",
          "type": "tuple[]"
        }
      ],
      "stateMutability": "view",
      "type": "function"
    },
    {
      "inputs": [
        {
          "internalType": "uint256",
          "name": "_spaceIndex",
          "type": "uint256"
        }
      ],
      "name": "isAdmin",
      "outputs": [
        {
          "internalType": "bool",
          "name": "",
          "type": "bool"
        }
      ],
      "stateMutability": "view",
      "type": "function"
    },
    {
      "inputs": [
        {
          "internalType": "uint256",
          "name": "_spaceIndex",
          "type": "uint256"
        }
      ],
      "name": "isFounder",
      "outputs": [
        {
          "internalType": "bool",
          "name": "",
          "type": "bool"
        }
      ],
      "stateMutability": "view",
      "type": "function"
    },
    {
      "inputs": [
        {
          "internalType": "uint256",
          "name": "_spaceIndex",
          "type": "uint256"
        }
      ],
      "name": "joinSpace",
      "outputs": [
        {
          "internalType": "bool",
          "name": "",
          "type": "bool"
        }
      ],
      "stateMutability": "nonpayable",
      "type": "function"
    },
    {
      "inputs": [
        {
          "internalType": "uint256",
          "name": "_spaceIndex",
          "type": "uint256"
        }
      ],
      "name": "meetsGateRequirements",
      "outputs": [
        {
          "internalType": "bool",
          "name": "",
          "type": "bool"
        }
      ],
      "stateMutability": "view",
      "type": "function"
    },
    {
      "inputs": [
        {
          "internalType": "uint256",
          "name": "_spaceIndex",
          "type": "uint256"
        },
        {
          "internalType": "uint256",
          "name": "_appIndex",
          "type": "uint256"
        }
      ],
      "name": "removeApp",
      "outputs": [],
      "stateMutability": "nonpayable",
      "type": "function"
    },
    {
      "inputs": [
        {
          "internalType": "uint256",
          "name": "_spaceIndex",
          "type": "uint256"
        },
        {
          "internalType": "address",
          "name": "_member",
          "type": "address"
        }
      ],
      "name": "removeMember",
      "outputs": [],
      "stateMutability": "nonpayable",
      "type": "function"
    },
    {
      "inputs": [
        {
          "internalType": "uint256",
          "name": "_spaceIndex",
          "type": "uint256"
        },
        {
          "internalType": "address",
          "name": "_address",
          "type": "address"
        }
      ],
      "name": "setFounder",
      "outputs": [],
      "stateMutability": "nonpayable",
      "type": "function"
    },
    {
      "inputs": [
        {
          "internalType": "bytes32",
          "name": "",
          "type": "bytes32"
        }
      ],
      "name": "spaceHandles",
      "outputs": [
        {
          "internalType": "uint256",
          "name": "",
          "type": "uint256"
        }
      ],
      "stateMutability": "view",
      "type": "function"
    },
    {
      "inputs": [
        {
          "internalType": "uint256",
          "name": "",
          "type": "uint256"
        }
      ],
      "name": "spaceMemberLength",
      "outputs": [
        {
          "internalType": "uint256",
          "name": "",
          "type": "uint256"
        }
      ],
      "stateMutability": "view",
      "type": "function"
    },
    {
      "inputs": [
        {
          "internalType": "uint256",
          "name": "",
          "type": "uint256"
        },
        {
          "internalType": "address",
          "name": "",
          "type": "address"
        }
      ],
      "name": "spaceMembers",
      "outputs": [
        {
          "internalType": "bool",
          "name": "isAdmin",
          "type": "bool"
        },
        {
          "internalType": "bool",
          "name": "active",
          "type": "bool"
        },
        {
          "internalType": "bool",
          "name": "request",
          "type": "bool"
        }
      ],
      "stateMutability": "view",
      "type": "function"
    },
    {
      "inputs": [
        {
          "internalType": "uint256",
          "name": "",
          "type": "uint256"
        }
      ],
      "name": "spaces",
      "outputs": [
        {
          "internalType": "uint256",
          "name": "index",
          "type": "uint256"
        },
        {
          "internalType": "bytes32",
          "name": "handle",
          "type": "bytes32"
        },
        {
          "internalType": "enum EmbraceSpaces.Visibility",
          "name": "visibility",
          "type": "uint8"
        },
        {
          "components": [
            {
              "internalType": "enum EmbraceSpaces.MembershipType",
              "name": "kind",
              "type": "uint8"
            },
            {
              "components": [
                {
                  "internalType": "enum EmbraceSpaces.MembershipGateType",
                  "name": "gateType",
                  "type": "uint8"
                },
                {
                  "internalType": "address",
                  "name": "tokenAddress",
                  "type": "address"
                }
              ],
              "internalType": "struct EmbraceSpaces.MembershipGate",
              "name": "gate",
              "type": "tuple"
            },
            {
              "internalType": "bool",
              "name": "allowRequests",
              "type": "bool"
            }
          ],
          "internalType": "struct EmbraceSpaces.Membership",
          "name": "membership",
          "type": "tuple"
        },
        {
          "internalType": "string",
          "name": "metadata",
          "type": "string"
        },
        {
          "internalType": "address",
          "name": "founder",
          "type": "address"
        }
      ],
      "stateMutability": "view",
      "type": "function"
    }
  ],
  "bytecode": "0x6080604052600080553480156200001557600080fd5b5060405162002b3b38038062002b3b83398101604081905262000038916200005e565b600280546001600160a01b0319166001600160a01b039290921691909117905562000090565b6000602082840312156200007157600080fd5b81516001600160a01b03811681146200008957600080fd5b9392505050565b612a9b80620000a06000396000f3fe608060405234801561001057600080fd5b506004361061016c5760003560e01c80637586353b116100cd578063af41f22a11610081578063d1f97b7911610066578063d1f97b791461037f578063dbdc814b14610392578063f7177128146103a557600080fd5b8063af41f22a1461030c578063b29518f21461036c57600080fd5b80638be9e3c8116100b25780638be9e3c8146102d357806399384976146102e6578063a303cf8e146102f957600080fd5b80637586353b1461029b57806385155bf6146102c057600080fd5b80633a6eb955116101245780636be7658b116101095780636be7658b1461025557806370e104311461026857806374d0a6761461028857600080fd5b80633a6eb955146102155780635ce9284f1461023557600080fd5b80631f6dc437116101555780631f6dc437146101a45780633254c1f6146101c757806333d7ae40146101f557600080fd5b8063036f0e161461017157806315478ca914610186575b600080fd5b61018461017f366004612340565b6103b8565b005b61018e6104cc565b60405161019b91906124f3565b60405180910390f35b6101b76101b2366004612555565b61074f565b604051901515815260200161019b565b6101e76101d5366004612555565b60056020526000908152604090205481565b60405190815260200161019b565b6101e7610203366004612555565b60046020526000908152604090205481565b6101e7610223366004612555565b60009081526005602052604090205490565b6101e7610243366004612555565b60009081526004602052604090205490565b610184610263366004612585565b610785565b61027b610276366004612555565b6108ed565b60405161019b91906125a8565b610184610296366004612585565b610b4a565b6102ae6102a9366004612555565b610cab565b60405161019b969594939291906125c2565b61027b6102ce366004612555565b610e2c565b6101b76102e1366004612555565b61109a565b6101846102f4366004612585565b611668565b6101b7610307366004612555565b611706565b61034d61031a366004612585565b600360209081526000928352604080842090915290825290205460ff808216916101008104821691620100009091041683565b604080519315158452911515602084015215159082015260600161019b565b61018461037a3660046127b3565b61196d565b6101b761038d366004612555565b611cf8565b6101846103a0366004612585565b611f76565b6101846103b33660046128c8565b6120b4565b816103c28161074f565b806103d157506103d181611706565b6104145760405162461bcd60e51b815260206004820152600f60248201526e27b7363c9020b236b4b7103ab9b2b960891b60448201526064015b60405180910390fd5b600060018481548110610429576104296128ea565b9060005260206000209060090201905080600601836001600160801b031681548110610457576104576128ea565b60009182526020822060028204015460019091166010026101000a90046001600160801b031690036104c657600681018054600180820183556000928352602090922060028204018054929091166010026101000a6001600160801b0381810219909316928616029190911790555b50505050565b60606001805480602002602001604051908101604052809291908181526020016000905b8282101561074657838290600052602060002090600902016040518060e001604052908160008201548152602001600182015481526020016002820160009054906101000a900460ff16600281111561054b5761054b61236c565b600281111561055c5761055c61236c565b81526040805160608101909152600383018054602090930192829060ff16600281111561058b5761058b61236c565b600281111561059c5761059c61236c565b815260408051808201909152600183018054602090930192829060ff1660038111156105ca576105ca61236c565b60038111156105db576105db61236c565b8152905461010090046001600160a01b03166020918201529082526002929092015460ff161515908201529082526006830180546040805182850281018501909152818152938301939283018282801561068657602002820191906000526020600020906000905b82829054906101000a90046001600160801b03166001600160801b031681526020019060100190602082600f010492830192600103820291508084116106435790505b5050505050815260200160078201805461069f90612900565b80601f01602080910402602001604051908101604052809291908181526020018280546106cb90612900565b80156107185780601f106106ed57610100808354040283529160200191610718565b820191906000526020600020905b8154815290600101906020018083116106fb57829003601f168201915b5050509183525050600891909101546001600160a01b031660209182015290825260019290920191016104f0565b50505050905090565b600081815260036020908152604080832033845290915281205460ff16151560010361077d57506001919050565b506000919050565b8161078f8161074f565b8061079e575061079e81611706565b6107dc5760405162461bcd60e51b815260206004820152600f60248201526e27b7363c9020b236b4b7103ab9b2b960891b604482015260640161040b565b60008381526003602090815260408083206001600160a01b0386168452909152812054610100900460ff16151590036108575760405162461bcd60e51b815260206004820152601560248201527f4d656d62657220646f6573206e6f742065786973740000000000000000000000604482015260640161040b565b6040805160608101825260008082526020808301828152838501838152888452600383528584206001600160a01b0389168552835285842085518154935192511515620100000262ff0000199315156101000261ff00199215159290921661ffff1990951694909417179190911691909117905586825260049052918220805491926108e283612950565b919050555050505050565b6108f56121db565b60018281548110610908576109086128ea565b90600052602060002090600902016040518060e001604052908160008201548152602001600182015481526020016002820160009054906101000a900460ff1660028111156109595761095961236c565b600281111561096a5761096a61236c565b81526040805160608101909152600383018054602090930192829060ff1660028111156109995761099961236c565b60028111156109aa576109aa61236c565b815260408051808201909152600183018054602090930192829060ff1660038111156109d8576109d861236c565b60038111156109e9576109e961236c565b8152905461010090046001600160a01b03166020918201529082526002929092015460ff1615159082015290825260068301805460408051828502810185019091528181529383019392830182828015610a9457602002820191906000526020600020906000905b82829054906101000a90046001600160801b03166001600160801b031681526020019060100190602082600f01049283019260010382029150808411610a515790505b50505050508152602001600782018054610aad90612900565b80601f0160208091040260200160405190810160405280929190818152602001828054610ad990612900565b8015610b265780601f10610afb57610100808354040283529160200191610b26565b820191906000526020600020905b815481529060010190602001808311610b0957829003601f168201915b5050509183525050600891909101546001600160a01b031660209091015292915050565b81610b548161074f565b80610b635750610b6381611706565b610ba15760405162461bcd60e51b815260206004820152600f60248201526e27b7363c9020b236b4b7103ab9b2b960891b604482015260640161040b565b60008381526003602090815260408083206001600160a01b0386168452909152902054610100900460ff161515600103610c1d5760405162461bcd60e51b815260206004820152601560248201527f4d656d62657220616c7265616479206578697374730000000000000000000000604482015260640161040b565b60408051606081018252600080825260016020808401918252838501838152888452600382528584206001600160a01b0389168552825285842085518154945192511515620100000262ff0000199315156101000261ff00199215159290921661ffff199096169590951717919091169290921790915586825260049052918220805491926108e283612967565b60018181548110610cbb57600080fd5b60009182526020909120600990910201805460018201546002808401546040805160608101909152600386018054959750939560ff928316959094919391928492911690811115610d0e57610d0e61236c565b6002811115610d1f57610d1f61236c565b815260408051808201909152600183018054602090930192829060ff166003811115610d4d57610d4d61236c565b6003811115610d5e57610d5e61236c565b8152905461010090046001600160a01b03166020918201529082526002929092015460ff161515910152600782018054919291610d9a90612900565b80601f0160208091040260200160405190810160405280929190818152602001828054610dc690612900565b8015610e135780601f10610de857610100808354040283529160200191610e13565b820191906000526020600020905b815481529060010190602001808311610df657829003601f168201915b505050600890930154919250506001600160a01b031686565b610e346121db565b6000828152600560205260409020546001805482908110610e5757610e576128ea565b90600052602060002090600902016040518060e001604052908160008201548152602001600182015481526020016002820160009054906101000a900460ff166002811115610ea857610ea861236c565b6002811115610eb957610eb961236c565b81526040805160608101909152600383018054602090930192829060ff166002811115610ee857610ee861236c565b6002811115610ef957610ef961236c565b815260408051808201909152600183018054602090930192829060ff166003811115610f2757610f2761236c565b6003811115610f3857610f3861236c565b8152905461010090046001600160a01b03166020918201529082526002929092015460ff1615159082015290825260068301805460408051828502810185019091528181529383019392830182828015610fe357602002820191906000526020600020906000905b82829054906101000a90046001600160801b03166001600160801b031681526020019060100190602082600f01049283019260010382029150808411610fa05790505b50505050508152602001600782018054610ffc90612900565b80601f016020809104026020016040519081016040528092919081815260200182805461102890612900565b80156110755780601f1061104a57610100808354040283529160200191611075565b820191906000526020600020905b81548152906001019060200180831161105857829003601f168201915b5050509183525050600891909101546001600160a01b03166020909101529392505050565b600080600183815481106110b0576110b06128ea565b90600052602060002090600902016040518060e001604052908160008201548152602001600182015481526020016002820160009054906101000a900460ff1660028111156111015761110161236c565b60028111156111125761111261236c565b81526040805160608101909152600383018054602090930192829060ff1660028111156111415761114161236c565b60028111156111525761115261236c565b815260408051808201909152600183018054602090930192829060ff1660038111156111805761118061236c565b60038111156111915761119161236c565b8152905461010090046001600160a01b03166020918201529082526002929092015460ff161515908201529082526006830180546040805182850281018501909152818152938301939283018282801561123c57602002820191906000526020600020906000905b82829054906101000a90046001600160801b03166001600160801b031681526020019060100190602082600f010492830192600103820291508084116111f95790505b5050505050815260200160078201805461125590612900565b80601f016020809104026020016040519081016040528092919081815260200182805461128190612900565b80156112ce5780601f106112a3576101008083540402835291602001916112ce565b820191906000526020600020905b8154815290600101906020018083116112b157829003601f168201915b5050509183525050600891909101546001600160a01b031660209182015260008581526003825260408082203383529092522054909150610100900460ff16151560010361135e5760405162461bcd60e51b815260206004820152601860248201527f596f752061726520616c72656164792061206d656d6265720000000000000000604482015260640161040b565b6002816040015160028111156113765761137661236c565b036113ce5760405162461bcd60e51b815260206004820152602260248201527f596f752063616e6e6f74206a6f696e20616e20616e6f6e796d6f757320737061604482015261636560f01b606482015260840161040b565b6001816040015160028111156113e6576113e661236c565b1480156114095750600260608201515160028111156114075761140761236c565b145b1561147c5760405162461bcd60e51b815260206004820152602660248201527f596f752063616e6e6f74206a6f696e2061207072697661746520636c6f73656460448201527f2073706163650000000000000000000000000000000000000000000000000000606482015260840161040b565b600160608201515160028111156114955761149561236c565b1480156114a857506114a683611cf8565b155b1561151b5760405162461bcd60e51b815260206004820152603460248201527f596f7520646f206e6f74206d6565742074686520726571756972656d656e747360448201527f20666f7220746865206761746564207370616365000000000000000000000000606482015260840161040b565b6000600180836040015160028111156115365761153661236c565b1480156115595750600060608401515160028111156115575761155761236c565b145b1561156657506001905060005b60408051606081018252600080825283151560208084019182528615158486019081528a845260038252858420338552825285842085518154945192511515620100000262ff0000199315156101000261ff00199215159290921661ffff199096169590951717919091169290921790915588825260049052918220805491926115ef83612967565b9091555050600254600054604051633576860d60e11b815233600482015260248101919091526001600160a01b0390911690636aed0c1a90604401600060405180830381600087803b15801561164457600080fd5b505af1158015611658573d6000803e3d6000fd5b5060019998505050505050505050565b8161167281611706565b6116ad5760405162461bcd60e51b815260206004820152600c60248201526b27b7363c903337bab73232b960a11b604482015260640161040b565b6000600184815481106116c2576116c26128ea565b60009182526020909120600990910201600801805473ffffffffffffffffffffffffffffffffffffffff19166001600160a01b039490941693909317909255505050565b6000806001838154811061171c5761171c6128ea565b90600052602060002090600902016040518060e001604052908160008201548152602001600182015481526020016002820160009054906101000a900460ff16600281111561176d5761176d61236c565b600281111561177e5761177e61236c565b81526040805160608101909152600383018054602090930192829060ff1660028111156117ad576117ad61236c565b60028111156117be576117be61236c565b815260408051808201909152600183018054602090930192829060ff1660038111156117ec576117ec61236c565b60038111156117fd576117fd61236c565b8152905461010090046001600160a01b03166020918201529082526002929092015460ff16151590820152908252600683018054604080518285028101850190915281815293830193928301828280156118a857602002820191906000526020600020906000905b82829054906101000a90046001600160801b03166001600160801b031681526020019060100190602082600f010492830192600103820291508084116118655790505b505050505081526020016007820180546118c190612900565b80601f01602080910402602001604051908101604052809291908181526020018280546118ed90612900565b801561193a5780601f1061190f5761010080835404028352916020019161193a565b820191906000526020600020905b81548152906001019060200180831161191d57829003601f168201915b5050509183525050600891909101546001600160a01b0390811660209092019190915260c0909101511633149392505050565b600085815260056020526040902054156119c95760405162461bcd60e51b815260206004820152601560248201527f48616e646c6520616c7265616479206578697374730000000000000000000000604482015260640161040b565b60006040518060e0016040528060005481526020018781526020018660028111156119f6576119f661236c565b81526020808201879052604080830187905260608301869052336080909301929092526001805480820182556000829052845160099091027fb10e2d527612073b26eecdfd717e6a320cf44b4afac2b0732d9fcbe2b7fa0cf68101918255928501517fb10e2d527612073b26eecdfd717e6a320cf44b4afac2b0732d9fcbe2b7fa0cf7840155928401517fb10e2d527612073b26eecdfd717e6a320cf44b4afac2b0732d9fcbe2b7fa0cf890920180549495508594909160ff1990911690836002811115611ac657611ac661236c565b021790555060608201518051600383018054909190829060ff19166001836002811115611af557611af561236c565b02179055506020820151805160018084018054909291839160ff191690836003811115611b2457611b2461236c565b021790555060209182015181546001600160a01b03909116610100027fffffffffffffffffffffff0000000000000000000000000000000000000000ff909116179055604092909201516002909101805491151560ff1990921691909117905560808301518051611b9b926006850192019061221d565b5060a08201516007820190611bb090826129ce565b5060c091909101516008909101805473ffffffffffffffffffffffffffffffffffffffff19166001600160a01b039283161790556000805488825260056020526040918290208190556002549151633576860d60e11b81523360048201526024810191909152911690636aed0c1a90604401600060405180830381600087803b158015611c3c57600080fd5b505af1158015611c50573d6000803e3d6000fd5b5050600080548152600460205260408120805493509150611c7083612967565b909155505060408051606081018252600180825260208083019182526000838501818152815482526003835285822033835290925293842092518354925191511515620100000262ff0000199215156101000261ff00199215159290921661ffff1990941693909317171617905580549080611ceb83612967565b9190505550505050505050565b60008060018381548110611d0e57611d0e6128ea565b90600052602060002090600902016040518060e001604052908160008201548152602001600182015481526020016002820160009054906101000a900460ff166002811115611d5f57611d5f61236c565b6002811115611d7057611d7061236c565b81526040805160608101909152600383018054602090930192829060ff166002811115611d9f57611d9f61236c565b6002811115611db057611db061236c565b815260408051808201909152600183018054602090930192829060ff166003811115611dde57611dde61236c565b6003811115611def57611def61236c565b8152905461010090046001600160a01b03166020918201529082526002929092015460ff1615159082015290825260068301805460408051828502810185019091528181529383019392830182828015611e9a57602002820191906000526020600020906000905b82829054906101000a90046001600160801b03166001600160801b031681526020019060100190602082600f01049283019260010382029150808411611e575790505b50505050508152602001600782018054611eb390612900565b80601f0160208091040260200160405190810160405280929190818152602001828054611edf90612900565b8015611f2c5780601f10611f0157610100808354040283529160200191611f2c565b820191906000526020600020905b815481529060010190602001808311611f0f57829003601f168201915b5050509183525050600891909101546001600160a01b03908116602092830152606083015182015190910151919250811615611f6c575060019392505050565b5060009392505050565b81611f8081611706565b611fbb5760405162461bcd60e51b815260206004820152600c60248201526b27b7363c903337bab73232b960a11b604482015260640161040b565b60008381526003602090815260408083206001600160a01b0386168452909152902054610100900460ff1615156001036120215760008381526003602090815260408083206001600160a01b03861684529091529020805460ff19166001179055505050565b60408051606081018252600180825260208083019182526000838501818152888252600383528582206001600160a01b0389168352835285822085518154955192511515620100000262ff0000199315156101000261ff00199215159290921661ffff199097169690961717919091169390931790925586825260049052918220805491926108e283612967565b505050565b816120be8161074f565b806120cd57506120cd81611706565b61210b5760405162461bcd60e51b815260206004820152600f60248201526e27b7363c9020b236b4b7103ab9b2b960891b604482015260640161040b565b600060018481548110612120576121206128ea565b9060005260206000209060090201905060005b60068201548110156121d45783826006018281548110612155576121556128ea565b6000918252602090912060028204015460019091166010026101000a90046001600160801b0316036121c257816006018181548110612196576121966128ea565b90600052602060002090600291828204019190066010026101000a8154906001600160801b0302191690555b806121cc81612967565b915050612133565b5050505050565b6040805160e081018252600080825260208201819052909182019081526020016122036122d5565b815260606020820181905260408201819052600091015290565b828054828255906000526020600020906001016002900481019282156122c55791602002820160005b8382111561229057835183826101000a8154816001600160801b0302191690836001600160801b031602179055509260200192601001602081600f01049283019260010302612246565b80156122c35782816101000a8154906001600160801b030219169055601001602081600f01049283019260010302612290565b505b506122d192915061230f565b5090565b60408051606081019091528060008152602001612302604080518082019091526000808252602082015290565b8152600060209091015290565b5b808211156122d15760008155600101612310565b80356001600160801b038116811461233b57600080fd5b919050565b6000806040838503121561235357600080fd5b8235915061236360208401612324565b90509250929050565b634e487b7160e01b600052602160045260246000fd5b600381106123925761239261236c565b50565b80516123a081612382565b825260208101518051600481106123b9576123b961236c565b806020850152506001600160a01b036020820151166040840152506040810151151560608301525050565b6000815180845260005b8181101561240a576020818501810151868301820152016123ee565b506000602082860101526020601f19601f83011685010191505092915050565b60006101408084018351855260208085015181870152604085015161244e81612382565b8060408801525060608501516124676060880182612395565b50608085015160e08701939093528251918290526101608601928101916000905b808210156124b15783516001600160801b03168552938201939282019260019190910190612488565b5050505060a08301518482036101008601526124cd82826123e4565b91505060c08301516124eb6101208601826001600160a01b03169052565b509392505050565b6000602080830181845280855180835260408601915060408160051b870101925083870160005b8281101561254857603f1988860301845261253685835161242a565b9450928501929085019060010161251a565b5092979650505050505050565b60006020828403121561256757600080fd5b5035919050565b80356001600160a01b038116811461233b57600080fd5b6000806040838503121561259857600080fd5b823591506123636020840161256e565b6020815260006125bb602083018461242a565b9392505050565b60006101208883528760208401526125d987612382565b8660408401526125ec6060840187612395565b8060e08401526125fe818401866123e4565b9150506001600160a01b038316610100830152979650505050505050565b6003811061239257600080fd5b634e487b7160e01b600052604160045260246000fd5b6040516060810167ffffffffffffffff8111828210171561266257612662612629565b60405290565b6040805190810167ffffffffffffffff8111828210171561266257612662612629565b604051601f8201601f1916810167ffffffffffffffff811182821017156126b4576126b4612629565b604052919050565b600082601f8301126126cd57600080fd5b8135602067ffffffffffffffff8211156126e9576126e9612629565b8160051b6126f882820161268b565b928352848101820192828101908785111561271257600080fd5b83870192505b848310156127385761272983612324565b82529183019190830190612718565b979650505050505050565b600082601f83011261275457600080fd5b813567ffffffffffffffff81111561276e5761276e612629565b612781601f8201601f191660200161268b565b81815284602083860101111561279657600080fd5b816020850160208301376000918101602001919091529392505050565b60008060008060008587036101008112156127cd57600080fd5b8635955060208701356127df8161261c565b94506080603f19820112156127f357600080fd5b6127fb61263f565b60408801356128098161261c565b81526040605f198301121561281d57600080fd5b612825612668565b915060608801356004811061283957600080fd5b82526128476080890161256e565b602083015281602082015260a08801359150811515821461286757600080fd5b6040810191909152925060c086013567ffffffffffffffff8082111561288c57600080fd5b61289889838a016126bc565b935060e08801359150808211156128ae57600080fd5b506128bb88828901612743565b9150509295509295909350565b600080604083850312156128db57600080fd5b50508035926020909101359150565b634e487b7160e01b600052603260045260246000fd5b600181811c9082168061291457607f821691505b60208210810361293457634e487b7160e01b600052602260045260246000fd5b50919050565b634e487b7160e01b600052601160045260246000fd5b60008161295f5761295f61293a565b506000190190565b6000600182016129795761297961293a565b5060010190565b601f8211156120af57600081815260208120601f850160051c810160208610156129a75750805b601f850160051c820191505b818110156129c6578281556001016129b3565b505050505050565b815167ffffffffffffffff8111156129e8576129e8612629565b6129fc816129f68454612900565b84612980565b602080601f831160018114612a315760008415612a195750858301515b600019600386901b1c1916600185901b1785556129c6565b600085815260208120601f198616915b82811015612a6057888601518255948401946001909101908401612a41565b5085821015612a7e5787850151600019600388901b60f8161c191681555b5050505050600190811b0190555056fea164736f6c6343000811000a",
  "linkReferences": {},
  "deployedLinkReferences": {}
}