{
  "_format": "hh-sol-artifact-1",
  "contractName": "EmbraceApps",
  "sourceName": "contracts/EmbraceApps.sol",
  "abi": [
    {
      "inputs": [],
      "stateMutability": "nonpayable",
      "type": "constructor"
    },
    {
      "inputs": [
        {
          "internalType": "uint256",
          "name": "_spaceId",
          "type": "uint256"
        },
        {
          "internalType": "uint128",
          "name": "_appIndex",
          "type": "uint128"
        }
      ],
      "name": "addAppToSpace",
      "outputs": [],
      "stateMutability": "nonpayable",
      "type": "function"
    },
    {
      "inputs": [
        {
          "internalType": "uint256",
          "name": "",
          "type": "uint256"
        }
      ],
      "name": "apps",
      "outputs": [
        {
          "internalType": "uint256",
          "name": "id",
          "type": "uint256"
        },
        {
          "internalType": "string",
          "name": "name",
          "type": "string"
        },
        {
          "internalType": "address",
          "name": "contractAddress",
          "type": "address"
        },
        {
          "internalType": "bool",
          "name": "enabled",
          "type": "bool"
        }
      ],
      "stateMutability": "view",
      "type": "function"
    },
    {
      "inputs": [
        {
          "internalType": "string",
          "name": "_name",
          "type": "string"
        },
        {
          "internalType": "address",
          "name": "_contractAddress",
          "type": "address"
        },
        {
          "internalType": "bool",
          "name": "_enabled",
          "type": "bool"
        }
      ],
      "name": "createApp",
      "outputs": [],
      "stateMutability": "nonpayable",
      "type": "function"
    },
    {
      "inputs": [
        {
          "internalType": "uint128",
          "name": "_appId",
          "type": "uint128"
        }
      ],
      "name": "getAppById",
      "outputs": [
        {
          "components": [
            {
              "internalType": "uint256",
              "name": "id",
              "type": "uint256"
            },
            {
              "internalType": "string",
              "name": "name",
              "type": "string"
            },
            {
              "internalType": "address",
              "name": "contractAddress",
              "type": "address"
            },
            {
              "internalType": "bool",
              "name": "enabled",
              "type": "bool"
            }
          ],
          "internalType": "struct EmbraceApps.App",
          "name": "",
          "type": "tuple"
        }
      ],
      "stateMutability": "view",
      "type": "function"
    },
    {
      "inputs": [
        {
          "internalType": "string",
          "name": "_name",
          "type": "string"
        }
      ],
      "name": "getAppByName",
      "outputs": [
        {
          "components": [
            {
              "internalType": "uint256",
              "name": "id",
              "type": "uint256"
            },
            {
              "internalType": "string",
              "name": "name",
              "type": "string"
            },
            {
              "internalType": "address",
              "name": "contractAddress",
              "type": "address"
            },
            {
              "internalType": "bool",
              "name": "enabled",
              "type": "bool"
            }
          ],
          "internalType": "struct EmbraceApps.App",
          "name": "",
          "type": "tuple"
        }
      ],
      "stateMutability": "view",
      "type": "function"
    },
    {
      "inputs": [],
      "name": "getApps",
      "outputs": [
        {
          "components": [
            {
              "internalType": "uint256",
              "name": "id",
              "type": "uint256"
            },
            {
              "internalType": "string",
              "name": "name",
              "type": "string"
            },
            {
              "internalType": "address",
              "name": "contractAddress",
              "type": "address"
            },
            {
              "internalType": "bool",
              "name": "enabled",
              "type": "bool"
            }
          ],
          "internalType": "struct EmbraceApps.App[]",
          "name": "",
          "type": "tuple[]"
        }
      ],
      "stateMutability": "view",
      "type": "function"
    },
    {
      "inputs": [
        {
          "internalType": "bytes32",
          "name": "",
          "type": "bytes32"
        }
      ],
      "name": "nameToId",
      "outputs": [
        {
          "internalType": "uint256",
          "name": "",
          "type": "uint256"
        }
      ],
      "stateMutability": "view",
      "type": "function"
    },
    {
      "inputs": [],
      "name": "owner",
      "outputs": [
        {
          "internalType": "address",
          "name": "",
          "type": "address"
        }
      ],
      "stateMutability": "view",
      "type": "function"
    },
    {
      "inputs": [
        {
          "internalType": "uint128",
          "name": "_appId",
          "type": "uint128"
        },
        {
          "internalType": "address",
          "name": "_contractAddress",
          "type": "address"
        }
      ],
      "name": "setAppContractAddress",
      "outputs": [],
      "stateMutability": "nonpayable",
      "type": "function"
    },
    {
      "inputs": [
        {
          "internalType": "uint256",
          "name": "",
          "type": "uint256"
        },
        {
          "internalType": "uint256",
          "name": "",
          "type": "uint256"
        }
      ],
      "name": "spaceToAppIdToSpaceApp",
      "outputs": [
        {
          "internalType": "uint256",
          "name": "appId",
          "type": "uint256"
        },
        {
          "internalType": "string",
          "name": "name",
          "type": "string"
        },
        {
          "internalType": "address",
          "name": "contractAddress",
          "type": "address"
        },
        {
          "internalType": "string",
          "name": "metadata",
          "type": "string"
        }
      ],
      "stateMutability": "view",
      "type": "function"
    },
    {
      "inputs": [
        {
          "internalType": "uint256",
          "name": "",
          "type": "uint256"
        },
        {
          "internalType": "uint256",
          "name": "",
          "type": "uint256"
        }
      ],
      "name": "spaceToAppIds",
      "outputs": [
        {
          "internalType": "uint256",
          "name": "",
          "type": "uint256"
        }
      ],
      "stateMutability": "view",
      "type": "function"
    }
  ],
  "bytecode": "0x608060405234801561001057600080fd5b5060058054336001600160a01b031990911617905561003a600061003f602090811b610dad17901c565b610048565b80546001019055565b6113cf806100576000396000f3fe608060405234801561001057600080fd5b50600436106100c95760003560e01c80637fee31a6116100815780639e9a208f1161005b5780639e9a208f146101d1578063d66d756d146101e4578063f3d1ce1b146101f957600080fd5b80637fee31a6146101735780638bf62e71146101935780638da5cb5b146101a657600080fd5b80636187fd3e116100b25780636187fd3e1461010f57806361acc37e146101225780636c86a4301461014557600080fd5b80634154b884146100ce578063573c2232146100fa575b600080fd5b6100e16100dc366004610e38565b61020c565b6040516100f19493929190610ea0565b60405180910390f35b61010d610108366004610fa4565b61035f565b005b61010d61011d366004611022565b610555565b610135610130366004611055565b610672565b6040516100f1949392919061106e565b610165610153366004611055565b60026020526000908152604090205481565b6040519081526020016100f1565b6101866101813660046110a8565b610746565b6040516100f1919061112f565b6101656101a1366004610e38565b6108e3565b6005546101b9906001600160a01b031681565b6040516001600160a01b0390911681526020016100f1565b61010d6101df366004611149565b610914565b6101ec610b36565b6040516100f1919061116c565b6101866102073660046111ce565b610c61565b600460209081526000928352604080842090915290825290208054600182018054919291610239906111e9565b80601f0160208091040260200160405190810160405280929190818152602001828054610265906111e9565b80156102b25780601f10610287576101008083540402835291602001916102b2565b820191906000526020600020905b81548152906001019060200180831161029557829003601f168201915b505050600284015460038501805494956001600160a01b039092169491935091506102dc906111e9565b80601f0160208091040260200160405190810160405280929190818152602001828054610308906111e9565b80156103555780601f1061032a57610100808354040283529160200191610355565b820191906000526020600020905b81548152906001019060200180831161033857829003601f168201915b5050505050905084565b6005546001600160a01b031633146103c95760405162461bcd60e51b815260206004820152602260248201527f4f6e6c79206f776e65722063616e2063616c6c20746869732066756e6374696f604482015261371760f11b60648201526084015b60405180910390fd5b826002600082805190602001208152602001908152602001600020546000146104345760405162461bcd60e51b815260206004820152601860248201527f417070206e616d6520616c7265616479206578697374732e000000000000000060448201526064016103c0565b6000805460408051608081018252828152602081018881526001600160a01b0388169282019290925285151560608201526001805480820182559452805160039094027fb10e2d527612073b26eecdfd717e6a320cf44b4afac2b0732d9fcbe2b7fa0cf6810194855591519293909283927fb10e2d527612073b26eecdfd717e6a320cf44b4afac2b0732d9fcbe2b7fa0cf701906104d29082611271565b506040820151600290910180546060909301511515600160a01b027fffffffffffffffffffffff0000000000000000000000000000000000000000009093166001600160a01b0390921691909117919091179055610534600080546001019055565b50845160209586012060009081526002909552604090942093909355505050565b6005546001600160a01b031633146105ba5760405162461bcd60e51b815260206004820152602260248201527f4f6e6c79206f776e65722063616e2063616c6c20746869732066756e6374696f604482015261371760f11b60648201526084016103c0565b6000826001600160801b0316116106135760405162461bcd60e51b815260206004820152601360248201527f41707020646f6573206e6f742065786973742e0000000000000000000000000060448201526064016103c0565b8060016106208185611347565b6001600160801b0316815481106106395761063961136e565b906000526020600020906003020160020160006101000a8154816001600160a01b0302191690836001600160a01b031602179055505050565b6001818154811061068257600080fd5b600091825260209091206003909102018054600182018054919350906106a7906111e9565b80601f01602080910402602001604051908101604052809291908181526020018280546106d3906111e9565b80156107205780601f106106f557610100808354040283529160200191610720565b820191906000526020600020905b81548152906001019060200180831161070357829003601f168201915b505050600290930154919250506001600160a01b0381169060ff600160a01b9091041684565b61077c6040518060800160405280600081526020016060815260200160006001600160a01b031681526020016000151581525090565b8151602080840191909120600090815260029091526040902054801561089b5760016107a88183611384565b815481106107b8576107b861136e565b9060005260206000209060030201604051806080016040529081600082015481526020016001820180546107eb906111e9565b80601f0160208091040260200160405190810160405280929190818152602001828054610817906111e9565b80156108645780601f1061083957610100808354040283529160200191610864565b820191906000526020600020905b81548152906001019060200180831161084757829003601f168201915b5050509183525050600291909101546001600160a01b0381166020830152600160a01b900460ff1615156040909101529392505050565b60405162461bcd60e51b815260206004820152600e60248201527f417070206e6f7420666f756e642e00000000000000000000000000000000000060448201526064016103c0565b600360205281600052604060002081815481106108ff57600080fd5b90600052602060002001600091509150505481565b61095d6040518060400160405280600d81526020017f616464417070546f53706163650000000000000000000000000000000000000081525083836001600160801b0316610db6565b60006001826001600160801b03168154811061097b5761097b61136e565b9060005260206000209060030201604051806080016040529081600082015481526020016001820180546109ae906111e9565b80601f01602080910402602001604051908101604052809291908181526020018280546109da906111e9565b8015610a275780601f106109fc57610100808354040283529160200191610a27565b820191906000526020600020905b815481529060010190602001808311610a0a57829003601f168201915b5050509183525050600291909101546001600160a01b03808216602080850191909152600160a01b90920460ff16151560409384015260008781526003835283812085518154600180820184559284528584200155845160808101865286518152868501518186019081528787015190941681870152855180860187528381526060820152898352600485528583208751845290945293902082518155905193945090928392820190610ada9082611271565b5060408201516002820180547fffffffffffffffffffffffff0000000000000000000000000000000000000000166001600160a01b0390921691909117905560608201516003820190610b2d9082611271565b50505050505050565b60606001805480602002602001604051908101604052809291908181526020016000905b82821015610c58578382906000526020600020906003020160405180608001604052908160008201548152602001600182018054610b97906111e9565b80601f0160208091040260200160405190810160405280929190818152602001828054610bc3906111e9565b8015610c105780601f10610be557610100808354040283529160200191610c10565b820191906000526020600020905b815481529060010190602001808311610bf357829003601f168201915b5050509183525050600291909101546001600160a01b038116602080840191909152600160a01b90910460ff1615156040909201919091529082526001929092019101610b5a565b50505050905090565b610c976040518060800160405280600081526020016060815260200160006001600160a01b031681526020016000151581525090565b6001600160801b0382161561089b576001610cb28184611347565b6001600160801b031681548110610ccb57610ccb61136e565b906000526020600020906003020160405180608001604052908160008201548152602001600182018054610cfe906111e9565b80601f0160208091040260200160405190810160405280929190818152602001828054610d2a906111e9565b8015610d775780601f10610d4c57610100808354040283529160200191610d77565b820191906000526020600020905b815481529060010190602001808311610d5a57829003601f168201915b5050509183525050600291909101546001600160a01b0381166020830152600160a01b900460ff16151560409091015292915050565b80546001019055565b610e12838383604051602401610dce9392919061139d565b60408051601f198184030181529190526020810180517bffffffffffffffffffffffffffffffffffffffffffffffffffffffff1663ca47c4eb60e01b179052610e17565b505050565b80516a636f6e736f6c652e6c6f67602083016000808483855afa5050505050565b60008060408385031215610e4b57600080fd5b50508035926020909101359150565b6000815180845260005b81811015610e8057602081850181015186830182015201610e64565b506000602082860101526020601f19601f83011685010191505092915050565b848152608060208201526000610eb96080830186610e5a565b6001600160a01b03851660408401528281036060840152610eda8185610e5a565b979650505050505050565b634e487b7160e01b600052604160045260246000fd5b600082601f830112610f0c57600080fd5b813567ffffffffffffffff80821115610f2757610f27610ee5565b604051601f8301601f19908116603f01168101908282118183101715610f4f57610f4f610ee5565b81604052838152866020858801011115610f6857600080fd5b836020870160208301376000602085830101528094505050505092915050565b80356001600160a01b0381168114610f9f57600080fd5b919050565b600080600060608486031215610fb957600080fd5b833567ffffffffffffffff811115610fd057600080fd5b610fdc86828701610efb565b935050610feb60208501610f88565b91506040840135801515811461100057600080fd5b809150509250925092565b80356001600160801b0381168114610f9f57600080fd5b6000806040838503121561103557600080fd5b61103e8361100b565b915061104c60208401610f88565b90509250929050565b60006020828403121561106757600080fd5b5035919050565b8481526080602082015260006110876080830186610e5a565b6001600160a01b039490941660408301525090151560609091015292915050565b6000602082840312156110ba57600080fd5b813567ffffffffffffffff8111156110d157600080fd5b6110dd84828501610efb565b949350505050565b8051825260006020820151608060208501526111046080850182610e5a565b90506001600160a01b0360408401511660408501526060830151151560608501528091505092915050565b60208152600061114260208301846110e5565b9392505050565b6000806040838503121561115c57600080fd5b8235915061104c6020840161100b565b6000602080830181845280855180835260408601915060408160051b870101925083870160005b828110156111c157603f198886030184526111af8583516110e5565b94509285019290850190600101611193565b5092979650505050505050565b6000602082840312156111e057600080fd5b6111428261100b565b600181811c908216806111fd57607f821691505b60208210810361121d57634e487b7160e01b600052602260045260246000fd5b50919050565b601f821115610e1257600081815260208120601f850160051c8101602086101561124a5750805b601f850160051c820191505b8181101561126957828155600101611256565b505050505050565b815167ffffffffffffffff81111561128b5761128b610ee5565b61129f8161129984546111e9565b84611223565b602080601f8311600181146112d457600084156112bc5750858301515b600019600386901b1c1916600185901b178555611269565b600085815260208120601f198616915b82811015611303578886015182559484019460019091019084016112e4565b50858210156113215787850151600019600388901b60f8161c191681555b5050505050600190811b01905550565b634e487b7160e01b600052601160045260246000fd5b6001600160801b0382811682821603908082111561136757611367611331565b5092915050565b634e487b7160e01b600052603260045260246000fd5b8181038181111561139757611397611331565b92915050565b6060815260006113b06060830186610e5a565b6020830194909452506040015291905056fea164736f6c6343000811000a",
  "linkReferences": {},
  "deployedLinkReferences": {}
}