{
  "_format": "hh-sol-artifact-1",
  "contractName": "EmbraceSpaces",
  "sourceName": "contracts/EmbraceSpaces.sol",
  "abi": [
    {
      "inputs": [
        {
          "internalType": "address",
          "name": "_accountsAddress",
          "type": "address"
        }
      ],
      "stateMutability": "nonpayable",
      "type": "constructor"
    },
    {
      "inputs": [
        {
          "internalType": "uint256",
          "name": "spaceId",
          "type": "uint256"
        },
        {
          "internalType": "address",
          "name": "memberAddress",
          "type": "address"
        }
      ],
      "name": "ErrorCannotJoinAnonSpace",
      "type": "error"
    },
    {
      "inputs": [
        {
          "internalType": "uint256",
          "name": "spaceId",
          "type": "uint256"
        },
        {
          "internalType": "address",
          "name": "memberAddress",
          "type": "address"
        }
      ],
      "name": "ErrorCannotJoinPrivClosedSpace",
      "type": "error"
    },
    {
      "inputs": [
        {
          "internalType": "uint256",
          "name": "spaceId",
          "type": "uint256"
        },
        {
          "internalType": "address",
          "name": "memberAddress",
          "type": "address"
        }
      ],
      "name": "ErrorDoNotMeetSpaceReq",
      "type": "error"
    },
    {
      "inputs": [
        {
          "internalType": "bytes32",
          "name": "handle",
          "type": "bytes32"
        }
      ],
      "name": "ErrorHandleExists",
      "type": "error"
    },
    {
      "inputs": [
        {
          "internalType": "uint256",
          "name": "spaceId",
          "type": "uint256"
        },
        {
          "internalType": "address",
          "name": "memberAddress",
          "type": "address"
        }
      ],
      "name": "ErrorMemberAlreadyExists",
      "type": "error"
    },
    {
      "inputs": [
        {
          "internalType": "uint256",
          "name": "spaceId",
          "type": "uint256"
        },
        {
          "internalType": "address",
          "name": "memberAddress",
          "type": "address"
        }
      ],
      "name": "ErrorOnlyAdmin",
      "type": "error"
    },
    {
      "inputs": [
        {
          "internalType": "uint256",
          "name": "spaceId",
          "type": "uint256"
        },
        {
          "internalType": "address",
          "name": "memberAddress",
          "type": "address"
        }
      ],
      "name": "ErrorOnlyFounder",
      "type": "error"
    },
    {
      "anonymous": false,
      "inputs": [
        {
          "indexed": true,
          "internalType": "uint256",
          "name": "spaceId",
          "type": "uint256"
        },
        {
          "indexed": true,
          "internalType": "address",
          "name": "memberAddress",
          "type": "address"
        },
        {
          "indexed": false,
          "internalType": "bool",
          "name": "isAdmin",
          "type": "bool"
        }
      ],
      "name": "JoinedSpace",
      "type": "event"
    },
    {
      "anonymous": false,
      "inputs": [
        {
          "indexed": true,
          "internalType": "uint256",
          "name": "spaceId",
          "type": "uint256"
        },
        {
          "indexed": true,
          "internalType": "address",
          "name": "memberAddress",
          "type": "address"
        }
      ],
      "name": "RemovedFromSpace",
      "type": "event"
    },
    {
      "anonymous": false,
      "inputs": [
        {
          "indexed": true,
          "internalType": "uint256",
          "name": "spaceId",
          "type": "uint256"
        },
        {
          "indexed": true,
          "internalType": "address",
          "name": "memberAddress",
          "type": "address"
        }
      ],
      "name": "RequestJoinSpace",
      "type": "event"
    },
    {
      "anonymous": false,
      "inputs": [
        {
          "indexed": true,
          "internalType": "uint256",
          "name": "spaceId",
          "type": "uint256"
        },
        {
          "indexed": true,
          "internalType": "address",
          "name": "founder",
          "type": "address"
        }
      ],
      "name": "SpaceCreated",
      "type": "event"
    },
    {
      "inputs": [
        {
          "internalType": "uint256",
          "name": "_spaceId",
          "type": "uint256"
        },
        {
          "internalType": "uint128",
          "name": "_appId",
          "type": "uint128"
        }
      ],
      "name": "addApp",
      "outputs": [],
      "stateMutability": "nonpayable",
      "type": "function"
    },
    {
      "inputs": [
        {
          "internalType": "bytes32",
          "name": "_handle",
          "type": "bytes32"
        },
        {
          "internalType": "enum EmbraceSpaces.Visibility",
          "name": "_visibility",
          "type": "uint8"
        },
        {
          "components": [
            {
              "internalType": "enum EmbraceSpaces.Access",
              "name": "access",
              "type": "uint8"
            },
            {
              "components": [
                {
                  "internalType": "enum EmbraceSpaces.MembershipGateToken",
                  "name": "token",
                  "type": "uint8"
                },
                {
                  "internalType": "address",
                  "name": "tokenAddress",
                  "type": "address"
                }
              ],
              "internalType": "struct EmbraceSpaces.MembershipGate",
              "name": "gate",
              "type": "tuple"
            },
            {
              "internalType": "bool",
              "name": "allowRequests",
              "type": "bool"
            }
          ],
          "internalType": "struct EmbraceSpaces.Membership",
          "name": "_membership",
          "type": "tuple"
        },
        {
          "internalType": "uint128[]",
          "name": "_apps",
          "type": "uint128[]"
        },
        {
          "internalType": "string",
          "name": "_metadata",
          "type": "string"
        }
      ],
      "name": "createSpace",
      "outputs": [],
      "stateMutability": "nonpayable",
      "type": "function"
    },
    {
      "inputs": [
        {
          "internalType": "bytes32",
          "name": "_handle",
          "type": "bytes32"
        }
      ],
      "name": "getIdFromHandle",
      "outputs": [
        {
          "internalType": "uint256",
          "name": "",
          "type": "uint256"
        }
      ],
      "stateMutability": "view",
      "type": "function"
    },
    {
      "inputs": [
        {
          "internalType": "uint256",
          "name": "_spaceId",
          "type": "uint256"
        }
      ],
      "name": "getMemberCount",
      "outputs": [
        {
          "internalType": "uint256",
          "name": "",
          "type": "uint256"
        }
      ],
      "stateMutability": "view",
      "type": "function"
    },
    {
      "inputs": [
        {
          "internalType": "uint256",
          "name": "_spaceId",
          "type": "uint256"
        }
      ],
      "name": "getSpace",
      "outputs": [
        {
          "components": [
            {
              "internalType": "uint256",
              "name": "id",
              "type": "uint256"
            },
            {
              "internalType": "bytes32",
              "name": "handle",
              "type": "bytes32"
            },
            {
              "internalType": "address",
              "name": "founder",
              "type": "address"
            },
            {
              "internalType": "enum EmbraceSpaces.Visibility",
              "name": "visibility",
              "type": "uint8"
            },
            {
              "components": [
                {
                  "internalType": "enum EmbraceSpaces.Access",
                  "name": "access",
                  "type": "uint8"
                },
                {
                  "components": [
                    {
                      "internalType": "enum EmbraceSpaces.MembershipGateToken",
                      "name": "token",
                      "type": "uint8"
                    },
                    {
                      "internalType": "address",
                      "name": "tokenAddress",
                      "type": "address"
                    }
                  ],
                  "internalType": "struct EmbraceSpaces.MembershipGate",
                  "name": "gate",
                  "type": "tuple"
                },
                {
                  "internalType": "bool",
                  "name": "allowRequests",
                  "type": "bool"
                }
              ],
              "internalType": "struct EmbraceSpaces.Membership",
              "name": "membership",
              "type": "tuple"
            },
            {
              "internalType": "uint128[]",
              "name": "apps",
              "type": "uint128[]"
            },
            {
              "internalType": "string",
              "name": "metadata",
              "type": "string"
            }
          ],
          "internalType": "struct EmbraceSpaces.Space",
          "name": "",
          "type": "tuple"
        }
      ],
      "stateMutability": "view",
      "type": "function"
    },
    {
      "inputs": [
        {
          "internalType": "bytes32",
          "name": "_handle",
          "type": "bytes32"
        }
      ],
      "name": "getSpaceFromHandle",
      "outputs": [
        {
          "components": [
            {
              "internalType": "uint256",
              "name": "id",
              "type": "uint256"
            },
            {
              "internalType": "bytes32",
              "name": "handle",
              "type": "bytes32"
            },
            {
              "internalType": "address",
              "name": "founder",
              "type": "address"
            },
            {
              "internalType": "enum EmbraceSpaces.Visibility",
              "name": "visibility",
              "type": "uint8"
            },
            {
              "components": [
                {
                  "internalType": "enum EmbraceSpaces.Access",
                  "name": "access",
                  "type": "uint8"
                },
                {
                  "components": [
                    {
                      "internalType": "enum EmbraceSpaces.MembershipGateToken",
                      "name": "token",
                      "type": "uint8"
                    },
                    {
                      "internalType": "address",
                      "name": "tokenAddress",
                      "type": "address"
                    }
                  ],
                  "internalType": "struct EmbraceSpaces.MembershipGate",
                  "name": "gate",
                  "type": "tuple"
                },
                {
                  "internalType": "bool",
                  "name": "allowRequests",
                  "type": "bool"
                }
              ],
              "internalType": "struct EmbraceSpaces.Membership",
              "name": "membership",
              "type": "tuple"
            },
            {
              "internalType": "uint128[]",
              "name": "apps",
              "type": "uint128[]"
            },
            {
              "internalType": "string",
              "name": "metadata",
              "type": "string"
            }
          ],
          "internalType": "struct EmbraceSpaces.Space",
          "name": "",
          "type": "tuple"
        }
      ],
      "stateMutability": "view",
      "type": "function"
    },
    {
      "inputs": [
        {
          "internalType": "uint256",
          "name": "_spaceId",
          "type": "uint256"
        },
        {
          "internalType": "address",
          "name": "_address",
          "type": "address"
        }
      ],
      "name": "getSpaceMember",
      "outputs": [
        {
          "components": [
            {
              "internalType": "bool",
              "name": "isAdmin",
              "type": "bool"
            },
            {
              "internalType": "bool",
              "name": "isActive",
              "type": "bool"
            },
            {
              "internalType": "bool",
              "name": "isRequest",
              "type": "bool"
            }
          ],
          "internalType": "struct EmbraceSpaces.Member",
          "name": "",
          "type": "tuple"
        }
      ],
      "stateMutability": "view",
      "type": "function"
    },
    {
      "inputs": [],
      "name": "getSpaces",
      "outputs": [
        {
          "components": [
            {
              "internalType": "uint256",
              "name": "id",
              "type": "uint256"
            },
            {
              "internalType": "bytes32",
              "name": "handle",
              "type": "bytes32"
            },
            {
              "internalType": "address",
              "name": "founder",
              "type": "address"
            },
            {
              "internalType": "enum EmbraceSpaces.Visibility",
              "name": "visibility",
              "type": "uint8"
            },
            {
              "components": [
                {
                  "internalType": "enum EmbraceSpaces.Access",
                  "name": "access",
                  "type": "uint8"
                },
                {
                  "components": [
                    {
                      "internalType": "enum EmbraceSpaces.MembershipGateToken",
                      "name": "token",
                      "type": "uint8"
                    },
                    {
                      "internalType": "address",
                      "name": "tokenAddress",
                      "type": "address"
                    }
                  ],
                  "internalType": "struct EmbraceSpaces.MembershipGate",
                  "name": "gate",
                  "type": "tuple"
                },
                {
                  "internalType": "bool",
                  "name": "allowRequests",
                  "type": "bool"
                }
              ],
              "internalType": "struct EmbraceSpaces.Membership",
              "name": "membership",
              "type": "tuple"
            },
            {
              "internalType": "uint128[]",
              "name": "apps",
              "type": "uint128[]"
            },
            {
              "internalType": "string",
              "name": "metadata",
              "type": "string"
            }
          ],
          "internalType": "struct EmbraceSpaces.Space[]",
          "name": "",
          "type": "tuple[]"
        }
      ],
      "stateMutability": "view",
      "type": "function"
    },
    {
      "inputs": [
        {
          "internalType": "uint256",
          "name": "_spaceId",
          "type": "uint256"
        }
      ],
      "name": "isAdmin",
      "outputs": [
        {
          "internalType": "bool",
          "name": "",
          "type": "bool"
        }
      ],
      "stateMutability": "view",
      "type": "function"
    },
    {
      "inputs": [
        {
          "internalType": "uint256",
          "name": "_spaceId",
          "type": "uint256"
        }
      ],
      "name": "isFounder",
      "outputs": [
        {
          "internalType": "bool",
          "name": "",
          "type": "bool"
        }
      ],
      "stateMutability": "view",
      "type": "function"
    },
    {
      "inputs": [
        {
          "internalType": "uint256",
          "name": "_spaceId",
          "type": "uint256"
        }
      ],
      "name": "joinSpace",
      "outputs": [
        {
          "internalType": "bool",
          "name": "",
          "type": "bool"
        }
      ],
      "stateMutability": "nonpayable",
      "type": "function"
    },
    {
      "inputs": [
        {
          "internalType": "uint256",
          "name": "_spaceId",
          "type": "uint256"
        }
      ],
      "name": "meetsGateRequirements",
      "outputs": [
        {
          "internalType": "bool",
          "name": "",
          "type": "bool"
        }
      ],
      "stateMutability": "view",
      "type": "function"
    },
    {
      "inputs": [
        {
          "internalType": "uint256",
          "name": "_spaceId",
          "type": "uint256"
        },
        {
          "internalType": "uint256",
          "name": "_appId",
          "type": "uint256"
        }
      ],
      "name": "removeApp",
      "outputs": [],
      "stateMutability": "nonpayable",
      "type": "function"
    },
    {
      "inputs": [
        {
          "internalType": "uint256",
          "name": "_spaceId",
          "type": "uint256"
        }
      ],
      "name": "requestJoin",
      "outputs": [
        {
          "internalType": "bool",
          "name": "",
          "type": "bool"
        }
      ],
      "stateMutability": "nonpayable",
      "type": "function"
    },
    {
      "inputs": [
        {
          "internalType": "uint256",
          "name": "_spaceId",
          "type": "uint256"
        },
        {
          "internalType": "address",
          "name": "_address",
          "type": "address"
        }
      ],
      "name": "setFounder",
      "outputs": [],
      "stateMutability": "nonpayable",
      "type": "function"
    },
    {
      "inputs": [
        {
          "internalType": "uint256",
          "name": "_spaceId",
          "type": "uint256"
        },
        {
          "internalType": "address",
          "name": "_address",
          "type": "address"
        },
        {
          "internalType": "bool",
          "name": "_isActive",
          "type": "bool"
        },
        {
          "internalType": "bool",
          "name": "_isAdmin",
          "type": "bool"
        }
      ],
      "name": "setMember",
      "outputs": [],
      "stateMutability": "nonpayable",
      "type": "function"
    },
    {
      "inputs": [
        {
          "internalType": "bytes32",
          "name": "",
          "type": "bytes32"
        }
      ],
      "name": "spaceHandles",
      "outputs": [
        {
          "internalType": "uint256",
          "name": "",
          "type": "uint256"
        }
      ],
      "stateMutability": "view",
      "type": "function"
    },
    {
      "inputs": [
        {
          "internalType": "uint256",
          "name": "",
          "type": "uint256"
        }
      ],
      "name": "spaceMemberLength",
      "outputs": [
        {
          "internalType": "uint256",
          "name": "",
          "type": "uint256"
        }
      ],
      "stateMutability": "view",
      "type": "function"
    },
    {
      "inputs": [
        {
          "internalType": "uint256",
          "name": "",
          "type": "uint256"
        },
        {
          "internalType": "address",
          "name": "",
          "type": "address"
        }
      ],
      "name": "spaceMembers",
      "outputs": [
        {
          "internalType": "bool",
          "name": "isAdmin",
          "type": "bool"
        },
        {
          "internalType": "bool",
          "name": "isActive",
          "type": "bool"
        },
        {
          "internalType": "bool",
          "name": "isRequest",
          "type": "bool"
        }
      ],
      "stateMutability": "view",
      "type": "function"
    },
    {
      "inputs": [
        {
          "internalType": "uint256",
          "name": "",
          "type": "uint256"
        }
      ],
      "name": "spaces",
      "outputs": [
        {
          "internalType": "uint256",
          "name": "id",
          "type": "uint256"
        },
        {
          "internalType": "bytes32",
          "name": "handle",
          "type": "bytes32"
        },
        {
          "internalType": "address",
          "name": "founder",
          "type": "address"
        },
        {
          "internalType": "enum EmbraceSpaces.Visibility",
          "name": "visibility",
          "type": "uint8"
        },
        {
          "components": [
            {
              "internalType": "enum EmbraceSpaces.Access",
              "name": "access",
              "type": "uint8"
            },
            {
              "components": [
                {
                  "internalType": "enum EmbraceSpaces.MembershipGateToken",
                  "name": "token",
                  "type": "uint8"
                },
                {
                  "internalType": "address",
                  "name": "tokenAddress",
                  "type": "address"
                }
              ],
              "internalType": "struct EmbraceSpaces.MembershipGate",
              "name": "gate",
              "type": "tuple"
            },
            {
              "internalType": "bool",
              "name": "allowRequests",
              "type": "bool"
            }
          ],
          "internalType": "struct EmbraceSpaces.Membership",
          "name": "membership",
          "type": "tuple"
        },
        {
          "internalType": "string",
          "name": "metadata",
          "type": "string"
        }
      ],
      "stateMutability": "view",
      "type": "function"
    }
  ],
  "bytecode": "0x60806040523480156200001157600080fd5b5060405162002e1b38038062002e1b83398101604081905262000034916200005a565b600280546001600160a01b0319166001600160a01b03929092169190911790556200008c565b6000602082840312156200006d57600080fd5b81516001600160a01b03811681146200008557600080fd5b9392505050565b612d7f806200009c6000396000f3fe608060405234801561001057600080fd5b506004361061016c5760003560e01c80637586353b116100cd578063af41f22a11610081578063d1f97b7911610066578063d1f97b7914610415578063dd739fb514610428578063f71771281461043b57600080fd5b8063af41f22a146103a2578063b29518f21461040257600080fd5b80638be9e3c8116100b25780638be9e3c814610369578063993849761461037c578063a303cf8e1461038f57600080fd5b80637586353b1461033157806385155bf61461035657600080fd5b80633254c1f6116101245780633a6eb955116101095780633a6eb955146102d15780635ce9284f146102f157806370e104311461031157600080fd5b80633254c1f61461028357806333d7ae40146102b157600080fd5b80631557f48c116101555780631557f48c146101a45780631f6dc4371461024d5780632ea6524f1461027057600080fd5b8063036f0e161461017157806315478ca914610186575b600080fd5b61018461017f3660046125c6565b61044e565b005b61018e61054b565b60405161019b9190612770565b60405180910390f35b6102256101b23660046127e9565b604080516060808201835260008083526020808401829052928401819052948552600382528285206001600160a01b0394909416855292815292819020815192830182525460ff808216151584526101008204811615159484019490945262010000900490921615159181019190915290565b604080518251151581526020808401511515908201529181015115159082015260600161019b565b61026061025b36600461280c565b6107ca565b604051901515815260200161019b565b61026061027e36600461280c565b610800565b6102a361029136600461280c565b60056020526000908152604090205481565b60405190815260200161019b565b6102a36102bf36600461280c565b60046020526000908152604090205481565b6102a36102df36600461280c565b60009081526005602052604090205490565b6102a36102ff36600461280c565b60009081526004602052604090205490565b61032461031f36600461280c565b610bc8565b60405161019b9190612825565b61034461033f36600461280c565b610e27565b60405161019b9695949392919061283f565b61032461036436600461280c565b610fad565b61026061037736600461280c565b61121d565b61018461038a3660046127e9565b6116e5565b61026061039d36600461280c565b61176f565b6103e36103b03660046127e9565b600360209081526000928352604080842090915290825290205460ff808216916101008104821691620100009091041683565b604080519315158452911515602084015215159082015260600161019b565b610184610410366004612a3f565b6119d9565b61026061042336600461280c565b611d9b565b610184610436366004612b49565b612149565b610184610449366004612b96565b612350565b81610458816107ca565b8061046757506104678161176f565b156104935760405163eae3129560e01b8152600481018290523360248201526044015b60405180910390fd5b6000600184815481106104a8576104a8612bb8565b9060005260206000209060080201905080600601836001600160801b0316815481106104d6576104d6612bb8565b60009182526020822060028204015460019091166010026101000a90046001600160801b0316900361054557600681018054600180820183556000928352602090922060028204018054929091166010026101000a6001600160801b0381810219909316928616029190911790555b50505050565b60606001805480602002602001604051908101604052809291908181526020016000905b828210156107c15760008481526020908190206040805160e08101825260088602909201805483526001810154938301939093526002808401546001600160a01b038116928401929092529192916060840191600160a01b900460ff16908111156105dc576105dc6125f2565b60028111156105ed576105ed6125f2565b81526040805160608101909152600383018054602090930192829060ff16600281111561061c5761061c6125f2565b600281111561062d5761062d6125f2565b815260408051808201909152600183018054602090930192829060ff16600381111561065b5761065b6125f2565b600381111561066c5761066c6125f2565b8152905461010090046001600160a01b03166020918201529082526002929092015460ff161515908201529082526006830180546040805182850281018501909152818152938301939283018282801561071757602002820191906000526020600020906000905b82829054906101000a90046001600160801b03166001600160801b031681526020019060100190602082600f010492830192600103820291508084116106d45790505b5050505050815260200160078201805461073090612bce565b80601f016020809104026020016040519081016040528092919081815260200182805461075c90612bce565b80156107a95780601f1061077e576101008083540402835291602001916107a9565b820191906000526020600020905b81548152906001019060200180831161078c57829003601f168201915b5050505050815250508152602001906001019061056f565b50505050905090565b600081815260036020908152604080832033845290915281205460ff1615156001036107f857506001919050565b506000919050565b6000818152600360209081526040808320338452909152812054610100900460ff16151560010361084d57604051630c4e612760e41b81526004810183905233602482015260440161048a565b60006001838154811061086257610862612bb8565b60009182526020918290206040805160e0810182526008909302909101805483526001810154938301939093526002808401546001600160a01b03811692840192909252919291606084019160ff600160a01b90910416908111156108c9576108c96125f2565b60028111156108da576108da6125f2565b81526040805160608101909152600383018054602090930192829060ff166002811115610909576109096125f2565b600281111561091a5761091a6125f2565b815260408051808201909152600183018054602090930192829060ff166003811115610948576109486125f2565b6003811115610959576109596125f2565b8152905461010090046001600160a01b03166020918201529082526002929092015460ff1615159082015290825260068301805460408051828502810185019091528181529383019392830182828015610a0457602002820191906000526020600020906000905b82829054906101000a90046001600160801b03166001600160801b031681526020019060100190602082600f010492830192600103820291508084116109c15790505b50505050508152602001600782018054610a1d90612bce565b80601f0160208091040260200160405190810160405280929190818152602001828054610a4990612bce565b8015610a965780601f10610a6b57610100808354040283529160200191610a96565b820191906000526020600020905b815481529060010190602001808311610a7957829003601f168201915b505050505081525050905060016002811115610ab457610ab46125f2565b81606001516002811115610aca57610aca6125f2565b141580610aee575060026080820151516002811115610aeb57610aeb6125f2565b14155b80610aff5750806080015160400151155b15610b265760405163425ad41160e11b81526004810184905233602482015260440161048a565b604080516060810182526000808252602080830182815260018486019081528884526003835285842033808652935285842085518154935192511515620100000262ff0000199315156101000261ff00199215159290921661ffff19909516949094171791909116919091179055925191929186917fdbb2455cc69235cd7b041dc0cced849ee3bd818c2e063d18e579d3d068f7974e91a35060019392505050565b610bd0612460565b60018281548110610be357610be3612bb8565b60009182526020918290206040805160e0810182526008909302909101805483526001810154938301939093526002808401546001600160a01b03811692840192909252919291606084019160ff600160a01b9091041690811115610c4a57610c4a6125f2565b6002811115610c5b57610c5b6125f2565b81526040805160608101909152600383018054602090930192829060ff166002811115610c8a57610c8a6125f2565b6002811115610c9b57610c9b6125f2565b815260408051808201909152600183018054602090930192829060ff166003811115610cc957610cc96125f2565b6003811115610cda57610cda6125f2565b8152905461010090046001600160a01b03166020918201529082526002929092015460ff1615159082015290825260068301805460408051828502810185019091528181529383019392830182828015610d8557602002820191906000526020600020906000905b82829054906101000a90046001600160801b03166001600160801b031681526020019060100190602082600f01049283019260010382029150808411610d425790505b50505050508152602001600782018054610d9e90612bce565b80601f0160208091040260200160405190810160405280929190818152602001828054610dca90612bce565b8015610e175780601f10610dec57610100808354040283529160200191610e17565b820191906000526020600020905b815481529060010190602001808311610dfa57829003601f168201915b5050505050815250509050919050565b60018181548110610e3757600080fd5b6000918252602090912060089091020180546001820154600280840154604080516060810190915260038601805495975093956001600160a01b0383169560ff600160a01b90940484169591949293919284929190911690811115610e9e57610e9e6125f2565b6002811115610eaf57610eaf6125f2565b815260408051808201909152600183018054602090930192829060ff166003811115610edd57610edd6125f2565b6003811115610eee57610eee6125f2565b8152905461010090046001600160a01b03166020918201529082526002929092015460ff161515910152600782018054919291610f2a90612bce565b80601f0160208091040260200160405190810160405280929190818152602001828054610f5690612bce565b8015610fa35780601f10610f7857610100808354040283529160200191610fa3565b820191906000526020600020905b815481529060010190602001808311610f8657829003601f168201915b5050505050905086565b610fb5612460565b6000828152600560205260409020546001805482908110610fd857610fd8612bb8565b60009182526020918290206040805160e0810182526008909302909101805483526001810154938301939093526002808401546001600160a01b03811692840192909252919291606084019160ff600160a01b909104169081111561103f5761103f6125f2565b6002811115611050576110506125f2565b81526040805160608101909152600383018054602090930192829060ff16600281111561107f5761107f6125f2565b6002811115611090576110906125f2565b815260408051808201909152600183018054602090930192829060ff1660038111156110be576110be6125f2565b60038111156110cf576110cf6125f2565b8152905461010090046001600160a01b03166020918201529082526002929092015460ff161515908201529082526006830180546040805182850281018501909152818152938301939283018282801561117a57602002820191906000526020600020906000905b82829054906101000a90046001600160801b03166001600160801b031681526020019060100190602082600f010492830192600103820291508084116111375790505b5050505050815260200160078201805461119390612bce565b80601f01602080910402602001604051908101604052809291908181526020018280546111bf90612bce565b801561120c5780601f106111e15761010080835404028352916020019161120c565b820191906000526020600020905b8154815290600101906020018083116111ef57829003601f168201915b505050505081525050915050919050565b6000806001838154811061123357611233612bb8565b60009182526020918290206040805160e0810182526008909302909101805483526001810154938301939093526002808401546001600160a01b03811692840192909252919291606084019160ff600160a01b909104169081111561129a5761129a6125f2565b60028111156112ab576112ab6125f2565b81526040805160608101909152600383018054602090930192829060ff1660028111156112da576112da6125f2565b60028111156112eb576112eb6125f2565b815260408051808201909152600183018054602090930192829060ff166003811115611319576113196125f2565b600381111561132a5761132a6125f2565b8152905461010090046001600160a01b03166020918201529082526002929092015460ff16151590820152908252600683018054604080518285028101850190915281815293830193928301828280156113d557602002820191906000526020600020906000905b82829054906101000a90046001600160801b03166001600160801b031681526020019060100190602082600f010492830192600103820291508084116113925790505b505050505081526020016007820180546113ee90612bce565b80601f016020809104026020016040519081016040528092919081815260200182805461141a90612bce565b80156114675780601f1061143c57610100808354040283529160200191611467565b820191906000526020600020905b81548152906001019060200180831161144a57829003601f168201915b505050919092525050506000848152600360209081526040808320338452909152902054909150610100900460ff1615156001036114c157604051630c4e612760e41b81526004810184905233602482015260440161048a565b6002816060015160028111156114d9576114d96125f2565b036115005760405163cf14998d60e01b81526004810184905233602482015260440161048a565b600181606001516002811115611518576115186125f2565b14801561153b575060026080820151516002811115611539576115396125f2565b145b156115625760405163425ad41160e11b81526004810184905233602482015260440161048a565b6001608082015151600281111561157b5761157b6125f2565b14801561158e575061158c83611d9b565b155b156115b557604051637a8a90f360e11b81526004810184905233602482015260440161048a565b6040805160608101825260008082526001602080840191825283850183815288845260038252858420338552825285842085518154945192511515620100000262ff0000199315156101000261ff00199215159290921661ffff1990961695909517179190911692909217909155868252600490529182208054919261163a83612c1e565b909155505060405160008152339085907f01b0570fcf8d040a1dead2d60d1060b4817a6ebc4de6b950e632df705b9f50489060200160405180910390a3600254604051633576860d60e11b8152336004820152602481018690526001600160a01b0390911690636aed0c1a90604401600060405180830381600087803b1580156116c357600080fd5b505af11580156116d7573d6000803e3d6000fd5b506001979650505050505050565b816116ef8161176f565b1561171657604051633eb0f74360e21b81526004810182905233602482015260440161048a565b60006001848154811061172b5761172b612bb8565b60009182526020909120600890910201600201805473ffffffffffffffffffffffffffffffffffffffff19166001600160a01b039490941693909317909255505050565b6000806001838154811061178557611785612bb8565b60009182526020918290206040805160e0810182526008909302909101805483526001810154938301939093526002808401546001600160a01b03811692840192909252919291606084019160ff600160a01b90910416908111156117ec576117ec6125f2565b60028111156117fd576117fd6125f2565b81526040805160608101909152600383018054602090930192829060ff16600281111561182c5761182c6125f2565b600281111561183d5761183d6125f2565b815260408051808201909152600183018054602090930192829060ff16600381111561186b5761186b6125f2565b600381111561187c5761187c6125f2565b8152905461010090046001600160a01b03166020918201529082526002929092015460ff161515908201529082526006830180546040805182850281018501909152818152938301939283018282801561192757602002820191906000526020600020906000905b82829054906101000a90046001600160801b03166001600160801b031681526020019060100190602082600f010492830192600103820291508084116118e45790505b5050505050815260200160078201805461194090612bce565b80601f016020809104026020016040519081016040528092919081815260200182805461196c90612bce565b80156119b95780601f1061198e576101008083540402835291602001916119b9565b820191906000526020600020905b81548152906001019060200180831161199c57829003601f168201915b50505091909252505050604001516001600160a01b031633149392505050565b60008581526005602052604090205415611a0957604051634a4619dd60e11b81526004810186905260240161048a565b611a17600080546001019055565b60008054905060006040518060e00160405280838152602001888152602001336001600160a01b03168152602001876002811115611a5757611a576125f2565b8152602080820188905260408083018890526060928301879052600180548082018255600091909152845160089091027fb10e2d527612073b26eecdfd717e6a320cf44b4afac2b0732d9fcbe2b7fa0cf68101918255928501517fb10e2d527612073b26eecdfd717e6a320cf44b4afac2b0732d9fcbe2b7fa0cf7840155908401517fb10e2d527612073b26eecdfd717e6a320cf44b4afac2b0732d9fcbe2b7fa0cf890920180546001600160a01b0390931673ffffffffffffffffffffffffffffffffffffffff198416811782559385015194955085949193919290917fffffffffffffffffffffff00000000000000000000000000000000000000000090911617600160a01b836002811115611b7157611b716125f2565b021790555060808201518051600383018054909190829060ff19166001836002811115611ba057611ba06125f2565b02179055506020820151805160018084018054909291839160ff191690836003811115611bcf57611bcf6125f2565b021790555060209182015181546001600160a01b03909116610100027fffffffffffffffffffffff0000000000000000000000000000000000000000ff909116179055604092909201516002909101805491151560ff1990921691909117905560a08301518051611c4692600685019201906124a3565b5060c08201516007820190611c5b9082612c82565b50505086600014611c785760008781526005602052604090208290555b600254604051633576860d60e11b8152336004820152602481018490526001600160a01b0390911690636aed0c1a90604401600060405180830381600087803b158015611cc457600080fd5b505af1158015611cd8573d6000803e3d6000fd5b50505060008381526004602052604081208054925090611cf783612c1e565b9091555050604080516060810182526001808252602080830191825260008385018181528782526003835285822033808452935285822094518554945191511515620100000262ff0000199215156101000261ff00199215159290921661ffff19909616959095171716929092179092559151909184917fb86ecf9543f771ac118830339392a31c2ef19181bb1f831fa033235771791aa19190a350505050505050565b60008060018381548110611db157611db1612bb8565b60009182526020918290206040805160e0810182526008909302909101805483526001810154938301939093526002808401546001600160a01b03811692840192909252919291606084019160ff600160a01b9091041690811115611e1857611e186125f2565b6002811115611e2957611e296125f2565b81526040805160608101909152600383018054602090930192829060ff166002811115611e5857611e586125f2565b6002811115611e6957611e696125f2565b815260408051808201909152600183018054602090930192829060ff166003811115611e9757611e976125f2565b6003811115611ea857611ea86125f2565b8152905461010090046001600160a01b03166020918201529082526002929092015460ff1615159082015290825260068301805460408051828502810185019091528181529383019392830182828015611f5357602002820191906000526020600020906000905b82829054906101000a90046001600160801b03166001600160801b031681526020019060100190602082600f01049283019260010382029150808411611f105790505b50505050508152602001600782018054611f6c90612bce565b80601f0160208091040260200160405190810160405280929190818152602001828054611f9890612bce565b8015611fe55780601f10611fba57610100808354040283529160200191611fe5565b820191906000526020600020905b815481529060010190602001808311611fc857829003601f168201915b505050919092525050506080810151602090810151908101519051919250906001906003811115612018576120186125f2565b03612095576040516370a0823160e01b815233600482015281906000906001600160a01b038316906370a08231906024015b602060405180830381865afa158015612067573d6000803e3d6000fd5b505050506040513d601f19601f8201168201806040525081019061208b9190612d42565b1195945050505050565b60026080830151602001515160038111156120b2576120b26125f2565b036120e8576040516370a0823160e01b815233600482015281906000906001600160a01b038316906370a082319060240161204a565b6003608083015160200151516003811115612105576121056125f2565b0361213f57604051627eeac760e11b815233600482015260006024820181905282916001600160a01b0383169062fdd58e9060440161204a565b5060009392505050565b83612153816107ca565b8061216257506121628161176f565b156121895760405163eae3129560e01b81526004810182905233602482015260440161048a565b60008581526003602090815260408083206001600160a01b038816845290915290205460ff6101009091041615158315151480156121ef575060008581526003602090815260408083206001600160a01b038816845290915290205460ff161515821515145b1561221f57604051630c4e612760e41b8152600481018690526001600160a01b038516602482015260440161048a565b60408051606081018252831515815284158015602080840191825260008486018181528b8252600383528682206001600160a01b038c1683529092529490942083518154925195511515620100000262ff0000199615156101000261ff00199215159290921661ffff1990941693909317179490941617909255906122fb5760008681526004602052604081208054916122b883612c1e565b90915550506040518315158152339087907f01b0570fcf8d040a1dead2d60d1060b4817a6ebc4de6b950e632df705b9f50489060200160405180910390a3612348565b600086815260046020526040812080549161231583612d5b565b9091555050604051339087907f1c43a3cf5b547073bee7f10560079a1900cc5968c27fb3a768f8e65d5d46550590600090a35b505050505050565b8161235a816107ca565b8061236957506123698161176f565b156123905760405163eae3129560e01b81526004810182905233602482015260440161048a565b6000600184815481106123a5576123a5612bb8565b9060005260206000209060080201905060005b600682015481101561245957838260060182815481106123da576123da612bb8565b6000918252602090912060028204015460019091166010026101000a90046001600160801b0316036124475781600601818154811061241b5761241b612bb8565b90600052602060002090600291828204019190066010026101000a8154906001600160801b0302191690555b8061245181612c1e565b9150506123b8565b5050505050565b6040805160e081018252600080825260208201819052918101829052906060820190815260200161248f61255b565b815260200160608152602001606081525090565b8280548282559060005260206000209060010160029004810192821561254b5791602002820160005b8382111561251657835183826101000a8154816001600160801b0302191690836001600160801b031602179055509260200192601001602081600f010492830192600103026124cc565b80156125495782816101000a8154906001600160801b030219169055601001602081600f01049283019260010302612516565b505b50612557929150612595565b5090565b60408051606081019091528060008152602001612588604080518082019091526000808252602082015290565b8152600060209091015290565b5b808211156125575760008155600101612596565b80356001600160801b03811681146125c157600080fd5b919050565b600080604083850312156125d957600080fd5b823591506125e9602084016125aa565b90509250929050565b634e487b7160e01b600052602160045260246000fd5b60038110612618576126186125f2565b50565b805161262681612608565b8252602081015180516004811061263f5761263f6125f2565b806020850152506001600160a01b036020820151166040840152506040810151151560608301525050565b6000815180845260005b8181101561269057602081850181015186830182015201612674565b506000602082860101526020601f19601f83011685010191505092915050565b600061014080840183518552602080850151818701526001600160a01b03604086015116604087015260608501516126e781612608565b806060880152506080850151612700608088018261261b565b5060a08501516101008701939093528251918290526101608601928101916000905b8082101561274b5783516001600160801b03168552938201939282019260019190910190612722565b5050505060c0830151848203610120860152612767828261266a565b95945050505050565b6000602080830181845280855180835260408601915060408160051b870101925083870160005b828110156127c557603f198886030184526127b38583516126b0565b94509285019290850190600101612797565b5092979650505050505050565b80356001600160a01b03811681146125c157600080fd5b600080604083850312156127fc57600080fd5b823591506125e9602084016127d2565b60006020828403121561281e57600080fd5b5035919050565b60208152600061283860208301846126b0565b9392505050565b60006101208883528760208401526001600160a01b038716604084015261286586612608565b856060840152612878608084018661261b565b8061010084015261288b8184018561266a565b9998505050505050505050565b6003811061261857600080fd5b634e487b7160e01b600052604160045260246000fd5b6040516060810167ffffffffffffffff811182821017156128de576128de6128a5565b60405290565b6040805190810167ffffffffffffffff811182821017156128de576128de6128a5565b604051601f8201601f1916810167ffffffffffffffff81118282101715612930576129306128a5565b604052919050565b803580151581146125c157600080fd5b600082601f83011261295957600080fd5b8135602067ffffffffffffffff821115612975576129756128a5565b8160051b612984828201612907565b928352848101820192828101908785111561299e57600080fd5b83870192505b848310156129c4576129b5836125aa565b825291830191908301906129a4565b979650505050505050565b600082601f8301126129e057600080fd5b813567ffffffffffffffff8111156129fa576129fa6128a5565b612a0d601f8201601f1916602001612907565b818152846020838601011115612a2257600080fd5b816020850160208301376000918101602001919091529392505050565b6000806000806000858703610100811215612a5957600080fd5b863595506020870135612a6b81612898565b94506080603f1982011215612a7f57600080fd5b612a876128bb565b6040880135612a9581612898565b81526040605f1983011215612aa957600080fd5b612ab16128e4565b9150606088013560048110612ac557600080fd5b8252612ad3608089016127d2565b6020830152816020820152612aea60a08901612938565b604082015293505060c086013567ffffffffffffffff80821115612b0d57600080fd5b612b1989838a01612948565b935060e0880135915080821115612b2f57600080fd5b50612b3c888289016129cf565b9150509295509295909350565b60008060008060808587031215612b5f57600080fd5b84359350612b6f602086016127d2565b9250612b7d60408601612938565b9150612b8b60608601612938565b905092959194509250565b60008060408385031215612ba957600080fd5b50508035926020909101359150565b634e487b7160e01b600052603260045260246000fd5b600181811c90821680612be257607f821691505b602082108103612c0257634e487b7160e01b600052602260045260246000fd5b50919050565b634e487b7160e01b600052601160045260246000fd5b600060018201612c3057612c30612c08565b5060010190565b601f821115612c7d57600081815260208120601f850160051c81016020861015612c5e5750805b601f850160051c820191505b8181101561234857828155600101612c6a565b505050565b815167ffffffffffffffff811115612c9c57612c9c6128a5565b612cb081612caa8454612bce565b84612c37565b602080601f831160018114612ce55760008415612ccd5750858301515b600019600386901b1c1916600185901b178555612348565b600085815260208120601f198616915b82811015612d1457888601518255948401946001909101908401612cf5565b5085821015612d325787850151600019600388901b60f8161c191681555b5050505050600190811b01905550565b600060208284031215612d5457600080fd5b5051919050565b600081612d6a57612d6a612c08565b50600019019056fea164736f6c6343000811000a",
  "linkReferences": {},
  "deployedLinkReferences": {}
}