{
  "_format": "hh-sol-artifact-1",
  "contractName": "EmbraceSpaces",
  "sourceName": "contracts/EmbraceSpaces.sol",
  "abi": [
    {
      "inputs": [
        {
          "internalType": "address",
          "name": "_accountsContractAddress",
          "type": "address"
        },
        {
          "internalType": "address",
          "name": "_appsContractAddress",
          "type": "address"
        }
      ],
      "stateMutability": "nonpayable",
      "type": "constructor"
    },
    {
      "inputs": [
        {
          "internalType": "uint256",
          "name": "spaceId",
          "type": "uint256"
        },
        {
          "internalType": "address",
          "name": "memberAddress",
          "type": "address"
        }
      ],
      "name": "ErrorCannotJoinAnonSpace",
      "type": "error"
    },
    {
      "inputs": [
        {
          "internalType": "uint256",
          "name": "spaceId",
          "type": "uint256"
        },
        {
          "internalType": "address",
          "name": "memberAddress",
          "type": "address"
        }
      ],
      "name": "ErrorCannotJoinPrivClosedSpace",
      "type": "error"
    },
    {
      "inputs": [
        {
          "internalType": "uint256",
          "name": "spaceId",
          "type": "uint256"
        },
        {
          "internalType": "address",
          "name": "memberAddress",
          "type": "address"
        }
      ],
      "name": "ErrorDoNotMeetSpaceReq",
      "type": "error"
    },
    {
      "inputs": [
        {
          "internalType": "string",
          "name": "handle",
          "type": "string"
        }
      ],
      "name": "ErrorHandleExists",
      "type": "error"
    },
    {
      "inputs": [
        {
          "internalType": "uint256",
          "name": "spaceId",
          "type": "uint256"
        },
        {
          "internalType": "address",
          "name": "memberAddress",
          "type": "address"
        }
      ],
      "name": "ErrorMemberAlreadyExists",
      "type": "error"
    },
    {
      "inputs": [
        {
          "internalType": "uint256",
          "name": "spaceId",
          "type": "uint256"
        },
        {
          "internalType": "address",
          "name": "memberAddress",
          "type": "address"
        }
      ],
      "name": "ErrorOnlyAdmin",
      "type": "error"
    },
    {
      "inputs": [
        {
          "internalType": "uint256",
          "name": "spaceId",
          "type": "uint256"
        },
        {
          "internalType": "address",
          "name": "memberAddress",
          "type": "address"
        }
      ],
      "name": "ErrorOnlyFounder",
      "type": "error"
    },
    {
      "inputs": [
        {
          "internalType": "string",
          "name": "handle",
          "type": "string"
        }
      ],
      "name": "ErrorSpaceNotFound",
      "type": "error"
    },
    {
      "anonymous": false,
      "inputs": [
        {
          "indexed": true,
          "internalType": "uint256",
          "name": "spaceId",
          "type": "uint256"
        },
        {
          "indexed": true,
          "internalType": "address",
          "name": "memberAddress",
          "type": "address"
        },
        {
          "indexed": false,
          "internalType": "bool",
          "name": "isAdmin",
          "type": "bool"
        }
      ],
      "name": "JoinedSpace",
      "type": "event"
    },
    {
      "anonymous": false,
      "inputs": [
        {
          "indexed": true,
          "internalType": "uint256",
          "name": "spaceId",
          "type": "uint256"
        },
        {
          "indexed": true,
          "internalType": "address",
          "name": "memberAddress",
          "type": "address"
        }
      ],
      "name": "RemovedFromSpace",
      "type": "event"
    },
    {
      "anonymous": false,
      "inputs": [
        {
          "indexed": true,
          "internalType": "uint256",
          "name": "spaceId",
          "type": "uint256"
        },
        {
          "indexed": true,
          "internalType": "address",
          "name": "memberAddress",
          "type": "address"
        }
      ],
      "name": "RequestJoinSpace",
      "type": "event"
    },
    {
      "anonymous": false,
      "inputs": [
        {
          "indexed": true,
          "internalType": "uint256",
          "name": "spaceId",
          "type": "uint256"
        },
        {
          "indexed": true,
          "internalType": "address",
          "name": "founder",
          "type": "address"
        }
      ],
      "name": "SpaceCreated",
      "type": "event"
    },
    {
      "inputs": [
        {
          "internalType": "string",
          "name": "_handle",
          "type": "string"
        },
        {
          "internalType": "enum EmbraceSpaces.Visibility",
          "name": "_visibility",
          "type": "uint8"
        },
        {
          "components": [
            {
              "internalType": "enum EmbraceSpaces.Access",
              "name": "access",
              "type": "uint8"
            },
            {
              "components": [
                {
                  "internalType": "enum EmbraceSpaces.MembershipGateToken",
                  "name": "token",
                  "type": "uint8"
                },
                {
                  "internalType": "address",
                  "name": "tokenAddress",
                  "type": "address"
                }
              ],
              "internalType": "struct EmbraceSpaces.MembershipGate",
              "name": "gate",
              "type": "tuple"
            },
            {
              "internalType": "bool",
              "name": "allowRequests",
              "type": "bool"
            }
          ],
          "internalType": "struct EmbraceSpaces.Membership",
          "name": "_membership",
          "type": "tuple"
        },
        {
          "internalType": "uint128[]",
          "name": "_apps",
          "type": "uint128[]"
        },
        {
          "internalType": "string",
          "name": "_metadata",
          "type": "string"
        }
      ],
      "name": "createSpace",
      "outputs": [
        {
          "internalType": "uint256",
          "name": "",
          "type": "uint256"
        }
      ],
      "stateMutability": "nonpayable",
      "type": "function"
    },
    {
      "inputs": [
        {
          "internalType": "string",
          "name": "_handle",
          "type": "string"
        }
      ],
      "name": "getIdFromHandle",
      "outputs": [
        {
          "internalType": "uint256",
          "name": "",
          "type": "uint256"
        }
      ],
      "stateMutability": "view",
      "type": "function"
    },
    {
      "inputs": [
        {
          "internalType": "uint256",
          "name": "_spaceId",
          "type": "uint256"
        }
      ],
      "name": "getMemberCount",
      "outputs": [
        {
          "internalType": "uint256",
          "name": "",
          "type": "uint256"
        }
      ],
      "stateMutability": "view",
      "type": "function"
    },
    {
      "inputs": [
        {
          "internalType": "uint256",
          "name": "_spaceId",
          "type": "uint256"
        }
      ],
      "name": "getSpace",
      "outputs": [
        {
          "components": [
            {
              "internalType": "uint256",
              "name": "id",
              "type": "uint256"
            },
            {
              "internalType": "string",
              "name": "handle",
              "type": "string"
            },
            {
              "internalType": "address",
              "name": "founder",
              "type": "address"
            },
            {
              "internalType": "enum EmbraceSpaces.Visibility",
              "name": "visibility",
              "type": "uint8"
            },
            {
              "components": [
                {
                  "internalType": "enum EmbraceSpaces.Access",
                  "name": "access",
                  "type": "uint8"
                },
                {
                  "components": [
                    {
                      "internalType": "enum EmbraceSpaces.MembershipGateToken",
                      "name": "token",
                      "type": "uint8"
                    },
                    {
                      "internalType": "address",
                      "name": "tokenAddress",
                      "type": "address"
                    }
                  ],
                  "internalType": "struct EmbraceSpaces.MembershipGate",
                  "name": "gate",
                  "type": "tuple"
                },
                {
                  "internalType": "bool",
                  "name": "allowRequests",
                  "type": "bool"
                }
              ],
              "internalType": "struct EmbraceSpaces.Membership",
              "name": "membership",
              "type": "tuple"
            },
            {
              "internalType": "uint128[]",
              "name": "apps",
              "type": "uint128[]"
            },
            {
              "internalType": "string",
              "name": "metadata",
              "type": "string"
            }
          ],
          "internalType": "struct EmbraceSpaces.Space",
          "name": "",
          "type": "tuple"
        }
      ],
      "stateMutability": "view",
      "type": "function"
    },
    {
      "inputs": [
        {
          "internalType": "string",
          "name": "_handle",
          "type": "string"
        }
      ],
      "name": "getSpaceFromHandle",
      "outputs": [
        {
          "components": [
            {
              "internalType": "uint256",
              "name": "id",
              "type": "uint256"
            },
            {
              "internalType": "string",
              "name": "handle",
              "type": "string"
            },
            {
              "internalType": "address",
              "name": "founder",
              "type": "address"
            },
            {
              "internalType": "enum EmbraceSpaces.Visibility",
              "name": "visibility",
              "type": "uint8"
            },
            {
              "components": [
                {
                  "internalType": "enum EmbraceSpaces.Access",
                  "name": "access",
                  "type": "uint8"
                },
                {
                  "components": [
                    {
                      "internalType": "enum EmbraceSpaces.MembershipGateToken",
                      "name": "token",
                      "type": "uint8"
                    },
                    {
                      "internalType": "address",
                      "name": "tokenAddress",
                      "type": "address"
                    }
                  ],
                  "internalType": "struct EmbraceSpaces.MembershipGate",
                  "name": "gate",
                  "type": "tuple"
                },
                {
                  "internalType": "bool",
                  "name": "allowRequests",
                  "type": "bool"
                }
              ],
              "internalType": "struct EmbraceSpaces.Membership",
              "name": "membership",
              "type": "tuple"
            },
            {
              "internalType": "uint128[]",
              "name": "apps",
              "type": "uint128[]"
            },
            {
              "internalType": "string",
              "name": "metadata",
              "type": "string"
            }
          ],
          "internalType": "struct EmbraceSpaces.Space",
          "name": "",
          "type": "tuple"
        }
      ],
      "stateMutability": "view",
      "type": "function"
    },
    {
      "inputs": [
        {
          "internalType": "uint256",
          "name": "_spaceId",
          "type": "uint256"
        },
        {
          "internalType": "address",
          "name": "_address",
          "type": "address"
        }
      ],
      "name": "getSpaceMember",
      "outputs": [
        {
          "components": [
            {
              "internalType": "bool",
              "name": "isAdmin",
              "type": "bool"
            },
            {
              "internalType": "bool",
              "name": "isActive",
              "type": "bool"
            },
            {
              "internalType": "bool",
              "name": "isRequest",
              "type": "bool"
            }
          ],
          "internalType": "struct EmbraceSpaces.Member",
          "name": "",
          "type": "tuple"
        }
      ],
      "stateMutability": "view",
      "type": "function"
    },
    {
      "inputs": [
        {
          "internalType": "uint256",
          "name": "_spaceId",
          "type": "uint256"
        }
      ],
      "name": "getSpaceMembers",
      "outputs": [
        {
          "internalType": "address[]",
          "name": "",
          "type": "address[]"
        }
      ],
      "stateMutability": "view",
      "type": "function"
    },
    {
      "inputs": [],
      "name": "getSpaces",
      "outputs": [
        {
          "components": [
            {
              "internalType": "uint256",
              "name": "id",
              "type": "uint256"
            },
            {
              "internalType": "string",
              "name": "handle",
              "type": "string"
            },
            {
              "internalType": "address",
              "name": "founder",
              "type": "address"
            },
            {
              "internalType": "enum EmbraceSpaces.Visibility",
              "name": "visibility",
              "type": "uint8"
            },
            {
              "components": [
                {
                  "internalType": "enum EmbraceSpaces.Access",
                  "name": "access",
                  "type": "uint8"
                },
                {
                  "components": [
                    {
                      "internalType": "enum EmbraceSpaces.MembershipGateToken",
                      "name": "token",
                      "type": "uint8"
                    },
                    {
                      "internalType": "address",
                      "name": "tokenAddress",
                      "type": "address"
                    }
                  ],
                  "internalType": "struct EmbraceSpaces.MembershipGate",
                  "name": "gate",
                  "type": "tuple"
                },
                {
                  "internalType": "bool",
                  "name": "allowRequests",
                  "type": "bool"
                }
              ],
              "internalType": "struct EmbraceSpaces.Membership",
              "name": "membership",
              "type": "tuple"
            },
            {
              "internalType": "uint128[]",
              "name": "apps",
              "type": "uint128[]"
            },
            {
              "internalType": "string",
              "name": "metadata",
              "type": "string"
            }
          ],
          "internalType": "struct EmbraceSpaces.Space[]",
          "name": "",
          "type": "tuple[]"
        }
      ],
      "stateMutability": "view",
      "type": "function"
    },
    {
      "inputs": [
        {
          "internalType": "uint256",
          "name": "_spaceId",
          "type": "uint256"
        }
      ],
      "name": "isAdmin",
      "outputs": [
        {
          "internalType": "bool",
          "name": "",
          "type": "bool"
        }
      ],
      "stateMutability": "view",
      "type": "function"
    },
    {
      "inputs": [
        {
          "internalType": "uint256",
          "name": "_spaceId",
          "type": "uint256"
        },
        {
          "internalType": "address",
          "name": "_address",
          "type": "address"
        }
      ],
      "name": "isAdminExternal",
      "outputs": [
        {
          "internalType": "bool",
          "name": "",
          "type": "bool"
        }
      ],
      "stateMutability": "view",
      "type": "function"
    },
    {
      "inputs": [
        {
          "internalType": "uint256",
          "name": "_spaceId",
          "type": "uint256"
        }
      ],
      "name": "isFounder",
      "outputs": [
        {
          "internalType": "bool",
          "name": "",
          "type": "bool"
        }
      ],
      "stateMutability": "view",
      "type": "function"
    },
    {
      "inputs": [
        {
          "internalType": "uint256",
          "name": "_spaceId",
          "type": "uint256"
        },
        {
          "internalType": "address",
          "name": "_address",
          "type": "address"
        }
      ],
      "name": "isFounderExternal",
      "outputs": [
        {
          "internalType": "bool",
          "name": "",
          "type": "bool"
        }
      ],
      "stateMutability": "view",
      "type": "function"
    },
    {
      "inputs": [
        {
          "internalType": "uint256",
          "name": "_spaceId",
          "type": "uint256"
        }
      ],
      "name": "joinSpace",
      "outputs": [
        {
          "internalType": "bool",
          "name": "",
          "type": "bool"
        }
      ],
      "stateMutability": "nonpayable",
      "type": "function"
    },
    {
      "inputs": [
        {
          "internalType": "uint256",
          "name": "_spaceId",
          "type": "uint256"
        }
      ],
      "name": "meetsGateRequirements",
      "outputs": [
        {
          "internalType": "bool",
          "name": "",
          "type": "bool"
        }
      ],
      "stateMutability": "view",
      "type": "function"
    },
    {
      "inputs": [
        {
          "internalType": "uint256",
          "name": "_spaceId",
          "type": "uint256"
        }
      ],
      "name": "requestJoin",
      "outputs": [
        {
          "internalType": "bool",
          "name": "",
          "type": "bool"
        }
      ],
      "stateMutability": "nonpayable",
      "type": "function"
    },
    {
      "inputs": [
        {
          "internalType": "uint256",
          "name": "_spaceId",
          "type": "uint256"
        },
        {
          "internalType": "address",
          "name": "_address",
          "type": "address"
        }
      ],
      "name": "setFounder",
      "outputs": [],
      "stateMutability": "nonpayable",
      "type": "function"
    },
    {
      "inputs": [
        {
          "internalType": "uint256",
          "name": "_spaceId",
          "type": "uint256"
        },
        {
          "internalType": "address",
          "name": "_address",
          "type": "address"
        },
        {
          "internalType": "bool",
          "name": "_isActive",
          "type": "bool"
        },
        {
          "internalType": "bool",
          "name": "_isAdmin",
          "type": "bool"
        }
      ],
      "name": "setMember",
      "outputs": [],
      "stateMutability": "nonpayable",
      "type": "function"
    },
    {
      "inputs": [
        {
          "internalType": "bytes32",
          "name": "",
          "type": "bytes32"
        }
      ],
      "name": "spaceHandleToId",
      "outputs": [
        {
          "internalType": "uint256",
          "name": "",
          "type": "uint256"
        }
      ],
      "stateMutability": "view",
      "type": "function"
    },
    {
      "inputs": [
        {
          "internalType": "uint256",
          "name": "",
          "type": "uint256"
        }
      ],
      "name": "spaceMemberLength",
      "outputs": [
        {
          "internalType": "uint256",
          "name": "",
          "type": "uint256"
        }
      ],
      "stateMutability": "view",
      "type": "function"
    },
    {
      "inputs": [
        {
          "internalType": "uint256",
          "name": "",
          "type": "uint256"
        },
        {
          "internalType": "address",
          "name": "",
          "type": "address"
        }
      ],
      "name": "spaceMembers",
      "outputs": [
        {
          "internalType": "bool",
          "name": "isAdmin",
          "type": "bool"
        },
        {
          "internalType": "bool",
          "name": "isActive",
          "type": "bool"
        },
        {
          "internalType": "bool",
          "name": "isRequest",
          "type": "bool"
        }
      ],
      "stateMutability": "view",
      "type": "function"
    },
    {
      "inputs": [
        {
          "internalType": "uint256",
          "name": "",
          "type": "uint256"
        },
        {
          "internalType": "uint256",
          "name": "",
          "type": "uint256"
        }
      ],
      "name": "spaceMembersArray",
      "outputs": [
        {
          "internalType": "address",
          "name": "",
          "type": "address"
        }
      ],
      "stateMutability": "view",
      "type": "function"
    },
    {
      "inputs": [
        {
          "internalType": "uint256",
          "name": "",
          "type": "uint256"
        }
      ],
      "name": "spaces",
      "outputs": [
        {
          "internalType": "uint256",
          "name": "id",
          "type": "uint256"
        },
        {
          "internalType": "string",
          "name": "handle",
          "type": "string"
        },
        {
          "internalType": "address",
          "name": "founder",
          "type": "address"
        },
        {
          "internalType": "enum EmbraceSpaces.Visibility",
          "name": "visibility",
          "type": "uint8"
        },
        {
          "components": [
            {
              "internalType": "enum EmbraceSpaces.Access",
              "name": "access",
              "type": "uint8"
            },
            {
              "components": [
                {
                  "internalType": "enum EmbraceSpaces.MembershipGateToken",
                  "name": "token",
                  "type": "uint8"
                },
                {
                  "internalType": "address",
                  "name": "tokenAddress",
                  "type": "address"
                }
              ],
              "internalType": "struct EmbraceSpaces.MembershipGate",
              "name": "gate",
              "type": "tuple"
            },
            {
              "internalType": "bool",
              "name": "allowRequests",
              "type": "bool"
            }
          ],
          "internalType": "struct EmbraceSpaces.Membership",
          "name": "membership",
          "type": "tuple"
        },
        {
          "internalType": "string",
          "name": "metadata",
          "type": "string"
        }
      ],
      "stateMutability": "view",
      "type": "function"
    }
  ],
  "bytecode": "0x60806040523480156200001157600080fd5b5060405162003895380380620038958339810160408190526200003491620000ac565b600280546001600160a01b03199081166001600160a01b0385811691909117909255600380549091169183169190911790556200007e600062000086602090811b62002d0517901c565b5050620000e4565b80546001019055565b80516001600160a01b0381168114620000a757600080fd5b919050565b60008060408385031215620000c057600080fd5b620000cb836200008f565b9150620000db602084016200008f565b90509250929050565b6137a180620000f46000396000f3fe608060405234801561001057600080fd5b50600436106101825760003560e01c80637d54b282116100d8578063bb9a59711161008c578063cd5b22a111610066578063cd5b22a114610403578063d1f97b7914610416578063dd739fb51461042957600080fd5b8063bb9a5971146103bd578063ca5fb980146103dd578063cb4ac1f5146103f057600080fd5b806399384976116100bd5780639938497614610335578063a303cf8e1461034a578063af41f22a1461035d57600080fd5b80637d54b2821461030f5780638be9e3c81461032257600080fd5b806351c75f241161013a57806370e104311161011457806370e10431146102aa578063728a716d146102ca5780637586353b146102ea57600080fd5b806351c75f24146102445780635ce9284f1461026c578063636bbe531461027f57600080fd5b80631f6dc4371161016b5780631f6dc437146101e05780632ea6524f1461020357806333d7ae401461021657600080fd5b806315478ca9146101875780631557f48c146101a5575b600080fd5b61018f61043c565b60405161019c919061307b565b60405180910390f35b6101b86101b33660046130f9565b610741565b604080518251151581526020808401511515908201529181015115159082015260600161019c565b6101f36101ee366004613125565b6107ce565b604051901515815260200161019c565b6101f3610211366004613125565b610818565b610236610224366004613125565b60056020526000908152604090205481565b60405190815260200161019c565b610236610252366004613241565b805160209182012060009081526007909152604090205490565b61023661027a366004613125565b610c79565b61029261028d36600461327e565b610c9f565b6040516001600160a01b03909116815260200161019c565b6102bd6102b8366004613125565b610cd7565b60405161019c91906132a0565b6102366102d8366004613125565b60076020526000908152604090205481565b6102fd6102f8366004613125565b610fc1565b60405161019c969594939291906132ba565b6101f361031d3660046130f9565b6111cd565b6101f3610330366004613125565b611221565b6103486103433660046130f9565b6117a9565b005b6101f3610358366004613125565b61182e565b61039e61036b3660046130f9565b600460209081526000928352604080842090915290825290205460ff808216916101008104821691620100009091041683565b604080519315158452911515602084015215159082015260600161019c565b6103d06103cb366004613125565b611b23565b60405161019c9190613321565b6102bd6103eb366004613241565b611ba2565b6102366103fe366004613416565b611ed9565b6101f36104113660046130f9565b6122fe565b6101f3610424366004613125565b612600565b610348610437366004613541565b612a41565b60606001805480602002602001604051908101604052809291908181526020016000905b8282101561073857838290600052602060002090600802016040518060e00160405290816000820154815260200160018201805461049d9061358e565b80601f01602080910402602001604051908101604052809291908181526020018280546104c99061358e565b80156105165780601f106104eb57610100808354040283529160200191610516565b820191906000526020600020905b8154815290600101906020018083116104f957829003601f168201915b50505091835250506002828101546001600160a01b0381166020840152604090920191600160a01b900460ff169081111561055357610553612f37565b600281111561056457610564612f37565b81526040805160608101909152600383018054602090930192829060ff16600281111561059357610593612f37565b60028111156105a4576105a4612f37565b815260408051808201909152600183018054602090930192829060ff1660038111156105d2576105d2612f37565b60038111156105e3576105e3612f37565b8152905461010090046001600160a01b03166020918201529082526002929092015460ff161515908201529082526006830180546040805182850281018501909152818152938301939283018282801561068e57602002820191906000526020600020906000905b82829054906101000a90046001600160801b03166001600160801b031681526020019060100190602082600f0104928301926001038202915080841161064b5790505b505050505081526020016007820180546106a79061358e565b80601f01602080910402602001604051908101604052809291908181526020018280546106d39061358e565b80156107205780601f106106f557610100808354040283529160200191610720565b820191906000526020600020905b81548152906001019060200180831161070357829003601f168201915b50505050508152505081526020019060010190610460565b50505050905090565b60408051606081018252600080825260208201819052918101919091526004600061076d6001866135de565b8152602080820192909252604090810160009081206001600160a01b038616825283528190208151606081018352905460ff808216151583526101008204811615159483019490945262010000900490921615159082015290505b92915050565b60006004816107de6001856135de565b81526020808201929092526040908101600090812033825290925290205460ff16151560010361081057506001919050565b506000919050565b6000806108266001846135de565b6000818152600460209081526040808320338452909152902054909150610100900460ff16151560010361087b57604051630c4e612760e41b8152600481018490523360248201526044015b60405180910390fd5b600060018281548110610890576108906135f1565b90600052602060002090600802016040518060e0016040529081600082015481526020016001820180546108c39061358e565b80601f01602080910402602001604051908101604052809291908181526020018280546108ef9061358e565b801561093c5780601f106109115761010080835404028352916020019161093c565b820191906000526020600020905b81548152906001019060200180831161091f57829003601f168201915b50505091835250506002828101546001600160a01b0381166020840152604090920191600160a01b900460ff169081111561097957610979612f37565b600281111561098a5761098a612f37565b81526040805160608101909152600383018054602090930192829060ff1660028111156109b9576109b9612f37565b60028111156109ca576109ca612f37565b815260408051808201909152600183018054602090930192829060ff1660038111156109f8576109f8612f37565b6003811115610a0957610a09612f37565b8152905461010090046001600160a01b03166020918201529082526002929092015460ff1615159082015290825260068301805460408051828502810185019091528181529383019392830182828015610ab457602002820191906000526020600020906000905b82829054906101000a90046001600160801b03166001600160801b031681526020019060100190602082600f01049283019260010382029150808411610a715790505b50505050508152602001600782018054610acd9061358e565b80601f0160208091040260200160405190810160405280929190818152602001828054610af99061358e565b8015610b465780601f10610b1b57610100808354040283529160200191610b46565b820191906000526020600020905b815481529060010190602001808311610b2957829003601f168201915b505050505081525050905060016002811115610b6457610b64612f37565b81606001516002811115610b7a57610b7a612f37565b141580610b9e575060026080820151516002811115610b9b57610b9b612f37565b14155b80610baf5750806080015160400151155b15610bd65760405163425ad41160e11b815260048101859052336024820152604401610872565b604080516060810182526000808252602080830182815260018486019081528784526004835285842033808652935285842085518154935192511515620100000262ff0000199315156101000261ff00199215159290921661ffff19909516949094171791909116919091179055925191929187917fdbb2455cc69235cd7b041dc0cced849ee3bd818c2e063d18e579d3d068f7974e91a3506001949350505050565b6000600581610c896001856135de565b8152602001908152602001600020549050919050565b60066020528160005260406000208181548110610cbb57600080fd5b6000918252602090912001546001600160a01b03169150829050565b610cdf612d8d565b6001610ceb81846135de565b81548110610cfb57610cfb6135f1565b90600052602060002090600802016040518060e001604052908160008201548152602001600182018054610d2e9061358e565b80601f0160208091040260200160405190810160405280929190818152602001828054610d5a9061358e565b8015610da75780601f10610d7c57610100808354040283529160200191610da7565b820191906000526020600020905b815481529060010190602001808311610d8a57829003601f168201915b50505091835250506002828101546001600160a01b0381166020840152604090920191600160a01b900460ff1690811115610de457610de4612f37565b6002811115610df557610df5612f37565b81526040805160608101909152600383018054602090930192829060ff166002811115610e2457610e24612f37565b6002811115610e3557610e35612f37565b815260408051808201909152600183018054602090930192829060ff166003811115610e6357610e63612f37565b6003811115610e7457610e74612f37565b8152905461010090046001600160a01b03166020918201529082526002929092015460ff1615159082015290825260068301805460408051828502810185019091528181529383019392830182828015610f1f57602002820191906000526020600020906000905b82829054906101000a90046001600160801b03166001600160801b031681526020019060100190602082600f01049283019260010382029150808411610edc5790505b50505050508152602001600782018054610f389061358e565b80601f0160208091040260200160405190810160405280929190818152602001828054610f649061358e565b8015610fb15780601f10610f8657610100808354040283529160200191610fb1565b820191906000526020600020905b815481529060010190602001808311610f9457829003601f168201915b5050505050815250509050919050565b60018181548110610fd157600080fd5b60009182526020909120600890910201805460018201805491935090610ff69061358e565b80601f01602080910402602001604051908101604052809291908181526020018280546110229061358e565b801561106f5780601f106110445761010080835404028352916020019161106f565b820191906000526020600020905b81548152906001019060200180831161105257829003601f168201915b505050600280850154604080516060810190915260038701805496976001600160a01b0384169760ff600160a01b9095048516975090955091939092849216908111156110be576110be612f37565b60028111156110cf576110cf612f37565b815260408051808201909152600183018054602090930192829060ff1660038111156110fd576110fd612f37565b600381111561110e5761110e612f37565b8152905461010090046001600160a01b03166020918201529082526002929092015460ff16151591015260078201805491929161114a9061358e565b80601f01602080910402602001604051908101604052809291908181526020018280546111769061358e565b80156111c35780601f10611198576101008083540402835291602001916111c3565b820191906000526020600020905b8154815290600101906020018083116111a657829003601f168201915b5050505050905086565b60006004816111dd6001866135de565b8152602080820192909252604090810160009081206001600160a01b038616825290925290205460ff161515600103611218575060016107c8565b50600092915050565b60008061122f6001846135de565b9050600060018281548110611246576112466135f1565b90600052602060002090600802016040518060e0016040529081600082015481526020016001820180546112799061358e565b80601f01602080910402602001604051908101604052809291908181526020018280546112a59061358e565b80156112f25780601f106112c7576101008083540402835291602001916112f2565b820191906000526020600020905b8154815290600101906020018083116112d557829003601f168201915b50505091835250506002828101546001600160a01b0381166020840152604090920191600160a01b900460ff169081111561132f5761132f612f37565b600281111561134057611340612f37565b81526040805160608101909152600383018054602090930192829060ff16600281111561136f5761136f612f37565b600281111561138057611380612f37565b815260408051808201909152600183018054602090930192829060ff1660038111156113ae576113ae612f37565b60038111156113bf576113bf612f37565b8152905461010090046001600160a01b03166020918201529082526002929092015460ff161515908201529082526006830180546040805182850281018501909152818152938301939283018282801561146a57602002820191906000526020600020906000905b82829054906101000a90046001600160801b03166001600160801b031681526020019060100190602082600f010492830192600103820291508084116114275790505b505050505081526020016007820180546114839061358e565b80601f01602080910402602001604051908101604052809291908181526020018280546114af9061358e565b80156114fc5780601f106114d1576101008083540402835291602001916114fc565b820191906000526020600020905b8154815290600101906020018083116114df57829003601f168201915b505050919092525050506000838152600460209081526040808320338452909152902054909150610100900460ff16151560010361155657604051630c4e612760e41b815260048101859052336024820152604401610872565b60028160600151600281111561156e5761156e612f37565b036115955760405163cf14998d60e01b815260048101859052336024820152604401610872565b6001816060015160028111156115ad576115ad612f37565b1480156115d05750600260808201515160028111156115ce576115ce612f37565b145b156115f75760405163425ad41160e11b815260048101859052336024820152604401610872565b6001608082015151600281111561161057611610612f37565b148015611623575061162184612600565b155b1561164a57604051637a8a90f360e11b815260048101859052336024820152604401610872565b6040805160608101825260008082526001602080840191825283850183815287845260048252858420338552825285842085518154945192511515620100000262ff0000199315156101000261ff00199215159290921661ffff199096169590951717919091169290921790915585825260059052918220805491926116cf83613607565b9091555050600083815260066020908152604080832080546001810182559084528284200180546001600160a01b0319163390811790915590519283529187917f01b0570fcf8d040a1dead2d60d1060b4817a6ebc4de6b950e632df705b9f5048910160405180910390a3600254604051633576860d60e11b8152336004820152602481018790526001600160a01b0390911690636aed0c1a90604401600060405180830381600087803b15801561178657600080fd5b505af115801561179a573d6000803e3d6000fd5b50600198975050505050505050565b816117b38161182e565b6117d957604051633eb0f74360e21b815260048101829052336024820152604401610872565b600060016117e781866135de565b815481106117f7576117f76135f1565b6000918252602090912060089091020160020180546001600160a01b0319166001600160a01b039490941693909317909255505050565b600080600161183d81856135de565b8154811061184d5761184d6135f1565b90600052602060002090600802016040518060e0016040529081600082015481526020016001820180546118809061358e565b80601f01602080910402602001604051908101604052809291908181526020018280546118ac9061358e565b80156118f95780601f106118ce576101008083540402835291602001916118f9565b820191906000526020600020905b8154815290600101906020018083116118dc57829003601f168201915b50505091835250506002828101546001600160a01b0381166020840152604090920191600160a01b900460ff169081111561193657611936612f37565b600281111561194757611947612f37565b81526040805160608101909152600383018054602090930192829060ff16600281111561197657611976612f37565b600281111561198757611987612f37565b815260408051808201909152600183018054602090930192829060ff1660038111156119b5576119b5612f37565b60038111156119c6576119c6612f37565b8152905461010090046001600160a01b03166020918201529082526002929092015460ff1615159082015290825260068301805460408051828502810185019091528181529383019392830182828015611a7157602002820191906000526020600020906000905b82829054906101000a90046001600160801b03166001600160801b031681526020019060100190602082600f01049283019260010382029150808411611a2e5790505b50505050508152602001600782018054611a8a9061358e565b80601f0160208091040260200160405190810160405280929190818152602001828054611ab69061358e565b8015611b035780601f10611ad857610100808354040283529160200191611b03565b820191906000526020600020905b815481529060010190602001808311611ae657829003601f168201915b50505091909252505050604001516001600160a01b031633149392505050565b606060066000611b346001856135de565b8152602001908152602001600020805480602002602001604051908101604052809291908181526020018280548015611b9657602002820191906000526020600020905b81546001600160a01b03168152600190910190602001808311611b78575b50505050509050919050565b611baa612d8d565b6000611bca83805160209182012060009081526007909152604090205490565b90506000611bd96001836135de565b905081600003611bfe578360405163504d6b5d60e11b81526004016108729190613620565b60018181548110611c1157611c116135f1565b90600052602060002090600802016040518060e001604052908160008201548152602001600182018054611c449061358e565b80601f0160208091040260200160405190810160405280929190818152602001828054611c709061358e565b8015611cbd5780601f10611c9257610100808354040283529160200191611cbd565b820191906000526020600020905b815481529060010190602001808311611ca057829003601f168201915b50505091835250506002828101546001600160a01b0381166020840152604090920191600160a01b900460ff1690811115611cfa57611cfa612f37565b6002811115611d0b57611d0b612f37565b81526040805160608101909152600383018054602090930192829060ff166002811115611d3a57611d3a612f37565b6002811115611d4b57611d4b612f37565b815260408051808201909152600183018054602090930192829060ff166003811115611d7957611d79612f37565b6003811115611d8a57611d8a612f37565b8152905461010090046001600160a01b03166020918201529082526002929092015460ff1615159082015290825260068301805460408051828502810185019091528181529383019392830182828015611e3557602002820191906000526020600020906000905b82829054906101000a90046001600160801b03166001600160801b031681526020019060100190602082600f01049283019260010382029150808411611df25790505b50505050508152602001600782018054611e4e9061358e565b80601f0160208091040260200160405190810160405280929190818152602001828054611e7a9061358e565b8015611ec75780601f10611e9c57610100808354040283529160200191611ec7565b820191906000526020600020905b815481529060010190602001808311611eaa57829003601f168201915b50505050508152505092505050919050565b845160208087019190912060008181526007909252604082205415611f135786604051630b6da56160e21b81526004016108729190613620565b60008054905060006040518060e001604052808381526020018a8152602001336001600160a01b03168152602001896002811115611f5357611f53612f37565b815260208082018a9052604082018990526060909101879052600180548082018255600091909152825160089091027fb10e2d527612073b26eecdfd717e6a320cf44b4afac2b0732d9fcbe2b7fa0cf6810191825591830151929350839290917fb10e2d527612073b26eecdfd717e6a320cf44b4afac2b0732d9fcbe2b7fa0cf70190611fe09082613682565b506040820151600280830180546001600160a01b039093166001600160a01b031984168117825560608601519391927fffffffffffffffffffffff0000000000000000000000000000000000000000009092161790600160a01b90849081111561204c5761204c612f37565b021790555060808201518051600383018054909190829060ff1916600183600281111561207b5761207b612f37565b02179055506020820151805160018084018054909291839160ff1916908360038111156120aa576120aa612f37565b021790555060209182015181546001600160a01b03909116610100027fffffffffffffffffffffff0000000000000000000000000000000000000000ff909116179055604092909201516002909101805491151560ff1990921691909117905560a083015180516121219260068501920190612dea565b5060c082015160078201906121369082613682565b505050600060018361214891906135de565b600085815260076020526040908190208590556002549051633576860d60e11b8152336004820152602481018690529192506001600160a01b031690636aed0c1a90604401600060405180830381600087803b1580156121a757600080fd5b505af11580156121bb573d6000803e3d6000fd5b505050600082815260056020526040812080549250906121da83613607565b909155505060408051606081018252600180825260208083018281526000848601818152878252600484528682203380845290855287832096518754945192511515620100000262ff0000199315156101000261ff00199215159290921661ffff19909616959095171791909116929092179094558584526006825293832080549283018155835282200180546001600160a01b0319169092179091556122849080546001019055565b604051339084907fb86ecf9543f771ac118830339392a31c2ef19181bb1f831fa033235771791aa190600090a36122f06040518060400160405280601181526020017f537061636520437265617465643a20257300000000000000000000000000000081525084612d0e565b509098975050505050505050565b600080600161230d81866135de565b8154811061231d5761231d6135f1565b90600052602060002090600802016040518060e0016040529081600082015481526020016001820180546123509061358e565b80601f016020809104026020016040519081016040528092919081815260200182805461237c9061358e565b80156123c95780601f1061239e576101008083540402835291602001916123c9565b820191906000526020600020905b8154815290600101906020018083116123ac57829003601f168201915b50505091835250506002828101546001600160a01b0381166020840152604090920191600160a01b900460ff169081111561240657612406612f37565b600281111561241757612417612f37565b81526040805160608101909152600383018054602090930192829060ff16600281111561244657612446612f37565b600281111561245757612457612f37565b815260408051808201909152600183018054602090930192829060ff16600381111561248557612485612f37565b600381111561249657612496612f37565b8152905461010090046001600160a01b03166020918201529082526002929092015460ff161515908201529082526006830180546040805182850281018501909152818152938301939283018282801561254157602002820191906000526020600020906000905b82829054906101000a90046001600160801b03166001600160801b031681526020019060100190602082600f010492830192600103820291508084116124fe5790505b5050505050815260200160078201805461255a9061358e565b80601f01602080910402602001604051908101604052809291908181526020018280546125869061358e565b80156125d35780601f106125a8576101008083540402835291602001916125d3565b820191906000526020600020905b8154815290600101906020018083116125b657829003601f168201915b5050505050815250509050826001600160a01b031681604001516001600160a01b03161491505092915050565b60008061260e6001846135de565b9050600060018281548110612625576126256135f1565b90600052602060002090600802016040518060e0016040529081600082015481526020016001820180546126589061358e565b80601f01602080910402602001604051908101604052809291908181526020018280546126849061358e565b80156126d15780601f106126a6576101008083540402835291602001916126d1565b820191906000526020600020905b8154815290600101906020018083116126b457829003601f168201915b50505091835250506002828101546001600160a01b0381166020840152604090920191600160a01b900460ff169081111561270e5761270e612f37565b600281111561271f5761271f612f37565b81526040805160608101909152600383018054602090930192829060ff16600281111561274e5761274e612f37565b600281111561275f5761275f612f37565b815260408051808201909152600183018054602090930192829060ff16600381111561278d5761278d612f37565b600381111561279e5761279e612f37565b8152905461010090046001600160a01b03166020918201529082526002929092015460ff161515908201529082526006830180546040805182850281018501909152818152938301939283018282801561284957602002820191906000526020600020906000905b82829054906101000a90046001600160801b03166001600160801b031681526020019060100190602082600f010492830192600103820291508084116128065790505b505050505081526020016007820180546128629061358e565b80601f016020809104026020016040519081016040528092919081815260200182805461288e9061358e565b80156128db5780601f106128b0576101008083540402835291602001916128db565b820191906000526020600020905b8154815290600101906020018083116128be57829003601f168201915b50505091909252505050608081015160209081015190810151905191925090600190600381111561290e5761290e612f37565b0361298c576040516370a0823160e01b815233600482015281906000906001600160a01b038316906370a08231906024015b602060405180830381865afa15801561295d573d6000803e3d6000fd5b505050506040513d601f19601f820116820180604052508101906129819190613742565b119695505050505050565b60026080830151602001515160038111156129a9576129a9612f37565b036129df576040516370a0823160e01b815233600482015281906000906001600160a01b038316906370a0823190602401612940565b60036080830151602001515160038111156129fc576129fc612f37565b03612a3657604051627eeac760e11b815233600482015260006024820181905282916001600160a01b0383169062fdd58e90604401612940565b506000949350505050565b83612a4b816107ce565b158015612a5e5750612a5c8161182e565b155b15612a855760405163eae3129560e01b815260048101829052336024820152604401610872565b6000612a926001876135de565b60008181526004602090815260408083206001600160a01b038a16845290915290205490915060ff610100909104161515841515148015612afb575060008181526004602090815260408083206001600160a01b038916845290915290205460ff161515831515145b15612b2b57604051630c4e612760e41b8152600481018790526001600160a01b0386166024820152604401610872565b6040805160608101825284151581528515801560208084019182526000848601818152878252600483528682206001600160a01b038d1680845290845287832087518154965193511515620100000262ff0000199415156101000261ff00199215159290921661ffff19909816979097171792909216949094179055868152600682529485208054600181018255908652942090930180546001600160a01b03191690931790925590612c9b576000828152600560205260408120805491612bf283613607565b9091555050600254604051633576860d60e11b81526001600160a01b038881166004830152602482018a905290911690636aed0c1a90604401600060405180830381600087803b158015612c4557600080fd5b505af1158015612c59573d6000803e3d6000fd5b505060405186151581523392508991507f01b0570fcf8d040a1dead2d60d1060b4817a6ebc4de6b950e632df705b9f50489060200160405180910390a3612cfc565b60056000612caa6001856135de565b81526020019081526020016000206000815480929190612cc99061375b565b9091555050604051339088907f1c43a3cf5b547073bee7f10560079a1900cc5968c27fb3a768f8e65d5d46550590600090a35b50505050505050565b80546001019055565b612d688282604051602401612d24929190613772565b60408051601f198184030181529190526020810180517bffffffffffffffffffffffffffffffffffffffffffffffffffffffff16632d839cb360e21b179052612d6c565b5050565b80516a636f6e736f6c652e6c6f67602083016000808483855afa5050505050565b6040518060e00160405280600081526020016060815260200160006001600160a01b0316815260200160006002811115612dc957612dc9612f37565b8152602001612dd6612ea2565b815260200160608152602001606081525090565b82805482825590600052602060002090600101600290048101928215612e925791602002820160005b83821115612e5d57835183826101000a8154816001600160801b0302191690836001600160801b031602179055509260200192601001602081600f01049283019260010302612e13565b8015612e905782816101000a8154906001600160801b030219169055601001602081600f01049283019260010302612e5d565b505b50612e9e929150612edc565b5090565b60408051606081019091528060008152602001612ecf604080518082019091526000808252602082015290565b8152600060209091015290565b5b80821115612e9e5760008155600101612edd565b6000815180845260005b81811015612f1757602081850181015186830182015201612efb565b506000602082860101526020601f19601f83011685010191505092915050565b634e487b7160e01b600052602160045260246000fd5b60038110612f5d57612f5d612f37565b50565b8051612f6b81612f4d565b82526020810151805160048110612f8457612f84612f37565b806020850152506001600160a01b036020820151166040840152506040810151151560608301525050565b6000610140825184526020808401518282870152612fcf83870182612ef1565b9250506001600160a01b0360408501511660408601526060840151612ff381612f4d565b80606087015250608084015161300c6080870182612f60565b5060a0840151858303610100870152805180845290820192600091908301905b808310156130555784516001600160801b0316825293830193600192909201919083019061302c565b5060c086015193508681036101208801526130708185612ef1565b979650505050505050565b6000602080830181845280855180835260408601915060408160051b870101925083870160005b828110156130d057603f198886030184526130be858351612faf565b945092850192908501906001016130a2565b5092979650505050505050565b80356001600160a01b03811681146130f457600080fd5b919050565b6000806040838503121561310c57600080fd5b8235915061311c602084016130dd565b90509250929050565b60006020828403121561313757600080fd5b5035919050565b634e487b7160e01b600052604160045260246000fd5b6040516060810167ffffffffffffffff811182821017156131775761317761313e565b60405290565b6040805190810167ffffffffffffffff811182821017156131775761317761313e565b604051601f8201601f1916810167ffffffffffffffff811182821017156131c9576131c961313e565b604052919050565b600082601f8301126131e257600080fd5b813567ffffffffffffffff8111156131fc576131fc61313e565b61320f601f8201601f19166020016131a0565b81815284602083860101111561322457600080fd5b816020850160208301376000918101602001919091529392505050565b60006020828403121561325357600080fd5b813567ffffffffffffffff81111561326a57600080fd5b613276848285016131d1565b949350505050565b6000806040838503121561329157600080fd5b50508035926020909101359150565b6020815260006132b36020830184612faf565b9392505050565b60006101208883528060208401526132d481840189612ef1565b90506001600160a01b03871660408401526132ee86612f4d565b8560608401526133016080840186612f60565b8281036101008401526133148185612ef1565b9998505050505050505050565b6020808252825182820181905260009190848201906040850190845b818110156133625783516001600160a01b03168352928401929184019160010161333d565b50909695505050505050565b60038110612f5d57600080fd5b803580151581146130f457600080fd5b600082601f83011261339c57600080fd5b8135602067ffffffffffffffff8211156133b8576133b861313e565b8160051b6133c78282016131a0565b92835284810182019282810190878511156133e157600080fd5b83870192505b848310156130705782356001600160801b03811681146134075760008081fd5b825291830191908301906133e7565b600080600080600085870361010081121561343057600080fd5b863567ffffffffffffffff8082111561344857600080fd5b6134548a838b016131d1565b9750602089013591506134668261336e565b8196506080603f198401121561347b57600080fd5b613483613154565b915060408901356134938161336e565b82526040605f19840112156134a757600080fd5b6134af61317d565b92506060890135600481106134c357600080fd5b83526134d160808a016130dd565b60208401528260208301526134e860a08a0161337b565b604083015281955060c089013592508083111561350457600080fd5b6135108a848b0161338b565b945060e089013592508083111561352657600080fd5b5050613534888289016131d1565b9150509295509295909350565b6000806000806080858703121561355757600080fd5b84359350613567602086016130dd565b92506135756040860161337b565b91506135836060860161337b565b905092959194509250565b600181811c908216806135a257607f821691505b6020821081036135c257634e487b7160e01b600052602260045260246000fd5b50919050565b634e487b7160e01b600052601160045260246000fd5b818103818111156107c8576107c86135c8565b634e487b7160e01b600052603260045260246000fd5b600060018201613619576136196135c8565b5060010190565b6020815260006132b36020830184612ef1565b601f82111561367d57600081815260208120601f850160051c8101602086101561365a5750805b601f850160051c820191505b8181101561367957828155600101613666565b5050505b505050565b815167ffffffffffffffff81111561369c5761369c61313e565b6136b0816136aa845461358e565b84613633565b602080601f8311600181146136e557600084156136cd5750858301515b600019600386901b1c1916600185901b178555613679565b600085815260208120601f198616915b82811015613714578886015182559484019460019091019084016136f5565b50858210156137325787850151600019600388901b60f8161c191681555b5050505050600190811b01905550565b60006020828403121561375457600080fd5b5051919050565b60008161376a5761376a6135c8565b506000190190565b6040815260006137856040830185612ef1565b9050826020830152939250505056fea164736f6c6343000811000a",
  "linkReferences": {},
  "deployedLinkReferences": {}
}