{
  "_format": "hh-sol-artifact-1",
  "contractName": "EmbraceSpaces",
  "sourceName": "contracts/EmbraceSpaces.sol",
  "abi": [
    {
      "inputs": [
        {
          "internalType": "address",
          "name": "_accountsAddress",
          "type": "address"
        }
      ],
      "stateMutability": "nonpayable",
      "type": "constructor"
    },
    {
      "inputs": [
        {
          "internalType": "uint256",
          "name": "spaceId",
          "type": "uint256"
        },
        {
          "internalType": "address",
          "name": "memberAddress",
          "type": "address"
        }
      ],
      "name": "ErrorCannotJoinAnonSpace",
      "type": "error"
    },
    {
      "inputs": [
        {
          "internalType": "uint256",
          "name": "spaceId",
          "type": "uint256"
        },
        {
          "internalType": "address",
          "name": "memberAddress",
          "type": "address"
        }
      ],
      "name": "ErrorCannotJoinPrivClosedSpace",
      "type": "error"
    },
    {
      "inputs": [
        {
          "internalType": "uint256",
          "name": "spaceId",
          "type": "uint256"
        },
        {
          "internalType": "address",
          "name": "memberAddress",
          "type": "address"
        }
      ],
      "name": "ErrorDoNotMeetSpaceReq",
      "type": "error"
    },
    {
      "inputs": [
        {
          "internalType": "string",
          "name": "handle",
          "type": "string"
        }
      ],
      "name": "ErrorHandleExists",
      "type": "error"
    },
    {
      "inputs": [
        {
          "internalType": "uint256",
          "name": "spaceId",
          "type": "uint256"
        },
        {
          "internalType": "address",
          "name": "memberAddress",
          "type": "address"
        }
      ],
      "name": "ErrorMemberAlreadyExists",
      "type": "error"
    },
    {
      "inputs": [
        {
          "internalType": "uint256",
          "name": "spaceId",
          "type": "uint256"
        },
        {
          "internalType": "address",
          "name": "memberAddress",
          "type": "address"
        }
      ],
      "name": "ErrorOnlyAdmin",
      "type": "error"
    },
    {
      "inputs": [
        {
          "internalType": "uint256",
          "name": "spaceId",
          "type": "uint256"
        },
        {
          "internalType": "address",
          "name": "memberAddress",
          "type": "address"
        }
      ],
      "name": "ErrorOnlyFounder",
      "type": "error"
    },
    {
      "inputs": [
        {
          "internalType": "string",
          "name": "handle",
          "type": "string"
        }
      ],
      "name": "ErrorSpaceNotFound",
      "type": "error"
    },
    {
      "anonymous": false,
      "inputs": [
        {
          "indexed": true,
          "internalType": "uint256",
          "name": "spaceId",
          "type": "uint256"
        },
        {
          "indexed": true,
          "internalType": "address",
          "name": "memberAddress",
          "type": "address"
        },
        {
          "indexed": false,
          "internalType": "bool",
          "name": "isAdmin",
          "type": "bool"
        }
      ],
      "name": "JoinedSpace",
      "type": "event"
    },
    {
      "anonymous": false,
      "inputs": [
        {
          "indexed": true,
          "internalType": "uint256",
          "name": "spaceId",
          "type": "uint256"
        },
        {
          "indexed": true,
          "internalType": "address",
          "name": "memberAddress",
          "type": "address"
        }
      ],
      "name": "RemovedFromSpace",
      "type": "event"
    },
    {
      "anonymous": false,
      "inputs": [
        {
          "indexed": true,
          "internalType": "uint256",
          "name": "spaceId",
          "type": "uint256"
        },
        {
          "indexed": true,
          "internalType": "address",
          "name": "memberAddress",
          "type": "address"
        }
      ],
      "name": "RequestJoinSpace",
      "type": "event"
    },
    {
      "anonymous": false,
      "inputs": [
        {
          "indexed": true,
          "internalType": "uint256",
          "name": "spaceId",
          "type": "uint256"
        },
        {
          "indexed": true,
          "internalType": "address",
          "name": "founder",
          "type": "address"
        }
      ],
      "name": "SpaceCreated",
      "type": "event"
    },
    {
      "inputs": [
        {
          "internalType": "string",
          "name": "_handle",
          "type": "string"
        },
        {
          "internalType": "enum EmbraceSpaces.Visibility",
          "name": "_visibility",
          "type": "uint8"
        },
        {
          "components": [
            {
              "internalType": "enum EmbraceSpaces.Access",
              "name": "access",
              "type": "uint8"
            },
            {
              "components": [
                {
                  "internalType": "enum EmbraceSpaces.MembershipGateToken",
                  "name": "token",
                  "type": "uint8"
                },
                {
                  "internalType": "address",
                  "name": "tokenAddress",
                  "type": "address"
                }
              ],
              "internalType": "struct EmbraceSpaces.MembershipGate",
              "name": "gate",
              "type": "tuple"
            },
            {
              "internalType": "bool",
              "name": "allowRequests",
              "type": "bool"
            }
          ],
          "internalType": "struct EmbraceSpaces.Membership",
          "name": "_membership",
          "type": "tuple"
        },
        {
          "internalType": "uint128[]",
          "name": "_apps",
          "type": "uint128[]"
        },
        {
          "internalType": "string",
          "name": "_metadata",
          "type": "string"
        }
      ],
      "name": "createSpace",
      "outputs": [],
      "stateMutability": "nonpayable",
      "type": "function"
    },
    {
      "inputs": [
        {
          "internalType": "string",
          "name": "_handle",
          "type": "string"
        }
      ],
      "name": "getIndexFromHandle",
      "outputs": [
        {
          "internalType": "uint256",
          "name": "",
          "type": "uint256"
        }
      ],
      "stateMutability": "view",
      "type": "function"
    },
    {
      "inputs": [
        {
          "internalType": "uint256",
          "name": "_spaceId",
          "type": "uint256"
        }
      ],
      "name": "getMemberCount",
      "outputs": [
        {
          "internalType": "uint256",
          "name": "",
          "type": "uint256"
        }
      ],
      "stateMutability": "view",
      "type": "function"
    },
    {
      "inputs": [
        {
          "internalType": "uint256",
          "name": "_spaceId",
          "type": "uint256"
        }
      ],
      "name": "getSpace",
      "outputs": [
        {
          "components": [
            {
              "internalType": "uint256",
              "name": "id",
              "type": "uint256"
            },
            {
              "internalType": "string",
              "name": "handle",
              "type": "string"
            },
            {
              "internalType": "address",
              "name": "founder",
              "type": "address"
            },
            {
              "internalType": "enum EmbraceSpaces.Visibility",
              "name": "visibility",
              "type": "uint8"
            },
            {
              "components": [
                {
                  "internalType": "enum EmbraceSpaces.Access",
                  "name": "access",
                  "type": "uint8"
                },
                {
                  "components": [
                    {
                      "internalType": "enum EmbraceSpaces.MembershipGateToken",
                      "name": "token",
                      "type": "uint8"
                    },
                    {
                      "internalType": "address",
                      "name": "tokenAddress",
                      "type": "address"
                    }
                  ],
                  "internalType": "struct EmbraceSpaces.MembershipGate",
                  "name": "gate",
                  "type": "tuple"
                },
                {
                  "internalType": "bool",
                  "name": "allowRequests",
                  "type": "bool"
                }
              ],
              "internalType": "struct EmbraceSpaces.Membership",
              "name": "membership",
              "type": "tuple"
            },
            {
              "internalType": "uint128[]",
              "name": "apps",
              "type": "uint128[]"
            },
            {
              "internalType": "string",
              "name": "metadata",
              "type": "string"
            }
          ],
          "internalType": "struct EmbraceSpaces.Space",
          "name": "",
          "type": "tuple"
        }
      ],
      "stateMutability": "view",
      "type": "function"
    },
    {
      "inputs": [
        {
          "internalType": "string",
          "name": "_handle",
          "type": "string"
        }
      ],
      "name": "getSpaceFromHandle",
      "outputs": [
        {
          "components": [
            {
              "internalType": "uint256",
              "name": "id",
              "type": "uint256"
            },
            {
              "internalType": "string",
              "name": "handle",
              "type": "string"
            },
            {
              "internalType": "address",
              "name": "founder",
              "type": "address"
            },
            {
              "internalType": "enum EmbraceSpaces.Visibility",
              "name": "visibility",
              "type": "uint8"
            },
            {
              "components": [
                {
                  "internalType": "enum EmbraceSpaces.Access",
                  "name": "access",
                  "type": "uint8"
                },
                {
                  "components": [
                    {
                      "internalType": "enum EmbraceSpaces.MembershipGateToken",
                      "name": "token",
                      "type": "uint8"
                    },
                    {
                      "internalType": "address",
                      "name": "tokenAddress",
                      "type": "address"
                    }
                  ],
                  "internalType": "struct EmbraceSpaces.MembershipGate",
                  "name": "gate",
                  "type": "tuple"
                },
                {
                  "internalType": "bool",
                  "name": "allowRequests",
                  "type": "bool"
                }
              ],
              "internalType": "struct EmbraceSpaces.Membership",
              "name": "membership",
              "type": "tuple"
            },
            {
              "internalType": "uint128[]",
              "name": "apps",
              "type": "uint128[]"
            },
            {
              "internalType": "string",
              "name": "metadata",
              "type": "string"
            }
          ],
          "internalType": "struct EmbraceSpaces.Space",
          "name": "",
          "type": "tuple"
        }
      ],
      "stateMutability": "view",
      "type": "function"
    },
    {
      "inputs": [
        {
          "internalType": "uint256",
          "name": "_spaceId",
          "type": "uint256"
        },
        {
          "internalType": "address",
          "name": "_address",
          "type": "address"
        }
      ],
      "name": "getSpaceMember",
      "outputs": [
        {
          "components": [
            {
              "internalType": "bool",
              "name": "isAdmin",
              "type": "bool"
            },
            {
              "internalType": "bool",
              "name": "isActive",
              "type": "bool"
            },
            {
              "internalType": "bool",
              "name": "isRequest",
              "type": "bool"
            }
          ],
          "internalType": "struct EmbraceSpaces.Member",
          "name": "",
          "type": "tuple"
        }
      ],
      "stateMutability": "view",
      "type": "function"
    },
    {
      "inputs": [],
      "name": "getSpaces",
      "outputs": [
        {
          "components": [
            {
              "internalType": "uint256",
              "name": "id",
              "type": "uint256"
            },
            {
              "internalType": "string",
              "name": "handle",
              "type": "string"
            },
            {
              "internalType": "address",
              "name": "founder",
              "type": "address"
            },
            {
              "internalType": "enum EmbraceSpaces.Visibility",
              "name": "visibility",
              "type": "uint8"
            },
            {
              "components": [
                {
                  "internalType": "enum EmbraceSpaces.Access",
                  "name": "access",
                  "type": "uint8"
                },
                {
                  "components": [
                    {
                      "internalType": "enum EmbraceSpaces.MembershipGateToken",
                      "name": "token",
                      "type": "uint8"
                    },
                    {
                      "internalType": "address",
                      "name": "tokenAddress",
                      "type": "address"
                    }
                  ],
                  "internalType": "struct EmbraceSpaces.MembershipGate",
                  "name": "gate",
                  "type": "tuple"
                },
                {
                  "internalType": "bool",
                  "name": "allowRequests",
                  "type": "bool"
                }
              ],
              "internalType": "struct EmbraceSpaces.Membership",
              "name": "membership",
              "type": "tuple"
            },
            {
              "internalType": "uint128[]",
              "name": "apps",
              "type": "uint128[]"
            },
            {
              "internalType": "string",
              "name": "metadata",
              "type": "string"
            }
          ],
          "internalType": "struct EmbraceSpaces.Space[]",
          "name": "",
          "type": "tuple[]"
        }
      ],
      "stateMutability": "view",
      "type": "function"
    },
    {
      "inputs": [
        {
          "internalType": "uint256",
          "name": "_spaceId",
          "type": "uint256"
        }
      ],
      "name": "isAdmin",
      "outputs": [
        {
          "internalType": "bool",
          "name": "",
          "type": "bool"
        }
      ],
      "stateMutability": "view",
      "type": "function"
    },
    {
      "inputs": [
        {
          "internalType": "uint256",
          "name": "_spaceId",
          "type": "uint256"
        }
      ],
      "name": "isFounder",
      "outputs": [
        {
          "internalType": "bool",
          "name": "",
          "type": "bool"
        }
      ],
      "stateMutability": "view",
      "type": "function"
    },
    {
      "inputs": [
        {
          "internalType": "uint256",
          "name": "_spaceId",
          "type": "uint256"
        }
      ],
      "name": "joinSpace",
      "outputs": [
        {
          "internalType": "bool",
          "name": "",
          "type": "bool"
        }
      ],
      "stateMutability": "nonpayable",
      "type": "function"
    },
    {
      "inputs": [
        {
          "internalType": "uint256",
          "name": "_spaceId",
          "type": "uint256"
        }
      ],
      "name": "meetsGateRequirements",
      "outputs": [
        {
          "internalType": "bool",
          "name": "",
          "type": "bool"
        }
      ],
      "stateMutability": "view",
      "type": "function"
    },
    {
      "inputs": [
        {
          "internalType": "uint256",
          "name": "_spaceId",
          "type": "uint256"
        }
      ],
      "name": "requestJoin",
      "outputs": [
        {
          "internalType": "bool",
          "name": "",
          "type": "bool"
        }
      ],
      "stateMutability": "nonpayable",
      "type": "function"
    },
    {
      "inputs": [
        {
          "internalType": "uint256",
          "name": "_spaceId",
          "type": "uint256"
        },
        {
          "internalType": "address",
          "name": "_address",
          "type": "address"
        }
      ],
      "name": "setFounder",
      "outputs": [],
      "stateMutability": "nonpayable",
      "type": "function"
    },
    {
      "inputs": [
        {
          "internalType": "uint256",
          "name": "_spaceId",
          "type": "uint256"
        },
        {
          "internalType": "address",
          "name": "_address",
          "type": "address"
        },
        {
          "internalType": "bool",
          "name": "_isActive",
          "type": "bool"
        },
        {
          "internalType": "bool",
          "name": "_isAdmin",
          "type": "bool"
        }
      ],
      "name": "setMember",
      "outputs": [],
      "stateMutability": "nonpayable",
      "type": "function"
    },
    {
      "inputs": [
        {
          "internalType": "bytes32",
          "name": "",
          "type": "bytes32"
        }
      ],
      "name": "spaceHandles",
      "outputs": [
        {
          "internalType": "uint256",
          "name": "",
          "type": "uint256"
        }
      ],
      "stateMutability": "view",
      "type": "function"
    },
    {
      "inputs": [
        {
          "internalType": "uint256",
          "name": "",
          "type": "uint256"
        }
      ],
      "name": "spaceMemberLength",
      "outputs": [
        {
          "internalType": "uint256",
          "name": "",
          "type": "uint256"
        }
      ],
      "stateMutability": "view",
      "type": "function"
    },
    {
      "inputs": [
        {
          "internalType": "uint256",
          "name": "",
          "type": "uint256"
        },
        {
          "internalType": "address",
          "name": "",
          "type": "address"
        }
      ],
      "name": "spaceMembers",
      "outputs": [
        {
          "internalType": "bool",
          "name": "isAdmin",
          "type": "bool"
        },
        {
          "internalType": "bool",
          "name": "isActive",
          "type": "bool"
        },
        {
          "internalType": "bool",
          "name": "isRequest",
          "type": "bool"
        }
      ],
      "stateMutability": "view",
      "type": "function"
    },
    {
      "inputs": [
        {
          "internalType": "uint256",
          "name": "",
          "type": "uint256"
        }
      ],
      "name": "spaces",
      "outputs": [
        {
          "internalType": "uint256",
          "name": "id",
          "type": "uint256"
        },
        {
          "internalType": "string",
          "name": "handle",
          "type": "string"
        },
        {
          "internalType": "address",
          "name": "founder",
          "type": "address"
        },
        {
          "internalType": "enum EmbraceSpaces.Visibility",
          "name": "visibility",
          "type": "uint8"
        },
        {
          "components": [
            {
              "internalType": "enum EmbraceSpaces.Access",
              "name": "access",
              "type": "uint8"
            },
            {
              "components": [
                {
                  "internalType": "enum EmbraceSpaces.MembershipGateToken",
                  "name": "token",
                  "type": "uint8"
                },
                {
                  "internalType": "address",
                  "name": "tokenAddress",
                  "type": "address"
                }
              ],
              "internalType": "struct EmbraceSpaces.MembershipGate",
              "name": "gate",
              "type": "tuple"
            },
            {
              "internalType": "bool",
              "name": "allowRequests",
              "type": "bool"
            }
          ],
          "internalType": "struct EmbraceSpaces.Membership",
          "name": "membership",
          "type": "tuple"
        },
        {
          "internalType": "string",
          "name": "metadata",
          "type": "string"
        }
      ],
      "stateMutability": "view",
      "type": "function"
    }
  ],
  "bytecode": "0x60806040523480156200001157600080fd5b506040516200317738038062003177833981016040819052620000349162000077565b600280546001600160a01b0319166001600160a01b0383161790556200006760006200006e602090811b6200271f17901c565b50620000a9565b80546001019055565b6000602082840312156200008a57600080fd5b81516001600160a01b0381168114620000a257600080fd5b9392505050565b6130be80620000b96000396000f3fe608060405234801561001057600080fd5b50600436106101365760003560e01c80637586353b116100b2578063af41f22a11610081578063cb4ac1f511610066578063cb4ac1f514610346578063d1f97b7914610359578063dd739fb51461036c57600080fd5b8063af41f22a146102d3578063ca5fb9801461033357600080fd5b80637586353b146102735780638be9e3c81461029857806399384976146102ab578063a303cf8e146102c057600080fd5b80633254c1f611610109578063470448e1116100ee578063470448e1146102185780635ce9284f1461024057806370e104311461025357600080fd5b80633254c1f6146101ca57806333d7ae40146101f857600080fd5b806315478ca91461013b5780631557f48c146101595780631f6dc437146101945780632ea6524f146101b7575b600080fd5b61014361037f565b6040516101509190612a16565b60405180910390f35b61016c610167366004612a94565b610684565b6040805182511515815260208084015115159082015291810151151590820152606001610150565b6101a76101a2366004612ac0565b610711565b6040519015158152602001610150565b6101a76101c5366004612ac0565b61075b565b6101ea6101d8366004612ac0565b60056020526000908152604090205481565b604051908152602001610150565b6101ea610206366004612ac0565b60046020526000908152604090205481565b6101ea610226366004612bdc565b805160209182012060009081526005909152604090205490565b6101ea61024e366004612ac0565b610bbc565b610266610261366004612ac0565b610be2565b6040516101509190612c19565b610286610281366004612ac0565b610ecc565b60405161015096959493929190612c33565b6101a76102a6366004612ac0565b6110d8565b6102be6102b9366004612a94565b611632565b005b6101a76102ce366004612ac0565b6116c5565b6103146102e1366004612a94565b600360209081526000928352604080842090915290825290205460ff808216916101008104821691620100009091041683565b6040805193151584529115156020840152151590820152606001610150565b610266610341366004612bdc565b6119ba565b6102be610354366004612d42565b611cf1565b6101a7610367366004612ac0565b6120b2565b6102be61037a366004612e6d565b6124f3565b60606001805480602002602001604051908101604052809291908181526020016000905b8282101561067b57838290600052602060002090600802016040518060e0016040529081600082015481526020016001820180546103e090612eba565b80601f016020809104026020016040519081016040528092919081815260200182805461040c90612eba565b80156104595780601f1061042e57610100808354040283529160200191610459565b820191906000526020600020905b81548152906001019060200180831161043c57829003601f168201915b50505091835250506002828101546001600160a01b0381166020840152604090920191600160a01b900460ff1690811115610496576104966128d2565b60028111156104a7576104a76128d2565b81526040805160608101909152600383018054602090930192829060ff1660028111156104d6576104d66128d2565b60028111156104e7576104e76128d2565b815260408051808201909152600183018054602090930192829060ff166003811115610515576105156128d2565b6003811115610526576105266128d2565b8152905461010090046001600160a01b03166020918201529082526002929092015460ff16151590820152908252600683018054604080518285028101850190915281815293830193928301828280156105d157602002820191906000526020600020906000905b82829054906101000a90046001600160801b03166001600160801b031681526020019060100190602082600f0104928301926001038202915080841161058e5790505b505050505081526020016007820180546105ea90612eba565b80601f016020809104026020016040519081016040528092919081815260200182805461061690612eba565b80156106635780601f1061063857610100808354040283529160200191610663565b820191906000526020600020905b81548152906001019060200180831161064657829003601f168201915b505050505081525050815260200190600101906103a3565b50505050905090565b6040805160608101825260008082526020820181905291810191909152600360006106b0600186612f0a565b8152602080820192909252604090810160009081206001600160a01b038616825283528190208151606081018352905460ff808216151583526101008204811615159483019490945262010000900490921615159082015290505b92915050565b6000600381610721600185612f0a565b81526020808201929092526040908101600090812033825290925290205460ff16151560010361075357506001919050565b506000919050565b600080610769600184612f0a565b6000818152600360209081526040808320338452909152902054909150610100900460ff1615156001036107be57604051630c4e612760e41b8152600481018490523360248201526044015b60405180910390fd5b6000600182815481106107d3576107d3612f1d565b90600052602060002090600802016040518060e00160405290816000820154815260200160018201805461080690612eba565b80601f016020809104026020016040519081016040528092919081815260200182805461083290612eba565b801561087f5780601f106108545761010080835404028352916020019161087f565b820191906000526020600020905b81548152906001019060200180831161086257829003601f168201915b50505091835250506002828101546001600160a01b0381166020840152604090920191600160a01b900460ff16908111156108bc576108bc6128d2565b60028111156108cd576108cd6128d2565b81526040805160608101909152600383018054602090930192829060ff1660028111156108fc576108fc6128d2565b600281111561090d5761090d6128d2565b815260408051808201909152600183018054602090930192829060ff16600381111561093b5761093b6128d2565b600381111561094c5761094c6128d2565b8152905461010090046001600160a01b03166020918201529082526002929092015460ff16151590820152908252600683018054604080518285028101850190915281815293830193928301828280156109f757602002820191906000526020600020906000905b82829054906101000a90046001600160801b03166001600160801b031681526020019060100190602082600f010492830192600103820291508084116109b45790505b50505050508152602001600782018054610a1090612eba565b80601f0160208091040260200160405190810160405280929190818152602001828054610a3c90612eba565b8015610a895780601f10610a5e57610100808354040283529160200191610a89565b820191906000526020600020905b815481529060010190602001808311610a6c57829003601f168201915b505050505081525050905060016002811115610aa757610aa76128d2565b81606001516002811115610abd57610abd6128d2565b141580610ae1575060026080820151516002811115610ade57610ade6128d2565b14155b80610af25750806080015160400151155b15610b195760405163425ad41160e11b8152600481018590523360248201526044016107b5565b604080516060810182526000808252602080830182815260018486019081528784526003835285842033808652935285842085518154935192511515620100000262ff0000199315156101000261ff00199215159290921661ffff19909516949094171791909116919091179055925191929187917fdbb2455cc69235cd7b041dc0cced849ee3bd818c2e063d18e579d3d068f7974e91a3506001949350505050565b6000600481610bcc600185612f0a565b8152602001908152602001600020549050919050565b610bea612728565b6001610bf68184612f0a565b81548110610c0657610c06612f1d565b90600052602060002090600802016040518060e001604052908160008201548152602001600182018054610c3990612eba565b80601f0160208091040260200160405190810160405280929190818152602001828054610c6590612eba565b8015610cb25780601f10610c8757610100808354040283529160200191610cb2565b820191906000526020600020905b815481529060010190602001808311610c9557829003601f168201915b50505091835250506002828101546001600160a01b0381166020840152604090920191600160a01b900460ff1690811115610cef57610cef6128d2565b6002811115610d0057610d006128d2565b81526040805160608101909152600383018054602090930192829060ff166002811115610d2f57610d2f6128d2565b6002811115610d4057610d406128d2565b815260408051808201909152600183018054602090930192829060ff166003811115610d6e57610d6e6128d2565b6003811115610d7f57610d7f6128d2565b8152905461010090046001600160a01b03166020918201529082526002929092015460ff1615159082015290825260068301805460408051828502810185019091528181529383019392830182828015610e2a57602002820191906000526020600020906000905b82829054906101000a90046001600160801b03166001600160801b031681526020019060100190602082600f01049283019260010382029150808411610de75790505b50505050508152602001600782018054610e4390612eba565b80601f0160208091040260200160405190810160405280929190818152602001828054610e6f90612eba565b8015610ebc5780601f10610e9157610100808354040283529160200191610ebc565b820191906000526020600020905b815481529060010190602001808311610e9f57829003601f168201915b5050505050815250509050919050565b60018181548110610edc57600080fd5b60009182526020909120600890910201805460018201805491935090610f0190612eba565b80601f0160208091040260200160405190810160405280929190818152602001828054610f2d90612eba565b8015610f7a5780601f10610f4f57610100808354040283529160200191610f7a565b820191906000526020600020905b815481529060010190602001808311610f5d57829003601f168201915b505050600280850154604080516060810190915260038701805496976001600160a01b0384169760ff600160a01b909504851697509095509193909284921690811115610fc957610fc96128d2565b6002811115610fda57610fda6128d2565b815260408051808201909152600183018054602090930192829060ff166003811115611008576110086128d2565b6003811115611019576110196128d2565b8152905461010090046001600160a01b03166020918201529082526002929092015460ff16151591015260078201805491929161105590612eba565b80601f016020809104026020016040519081016040528092919081815260200182805461108190612eba565b80156110ce5780601f106110a3576101008083540402835291602001916110ce565b820191906000526020600020905b8154815290600101906020018083116110b157829003601f168201915b5050505050905086565b6000806110e6600184612f0a565b90506000600182815481106110fd576110fd612f1d565b90600052602060002090600802016040518060e00160405290816000820154815260200160018201805461113090612eba565b80601f016020809104026020016040519081016040528092919081815260200182805461115c90612eba565b80156111a95780601f1061117e576101008083540402835291602001916111a9565b820191906000526020600020905b81548152906001019060200180831161118c57829003601f168201915b50505091835250506002828101546001600160a01b0381166020840152604090920191600160a01b900460ff16908111156111e6576111e66128d2565b60028111156111f7576111f76128d2565b81526040805160608101909152600383018054602090930192829060ff166002811115611226576112266128d2565b6002811115611237576112376128d2565b815260408051808201909152600183018054602090930192829060ff166003811115611265576112656128d2565b6003811115611276576112766128d2565b8152905461010090046001600160a01b03166020918201529082526002929092015460ff161515908201529082526006830180546040805182850281018501909152818152938301939283018282801561132157602002820191906000526020600020906000905b82829054906101000a90046001600160801b03166001600160801b031681526020019060100190602082600f010492830192600103820291508084116112de5790505b5050505050815260200160078201805461133a90612eba565b80601f016020809104026020016040519081016040528092919081815260200182805461136690612eba565b80156113b35780601f10611388576101008083540402835291602001916113b3565b820191906000526020600020905b81548152906001019060200180831161139657829003601f168201915b505050919092525050506000838152600360209081526040808320338452909152902054909150610100900460ff16151560010361140d57604051630c4e612760e41b8152600481018590523360248201526044016107b5565b600281606001516002811115611425576114256128d2565b0361144c5760405163cf14998d60e01b8152600481018590523360248201526044016107b5565b600181606001516002811115611464576114646128d2565b148015611487575060026080820151516002811115611485576114856128d2565b145b156114ae5760405163425ad41160e11b8152600481018590523360248201526044016107b5565b600160808201515160028111156114c7576114c76128d2565b1480156114da57506114d8846120b2565b155b1561150157604051637a8a90f360e11b8152600481018590523360248201526044016107b5565b6040805160608101825260008082526001602080840191825283850183815287845260038252858420338552825285842085518154945192511515620100000262ff0000199315156101000261ff00199215159290921661ffff1990961695909517179190911692909217909155858252600490529182208054919261158683612f33565b909155505060405160008152339086907f01b0570fcf8d040a1dead2d60d1060b4817a6ebc4de6b950e632df705b9f50489060200160405180910390a3600254604051633576860d60e11b8152336004820152602481018790526001600160a01b0390911690636aed0c1a90604401600060405180830381600087803b15801561160f57600080fd5b505af1158015611623573d6000803e3d6000fd5b50600198975050505050505050565b8161163c816116c5565b1561166357604051633eb0f74360e21b8152600481018290523360248201526044016107b5565b600060016116718186612f0a565b8154811061168157611681612f1d565b60009182526020909120600890910201600201805473ffffffffffffffffffffffffffffffffffffffff19166001600160a01b039490941693909317909255505050565b60008060016116d48185612f0a565b815481106116e4576116e4612f1d565b90600052602060002090600802016040518060e00160405290816000820154815260200160018201805461171790612eba565b80601f016020809104026020016040519081016040528092919081815260200182805461174390612eba565b80156117905780601f1061176557610100808354040283529160200191611790565b820191906000526020600020905b81548152906001019060200180831161177357829003601f168201915b50505091835250506002828101546001600160a01b0381166020840152604090920191600160a01b900460ff16908111156117cd576117cd6128d2565b60028111156117de576117de6128d2565b81526040805160608101909152600383018054602090930192829060ff16600281111561180d5761180d6128d2565b600281111561181e5761181e6128d2565b815260408051808201909152600183018054602090930192829060ff16600381111561184c5761184c6128d2565b600381111561185d5761185d6128d2565b8152905461010090046001600160a01b03166020918201529082526002929092015460ff161515908201529082526006830180546040805182850281018501909152818152938301939283018282801561190857602002820191906000526020600020906000905b82829054906101000a90046001600160801b03166001600160801b031681526020019060100190602082600f010492830192600103820291508084116118c55790505b5050505050815260200160078201805461192190612eba565b80601f016020809104026020016040519081016040528092919081815260200182805461194d90612eba565b801561199a5780601f1061196f5761010080835404028352916020019161199a565b820191906000526020600020905b81548152906001019060200180831161197d57829003601f168201915b50505091909252505050604001516001600160a01b031633149392505050565b6119c2612728565b60006119e283805160209182012060009081526005909152604090205490565b905060006119f1826001612f4c565b905080600003611a16578360405163504d6b5d60e11b81526004016107b59190612f5f565b60018281548110611a2957611a29612f1d565b90600052602060002090600802016040518060e001604052908160008201548152602001600182018054611a5c90612eba565b80601f0160208091040260200160405190810160405280929190818152602001828054611a8890612eba565b8015611ad55780601f10611aaa57610100808354040283529160200191611ad5565b820191906000526020600020905b815481529060010190602001808311611ab857829003601f168201915b50505091835250506002828101546001600160a01b0381166020840152604090920191600160a01b900460ff1690811115611b1257611b126128d2565b6002811115611b2357611b236128d2565b81526040805160608101909152600383018054602090930192829060ff166002811115611b5257611b526128d2565b6002811115611b6357611b636128d2565b815260408051808201909152600183018054602090930192829060ff166003811115611b9157611b916128d2565b6003811115611ba257611ba26128d2565b8152905461010090046001600160a01b03166020918201529082526002929092015460ff1615159082015290825260068301805460408051828502810185019091528181529383019392830182828015611c4d57602002820191906000526020600020906000905b82829054906101000a90046001600160801b03166001600160801b031681526020019060100190602082600f01049283019260010382029150808411611c0a5790505b50505050508152602001600782018054611c6690612eba565b80601f0160208091040260200160405190810160405280929190818152602001828054611c9290612eba565b8015611cdf5780601f10611cb457610100808354040283529160200191611cdf565b820191906000526020600020905b815481529060010190602001808311611cc257829003601f168201915b50505050508152505092505050919050565b84516020808701919091206000818152600590925260409091205415611d2c5785604051630b6da56160e21b81526004016107b59190612f5f565b60008054905060006040518060e00160405280838152602001898152602001336001600160a01b03168152602001886002811115611d6c57611d6c6128d2565b81526020808201899052604082018890526060909101869052600180548082018255600091909152825160089091027fb10e2d527612073b26eecdfd717e6a320cf44b4afac2b0732d9fcbe2b7fa0cf6810191825591830151929350839290917fb10e2d527612073b26eecdfd717e6a320cf44b4afac2b0732d9fcbe2b7fa0cf70190611df99082612fc1565b506040820151600280830180546001600160a01b0390931673ffffffffffffffffffffffffffffffffffffffff1984168117825560608601519391927fffffffffffffffffffffff0000000000000000000000000000000000000000009092161790600160a01b908490811115611e7257611e726128d2565b021790555060808201518051600383018054909190829060ff19166001836002811115611ea157611ea16128d2565b02179055506020820151805160018084018054909291839160ff191690836003811115611ed057611ed06128d2565b021790555060209182015181546001600160a01b03909116610100027fffffffffffffffffffffff0000000000000000000000000000000000000000ff909116179055604092909201516002909101805491151560ff1990921691909117905560a08301518051611f479260068501920190612785565b5060c08201516007820190611f5c9082612fc1565b5050506000600183611f6e9190612f0a565b600085815260056020526040908190208290556002549051633576860d60e11b8152336004820152602481018690529192506001600160a01b031690636aed0c1a90604401600060405180830381600087803b158015611fcd57600080fd5b505af1158015611fe1573d6000803e3d6000fd5b5050506000828152600460205260408120805492509061200083612f33565b9091555050604080516060810182526001808252602080830191825260008385018181528682526003835285822033835290925293842092518354925191511515620100000262ff0000199215156101000261ff00199215159290921661ffff1990941693909317171617905561207a9080546001019055565b604051339084907fb86ecf9543f771ac118830339392a31c2ef19181bb1f831fa033235771791aa190600090a3505050505050505050565b6000806120c0600184612f0a565b90506000600182815481106120d7576120d7612f1d565b90600052602060002090600802016040518060e00160405290816000820154815260200160018201805461210a90612eba565b80601f016020809104026020016040519081016040528092919081815260200182805461213690612eba565b80156121835780601f1061215857610100808354040283529160200191612183565b820191906000526020600020905b81548152906001019060200180831161216657829003601f168201915b50505091835250506002828101546001600160a01b0381166020840152604090920191600160a01b900460ff16908111156121c0576121c06128d2565b60028111156121d1576121d16128d2565b81526040805160608101909152600383018054602090930192829060ff166002811115612200576122006128d2565b6002811115612211576122116128d2565b815260408051808201909152600183018054602090930192829060ff16600381111561223f5761223f6128d2565b6003811115612250576122506128d2565b8152905461010090046001600160a01b03166020918201529082526002929092015460ff16151590820152908252600683018054604080518285028101850190915281815293830193928301828280156122fb57602002820191906000526020600020906000905b82829054906101000a90046001600160801b03166001600160801b031681526020019060100190602082600f010492830192600103820291508084116122b85790505b5050505050815260200160078201805461231490612eba565b80601f016020809104026020016040519081016040528092919081815260200182805461234090612eba565b801561238d5780601f106123625761010080835404028352916020019161238d565b820191906000526020600020905b81548152906001019060200180831161237057829003601f168201915b5050509190925250505060808101516020908101519081015190519192509060019060038111156123c0576123c06128d2565b0361243e576040516370a0823160e01b815233600482015281906000906001600160a01b038316906370a08231906024015b602060405180830381865afa15801561240f573d6000803e3d6000fd5b505050506040513d601f19601f820116820180604052508101906124339190613081565b119695505050505050565b600260808301516020015151600381111561245b5761245b6128d2565b03612491576040516370a0823160e01b815233600482015281906000906001600160a01b038316906370a08231906024016123f2565b60036080830151602001515160038111156124ae576124ae6128d2565b036124e857604051627eeac760e11b815233600482015260006024820181905282916001600160a01b0383169062fdd58e906044016123f2565b506000949350505050565b836124fd81610711565b8061250c575061250c816116c5565b156125335760405163eae3129560e01b8152600481018290523360248201526044016107b5565b6000612540600187612f0a565b60008181526003602090815260408083206001600160a01b038a16845290915290205490915060ff6101009091041615158415151480156125a9575060008181526003602090815260408083206001600160a01b038916845290915290205460ff161515831515145b156125d957604051630c4e612760e41b8152600481018790526001600160a01b03861660248201526044016107b5565b6040805160608101825284151581528515801560208084019182526000848601818152878252600383528682206001600160a01b038d1683529092529490942083518154925195511515620100000262ff0000199615156101000261ff00199215159290921661ffff1990941693909317179490941617909255906126b557600082815260046020526040812080549161267283612f33565b90915550506040518415158152339088907f01b0570fcf8d040a1dead2d60d1060b4817a6ebc4de6b950e632df705b9f50489060200160405180910390a3612716565b600460006126c4600185612f0a565b815260200190815260200160002060008154809291906126e39061309a565b9091555050604051339088907f1c43a3cf5b547073bee7f10560079a1900cc5968c27fb3a768f8e65d5d46550590600090a35b50505050505050565b80546001019055565b6040518060e00160405280600081526020016060815260200160006001600160a01b0316815260200160006002811115612764576127646128d2565b815260200161277161283d565b815260200160608152602001606081525090565b8280548282559060005260206000209060010160029004810192821561282d5791602002820160005b838211156127f857835183826101000a8154816001600160801b0302191690836001600160801b031602179055509260200192601001602081600f010492830192600103026127ae565b801561282b5782816101000a8154906001600160801b030219169055601001602081600f010492830192600103026127f8565b505b50612839929150612877565b5090565b6040805160608101909152806000815260200161286a604080518082019091526000808252602082015290565b8152600060209091015290565b5b808211156128395760008155600101612878565b6000815180845260005b818110156128b257602081850181015186830182015201612896565b506000602082860101526020601f19601f83011685010191505092915050565b634e487b7160e01b600052602160045260246000fd5b600381106128f8576128f86128d2565b50565b8051612906816128e8565b8252602081015180516004811061291f5761291f6128d2565b806020850152506001600160a01b036020820151166040840152506040810151151560608301525050565b600061014082518452602080840151828287015261296a8387018261288c565b9250506001600160a01b036040850151166040860152606084015161298e816128e8565b8060608701525060808401516129a760808701826128fb565b5060a0840151858303610100870152805180845290820192600091908301905b808310156129f05784516001600160801b031682529383019360019290920191908301906129c7565b5060c08601519350868103610120880152612a0b818561288c565b979650505050505050565b6000602080830181845280855180835260408601915060408160051b870101925083870160005b82811015612a6b57603f19888603018452612a5985835161294a565b94509285019290850190600101612a3d565b5092979650505050505050565b80356001600160a01b0381168114612a8f57600080fd5b919050565b60008060408385031215612aa757600080fd5b82359150612ab760208401612a78565b90509250929050565b600060208284031215612ad257600080fd5b5035919050565b634e487b7160e01b600052604160045260246000fd5b6040516060810167ffffffffffffffff81118282101715612b1257612b12612ad9565b60405290565b6040805190810167ffffffffffffffff81118282101715612b1257612b12612ad9565b604051601f8201601f1916810167ffffffffffffffff81118282101715612b6457612b64612ad9565b604052919050565b600082601f830112612b7d57600080fd5b813567ffffffffffffffff811115612b9757612b97612ad9565b612baa601f8201601f1916602001612b3b565b818152846020838601011115612bbf57600080fd5b816020850160208301376000918101602001919091529392505050565b600060208284031215612bee57600080fd5b813567ffffffffffffffff811115612c0557600080fd5b612c1184828501612b6c565b949350505050565b602081526000612c2c602083018461294a565b9392505050565b6000610120888352806020840152612c4d8184018961288c565b90506001600160a01b0387166040840152612c67866128e8565b856060840152612c7a60808401866128fb565b828103610100840152612c8d818561288c565b9998505050505050505050565b600381106128f857600080fd5b80358015158114612a8f57600080fd5b600082601f830112612cc857600080fd5b8135602067ffffffffffffffff821115612ce457612ce4612ad9565b8160051b612cf3828201612b3b565b9283528481018201928281019087851115612d0d57600080fd5b83870192505b84831015612a0b5782356001600160801b0381168114612d335760008081fd5b82529183019190830190612d13565b6000806000806000858703610100811215612d5c57600080fd5b863567ffffffffffffffff80821115612d7457600080fd5b612d808a838b01612b6c565b975060208901359150612d9282612c9a565b8196506080603f1984011215612da757600080fd5b612daf612aef565b91506040890135612dbf81612c9a565b82526040605f1984011215612dd357600080fd5b612ddb612b18565b9250606089013560048110612def57600080fd5b8352612dfd60808a01612a78565b6020840152826020830152612e1460a08a01612ca7565b604083015281955060c0890135925080831115612e3057600080fd5b612e3c8a848b01612cb7565b945060e0890135925080831115612e5257600080fd5b5050612e6088828901612b6c565b9150509295509295909350565b60008060008060808587031215612e8357600080fd5b84359350612e9360208601612a78565b9250612ea160408601612ca7565b9150612eaf60608601612ca7565b905092959194509250565b600181811c90821680612ece57607f821691505b602082108103612eee57634e487b7160e01b600052602260045260246000fd5b50919050565b634e487b7160e01b600052601160045260246000fd5b8181038181111561070b5761070b612ef4565b634e487b7160e01b600052603260045260246000fd5b600060018201612f4557612f45612ef4565b5060010190565b8082018082111561070b5761070b612ef4565b602081526000612c2c602083018461288c565b601f821115612fbc57600081815260208120601f850160051c81016020861015612f995750805b601f850160051c820191505b81811015612fb857828155600101612fa5565b5050505b505050565b815167ffffffffffffffff811115612fdb57612fdb612ad9565b612fef81612fe98454612eba565b84612f72565b602080601f831160018114613024576000841561300c5750858301515b600019600386901b1c1916600185901b178555612fb8565b600085815260208120601f198616915b8281101561305357888601518255948401946001909101908401613034565b50858210156130715787850151600019600388901b60f8161c191681555b5050505050600190811b01905550565b60006020828403121561309357600080fd5b5051919050565b6000816130a9576130a9612ef4565b50600019019056fea164736f6c6343000811000a",
  "linkReferences": {},
  "deployedLinkReferences": {}
}