{
  "_format": "hh-sol-artifact-1",
  "contractName": "EmbraceApps",
  "sourceName": "contracts/EmbraceApps.sol",
  "abi": [
    {
      "inputs": [],
      "stateMutability": "nonpayable",
      "type": "constructor"
    },
    {
      "inputs": [
        {
          "internalType": "uint256",
          "name": "",
          "type": "uint256"
        }
      ],
      "name": "apps",
      "outputs": [
        {
          "internalType": "uint256",
          "name": "id",
          "type": "uint256"
        },
        {
          "internalType": "bytes32",
          "name": "code",
          "type": "bytes32"
        },
        {
          "internalType": "address",
          "name": "contractAddress",
          "type": "address"
        },
        {
          "internalType": "bool",
          "name": "enabled",
          "type": "bool"
        },
        {
          "internalType": "string",
          "name": "metadata",
          "type": "string"
        }
      ],
      "stateMutability": "view",
      "type": "function"
    },
    {
      "inputs": [
        {
          "internalType": "bytes32",
          "name": "_code",
          "type": "bytes32"
        },
        {
          "internalType": "address",
          "name": "_contractAddress",
          "type": "address"
        },
        {
          "internalType": "string",
          "name": "_metadata",
          "type": "string"
        },
        {
          "internalType": "bool",
          "name": "_enabled",
          "type": "bool"
        }
      ],
      "name": "createApp",
      "outputs": [],
      "stateMutability": "nonpayable",
      "type": "function"
    },
    {
      "inputs": [
        {
          "internalType": "bytes32",
          "name": "_code",
          "type": "bytes32"
        }
      ],
      "name": "getAppByCode",
      "outputs": [
        {
          "components": [
            {
              "internalType": "uint256",
              "name": "id",
              "type": "uint256"
            },
            {
              "internalType": "bytes32",
              "name": "code",
              "type": "bytes32"
            },
            {
              "internalType": "address",
              "name": "contractAddress",
              "type": "address"
            },
            {
              "internalType": "bool",
              "name": "enabled",
              "type": "bool"
            },
            {
              "internalType": "string",
              "name": "metadata",
              "type": "string"
            }
          ],
          "internalType": "struct EmbraceApps.App",
          "name": "",
          "type": "tuple"
        }
      ],
      "stateMutability": "view",
      "type": "function"
    },
    {
      "inputs": [
        {
          "internalType": "uint256",
          "name": "_appId",
          "type": "uint256"
        }
      ],
      "name": "getAppByIndex",
      "outputs": [
        {
          "components": [
            {
              "internalType": "uint256",
              "name": "id",
              "type": "uint256"
            },
            {
              "internalType": "bytes32",
              "name": "code",
              "type": "bytes32"
            },
            {
              "internalType": "address",
              "name": "contractAddress",
              "type": "address"
            },
            {
              "internalType": "bool",
              "name": "enabled",
              "type": "bool"
            },
            {
              "internalType": "string",
              "name": "metadata",
              "type": "string"
            }
          ],
          "internalType": "struct EmbraceApps.App",
          "name": "",
          "type": "tuple"
        }
      ],
      "stateMutability": "view",
      "type": "function"
    },
    {
      "inputs": [],
      "name": "getApps",
      "outputs": [
        {
          "components": [
            {
              "internalType": "uint256",
              "name": "id",
              "type": "uint256"
            },
            {
              "internalType": "bytes32",
              "name": "code",
              "type": "bytes32"
            },
            {
              "internalType": "address",
              "name": "contractAddress",
              "type": "address"
            },
            {
              "internalType": "bool",
              "name": "enabled",
              "type": "bool"
            },
            {
              "internalType": "string",
              "name": "metadata",
              "type": "string"
            }
          ],
          "internalType": "struct EmbraceApps.App[]",
          "name": "",
          "type": "tuple[]"
        }
      ],
      "stateMutability": "view",
      "type": "function"
    },
    {
      "inputs": [],
      "name": "owner",
      "outputs": [
        {
          "internalType": "address",
          "name": "",
          "type": "address"
        }
      ],
      "stateMutability": "view",
      "type": "function"
    },
    {
      "inputs": [
        {
          "internalType": "bytes32",
          "name": "_code",
          "type": "bytes32"
        },
        {
          "internalType": "address",
          "name": "_contractAddress",
          "type": "address"
        }
      ],
      "name": "setAppContractAddress",
      "outputs": [],
      "stateMutability": "nonpayable",
      "type": "function"
    },
    {
      "inputs": [
        {
          "internalType": "uint256",
          "name": "_appId",
          "type": "uint256"
        },
        {
          "internalType": "string",
          "name": "_newMetadata",
          "type": "string"
        }
      ],
      "name": "updateMetadata",
      "outputs": [
        {
          "components": [
            {
              "internalType": "uint256",
              "name": "id",
              "type": "uint256"
            },
            {
              "internalType": "bytes32",
              "name": "code",
              "type": "bytes32"
            },
            {
              "internalType": "address",
              "name": "contractAddress",
              "type": "address"
            },
            {
              "internalType": "bool",
              "name": "enabled",
              "type": "bool"
            },
            {
              "internalType": "string",
              "name": "metadata",
              "type": "string"
            }
          ],
          "internalType": "struct EmbraceApps.App",
          "name": "",
          "type": "tuple"
        }
      ],
      "stateMutability": "nonpayable",
      "type": "function"
    }
  ],
  "bytecode": "0x608060405234801561001057600080fd5b50600380546001600160a01b0319163317905561100c806100326000396000f3fe608060405234801561001057600080fd5b50600436106100885760003560e01c80636b4fa7591161005b5780636b4fa759146101005780638da5cb5b14610115578063ac18ba6314610140578063d66d756d1461015357600080fd5b806323797ed91461008d5780633388c8b6146100b657806353c8388e146100c957806361acc37e146100dc575b600080fd5b6100a061009b366004610b75565b610168565b6040516100ad9190610c24565b60405180910390f35b6100a06100c4366004610b75565b61029e565b6100a06100d7366004610ce1565b610468565b6100ef6100ea366004610b75565b610612565b6040516100ad959493929190610d28565b61011361010e366004610d85565b6106ee565b005b600354610128906001600160a01b031681565b6040516001600160a01b0390911681526020016100ad565b61011361014e366004610df4565b610946565b61015b610a44565b6040516100ad9190610e20565b6040805160a0810182526000808252602082018190529181018290526060808201929092526080810191909152600182815481106101a8576101a8610e82565b60009182526020918290206040805160a08101825260049093029091018054835260018101549383019390935260028301546001600160a01b0381169183019190915260ff600160a01b909104161515606082015260038201805491929160808401919061021590610e98565b80601f016020809104026020016040519081016040528092919081815260200182805461024190610e98565b801561028e5780601f106102635761010080835404028352916020019161028e565b820191906000526020600020905b81548152906001019060200180831161027157829003601f168201915b5050505050815250509050919050565b6040805160a08101825260008082526020820181905291810182905260608082018390526080820152905b60015481101561041a5782600182815481106102e7576102e7610e82565b90600052602060002090600402016001015403610408576001818154811061031157610311610e82565b60009182526020918290206040805160a08101825260049093029091018054835260018101549383019390935260028301546001600160a01b0381169183019190915260ff600160a01b909104161515606082015260038201805491929160808401919061037e90610e98565b80601f01602080910402602001604051908101604052809291908181526020018280546103aa90610e98565b80156103f75780601f106103cc576101008083540402835291602001916103f7565b820191906000526020600020905b8154815290600101906020018083116103da57829003601f168201915b505050505081525050915050919050565b8061041281610ed2565b9150506102c9565b5060405162461bcd60e51b815260206004820152600c60248201527f4e6f2061707020666f756e64000000000000000000000000000000000000000060448201526064015b60405180910390fd5b6040805160a08101825260008082526020820181905291810182905260608082019290925260808101919091526003546001600160a01b031633146104fa5760405162461bcd60e51b815260206004820152602260248201527f4f6e6c79206f776e65722063616e2063616c6c20746869732066756e6374696f604482015261371760f11b606482015260840161045f565b60006001848154811061050f5761050f610e82565b90600052602060002090600402019050828160030190816105309190610f3f565b506040805160a081018252825481526001830154602082015260028301546001600160a01b03811692820192909252600160a01b90910460ff16151560608201526003820180548391608084019161058790610e98565b80601f01602080910402602001604051908101604052809291908181526020018280546105b390610e98565b80156106005780601f106105d557610100808354040283529160200191610600565b820191906000526020600020905b8154815290600101906020018083116105e357829003601f168201915b50505050508152505091505092915050565b6001818154811061062257600080fd5b6000918252602090912060049091020180546001820154600283015460038401805493955091936001600160a01b03821693600160a01b90920460ff1692909161066b90610e98565b80601f016020809104026020016040519081016040528092919081815260200182805461069790610e98565b80156106e45780601f106106b9576101008083540402835291602001916106e4565b820191906000526020600020905b8154815290600101906020018083116106c757829003601f168201915b5050505050905085565b6003546001600160a01b031633146107535760405162461bcd60e51b815260206004820152602260248201527f4f6e6c79206f776e65722063616e2063616c6c20746869732066756e6374696f604482015261371760f11b606482015260840161045f565b8360005b6001548110156107e657816001828154811061077557610775610e82565b906000526020600020906004020160010154036107d45760405162461bcd60e51b815260206004820152601860248201527f41707020636f646520616c7265616479206578697374732e0000000000000000604482015260640161045f565b806107de81610ed2565b915050610757565b5060006040518060a001604052806107fd60005490565b815260208082018990526001600160a01b0380891660408085019190915287151560608086019190915260809485018a9052600180548082018255600091909152865160049091027fb10e2d527612073b26eecdfd717e6a320cf44b4afac2b0732d9fcbe2b7fa0cf68101918255948701517fb10e2d527612073b26eecdfd717e6a320cf44b4afac2b0732d9fcbe2b7fa0cf7860155918601517fb10e2d527612073b26eecdfd717e6a320cf44b4afac2b0732d9fcbe2b7fa0cf885018054928801511515600160a01b027fffffffffffffffffffffff0000000000000000000000000000000000000000009093169190941617179091559183015192935083927fb10e2d527612073b26eecdfd717e6a320cf44b4afac2b0732d9fcbe2b7fa0cf99091019061092d9082610f3f565b50505061093e600080546001019055565b505050505050565b6003546001600160a01b031633146109ab5760405162461bcd60e51b815260206004820152602260248201527f4f6e6c79206f776e65722063616e2063616c6c20746869732066756e6374696f604482015261371760f11b606482015260840161045f565b60005b600154811015610a3f5782600182815481106109cc576109cc610e82565b90600052602060002090600402016001015403610a2d5781600182815481106109f7576109f7610e82565b906000526020600020906004020160020160006101000a8154816001600160a01b0302191690836001600160a01b031602179055505b80610a3781610ed2565b9150506109ae565b505050565b60606001805480602002602001604051908101604052809291908181526020016000905b82821015610b6c5760008481526020908190206040805160a081018252600486029092018054835260018101549383019390935260028301546001600160a01b03811691830191909152600160a01b900460ff1615156060820152600382018054919291608084019190610adb90610e98565b80601f0160208091040260200160405190810160405280929190818152602001828054610b0790610e98565b8015610b545780601f10610b2957610100808354040283529160200191610b54565b820191906000526020600020905b815481529060010190602001808311610b3757829003601f168201915b50505050508152505081526020019060010190610a68565b50505050905090565b600060208284031215610b8757600080fd5b5035919050565b6000815180845260005b81811015610bb457602081850181015186830182015201610b98565b506000602082860101526020601f19601f83011685010191505092915050565b80518252602081015160208301526001600160a01b0360408201511660408301526060810151151560608301526000608082015160a06080850152610c1c60a0850182610b8e565b949350505050565b602081526000610c376020830184610bd4565b9392505050565b634e487b7160e01b600052604160045260246000fd5b600082601f830112610c6557600080fd5b813567ffffffffffffffff80821115610c8057610c80610c3e565b604051601f8301601f19908116603f01168101908282118183101715610ca857610ca8610c3e565b81604052838152866020858801011115610cc157600080fd5b836020870160208301376000602085830101528094505050505092915050565b60008060408385031215610cf457600080fd5b82359150602083013567ffffffffffffffff811115610d1257600080fd5b610d1e85828601610c54565b9150509250929050565b8581528460208201526001600160a01b0384166040820152821515606082015260a060808201526000610d5e60a0830184610b8e565b979650505050505050565b80356001600160a01b0381168114610d8057600080fd5b919050565b60008060008060808587031215610d9b57600080fd5b84359350610dab60208601610d69565b9250604085013567ffffffffffffffff811115610dc757600080fd5b610dd387828801610c54565b92505060608501358015158114610de957600080fd5b939692955090935050565b60008060408385031215610e0757600080fd5b82359150610e1760208401610d69565b90509250929050565b6000602080830181845280855180835260408601915060408160051b870101925083870160005b82811015610e7557603f19888603018452610e63858351610bd4565b94509285019290850190600101610e47565b5092979650505050505050565b634e487b7160e01b600052603260045260246000fd5b600181811c90821680610eac57607f821691505b602082108103610ecc57634e487b7160e01b600052602260045260246000fd5b50919050565b600060018201610ef257634e487b7160e01b600052601160045260246000fd5b5060010190565b601f821115610a3f57600081815260208120601f850160051c81016020861015610f205750805b601f850160051c820191505b8181101561093e57828155600101610f2c565b815167ffffffffffffffff811115610f5957610f59610c3e565b610f6d81610f678454610e98565b84610ef9565b602080601f831160018114610fa25760008415610f8a5750858301515b600019600386901b1c1916600185901b17855561093e565b600085815260208120601f198616915b82811015610fd157888601518255948401946001909101908401610fb2565b5085821015610fef5787850151600019600388901b60f8161c191681555b5050505050600190811b0190555056fea164736f6c6343000811000a",
  "linkReferences": {},
  "deployedLinkReferences": {}
}