{
  "_format": "hh-sol-artifact-1",
  "contractName": "EmbraceSpaces",
  "sourceName": "contracts/EmbraceSpaces.sol",
  "abi": [
    {
      "inputs": [
        {
          "internalType": "address",
          "name": "_accountsAddress",
          "type": "address"
        }
      ],
      "stateMutability": "nonpayable",
      "type": "constructor"
    },
    {
      "inputs": [
        {
          "internalType": "uint256",
          "name": "_spaceIndex",
          "type": "uint256"
        },
        {
          "internalType": "address",
          "name": "_address",
          "type": "address"
        }
      ],
      "name": "addAdmin",
      "outputs": [],
      "stateMutability": "nonpayable",
      "type": "function"
    },
    {
      "inputs": [
        {
          "internalType": "uint256",
          "name": "_spaceIndex",
          "type": "uint256"
        },
        {
          "internalType": "uint128",
          "name": "_appIndex",
          "type": "uint128"
        }
      ],
      "name": "addApp",
      "outputs": [],
      "stateMutability": "nonpayable",
      "type": "function"
    },
    {
      "inputs": [
        {
          "internalType": "uint256",
          "name": "_spaceIndex",
          "type": "uint256"
        },
        {
          "internalType": "address",
          "name": "_address",
          "type": "address"
        }
      ],
      "name": "addMember",
      "outputs": [],
      "stateMutability": "nonpayable",
      "type": "function"
    },
    {
      "inputs": [
        {
          "internalType": "bytes32",
          "name": "_handle",
          "type": "bytes32"
        },
        {
          "internalType": "enum EmbraceSpaces.Visibility",
          "name": "_visibility",
          "type": "uint8"
        },
        {
          "internalType": "uint128[]",
          "name": "_apps",
          "type": "uint128[]"
        },
        {
          "internalType": "string",
          "name": "_metadata",
          "type": "string"
        }
      ],
      "name": "createSpace",
      "outputs": [],
      "stateMutability": "nonpayable",
      "type": "function"
    },
    {
      "inputs": [
        {
          "internalType": "bytes32",
          "name": "_handle",
          "type": "bytes32"
        }
      ],
      "name": "getIdFromHandle",
      "outputs": [
        {
          "internalType": "uint256",
          "name": "",
          "type": "uint256"
        }
      ],
      "stateMutability": "view",
      "type": "function"
    },
    {
      "inputs": [
        {
          "internalType": "uint256",
          "name": "_spaceIndex",
          "type": "uint256"
        }
      ],
      "name": "getMemberCount",
      "outputs": [
        {
          "internalType": "uint256",
          "name": "",
          "type": "uint256"
        }
      ],
      "stateMutability": "view",
      "type": "function"
    },
    {
      "inputs": [
        {
          "internalType": "uint256",
          "name": "_spaceIndex",
          "type": "uint256"
        }
      ],
      "name": "getSpace",
      "outputs": [
        {
          "components": [
            {
              "internalType": "uint256",
              "name": "index",
              "type": "uint256"
            },
            {
              "internalType": "bytes32",
              "name": "handle",
              "type": "bytes32"
            },
            {
              "internalType": "enum EmbraceSpaces.Visibility",
              "name": "visibility",
              "type": "uint8"
            },
            {
              "internalType": "uint128[]",
              "name": "apps",
              "type": "uint128[]"
            },
            {
              "internalType": "string",
              "name": "metadata",
              "type": "string"
            },
            {
              "internalType": "address",
              "name": "founder",
              "type": "address"
            }
          ],
          "internalType": "struct EmbraceSpaces.Space",
          "name": "",
          "type": "tuple"
        }
      ],
      "stateMutability": "view",
      "type": "function"
    },
    {
      "inputs": [
        {
          "internalType": "bytes32",
          "name": "_handle",
          "type": "bytes32"
        }
      ],
      "name": "getSpaceFromHandle",
      "outputs": [
        {
          "components": [
            {
              "internalType": "uint256",
              "name": "index",
              "type": "uint256"
            },
            {
              "internalType": "bytes32",
              "name": "handle",
              "type": "bytes32"
            },
            {
              "internalType": "enum EmbraceSpaces.Visibility",
              "name": "visibility",
              "type": "uint8"
            },
            {
              "internalType": "uint128[]",
              "name": "apps",
              "type": "uint128[]"
            },
            {
              "internalType": "string",
              "name": "metadata",
              "type": "string"
            },
            {
              "internalType": "address",
              "name": "founder",
              "type": "address"
            }
          ],
          "internalType": "struct EmbraceSpaces.Space",
          "name": "",
          "type": "tuple"
        }
      ],
      "stateMutability": "view",
      "type": "function"
    },
    {
      "inputs": [],
      "name": "getSpaces",
      "outputs": [
        {
          "components": [
            {
              "internalType": "uint256",
              "name": "index",
              "type": "uint256"
            },
            {
              "internalType": "bytes32",
              "name": "handle",
              "type": "bytes32"
            },
            {
              "internalType": "enum EmbraceSpaces.Visibility",
              "name": "visibility",
              "type": "uint8"
            },
            {
              "internalType": "uint128[]",
              "name": "apps",
              "type": "uint128[]"
            },
            {
              "internalType": "string",
              "name": "metadata",
              "type": "string"
            },
            {
              "internalType": "address",
              "name": "founder",
              "type": "address"
            }
          ],
          "internalType": "struct EmbraceSpaces.Space[]",
          "name": "",
          "type": "tuple[]"
        }
      ],
      "stateMutability": "view",
      "type": "function"
    },
    {
      "inputs": [
        {
          "internalType": "uint256",
          "name": "_spaceIndex",
          "type": "uint256"
        }
      ],
      "name": "isAdmin",
      "outputs": [
        {
          "internalType": "bool",
          "name": "",
          "type": "bool"
        }
      ],
      "stateMutability": "view",
      "type": "function"
    },
    {
      "inputs": [
        {
          "internalType": "uint256",
          "name": "_spaceIndex",
          "type": "uint256"
        }
      ],
      "name": "isFounder",
      "outputs": [
        {
          "internalType": "bool",
          "name": "",
          "type": "bool"
        }
      ],
      "stateMutability": "view",
      "type": "function"
    },
    {
      "inputs": [
        {
          "internalType": "uint256",
          "name": "_spaceIndex",
          "type": "uint256"
        }
      ],
      "name": "joinPublicSpace",
      "outputs": [
        {
          "internalType": "bool",
          "name": "",
          "type": "bool"
        }
      ],
      "stateMutability": "nonpayable",
      "type": "function"
    },
    {
      "inputs": [
        {
          "internalType": "uint256",
          "name": "_spaceIndex",
          "type": "uint256"
        },
        {
          "internalType": "uint256",
          "name": "_appIndex",
          "type": "uint256"
        }
      ],
      "name": "removeApp",
      "outputs": [],
      "stateMutability": "nonpayable",
      "type": "function"
    },
    {
      "inputs": [
        {
          "internalType": "uint256",
          "name": "_spaceIndex",
          "type": "uint256"
        },
        {
          "internalType": "address",
          "name": "_member",
          "type": "address"
        }
      ],
      "name": "removeMember",
      "outputs": [],
      "stateMutability": "nonpayable",
      "type": "function"
    },
    {
      "inputs": [
        {
          "internalType": "bytes32",
          "name": "",
          "type": "bytes32"
        }
      ],
      "name": "spaceHandles",
      "outputs": [
        {
          "internalType": "uint256",
          "name": "",
          "type": "uint256"
        }
      ],
      "stateMutability": "view",
      "type": "function"
    },
    {
      "inputs": [
        {
          "internalType": "uint256",
          "name": "",
          "type": "uint256"
        }
      ],
      "name": "spaceMemberLength",
      "outputs": [
        {
          "internalType": "uint256",
          "name": "",
          "type": "uint256"
        }
      ],
      "stateMutability": "view",
      "type": "function"
    },
    {
      "inputs": [
        {
          "internalType": "uint256",
          "name": "",
          "type": "uint256"
        },
        {
          "internalType": "address",
          "name": "",
          "type": "address"
        }
      ],
      "name": "spaceMembers",
      "outputs": [
        {
          "internalType": "bool",
          "name": "isAdmin",
          "type": "bool"
        },
        {
          "internalType": "bool",
          "name": "active",
          "type": "bool"
        }
      ],
      "stateMutability": "view",
      "type": "function"
    },
    {
      "inputs": [
        {
          "internalType": "uint256",
          "name": "",
          "type": "uint256"
        }
      ],
      "name": "spaces",
      "outputs": [
        {
          "internalType": "uint256",
          "name": "index",
          "type": "uint256"
        },
        {
          "internalType": "bytes32",
          "name": "handle",
          "type": "bytes32"
        },
        {
          "internalType": "enum EmbraceSpaces.Visibility",
          "name": "visibility",
          "type": "uint8"
        },
        {
          "internalType": "string",
          "name": "metadata",
          "type": "string"
        },
        {
          "internalType": "address",
          "name": "founder",
          "type": "address"
        }
      ],
      "stateMutability": "view",
      "type": "function"
    }
  ],
  "bytecode": "0x6080604052600160005534801561001557600080fd5b50604051611f12380380611f1283398101604081905261003491610059565b600280546001600160a01b0319166001600160a01b0392909216919091179055610089565b60006020828403121561006b57600080fd5b81516001600160a01b038116811461008257600080fd5b9392505050565b611e7a806100986000396000f3fe608060405234801561001057600080fd5b50600436106101365760003560e01c806370e10431116100b2578063a303cf8e11610081578063dbdc814b11610066578063dbdc814b14610310578063e3aa3ecc14610323578063f71771281461033657600080fd5b8063a303cf8e146102af578063af41f22a146102c257600080fd5b806370e104311461024557806374d0a676146102655780637586353b1461027857806385155bf61461029c57600080fd5b80633254c1f6116101095780633a6eb955116100ee5780633a6eb955146101f25780635ce9284f146102125780636be7658b1461023257600080fd5b80633254c1f6146101a457806333d7ae40146101d257600080fd5b8063036f0e161461013b57806315478ca9146101505780631f6dc4371461016e578063226d45fb14610191575b600080fd5b61014e61014936600461188a565b610349565b005b61015861045d565b60405161016591906119e7565b60405180910390f35b61018161017c366004611a49565b61063b565b6040519015158152602001610165565b61014e61019f366004611b19565b610671565b6101c46101b2366004611a49565b60056020526000908152604090205481565b604051908152602001610165565b6101c46101e0366004611a49565b60046020526000908152604090205481565b6101c4610200366004611a49565b60009081526005602052604090205490565b6101c4610220366004611a49565b60009081526004602052604090205490565b61014e610240366004611c0a565b610930565b610258610253366004611a49565b610a7b565b6040516101659190611c46565b61014e610273366004611c0a565b610c5c565b61028b610286366004611a49565b610da0565b604051610165959493929190611c60565b6102586102aa366004611a49565b610e7b565b6101816102bd366004611a49565b61106d565b6102f96102d0366004611c0a565b600360209081526000928352604080842090915290825290205460ff8082169161010090041682565b604080519215158352901515602083015201610165565b61014e61031e366004611c0a565b61122f565b610181610331366004611a49565b611361565b61014e610344366004611ca7565b61167a565b816103538161063b565b8061036257506103628161106d565b6103a55760405162461bcd60e51b815260206004820152600f60248201526e27b7363c9020b236b4b7103ab9b2b960891b60448201526064015b60405180910390fd5b6000600184815481106103ba576103ba611cc9565b9060005260206000209060060201905080600301836001600160801b0316815481106103e8576103e8611cc9565b60009182526020822060028204015460019091166010026101000a90046001600160801b0316900361045757600381018054600180820183556000928352602090922060028204018054929091166010026101000a6001600160801b0381810219909316928616029190911790555b50505050565b60606001805480602002602001604051908101604052809291908181526020016000905b8282101561063257838290600052602060002090600602016040518060c001604052908160008201548152602001600182015481526020016002820160009054906101000a900460ff1660028111156104dc576104dc6118b6565b60028111156104ed576104ed6118b6565b81526020016003820180548060200260200160405190810160405280929190818152602001828054801561057257602002820191906000526020600020906000905b82829054906101000a90046001600160801b03166001600160801b031681526020019060100190602082600f0104928301926001038202915080841161052f5790505b5050505050815260200160048201805461058b90611cdf565b80601f01602080910402602001604051908101604052809291908181526020018280546105b790611cdf565b80156106045780601f106105d957610100808354040283529160200191610604565b820191906000526020600020905b8154815290600101906020018083116105e757829003601f168201915b5050509183525050600591909101546001600160a01b03166020918201529082526001929092019101610481565b50505050905090565b600081815260036020908152604080832033845290915281205460ff16151560010361066957506001919050565b506000919050565b600084815260056020526040902054156106cd5760405162461bcd60e51b815260206004820152601560248201527f48616e646c6520616c7265616479206578697374730000000000000000000000604482015260640161039c565b60006040518060c0016040528060005481526020018681526020018560028111156106fa576106fa6118b6565b815260208082018690526040808301869052336060909301929092526001805480820182556000829052845160069091027fb10e2d527612073b26eecdfd717e6a320cf44b4afac2b0732d9fcbe2b7fa0cf68101918255928501517fb10e2d527612073b26eecdfd717e6a320cf44b4afac2b0732d9fcbe2b7fa0cf7840155928401517fb10e2d527612073b26eecdfd717e6a320cf44b4afac2b0732d9fcbe2b7fa0cf890920180549495508594909160ff19909116908360028111156107c3576107c36118b6565b0217905550606082015180516107e39160038401916020909101906117a1565b50608082015160048201906107f89082611d67565b5060a09190910151600591820180547fffffffffffffffffffffffff0000000000000000000000000000000000000000166001600160a01b03928316179055600080548882526020939093526040908190208390556002549051633576860d60e11b815233600482015260248101939093521690636aed0c1a90604401600060405180830381600087803b15801561088f57600080fd5b505af11580156108a3573d6000803e3d6000fd5b50506000805481526004602052604081208054935091506108c383611e3d565b9091555050604080518082018252600180825260208083019182526000805481526003825284812033825290915292832091518254915161ffff1990921690151561ff00191617610100911515919091021790558054908061092483611e3d565b91905055505050505050565b8161093a8161063b565b8061094957506109498161106d565b6109875760405162461bcd60e51b815260206004820152600f60248201526e27b7363c9020b236b4b7103ab9b2b960891b604482015260640161039c565b60008381526003602090815260408083206001600160a01b0386168452909152812054610100900460ff1615159003610a025760405162461bcd60e51b815260206004820152601560248201527f4d656d62657220646f6573206e6f742065786973740000000000000000000000604482015260640161039c565b60408051808201825260008082526020808301828152878352600382528483206001600160a01b0388168452825284832084518154925161ffff1990931690151561ff00191617610100921515929092029190911790558682526004905291822080549192610a7083611e56565b919050555050505050565b6040805160c0810182526000808252602082018190529181018290526060808201819052608082015260a081019190915260018281548110610abf57610abf611cc9565b90600052602060002090600602016040518060c001604052908160008201548152602001600182015481526020016002820160009054906101000a900460ff166002811115610b1057610b106118b6565b6002811115610b2157610b216118b6565b815260200160038201805480602002602001604051908101604052809291908181526020018280548015610ba657602002820191906000526020600020906000905b82829054906101000a90046001600160801b03166001600160801b031681526020019060100190602082600f01049283019260010382029150808411610b635790505b50505050508152602001600482018054610bbf90611cdf565b80601f0160208091040260200160405190810160405280929190818152602001828054610beb90611cdf565b8015610c385780601f10610c0d57610100808354040283529160200191610c38565b820191906000526020600020905b815481529060010190602001808311610c1b57829003601f168201915b5050509183525050600591909101546001600160a01b031660209091015292915050565b81610c668161063b565b80610c755750610c758161106d565b610cb35760405162461bcd60e51b815260206004820152600f60248201526e27b7363c9020b236b4b7103ab9b2b960891b604482015260640161039c565b60008381526003602090815260408083206001600160a01b0386168452909152902054610100900460ff161515600103610d2f5760405162461bcd60e51b815260206004820152601560248201527f4d656d62657220616c7265616479206578697374730000000000000000000000604482015260640161039c565b604080518082018252600080825260016020808401918252878352600381528483206001600160a01b0388168452815284832084518154935161ffff1990941690151561ff0019161761010093151593909302929092179091558682526004905291822080549192610a7083611e3d565b60018181548110610db057600080fd5b60009182526020909120600690910201805460018201546002830154600484018054939550919360ff90911692909190610de990611cdf565b80601f0160208091040260200160405190810160405280929190818152602001828054610e1590611cdf565b8015610e625780601f10610e3757610100808354040283529160200191610e62565b820191906000526020600020905b815481529060010190602001808311610e4557829003601f168201915b505050600590930154919250506001600160a01b031685565b6040805160c0810182526000808252602082018190529181018290526060808201819052608082015260a08101919091526000828152600560205260409020546001805482908110610ecf57610ecf611cc9565b90600052602060002090600602016040518060c001604052908160008201548152602001600182015481526020016002820160009054906101000a900460ff166002811115610f2057610f206118b6565b6002811115610f3157610f316118b6565b815260200160038201805480602002602001604051908101604052809291908181526020018280548015610fb657602002820191906000526020600020906000905b82829054906101000a90046001600160801b03166001600160801b031681526020019060100190602082600f01049283019260010382029150808411610f735790505b50505050508152602001600482018054610fcf90611cdf565b80601f0160208091040260200160405190810160405280929190818152602001828054610ffb90611cdf565b80156110485780601f1061101d57610100808354040283529160200191611048565b820191906000526020600020905b81548152906001019060200180831161102b57829003601f168201915b5050509183525050600591909101546001600160a01b03166020909101529392505050565b6000806001838154811061108357611083611cc9565b90600052602060002090600602016040518060c001604052908160008201548152602001600182015481526020016002820160009054906101000a900460ff1660028111156110d4576110d46118b6565b60028111156110e5576110e56118b6565b81526020016003820180548060200260200160405190810160405280929190818152602001828054801561116a57602002820191906000526020600020906000905b82829054906101000a90046001600160801b03166001600160801b031681526020019060100190602082600f010492830192600103820291508084116111275790505b5050505050815260200160048201805461118390611cdf565b80601f01602080910402602001604051908101604052809291908181526020018280546111af90611cdf565b80156111fc5780601f106111d1576101008083540402835291602001916111fc565b820191906000526020600020905b8154815290600101906020018083116111df57829003601f168201915b5050509183525050600591909101546001600160a01b0390811660209092019190915260a0909101511633149392505050565b816112398161106d565b6112855760405162461bcd60e51b815260206004820152600c60248201527f4f6e6c7920666f756e6465720000000000000000000000000000000000000000604482015260640161039c565b60008381526003602090815260408083206001600160a01b0386168452909152902054610100900460ff1615156001036112eb5760008381526003602090815260408083206001600160a01b03861684529091529020805460ff19166001179055505050565b604080518082018252600180825260208083019182526000878152600382528481206001600160a01b0388168252825284812084518154945161ffff1990951690151561ff0019161761010094151594909402939093179092558682526004905291822080549192610a7083611e3d565b505050565b6000806001838154811061137757611377611cc9565b90600052602060002090600602016040518060c001604052908160008201548152602001600182015481526020016002820160009054906101000a900460ff1660028111156113c8576113c86118b6565b60028111156113d9576113d96118b6565b81526020016003820180548060200260200160405190810160405280929190818152602001828054801561145e57602002820191906000526020600020906000905b82829054906101000a90046001600160801b03166001600160801b031681526020019060100190602082600f0104928301926001038202915080841161141b5790505b5050505050815260200160048201805461147790611cdf565b80601f01602080910402602001604051908101604052809291908181526020018280546114a390611cdf565b80156114f05780601f106114c5576101008083540402835291602001916114f0565b820191906000526020600020905b8154815290600101906020018083116114d357829003601f168201915b5050509183525050600591909101546001600160a01b03166020909101529050600081604001516002811115611528576115286118b6565b1461159b5760405162461bcd60e51b815260206004820152602f60248201527f43616e6e6f74206a6f696e20726573747269637465642073706163652077697460448201527f686f7574207065726d697373696f6e0000000000000000000000000000000000606482015260840161039c565b60408051808201825260008082526001602080840191825287835260038152848320338452815284832084518154935161ffff1990941690151561ff001916176101009315159390930292909217909155868252600490529182208054919261160383611e3d565b9091555050600254600054604051633576860d60e11b815233600482015260248101919091526001600160a01b0390911690636aed0c1a90604401600060405180830381600087803b15801561165857600080fd5b505af115801561166c573d6000803e3d6000fd5b506001979650505050505050565b816116848161063b565b8061169357506116938161106d565b6116d15760405162461bcd60e51b815260206004820152600f60248201526e27b7363c9020b236b4b7103ab9b2b960891b604482015260640161039c565b6000600184815481106116e6576116e6611cc9565b9060005260206000209060060201905060005b600382015481101561179a578382600301828154811061171b5761171b611cc9565b6000918252602090912060028204015460019091166010026101000a90046001600160801b0316036117885781600301818154811061175c5761175c611cc9565b90600052602060002090600291828204019190066010026101000a8154906001600160801b0302191690555b8061179281611e3d565b9150506116f9565b5050505050565b828054828255906000526020600020906001016002900481019282156118495791602002820160005b8382111561181457835183826101000a8154816001600160801b0302191690836001600160801b031602179055509260200192601001602081600f010492830192600103026117ca565b80156118475782816101000a8154906001600160801b030219169055601001602081600f01049283019260010302611814565b505b50611855929150611859565b5090565b5b80821115611855576000815560010161185a565b80356001600160801b038116811461188557600080fd5b919050565b6000806040838503121561189d57600080fd5b823591506118ad6020840161186e565b90509250929050565b634e487b7160e01b600052602160045260246000fd5b600381106118ea57634e487b7160e01b600052602160045260246000fd5b9052565b6000815180845260005b81811015611914576020818501810151868301820152016118f8565b506000602082860101526020601f19601f83011685010191505092915050565b600060c083018251845260208084015181860152604084015161195a60408701826118cc565b50606084015160c0606087015282815180855260e0880191508383019450600092505b808310156119a65784516001600160801b0316825293830193600192909201919083019061197d565b506080860151935086810360808801526119c081856118ee565b935050505060a08301516119df60a08601826001600160a01b03169052565b509392505050565b6000602080830181845280855180835260408601915060408160051b870101925083870160005b82811015611a3c57603f19888603018452611a2a858351611934565b94509285019290850190600101611a0e565b5092979650505050505050565b600060208284031215611a5b57600080fd5b5035919050565b634e487b7160e01b600052604160045260246000fd5b604051601f8201601f1916810167ffffffffffffffff81118282101715611aa157611aa1611a62565b604052919050565b600082601f830112611aba57600080fd5b813567ffffffffffffffff811115611ad457611ad4611a62565b611ae7601f8201601f1916602001611a78565b818152846020838601011115611afc57600080fd5b816020850160208301376000918101602001919091529392505050565b60008060008060808587031215611b2f57600080fd5b8435935060208086013560038110611b4657600080fd5b9350604086013567ffffffffffffffff80821115611b6357600080fd5b818801915088601f830112611b7757600080fd5b813581811115611b8957611b89611a62565b8060051b611b98858201611a78565b918252838101850191858101908c841115611bb257600080fd5b948601945b83861015611bd757611bc88661186e565b82529486019490860190611bb7565b97505050506060880135925080831115611bf057600080fd5b5050611bfe87828801611aa9565b91505092959194509250565b60008060408385031215611c1d57600080fd5b8235915060208301356001600160a01b0381168114611c3b57600080fd5b809150509250929050565b602081526000611c596020830184611934565b9392505050565b858152846020820152611c7660408201856118cc565b60a060608201526000611c8c60a08301856118ee565b90506001600160a01b03831660808301529695505050505050565b60008060408385031215611cba57600080fd5b50508035926020909101359150565b634e487b7160e01b600052603260045260246000fd5b600181811c90821680611cf357607f821691505b602082108103611d1357634e487b7160e01b600052602260045260246000fd5b50919050565b601f82111561135c57600081815260208120601f850160051c81016020861015611d405750805b601f850160051c820191505b81811015611d5f57828155600101611d4c565b505050505050565b815167ffffffffffffffff811115611d8157611d81611a62565b611d9581611d8f8454611cdf565b84611d19565b602080601f831160018114611dca5760008415611db25750858301515b600019600386901b1c1916600185901b178555611d5f565b600085815260208120601f198616915b82811015611df957888601518255948401946001909101908401611dda565b5085821015611e175787850151600019600388901b60f8161c191681555b5050505050600190811b01905550565b634e487b7160e01b600052601160045260246000fd5b600060018201611e4f57611e4f611e27565b5060010190565b600081611e6557611e65611e27565b50600019019056fea164736f6c6343000811000a",
  "linkReferences": {},
  "deployedLinkReferences": {}
}