{
  "_format": "hh-sol-artifact-1",
  "contractName": "EmbraceApps",
  "sourceName": "contracts/EmbraceApps.sol",
  "abi": [
    {
      "inputs": [],
      "stateMutability": "nonpayable",
      "type": "constructor"
    },
    {
      "inputs": [
        {
          "internalType": "uint256",
          "name": "",
          "type": "uint256"
        }
      ],
      "name": "apps",
      "outputs": [
        {
          "internalType": "bytes32",
          "name": "code",
          "type": "bytes32"
        },
        {
          "internalType": "address",
          "name": "contractAddress",
          "type": "address"
        },
        {
          "internalType": "bool",
          "name": "enabled",
          "type": "bool"
        }
      ],
      "stateMutability": "view",
      "type": "function"
    },
    {
      "inputs": [
        {
          "internalType": "bytes32",
          "name": "_code",
          "type": "bytes32"
        },
        {
          "internalType": "address",
          "name": "_contractAddress",
          "type": "address"
        },
        {
          "internalType": "bool",
          "name": "_enabled",
          "type": "bool"
        }
      ],
      "name": "createApp",
      "outputs": [],
      "stateMutability": "nonpayable",
      "type": "function"
    },
    {
      "inputs": [
        {
          "internalType": "bytes32",
          "name": "_code",
          "type": "bytes32"
        }
      ],
      "name": "getAppByCode",
      "outputs": [
        {
          "components": [
            {
              "internalType": "bytes32",
              "name": "code",
              "type": "bytes32"
            },
            {
              "internalType": "address",
              "name": "contractAddress",
              "type": "address"
            },
            {
              "internalType": "bool",
              "name": "enabled",
              "type": "bool"
            }
          ],
          "internalType": "struct EmbraceApps.App",
          "name": "",
          "type": "tuple"
        }
      ],
      "stateMutability": "view",
      "type": "function"
    },
    {
      "inputs": [
        {
          "internalType": "uint256",
          "name": "_appIndex",
          "type": "uint256"
        }
      ],
      "name": "getAppByIndex",
      "outputs": [
        {
          "components": [
            {
              "internalType": "bytes32",
              "name": "code",
              "type": "bytes32"
            },
            {
              "internalType": "address",
              "name": "contractAddress",
              "type": "address"
            },
            {
              "internalType": "bool",
              "name": "enabled",
              "type": "bool"
            }
          ],
          "internalType": "struct EmbraceApps.App",
          "name": "",
          "type": "tuple"
        }
      ],
      "stateMutability": "view",
      "type": "function"
    },
    {
      "inputs": [],
      "name": "getApps",
      "outputs": [
        {
          "components": [
            {
              "internalType": "bytes32",
              "name": "code",
              "type": "bytes32"
            },
            {
              "internalType": "address",
              "name": "contractAddress",
              "type": "address"
            },
            {
              "internalType": "bool",
              "name": "enabled",
              "type": "bool"
            }
          ],
          "internalType": "struct EmbraceApps.App[]",
          "name": "",
          "type": "tuple[]"
        }
      ],
      "stateMutability": "view",
      "type": "function"
    },
    {
      "inputs": [],
      "name": "owner",
      "outputs": [
        {
          "internalType": "address",
          "name": "",
          "type": "address"
        }
      ],
      "stateMutability": "view",
      "type": "function"
    },
    {
      "inputs": [
        {
          "internalType": "bytes32",
          "name": "_code",
          "type": "bytes32"
        },
        {
          "internalType": "address",
          "name": "_contractAddress",
          "type": "address"
        }
      ],
      "name": "setAppContractAddress",
      "outputs": [],
      "stateMutability": "nonpayable",
      "type": "function"
    }
  ],
  "bytecode": "0x6080604052600160005534801561001557600080fd5b50600280546001600160a01b03191633179055610814806100376000396000f3fe608060405234801561001057600080fd5b506004361061007d5760003560e01c806361acc37e1161005b57806361acc37e146100ef5780638da5cb5b14610127578063ac18ba6314610152578063d66d756d1461016557600080fd5b806321119f501461008257806323797ed9146100975780633388c8b6146100dc575b600080fd5b6100956100903660046106d3565b61017a565b005b6100aa6100a5366004610718565b610359565b60408051825181526020808401516001600160a01b031690820152918101511515908201526060015b60405180910390f35b6100aa6100ea366004610718565b6103da565b6101026100fd366004610718565b6104ed565b604080519384526001600160a01b0390921660208401521515908201526060016100d3565b60025461013a906001600160a01b031681565b6040516001600160a01b0390911681526020016100d3565b610095610160366004610731565b610530565b61016d61062e565b6040516100d3919061075d565b6002546001600160a01b031633146101e45760405162461bcd60e51b815260206004820152602260248201527f4f6e6c79206f776e65722063616e2063616c6c20746869732066756e6374696f604482015261371760f11b60648201526084015b60405180910390fd5b8260005b600154811015610277578160018281548110610206576102066107ca565b906000526020600020906002020160000154036102655760405162461bcd60e51b815260206004820152601860248201527f41707020636f646520616c7265616479206578697374732e000000000000000060448201526064016101db565b8061026f816107e0565b9150506101e8565b50604080516060810182528581526001600160a01b0385811660208301908152851515938301938452600180548082018255600091825284517fb10e2d527612073b26eecdfd717e6a320cf44b4afac2b0732d9fcbe2b7fa0cf660029092029182015591517fb10e2d527612073b26eecdfd717e6a320cf44b4afac2b0732d9fcbe2b7fa0cf790920180549551929093167fffffffffffffffffffffff00000000000000000000000000000000000000000090951694909417600160a01b91151591909102179055815490918061034d836107e0565b91905055505050505050565b604080516060810182526000808252602082018190529181019190915260018281548110610389576103896107ca565b60009182526020918290206040805160608101825260029390930290910180548352600101546001600160a01b03811693830193909352600160a01b90920460ff1615159181019190915292915050565b60408051606081018252600080825260208201819052918101829052905b6001548110156104a4578260018281548110610416576104166107ca565b906000526020600020906002020160000154036104925760018181548110610440576104406107ca565b60009182526020918290206040805160608101825260029390930290910180548352600101546001600160a01b03811693830193909352600160a01b90920460ff161515918101919091529392505050565b8061049c816107e0565b9150506103f8565b5060405162461bcd60e51b815260206004820152600c60248201527f4e6f2061707020666f756e64000000000000000000000000000000000000000060448201526064016101db565b600181815481106104fd57600080fd5b6000918252602090912060029091020180546001909101549091506001600160a01b03811690600160a01b900460ff1683565b6002546001600160a01b031633146105955760405162461bcd60e51b815260206004820152602260248201527f4f6e6c79206f776e65722063616e2063616c6c20746869732066756e6374696f604482015261371760f11b60648201526084016101db565b60005b6001548110156106295782600182815481106105b6576105b66107ca565b906000526020600020906002020160000154036106175781600182815481106105e1576105e16107ca565b906000526020600020906002020160010160006101000a8154816001600160a01b0302191690836001600160a01b031602179055505b80610621816107e0565b915050610598565b505050565b60606001805480602002602001604051908101604052809291908181526020016000905b828210156106ae5760008481526020908190206040805160608101825260028602909201805483526001908101546001600160a01b03811684860152600160a01b900460ff161515918301919091529083529092019101610652565b50505050905090565b80356001600160a01b03811681146106ce57600080fd5b919050565b6000806000606084860312156106e857600080fd5b833592506106f8602085016106b7565b91506040840135801515811461070d57600080fd5b809150509250925092565b60006020828403121561072a57600080fd5b5035919050565b6000806040838503121561074457600080fd5b82359150610754602084016106b7565b90509250929050565b6020808252825182820181905260009190848201906040850190845b818110156107be576107ab838551805182526020808201516001600160a01b0316908301526040908101511515910152565b9284019260609290920191600101610779565b50909695505050505050565b634e487b7160e01b600052603260045260246000fd5b60006001820161080057634e487b7160e01b600052601160045260246000fd5b506001019056fea164736f6c6343000811000a",
  "linkReferences": {},
  "deployedLinkReferences": {}
}