{
  "_format": "hh-sol-artifact-1",
  "contractName": "EmbraceApps",
  "sourceName": "contracts/EmbraceApps.sol",
  "abi": [
    {
      "inputs": [],
      "stateMutability": "nonpayable",
      "type": "constructor"
    },
    {
      "inputs": [
        {
          "internalType": "uint256",
          "name": "",
          "type": "uint256"
        }
      ],
      "name": "apps",
      "outputs": [
        {
          "internalType": "uint256",
          "name": "id",
          "type": "uint256"
        },
        {
          "internalType": "string",
          "name": "name",
          "type": "string"
        },
        {
          "internalType": "address",
          "name": "contractAddress",
          "type": "address"
        },
        {
          "internalType": "bool",
          "name": "enabled",
          "type": "bool"
        }
      ],
      "stateMutability": "view",
      "type": "function"
    },
    {
      "inputs": [
        {
          "internalType": "string",
          "name": "_name",
          "type": "string"
        },
        {
          "internalType": "address",
          "name": "_contractAddress",
          "type": "address"
        },
        {
          "internalType": "bool",
          "name": "_enabled",
          "type": "bool"
        }
      ],
      "name": "createApp",
      "outputs": [],
      "stateMutability": "nonpayable",
      "type": "function"
    },
    {
      "inputs": [
        {
          "internalType": "uint128",
          "name": "_appId",
          "type": "uint128"
        }
      ],
      "name": "getAppById",
      "outputs": [
        {
          "components": [
            {
              "internalType": "uint256",
              "name": "id",
              "type": "uint256"
            },
            {
              "internalType": "string",
              "name": "name",
              "type": "string"
            },
            {
              "internalType": "address",
              "name": "contractAddress",
              "type": "address"
            },
            {
              "internalType": "bool",
              "name": "enabled",
              "type": "bool"
            }
          ],
          "internalType": "struct EmbraceApps.App",
          "name": "",
          "type": "tuple"
        }
      ],
      "stateMutability": "view",
      "type": "function"
    },
    {
      "inputs": [
        {
          "internalType": "string",
          "name": "_name",
          "type": "string"
        }
      ],
      "name": "getAppByName",
      "outputs": [
        {
          "components": [
            {
              "internalType": "uint256",
              "name": "id",
              "type": "uint256"
            },
            {
              "internalType": "string",
              "name": "name",
              "type": "string"
            },
            {
              "internalType": "address",
              "name": "contractAddress",
              "type": "address"
            },
            {
              "internalType": "bool",
              "name": "enabled",
              "type": "bool"
            }
          ],
          "internalType": "struct EmbraceApps.App",
          "name": "",
          "type": "tuple"
        }
      ],
      "stateMutability": "view",
      "type": "function"
    },
    {
      "inputs": [],
      "name": "getApps",
      "outputs": [
        {
          "components": [
            {
              "internalType": "uint256",
              "name": "id",
              "type": "uint256"
            },
            {
              "internalType": "string",
              "name": "name",
              "type": "string"
            },
            {
              "internalType": "address",
              "name": "contractAddress",
              "type": "address"
            },
            {
              "internalType": "bool",
              "name": "enabled",
              "type": "bool"
            }
          ],
          "internalType": "struct EmbraceApps.App[]",
          "name": "",
          "type": "tuple[]"
        }
      ],
      "stateMutability": "view",
      "type": "function"
    },
    {
      "inputs": [
        {
          "internalType": "bytes32",
          "name": "",
          "type": "bytes32"
        }
      ],
      "name": "nameToIndex",
      "outputs": [
        {
          "internalType": "uint256",
          "name": "",
          "type": "uint256"
        }
      ],
      "stateMutability": "view",
      "type": "function"
    },
    {
      "inputs": [],
      "name": "owner",
      "outputs": [
        {
          "internalType": "address",
          "name": "",
          "type": "address"
        }
      ],
      "stateMutability": "view",
      "type": "function"
    },
    {
      "inputs": [
        {
          "internalType": "string",
          "name": "_name",
          "type": "string"
        },
        {
          "internalType": "address",
          "name": "_contractAddress",
          "type": "address"
        }
      ],
      "name": "setAppContractAddress",
      "outputs": [],
      "stateMutability": "nonpayable",
      "type": "function"
    }
  ],
  "bytecode": "0x608060405234801561001057600080fd5b5060038054336001600160a01b031990911617905561003a600061004a602090811b6108f617901c565b6001805481018155600052610053565b80546001019055565b610e49806100626000396000f3fe608060405234801561001057600080fd5b50600436106100885760003560e01c80638da5cb5b1161005b5780638da5cb5b14610101578063d66d756d1461012c578063f3d1ce1b14610141578063fc0b8fb21461015457600080fd5b8063573c22321461008d57806361acc37e146100a25780636265f830146100ce5780637fee31a6146100e1575b600080fd5b6100a061009b3660046109be565b610182565b005b6100b56100b0366004610a25565b610378565b6040516100c59493929190610a84565b60405180910390f35b6100a06100dc366004610abe565b61044c565b6100f46100ef366004610b0c565b610565565b6040516100c59190610b93565b600354610114906001600160a01b031681565b6040516001600160a01b0390911681526020016100c5565b6101346106ec565b6040516100c59190610bad565b6100f461014f366004610c0f565b610817565b610174610162366004610a25565b60026020526000908152604090205481565b6040519081526020016100c5565b6003546001600160a01b031633146101ec5760405162461bcd60e51b815260206004820152602260248201527f4f6e6c79206f776e65722063616e2063616c6c20746869732066756e6374696f604482015261371760f11b60648201526084015b60405180910390fd5b826002600082805190602001208152602001908152602001600020546000146102575760405162461bcd60e51b815260206004820152601860248201527f417070206e616d6520616c7265616479206578697374732e000000000000000060448201526064016101e3565b6000805460408051608081018252828152602081018881526001600160a01b0388169282019290925285151560608201526001805480820182559452805160039094027fb10e2d527612073b26eecdfd717e6a320cf44b4afac2b0732d9fcbe2b7fa0cf6810194855591519293909283927fb10e2d527612073b26eecdfd717e6a320cf44b4afac2b0732d9fcbe2b7fa0cf701906102f59082610cc9565b506040820151600290910180546060909301511515600160a01b027fffffffffffffffffffffff0000000000000000000000000000000000000000009093166001600160a01b0390921691909117919091179055610357600080546001019055565b50845160209586012060009081526002909552604090942093909355505050565b6001818154811061038857600080fd5b600091825260209091206003909102018054600182018054919350906103ad90610c41565b80601f01602080910402602001604051908101604052809291908181526020018280546103d990610c41565b80156104265780601f106103fb57610100808354040283529160200191610426565b820191906000526020600020905b81548152906001019060200180831161040957829003601f168201915b505050600290930154919250506001600160a01b0381169060ff600160a01b9091041684565b6003546001600160a01b031633146104b15760405162461bcd60e51b815260206004820152602260248201527f4f6e6c79206f776e65722063616e2063616c6c20746869732066756e6374696f604482015261371760f11b60648201526084016101e3565b60005b600154811015610560578280519060200120600182815481106104d9576104d9610d89565b90600052602060002090600302016001016040516104f79190610d9f565b60405180910390200361054e57816001828154811061051857610518610d89565b906000526020600020906003020160020160006101000a8154816001600160a01b0302191690836001600160a01b031602179055505b8061055881610e15565b9150506104b4565b505050565b61059b6040518060800160405280600081526020016060815260200160006001600160a01b031681526020016000151581525090565b8151602080840191909120600090815260029091526040812054908190036105f65760405162461bcd60e51b815260206004820152600e60248201526d20b838103737ba103337bab7321760911b60448201526064016101e3565b6001818154811061060957610609610d89565b90600052602060002090600302016040518060800160405290816000820154815260200160018201805461063c90610c41565b80601f016020809104026020016040519081016040528092919081815260200182805461066890610c41565b80156106b55780601f1061068a576101008083540402835291602001916106b5565b820191906000526020600020905b81548152906001019060200180831161069857829003601f168201915b5050509183525050600291909101546001600160a01b0381166020830152600160a01b900460ff1615156040909101529392505050565b60606001805480602002602001604051908101604052809291908181526020016000905b8282101561080e57838290600052602060002090600302016040518060800160405290816000820154815260200160018201805461074d90610c41565b80601f016020809104026020016040519081016040528092919081815260200182805461077990610c41565b80156107c65780601f1061079b576101008083540402835291602001916107c6565b820191906000526020600020905b8154815290600101906020018083116107a957829003601f168201915b5050509183525050600291909101546001600160a01b038116602080840191909152600160a01b90910460ff1615156040909201919091529082526001929092019101610710565b50505050905090565b61084d6040518060800160405280600081526020016060815260200160006001600160a01b031681526020016000151581525090565b60005b6001548110156108bc57826fffffffffffffffffffffffffffffffff166001828154811061088057610880610d89565b906000526020600020906003020160000154036108aa576001818154811061060957610609610d89565b806108b481610e15565b915050610850565b5060405162461bcd60e51b815260206004820152600e60248201526d20b838103737ba103337bab7321760911b60448201526064016101e3565b80546001019055565b634e487b7160e01b600052604160045260246000fd5b600082601f83011261092657600080fd5b813567ffffffffffffffff80821115610941576109416108ff565b604051601f8301601f19908116603f01168101908282118183101715610969576109696108ff565b8160405283815286602085880101111561098257600080fd5b836020870160208301376000602085830101528094505050505092915050565b80356001600160a01b03811681146109b957600080fd5b919050565b6000806000606084860312156109d357600080fd5b833567ffffffffffffffff8111156109ea57600080fd5b6109f686828701610915565b935050610a05602085016109a2565b915060408401358015158114610a1a57600080fd5b809150509250925092565b600060208284031215610a3757600080fd5b5035919050565b6000815180845260005b81811015610a6457602081850181015186830182015201610a48565b506000602082860101526020601f19601f83011685010191505092915050565b848152608060208201526000610a9d6080830186610a3e565b6001600160a01b039490941660408301525090151560609091015292915050565b60008060408385031215610ad157600080fd5b823567ffffffffffffffff811115610ae857600080fd5b610af485828601610915565b925050610b03602084016109a2565b90509250929050565b600060208284031215610b1e57600080fd5b813567ffffffffffffffff811115610b3557600080fd5b610b4184828501610915565b949350505050565b805182526000602082015160806020850152610b686080850182610a3e565b90506001600160a01b0360408401511660408501526060830151151560608501528091505092915050565b602081526000610ba66020830184610b49565b9392505050565b6000602080830181845280855180835260408601915060408160051b870101925083870160005b82811015610c0257603f19888603018452610bf0858351610b49565b94509285019290850190600101610bd4565b5092979650505050505050565b600060208284031215610c2157600080fd5b81356fffffffffffffffffffffffffffffffff81168114610ba657600080fd5b600181811c90821680610c5557607f821691505b602082108103610c7557634e487b7160e01b600052602260045260246000fd5b50919050565b601f82111561056057600081815260208120601f850160051c81016020861015610ca25750805b601f850160051c820191505b81811015610cc157828155600101610cae565b505050505050565b815167ffffffffffffffff811115610ce357610ce36108ff565b610cf781610cf18454610c41565b84610c7b565b602080601f831160018114610d2c5760008415610d145750858301515b600019600386901b1c1916600185901b178555610cc1565b600085815260208120601f198616915b82811015610d5b57888601518255948401946001909101908401610d3c565b5085821015610d795787850151600019600388901b60f8161c191681555b5050505050600190811b01905550565b634e487b7160e01b600052603260045260246000fd5b6000808354610dad81610c41565b60018281168015610dc55760018114610dda57610e09565b60ff1984168752821515830287019450610e09565b8760005260208060002060005b85811015610e005781548a820152908401908201610de7565b50505082870194505b50929695505050505050565b600060018201610e3557634e487b7160e01b600052601160045260246000fd5b506001019056fea164736f6c6343000811000a",
  "linkReferences": {},
  "deployedLinkReferences": {}
}