{
  "_format": "hh-sol-artifact-1",
  "contractName": "EmbraceAccounts",
  "sourceName": "contracts/EmbraceAccounts.sol",
  "abi": [
    {
      "inputs": [
        {
          "internalType": "address",
          "name": "_address",
          "type": "address"
        },
        {
          "internalType": "uint256",
          "name": "_spaceId",
          "type": "uint256"
        }
      ],
      "name": "addSpace",
      "outputs": [],
      "stateMutability": "nonpayable",
      "type": "function"
    },
    {
      "inputs": [
        {
          "internalType": "address",
          "name": "_address",
          "type": "address"
        }
      ],
      "name": "getSpaces",
      "outputs": [
        {
          "internalType": "uint256[]",
          "name": "",
          "type": "uint256[]"
        }
      ],
      "stateMutability": "view",
      "type": "function"
    }
  ],
  "bytecode": "0x6080806040523461001657610240908161001c8239f35b600080fdfe604060808152600436101561001357600080fd5b6000803560e01c80636aed0c1a1461010c5763d9a056a61461003457600080fd5b346101095760209081600319360112610109576001600160a01b03610057610138565b16815280825282812091835191828285549182815201908195835283832090835b858282106100f55750505050839003601f01601f19168301946001600160401b038611848710176100e15785815282865292518583018190528594938501939290915b8281106100ca57505050500390f35b8351855286955093810193928101926001016100bb565b634e487b7160e01b82526041600452602482fd5b835485529093019260019283019201610078565b80fd5b5090346101345736600319011261010957610131610128610138565b60243590610181565b80f35b5080fd5b600435906001600160a01b038216820361014e57565b600080fd5b805482101561016b5760005260206000200190600090565b634e487b7160e01b600052603260045260246000fd5b6001600160a01b03166000908152602081905260408120805491805b8381106101f05750600160401b8310156101dc5750906101c291600182018155610153565b819291549060031b600019811b9283911b16911916179055565b634e487b7160e01b81526041600452602490fd5b846101fb8285610153565b90549060031b1c1461022c5760001981146102185760010161019d565b634e487b7160e01b82526011600452602482fd5b505050505056fea164736f6c6343000811000a",
  "linkReferences": {},
  "deployedLinkReferences": {}
}