{
  "_format": "hh-sol-artifact-1",
  "contractName": "EmbraceSpaces",
  "sourceName": "contracts/EmbraceSpaces.sol",
  "abi": [
    {
      "inputs": [
        {
          "internalType": "address",
          "name": "_accountsAddress",
          "type": "address"
        }
      ],
      "stateMutability": "nonpayable",
      "type": "constructor"
    },
    {
      "inputs": [
        {
          "internalType": "uint256",
          "name": "spaceId",
          "type": "uint256"
        },
        {
          "internalType": "address",
          "name": "memberAddress",
          "type": "address"
        }
      ],
      "name": "ErrorCannotJoinAnonSpace",
      "type": "error"
    },
    {
      "inputs": [
        {
          "internalType": "uint256",
          "name": "spaceId",
          "type": "uint256"
        },
        {
          "internalType": "address",
          "name": "memberAddress",
          "type": "address"
        }
      ],
      "name": "ErrorCannotJoinPrivClosedSpace",
      "type": "error"
    },
    {
      "inputs": [
        {
          "internalType": "uint256",
          "name": "spaceId",
          "type": "uint256"
        },
        {
          "internalType": "address",
          "name": "memberAddress",
          "type": "address"
        }
      ],
      "name": "ErrorDoNotMeetSpaceReq",
      "type": "error"
    },
    {
      "inputs": [
        {
          "internalType": "string",
          "name": "handle",
          "type": "string"
        }
      ],
      "name": "ErrorHandleExists",
      "type": "error"
    },
    {
      "inputs": [
        {
          "internalType": "uint256",
          "name": "spaceId",
          "type": "uint256"
        },
        {
          "internalType": "address",
          "name": "memberAddress",
          "type": "address"
        }
      ],
      "name": "ErrorMemberAlreadyExists",
      "type": "error"
    },
    {
      "inputs": [
        {
          "internalType": "uint256",
          "name": "spaceId",
          "type": "uint256"
        },
        {
          "internalType": "address",
          "name": "memberAddress",
          "type": "address"
        }
      ],
      "name": "ErrorOnlyAdmin",
      "type": "error"
    },
    {
      "inputs": [
        {
          "internalType": "uint256",
          "name": "spaceId",
          "type": "uint256"
        },
        {
          "internalType": "address",
          "name": "memberAddress",
          "type": "address"
        }
      ],
      "name": "ErrorOnlyFounder",
      "type": "error"
    },
    {
      "anonymous": false,
      "inputs": [
        {
          "indexed": true,
          "internalType": "uint256",
          "name": "spaceId",
          "type": "uint256"
        },
        {
          "indexed": true,
          "internalType": "address",
          "name": "memberAddress",
          "type": "address"
        },
        {
          "indexed": false,
          "internalType": "bool",
          "name": "isAdmin",
          "type": "bool"
        }
      ],
      "name": "JoinedSpace",
      "type": "event"
    },
    {
      "anonymous": false,
      "inputs": [
        {
          "indexed": true,
          "internalType": "uint256",
          "name": "spaceId",
          "type": "uint256"
        },
        {
          "indexed": true,
          "internalType": "address",
          "name": "memberAddress",
          "type": "address"
        }
      ],
      "name": "RemovedFromSpace",
      "type": "event"
    },
    {
      "anonymous": false,
      "inputs": [
        {
          "indexed": true,
          "internalType": "uint256",
          "name": "spaceId",
          "type": "uint256"
        },
        {
          "indexed": true,
          "internalType": "address",
          "name": "memberAddress",
          "type": "address"
        }
      ],
      "name": "RequestJoinSpace",
      "type": "event"
    },
    {
      "anonymous": false,
      "inputs": [
        {
          "indexed": true,
          "internalType": "uint256",
          "name": "spaceId",
          "type": "uint256"
        },
        {
          "indexed": true,
          "internalType": "address",
          "name": "founder",
          "type": "address"
        }
      ],
      "name": "SpaceCreated",
      "type": "event"
    },
    {
      "inputs": [
        {
          "internalType": "string",
          "name": "_handle",
          "type": "string"
        },
        {
          "internalType": "enum EmbraceSpaces.Visibility",
          "name": "_visibility",
          "type": "uint8"
        },
        {
          "components": [
            {
              "internalType": "enum EmbraceSpaces.Access",
              "name": "access",
              "type": "uint8"
            },
            {
              "components": [
                {
                  "internalType": "enum EmbraceSpaces.MembershipGateToken",
                  "name": "token",
                  "type": "uint8"
                },
                {
                  "internalType": "address",
                  "name": "tokenAddress",
                  "type": "address"
                }
              ],
              "internalType": "struct EmbraceSpaces.MembershipGate",
              "name": "gate",
              "type": "tuple"
            },
            {
              "internalType": "bool",
              "name": "allowRequests",
              "type": "bool"
            }
          ],
          "internalType": "struct EmbraceSpaces.Membership",
          "name": "_membership",
          "type": "tuple"
        },
        {
          "internalType": "uint128[]",
          "name": "_apps",
          "type": "uint128[]"
        },
        {
          "internalType": "string",
          "name": "_metadata",
          "type": "string"
        }
      ],
      "name": "createSpace",
      "outputs": [],
      "stateMutability": "nonpayable",
      "type": "function"
    },
    {
      "inputs": [
        {
          "internalType": "string",
          "name": "_handle",
          "type": "string"
        }
      ],
      "name": "getIdFromHandle",
      "outputs": [
        {
          "internalType": "uint256",
          "name": "",
          "type": "uint256"
        }
      ],
      "stateMutability": "view",
      "type": "function"
    },
    {
      "inputs": [
        {
          "internalType": "uint256",
          "name": "_spaceId",
          "type": "uint256"
        }
      ],
      "name": "getMemberCount",
      "outputs": [
        {
          "internalType": "uint256",
          "name": "",
          "type": "uint256"
        }
      ],
      "stateMutability": "view",
      "type": "function"
    },
    {
      "inputs": [
        {
          "internalType": "uint256",
          "name": "_spaceId",
          "type": "uint256"
        }
      ],
      "name": "getSpace",
      "outputs": [
        {
          "components": [
            {
              "internalType": "uint256",
              "name": "id",
              "type": "uint256"
            },
            {
              "internalType": "string",
              "name": "handle",
              "type": "string"
            },
            {
              "internalType": "address",
              "name": "founder",
              "type": "address"
            },
            {
              "internalType": "enum EmbraceSpaces.Visibility",
              "name": "visibility",
              "type": "uint8"
            },
            {
              "components": [
                {
                  "internalType": "enum EmbraceSpaces.Access",
                  "name": "access",
                  "type": "uint8"
                },
                {
                  "components": [
                    {
                      "internalType": "enum EmbraceSpaces.MembershipGateToken",
                      "name": "token",
                      "type": "uint8"
                    },
                    {
                      "internalType": "address",
                      "name": "tokenAddress",
                      "type": "address"
                    }
                  ],
                  "internalType": "struct EmbraceSpaces.MembershipGate",
                  "name": "gate",
                  "type": "tuple"
                },
                {
                  "internalType": "bool",
                  "name": "allowRequests",
                  "type": "bool"
                }
              ],
              "internalType": "struct EmbraceSpaces.Membership",
              "name": "membership",
              "type": "tuple"
            },
            {
              "internalType": "uint128[]",
              "name": "apps",
              "type": "uint128[]"
            },
            {
              "internalType": "string",
              "name": "metadata",
              "type": "string"
            }
          ],
          "internalType": "struct EmbraceSpaces.Space",
          "name": "",
          "type": "tuple"
        }
      ],
      "stateMutability": "view",
      "type": "function"
    },
    {
      "inputs": [
        {
          "internalType": "string",
          "name": "_handle",
          "type": "string"
        }
      ],
      "name": "getSpaceFromHandle",
      "outputs": [
        {
          "components": [
            {
              "internalType": "uint256",
              "name": "id",
              "type": "uint256"
            },
            {
              "internalType": "string",
              "name": "handle",
              "type": "string"
            },
            {
              "internalType": "address",
              "name": "founder",
              "type": "address"
            },
            {
              "internalType": "enum EmbraceSpaces.Visibility",
              "name": "visibility",
              "type": "uint8"
            },
            {
              "components": [
                {
                  "internalType": "enum EmbraceSpaces.Access",
                  "name": "access",
                  "type": "uint8"
                },
                {
                  "components": [
                    {
                      "internalType": "enum EmbraceSpaces.MembershipGateToken",
                      "name": "token",
                      "type": "uint8"
                    },
                    {
                      "internalType": "address",
                      "name": "tokenAddress",
                      "type": "address"
                    }
                  ],
                  "internalType": "struct EmbraceSpaces.MembershipGate",
                  "name": "gate",
                  "type": "tuple"
                },
                {
                  "internalType": "bool",
                  "name": "allowRequests",
                  "type": "bool"
                }
              ],
              "internalType": "struct EmbraceSpaces.Membership",
              "name": "membership",
              "type": "tuple"
            },
            {
              "internalType": "uint128[]",
              "name": "apps",
              "type": "uint128[]"
            },
            {
              "internalType": "string",
              "name": "metadata",
              "type": "string"
            }
          ],
          "internalType": "struct EmbraceSpaces.Space",
          "name": "",
          "type": "tuple"
        }
      ],
      "stateMutability": "view",
      "type": "function"
    },
    {
      "inputs": [
        {
          "internalType": "uint256",
          "name": "_spaceId",
          "type": "uint256"
        },
        {
          "internalType": "address",
          "name": "_address",
          "type": "address"
        }
      ],
      "name": "getSpaceMember",
      "outputs": [
        {
          "components": [
            {
              "internalType": "bool",
              "name": "isAdmin",
              "type": "bool"
            },
            {
              "internalType": "bool",
              "name": "isActive",
              "type": "bool"
            },
            {
              "internalType": "bool",
              "name": "isRequest",
              "type": "bool"
            }
          ],
          "internalType": "struct EmbraceSpaces.Member",
          "name": "",
          "type": "tuple"
        }
      ],
      "stateMutability": "view",
      "type": "function"
    },
    {
      "inputs": [],
      "name": "getSpaces",
      "outputs": [
        {
          "components": [
            {
              "internalType": "uint256",
              "name": "id",
              "type": "uint256"
            },
            {
              "internalType": "string",
              "name": "handle",
              "type": "string"
            },
            {
              "internalType": "address",
              "name": "founder",
              "type": "address"
            },
            {
              "internalType": "enum EmbraceSpaces.Visibility",
              "name": "visibility",
              "type": "uint8"
            },
            {
              "components": [
                {
                  "internalType": "enum EmbraceSpaces.Access",
                  "name": "access",
                  "type": "uint8"
                },
                {
                  "components": [
                    {
                      "internalType": "enum EmbraceSpaces.MembershipGateToken",
                      "name": "token",
                      "type": "uint8"
                    },
                    {
                      "internalType": "address",
                      "name": "tokenAddress",
                      "type": "address"
                    }
                  ],
                  "internalType": "struct EmbraceSpaces.MembershipGate",
                  "name": "gate",
                  "type": "tuple"
                },
                {
                  "internalType": "bool",
                  "name": "allowRequests",
                  "type": "bool"
                }
              ],
              "internalType": "struct EmbraceSpaces.Membership",
              "name": "membership",
              "type": "tuple"
            },
            {
              "internalType": "uint128[]",
              "name": "apps",
              "type": "uint128[]"
            },
            {
              "internalType": "string",
              "name": "metadata",
              "type": "string"
            }
          ],
          "internalType": "struct EmbraceSpaces.Space[]",
          "name": "",
          "type": "tuple[]"
        }
      ],
      "stateMutability": "view",
      "type": "function"
    },
    {
      "inputs": [
        {
          "internalType": "uint256",
          "name": "_spaceId",
          "type": "uint256"
        }
      ],
      "name": "isAdmin",
      "outputs": [
        {
          "internalType": "bool",
          "name": "",
          "type": "bool"
        }
      ],
      "stateMutability": "view",
      "type": "function"
    },
    {
      "inputs": [
        {
          "internalType": "uint256",
          "name": "_spaceId",
          "type": "uint256"
        }
      ],
      "name": "isFounder",
      "outputs": [
        {
          "internalType": "bool",
          "name": "",
          "type": "bool"
        }
      ],
      "stateMutability": "view",
      "type": "function"
    },
    {
      "inputs": [
        {
          "internalType": "uint256",
          "name": "_spaceId",
          "type": "uint256"
        }
      ],
      "name": "joinSpace",
      "outputs": [
        {
          "internalType": "bool",
          "name": "",
          "type": "bool"
        }
      ],
      "stateMutability": "nonpayable",
      "type": "function"
    },
    {
      "inputs": [
        {
          "internalType": "uint256",
          "name": "_spaceId",
          "type": "uint256"
        }
      ],
      "name": "meetsGateRequirements",
      "outputs": [
        {
          "internalType": "bool",
          "name": "",
          "type": "bool"
        }
      ],
      "stateMutability": "view",
      "type": "function"
    },
    {
      "inputs": [
        {
          "internalType": "uint256",
          "name": "_spaceId",
          "type": "uint256"
        }
      ],
      "name": "requestJoin",
      "outputs": [
        {
          "internalType": "bool",
          "name": "",
          "type": "bool"
        }
      ],
      "stateMutability": "nonpayable",
      "type": "function"
    },
    {
      "inputs": [
        {
          "internalType": "uint256",
          "name": "_spaceId",
          "type": "uint256"
        },
        {
          "internalType": "address",
          "name": "_address",
          "type": "address"
        }
      ],
      "name": "setFounder",
      "outputs": [],
      "stateMutability": "nonpayable",
      "type": "function"
    },
    {
      "inputs": [
        {
          "internalType": "uint256",
          "name": "_spaceId",
          "type": "uint256"
        },
        {
          "internalType": "address",
          "name": "_address",
          "type": "address"
        },
        {
          "internalType": "bool",
          "name": "_isActive",
          "type": "bool"
        },
        {
          "internalType": "bool",
          "name": "_isAdmin",
          "type": "bool"
        }
      ],
      "name": "setMember",
      "outputs": [],
      "stateMutability": "nonpayable",
      "type": "function"
    },
    {
      "inputs": [
        {
          "internalType": "string",
          "name": "",
          "type": "string"
        }
      ],
      "name": "spaceHandles",
      "outputs": [
        {
          "internalType": "uint256",
          "name": "",
          "type": "uint256"
        }
      ],
      "stateMutability": "view",
      "type": "function"
    },
    {
      "inputs": [
        {
          "internalType": "uint256",
          "name": "",
          "type": "uint256"
        }
      ],
      "name": "spaceMemberLength",
      "outputs": [
        {
          "internalType": "uint256",
          "name": "",
          "type": "uint256"
        }
      ],
      "stateMutability": "view",
      "type": "function"
    },
    {
      "inputs": [
        {
          "internalType": "uint256",
          "name": "",
          "type": "uint256"
        },
        {
          "internalType": "address",
          "name": "",
          "type": "address"
        }
      ],
      "name": "spaceMembers",
      "outputs": [
        {
          "internalType": "bool",
          "name": "isAdmin",
          "type": "bool"
        },
        {
          "internalType": "bool",
          "name": "isActive",
          "type": "bool"
        },
        {
          "internalType": "bool",
          "name": "isRequest",
          "type": "bool"
        }
      ],
      "stateMutability": "view",
      "type": "function"
    },
    {
      "inputs": [
        {
          "internalType": "uint256",
          "name": "",
          "type": "uint256"
        }
      ],
      "name": "spaces",
      "outputs": [
        {
          "internalType": "uint256",
          "name": "id",
          "type": "uint256"
        },
        {
          "internalType": "string",
          "name": "handle",
          "type": "string"
        },
        {
          "internalType": "address",
          "name": "founder",
          "type": "address"
        },
        {
          "internalType": "enum EmbraceSpaces.Visibility",
          "name": "visibility",
          "type": "uint8"
        },
        {
          "components": [
            {
              "internalType": "enum EmbraceSpaces.Access",
              "name": "access",
              "type": "uint8"
            },
            {
              "components": [
                {
                  "internalType": "enum EmbraceSpaces.MembershipGateToken",
                  "name": "token",
                  "type": "uint8"
                },
                {
                  "internalType": "address",
                  "name": "tokenAddress",
                  "type": "address"
                }
              ],
              "internalType": "struct EmbraceSpaces.MembershipGate",
              "name": "gate",
              "type": "tuple"
            },
            {
              "internalType": "bool",
              "name": "allowRequests",
              "type": "bool"
            }
          ],
          "internalType": "struct EmbraceSpaces.Membership",
          "name": "membership",
          "type": "tuple"
        },
        {
          "internalType": "string",
          "name": "metadata",
          "type": "string"
        }
      ],
      "stateMutability": "view",
      "type": "function"
    }
  ],
  "bytecode": "0x60806040523480156200001157600080fd5b506040516200311c3803806200311c83398101604081905262000034916200005a565b600280546001600160a01b0319166001600160a01b03929092169190911790556200008c565b6000602082840312156200006d57600080fd5b81516001600160a01b03811681146200008557600080fd5b9392505050565b613080806200009c6000396000f3fe608060405234801561001057600080fd5b50600436106101365760003560e01c80637586353b116100b2578063af41f22a11610081578063cb4ac1f511610066578063cb4ac1f5146103b7578063d1f97b79146103ca578063dd739fb5146103dd57600080fd5b8063af41f22a14610344578063ca5fb980146103a457600080fd5b80637586353b146102e45780638be9e3c814610309578063993849761461031c578063a303cf8e1461033157600080fd5b806333d7ae401161010957806351c75f24116100ee57806351c75f24146102915780635ce9284f146102a457806370e10431146102c457600080fd5b806333d7ae40146102385780633ff3cfc71461026657600080fd5b806315478ca91461013b5780631557f48c146101595780631f6dc437146102025780632ea6524f14610225575b600080fd5b6101436103f0565b60405161015091906129e6565b60405180910390f35b6101da610167366004612a64565b604080516060808201835260008083526020808401829052928401819052948552600382528285206001600160a01b0394909416855292815292819020815192830182525460ff808216151584526101008204811615159484019490945262010000900490921615159181019190915290565b6040805182511515815260208084015115159082015291810151151590820152606001610150565b610215610210366004612a90565b6106f5565b6040519015158152602001610150565b610215610233366004612a90565b61072b565b610258610246366004612a90565b60046020526000908152604090205481565b604051908152602001610150565b610258610274366004612bac565b805160208183018101805160058252928201919093012091525481565b61025861029f366004612bac565b610b7a565b6102586102b2366004612a90565b60009081526004602052604090205490565b6102d76102d2366004612a90565b610ba2565b6040516101509190612be9565b6102f76102f2366004612a90565b610e83565b60405161015096959493929190612c03565b610215610317366004612a90565b61108f565b61032f61032a366004612a64565b6115d9565b005b61021561033f366004612a90565b611663565b610385610352366004612a64565b600360209081526000928352604080842090915290825290205460ff808216916101008104821691620100009091041683565b6040805193151584529115156020840152151590820152606001610150565b6102d76103b2366004612bac565b61194f565b61032f6103c5366004612d12565b611c3e565b6102156103d8366004612a90565b61203e565b61032f6103eb366004612e3d565b61246e565b60606001805480602002602001604051908101604052809291908181526020016000905b828210156106ec57838290600052602060002090600802016040518060e00160405290816000820154815260200160018201805461045190612e8a565b80601f016020809104026020016040519081016040528092919081815260200182805461047d90612e8a565b80156104ca5780601f1061049f576101008083540402835291602001916104ca565b820191906000526020600020905b8154815290600101906020018083116104ad57829003601f168201915b50505091835250506002828101546001600160a01b0381166020840152604090920191600160a01b900460ff1690811115610507576105076128a5565b6002811115610518576105186128a5565b81526040805160608101909152600383018054602090930192829060ff166002811115610547576105476128a5565b6002811115610558576105586128a5565b815260408051808201909152600183018054602090930192829060ff166003811115610586576105866128a5565b6003811115610597576105976128a5565b8152905461010090046001600160a01b03166020918201529082526002929092015460ff161515908201529082526006830180546040805182850281018501909152818152938301939283018282801561064257602002820191906000526020600020906000905b82829054906101000a90046001600160801b03166001600160801b031681526020019060100190602082600f010492830192600103820291508084116105ff5790505b5050505050815260200160078201805461065b90612e8a565b80601f016020809104026020016040519081016040528092919081815260200182805461068790612e8a565b80156106d45780601f106106a9576101008083540402835291602001916106d4565b820191906000526020600020905b8154815290600101906020018083116106b757829003601f168201915b50505050508152505081526020019060010190610414565b50505050905090565b600081815260036020908152604080832033845290915281205460ff16151560010361072357506001919050565b506000919050565b6000818152600360209081526040808320338452909152812054610100900460ff16151560010361077d57604051630c4e612760e41b8152600481018390523360248201526044015b60405180910390fd5b60006001838154811061079257610792612ec4565b90600052602060002090600802016040518060e0016040529081600082015481526020016001820180546107c590612e8a565b80601f01602080910402602001604051908101604052809291908181526020018280546107f190612e8a565b801561083e5780601f106108135761010080835404028352916020019161083e565b820191906000526020600020905b81548152906001019060200180831161082157829003601f168201915b50505091835250506002828101546001600160a01b0381166020840152604090920191600160a01b900460ff169081111561087b5761087b6128a5565b600281111561088c5761088c6128a5565b81526040805160608101909152600383018054602090930192829060ff1660028111156108bb576108bb6128a5565b60028111156108cc576108cc6128a5565b815260408051808201909152600183018054602090930192829060ff1660038111156108fa576108fa6128a5565b600381111561090b5761090b6128a5565b8152905461010090046001600160a01b03166020918201529082526002929092015460ff16151590820152908252600683018054604080518285028101850190915281815293830193928301828280156109b657602002820191906000526020600020906000905b82829054906101000a90046001600160801b03166001600160801b031681526020019060100190602082600f010492830192600103820291508084116109735790505b505050505081526020016007820180546109cf90612e8a565b80601f01602080910402602001604051908101604052809291908181526020018280546109fb90612e8a565b8015610a485780601f10610a1d57610100808354040283529160200191610a48565b820191906000526020600020905b815481529060010190602001808311610a2b57829003601f168201915b505050505081525050905060016002811115610a6657610a666128a5565b81606001516002811115610a7c57610a7c6128a5565b141580610aa0575060026080820151516002811115610a9d57610a9d6128a5565b14155b80610ab15750806080015160400151155b15610ad85760405163425ad41160e11b815260048101849052336024820152604401610774565b604080516060810182526000808252602080830182815260018486019081528884526003835285842033808652935285842085518154935192511515620100000262ff0000199315156101000261ff00199215159290921661ffff19909516949094171791909116919091179055925191929186917fdbb2455cc69235cd7b041dc0cced849ee3bd818c2e063d18e579d3d068f7974e91a35060019392505050565b6000600582604051610b8c9190612eda565b9081526020016040518091039020549050919050565b610baa6126f1565b60018281548110610bbd57610bbd612ec4565b90600052602060002090600802016040518060e001604052908160008201548152602001600182018054610bf090612e8a565b80601f0160208091040260200160405190810160405280929190818152602001828054610c1c90612e8a565b8015610c695780601f10610c3e57610100808354040283529160200191610c69565b820191906000526020600020905b815481529060010190602001808311610c4c57829003601f168201915b50505091835250506002828101546001600160a01b0381166020840152604090920191600160a01b900460ff1690811115610ca657610ca66128a5565b6002811115610cb757610cb76128a5565b81526040805160608101909152600383018054602090930192829060ff166002811115610ce657610ce66128a5565b6002811115610cf757610cf76128a5565b815260408051808201909152600183018054602090930192829060ff166003811115610d2557610d256128a5565b6003811115610d3657610d366128a5565b8152905461010090046001600160a01b03166020918201529082526002929092015460ff1615159082015290825260068301805460408051828502810185019091528181529383019392830182828015610de157602002820191906000526020600020906000905b82829054906101000a90046001600160801b03166001600160801b031681526020019060100190602082600f01049283019260010382029150808411610d9e5790505b50505050508152602001600782018054610dfa90612e8a565b80601f0160208091040260200160405190810160405280929190818152602001828054610e2690612e8a565b8015610e735780601f10610e4857610100808354040283529160200191610e73565b820191906000526020600020905b815481529060010190602001808311610e5657829003601f168201915b5050505050815250509050919050565b60018181548110610e9357600080fd5b60009182526020909120600890910201805460018201805491935090610eb890612e8a565b80601f0160208091040260200160405190810160405280929190818152602001828054610ee490612e8a565b8015610f315780601f10610f0657610100808354040283529160200191610f31565b820191906000526020600020905b815481529060010190602001808311610f1457829003601f168201915b505050600280850154604080516060810190915260038701805496976001600160a01b0384169760ff600160a01b909504851697509095509193909284921690811115610f8057610f806128a5565b6002811115610f9157610f916128a5565b815260408051808201909152600183018054602090930192829060ff166003811115610fbf57610fbf6128a5565b6003811115610fd057610fd06128a5565b8152905461010090046001600160a01b03166020918201529082526002929092015460ff16151591015260078201805491929161100c90612e8a565b80601f016020809104026020016040519081016040528092919081815260200182805461103890612e8a565b80156110855780601f1061105a57610100808354040283529160200191611085565b820191906000526020600020905b81548152906001019060200180831161106857829003601f168201915b5050505050905086565b600080600183815481106110a5576110a5612ec4565b90600052602060002090600802016040518060e0016040529081600082015481526020016001820180546110d890612e8a565b80601f016020809104026020016040519081016040528092919081815260200182805461110490612e8a565b80156111515780601f1061112657610100808354040283529160200191611151565b820191906000526020600020905b81548152906001019060200180831161113457829003601f168201915b50505091835250506002828101546001600160a01b0381166020840152604090920191600160a01b900460ff169081111561118e5761118e6128a5565b600281111561119f5761119f6128a5565b81526040805160608101909152600383018054602090930192829060ff1660028111156111ce576111ce6128a5565b60028111156111df576111df6128a5565b815260408051808201909152600183018054602090930192829060ff16600381111561120d5761120d6128a5565b600381111561121e5761121e6128a5565b8152905461010090046001600160a01b03166020918201529082526002929092015460ff16151590820152908252600683018054604080518285028101850190915281815293830193928301828280156112c957602002820191906000526020600020906000905b82829054906101000a90046001600160801b03166001600160801b031681526020019060100190602082600f010492830192600103820291508084116112865790505b505050505081526020016007820180546112e290612e8a565b80601f016020809104026020016040519081016040528092919081815260200182805461130e90612e8a565b801561135b5780601f106113305761010080835404028352916020019161135b565b820191906000526020600020905b81548152906001019060200180831161133e57829003601f168201915b505050919092525050506000848152600360209081526040808320338452909152902054909150610100900460ff1615156001036113b557604051630c4e612760e41b815260048101849052336024820152604401610774565b6002816060015160028111156113cd576113cd6128a5565b036113f45760405163cf14998d60e01b815260048101849052336024820152604401610774565b60018160600151600281111561140c5761140c6128a5565b14801561142f57506002608082015151600281111561142d5761142d6128a5565b145b156114565760405163425ad41160e11b815260048101849052336024820152604401610774565b6001608082015151600281111561146f5761146f6128a5565b14801561148257506114808361203e565b155b156114a957604051637a8a90f360e11b815260048101849052336024820152604401610774565b6040805160608101825260008082526001602080840191825283850183815288845260038252858420338552825285842085518154945192511515620100000262ff0000199315156101000261ff00199215159290921661ffff1990961695909517179190911692909217909155868252600490529182208054919261152e83612f0c565b909155505060405160008152339085907f01b0570fcf8d040a1dead2d60d1060b4817a6ebc4de6b950e632df705b9f50489060200160405180910390a3600254604051633576860d60e11b8152336004820152602481018690526001600160a01b0390911690636aed0c1a90604401600060405180830381600087803b1580156115b757600080fd5b505af11580156115cb573d6000803e3d6000fd5b506001979650505050505050565b816115e381611663565b1561160a57604051633eb0f74360e21b815260048101829052336024820152604401610774565b60006001848154811061161f5761161f612ec4565b60009182526020909120600890910201600201805473ffffffffffffffffffffffffffffffffffffffff19166001600160a01b039490941693909317909255505050565b6000806001838154811061167957611679612ec4565b90600052602060002090600802016040518060e0016040529081600082015481526020016001820180546116ac90612e8a565b80601f01602080910402602001604051908101604052809291908181526020018280546116d890612e8a565b80156117255780601f106116fa57610100808354040283529160200191611725565b820191906000526020600020905b81548152906001019060200180831161170857829003601f168201915b50505091835250506002828101546001600160a01b0381166020840152604090920191600160a01b900460ff1690811115611762576117626128a5565b6002811115611773576117736128a5565b81526040805160608101909152600383018054602090930192829060ff1660028111156117a2576117a26128a5565b60028111156117b3576117b36128a5565b815260408051808201909152600183018054602090930192829060ff1660038111156117e1576117e16128a5565b60038111156117f2576117f26128a5565b8152905461010090046001600160a01b03166020918201529082526002929092015460ff161515908201529082526006830180546040805182850281018501909152818152938301939283018282801561189d57602002820191906000526020600020906000905b82829054906101000a90046001600160801b03166001600160801b031681526020019060100190602082600f0104928301926001038202915080841161185a5790505b505050505081526020016007820180546118b690612e8a565b80601f01602080910402602001604051908101604052809291908181526020018280546118e290612e8a565b801561192f5780601f106119045761010080835404028352916020019161192f565b820191906000526020600020905b81548152906001019060200180831161191257829003601f168201915b50505091909252505050604001516001600160a01b031633149392505050565b6119576126f1565b600061196283610b7a565b90506001818154811061197757611977612ec4565b90600052602060002090600802016040518060e0016040529081600082015481526020016001820180546119aa90612e8a565b80601f01602080910402602001604051908101604052809291908181526020018280546119d690612e8a565b8015611a235780601f106119f857610100808354040283529160200191611a23565b820191906000526020600020905b815481529060010190602001808311611a0657829003601f168201915b50505091835250506002828101546001600160a01b0381166020840152604090920191600160a01b900460ff1690811115611a6057611a606128a5565b6002811115611a7157611a716128a5565b81526040805160608101909152600383018054602090930192829060ff166002811115611aa057611aa06128a5565b6002811115611ab157611ab16128a5565b815260408051808201909152600183018054602090930192829060ff166003811115611adf57611adf6128a5565b6003811115611af057611af06128a5565b8152905461010090046001600160a01b03166020918201529082526002929092015460ff1615159082015290825260068301805460408051828502810185019091528181529383019392830182828015611b9b57602002820191906000526020600020906000905b82829054906101000a90046001600160801b03166001600160801b031681526020019060100190602082600f01049283019260010382029150808411611b585790505b50505050508152602001600782018054611bb490612e8a565b80601f0160208091040260200160405190810160405280929190818152602001828054611be090612e8a565b8015611c2d5780601f10611c0257610100808354040283529160200191611c2d565b820191906000526020600020905b815481529060010190602001808311611c1057829003601f168201915b505050505081525050915050919050565b611c7c6040518060400160405280600b81526020017f6372656174655370616365000000000000000000000000000000000000000000815250612675565b600585604051611c8c9190612eda565b908152602001604051809103902054600014611cbd5784604051630b6da56160e21b81526004016107749190612f25565b60008054905060006040518060e00160405280838152602001888152602001336001600160a01b03168152602001876002811115611cfd57611cfd6128a5565b81526020808201889052604082018790526060909101859052600180548082018255600091909152825160089091027fb10e2d527612073b26eecdfd717e6a320cf44b4afac2b0732d9fcbe2b7fa0cf6810191825591830151929350839290917fb10e2d527612073b26eecdfd717e6a320cf44b4afac2b0732d9fcbe2b7fa0cf70190611d8a9082612f83565b506040820151600280830180546001600160a01b0390931673ffffffffffffffffffffffffffffffffffffffff1984168117825560608601519391927fffffffffffffffffffffff0000000000000000000000000000000000000000009092161790600160a01b908490811115611e0357611e036128a5565b021790555060808201518051600383018054909190829060ff19166001836002811115611e3257611e326128a5565b02179055506020820151805160018084018054909291839160ff191690836003811115611e6157611e616128a5565b021790555060209182015181546001600160a01b03909116610100027fffffffffffffffffffffff0000000000000000000000000000000000000000ff909116179055604092909201516002909101805491151560ff1990921691909117905560a08301518051611ed8926006850192019061274e565b5060c08201516007820190611eed9082612f83565b50505081600588604051611f019190612eda565b90815260405190819003602001812091909155600254633576860d60e11b8252336004830152602482018490526001600160a01b031690636aed0c1a90604401600060405180830381600087803b158015611f5b57600080fd5b505af1158015611f6f573d6000803e3d6000fd5b50505060008381526004602052604081208054925090611f8e83612f0c565b9091555050604080516060810182526001808252602080830191825260008385018181528782526003835285822033835290925293842092518354925191511515620100000262ff0000199215156101000261ff00199215159290921661ffff199094169390931717161790556120089080546001019055565b604051339083907fb86ecf9543f771ac118830339392a31c2ef19181bb1f831fa033235771791aa190600090a350505050505050565b6000806001838154811061205457612054612ec4565b90600052602060002090600802016040518060e00160405290816000820154815260200160018201805461208790612e8a565b80601f01602080910402602001604051908101604052809291908181526020018280546120b390612e8a565b80156121005780601f106120d557610100808354040283529160200191612100565b820191906000526020600020905b8154815290600101906020018083116120e357829003601f168201915b50505091835250506002828101546001600160a01b0381166020840152604090920191600160a01b900460ff169081111561213d5761213d6128a5565b600281111561214e5761214e6128a5565b81526040805160608101909152600383018054602090930192829060ff16600281111561217d5761217d6128a5565b600281111561218e5761218e6128a5565b815260408051808201909152600183018054602090930192829060ff1660038111156121bc576121bc6128a5565b60038111156121cd576121cd6128a5565b8152905461010090046001600160a01b03166020918201529082526002929092015460ff161515908201529082526006830180546040805182850281018501909152818152938301939283018282801561227857602002820191906000526020600020906000905b82829054906101000a90046001600160801b03166001600160801b031681526020019060100190602082600f010492830192600103820291508084116122355790505b5050505050815260200160078201805461229190612e8a565b80601f01602080910402602001604051908101604052809291908181526020018280546122bd90612e8a565b801561230a5780601f106122df5761010080835404028352916020019161230a565b820191906000526020600020905b8154815290600101906020018083116122ed57829003601f168201915b50505091909252505050608081015160209081015190810151905191925090600190600381111561233d5761233d6128a5565b036123ba576040516370a0823160e01b815233600482015281906000906001600160a01b038316906370a08231906024015b602060405180830381865afa15801561238c573d6000803e3d6000fd5b505050506040513d601f19601f820116820180604052508101906123b09190613043565b1195945050505050565b60026080830151602001515160038111156123d7576123d76128a5565b0361240d576040516370a0823160e01b815233600482015281906000906001600160a01b038316906370a082319060240161236f565b600360808301516020015151600381111561242a5761242a6128a5565b0361246457604051627eeac760e11b815233600482015260006024820181905282916001600160a01b0383169062fdd58e9060440161236f565b5060009392505050565b83612478816106f5565b80612487575061248781611663565b156124ae5760405163eae3129560e01b815260048101829052336024820152604401610774565b60008581526003602090815260408083206001600160a01b038816845290915290205460ff610100909104161515831515148015612514575060008581526003602090815260408083206001600160a01b038816845290915290205460ff161515821515145b1561254457604051630c4e612760e41b8152600481018690526001600160a01b0385166024820152604401610774565b60408051606081018252831515815284158015602080840191825260008486018181528b8252600383528682206001600160a01b038c1683529092529490942083518154925195511515620100000262ff0000199615156101000261ff00199215159290921661ffff1990941693909317179490941617909255906126205760008681526004602052604081208054916125dd83612f0c565b90915550506040518315158152339087907f01b0570fcf8d040a1dead2d60d1060b4817a6ebc4de6b950e632df705b9f50489060200160405180910390a361266d565b600086815260046020526040812080549161263a8361305c565b9091555050604051339087907f1c43a3cf5b547073bee7f10560079a1900cc5968c27fb3a768f8e65d5d46550590600090a35b505050505050565b6126cd816040516024016126899190612f25565b60408051601f198184030181529190526020810180517bffffffffffffffffffffffffffffffffffffffffffffffffffffffff1663104c13eb60e21b1790526126d0565b50565b80516a636f6e736f6c652e6c6f67602083016000808483855afa5050505050565b6040518060e00160405280600081526020016060815260200160006001600160a01b031681526020016000600281111561272d5761272d6128a5565b815260200161273a612806565b815260200160608152602001606081525090565b828054828255906000526020600020906001016002900481019282156127f65791602002820160005b838211156127c157835183826101000a8154816001600160801b0302191690836001600160801b031602179055509260200192601001602081600f01049283019260010302612777565b80156127f45782816101000a8154906001600160801b030219169055601001602081600f010492830192600103026127c1565b505b50612802929150612840565b5090565b60408051606081019091528060008152602001612833604080518082019091526000808252602082015290565b8152600060209091015290565b5b808211156128025760008155600101612841565b60005b83811015612870578181015183820152602001612858565b50506000910152565b60008151808452612891816020860160208601612855565b601f01601f19169290920160200192915050565b634e487b7160e01b600052602160045260246000fd5b600381106126cd576126cd6128a5565b80516128d6816128bb565b825260208101518051600481106128ef576128ef6128a5565b806020850152506001600160a01b036020820151166040840152506040810151151560608301525050565b600061014082518452602080840151828287015261293a83870182612879565b9250506001600160a01b036040850151166040860152606084015161295e816128bb565b80606087015250608084015161297760808701826128cb565b5060a0840151858303610100870152805180845290820192600091908301905b808310156129c05784516001600160801b03168252938301936001929092019190830190612997565b5060c086015193508681036101208801526129db8185612879565b979650505050505050565b6000602080830181845280855180835260408601915060408160051b870101925083870160005b82811015612a3b57603f19888603018452612a2985835161291a565b94509285019290850190600101612a0d565b5092979650505050505050565b80356001600160a01b0381168114612a5f57600080fd5b919050565b60008060408385031215612a7757600080fd5b82359150612a8760208401612a48565b90509250929050565b600060208284031215612aa257600080fd5b5035919050565b634e487b7160e01b600052604160045260246000fd5b6040516060810167ffffffffffffffff81118282101715612ae257612ae2612aa9565b60405290565b6040805190810167ffffffffffffffff81118282101715612ae257612ae2612aa9565b604051601f8201601f1916810167ffffffffffffffff81118282101715612b3457612b34612aa9565b604052919050565b600082601f830112612b4d57600080fd5b813567ffffffffffffffff811115612b6757612b67612aa9565b612b7a601f8201601f1916602001612b0b565b818152846020838601011115612b8f57600080fd5b816020850160208301376000918101602001919091529392505050565b600060208284031215612bbe57600080fd5b813567ffffffffffffffff811115612bd557600080fd5b612be184828501612b3c565b949350505050565b602081526000612bfc602083018461291a565b9392505050565b6000610120888352806020840152612c1d81840189612879565b90506001600160a01b0387166040840152612c37866128bb565b856060840152612c4a60808401866128cb565b828103610100840152612c5d8185612879565b9998505050505050505050565b600381106126cd57600080fd5b80358015158114612a5f57600080fd5b600082601f830112612c9857600080fd5b8135602067ffffffffffffffff821115612cb457612cb4612aa9565b8160051b612cc3828201612b0b565b9283528481018201928281019087851115612cdd57600080fd5b83870192505b848310156129db5782356001600160801b0381168114612d035760008081fd5b82529183019190830190612ce3565b6000806000806000858703610100811215612d2c57600080fd5b863567ffffffffffffffff80821115612d4457600080fd5b612d508a838b01612b3c565b975060208901359150612d6282612c6a565b8196506080603f1984011215612d7757600080fd5b612d7f612abf565b91506040890135612d8f81612c6a565b82526040605f1984011215612da357600080fd5b612dab612ae8565b9250606089013560048110612dbf57600080fd5b8352612dcd60808a01612a48565b6020840152826020830152612de460a08a01612c77565b604083015281955060c0890135925080831115612e0057600080fd5b612e0c8a848b01612c87565b945060e0890135925080831115612e2257600080fd5b5050612e3088828901612b3c565b9150509295509295909350565b60008060008060808587031215612e5357600080fd5b84359350612e6360208601612a48565b9250612e7160408601612c77565b9150612e7f60608601612c77565b905092959194509250565b600181811c90821680612e9e57607f821691505b602082108103612ebe57634e487b7160e01b600052602260045260246000fd5b50919050565b634e487b7160e01b600052603260045260246000fd5b60008251612eec818460208701612855565b9190910192915050565b634e487b7160e01b600052601160045260246000fd5b600060018201612f1e57612f1e612ef6565b5060010190565b602081526000612bfc6020830184612879565b601f821115612f7e57600081815260208120601f850160051c81016020861015612f5f5750805b601f850160051c820191505b8181101561266d57828155600101612f6b565b505050565b815167ffffffffffffffff811115612f9d57612f9d612aa9565b612fb181612fab8454612e8a565b84612f38565b602080601f831160018114612fe65760008415612fce5750858301515b600019600386901b1c1916600185901b17855561266d565b600085815260208120601f198616915b8281101561301557888601518255948401946001909101908401612ff6565b50858210156130335787850151600019600388901b60f8161c191681555b5050505050600190811b01905550565b60006020828403121561305557600080fd5b5051919050565b60008161306b5761306b612ef6565b50600019019056fea164736f6c6343000811000a",
  "linkReferences": {},
  "deployedLinkReferences": {}
}