{
  "_format": "hh-sol-artifact-1",
  "contractName": "EmbraceApps",
  "sourceName": "contracts/EmbraceApps.sol",
  "abi": [
    {
      "inputs": [],
      "stateMutability": "nonpayable",
      "type": "constructor"
    },
    {
      "inputs": [
        {
          "internalType": "uint256",
          "name": "",
          "type": "uint256"
        }
      ],
      "name": "apps",
      "outputs": [
        {
          "internalType": "uint256",
          "name": "id",
          "type": "uint256"
        },
        {
          "internalType": "string",
          "name": "code",
          "type": "string"
        },
        {
          "internalType": "address",
          "name": "contractAddress",
          "type": "address"
        },
        {
          "internalType": "bool",
          "name": "enabled",
          "type": "bool"
        },
        {
          "internalType": "string",
          "name": "metadata",
          "type": "string"
        }
      ],
      "stateMutability": "view",
      "type": "function"
    },
    {
      "inputs": [
        {
          "internalType": "bytes32",
          "name": "",
          "type": "bytes32"
        }
      ],
      "name": "codeToIndex",
      "outputs": [
        {
          "internalType": "uint256",
          "name": "",
          "type": "uint256"
        }
      ],
      "stateMutability": "view",
      "type": "function"
    },
    {
      "inputs": [
        {
          "internalType": "string",
          "name": "_code",
          "type": "string"
        },
        {
          "internalType": "address",
          "name": "_contractAddress",
          "type": "address"
        },
        {
          "internalType": "string",
          "name": "_metadata",
          "type": "string"
        },
        {
          "internalType": "bool",
          "name": "_enabled",
          "type": "bool"
        }
      ],
      "name": "createApp",
      "outputs": [],
      "stateMutability": "nonpayable",
      "type": "function"
    },
    {
      "inputs": [
        {
          "internalType": "string",
          "name": "_code",
          "type": "string"
        }
      ],
      "name": "getAppByCode",
      "outputs": [
        {
          "components": [
            {
              "internalType": "uint256",
              "name": "id",
              "type": "uint256"
            },
            {
              "internalType": "string",
              "name": "code",
              "type": "string"
            },
            {
              "internalType": "address",
              "name": "contractAddress",
              "type": "address"
            },
            {
              "internalType": "bool",
              "name": "enabled",
              "type": "bool"
            },
            {
              "internalType": "string",
              "name": "metadata",
              "type": "string"
            }
          ],
          "internalType": "struct EmbraceApps.App",
          "name": "",
          "type": "tuple"
        }
      ],
      "stateMutability": "view",
      "type": "function"
    },
    {
      "inputs": [
        {
          "internalType": "uint256",
          "name": "_appId",
          "type": "uint256"
        }
      ],
      "name": "getAppByIndex",
      "outputs": [
        {
          "components": [
            {
              "internalType": "uint256",
              "name": "id",
              "type": "uint256"
            },
            {
              "internalType": "string",
              "name": "code",
              "type": "string"
            },
            {
              "internalType": "address",
              "name": "contractAddress",
              "type": "address"
            },
            {
              "internalType": "bool",
              "name": "enabled",
              "type": "bool"
            },
            {
              "internalType": "string",
              "name": "metadata",
              "type": "string"
            }
          ],
          "internalType": "struct EmbraceApps.App",
          "name": "",
          "type": "tuple"
        }
      ],
      "stateMutability": "view",
      "type": "function"
    },
    {
      "inputs": [],
      "name": "getApps",
      "outputs": [
        {
          "components": [
            {
              "internalType": "uint256",
              "name": "id",
              "type": "uint256"
            },
            {
              "internalType": "string",
              "name": "code",
              "type": "string"
            },
            {
              "internalType": "address",
              "name": "contractAddress",
              "type": "address"
            },
            {
              "internalType": "bool",
              "name": "enabled",
              "type": "bool"
            },
            {
              "internalType": "string",
              "name": "metadata",
              "type": "string"
            }
          ],
          "internalType": "struct EmbraceApps.App[]",
          "name": "",
          "type": "tuple[]"
        }
      ],
      "stateMutability": "view",
      "type": "function"
    },
    {
      "inputs": [],
      "name": "owner",
      "outputs": [
        {
          "internalType": "address",
          "name": "",
          "type": "address"
        }
      ],
      "stateMutability": "view",
      "type": "function"
    },
    {
      "inputs": [
        {
          "internalType": "string",
          "name": "_code",
          "type": "string"
        },
        {
          "internalType": "address",
          "name": "_contractAddress",
          "type": "address"
        }
      ],
      "name": "setAppContractAddress",
      "outputs": [],
      "stateMutability": "nonpayable",
      "type": "function"
    },
    {
      "inputs": [
        {
          "internalType": "uint256",
          "name": "_appId",
          "type": "uint256"
        },
        {
          "internalType": "string",
          "name": "_newMetadata",
          "type": "string"
        }
      ],
      "name": "updateMetadata",
      "outputs": [
        {
          "components": [
            {
              "internalType": "uint256",
              "name": "id",
              "type": "uint256"
            },
            {
              "internalType": "string",
              "name": "code",
              "type": "string"
            },
            {
              "internalType": "address",
              "name": "contractAddress",
              "type": "address"
            },
            {
              "internalType": "bool",
              "name": "enabled",
              "type": "bool"
            },
            {
              "internalType": "string",
              "name": "metadata",
              "type": "string"
            }
          ],
          "internalType": "struct EmbraceApps.App",
          "name": "",
          "type": "tuple"
        }
      ],
      "stateMutability": "nonpayable",
      "type": "function"
    }
  ],
  "bytecode": "0x608060405234801561001057600080fd5b50600480546001600160a01b03191633179055611246806100326000396000f3fe608060405234801561001057600080fd5b50600436106100a35760003560e01c806361acc37e116100765780638da5cb5b1161005b5780638da5cb5b1461015a578063d66d756d14610185578063d7e2404a1461019a57600080fd5b806361acc37e146101215780636265f8301461014557600080fd5b80631efb192b146100a857806323797ed9146100db57806353c8388e146100fb5780635837541a1461010e575b600080fd5b6100c86100b6366004610c98565b60026020526000908152604090205481565b6040519081526020015b60405180910390f35b6100ee6100e9366004610c98565b6101ad565b6040516100d29190610d57565b6100ee610109366004610e14565b610361565b6100ee61011c366004610e5b565b610598565b61013461012f366004610c98565b61061d565b6040516100d2959493929190610e98565b610158610153366004610f02565b610781565b005b60045461016d906001600160a01b031681565b6040516001600160a01b0390911681526020016100d2565b61018d61089a565b6040516100d29190610f50565b6101586101a8366004610fb2565b610a50565b6040805160a0810182526000808252606060208301819052928201819052828201526080810191909152600182815481106101ea576101ea61103e565b90600052602060002090600402016040518060a00160405290816000820154815260200160018201805461021d90611054565b80601f016020809104026020016040519081016040528092919081815260200182805461024990611054565b80156102965780601f1061026b57610100808354040283529160200191610296565b820191906000526020600020905b81548152906001019060200180831161027957829003601f168201915b505050918352505060028201546001600160a01b0381166020830152600160a01b900460ff16151560408201526003820180546060909201916102d890611054565b80601f016020809104026020016040519081016040528092919081815260200182805461030490611054565b80156103515780601f1061032657610100808354040283529160200191610351565b820191906000526020600020905b81548152906001019060200180831161033457829003601f168201915b5050505050815250509050919050565b6040805160a08101825260008082526060602083018190529282018190528282015260808101919091526004546001600160a01b031633146103f55760405162461bcd60e51b815260206004820152602260248201527f4f6e6c79206f776e65722063616e2063616c6c20746869732066756e6374696f604482015261371760f11b60648201526084015b60405180910390fd5b60006001848154811061040a5761040a61103e565b906000526020600020906004020190508281600301908161042b91906110dc565b50806040518060a00160405290816000820154815260200160018201805461045290611054565b80601f016020809104026020016040519081016040528092919081815260200182805461047e90611054565b80156104cb5780601f106104a0576101008083540402835291602001916104cb565b820191906000526020600020905b8154815290600101906020018083116104ae57829003601f168201915b505050918352505060028201546001600160a01b0381166020830152600160a01b900460ff161515604082015260038201805460609092019161050d90611054565b80601f016020809104026020016040519081016040528092919081815260200182805461053990611054565b80156105865780601f1061055b57610100808354040283529160200191610586565b820191906000526020600020905b81548152906001019060200180831161056957829003601f168201915b50505050508152505091505092915050565b6040805160a081018252600080825260606020830181905292820181905282820152608081019190915281516020808401919091206000526002815260405162461bcd60e51b81526004810191909152600c60248201527f4e6f2061707020666f756e64000000000000000000000000000000000000000060448201526064016103ec565b6001818154811061062d57600080fd5b6000918252602090912060049091020180546001820180549193509061065290611054565b80601f016020809104026020016040519081016040528092919081815260200182805461067e90611054565b80156106cb5780601f106106a0576101008083540402835291602001916106cb565b820191906000526020600020905b8154815290600101906020018083116106ae57829003601f168201915b50505050600283015460038401805493946001600160a01b03831694600160a01b90930460ff169350916106fe90611054565b80601f016020809104026020016040519081016040528092919081815260200182805461072a90611054565b80156107775780601f1061074c57610100808354040283529160200191610777565b820191906000526020600020905b81548152906001019060200180831161075a57829003601f168201915b5050505050905085565b6004546001600160a01b031633146107e65760405162461bcd60e51b815260206004820152602260248201527f4f6e6c79206f776e65722063616e2063616c6c20746869732066756e6374696f604482015261371760f11b60648201526084016103ec565b60005b6001548110156108955782805190602001206001828154811061080e5761080e61103e565b906000526020600020906004020160010160405161082c919061119c565b60405180910390200361088357816001828154811061084d5761084d61103e565b906000526020600020906004020160020160006101000a8154816001600160a01b0302191690836001600160a01b031602179055505b8061088d81611212565b9150506107e9565b505050565b60606001805480602002602001604051908101604052809291908181526020016000905b82821015610a4757838290600052602060002090600402016040518060a0016040529081600082015481526020016001820180546108fb90611054565b80601f016020809104026020016040519081016040528092919081815260200182805461092790611054565b80156109745780601f1061094957610100808354040283529160200191610974565b820191906000526020600020905b81548152906001019060200180831161095757829003601f168201915b505050918352505060028201546001600160a01b0381166020830152600160a01b900460ff16151560408201526003820180546060909201916109b690611054565b80601f01602080910402602001604051908101604052809291908181526020018280546109e290611054565b8015610a2f5780601f10610a0457610100808354040283529160200191610a2f565b820191906000526020600020905b815481529060010190602001808311610a1257829003601f168201915b505050505081525050815260200190600101906108be565b50505050905090565b6004546001600160a01b03163314610ab55760405162461bcd60e51b815260206004820152602260248201527f4f6e6c79206f776e65722063616e2063616c6c20746869732066756e6374696f604482015261371760f11b60648201526084016103ec565b8360005b600154811015610b6357818051906020012060018281548110610ade57610ade61103e565b9060005260206000209060040201600101604051610afc919061119c565b604051809103902003610b515760405162461bcd60e51b815260206004820152601860248201527f41707020636f646520616c7265616479206578697374732e000000000000000060448201526064016103ec565b80610b5b81611212565b915050610ab9565b50600080546040805160a081018252828152602081018981526001600160a01b038916928201929092528515156060820152608081018790526001805480820182559452805160049094027fb10e2d527612073b26eecdfd717e6a320cf44b4afac2b0732d9fcbe2b7fa0cf6810194855591519293909283927fb10e2d527612073b26eecdfd717e6a320cf44b4afac2b0732d9fcbe2b7fa0cf70190610c0990826110dc565b50604082015160028201805460608501511515600160a01b027fffffffffffffffffffffff0000000000000000000000000000000000000000009091166001600160a01b039093169290921791909117905560808201516003820190610c6f90826110dc565b505087516020988901206000908152600290985250506040862055505082546001019092555050565b600060208284031215610caa57600080fd5b5035919050565b6000815180845260005b81811015610cd757602081850181015186830182015201610cbb565b506000602082860101526020601f19601f83011685010191505092915050565b805182526000602082015160a06020850152610d1660a0850182610cb1565b90506001600160a01b03604084015116604085015260608301511515606085015260808301518482036080860152610d4e8282610cb1565b95945050505050565b602081526000610d6a6020830184610cf7565b9392505050565b634e487b7160e01b600052604160045260246000fd5b600082601f830112610d9857600080fd5b813567ffffffffffffffff80821115610db357610db3610d71565b604051601f8301601f19908116603f01168101908282118183101715610ddb57610ddb610d71565b81604052838152866020858801011115610df457600080fd5b836020870160208301376000602085830101528094505050505092915050565b60008060408385031215610e2757600080fd5b82359150602083013567ffffffffffffffff811115610e4557600080fd5b610e5185828601610d87565b9150509250929050565b600060208284031215610e6d57600080fd5b813567ffffffffffffffff811115610e8457600080fd5b610e9084828501610d87565b949350505050565b85815260a060208201526000610eb160a0830187610cb1565b6001600160a01b038616604084015284151560608401528281036080840152610eda8185610cb1565b98975050505050505050565b80356001600160a01b0381168114610efd57600080fd5b919050565b60008060408385031215610f1557600080fd5b823567ffffffffffffffff811115610f2c57600080fd5b610f3885828601610d87565b925050610f4760208401610ee6565b90509250929050565b6000602080830181845280855180835260408601915060408160051b870101925083870160005b82811015610fa557603f19888603018452610f93858351610cf7565b94509285019290850190600101610f77565b5092979650505050505050565b60008060008060808587031215610fc857600080fd5b843567ffffffffffffffff80821115610fe057600080fd5b610fec88838901610d87565b9550610ffa60208801610ee6565b9450604087013591508082111561101057600080fd5b5061101d87828801610d87565b9250506060850135801515811461103357600080fd5b939692955090935050565b634e487b7160e01b600052603260045260246000fd5b600181811c9082168061106857607f821691505b60208210810361108857634e487b7160e01b600052602260045260246000fd5b50919050565b601f82111561089557600081815260208120601f850160051c810160208610156110b55750805b601f850160051c820191505b818110156110d4578281556001016110c1565b505050505050565b815167ffffffffffffffff8111156110f6576110f6610d71565b61110a816111048454611054565b8461108e565b602080601f83116001811461113f57600084156111275750858301515b600019600386901b1c1916600185901b1785556110d4565b600085815260208120601f198616915b8281101561116e5788860151825594840194600190910190840161114f565b508582101561118c5787850151600019600388901b60f8161c191681555b5050505050600190811b01905550565b60008083546111aa81611054565b600182811680156111c257600181146111d757611206565b60ff1984168752821515830287019450611206565b8760005260208060002060005b858110156111fd5781548a8201529084019082016111e4565b50505082870194505b50929695505050505050565b60006001820161123257634e487b7160e01b600052601160045260246000fd5b506001019056fea164736f6c6343000811000a",
  "linkReferences": {},
  "deployedLinkReferences": {}
}