{
  "_format": "hh-sol-artifact-1",
  "contractName": "EmbraceAccounts",
  "sourceName": "contracts/EmbraceAccounts.sol",
  "abi": [
    {
      "inputs": [
        {
          "internalType": "string",
          "name": "_userHandle",
          "type": "string"
        }
      ],
      "name": "addAccount",
      "outputs": [],
      "stateMutability": "nonpayable",
      "type": "function"
    },
    {
      "inputs": [
        {
          "internalType": "string",
          "name": "_userHandle",
          "type": "string"
        }
      ],
      "name": "getAddress",
      "outputs": [
        {
          "internalType": "address",
          "name": "",
          "type": "address"
        }
      ],
      "stateMutability": "view",
      "type": "function"
    },
    {
      "inputs": [
        {
          "internalType": "address",
          "name": "_userAddress",
          "type": "address"
        }
      ],
      "name": "getHandle",
      "outputs": [
        {
          "internalType": "string",
          "name": "",
          "type": "string"
        }
      ],
      "stateMutability": "view",
      "type": "function"
    }
  ],
  "bytecode": "0x608060405234801561001057600080fd5b506104cd806100206000396000f3fe608060405234801561001057600080fd5b50600436106100415760003560e01c80632ad26a0414610046578063854b07b21461005b578063bf40fac114610084575b600080fd5b610059610054366004610223565b6100af565b005b61006e6100693660046102d4565b6100d5565b60405161007b9190610328565b60405180910390f35b610097610092366004610223565b610181565b6040516001600160a01b03909116815260200161007b565b3360009081526020819052604090206100c882826103e4565b506100d2816101b2565b50565b6001600160a01b03811660009081526020819052604090208054606091906100fc9061035b565b80601f01602080910402602001604051908101604052809291908181526020018280546101289061035b565b80156101755780601f1061014a57610100808354040283529160200191610175565b820191906000526020600020905b81548152906001019060200180831161015857829003601f168201915b50505050509050919050565b600060018260405161019391906104a4565b908152604051908190036020019020546001600160a01b031692915050565b336001826040516101c391906104a4565b90815260405190819003602001902080546001600160a01b03929092167fffffffffffffffffffffffff000000000000000000000000000000000000000090921691909117905550565b634e487b7160e01b600052604160045260246000fd5b60006020828403121561023557600080fd5b813567ffffffffffffffff8082111561024d57600080fd5b818401915084601f83011261026157600080fd5b8135818111156102735761027361020d565b604051601f8201601f19908116603f0116810190838211818310171561029b5761029b61020d565b816040528281528760208487010111156102b457600080fd5b826020860160208301376000928101602001929092525095945050505050565b6000602082840312156102e657600080fd5b81356001600160a01b03811681146102fd57600080fd5b9392505050565b60005b8381101561031f578181015183820152602001610307565b50506000910152565b6020815260008251806020840152610347816040850160208701610304565b601f01601f19169190910160400192915050565b600181811c9082168061036f57607f821691505b60208210810361038f57634e487b7160e01b600052602260045260246000fd5b50919050565b601f8211156103df57600081815260208120601f850160051c810160208610156103bc5750805b601f850160051c820191505b818110156103db578281556001016103c8565b5050505b505050565b815167ffffffffffffffff8111156103fe576103fe61020d565b6104128161040c845461035b565b84610395565b602080601f831160018114610447576000841561042f5750858301515b600019600386901b1c1916600185901b1785556103db565b600085815260208120601f198616915b8281101561047657888601518255948401946001909101908401610457565b50858210156104945787850151600019600388901b60f8161c191681555b5050505050600190811b01905550565b600082516104b6818460208701610304565b919091019291505056fea164736f6c6343000811000a",
  "linkReferences": {},
  "deployedLinkReferences": {}
}