{
  "_format": "hh-sol-artifact-1",
  "contractName": "EmbraceSpaces",
  "sourceName": "contracts/EmbraceSpaces.sol",
  "abi": [
    {
      "inputs": [
        {
          "internalType": "uint256",
          "name": "_spaceIndex",
          "type": "uint256"
        },
        {
          "internalType": "uint256",
          "name": "_appIndex",
          "type": "uint256"
        }
      ],
      "name": "addApp",
      "outputs": [],
      "stateMutability": "nonpayable",
      "type": "function"
    },
    {
      "inputs": [
        {
          "internalType": "uint256",
          "name": "_spaceIndex",
          "type": "uint256"
        },
        {
          "internalType": "address",
          "name": "_admin",
          "type": "address"
        }
      ],
      "name": "addSpaceAdmin",
      "outputs": [],
      "stateMutability": "nonpayable",
      "type": "function"
    },
    {
      "inputs": [
        {
          "internalType": "uint256",
          "name": "_spaceIndex",
          "type": "uint256"
        },
        {
          "internalType": "address",
          "name": "_member",
          "type": "address"
        }
      ],
      "name": "addSpaceMember",
      "outputs": [],
      "stateMutability": "nonpayable",
      "type": "function"
    },
    {
      "inputs": [
        {
          "internalType": "bytes32",
          "name": "_handle",
          "type": "bytes32"
        },
        {
          "internalType": "enum EmbraceSpaces.Visibility",
          "name": "_visibility",
          "type": "uint8"
        },
        {
          "internalType": "uint256[]",
          "name": "_apps",
          "type": "uint256[]"
        },
        {
          "internalType": "string",
          "name": "_metadata",
          "type": "string"
        },
        {
          "internalType": "string",
          "name": "_passstring",
          "type": "string"
        }
      ],
      "name": "createSpace",
      "outputs": [],
      "stateMutability": "nonpayable",
      "type": "function"
    },
    {
      "inputs": [
        {
          "internalType": "uint256",
          "name": "_spaceIndex",
          "type": "uint256"
        }
      ],
      "name": "getSpace",
      "outputs": [
        {
          "components": [
            {
              "internalType": "bytes32",
              "name": "handle",
              "type": "bytes32"
            },
            {
              "internalType": "enum EmbraceSpaces.Visibility",
              "name": "visibility",
              "type": "uint8"
            },
            {
              "internalType": "uint256[]",
              "name": "apps",
              "type": "uint256[]"
            },
            {
              "internalType": "string",
              "name": "metadata",
              "type": "string"
            },
            {
              "internalType": "address",
              "name": "founder",
              "type": "address"
            },
            {
              "internalType": "bytes32",
              "name": "passcode",
              "type": "bytes32"
            }
          ],
          "internalType": "struct EmbraceSpaces.Space",
          "name": "",
          "type": "tuple"
        }
      ],
      "stateMutability": "view",
      "type": "function"
    },
    {
      "inputs": [],
      "name": "getSpaces",
      "outputs": [
        {
          "components": [
            {
              "internalType": "bytes32",
              "name": "handle",
              "type": "bytes32"
            },
            {
              "internalType": "enum EmbraceSpaces.Visibility",
              "name": "visibility",
              "type": "uint8"
            },
            {
              "internalType": "uint256[]",
              "name": "apps",
              "type": "uint256[]"
            },
            {
              "internalType": "string",
              "name": "metadata",
              "type": "string"
            },
            {
              "internalType": "address",
              "name": "founder",
              "type": "address"
            },
            {
              "internalType": "bytes32",
              "name": "passcode",
              "type": "bytes32"
            }
          ],
          "internalType": "struct EmbraceSpaces.Space[]",
          "name": "",
          "type": "tuple[]"
        }
      ],
      "stateMutability": "view",
      "type": "function"
    },
    {
      "inputs": [
        {
          "internalType": "uint256",
          "name": "_spaceIndex",
          "type": "uint256"
        }
      ],
      "name": "isAdmin",
      "outputs": [
        {
          "internalType": "bool",
          "name": "",
          "type": "bool"
        }
      ],
      "stateMutability": "view",
      "type": "function"
    },
    {
      "inputs": [
        {
          "internalType": "uint256",
          "name": "_spaceIndex",
          "type": "uint256"
        }
      ],
      "name": "isFounder",
      "outputs": [
        {
          "internalType": "bool",
          "name": "",
          "type": "bool"
        }
      ],
      "stateMutability": "view",
      "type": "function"
    },
    {
      "inputs": [
        {
          "internalType": "uint256",
          "name": "_spaceIndex",
          "type": "uint256"
        }
      ],
      "name": "joinPublicSpace",
      "outputs": [
        {
          "internalType": "bool",
          "name": "",
          "type": "bool"
        }
      ],
      "stateMutability": "nonpayable",
      "type": "function"
    },
    {
      "inputs": [
        {
          "internalType": "uint256",
          "name": "_spaceIndex",
          "type": "uint256"
        },
        {
          "internalType": "string",
          "name": "_passstring",
          "type": "string"
        }
      ],
      "name": "joinRestrictedSpace",
      "outputs": [],
      "stateMutability": "nonpayable",
      "type": "function"
    },
    {
      "inputs": [
        {
          "internalType": "uint256",
          "name": "_spaceIndex",
          "type": "uint256"
        },
        {
          "internalType": "uint256",
          "name": "_appIndex",
          "type": "uint256"
        }
      ],
      "name": "removeApp",
      "outputs": [],
      "stateMutability": "nonpayable",
      "type": "function"
    },
    {
      "inputs": [
        {
          "internalType": "uint256",
          "name": "",
          "type": "uint256"
        }
      ],
      "name": "spaceAdminLength",
      "outputs": [
        {
          "internalType": "uint256",
          "name": "",
          "type": "uint256"
        }
      ],
      "stateMutability": "view",
      "type": "function"
    },
    {
      "inputs": [
        {
          "internalType": "uint256",
          "name": "",
          "type": "uint256"
        },
        {
          "internalType": "address",
          "name": "",
          "type": "address"
        }
      ],
      "name": "spaceAdmins",
      "outputs": [
        {
          "internalType": "bool",
          "name": "",
          "type": "bool"
        }
      ],
      "stateMutability": "view",
      "type": "function"
    },
    {
      "inputs": [
        {
          "internalType": "bytes32",
          "name": "",
          "type": "bytes32"
        }
      ],
      "name": "spaceHandles",
      "outputs": [
        {
          "internalType": "uint256",
          "name": "",
          "type": "uint256"
        }
      ],
      "stateMutability": "view",
      "type": "function"
    },
    {
      "inputs": [
        {
          "internalType": "uint256",
          "name": "",
          "type": "uint256"
        }
      ],
      "name": "spaceMemberLength",
      "outputs": [
        {
          "internalType": "uint256",
          "name": "",
          "type": "uint256"
        }
      ],
      "stateMutability": "view",
      "type": "function"
    },
    {
      "inputs": [
        {
          "internalType": "uint256",
          "name": "",
          "type": "uint256"
        },
        {
          "internalType": "address",
          "name": "",
          "type": "address"
        }
      ],
      "name": "spaceMembers",
      "outputs": [
        {
          "internalType": "bool",
          "name": "",
          "type": "bool"
        }
      ],
      "stateMutability": "view",
      "type": "function"
    },
    {
      "inputs": [
        {
          "internalType": "uint256",
          "name": "",
          "type": "uint256"
        }
      ],
      "name": "spaces",
      "outputs": [
        {
          "internalType": "bytes32",
          "name": "handle",
          "type": "bytes32"
        },
        {
          "internalType": "enum EmbraceSpaces.Visibility",
          "name": "visibility",
          "type": "uint8"
        },
        {
          "internalType": "string",
          "name": "metadata",
          "type": "string"
        },
        {
          "internalType": "address",
          "name": "founder",
          "type": "address"
        },
        {
          "internalType": "bytes32",
          "name": "passcode",
          "type": "bytes32"
        }
      ],
      "stateMutability": "view",
      "type": "function"
    }
  ],
  "bytecode": "0x60806040526000805534801561001457600080fd5b506118db806100246000396000f3fe608060405234801561001057600080fd5b506004361061011b5760003560e01c806385fe80c9116100b2578063af41f22a11610081578063e08a158511610066578063e08a1585146102d0578063e3aa3ecc146102e3578063f7177128146102f657600080fd5b8063af41f22a1461028f578063d16393db146102bd57600080fd5b806385fe80c91461021b5780638eb6a4241461023b5780639d26c7d514610269578063a303cf8e1461027c57600080fd5b80633e3579f0116100ee5780633e3579f0146101af57806370e10431146101c45780637586353b146101e457806376c0220a1461020857600080fd5b806315478ca9146101205780631f6dc4371461013e5780633254c1f61461016157806333d7ae401461018f575b600080fd5b610128610309565b60405161013591906113e9565b60405180910390f35b61015161014c36600461144b565b6104b8565b6040519015158152602001610135565b61018161016f36600461144b565b60066020526000908152604090205481565b604051908152602001610135565b61018161019d36600461144b565b60036020526000908152604090205481565b6101c26101bd366004611464565b6104ee565b005b6101d76101d236600461144b565b61057a565b60405161013591906114a0565b6101f76101f236600461144b565b610732565b6040516101359594939291906114ba565b6101c26102163660046115b4565b61080b565b61018161022936600461144b565b60056020526000908152604090205481565b610151610249366004611464565b600460209081526000928352604080842090915290825290205460ff1681565b6101c26102773660046116c3565b610a09565b61015161028a36600461144b565b610c42565b61015161029d366004611464565b600260209081526000928352604080842090915290825290205460ff1681565b6101c26102cb36600461170a565b610dce565b6101c26102de366004611464565b610e92565b6101516102f136600461144b565b610f1a565b6101c261030436600461170a565b611169565b60606001805480602002602001604051908101604052809291908181526020016000905b828210156104af57838290600052602060002090600602016040518060c0016040529081600082015481526020016001820160009054906101000a900460ff16600281111561037e5761037e6112b4565b600281111561038f5761038f6112b4565b8152602001600282018054806020026020016040519081016040528092919081815260200182805480156103e257602002820191906000526020600020905b8154815260200190600101908083116103ce575b505050505081526020016003820180546103fb9061172c565b80601f01602080910402602001604051908101604052809291908181526020018280546104279061172c565b80156104745780601f1061044957610100808354040283529160200191610474565b820191906000526020600020905b81548152906001019060200180831161045757829003601f168201915b505050918352505060048201546001600160a01b0316602080830191909152600590920154604090910152908252600192909201910161032d565b50505050905090565b600081815260046020908152604080832033845290915281205460ff1615156001036104e657506001919050565b506000919050565b816104f881610c42565b6105495760405162461bcd60e51b815260206004820152600c60248201527f4f6e6c7920666f756e646572000000000000000000000000000000000000000060448201526064015b60405180910390fd5b5060009182526004602090815260408084206001600160a01b0390931684529190529020805460ff19166001179055565b6105b56040805160c0810190915260008082526020820190815260606020820181905260408201819052600090820181905260809091015290565b600182815481106105c8576105c8611766565b90600052602060002090600602016040518060c0016040529081600082015481526020016001820160009054906101000a900460ff16600281111561060f5761060f6112b4565b6002811115610620576106206112b4565b81526020016002820180548060200260200160405190810160405280929190818152602001828054801561067357602002820191906000526020600020905b81548152602001906001019080831161065f575b5050505050815260200160038201805461068c9061172c565b80601f01602080910402602001604051908101604052809291908181526020018280546106b89061172c565b80156107055780601f106106da57610100808354040283529160200191610705565b820191906000526020600020905b8154815290600101906020018083116106e857829003601f168201915b505050918352505060048201546001600160a01b0316602082015260059091015460409091015292915050565b6001818154811061074257600080fd5b600091825260209091206006909102018054600182015460038301805492945060ff90911692916107729061172c565b80601f016020809104026020016040519081016040528092919081815260200182805461079e9061172c565b80156107eb5780601f106107c0576101008083540402835291602001916107eb565b820191906000526020600020905b8154815290600101906020018083116107ce57829003601f168201915b50505050600483015460059093015491926001600160a01b031691905085565b600085815260066020526040902054156108675760405162461bcd60e51b815260206004820152601560248201527f48616e646c6520616c72656164792065786973747300000000000000000000006044820152606401610540565b60006040518060c0016040528087815260200186600281111561088c5761088c6112b4565b8152602001858152602001848152602001336001600160a01b03168152602001836040516020016108bd919061177c565b60408051601f1981840301815291905280516020918201209091526001805480820182556000829052835160069091027fb10e2d527612073b26eecdfd717e6a320cf44b4afac2b0732d9fcbe2b7fa0cf68101918255928401517fb10e2d527612073b26eecdfd717e6a320cf44b4afac2b0732d9fcbe2b7fa0cf790930180549495508594919392909160ff19169083600281111561095e5761095e6112b4565b02179055506040820151805161097e916002840191602090910190611254565b506060820151600382019061099390826117e7565b5060808201516004820180547fffffffffffffffffffffffff0000000000000000000000000000000000000000166001600160a01b0390921691909117905560a0909101516005909101556000805487825260066020526040822081905590806109fc836118a7565b9190505550505050505050565b600060018381548110610a1e57610a1e611766565b90600052602060002090600602016040518060c0016040529081600082015481526020016001820160009054906101000a900460ff166002811115610a6557610a656112b4565b6002811115610a7657610a766112b4565b815260200160028201805480602002602001604051908101604052809291908181526020018280548015610ac957602002820191906000526020600020905b815481526020019060010190808311610ab5575b50505050508152602001600382018054610ae29061172c565b80601f0160208091040260200160405190810160405280929190818152602001828054610b0e9061172c565b8015610b5b5780601f10610b3057610100808354040283529160200191610b5b565b820191906000526020600020905b815481529060010190602001808311610b3e57829003601f168201915b505050918352505060048201546001600160a01b031660208083019190915260059092015460409182015251919250610b969184910161177c565b604051602081830303815290604052805190602001208160a0015114610bfe5760405162461bcd60e51b815260206004820152601760248201527f57726f6e672070617373636f64652070726f76696465640000000000000000006044820152606401610540565b60008381526002602090815260408083203384528252808320805460ff1916600117905585835260039091528120805491610c38836118a7565b9190505550505050565b60008060018381548110610c5857610c58611766565b90600052602060002090600602016040518060c0016040529081600082015481526020016001820160009054906101000a900460ff166002811115610c9f57610c9f6112b4565b6002811115610cb057610cb06112b4565b815260200160028201805480602002602001604051908101604052809291908181526020018280548015610d0357602002820191906000526020600020905b815481526020019060010190808311610cef575b50505050508152602001600382018054610d1c9061172c565b80601f0160208091040260200160405190810160405280929190818152602001828054610d489061172c565b8015610d955780601f10610d6a57610100808354040283529160200191610d95565b820191906000526020600020905b815481529060010190602001808311610d7857829003601f168201915b505050918352505060048201546001600160a01b0390811660208301526005909201546040909101526080909101511633149392505050565b81610dd8816104b8565b80610de75750610de781610c42565b610e255760405162461bcd60e51b815260206004820152600f60248201526e27b7363c9020b236b4b7103ab9b2b960891b6044820152606401610540565b600060018481548110610e3a57610e3a611766565b90600052602060002090600602019050806002018381548110610e5f57610e5f611766565b9060005260206000200154600003610e8c5760028101805460018101825560009182526020909120018390555b50505050565b81610e9c816104b8565b80610eab5750610eab81610c42565b610ee95760405162461bcd60e51b815260206004820152600f60248201526e27b7363c9020b236b4b7103ab9b2b960891b6044820152606401610540565b5060009182526002602090815260408084206001600160a01b0390931684529190529020805460ff19166001179055565b60008060018381548110610f3057610f30611766565b90600052602060002090600602016040518060c0016040529081600082015481526020016001820160009054906101000a900460ff166002811115610f7757610f776112b4565b6002811115610f8857610f886112b4565b815260200160028201805480602002602001604051908101604052809291908181526020018280548015610fdb57602002820191906000526020600020905b815481526020019060010190808311610fc7575b50505050508152602001600382018054610ff49061172c565b80601f01602080910402602001604051908101604052809291908181526020018280546110209061172c565b801561106d5780601f106110425761010080835404028352916020019161106d565b820191906000526020600020905b81548152906001019060200180831161105057829003601f168201915b505050918352505060048201546001600160a01b0316602082015260059091015460409091015290506000816020015160028111156110ae576110ae6112b4565b146111215760405162461bcd60e51b815260206004820152602d60248201527f43616e6e6f74206a6f696e20726573747269637465642073706163652077697460448201527f686f75742070617373636f6465000000000000000000000000000000000000006064820152608401610540565b60008381526002602090815260408083203384528252808320805460ff191660011790558583526003909152812080549161115b836118a7565b909155506001949350505050565b81611173816104b8565b80611182575061118281610c42565b6111c05760405162461bcd60e51b815260206004820152600f60248201526e27b7363c9020b236b4b7103ab9b2b960891b6044820152606401610540565b6000600184815481106111d5576111d5611766565b9060005260206000209060060201905060005b600282015481101561124d578382600201828154811061120a5761120a611766565b90600052602060002001540361123b5781600201818154811061122f5761122f611766565b60009182526020822001555b80611245816118a7565b9150506111e8565b5050505050565b82805482825590600052602060002090810192821561128f579160200282015b8281111561128f578251825591602001919060010190611274565b5061129b92915061129f565b5090565b5b8082111561129b57600081556001016112a0565b634e487b7160e01b600052602160045260246000fd5b600381106112e857634e487b7160e01b600052602160045260246000fd5b9052565b60005b838110156113075781810151838201526020016112ef565b50506000910152565b600081518084526113288160208601602086016112ec565b601f01601f19169290920160200192915050565b600060c0830182518452602080840151611358828701826112ca565b50604084015160c0604087015282815180855260e0880191508383019450600092505b8083101561139b578451825293830193600192909201919083019061137b565b506060860151935086810360608801526113b58185611310565b935050505060808301516113d460808601826001600160a01b03169052565b5060a083015160a08501528091505092915050565b6000602080830181845280855180835260408601915060408160051b870101925083870160005b8281101561143e57603f1988860301845261142c85835161133c565b94509285019290850190600101611410565b5092979650505050505050565b60006020828403121561145d57600080fd5b5035919050565b6000806040838503121561147757600080fd5b8235915060208301356001600160a01b038116811461149557600080fd5b809150509250929050565b6020815260006114b3602083018461133c565b9392505050565b8581526114ca60208201866112ca565b60a0604082015260006114e060a0830186611310565b6001600160a01b0394909416606083015250608001529392505050565b634e487b7160e01b600052604160045260246000fd5b604051601f8201601f1916810167ffffffffffffffff8111828210171561153c5761153c6114fd565b604052919050565b600082601f83011261155557600080fd5b813567ffffffffffffffff81111561156f5761156f6114fd565b611582601f8201601f1916602001611513565b81815284602083860101111561159757600080fd5b816020850160208301376000918101602001919091529392505050565b600080600080600060a086880312156115cc57600080fd5b85359450602080870135600381106115e357600080fd5b9450604087013567ffffffffffffffff8082111561160057600080fd5b818901915089601f83011261161457600080fd5b813581811115611626576116266114fd565b8060051b611635858201611513565b918252838101850191858101908d84111561164f57600080fd5b948601945b8386101561166d57853582529486019490860190611654565b9850505050606089013592508083111561168657600080fd5b6116928a848b01611544565b945060808901359250808311156116a857600080fd5b50506116b688828901611544565b9150509295509295909350565b600080604083850312156116d657600080fd5b82359150602083013567ffffffffffffffff8111156116f457600080fd5b61170085828601611544565b9150509250929050565b6000806040838503121561171d57600080fd5b50508035926020909101359150565b600181811c9082168061174057607f821691505b60208210810361176057634e487b7160e01b600052602260045260246000fd5b50919050565b634e487b7160e01b600052603260045260246000fd5b6000825161178e8184602087016112ec565b9190910192915050565b601f8211156117e257600081815260208120601f850160051c810160208610156117bf5750805b601f850160051c820191505b818110156117de578281556001016117cb565b5050505b505050565b815167ffffffffffffffff811115611801576118016114fd565b6118158161180f845461172c565b84611798565b602080601f83116001811461184a57600084156118325750858301515b600019600386901b1c1916600185901b1785556117de565b600085815260208120601f198616915b828110156118795788860151825594840194600190910190840161185a565b50858210156118975787850151600019600388901b60f8161c191681555b5050505050600190811b01905550565b6000600182016118c757634e487b7160e01b600052601160045260246000fd5b506001019056fea164736f6c6343000811000a",
  "linkReferences": {},
  "deployedLinkReferences": {}
}