{
  "_format": "hh-sol-artifact-1",
  "contractName": "EmbraceApps",
  "sourceName": "contracts/EmbraceApps.sol",
  "abi": [
    {
      "inputs": [],
      "stateMutability": "nonpayable",
      "type": "constructor"
    },
    {
      "inputs": [
        {
          "internalType": "uint256",
          "name": "",
          "type": "uint256"
        }
      ],
      "name": "apps",
      "outputs": [
        {
          "internalType": "uint256",
          "name": "id",
          "type": "uint256"
        },
        {
          "internalType": "string",
          "name": "name",
          "type": "string"
        },
        {
          "internalType": "address",
          "name": "contractAddress",
          "type": "address"
        },
        {
          "internalType": "bool",
          "name": "enabled",
          "type": "bool"
        }
      ],
      "stateMutability": "view",
      "type": "function"
    },
    {
      "inputs": [
        {
          "internalType": "string",
          "name": "_name",
          "type": "string"
        },
        {
          "internalType": "address",
          "name": "_contractAddress",
          "type": "address"
        },
        {
          "internalType": "bool",
          "name": "_enabled",
          "type": "bool"
        }
      ],
      "name": "createApp",
      "outputs": [],
      "stateMutability": "nonpayable",
      "type": "function"
    },
    {
      "inputs": [
        {
          "internalType": "uint128",
          "name": "_appId",
          "type": "uint128"
        }
      ],
      "name": "getAppById",
      "outputs": [
        {
          "components": [
            {
              "internalType": "uint256",
              "name": "id",
              "type": "uint256"
            },
            {
              "internalType": "string",
              "name": "name",
              "type": "string"
            },
            {
              "internalType": "address",
              "name": "contractAddress",
              "type": "address"
            },
            {
              "internalType": "bool",
              "name": "enabled",
              "type": "bool"
            }
          ],
          "internalType": "struct EmbraceApps.App",
          "name": "",
          "type": "tuple"
        }
      ],
      "stateMutability": "view",
      "type": "function"
    },
    {
      "inputs": [
        {
          "internalType": "string",
          "name": "_name",
          "type": "string"
        }
      ],
      "name": "getAppByName",
      "outputs": [
        {
          "components": [
            {
              "internalType": "uint256",
              "name": "id",
              "type": "uint256"
            },
            {
              "internalType": "string",
              "name": "name",
              "type": "string"
            },
            {
              "internalType": "address",
              "name": "contractAddress",
              "type": "address"
            },
            {
              "internalType": "bool",
              "name": "enabled",
              "type": "bool"
            }
          ],
          "internalType": "struct EmbraceApps.App",
          "name": "",
          "type": "tuple"
        }
      ],
      "stateMutability": "view",
      "type": "function"
    },
    {
      "inputs": [],
      "name": "getApps",
      "outputs": [
        {
          "components": [
            {
              "internalType": "uint256",
              "name": "id",
              "type": "uint256"
            },
            {
              "internalType": "string",
              "name": "name",
              "type": "string"
            },
            {
              "internalType": "address",
              "name": "contractAddress",
              "type": "address"
            },
            {
              "internalType": "bool",
              "name": "enabled",
              "type": "bool"
            }
          ],
          "internalType": "struct EmbraceApps.App[]",
          "name": "",
          "type": "tuple[]"
        }
      ],
      "stateMutability": "view",
      "type": "function"
    },
    {
      "inputs": [
        {
          "internalType": "bytes32",
          "name": "",
          "type": "bytes32"
        }
      ],
      "name": "nameToId",
      "outputs": [
        {
          "internalType": "uint256",
          "name": "",
          "type": "uint256"
        }
      ],
      "stateMutability": "view",
      "type": "function"
    },
    {
      "inputs": [],
      "name": "owner",
      "outputs": [
        {
          "internalType": "address",
          "name": "",
          "type": "address"
        }
      ],
      "stateMutability": "view",
      "type": "function"
    },
    {
      "inputs": [
        {
          "internalType": "uint128",
          "name": "_appId",
          "type": "uint128"
        },
        {
          "internalType": "address",
          "name": "_contractAddress",
          "type": "address"
        }
      ],
      "name": "setAppContractAddress",
      "outputs": [],
      "stateMutability": "nonpayable",
      "type": "function"
    }
  ],
  "bytecode": "0x608060405234801561001057600080fd5b5060038054336001600160a01b031990911617905561003a600061003f602090811b61097b17901c565b610048565b80546001019055565b610e6d806100576000396000f3fe608060405234801561001057600080fd5b50600436106100885760003560e01c80637fee31a61161005b5780637fee31a61461010f5780638da5cb5b1461012f578063d66d756d1461015a578063f3d1ce1b1461016f57600080fd5b8063573c22321461008d5780636187fd3e146100a257806361acc37e146100b55780636c86a430146100e1575b600080fd5b6100a061009b366004610a43565b610182565b005b6100a06100b0366004610ac1565b610378565b6100c86100c3366004610af4565b610493565b6040516100d89493929190610b53565b60405180910390f35b6101016100ef366004610af4565b60026020526000908152604090205481565b6040519081526020016100d8565b61012261011d366004610b8d565b610567565b6040516100d89190610c14565b600354610142906001600160a01b031681565b6040516001600160a01b0390911681526020016100d8565b610162610704565b6040516100d89190610c2e565b61012261017d366004610c90565b61082f565b6003546001600160a01b031633146101ec5760405162461bcd60e51b815260206004820152602260248201527f4f6e6c79206f776e65722063616e2063616c6c20746869732066756e6374696f604482015261371760f11b60648201526084015b60405180910390fd5b826002600082805190602001208152602001908152602001600020546000146102575760405162461bcd60e51b815260206004820152601860248201527f417070206e616d6520616c7265616479206578697374732e000000000000000060448201526064016101e3565b6000805460408051608081018252828152602081018881526001600160a01b0388169282019290925285151560608201526001805480820182559452805160039094027fb10e2d527612073b26eecdfd717e6a320cf44b4afac2b0732d9fcbe2b7fa0cf6810194855591519293909283927fb10e2d527612073b26eecdfd717e6a320cf44b4afac2b0732d9fcbe2b7fa0cf701906102f59082610d34565b506040820151600290910180546060909301511515600160a01b027fffffffffffffffffffffff0000000000000000000000000000000000000000009093166001600160a01b0390921691909117919091179055610357600080546001019055565b50845160209586012060009081526002909552604090942093909355505050565b6003546001600160a01b031633146103dd5760405162461bcd60e51b815260206004820152602260248201527f4f6e6c79206f776e65722063616e2063616c6c20746869732066756e6374696f604482015261371760f11b60648201526084016101e3565b6001600160801b038216156104345760405162461bcd60e51b815260206004820152601360248201527f41707020646f6573206e6f742065786973742e0000000000000000000000000060448201526064016101e3565b8060016104418185610e0a565b6001600160801b03168154811061045a5761045a610e31565b906000526020600020906003020160020160006101000a8154816001600160a01b0302191690836001600160a01b031602179055505050565b600181815481106104a357600080fd5b600091825260209091206003909102018054600182018054919350906104c890610cab565b80601f01602080910402602001604051908101604052809291908181526020018280546104f490610cab565b80156105415780601f1061051657610100808354040283529160200191610541565b820191906000526020600020905b81548152906001019060200180831161052457829003601f168201915b505050600290930154919250506001600160a01b0381169060ff600160a01b9091041684565b61059d6040518060800160405280600081526020016060815260200160006001600160a01b031681526020016000151581525090565b815160208084019190912060009081526002909152604090205480156106bc5760016105c98183610e47565b815481106105d9576105d9610e31565b90600052602060002090600302016040518060800160405290816000820154815260200160018201805461060c90610cab565b80601f016020809104026020016040519081016040528092919081815260200182805461063890610cab565b80156106855780601f1061065a57610100808354040283529160200191610685565b820191906000526020600020905b81548152906001019060200180831161066857829003601f168201915b5050509183525050600291909101546001600160a01b0381166020830152600160a01b900460ff1615156040909101529392505050565b60405162461bcd60e51b815260206004820152600e60248201527f417070206e6f7420666f756e642e00000000000000000000000000000000000060448201526064016101e3565b60606001805480602002602001604051908101604052809291908181526020016000905b8282101561082657838290600052602060002090600302016040518060800160405290816000820154815260200160018201805461076590610cab565b80601f016020809104026020016040519081016040528092919081815260200182805461079190610cab565b80156107de5780601f106107b3576101008083540402835291602001916107de565b820191906000526020600020905b8154815290600101906020018083116107c157829003601f168201915b5050509183525050600291909101546001600160a01b038116602080840191909152600160a01b90910460ff1615156040909201919091529082526001929092019101610728565b50505050905090565b6108656040518060800160405280600081526020016060815260200160006001600160a01b031681526020016000151581525090565b6001600160801b038216156106bc5760016108808184610e0a565b6001600160801b03168154811061089957610899610e31565b9060005260206000209060030201604051806080016040529081600082015481526020016001820180546108cc90610cab565b80601f01602080910402602001604051908101604052809291908181526020018280546108f890610cab565b80156109455780601f1061091a57610100808354040283529160200191610945565b820191906000526020600020905b81548152906001019060200180831161092857829003601f168201915b5050509183525050600291909101546001600160a01b0381166020830152600160a01b900460ff16151560409091015292915050565b80546001019055565b634e487b7160e01b600052604160045260246000fd5b600082601f8301126109ab57600080fd5b813567ffffffffffffffff808211156109c6576109c6610984565b604051601f8301601f19908116603f011681019082821181831017156109ee576109ee610984565b81604052838152866020858801011115610a0757600080fd5b836020870160208301376000602085830101528094505050505092915050565b80356001600160a01b0381168114610a3e57600080fd5b919050565b600080600060608486031215610a5857600080fd5b833567ffffffffffffffff811115610a6f57600080fd5b610a7b8682870161099a565b935050610a8a60208501610a27565b915060408401358015158114610a9f57600080fd5b809150509250925092565b80356001600160801b0381168114610a3e57600080fd5b60008060408385031215610ad457600080fd5b610add83610aaa565b9150610aeb60208401610a27565b90509250929050565b600060208284031215610b0657600080fd5b5035919050565b6000815180845260005b81811015610b3357602081850181015186830182015201610b17565b506000602082860101526020601f19601f83011685010191505092915050565b848152608060208201526000610b6c6080830186610b0d565b6001600160a01b039490941660408301525090151560609091015292915050565b600060208284031215610b9f57600080fd5b813567ffffffffffffffff811115610bb657600080fd5b610bc28482850161099a565b949350505050565b805182526000602082015160806020850152610be96080850182610b0d565b90506001600160a01b0360408401511660408501526060830151151560608501528091505092915050565b602081526000610c276020830184610bca565b9392505050565b6000602080830181845280855180835260408601915060408160051b870101925083870160005b82811015610c8357603f19888603018452610c71858351610bca565b94509285019290850190600101610c55565b5092979650505050505050565b600060208284031215610ca257600080fd5b610c2782610aaa565b600181811c90821680610cbf57607f821691505b602082108103610cdf57634e487b7160e01b600052602260045260246000fd5b50919050565b601f821115610d2f57600081815260208120601f850160051c81016020861015610d0c5750805b601f850160051c820191505b81811015610d2b57828155600101610d18565b5050505b505050565b815167ffffffffffffffff811115610d4e57610d4e610984565b610d6281610d5c8454610cab565b84610ce5565b602080601f831160018114610d975760008415610d7f5750858301515b600019600386901b1c1916600185901b178555610d2b565b600085815260208120601f198616915b82811015610dc657888601518255948401946001909101908401610da7565b5085821015610de45787850151600019600388901b60f8161c191681555b5050505050600190811b01905550565b634e487b7160e01b600052601160045260246000fd5b6001600160801b03828116828216039080821115610e2a57610e2a610df4565b5092915050565b634e487b7160e01b600052603260045260246000fd5b81810381811115610e5a57610e5a610df4565b9291505056fea164736f6c6343000811000a",
  "linkReferences": {},
  "deployedLinkReferences": {}
}