{
  "_format": "hh-sol-artifact-1",
  "contractName": "EmbraceSpaces",
  "sourceName": "contracts/EmbraceSpaces.sol",
  "abi": [
    {
      "inputs": [
        {
          "internalType": "address",
          "name": "_accountsAddress",
          "type": "address"
        }
      ],
      "stateMutability": "nonpayable",
      "type": "constructor"
    },
    {
      "inputs": [
        {
          "internalType": "uint256",
          "name": "_spaceIndex",
          "type": "uint256"
        },
        {
          "internalType": "uint128",
          "name": "_appIndex",
          "type": "uint128"
        }
      ],
      "name": "addApp",
      "outputs": [],
      "stateMutability": "nonpayable",
      "type": "function"
    },
    {
      "inputs": [
        {
          "internalType": "uint256",
          "name": "_spaceIndex",
          "type": "uint256"
        },
        {
          "internalType": "address",
          "name": "_admin",
          "type": "address"
        }
      ],
      "name": "addSpaceAdmin",
      "outputs": [],
      "stateMutability": "nonpayable",
      "type": "function"
    },
    {
      "inputs": [
        {
          "internalType": "uint256",
          "name": "_spaceIndex",
          "type": "uint256"
        },
        {
          "internalType": "address",
          "name": "_member",
          "type": "address"
        }
      ],
      "name": "addSpaceMember",
      "outputs": [],
      "stateMutability": "nonpayable",
      "type": "function"
    },
    {
      "inputs": [
        {
          "internalType": "bytes32",
          "name": "_handle",
          "type": "bytes32"
        },
        {
          "internalType": "enum EmbraceSpaces.Visibility",
          "name": "_visibility",
          "type": "uint8"
        },
        {
          "internalType": "uint128[]",
          "name": "_apps",
          "type": "uint128[]"
        },
        {
          "internalType": "string",
          "name": "_metadata",
          "type": "string"
        }
      ],
      "name": "createSpace",
      "outputs": [],
      "stateMutability": "nonpayable",
      "type": "function"
    },
    {
      "inputs": [
        {
          "internalType": "bytes32",
          "name": "_handle",
          "type": "bytes32"
        }
      ],
      "name": "getIdFromHandle",
      "outputs": [
        {
          "internalType": "uint256",
          "name": "",
          "type": "uint256"
        }
      ],
      "stateMutability": "view",
      "type": "function"
    },
    {
      "inputs": [
        {
          "internalType": "uint256",
          "name": "_spaceIndex",
          "type": "uint256"
        }
      ],
      "name": "getSpace",
      "outputs": [
        {
          "components": [
            {
              "internalType": "uint256",
              "name": "index",
              "type": "uint256"
            },
            {
              "internalType": "bytes32",
              "name": "handle",
              "type": "bytes32"
            },
            {
              "internalType": "enum EmbraceSpaces.Visibility",
              "name": "visibility",
              "type": "uint8"
            },
            {
              "internalType": "uint128[]",
              "name": "apps",
              "type": "uint128[]"
            },
            {
              "internalType": "string",
              "name": "metadata",
              "type": "string"
            },
            {
              "internalType": "address",
              "name": "founder",
              "type": "address"
            }
          ],
          "internalType": "struct EmbraceSpaces.Space",
          "name": "",
          "type": "tuple"
        }
      ],
      "stateMutability": "view",
      "type": "function"
    },
    {
      "inputs": [],
      "name": "getSpaces",
      "outputs": [
        {
          "components": [
            {
              "internalType": "uint256",
              "name": "index",
              "type": "uint256"
            },
            {
              "internalType": "bytes32",
              "name": "handle",
              "type": "bytes32"
            },
            {
              "internalType": "enum EmbraceSpaces.Visibility",
              "name": "visibility",
              "type": "uint8"
            },
            {
              "internalType": "uint128[]",
              "name": "apps",
              "type": "uint128[]"
            },
            {
              "internalType": "string",
              "name": "metadata",
              "type": "string"
            },
            {
              "internalType": "address",
              "name": "founder",
              "type": "address"
            }
          ],
          "internalType": "struct EmbraceSpaces.Space[]",
          "name": "",
          "type": "tuple[]"
        }
      ],
      "stateMutability": "view",
      "type": "function"
    },
    {
      "inputs": [
        {
          "internalType": "uint256",
          "name": "_spaceIndex",
          "type": "uint256"
        }
      ],
      "name": "isAdmin",
      "outputs": [
        {
          "internalType": "bool",
          "name": "",
          "type": "bool"
        }
      ],
      "stateMutability": "view",
      "type": "function"
    },
    {
      "inputs": [
        {
          "internalType": "uint256",
          "name": "_spaceIndex",
          "type": "uint256"
        }
      ],
      "name": "isFounder",
      "outputs": [
        {
          "internalType": "bool",
          "name": "",
          "type": "bool"
        }
      ],
      "stateMutability": "view",
      "type": "function"
    },
    {
      "inputs": [
        {
          "internalType": "uint256",
          "name": "_spaceIndex",
          "type": "uint256"
        }
      ],
      "name": "joinPublicSpace",
      "outputs": [
        {
          "internalType": "bool",
          "name": "",
          "type": "bool"
        }
      ],
      "stateMutability": "nonpayable",
      "type": "function"
    },
    {
      "inputs": [
        {
          "internalType": "uint256",
          "name": "_spaceIndex",
          "type": "uint256"
        },
        {
          "internalType": "uint256",
          "name": "_appIndex",
          "type": "uint256"
        }
      ],
      "name": "removeApp",
      "outputs": [],
      "stateMutability": "nonpayable",
      "type": "function"
    },
    {
      "inputs": [
        {
          "internalType": "uint256",
          "name": "",
          "type": "uint256"
        }
      ],
      "name": "spaceAdminLength",
      "outputs": [
        {
          "internalType": "uint256",
          "name": "",
          "type": "uint256"
        }
      ],
      "stateMutability": "view",
      "type": "function"
    },
    {
      "inputs": [
        {
          "internalType": "uint256",
          "name": "",
          "type": "uint256"
        },
        {
          "internalType": "address",
          "name": "",
          "type": "address"
        }
      ],
      "name": "spaceAdmins",
      "outputs": [
        {
          "internalType": "bool",
          "name": "",
          "type": "bool"
        }
      ],
      "stateMutability": "view",
      "type": "function"
    },
    {
      "inputs": [
        {
          "internalType": "bytes32",
          "name": "",
          "type": "bytes32"
        }
      ],
      "name": "spaceHandles",
      "outputs": [
        {
          "internalType": "uint256",
          "name": "",
          "type": "uint256"
        }
      ],
      "stateMutability": "view",
      "type": "function"
    },
    {
      "inputs": [
        {
          "internalType": "uint256",
          "name": "",
          "type": "uint256"
        }
      ],
      "name": "spaceMemberLength",
      "outputs": [
        {
          "internalType": "uint256",
          "name": "",
          "type": "uint256"
        }
      ],
      "stateMutability": "view",
      "type": "function"
    },
    {
      "inputs": [
        {
          "internalType": "uint256",
          "name": "",
          "type": "uint256"
        },
        {
          "internalType": "address",
          "name": "",
          "type": "address"
        }
      ],
      "name": "spaceMembers",
      "outputs": [
        {
          "internalType": "bool",
          "name": "",
          "type": "bool"
        }
      ],
      "stateMutability": "view",
      "type": "function"
    },
    {
      "inputs": [
        {
          "internalType": "uint256",
          "name": "",
          "type": "uint256"
        }
      ],
      "name": "spaces",
      "outputs": [
        {
          "internalType": "uint256",
          "name": "index",
          "type": "uint256"
        },
        {
          "internalType": "bytes32",
          "name": "handle",
          "type": "bytes32"
        },
        {
          "internalType": "enum EmbraceSpaces.Visibility",
          "name": "visibility",
          "type": "uint8"
        },
        {
          "internalType": "string",
          "name": "metadata",
          "type": "string"
        },
        {
          "internalType": "address",
          "name": "founder",
          "type": "address"
        }
      ],
      "stateMutability": "view",
      "type": "function"
    }
  ],
  "bytecode": "0x60806040526000805534801561001457600080fd5b5060405161198038038061198083398101604081905261003391610058565b600280546001600160a01b0319166001600160a01b0392909216919091179055610088565b60006020828403121561006a57600080fd5b81516001600160a01b038116811461008157600080fd5b9392505050565b6118e9806100976000396000f3fe608060405234801561001057600080fd5b506004361061011b5760003560e01c806370e10431116100b2578063a303cf8e11610081578063e08a158511610066578063e08a1585146102dd578063e3aa3ecc146102f0578063f71771281461030357600080fd5b8063a303cf8e1461029c578063af41f22a146102af57600080fd5b806370e104311461020a5780637586353b1461022a57806385fe80c91461024e5780638eb6a4241461026e57600080fd5b80633254c1f6116100ee5780633254c1f61461018957806333d7ae40146101b75780633a6eb955146101d75780633e3579f0146101f757600080fd5b8063036f0e161461012057806315478ca9146101355780631f6dc43714610153578063226d45fb14610176575b600080fd5b61013361012e366004611317565b610316565b005b61013d61042a565b60405161014a9190611474565b60405180910390f35b6101666101613660046114d6565b610608565b604051901515815260200161014a565b6101336101843660046115a6565b61063e565b6101a96101973660046114d6565b60076020526000908152604090205481565b60405190815260200161014a565b6101a96101c53660046114d6565b60046020526000908152604090205481565b6101a96101e53660046114d6565b60009081526007602052604090205490565b610133610205366004611697565b610890565b61021d6102183660046114d6565b610917565b60405161014a91906116d3565b61023d6102383660046114d6565b610af8565b60405161014a9594939291906116ed565b6101a961025c3660046114d6565b60066020526000908152604090205481565b61016661027c366004611697565b600560209081526000928352604080842090915290825290205460ff1681565b6101666102aa3660046114d6565b610bd3565b6101666102bd366004611697565b600360209081526000928352604080842090915290825290205460ff1681565b6101336102eb366004611697565b610d95565b6101666102fe3660046114d6565b610e1d565b610133610311366004611734565b611107565b8161032081610608565b8061032f575061032f81610bd3565b6103725760405162461bcd60e51b815260206004820152600f60248201526e27b7363c9020b236b4b7103ab9b2b960891b60448201526064015b60405180910390fd5b60006001848154811061038757610387611756565b9060005260206000209060060201905080600301836001600160801b0316815481106103b5576103b5611756565b60009182526020822060028204015460019091166010026101000a90046001600160801b0316900361042457600381018054600180820183556000928352602090922060028204018054929091166010026101000a6001600160801b0381810219909316928616029190911790555b50505050565b60606001805480602002602001604051908101604052809291908181526020016000905b828210156105ff57838290600052602060002090600602016040518060c001604052908160008201548152602001600182015481526020016002820160009054906101000a900460ff1660028111156104a9576104a9611343565b60028111156104ba576104ba611343565b81526020016003820180548060200260200160405190810160405280929190818152602001828054801561053f57602002820191906000526020600020906000905b82829054906101000a90046001600160801b03166001600160801b031681526020019060100190602082600f010492830192600103820291508084116104fc5790505b505050505081526020016004820180546105589061176c565b80601f01602080910402602001604051908101604052809291908181526020018280546105849061176c565b80156105d15780601f106105a6576101008083540402835291602001916105d1565b820191906000526020600020905b8154815290600101906020018083116105b457829003601f168201915b5050509183525050600591909101546001600160a01b0316602091820152908252600192909201910161044e565b50505050905090565b600081815260056020908152604080832033845290915281205460ff16151560010361063657506001919050565b506000919050565b6000848152600760205260409020541561069a5760405162461bcd60e51b815260206004820152601560248201527f48616e646c6520616c72656164792065786973747300000000000000000000006044820152606401610369565b60006040518060c0016040528060005481526020018681526020018560028111156106c7576106c7611343565b815260208082018690526040808301869052336060909301929092526001805480820182556000829052845160069091027fb10e2d527612073b26eecdfd717e6a320cf44b4afac2b0732d9fcbe2b7fa0cf68101918255928501517fb10e2d527612073b26eecdfd717e6a320cf44b4afac2b0732d9fcbe2b7fa0cf7840155928401517fb10e2d527612073b26eecdfd717e6a320cf44b4afac2b0732d9fcbe2b7fa0cf890920180549495508594909160ff199091169083600281111561079057610790611343565b0217905550606082015180516107b091600384019160209091019061122e565b50608082015160048201906107c590826117f5565b5060a09190910151600590910180547fffffffffffffffffffffffff0000000000000000000000000000000000000000166001600160a01b039283161790556000805487825260076020526040918290208190556002549151630355c65d60e41b8152600481019190915233602482015291169063355c65d090604401600060405180830381600087803b15801561085c57600080fd5b505af1158015610870573d6000803e3d6000fd5b5050600080549250905080610884836118b5565b91905055505050505050565b8161089a81610bd3565b6108e65760405162461bcd60e51b815260206004820152600c60248201527f4f6e6c7920666f756e64657200000000000000000000000000000000000000006044820152606401610369565b5060009182526005602090815260408084206001600160a01b0390931684529190529020805460ff19166001179055565b6040805160c0810182526000808252602082018190529181018290526060808201819052608082015260a08101919091526001828154811061095b5761095b611756565b90600052602060002090600602016040518060c001604052908160008201548152602001600182015481526020016002820160009054906101000a900460ff1660028111156109ac576109ac611343565b60028111156109bd576109bd611343565b815260200160038201805480602002602001604051908101604052809291908181526020018280548015610a4257602002820191906000526020600020906000905b82829054906101000a90046001600160801b03166001600160801b031681526020019060100190602082600f010492830192600103820291508084116109ff5790505b50505050508152602001600482018054610a5b9061176c565b80601f0160208091040260200160405190810160405280929190818152602001828054610a879061176c565b8015610ad45780601f10610aa957610100808354040283529160200191610ad4565b820191906000526020600020905b815481529060010190602001808311610ab757829003601f168201915b5050509183525050600591909101546001600160a01b031660209091015292915050565b60018181548110610b0857600080fd5b60009182526020909120600690910201805460018201546002830154600484018054939550919360ff90911692909190610b419061176c565b80601f0160208091040260200160405190810160405280929190818152602001828054610b6d9061176c565b8015610bba5780601f10610b8f57610100808354040283529160200191610bba565b820191906000526020600020905b815481529060010190602001808311610b9d57829003601f168201915b505050600590930154919250506001600160a01b031685565b60008060018381548110610be957610be9611756565b90600052602060002090600602016040518060c001604052908160008201548152602001600182015481526020016002820160009054906101000a900460ff166002811115610c3a57610c3a611343565b6002811115610c4b57610c4b611343565b815260200160038201805480602002602001604051908101604052809291908181526020018280548015610cd057602002820191906000526020600020906000905b82829054906101000a90046001600160801b03166001600160801b031681526020019060100190602082600f01049283019260010382029150808411610c8d5790505b50505050508152602001600482018054610ce99061176c565b80601f0160208091040260200160405190810160405280929190818152602001828054610d159061176c565b8015610d625780601f10610d3757610100808354040283529160200191610d62565b820191906000526020600020905b815481529060010190602001808311610d4557829003601f168201915b5050509183525050600591909101546001600160a01b0390811660209092019190915260a0909101511633149392505050565b81610d9f81610608565b80610dae5750610dae81610bd3565b610dec5760405162461bcd60e51b815260206004820152600f60248201526e27b7363c9020b236b4b7103ab9b2b960891b6044820152606401610369565b5060009182526003602090815260408084206001600160a01b0390931684529190529020805460ff19166001179055565b60008060018381548110610e3357610e33611756565b90600052602060002090600602016040518060c001604052908160008201548152602001600182015481526020016002820160009054906101000a900460ff166002811115610e8457610e84611343565b6002811115610e9557610e95611343565b815260200160038201805480602002602001604051908101604052809291908181526020018280548015610f1a57602002820191906000526020600020906000905b82829054906101000a90046001600160801b03166001600160801b031681526020019060100190602082600f01049283019260010382029150808411610ed75790505b50505050508152602001600482018054610f339061176c565b80601f0160208091040260200160405190810160405280929190818152602001828054610f5f9061176c565b8015610fac5780601f10610f8157610100808354040283529160200191610fac565b820191906000526020600020905b815481529060010190602001808311610f8f57829003601f168201915b5050509183525050600591909101546001600160a01b03166020909101529050600081604001516002811115610fe457610fe4611343565b146110575760405162461bcd60e51b815260206004820152602d60248201527f43616e6e6f74206a6f696e20726573747269637465642073706163652077697460448201527f686f75742070617373636f6465000000000000000000000000000000000000006064820152608401610369565b60008381526003602090815260408083203384528252808320805460ff1916600117905585835260049091528120805491611091836118b5565b9091555050600254600054604051630355c65d60e41b815260048101919091523360248201526001600160a01b039091169063355c65d090604401600060405180830381600087803b1580156110e657600080fd5b505af11580156110fa573d6000803e3d6000fd5b5060019695505050505050565b8161111181610608565b80611120575061112081610bd3565b61115e5760405162461bcd60e51b815260206004820152600f60248201526e27b7363c9020b236b4b7103ab9b2b960891b6044820152606401610369565b60006001848154811061117357611173611756565b9060005260206000209060060201905060005b600382015481101561122757838260030182815481106111a8576111a8611756565b6000918252602090912060028204015460019091166010026101000a90046001600160801b031603611215578160030181815481106111e9576111e9611756565b90600052602060002090600291828204019190066010026101000a8154906001600160801b0302191690555b8061121f816118b5565b915050611186565b5050505050565b828054828255906000526020600020906001016002900481019282156112d65791602002820160005b838211156112a157835183826101000a8154816001600160801b0302191690836001600160801b031602179055509260200192601001602081600f01049283019260010302611257565b80156112d45782816101000a8154906001600160801b030219169055601001602081600f010492830192600103026112a1565b505b506112e29291506112e6565b5090565b5b808211156112e257600081556001016112e7565b80356001600160801b038116811461131257600080fd5b919050565b6000806040838503121561132a57600080fd5b8235915061133a602084016112fb565b90509250929050565b634e487b7160e01b600052602160045260246000fd5b6003811061137757634e487b7160e01b600052602160045260246000fd5b9052565b6000815180845260005b818110156113a157602081850181015186830182015201611385565b506000602082860101526020601f19601f83011685010191505092915050565b600060c08301825184526020808401518186015260408401516113e76040870182611359565b50606084015160c0606087015282815180855260e0880191508383019450600092505b808310156114335784516001600160801b0316825293830193600192909201919083019061140a565b5060808601519350868103608088015261144d818561137b565b935050505060a083015161146c60a08601826001600160a01b03169052565b509392505050565b6000602080830181845280855180835260408601915060408160051b870101925083870160005b828110156114c957603f198886030184526114b78583516113c1565b9450928501929085019060010161149b565b5092979650505050505050565b6000602082840312156114e857600080fd5b5035919050565b634e487b7160e01b600052604160045260246000fd5b604051601f8201601f1916810167ffffffffffffffff8111828210171561152e5761152e6114ef565b604052919050565b600082601f83011261154757600080fd5b813567ffffffffffffffff811115611561576115616114ef565b611574601f8201601f1916602001611505565b81815284602083860101111561158957600080fd5b816020850160208301376000918101602001919091529392505050565b600080600080608085870312156115bc57600080fd5b84359350602080860135600381106115d357600080fd5b9350604086013567ffffffffffffffff808211156115f057600080fd5b818801915088601f83011261160457600080fd5b813581811115611616576116166114ef565b8060051b611625858201611505565b918252838101850191858101908c84111561163f57600080fd5b948601945b8386101561166457611655866112fb565b82529486019490860190611644565b9750505050606088013592508083111561167d57600080fd5b505061168b87828801611536565b91505092959194509250565b600080604083850312156116aa57600080fd5b8235915060208301356001600160a01b03811681146116c857600080fd5b809150509250929050565b6020815260006116e660208301846113c1565b9392505050565b8581528460208201526117036040820185611359565b60a06060820152600061171960a083018561137b565b90506001600160a01b03831660808301529695505050505050565b6000806040838503121561174757600080fd5b50508035926020909101359150565b634e487b7160e01b600052603260045260246000fd5b600181811c9082168061178057607f821691505b6020821081036117a057634e487b7160e01b600052602260045260246000fd5b50919050565b601f8211156117f057600081815260208120601f850160051c810160208610156117cd5750805b601f850160051c820191505b818110156117ec578281556001016117d9565b5050505b505050565b815167ffffffffffffffff81111561180f5761180f6114ef565b6118238161181d845461176c565b846117a6565b602080601f83116001811461185857600084156118405750858301515b600019600386901b1c1916600185901b1785556117ec565b600085815260208120601f198616915b8281101561188757888601518255948401946001909101908401611868565b50858210156118a55787850151600019600388901b60f8161c191681555b5050505050600190811b01905550565b6000600182016118d557634e487b7160e01b600052601160045260246000fd5b506001019056fea164736f6c6343000811000a",
  "linkReferences": {},
  "deployedLinkReferences": {}
}