{
  "_format": "hh-sol-artifact-1",
  "contractName": "EmbraceApps",
  "sourceName": "contracts/EmbraceApps.sol",
  "abi": [
    {
      "inputs": [],
      "stateMutability": "nonpayable",
      "type": "constructor"
    },
    {
      "inputs": [
        {
          "internalType": "uint256",
          "name": "",
          "type": "uint256"
        }
      ],
      "name": "apps",
      "outputs": [
        {
          "internalType": "uint256",
          "name": "id",
          "type": "uint256"
        },
        {
          "internalType": "string",
          "name": "name",
          "type": "string"
        },
        {
          "internalType": "address",
          "name": "contractAddress",
          "type": "address"
        },
        {
          "internalType": "bool",
          "name": "enabled",
          "type": "bool"
        }
      ],
      "stateMutability": "view",
      "type": "function"
    },
    {
      "inputs": [
        {
          "internalType": "string",
          "name": "_name",
          "type": "string"
        },
        {
          "internalType": "address",
          "name": "_contractAddress",
          "type": "address"
        },
        {
          "internalType": "bool",
          "name": "_enabled",
          "type": "bool"
        }
      ],
      "name": "createApp",
      "outputs": [],
      "stateMutability": "nonpayable",
      "type": "function"
    },
    {
      "inputs": [
        {
          "internalType": "uint128",
          "name": "_appId",
          "type": "uint128"
        }
      ],
      "name": "getAppById",
      "outputs": [
        {
          "components": [
            {
              "internalType": "uint256",
              "name": "id",
              "type": "uint256"
            },
            {
              "internalType": "string",
              "name": "name",
              "type": "string"
            },
            {
              "internalType": "address",
              "name": "contractAddress",
              "type": "address"
            },
            {
              "internalType": "bool",
              "name": "enabled",
              "type": "bool"
            }
          ],
          "internalType": "struct EmbraceApps.App",
          "name": "",
          "type": "tuple"
        }
      ],
      "stateMutability": "view",
      "type": "function"
    },
    {
      "inputs": [
        {
          "internalType": "string",
          "name": "_name",
          "type": "string"
        }
      ],
      "name": "getAppByName",
      "outputs": [
        {
          "components": [
            {
              "internalType": "uint256",
              "name": "id",
              "type": "uint256"
            },
            {
              "internalType": "string",
              "name": "name",
              "type": "string"
            },
            {
              "internalType": "address",
              "name": "contractAddress",
              "type": "address"
            },
            {
              "internalType": "bool",
              "name": "enabled",
              "type": "bool"
            }
          ],
          "internalType": "struct EmbraceApps.App",
          "name": "",
          "type": "tuple"
        }
      ],
      "stateMutability": "view",
      "type": "function"
    },
    {
      "inputs": [],
      "name": "getApps",
      "outputs": [
        {
          "components": [
            {
              "internalType": "uint256",
              "name": "id",
              "type": "uint256"
            },
            {
              "internalType": "string",
              "name": "name",
              "type": "string"
            },
            {
              "internalType": "address",
              "name": "contractAddress",
              "type": "address"
            },
            {
              "internalType": "bool",
              "name": "enabled",
              "type": "bool"
            }
          ],
          "internalType": "struct EmbraceApps.App[]",
          "name": "",
          "type": "tuple[]"
        }
      ],
      "stateMutability": "view",
      "type": "function"
    },
    {
      "inputs": [
        {
          "internalType": "bytes32",
          "name": "",
          "type": "bytes32"
        }
      ],
      "name": "nameToId",
      "outputs": [
        {
          "internalType": "uint256",
          "name": "",
          "type": "uint256"
        }
      ],
      "stateMutability": "view",
      "type": "function"
    },
    {
      "inputs": [],
      "name": "owner",
      "outputs": [
        {
          "internalType": "address",
          "name": "",
          "type": "address"
        }
      ],
      "stateMutability": "view",
      "type": "function"
    },
    {
      "inputs": [
        {
          "internalType": "uint128",
          "name": "_appId",
          "type": "uint128"
        },
        {
          "internalType": "address",
          "name": "_contractAddress",
          "type": "address"
        }
      ],
      "name": "setAppContractAddress",
      "outputs": [],
      "stateMutability": "nonpayable",
      "type": "function"
    },
    {
      "inputs": [
        {
          "internalType": "uint256",
          "name": "",
          "type": "uint256"
        },
        {
          "internalType": "uint256",
          "name": "",
          "type": "uint256"
        }
      ],
      "name": "spaceToAppIdToSpaceApp",
      "outputs": [
        {
          "internalType": "uint256",
          "name": "appId",
          "type": "uint256"
        },
        {
          "internalType": "string",
          "name": "name",
          "type": "string"
        },
        {
          "internalType": "address",
          "name": "contractAddress",
          "type": "address"
        },
        {
          "internalType": "string",
          "name": "metadata",
          "type": "string"
        }
      ],
      "stateMutability": "view",
      "type": "function"
    },
    {
      "inputs": [
        {
          "internalType": "uint256",
          "name": "",
          "type": "uint256"
        },
        {
          "internalType": "uint256",
          "name": "",
          "type": "uint256"
        }
      ],
      "name": "spaceToAppIds",
      "outputs": [
        {
          "internalType": "uint256",
          "name": "",
          "type": "uint256"
        }
      ],
      "stateMutability": "view",
      "type": "function"
    }
  ],
  "bytecode": "0x608060405234801561001057600080fd5b5060058054336001600160a01b031990911617905561003a600061003f602090811b610a3917901c565b610048565b80546001019055565b611002806100576000396000f3fe608060405234801561001057600080fd5b506004361061008e5760003560e01c80634154b88414610093578063573c2232146100bf5780636187fd3e146100d457806361acc37e146100e75780636c86a4301461010a5780637fee31a6146101385780638bf62e71146101585780638da5cb5b1461016b578063d66d756d14610196578063f3d1ce1b146101ab575b600080fd5b6100a66100a1366004610a75565b6101be565b6040516100b69493929190610add565b60405180910390f35b6100d26100cd366004610be0565b610311565b005b6100d26100e2366004610c5d565b6104b3565b6100fa6100f5366004610c90565b61058b565b6040516100b69493929190610ca9565b61012a610118366004610c90565b60026020526000908152604090205481565b6040519081526020016100b6565b61014b610146366004610ce3565b61065f565b6040516100b69190610d68565b61012a610166366004610a75565b6107bf565b60055461017e906001600160a01b031681565b6040516001600160a01b0390911681526020016100b6565b61019e6107f0565b6040516100b69190610d82565b61014b6101b9366004610de4565b61091b565b6004602090815260009283526040808420909152908252902080546001820180549192916101eb90610dff565b80601f016020809104026020016040519081016040528092919081815260200182805461021790610dff565b80156102645780601f1061023957610100808354040283529160200191610264565b820191906000526020600020905b81548152906001019060200180831161024757829003601f168201915b505050600284015460038501805494956001600160a01b0390921694919350915061028e90610dff565b80601f01602080910402602001604051908101604052809291908181526020018280546102ba90610dff565b80156103075780601f106102dc57610100808354040283529160200191610307565b820191906000526020600020905b8154815290600101906020018083116102ea57829003601f168201915b5050505050905084565b6005546001600160a01b031633146103445760405162461bcd60e51b815260040161033b90610e39565b60405180910390fd5b826002600082805190602001208152602001908152602001600020546000146103aa5760405162461bcd60e51b815260206004820152601860248201527720b838103730b6b29030b63932b0b23c9032bc34b9ba399760411b604482015260640161033b565b6000805460408051608081018252828152602081018881526001600160a01b0388169282019290925285151560608201526001805480820182559452805160039094027fb10e2d527612073b26eecdfd717e6a320cf44b4afac2b0732d9fcbe2b7fa0cf6810194855591519293909283927fb10e2d527612073b26eecdfd717e6a320cf44b4afac2b0732d9fcbe2b7fa0cf701906104489082610eca565b506040820151600290910180546060909301511515600160a01b026001600160a81b03199093166001600160a01b0390921691909117919091179055610492600080546001019055565b50845160209586012060009081526002909552604090942093909355505050565b6005546001600160a01b031633146104dd5760405162461bcd60e51b815260040161033b90610e39565b6000826001600160801b03161161052c5760405162461bcd60e51b815260206004820152601360248201527220b838103237b2b9903737ba1032bc34b9ba1760691b604482015260640161033b565b8060016105398185610f9f565b6001600160801b03168154811061055257610552610fc6565b906000526020600020906003020160020160006101000a8154816001600160a01b0302191690836001600160a01b031602179055505050565b6001818154811061059b57600080fd5b600091825260209091206003909102018054600182018054919350906105c090610dff565b80601f01602080910402602001604051908101604052809291908181526020018280546105ec90610dff565b80156106395780601f1061060e57610100808354040283529160200191610639565b820191906000526020600020905b81548152906001019060200180831161061c57829003601f168201915b505050600290930154919250506001600160a01b0381169060ff600160a01b9091041684565b610667610a42565b815160208084019190912060009081526002909152604090205480156107865760016106938183610fdc565b815481106106a3576106a3610fc6565b9060005260206000209060030201604051806080016040529081600082015481526020016001820180546106d690610dff565b80601f016020809104026020016040519081016040528092919081815260200182805461070290610dff565b801561074f5780601f106107245761010080835404028352916020019161074f565b820191906000526020600020905b81548152906001019060200180831161073257829003601f168201915b5050509183525050600291909101546001600160a01b0381166020830152600160a01b900460ff1615156040909101529392505050565b60405162461bcd60e51b815260206004820152600e60248201526d20b838103737ba103337bab7321760911b604482015260640161033b565b600360205281600052604060002081815481106107db57600080fd5b90600052602060002001600091509150505481565b60606001805480602002602001604051908101604052809291908181526020016000905b8282101561091257838290600052602060002090600302016040518060800160405290816000820154815260200160018201805461085190610dff565b80601f016020809104026020016040519081016040528092919081815260200182805461087d90610dff565b80156108ca5780601f1061089f576101008083540402835291602001916108ca565b820191906000526020600020905b8154815290600101906020018083116108ad57829003601f168201915b5050509183525050600291909101546001600160a01b038116602080840191909152600160a01b90910460ff1615156040909201919091529082526001929092019101610814565b50505050905090565b610923610a42565b6001600160801b0382161561078657600161093e8184610f9f565b6001600160801b03168154811061095757610957610fc6565b90600052602060002090600302016040518060800160405290816000820154815260200160018201805461098a90610dff565b80601f01602080910402602001604051908101604052809291908181526020018280546109b690610dff565b8015610a035780601f106109d857610100808354040283529160200191610a03565b820191906000526020600020905b8154815290600101906020018083116109e657829003601f168201915b5050509183525050600291909101546001600160a01b0381166020830152600160a01b900460ff16151560409091015292915050565b80546001019055565b6040518060800160405280600081526020016060815260200160006001600160a01b031681526020016000151581525090565b60008060408385031215610a8857600080fd5b50508035926020909101359150565b6000815180845260005b81811015610abd57602081850181015186830182015201610aa1565b506000602082860101526020601f19601f83011685010191505092915050565b848152608060208201526000610af66080830186610a97565b6001600160a01b03851660408401528281036060840152610b178185610a97565b979650505050505050565b634e487b7160e01b600052604160045260246000fd5b600082601f830112610b4957600080fd5b81356001600160401b0380821115610b6357610b63610b22565b604051601f8301601f19908116603f01168101908282118183101715610b8b57610b8b610b22565b81604052838152866020858801011115610ba457600080fd5b836020870160208301376000602085830101528094505050505092915050565b80356001600160a01b0381168114610bdb57600080fd5b919050565b600080600060608486031215610bf557600080fd5b83356001600160401b03811115610c0b57600080fd5b610c1786828701610b38565b935050610c2660208501610bc4565b915060408401358015158114610c3b57600080fd5b809150509250925092565b80356001600160801b0381168114610bdb57600080fd5b60008060408385031215610c7057600080fd5b610c7983610c46565b9150610c8760208401610bc4565b90509250929050565b600060208284031215610ca257600080fd5b5035919050565b848152608060208201526000610cc26080830186610a97565b6001600160a01b039490941660408301525090151560609091015292915050565b600060208284031215610cf557600080fd5b81356001600160401b03811115610d0b57600080fd5b610d1784828501610b38565b949350505050565b805182526000602082015160806020850152610d3e6080850182610a97565b6040848101516001600160a01b031690860152606093840151151593909401929092525090919050565b602081526000610d7b6020830184610d1f565b9392505050565b6000602080830181845280855180835260408601915060408160051b870101925083870160005b82811015610dd757603f19888603018452610dc5858351610d1f565b94509285019290850190600101610da9565b5092979650505050505050565b600060208284031215610df657600080fd5b610d7b82610c46565b600181811c90821680610e1357607f821691505b602082108103610e3357634e487b7160e01b600052602260045260246000fd5b50919050565b60208082526022908201527f4f6e6c79206f776e65722063616e2063616c6c20746869732066756e6374696f604082015261371760f11b606082015260800190565b601f821115610ec557600081815260208120601f850160051c81016020861015610ea25750805b601f850160051c820191505b81811015610ec157828155600101610eae565b5050505b505050565b81516001600160401b03811115610ee357610ee3610b22565b610ef781610ef18454610dff565b84610e7b565b602080601f831160018114610f2c5760008415610f145750858301515b600019600386901b1c1916600185901b178555610ec1565b600085815260208120601f198616915b82811015610f5b57888601518255948401946001909101908401610f3c565b5085821015610f795787850151600019600388901b60f8161c191681555b5050505050600190811b01905550565b634e487b7160e01b600052601160045260246000fd5b6001600160801b03828116828216039080821115610fbf57610fbf610f89565b5092915050565b634e487b7160e01b600052603260045260246000fd5b81810381811115610fef57610fef610f89565b9291505056fea164736f6c6343000811000a",
  "linkReferences": {},
  "deployedLinkReferences": {}
}