{
  "_format": "hh-sol-artifact-1",
  "contractName": "EmbraceSpaces",
  "sourceName": "contracts/EmbraceSpaces.sol",
  "abi": [
    {
      "inputs": [
        {
          "internalType": "address",
          "name": "_accountsAddress",
          "type": "address"
        }
      ],
      "stateMutability": "nonpayable",
      "type": "constructor"
    },
    {
      "inputs": [
        {
          "internalType": "uint256",
          "name": "spaceId",
          "type": "uint256"
        },
        {
          "internalType": "address",
          "name": "memberAddress",
          "type": "address"
        }
      ],
      "name": "ErrorCannotJoinAnonSpace",
      "type": "error"
    },
    {
      "inputs": [
        {
          "internalType": "uint256",
          "name": "spaceId",
          "type": "uint256"
        },
        {
          "internalType": "address",
          "name": "memberAddress",
          "type": "address"
        }
      ],
      "name": "ErrorCannotJoinPrivClosedSpace",
      "type": "error"
    },
    {
      "inputs": [
        {
          "internalType": "uint256",
          "name": "spaceId",
          "type": "uint256"
        },
        {
          "internalType": "address",
          "name": "memberAddress",
          "type": "address"
        }
      ],
      "name": "ErrorDoNotMeetSpaceReq",
      "type": "error"
    },
    {
      "inputs": [
        {
          "internalType": "bytes32",
          "name": "handle",
          "type": "bytes32"
        }
      ],
      "name": "ErrorHandleExists",
      "type": "error"
    },
    {
      "inputs": [
        {
          "internalType": "uint256",
          "name": "spaceId",
          "type": "uint256"
        },
        {
          "internalType": "address",
          "name": "memberAddress",
          "type": "address"
        }
      ],
      "name": "ErrorMemberAlreadyExists",
      "type": "error"
    },
    {
      "inputs": [
        {
          "internalType": "uint256",
          "name": "spaceId",
          "type": "uint256"
        },
        {
          "internalType": "address",
          "name": "memberAddress",
          "type": "address"
        }
      ],
      "name": "ErrorOnlyAdmin",
      "type": "error"
    },
    {
      "inputs": [
        {
          "internalType": "uint256",
          "name": "spaceId",
          "type": "uint256"
        },
        {
          "internalType": "address",
          "name": "memberAddress",
          "type": "address"
        }
      ],
      "name": "ErrorOnlyFounder",
      "type": "error"
    },
    {
      "anonymous": false,
      "inputs": [
        {
          "indexed": true,
          "internalType": "uint256",
          "name": "spaceId",
          "type": "uint256"
        },
        {
          "indexed": true,
          "internalType": "address",
          "name": "memberAddress",
          "type": "address"
        },
        {
          "indexed": false,
          "internalType": "bool",
          "name": "isAdmin",
          "type": "bool"
        }
      ],
      "name": "JoinedSpace",
      "type": "event"
    },
    {
      "anonymous": false,
      "inputs": [
        {
          "indexed": true,
          "internalType": "uint256",
          "name": "spaceId",
          "type": "uint256"
        },
        {
          "indexed": true,
          "internalType": "address",
          "name": "memberAddress",
          "type": "address"
        }
      ],
      "name": "RemovedFromSpace",
      "type": "event"
    },
    {
      "anonymous": false,
      "inputs": [
        {
          "indexed": true,
          "internalType": "uint256",
          "name": "spaceId",
          "type": "uint256"
        },
        {
          "indexed": true,
          "internalType": "address",
          "name": "memberAddress",
          "type": "address"
        }
      ],
      "name": "RequestJoinSpace",
      "type": "event"
    },
    {
      "anonymous": false,
      "inputs": [
        {
          "indexed": true,
          "internalType": "uint256",
          "name": "spaceId",
          "type": "uint256"
        },
        {
          "indexed": true,
          "internalType": "address",
          "name": "founder",
          "type": "address"
        }
      ],
      "name": "SpaceCreated",
      "type": "event"
    },
    {
      "inputs": [
        {
          "internalType": "uint256",
          "name": "_spaceIndex",
          "type": "uint256"
        },
        {
          "internalType": "uint128",
          "name": "_appIndex",
          "type": "uint128"
        }
      ],
      "name": "addApp",
      "outputs": [],
      "stateMutability": "nonpayable",
      "type": "function"
    },
    {
      "inputs": [
        {
          "internalType": "bytes32",
          "name": "_handle",
          "type": "bytes32"
        },
        {
          "internalType": "enum EmbraceSpaces.Visibility",
          "name": "_visibility",
          "type": "uint8"
        },
        {
          "components": [
            {
              "internalType": "enum EmbraceSpaces.Access",
              "name": "access",
              "type": "uint8"
            },
            {
              "components": [
                {
                  "internalType": "enum EmbraceSpaces.MembershipGateToken",
                  "name": "token",
                  "type": "uint8"
                },
                {
                  "internalType": "address",
                  "name": "tokenAddress",
                  "type": "address"
                }
              ],
              "internalType": "struct EmbraceSpaces.MembershipGate",
              "name": "gate",
              "type": "tuple"
            },
            {
              "internalType": "bool",
              "name": "allowRequests",
              "type": "bool"
            }
          ],
          "internalType": "struct EmbraceSpaces.Membership",
          "name": "_membership",
          "type": "tuple"
        },
        {
          "internalType": "uint128[]",
          "name": "_apps",
          "type": "uint128[]"
        },
        {
          "internalType": "string",
          "name": "_metadata",
          "type": "string"
        }
      ],
      "name": "createSpace",
      "outputs": [],
      "stateMutability": "nonpayable",
      "type": "function"
    },
    {
      "inputs": [
        {
          "internalType": "bytes32",
          "name": "_handle",
          "type": "bytes32"
        }
      ],
      "name": "getIdFromHandle",
      "outputs": [
        {
          "internalType": "uint256",
          "name": "",
          "type": "uint256"
        }
      ],
      "stateMutability": "view",
      "type": "function"
    },
    {
      "inputs": [
        {
          "internalType": "uint256",
          "name": "_spaceIndex",
          "type": "uint256"
        }
      ],
      "name": "getMemberCount",
      "outputs": [
        {
          "internalType": "uint256",
          "name": "",
          "type": "uint256"
        }
      ],
      "stateMutability": "view",
      "type": "function"
    },
    {
      "inputs": [
        {
          "internalType": "uint256",
          "name": "_spaceIndex",
          "type": "uint256"
        }
      ],
      "name": "getSpace",
      "outputs": [
        {
          "components": [
            {
              "internalType": "uint256",
              "name": "index",
              "type": "uint256"
            },
            {
              "internalType": "bytes32",
              "name": "handle",
              "type": "bytes32"
            },
            {
              "internalType": "enum EmbraceSpaces.Visibility",
              "name": "visibility",
              "type": "uint8"
            },
            {
              "components": [
                {
                  "internalType": "enum EmbraceSpaces.Access",
                  "name": "access",
                  "type": "uint8"
                },
                {
                  "components": [
                    {
                      "internalType": "enum EmbraceSpaces.MembershipGateToken",
                      "name": "token",
                      "type": "uint8"
                    },
                    {
                      "internalType": "address",
                      "name": "tokenAddress",
                      "type": "address"
                    }
                  ],
                  "internalType": "struct EmbraceSpaces.MembershipGate",
                  "name": "gate",
                  "type": "tuple"
                },
                {
                  "internalType": "bool",
                  "name": "allowRequests",
                  "type": "bool"
                }
              ],
              "internalType": "struct EmbraceSpaces.Membership",
              "name": "membership",
              "type": "tuple"
            },
            {
              "internalType": "uint128[]",
              "name": "apps",
              "type": "uint128[]"
            },
            {
              "internalType": "string",
              "name": "metadata",
              "type": "string"
            },
            {
              "internalType": "address",
              "name": "founder",
              "type": "address"
            }
          ],
          "internalType": "struct EmbraceSpaces.Space",
          "name": "",
          "type": "tuple"
        }
      ],
      "stateMutability": "view",
      "type": "function"
    },
    {
      "inputs": [
        {
          "internalType": "bytes32",
          "name": "_handle",
          "type": "bytes32"
        }
      ],
      "name": "getSpaceFromHandle",
      "outputs": [
        {
          "components": [
            {
              "internalType": "uint256",
              "name": "index",
              "type": "uint256"
            },
            {
              "internalType": "bytes32",
              "name": "handle",
              "type": "bytes32"
            },
            {
              "internalType": "enum EmbraceSpaces.Visibility",
              "name": "visibility",
              "type": "uint8"
            },
            {
              "components": [
                {
                  "internalType": "enum EmbraceSpaces.Access",
                  "name": "access",
                  "type": "uint8"
                },
                {
                  "components": [
                    {
                      "internalType": "enum EmbraceSpaces.MembershipGateToken",
                      "name": "token",
                      "type": "uint8"
                    },
                    {
                      "internalType": "address",
                      "name": "tokenAddress",
                      "type": "address"
                    }
                  ],
                  "internalType": "struct EmbraceSpaces.MembershipGate",
                  "name": "gate",
                  "type": "tuple"
                },
                {
                  "internalType": "bool",
                  "name": "allowRequests",
                  "type": "bool"
                }
              ],
              "internalType": "struct EmbraceSpaces.Membership",
              "name": "membership",
              "type": "tuple"
            },
            {
              "internalType": "uint128[]",
              "name": "apps",
              "type": "uint128[]"
            },
            {
              "internalType": "string",
              "name": "metadata",
              "type": "string"
            },
            {
              "internalType": "address",
              "name": "founder",
              "type": "address"
            }
          ],
          "internalType": "struct EmbraceSpaces.Space",
          "name": "",
          "type": "tuple"
        }
      ],
      "stateMutability": "view",
      "type": "function"
    },
    {
      "inputs": [
        {
          "internalType": "uint256",
          "name": "_spaceIndex",
          "type": "uint256"
        },
        {
          "internalType": "address",
          "name": "_address",
          "type": "address"
        }
      ],
      "name": "getSpaceMember",
      "outputs": [
        {
          "components": [
            {
              "internalType": "bool",
              "name": "isAdmin",
              "type": "bool"
            },
            {
              "internalType": "bool",
              "name": "isActive",
              "type": "bool"
            },
            {
              "internalType": "bool",
              "name": "isRequest",
              "type": "bool"
            }
          ],
          "internalType": "struct EmbraceSpaces.Member",
          "name": "",
          "type": "tuple"
        }
      ],
      "stateMutability": "view",
      "type": "function"
    },
    {
      "inputs": [],
      "name": "getSpaces",
      "outputs": [
        {
          "components": [
            {
              "internalType": "uint256",
              "name": "index",
              "type": "uint256"
            },
            {
              "internalType": "bytes32",
              "name": "handle",
              "type": "bytes32"
            },
            {
              "internalType": "enum EmbraceSpaces.Visibility",
              "name": "visibility",
              "type": "uint8"
            },
            {
              "components": [
                {
                  "internalType": "enum EmbraceSpaces.Access",
                  "name": "access",
                  "type": "uint8"
                },
                {
                  "components": [
                    {
                      "internalType": "enum EmbraceSpaces.MembershipGateToken",
                      "name": "token",
                      "type": "uint8"
                    },
                    {
                      "internalType": "address",
                      "name": "tokenAddress",
                      "type": "address"
                    }
                  ],
                  "internalType": "struct EmbraceSpaces.MembershipGate",
                  "name": "gate",
                  "type": "tuple"
                },
                {
                  "internalType": "bool",
                  "name": "allowRequests",
                  "type": "bool"
                }
              ],
              "internalType": "struct EmbraceSpaces.Membership",
              "name": "membership",
              "type": "tuple"
            },
            {
              "internalType": "uint128[]",
              "name": "apps",
              "type": "uint128[]"
            },
            {
              "internalType": "string",
              "name": "metadata",
              "type": "string"
            },
            {
              "internalType": "address",
              "name": "founder",
              "type": "address"
            }
          ],
          "internalType": "struct EmbraceSpaces.Space[]",
          "name": "",
          "type": "tuple[]"
        }
      ],
      "stateMutability": "view",
      "type": "function"
    },
    {
      "inputs": [
        {
          "internalType": "uint256",
          "name": "_spaceIndex",
          "type": "uint256"
        }
      ],
      "name": "isAdmin",
      "outputs": [
        {
          "internalType": "bool",
          "name": "",
          "type": "bool"
        }
      ],
      "stateMutability": "view",
      "type": "function"
    },
    {
      "inputs": [
        {
          "internalType": "uint256",
          "name": "_spaceIndex",
          "type": "uint256"
        }
      ],
      "name": "isFounder",
      "outputs": [
        {
          "internalType": "bool",
          "name": "",
          "type": "bool"
        }
      ],
      "stateMutability": "view",
      "type": "function"
    },
    {
      "inputs": [
        {
          "internalType": "uint256",
          "name": "_spaceIndex",
          "type": "uint256"
        }
      ],
      "name": "joinSpace",
      "outputs": [
        {
          "internalType": "bool",
          "name": "",
          "type": "bool"
        }
      ],
      "stateMutability": "nonpayable",
      "type": "function"
    },
    {
      "inputs": [
        {
          "internalType": "uint256",
          "name": "_spaceIndex",
          "type": "uint256"
        }
      ],
      "name": "meetsGateRequirements",
      "outputs": [
        {
          "internalType": "bool",
          "name": "",
          "type": "bool"
        }
      ],
      "stateMutability": "view",
      "type": "function"
    },
    {
      "inputs": [
        {
          "internalType": "uint256",
          "name": "_spaceIndex",
          "type": "uint256"
        },
        {
          "internalType": "uint256",
          "name": "_appIndex",
          "type": "uint256"
        }
      ],
      "name": "removeApp",
      "outputs": [],
      "stateMutability": "nonpayable",
      "type": "function"
    },
    {
      "inputs": [
        {
          "internalType": "uint256",
          "name": "_spaceIndex",
          "type": "uint256"
        }
      ],
      "name": "requestJoin",
      "outputs": [
        {
          "internalType": "bool",
          "name": "",
          "type": "bool"
        }
      ],
      "stateMutability": "nonpayable",
      "type": "function"
    },
    {
      "inputs": [
        {
          "internalType": "uint256",
          "name": "_spaceIndex",
          "type": "uint256"
        },
        {
          "internalType": "address",
          "name": "_address",
          "type": "address"
        }
      ],
      "name": "setFounder",
      "outputs": [],
      "stateMutability": "nonpayable",
      "type": "function"
    },
    {
      "inputs": [
        {
          "internalType": "uint256",
          "name": "_spaceIndex",
          "type": "uint256"
        },
        {
          "internalType": "address",
          "name": "_address",
          "type": "address"
        },
        {
          "internalType": "bool",
          "name": "_isActive",
          "type": "bool"
        },
        {
          "internalType": "bool",
          "name": "_isAdmin",
          "type": "bool"
        }
      ],
      "name": "setMember",
      "outputs": [],
      "stateMutability": "nonpayable",
      "type": "function"
    },
    {
      "inputs": [
        {
          "internalType": "bytes32",
          "name": "",
          "type": "bytes32"
        }
      ],
      "name": "spaceHandles",
      "outputs": [
        {
          "internalType": "uint256",
          "name": "",
          "type": "uint256"
        }
      ],
      "stateMutability": "view",
      "type": "function"
    },
    {
      "inputs": [
        {
          "internalType": "uint256",
          "name": "",
          "type": "uint256"
        }
      ],
      "name": "spaceMemberLength",
      "outputs": [
        {
          "internalType": "uint256",
          "name": "",
          "type": "uint256"
        }
      ],
      "stateMutability": "view",
      "type": "function"
    },
    {
      "inputs": [
        {
          "internalType": "uint256",
          "name": "",
          "type": "uint256"
        },
        {
          "internalType": "address",
          "name": "",
          "type": "address"
        }
      ],
      "name": "spaceMembers",
      "outputs": [
        {
          "internalType": "bool",
          "name": "isAdmin",
          "type": "bool"
        },
        {
          "internalType": "bool",
          "name": "isActive",
          "type": "bool"
        },
        {
          "internalType": "bool",
          "name": "isRequest",
          "type": "bool"
        }
      ],
      "stateMutability": "view",
      "type": "function"
    },
    {
      "inputs": [
        {
          "internalType": "uint256",
          "name": "",
          "type": "uint256"
        }
      ],
      "name": "spaces",
      "outputs": [
        {
          "internalType": "uint256",
          "name": "index",
          "type": "uint256"
        },
        {
          "internalType": "bytes32",
          "name": "handle",
          "type": "bytes32"
        },
        {
          "internalType": "enum EmbraceSpaces.Visibility",
          "name": "visibility",
          "type": "uint8"
        },
        {
          "components": [
            {
              "internalType": "enum EmbraceSpaces.Access",
              "name": "access",
              "type": "uint8"
            },
            {
              "components": [
                {
                  "internalType": "enum EmbraceSpaces.MembershipGateToken",
                  "name": "token",
                  "type": "uint8"
                },
                {
                  "internalType": "address",
                  "name": "tokenAddress",
                  "type": "address"
                }
              ],
              "internalType": "struct EmbraceSpaces.MembershipGate",
              "name": "gate",
              "type": "tuple"
            },
            {
              "internalType": "bool",
              "name": "allowRequests",
              "type": "bool"
            }
          ],
          "internalType": "struct EmbraceSpaces.Membership",
          "name": "membership",
          "type": "tuple"
        },
        {
          "internalType": "string",
          "name": "metadata",
          "type": "string"
        },
        {
          "internalType": "address",
          "name": "founder",
          "type": "address"
        }
      ],
      "stateMutability": "view",
      "type": "function"
    }
  ],
  "bytecode": "0x6080604052600080553480156200001557600080fd5b5060405162002dd138038062002dd183398101604081905262000038916200005e565b600280546001600160a01b0319166001600160a01b039290921691909117905562000090565b6000602082840312156200007157600080fd5b81516001600160a01b03811681146200008957600080fd5b9392505050565b612d3180620000a06000396000f3fe608060405234801561001057600080fd5b506004361061016c5760003560e01c80637586353b116100cd578063af41f22a11610081578063d1f97b7911610066578063d1f97b7914610415578063dd739fb514610428578063f71771281461043b57600080fd5b8063af41f22a146103a2578063b29518f21461040257600080fd5b80638be9e3c8116100b25780638be9e3c814610369578063993849761461037c578063a303cf8e1461038f57600080fd5b80637586353b1461033157806385155bf61461035657600080fd5b80633254c1f6116101245780633a6eb955116101095780633a6eb955146102d15780635ce9284f146102f157806370e104311461031157600080fd5b80633254c1f61461028357806333d7ae40146102b157600080fd5b80631557f48c116101555780631557f48c146101a45780631f6dc4371461024d5780632ea6524f1461027057600080fd5b8063036f0e161461017157806315478ca914610186575b600080fd5b61018461017f36600461256e565b61044e565b005b61018e61054b565b60405161019b9190612721565b60405180910390f35b6102256101b236600461279a565b604080516060808201835260008083526020808401829052928401819052948552600382528285206001600160a01b0394909416855292815292819020815192830182525460ff808216151584526101008204811615159484019490945262010000900490921615159181019190915290565b604080518251151581526020808401511515908201529181015115159082015260600161019b565b61026061025b3660046127bd565b6107ce565b604051901515815260200161019b565b61026061027e3660046127bd565b610804565b6102a36102913660046127bd565b60056020526000908152604090205481565b60405190815260200161019b565b6102a36102bf3660046127bd565b60046020526000908152604090205481565b6102a36102df3660046127bd565b60009081526005602052604090205490565b6102a36102ff3660046127bd565b60009081526004602052604090205490565b61032461031f3660046127bd565b610bba565b60405161019b91906127d6565b61034461033f3660046127bd565b610e17565b60405161019b969594939291906127f0565b6103246103643660046127bd565b610f98565b6102606103773660046127bd565b611206565b61018461038a36600461279a565b6116c8565b61026061039d3660046127bd565b611752565b6103e36103b036600461279a565b600360209081526000928352604080842090915290825290205460ff808216916101008104821691620100009091041683565b604080519315158452911515602084015215159082015260600161019b565b6101846104103660046129f1565b6119b9565b6102606104233660046127bd565b611d49565b610184610436366004612afb565b6120f2565b610184610449366004612b48565b6122f9565b81610458816107ce565b80610467575061046781611752565b156104935760405163eae3129560e01b8152600481018290523360248201526044015b60405180910390fd5b6000600184815481106104a8576104a8612b6a565b9060005260206000209060090201905080600601836001600160801b0316815481106104d6576104d6612b6a565b60009182526020822060028204015460019091166010026101000a90046001600160801b0316900361054557600681018054600180820183556000928352602090922060028204018054929091166010026101000a6001600160801b0381810219909316928616029190911790555b50505050565b60606001805480602002602001604051908101604052809291908181526020016000905b828210156107c557838290600052602060002090600902016040518060e001604052908160008201548152602001600182015481526020016002820160009054906101000a900460ff1660028111156105ca576105ca61259a565b60028111156105db576105db61259a565b81526040805160608101909152600383018054602090930192829060ff16600281111561060a5761060a61259a565b600281111561061b5761061b61259a565b815260408051808201909152600183018054602090930192829060ff1660038111156106495761064961259a565b600381111561065a5761065a61259a565b8152905461010090046001600160a01b03166020918201529082526002929092015460ff161515908201529082526006830180546040805182850281018501909152818152938301939283018282801561070557602002820191906000526020600020906000905b82829054906101000a90046001600160801b03166001600160801b031681526020019060100190602082600f010492830192600103820291508084116106c25790505b5050505050815260200160078201805461071e90612b80565b80601f016020809104026020016040519081016040528092919081815260200182805461074a90612b80565b80156107975780601f1061076c57610100808354040283529160200191610797565b820191906000526020600020905b81548152906001019060200180831161077a57829003601f168201915b5050509183525050600891909101546001600160a01b0316602091820152908252600192909201910161056f565b50505050905090565b600081815260036020908152604080832033845290915281205460ff1615156001036107fc57506001919050565b506000919050565b6000818152600360209081526040808320338452909152812054610100900460ff16151560010361085157604051630c4e612760e41b81526004810183905233602482015260440161048a565b60006001838154811061086657610866612b6a565b90600052602060002090600902016040518060e001604052908160008201548152602001600182015481526020016002820160009054906101000a900460ff1660028111156108b7576108b761259a565b60028111156108c8576108c861259a565b81526040805160608101909152600383018054602090930192829060ff1660028111156108f7576108f761259a565b60028111156109085761090861259a565b815260408051808201909152600183018054602090930192829060ff1660038111156109365761093661259a565b60038111156109475761094761259a565b8152905461010090046001600160a01b03166020918201529082526002929092015460ff16151590820152908252600683018054604080518285028101850190915281815293830193928301828280156109f257602002820191906000526020600020906000905b82829054906101000a90046001600160801b03166001600160801b031681526020019060100190602082600f010492830192600103820291508084116109af5790505b50505050508152602001600782018054610a0b90612b80565b80601f0160208091040260200160405190810160405280929190818152602001828054610a3790612b80565b8015610a845780601f10610a5957610100808354040283529160200191610a84565b820191906000526020600020905b815481529060010190602001808311610a6757829003601f168201915b5050509183525050600891909101546001600160a01b03166020909101529050600181604001516002811115610abc57610abc61259a565b141580610ae0575060026060820151516002811115610add57610add61259a565b14155b80610af15750806060015160400151155b15610b185760405163425ad41160e11b81526004810184905233602482015260440161048a565b604080516060810182526000808252602080830182815260018486019081528884526003835285842033808652935285842085518154935192511515620100000262ff0000199315156101000261ff00199215159290921661ffff19909516949094171791909116919091179055925191929186917fdbb2455cc69235cd7b041dc0cced849ee3bd818c2e063d18e579d3d068f7974e91a35060019392505050565b610bc2612409565b60018281548110610bd557610bd5612b6a565b90600052602060002090600902016040518060e001604052908160008201548152602001600182015481526020016002820160009054906101000a900460ff166002811115610c2657610c2661259a565b6002811115610c3757610c3761259a565b81526040805160608101909152600383018054602090930192829060ff166002811115610c6657610c6661259a565b6002811115610c7757610c7761259a565b815260408051808201909152600183018054602090930192829060ff166003811115610ca557610ca561259a565b6003811115610cb657610cb661259a565b8152905461010090046001600160a01b03166020918201529082526002929092015460ff1615159082015290825260068301805460408051828502810185019091528181529383019392830182828015610d6157602002820191906000526020600020906000905b82829054906101000a90046001600160801b03166001600160801b031681526020019060100190602082600f01049283019260010382029150808411610d1e5790505b50505050508152602001600782018054610d7a90612b80565b80601f0160208091040260200160405190810160405280929190818152602001828054610da690612b80565b8015610df35780601f10610dc857610100808354040283529160200191610df3565b820191906000526020600020905b815481529060010190602001808311610dd657829003601f168201915b5050509183525050600891909101546001600160a01b031660209091015292915050565b60018181548110610e2757600080fd5b60009182526020909120600990910201805460018201546002808401546040805160608101909152600386018054959750939560ff928316959094919391928492911690811115610e7a57610e7a61259a565b6002811115610e8b57610e8b61259a565b815260408051808201909152600183018054602090930192829060ff166003811115610eb957610eb961259a565b6003811115610eca57610eca61259a565b8152905461010090046001600160a01b03166020918201529082526002929092015460ff161515910152600782018054919291610f0690612b80565b80601f0160208091040260200160405190810160405280929190818152602001828054610f3290612b80565b8015610f7f5780601f10610f5457610100808354040283529160200191610f7f565b820191906000526020600020905b815481529060010190602001808311610f6257829003601f168201915b505050600890930154919250506001600160a01b031686565b610fa0612409565b6000828152600560205260409020546001805482908110610fc357610fc3612b6a565b90600052602060002090600902016040518060e001604052908160008201548152602001600182015481526020016002820160009054906101000a900460ff1660028111156110145761101461259a565b60028111156110255761102561259a565b81526040805160608101909152600383018054602090930192829060ff1660028111156110545761105461259a565b60028111156110655761106561259a565b815260408051808201909152600183018054602090930192829060ff1660038111156110935761109361259a565b60038111156110a4576110a461259a565b8152905461010090046001600160a01b03166020918201529082526002929092015460ff161515908201529082526006830180546040805182850281018501909152818152938301939283018282801561114f57602002820191906000526020600020906000905b82829054906101000a90046001600160801b03166001600160801b031681526020019060100190602082600f0104928301926001038202915080841161110c5790505b5050505050815260200160078201805461116890612b80565b80601f016020809104026020016040519081016040528092919081815260200182805461119490612b80565b80156111e15780601f106111b6576101008083540402835291602001916111e1565b820191906000526020600020905b8154815290600101906020018083116111c457829003601f168201915b5050509183525050600891909101546001600160a01b03166020909101529392505050565b6000806001838154811061121c5761121c612b6a565b90600052602060002090600902016040518060e001604052908160008201548152602001600182015481526020016002820160009054906101000a900460ff16600281111561126d5761126d61259a565b600281111561127e5761127e61259a565b81526040805160608101909152600383018054602090930192829060ff1660028111156112ad576112ad61259a565b60028111156112be576112be61259a565b815260408051808201909152600183018054602090930192829060ff1660038111156112ec576112ec61259a565b60038111156112fd576112fd61259a565b8152905461010090046001600160a01b03166020918201529082526002929092015460ff16151590820152908252600683018054604080518285028101850190915281815293830193928301828280156113a857602002820191906000526020600020906000905b82829054906101000a90046001600160801b03166001600160801b031681526020019060100190602082600f010492830192600103820291508084116113655790505b505050505081526020016007820180546113c190612b80565b80601f01602080910402602001604051908101604052809291908181526020018280546113ed90612b80565b801561143a5780601f1061140f5761010080835404028352916020019161143a565b820191906000526020600020905b81548152906001019060200180831161141d57829003601f168201915b5050509183525050600891909101546001600160a01b031660209182015260008581526003825260408082203383529092522054909150610100900460ff1615156001036114a457604051630c4e612760e41b81526004810184905233602482015260440161048a565b6002816040015160028111156114bc576114bc61259a565b036114e35760405163cf14998d60e01b81526004810184905233602482015260440161048a565b6001816040015160028111156114fb576114fb61259a565b14801561151e57506002606082015151600281111561151c5761151c61259a565b145b156115455760405163425ad41160e11b81526004810184905233602482015260440161048a565b6001606082015151600281111561155e5761155e61259a565b148015611571575061156f83611d49565b155b1561159857604051637a8a90f360e11b81526004810184905233602482015260440161048a565b6040805160608101825260008082526001602080840191825283850183815288845260038252858420338552825285842085518154945192511515620100000262ff0000199315156101000261ff00199215159290921661ffff1990961695909517179190911692909217909155868252600490529182208054919261161d83612bd0565b909155505060405160008152339085907f01b0570fcf8d040a1dead2d60d1060b4817a6ebc4de6b950e632df705b9f50489060200160405180910390a3600254604051633576860d60e11b8152336004820152602481018690526001600160a01b0390911690636aed0c1a90604401600060405180830381600087803b1580156116a657600080fd5b505af11580156116ba573d6000803e3d6000fd5b506001979650505050505050565b816116d281611752565b156116f957604051633eb0f74360e21b81526004810182905233602482015260440161048a565b60006001848154811061170e5761170e612b6a565b60009182526020909120600990910201600801805473ffffffffffffffffffffffffffffffffffffffff19166001600160a01b039490941693909317909255505050565b6000806001838154811061176857611768612b6a565b90600052602060002090600902016040518060e001604052908160008201548152602001600182015481526020016002820160009054906101000a900460ff1660028111156117b9576117b961259a565b60028111156117ca576117ca61259a565b81526040805160608101909152600383018054602090930192829060ff1660028111156117f9576117f961259a565b600281111561180a5761180a61259a565b815260408051808201909152600183018054602090930192829060ff1660038111156118385761183861259a565b60038111156118495761184961259a565b8152905461010090046001600160a01b03166020918201529082526002929092015460ff16151590820152908252600683018054604080518285028101850190915281815293830193928301828280156118f457602002820191906000526020600020906000905b82829054906101000a90046001600160801b03166001600160801b031681526020019060100190602082600f010492830192600103820291508084116118b15790505b5050505050815260200160078201805461190d90612b80565b80601f016020809104026020016040519081016040528092919081815260200182805461193990612b80565b80156119865780601f1061195b57610100808354040283529160200191611986565b820191906000526020600020905b81548152906001019060200180831161196957829003601f168201915b5050509183525050600891909101546001600160a01b0390811660209092019190915260c0909101511633149392505050565b600085815260056020526040902054156119e957604051634a4619dd60e11b81526004810186905260240161048a565b60006040518060e001604052806000548152602001878152602001866002811115611a1657611a1661259a565b81526020808201879052604080830187905260608301869052336080909301929092526001805480820182556000829052845160099091027fb10e2d527612073b26eecdfd717e6a320cf44b4afac2b0732d9fcbe2b7fa0cf68101918255928501517fb10e2d527612073b26eecdfd717e6a320cf44b4afac2b0732d9fcbe2b7fa0cf7840155928401517fb10e2d527612073b26eecdfd717e6a320cf44b4afac2b0732d9fcbe2b7fa0cf890920180549495508594909160ff1990911690836002811115611ae657611ae661259a565b021790555060608201518051600383018054909190829060ff19166001836002811115611b1557611b1561259a565b02179055506020820151805160018084018054909291839160ff191690836003811115611b4457611b4461259a565b021790555060209182015181546001600160a01b03909116610100027fffffffffffffffffffffff0000000000000000000000000000000000000000ff909116179055604092909201516002909101805491151560ff1990921691909117905560808301518051611bbb926006850192019061244b565b5060a08201516007820190611bd09082612c34565b5060c091909101516008909101805473ffffffffffffffffffffffffffffffffffffffff19166001600160a01b039283161790556000805488825260056020526040918290208190556002549151633576860d60e11b81523360048201526024810191909152911690636aed0c1a90604401600060405180830381600087803b158015611c5c57600080fd5b505af1158015611c70573d6000803e3d6000fd5b5050600080548152600460205260408120805493509150611c9083612bd0565b909155505060408051606081018252600180825260208083019182526000838501818152815482526003835285822033808452935285822094518554945191511515620100000262ff0000199215156101000261ff00199215159290921661ffff1990961695909517171692909217909255805492519192917fb86ecf9543f771ac118830339392a31c2ef19181bb1f831fa033235771791aa19190a3600080549080611d3c83612bd0565b9190505550505050505050565b60008060018381548110611d5f57611d5f612b6a565b90600052602060002090600902016040518060e001604052908160008201548152602001600182015481526020016002820160009054906101000a900460ff166002811115611db057611db061259a565b6002811115611dc157611dc161259a565b81526040805160608101909152600383018054602090930192829060ff166002811115611df057611df061259a565b6002811115611e0157611e0161259a565b815260408051808201909152600183018054602090930192829060ff166003811115611e2f57611e2f61259a565b6003811115611e4057611e4061259a565b8152905461010090046001600160a01b03166020918201529082526002929092015460ff1615159082015290825260068301805460408051828502810185019091528181529383019392830182828015611eeb57602002820191906000526020600020906000905b82829054906101000a90046001600160801b03166001600160801b031681526020019060100190602082600f01049283019260010382029150808411611ea85790505b50505050508152602001600782018054611f0490612b80565b80601f0160208091040260200160405190810160405280929190818152602001828054611f3090612b80565b8015611f7d5780601f10611f5257610100808354040283529160200191611f7d565b820191906000526020600020905b815481529060010190602001808311611f6057829003601f168201915b5050509183525050600891909101546001600160a01b03166020918201526060820151810151908101519051919250906001906003811115611fc157611fc161259a565b0361203e576040516370a0823160e01b815233600482015281906000906001600160a01b038316906370a08231906024015b602060405180830381865afa158015612010573d6000803e3d6000fd5b505050506040513d601f19601f820116820180604052508101906120349190612cf4565b1195945050505050565b600260608301516020015151600381111561205b5761205b61259a565b03612091576040516370a0823160e01b815233600482015281906000906001600160a01b038316906370a0823190602401611ff3565b60036060830151602001515160038111156120ae576120ae61259a565b036120e857604051627eeac760e11b815233600482015260006024820181905282916001600160a01b0383169062fdd58e90604401611ff3565b5060009392505050565b836120fc816107ce565b8061210b575061210b81611752565b156121325760405163eae3129560e01b81526004810182905233602482015260440161048a565b60008581526003602090815260408083206001600160a01b038816845290915290205460ff610100909104161515831515148015612198575060008581526003602090815260408083206001600160a01b038816845290915290205460ff161515821515145b156121c857604051630c4e612760e41b8152600481018690526001600160a01b038516602482015260440161048a565b60408051606081018252831515815284158015602080840191825260008486018181528b8252600383528682206001600160a01b038c1683529092529490942083518154925195511515620100000262ff0000199615156101000261ff00199215159290921661ffff1990941693909317179490941617909255906122a457600086815260046020526040812080549161226183612bd0565b90915550506040518315158152339087907f01b0570fcf8d040a1dead2d60d1060b4817a6ebc4de6b950e632df705b9f50489060200160405180910390a36122f1565b60008681526004602052604081208054916122be83612d0d565b9091555050604051339087907f1c43a3cf5b547073bee7f10560079a1900cc5968c27fb3a768f8e65d5d46550590600090a35b505050505050565b81612303816107ce565b80612312575061231281611752565b156123395760405163eae3129560e01b81526004810182905233602482015260440161048a565b60006001848154811061234e5761234e612b6a565b9060005260206000209060090201905060005b6006820154811015612402578382600601828154811061238357612383612b6a565b6000918252602090912060028204015460019091166010026101000a90046001600160801b0316036123f0578160060181815481106123c4576123c4612b6a565b90600052602060002090600291828204019190066010026101000a8154906001600160801b0302191690555b806123fa81612bd0565b915050612361565b5050505050565b6040805160e08101825260008082526020820181905290918201908152602001612431612503565b815260606020820181905260408201819052600091015290565b828054828255906000526020600020906001016002900481019282156124f35791602002820160005b838211156124be57835183826101000a8154816001600160801b0302191690836001600160801b031602179055509260200192601001602081600f01049283019260010302612474565b80156124f15782816101000a8154906001600160801b030219169055601001602081600f010492830192600103026124be565b505b506124ff92915061253d565b5090565b60408051606081019091528060008152602001612530604080518082019091526000808252602082015290565b8152600060209091015290565b5b808211156124ff576000815560010161253e565b80356001600160801b038116811461256957600080fd5b919050565b6000806040838503121561258157600080fd5b8235915061259160208401612552565b90509250929050565b634e487b7160e01b600052602160045260246000fd5b600381106125c0576125c061259a565b50565b80516125ce816125b0565b825260208101518051600481106125e7576125e761259a565b806020850152506001600160a01b036020820151166040840152506040810151151560608301525050565b6000815180845260005b818110156126385760208185018101518683018201520161261c565b506000602082860101526020601f19601f83011685010191505092915050565b60006101408084018351855260208085015181870152604085015161267c816125b0565b80604088015250606085015161269560608801826125c3565b50608085015160e08701939093528251918290526101608601928101916000905b808210156126df5783516001600160801b031685529382019392820192600191909101906126b6565b5050505060a08301518482036101008601526126fb8282612612565b91505060c08301516127196101208601826001600160a01b03169052565b509392505050565b6000602080830181845280855180835260408601915060408160051b870101925083870160005b8281101561277657603f19888603018452612764858351612658565b94509285019290850190600101612748565b5092979650505050505050565b80356001600160a01b038116811461256957600080fd5b600080604083850312156127ad57600080fd5b8235915061259160208401612783565b6000602082840312156127cf57600080fd5b5035919050565b6020815260006127e96020830184612658565b9392505050565b6000610120888352876020840152612807876125b0565b86604084015261281a60608401876125c3565b8060e084015261282c81840186612612565b9150506001600160a01b038316610100830152979650505050505050565b600381106125c057600080fd5b634e487b7160e01b600052604160045260246000fd5b6040516060810167ffffffffffffffff8111828210171561289057612890612857565b60405290565b6040805190810167ffffffffffffffff8111828210171561289057612890612857565b604051601f8201601f1916810167ffffffffffffffff811182821017156128e2576128e2612857565b604052919050565b8035801515811461256957600080fd5b600082601f83011261290b57600080fd5b8135602067ffffffffffffffff82111561292757612927612857565b8160051b6129368282016128b9565b928352848101820192828101908785111561295057600080fd5b83870192505b848310156129765761296783612552565b82529183019190830190612956565b979650505050505050565b600082601f83011261299257600080fd5b813567ffffffffffffffff8111156129ac576129ac612857565b6129bf601f8201601f19166020016128b9565b8181528460208386010111156129d457600080fd5b816020850160208301376000918101602001919091529392505050565b6000806000806000858703610100811215612a0b57600080fd5b863595506020870135612a1d8161284a565b94506080603f1982011215612a3157600080fd5b612a3961286d565b6040880135612a478161284a565b81526040605f1983011215612a5b57600080fd5b612a63612896565b9150606088013560048110612a7757600080fd5b8252612a8560808901612783565b6020830152816020820152612a9c60a089016128ea565b604082015293505060c086013567ffffffffffffffff80821115612abf57600080fd5b612acb89838a016128fa565b935060e0880135915080821115612ae157600080fd5b50612aee88828901612981565b9150509295509295909350565b60008060008060808587031215612b1157600080fd5b84359350612b2160208601612783565b9250612b2f604086016128ea565b9150612b3d606086016128ea565b905092959194509250565b60008060408385031215612b5b57600080fd5b50508035926020909101359150565b634e487b7160e01b600052603260045260246000fd5b600181811c90821680612b9457607f821691505b602082108103612bb457634e487b7160e01b600052602260045260246000fd5b50919050565b634e487b7160e01b600052601160045260246000fd5b600060018201612be257612be2612bba565b5060010190565b601f821115612c2f57600081815260208120601f850160051c81016020861015612c105750805b601f850160051c820191505b818110156122f157828155600101612c1c565b505050565b815167ffffffffffffffff811115612c4e57612c4e612857565b612c6281612c5c8454612b80565b84612be9565b602080601f831160018114612c975760008415612c7f5750858301515b600019600386901b1c1916600185901b1785556122f1565b600085815260208120601f198616915b82811015612cc657888601518255948401946001909101908401612ca7565b5085821015612ce45787850151600019600388901b60f8161c191681555b5050505050600190811b01905550565b600060208284031215612d0657600080fd5b5051919050565b600081612d1c57612d1c612bba565b50600019019056fea164736f6c6343000811000a",
  "linkReferences": {},
  "deployedLinkReferences": {}
}