{
  "_format": "hh-sol-artifact-1",
  "contractName": "EmbraceAccounts",
  "sourceName": "contracts/EmbraceAccounts.sol",
  "abi": [
    {
      "inputs": [
        {
          "internalType": "string",
          "name": "_userHandle",
          "type": "string"
        }
      ],
      "name": "addAccount",
      "outputs": [],
      "stateMutability": "nonpayable",
      "type": "function"
    },
    {
      "inputs": [
        {
          "internalType": "address",
          "name": "_address",
          "type": "address"
        },
        {
          "internalType": "uint256",
          "name": "_spaceIndex",
          "type": "uint256"
        }
      ],
      "name": "addSpace",
      "outputs": [],
      "stateMutability": "nonpayable",
      "type": "function"
    },
    {
      "inputs": [
        {
          "internalType": "string",
          "name": "_userHandle",
          "type": "string"
        }
      ],
      "name": "getAddress",
      "outputs": [
        {
          "internalType": "address",
          "name": "",
          "type": "address"
        }
      ],
      "stateMutability": "view",
      "type": "function"
    },
    {
      "inputs": [
        {
          "internalType": "address",
          "name": "_userAddress",
          "type": "address"
        }
      ],
      "name": "getHandle",
      "outputs": [
        {
          "internalType": "string",
          "name": "",
          "type": "string"
        }
      ],
      "stateMutability": "view",
      "type": "function"
    },
    {
      "inputs": [
        {
          "internalType": "address",
          "name": "_address",
          "type": "address"
        }
      ],
      "name": "getSpaces",
      "outputs": [
        {
          "internalType": "uint256[]",
          "name": "",
          "type": "uint256[]"
        }
      ],
      "stateMutability": "view",
      "type": "function"
    }
  ],
  "bytecode": "0x608060405234801561001057600080fd5b50610634806100206000396000f3fe608060405234801561001057600080fd5b50600436106100675760003560e01c8063854b07b211610050578063854b07b2146100bb578063bf40fac1146100e4578063d9a056a61461010f57600080fd5b80632ad26a041461006c5780636aed0c1a14610081575b600080fd5b61007f61007a36600461030e565b61012f565b005b61007f61008f3660046103db565b6001600160a01b0390911660009081526002602090815260408220805460018101825590835291200155565b6100ce6100c9366004610405565b610155565b6040516100db919061044b565b60405180910390f35b6100f76100f236600461030e565b610201565b6040516001600160a01b0390911681526020016100db565b61012261011d366004610405565b610232565b6040516100db919061047e565b336000908152602081905260409020610148828261054b565b506101528161029d565b50565b6001600160a01b038116600090815260208190526040902080546060919061017c906104c2565b80601f01602080910402602001604051908101604052809291908181526020018280546101a8906104c2565b80156101f55780601f106101ca576101008083540402835291602001916101f5565b820191906000526020600020905b8154815290600101906020018083116101d857829003601f168201915b50505050509050919050565b6000600182604051610213919061060b565b908152604051908190036020019020546001600160a01b031692915050565b6001600160a01b0381166000908152600260209081526040918290208054835181840281018401909452808452606093928301828280156101f557602002820191906000526020600020905b81548152602001906001019080831161027e5750505050509050919050565b336001826040516102ae919061060b565b90815260405190819003602001902080546001600160a01b03929092167fffffffffffffffffffffffff000000000000000000000000000000000000000090921691909117905550565b634e487b7160e01b600052604160045260246000fd5b60006020828403121561032057600080fd5b813567ffffffffffffffff8082111561033857600080fd5b818401915084601f83011261034c57600080fd5b81358181111561035e5761035e6102f8565b604051601f8201601f19908116603f01168101908382118183101715610386576103866102f8565b8160405282815287602084870101111561039f57600080fd5b826020860160208301376000928101602001929092525095945050505050565b80356001600160a01b03811681146103d657600080fd5b919050565b600080604083850312156103ee57600080fd5b6103f7836103bf565b946020939093013593505050565b60006020828403121561041757600080fd5b610420826103bf565b9392505050565b60005b8381101561044257818101518382015260200161042a565b50506000910152565b602081526000825180602084015261046a816040850160208701610427565b601f01601f19169190910160400192915050565b6020808252825182820181905260009190848201906040850190845b818110156104b65783518352928401929184019160010161049a565b50909695505050505050565b600181811c908216806104d657607f821691505b6020821081036104f657634e487b7160e01b600052602260045260246000fd5b50919050565b601f82111561054657600081815260208120601f850160051c810160208610156105235750805b601f850160051c820191505b818110156105425782815560010161052f565b5050505b505050565b815167ffffffffffffffff811115610565576105656102f8565b6105798161057384546104c2565b846104fc565b602080601f8311600181146105ae57600084156105965750858301515b600019600386901b1c1916600185901b178555610542565b600085815260208120601f198616915b828110156105dd578886015182559484019460019091019084016105be565b50858210156105fb5787850151600019600388901b60f8161c191681555b5050505050600190811b01905550565b6000825161061d818460208701610427565b919091019291505056fea164736f6c6343000811000a",
  "linkReferences": {},
  "deployedLinkReferences": {}
}