{
  "_format": "hh-sol-artifact-1",
  "contractName": "EmbraceSpaces",
  "sourceName": "contracts/EmbraceSpaces.sol",
  "abi": [
    {
      "inputs": [
        {
          "internalType": "address",
          "name": "_accountsContractAddress",
          "type": "address"
        },
        {
          "internalType": "address",
          "name": "_appsContractAddress",
          "type": "address"
        }
      ],
      "stateMutability": "nonpayable",
      "type": "constructor"
    },
    {
      "inputs": [
        {
          "internalType": "uint256",
          "name": "spaceId",
          "type": "uint256"
        },
        {
          "internalType": "address",
          "name": "memberAddress",
          "type": "address"
        }
      ],
      "name": "ErrorCannotJoinAnonSpace",
      "type": "error"
    },
    {
      "inputs": [
        {
          "internalType": "uint256",
          "name": "spaceId",
          "type": "uint256"
        },
        {
          "internalType": "address",
          "name": "memberAddress",
          "type": "address"
        }
      ],
      "name": "ErrorCannotJoinPrivClosedSpace",
      "type": "error"
    },
    {
      "inputs": [
        {
          "internalType": "uint256",
          "name": "spaceId",
          "type": "uint256"
        },
        {
          "internalType": "address",
          "name": "memberAddress",
          "type": "address"
        }
      ],
      "name": "ErrorDoNotMeetSpaceReq",
      "type": "error"
    },
    {
      "inputs": [
        {
          "internalType": "string",
          "name": "handle",
          "type": "string"
        }
      ],
      "name": "ErrorHandleExists",
      "type": "error"
    },
    {
      "inputs": [
        {
          "internalType": "uint256",
          "name": "spaceId",
          "type": "uint256"
        },
        {
          "internalType": "address",
          "name": "memberAddress",
          "type": "address"
        }
      ],
      "name": "ErrorMemberAlreadyExists",
      "type": "error"
    },
    {
      "inputs": [
        {
          "internalType": "uint256",
          "name": "spaceId",
          "type": "uint256"
        },
        {
          "internalType": "address",
          "name": "memberAddress",
          "type": "address"
        }
      ],
      "name": "ErrorOnlyAdmin",
      "type": "error"
    },
    {
      "inputs": [
        {
          "internalType": "uint256",
          "name": "spaceId",
          "type": "uint256"
        },
        {
          "internalType": "address",
          "name": "memberAddress",
          "type": "address"
        }
      ],
      "name": "ErrorOnlyFounder",
      "type": "error"
    },
    {
      "inputs": [
        {
          "internalType": "string",
          "name": "handle",
          "type": "string"
        }
      ],
      "name": "ErrorSpaceNotFound",
      "type": "error"
    },
    {
      "anonymous": false,
      "inputs": [
        {
          "indexed": true,
          "internalType": "uint256",
          "name": "spaceId",
          "type": "uint256"
        },
        {
          "indexed": true,
          "internalType": "address",
          "name": "memberAddress",
          "type": "address"
        },
        {
          "indexed": false,
          "internalType": "bool",
          "name": "isAdmin",
          "type": "bool"
        }
      ],
      "name": "JoinedSpace",
      "type": "event"
    },
    {
      "anonymous": false,
      "inputs": [
        {
          "indexed": true,
          "internalType": "uint256",
          "name": "spaceId",
          "type": "uint256"
        },
        {
          "indexed": true,
          "internalType": "address",
          "name": "memberAddress",
          "type": "address"
        }
      ],
      "name": "RemovedFromSpace",
      "type": "event"
    },
    {
      "anonymous": false,
      "inputs": [
        {
          "indexed": true,
          "internalType": "uint256",
          "name": "spaceId",
          "type": "uint256"
        },
        {
          "indexed": true,
          "internalType": "address",
          "name": "memberAddress",
          "type": "address"
        }
      ],
      "name": "RequestJoinSpace",
      "type": "event"
    },
    {
      "anonymous": false,
      "inputs": [
        {
          "indexed": true,
          "internalType": "uint256",
          "name": "spaceId",
          "type": "uint256"
        },
        {
          "indexed": true,
          "internalType": "address",
          "name": "founder",
          "type": "address"
        }
      ],
      "name": "SpaceCreated",
      "type": "event"
    },
    {
      "inputs": [
        {
          "internalType": "string",
          "name": "_handle",
          "type": "string"
        },
        {
          "internalType": "enum EmbraceSpaces.Visibility",
          "name": "_visibility",
          "type": "uint8"
        },
        {
          "components": [
            {
              "internalType": "enum EmbraceSpaces.Access",
              "name": "access",
              "type": "uint8"
            },
            {
              "components": [
                {
                  "internalType": "enum EmbraceSpaces.MembershipGateToken",
                  "name": "token",
                  "type": "uint8"
                },
                {
                  "internalType": "address",
                  "name": "tokenAddress",
                  "type": "address"
                }
              ],
              "internalType": "struct EmbraceSpaces.MembershipGate",
              "name": "gate",
              "type": "tuple"
            },
            {
              "internalType": "bool",
              "name": "allowRequests",
              "type": "bool"
            }
          ],
          "internalType": "struct EmbraceSpaces.Membership",
          "name": "_membership",
          "type": "tuple"
        },
        {
          "internalType": "uint128[]",
          "name": "_apps",
          "type": "uint128[]"
        },
        {
          "internalType": "string",
          "name": "_metadata",
          "type": "string"
        }
      ],
      "name": "createSpace",
      "outputs": [],
      "stateMutability": "nonpayable",
      "type": "function"
    },
    {
      "inputs": [
        {
          "internalType": "string",
          "name": "_handle",
          "type": "string"
        }
      ],
      "name": "getIdFromHandle",
      "outputs": [
        {
          "internalType": "uint256",
          "name": "",
          "type": "uint256"
        }
      ],
      "stateMutability": "view",
      "type": "function"
    },
    {
      "inputs": [
        {
          "internalType": "uint256",
          "name": "_spaceId",
          "type": "uint256"
        }
      ],
      "name": "getMemberCount",
      "outputs": [
        {
          "internalType": "uint256",
          "name": "",
          "type": "uint256"
        }
      ],
      "stateMutability": "view",
      "type": "function"
    },
    {
      "inputs": [
        {
          "internalType": "uint256",
          "name": "_spaceId",
          "type": "uint256"
        }
      ],
      "name": "getSpace",
      "outputs": [
        {
          "components": [
            {
              "internalType": "uint256",
              "name": "id",
              "type": "uint256"
            },
            {
              "internalType": "string",
              "name": "handle",
              "type": "string"
            },
            {
              "internalType": "address",
              "name": "founder",
              "type": "address"
            },
            {
              "internalType": "enum EmbraceSpaces.Visibility",
              "name": "visibility",
              "type": "uint8"
            },
            {
              "components": [
                {
                  "internalType": "enum EmbraceSpaces.Access",
                  "name": "access",
                  "type": "uint8"
                },
                {
                  "components": [
                    {
                      "internalType": "enum EmbraceSpaces.MembershipGateToken",
                      "name": "token",
                      "type": "uint8"
                    },
                    {
                      "internalType": "address",
                      "name": "tokenAddress",
                      "type": "address"
                    }
                  ],
                  "internalType": "struct EmbraceSpaces.MembershipGate",
                  "name": "gate",
                  "type": "tuple"
                },
                {
                  "internalType": "bool",
                  "name": "allowRequests",
                  "type": "bool"
                }
              ],
              "internalType": "struct EmbraceSpaces.Membership",
              "name": "membership",
              "type": "tuple"
            },
            {
              "internalType": "uint128[]",
              "name": "apps",
              "type": "uint128[]"
            },
            {
              "internalType": "string",
              "name": "metadata",
              "type": "string"
            }
          ],
          "internalType": "struct EmbraceSpaces.Space",
          "name": "",
          "type": "tuple"
        }
      ],
      "stateMutability": "view",
      "type": "function"
    },
    {
      "inputs": [
        {
          "internalType": "string",
          "name": "_handle",
          "type": "string"
        }
      ],
      "name": "getSpaceFromHandle",
      "outputs": [
        {
          "components": [
            {
              "internalType": "uint256",
              "name": "id",
              "type": "uint256"
            },
            {
              "internalType": "string",
              "name": "handle",
              "type": "string"
            },
            {
              "internalType": "address",
              "name": "founder",
              "type": "address"
            },
            {
              "internalType": "enum EmbraceSpaces.Visibility",
              "name": "visibility",
              "type": "uint8"
            },
            {
              "components": [
                {
                  "internalType": "enum EmbraceSpaces.Access",
                  "name": "access",
                  "type": "uint8"
                },
                {
                  "components": [
                    {
                      "internalType": "enum EmbraceSpaces.MembershipGateToken",
                      "name": "token",
                      "type": "uint8"
                    },
                    {
                      "internalType": "address",
                      "name": "tokenAddress",
                      "type": "address"
                    }
                  ],
                  "internalType": "struct EmbraceSpaces.MembershipGate",
                  "name": "gate",
                  "type": "tuple"
                },
                {
                  "internalType": "bool",
                  "name": "allowRequests",
                  "type": "bool"
                }
              ],
              "internalType": "struct EmbraceSpaces.Membership",
              "name": "membership",
              "type": "tuple"
            },
            {
              "internalType": "uint128[]",
              "name": "apps",
              "type": "uint128[]"
            },
            {
              "internalType": "string",
              "name": "metadata",
              "type": "string"
            }
          ],
          "internalType": "struct EmbraceSpaces.Space",
          "name": "",
          "type": "tuple"
        }
      ],
      "stateMutability": "view",
      "type": "function"
    },
    {
      "inputs": [
        {
          "internalType": "uint256",
          "name": "_spaceId",
          "type": "uint256"
        },
        {
          "internalType": "address",
          "name": "_address",
          "type": "address"
        }
      ],
      "name": "getSpaceMember",
      "outputs": [
        {
          "components": [
            {
              "internalType": "bool",
              "name": "isAdmin",
              "type": "bool"
            },
            {
              "internalType": "bool",
              "name": "isActive",
              "type": "bool"
            },
            {
              "internalType": "bool",
              "name": "isRequest",
              "type": "bool"
            }
          ],
          "internalType": "struct EmbraceSpaces.Member",
          "name": "",
          "type": "tuple"
        }
      ],
      "stateMutability": "view",
      "type": "function"
    },
    {
      "inputs": [],
      "name": "getSpaces",
      "outputs": [
        {
          "components": [
            {
              "internalType": "uint256",
              "name": "id",
              "type": "uint256"
            },
            {
              "internalType": "string",
              "name": "handle",
              "type": "string"
            },
            {
              "internalType": "address",
              "name": "founder",
              "type": "address"
            },
            {
              "internalType": "enum EmbraceSpaces.Visibility",
              "name": "visibility",
              "type": "uint8"
            },
            {
              "components": [
                {
                  "internalType": "enum EmbraceSpaces.Access",
                  "name": "access",
                  "type": "uint8"
                },
                {
                  "components": [
                    {
                      "internalType": "enum EmbraceSpaces.MembershipGateToken",
                      "name": "token",
                      "type": "uint8"
                    },
                    {
                      "internalType": "address",
                      "name": "tokenAddress",
                      "type": "address"
                    }
                  ],
                  "internalType": "struct EmbraceSpaces.MembershipGate",
                  "name": "gate",
                  "type": "tuple"
                },
                {
                  "internalType": "bool",
                  "name": "allowRequests",
                  "type": "bool"
                }
              ],
              "internalType": "struct EmbraceSpaces.Membership",
              "name": "membership",
              "type": "tuple"
            },
            {
              "internalType": "uint128[]",
              "name": "apps",
              "type": "uint128[]"
            },
            {
              "internalType": "string",
              "name": "metadata",
              "type": "string"
            }
          ],
          "internalType": "struct EmbraceSpaces.Space[]",
          "name": "",
          "type": "tuple[]"
        }
      ],
      "stateMutability": "view",
      "type": "function"
    },
    {
      "inputs": [
        {
          "internalType": "uint256",
          "name": "_spaceId",
          "type": "uint256"
        }
      ],
      "name": "isAdmin",
      "outputs": [
        {
          "internalType": "bool",
          "name": "",
          "type": "bool"
        }
      ],
      "stateMutability": "view",
      "type": "function"
    },
    {
      "inputs": [
        {
          "internalType": "uint256",
          "name": "_spaceId",
          "type": "uint256"
        },
        {
          "internalType": "address",
          "name": "_address",
          "type": "address"
        }
      ],
      "name": "isAdminExternal",
      "outputs": [
        {
          "internalType": "bool",
          "name": "",
          "type": "bool"
        }
      ],
      "stateMutability": "view",
      "type": "function"
    },
    {
      "inputs": [
        {
          "internalType": "uint256",
          "name": "_spaceId",
          "type": "uint256"
        }
      ],
      "name": "isFounder",
      "outputs": [
        {
          "internalType": "bool",
          "name": "",
          "type": "bool"
        }
      ],
      "stateMutability": "view",
      "type": "function"
    },
    {
      "inputs": [
        {
          "internalType": "uint256",
          "name": "_spaceId",
          "type": "uint256"
        },
        {
          "internalType": "address",
          "name": "_address",
          "type": "address"
        }
      ],
      "name": "isFounderExternal",
      "outputs": [
        {
          "internalType": "bool",
          "name": "",
          "type": "bool"
        }
      ],
      "stateMutability": "view",
      "type": "function"
    },
    {
      "inputs": [
        {
          "internalType": "uint256",
          "name": "_spaceId",
          "type": "uint256"
        }
      ],
      "name": "joinSpace",
      "outputs": [
        {
          "internalType": "bool",
          "name": "",
          "type": "bool"
        }
      ],
      "stateMutability": "nonpayable",
      "type": "function"
    },
    {
      "inputs": [
        {
          "internalType": "uint256",
          "name": "_spaceId",
          "type": "uint256"
        }
      ],
      "name": "meetsGateRequirements",
      "outputs": [
        {
          "internalType": "bool",
          "name": "",
          "type": "bool"
        }
      ],
      "stateMutability": "view",
      "type": "function"
    },
    {
      "inputs": [
        {
          "internalType": "uint256",
          "name": "_spaceId",
          "type": "uint256"
        }
      ],
      "name": "requestJoin",
      "outputs": [
        {
          "internalType": "bool",
          "name": "",
          "type": "bool"
        }
      ],
      "stateMutability": "nonpayable",
      "type": "function"
    },
    {
      "inputs": [
        {
          "internalType": "uint256",
          "name": "_spaceId",
          "type": "uint256"
        },
        {
          "internalType": "address",
          "name": "_address",
          "type": "address"
        }
      ],
      "name": "setFounder",
      "outputs": [],
      "stateMutability": "nonpayable",
      "type": "function"
    },
    {
      "inputs": [
        {
          "internalType": "uint256",
          "name": "_spaceId",
          "type": "uint256"
        },
        {
          "internalType": "address",
          "name": "_address",
          "type": "address"
        },
        {
          "internalType": "bool",
          "name": "_isActive",
          "type": "bool"
        },
        {
          "internalType": "bool",
          "name": "_isAdmin",
          "type": "bool"
        }
      ],
      "name": "setMember",
      "outputs": [],
      "stateMutability": "nonpayable",
      "type": "function"
    },
    {
      "inputs": [
        {
          "internalType": "bytes32",
          "name": "",
          "type": "bytes32"
        }
      ],
      "name": "spaceHandleToId",
      "outputs": [
        {
          "internalType": "uint256",
          "name": "",
          "type": "uint256"
        }
      ],
      "stateMutability": "view",
      "type": "function"
    },
    {
      "inputs": [
        {
          "internalType": "uint256",
          "name": "",
          "type": "uint256"
        }
      ],
      "name": "spaceMemberLength",
      "outputs": [
        {
          "internalType": "uint256",
          "name": "",
          "type": "uint256"
        }
      ],
      "stateMutability": "view",
      "type": "function"
    },
    {
      "inputs": [
        {
          "internalType": "uint256",
          "name": "",
          "type": "uint256"
        },
        {
          "internalType": "address",
          "name": "",
          "type": "address"
        }
      ],
      "name": "spaceMembers",
      "outputs": [
        {
          "internalType": "bool",
          "name": "isAdmin",
          "type": "bool"
        },
        {
          "internalType": "bool",
          "name": "isActive",
          "type": "bool"
        },
        {
          "internalType": "bool",
          "name": "isRequest",
          "type": "bool"
        }
      ],
      "stateMutability": "view",
      "type": "function"
    },
    {
      "inputs": [
        {
          "internalType": "uint256",
          "name": "",
          "type": "uint256"
        }
      ],
      "name": "spaces",
      "outputs": [
        {
          "internalType": "uint256",
          "name": "id",
          "type": "uint256"
        },
        {
          "internalType": "string",
          "name": "handle",
          "type": "string"
        },
        {
          "internalType": "address",
          "name": "founder",
          "type": "address"
        },
        {
          "internalType": "enum EmbraceSpaces.Visibility",
          "name": "visibility",
          "type": "uint8"
        },
        {
          "components": [
            {
              "internalType": "enum EmbraceSpaces.Access",
              "name": "access",
              "type": "uint8"
            },
            {
              "components": [
                {
                  "internalType": "enum EmbraceSpaces.MembershipGateToken",
                  "name": "token",
                  "type": "uint8"
                },
                {
                  "internalType": "address",
                  "name": "tokenAddress",
                  "type": "address"
                }
              ],
              "internalType": "struct EmbraceSpaces.MembershipGate",
              "name": "gate",
              "type": "tuple"
            },
            {
              "internalType": "bool",
              "name": "allowRequests",
              "type": "bool"
            }
          ],
          "internalType": "struct EmbraceSpaces.Membership",
          "name": "membership",
          "type": "tuple"
        },
        {
          "internalType": "string",
          "name": "metadata",
          "type": "string"
        }
      ],
      "stateMutability": "view",
      "type": "function"
    }
  ],
  "bytecode": "0x60806040523480156200001157600080fd5b5060405162003554380380620035548339810160408190526200003491620000ac565b600280546001600160a01b03199081166001600160a01b0385811691909117909255600380549091169183169190911790556200007e600062000086602090811b62002ad417901c565b5050620000e4565b80546001019055565b80516001600160a01b0381168114620000a757600080fd5b919050565b60008060408385031215620000c057600080fd5b620000cb836200008f565b9150620000db602084016200008f565b90509250929050565b61346080620000f46000396000f3fe608060405234801561001057600080fd5b506004361061016c5760003560e01c80637d54b282116100cd578063ca5fb98011610081578063cd5b22a111610066578063cd5b22a1146103a2578063d1f97b79146103b5578063dd739fb5146103c857600080fd5b8063ca5fb9801461037c578063cb4ac1f51461038f57600080fd5b806399384976116100b257806399384976146102f4578063a303cf8e14610309578063af41f22a1461031c57600080fd5b80637d54b282146102ce5780638be9e3c8146102e157600080fd5b806351c75f241161012457806370e104311161010957806370e1043114610269578063728a716d146102895780637586353b146102a957600080fd5b806351c75f241461022e5780635ce9284f1461025657600080fd5b80631f6dc437116101555780631f6dc437146101ca5780632ea6524f146101ed57806333d7ae401461020057600080fd5b806315478ca9146101715780631557f48c1461018f575b600080fd5b6101796103db565b6040516101869190612dcb565b60405180910390f35b6101a261019d366004612e49565b6106e0565b6040805182511515815260208084015115159082015291810151151590820152606001610186565b6101dd6101d8366004612e75565b61076d565b6040519015158152602001610186565b6101dd6101fb366004612e75565b6107b7565b61022061020e366004612e75565b60056020526000908152604090205481565b604051908152602001610186565b61022061023c366004612f91565b805160209182012060009081526006909152604090205490565b610220610264366004612e75565b610c18565b61027c610277366004612e75565b610c3e565b6040516101869190612fce565b610220610297366004612e75565b60066020526000908152604090205481565b6102bc6102b7366004612e75565b610f28565b60405161018696959493929190612fe8565b6101dd6102dc366004612e49565b611134565b6101dd6102ef366004612e75565b611188565b610307610302366004612e49565b6116e2565b005b6101dd610317366004612e75565b611774565b61035d61032a366004612e49565b600460209081526000928352604080842090915290825290205460ff808216916101008104821691620100009091041683565b6040805193151584529115156020840152151590820152606001610186565b61027c61038a366004612f91565b611a69565b61030761039d3660046130f7565b611da0565b6101dd6103b0366004612e49565b612161565b6101dd6103c3366004612e75565b612463565b6103076103d6366004613222565b6128a4565b60606001805480602002602001604051908101604052809291908181526020016000905b828210156106d757838290600052602060002090600802016040518060e00160405290816000820154815260200160018201805461043c9061326f565b80601f01602080910402602001604051908101604052809291908181526020018280546104689061326f565b80156104b55780601f1061048a576101008083540402835291602001916104b5565b820191906000526020600020905b81548152906001019060200180831161049857829003601f168201915b50505091835250506002828101546001600160a01b0381166020840152604090920191600160a01b900460ff16908111156104f2576104f2612c87565b600281111561050357610503612c87565b81526040805160608101909152600383018054602090930192829060ff16600281111561053257610532612c87565b600281111561054357610543612c87565b815260408051808201909152600183018054602090930192829060ff16600381111561057157610571612c87565b600381111561058257610582612c87565b8152905461010090046001600160a01b03166020918201529082526002929092015460ff161515908201529082526006830180546040805182850281018501909152818152938301939283018282801561062d57602002820191906000526020600020906000905b82829054906101000a90046001600160801b03166001600160801b031681526020019060100190602082600f010492830192600103820291508084116105ea5790505b505050505081526020016007820180546106469061326f565b80601f01602080910402602001604051908101604052809291908181526020018280546106729061326f565b80156106bf5780601f10610694576101008083540402835291602001916106bf565b820191906000526020600020905b8154815290600101906020018083116106a257829003601f168201915b505050505081525050815260200190600101906103ff565b50505050905090565b60408051606081018252600080825260208201819052918101919091526004600061070c6001866132bf565b8152602080820192909252604090810160009081206001600160a01b038616825283528190208151606081018352905460ff808216151583526101008204811615159483019490945262010000900490921615159082015290505b92915050565b600060048161077d6001856132bf565b81526020808201929092526040908101600090812033825290925290205460ff1615156001036107af57506001919050565b506000919050565b6000806107c56001846132bf565b6000818152600460209081526040808320338452909152902054909150610100900460ff16151560010361081a57604051630c4e612760e41b8152600481018490523360248201526044015b60405180910390fd5b60006001828154811061082f5761082f6132d2565b90600052602060002090600802016040518060e0016040529081600082015481526020016001820180546108629061326f565b80601f016020809104026020016040519081016040528092919081815260200182805461088e9061326f565b80156108db5780601f106108b0576101008083540402835291602001916108db565b820191906000526020600020905b8154815290600101906020018083116108be57829003601f168201915b50505091835250506002828101546001600160a01b0381166020840152604090920191600160a01b900460ff169081111561091857610918612c87565b600281111561092957610929612c87565b81526040805160608101909152600383018054602090930192829060ff16600281111561095857610958612c87565b600281111561096957610969612c87565b815260408051808201909152600183018054602090930192829060ff16600381111561099757610997612c87565b60038111156109a8576109a8612c87565b8152905461010090046001600160a01b03166020918201529082526002929092015460ff1615159082015290825260068301805460408051828502810185019091528181529383019392830182828015610a5357602002820191906000526020600020906000905b82829054906101000a90046001600160801b03166001600160801b031681526020019060100190602082600f01049283019260010382029150808411610a105790505b50505050508152602001600782018054610a6c9061326f565b80601f0160208091040260200160405190810160405280929190818152602001828054610a989061326f565b8015610ae55780601f10610aba57610100808354040283529160200191610ae5565b820191906000526020600020905b815481529060010190602001808311610ac857829003601f168201915b505050505081525050905060016002811115610b0357610b03612c87565b81606001516002811115610b1957610b19612c87565b141580610b3d575060026080820151516002811115610b3a57610b3a612c87565b14155b80610b4e5750806080015160400151155b15610b755760405163425ad41160e11b815260048101859052336024820152604401610811565b604080516060810182526000808252602080830182815260018486019081528784526004835285842033808652935285842085518154935192511515620100000262ff0000199315156101000261ff00199215159290921661ffff19909516949094171791909116919091179055925191929187917fdbb2455cc69235cd7b041dc0cced849ee3bd818c2e063d18e579d3d068f7974e91a3506001949350505050565b6000600581610c286001856132bf565b8152602001908152602001600020549050919050565b610c46612add565b6001610c5281846132bf565b81548110610c6257610c626132d2565b90600052602060002090600802016040518060e001604052908160008201548152602001600182018054610c959061326f565b80601f0160208091040260200160405190810160405280929190818152602001828054610cc19061326f565b8015610d0e5780601f10610ce357610100808354040283529160200191610d0e565b820191906000526020600020905b815481529060010190602001808311610cf157829003601f168201915b50505091835250506002828101546001600160a01b0381166020840152604090920191600160a01b900460ff1690811115610d4b57610d4b612c87565b6002811115610d5c57610d5c612c87565b81526040805160608101909152600383018054602090930192829060ff166002811115610d8b57610d8b612c87565b6002811115610d9c57610d9c612c87565b815260408051808201909152600183018054602090930192829060ff166003811115610dca57610dca612c87565b6003811115610ddb57610ddb612c87565b8152905461010090046001600160a01b03166020918201529082526002929092015460ff1615159082015290825260068301805460408051828502810185019091528181529383019392830182828015610e8657602002820191906000526020600020906000905b82829054906101000a90046001600160801b03166001600160801b031681526020019060100190602082600f01049283019260010382029150808411610e435790505b50505050508152602001600782018054610e9f9061326f565b80601f0160208091040260200160405190810160405280929190818152602001828054610ecb9061326f565b8015610f185780601f10610eed57610100808354040283529160200191610f18565b820191906000526020600020905b815481529060010190602001808311610efb57829003601f168201915b5050505050815250509050919050565b60018181548110610f3857600080fd5b60009182526020909120600890910201805460018201805491935090610f5d9061326f565b80601f0160208091040260200160405190810160405280929190818152602001828054610f899061326f565b8015610fd65780601f10610fab57610100808354040283529160200191610fd6565b820191906000526020600020905b815481529060010190602001808311610fb957829003601f168201915b505050600280850154604080516060810190915260038701805496976001600160a01b0384169760ff600160a01b90950485169750909550919390928492169081111561102557611025612c87565b600281111561103657611036612c87565b815260408051808201909152600183018054602090930192829060ff16600381111561106457611064612c87565b600381111561107557611075612c87565b8152905461010090046001600160a01b03166020918201529082526002929092015460ff1615159101526007820180549192916110b19061326f565b80601f01602080910402602001604051908101604052809291908181526020018280546110dd9061326f565b801561112a5780601f106110ff5761010080835404028352916020019161112a565b820191906000526020600020905b81548152906001019060200180831161110d57829003601f168201915b5050505050905086565b60006004816111446001866132bf565b8152602080820192909252604090810160009081206001600160a01b038616825290925290205460ff16151560010361117f57506001610767565b50600092915050565b6000806111966001846132bf565b90506000600182815481106111ad576111ad6132d2565b90600052602060002090600802016040518060e0016040529081600082015481526020016001820180546111e09061326f565b80601f016020809104026020016040519081016040528092919081815260200182805461120c9061326f565b80156112595780601f1061122e57610100808354040283529160200191611259565b820191906000526020600020905b81548152906001019060200180831161123c57829003601f168201915b50505091835250506002828101546001600160a01b0381166020840152604090920191600160a01b900460ff169081111561129657611296612c87565b60028111156112a7576112a7612c87565b81526040805160608101909152600383018054602090930192829060ff1660028111156112d6576112d6612c87565b60028111156112e7576112e7612c87565b815260408051808201909152600183018054602090930192829060ff16600381111561131557611315612c87565b600381111561132657611326612c87565b8152905461010090046001600160a01b03166020918201529082526002929092015460ff16151590820152908252600683018054604080518285028101850190915281815293830193928301828280156113d157602002820191906000526020600020906000905b82829054906101000a90046001600160801b03166001600160801b031681526020019060100190602082600f0104928301926001038202915080841161138e5790505b505050505081526020016007820180546113ea9061326f565b80601f01602080910402602001604051908101604052809291908181526020018280546114169061326f565b80156114635780601f1061143857610100808354040283529160200191611463565b820191906000526020600020905b81548152906001019060200180831161144657829003601f168201915b505050919092525050506000838152600460209081526040808320338452909152902054909150610100900460ff1615156001036114bd57604051630c4e612760e41b815260048101859052336024820152604401610811565b6002816060015160028111156114d5576114d5612c87565b036114fc5760405163cf14998d60e01b815260048101859052336024820152604401610811565b60018160600151600281111561151457611514612c87565b14801561153757506002608082015151600281111561153557611535612c87565b145b1561155e5760405163425ad41160e11b815260048101859052336024820152604401610811565b6001608082015151600281111561157757611577612c87565b14801561158a575061158884612463565b155b156115b157604051637a8a90f360e11b815260048101859052336024820152604401610811565b6040805160608101825260008082526001602080840191825283850183815287845260048252858420338552825285842085518154945192511515620100000262ff0000199315156101000261ff00199215159290921661ffff19909616959095171791909116929092179091558582526005905291822080549192611636836132e8565b909155505060405160008152339086907f01b0570fcf8d040a1dead2d60d1060b4817a6ebc4de6b950e632df705b9f50489060200160405180910390a3600254604051633576860d60e11b8152336004820152602481018790526001600160a01b0390911690636aed0c1a90604401600060405180830381600087803b1580156116bf57600080fd5b505af11580156116d3573d6000803e3d6000fd5b50600198975050505050505050565b816116ec81611774565b61171257604051633eb0f74360e21b815260048101829052336024820152604401610811565b6000600161172081866132bf565b81548110611730576117306132d2565b60009182526020909120600890910201600201805473ffffffffffffffffffffffffffffffffffffffff19166001600160a01b039490941693909317909255505050565b600080600161178381856132bf565b81548110611793576117936132d2565b90600052602060002090600802016040518060e0016040529081600082015481526020016001820180546117c69061326f565b80601f01602080910402602001604051908101604052809291908181526020018280546117f29061326f565b801561183f5780601f106118145761010080835404028352916020019161183f565b820191906000526020600020905b81548152906001019060200180831161182257829003601f168201915b50505091835250506002828101546001600160a01b0381166020840152604090920191600160a01b900460ff169081111561187c5761187c612c87565b600281111561188d5761188d612c87565b81526040805160608101909152600383018054602090930192829060ff1660028111156118bc576118bc612c87565b60028111156118cd576118cd612c87565b815260408051808201909152600183018054602090930192829060ff1660038111156118fb576118fb612c87565b600381111561190c5761190c612c87565b8152905461010090046001600160a01b03166020918201529082526002929092015460ff16151590820152908252600683018054604080518285028101850190915281815293830193928301828280156119b757602002820191906000526020600020906000905b82829054906101000a90046001600160801b03166001600160801b031681526020019060100190602082600f010492830192600103820291508084116119745790505b505050505081526020016007820180546119d09061326f565b80601f01602080910402602001604051908101604052809291908181526020018280546119fc9061326f565b8015611a495780601f10611a1e57610100808354040283529160200191611a49565b820191906000526020600020905b815481529060010190602001808311611a2c57829003601f168201915b50505091909252505050604001516001600160a01b031633149392505050565b611a71612add565b6000611a9183805160209182012060009081526006909152604090205490565b90506000611aa06001836132bf565b905081600003611ac5578360405163504d6b5d60e11b81526004016108119190613301565b60018181548110611ad857611ad86132d2565b90600052602060002090600802016040518060e001604052908160008201548152602001600182018054611b0b9061326f565b80601f0160208091040260200160405190810160405280929190818152602001828054611b379061326f565b8015611b845780601f10611b5957610100808354040283529160200191611b84565b820191906000526020600020905b815481529060010190602001808311611b6757829003601f168201915b50505091835250506002828101546001600160a01b0381166020840152604090920191600160a01b900460ff1690811115611bc157611bc1612c87565b6002811115611bd257611bd2612c87565b81526040805160608101909152600383018054602090930192829060ff166002811115611c0157611c01612c87565b6002811115611c1257611c12612c87565b815260408051808201909152600183018054602090930192829060ff166003811115611c4057611c40612c87565b6003811115611c5157611c51612c87565b8152905461010090046001600160a01b03166020918201529082526002929092015460ff1615159082015290825260068301805460408051828502810185019091528181529383019392830182828015611cfc57602002820191906000526020600020906000905b82829054906101000a90046001600160801b03166001600160801b031681526020019060100190602082600f01049283019260010382029150808411611cb95790505b50505050508152602001600782018054611d159061326f565b80601f0160208091040260200160405190810160405280929190818152602001828054611d419061326f565b8015611d8e5780601f10611d6357610100808354040283529160200191611d8e565b820191906000526020600020905b815481529060010190602001808311611d7157829003601f168201915b50505050508152505092505050919050565b84516020808701919091206000818152600690925260409091205415611ddb5785604051630b6da56160e21b81526004016108119190613301565b60008054905060006040518060e00160405280838152602001898152602001336001600160a01b03168152602001886002811115611e1b57611e1b612c87565b81526020808201899052604082018890526060909101869052600180548082018255600091909152825160089091027fb10e2d527612073b26eecdfd717e6a320cf44b4afac2b0732d9fcbe2b7fa0cf6810191825591830151929350839290917fb10e2d527612073b26eecdfd717e6a320cf44b4afac2b0732d9fcbe2b7fa0cf70190611ea89082613363565b506040820151600280830180546001600160a01b0390931673ffffffffffffffffffffffffffffffffffffffff1984168117825560608601519391927fffffffffffffffffffffff0000000000000000000000000000000000000000009092161790600160a01b908490811115611f2157611f21612c87565b021790555060808201518051600383018054909190829060ff19166001836002811115611f5057611f50612c87565b02179055506020820151805160018084018054909291839160ff191690836003811115611f7f57611f7f612c87565b021790555060209182015181546001600160a01b03909116610100027fffffffffffffffffffffff0000000000000000000000000000000000000000ff909116179055604092909201516002909101805491151560ff1990921691909117905560a08301518051611ff69260068501920190612b3a565b5060c0820151600782019061200b9082613363565b505050600060018361201d91906132bf565b600085815260066020526040908190208590556002549051633576860d60e11b8152336004820152602481018690529192506001600160a01b031690636aed0c1a90604401600060405180830381600087803b15801561207c57600080fd5b505af1158015612090573d6000803e3d6000fd5b505050600082815260056020526040812080549250906120af836132e8565b9091555050604080516060810182526001808252602080830191825260008385018181528682526004835285822033835290925293842092518354925191511515620100000262ff0000199215156101000261ff00199215159290921661ffff199094169390931717161790556121299080546001019055565b604051339084907fb86ecf9543f771ac118830339392a31c2ef19181bb1f831fa033235771791aa190600090a3505050505050505050565b600080600161217081866132bf565b81548110612180576121806132d2565b90600052602060002090600802016040518060e0016040529081600082015481526020016001820180546121b39061326f565b80601f01602080910402602001604051908101604052809291908181526020018280546121df9061326f565b801561222c5780601f106122015761010080835404028352916020019161222c565b820191906000526020600020905b81548152906001019060200180831161220f57829003601f168201915b50505091835250506002828101546001600160a01b0381166020840152604090920191600160a01b900460ff169081111561226957612269612c87565b600281111561227a5761227a612c87565b81526040805160608101909152600383018054602090930192829060ff1660028111156122a9576122a9612c87565b60028111156122ba576122ba612c87565b815260408051808201909152600183018054602090930192829060ff1660038111156122e8576122e8612c87565b60038111156122f9576122f9612c87565b8152905461010090046001600160a01b03166020918201529082526002929092015460ff16151590820152908252600683018054604080518285028101850190915281815293830193928301828280156123a457602002820191906000526020600020906000905b82829054906101000a90046001600160801b03166001600160801b031681526020019060100190602082600f010492830192600103820291508084116123615790505b505050505081526020016007820180546123bd9061326f565b80601f01602080910402602001604051908101604052809291908181526020018280546123e99061326f565b80156124365780601f1061240b57610100808354040283529160200191612436565b820191906000526020600020905b81548152906001019060200180831161241957829003601f168201915b5050505050815250509050826001600160a01b031681604001516001600160a01b03161491505092915050565b6000806124716001846132bf565b9050600060018281548110612488576124886132d2565b90600052602060002090600802016040518060e0016040529081600082015481526020016001820180546124bb9061326f565b80601f01602080910402602001604051908101604052809291908181526020018280546124e79061326f565b80156125345780601f1061250957610100808354040283529160200191612534565b820191906000526020600020905b81548152906001019060200180831161251757829003601f168201915b50505091835250506002828101546001600160a01b0381166020840152604090920191600160a01b900460ff169081111561257157612571612c87565b600281111561258257612582612c87565b81526040805160608101909152600383018054602090930192829060ff1660028111156125b1576125b1612c87565b60028111156125c2576125c2612c87565b815260408051808201909152600183018054602090930192829060ff1660038111156125f0576125f0612c87565b600381111561260157612601612c87565b8152905461010090046001600160a01b03166020918201529082526002929092015460ff16151590820152908252600683018054604080518285028101850190915281815293830193928301828280156126ac57602002820191906000526020600020906000905b82829054906101000a90046001600160801b03166001600160801b031681526020019060100190602082600f010492830192600103820291508084116126695790505b505050505081526020016007820180546126c59061326f565b80601f01602080910402602001604051908101604052809291908181526020018280546126f19061326f565b801561273e5780601f106127135761010080835404028352916020019161273e565b820191906000526020600020905b81548152906001019060200180831161272157829003601f168201915b50505091909252505050608081015160209081015190810151905191925090600190600381111561277157612771612c87565b036127ef576040516370a0823160e01b815233600482015281906000906001600160a01b038316906370a08231906024015b602060405180830381865afa1580156127c0573d6000803e3d6000fd5b505050506040513d601f19601f820116820180604052508101906127e49190613423565b119695505050505050565b600260808301516020015151600381111561280c5761280c612c87565b03612842576040516370a0823160e01b815233600482015281906000906001600160a01b038316906370a08231906024016127a3565b600360808301516020015151600381111561285f5761285f612c87565b0361289957604051627eeac760e11b815233600482015260006024820181905282916001600160a01b0383169062fdd58e906044016127a3565b506000949350505050565b836128ae8161076d565b1580156128c157506128bf81611774565b155b156128e85760405163eae3129560e01b815260048101829052336024820152604401610811565b60006128f56001876132bf565b60008181526004602090815260408083206001600160a01b038a16845290915290205490915060ff61010090910416151584151514801561295e575060008181526004602090815260408083206001600160a01b038916845290915290205460ff161515831515145b1561298e57604051630c4e612760e41b8152600481018790526001600160a01b0386166024820152604401610811565b6040805160608101825284151581528515801560208084019182526000848601818152878252600483528682206001600160a01b038d1683529092529490942083518154925195511515620100000262ff0000199615156101000261ff00199215159290921661ffff199094169390931717949094161790925590612a6a576000828152600560205260408120805491612a27836132e8565b90915550506040518415158152339088907f01b0570fcf8d040a1dead2d60d1060b4817a6ebc4de6b950e632df705b9f50489060200160405180910390a3612acb565b60056000612a796001856132bf565b81526020019081526020016000206000815480929190612a989061343c565b9091555050604051339088907f1c43a3cf5b547073bee7f10560079a1900cc5968c27fb3a768f8e65d5d46550590600090a35b50505050505050565b80546001019055565b6040518060e00160405280600081526020016060815260200160006001600160a01b0316815260200160006002811115612b1957612b19612c87565b8152602001612b26612bf2565b815260200160608152602001606081525090565b82805482825590600052602060002090600101600290048101928215612be25791602002820160005b83821115612bad57835183826101000a8154816001600160801b0302191690836001600160801b031602179055509260200192601001602081600f01049283019260010302612b63565b8015612be05782816101000a8154906001600160801b030219169055601001602081600f01049283019260010302612bad565b505b50612bee929150612c2c565b5090565b60408051606081019091528060008152602001612c1f604080518082019091526000808252602082015290565b8152600060209091015290565b5b80821115612bee5760008155600101612c2d565b6000815180845260005b81811015612c6757602081850181015186830182015201612c4b565b506000602082860101526020601f19601f83011685010191505092915050565b634e487b7160e01b600052602160045260246000fd5b60038110612cad57612cad612c87565b50565b8051612cbb81612c9d565b82526020810151805160048110612cd457612cd4612c87565b806020850152506001600160a01b036020820151166040840152506040810151151560608301525050565b6000610140825184526020808401518282870152612d1f83870182612c41565b9250506001600160a01b0360408501511660408601526060840151612d4381612c9d565b806060870152506080840151612d5c6080870182612cb0565b5060a0840151858303610100870152805180845290820192600091908301905b80831015612da55784516001600160801b03168252938301936001929092019190830190612d7c565b5060c08601519350868103610120880152612dc08185612c41565b979650505050505050565b6000602080830181845280855180835260408601915060408160051b870101925083870160005b82811015612e2057603f19888603018452612e0e858351612cff565b94509285019290850190600101612df2565b5092979650505050505050565b80356001600160a01b0381168114612e4457600080fd5b919050565b60008060408385031215612e5c57600080fd5b82359150612e6c60208401612e2d565b90509250929050565b600060208284031215612e8757600080fd5b5035919050565b634e487b7160e01b600052604160045260246000fd5b6040516060810167ffffffffffffffff81118282101715612ec757612ec7612e8e565b60405290565b6040805190810167ffffffffffffffff81118282101715612ec757612ec7612e8e565b604051601f8201601f1916810167ffffffffffffffff81118282101715612f1957612f19612e8e565b604052919050565b600082601f830112612f3257600080fd5b813567ffffffffffffffff811115612f4c57612f4c612e8e565b612f5f601f8201601f1916602001612ef0565b818152846020838601011115612f7457600080fd5b816020850160208301376000918101602001919091529392505050565b600060208284031215612fa357600080fd5b813567ffffffffffffffff811115612fba57600080fd5b612fc684828501612f21565b949350505050565b602081526000612fe16020830184612cff565b9392505050565b600061012088835280602084015261300281840189612c41565b90506001600160a01b038716604084015261301c86612c9d565b85606084015261302f6080840186612cb0565b8281036101008401526130428185612c41565b9998505050505050505050565b60038110612cad57600080fd5b80358015158114612e4457600080fd5b600082601f83011261307d57600080fd5b8135602067ffffffffffffffff82111561309957613099612e8e565b8160051b6130a8828201612ef0565b92835284810182019282810190878511156130c257600080fd5b83870192505b84831015612dc05782356001600160801b03811681146130e85760008081fd5b825291830191908301906130c8565b600080600080600085870361010081121561311157600080fd5b863567ffffffffffffffff8082111561312957600080fd5b6131358a838b01612f21565b9750602089013591506131478261304f565b8196506080603f198401121561315c57600080fd5b613164612ea4565b915060408901356131748161304f565b82526040605f198401121561318857600080fd5b613190612ecd565b92506060890135600481106131a457600080fd5b83526131b260808a01612e2d565b60208401528260208301526131c960a08a0161305c565b604083015281955060c08901359250808311156131e557600080fd5b6131f18a848b0161306c565b945060e089013592508083111561320757600080fd5b505061321588828901612f21565b9150509295509295909350565b6000806000806080858703121561323857600080fd5b8435935061324860208601612e2d565b92506132566040860161305c565b91506132646060860161305c565b905092959194509250565b600181811c9082168061328357607f821691505b6020821081036132a357634e487b7160e01b600052602260045260246000fd5b50919050565b634e487b7160e01b600052601160045260246000fd5b81810381811115610767576107676132a9565b634e487b7160e01b600052603260045260246000fd5b6000600182016132fa576132fa6132a9565b5060010190565b602081526000612fe16020830184612c41565b601f82111561335e57600081815260208120601f850160051c8101602086101561333b5750805b601f850160051c820191505b8181101561335a57828155600101613347565b5050505b505050565b815167ffffffffffffffff81111561337d5761337d612e8e565b6133918161338b845461326f565b84613314565b602080601f8311600181146133c657600084156133ae5750858301515b600019600386901b1c1916600185901b17855561335a565b600085815260208120601f198616915b828110156133f5578886015182559484019460019091019084016133d6565b50858210156134135787850151600019600388901b60f8161c191681555b5050505050600190811b01905550565b60006020828403121561343557600080fd5b5051919050565b60008161344b5761344b6132a9565b50600019019056fea164736f6c6343000811000a",
  "linkReferences": {},
  "deployedLinkReferences": {}
}