{
  "_format": "hh-sol-artifact-1",
  "contractName": "EmbraceAccounts",
  "sourceName": "contracts/EmbraceAccounts.sol",
  "abi": [
    {
      "inputs": [
        {
          "internalType": "address",
          "name": "_address",
          "type": "address"
        },
        {
          "internalType": "uint256",
          "name": "_spaceId",
          "type": "uint256"
        }
      ],
      "name": "addSpace",
      "outputs": [],
      "stateMutability": "nonpayable",
      "type": "function"
    },
    {
      "inputs": [
        {
          "internalType": "address",
          "name": "_address",
          "type": "address"
        }
      ],
      "name": "getSpaces",
      "outputs": [
        {
          "internalType": "uint256[]",
          "name": "",
          "type": "uint256[]"
        }
      ],
      "stateMutability": "view",
      "type": "function"
    }
  ],
  "bytecode": "0x608060405234801561001057600080fd5b50610276806100206000396000f3fe608060405234801561001057600080fd5b50600436106100365760003560e01c80636aed0c1a1461003b578063d9a056a614610050575b600080fd5b61004e61004936600461019c565b610079565b005b61006361005e3660046101c6565b6100fc565b60405161007091906101e8565b60405180910390f35b73ffffffffffffffffffffffffffffffffffffffff82166000908152602081905260408120905b81548110156100e457828282815481106100bc576100bc61022c565b9060005260206000200154036100d25750505050565b806100dc81610242565b9150506100a0565b50805460018101825560009182526020909120015550565b73ffffffffffffffffffffffffffffffffffffffff81166000908152602081815260409182902080548351818402810184019094528084526060939283018282801561016757602002820191906000526020600020905b815481526020019060010190808311610153575b50505050509050919050565b803573ffffffffffffffffffffffffffffffffffffffff8116811461019757600080fd5b919050565b600080604083850312156101af57600080fd5b6101b883610173565b946020939093013593505050565b6000602082840312156101d857600080fd5b6101e182610173565b9392505050565b6020808252825182820181905260009190848201906040850190845b8181101561022057835183529284019291840191600101610204565b50909695505050505050565b634e487b7160e01b600052603260045260246000fd5b60006001820161026257634e487b7160e01b600052601160045260246000fd5b506001019056fea164736f6c6343000811000a",
  "linkReferences": {},
  "deployedLinkReferences": {}
}