{
  "_format": "hh-sol-artifact-1",
  "contractName": "EmbraceSpaces",
  "sourceName": "contracts/EmbraceSpaces.sol",
  "abi": [
    {
      "inputs": [
        {
          "internalType": "address",
          "name": "_accountsAddress",
          "type": "address"
        }
      ],
      "stateMutability": "nonpayable",
      "type": "constructor"
    },
    {
      "inputs": [
        {
          "internalType": "uint256",
          "name": "_spaceIndex",
          "type": "uint256"
        },
        {
          "internalType": "address",
          "name": "_address",
          "type": "address"
        }
      ],
      "name": "addAdmin",
      "outputs": [],
      "stateMutability": "nonpayable",
      "type": "function"
    },
    {
      "inputs": [
        {
          "internalType": "uint256",
          "name": "_spaceIndex",
          "type": "uint256"
        },
        {
          "internalType": "uint128",
          "name": "_appIndex",
          "type": "uint128"
        }
      ],
      "name": "addApp",
      "outputs": [],
      "stateMutability": "nonpayable",
      "type": "function"
    },
    {
      "inputs": [
        {
          "internalType": "uint256",
          "name": "_spaceIndex",
          "type": "uint256"
        },
        {
          "internalType": "address",
          "name": "_address",
          "type": "address"
        }
      ],
      "name": "addMember",
      "outputs": [],
      "stateMutability": "nonpayable",
      "type": "function"
    },
    {
      "inputs": [
        {
          "internalType": "bytes32",
          "name": "_handle",
          "type": "bytes32"
        },
        {
          "internalType": "enum EmbraceSpaces.Visibility",
          "name": "_visibility",
          "type": "uint8"
        },
        {
          "internalType": "uint128[]",
          "name": "_apps",
          "type": "uint128[]"
        },
        {
          "internalType": "string",
          "name": "_metadata",
          "type": "string"
        }
      ],
      "name": "createSpace",
      "outputs": [],
      "stateMutability": "nonpayable",
      "type": "function"
    },
    {
      "inputs": [
        {
          "internalType": "bytes32",
          "name": "_handle",
          "type": "bytes32"
        }
      ],
      "name": "getIdFromHandle",
      "outputs": [
        {
          "internalType": "uint256",
          "name": "",
          "type": "uint256"
        }
      ],
      "stateMutability": "view",
      "type": "function"
    },
    {
      "inputs": [
        {
          "internalType": "uint256",
          "name": "_spaceIndex",
          "type": "uint256"
        }
      ],
      "name": "getMemberCount",
      "outputs": [
        {
          "internalType": "uint256",
          "name": "",
          "type": "uint256"
        }
      ],
      "stateMutability": "view",
      "type": "function"
    },
    {
      "inputs": [
        {
          "internalType": "uint256",
          "name": "_spaceIndex",
          "type": "uint256"
        }
      ],
      "name": "getSpace",
      "outputs": [
        {
          "components": [
            {
              "internalType": "uint256",
              "name": "index",
              "type": "uint256"
            },
            {
              "internalType": "bytes32",
              "name": "handle",
              "type": "bytes32"
            },
            {
              "internalType": "enum EmbraceSpaces.Visibility",
              "name": "visibility",
              "type": "uint8"
            },
            {
              "internalType": "uint128[]",
              "name": "apps",
              "type": "uint128[]"
            },
            {
              "internalType": "string",
              "name": "metadata",
              "type": "string"
            },
            {
              "internalType": "address",
              "name": "founder",
              "type": "address"
            }
          ],
          "internalType": "struct EmbraceSpaces.Space",
          "name": "",
          "type": "tuple"
        }
      ],
      "stateMutability": "view",
      "type": "function"
    },
    {
      "inputs": [],
      "name": "getSpaces",
      "outputs": [
        {
          "components": [
            {
              "internalType": "uint256",
              "name": "index",
              "type": "uint256"
            },
            {
              "internalType": "bytes32",
              "name": "handle",
              "type": "bytes32"
            },
            {
              "internalType": "enum EmbraceSpaces.Visibility",
              "name": "visibility",
              "type": "uint8"
            },
            {
              "internalType": "uint128[]",
              "name": "apps",
              "type": "uint128[]"
            },
            {
              "internalType": "string",
              "name": "metadata",
              "type": "string"
            },
            {
              "internalType": "address",
              "name": "founder",
              "type": "address"
            }
          ],
          "internalType": "struct EmbraceSpaces.Space[]",
          "name": "",
          "type": "tuple[]"
        }
      ],
      "stateMutability": "view",
      "type": "function"
    },
    {
      "inputs": [
        {
          "internalType": "uint256",
          "name": "_spaceIndex",
          "type": "uint256"
        }
      ],
      "name": "isAdmin",
      "outputs": [
        {
          "internalType": "bool",
          "name": "",
          "type": "bool"
        }
      ],
      "stateMutability": "view",
      "type": "function"
    },
    {
      "inputs": [
        {
          "internalType": "uint256",
          "name": "_spaceIndex",
          "type": "uint256"
        }
      ],
      "name": "isFounder",
      "outputs": [
        {
          "internalType": "bool",
          "name": "",
          "type": "bool"
        }
      ],
      "stateMutability": "view",
      "type": "function"
    },
    {
      "inputs": [
        {
          "internalType": "uint256",
          "name": "_spaceIndex",
          "type": "uint256"
        }
      ],
      "name": "joinPublicSpace",
      "outputs": [
        {
          "internalType": "bool",
          "name": "",
          "type": "bool"
        }
      ],
      "stateMutability": "nonpayable",
      "type": "function"
    },
    {
      "inputs": [
        {
          "internalType": "uint256",
          "name": "_spaceIndex",
          "type": "uint256"
        },
        {
          "internalType": "uint256",
          "name": "_appIndex",
          "type": "uint256"
        }
      ],
      "name": "removeApp",
      "outputs": [],
      "stateMutability": "nonpayable",
      "type": "function"
    },
    {
      "inputs": [
        {
          "internalType": "uint256",
          "name": "_spaceIndex",
          "type": "uint256"
        },
        {
          "internalType": "address",
          "name": "_member",
          "type": "address"
        }
      ],
      "name": "removeMember",
      "outputs": [],
      "stateMutability": "nonpayable",
      "type": "function"
    },
    {
      "inputs": [
        {
          "internalType": "bytes32",
          "name": "",
          "type": "bytes32"
        }
      ],
      "name": "spaceHandles",
      "outputs": [
        {
          "internalType": "uint256",
          "name": "",
          "type": "uint256"
        }
      ],
      "stateMutability": "view",
      "type": "function"
    },
    {
      "inputs": [
        {
          "internalType": "uint256",
          "name": "",
          "type": "uint256"
        }
      ],
      "name": "spaceMemberLength",
      "outputs": [
        {
          "internalType": "uint256",
          "name": "",
          "type": "uint256"
        }
      ],
      "stateMutability": "view",
      "type": "function"
    },
    {
      "inputs": [
        {
          "internalType": "uint256",
          "name": "",
          "type": "uint256"
        },
        {
          "internalType": "address",
          "name": "",
          "type": "address"
        }
      ],
      "name": "spaceMembers",
      "outputs": [
        {
          "internalType": "bool",
          "name": "isAdmin",
          "type": "bool"
        },
        {
          "internalType": "bool",
          "name": "active",
          "type": "bool"
        }
      ],
      "stateMutability": "view",
      "type": "function"
    },
    {
      "inputs": [
        {
          "internalType": "uint256",
          "name": "",
          "type": "uint256"
        }
      ],
      "name": "spaces",
      "outputs": [
        {
          "internalType": "uint256",
          "name": "index",
          "type": "uint256"
        },
        {
          "internalType": "bytes32",
          "name": "handle",
          "type": "bytes32"
        },
        {
          "internalType": "enum EmbraceSpaces.Visibility",
          "name": "visibility",
          "type": "uint8"
        },
        {
          "internalType": "string",
          "name": "metadata",
          "type": "string"
        },
        {
          "internalType": "address",
          "name": "founder",
          "type": "address"
        }
      ],
      "stateMutability": "view",
      "type": "function"
    }
  ],
  "bytecode": "0x60806040526000805534801561001457600080fd5b50604051611c76380380611c7683398101604081905261003391610058565b600280546001600160a01b0319166001600160a01b0392909216919091179055610088565b60006020828403121561006a57600080fd5b81516001600160a01b038116811461008157600080fd5b9392505050565b611bdf806100976000396000f3fe608060405234801561001057600080fd5b506004361061011b5760003560e01c80636be7658b116100b2578063a303cf8e11610081578063dbdc814b11610066578063dbdc814b146102e2578063e3aa3ecc146102f5578063f71771281461030857600080fd5b8063a303cf8e14610281578063af41f22a1461029457600080fd5b80636be7658b1461021757806370e104311461022a57806374d0a6761461024a5780637586353b1461025d57600080fd5b80633254c1f6116100ee5780633254c1f61461018957806333d7ae40146101b75780633a6eb955146101d75780635ce9284f146101f757600080fd5b8063036f0e161461012057806315478ca9146101355780631f6dc43714610153578063226d45fb14610176575b600080fd5b61013361012e3660046115ef565b61031b565b005b61013d61042f565b60405161014a919061174c565b60405180910390f35b6101666101613660046117ae565b61060d565b604051901515815260200161014a565b61013361018436600461187e565b610643565b6101a96101973660046117ae565b60056020526000908152604090205481565b60405190815260200161014a565b6101a96101c53660046117ae565b60046020526000908152604090205481565b6101a96101e53660046117ae565b60009081526005602052604090205490565b6101a96102053660046117ae565b60009081526004602052604090205490565b61013361022536600461196f565b610902565b61023d6102383660046117ae565b6109d2565b60405161014a91906119ab565b61013361025836600461196f565b610bb3565b61027061026b3660046117ae565b610cf7565b60405161014a9594939291906119c5565b61016661028f3660046117ae565b610dd2565b6102cb6102a236600461196f565b600360209081526000928352604080842090915290825290205460ff8082169161010090041682565b60408051921515835290151560208301520161014a565b6101336102f036600461196f565b610f94565b6101666103033660046117ae565b6110c6565b610133610316366004611a0c565b6113df565b816103258161060d565b80610334575061033481610dd2565b6103775760405162461bcd60e51b815260206004820152600f60248201526e27b7363c9020b236b4b7103ab9b2b960891b60448201526064015b60405180910390fd5b60006001848154811061038c5761038c611a2e565b9060005260206000209060060201905080600301836001600160801b0316815481106103ba576103ba611a2e565b60009182526020822060028204015460019091166010026101000a90046001600160801b0316900361042957600381018054600180820183556000928352602090922060028204018054929091166010026101000a6001600160801b0381810219909316928616029190911790555b50505050565b60606001805480602002602001604051908101604052809291908181526020016000905b8282101561060457838290600052602060002090600602016040518060c001604052908160008201548152602001600182015481526020016002820160009054906101000a900460ff1660028111156104ae576104ae61161b565b60028111156104bf576104bf61161b565b81526020016003820180548060200260200160405190810160405280929190818152602001828054801561054457602002820191906000526020600020906000905b82829054906101000a90046001600160801b03166001600160801b031681526020019060100190602082600f010492830192600103820291508084116105015790505b5050505050815260200160048201805461055d90611a44565b80601f016020809104026020016040519081016040528092919081815260200182805461058990611a44565b80156105d65780601f106105ab576101008083540402835291602001916105d6565b820191906000526020600020905b8154815290600101906020018083116105b957829003601f168201915b5050509183525050600591909101546001600160a01b03166020918201529082526001929092019101610453565b50505050905090565b600081815260036020908152604080832033845290915281205460ff16151560010361063b57506001919050565b506000919050565b6000848152600560205260409020541561069f5760405162461bcd60e51b815260206004820152601560248201527f48616e646c6520616c7265616479206578697374730000000000000000000000604482015260640161036e565b60006040518060c0016040528060005481526020018681526020018560028111156106cc576106cc61161b565b815260208082018690526040808301869052336060909301929092526001805480820182556000829052845160069091027fb10e2d527612073b26eecdfd717e6a320cf44b4afac2b0732d9fcbe2b7fa0cf68101918255928501517fb10e2d527612073b26eecdfd717e6a320cf44b4afac2b0732d9fcbe2b7fa0cf7840155928401517fb10e2d527612073b26eecdfd717e6a320cf44b4afac2b0732d9fcbe2b7fa0cf890920180549495508594909160ff19909116908360028111156107955761079561161b565b0217905550606082015180516107b5916003840191602090910190611506565b50608082015160048201906107ca9082611acc565b5060a09190910151600591820180547fffffffffffffffffffffffff0000000000000000000000000000000000000000166001600160a01b03928316179055600080548882526020939093526040908190208390556002549051633576860d60e11b815233600482015260248101939093521690636aed0c1a90604401600060405180830381600087803b15801561086157600080fd5b505af1158015610875573d6000803e3d6000fd5b505060008054815260046020526040812080549350915061089583611ba2565b9091555050604080518082018252600180825260208083019182526000805481526003825284812033825290915292832091518254915161ffff1990921690151561ff0019161761010091151591909102179055805490806108f683611ba2565b91905055505050505050565b8161090c8161060d565b8061091b575061091b81610dd2565b6109595760405162461bcd60e51b815260206004820152600f60248201526e27b7363c9020b236b4b7103ab9b2b960891b604482015260640161036e565b60408051808201825260008082526020808301828152878352600382528483206001600160a01b0388168452825284832084518154925161ffff1990931690151561ff001916176101009215159290920291909117905586825260049052918220805491926109c783611bbb565b919050555050505050565b6040805160c0810182526000808252602082018190529181018290526060808201819052608082015260a081019190915260018281548110610a1657610a16611a2e565b90600052602060002090600602016040518060c001604052908160008201548152602001600182015481526020016002820160009054906101000a900460ff166002811115610a6757610a6761161b565b6002811115610a7857610a7861161b565b815260200160038201805480602002602001604051908101604052809291908181526020018280548015610afd57602002820191906000526020600020906000905b82829054906101000a90046001600160801b03166001600160801b031681526020019060100190602082600f01049283019260010382029150808411610aba5790505b50505050508152602001600482018054610b1690611a44565b80601f0160208091040260200160405190810160405280929190818152602001828054610b4290611a44565b8015610b8f5780601f10610b6457610100808354040283529160200191610b8f565b820191906000526020600020905b815481529060010190602001808311610b7257829003601f168201915b5050509183525050600591909101546001600160a01b031660209091015292915050565b81610bbd8161060d565b80610bcc5750610bcc81610dd2565b610c0a5760405162461bcd60e51b815260206004820152600f60248201526e27b7363c9020b236b4b7103ab9b2b960891b604482015260640161036e565b60008381526003602090815260408083206001600160a01b0386168452909152902054610100900460ff161515600103610c865760405162461bcd60e51b815260206004820152601560248201527f4d656d62657220616c7265616479206578697374730000000000000000000000604482015260640161036e565b604080518082018252600080825260016020808401918252878352600381528483206001600160a01b0388168452815284832084518154935161ffff1990941690151561ff00191617610100931515939093029290921790915586825260049052918220805491926109c783611ba2565b60018181548110610d0757600080fd5b60009182526020909120600690910201805460018201546002830154600484018054939550919360ff90911692909190610d4090611a44565b80601f0160208091040260200160405190810160405280929190818152602001828054610d6c90611a44565b8015610db95780601f10610d8e57610100808354040283529160200191610db9565b820191906000526020600020905b815481529060010190602001808311610d9c57829003601f168201915b505050600590930154919250506001600160a01b031685565b60008060018381548110610de857610de8611a2e565b90600052602060002090600602016040518060c001604052908160008201548152602001600182015481526020016002820160009054906101000a900460ff166002811115610e3957610e3961161b565b6002811115610e4a57610e4a61161b565b815260200160038201805480602002602001604051908101604052809291908181526020018280548015610ecf57602002820191906000526020600020906000905b82829054906101000a90046001600160801b03166001600160801b031681526020019060100190602082600f01049283019260010382029150808411610e8c5790505b50505050508152602001600482018054610ee890611a44565b80601f0160208091040260200160405190810160405280929190818152602001828054610f1490611a44565b8015610f615780601f10610f3657610100808354040283529160200191610f61565b820191906000526020600020905b815481529060010190602001808311610f4457829003601f168201915b5050509183525050600591909101546001600160a01b0390811660209092019190915260a0909101511633149392505050565b81610f9e81610dd2565b610fea5760405162461bcd60e51b815260206004820152600c60248201527f4f6e6c7920666f756e6465720000000000000000000000000000000000000000604482015260640161036e565b60008381526003602090815260408083206001600160a01b0386168452909152902054610100900460ff1615156001036110505760008381526003602090815260408083206001600160a01b03861684529091529020805460ff19166001179055505050565b604080518082018252600180825260208083019182526000878152600382528481206001600160a01b0388168252825284812084518154945161ffff1990951690151561ff00191617610100941515949094029390931790925586825260049052918220805491926109c783611ba2565b505050565b600080600183815481106110dc576110dc611a2e565b90600052602060002090600602016040518060c001604052908160008201548152602001600182015481526020016002820160009054906101000a900460ff16600281111561112d5761112d61161b565b600281111561113e5761113e61161b565b8152602001600382018054806020026020016040519081016040528092919081815260200182805480156111c357602002820191906000526020600020906000905b82829054906101000a90046001600160801b03166001600160801b031681526020019060100190602082600f010492830192600103820291508084116111805790505b505050505081526020016004820180546111dc90611a44565b80601f016020809104026020016040519081016040528092919081815260200182805461120890611a44565b80156112555780601f1061122a57610100808354040283529160200191611255565b820191906000526020600020905b81548152906001019060200180831161123857829003601f168201915b5050509183525050600591909101546001600160a01b0316602090910152905060008160400151600281111561128d5761128d61161b565b146113005760405162461bcd60e51b815260206004820152602f60248201527f43616e6e6f74206a6f696e20726573747269637465642073706163652077697460448201527f686f7574207065726d697373696f6e0000000000000000000000000000000000606482015260840161036e565b60408051808201825260008082526001602080840191825287835260038152848320338452815284832084518154935161ffff1990941690151561ff001916176101009315159390930292909217909155868252600490529182208054919261136883611ba2565b9091555050600254600054604051633576860d60e11b815233600482015260248101919091526001600160a01b0390911690636aed0c1a90604401600060405180830381600087803b1580156113bd57600080fd5b505af11580156113d1573d6000803e3d6000fd5b506001979650505050505050565b816113e98161060d565b806113f857506113f881610dd2565b6114365760405162461bcd60e51b815260206004820152600f60248201526e27b7363c9020b236b4b7103ab9b2b960891b604482015260640161036e565b60006001848154811061144b5761144b611a2e565b9060005260206000209060060201905060005b60038201548110156114ff578382600301828154811061148057611480611a2e565b6000918252602090912060028204015460019091166010026101000a90046001600160801b0316036114ed578160030181815481106114c1576114c1611a2e565b90600052602060002090600291828204019190066010026101000a8154906001600160801b0302191690555b806114f781611ba2565b91505061145e565b5050505050565b828054828255906000526020600020906001016002900481019282156115ae5791602002820160005b8382111561157957835183826101000a8154816001600160801b0302191690836001600160801b031602179055509260200192601001602081600f0104928301926001030261152f565b80156115ac5782816101000a8154906001600160801b030219169055601001602081600f01049283019260010302611579565b505b506115ba9291506115be565b5090565b5b808211156115ba57600081556001016115bf565b80356001600160801b03811681146115ea57600080fd5b919050565b6000806040838503121561160257600080fd5b82359150611612602084016115d3565b90509250929050565b634e487b7160e01b600052602160045260246000fd5b6003811061164f57634e487b7160e01b600052602160045260246000fd5b9052565b6000815180845260005b818110156116795760208185018101518683018201520161165d565b506000602082860101526020601f19601f83011685010191505092915050565b600060c08301825184526020808401518186015260408401516116bf6040870182611631565b50606084015160c0606087015282815180855260e0880191508383019450600092505b8083101561170b5784516001600160801b031682529383019360019290920191908301906116e2565b506080860151935086810360808801526117258185611653565b935050505060a083015161174460a08601826001600160a01b03169052565b509392505050565b6000602080830181845280855180835260408601915060408160051b870101925083870160005b828110156117a157603f1988860301845261178f858351611699565b94509285019290850190600101611773565b5092979650505050505050565b6000602082840312156117c057600080fd5b5035919050565b634e487b7160e01b600052604160045260246000fd5b604051601f8201601f1916810167ffffffffffffffff81118282101715611806576118066117c7565b604052919050565b600082601f83011261181f57600080fd5b813567ffffffffffffffff811115611839576118396117c7565b61184c601f8201601f19166020016117dd565b81815284602083860101111561186157600080fd5b816020850160208301376000918101602001919091529392505050565b6000806000806080858703121561189457600080fd5b84359350602080860135600381106118ab57600080fd5b9350604086013567ffffffffffffffff808211156118c857600080fd5b818801915088601f8301126118dc57600080fd5b8135818111156118ee576118ee6117c7565b8060051b6118fd8582016117dd565b918252838101850191858101908c84111561191757600080fd5b948601945b8386101561193c5761192d866115d3565b8252948601949086019061191c565b9750505050606088013592508083111561195557600080fd5b50506119638782880161180e565b91505092959194509250565b6000806040838503121561198257600080fd5b8235915060208301356001600160a01b03811681146119a057600080fd5b809150509250929050565b6020815260006119be6020830184611699565b9392505050565b8581528460208201526119db6040820185611631565b60a0606082015260006119f160a0830185611653565b90506001600160a01b03831660808301529695505050505050565b60008060408385031215611a1f57600080fd5b50508035926020909101359150565b634e487b7160e01b600052603260045260246000fd5b600181811c90821680611a5857607f821691505b602082108103611a7857634e487b7160e01b600052602260045260246000fd5b50919050565b601f8211156110c157600081815260208120601f850160051c81016020861015611aa55750805b601f850160051c820191505b81811015611ac457828155600101611ab1565b505050505050565b815167ffffffffffffffff811115611ae657611ae66117c7565b611afa81611af48454611a44565b84611a7e565b602080601f831160018114611b2f5760008415611b175750858301515b600019600386901b1c1916600185901b178555611ac4565b600085815260208120601f198616915b82811015611b5e57888601518255948401946001909101908401611b3f565b5085821015611b7c5787850151600019600388901b60f8161c191681555b5050505050600190811b01905550565b634e487b7160e01b600052601160045260246000fd5b600060018201611bb457611bb4611b8c565b5060010190565b600081611bca57611bca611b8c565b50600019019056fea164736f6c6343000811000a",
  "linkReferences": {},
  "deployedLinkReferences": {}
}