{
  "_format": "hh-sol-artifact-1",
  "contractName": "EmbraceSpaces",
  "sourceName": "contracts/EmbraceSpaces.sol",
  "abi": [
    {
      "inputs": [
        {
          "internalType": "address",
          "name": "_accountsAddress",
          "type": "address"
        }
      ],
      "stateMutability": "nonpayable",
      "type": "constructor"
    },
    {
      "inputs": [
        {
          "internalType": "uint256",
          "name": "spaceId",
          "type": "uint256"
        },
        {
          "internalType": "address",
          "name": "memberAddress",
          "type": "address"
        }
      ],
      "name": "ErrorCannotJoinAnonSpace",
      "type": "error"
    },
    {
      "inputs": [
        {
          "internalType": "uint256",
          "name": "spaceId",
          "type": "uint256"
        },
        {
          "internalType": "address",
          "name": "memberAddress",
          "type": "address"
        }
      ],
      "name": "ErrorCannotJoinPrivClosedSpace",
      "type": "error"
    },
    {
      "inputs": [
        {
          "internalType": "uint256",
          "name": "spaceId",
          "type": "uint256"
        },
        {
          "internalType": "address",
          "name": "memberAddress",
          "type": "address"
        }
      ],
      "name": "ErrorDoNotMeetSpaceReq",
      "type": "error"
    },
    {
      "inputs": [
        {
          "internalType": "bytes32",
          "name": "handle",
          "type": "bytes32"
        }
      ],
      "name": "ErrorHandleExists",
      "type": "error"
    },
    {
      "inputs": [
        {
          "internalType": "uint256",
          "name": "spaceId",
          "type": "uint256"
        },
        {
          "internalType": "address",
          "name": "memberAddress",
          "type": "address"
        }
      ],
      "name": "ErrorMemberAlreadyExists",
      "type": "error"
    },
    {
      "inputs": [
        {
          "internalType": "uint256",
          "name": "spaceId",
          "type": "uint256"
        },
        {
          "internalType": "address",
          "name": "memberAddress",
          "type": "address"
        }
      ],
      "name": "ErrorOnlyAdmin",
      "type": "error"
    },
    {
      "inputs": [
        {
          "internalType": "uint256",
          "name": "spaceId",
          "type": "uint256"
        },
        {
          "internalType": "address",
          "name": "memberAddress",
          "type": "address"
        }
      ],
      "name": "ErrorOnlyFounder",
      "type": "error"
    },
    {
      "anonymous": false,
      "inputs": [
        {
          "indexed": true,
          "internalType": "uint256",
          "name": "spaceId",
          "type": "uint256"
        },
        {
          "indexed": true,
          "internalType": "address",
          "name": "memberAddress",
          "type": "address"
        },
        {
          "indexed": false,
          "internalType": "bool",
          "name": "isAdmin",
          "type": "bool"
        }
      ],
      "name": "JoinedSpace",
      "type": "event"
    },
    {
      "anonymous": false,
      "inputs": [
        {
          "indexed": true,
          "internalType": "uint256",
          "name": "spaceId",
          "type": "uint256"
        },
        {
          "indexed": true,
          "internalType": "address",
          "name": "memberAddress",
          "type": "address"
        }
      ],
      "name": "RemovedFromSpace",
      "type": "event"
    },
    {
      "anonymous": false,
      "inputs": [
        {
          "indexed": true,
          "internalType": "uint256",
          "name": "spaceId",
          "type": "uint256"
        },
        {
          "indexed": true,
          "internalType": "address",
          "name": "memberAddress",
          "type": "address"
        }
      ],
      "name": "RequestJoinSpace",
      "type": "event"
    },
    {
      "anonymous": false,
      "inputs": [
        {
          "indexed": true,
          "internalType": "uint256",
          "name": "spaceId",
          "type": "uint256"
        },
        {
          "indexed": true,
          "internalType": "address",
          "name": "founder",
          "type": "address"
        }
      ],
      "name": "SpaceCreated",
      "type": "event"
    },
    {
      "inputs": [
        {
          "internalType": "uint256",
          "name": "_spaceIndex",
          "type": "uint256"
        },
        {
          "internalType": "address",
          "name": "_address",
          "type": "address"
        }
      ],
      "name": "addAdmin",
      "outputs": [],
      "stateMutability": "nonpayable",
      "type": "function"
    },
    {
      "inputs": [
        {
          "internalType": "uint256",
          "name": "_spaceIndex",
          "type": "uint256"
        },
        {
          "internalType": "uint128",
          "name": "_appIndex",
          "type": "uint128"
        }
      ],
      "name": "addApp",
      "outputs": [],
      "stateMutability": "nonpayable",
      "type": "function"
    },
    {
      "inputs": [
        {
          "internalType": "bytes32",
          "name": "_handle",
          "type": "bytes32"
        },
        {
          "internalType": "enum EmbraceSpaces.Visibility",
          "name": "_visibility",
          "type": "uint8"
        },
        {
          "components": [
            {
              "internalType": "enum EmbraceSpaces.Access",
              "name": "access",
              "type": "uint8"
            },
            {
              "components": [
                {
                  "internalType": "enum EmbraceSpaces.MembershipGateToken",
                  "name": "token",
                  "type": "uint8"
                },
                {
                  "internalType": "address",
                  "name": "tokenAddress",
                  "type": "address"
                }
              ],
              "internalType": "struct EmbraceSpaces.MembershipGate",
              "name": "gate",
              "type": "tuple"
            },
            {
              "internalType": "bool",
              "name": "allowRequests",
              "type": "bool"
            }
          ],
          "internalType": "struct EmbraceSpaces.Membership",
          "name": "_membership",
          "type": "tuple"
        },
        {
          "internalType": "uint128[]",
          "name": "_apps",
          "type": "uint128[]"
        },
        {
          "internalType": "string",
          "name": "_metadata",
          "type": "string"
        }
      ],
      "name": "createSpace",
      "outputs": [],
      "stateMutability": "nonpayable",
      "type": "function"
    },
    {
      "inputs": [
        {
          "internalType": "bytes32",
          "name": "_handle",
          "type": "bytes32"
        }
      ],
      "name": "getIdFromHandle",
      "outputs": [
        {
          "internalType": "uint256",
          "name": "",
          "type": "uint256"
        }
      ],
      "stateMutability": "view",
      "type": "function"
    },
    {
      "inputs": [
        {
          "internalType": "uint256",
          "name": "_spaceIndex",
          "type": "uint256"
        }
      ],
      "name": "getMemberCount",
      "outputs": [
        {
          "internalType": "uint256",
          "name": "",
          "type": "uint256"
        }
      ],
      "stateMutability": "view",
      "type": "function"
    },
    {
      "inputs": [
        {
          "internalType": "uint256",
          "name": "_spaceIndex",
          "type": "uint256"
        }
      ],
      "name": "getSpace",
      "outputs": [
        {
          "components": [
            {
              "internalType": "uint256",
              "name": "index",
              "type": "uint256"
            },
            {
              "internalType": "bytes32",
              "name": "handle",
              "type": "bytes32"
            },
            {
              "internalType": "enum EmbraceSpaces.Visibility",
              "name": "visibility",
              "type": "uint8"
            },
            {
              "components": [
                {
                  "internalType": "enum EmbraceSpaces.Access",
                  "name": "access",
                  "type": "uint8"
                },
                {
                  "components": [
                    {
                      "internalType": "enum EmbraceSpaces.MembershipGateToken",
                      "name": "token",
                      "type": "uint8"
                    },
                    {
                      "internalType": "address",
                      "name": "tokenAddress",
                      "type": "address"
                    }
                  ],
                  "internalType": "struct EmbraceSpaces.MembershipGate",
                  "name": "gate",
                  "type": "tuple"
                },
                {
                  "internalType": "bool",
                  "name": "allowRequests",
                  "type": "bool"
                }
              ],
              "internalType": "struct EmbraceSpaces.Membership",
              "name": "membership",
              "type": "tuple"
            },
            {
              "internalType": "uint128[]",
              "name": "apps",
              "type": "uint128[]"
            },
            {
              "internalType": "string",
              "name": "metadata",
              "type": "string"
            },
            {
              "internalType": "address",
              "name": "founder",
              "type": "address"
            }
          ],
          "internalType": "struct EmbraceSpaces.Space",
          "name": "",
          "type": "tuple"
        }
      ],
      "stateMutability": "view",
      "type": "function"
    },
    {
      "inputs": [
        {
          "internalType": "bytes32",
          "name": "_handle",
          "type": "bytes32"
        }
      ],
      "name": "getSpaceFromHandle",
      "outputs": [
        {
          "components": [
            {
              "internalType": "uint256",
              "name": "index",
              "type": "uint256"
            },
            {
              "internalType": "bytes32",
              "name": "handle",
              "type": "bytes32"
            },
            {
              "internalType": "enum EmbraceSpaces.Visibility",
              "name": "visibility",
              "type": "uint8"
            },
            {
              "components": [
                {
                  "internalType": "enum EmbraceSpaces.Access",
                  "name": "access",
                  "type": "uint8"
                },
                {
                  "components": [
                    {
                      "internalType": "enum EmbraceSpaces.MembershipGateToken",
                      "name": "token",
                      "type": "uint8"
                    },
                    {
                      "internalType": "address",
                      "name": "tokenAddress",
                      "type": "address"
                    }
                  ],
                  "internalType": "struct EmbraceSpaces.MembershipGate",
                  "name": "gate",
                  "type": "tuple"
                },
                {
                  "internalType": "bool",
                  "name": "allowRequests",
                  "type": "bool"
                }
              ],
              "internalType": "struct EmbraceSpaces.Membership",
              "name": "membership",
              "type": "tuple"
            },
            {
              "internalType": "uint128[]",
              "name": "apps",
              "type": "uint128[]"
            },
            {
              "internalType": "string",
              "name": "metadata",
              "type": "string"
            },
            {
              "internalType": "address",
              "name": "founder",
              "type": "address"
            }
          ],
          "internalType": "struct EmbraceSpaces.Space",
          "name": "",
          "type": "tuple"
        }
      ],
      "stateMutability": "view",
      "type": "function"
    },
    {
      "inputs": [
        {
          "internalType": "uint256",
          "name": "_spaceIndex",
          "type": "uint256"
        },
        {
          "internalType": "address",
          "name": "_address",
          "type": "address"
        }
      ],
      "name": "getSpaceMember",
      "outputs": [
        {
          "components": [
            {
              "internalType": "bool",
              "name": "isAdmin",
              "type": "bool"
            },
            {
              "internalType": "bool",
              "name": "isActive",
              "type": "bool"
            },
            {
              "internalType": "bool",
              "name": "isRequest",
              "type": "bool"
            }
          ],
          "internalType": "struct EmbraceSpaces.Member",
          "name": "",
          "type": "tuple"
        }
      ],
      "stateMutability": "view",
      "type": "function"
    },
    {
      "inputs": [],
      "name": "getSpaces",
      "outputs": [
        {
          "components": [
            {
              "internalType": "uint256",
              "name": "index",
              "type": "uint256"
            },
            {
              "internalType": "bytes32",
              "name": "handle",
              "type": "bytes32"
            },
            {
              "internalType": "enum EmbraceSpaces.Visibility",
              "name": "visibility",
              "type": "uint8"
            },
            {
              "components": [
                {
                  "internalType": "enum EmbraceSpaces.Access",
                  "name": "access",
                  "type": "uint8"
                },
                {
                  "components": [
                    {
                      "internalType": "enum EmbraceSpaces.MembershipGateToken",
                      "name": "token",
                      "type": "uint8"
                    },
                    {
                      "internalType": "address",
                      "name": "tokenAddress",
                      "type": "address"
                    }
                  ],
                  "internalType": "struct EmbraceSpaces.MembershipGate",
                  "name": "gate",
                  "type": "tuple"
                },
                {
                  "internalType": "bool",
                  "name": "allowRequests",
                  "type": "bool"
                }
              ],
              "internalType": "struct EmbraceSpaces.Membership",
              "name": "membership",
              "type": "tuple"
            },
            {
              "internalType": "uint128[]",
              "name": "apps",
              "type": "uint128[]"
            },
            {
              "internalType": "string",
              "name": "metadata",
              "type": "string"
            },
            {
              "internalType": "address",
              "name": "founder",
              "type": "address"
            }
          ],
          "internalType": "struct EmbraceSpaces.Space[]",
          "name": "",
          "type": "tuple[]"
        }
      ],
      "stateMutability": "view",
      "type": "function"
    },
    {
      "inputs": [
        {
          "internalType": "uint256",
          "name": "_spaceIndex",
          "type": "uint256"
        }
      ],
      "name": "isAdmin",
      "outputs": [
        {
          "internalType": "bool",
          "name": "",
          "type": "bool"
        }
      ],
      "stateMutability": "view",
      "type": "function"
    },
    {
      "inputs": [
        {
          "internalType": "uint256",
          "name": "_spaceIndex",
          "type": "uint256"
        }
      ],
      "name": "isFounder",
      "outputs": [
        {
          "internalType": "bool",
          "name": "",
          "type": "bool"
        }
      ],
      "stateMutability": "view",
      "type": "function"
    },
    {
      "inputs": [
        {
          "internalType": "uint256",
          "name": "_spaceIndex",
          "type": "uint256"
        }
      ],
      "name": "isMember",
      "outputs": [
        {
          "internalType": "bool",
          "name": "",
          "type": "bool"
        }
      ],
      "stateMutability": "view",
      "type": "function"
    },
    {
      "inputs": [
        {
          "internalType": "uint256",
          "name": "_spaceIndex",
          "type": "uint256"
        }
      ],
      "name": "joinSpace",
      "outputs": [
        {
          "internalType": "bool",
          "name": "",
          "type": "bool"
        }
      ],
      "stateMutability": "nonpayable",
      "type": "function"
    },
    {
      "inputs": [
        {
          "internalType": "uint256",
          "name": "_spaceIndex",
          "type": "uint256"
        }
      ],
      "name": "meetsGateRequirements",
      "outputs": [
        {
          "internalType": "bool",
          "name": "",
          "type": "bool"
        }
      ],
      "stateMutability": "view",
      "type": "function"
    },
    {
      "inputs": [
        {
          "internalType": "uint256",
          "name": "_spaceIndex",
          "type": "uint256"
        },
        {
          "internalType": "uint256",
          "name": "_appIndex",
          "type": "uint256"
        }
      ],
      "name": "removeApp",
      "outputs": [],
      "stateMutability": "nonpayable",
      "type": "function"
    },
    {
      "inputs": [
        {
          "internalType": "uint256",
          "name": "_spaceIndex",
          "type": "uint256"
        }
      ],
      "name": "requestJoin",
      "outputs": [
        {
          "internalType": "bool",
          "name": "",
          "type": "bool"
        }
      ],
      "stateMutability": "nonpayable",
      "type": "function"
    },
    {
      "inputs": [
        {
          "internalType": "uint256",
          "name": "_spaceIndex",
          "type": "uint256"
        },
        {
          "internalType": "address",
          "name": "_address",
          "type": "address"
        }
      ],
      "name": "setFounder",
      "outputs": [],
      "stateMutability": "nonpayable",
      "type": "function"
    },
    {
      "inputs": [
        {
          "internalType": "uint256",
          "name": "_spaceIndex",
          "type": "uint256"
        },
        {
          "internalType": "address",
          "name": "_address",
          "type": "address"
        },
        {
          "internalType": "bool",
          "name": "_isActive",
          "type": "bool"
        },
        {
          "internalType": "bool",
          "name": "_isAdmin",
          "type": "bool"
        }
      ],
      "name": "setMember",
      "outputs": [],
      "stateMutability": "nonpayable",
      "type": "function"
    },
    {
      "inputs": [
        {
          "internalType": "bytes32",
          "name": "",
          "type": "bytes32"
        }
      ],
      "name": "spaceHandles",
      "outputs": [
        {
          "internalType": "uint256",
          "name": "",
          "type": "uint256"
        }
      ],
      "stateMutability": "view",
      "type": "function"
    },
    {
      "inputs": [
        {
          "internalType": "uint256",
          "name": "",
          "type": "uint256"
        }
      ],
      "name": "spaceMemberLength",
      "outputs": [
        {
          "internalType": "uint256",
          "name": "",
          "type": "uint256"
        }
      ],
      "stateMutability": "view",
      "type": "function"
    },
    {
      "inputs": [
        {
          "internalType": "uint256",
          "name": "",
          "type": "uint256"
        },
        {
          "internalType": "address",
          "name": "",
          "type": "address"
        }
      ],
      "name": "spaceMembers",
      "outputs": [
        {
          "internalType": "bool",
          "name": "isAdmin",
          "type": "bool"
        },
        {
          "internalType": "bool",
          "name": "isActive",
          "type": "bool"
        },
        {
          "internalType": "bool",
          "name": "isRequest",
          "type": "bool"
        }
      ],
      "stateMutability": "view",
      "type": "function"
    },
    {
      "inputs": [
        {
          "internalType": "uint256",
          "name": "",
          "type": "uint256"
        }
      ],
      "name": "spaces",
      "outputs": [
        {
          "internalType": "uint256",
          "name": "index",
          "type": "uint256"
        },
        {
          "internalType": "bytes32",
          "name": "handle",
          "type": "bytes32"
        },
        {
          "internalType": "enum EmbraceSpaces.Visibility",
          "name": "visibility",
          "type": "uint8"
        },
        {
          "components": [
            {
              "internalType": "enum EmbraceSpaces.Access",
              "name": "access",
              "type": "uint8"
            },
            {
              "components": [
                {
                  "internalType": "enum EmbraceSpaces.MembershipGateToken",
                  "name": "token",
                  "type": "uint8"
                },
                {
                  "internalType": "address",
                  "name": "tokenAddress",
                  "type": "address"
                }
              ],
              "internalType": "struct EmbraceSpaces.MembershipGate",
              "name": "gate",
              "type": "tuple"
            },
            {
              "internalType": "bool",
              "name": "allowRequests",
              "type": "bool"
            }
          ],
          "internalType": "struct EmbraceSpaces.Membership",
          "name": "membership",
          "type": "tuple"
        },
        {
          "internalType": "string",
          "name": "metadata",
          "type": "string"
        },
        {
          "internalType": "address",
          "name": "founder",
          "type": "address"
        }
      ],
      "stateMutability": "view",
      "type": "function"
    }
  ],
  "bytecode": "0x6080604052600080553480156200001557600080fd5b5060405162002fed38038062002fed83398101604081905262000038916200005e565b600280546001600160a01b0319166001600160a01b039290921691909117905562000090565b6000602082840312156200007157600080fd5b81516001600160a01b03811681146200008957600080fd5b9392505050565b612f4d80620000a06000396000f3fe608060405234801561001057600080fd5b50600436106101825760003560e01c806385155bf6116100d8578063b29518f21161008c578063dbdc814b11610066578063dbdc814b14610471578063dd739fb514610484578063f71771281461049757600080fd5b8063b29518f214610418578063d1f97b791461042b578063d50c73771461043e57600080fd5b806399384976116100bd5780639938497614610392578063a303cf8e146103a5578063af41f22a146103b857600080fd5b806385155bf61461036c5780638be9e3c81461037f57600080fd5b80633254c1f61161013a5780635ce9284f116101145780635ce9284f1461030757806370e10431146103275780637586353b1461034757600080fd5b80633254c1f61461029957806333d7ae40146102c75780633a6eb955146102e757600080fd5b80631557f48c1161016b5780631557f48c146101ba5780631f6dc437146102635780632ea6524f1461028657600080fd5b8063036f0e161461018757806315478ca91461019c575b600080fd5b61019a61019536600461278f565b6104aa565b005b6101a46105a7565b6040516101b19190612942565b60405180910390f35b61023b6101c83660046129bb565b604080516060808201835260008083526020808401829052928401819052948552600382528285206001600160a01b0394909416855292815292819020815192830182525460ff808216151584526101008204811615159484019490945262010000900490921615159181019190915290565b60408051825115158152602080840151151590820152918101511515908201526060016101b1565b6102766102713660046129de565b61082a565b60405190151581526020016101b1565b6102766102943660046129de565b610860565b6102b96102a73660046129de565b60056020526000908152604090205481565b6040519081526020016101b1565b6102b96102d53660046129de565b60046020526000908152604090205481565b6102b96102f53660046129de565b60009081526005602052604090205490565b6102b96103153660046129de565b60009081526004602052604090205490565b61033a6103353660046129de565b610c19565b6040516101b191906129f7565b61035a6103553660046129de565b610e76565b6040516101b196959493929190612a11565b61033a61037a3660046129de565b610ff7565b61027661038d3660046129de565b611265565b61019a6103a03660046129bb565b61177d565b6102766103b33660046129de565b611807565b6103f96103c63660046129bb565b600360209081526000928352604080842090915290825290205460ff808216916101008104821691620100009091041683565b60408051931515845291151560208401521515908201526060016101b1565b61019a610426366004612c12565b611a6e565b6102766104393660046129de565b611dfe565b61027661044c3660046129de565b6000908152600360209081526040808320338452909152902054610100900460ff1690565b61019a61047f3660046129bb565b6121a7565b61019a610492366004612d1c565b612312565b61019a6104a5366004612d69565b61251a565b816104b48161082a565b806104c357506104c381611807565b156104ef5760405163eae3129560e01b8152600481018290523360248201526044015b60405180910390fd5b60006001848154811061050457610504612d8b565b9060005260206000209060090201905080600601836001600160801b03168154811061053257610532612d8b565b60009182526020822060028204015460019091166010026101000a90046001600160801b031690036105a157600681018054600180820183556000928352602090922060028204018054929091166010026101000a6001600160801b0381810219909316928616029190911790555b50505050565b60606001805480602002602001604051908101604052809291908181526020016000905b8282101561082157838290600052602060002090600902016040518060e001604052908160008201548152602001600182015481526020016002820160009054906101000a900460ff166002811115610626576106266127bb565b6002811115610637576106376127bb565b81526040805160608101909152600383018054602090930192829060ff166002811115610666576106666127bb565b6002811115610677576106776127bb565b815260408051808201909152600183018054602090930192829060ff1660038111156106a5576106a56127bb565b60038111156106b6576106b66127bb565b8152905461010090046001600160a01b03166020918201529082526002929092015460ff161515908201529082526006830180546040805182850281018501909152818152938301939283018282801561076157602002820191906000526020600020906000905b82829054906101000a90046001600160801b03166001600160801b031681526020019060100190602082600f0104928301926001038202915080841161071e5790505b5050505050815260200160078201805461077a90612da1565b80601f01602080910402602001604051908101604052809291908181526020018280546107a690612da1565b80156107f35780601f106107c8576101008083540402835291602001916107f3565b820191906000526020600020905b8154815290600101906020018083116107d657829003601f168201915b5050509183525050600891909101546001600160a01b031660209182015290825260019290920191016105cb565b50505050905090565b600081815260036020908152604080832033845290915281205460ff16151560010361085857506001919050565b506000919050565b6000818152600360209081526040808320338452909152812054610100900460ff1615156001036108ad57604051630c4e612760e41b8152600481018390523360248201526044016104e6565b6000600183815481106108c2576108c2612d8b565b90600052602060002090600902016040518060e001604052908160008201548152602001600182015481526020016002820160009054906101000a900460ff166002811115610913576109136127bb565b6002811115610924576109246127bb565b81526040805160608101909152600383018054602090930192829060ff166002811115610953576109536127bb565b6002811115610964576109646127bb565b815260408051808201909152600183018054602090930192829060ff166003811115610992576109926127bb565b60038111156109a3576109a36127bb565b8152905461010090046001600160a01b03166020918201529082526002929092015460ff1615159082015290825260068301805460408051828502810185019091528181529383019392830182828015610a4e57602002820191906000526020600020906000905b82829054906101000a90046001600160801b03166001600160801b031681526020019060100190602082600f01049283019260010382029150808411610a0b5790505b50505050508152602001600782018054610a6790612da1565b80601f0160208091040260200160405190810160405280929190818152602001828054610a9390612da1565b8015610ae05780601f10610ab557610100808354040283529160200191610ae0565b820191906000526020600020905b815481529060010190602001808311610ac357829003601f168201915b5050509183525050600891909101546001600160a01b03166020909101529050600181604001516002811115610b1857610b186127bb565b141580610b3c575060026060820151516002811115610b3957610b396127bb565b14155b80610b4d5750806060015160400151155b15610b745760405163425ad41160e11b8152600481018490523360248201526044016104e6565b604080516060810182526000808252602080830182815260018486019081528884526003835285842033808652935285842085518154935192511515620100000262ff0000199315156101000261ff00199215159290921661ffff19909516949094171791909116919091179055815493519293909290917fdbb2455cc69235cd7b041dc0cced849ee3bd818c2e063d18e579d3d068f7974e91a35060019392505050565b610c2161262a565b60018281548110610c3457610c34612d8b565b90600052602060002090600902016040518060e001604052908160008201548152602001600182015481526020016002820160009054906101000a900460ff166002811115610c8557610c856127bb565b6002811115610c9657610c966127bb565b81526040805160608101909152600383018054602090930192829060ff166002811115610cc557610cc56127bb565b6002811115610cd657610cd66127bb565b815260408051808201909152600183018054602090930192829060ff166003811115610d0457610d046127bb565b6003811115610d1557610d156127bb565b8152905461010090046001600160a01b03166020918201529082526002929092015460ff1615159082015290825260068301805460408051828502810185019091528181529383019392830182828015610dc057602002820191906000526020600020906000905b82829054906101000a90046001600160801b03166001600160801b031681526020019060100190602082600f01049283019260010382029150808411610d7d5790505b50505050508152602001600782018054610dd990612da1565b80601f0160208091040260200160405190810160405280929190818152602001828054610e0590612da1565b8015610e525780601f10610e2757610100808354040283529160200191610e52565b820191906000526020600020905b815481529060010190602001808311610e3557829003601f168201915b5050509183525050600891909101546001600160a01b031660209091015292915050565b60018181548110610e8657600080fd5b60009182526020909120600990910201805460018201546002808401546040805160608101909152600386018054959750939560ff928316959094919391928492911690811115610ed957610ed96127bb565b6002811115610eea57610eea6127bb565b815260408051808201909152600183018054602090930192829060ff166003811115610f1857610f186127bb565b6003811115610f2957610f296127bb565b8152905461010090046001600160a01b03166020918201529082526002929092015460ff161515910152600782018054919291610f6590612da1565b80601f0160208091040260200160405190810160405280929190818152602001828054610f9190612da1565b8015610fde5780601f10610fb357610100808354040283529160200191610fde565b820191906000526020600020905b815481529060010190602001808311610fc157829003601f168201915b505050600890930154919250506001600160a01b031686565b610fff61262a565b600082815260056020526040902054600180548290811061102257611022612d8b565b90600052602060002090600902016040518060e001604052908160008201548152602001600182015481526020016002820160009054906101000a900460ff166002811115611073576110736127bb565b6002811115611084576110846127bb565b81526040805160608101909152600383018054602090930192829060ff1660028111156110b3576110b36127bb565b60028111156110c4576110c46127bb565b815260408051808201909152600183018054602090930192829060ff1660038111156110f2576110f26127bb565b6003811115611103576111036127bb565b8152905461010090046001600160a01b03166020918201529082526002929092015460ff16151590820152908252600683018054604080518285028101850190915281815293830193928301828280156111ae57602002820191906000526020600020906000905b82829054906101000a90046001600160801b03166001600160801b031681526020019060100190602082600f0104928301926001038202915080841161116b5790505b505050505081526020016007820180546111c790612da1565b80601f01602080910402602001604051908101604052809291908181526020018280546111f390612da1565b80156112405780601f1061121557610100808354040283529160200191611240565b820191906000526020600020905b81548152906001019060200180831161122357829003601f168201915b5050509183525050600891909101546001600160a01b03166020909101529392505050565b6000806001838154811061127b5761127b612d8b565b90600052602060002090600902016040518060e001604052908160008201548152602001600182015481526020016002820160009054906101000a900460ff1660028111156112cc576112cc6127bb565b60028111156112dd576112dd6127bb565b81526040805160608101909152600383018054602090930192829060ff16600281111561130c5761130c6127bb565b600281111561131d5761131d6127bb565b815260408051808201909152600183018054602090930192829060ff16600381111561134b5761134b6127bb565b600381111561135c5761135c6127bb565b8152905461010090046001600160a01b03166020918201529082526002929092015460ff161515908201529082526006830180546040805182850281018501909152818152938301939283018282801561140757602002820191906000526020600020906000905b82829054906101000a90046001600160801b03166001600160801b031681526020019060100190602082600f010492830192600103820291508084116113c45790505b5050505050815260200160078201805461142090612da1565b80601f016020809104026020016040519081016040528092919081815260200182805461144c90612da1565b80156114995780601f1061146e57610100808354040283529160200191611499565b820191906000526020600020905b81548152906001019060200180831161147c57829003601f168201915b5050509183525050600891909101546001600160a01b031660209182015260008581526003825260408082203383529092522054909150610100900460ff16151560010361150357604051630c4e612760e41b8152600481018490523360248201526044016104e6565b60028160400151600281111561151b5761151b6127bb565b036115425760405163cf14998d60e01b8152600481018490523360248201526044016104e6565b60018160400151600281111561155a5761155a6127bb565b14801561157d57506002606082015151600281111561157b5761157b6127bb565b145b156115a45760405163425ad41160e11b8152600481018490523360248201526044016104e6565b600160608201515160028111156115bd576115bd6127bb565b1480156115d057506115ce83611dfe565b155b156115f757604051637a8a90f360e11b8152600481018490523360248201526044016104e6565b600060018083604001516002811115611612576116126127bb565b148015611635575060006060840151516002811115611633576116336127bb565b145b1561164257506001905060005b60408051606081018252600080825283151560208084019182528615158486019081528a845260038252858420338552825285842085518154945192511515620100000262ff0000199315156101000261ff00199215159290921661ffff199096169590951717919091169290921790915588825260049052918220805491926116cb83612df1565b90915550506000805460405191825233917f01b0570fcf8d040a1dead2d60d1060b4817a6ebc4de6b950e632df705b9f50489060200160405180910390a3600254600054604051633576860d60e11b815233600482015260248101919091526001600160a01b0390911690636aed0c1a90604401600060405180830381600087803b15801561175957600080fd5b505af115801561176d573d6000803e3d6000fd5b5060019998505050505050505050565b8161178781611807565b156117ae57604051633eb0f74360e21b8152600481018290523360248201526044016104e6565b6000600184815481106117c3576117c3612d8b565b60009182526020909120600990910201600801805473ffffffffffffffffffffffffffffffffffffffff19166001600160a01b039490941693909317909255505050565b6000806001838154811061181d5761181d612d8b565b90600052602060002090600902016040518060e001604052908160008201548152602001600182015481526020016002820160009054906101000a900460ff16600281111561186e5761186e6127bb565b600281111561187f5761187f6127bb565b81526040805160608101909152600383018054602090930192829060ff1660028111156118ae576118ae6127bb565b60028111156118bf576118bf6127bb565b815260408051808201909152600183018054602090930192829060ff1660038111156118ed576118ed6127bb565b60038111156118fe576118fe6127bb565b8152905461010090046001600160a01b03166020918201529082526002929092015460ff16151590820152908252600683018054604080518285028101850190915281815293830193928301828280156119a957602002820191906000526020600020906000905b82829054906101000a90046001600160801b03166001600160801b031681526020019060100190602082600f010492830192600103820291508084116119665790505b505050505081526020016007820180546119c290612da1565b80601f01602080910402602001604051908101604052809291908181526020018280546119ee90612da1565b8015611a3b5780601f10611a1057610100808354040283529160200191611a3b565b820191906000526020600020905b815481529060010190602001808311611a1e57829003601f168201915b5050509183525050600891909101546001600160a01b0390811660209092019190915260c0909101511633149392505050565b60008581526005602052604090205415611a9e57604051634a4619dd60e11b8152600481018690526024016104e6565b60006040518060e001604052806000548152602001878152602001866002811115611acb57611acb6127bb565b81526020808201879052604080830187905260608301869052336080909301929092526001805480820182556000829052845160099091027fb10e2d527612073b26eecdfd717e6a320cf44b4afac2b0732d9fcbe2b7fa0cf68101918255928501517fb10e2d527612073b26eecdfd717e6a320cf44b4afac2b0732d9fcbe2b7fa0cf7840155928401517fb10e2d527612073b26eecdfd717e6a320cf44b4afac2b0732d9fcbe2b7fa0cf890920180549495508594909160ff1990911690836002811115611b9b57611b9b6127bb565b021790555060608201518051600383018054909190829060ff19166001836002811115611bca57611bca6127bb565b02179055506020820151805160018084018054909291839160ff191690836003811115611bf957611bf96127bb565b021790555060209182015181546001600160a01b03909116610100027fffffffffffffffffffffff0000000000000000000000000000000000000000ff909116179055604092909201516002909101805491151560ff1990921691909117905560808301518051611c70926006850192019061266c565b5060a08201516007820190611c859082612e50565b5060c091909101516008909101805473ffffffffffffffffffffffffffffffffffffffff19166001600160a01b039283161790556000805488825260056020526040918290208190556002549151633576860d60e11b81523360048201526024810191909152911690636aed0c1a90604401600060405180830381600087803b158015611d1157600080fd5b505af1158015611d25573d6000803e3d6000fd5b5050600080548152600460205260408120805493509150611d4583612df1565b909155505060408051606081018252600180825260208083019182526000838501818152815482526003835285822033808452935285822094518554945191511515620100000262ff0000199215156101000261ff00199215159290921661ffff1990961695909517171692909217909255805492519192917fb86ecf9543f771ac118830339392a31c2ef19181bb1f831fa033235771791aa19190a3600080549080611df183612df1565b9190505550505050505050565b60008060018381548110611e1457611e14612d8b565b90600052602060002090600902016040518060e001604052908160008201548152602001600182015481526020016002820160009054906101000a900460ff166002811115611e6557611e656127bb565b6002811115611e7657611e766127bb565b81526040805160608101909152600383018054602090930192829060ff166002811115611ea557611ea56127bb565b6002811115611eb657611eb66127bb565b815260408051808201909152600183018054602090930192829060ff166003811115611ee457611ee46127bb565b6003811115611ef557611ef56127bb565b8152905461010090046001600160a01b03166020918201529082526002929092015460ff1615159082015290825260068301805460408051828502810185019091528181529383019392830182828015611fa057602002820191906000526020600020906000905b82829054906101000a90046001600160801b03166001600160801b031681526020019060100190602082600f01049283019260010382029150808411611f5d5790505b50505050508152602001600782018054611fb990612da1565b80601f0160208091040260200160405190810160405280929190818152602001828054611fe590612da1565b80156120325780601f1061200757610100808354040283529160200191612032565b820191906000526020600020905b81548152906001019060200180831161201557829003601f168201915b5050509183525050600891909101546001600160a01b03166020918201526060820151810151908101519051919250906001906003811115612076576120766127bb565b036120f3576040516370a0823160e01b815233600482015281906000906001600160a01b038316906370a08231906024015b602060405180830381865afa1580156120c5573d6000803e3d6000fd5b505050506040513d601f19601f820116820180604052508101906120e99190612f10565b1195945050505050565b6002606083015160200151516003811115612110576121106127bb565b03612146576040516370a0823160e01b815233600482015281906000906001600160a01b038316906370a08231906024016120a8565b6003606083015160200151516003811115612163576121636127bb565b0361219d57604051627eeac760e11b815233600482015260006024820181905282916001600160a01b0383169062fdd58e906044016120a8565b5060009392505050565b816121b181611807565b156121d857604051633eb0f74360e21b8152600481018290523360248201526044016104e6565b60008381526003602090815260408083206001600160a01b0386168452909152902054610100900460ff16151560010361223e5760008381526003602090815260408083206001600160a01b03861684529091529020805460ff19166001179055505050565b60408051606081018252600180825260208083018281526000848601818152898252600384528682206001600160a01b038a168352845286822086518154945192511515620100000262ff0000199315156101000261ff00199215159290921661ffff19909616959095171791909116929092179091555493519182529192339290917f01b0570fcf8d040a1dead2d60d1060b4817a6ebc4de6b950e632df705b9f5048910160405180910390a3600084815260046020526040812080549161230683612df1565b9190505550505b505050565b8361231c8161082a565b8061232b575061232b81611807565b156123525760405163eae3129560e01b8152600481018290523360248201526044016104e6565b60008581526003602090815260408083206001600160a01b038816845290915290205460ff6101009091041615158315151480156123b8575060008581526003602090815260408083206001600160a01b038816845290915290205460ff161515821515145b156123e857604051630c4e612760e41b8152600481018690526001600160a01b03851660248201526044016104e6565b60408051606081018252831515815284158015602080840191825260008486018181528b8252600383528682206001600160a01b038c1683529092529490942083518154925195511515620100000262ff0000199615156101000261ff00199215159290921661ffff1990941693909317179490941617909255906124c657600086815260046020526040812080549161248183612df1565b909155505060005460405184151581523391907f01b0570fcf8d040a1dead2d60d1060b4817a6ebc4de6b950e632df705b9f50489060200160405180910390a3612512565b60008681526004602052604081208054916124e083612f29565b90915550506000805460405133927f1c43a3cf5b547073bee7f10560079a1900cc5968c27fb3a768f8e65d5d46550591a35b505050505050565b816125248161082a565b80612533575061253381611807565b1561255a5760405163eae3129560e01b8152600481018290523360248201526044016104e6565b60006001848154811061256f5761256f612d8b565b9060005260206000209060090201905060005b600682015481101561262357838260060182815481106125a4576125a4612d8b565b6000918252602090912060028204015460019091166010026101000a90046001600160801b031603612611578160060181815481106125e5576125e5612d8b565b90600052602060002090600291828204019190066010026101000a8154906001600160801b0302191690555b8061261b81612df1565b915050612582565b5050505050565b6040805160e08101825260008082526020820181905290918201908152602001612652612724565b815260606020820181905260408201819052600091015290565b828054828255906000526020600020906001016002900481019282156127145791602002820160005b838211156126df57835183826101000a8154816001600160801b0302191690836001600160801b031602179055509260200192601001602081600f01049283019260010302612695565b80156127125782816101000a8154906001600160801b030219169055601001602081600f010492830192600103026126df565b505b5061272092915061275e565b5090565b60408051606081019091528060008152602001612751604080518082019091526000808252602082015290565b8152600060209091015290565b5b80821115612720576000815560010161275f565b80356001600160801b038116811461278a57600080fd5b919050565b600080604083850312156127a257600080fd5b823591506127b260208401612773565b90509250929050565b634e487b7160e01b600052602160045260246000fd5b600381106127e1576127e16127bb565b50565b80516127ef816127d1565b82526020810151805160048110612808576128086127bb565b806020850152506001600160a01b036020820151166040840152506040810151151560608301525050565b6000815180845260005b818110156128595760208185018101518683018201520161283d565b506000602082860101526020601f19601f83011685010191505092915050565b60006101408084018351855260208085015181870152604085015161289d816127d1565b8060408801525060608501516128b660608801826127e4565b50608085015160e08701939093528251918290526101608601928101916000905b808210156129005783516001600160801b031685529382019392820192600191909101906128d7565b5050505060a083015184820361010086015261291c8282612833565b91505060c083015161293a6101208601826001600160a01b03169052565b509392505050565b6000602080830181845280855180835260408601915060408160051b870101925083870160005b8281101561299757603f19888603018452612985858351612879565b94509285019290850190600101612969565b5092979650505050505050565b80356001600160a01b038116811461278a57600080fd5b600080604083850312156129ce57600080fd5b823591506127b2602084016129a4565b6000602082840312156129f057600080fd5b5035919050565b602081526000612a0a6020830184612879565b9392505050565b6000610120888352876020840152612a28876127d1565b866040840152612a3b60608401876127e4565b8060e0840152612a4d81840186612833565b9150506001600160a01b038316610100830152979650505050505050565b600381106127e157600080fd5b634e487b7160e01b600052604160045260246000fd5b6040516060810167ffffffffffffffff81118282101715612ab157612ab1612a78565b60405290565b6040805190810167ffffffffffffffff81118282101715612ab157612ab1612a78565b604051601f8201601f1916810167ffffffffffffffff81118282101715612b0357612b03612a78565b604052919050565b8035801515811461278a57600080fd5b600082601f830112612b2c57600080fd5b8135602067ffffffffffffffff821115612b4857612b48612a78565b8160051b612b57828201612ada565b9283528481018201928281019087851115612b7157600080fd5b83870192505b84831015612b9757612b8883612773565b82529183019190830190612b77565b979650505050505050565b600082601f830112612bb357600080fd5b813567ffffffffffffffff811115612bcd57612bcd612a78565b612be0601f8201601f1916602001612ada565b818152846020838601011115612bf557600080fd5b816020850160208301376000918101602001919091529392505050565b6000806000806000858703610100811215612c2c57600080fd5b863595506020870135612c3e81612a6b565b94506080603f1982011215612c5257600080fd5b612c5a612a8e565b6040880135612c6881612a6b565b81526040605f1983011215612c7c57600080fd5b612c84612ab7565b9150606088013560048110612c9857600080fd5b8252612ca6608089016129a4565b6020830152816020820152612cbd60a08901612b0b565b604082015293505060c086013567ffffffffffffffff80821115612ce057600080fd5b612cec89838a01612b1b565b935060e0880135915080821115612d0257600080fd5b50612d0f88828901612ba2565b9150509295509295909350565b60008060008060808587031215612d3257600080fd5b84359350612d42602086016129a4565b9250612d5060408601612b0b565b9150612d5e60608601612b0b565b905092959194509250565b60008060408385031215612d7c57600080fd5b50508035926020909101359150565b634e487b7160e01b600052603260045260246000fd5b600181811c90821680612db557607f821691505b602082108103612dd557634e487b7160e01b600052602260045260246000fd5b50919050565b634e487b7160e01b600052601160045260246000fd5b600060018201612e0357612e03612ddb565b5060010190565b601f82111561230d57600081815260208120601f850160051c81016020861015612e315750805b601f850160051c820191505b8181101561251257828155600101612e3d565b815167ffffffffffffffff811115612e6a57612e6a612a78565b612e7e81612e788454612da1565b84612e0a565b602080601f831160018114612eb35760008415612e9b5750858301515b600019600386901b1c1916600185901b178555612512565b600085815260208120601f198616915b82811015612ee257888601518255948401946001909101908401612ec3565b5085821015612f005787850151600019600388901b60f8161c191681555b5050505050600190811b01905550565b600060208284031215612f2257600080fd5b5051919050565b600081612f3857612f38612ddb565b50600019019056fea164736f6c6343000811000a",
  "linkReferences": {},
  "deployedLinkReferences": {}
}