{
  "_format": "hh-sol-artifact-1",
  "contractName": "TablelandCommunities",
  "sourceName": "contracts/TablelandCommunities.sol",
  "abi": [
    {
      "inputs": [
        {
          "internalType": "address",
          "name": "_tablelandRegistryAddress",
          "type": "address"
        }
      ],
      "stateMutability": "nonpayable",
      "type": "constructor"
    },
    {
      "inputs": [
        {
          "internalType": "string",
          "name": "handle",
          "type": "string"
        }
      ],
      "name": "ErrorHandleExists",
      "type": "error"
    },
    {
      "inputs": [
        {
          "internalType": "string",
          "name": "tableName",
          "type": "string"
        }
      ],
      "name": "ErrorTableExists",
      "type": "error"
    },
    {
      "inputs": [
        {
          "internalType": "uint256",
          "name": "newCommunityId",
          "type": "uint256"
        },
        {
          "components": [
            {
              "internalType": "string",
              "name": "handle",
              "type": "string"
            },
            {
              "internalType": "string",
              "name": "name",
              "type": "string"
            },
            {
              "internalType": "string",
              "name": "description",
              "type": "string"
            },
            {
              "internalType": "string",
              "name": "image",
              "type": "string"
            }
          ],
          "internalType": "struct CommunityMetaData",
          "name": "_communityMetaData",
          "type": "tuple"
        }
      ],
      "name": "_insertCommunity",
      "outputs": [],
      "stateMutability": "nonpayable",
      "type": "function"
    },
    {
      "inputs": [],
      "name": "communitiesTable",
      "outputs": [
        {
          "internalType": "uint256",
          "name": "id",
          "type": "uint256"
        },
        {
          "internalType": "string",
          "name": "name",
          "type": "string"
        }
      ],
      "stateMutability": "view",
      "type": "function"
    }
  ],
  "bytecode": "0x60c0604052601360809081527f656d62726163655f636f6d6d756e69746965730000000000000000000000000060a0526000906200003e9082620006d1565b503480156200004c57600080fd5b5060405162001560380380620015608339810160408190526200006f916200079d565b600180546001600160a01b0319166001600160a01b038316179055620000946200009b565b5062000a1c565b60025415620000cb57604051633e0f514960e01b8152620000c290600390600401620007cf565b60405180910390fd5b600154604080516060810190915260368082526001600160a01b0390921691633a9151b0913091620001a591906200152a602083013960008054620001109062000642565b80601f01602080910402602001604051908101604052809291908181526020018280546200013e9062000642565b80156200018f5780601f1062000163576101008083540402835291602001916200018f565b820191906000526020600020905b8154815290600101906020018083116200017157829003601f168201915b5050505050620003a460201b6200030c1760201c565b6040518363ffffffff1660e01b8152600401620001c4929190620008b6565b6020604051808303816000875af1158015620001e4573d6000803e3d6000fd5b505050506040513d601f19601f820116820180604052508101906200020a9190620008e4565b60025560008054620002bd9190620002229062000642565b80601f0160208091040260200160405190810160405280929190818152602001828054620002509062000642565b8015620002a15780601f106200027557610100808354040283529160200191620002a1565b820191906000526020600020905b8154815290600101906020018083116200028357829003601f168201915b5050505050600260000154620003e960201b620003421760201c565b600390620002cc9082620006d1565b50620003a26040518060400160405280601181526020017043726561746564207461626c653a20257360781b815250600260010180546200030d9062000642565b80601f01602080910402602001604051908101604052809291908181526020018280546200033b9062000642565b80156200038c5780601f1062000360576101008083540402835291602001916200038c565b820191906000526020600020905b8154815290600101906020018083116200036e57829003601f168201915b50505050506200042c60201b620003691760201c565b565b606081620003bd466200047d60201b620003b21760201c565b84604051602001620003d293929190620008fe565b604051602081830303815290604052905092915050565b60608262000402466200047d60201b620003b21760201c565b62000418846200047d60201b620003b21760201c565b604051602001620003d2939291906200098a565b62000479828260405160240162000445929190620009ea565b60408051601f198184030181529190526020810180516001600160e01b03908116634b5c427760e01b179091526200052116565b5050565b6060600062000497836200054260201b620004441760201c565b60010190506000816001600160401b03811115620004b957620004b96200062c565b6040519080825280601f01601f191660200182016040528015620004e4576020820181803683370190505b5090508181016020015b600019016f181899199a1a9b1b9c1cb0b131b232b360811b600a86061a8153600a8504945084620004ee57509392505050565b80516a636f6e736f6c652e6c6f67602083016000808483855afa5050505050565b6000807a184f03e93ff9f4daa797ed6e38ed64bf6a1f01000000000000000083106200058c577a184f03e93ff9f4daa797ed6e38ed64bf6a1f010000000000000000830492506040015b6d04ee2d6d415b85acef81000000008310620005b9576d04ee2d6d415b85acef8100000000830492506020015b662386f26fc100008310620005d857662386f26fc10000830492506010015b6305f5e1008310620005f1576305f5e100830492506008015b61271083106200060657612710830492506004015b6064831062000619576064830492506002015b600a831062000626576001015b92915050565b634e487b7160e01b600052604160045260246000fd5b600181811c908216806200065757607f821691505b6020821081036200067857634e487b7160e01b600052602260045260246000fd5b50919050565b601f821115620006cc57600081815260208120601f850160051c81016020861015620006a75750805b601f850160051c820191505b81811015620006c857828155600101620006b3565b5050505b505050565b81516001600160401b03811115620006ed57620006ed6200062c565b6200070581620006fe845462000642565b846200067e565b602080601f8311600181146200073d5760008415620007245750858301515b600019600386901b1c1916600185901b178555620006c8565b600085815260208120601f198616915b828110156200076e578886015182559484019460019091019084016200074d565b50858210156200078d5787850151600019600388901b60f8161c191681555b5050505050600190811b01905550565b600060208284031215620007b057600080fd5b81516001600160a01b0381168114620007c857600080fd5b9392505050565b6000602080835260008454620007e58162000642565b80848701526040600180841660008114620008095760018114620008245762000854565b60ff1985168984015283151560051b89018301955062000854565b896000528660002060005b858110156200084c5781548b82018601529083019088016200082f565b8a0184019650505b509398975050505050505050565b60005b838110156200087f57818101518382015260200162000865565b50506000910152565b60008151808452620008a281602086016020860162000862565b601f01601f19169290920160200192915050565b6001600160a01b0383168152604060208201819052600090620008dc9083018462000888565b949350505050565b600060208284031215620008f757600080fd5b5051919050565b6c021a922a0aa22902a20a126229609d1b8152600084516200092881600d85016020890162000862565b605f60f81b600d9184019182015284516200094b81600e84016020890162000862565b600560fb1b600e929091019182015283516200096f81600f84016020880162000862565b602960f81b600f929091019182015260100195945050505050565b600084516200099e81846020890162000862565b8083019050605f60f81b8082528551620009c0816001850160208a0162000862565b60019201918201528351620009dd81600284016020880162000862565b0160020195945050505050565b604081526000620009ff604083018562000888565b828103602084015262000a13818562000888565b95945050505050565b610afe8062000a2c6000396000f3fe608060405234801561001057600080fd5b50600436106100365760003560e01c80635774932e1461003b578063d359496314610050575b600080fd5b61004e61004936600461066e565b61006f565b005b610058610275565b6040516100669291906107a2565b60405180910390f35b600061007a836103b2565b9050600082600001518360200151846040015185606001516040516020016100a594939291906107c3565b604051602081830303815290604052905060006100c260016103b2565b905060006101b9600080546100d690610896565b80601f016020809104026020016040519081016040528092919081815260200182805461010290610896565b801561014f5780601f106101245761010080835404028352916020019161014f565b820191906000526020600020905b81548152906001019060200180831161013257829003601f168201915b5050505050600260000154604051806040016040528060158152602001741a590b081b595d1859185d184b081a5b99195e1959605a1b815250876101928861051b565b876040516020016101a5939291906108d0565b604051602081830303815290604052610544565b905046617a6903610205576101fd60405180604001604052806017815260200176496e73657274696e6720436f6d6d756e6974793a20257360481b81525082610369565b505050505050565b60015460025460405163757ae82760e11b81526001600160a01b039092169163eaf5d04e9161023b91309190869060040161092a565b600060405180830381600087803b15801561025557600080fd5b505af1158015610269573d6000803e3d6000fd5b50505050505050505050565b600280546003805491929161028990610896565b80601f01602080910402602001604051908101604052809291908181526020018280546102b590610896565b80156103025780601f106102d757610100808354040283529160200191610302565b820191906000526020600020905b8154815290600101906020018083116102e557829003601f168201915b5050505050905082565b606081610318466103b2565b8460405160200161032b9392919061095a565b604051602081830303815290604052905092915050565b60608261034e466103b2565b610357846103b2565b60405160200161032b939291906109e0565b6103ae828260405160240161037f929190610a12565b60408051601f198184030181529190526020810180516001600160e01b0316634b5c427760e01b179052610583565b5050565b606060006103bf83610444565b60010190506000816001600160401b038111156103de576103de6105a4565b6040519080825280601f01601f191660200182016040528015610408576020820181803683370190505b5090508181016020015b600019016f181899199a1a9b1b9c1cb0b131b232b360811b600a86061a8153600a850494508461041257509392505050565b60008072184f03e93ff9f4daa797ed6e38ed64bf6a1f0160401b83106104835772184f03e93ff9f4daa797ed6e38ed64bf6a1f0160401b830492506040015b6904ee2d6d415b85acef8160201b83106104ad576904ee2d6d415b85acef8160201b830492506020015b662386f26fc1000083106104cb57662386f26fc10000830492506010015b6305f5e10083106104e3576305f5e100830492506008015b61271083106104f757612710830492506004015b60648310610509576064830492506002015b600a8310610515576001015b92915050565b60608160405160200161052e9190610a37565b6040516020818303038152906040529050919050565b606060006105528686610342565b905080848460405160200161056993929190610a65565b604051602081830303815290604052915050949350505050565b80516a636f6e736f6c652e6c6f67602083016000808483855afa5050505050565b634e487b7160e01b600052604160045260246000fd5b604051608081016001600160401b03811182821017156105dc576105dc6105a4565b60405290565b600082601f8301126105f357600080fd5b81356001600160401b038082111561060d5761060d6105a4565b604051601f8301601f19908116603f01168101908282118183101715610635576106356105a4565b8160405283815286602085880101111561064e57600080fd5b836020870160208301376000602085830101528094505050505092915050565b6000806040838503121561068157600080fd5b8235915060208301356001600160401b038082111561069f57600080fd5b90840190608082870312156106b357600080fd5b6106bb6105ba565b8235828111156106ca57600080fd5b6106d6888286016105e2565b8252506020830135828111156106eb57600080fd5b6106f7888286016105e2565b60208301525060408301358281111561070f57600080fd5b61071b888286016105e2565b60408301525060608301358281111561073357600080fd5b61073f888286016105e2565b6060830152508093505050509250929050565b60005b8381101561076d578181015183820152602001610755565b50506000910152565b6000815180845261078e816020860160208601610752565b601f01601f19169290920160200192915050565b8281526040602082015260006107bb6040830184610776565b949350505050565b6b3d913430b7323632911d101160a11b815284516000906107eb81600c850160208a01610752565b6b111610113730b6b2911d101160a11b600c918401918201528551610817816018840160208a01610752565b72111610113232b9b1b934b83a34b7b7111d101160691b60189290910191820152845161084b81602b840160208901610752565b6c1116101134b6b0b3b2911d101160991b602b92909101918201528351610879816038840160208801610752565b61227d60f01b60389290910191820152603a019695505050505050565b600181811c908216806108aa57607f821691505b6020821081036108ca57634e487b7160e01b600052602260045260246000fd5b50919050565b600084516108e2818460208901610752565b8083019050600b60fa1b8082528551610902816001850160208a01610752565b6001920191820152835161091d816002840160208801610752565b0160020195945050505050565b60018060a01b03841681528260208201526060604082015260006109516060830184610776565b95945050505050565b6c021a922a0aa22902a20a126229609d1b81526000845161098281600d850160208901610752565b605f60f81b600d9184019182015284516109a381600e840160208901610752565b600560fb1b600e929091019182015283516109c581600f840160208801610752565b602960f81b600f929091019182015260100195945050505050565b600084516109f2818460208901610752565b8083019050605f60f81b8082528551610902816001850160208a01610752565b604081526000610a256040830185610776565b82810360208401526109518185610776565b6000602760f81b8083528351610a54816001860160208801610752565b600193019283015250600201919050565b6b024a729a2a92a1024a72a27960a51b815260008451610a8c81600c850160208901610752565b600560fb1b600c918401918201528451610aad81600d840160208901610752565b67052ac8298aa8aa6560c31b600d92909101918201528351610ad6816015840160208801610752565b602960f81b601592909101918201526016019594505050505056fea164736f6c6343000811000a696420696e7465676572207072696d617279206b65792c206d6574616461746120746578742c20696e646578656420696e7465676572",
  "linkReferences": {},
  "deployedLinkReferences": {}
}